{
  "contracts/test.sol": {
    "Task3": {
      "abi": [
        {
          "inputs": [
            {
              "internalType": "string[]",
              "name": "data",
              "type": "string[]"
            }
          ],
          "name": "trimMirroringChars",
          "outputs": [
            {
              "internalType": "string",
              "name": "",
              "type": "string"
            }
          ],
          "stateMutability": "pure",
          "type": "function"
        }
      ],
      "evm": {
        "bytecode": {
          "linkReferences": {},
          "object": "608060405234801561001057600080fd5b50610983806100206000396000f3fe608060405234801561001057600080fd5b506004361061002b5760003560e01c8063daab840514610030575b600080fd5b61004a600480360381019061004591906105be565b610060565b60405161005791906106e0565b60405180910390f35b60606000604051602001610073906106cb565b604051602081830303815290604052905060005b83518110156100ef576100da828583815181106100cd577f4e487b7100000000000000000000000000000000000000000000000000000000600052603260045260246000fd5b60200260200101516100f9565b915080806100e790610888565b915050610087565b5080915050919050565b6060806000845111801561010e575060008351115b610141577f4e487b7100000000000000000000000000000000000000000000000000000000600052600160045260246000fd5b61014a846103b2565b90506000835185511161015e578451610161565b83515b90506000805b82811015610266578581815181106101a8577f4e487b7100000000000000000000000000000000000000000000000000000000600052603260045260246000fd5b602001015160f81c60f81b7effffffffffffffffffffffffffffffffffffffffffffffffffffffffffffff191684828151811061020e577f4e487b7100000000000000000000000000000000000000000000000000000000600052603260045260246000fd5b602001015160f81c60f81b7effffffffffffffffffffffffffffffffffffffffffffffffffffffffffffff19161461024557610266565b818061025090610888565b925050808061025e90610888565b915050610167565b506000604051602001610278906106cb565b604051602081830303815290604052905060005b82885161029991906107ab565b81101561031a57818882815181106102da577f4e487b7100000000000000000000000000000000000000000000000000000000600052603260045260246000fd5b602001015160f81c60f81b6040516020016102f69291906106a3565b6040516020818303038152906040529150808061031290610888565b91505061028c565b5060008290505b86518110156103a45781878281518110610364577f4e487b7100000000000000000000000000000000000000000000000000000000600052603260045260246000fd5b602001015160f81c60f81b6040516020016103809291906106a3565b6040516020818303038152906040529150808061039c90610888565b915050610321565b508094505050505092915050565b6060600082905060005b835181101561049c578381600186516103d591906107ab565b6103df91906107ab565b81518110610416577f4e487b7100000000000000000000000000000000000000000000000000000000600052603260045260246000fd5b602001015160f81c60f81b82828151811061045a577f4e487b7100000000000000000000000000000000000000000000000000000000600052603260045260246000fd5b60200101907effffffffffffffffffffffffffffffffffffffffffffffffffffffffffffff1916908160001a905350808061049490610888565b9150506103bc565b5080915050919050565b60006104b96104b484610727565b610702565b905080838252602082019050828560208602820111156104d857600080fd5b60005b8581101561052257813567ffffffffffffffff8111156104fa57600080fd5b8086016105078982610594565b855260208501945060208401935050506001810190506104db565b5050509392505050565b600061053f61053a84610753565b610702565b90508281526020810184848401111561055757600080fd5b610562848285610815565b509392505050565b600082601f83011261057b57600080fd5b813561058b8482602086016104a6565b91505092915050565b600082601f8301126105a557600080fd5b81356105b584826020860161052c565b91505092915050565b6000602082840312156105d057600080fd5b600082013567ffffffffffffffff8111156105ea57600080fd5b6105f68482850161056a565b91505092915050565b61061061060b826107df565b6108d1565b82525050565b600061062182610784565b61062b818561078f565b935061063b818560208601610824565b61064481610939565b840191505092915050565b600061065a82610784565b61066481856107a0565b9350610674818560208601610824565b80840191505092915050565b600061068d6000836107a0565b91506106988261094a565b600082019050919050565b60006106af828561064f565b91506106bb82846105ff565b6001820191508190509392505050565b60006106d682610680565b9150819050919050565b600060208201905081810360008301526106fa8184610616565b905092915050565b600061070c61071d565b90506107188282610857565b919050565b6000604051905090565b600067ffffffffffffffff8211156107425761074161090a565b5b602082029050602081019050919050565b600067ffffffffffffffff82111561076e5761076d61090a565b5b61077782610939565b9050602081019050919050565b600081519050919050565b600082825260208201905092915050565b600081905092915050565b60006107b68261080b565b91506107c18361080b565b9250828210156107d4576107d36108db565b5b828203905092915050565b60007fff0000000000000000000000000000000000000000000000000000000000000082169050919050565b6000819050919050565b82818337600083830152505050565b60005b83811015610842578082015181840152602081019050610827565b83811115610851576000848401525b50505050565b61086082610939565b810181811067ffffffffffffffff8211171561087f5761087e61090a565b5b80604052505050565b60006108938261080b565b91507fffffffffffffffffffffffffffffffffffffffffffffffffffffffffffffffff8214156108c6576108c56108db565b5b600182019050919050565b6000819050919050565b7f4e487b7100000000000000000000000000000000000000000000000000000000600052601160045260246000fd5b7f4e487b7100000000000000000000000000000000000000000000000000000000600052604160045260246000fd5b6000601f19601f8301169050919050565b5056fea264697066735822122050dc14a8accfa2cacbf438232b8888601d3ba148f9f7c799526c9ada58b1429c64736f6c63430008040033",
          "opcodes": "PUSH1 0x80 PUSH1 0x40 MSTORE CALLVALUE DUP1 ISZERO PUSH2 0x10 JUMPI PUSH1 0x0 DUP1 REVERT JUMPDEST POP PUSH2 0x983 DUP1 PUSH2 0x20 PUSH1 0x0 CODECOPY PUSH1 0x0 RETURN INVALID PUSH1 0x80 PUSH1 0x40 MSTORE CALLVALUE DUP1 ISZERO PUSH2 0x10 JUMPI PUSH1 0x0 DUP1 REVERT JUMPDEST POP PUSH1 0x4 CALLDATASIZE LT PUSH2 0x2B JUMPI PUSH1 0x0 CALLDATALOAD PUSH1 0xE0 SHR DUP1 PUSH4 0xDAAB8405 EQ PUSH2 0x30 JUMPI JUMPDEST PUSH1 0x0 DUP1 REVERT JUMPDEST PUSH2 0x4A PUSH1 0x4 DUP1 CALLDATASIZE SUB DUP2 ADD SWAP1 PUSH2 0x45 SWAP2 SWAP1 PUSH2 0x5BE JUMP JUMPDEST PUSH2 0x60 JUMP JUMPDEST PUSH1 0x40 MLOAD PUSH2 0x57 SWAP2 SWAP1 PUSH2 0x6E0 JUMP JUMPDEST PUSH1 0x40 MLOAD DUP1 SWAP2 SUB SWAP1 RETURN JUMPDEST PUSH1 0x60 PUSH1 0x0 PUSH1 0x40 MLOAD PUSH1 0x20 ADD PUSH2 0x73 SWAP1 PUSH2 0x6CB JUMP JUMPDEST PUSH1 0x40 MLOAD PUSH1 0x20 DUP2 DUP4 SUB SUB DUP2 MSTORE SWAP1 PUSH1 0x40 MSTORE SWAP1 POP PUSH1 0x0 JUMPDEST DUP4 MLOAD DUP2 LT ISZERO PUSH2 0xEF JUMPI PUSH2 0xDA DUP3 DUP6 DUP4 DUP2 MLOAD DUP2 LT PUSH2 0xCD JUMPI PUSH32 0x4E487B7100000000000000000000000000000000000000000000000000000000 PUSH1 0x0 MSTORE PUSH1 0x32 PUSH1 0x4 MSTORE PUSH1 0x24 PUSH1 0x0 REVERT JUMPDEST PUSH1 0x20 MUL PUSH1 0x20 ADD ADD MLOAD PUSH2 0xF9 JUMP JUMPDEST SWAP2 POP DUP1 DUP1 PUSH2 0xE7 SWAP1 PUSH2 0x888 JUMP JUMPDEST SWAP2 POP POP PUSH2 0x87 JUMP JUMPDEST POP DUP1 SWAP2 POP POP SWAP2 SWAP1 POP JUMP JUMPDEST PUSH1 0x60 DUP1 PUSH1 0x0 DUP5 MLOAD GT DUP1 ISZERO PUSH2 0x10E JUMPI POP PUSH1 0x0 DUP4 MLOAD GT JUMPDEST PUSH2 0x141 JUMPI PUSH32 0x4E487B7100000000000000000000000000000000000000000000000000000000 PUSH1 0x0 MSTORE PUSH1 0x1 PUSH1 0x4 MSTORE PUSH1 0x24 PUSH1 0x0 REVERT JUMPDEST PUSH2 0x14A DUP5 PUSH2 0x3B2 JUMP JUMPDEST SWAP1 POP PUSH1 0x0 DUP4 MLOAD DUP6 MLOAD GT PUSH2 0x15E JUMPI DUP5 MLOAD PUSH2 0x161 JUMP JUMPDEST DUP4 MLOAD JUMPDEST SWAP1 POP PUSH1 0x0 DUP1 JUMPDEST DUP3 DUP2 LT ISZERO PUSH2 0x266 JUMPI DUP6 DUP2 DUP2 MLOAD DUP2 LT PUSH2 0x1A8 JUMPI PUSH32 0x4E487B7100000000000000000000000000000000000000000000000000000000 PUSH1 0x0 MSTORE PUSH1 0x32 PUSH1 0x4 MSTORE PUSH1 0x24 PUSH1 0x0 REVERT JUMPDEST PUSH1 0x20 ADD ADD MLOAD PUSH1 0xF8 SHR PUSH1 0xF8 SHL PUSH31 0xFFFFFFFFFFFFFFFFFFFFFFFFFFFFFFFFFFFFFFFFFFFFFFFFFFFFFFFFFFFFFF NOT AND DUP5 DUP3 DUP2 MLOAD DUP2 LT PUSH2 0x20E JUMPI PUSH32 0x4E487B7100000000000000000000000000000000000000000000000000000000 PUSH1 0x0 MSTORE PUSH1 0x32 PUSH1 0x4 MSTORE PUSH1 0x24 PUSH1 0x0 REVERT JUMPDEST PUSH1 0x20 ADD ADD MLOAD PUSH1 0xF8 SHR PUSH1 0xF8 SHL PUSH31 0xFFFFFFFFFFFFFFFFFFFFFFFFFFFFFFFFFFFFFFFFFFFFFFFFFFFFFFFFFFFFFF NOT AND EQ PUSH2 0x245 JUMPI PUSH2 0x266 JUMP JUMPDEST DUP2 DUP1 PUSH2 0x250 SWAP1 PUSH2 0x888 JUMP JUMPDEST SWAP3 POP POP DUP1 DUP1 PUSH2 0x25E SWAP1 PUSH2 0x888 JUMP JUMPDEST SWAP2 POP POP PUSH2 0x167 JUMP JUMPDEST POP PUSH1 0x0 PUSH1 0x40 MLOAD PUSH1 0x20 ADD PUSH2 0x278 SWAP1 PUSH2 0x6CB JUMP JUMPDEST PUSH1 0x40 MLOAD PUSH1 0x20 DUP2 DUP4 SUB SUB DUP2 MSTORE SWAP1 PUSH1 0x40 MSTORE SWAP1 POP PUSH1 0x0 JUMPDEST DUP3 DUP9 MLOAD PUSH2 0x299 SWAP2 SWAP1 PUSH2 0x7AB JUMP JUMPDEST DUP2 LT ISZERO PUSH2 0x31A JUMPI DUP2 DUP9 DUP3 DUP2 MLOAD DUP2 LT PUSH2 0x2DA JUMPI PUSH32 0x4E487B7100000000000000000000000000000000000000000000000000000000 PUSH1 0x0 MSTORE PUSH1 0x32 PUSH1 0x4 MSTORE PUSH1 0x24 PUSH1 0x0 REVERT JUMPDEST PUSH1 0x20 ADD ADD MLOAD PUSH1 0xF8 SHR PUSH1 0xF8 SHL PUSH1 0x40 MLOAD PUSH1 0x20 ADD PUSH2 0x2F6 SWAP3 SWAP2 SWAP1 PUSH2 0x6A3 JUMP JUMPDEST PUSH1 0x40 MLOAD PUSH1 0x20 DUP2 DUP4 SUB SUB DUP2 MSTORE SWAP1 PUSH1 0x40 MSTORE SWAP2 POP DUP1 DUP1 PUSH2 0x312 SWAP1 PUSH2 0x888 JUMP JUMPDEST SWAP2 POP POP PUSH2 0x28C JUMP JUMPDEST POP PUSH1 0x0 DUP3 SWAP1 POP JUMPDEST DUP7 MLOAD DUP2 LT ISZERO PUSH2 0x3A4 JUMPI DUP2 DUP8 DUP3 DUP2 MLOAD DUP2 LT PUSH2 0x364 JUMPI PUSH32 0x4E487B7100000000000000000000000000000000000000000000000000000000 PUSH1 0x0 MSTORE PUSH1 0x32 PUSH1 0x4 MSTORE PUSH1 0x24 PUSH1 0x0 REVERT JUMPDEST PUSH1 0x20 ADD ADD MLOAD PUSH1 0xF8 SHR PUSH1 0xF8 SHL PUSH1 0x40 MLOAD PUSH1 0x20 ADD PUSH2 0x380 SWAP3 SWAP2 SWAP1 PUSH2 0x6A3 JUMP JUMPDEST PUSH1 0x40 MLOAD PUSH1 0x20 DUP2 DUP4 SUB SUB DUP2 MSTORE SWAP1 PUSH1 0x40 MSTORE SWAP2 POP DUP1 DUP1 PUSH2 0x39C SWAP1 PUSH2 0x888 JUMP JUMPDEST SWAP2 POP POP PUSH2 0x321 JUMP JUMPDEST POP DUP1 SWAP5 POP POP POP POP POP SWAP3 SWAP2 POP POP JUMP JUMPDEST PUSH1 0x60 PUSH1 0x0 DUP3 SWAP1 POP PUSH1 0x0 JUMPDEST DUP4 MLOAD DUP2 LT ISZERO PUSH2 0x49C JUMPI DUP4 DUP2 PUSH1 0x1 DUP7 MLOAD PUSH2 0x3D5 SWAP2 SWAP1 PUSH2 0x7AB JUMP JUMPDEST PUSH2 0x3DF SWAP2 SWAP1 PUSH2 0x7AB JUMP JUMPDEST DUP2 MLOAD DUP2 LT PUSH2 0x416 JUMPI PUSH32 0x4E487B7100000000000000000000000000000000000000000000000000000000 PUSH1 0x0 MSTORE PUSH1 0x32 PUSH1 0x4 MSTORE PUSH1 0x24 PUSH1 0x0 REVERT JUMPDEST PUSH1 0x20 ADD ADD MLOAD PUSH1 0xF8 SHR PUSH1 0xF8 SHL DUP3 DUP3 DUP2 MLOAD DUP2 LT PUSH2 0x45A JUMPI PUSH32 0x4E487B7100000000000000000000000000000000000000000000000000000000 PUSH1 0x0 MSTORE PUSH1 0x32 PUSH1 0x4 MSTORE PUSH1 0x24 PUSH1 0x0 REVERT JUMPDEST PUSH1 0x20 ADD ADD SWAP1 PUSH31 0xFFFFFFFFFFFFFFFFFFFFFFFFFFFFFFFFFFFFFFFFFFFFFFFFFFFFFFFFFFFFFF NOT AND SWAP1 DUP2 PUSH1 0x0 BYTE SWAP1 MSTORE8 POP DUP1 DUP1 PUSH2 0x494 SWAP1 PUSH2 0x888 JUMP JUMPDEST SWAP2 POP POP PUSH2 0x3BC JUMP JUMPDEST POP DUP1 SWAP2 POP POP SWAP2 SWAP1 POP JUMP JUMPDEST PUSH1 0x0 PUSH2 0x4B9 PUSH2 0x4B4 DUP5 PUSH2 0x727 JUMP JUMPDEST PUSH2 0x702 JUMP JUMPDEST SWAP1 POP DUP1 DUP4 DUP3 MSTORE PUSH1 0x20 DUP3 ADD SWAP1 POP DUP3 DUP6 PUSH1 0x20 DUP7 MUL DUP3 ADD GT ISZERO PUSH2 0x4D8 JUMPI PUSH1 0x0 DUP1 REVERT JUMPDEST PUSH1 0x0 JUMPDEST DUP6 DUP2 LT ISZERO PUSH2 0x522 JUMPI DUP2 CALLDATALOAD PUSH8 0xFFFFFFFFFFFFFFFF DUP2 GT ISZERO PUSH2 0x4FA JUMPI PUSH1 0x0 DUP1 REVERT JUMPDEST DUP1 DUP7 ADD PUSH2 0x507 DUP10 DUP3 PUSH2 0x594 JUMP JUMPDEST DUP6 MSTORE PUSH1 0x20 DUP6 ADD SWAP5 POP PUSH1 0x20 DUP5 ADD SWAP4 POP POP POP PUSH1 0x1 DUP2 ADD SWAP1 POP PUSH2 0x4DB JUMP JUMPDEST POP POP POP SWAP4 SWAP3 POP POP POP JUMP JUMPDEST PUSH1 0x0 PUSH2 0x53F PUSH2 0x53A DUP5 PUSH2 0x753 JUMP JUMPDEST PUSH2 0x702 JUMP JUMPDEST SWAP1 POP DUP3 DUP2 MSTORE PUSH1 0x20 DUP2 ADD DUP5 DUP5 DUP5 ADD GT ISZERO PUSH2 0x557 JUMPI PUSH1 0x0 DUP1 REVERT JUMPDEST PUSH2 0x562 DUP5 DUP3 DUP6 PUSH2 0x815 JUMP JUMPDEST POP SWAP4 SWAP3 POP POP POP JUMP JUMPDEST PUSH1 0x0 DUP3 PUSH1 0x1F DUP4 ADD SLT PUSH2 0x57B JUMPI PUSH1 0x0 DUP1 REVERT JUMPDEST DUP2 CALLDATALOAD PUSH2 0x58B DUP5 DUP3 PUSH1 0x20 DUP7 ADD PUSH2 0x4A6 JUMP JUMPDEST SWAP2 POP POP SWAP3 SWAP2 POP POP JUMP JUMPDEST PUSH1 0x0 DUP3 PUSH1 0x1F DUP4 ADD SLT PUSH2 0x5A5 JUMPI PUSH1 0x0 DUP1 REVERT JUMPDEST DUP2 CALLDATALOAD PUSH2 0x5B5 DUP5 DUP3 PUSH1 0x20 DUP7 ADD PUSH2 0x52C JUMP JUMPDEST SWAP2 POP POP SWAP3 SWAP2 POP POP JUMP JUMPDEST PUSH1 0x0 PUSH1 0x20 DUP3 DUP5 SUB SLT ISZERO PUSH2 0x5D0 JUMPI PUSH1 0x0 DUP1 REVERT JUMPDEST PUSH1 0x0 DUP3 ADD CALLDATALOAD PUSH8 0xFFFFFFFFFFFFFFFF DUP2 GT ISZERO PUSH2 0x5EA JUMPI PUSH1 0x0 DUP1 REVERT JUMPDEST PUSH2 0x5F6 DUP5 DUP3 DUP6 ADD PUSH2 0x56A JUMP JUMPDEST SWAP2 POP POP SWAP3 SWAP2 POP POP JUMP JUMPDEST PUSH2 0x610 PUSH2 0x60B DUP3 PUSH2 0x7DF JUMP JUMPDEST PUSH2 0x8D1 JUMP JUMPDEST DUP3 MSTORE POP POP JUMP JUMPDEST PUSH1 0x0 PUSH2 0x621 DUP3 PUSH2 0x784 JUMP JUMPDEST PUSH2 0x62B DUP2 DUP6 PUSH2 0x78F JUMP JUMPDEST SWAP4 POP PUSH2 0x63B DUP2 DUP6 PUSH1 0x20 DUP7 ADD PUSH2 0x824 JUMP JUMPDEST PUSH2 0x644 DUP2 PUSH2 0x939 JUMP JUMPDEST DUP5 ADD SWAP2 POP POP SWAP3 SWAP2 POP POP JUMP JUMPDEST PUSH1 0x0 PUSH2 0x65A DUP3 PUSH2 0x784 JUMP JUMPDEST PUSH2 0x664 DUP2 DUP6 PUSH2 0x7A0 JUMP JUMPDEST SWAP4 POP PUSH2 0x674 DUP2 DUP6 PUSH1 0x20 DUP7 ADD PUSH2 0x824 JUMP JUMPDEST DUP1 DUP5 ADD SWAP2 POP POP SWAP3 SWAP2 POP POP JUMP JUMPDEST PUSH1 0x0 PUSH2 0x68D PUSH1 0x0 DUP4 PUSH2 0x7A0 JUMP JUMPDEST SWAP2 POP PUSH2 0x698 DUP3 PUSH2 0x94A JUMP JUMPDEST PUSH1 0x0 DUP3 ADD SWAP1 POP SWAP2 SWAP1 POP JUMP JUMPDEST PUSH1 0x0 PUSH2 0x6AF DUP3 DUP6 PUSH2 0x64F JUMP JUMPDEST SWAP2 POP PUSH2 0x6BB DUP3 DUP5 PUSH2 0x5FF JUMP JUMPDEST PUSH1 0x1 DUP3 ADD SWAP2 POP DUP2 SWAP1 POP SWAP4 SWAP3 POP POP POP JUMP JUMPDEST PUSH1 0x0 PUSH2 0x6D6 DUP3 PUSH2 0x680 JUMP JUMPDEST SWAP2 POP DUP2 SWAP1 POP SWAP2 SWAP1 POP JUMP JUMPDEST PUSH1 0x0 PUSH1 0x20 DUP3 ADD SWAP1 POP DUP2 DUP2 SUB PUSH1 0x0 DUP4 ADD MSTORE PUSH2 0x6FA DUP2 DUP5 PUSH2 0x616 JUMP JUMPDEST SWAP1 POP SWAP3 SWAP2 POP POP JUMP JUMPDEST PUSH1 0x0 PUSH2 0x70C PUSH2 0x71D JUMP JUMPDEST SWAP1 POP PUSH2 0x718 DUP3 DUP3 PUSH2 0x857 JUMP JUMPDEST SWAP2 SWAP1 POP JUMP JUMPDEST PUSH1 0x0 PUSH1 0x40 MLOAD SWAP1 POP SWAP1 JUMP JUMPDEST PUSH1 0x0 PUSH8 0xFFFFFFFFFFFFFFFF DUP3 GT ISZERO PUSH2 0x742 JUMPI PUSH2 0x741 PUSH2 0x90A JUMP JUMPDEST JUMPDEST PUSH1 0x20 DUP3 MUL SWAP1 POP PUSH1 0x20 DUP2 ADD SWAP1 POP SWAP2 SWAP1 POP JUMP JUMPDEST PUSH1 0x0 PUSH8 0xFFFFFFFFFFFFFFFF DUP3 GT ISZERO PUSH2 0x76E JUMPI PUSH2 0x76D PUSH2 0x90A JUMP JUMPDEST JUMPDEST PUSH2 0x777 DUP3 PUSH2 0x939 JUMP JUMPDEST SWAP1 POP PUSH1 0x20 DUP2 ADD SWAP1 POP SWAP2 SWAP1 POP JUMP JUMPDEST PUSH1 0x0 DUP2 MLOAD SWAP1 POP SWAP2 SWAP1 POP JUMP JUMPDEST PUSH1 0x0 DUP3 DUP3 MSTORE PUSH1 0x20 DUP3 ADD SWAP1 POP SWAP3 SWAP2 POP POP JUMP JUMPDEST PUSH1 0x0 DUP2 SWAP1 POP SWAP3 SWAP2 POP POP JUMP JUMPDEST PUSH1 0x0 PUSH2 0x7B6 DUP3 PUSH2 0x80B JUMP JUMPDEST SWAP2 POP PUSH2 0x7C1 DUP4 PUSH2 0x80B JUMP JUMPDEST SWAP3 POP DUP3 DUP3 LT ISZERO PUSH2 0x7D4 JUMPI PUSH2 0x7D3 PUSH2 0x8DB JUMP JUMPDEST JUMPDEST DUP3 DUP3 SUB SWAP1 POP SWAP3 SWAP2 POP POP JUMP JUMPDEST PUSH1 0x0 PUSH32 0xFF00000000000000000000000000000000000000000000000000000000000000 DUP3 AND SWAP1 POP SWAP2 SWAP1 POP JUMP JUMPDEST PUSH1 0x0 DUP2 SWAP1 POP SWAP2 SWAP1 POP JUMP JUMPDEST DUP3 DUP2 DUP4 CALLDATACOPY PUSH1 0x0 DUP4 DUP4 ADD MSTORE POP POP POP JUMP JUMPDEST PUSH1 0x0 JUMPDEST DUP4 DUP2 LT ISZERO PUSH2 0x842 JUMPI DUP1 DUP3 ADD MLOAD DUP2 DUP5 ADD MSTORE PUSH1 0x20 DUP2 ADD SWAP1 POP PUSH2 0x827 JUMP JUMPDEST DUP4 DUP2 GT ISZERO PUSH2 0x851 JUMPI PUSH1 0x0 DUP5 DUP5 ADD MSTORE JUMPDEST POP POP POP POP JUMP JUMPDEST PUSH2 0x860 DUP3 PUSH2 0x939 JUMP JUMPDEST DUP2 ADD DUP2 DUP2 LT PUSH8 0xFFFFFFFFFFFFFFFF DUP3 GT OR ISZERO PUSH2 0x87F JUMPI PUSH2 0x87E PUSH2 0x90A JUMP JUMPDEST JUMPDEST DUP1 PUSH1 0x40 MSTORE POP POP POP JUMP JUMPDEST PUSH1 0x0 PUSH2 0x893 DUP3 PUSH2 0x80B JUMP JUMPDEST SWAP2 POP PUSH32 0xFFFFFFFFFFFFFFFFFFFFFFFFFFFFFFFFFFFFFFFFFFFFFFFFFFFFFFFFFFFFFFFF DUP3 EQ ISZERO PUSH2 0x8C6 JUMPI PUSH2 0x8C5 PUSH2 0x8DB JUMP JUMPDEST JUMPDEST PUSH1 0x1 DUP3 ADD SWAP1 POP SWAP2 SWAP1 POP JUMP JUMPDEST PUSH1 0x0 DUP2 SWAP1 POP SWAP2 SWAP1 POP JUMP JUMPDEST PUSH32 0x4E487B7100000000000000000000000000000000000000000000000000000000 PUSH1 0x0 MSTORE PUSH1 0x11 PUSH1 0x4 MSTORE PUSH1 0x24 PUSH1 0x0 REVERT JUMPDEST PUSH32 0x4E487B7100000000000000000000000000000000000000000000000000000000 PUSH1 0x0 MSTORE PUSH1 0x41 PUSH1 0x4 MSTORE PUSH1 0x24 PUSH1 0x0 REVERT JUMPDEST PUSH1 0x0 PUSH1 0x1F NOT PUSH1 0x1F DUP4 ADD AND SWAP1 POP SWAP2 SWAP1 POP JUMP JUMPDEST POP JUMP INVALID LOG2 PUSH5 0x6970667358 0x22 SLT KECCAK256 POP 0xDC EQ 0xA8 0xAC 0xCF LOG2 0xCA 0xCB DELEGATECALL CODESIZE 0x23 0x2B DUP9 DUP9 PUSH1 0x1D EXTCODESIZE LOG1 0x48 0xF9 0xF7 0xC7 SWAP10 MSTORE PUSH13 0x9ADA58B1429C64736F6C634300 ADDMOD DIV STOP CALLER "
        },
        "methodIdentifiers": {
          "trimMirroringChars(string[])": "daab8405"
        }
      }
    }
  }
}