{
	"contracts/Staking.sol": {
		"StakingPlatform": {
			"abi": [
				{
					"inputs": [
						{
							"internalType": "address",
							"name": "_token",
							"type": "address"
						}
					],
					"stateMutability": "nonpayable",
					"type": "constructor"
				},
				{
					"anonymous": false,
					"inputs": [
						{
							"indexed": false,
							"internalType": "address",
							"name": "staker",
							"type": "address"
						},
						{
							"indexed": false,
							"internalType": "uint256",
							"name": "rewardToClaim",
							"type": "uint256"
						}
					],
					"name": "Harvest",
					"type": "event"
				},
				{
					"anonymous": false,
					"inputs": [
						{
							"indexed": true,
							"internalType": "address",
							"name": "previousOwner",
							"type": "address"
						},
						{
							"indexed": true,
							"internalType": "address",
							"name": "newOwner",
							"type": "address"
						}
					],
					"name": "OwnershipTransferred",
					"type": "event"
				},
				{
					"anonymous": false,
					"inputs": [
						{
							"indexed": false,
							"internalType": "uint256",
							"name": "lockupDuration",
							"type": "uint256"
						}
					],
					"name": "SetEventPeriod",
					"type": "event"
				},
				{
					"anonymous": false,
					"inputs": [
						{
							"indexed": false,
							"internalType": "uint256",
							"name": "rewardRate",
							"type": "uint256"
						}
					],
					"name": "SetRewardRate",
					"type": "event"
				},
				{
					"anonymous": false,
					"inputs": [
						{
							"indexed": false,
							"internalType": "uint256",
							"name": "unstakingFeeRate",
							"type": "uint256"
						}
					],
					"name": "SetUnstakingFeeRate",
					"type": "event"
				},
				{
					"anonymous": false,
					"inputs": [
						{
							"indexed": false,
							"internalType": "address",
							"name": "staker",
							"type": "address"
						},
						{
							"indexed": false,
							"internalType": "uint256",
							"name": "amount",
							"type": "uint256"
						}
					],
					"name": "Staked",
					"type": "event"
				},
				{
					"anonymous": false,
					"inputs": [
						{
							"indexed": false,
							"internalType": "address",
							"name": "staker",
							"type": "address"
						},
						{
							"indexed": false,
							"internalType": "uint256",
							"name": "amount",
							"type": "uint256"
						}
					],
					"name": "Withdraw",
					"type": "event"
				},
				{
					"inputs": [
						{
							"internalType": "uint256",
							"name": "_mode",
							"type": "uint256"
						}
					],
					"name": "getMinimumStakingAmount",
					"outputs": [
						{
							"internalType": "uint256",
							"name": "",
							"type": "uint256"
						}
					],
					"stateMutability": "view",
					"type": "function"
				},
				{
					"inputs": [],
					"name": "getNumberofStakers",
					"outputs": [
						{
							"internalType": "uint256",
							"name": "",
							"type": "uint256"
						}
					],
					"stateMutability": "view",
					"type": "function"
				},
				{
					"inputs": [],
					"name": "getRewardRate",
					"outputs": [
						{
							"internalType": "uint256",
							"name": "",
							"type": "uint256"
						}
					],
					"stateMutability": "view",
					"type": "function"
				},
				{
					"inputs": [
						{
							"internalType": "address",
							"name": "_address",
							"type": "address"
						}
					],
					"name": "getStakerMode",
					"outputs": [
						{
							"internalType": "uint256",
							"name": "",
							"type": "uint256"
						}
					],
					"stateMutability": "view",
					"type": "function"
				},
				{
					"inputs": [],
					"name": "getTotalStaked",
					"outputs": [
						{
							"internalType": "uint256",
							"name": "",
							"type": "uint256"
						}
					],
					"stateMutability": "view",
					"type": "function"
				},
				{
					"inputs": [],
					"name": "harvest",
					"outputs": [],
					"stateMutability": "nonpayable",
					"type": "function"
				},
				{
					"inputs": [
						{
							"internalType": "address",
							"name": "_address",
							"type": "address"
						}
					],
					"name": "isLocked",
					"outputs": [
						{
							"internalType": "uint256",
							"name": "",
							"type": "uint256"
						}
					],
					"stateMutability": "view",
					"type": "function"
				},
				{
					"inputs": [
						{
							"internalType": "address",
							"name": "_address",
							"type": "address"
						}
					],
					"name": "isStartStaking",
					"outputs": [
						{
							"internalType": "uint256",
							"name": "",
							"type": "uint256"
						}
					],
					"stateMutability": "view",
					"type": "function"
				},
				{
					"inputs": [],
					"name": "owner",
					"outputs": [
						{
							"internalType": "address",
							"name": "",
							"type": "address"
						}
					],
					"stateMutability": "view",
					"type": "function"
				},
				{
					"inputs": [],
					"name": "renounceOwnership",
					"outputs": [],
					"stateMutability": "nonpayable",
					"type": "function"
				},
				{
					"inputs": [
						{
							"internalType": "address",
							"name": "_address",
							"type": "address"
						}
					],
					"name": "rewardAmount",
					"outputs": [
						{
							"internalType": "uint256",
							"name": "",
							"type": "uint256"
						}
					],
					"stateMutability": "view",
					"type": "function"
				},
				{
					"inputs": [
						{
							"internalType": "address",
							"name": "_address",
							"type": "address"
						}
					],
					"name": "rewardToHarvest",
					"outputs": [
						{
							"internalType": "uint256",
							"name": "",
							"type": "uint256"
						}
					],
					"stateMutability": "view",
					"type": "function"
				},
				{
					"inputs": [
						{
							"internalType": "uint256",
							"name": "_minAmount",
							"type": "uint256"
						}
					],
					"name": "setCopperMinAmount",
					"outputs": [],
					"stateMutability": "nonpayable",
					"type": "function"
				},
				{
					"inputs": [
						{
							"internalType": "uint256",
							"name": "__eventPeriod",
							"type": "uint256"
						}
					],
					"name": "setEventPeriod",
					"outputs": [],
					"stateMutability": "nonpayable",
					"type": "function"
				},
				{
					"inputs": [
						{
							"internalType": "uint256",
							"name": "_minAmount",
							"type": "uint256"
						}
					],
					"name": "setGoldMinAmount",
					"outputs": [],
					"stateMutability": "nonpayable",
					"type": "function"
				},
				{
					"inputs": [
						{
							"internalType": "uint256",
							"name": "lockupTime",
							"type": "uint256"
						}
					],
					"name": "setLockupTime",
					"outputs": [],
					"stateMutability": "nonpayable",
					"type": "function"
				},
				{
					"inputs": [
						{
							"internalType": "uint256",
							"name": "__rewardRate",
							"type": "uint256"
						}
					],
					"name": "setRewardRate",
					"outputs": [],
					"stateMutability": "nonpayable",
					"type": "function"
				},
				{
					"inputs": [
						{
							"internalType": "uint256",
							"name": "_minAmount",
							"type": "uint256"
						}
					],
					"name": "setSilverMinAmount",
					"outputs": [],
					"stateMutability": "nonpayable",
					"type": "function"
				},
				{
					"inputs": [
						{
							"internalType": "uint256",
							"name": "_minAmount",
							"type": "uint256"
						}
					],
					"name": "setThreeMonthMinAmount",
					"outputs": [],
					"stateMutability": "nonpayable",
					"type": "function"
				},
				{
					"inputs": [
						{
							"internalType": "uint256",
							"name": "__unstakingFeeRate",
							"type": "uint256"
						}
					],
					"name": "setUnstakingFeeRate",
					"outputs": [],
					"stateMutability": "nonpayable",
					"type": "function"
				},
				{
					"inputs": [
						{
							"internalType": "uint256",
							"name": "_amount",
							"type": "uint256"
						}
					],
					"name": "stake",
					"outputs": [],
					"stateMutability": "nonpayable",
					"type": "function"
				},
				{
					"inputs": [
						{
							"internalType": "address",
							"name": "_address",
							"type": "address"
						}
					],
					"name": "stakedAmount",
					"outputs": [
						{
							"internalType": "uint256",
							"name": "",
							"type": "uint256"
						}
					],
					"stateMutability": "view",
					"type": "function"
				},
				{
					"inputs": [
						{
							"internalType": "uint256",
							"name": "_amount",
							"type": "uint256"
						},
						{
							"internalType": "uint256",
							"name": "_mode",
							"type": "uint256"
						}
					],
					"name": "startStaking",
					"outputs": [],
					"stateMutability": "nonpayable",
					"type": "function"
				},
				{
					"inputs": [],
					"name": "token",
					"outputs": [
						{
							"internalType": "contract IBEP20",
							"name": "",
							"type": "address"
						}
					],
					"stateMutability": "view",
					"type": "function"
				},
				{
					"inputs": [],
					"name": "totalStaked",
					"outputs": [
						{
							"internalType": "uint256",
							"name": "",
							"type": "uint256"
						}
					],
					"stateMutability": "view",
					"type": "function"
				},
				{
					"inputs": [
						{
							"internalType": "address",
							"name": "newOwner",
							"type": "address"
						}
					],
					"name": "transferOwnership",
					"outputs": [],
					"stateMutability": "nonpayable",
					"type": "function"
				},
				{
					"inputs": [
						{
							"internalType": "uint256",
							"name": "amount",
							"type": "uint256"
						}
					],
					"name": "withdraw",
					"outputs": [],
					"stateMutability": "nonpayable",
					"type": "function"
				}
			],
			"devdoc": {
				"kind": "dev",
				"methods": {
					"owner()": {
						"details": "Returns the address of the current owner."
					},
					"renounceOwnership()": {
						"details": "Leaves the contract without owner. It will not be possible to call `onlyOwner` functions anymore. Can only be called by the current owner. NOTE: Renouncing ownership will leave the contract without an owner, thereby removing any functionality that is only available to the owner."
					},
					"transferOwnership(address)": {
						"details": "Transfers ownership of the contract to a new account (`newOwner`). Can only be called by the current owner."
					}
				},
				"version": 1
			},
			"evm": {
				"assembly": "    /* \"contracts/Staking.sol\":260:10051  contract StakingPlatform is Ownable {... */\n  mstore(0x40, 0x80)\n    /* \"contracts/Staking.sol\":1673:1769  constructor(address _token) {... */\n  callvalue\n  dup1\n  iszero\n  tag_1\n  jumpi\n  0x00\n  dup1\n  revert\ntag_1:\n  pop\n  mload(0x40)\n  sub(codesize, bytecodeSize)\n  dup1\n  bytecodeSize\n  dup4\n  codecopy\n  dup2\n  dup2\n  add\n  0x40\n  mstore\n  dup2\n  add\n  swap1\n  tag_2\n  swap2\n  swap1\n  tag_3\n  jump\t// in\ntag_2:\n    /* \"@openzeppelin/contracts/access/Ownable.sol\":921:953  _transferOwnership(_msgSender()) */\n  tag_7\n    /* \"@openzeppelin/contracts/access/Ownable.sol\":940:952  _msgSender() */\n  tag_8\n    /* \"@openzeppelin/contracts/access/Ownable.sol\":940:950  _msgSender */\n  shl(0x20, tag_9)\n    /* \"@openzeppelin/contracts/access/Ownable.sol\":940:952  _msgSender() */\n  0x20\n  shr\n  jump\t// in\ntag_8:\n    /* \"@openzeppelin/contracts/access/Ownable.sol\":921:939  _transferOwnership */\n  shl(0x20, tag_10)\n    /* \"@openzeppelin/contracts/access/Ownable.sol\":921:953  _transferOwnership(_msgSender()) */\n  0x20\n  shr\n  jump\t// in\ntag_7:\n    /* \"contracts/Staking.sol\":1722:1728  Init() */\n  tag_12\n    /* \"contracts/Staking.sol\":1722:1726  Init */\n  shl(0x20, tag_13)\n    /* \"contracts/Staking.sol\":1722:1728  Init() */\n  0x20\n  shr\n  jump\t// in\ntag_12:\n    /* \"contracts/Staking.sol\":1754:1760  _token */\n  dup1\n    /* \"contracts/Staking.sol\":1739:1744  token */\n  0x0d\n  0x00\n    /* \"contracts/Staking.sol\":1739:1761  token = IBEP20(_token) */\n  0x0100\n  exp\n  dup2\n  sload\n  dup2\n  0xffffffffffffffffffffffffffffffffffffffff\n  mul\n  not\n  and\n  swap1\n  dup4\n  0xffffffffffffffffffffffffffffffffffffffff\n  and\n  mul\n  or\n  swap1\n  sstore\n  pop\n    /* \"contracts/Staking.sol\":1673:1769  constructor(address _token) {... */\n  pop\n    /* \"contracts/Staking.sol\":260:10051  contract StakingPlatform is Ownable {... */\n  jump(tag_14)\n    /* \"@openzeppelin/contracts/utils/Context.sol\":640:736  function _msgSender() internal view virtual returns (address) {... */\ntag_9:\n    /* \"@openzeppelin/contracts/utils/Context.sol\":693:700  address */\n  0x00\n    /* \"@openzeppelin/contracts/utils/Context.sol\":719:729  msg.sender */\n  caller\n    /* \"@openzeppelin/contracts/utils/Context.sol\":712:729  return msg.sender */\n  swap1\n  pop\n    /* \"@openzeppelin/contracts/utils/Context.sol\":640:736  function _msgSender() internal view virtual returns (address) {... */\n  swap1\n  jump\t// out\n    /* \"@openzeppelin/contracts/access/Ownable.sol\":2270:2457  function _transferOwnership(address newOwner) internal virtual {... */\ntag_10:\n    /* \"@openzeppelin/contracts/access/Ownable.sol\":2343:2359  address oldOwner */\n  0x00\n    /* \"@openzeppelin/contracts/access/Ownable.sol\":2362:2368  _owner */\n  dup1\n  0x00\n  swap1\n  sload\n  swap1\n  0x0100\n  exp\n  swap1\n  div\n  0xffffffffffffffffffffffffffffffffffffffff\n  and\n    /* \"@openzeppelin/contracts/access/Ownable.sol\":2343:2368  address oldOwner = _owner */\n  swap1\n  pop\n    /* \"@openzeppelin/contracts/access/Ownable.sol\":2387:2395  newOwner */\n  dup2\n    /* \"@openzeppelin/contracts/access/Ownable.sol\":2378:2384  _owner */\n  0x00\n  dup1\n    /* \"@openzeppelin/contracts/access/Ownable.sol\":2378:2395  _owner = newOwner */\n  0x0100\n  exp\n  dup2\n  sload\n  dup2\n  0xffffffffffffffffffffffffffffffffffffffff\n  mul\n  not\n  and\n  swap1\n  dup4\n  0xffffffffffffffffffffffffffffffffffffffff\n  and\n  mul\n  or\n  swap1\n  sstore\n  pop\n    /* \"@openzeppelin/contracts/access/Ownable.sol\":2441:2449  newOwner */\n  dup2\n    /* \"@openzeppelin/contracts/access/Ownable.sol\":2410:2450  OwnershipTransferred(oldOwner, newOwner) */\n  0xffffffffffffffffffffffffffffffffffffffff\n  and\n    /* \"@openzeppelin/contracts/access/Ownable.sol\":2431:2439  oldOwner */\n  dup2\n    /* \"@openzeppelin/contracts/access/Ownable.sol\":2410:2450  OwnershipTransferred(oldOwner, newOwner) */\n  0xffffffffffffffffffffffffffffffffffffffff\n  and\n  0x8be0079c531659141344cd1fd0a4f28419497f9722a3daafe3b4186f6b6457e0\n  mload(0x40)\n  mload(0x40)\n  dup1\n  swap2\n  sub\n  swap1\n  log3\n    /* \"@openzeppelin/contracts/access/Ownable.sol\":2333:2457  {... */\n  pop\n    /* \"@openzeppelin/contracts/access/Ownable.sol\":2270:2457  function _transferOwnership(address newOwner) internal virtual {... */\n  pop\n  jump\t// out\n    /* \"contracts/Staking.sol\":1777:2137  function Init() internal {... */\ntag_13:\n    /* \"contracts/Staking.sol\":1837:1840  200 */\n  0xc8\n    /* \"contracts/Staking.sol\":1823:1834  _rewardRate */\n  0x03\n    /* \"contracts/Staking.sol\":1823:1840  _rewardRate = 200 */\n  dup2\n  swap1\n  sstore\n  pop\n    /* \"contracts/Staking.sol\":1882:1886  1500 */\n  0x05dc\n    /* \"contracts/Staking.sol\":1862:1879  _unstakingFeeRate */\n  0x01\n    /* \"contracts/Staking.sol\":1862:1886  _unstakingFeeRate = 1500 */\n  dup2\n  swap1\n  sstore\n  pop\n    /* \"contracts/Staking.sol\":1914:1917  100 */\n  0x64\n    /* \"contracts/Staking.sol\":1897:1911  _rewardFeeRate */\n  0x04\n    /* \"contracts/Staking.sol\":1897:1917  _rewardFeeRate = 100 */\n  dup2\n  swap1\n  sstore\n  pop\n    /* \"contracts/Staking.sol\":1943:1944  7 */\n  0x07\n    /* \"contracts/Staking.sol\":1928:1940  _eventPeriod */\n  0x02\n    /* \"contracts/Staking.sol\":1928:1944  _eventPeriod = 7 */\n  dup2\n  swap1\n  sstore\n  pop\n    /* \"contracts/Staking.sol\":1971:1978  90 days */\n  0x76a700\n    /* \"contracts/Staking.sol\":1955:1968  _lockupPeriod */\n  0x05\n    /* \"contracts/Staking.sol\":1955:1978  _lockupPeriod = 90 days */\n  dup2\n  swap1\n  sstore\n  pop\n    /* \"contracts/Staking.sol\":2009:2016  3* 1e24 */\n  0x027b46536c66c8e3000000\n    /* \"contracts/Staking.sol\":1989:2006  _minStakeAmount_m */\n  0x06\n    /* \"contracts/Staking.sol\":1989:2016  _minStakeAmount_m = 3* 1e24 */\n  dup2\n  swap1\n  sstore\n  pop\n    /* \"contracts/Staking.sol\":2047:2051  1e24 */\n  0xd3c21bcecceda1000000\n    /* \"contracts/Staking.sol\":2027:2044  _minStakeAmount_c */\n  0x09\n    /* \"contracts/Staking.sol\":2027:2051  _minStakeAmount_c = 1e24 */\n  dup2\n  swap1\n  sstore\n  pop\n    /* \"contracts/Staking.sol\":2082:2090  3 * 1e24 */\n  0x027b46536c66c8e3000000\n    /* \"contracts/Staking.sol\":2062:2079  _minStakeAmount_s */\n  0x08\n    /* \"contracts/Staking.sol\":2062:2090  _minStakeAmount_s = 3 * 1e24 */\n  dup2\n  swap1\n  sstore\n  pop\n    /* \"contracts/Staking.sol\":2121:2129  7 * 1e24 */\n  0x05ca4ec2a79a7f67000000\n    /* \"contracts/Staking.sol\":2101:2118  _minStakeAmount_g */\n  0x07\n    /* \"contracts/Staking.sol\":2101:2129  _minStakeAmount_g = 7 * 1e24 */\n  dup2\n  swap1\n  sstore\n  pop\n    /* \"contracts/Staking.sol\":1777:2137  function Init() internal {... */\n  jump\t// out\n    /* \"#utility.yul\":88:205   */\ntag_19:\n    /* \"#utility.yul\":197:198   */\n  0x00\n    /* \"#utility.yul\":194:195   */\n  dup1\n    /* \"#utility.yul\":187:199   */\n  revert\n    /* \"#utility.yul\":334:460   */\ntag_21:\n    /* \"#utility.yul\":371:378   */\n  0x00\n    /* \"#utility.yul\":411:453   */\n  0xffffffffffffffffffffffffffffffffffffffff\n    /* \"#utility.yul\":404:409   */\n  dup3\n    /* \"#utility.yul\":400:454   */\n  and\n    /* \"#utility.yul\":389:454   */\n  swap1\n  pop\n    /* \"#utility.yul\":334:460   */\n  swap2\n  swap1\n  pop\n  jump\t// out\n    /* \"#utility.yul\":466:562   */\ntag_22:\n    /* \"#utility.yul\":503:510   */\n  0x00\n    /* \"#utility.yul\":532:556   */\n  tag_31\n    /* \"#utility.yul\":550:555   */\n  dup3\n    /* \"#utility.yul\":532:556   */\n  tag_21\n  jump\t// in\ntag_31:\n    /* \"#utility.yul\":521:556   */\n  swap1\n  pop\n    /* \"#utility.yul\":466:562   */\n  swap2\n  swap1\n  pop\n  jump\t// out\n    /* \"#utility.yul\":568:690   */\ntag_23:\n    /* \"#utility.yul\":641:665   */\n  tag_33\n    /* \"#utility.yul\":659:664   */\n  dup2\n    /* \"#utility.yul\":641:665   */\n  tag_22\n  jump\t// in\ntag_33:\n    /* \"#utility.yul\":634:639   */\n  dup2\n    /* \"#utility.yul\":631:666   */\n  eq\n    /* \"#utility.yul\":621:684   */\n  tag_34\n  jumpi\n    /* \"#utility.yul\":680:681   */\n  0x00\n    /* \"#utility.yul\":677:678   */\n  dup1\n    /* \"#utility.yul\":670:682   */\n  revert\n    /* \"#utility.yul\":621:684   */\ntag_34:\n    /* \"#utility.yul\":568:690   */\n  pop\n  jump\t// out\n    /* \"#utility.yul\":696:839   */\ntag_24:\n    /* \"#utility.yul\":753:758   */\n  0x00\n    /* \"#utility.yul\":784:790   */\n  dup2\n    /* \"#utility.yul\":778:791   */\n  mload\n    /* \"#utility.yul\":769:791   */\n  swap1\n  pop\n    /* \"#utility.yul\":800:833   */\n  tag_36\n    /* \"#utility.yul\":827:832   */\n  dup2\n    /* \"#utility.yul\":800:833   */\n  tag_23\n  jump\t// in\ntag_36:\n    /* \"#utility.yul\":696:839   */\n  swap3\n  swap2\n  pop\n  pop\n  jump\t// out\n    /* \"#utility.yul\":845:1196   */\ntag_3:\n    /* \"#utility.yul\":915:921   */\n  0x00\n    /* \"#utility.yul\":964:966   */\n  0x20\n    /* \"#utility.yul\":952:961   */\n  dup3\n    /* \"#utility.yul\":943:950   */\n  dup5\n    /* \"#utility.yul\":939:962   */\n  sub\n    /* \"#utility.yul\":935:967   */\n  slt\n    /* \"#utility.yul\":932:1051   */\n  iszero\n  tag_38\n  jumpi\n    /* \"#utility.yul\":970:1049   */\n  tag_39\n  tag_19\n  jump\t// in\ntag_39:\n    /* \"#utility.yul\":932:1051   */\ntag_38:\n    /* \"#utility.yul\":1090:1091   */\n  0x00\n    /* \"#utility.yul\":1115:1179   */\n  tag_40\n    /* \"#utility.yul\":1171:1178   */\n  dup5\n    /* \"#utility.yul\":1162:1168   */\n  dup3\n    /* \"#utility.yul\":1151:1160   */\n  dup6\n    /* \"#utility.yul\":1147:1169   */\n  add\n    /* \"#utility.yul\":1115:1179   */\n  tag_24\n  jump\t// in\ntag_40:\n    /* \"#utility.yul\":1105:1179   */\n  swap2\n  pop\n    /* \"#utility.yul\":1061:1189   */\n  pop\n    /* \"#utility.yul\":845:1196   */\n  swap3\n  swap2\n  pop\n  pop\n  jump\t// out\n    /* \"contracts/Staking.sol\":260:10051  contract StakingPlatform is Ownable {... */\ntag_14:\n  dataSize(sub_0)\n  dup1\n  dataOffset(sub_0)\n  0x00\n  codecopy\n  0x00\n  return\nstop\n\nsub_0: assembly {\n        /* \"contracts/Staking.sol\":260:10051  contract StakingPlatform is Ownable {... */\n      mstore(0x40, 0x80)\n      callvalue\n      dup1\n      iszero\n      tag_1\n      jumpi\n      0x00\n      dup1\n      revert\n    tag_1:\n      pop\n      jumpi(tag_2, lt(calldatasize, 0x04))\n      shr(0xe0, calldataload(0x00))\n      dup1\n      0x817b1cd2\n      gt\n      tag_30\n      jumpi\n      dup1\n      0xaedf562b\n      gt\n      tag_31\n      jumpi\n      dup1\n      0xf2fde38b\n      gt\n      tag_32\n      jumpi\n      dup1\n      0xf2fde38b\n      eq\n      tag_26\n      jumpi\n      dup1\n      0xf9931855\n      eq\n      tag_27\n      jumpi\n      dup1\n      0xfc0c546a\n      eq\n      tag_28\n      jumpi\n      dup1\n      0xfe600f84\n      eq\n      tag_29\n      jumpi\n      jump(tag_2)\n    tag_32:\n      dup1\n      0xaedf562b\n      eq\n      tag_23\n      jumpi\n      dup1\n      0xc1704a14\n      eq\n      tag_24\n      jumpi\n      dup1\n      0xc665d80e\n      eq\n      tag_25\n      jumpi\n      jump(tag_2)\n    tag_31:\n      dup1\n      0x91e07e7a\n      gt\n      tag_33\n      jumpi\n      dup1\n      0x91e07e7a\n      eq\n      tag_19\n      jumpi\n      dup1\n      0x9e447fc6\n      eq\n      tag_20\n      jumpi\n      dup1\n      0xa694fc3a\n      eq\n      tag_21\n      jumpi\n      dup1\n      0xae544943\n      eq\n      tag_22\n      jumpi\n      jump(tag_2)\n    tag_33:\n      dup1\n      0x817b1cd2\n      eq\n      tag_16\n      jumpi\n      dup1\n      0x8da5cb5b\n      eq\n      tag_17\n      jumpi\n      dup1\n      0x909f093e\n      eq\n      tag_18\n      jumpi\n      jump(tag_2)\n    tag_30:\n      dup1\n      0x4b77dd9e\n      gt\n      tag_34\n      jumpi\n      dup1\n      0x692642e7\n      gt\n      tag_35\n      jumpi\n      dup1\n      0x692642e7\n      eq\n      tag_12\n      jumpi\n      dup1\n      0x6ef32435\n      eq\n      tag_13\n      jumpi\n      dup1\n      0x715018a6\n      eq\n      tag_14\n      jumpi\n      dup1\n      0x7e1a3786\n      eq\n      tag_15\n      jumpi\n      jump(tag_2)\n    tag_35:\n      dup1\n      0x4b77dd9e\n      eq\n      tag_9\n      jumpi\n      dup1\n      0x5715ec11\n      eq\n      tag_10\n      jumpi\n      dup1\n      0x645a8a56\n      eq\n      tag_11\n      jumpi\n      jump(tag_2)\n    tag_34:\n      dup1\n      0x0917e776\n      eq\n      tag_3\n      jumpi\n      dup1\n      0x23b61117\n      eq\n      tag_4\n      jumpi\n      dup1\n      0x2e1a7d4d\n      eq\n      tag_5\n      jumpi\n      dup1\n      0x4641257d\n      eq\n      tag_6\n      jumpi\n      dup1\n      0x4a4fbeec\n      eq\n      tag_7\n      jumpi\n      dup1\n      0x4b62b70b\n      eq\n      tag_8\n      jumpi\n    tag_2:\n      0x00\n      dup1\n      revert\n        /* \"contracts/Staking.sol\":4376:4471  function getTotalStaked() public view returns (uint256) {... */\n    tag_3:\n      tag_36\n      tag_37\n      jump\t// in\n    tag_36:\n      mload(0x40)\n      tag_38\n      swap2\n      swap1\n      tag_39\n      jump\t// in\n    tag_38:\n      mload(0x40)\n      dup1\n      swap2\n      sub\n      swap1\n      return\n        /* \"contracts/Staking.sol\":8163:8335  function setSilverMinAmount(uint256 _minAmount) external onlyOwner {... */\n    tag_4:\n      tag_40\n      0x04\n      dup1\n      calldatasize\n      sub\n      dup2\n      add\n      swap1\n      tag_41\n      swap2\n      swap1\n      tag_42\n      jump\t// in\n    tag_41:\n      tag_43\n      jump\t// in\n    tag_40:\n      stop\n        /* \"contracts/Staking.sol\":5768:6828  function withdraw(uint256 amount) external{... */\n    tag_5:\n      tag_44\n      0x04\n      dup1\n      calldatasize\n      sub\n      dup2\n      add\n      swap1\n      tag_45\n      swap2\n      swap1\n      tag_42\n      jump\t// in\n    tag_45:\n      tag_46\n      jump\t// in\n    tag_44:\n      stop\n        /* \"contracts/Staking.sol\":9017:9612  function harvest() public{... */\n    tag_6:\n      tag_47\n      tag_48\n      jump\t// in\n    tag_47:\n      stop\n        /* \"contracts/Staking.sol\":4919:5324  function isLocked(address _address) public view returns (uint256) {... */\n    tag_7:\n      tag_49\n      0x04\n      dup1\n      calldatasize\n      sub\n      dup2\n      add\n      swap1\n      tag_50\n      swap2\n      swap1\n      tag_51\n      jump\t// in\n    tag_50:\n      tag_52\n      jump\t// in\n    tag_49:\n      mload(0x40)\n      tag_53\n      swap2\n      swap1\n      tag_39\n      jump\t// in\n    tag_53:\n      mload(0x40)\n      dup1\n      swap2\n      sub\n      swap1\n      return\n        /* \"contracts/Staking.sol\":7601:7783  function setLockupTime(uint256 lockupTime) external onlyOwner {... */\n    tag_8:\n      tag_54\n      0x04\n      dup1\n      calldatasize\n      sub\n      dup2\n      add\n      swap1\n      tag_55\n      swap2\n      swap1\n      tag_42\n      jump\t// in\n    tag_55:\n      tag_56\n      jump\t// in\n    tag_54:\n      stop\n        /* \"contracts/Staking.sol\":2823:3720  function startStaking(uint256 _amount, uint256 _mode) external {... */\n    tag_9:\n      tag_57\n      0x04\n      dup1\n      calldatasize\n      sub\n      dup2\n      add\n      swap1\n      tag_58\n      swap2\n      swap1\n      tag_59\n      jump\t// in\n    tag_58:\n      tag_60\n      jump\t// in\n    tag_57:\n      stop\n        /* \"contracts/Staking.sol\":4479:4582  function getNumberofStakers() public view returns (uint256) {... */\n    tag_10:\n      tag_61\n      tag_62\n      jump\t// in\n    tag_61:\n      mload(0x40)\n      tag_63\n      swap2\n      swap1\n      tag_39\n      jump\t// in\n    tag_63:\n      mload(0x40)\n      dup1\n      swap2\n      sub\n      swap1\n      return\n        /* \"contracts/Staking.sol\":5484:5619  function rewardAmount(address _address) public view returns (uint256) {... */\n    tag_11:\n      tag_64\n      0x04\n      dup1\n      calldatasize\n      sub\n      dup2\n      add\n      swap1\n      tag_65\n      swap2\n      swap1\n      tag_51\n      jump\t// in\n    tag_65:\n      tag_66\n      jump\t// in\n    tag_64:\n      mload(0x40)\n      tag_67\n      swap2\n      swap1\n      tag_39\n      jump\t// in\n    tag_67:\n      mload(0x40)\n      dup1\n      swap2\n      sub\n      swap1\n      return\n        /* \"contracts/Staking.sol\":7075:7311  function setEventPeriod(uint256 __eventPeriod) external onlyOwner {... */\n    tag_12:\n      tag_68\n      0x04\n      dup1\n      calldatasize\n      sub\n      dup2\n      add\n      swap1\n      tag_69\n      swap2\n      swap1\n      tag_42\n      jump\t// in\n    tag_69:\n      tag_70\n      jump\t// in\n    tag_68:\n      stop\n        /* \"contracts/Staking.sol\":8584:8972  function rewardToHarvest(address _address) public view returns (uint256){... */\n    tag_13:\n      tag_71\n      0x04\n      dup1\n      calldatasize\n      sub\n      dup2\n      add\n      swap1\n      tag_72\n      swap2\n      swap1\n      tag_51\n      jump\t// in\n    tag_72:\n      tag_73\n      jump\t// in\n    tag_71:\n      mload(0x40)\n      tag_74\n      swap2\n      swap1\n      tag_39\n      jump\t// in\n    tag_74:\n      mload(0x40)\n      dup1\n      swap2\n      sub\n      swap1\n      return\n        /* \"@openzeppelin/contracts/access/Ownable.sol\":1668:1769  function renounceOwnership() public virtual onlyOwner {... */\n    tag_14:\n      tag_75\n      tag_76\n      jump\t// in\n    tag_75:\n      stop\n        /* \"contracts/Staking.sol\":5627:5721  function getRewardRate() public view returns (uint256) {... */\n    tag_15:\n      tag_77\n      tag_78\n      jump\t// in\n    tag_77:\n      mload(0x40)\n      tag_79\n      swap2\n      swap1\n      tag_39\n      jump\t// in\n    tag_79:\n      mload(0x40)\n      dup1\n      swap2\n      sub\n      swap1\n      return\n        /* \"contracts/Staking.sol\":1213:1239  uint256 public totalStaked */\n    tag_16:\n      tag_80\n      tag_81\n      jump\t// in\n    tag_80:\n      mload(0x40)\n      tag_82\n      swap2\n      swap1\n      tag_39\n      jump\t// in\n    tag_82:\n      mload(0x40)\n      dup1\n      swap2\n      sub\n      swap1\n      return\n        /* \"@openzeppelin/contracts/access/Ownable.sol\":1036:1121  function owner() public view virtual returns (address) {... */\n    tag_17:\n      tag_83\n      tag_84\n      jump\t// in\n    tag_83:\n      mload(0x40)\n      tag_85\n      swap2\n      swap1\n      tag_86\n      jump\t// in\n    tag_85:\n      mload(0x40)\n      dup1\n      swap2\n      sub\n      swap1\n      return\n        /* \"contracts/Staking.sol\":9620:10048  function getMinimumStakingAmount(uint256 _mode) public view returns (uint256) {... */\n    tag_18:\n      tag_87\n      0x04\n      dup1\n      calldatasize\n      sub\n      dup2\n      add\n      swap1\n      tag_88\n      swap2\n      swap1\n      tag_42\n      jump\t// in\n    tag_88:\n      tag_89\n      jump\t// in\n    tag_87:\n      mload(0x40)\n      tag_90\n      swap2\n      swap1\n      tag_39\n      jump\t// in\n    tag_90:\n      mload(0x40)\n      dup1\n      swap2\n      sub\n      swap1\n      return\n        /* \"contracts/Staking.sol\":7319:7593  function setUnstakingFeeRate(uint256 __unstakingFeeRate) external onlyOwner {... */\n    tag_19:\n      tag_91\n      0x04\n      dup1\n      calldatasize\n      sub\n      dup2\n      add\n      swap1\n      tag_92\n      swap2\n      swap1\n      tag_42\n      jump\t// in\n    tag_92:\n      tag_93\n      jump\t// in\n    tag_91:\n      stop\n        /* \"contracts/Staking.sol\":6840:7067  function setRewardRate(uint256 __rewardRate) external onlyOwner {... */\n    tag_20:\n      tag_94\n      0x04\n      dup1\n      calldatasize\n      sub\n      dup2\n      add\n      swap1\n      tag_95\n      swap2\n      swap1\n      tag_42\n      jump\t// in\n    tag_95:\n      tag_96\n      jump\t// in\n    tag_94:\n      stop\n        /* \"contracts/Staking.sol\":3788:4368  function stake(uint256 _amount) public{... */\n    tag_21:\n      tag_97\n      0x04\n      dup1\n      calldatasize\n      sub\n      dup2\n      add\n      swap1\n      tag_98\n      swap2\n      swap1\n      tag_42\n      jump\t// in\n    tag_98:\n      tag_99\n      jump\t// in\n    tag_97:\n      stop\n        /* \"contracts/Staking.sol\":8343:8521  function setGoldMinAmount(uint256 _minAmount) external onlyOwner {... */\n    tag_22:\n      tag_100\n      0x04\n      dup1\n      calldatasize\n      sub\n      dup2\n      add\n      swap1\n      tag_101\n      swap2\n      swap1\n      tag_42\n      jump\t// in\n    tag_101:\n      tag_102\n      jump\t// in\n    tag_100:\n      stop\n        /* \"contracts/Staking.sol\":4590:4779  function getStakerMode(address _address) public view returns (uint256) {... */\n    tag_23:\n      tag_103\n      0x04\n      dup1\n      calldatasize\n      sub\n      dup2\n      add\n      swap1\n      tag_104\n      swap2\n      swap1\n      tag_51\n      jump\t// in\n    tag_104:\n      tag_105\n      jump\t// in\n    tag_103:\n      mload(0x40)\n      tag_106\n      swap2\n      swap1\n      tag_39\n      jump\t// in\n    tag_106:\n      mload(0x40)\n      dup1\n      swap2\n      sub\n      swap1\n      return\n        /* \"contracts/Staking.sol\":7983:8155  function setCopperMinAmount(uint256 _minAmount) external onlyOwner {... */\n    tag_24:\n      tag_107\n      0x04\n      dup1\n      calldatasize\n      sub\n      dup2\n      add\n      swap1\n      tag_108\n      swap2\n      swap1\n      tag_42\n      jump\t// in\n    tag_108:\n      tag_109\n      jump\t// in\n    tag_107:\n      stop\n        /* \"contracts/Staking.sol\":7791:7975  function setThreeMonthMinAmount(uint256 _minAmount) external onlyOwner {... */\n    tag_25:\n      tag_110\n      0x04\n      dup1\n      calldatasize\n      sub\n      dup2\n      add\n      swap1\n      tag_111\n      swap2\n      swap1\n      tag_42\n      jump\t// in\n    tag_111:\n      tag_112\n      jump\t// in\n    tag_110:\n      stop\n        /* \"@openzeppelin/contracts/access/Ownable.sol\":1918:2116  function transferOwnership(address newOwner) public virtual onlyOwner {... */\n    tag_26:\n      tag_113\n      0x04\n      dup1\n      calldatasize\n      sub\n      dup2\n      add\n      swap1\n      tag_114\n      swap2\n      swap1\n      tag_51\n      jump\t// in\n    tag_114:\n      tag_115\n      jump\t// in\n    tag_113:\n      stop\n        /* \"contracts/Staking.sol\":5336:5472  function stakedAmount(address _address) public view returns (uint256) {... */\n    tag_27:\n      tag_116\n      0x04\n      dup1\n      calldatasize\n      sub\n      dup2\n      add\n      swap1\n      tag_117\n      swap2\n      swap1\n      tag_51\n      jump\t// in\n    tag_117:\n      tag_118\n      jump\t// in\n    tag_116:\n      mload(0x40)\n      tag_119\n      swap2\n      swap1\n      tag_39\n      jump\t// in\n    tag_119:\n      mload(0x40)\n      dup1\n      swap2\n      sub\n      swap1\n      return\n        /* \"contracts/Staking.sol\":1246:1265  IBEP20 public token */\n    tag_28:\n      tag_120\n      tag_121\n      jump\t// in\n    tag_120:\n      mload(0x40)\n      tag_122\n      swap2\n      swap1\n      tag_123\n      jump\t// in\n    tag_122:\n      mload(0x40)\n      dup1\n      swap2\n      sub\n      swap1\n      return\n        /* \"contracts/Staking.sol\":4787:4911  function isStartStaking(address _address) public view returns (uint256) {... */\n    tag_29:\n      tag_124\n      0x04\n      dup1\n      calldatasize\n      sub\n      dup2\n      add\n      swap1\n      tag_125\n      swap2\n      swap1\n      tag_51\n      jump\t// in\n    tag_125:\n      tag_126\n      jump\t// in\n    tag_124:\n      mload(0x40)\n      tag_127\n      swap2\n      swap1\n      tag_39\n      jump\t// in\n    tag_127:\n      mload(0x40)\n      dup1\n      swap2\n      sub\n      swap1\n      return\n        /* \"contracts/Staking.sol\":4376:4471  function getTotalStaked() public view returns (uint256) {... */\n    tag_37:\n        /* \"contracts/Staking.sol\":4423:4430  uint256 */\n      0x00\n        /* \"contracts/Staking.sol\":4452:4463  totalStaked */\n      sload(0x0c)\n        /* \"contracts/Staking.sol\":4445:4463  return totalStaked */\n      swap1\n      pop\n        /* \"contracts/Staking.sol\":4376:4471  function getTotalStaked() public view returns (uint256) {... */\n      swap1\n      jump\t// out\n        /* \"contracts/Staking.sol\":8163:8335  function setSilverMinAmount(uint256 _minAmount) external onlyOwner {... */\n    tag_43:\n        /* \"@openzeppelin/contracts/access/Ownable.sol\":1259:1271  _msgSender() */\n      tag_130\n        /* \"@openzeppelin/contracts/access/Ownable.sol\":1259:1269  _msgSender */\n      tag_131\n        /* \"@openzeppelin/contracts/access/Ownable.sol\":1259:1271  _msgSender() */\n      jump\t// in\n    tag_130:\n        /* \"@openzeppelin/contracts/access/Ownable.sol\":1248:1271  owner() == _msgSender() */\n      0xffffffffffffffffffffffffffffffffffffffff\n      and\n        /* \"@openzeppelin/contracts/access/Ownable.sol\":1248:1255  owner() */\n      tag_132\n        /* \"@openzeppelin/contracts/access/Ownable.sol\":1248:1253  owner */\n      tag_84\n        /* \"@openzeppelin/contracts/access/Ownable.sol\":1248:1255  owner() */\n      jump\t// in\n    tag_132:\n        /* \"@openzeppelin/contracts/access/Ownable.sol\":1248:1271  owner() == _msgSender() */\n      0xffffffffffffffffffffffffffffffffffffffff\n      and\n      eq\n        /* \"@openzeppelin/contracts/access/Ownable.sol\":1240:1308  require(owner() == _msgSender(), \"Ownable: caller is not the owner\") */\n      tag_133\n      jumpi\n      mload(0x40)\n      0x08c379a000000000000000000000000000000000000000000000000000000000\n      dup2\n      mstore\n      0x04\n      add\n      tag_134\n      swap1\n      tag_135\n      jump\t// in\n    tag_134:\n      mload(0x40)\n      dup1\n      swap2\n      sub\n      swap1\n      revert\n    tag_133:\n        /* \"contracts/Staking.sol\":8265:8266  0 */\n      0x00\n        /* \"contracts/Staking.sol\":8252:8262  _minAmount */\n      dup2\n        /* \"contracts/Staking.sol\":8252:8266  _minAmount > 0 */\n      gt\n        /* \"contracts/Staking.sol\":8243:8284  require (_minAmount > 0, \"Can't be zero\") */\n      tag_137\n      jumpi\n      mload(0x40)\n      0x08c379a000000000000000000000000000000000000000000000000000000000\n      dup2\n      mstore\n      0x04\n      add\n      tag_138\n      swap1\n      tag_139\n      jump\t// in\n    tag_138:\n      mload(0x40)\n      dup1\n      swap2\n      sub\n      swap1\n      revert\n    tag_137:\n        /* \"contracts/Staking.sol\":8317:8327  _minAmount */\n      dup1\n        /* \"contracts/Staking.sol\":8297:8314  _minStakeAmount_s */\n      0x08\n        /* \"contracts/Staking.sol\":8297:8327  _minStakeAmount_s = _minAmount */\n      dup2\n      swap1\n      sstore\n      pop\n        /* \"contracts/Staking.sol\":8163:8335  function setSilverMinAmount(uint256 _minAmount) external onlyOwner {... */\n      pop\n      jump\t// out\n        /* \"contracts/Staking.sol\":5768:6828  function withdraw(uint256 amount) external{... */\n    tag_46:\n        /* \"contracts/Staking.sol\":5848:5849  0 */\n      0x00\n        /* \"contracts/Staking.sol\":5839:5845  amount */\n      dup2\n        /* \"contracts/Staking.sol\":5839:5849  amount > 0 */\n      gt\n        /* \"contracts/Staking.sol\":5831:5885  require(amount > 0, \"Amount should be greater than 0\") */\n      tag_141\n      jumpi\n      mload(0x40)\n      0x08c379a000000000000000000000000000000000000000000000000000000000\n      dup2\n      mstore\n      0x04\n      add\n      tag_142\n      swap1\n      tag_143\n      jump\t// in\n    tag_142:\n      mload(0x40)\n      dup1\n      swap2\n      sub\n      swap1\n      revert\n    tag_141:\n        /* \"contracts/Staking.sol\":5914:5921  _staker */\n      0x0b\n        /* \"contracts/Staking.sol\":5914:5933  _staker[msg.sender] */\n      0x00\n        /* \"contracts/Staking.sol\":5922:5932  msg.sender */\n      caller\n        /* \"contracts/Staking.sol\":5914:5933  _staker[msg.sender] */\n      0xffffffffffffffffffffffffffffffffffffffff\n      and\n      0xffffffffffffffffffffffffffffffffffffffff\n      and\n      dup2\n      mstore\n      0x20\n      add\n      swap1\n      dup2\n      mstore\n      0x20\n      add\n      0x00\n      keccak256\n        /* \"contracts/Staking.sol\":5914:5946  _staker[msg.sender].stakedAmount */\n      0x01\n      add\n      sload\n        /* \"contracts/Staking.sol\":5904:5910  amount */\n      dup2\n        /* \"contracts/Staking.sol\":5904:5946  amount <= _staker[msg.sender].stakedAmount */\n      gt\n      iszero\n        /* \"contracts/Staking.sol\":5896:5965  require(amount <= _staker[msg.sender].stakedAmount, \"Invalid amount\") */\n      tag_144\n      jumpi\n      mload(0x40)\n      0x08c379a000000000000000000000000000000000000000000000000000000000\n      dup2\n      mstore\n      0x04\n      add\n      tag_145\n      swap1\n      tag_146\n      jump\t// in\n    tag_145:\n      mload(0x40)\n      dup1\n      swap2\n      sub\n      swap1\n      revert\n    tag_144:\n        /* \"contracts/Staking.sol\":5978:5992  updateReward() */\n      tag_147\n        /* \"contracts/Staking.sol\":5978:5990  updateReward */\n      tag_148\n        /* \"contracts/Staking.sol\":5978:5992  updateReward() */\n      jump\t// in\n    tag_147:\n        /* \"contracts/Staking.sol\":6003:6030  uint256 amountTobeWithdrawn */\n      0x00\n        /* \"contracts/Staking.sol\":6033:6039  amount */\n      dup2\n        /* \"contracts/Staking.sol\":6003:6039  uint256 amountTobeWithdrawn = amount */\n      swap1\n      pop\n        /* \"contracts/Staking.sol\":6050:6064  uint256 during */\n      0x00\n        /* \"contracts/Staking.sol\":6067:6134  block.timestamp.sub(_staker[msg.sender].stakeStartTime).div(1 days) */\n      tag_149\n        /* \"contracts/Staking.sol\":6127:6133  1 days */\n      0x015180\n        /* \"contracts/Staking.sol\":6067:6122  block.timestamp.sub(_staker[msg.sender].stakeStartTime) */\n      tag_150\n        /* \"contracts/Staking.sol\":6087:6094  _staker */\n      0x0b\n        /* \"contracts/Staking.sol\":6087:6106  _staker[msg.sender] */\n      0x00\n        /* \"contracts/Staking.sol\":6095:6105  msg.sender */\n      caller\n        /* \"contracts/Staking.sol\":6087:6106  _staker[msg.sender] */\n      0xffffffffffffffffffffffffffffffffffffffff\n      and\n      0xffffffffffffffffffffffffffffffffffffffff\n      and\n      dup2\n      mstore\n      0x20\n      add\n      swap1\n      dup2\n      mstore\n      0x20\n      add\n      0x00\n      keccak256\n        /* \"contracts/Staking.sol\":6087:6121  _staker[msg.sender].stakeStartTime */\n      0x03\n      add\n      sload\n        /* \"contracts/Staking.sol\":6067:6082  block.timestamp */\n      timestamp\n        /* \"contracts/Staking.sol\":6067:6086  block.timestamp.sub */\n      tag_151\n      swap1\n        /* \"contracts/Staking.sol\":6067:6122  block.timestamp.sub(_staker[msg.sender].stakeStartTime) */\n      swap2\n      swap1\n      0xffffffff\n      and\n      jump\t// in\n    tag_150:\n        /* \"contracts/Staking.sol\":6067:6126  block.timestamp.sub(_staker[msg.sender].stakeStartTime).div */\n      tag_152\n      swap1\n        /* \"contracts/Staking.sol\":6067:6134  block.timestamp.sub(_staker[msg.sender].stakeStartTime).div(1 days) */\n      swap2\n      swap1\n      0xffffffff\n      and\n      jump\t// in\n    tag_149:\n        /* \"contracts/Staking.sol\":6050:6134  uint256 during = block.timestamp.sub(_staker[msg.sender].stakeStartTime).div(1 days) */\n      swap1\n      pop\n        /* \"contracts/Staking.sol\":6145:6156  uint256 fee */\n      0x00\n        /* \"contracts/Staking.sol\":6159:6162  100 */\n      0x64\n        /* \"contracts/Staking.sol\":6145:6162  uint256 fee = 100 */\n      swap1\n      pop\n        /* \"contracts/Staking.sol\":6173:6194  bool isLockupTimeOver */\n      0x00\n        /* \"contracts/Staking.sol\":6225:6226  0 */\n      dup1\n        /* \"contracts/Staking.sol\":6197:6204  _staker */\n      0x0b\n        /* \"contracts/Staking.sol\":6197:6216  _staker[msg.sender] */\n      0x00\n        /* \"contracts/Staking.sol\":6205:6215  msg.sender */\n      caller\n        /* \"contracts/Staking.sol\":6197:6216  _staker[msg.sender] */\n      0xffffffffffffffffffffffffffffffffffffffff\n      and\n      0xffffffffffffffffffffffffffffffffffffffff\n      and\n      dup2\n      mstore\n      0x20\n      add\n      swap1\n      dup2\n      mstore\n      0x20\n      add\n      0x00\n      keccak256\n        /* \"contracts/Staking.sol\":6197:6221  _staker[msg.sender].mode */\n      0x02\n      add\n      sload\n        /* \"contracts/Staking.sol\":6197:6226  _staker[msg.sender].mode != 0 */\n      eq\n      iszero\n        /* \"contracts/Staking.sol\":6197:6357  _staker[msg.sender].mode != 0 ? during % _eventPeriod == 0 && during > 0 :... */\n      tag_153\n      jumpi\n        /* \"contracts/Staking.sol\":6304:6357  _staker[msg.sender].stakeStartTime.add(_lockupPeriod) */\n      tag_154\n        /* \"contracts/Staking.sol\":6343:6356  _lockupPeriod */\n      sload(0x05)\n        /* \"contracts/Staking.sol\":6304:6311  _staker */\n      0x0b\n        /* \"contracts/Staking.sol\":6304:6323  _staker[msg.sender] */\n      0x00\n        /* \"contracts/Staking.sol\":6312:6322  msg.sender */\n      caller\n        /* \"contracts/Staking.sol\":6304:6323  _staker[msg.sender] */\n      0xffffffffffffffffffffffffffffffffffffffff\n      and\n      0xffffffffffffffffffffffffffffffffffffffff\n      and\n      dup2\n      mstore\n      0x20\n      add\n      swap1\n      dup2\n      mstore\n      0x20\n      add\n      0x00\n      keccak256\n        /* \"contracts/Staking.sol\":6304:6338  _staker[msg.sender].stakeStartTime */\n      0x03\n      add\n      sload\n        /* \"contracts/Staking.sol\":6304:6342  _staker[msg.sender].stakeStartTime.add */\n      tag_155\n      swap1\n        /* \"contracts/Staking.sol\":6304:6357  _staker[msg.sender].stakeStartTime.add(_lockupPeriod) */\n      swap2\n      swap1\n      0xffffffff\n      and\n      jump\t// in\n    tag_154:\n        /* \"contracts/Staking.sol\":6285:6300  block.timestamp */\n      timestamp\n        /* \"contracts/Staking.sol\":6285:6357  block.timestamp >= _staker[msg.sender].stakeStartTime.add(_lockupPeriod) */\n      lt\n      iszero\n        /* \"contracts/Staking.sol\":6197:6357  _staker[msg.sender].mode != 0 ? during % _eventPeriod == 0 && during > 0 :... */\n      jump(tag_156)\n    tag_153:\n        /* \"contracts/Staking.sol\":6254:6255  0 */\n      0x00\n        /* \"contracts/Staking.sol\":6238:6250  _eventPeriod */\n      sload(0x02)\n        /* \"contracts/Staking.sol\":6229:6235  during */\n      dup5\n        /* \"contracts/Staking.sol\":6229:6250  during % _eventPeriod */\n      tag_157\n      swap2\n      swap1\n      tag_158\n      jump\t// in\n    tag_157:\n        /* \"contracts/Staking.sol\":6229:6255  during % _eventPeriod == 0 */\n      eq\n        /* \"contracts/Staking.sol\":6229:6269  during % _eventPeriod == 0 && during > 0 */\n      dup1\n      iszero\n      tag_159\n      jumpi\n      pop\n        /* \"contracts/Staking.sol\":6268:6269  0 */\n      0x00\n        /* \"contracts/Staking.sol\":6259:6265  during */\n      dup4\n        /* \"contracts/Staking.sol\":6259:6269  during > 0 */\n      gt\n        /* \"contracts/Staking.sol\":6229:6269  during % _eventPeriod == 0 && during > 0 */\n    tag_159:\n        /* \"contracts/Staking.sol\":6197:6357  _staker[msg.sender].mode != 0 ? during % _eventPeriod == 0 && during > 0 :... */\n    tag_156:\n        /* \"contracts/Staking.sol\":6173:6357  bool isLockupTimeOver = _staker[msg.sender].mode != 0 ? during % _eventPeriod == 0 && during > 0 :... */\n      swap1\n      pop\n        /* \"contracts/Staking.sol\":6373:6389  isLockupTimeOver */\n      dup1\n        /* \"contracts/Staking.sol\":6368:6441  if (!isLockupTimeOver) {... */\n      tag_160\n      jumpi\n        /* \"contracts/Staking.sol\":6412:6429  _unstakingFeeRate */\n      sload(0x01)\n        /* \"contracts/Staking.sol\":6406:6429  fee = _unstakingFeeRate */\n      swap2\n      pop\n        /* \"contracts/Staking.sol\":6368:6441  if (!isLockupTimeOver) {... */\n    tag_160:\n        /* \"contracts/Staking.sol\":6486:6543  _staker[msg.sender].stakedAmount.sub(amountTobeWithdrawn) */\n      tag_161\n        /* \"contracts/Staking.sol\":6523:6542  amountTobeWithdrawn */\n      dup5\n        /* \"contracts/Staking.sol\":6486:6493  _staker */\n      0x0b\n        /* \"contracts/Staking.sol\":6486:6505  _staker[msg.sender] */\n      0x00\n        /* \"contracts/Staking.sol\":6494:6504  msg.sender */\n      caller\n        /* \"contracts/Staking.sol\":6486:6505  _staker[msg.sender] */\n      0xffffffffffffffffffffffffffffffffffffffff\n      and\n      0xffffffffffffffffffffffffffffffffffffffff\n      and\n      dup2\n      mstore\n      0x20\n      add\n      swap1\n      dup2\n      mstore\n      0x20\n      add\n      0x00\n      keccak256\n        /* \"contracts/Staking.sol\":6486:6518  _staker[msg.sender].stakedAmount */\n      0x01\n      add\n      sload\n        /* \"contracts/Staking.sol\":6486:6522  _staker[msg.sender].stakedAmount.sub */\n      tag_151\n      swap1\n        /* \"contracts/Staking.sol\":6486:6543  _staker[msg.sender].stakedAmount.sub(amountTobeWithdrawn) */\n      swap2\n      swap1\n      0xffffffff\n      and\n      jump\t// in\n    tag_161:\n        /* \"contracts/Staking.sol\":6451:6458  _staker */\n      0x0b\n        /* \"contracts/Staking.sol\":6451:6470  _staker[msg.sender] */\n      0x00\n        /* \"contracts/Staking.sol\":6459:6469  msg.sender */\n      caller\n        /* \"contracts/Staking.sol\":6451:6470  _staker[msg.sender] */\n      0xffffffffffffffffffffffffffffffffffffffff\n      and\n      0xffffffffffffffffffffffffffffffffffffffff\n      and\n      dup2\n      mstore\n      0x20\n      add\n      swap1\n      dup2\n      mstore\n      0x20\n      add\n      0x00\n      keccak256\n        /* \"contracts/Staking.sol\":6451:6483  _staker[msg.sender].stakedAmount */\n      0x01\n      add\n        /* \"contracts/Staking.sol\":6451:6543  _staker[msg.sender].stakedAmount = _staker[msg.sender].stakedAmount.sub(amountTobeWithdrawn) */\n      dup2\n      swap1\n      sstore\n      pop\n        /* \"contracts/Staking.sol\":6568:6604  totalStaked.sub(amountTobeWithdrawn) */\n      tag_162\n        /* \"contracts/Staking.sol\":6584:6603  amountTobeWithdrawn */\n      dup5\n        /* \"contracts/Staking.sol\":6568:6579  totalStaked */\n      sload(0x0c)\n        /* \"contracts/Staking.sol\":6568:6583  totalStaked.sub */\n      tag_151\n      swap1\n        /* \"contracts/Staking.sol\":6568:6604  totalStaked.sub(amountTobeWithdrawn) */\n      swap2\n      swap1\n      0xffffffff\n      and\n      jump\t// in\n    tag_162:\n        /* \"contracts/Staking.sol\":6554:6565  totalStaked */\n      0x0c\n        /* \"contracts/Staking.sol\":6554:6604  totalStaked = totalStaked.sub(amountTobeWithdrawn) */\n      dup2\n      swap1\n      sstore\n      pop\n        /* \"contracts/Staking.sol\":6637:6699  amountTobeWithdrawn.sub(amountTobeWithdrawn.mul(fee).div(1e4)) */\n      tag_163\n        /* \"contracts/Staking.sol\":6661:6698  amountTobeWithdrawn.mul(fee).div(1e4) */\n      tag_164\n        /* \"contracts/Staking.sol\":6694:6697  1e4 */\n      0x2710\n        /* \"contracts/Staking.sol\":6661:6689  amountTobeWithdrawn.mul(fee) */\n      tag_165\n        /* \"contracts/Staking.sol\":6685:6688  fee */\n      dup6\n        /* \"contracts/Staking.sol\":6661:6680  amountTobeWithdrawn */\n      dup9\n        /* \"contracts/Staking.sol\":6661:6684  amountTobeWithdrawn.mul */\n      tag_166\n      swap1\n        /* \"contracts/Staking.sol\":6661:6689  amountTobeWithdrawn.mul(fee) */\n      swap2\n      swap1\n      0xffffffff\n      and\n      jump\t// in\n    tag_165:\n        /* \"contracts/Staking.sol\":6661:6693  amountTobeWithdrawn.mul(fee).div */\n      tag_152\n      swap1\n        /* \"contracts/Staking.sol\":6661:6698  amountTobeWithdrawn.mul(fee).div(1e4) */\n      swap2\n      swap1\n      0xffffffff\n      and\n      jump\t// in\n    tag_164:\n        /* \"contracts/Staking.sol\":6637:6656  amountTobeWithdrawn */\n      dup6\n        /* \"contracts/Staking.sol\":6637:6660  amountTobeWithdrawn.sub */\n      tag_151\n      swap1\n        /* \"contracts/Staking.sol\":6637:6699  amountTobeWithdrawn.sub(amountTobeWithdrawn.mul(fee).div(1e4)) */\n      swap2\n      swap1\n      0xffffffff\n      and\n      jump\t// in\n    tag_163:\n        /* \"contracts/Staking.sol\":6615:6699  amountTobeWithdrawn = amountTobeWithdrawn.sub(amountTobeWithdrawn.mul(fee).div(1e4)) */\n      swap4\n      pop\n        /* \"contracts/Staking.sol\":6710:6761  token.safeTransfer(msg.sender, amountTobeWithdrawn) */\n      tag_167\n        /* \"contracts/Staking.sol\":6729:6739  msg.sender */\n      caller\n        /* \"contracts/Staking.sol\":6741:6760  amountTobeWithdrawn */\n      dup6\n        /* \"contracts/Staking.sol\":6710:6715  token */\n      0x0d\n      0x00\n      swap1\n      sload\n      swap1\n      0x0100\n      exp\n      swap1\n      div\n      0xffffffffffffffffffffffffffffffffffffffff\n      and\n        /* \"contracts/Staking.sol\":6710:6728  token.safeTransfer */\n      0xffffffffffffffffffffffffffffffffffffffff\n      and\n      tag_168\n      swap1\n        /* \"contracts/Staking.sol\":6710:6761  token.safeTransfer(msg.sender, amountTobeWithdrawn) */\n      swap3\n      swap2\n      swap1\n      0xffffffff\n      and\n      jump\t// in\n    tag_167:\n        /* \"contracts/Staking.sol\":6779:6820  Withdraw(msg.sender, amountTobeWithdrawn) */\n      0x884edad9ce6fa2440d8a54cc123490eb96d2768479d49ff9c7366125a9424364\n        /* \"contracts/Staking.sol\":6788:6798  msg.sender */\n      caller\n        /* \"contracts/Staking.sol\":6800:6819  amountTobeWithdrawn */\n      dup6\n        /* \"contracts/Staking.sol\":6779:6820  Withdraw(msg.sender, amountTobeWithdrawn) */\n      mload(0x40)\n      tag_169\n      swap3\n      swap2\n      swap1\n      tag_170\n      jump\t// in\n    tag_169:\n      mload(0x40)\n      dup1\n      swap2\n      sub\n      swap1\n      log1\n        /* \"contracts/Staking.sol\":5810:6828  {... */\n      pop\n      pop\n      pop\n      pop\n        /* \"contracts/Staking.sol\":5768:6828  function withdraw(uint256 amount) external{... */\n      pop\n      jump\t// out\n        /* \"contracts/Staking.sol\":9017:9612  function harvest() public{... */\n    tag_48:\n        /* \"contracts/Staking.sol\":9063:9077  updateReward() */\n      tag_172\n        /* \"contracts/Staking.sol\":9063:9075  updateReward */\n      tag_148\n        /* \"contracts/Staking.sol\":9063:9077  updateReward() */\n      jump\t// in\n    tag_172:\n        /* \"contracts/Staking.sol\":9098:9115  uint256 curReward */\n      0x00\n        /* \"contracts/Staking.sol\":9118:9125  _staker */\n      0x0b\n        /* \"contracts/Staking.sol\":9118:9137  _staker[msg.sender] */\n      0x00\n        /* \"contracts/Staking.sol\":9126:9136  msg.sender */\n      caller\n        /* \"contracts/Staking.sol\":9118:9137  _staker[msg.sender] */\n      0xffffffffffffffffffffffffffffffffffffffff\n      and\n      0xffffffffffffffffffffffffffffffffffffffff\n      and\n      dup2\n      mstore\n      0x20\n      add\n      swap1\n      dup2\n      mstore\n      0x20\n      add\n      0x00\n      keccak256\n        /* \"contracts/Staking.sol\":9118:9157  _staker[msg.sender].stakerCurrentReward */\n      0x00\n      add\n      sload\n        /* \"contracts/Staking.sol\":9098:9157  uint256 curReward = _staker[msg.sender].stakerCurrentReward */\n      swap1\n      pop\n        /* \"contracts/Staking.sol\":9168:9189  uint256 rewardToClaim */\n      0x00\n        /* \"contracts/Staking.sol\":9192:9245  curReward.sub(curReward.mul(_rewardFeeRate).div(1e4)) */\n      tag_173\n        /* \"contracts/Staking.sol\":9206:9244  curReward.mul(_rewardFeeRate).div(1e4) */\n      tag_174\n        /* \"contracts/Staking.sol\":9240:9243  1e4 */\n      0x2710\n        /* \"contracts/Staking.sol\":9206:9235  curReward.mul(_rewardFeeRate) */\n      tag_175\n        /* \"contracts/Staking.sol\":9220:9234  _rewardFeeRate */\n      sload(0x04)\n        /* \"contracts/Staking.sol\":9206:9215  curReward */\n      dup7\n        /* \"contracts/Staking.sol\":9206:9219  curReward.mul */\n      tag_166\n      swap1\n        /* \"contracts/Staking.sol\":9206:9235  curReward.mul(_rewardFeeRate) */\n      swap2\n      swap1\n      0xffffffff\n      and\n      jump\t// in\n    tag_175:\n        /* \"contracts/Staking.sol\":9206:9239  curReward.mul(_rewardFeeRate).div */\n      tag_152\n      swap1\n        /* \"contracts/Staking.sol\":9206:9244  curReward.mul(_rewardFeeRate).div(1e4) */\n      swap2\n      swap1\n      0xffffffff\n      and\n      jump\t// in\n    tag_174:\n        /* \"contracts/Staking.sol\":9192:9201  curReward */\n      dup4\n        /* \"contracts/Staking.sol\":9192:9205  curReward.sub */\n      tag_151\n      swap1\n        /* \"contracts/Staking.sol\":9192:9245  curReward.sub(curReward.mul(_rewardFeeRate).div(1e4)) */\n      swap2\n      swap1\n      0xffffffff\n      and\n      jump\t// in\n    tag_173:\n        /* \"contracts/Staking.sol\":9168:9245  uint256 rewardToClaim = curReward.sub(curReward.mul(_rewardFeeRate).div(1e4)) */\n      swap1\n      pop\n        /* \"contracts/Staking.sol\":9290:9291  0 */\n      0x00\n        /* \"contracts/Staking.sol\":9274:9287  rewardToClaim */\n      dup2\n        /* \"contracts/Staking.sol\":9274:9291  rewardToClaim > 0 */\n      gt\n        /* \"contracts/Staking.sol\":9266:9312  require(rewardToClaim > 0, \"Nothing to claim\") */\n      tag_176\n      jumpi\n      mload(0x40)\n      0x08c379a000000000000000000000000000000000000000000000000000000000\n      dup2\n      mstore\n      0x04\n      add\n      tag_177\n      swap1\n      tag_178\n      jump\t// in\n    tag_177:\n      mload(0x40)\n      dup1\n      swap2\n      sub\n      swap1\n      revert\n    tag_176:\n        /* \"contracts/Staking.sol\":9343:9348  token */\n      0x0d\n      0x00\n      swap1\n      sload\n      swap1\n      0x0100\n      exp\n      swap1\n      div\n      0xffffffffffffffffffffffffffffffffffffffff\n      and\n        /* \"contracts/Staking.sol\":9343:9358  token.balanceOf */\n      0xffffffffffffffffffffffffffffffffffffffff\n      and\n      0x70a08231\n        /* \"contracts/Staking.sol\":9367:9371  this */\n      address\n        /* \"contracts/Staking.sol\":9343:9373  token.balanceOf(address(this)) */\n      mload(0x40)\n      dup3\n      0xffffffff\n      and\n      0xe0\n      shl\n      dup2\n      mstore\n      0x04\n      add\n      tag_179\n      swap2\n      swap1\n      tag_86\n      jump\t// in\n    tag_179:\n      0x20\n      mload(0x40)\n      dup1\n      dup4\n      sub\n      dup2\n      dup7\n      dup1\n      extcodesize\n      iszero\n      dup1\n      iszero\n      tag_180\n      jumpi\n      0x00\n      dup1\n      revert\n    tag_180:\n      pop\n      gas\n      staticcall\n      iszero\n      dup1\n      iszero\n      tag_182\n      jumpi\n      returndatasize\n      0x00\n      dup1\n      returndatacopy\n      revert(0x00, returndatasize)\n    tag_182:\n      pop\n      pop\n      pop\n      pop\n      mload(0x40)\n      returndatasize\n      not(0x1f)\n      0x1f\n      dup3\n      add\n      and\n      dup3\n      add\n      dup1\n      0x40\n      mstore\n      pop\n      dup2\n      add\n      swap1\n      tag_183\n      swap2\n      swap1\n      tag_184\n      jump\t// in\n    tag_183:\n        /* \"contracts/Staking.sol\":9327:9340  rewardToClaim */\n      dup2\n        /* \"contracts/Staking.sol\":9327:9373  rewardToClaim > token.balanceOf(address(this)) */\n      gt\n        /* \"contracts/Staking.sol\":9323:9434  if (rewardToClaim > token.balanceOf(address(this)))... */\n      iszero\n      tag_185\n      jumpi\n        /* \"contracts/Staking.sol\":9404:9409  token */\n      0x0d\n      0x00\n      swap1\n      sload\n      swap1\n      0x0100\n      exp\n      swap1\n      div\n      0xffffffffffffffffffffffffffffffffffffffff\n      and\n        /* \"contracts/Staking.sol\":9404:9419  token.balanceOf */\n      0xffffffffffffffffffffffffffffffffffffffff\n      and\n      0x70a08231\n        /* \"contracts/Staking.sol\":9428:9432  this */\n      address\n        /* \"contracts/Staking.sol\":9404:9434  token.balanceOf(address(this)) */\n      mload(0x40)\n      dup3\n      0xffffffff\n      and\n      0xe0\n      shl\n      dup2\n      mstore\n      0x04\n      add\n      tag_186\n      swap2\n      swap1\n      tag_86\n      jump\t// in\n    tag_186:\n      0x20\n      mload(0x40)\n      dup1\n      dup4\n      sub\n      dup2\n      dup7\n      dup1\n      extcodesize\n      iszero\n      dup1\n      iszero\n      tag_187\n      jumpi\n      0x00\n      dup1\n      revert\n    tag_187:\n      pop\n      gas\n      staticcall\n      iszero\n      dup1\n      iszero\n      tag_189\n      jumpi\n      returndatasize\n      0x00\n      dup1\n      returndatacopy\n      revert(0x00, returndatasize)\n    tag_189:\n      pop\n      pop\n      pop\n      pop\n      mload(0x40)\n      returndatasize\n      not(0x1f)\n      0x1f\n      dup3\n      add\n      and\n      dup3\n      add\n      dup1\n      0x40\n      mstore\n      pop\n      dup2\n      add\n      swap1\n      tag_190\n      swap2\n      swap1\n      tag_184\n      jump\t// in\n    tag_190:\n        /* \"contracts/Staking.sol\":9388:9434  rewardToClaim = token.balanceOf(address(this)) */\n      swap1\n      pop\n        /* \"contracts/Staking.sol\":9323:9434  if (rewardToClaim > token.balanceOf(address(this)))... */\n    tag_185:\n        /* \"contracts/Staking.sol\":9445:9490  token.safeTransfer(msg.sender, rewardToClaim) */\n      tag_191\n        /* \"contracts/Staking.sol\":9464:9474  msg.sender */\n      caller\n        /* \"contracts/Staking.sol\":9476:9489  rewardToClaim */\n      dup3\n        /* \"contracts/Staking.sol\":9445:9450  token */\n      0x0d\n      0x00\n      swap1\n      sload\n      swap1\n      0x0100\n      exp\n      swap1\n      div\n      0xffffffffffffffffffffffffffffffffffffffff\n      and\n        /* \"contracts/Staking.sol\":9445:9463  token.safeTransfer */\n      0xffffffffffffffffffffffffffffffffffffffff\n      and\n      tag_168\n      swap1\n        /* \"contracts/Staking.sol\":9445:9490  token.safeTransfer(msg.sender, rewardToClaim) */\n      swap3\n      swap2\n      swap1\n      0xffffffff\n      and\n      jump\t// in\n    tag_191:\n        /* \"contracts/Staking.sol\":9543:9544  0 */\n      0x00\n        /* \"contracts/Staking.sol\":9501:9508  _staker */\n      0x0b\n        /* \"contracts/Staking.sol\":9501:9520  _staker[msg.sender] */\n      0x00\n        /* \"contracts/Staking.sol\":9509:9519  msg.sender */\n      caller\n        /* \"contracts/Staking.sol\":9501:9520  _staker[msg.sender] */\n      0xffffffffffffffffffffffffffffffffffffffff\n      and\n      0xffffffffffffffffffffffffffffffffffffffff\n      and\n      dup2\n      mstore\n      0x20\n      add\n      swap1\n      dup2\n      mstore\n      0x20\n      add\n      0x00\n      keccak256\n        /* \"contracts/Staking.sol\":9501:9540  _staker[msg.sender].stakerCurrentReward */\n      0x00\n      add\n        /* \"contracts/Staking.sol\":9501:9544  _staker[msg.sender].stakerCurrentReward = 0 */\n      dup2\n      swap1\n      sstore\n      pop\n        /* \"contracts/Staking.sol\":9570:9604  Harvest(msg.sender, rewardToClaim) */\n      0xc9695243a805adb74c91f28311176c65b417e842d5699893cef56d18bfa48cba\n        /* \"contracts/Staking.sol\":9578:9588  msg.sender */\n      caller\n        /* \"contracts/Staking.sol\":9590:9603  rewardToClaim */\n      dup3\n        /* \"contracts/Staking.sol\":9570:9604  Harvest(msg.sender, rewardToClaim) */\n      mload(0x40)\n      tag_192\n      swap3\n      swap2\n      swap1\n      tag_170\n      jump\t// in\n    tag_192:\n      mload(0x40)\n      dup1\n      swap2\n      sub\n      swap1\n      log1\n        /* \"contracts/Staking.sol\":9042:9612  {... */\n      pop\n      pop\n        /* \"contracts/Staking.sol\":9017:9612  function harvest() public{... */\n      jump\t// out\n        /* \"contracts/Staking.sol\":4919:5324  function isLocked(address _address) public view returns (uint256) {... */\n    tag_52:\n        /* \"contracts/Staking.sol\":4976:4983  uint256 */\n      0x00\n        /* \"contracts/Staking.sol\":5030:5032  55 */\n      0x37\n        /* \"contracts/Staking.sol\":5002:5009  _staker */\n      0x0b\n        /* \"contracts/Staking.sol\":5002:5019  _staker[_address] */\n      0x00\n        /* \"contracts/Staking.sol\":5010:5018  _address */\n      dup5\n        /* \"contracts/Staking.sol\":5002:5019  _staker[_address] */\n      0xffffffffffffffffffffffffffffffffffffffff\n      and\n      0xffffffffffffffffffffffffffffffffffffffff\n      and\n      dup2\n      mstore\n      0x20\n      add\n      swap1\n      dup2\n      mstore\n      0x20\n      add\n      0x00\n      keccak256\n        /* \"contracts/Staking.sol\":5002:5026  _staker[_address].staked */\n      0x05\n      add\n      sload\n        /* \"contracts/Staking.sol\":5002:5032  _staker[_address].staked != 55 */\n      eq\n        /* \"contracts/Staking.sol\":4998:5055  if (_staker[_address].staked != 55)... */\n      tag_194\n      jumpi\n        /* \"contracts/Staking.sol\":5054:5055  0 */\n      0x00\n        /* \"contracts/Staking.sol\":5047:5055  return 0 */\n      swap1\n      pop\n      jump(tag_193)\n        /* \"contracts/Staking.sol\":4998:5055  if (_staker[_address].staked != 55)... */\n    tag_194:\n        /* \"contracts/Staking.sol\":5096:5097  0 */\n      0x00\n        /* \"contracts/Staking.sol\":5070:5077  _staker */\n      0x0b\n        /* \"contracts/Staking.sol\":5070:5087  _staker[_address] */\n      0x00\n        /* \"contracts/Staking.sol\":5078:5086  _address */\n      dup5\n        /* \"contracts/Staking.sol\":5070:5087  _staker[_address] */\n      0xffffffffffffffffffffffffffffffffffffffff\n      and\n      0xffffffffffffffffffffffffffffffffffffffff\n      and\n      dup2\n      mstore\n      0x20\n      add\n      swap1\n      dup2\n      mstore\n      0x20\n      add\n      0x00\n      keccak256\n        /* \"contracts/Staking.sol\":5070:5092  _staker[_address].mode */\n      0x02\n      add\n      sload\n        /* \"contracts/Staking.sol\":5070:5097  _staker[_address].mode != 0 */\n      eq\n        /* \"contracts/Staking.sol\":5066:5316  if (_staker[_address].mode != 0)... */\n      tag_195\n      jumpi\n        /* \"contracts/Staking.sol\":5192:5193  0 */\n      0x00\n        /* \"contracts/Staking.sol\":5187:5188  7 */\n      0x07\n        /* \"contracts/Staking.sol\":5119:5184  block.timestamp.sub(_staker[_address].stakeStartTime).div(1 days) */\n      tag_196\n        /* \"contracts/Staking.sol\":5177:5183  1 days */\n      0x015180\n        /* \"contracts/Staking.sol\":5119:5172  block.timestamp.sub(_staker[_address].stakeStartTime) */\n      tag_197\n        /* \"contracts/Staking.sol\":5139:5146  _staker */\n      0x0b\n        /* \"contracts/Staking.sol\":5139:5156  _staker[_address] */\n      0x00\n        /* \"contracts/Staking.sol\":5147:5155  _address */\n      dup9\n        /* \"contracts/Staking.sol\":5139:5156  _staker[_address] */\n      0xffffffffffffffffffffffffffffffffffffffff\n      and\n      0xffffffffffffffffffffffffffffffffffffffff\n      and\n      dup2\n      mstore\n      0x20\n      add\n      swap1\n      dup2\n      mstore\n      0x20\n      add\n      0x00\n      keccak256\n        /* \"contracts/Staking.sol\":5139:5171  _staker[_address].stakeStartTime */\n      0x03\n      add\n      sload\n        /* \"contracts/Staking.sol\":5119:5134  block.timestamp */\n      timestamp\n        /* \"contracts/Staking.sol\":5119:5138  block.timestamp.sub */\n      tag_151\n      swap1\n        /* \"contracts/Staking.sol\":5119:5172  block.timestamp.sub(_staker[_address].stakeStartTime) */\n      swap2\n      swap1\n      0xffffffff\n      and\n      jump\t// in\n    tag_197:\n        /* \"contracts/Staking.sol\":5119:5176  block.timestamp.sub(_staker[_address].stakeStartTime).div */\n      tag_152\n      swap1\n        /* \"contracts/Staking.sol\":5119:5184  block.timestamp.sub(_staker[_address].stakeStartTime).div(1 days) */\n      swap2\n      swap1\n      0xffffffff\n      and\n      jump\t// in\n    tag_196:\n        /* \"contracts/Staking.sol\":5119:5188  block.timestamp.sub(_staker[_address].stakeStartTime).div(1 days) % 7 */\n      tag_198\n      swap2\n      swap1\n      tag_158\n      jump\t// in\n    tag_198:\n        /* \"contracts/Staking.sol\":5119:5193  block.timestamp.sub(_staker[_address].stakeStartTime).div(1 days) % 7 == 0 */\n      eq\n        /* \"contracts/Staking.sol\":5119:5201  block.timestamp.sub(_staker[_address].stakeStartTime).div(1 days) % 7 == 0 ? 0 : 1 */\n      tag_199\n      jumpi\n        /* \"contracts/Staking.sol\":5200:5201  1 */\n      0x01\n        /* \"contracts/Staking.sol\":5119:5201  block.timestamp.sub(_staker[_address].stakeStartTime).div(1 days) % 7 == 0 ? 0 : 1 */\n      jump(tag_200)\n    tag_199:\n        /* \"contracts/Staking.sol\":5196:5197  0 */\n      0x00\n        /* \"contracts/Staking.sol\":5119:5201  block.timestamp.sub(_staker[_address].stakeStartTime).div(1 days) % 7 == 0 ? 0 : 1 */\n    tag_200:\n        /* \"contracts/Staking.sol\":5112:5201  return block.timestamp.sub(_staker[_address].stakeStartTime).div(1 days) % 7 == 0 ? 0 : 1 */\n      0xff\n      and\n      swap1\n      pop\n      jump(tag_193)\n        /* \"contracts/Staking.sol\":5066:5316  if (_staker[_address].mode != 0)... */\n    tag_195:\n        /* \"contracts/Staking.sol\":5295:5308  _lockupPeriod */\n      sload(0x05)\n        /* \"contracts/Staking.sol\":5238:5291  block.timestamp.sub(_staker[_address].stakeStartTime) */\n      tag_202\n        /* \"contracts/Staking.sol\":5258:5265  _staker */\n      0x0b\n        /* \"contracts/Staking.sol\":5258:5275  _staker[_address] */\n      0x00\n        /* \"contracts/Staking.sol\":5266:5274  _address */\n      dup6\n        /* \"contracts/Staking.sol\":5258:5275  _staker[_address] */\n      0xffffffffffffffffffffffffffffffffffffffff\n      and\n      0xffffffffffffffffffffffffffffffffffffffff\n      and\n      dup2\n      mstore\n      0x20\n      add\n      swap1\n      dup2\n      mstore\n      0x20\n      add\n      0x00\n      keccak256\n        /* \"contracts/Staking.sol\":5258:5290  _staker[_address].stakeStartTime */\n      0x03\n      add\n      sload\n        /* \"contracts/Staking.sol\":5238:5253  block.timestamp */\n      timestamp\n        /* \"contracts/Staking.sol\":5238:5257  block.timestamp.sub */\n      tag_151\n      swap1\n        /* \"contracts/Staking.sol\":5238:5291  block.timestamp.sub(_staker[_address].stakeStartTime) */\n      swap2\n      swap1\n      0xffffffff\n      and\n      jump\t// in\n    tag_202:\n        /* \"contracts/Staking.sol\":5238:5308  block.timestamp.sub(_staker[_address].stakeStartTime) >= _lockupPeriod */\n      lt\n      iszero\n        /* \"contracts/Staking.sol\":5238:5316  block.timestamp.sub(_staker[_address].stakeStartTime) >= _lockupPeriod ? 0 : 1 */\n      tag_203\n      jumpi\n        /* \"contracts/Staking.sol\":5315:5316  1 */\n      0x01\n        /* \"contracts/Staking.sol\":5238:5316  block.timestamp.sub(_staker[_address].stakeStartTime) >= _lockupPeriod ? 0 : 1 */\n      jump(tag_204)\n    tag_203:\n        /* \"contracts/Staking.sol\":5311:5312  0 */\n      0x00\n        /* \"contracts/Staking.sol\":5238:5316  block.timestamp.sub(_staker[_address].stakeStartTime) >= _lockupPeriod ? 0 : 1 */\n    tag_204:\n        /* \"contracts/Staking.sol\":5231:5316  return block.timestamp.sub(_staker[_address].stakeStartTime) >= _lockupPeriod ? 0 : 1 */\n      0xff\n      and\n      swap1\n      pop\n        /* \"contracts/Staking.sol\":4919:5324  function isLocked(address _address) public view returns (uint256) {... */\n    tag_193:\n      swap2\n      swap1\n      pop\n      jump\t// out\n        /* \"contracts/Staking.sol\":7601:7783  function setLockupTime(uint256 lockupTime) external onlyOwner {... */\n    tag_56:\n        /* \"@openzeppelin/contracts/access/Ownable.sol\":1259:1271  _msgSender() */\n      tag_206\n        /* \"@openzeppelin/contracts/access/Ownable.sol\":1259:1269  _msgSender */\n      tag_131\n        /* \"@openzeppelin/contracts/access/Ownable.sol\":1259:1271  _msgSender() */\n      jump\t// in\n    tag_206:\n        /* \"@openzeppelin/contracts/access/Ownable.sol\":1248:1271  owner() == _msgSender() */\n      0xffffffffffffffffffffffffffffffffffffffff\n      and\n        /* \"@openzeppelin/contracts/access/Ownable.sol\":1248:1255  owner() */\n      tag_207\n        /* \"@openzeppelin/contracts/access/Ownable.sol\":1248:1253  owner */\n      tag_84\n        /* \"@openzeppelin/contracts/access/Ownable.sol\":1248:1255  owner() */\n      jump\t// in\n    tag_207:\n        /* \"@openzeppelin/contracts/access/Ownable.sol\":1248:1271  owner() == _msgSender() */\n      0xffffffffffffffffffffffffffffffffffffffff\n      and\n      eq\n        /* \"@openzeppelin/contracts/access/Ownable.sol\":1240:1308  require(owner() == _msgSender(), \"Ownable: caller is not the owner\") */\n      tag_208\n      jumpi\n      mload(0x40)\n      0x08c379a000000000000000000000000000000000000000000000000000000000\n      dup2\n      mstore\n      0x04\n      add\n      tag_209\n      swap1\n      tag_135\n      jump\t// in\n    tag_209:\n      mload(0x40)\n      dup1\n      swap2\n      sub\n      swap1\n      revert\n    tag_208:\n        /* \"contracts/Staking.sol\":7697:7698  0 */\n      0x00\n        /* \"contracts/Staking.sol\":7684:7694  lockupTime */\n      dup2\n        /* \"contracts/Staking.sol\":7684:7698  lockupTime > 0 */\n      gt\n        /* \"contracts/Staking.sol\":7676:7716  require(lockupTime > 0, \"Can't be zero\") */\n      tag_211\n      jumpi\n      mload(0x40)\n      0x08c379a000000000000000000000000000000000000000000000000000000000\n      dup2\n      mstore\n      0x04\n      add\n      tag_212\n      swap1\n      tag_139\n      jump\t// in\n    tag_212:\n      mload(0x40)\n      dup1\n      swap2\n      sub\n      swap1\n      revert\n    tag_211:\n        /* \"contracts/Staking.sol\":7753:7775  lockupTime.mul(1 days) */\n      tag_213\n        /* \"contracts/Staking.sol\":7768:7774  1 days */\n      0x015180\n        /* \"contracts/Staking.sol\":7753:7763  lockupTime */\n      dup3\n        /* \"contracts/Staking.sol\":7753:7767  lockupTime.mul */\n      tag_166\n      swap1\n        /* \"contracts/Staking.sol\":7753:7775  lockupTime.mul(1 days) */\n      swap2\n      swap1\n      0xffffffff\n      and\n      jump\t// in\n    tag_213:\n        /* \"contracts/Staking.sol\":7737:7750  _lockupPeriod */\n      0x05\n        /* \"contracts/Staking.sol\":7737:7775  _lockupPeriod = lockupTime.mul(1 days) */\n      dup2\n      swap1\n      sstore\n      pop\n        /* \"contracts/Staking.sol\":7601:7783  function setLockupTime(uint256 lockupTime) external onlyOwner {... */\n      pop\n      jump\t// out\n        /* \"contracts/Staking.sol\":2823:3720  function startStaking(uint256 _amount, uint256 _mode) external {... */\n    tag_60:\n        /* \"contracts/Staking.sol\":2925:2926  0 */\n      0x00\n        /* \"contracts/Staking.sol\":2915:2922  _amount */\n      dup3\n        /* \"contracts/Staking.sol\":2915:2926  _amount > 0 */\n      gt\n        /* \"contracts/Staking.sol\":2907:2962  require(_amount > 0, \"Amount should be greater than 0\") */\n      tag_215\n      jumpi\n      mload(0x40)\n      0x08c379a000000000000000000000000000000000000000000000000000000000\n      dup2\n      mstore\n      0x04\n      add\n      tag_216\n      swap1\n      tag_143\n      jump\t// in\n    tag_216:\n      mload(0x40)\n      dup1\n      swap2\n      sub\n      swap1\n      revert\n    tag_215:\n        /* \"contracts/Staking.sol\":3011:3018  _amount */\n      dup2\n        /* \"contracts/Staking.sol\":2981:2986  token */\n      0x0d\n      0x00\n      swap1\n      sload\n      swap1\n      0x0100\n      exp\n      swap1\n      div\n      0xffffffffffffffffffffffffffffffffffffffff\n      and\n        /* \"contracts/Staking.sol\":2981:2996  token.balanceOf */\n      0xffffffffffffffffffffffffffffffffffffffff\n      and\n      0x70a08231\n        /* \"contracts/Staking.sol\":2997:3007  msg.sender */\n      caller\n        /* \"contracts/Staking.sol\":2981:3008  token.balanceOf(msg.sender) */\n      mload(0x40)\n      dup3\n      0xffffffff\n      and\n      0xe0\n      shl\n      dup2\n      mstore\n      0x04\n      add\n      tag_217\n      swap2\n      swap1\n      tag_86\n      jump\t// in\n    tag_217:\n      0x20\n      mload(0x40)\n      dup1\n      dup4\n      sub\n      dup2\n      dup7\n      dup1\n      extcodesize\n      iszero\n      dup1\n      iszero\n      tag_218\n      jumpi\n      0x00\n      dup1\n      revert\n    tag_218:\n      pop\n      gas\n      staticcall\n      iszero\n      dup1\n      iszero\n      tag_220\n      jumpi\n      returndatasize\n      0x00\n      dup1\n      returndatacopy\n      revert(0x00, returndatasize)\n    tag_220:\n      pop\n      pop\n      pop\n      pop\n      mload(0x40)\n      returndatasize\n      not(0x1f)\n      0x1f\n      dup3\n      add\n      and\n      dup3\n      add\n      dup1\n      0x40\n      mstore\n      pop\n      dup2\n      add\n      swap1\n      tag_221\n      swap2\n      swap1\n      tag_184\n      jump\t// in\n    tag_221:\n        /* \"contracts/Staking.sol\":2981:3018  token.balanceOf(msg.sender) > _amount */\n      gt\n        /* \"contracts/Staking.sol\":2973:3036  require(token.balanceOf(msg.sender) > _amount, \"Insufficient!\") */\n      tag_222\n      jumpi\n      mload(0x40)\n      0x08c379a000000000000000000000000000000000000000000000000000000000\n      dup2\n      mstore\n      0x04\n      add\n      tag_223\n      swap1\n      tag_224\n      jump\t// in\n    tag_223:\n      mload(0x40)\n      dup1\n      swap2\n      sub\n      swap1\n      revert\n    tag_222:\n        /* \"contracts/Staking.sol\":3079:3080  0 */\n      0x00\n        /* \"contracts/Staking.sol\":3055:3075  isLocked(msg.sender) */\n      tag_225\n        /* \"contracts/Staking.sol\":3064:3074  msg.sender */\n      caller\n        /* \"contracts/Staking.sol\":3055:3063  isLocked */\n      tag_52\n        /* \"contracts/Staking.sol\":3055:3075  isLocked(msg.sender) */\n      jump\t// in\n    tag_225:\n        /* \"contracts/Staking.sol\":3055:3080  isLocked(msg.sender) == 0 */\n      eq\n        /* \"contracts/Staking.sol\":3047:3096  require(isLocked(msg.sender) == 0, \"Can't start\") */\n      tag_226\n      jumpi\n      mload(0x40)\n      0x08c379a000000000000000000000000000000000000000000000000000000000\n      dup2\n      mstore\n      0x04\n      add\n      tag_227\n      swap1\n      tag_228\n      jump\t// in\n    tag_227:\n      mload(0x40)\n      dup1\n      swap2\n      sub\n      swap1\n      revert\n    tag_226:\n        /* \"contracts/Staking.sol\":3130:3131  0 */\n      0x00\n        /* \"contracts/Staking.sol\":3121:3126  _mode */\n      dup2\n        /* \"contracts/Staking.sol\":3121:3131  _mode == 0 */\n      eq\n        /* \"contracts/Staking.sol\":3117:3493  if (_mode == 0) require(_amount >= _minStakeAmount_m, \"Insufficient\");... */\n      iszero\n      tag_229\n      jumpi\n        /* \"contracts/Staking.sol\":3152:3169  _minStakeAmount_m */\n      sload(0x06)\n        /* \"contracts/Staking.sol\":3141:3148  _amount */\n      dup3\n        /* \"contracts/Staking.sol\":3141:3169  _amount >= _minStakeAmount_m */\n      lt\n      iszero\n        /* \"contracts/Staking.sol\":3133:3186  require(_amount >= _minStakeAmount_m, \"Insufficient\") */\n      tag_230\n      jumpi\n      mload(0x40)\n      0x08c379a000000000000000000000000000000000000000000000000000000000\n      dup2\n      mstore\n      0x04\n      add\n      tag_231\n      swap1\n      tag_232\n      jump\t// in\n    tag_231:\n      mload(0x40)\n      dup1\n      swap2\n      sub\n      swap1\n      revert\n    tag_230:\n        /* \"contracts/Staking.sol\":3117:3493  if (_mode == 0) require(_amount >= _minStakeAmount_m, \"Insufficient\");... */\n      jump(tag_233)\n    tag_229:\n        /* \"contracts/Staking.sol\":3215:3216  1 */\n      0x01\n        /* \"contracts/Staking.sol\":3206:3211  _mode */\n      dup2\n        /* \"contracts/Staking.sol\":3206:3216  _mode == 1 */\n      eq\n        /* \"contracts/Staking.sol\":3202:3493  if (_mode == 1) require(_amount >= _minStakeAmount_c, \"Insufficient\");... */\n      iszero\n      tag_234\n      jumpi\n        /* \"contracts/Staking.sol\":3237:3254  _minStakeAmount_c */\n      sload(0x09)\n        /* \"contracts/Staking.sol\":3226:3233  _amount */\n      dup3\n        /* \"contracts/Staking.sol\":3226:3254  _amount >= _minStakeAmount_c */\n      lt\n      iszero\n        /* \"contracts/Staking.sol\":3218:3271  require(_amount >= _minStakeAmount_c, \"Insufficient\") */\n      tag_235\n      jumpi\n      mload(0x40)\n      0x08c379a000000000000000000000000000000000000000000000000000000000\n      dup2\n      mstore\n      0x04\n      add\n      tag_236\n      swap1\n      tag_232\n      jump\t// in\n    tag_236:\n      mload(0x40)\n      dup1\n      swap2\n      sub\n      swap1\n      revert\n    tag_235:\n        /* \"contracts/Staking.sol\":3202:3493  if (_mode == 1) require(_amount >= _minStakeAmount_c, \"Insufficient\");... */\n      jump(tag_237)\n    tag_234:\n        /* \"contracts/Staking.sol\":3300:3301  2 */\n      0x02\n        /* \"contracts/Staking.sol\":3291:3296  _mode */\n      dup2\n        /* \"contracts/Staking.sol\":3291:3301  _mode == 2 */\n      eq\n        /* \"contracts/Staking.sol\":3287:3493  if (_mode == 2) require(_amount >= _minStakeAmount_s, \"Insufficient\");... */\n      iszero\n      tag_238\n      jumpi\n        /* \"contracts/Staking.sol\":3322:3339  _minStakeAmount_s */\n      sload(0x08)\n        /* \"contracts/Staking.sol\":3311:3318  _amount */\n      dup3\n        /* \"contracts/Staking.sol\":3311:3339  _amount >= _minStakeAmount_s */\n      lt\n      iszero\n        /* \"contracts/Staking.sol\":3303:3356  require(_amount >= _minStakeAmount_s, \"Insufficient\") */\n      tag_239\n      jumpi\n      mload(0x40)\n      0x08c379a000000000000000000000000000000000000000000000000000000000\n      dup2\n      mstore\n      0x04\n      add\n      tag_240\n      swap1\n      tag_232\n      jump\t// in\n    tag_240:\n      mload(0x40)\n      dup1\n      swap2\n      sub\n      swap1\n      revert\n    tag_239:\n        /* \"contracts/Staking.sol\":3287:3493  if (_mode == 2) require(_amount >= _minStakeAmount_s, \"Insufficient\");... */\n      jump(tag_241)\n    tag_238:\n        /* \"contracts/Staking.sol\":3385:3386  3 */\n      0x03\n        /* \"contracts/Staking.sol\":3376:3381  _mode */\n      dup2\n        /* \"contracts/Staking.sol\":3376:3386  _mode == 3 */\n      eq\n        /* \"contracts/Staking.sol\":3372:3493  if (_mode == 3) require(_amount >= _minStakeAmount_g, \"Insufficient\");... */\n      iszero\n      tag_242\n      jumpi\n        /* \"contracts/Staking.sol\":3407:3424  _minStakeAmount_g */\n      sload(0x07)\n        /* \"contracts/Staking.sol\":3396:3403  _amount */\n      dup3\n        /* \"contracts/Staking.sol\":3396:3424  _amount >= _minStakeAmount_g */\n      lt\n      iszero\n        /* \"contracts/Staking.sol\":3388:3441  require(_amount >= _minStakeAmount_g, \"Insufficient\") */\n      tag_243\n      jumpi\n      mload(0x40)\n      0x08c379a000000000000000000000000000000000000000000000000000000000\n      dup2\n      mstore\n      0x04\n      add\n      tag_244\n      swap1\n      tag_232\n      jump\t// in\n    tag_244:\n      mload(0x40)\n      dup1\n      swap2\n      sub\n      swap1\n      revert\n    tag_243:\n        /* \"contracts/Staking.sol\":3372:3493  if (_mode == 3) require(_amount >= _minStakeAmount_g, \"Insufficient\");... */\n      jump(tag_245)\n    tag_242:\n        /* \"contracts/Staking.sol\":3475:3476  0 */\n      0x00\n        /* \"contracts/Staking.sol\":3465:3472  _amount */\n      dup3\n        /* \"contracts/Staking.sol\":3465:3476  _amount < 0 */\n      lt\n        /* \"contracts/Staking.sol\":3457:3493  require(_amount < 0, \"Invalid Mode\") */\n      tag_246\n      jumpi\n      mload(0x40)\n      0x08c379a000000000000000000000000000000000000000000000000000000000\n      dup2\n      mstore\n      0x04\n      add\n      tag_247\n      swap1\n      tag_248\n      jump\t// in\n    tag_247:\n      mload(0x40)\n      dup1\n      swap2\n      sub\n      swap1\n      revert\n    tag_246:\n        /* \"contracts/Staking.sol\":3372:3493  if (_mode == 3) require(_amount >= _minStakeAmount_g, \"Insufficient\");... */\n    tag_245:\n        /* \"contracts/Staking.sol\":3287:3493  if (_mode == 2) require(_amount >= _minStakeAmount_s, \"Insufficient\");... */\n    tag_241:\n        /* \"contracts/Staking.sol\":3202:3493  if (_mode == 1) require(_amount >= _minStakeAmount_c, \"Insufficient\");... */\n    tag_237:\n        /* \"contracts/Staking.sol\":3117:3493  if (_mode == 0) require(_amount >= _minStakeAmount_m, \"Insufficient\");... */\n    tag_233:\n        /* \"contracts/Staking.sol\":3541:3546  _mode */\n      dup1\n        /* \"contracts/Staking.sol\":3514:3521  _staker */\n      0x0b\n        /* \"contracts/Staking.sol\":3514:3533  _staker[msg.sender] */\n      0x00\n        /* \"contracts/Staking.sol\":3522:3532  msg.sender */\n      caller\n        /* \"contracts/Staking.sol\":3514:3533  _staker[msg.sender] */\n      0xffffffffffffffffffffffffffffffffffffffff\n      and\n      0xffffffffffffffffffffffffffffffffffffffff\n      and\n      dup2\n      mstore\n      0x20\n      add\n      swap1\n      dup2\n      mstore\n      0x20\n      add\n      0x00\n      keccak256\n        /* \"contracts/Staking.sol\":3514:3538  _staker[msg.sender].mode */\n      0x02\n      add\n        /* \"contracts/Staking.sol\":3514:3546  _staker[msg.sender].mode = _mode */\n      dup2\n      swap1\n      sstore\n      pop\n        /* \"contracts/Staking.sol\":3594:3609  block.timestamp */\n      timestamp\n        /* \"contracts/Staking.sol\":3557:3564  _staker */\n      0x0b\n        /* \"contracts/Staking.sol\":3557:3576  _staker[msg.sender] */\n      0x00\n        /* \"contracts/Staking.sol\":3565:3575  msg.sender */\n      caller\n        /* \"contracts/Staking.sol\":3557:3576  _staker[msg.sender] */\n      0xffffffffffffffffffffffffffffffffffffffff\n      and\n      0xffffffffffffffffffffffffffffffffffffffff\n      and\n      dup2\n      mstore\n      0x20\n      add\n      swap1\n      dup2\n      mstore\n      0x20\n      add\n      0x00\n      keccak256\n        /* \"contracts/Staking.sol\":3557:3591  _staker[msg.sender].stakeStartTime */\n      0x03\n      add\n        /* \"contracts/Staking.sol\":3557:3609  _staker[msg.sender].stakeStartTime = block.timestamp */\n      dup2\n      swap1\n      sstore\n      pop\n        /* \"contracts/Staking.sol\":3649:3651  55 */\n      0x37\n        /* \"contracts/Staking.sol\":3620:3627  _staker */\n      0x0b\n        /* \"contracts/Staking.sol\":3620:3639  _staker[msg.sender] */\n      0x00\n        /* \"contracts/Staking.sol\":3628:3638  msg.sender */\n      caller\n        /* \"contracts/Staking.sol\":3620:3639  _staker[msg.sender] */\n      0xffffffffffffffffffffffffffffffffffffffff\n      and\n      0xffffffffffffffffffffffffffffffffffffffff\n      and\n      dup2\n      mstore\n      0x20\n      add\n      swap1\n      dup2\n      mstore\n      0x20\n      add\n      0x00\n      keccak256\n        /* \"contracts/Staking.sol\":3620:3646  _staker[msg.sender].staked */\n      0x05\n      add\n        /* \"contracts/Staking.sol\":3620:3651  _staker[msg.sender].staked = 55 */\n      dup2\n      swap1\n      sstore\n      pop\n        /* \"contracts/Staking.sol\":3662:3670  _stakers */\n      0x0a\n        /* \"contracts/Staking.sol\":3676:3686  msg.sender */\n      caller\n        /* \"contracts/Staking.sol\":3662:3687  _stakers.push(msg.sender) */\n      swap1\n      dup1\n      0x01\n      dup2\n      sload\n      add\n      dup1\n      dup3\n      sstore\n      dup1\n      swap2\n      pop\n      pop\n      0x01\n      swap1\n      sub\n      swap1\n      0x00\n      mstore\n      keccak256(0x00, 0x20)\n      add\n      0x00\n      swap1\n      swap2\n      swap1\n      swap2\n      swap1\n      swap2\n      0x0100\n      exp\n      dup2\n      sload\n      dup2\n      0xffffffffffffffffffffffffffffffffffffffff\n      mul\n      not\n      and\n      swap1\n      dup4\n      0xffffffffffffffffffffffffffffffffffffffff\n      and\n      mul\n      or\n      swap1\n      sstore\n      pop\n        /* \"contracts/Staking.sol\":3698:3712  stake(_amount) */\n      tag_250\n        /* \"contracts/Staking.sol\":3704:3711  _amount */\n      dup3\n        /* \"contracts/Staking.sol\":3698:3703  stake */\n      tag_99\n        /* \"contracts/Staking.sol\":3698:3712  stake(_amount) */\n      jump\t// in\n    tag_250:\n        /* \"contracts/Staking.sol\":2823:3720  function startStaking(uint256 _amount, uint256 _mode) external {... */\n      pop\n      pop\n      jump\t// out\n        /* \"contracts/Staking.sol\":4479:4582  function getNumberofStakers() public view returns (uint256) {... */\n    tag_62:\n        /* \"contracts/Staking.sol\":4530:4537  uint256 */\n      0x00\n        /* \"contracts/Staking.sol\":4559:4567  _stakers */\n      0x0a\n        /* \"contracts/Staking.sol\":4559:4574  _stakers.length */\n      dup1\n      sload\n      swap1\n      pop\n        /* \"contracts/Staking.sol\":4552:4574  return _stakers.length */\n      swap1\n      pop\n        /* \"contracts/Staking.sol\":4479:4582  function getNumberofStakers() public view returns (uint256) {... */\n      swap1\n      jump\t// out\n        /* \"contracts/Staking.sol\":5484:5619  function rewardAmount(address _address) public view returns (uint256) {... */\n    tag_66:\n        /* \"contracts/Staking.sol\":5545:5552  uint256 */\n      0x00\n        /* \"contracts/Staking.sol\":5574:5581  _staker */\n      0x0b\n        /* \"contracts/Staking.sol\":5574:5591  _staker[_address] */\n      0x00\n        /* \"contracts/Staking.sol\":5582:5590  _address */\n      dup4\n        /* \"contracts/Staking.sol\":5574:5591  _staker[_address] */\n      0xffffffffffffffffffffffffffffffffffffffff\n      and\n      0xffffffffffffffffffffffffffffffffffffffff\n      and\n      dup2\n      mstore\n      0x20\n      add\n      swap1\n      dup2\n      mstore\n      0x20\n      add\n      0x00\n      keccak256\n        /* \"contracts/Staking.sol\":5574:5611  _staker[_address].stakerCurrentReward */\n      0x00\n      add\n      sload\n        /* \"contracts/Staking.sol\":5567:5611  return _staker[_address].stakerCurrentReward */\n      swap1\n      pop\n        /* \"contracts/Staking.sol\":5484:5619  function rewardAmount(address _address) public view returns (uint256) {... */\n      swap2\n      swap1\n      pop\n      jump\t// out\n        /* \"contracts/Staking.sol\":7075:7311  function setEventPeriod(uint256 __eventPeriod) external onlyOwner {... */\n    tag_70:\n        /* \"@openzeppelin/contracts/access/Ownable.sol\":1259:1271  _msgSender() */\n      tag_254\n        /* \"@openzeppelin/contracts/access/Ownable.sol\":1259:1269  _msgSender */\n      tag_131\n        /* \"@openzeppelin/contracts/access/Ownable.sol\":1259:1271  _msgSender() */\n      jump\t// in\n    tag_254:\n        /* \"@openzeppelin/contracts/access/Ownable.sol\":1248:1271  owner() == _msgSender() */\n      0xffffffffffffffffffffffffffffffffffffffff\n      and\n        /* \"@openzeppelin/contracts/access/Ownable.sol\":1248:1255  owner() */\n      tag_255\n        /* \"@openzeppelin/contracts/access/Ownable.sol\":1248:1253  owner */\n      tag_84\n        /* \"@openzeppelin/contracts/access/Ownable.sol\":1248:1255  owner() */\n      jump\t// in\n    tag_255:\n        /* \"@openzeppelin/contracts/access/Ownable.sol\":1248:1271  owner() == _msgSender() */\n      0xffffffffffffffffffffffffffffffffffffffff\n      and\n      eq\n        /* \"@openzeppelin/contracts/access/Ownable.sol\":1240:1308  require(owner() == _msgSender(), \"Ownable: caller is not the owner\") */\n      tag_256\n      jumpi\n      mload(0x40)\n      0x08c379a000000000000000000000000000000000000000000000000000000000\n      dup2\n      mstore\n      0x04\n      add\n      tag_257\n      swap1\n      tag_135\n      jump\t// in\n    tag_257:\n      mload(0x40)\n      dup1\n      swap2\n      sub\n      swap1\n      revert\n    tag_256:\n        /* \"contracts/Staking.sol\":7186:7187  0 */\n      0x00\n        /* \"contracts/Staking.sol\":7170:7183  __eventPeriod */\n      dup2\n        /* \"contracts/Staking.sol\":7170:7187  __eventPeriod > 0 */\n      gt\n        /* \"contracts/Staking.sol\":7162:7215  require(__eventPeriod > 0, \"Invalid Lockup Duration\") */\n      tag_259\n      jumpi\n      mload(0x40)\n      0x08c379a000000000000000000000000000000000000000000000000000000000\n      dup2\n      mstore\n      0x04\n      add\n      tag_260\n      swap1\n      tag_261\n      jump\t// in\n    tag_260:\n      mload(0x40)\n      dup1\n      swap2\n      sub\n      swap1\n      revert\n    tag_259:\n        /* \"contracts/Staking.sol\":7243:7256  __eventPeriod */\n      dup1\n        /* \"contracts/Staking.sol\":7228:7240  _eventPeriod */\n      0x02\n        /* \"contracts/Staking.sol\":7228:7256  _eventPeriod = __eventPeriod */\n      dup2\n      swap1\n      sstore\n      pop\n        /* \"contracts/Staking.sol\":7274:7303  SetEventPeriod(__eventPeriod) */\n      0x189bda9782663c67a3f95c0aa5455924c711210b00281c60ead2f0dd8dbc924c\n        /* \"contracts/Staking.sol\":7289:7302  __eventPeriod */\n      dup2\n        /* \"contracts/Staking.sol\":7274:7303  SetEventPeriod(__eventPeriod) */\n      mload(0x40)\n      tag_262\n      swap2\n      swap1\n      tag_39\n      jump\t// in\n    tag_262:\n      mload(0x40)\n      dup1\n      swap2\n      sub\n      swap1\n      log1\n        /* \"contracts/Staking.sol\":7075:7311  function setEventPeriod(uint256 __eventPeriod) external onlyOwner {... */\n      pop\n      jump\t// out\n        /* \"contracts/Staking.sol\":8584:8972  function rewardToHarvest(address _address) public view returns (uint256){... */\n    tag_73:\n        /* \"contracts/Staking.sol\":8648:8655  uint256 */\n      0x00\n        /* \"contracts/Staking.sol\":8677:8703  uint256 stakerStakedAmount */\n      dup1\n        /* \"contracts/Staking.sol\":8706:8713  _staker */\n      0x0b\n        /* \"contracts/Staking.sol\":8706:8723  _staker[_address] */\n      0x00\n        /* \"contracts/Staking.sol\":8714:8722  _address */\n      dup5\n        /* \"contracts/Staking.sol\":8706:8723  _staker[_address] */\n      0xffffffffffffffffffffffffffffffffffffffff\n      and\n      0xffffffffffffffffffffffffffffffffffffffff\n      and\n      dup2\n      mstore\n      0x20\n      add\n      swap1\n      dup2\n      mstore\n      0x20\n      add\n      0x00\n      keccak256\n        /* \"contracts/Staking.sol\":8706:8736  _staker[_address].stakedAmount */\n      0x01\n      add\n      sload\n        /* \"contracts/Staking.sol\":8677:8736  uint256 stakerStakedAmount = _staker[_address].stakedAmount */\n      swap1\n      pop\n        /* \"contracts/Staking.sol\":8747:8764  uint256 newReward */\n      0x00\n        /* \"contracts/Staking.sol\":8767:8885  stakerStakedAmount.mul(block.number.sub(_staker[_address].lastUpdatedBlockNumber).div(8640)).mul(_rewardRate).div(1e4) */\n      tag_264\n        /* \"contracts/Staking.sol\":8881:8884  1e4 */\n      0x2710\n        /* \"contracts/Staking.sol\":8767:8876  stakerStakedAmount.mul(block.number.sub(_staker[_address].lastUpdatedBlockNumber).div(8640)).mul(_rewardRate) */\n      tag_265\n        /* \"contracts/Staking.sol\":8864:8875  _rewardRate */\n      sload(0x03)\n        /* \"contracts/Staking.sol\":8767:8859  stakerStakedAmount.mul(block.number.sub(_staker[_address].lastUpdatedBlockNumber).div(8640)) */\n      tag_266\n        /* \"contracts/Staking.sol\":8790:8858  block.number.sub(_staker[_address].lastUpdatedBlockNumber).div(8640) */\n      tag_267\n        /* \"contracts/Staking.sol\":8853:8857  8640 */\n      0x21c0\n        /* \"contracts/Staking.sol\":8790:8848  block.number.sub(_staker[_address].lastUpdatedBlockNumber) */\n      tag_268\n        /* \"contracts/Staking.sol\":8807:8814  _staker */\n      0x0b\n        /* \"contracts/Staking.sol\":8807:8824  _staker[_address] */\n      0x00\n        /* \"contracts/Staking.sol\":8815:8823  _address */\n      dup14\n        /* \"contracts/Staking.sol\":8807:8824  _staker[_address] */\n      0xffffffffffffffffffffffffffffffffffffffff\n      and\n      0xffffffffffffffffffffffffffffffffffffffff\n      and\n      dup2\n      mstore\n      0x20\n      add\n      swap1\n      dup2\n      mstore\n      0x20\n      add\n      0x00\n      keccak256\n        /* \"contracts/Staking.sol\":8807:8847  _staker[_address].lastUpdatedBlockNumber */\n      0x04\n      add\n      sload\n        /* \"contracts/Staking.sol\":8790:8802  block.number */\n      number\n        /* \"contracts/Staking.sol\":8790:8806  block.number.sub */\n      tag_151\n      swap1\n        /* \"contracts/Staking.sol\":8790:8848  block.number.sub(_staker[_address].lastUpdatedBlockNumber) */\n      swap2\n      swap1\n      0xffffffff\n      and\n      jump\t// in\n    tag_268:\n        /* \"contracts/Staking.sol\":8790:8852  block.number.sub(_staker[_address].lastUpdatedBlockNumber).div */\n      tag_152\n      swap1\n        /* \"contracts/Staking.sol\":8790:8858  block.number.sub(_staker[_address].lastUpdatedBlockNumber).div(8640) */\n      swap2\n      swap1\n      0xffffffff\n      and\n      jump\t// in\n    tag_267:\n        /* \"contracts/Staking.sol\":8767:8785  stakerStakedAmount */\n      dup8\n        /* \"contracts/Staking.sol\":8767:8789  stakerStakedAmount.mul */\n      tag_166\n      swap1\n        /* \"contracts/Staking.sol\":8767:8859  stakerStakedAmount.mul(block.number.sub(_staker[_address].lastUpdatedBlockNumber).div(8640)) */\n      swap2\n      swap1\n      0xffffffff\n      and\n      jump\t// in\n    tag_266:\n        /* \"contracts/Staking.sol\":8767:8863  stakerStakedAmount.mul(block.number.sub(_staker[_address].lastUpdatedBlockNumber).div(8640)).mul */\n      tag_166\n      swap1\n        /* \"contracts/Staking.sol\":8767:8876  stakerStakedAmount.mul(block.number.sub(_staker[_address].lastUpdatedBlockNumber).div(8640)).mul(_rewardRate) */\n      swap2\n      swap1\n      0xffffffff\n      and\n      jump\t// in\n    tag_265:\n        /* \"contracts/Staking.sol\":8767:8880  stakerStakedAmount.mul(block.number.sub(_staker[_address].lastUpdatedBlockNumber).div(8640)).mul(_rewardRate).div */\n      tag_152\n      swap1\n        /* \"contracts/Staking.sol\":8767:8885  stakerStakedAmount.mul(block.number.sub(_staker[_address].lastUpdatedBlockNumber).div(8640)).mul(_rewardRate).div(1e4) */\n      swap2\n      swap1\n      0xffffffff\n      and\n      jump\t// in\n    tag_264:\n        /* \"contracts/Staking.sol\":8747:8885  uint256 newReward = stakerStakedAmount.mul(block.number.sub(_staker[_address].lastUpdatedBlockNumber).div(8640)).mul(_rewardRate).div(1e4) */\n      swap1\n      pop\n        /* \"contracts/Staking.sol\":8955:8964  newReward */\n      dup1\n        /* \"contracts/Staking.sol\":8913:8920  _staker */\n      0x0b\n        /* \"contracts/Staking.sol\":8913:8932  _staker[msg.sender] */\n      0x00\n        /* \"contracts/Staking.sol\":8921:8931  msg.sender */\n      caller\n        /* \"contracts/Staking.sol\":8913:8932  _staker[msg.sender] */\n      0xffffffffffffffffffffffffffffffffffffffff\n      and\n      0xffffffffffffffffffffffffffffffffffffffff\n      and\n      dup2\n      mstore\n      0x20\n      add\n      swap1\n      dup2\n      mstore\n      0x20\n      add\n      0x00\n      keccak256\n        /* \"contracts/Staking.sol\":8913:8952  _staker[msg.sender].stakerCurrentReward */\n      0x00\n      add\n      sload\n        /* \"contracts/Staking.sol\":8913:8964  _staker[msg.sender].stakerCurrentReward + newReward */\n      tag_269\n      swap2\n      swap1\n      tag_270\n      jump\t// in\n    tag_269:\n        /* \"contracts/Staking.sol\":8906:8964  return _staker[msg.sender].stakerCurrentReward + newReward */\n      swap3\n      pop\n      pop\n      pop\n        /* \"contracts/Staking.sol\":8584:8972  function rewardToHarvest(address _address) public view returns (uint256){... */\n      swap2\n      swap1\n      pop\n      jump\t// out\n        /* \"@openzeppelin/contracts/access/Ownable.sol\":1668:1769  function renounceOwnership() public virtual onlyOwner {... */\n    tag_76:\n        /* \"@openzeppelin/contracts/access/Ownable.sol\":1259:1271  _msgSender() */\n      tag_272\n        /* \"@openzeppelin/contracts/access/Ownable.sol\":1259:1269  _msgSender */\n      tag_131\n        /* \"@openzeppelin/contracts/access/Ownable.sol\":1259:1271  _msgSender() */\n      jump\t// in\n    tag_272:\n        /* \"@openzeppelin/contracts/access/Ownable.sol\":1248:1271  owner() == _msgSender() */\n      0xffffffffffffffffffffffffffffffffffffffff\n      and\n        /* \"@openzeppelin/contracts/access/Ownable.sol\":1248:1255  owner() */\n      tag_273\n        /* \"@openzeppelin/contracts/access/Ownable.sol\":1248:1253  owner */\n      tag_84\n        /* \"@openzeppelin/contracts/access/Ownable.sol\":1248:1255  owner() */\n      jump\t// in\n    tag_273:\n        /* \"@openzeppelin/contracts/access/Ownable.sol\":1248:1271  owner() == _msgSender() */\n      0xffffffffffffffffffffffffffffffffffffffff\n      and\n      eq\n        /* \"@openzeppelin/contracts/access/Ownable.sol\":1240:1308  require(owner() == _msgSender(), \"Ownable: caller is not the owner\") */\n      tag_274\n      jumpi\n      mload(0x40)\n      0x08c379a000000000000000000000000000000000000000000000000000000000\n      dup2\n      mstore\n      0x04\n      add\n      tag_275\n      swap1\n      tag_135\n      jump\t// in\n    tag_275:\n      mload(0x40)\n      dup1\n      swap2\n      sub\n      swap1\n      revert\n    tag_274:\n        /* \"@openzeppelin/contracts/access/Ownable.sol\":1732:1762  _transferOwnership(address(0)) */\n      tag_277\n        /* \"@openzeppelin/contracts/access/Ownable.sol\":1759:1760  0 */\n      0x00\n        /* \"@openzeppelin/contracts/access/Ownable.sol\":1732:1750  _transferOwnership */\n      tag_278\n        /* \"@openzeppelin/contracts/access/Ownable.sol\":1732:1762  _transferOwnership(address(0)) */\n      jump\t// in\n    tag_277:\n        /* \"@openzeppelin/contracts/access/Ownable.sol\":1668:1769  function renounceOwnership() public virtual onlyOwner {... */\n      jump\t// out\n        /* \"contracts/Staking.sol\":5627:5721  function getRewardRate() public view returns (uint256) {... */\n    tag_78:\n        /* \"contracts/Staking.sol\":5673:5680  uint256 */\n      0x00\n        /* \"contracts/Staking.sol\":5702:5713  _rewardRate */\n      sload(0x03)\n        /* \"contracts/Staking.sol\":5695:5713  return _rewardRate */\n      swap1\n      pop\n        /* \"contracts/Staking.sol\":5627:5721  function getRewardRate() public view returns (uint256) {... */\n      swap1\n      jump\t// out\n        /* \"contracts/Staking.sol\":1213:1239  uint256 public totalStaked */\n    tag_81:\n      sload(0x0c)\n      dup2\n      jump\t// out\n        /* \"@openzeppelin/contracts/access/Ownable.sol\":1036:1121  function owner() public view virtual returns (address) {... */\n    tag_84:\n        /* \"@openzeppelin/contracts/access/Ownable.sol\":1082:1089  address */\n      0x00\n        /* \"@openzeppelin/contracts/access/Ownable.sol\":1108:1114  _owner */\n      dup1\n      0x00\n      swap1\n      sload\n      swap1\n      0x0100\n      exp\n      swap1\n      div\n      0xffffffffffffffffffffffffffffffffffffffff\n      and\n        /* \"@openzeppelin/contracts/access/Ownable.sol\":1101:1114  return _owner */\n      swap1\n      pop\n        /* \"@openzeppelin/contracts/access/Ownable.sol\":1036:1121  function owner() public view virtual returns (address) {... */\n      swap1\n      jump\t// out\n        /* \"contracts/Staking.sol\":9620:10048  function getMinimumStakingAmount(uint256 _mode) public view returns (uint256) {... */\n    tag_89:\n        /* \"contracts/Staking.sol\":9689:9696  uint256 */\n      0x00\n        /* \"contracts/Staking.sol\":9719:9742  uint256 _minStakeAmount */\n      dup1\n        /* \"contracts/Staking.sol\":9745:9746  0 */\n      0x00\n        /* \"contracts/Staking.sol\":9719:9746  uint256 _minStakeAmount = 0 */\n      swap1\n      pop\n        /* \"contracts/Staking.sol\":9772:9773  0 */\n      0x00\n        /* \"contracts/Staking.sol\":9763:9768  _mode */\n      dup4\n        /* \"contracts/Staking.sol\":9763:9773  _mode == 0 */\n      eq\n        /* \"contracts/Staking.sol\":9763:9787  _mode == 0 || _mode == 2 */\n      dup1\n      tag_282\n      jumpi\n      pop\n        /* \"contracts/Staking.sol\":9786:9787  2 */\n      0x02\n        /* \"contracts/Staking.sol\":9777:9782  _mode */\n      dup4\n        /* \"contracts/Staking.sol\":9777:9787  _mode == 2 */\n      eq\n        /* \"contracts/Staking.sol\":9763:9787  _mode == 0 || _mode == 2 */\n    tag_282:\n        /* \"contracts/Staking.sol\":9759:10005  if (_mode == 0 || _mode == 2) _minStakeAmount = _minStakeAmount_m;... */\n      iszero\n      tag_283\n      jumpi\n        /* \"contracts/Staking.sol\":9807:9824  _minStakeAmount_m */\n      sload(0x06)\n        /* \"contracts/Staking.sol\":9789:9824  _minStakeAmount = _minStakeAmount_m */\n      swap1\n      pop\n        /* \"contracts/Staking.sol\":9759:10005  if (_mode == 0 || _mode == 2) _minStakeAmount = _minStakeAmount_m;... */\n      jump(tag_284)\n    tag_283:\n        /* \"contracts/Staking.sol\":9853:9854  1 */\n      0x01\n        /* \"contracts/Staking.sol\":9844:9849  _mode */\n      dup4\n        /* \"contracts/Staking.sol\":9844:9854  _mode == 1 */\n      eq\n        /* \"contracts/Staking.sol\":9840:10005  if (_mode == 1) _minStakeAmount = _minStakeAmount_c;... */\n      iszero\n      tag_285\n      jumpi\n        /* \"contracts/Staking.sol\":9874:9891  _minStakeAmount_c */\n      sload(0x09)\n        /* \"contracts/Staking.sol\":9856:9891  _minStakeAmount = _minStakeAmount_c */\n      swap1\n      pop\n        /* \"contracts/Staking.sol\":9840:10005  if (_mode == 1) _minStakeAmount = _minStakeAmount_c;... */\n      jump(tag_286)\n    tag_285:\n        /* \"contracts/Staking.sol\":9920:9921  3 */\n      0x03\n        /* \"contracts/Staking.sol\":9911:9916  _mode */\n      dup4\n        /* \"contracts/Staking.sol\":9911:9921  _mode == 3 */\n      eq\n        /* \"contracts/Staking.sol\":9907:10005  if (_mode == 3) _minStakeAmount = _minStakeAmount_g;... */\n      iszero\n      tag_287\n      jumpi\n        /* \"contracts/Staking.sol\":9941:9958  _minStakeAmount_g */\n      sload(0x07)\n        /* \"contracts/Staking.sol\":9923:9958  _minStakeAmount = _minStakeAmount_g */\n      swap1\n      pop\n        /* \"contracts/Staking.sol\":9907:10005  if (_mode == 3) _minStakeAmount = _minStakeAmount_g;... */\n      jump(tag_288)\n    tag_287:\n        /* \"contracts/Staking.sol\":9987:9988  1 */\n      0x01\n        /* \"contracts/Staking.sol\":9983:9984  0 */\n      0x00\n        /* \"contracts/Staking.sol\":9983:9988  0 > 1 */\n      gt\n        /* \"contracts/Staking.sol\":9974:10005  require (0 > 1, \"Invalid Mode\") */\n      tag_289\n      jumpi\n      mload(0x40)\n      0x08c379a000000000000000000000000000000000000000000000000000000000\n      dup2\n      mstore\n      0x04\n      add\n      tag_290\n      swap1\n      tag_248\n      jump\t// in\n    tag_290:\n      mload(0x40)\n      dup1\n      swap2\n      sub\n      swap1\n      revert\n    tag_289:\n        /* \"contracts/Staking.sol\":9907:10005  if (_mode == 3) _minStakeAmount = _minStakeAmount_g;... */\n    tag_288:\n        /* \"contracts/Staking.sol\":9840:10005  if (_mode == 1) _minStakeAmount = _minStakeAmount_c;... */\n    tag_286:\n        /* \"contracts/Staking.sol\":9759:10005  if (_mode == 0 || _mode == 2) _minStakeAmount = _minStakeAmount_m;... */\n    tag_284:\n        /* \"contracts/Staking.sol\":10025:10040  _minStakeAmount */\n      dup1\n        /* \"contracts/Staking.sol\":10018:10040  return _minStakeAmount */\n      swap2\n      pop\n      pop\n        /* \"contracts/Staking.sol\":9620:10048  function getMinimumStakingAmount(uint256 _mode) public view returns (uint256) {... */\n      swap2\n      swap1\n      pop\n      jump\t// out\n        /* \"contracts/Staking.sol\":7319:7593  function setUnstakingFeeRate(uint256 __unstakingFeeRate) external onlyOwner {... */\n    tag_93:\n        /* \"@openzeppelin/contracts/access/Ownable.sol\":1259:1271  _msgSender() */\n      tag_292\n        /* \"@openzeppelin/contracts/access/Ownable.sol\":1259:1269  _msgSender */\n      tag_131\n        /* \"@openzeppelin/contracts/access/Ownable.sol\":1259:1271  _msgSender() */\n      jump\t// in\n    tag_292:\n        /* \"@openzeppelin/contracts/access/Ownable.sol\":1248:1271  owner() == _msgSender() */\n      0xffffffffffffffffffffffffffffffffffffffff\n      and\n        /* \"@openzeppelin/contracts/access/Ownable.sol\":1248:1255  owner() */\n      tag_293\n        /* \"@openzeppelin/contracts/access/Ownable.sol\":1248:1253  owner */\n      tag_84\n        /* \"@openzeppelin/contracts/access/Ownable.sol\":1248:1255  owner() */\n      jump\t// in\n    tag_293:\n        /* \"@openzeppelin/contracts/access/Ownable.sol\":1248:1271  owner() == _msgSender() */\n      0xffffffffffffffffffffffffffffffffffffffff\n      and\n      eq\n        /* \"@openzeppelin/contracts/access/Ownable.sol\":1240:1308  require(owner() == _msgSender(), \"Ownable: caller is not the owner\") */\n      tag_294\n      jumpi\n      mload(0x40)\n      0x08c379a000000000000000000000000000000000000000000000000000000000\n      dup2\n      mstore\n      0x04\n      add\n      tag_295\n      swap1\n      tag_135\n      jump\t// in\n    tag_295:\n      mload(0x40)\n      dup1\n      swap2\n      sub\n      swap1\n      revert\n    tag_294:\n        /* \"contracts/Staking.sol\":7445:7446  0 */\n      0x00\n        /* \"contracts/Staking.sol\":7424:7442  __unstakingFeeRate */\n      dup2\n        /* \"contracts/Staking.sol\":7424:7446  __unstakingFeeRate > 0 */\n      gt\n        /* \"contracts/Staking.sol\":7416:7477  require(__unstakingFeeRate > 0, \"Invalid Unstaking Fee Rate\") */\n      tag_297\n      jumpi\n      mload(0x40)\n      0x08c379a000000000000000000000000000000000000000000000000000000000\n      dup2\n      mstore\n      0x04\n      add\n      tag_298\n      swap1\n      tag_299\n      jump\t// in\n    tag_298:\n      mload(0x40)\n      dup1\n      swap2\n      sub\n      swap1\n      revert\n    tag_297:\n        /* \"contracts/Staking.sol\":7510:7528  __unstakingFeeRate */\n      dup1\n        /* \"contracts/Staking.sol\":7490:7507  _unstakingFeeRate */\n      0x01\n        /* \"contracts/Staking.sol\":7490:7528  _unstakingFeeRate = __unstakingFeeRate */\n      dup2\n      swap1\n      sstore\n      pop\n        /* \"contracts/Staking.sol\":7546:7585  SetUnstakingFeeRate(__unstakingFeeRate) */\n      0x150c688dd7595bf7862b8ab1fe46756450eb7d731037942b3bbc46f3f0e21b81\n        /* \"contracts/Staking.sol\":7566:7584  __unstakingFeeRate */\n      dup2\n        /* \"contracts/Staking.sol\":7546:7585  SetUnstakingFeeRate(__unstakingFeeRate) */\n      mload(0x40)\n      tag_300\n      swap2\n      swap1\n      tag_39\n      jump\t// in\n    tag_300:\n      mload(0x40)\n      dup1\n      swap2\n      sub\n      swap1\n      log1\n        /* \"contracts/Staking.sol\":7319:7593  function setUnstakingFeeRate(uint256 __unstakingFeeRate) external onlyOwner {... */\n      pop\n      jump\t// out\n        /* \"contracts/Staking.sol\":6840:7067  function setRewardRate(uint256 __rewardRate) external onlyOwner {... */\n    tag_96:\n        /* \"@openzeppelin/contracts/access/Ownable.sol\":1259:1271  _msgSender() */\n      tag_302\n        /* \"@openzeppelin/contracts/access/Ownable.sol\":1259:1269  _msgSender */\n      tag_131\n        /* \"@openzeppelin/contracts/access/Ownable.sol\":1259:1271  _msgSender() */\n      jump\t// in\n    tag_302:\n        /* \"@openzeppelin/contracts/access/Ownable.sol\":1248:1271  owner() == _msgSender() */\n      0xffffffffffffffffffffffffffffffffffffffff\n      and\n        /* \"@openzeppelin/contracts/access/Ownable.sol\":1248:1255  owner() */\n      tag_303\n        /* \"@openzeppelin/contracts/access/Ownable.sol\":1248:1253  owner */\n      tag_84\n        /* \"@openzeppelin/contracts/access/Ownable.sol\":1248:1255  owner() */\n      jump\t// in\n    tag_303:\n        /* \"@openzeppelin/contracts/access/Ownable.sol\":1248:1271  owner() == _msgSender() */\n      0xffffffffffffffffffffffffffffffffffffffff\n      and\n      eq\n        /* \"@openzeppelin/contracts/access/Ownable.sol\":1240:1308  require(owner() == _msgSender(), \"Ownable: caller is not the owner\") */\n      tag_304\n      jumpi\n      mload(0x40)\n      0x08c379a000000000000000000000000000000000000000000000000000000000\n      dup2\n      mstore\n      0x04\n      add\n      tag_305\n      swap1\n      tag_135\n      jump\t// in\n    tag_305:\n      mload(0x40)\n      dup1\n      swap2\n      sub\n      swap1\n      revert\n    tag_304:\n        /* \"contracts/Staking.sol\":6948:6949  0 */\n      0x00\n        /* \"contracts/Staking.sol\":6933:6945  __rewardRate */\n      dup2\n        /* \"contracts/Staking.sol\":6933:6949  __rewardRate > 0 */\n      gt\n        /* \"contracts/Staking.sol\":6925:6967  require(__rewardRate > 0, \"Invalid value\") */\n      tag_307\n      jumpi\n      mload(0x40)\n      0x08c379a000000000000000000000000000000000000000000000000000000000\n      dup2\n      mstore\n      0x04\n      add\n      tag_308\n      swap1\n      tag_309\n      jump\t// in\n    tag_308:\n      mload(0x40)\n      dup1\n      swap2\n      sub\n      swap1\n      revert\n    tag_307:\n        /* \"contracts/Staking.sol\":7002:7014  __rewardRate */\n      dup1\n        /* \"contracts/Staking.sol\":6988:6999  _rewardRate */\n      0x03\n        /* \"contracts/Staking.sol\":6988:7014  _rewardRate = __rewardRate */\n      dup2\n      swap1\n      sstore\n      pop\n        /* \"contracts/Staking.sol\":7032:7059  SetRewardRate(__rewardRate) */\n      0x1946fb78c7ca778b54d82cabaac5ba67cf446f58d0ff1f8ceaebb6150e54e44f\n        /* \"contracts/Staking.sol\":7046:7058  __rewardRate */\n      dup2\n        /* \"contracts/Staking.sol\":7032:7059  SetRewardRate(__rewardRate) */\n      mload(0x40)\n      tag_310\n      swap2\n      swap1\n      tag_39\n      jump\t// in\n    tag_310:\n      mload(0x40)\n      dup1\n      swap2\n      sub\n      swap1\n      log1\n        /* \"contracts/Staking.sol\":6840:7067  function setRewardRate(uint256 __rewardRate) external onlyOwner {... */\n      pop\n      jump\t// out\n        /* \"contracts/Staking.sol\":3788:4368  function stake(uint256 _amount) public{... */\n    tag_99:\n        /* \"contracts/Staking.sol\":3865:3866  0 */\n      0x00\n        /* \"contracts/Staking.sol\":3855:3862  _amount */\n      dup2\n        /* \"contracts/Staking.sol\":3855:3866  _amount > 0 */\n      gt\n        /* \"contracts/Staking.sol\":3847:3902  require(_amount > 0, \"Amount should be greater than 0\") */\n      tag_312\n      jumpi\n      mload(0x40)\n      0x08c379a000000000000000000000000000000000000000000000000000000000\n      dup2\n      mstore\n      0x04\n      add\n      tag_313\n      swap1\n      tag_143\n      jump\t// in\n    tag_313:\n      mload(0x40)\n      dup1\n      swap2\n      sub\n      swap1\n      revert\n    tag_312:\n        /* \"contracts/Staking.sol\":3951:3958  _amount */\n      dup1\n        /* \"contracts/Staking.sol\":3921:3926  token */\n      0x0d\n      0x00\n      swap1\n      sload\n      swap1\n      0x0100\n      exp\n      swap1\n      div\n      0xffffffffffffffffffffffffffffffffffffffff\n      and\n        /* \"contracts/Staking.sol\":3921:3936  token.balanceOf */\n      0xffffffffffffffffffffffffffffffffffffffff\n      and\n      0x70a08231\n        /* \"contracts/Staking.sol\":3937:3947  msg.sender */\n      caller\n        /* \"contracts/Staking.sol\":3921:3948  token.balanceOf(msg.sender) */\n      mload(0x40)\n      dup3\n      0xffffffff\n      and\n      0xe0\n      shl\n      dup2\n      mstore\n      0x04\n      add\n      tag_314\n      swap2\n      swap1\n      tag_86\n      jump\t// in\n    tag_314:\n      0x20\n      mload(0x40)\n      dup1\n      dup4\n      sub\n      dup2\n      dup7\n      dup1\n      extcodesize\n      iszero\n      dup1\n      iszero\n      tag_315\n      jumpi\n      0x00\n      dup1\n      revert\n    tag_315:\n      pop\n      gas\n      staticcall\n      iszero\n      dup1\n      iszero\n      tag_317\n      jumpi\n      returndatasize\n      0x00\n      dup1\n      returndatacopy\n      revert(0x00, returndatasize)\n    tag_317:\n      pop\n      pop\n      pop\n      pop\n      mload(0x40)\n      returndatasize\n      not(0x1f)\n      0x1f\n      dup3\n      add\n      and\n      dup3\n      add\n      dup1\n      0x40\n      mstore\n      pop\n      dup2\n      add\n      swap1\n      tag_318\n      swap2\n      swap1\n      tag_184\n      jump\t// in\n    tag_318:\n        /* \"contracts/Staking.sol\":3921:3958  token.balanceOf(msg.sender) > _amount */\n      gt\n        /* \"contracts/Staking.sol\":3913:3976  require(token.balanceOf(msg.sender) > _amount, \"Insufficient!\") */\n      tag_319\n      jumpi\n      mload(0x40)\n      0x08c379a000000000000000000000000000000000000000000000000000000000\n      dup2\n      mstore\n      0x04\n      add\n      tag_320\n      swap1\n      tag_224\n      jump\t// in\n    tag_320:\n      mload(0x40)\n      dup1\n      swap2\n      sub\n      swap1\n      revert\n    tag_319:\n        /* \"contracts/Staking.sol\":4025:4027  55 */\n      0x37\n        /* \"contracts/Staking.sol\":3995:4002  _staker */\n      0x0b\n        /* \"contracts/Staking.sol\":3995:4014  _staker[msg.sender] */\n      0x00\n        /* \"contracts/Staking.sol\":4003:4013  msg.sender */\n      caller\n        /* \"contracts/Staking.sol\":3995:4014  _staker[msg.sender] */\n      0xffffffffffffffffffffffffffffffffffffffff\n      and\n      0xffffffffffffffffffffffffffffffffffffffff\n      and\n      dup2\n      mstore\n      0x20\n      add\n      swap1\n      dup2\n      mstore\n      0x20\n      add\n      0x00\n      keccak256\n        /* \"contracts/Staking.sol\":3995:4021  _staker[msg.sender].staked */\n      0x05\n      add\n      sload\n        /* \"contracts/Staking.sol\":3995:4027  _staker[msg.sender].staked == 55 */\n      eq\n        /* \"contracts/Staking.sol\":3987:4053  require(_staker[msg.sender].staked == 55, \"Error: invalid staker\") */\n      tag_321\n      jumpi\n      mload(0x40)\n      0x08c379a000000000000000000000000000000000000000000000000000000000\n      dup2\n      mstore\n      0x04\n      add\n      tag_322\n      swap1\n      tag_323\n      jump\t// in\n    tag_322:\n      mload(0x40)\n      dup1\n      swap2\n      sub\n      swap1\n      revert\n    tag_321:\n        /* \"contracts/Staking.sol\":4074:4088  updateReward() */\n      tag_324\n        /* \"contracts/Staking.sol\":4074:4086  updateReward */\n      tag_148\n        /* \"contracts/Staking.sol\":4074:4088  updateReward() */\n      jump\t// in\n    tag_324:\n        /* \"contracts/Staking.sol\":4109:4167  token.safeTransferFrom(msg.sender, address(this), _amount) */\n      tag_325\n        /* \"contracts/Staking.sol\":4132:4142  msg.sender */\n      caller\n        /* \"contracts/Staking.sol\":4152:4156  this */\n      address\n        /* \"contracts/Staking.sol\":4159:4166  _amount */\n      dup4\n        /* \"contracts/Staking.sol\":4109:4114  token */\n      0x0d\n      0x00\n      swap1\n      sload\n      swap1\n      0x0100\n      exp\n      swap1\n      div\n      0xffffffffffffffffffffffffffffffffffffffff\n      and\n        /* \"contracts/Staking.sol\":4109:4131  token.safeTransferFrom */\n      0xffffffffffffffffffffffffffffffffffffffff\n      and\n      tag_326\n      swap1\n        /* \"contracts/Staking.sol\":4109:4167  token.safeTransferFrom(msg.sender, address(this), _amount) */\n      swap4\n      swap3\n      swap2\n      swap1\n      0xffffffff\n      and\n      jump\t// in\n    tag_325:\n        /* \"contracts/Staking.sol\":4213:4258  _staker[msg.sender].stakedAmount.add(_amount) */\n      tag_327\n        /* \"contracts/Staking.sol\":4250:4257  _amount */\n      dup2\n        /* \"contracts/Staking.sol\":4213:4220  _staker */\n      0x0b\n        /* \"contracts/Staking.sol\":4213:4232  _staker[msg.sender] */\n      0x00\n        /* \"contracts/Staking.sol\":4221:4231  msg.sender */\n      caller\n        /* \"contracts/Staking.sol\":4213:4232  _staker[msg.sender] */\n      0xffffffffffffffffffffffffffffffffffffffff\n      and\n      0xffffffffffffffffffffffffffffffffffffffff\n      and\n      dup2\n      mstore\n      0x20\n      add\n      swap1\n      dup2\n      mstore\n      0x20\n      add\n      0x00\n      keccak256\n        /* \"contracts/Staking.sol\":4213:4245  _staker[msg.sender].stakedAmount */\n      0x01\n      add\n      sload\n        /* \"contracts/Staking.sol\":4213:4249  _staker[msg.sender].stakedAmount.add */\n      tag_155\n      swap1\n        /* \"contracts/Staking.sol\":4213:4258  _staker[msg.sender].stakedAmount.add(_amount) */\n      swap2\n      swap1\n      0xffffffff\n      and\n      jump\t// in\n    tag_327:\n        /* \"contracts/Staking.sol\":4178:4185  _staker */\n      0x0b\n        /* \"contracts/Staking.sol\":4178:4197  _staker[msg.sender] */\n      0x00\n        /* \"contracts/Staking.sol\":4186:4196  msg.sender */\n      caller\n        /* \"contracts/Staking.sol\":4178:4197  _staker[msg.sender] */\n      0xffffffffffffffffffffffffffffffffffffffff\n      and\n      0xffffffffffffffffffffffffffffffffffffffff\n      and\n      dup2\n      mstore\n      0x20\n      add\n      swap1\n      dup2\n      mstore\n      0x20\n      add\n      0x00\n      keccak256\n        /* \"contracts/Staking.sol\":4178:4210  _staker[msg.sender].stakedAmount */\n      0x01\n      add\n        /* \"contracts/Staking.sol\":4178:4258  _staker[msg.sender].stakedAmount = _staker[msg.sender].stakedAmount.add(_amount) */\n      dup2\n      swap1\n      sstore\n      pop\n        /* \"contracts/Staking.sol\":4283:4307  totalStaked.add(_amount) */\n      tag_328\n        /* \"contracts/Staking.sol\":4299:4306  _amount */\n      dup2\n        /* \"contracts/Staking.sol\":4283:4294  totalStaked */\n      sload(0x0c)\n        /* \"contracts/Staking.sol\":4283:4298  totalStaked.add */\n      tag_155\n      swap1\n        /* \"contracts/Staking.sol\":4283:4307  totalStaked.add(_amount) */\n      swap2\n      swap1\n      0xffffffff\n      and\n      jump\t// in\n    tag_328:\n        /* \"contracts/Staking.sol\":4269:4280  totalStaked */\n      0x0c\n        /* \"contracts/Staking.sol\":4269:4307  totalStaked = totalStaked.add(_amount) */\n      dup2\n      swap1\n      sstore\n      pop\n        /* \"contracts/Staking.sol\":4333:4360  Staked(msg.sender, _amount) */\n      0x9e71bc8eea02a63969f509818f2dafb9254532904319f9dbda79b67bd34a5f3d\n        /* \"contracts/Staking.sol\":4340:4350  msg.sender */\n      caller\n        /* \"contracts/Staking.sol\":4352:4359  _amount */\n      dup3\n        /* \"contracts/Staking.sol\":4333:4360  Staked(msg.sender, _amount) */\n      mload(0x40)\n      tag_329\n      swap3\n      swap2\n      swap1\n      tag_170\n      jump\t// in\n    tag_329:\n      mload(0x40)\n      dup1\n      swap2\n      sub\n      swap1\n      log1\n        /* \"contracts/Staking.sol\":3788:4368  function stake(uint256 _amount) public{... */\n      pop\n      jump\t// out\n        /* \"contracts/Staking.sol\":8343:8521  function setGoldMinAmount(uint256 _minAmount) external onlyOwner {... */\n    tag_102:\n        /* \"@openzeppelin/contracts/access/Ownable.sol\":1259:1271  _msgSender() */\n      tag_331\n        /* \"@openzeppelin/contracts/access/Ownable.sol\":1259:1269  _msgSender */\n      tag_131\n        /* \"@openzeppelin/contracts/access/Ownable.sol\":1259:1271  _msgSender() */\n      jump\t// in\n    tag_331:\n        /* \"@openzeppelin/contracts/access/Ownable.sol\":1248:1271  owner() == _msgSender() */\n      0xffffffffffffffffffffffffffffffffffffffff\n      and\n        /* \"@openzeppelin/contracts/access/Ownable.sol\":1248:1255  owner() */\n      tag_332\n        /* \"@openzeppelin/contracts/access/Ownable.sol\":1248:1253  owner */\n      tag_84\n        /* \"@openzeppelin/contracts/access/Ownable.sol\":1248:1255  owner() */\n      jump\t// in\n    tag_332:\n        /* \"@openzeppelin/contracts/access/Ownable.sol\":1248:1271  owner() == _msgSender() */\n      0xffffffffffffffffffffffffffffffffffffffff\n      and\n      eq\n        /* \"@openzeppelin/contracts/access/Ownable.sol\":1240:1308  require(owner() == _msgSender(), \"Ownable: caller is not the owner\") */\n      tag_333\n      jumpi\n      mload(0x40)\n      0x08c379a000000000000000000000000000000000000000000000000000000000\n      dup2\n      mstore\n      0x04\n      add\n      tag_334\n      swap1\n      tag_135\n      jump\t// in\n    tag_334:\n      mload(0x40)\n      dup1\n      swap2\n      sub\n      swap1\n      revert\n    tag_333:\n        /* \"contracts/Staking.sol\":8443:8444  0 */\n      0x00\n        /* \"contracts/Staking.sol\":8430:8440  _minAmount */\n      dup2\n        /* \"contracts/Staking.sol\":8430:8444  _minAmount > 0 */\n      gt\n        /* \"contracts/Staking.sol\":8421:8462  require (_minAmount > 0, \"Can't be zero\") */\n      tag_336\n      jumpi\n      mload(0x40)\n      0x08c379a000000000000000000000000000000000000000000000000000000000\n      dup2\n      mstore\n      0x04\n      add\n      tag_337\n      swap1\n      tag_139\n      jump\t// in\n    tag_337:\n      mload(0x40)\n      dup1\n      swap2\n      sub\n      swap1\n      revert\n    tag_336:\n        /* \"contracts/Staking.sol\":8503:8513  _minAmount */\n      dup1\n        /* \"contracts/Staking.sol\":8483:8500  _minStakeAmount_g */\n      0x07\n        /* \"contracts/Staking.sol\":8483:8513  _minStakeAmount_g = _minAmount */\n      dup2\n      swap1\n      sstore\n      pop\n        /* \"contracts/Staking.sol\":8343:8521  function setGoldMinAmount(uint256 _minAmount) external onlyOwner {... */\n      pop\n      jump\t// out\n        /* \"contracts/Staking.sol\":4590:4779  function getStakerMode(address _address) public view returns (uint256) {... */\n    tag_105:\n        /* \"contracts/Staking.sol\":4652:4659  uint256 */\n      0x00\n        /* \"contracts/Staking.sol\":4710:4712  55 */\n      0x37\n        /* \"contracts/Staking.sol\":4682:4706  isStartStaking(_address) */\n      tag_339\n        /* \"contracts/Staking.sol\":4697:4705  _address */\n      dup4\n        /* \"contracts/Staking.sol\":4682:4696  isStartStaking */\n      tag_126\n        /* \"contracts/Staking.sol\":4682:4706  isStartStaking(_address) */\n      jump\t// in\n    tag_339:\n        /* \"contracts/Staking.sol\":4682:4712  isStartStaking(_address) == 55 */\n      eq\n        /* \"contracts/Staking.sol\":4674:4731  require(isStartStaking(_address) == 55, \"Not staker yet\") */\n      tag_340\n      jumpi\n      mload(0x40)\n      0x08c379a000000000000000000000000000000000000000000000000000000000\n      dup2\n      mstore\n      0x04\n      add\n      tag_341\n      swap1\n      tag_342\n      jump\t// in\n    tag_341:\n      mload(0x40)\n      dup1\n      swap2\n      sub\n      swap1\n      revert\n    tag_340:\n        /* \"contracts/Staking.sol\":4749:4756  _staker */\n      0x0b\n        /* \"contracts/Staking.sol\":4749:4766  _staker[_address] */\n      0x00\n        /* \"contracts/Staking.sol\":4757:4765  _address */\n      dup4\n        /* \"contracts/Staking.sol\":4749:4766  _staker[_address] */\n      0xffffffffffffffffffffffffffffffffffffffff\n      and\n      0xffffffffffffffffffffffffffffffffffffffff\n      and\n      dup2\n      mstore\n      0x20\n      add\n      swap1\n      dup2\n      mstore\n      0x20\n      add\n      0x00\n      keccak256\n        /* \"contracts/Staking.sol\":4749:4771  _staker[_address].mode */\n      0x02\n      add\n      sload\n        /* \"contracts/Staking.sol\":4742:4771  return _staker[_address].mode */\n      swap1\n      pop\n        /* \"contracts/Staking.sol\":4590:4779  function getStakerMode(address _address) public view returns (uint256) {... */\n      swap2\n      swap1\n      pop\n      jump\t// out\n        /* \"contracts/Staking.sol\":7983:8155  function setCopperMinAmount(uint256 _minAmount) external onlyOwner {... */\n    tag_109:\n        /* \"@openzeppelin/contracts/access/Ownable.sol\":1259:1271  _msgSender() */\n      tag_344\n        /* \"@openzeppelin/contracts/access/Ownable.sol\":1259:1269  _msgSender */\n      tag_131\n        /* \"@openzeppelin/contracts/access/Ownable.sol\":1259:1271  _msgSender() */\n      jump\t// in\n    tag_344:\n        /* \"@openzeppelin/contracts/access/Ownable.sol\":1248:1271  owner() == _msgSender() */\n      0xffffffffffffffffffffffffffffffffffffffff\n      and\n        /* \"@openzeppelin/contracts/access/Ownable.sol\":1248:1255  owner() */\n      tag_345\n        /* \"@openzeppelin/contracts/access/Ownable.sol\":1248:1253  owner */\n      tag_84\n        /* \"@openzeppelin/contracts/access/Ownable.sol\":1248:1255  owner() */\n      jump\t// in\n    tag_345:\n        /* \"@openzeppelin/contracts/access/Ownable.sol\":1248:1271  owner() == _msgSender() */\n      0xffffffffffffffffffffffffffffffffffffffff\n      and\n      eq\n        /* \"@openzeppelin/contracts/access/Ownable.sol\":1240:1308  require(owner() == _msgSender(), \"Ownable: caller is not the owner\") */\n      tag_346\n      jumpi\n      mload(0x40)\n      0x08c379a000000000000000000000000000000000000000000000000000000000\n      dup2\n      mstore\n      0x04\n      add\n      tag_347\n      swap1\n      tag_135\n      jump\t// in\n    tag_347:\n      mload(0x40)\n      dup1\n      swap2\n      sub\n      swap1\n      revert\n    tag_346:\n        /* \"contracts/Staking.sol\":8085:8086  0 */\n      0x00\n        /* \"contracts/Staking.sol\":8072:8082  _minAmount */\n      dup2\n        /* \"contracts/Staking.sol\":8072:8086  _minAmount > 0 */\n      gt\n        /* \"contracts/Staking.sol\":8063:8104  require (_minAmount > 0, \"Can't be zero\") */\n      tag_349\n      jumpi\n      mload(0x40)\n      0x08c379a000000000000000000000000000000000000000000000000000000000\n      dup2\n      mstore\n      0x04\n      add\n      tag_350\n      swap1\n      tag_139\n      jump\t// in\n    tag_350:\n      mload(0x40)\n      dup1\n      swap2\n      sub\n      swap1\n      revert\n    tag_349:\n        /* \"contracts/Staking.sol\":8137:8147  _minAmount */\n      dup1\n        /* \"contracts/Staking.sol\":8117:8134  _minStakeAmount_c */\n      0x09\n        /* \"contracts/Staking.sol\":8117:8147  _minStakeAmount_c = _minAmount */\n      dup2\n      swap1\n      sstore\n      pop\n        /* \"contracts/Staking.sol\":7983:8155  function setCopperMinAmount(uint256 _minAmount) external onlyOwner {... */\n      pop\n      jump\t// out\n        /* \"contracts/Staking.sol\":7791:7975  function setThreeMonthMinAmount(uint256 _minAmount) external onlyOwner {... */\n    tag_112:\n        /* \"@openzeppelin/contracts/access/Ownable.sol\":1259:1271  _msgSender() */\n      tag_352\n        /* \"@openzeppelin/contracts/access/Ownable.sol\":1259:1269  _msgSender */\n      tag_131\n        /* \"@openzeppelin/contracts/access/Ownable.sol\":1259:1271  _msgSender() */\n      jump\t// in\n    tag_352:\n        /* \"@openzeppelin/contracts/access/Ownable.sol\":1248:1271  owner() == _msgSender() */\n      0xffffffffffffffffffffffffffffffffffffffff\n      and\n        /* \"@openzeppelin/contracts/access/Ownable.sol\":1248:1255  owner() */\n      tag_353\n        /* \"@openzeppelin/contracts/access/Ownable.sol\":1248:1253  owner */\n      tag_84\n        /* \"@openzeppelin/contracts/access/Ownable.sol\":1248:1255  owner() */\n      jump\t// in\n    tag_353:\n        /* \"@openzeppelin/contracts/access/Ownable.sol\":1248:1271  owner() == _msgSender() */\n      0xffffffffffffffffffffffffffffffffffffffff\n      and\n      eq\n        /* \"@openzeppelin/contracts/access/Ownable.sol\":1240:1308  require(owner() == _msgSender(), \"Ownable: caller is not the owner\") */\n      tag_354\n      jumpi\n      mload(0x40)\n      0x08c379a000000000000000000000000000000000000000000000000000000000\n      dup2\n      mstore\n      0x04\n      add\n      tag_355\n      swap1\n      tag_135\n      jump\t// in\n    tag_355:\n      mload(0x40)\n      dup1\n      swap2\n      sub\n      swap1\n      revert\n    tag_354:\n        /* \"contracts/Staking.sol\":7905:7906  0 */\n      0x00\n        /* \"contracts/Staking.sol\":7892:7902  _minAmount */\n      dup2\n        /* \"contracts/Staking.sol\":7892:7906  _minAmount > 0 */\n      gt\n        /* \"contracts/Staking.sol\":7883:7924  require (_minAmount > 0, \"Can't be zero\") */\n      tag_357\n      jumpi\n      mload(0x40)\n      0x08c379a000000000000000000000000000000000000000000000000000000000\n      dup2\n      mstore\n      0x04\n      add\n      tag_358\n      swap1\n      tag_139\n      jump\t// in\n    tag_358:\n      mload(0x40)\n      dup1\n      swap2\n      sub\n      swap1\n      revert\n    tag_357:\n        /* \"contracts/Staking.sol\":7957:7967  _minAmount */\n      dup1\n        /* \"contracts/Staking.sol\":7937:7954  _minStakeAmount_m */\n      0x06\n        /* \"contracts/Staking.sol\":7937:7967  _minStakeAmount_m = _minAmount */\n      dup2\n      swap1\n      sstore\n      pop\n        /* \"contracts/Staking.sol\":7791:7975  function setThreeMonthMinAmount(uint256 _minAmount) external onlyOwner {... */\n      pop\n      jump\t// out\n        /* \"@openzeppelin/contracts/access/Ownable.sol\":1918:2116  function transferOwnership(address newOwner) public virtual onlyOwner {... */\n    tag_115:\n        /* \"@openzeppelin/contracts/access/Ownable.sol\":1259:1271  _msgSender() */\n      tag_360\n        /* \"@openzeppelin/contracts/access/Ownable.sol\":1259:1269  _msgSender */\n      tag_131\n        /* \"@openzeppelin/contracts/access/Ownable.sol\":1259:1271  _msgSender() */\n      jump\t// in\n    tag_360:\n        /* \"@openzeppelin/contracts/access/Ownable.sol\":1248:1271  owner() == _msgSender() */\n      0xffffffffffffffffffffffffffffffffffffffff\n      and\n        /* \"@openzeppelin/contracts/access/Ownable.sol\":1248:1255  owner() */\n      tag_361\n        /* \"@openzeppelin/contracts/access/Ownable.sol\":1248:1253  owner */\n      tag_84\n        /* \"@openzeppelin/contracts/access/Ownable.sol\":1248:1255  owner() */\n      jump\t// in\n    tag_361:\n        /* \"@openzeppelin/contracts/access/Ownable.sol\":1248:1271  owner() == _msgSender() */\n      0xffffffffffffffffffffffffffffffffffffffff\n      and\n      eq\n        /* \"@openzeppelin/contracts/access/Ownable.sol\":1240:1308  require(owner() == _msgSender(), \"Ownable: caller is not the owner\") */\n      tag_362\n      jumpi\n      mload(0x40)\n      0x08c379a000000000000000000000000000000000000000000000000000000000\n      dup2\n      mstore\n      0x04\n      add\n      tag_363\n      swap1\n      tag_135\n      jump\t// in\n    tag_363:\n      mload(0x40)\n      dup1\n      swap2\n      sub\n      swap1\n      revert\n    tag_362:\n        /* \"@openzeppelin/contracts/access/Ownable.sol\":2026:2027  0 */\n      0x00\n        /* \"@openzeppelin/contracts/access/Ownable.sol\":2006:2028  newOwner != address(0) */\n      0xffffffffffffffffffffffffffffffffffffffff\n      and\n        /* \"@openzeppelin/contracts/access/Ownable.sol\":2006:2014  newOwner */\n      dup2\n        /* \"@openzeppelin/contracts/access/Ownable.sol\":2006:2028  newOwner != address(0) */\n      0xffffffffffffffffffffffffffffffffffffffff\n      and\n      eq\n      iszero\n        /* \"@openzeppelin/contracts/access/Ownable.sol\":1998:2071  require(newOwner != address(0), \"Ownable: new owner is the zero address\") */\n      tag_365\n      jumpi\n      mload(0x40)\n      0x08c379a000000000000000000000000000000000000000000000000000000000\n      dup2\n      mstore\n      0x04\n      add\n      tag_366\n      swap1\n      tag_367\n      jump\t// in\n    tag_366:\n      mload(0x40)\n      dup1\n      swap2\n      sub\n      swap1\n      revert\n    tag_365:\n        /* \"@openzeppelin/contracts/access/Ownable.sol\":2081:2109  _transferOwnership(newOwner) */\n      tag_368\n        /* \"@openzeppelin/contracts/access/Ownable.sol\":2100:2108  newOwner */\n      dup2\n        /* \"@openzeppelin/contracts/access/Ownable.sol\":2081:2099  _transferOwnership */\n      tag_278\n        /* \"@openzeppelin/contracts/access/Ownable.sol\":2081:2109  _transferOwnership(newOwner) */\n      jump\t// in\n    tag_368:\n        /* \"@openzeppelin/contracts/access/Ownable.sol\":1918:2116  function transferOwnership(address newOwner) public virtual onlyOwner {... */\n      pop\n      jump\t// out\n        /* \"contracts/Staking.sol\":5336:5472  function stakedAmount(address _address) public view returns (uint256) {... */\n    tag_118:\n        /* \"contracts/Staking.sol\":5397:5404  uint256 */\n      0x00\n        /* \"contracts/Staking.sol\":5434:5441  _staker */\n      0x0b\n        /* \"contracts/Staking.sol\":5434:5451  _staker[_address] */\n      0x00\n        /* \"contracts/Staking.sol\":5442:5450  _address */\n      dup4\n        /* \"contracts/Staking.sol\":5434:5451  _staker[_address] */\n      0xffffffffffffffffffffffffffffffffffffffff\n      and\n      0xffffffffffffffffffffffffffffffffffffffff\n      and\n      dup2\n      mstore\n      0x20\n      add\n      swap1\n      dup2\n      mstore\n      0x20\n      add\n      0x00\n      keccak256\n        /* \"contracts/Staking.sol\":5434:5464  _staker[_address].stakedAmount */\n      0x01\n      add\n      sload\n        /* \"contracts/Staking.sol\":5427:5464  return _staker[_address].stakedAmount */\n      swap1\n      pop\n        /* \"contracts/Staking.sol\":5336:5472  function stakedAmount(address _address) public view returns (uint256) {... */\n      swap2\n      swap1\n      pop\n      jump\t// out\n        /* \"contracts/Staking.sol\":1246:1265  IBEP20 public token */\n    tag_121:\n      0x0d\n      0x00\n      swap1\n      sload\n      swap1\n      0x0100\n      exp\n      swap1\n      div\n      0xffffffffffffffffffffffffffffffffffffffff\n      and\n      dup2\n      jump\t// out\n        /* \"contracts/Staking.sol\":4787:4911  function isStartStaking(address _address) public view returns (uint256) {... */\n    tag_126:\n        /* \"contracts/Staking.sol\":4850:4857  uint256 */\n      0x00\n        /* \"contracts/Staking.sol\":4879:4886  _staker */\n      0x0b\n        /* \"contracts/Staking.sol\":4879:4896  _staker[_address] */\n      0x00\n        /* \"contracts/Staking.sol\":4887:4895  _address */\n      dup4\n        /* \"contracts/Staking.sol\":4879:4896  _staker[_address] */\n      0xffffffffffffffffffffffffffffffffffffffff\n      and\n      0xffffffffffffffffffffffffffffffffffffffff\n      and\n      dup2\n      mstore\n      0x20\n      add\n      swap1\n      dup2\n      mstore\n      0x20\n      add\n      0x00\n      keccak256\n        /* \"contracts/Staking.sol\":4879:4903  _staker[_address].staked */\n      0x05\n      add\n      sload\n        /* \"contracts/Staking.sol\":4872:4903  return _staker[_address].staked */\n      swap1\n      pop\n        /* \"contracts/Staking.sol\":4787:4911  function isStartStaking(address _address) public view returns (uint256) {... */\n      swap2\n      swap1\n      pop\n      jump\t// out\n        /* \"@openzeppelin/contracts/utils/Context.sol\":640:736  function _msgSender() internal view virtual returns (address) {... */\n    tag_131:\n        /* \"@openzeppelin/contracts/utils/Context.sol\":693:700  address */\n      0x00\n        /* \"@openzeppelin/contracts/utils/Context.sol\":719:729  msg.sender */\n      caller\n        /* \"@openzeppelin/contracts/utils/Context.sol\":712:729  return msg.sender */\n      swap1\n      pop\n        /* \"@openzeppelin/contracts/utils/Context.sol\":640:736  function _msgSender() internal view virtual returns (address) {... */\n      swap1\n      jump\t// out\n        /* \"contracts/Staking.sol\":2354:2811  function updateReward() private{... */\n    tag_148:\n        /* \"contracts/Staking.sol\":2406:2432  uint256 stakerStakedAmount */\n      0x00\n        /* \"contracts/Staking.sol\":2435:2442  _staker */\n      0x0b\n        /* \"contracts/Staking.sol\":2435:2454  _staker[msg.sender] */\n      0x00\n        /* \"contracts/Staking.sol\":2443:2453  msg.sender */\n      caller\n        /* \"contracts/Staking.sol\":2435:2454  _staker[msg.sender] */\n      0xffffffffffffffffffffffffffffffffffffffff\n      and\n      0xffffffffffffffffffffffffffffffffffffffff\n      and\n      dup2\n      mstore\n      0x20\n      add\n      swap1\n      dup2\n      mstore\n      0x20\n      add\n      0x00\n      keccak256\n        /* \"contracts/Staking.sol\":2435:2467  _staker[msg.sender].stakedAmount */\n      0x01\n      add\n      sload\n        /* \"contracts/Staking.sol\":2406:2467  uint256 stakerStakedAmount = _staker[msg.sender].stakedAmount */\n      swap1\n      pop\n        /* \"contracts/Staking.sol\":2488:2505  uint256 newReward */\n      0x00\n        /* \"contracts/Staking.sol\":2508:2628  stakerStakedAmount.mul(block.number.sub(_staker[msg.sender].lastUpdatedBlockNumber).div(8640)).mul(_rewardRate).div(1e4) */\n      tag_373\n        /* \"contracts/Staking.sol\":2624:2627  1e4 */\n      0x2710\n        /* \"contracts/Staking.sol\":2508:2619  stakerStakedAmount.mul(block.number.sub(_staker[msg.sender].lastUpdatedBlockNumber).div(8640)).mul(_rewardRate) */\n      tag_374\n        /* \"contracts/Staking.sol\":2607:2618  _rewardRate */\n      sload(0x03)\n        /* \"contracts/Staking.sol\":2508:2602  stakerStakedAmount.mul(block.number.sub(_staker[msg.sender].lastUpdatedBlockNumber).div(8640)) */\n      tag_375\n        /* \"contracts/Staking.sol\":2531:2601  block.number.sub(_staker[msg.sender].lastUpdatedBlockNumber).div(8640) */\n      tag_376\n        /* \"contracts/Staking.sol\":2596:2600  8640 */\n      0x21c0\n        /* \"contracts/Staking.sol\":2531:2591  block.number.sub(_staker[msg.sender].lastUpdatedBlockNumber) */\n      tag_377\n        /* \"contracts/Staking.sol\":2548:2555  _staker */\n      0x0b\n        /* \"contracts/Staking.sol\":2548:2567  _staker[msg.sender] */\n      0x00\n        /* \"contracts/Staking.sol\":2556:2566  msg.sender */\n      caller\n        /* \"contracts/Staking.sol\":2548:2567  _staker[msg.sender] */\n      0xffffffffffffffffffffffffffffffffffffffff\n      and\n      0xffffffffffffffffffffffffffffffffffffffff\n      and\n      dup2\n      mstore\n      0x20\n      add\n      swap1\n      dup2\n      mstore\n      0x20\n      add\n      0x00\n      keccak256\n        /* \"contracts/Staking.sol\":2548:2590  _staker[msg.sender].lastUpdatedBlockNumber */\n      0x04\n      add\n      sload\n        /* \"contracts/Staking.sol\":2531:2543  block.number */\n      number\n        /* \"contracts/Staking.sol\":2531:2547  block.number.sub */\n      tag_151\n      swap1\n        /* \"contracts/Staking.sol\":2531:2591  block.number.sub(_staker[msg.sender].lastUpdatedBlockNumber) */\n      swap2\n      swap1\n      0xffffffff\n      and\n      jump\t// in\n    tag_377:\n        /* \"contracts/Staking.sol\":2531:2595  block.number.sub(_staker[msg.sender].lastUpdatedBlockNumber).div */\n      tag_152\n      swap1\n        /* \"contracts/Staking.sol\":2531:2601  block.number.sub(_staker[msg.sender].lastUpdatedBlockNumber).div(8640) */\n      swap2\n      swap1\n      0xffffffff\n      and\n      jump\t// in\n    tag_376:\n        /* \"contracts/Staking.sol\":2508:2526  stakerStakedAmount */\n      dup8\n        /* \"contracts/Staking.sol\":2508:2530  stakerStakedAmount.mul */\n      tag_166\n      swap1\n        /* \"contracts/Staking.sol\":2508:2602  stakerStakedAmount.mul(block.number.sub(_staker[msg.sender].lastUpdatedBlockNumber).div(8640)) */\n      swap2\n      swap1\n      0xffffffff\n      and\n      jump\t// in\n    tag_375:\n        /* \"contracts/Staking.sol\":2508:2606  stakerStakedAmount.mul(block.number.sub(_staker[msg.sender].lastUpdatedBlockNumber).div(8640)).mul */\n      tag_166\n      swap1\n        /* \"contracts/Staking.sol\":2508:2619  stakerStakedAmount.mul(block.number.sub(_staker[msg.sender].lastUpdatedBlockNumber).div(8640)).mul(_rewardRate) */\n      swap2\n      swap1\n      0xffffffff\n      and\n      jump\t// in\n    tag_374:\n        /* \"contracts/Staking.sol\":2508:2623  stakerStakedAmount.mul(block.number.sub(_staker[msg.sender].lastUpdatedBlockNumber).div(8640)).mul(_rewardRate).div */\n      tag_152\n      swap1\n        /* \"contracts/Staking.sol\":2508:2628  stakerStakedAmount.mul(block.number.sub(_staker[msg.sender].lastUpdatedBlockNumber).div(8640)).mul(_rewardRate).div(1e4) */\n      swap2\n      swap1\n      0xffffffff\n      and\n      jump\t// in\n    tag_373:\n        /* \"contracts/Staking.sol\":2488:2628  uint256 newReward = stakerStakedAmount.mul(block.number.sub(_staker[msg.sender].lastUpdatedBlockNumber).div(8640)).mul(_rewardRate).div(1e4) */\n      swap1\n      pop\n        /* \"contracts/Staking.sol\":2681:2735  _staker[msg.sender].stakerCurrentReward.add(newReward) */\n      tag_378\n        /* \"contracts/Staking.sol\":2725:2734  newReward */\n      dup2\n        /* \"contracts/Staking.sol\":2681:2688  _staker */\n      0x0b\n        /* \"contracts/Staking.sol\":2681:2700  _staker[msg.sender] */\n      0x00\n        /* \"contracts/Staking.sol\":2689:2699  msg.sender */\n      caller\n        /* \"contracts/Staking.sol\":2681:2700  _staker[msg.sender] */\n      0xffffffffffffffffffffffffffffffffffffffff\n      and\n      0xffffffffffffffffffffffffffffffffffffffff\n      and\n      dup2\n      mstore\n      0x20\n      add\n      swap1\n      dup2\n      mstore\n      0x20\n      add\n      0x00\n      keccak256\n        /* \"contracts/Staking.sol\":2681:2720  _staker[msg.sender].stakerCurrentReward */\n      0x00\n      add\n      sload\n        /* \"contracts/Staking.sol\":2681:2724  _staker[msg.sender].stakerCurrentReward.add */\n      tag_155\n      swap1\n        /* \"contracts/Staking.sol\":2681:2735  _staker[msg.sender].stakerCurrentReward.add(newReward) */\n      swap2\n      swap1\n      0xffffffff\n      and\n      jump\t// in\n    tag_378:\n        /* \"contracts/Staking.sol\":2639:2646  _staker */\n      0x0b\n        /* \"contracts/Staking.sol\":2639:2658  _staker[msg.sender] */\n      0x00\n        /* \"contracts/Staking.sol\":2647:2657  msg.sender */\n      caller\n        /* \"contracts/Staking.sol\":2639:2658  _staker[msg.sender] */\n      0xffffffffffffffffffffffffffffffffffffffff\n      and\n      0xffffffffffffffffffffffffffffffffffffffff\n      and\n      dup2\n      mstore\n      0x20\n      add\n      swap1\n      dup2\n      mstore\n      0x20\n      add\n      0x00\n      keccak256\n        /* \"contracts/Staking.sol\":2639:2678  _staker[msg.sender].stakerCurrentReward */\n      0x00\n      add\n        /* \"contracts/Staking.sol\":2639:2735  _staker[msg.sender].stakerCurrentReward = _staker[msg.sender].stakerCurrentReward.add(newReward) */\n      dup2\n      swap1\n      sstore\n      pop\n        /* \"contracts/Staking.sol\":2791:2803  block.number */\n      number\n        /* \"contracts/Staking.sol\":2746:2753  _staker */\n      0x0b\n        /* \"contracts/Staking.sol\":2746:2765  _staker[msg.sender] */\n      0x00\n        /* \"contracts/Staking.sol\":2754:2764  msg.sender */\n      caller\n        /* \"contracts/Staking.sol\":2746:2765  _staker[msg.sender] */\n      0xffffffffffffffffffffffffffffffffffffffff\n      and\n      0xffffffffffffffffffffffffffffffffffffffff\n      and\n      dup2\n      mstore\n      0x20\n      add\n      swap1\n      dup2\n      mstore\n      0x20\n      add\n      0x00\n      keccak256\n        /* \"contracts/Staking.sol\":2746:2788  _staker[msg.sender].lastUpdatedBlockNumber */\n      0x04\n      add\n        /* \"contracts/Staking.sol\":2746:2803  _staker[msg.sender].lastUpdatedBlockNumber = block.number */\n      dup2\n      swap1\n      sstore\n      pop\n        /* \"contracts/Staking.sol\":2385:2811  {... */\n      pop\n      pop\n        /* \"contracts/Staking.sol\":2354:2811  function updateReward() private{... */\n      jump\t// out\n        /* \"@openzeppelin/contracts/utils/math/SafeMath.sol\":3108:3204  function sub(uint256 a, uint256 b) internal pure returns (uint256) {... */\n    tag_151:\n        /* \"@openzeppelin/contracts/utils/math/SafeMath.sol\":3166:3173  uint256 */\n      0x00\n        /* \"@openzeppelin/contracts/utils/math/SafeMath.sol\":3196:3197  b */\n      dup2\n        /* \"@openzeppelin/contracts/utils/math/SafeMath.sol\":3192:3193  a */\n      dup4\n        /* \"@openzeppelin/contracts/utils/math/SafeMath.sol\":3192:3197  a - b */\n      tag_380\n      swap2\n      swap1\n      tag_381\n      jump\t// in\n    tag_380:\n        /* \"@openzeppelin/contracts/utils/math/SafeMath.sol\":3185:3197  return a - b */\n      swap1\n      pop\n        /* \"@openzeppelin/contracts/utils/math/SafeMath.sol\":3108:3204  function sub(uint256 a, uint256 b) internal pure returns (uint256) {... */\n      swap3\n      swap2\n      pop\n      pop\n      jump\t// out\n        /* \"@openzeppelin/contracts/utils/math/SafeMath.sol\":3836:3932  function div(uint256 a, uint256 b) internal pure returns (uint256) {... */\n    tag_152:\n        /* \"@openzeppelin/contracts/utils/math/SafeMath.sol\":3894:3901  uint256 */\n      0x00\n        /* \"@openzeppelin/contracts/utils/math/SafeMath.sol\":3924:3925  b */\n      dup2\n        /* \"@openzeppelin/contracts/utils/math/SafeMath.sol\":3920:3921  a */\n      dup4\n        /* \"@openzeppelin/contracts/utils/math/SafeMath.sol\":3920:3925  a / b */\n      tag_383\n      swap2\n      swap1\n      tag_384\n      jump\t// in\n    tag_383:\n        /* \"@openzeppelin/contracts/utils/math/SafeMath.sol\":3913:3925  return a / b */\n      swap1\n      pop\n        /* \"@openzeppelin/contracts/utils/math/SafeMath.sol\":3836:3932  function div(uint256 a, uint256 b) internal pure returns (uint256) {... */\n      swap3\n      swap2\n      pop\n      pop\n      jump\t// out\n        /* \"@openzeppelin/contracts/utils/math/SafeMath.sol\":2741:2837  function add(uint256 a, uint256 b) internal pure returns (uint256) {... */\n    tag_155:\n        /* \"@openzeppelin/contracts/utils/math/SafeMath.sol\":2799:2806  uint256 */\n      0x00\n        /* \"@openzeppelin/contracts/utils/math/SafeMath.sol\":2829:2830  b */\n      dup2\n        /* \"@openzeppelin/contracts/utils/math/SafeMath.sol\":2825:2826  a */\n      dup4\n        /* \"@openzeppelin/contracts/utils/math/SafeMath.sol\":2825:2830  a + b */\n      tag_386\n      swap2\n      swap1\n      tag_270\n      jump\t// in\n    tag_386:\n        /* \"@openzeppelin/contracts/utils/math/SafeMath.sol\":2818:2830  return a + b */\n      swap1\n      pop\n        /* \"@openzeppelin/contracts/utils/math/SafeMath.sol\":2741:2837  function add(uint256 a, uint256 b) internal pure returns (uint256) {... */\n      swap3\n      swap2\n      pop\n      pop\n      jump\t// out\n        /* \"@openzeppelin/contracts/utils/math/SafeMath.sol\":3451:3547  function mul(uint256 a, uint256 b) internal pure returns (uint256) {... */\n    tag_166:\n        /* \"@openzeppelin/contracts/utils/math/SafeMath.sol\":3509:3516  uint256 */\n      0x00\n        /* \"@openzeppelin/contracts/utils/math/SafeMath.sol\":3539:3540  b */\n      dup2\n        /* \"@openzeppelin/contracts/utils/math/SafeMath.sol\":3535:3536  a */\n      dup4\n        /* \"@openzeppelin/contracts/utils/math/SafeMath.sol\":3535:3540  a * b */\n      tag_388\n      swap2\n      swap1\n      tag_389\n      jump\t// in\n    tag_388:\n        /* \"@openzeppelin/contracts/utils/math/SafeMath.sol\":3528:3540  return a * b */\n      swap1\n      pop\n        /* \"@openzeppelin/contracts/utils/math/SafeMath.sol\":3451:3547  function mul(uint256 a, uint256 b) internal pure returns (uint256) {... */\n      swap3\n      swap2\n      pop\n      pop\n      jump\t// out\n        /* \"contracts/SafeBEP20.sol\":290:467  function safeTransfer(IBEP20 token, address to, uint256 value) internal {... */\n    tag_168:\n        /* \"contracts/SafeBEP20.sol\":373:459  _callOptionalReturn(token, abi.encodeWithSelector(token.transfer.selector, to, value)) */\n      tag_391\n        /* \"contracts/SafeBEP20.sol\":393:398  token */\n      dup4\n        /* \"contracts/SafeBEP20.sol\":423:446  token.transfer.selector */\n      shl(0xe0, 0xa9059cbb)\n        /* \"contracts/SafeBEP20.sol\":448:450  to */\n      dup5\n        /* \"contracts/SafeBEP20.sol\":452:457  value */\n      dup5\n        /* \"contracts/SafeBEP20.sol\":400:458  abi.encodeWithSelector(token.transfer.selector, to, value) */\n      add(0x24, mload(0x40))\n      tag_392\n      swap3\n      swap2\n      swap1\n      tag_170\n      jump\t// in\n    tag_392:\n      mload(0x40)\n      0x20\n      dup2\n      dup4\n      sub\n      sub\n      dup2\n      mstore\n      swap1\n      0x40\n      mstore\n      swap1\n      not(0xffffffffffffffffffffffffffffffffffffffffffffffffffffffff)\n      and\n      0x20\n      dup3\n      add\n      dup1\n      mload\n      0xffffffffffffffffffffffffffffffffffffffffffffffffffffffff\n      dup4\n      dup2\n      dup4\n      and\n      or\n      dup4\n      mstore\n      pop\n      pop\n      pop\n      pop\n        /* \"contracts/SafeBEP20.sol\":373:392  _callOptionalReturn */\n      tag_393\n        /* \"contracts/SafeBEP20.sol\":373:459  _callOptionalReturn(token, abi.encodeWithSelector(token.transfer.selector, to, value)) */\n      jump\t// in\n    tag_391:\n        /* \"contracts/SafeBEP20.sol\":290:467  function safeTransfer(IBEP20 token, address to, uint256 value) internal {... */\n      pop\n      pop\n      pop\n      jump\t// out\n        /* \"@openzeppelin/contracts/access/Ownable.sol\":2270:2457  function _transferOwnership(address newOwner) internal virtual {... */\n    tag_278:\n        /* \"@openzeppelin/contracts/access/Ownable.sol\":2343:2359  address oldOwner */\n      0x00\n        /* \"@openzeppelin/contracts/access/Ownable.sol\":2362:2368  _owner */\n      dup1\n      0x00\n      swap1\n      sload\n      swap1\n      0x0100\n      exp\n      swap1\n      div\n      0xffffffffffffffffffffffffffffffffffffffff\n      and\n        /* \"@openzeppelin/contracts/access/Ownable.sol\":2343:2368  address oldOwner = _owner */\n      swap1\n      pop\n        /* \"@openzeppelin/contracts/access/Ownable.sol\":2387:2395  newOwner */\n      dup2\n        /* \"@openzeppelin/contracts/access/Ownable.sol\":2378:2384  _owner */\n      0x00\n      dup1\n        /* \"@openzeppelin/contracts/access/Ownable.sol\":2378:2395  _owner = newOwner */\n      0x0100\n      exp\n      dup2\n      sload\n      dup2\n      0xffffffffffffffffffffffffffffffffffffffff\n      mul\n      not\n      and\n      swap1\n      dup4\n      0xffffffffffffffffffffffffffffffffffffffff\n      and\n      mul\n      or\n      swap1\n      sstore\n      pop\n        /* \"@openzeppelin/contracts/access/Ownable.sol\":2441:2449  newOwner */\n      dup2\n        /* \"@openzeppelin/contracts/access/Ownable.sol\":2410:2450  OwnershipTransferred(oldOwner, newOwner) */\n      0xffffffffffffffffffffffffffffffffffffffff\n      and\n        /* \"@openzeppelin/contracts/access/Ownable.sol\":2431:2439  oldOwner */\n      dup2\n        /* \"@openzeppelin/contracts/access/Ownable.sol\":2410:2450  OwnershipTransferred(oldOwner, newOwner) */\n      0xffffffffffffffffffffffffffffffffffffffff\n      and\n      0x8be0079c531659141344cd1fd0a4f28419497f9722a3daafe3b4186f6b6457e0\n      mload(0x40)\n      mload(0x40)\n      dup1\n      swap2\n      sub\n      swap1\n      log3\n        /* \"@openzeppelin/contracts/access/Ownable.sol\":2333:2457  {... */\n      pop\n        /* \"@openzeppelin/contracts/access/Ownable.sol\":2270:2457  function _transferOwnership(address newOwner) internal virtual {... */\n      pop\n      jump\t// out\n        /* \"contracts/SafeBEP20.sol\":475:680  function safeTransferFrom(IBEP20 token, address from, address to, uint256 value) internal {... */\n    tag_326:\n        /* \"contracts/SafeBEP20.sol\":576:672  _callOptionalReturn(token, abi.encodeWithSelector(token.transferFrom.selector, from, to, value)) */\n      tag_396\n        /* \"contracts/SafeBEP20.sol\":596:601  token */\n      dup5\n        /* \"contracts/SafeBEP20.sol\":626:653  token.transferFrom.selector */\n      shl(0xe0, 0x23b872dd)\n        /* \"contracts/SafeBEP20.sol\":655:659  from */\n      dup6\n        /* \"contracts/SafeBEP20.sol\":661:663  to */\n      dup6\n        /* \"contracts/SafeBEP20.sol\":665:670  value */\n      dup6\n        /* \"contracts/SafeBEP20.sol\":603:671  abi.encodeWithSelector(token.transferFrom.selector, from, to, value) */\n      add(0x24, mload(0x40))\n      tag_397\n      swap4\n      swap3\n      swap2\n      swap1\n      tag_398\n      jump\t// in\n    tag_397:\n      mload(0x40)\n      0x20\n      dup2\n      dup4\n      sub\n      sub\n      dup2\n      mstore\n      swap1\n      0x40\n      mstore\n      swap1\n      not(0xffffffffffffffffffffffffffffffffffffffffffffffffffffffff)\n      and\n      0x20\n      dup3\n      add\n      dup1\n      mload\n      0xffffffffffffffffffffffffffffffffffffffffffffffffffffffff\n      dup4\n      dup2\n      dup4\n      and\n      or\n      dup4\n      mstore\n      pop\n      pop\n      pop\n      pop\n        /* \"contracts/SafeBEP20.sol\":576:595  _callOptionalReturn */\n      tag_393\n        /* \"contracts/SafeBEP20.sol\":576:672  _callOptionalReturn(token, abi.encodeWithSelector(token.transferFrom.selector, from, to, value)) */\n      jump\t// in\n    tag_396:\n        /* \"contracts/SafeBEP20.sol\":475:680  function safeTransferFrom(IBEP20 token, address from, address to, uint256 value) internal {... */\n      pop\n      pop\n      pop\n      pop\n      jump\t// out\n        /* \"contracts/SafeBEP20.sol\":2599:3368  function _callOptionalReturn(IBEP20 token, bytes memory data) private {... */\n    tag_393:\n        /* \"contracts/SafeBEP20.sol\":3031:3054  bytes memory returndata */\n      0x00\n        /* \"contracts/SafeBEP20.sol\":3057:3126  address(token).functionCall(data, \"SafeBEP20: low-level call failed\") */\n      tag_400\n        /* \"contracts/SafeBEP20.sol\":3085:3089  data */\n      dup3\n        /* \"contracts/SafeBEP20.sol\":3057:3126  address(token).functionCall(data, \"SafeBEP20: low-level call failed\") */\n      mload(0x40)\n      dup1\n      0x40\n      add\n      0x40\n      mstore\n      dup1\n      0x20\n      dup2\n      mstore\n      0x20\n      add\n      0x5361666542455032303a206c6f772d6c6576656c2063616c6c206661696c6564\n      dup2\n      mstore\n      pop\n        /* \"contracts/SafeBEP20.sol\":3065:3070  token */\n      dup6\n        /* \"contracts/SafeBEP20.sol\":3057:3084  address(token).functionCall */\n      0xffffffffffffffffffffffffffffffffffffffff\n      and\n      tag_401\n      swap1\n        /* \"contracts/SafeBEP20.sol\":3057:3126  address(token).functionCall(data, \"SafeBEP20: low-level call failed\") */\n      swap3\n      swap2\n      swap1\n      0xffffffff\n      and\n      jump\t// in\n    tag_400:\n        /* \"contracts/SafeBEP20.sol\":3031:3126  bytes memory returndata = address(token).functionCall(data, \"SafeBEP20: low-level call failed\") */\n      swap1\n      pop\n        /* \"contracts/SafeBEP20.sol\":3161:3162  0 */\n      0x00\n        /* \"contracts/SafeBEP20.sol\":3141:3151  returndata */\n      dup2\n        /* \"contracts/SafeBEP20.sol\":3141:3158  returndata.length */\n      mload\n        /* \"contracts/SafeBEP20.sol\":3141:3162  returndata.length > 0 */\n      gt\n        /* \"contracts/SafeBEP20.sol\":3137:3361  if (returndata.length > 0) { // Return data is optional... */\n      iszero\n      tag_402\n      jumpi\n        /* \"contracts/SafeBEP20.sol\":3283:3293  returndata */\n      dup1\n        /* \"contracts/SafeBEP20.sol\":3272:3302  abi.decode(returndata, (bool)) */\n      dup1\n      0x20\n      add\n      swap1\n      mload\n      dup2\n      add\n      swap1\n      tag_403\n      swap2\n      swap1\n      tag_404\n      jump\t// in\n    tag_403:\n        /* \"contracts/SafeBEP20.sol\":3264:3349  require(abi.decode(returndata, (bool)), \"SafeBEP20: BEP20 operation did not succeed\") */\n      tag_405\n      jumpi\n      mload(0x40)\n      0x08c379a000000000000000000000000000000000000000000000000000000000\n      dup2\n      mstore\n      0x04\n      add\n      tag_406\n      swap1\n      tag_407\n      jump\t// in\n    tag_406:\n      mload(0x40)\n      dup1\n      swap2\n      sub\n      swap1\n      revert\n    tag_405:\n        /* \"contracts/SafeBEP20.sol\":3137:3361  if (returndata.length > 0) { // Return data is optional... */\n    tag_402:\n        /* \"contracts/SafeBEP20.sol\":2669:3368  {... */\n      pop\n        /* \"contracts/SafeBEP20.sol\":2599:3368  function _callOptionalReturn(IBEP20 token, bytes memory data) private {... */\n      pop\n      pop\n      jump\t// out\n        /* \"@openzeppelin/contracts/utils/Address.sol\":3861:4084  function functionCall(... */\n    tag_401:\n        /* \"@openzeppelin/contracts/utils/Address.sol\":3994:4006  bytes memory */\n      0x60\n        /* \"@openzeppelin/contracts/utils/Address.sol\":4025:4077  functionCallWithValue(target, data, 0, errorMessage) */\n      tag_409\n        /* \"@openzeppelin/contracts/utils/Address.sol\":4047:4053  target */\n      dup5\n        /* \"@openzeppelin/contracts/utils/Address.sol\":4055:4059  data */\n      dup5\n        /* \"@openzeppelin/contracts/utils/Address.sol\":4061:4062  0 */\n      0x00\n        /* \"@openzeppelin/contracts/utils/Address.sol\":4064:4076  errorMessage */\n      dup6\n        /* \"@openzeppelin/contracts/utils/Address.sol\":4025:4046  functionCallWithValue */\n      tag_410\n        /* \"@openzeppelin/contracts/utils/Address.sol\":4025:4077  functionCallWithValue(target, data, 0, errorMessage) */\n      jump\t// in\n    tag_409:\n        /* \"@openzeppelin/contracts/utils/Address.sol\":4018:4077  return functionCallWithValue(target, data, 0, errorMessage) */\n      swap1\n      pop\n        /* \"@openzeppelin/contracts/utils/Address.sol\":3861:4084  function functionCall(... */\n      swap4\n      swap3\n      pop\n      pop\n      pop\n      jump\t// out\n        /* \"@openzeppelin/contracts/utils/Address.sol\":4948:5447  function functionCallWithValue(... */\n    tag_410:\n        /* \"@openzeppelin/contracts/utils/Address.sol\":5113:5125  bytes memory */\n      0x60\n        /* \"@openzeppelin/contracts/utils/Address.sol\":5170:5175  value */\n      dup3\n        /* \"@openzeppelin/contracts/utils/Address.sol\":5145:5166  address(this).balance */\n      selfbalance\n        /* \"@openzeppelin/contracts/utils/Address.sol\":5145:5175  address(this).balance >= value */\n      lt\n      iszero\n        /* \"@openzeppelin/contracts/utils/Address.sol\":5137:5218  require(address(this).balance >= value, \"Address: insufficient balance for call\") */\n      tag_412\n      jumpi\n      mload(0x40)\n      0x08c379a000000000000000000000000000000000000000000000000000000000\n      dup2\n      mstore\n      0x04\n      add\n      tag_413\n      swap1\n      tag_414\n      jump\t// in\n    tag_413:\n      mload(0x40)\n      dup1\n      swap2\n      sub\n      swap1\n      revert\n    tag_412:\n        /* \"@openzeppelin/contracts/utils/Address.sol\":5236:5254  isContract(target) */\n      tag_415\n        /* \"@openzeppelin/contracts/utils/Address.sol\":5247:5253  target */\n      dup6\n        /* \"@openzeppelin/contracts/utils/Address.sol\":5236:5246  isContract */\n      tag_416\n        /* \"@openzeppelin/contracts/utils/Address.sol\":5236:5254  isContract(target) */\n      jump\t// in\n    tag_415:\n        /* \"@openzeppelin/contracts/utils/Address.sol\":5228:5288  require(isContract(target), \"Address: call to non-contract\") */\n      tag_417\n      jumpi\n      mload(0x40)\n      0x08c379a000000000000000000000000000000000000000000000000000000000\n      dup2\n      mstore\n      0x04\n      add\n      tag_418\n      swap1\n      tag_419\n      jump\t// in\n    tag_418:\n      mload(0x40)\n      dup1\n      swap2\n      sub\n      swap1\n      revert\n    tag_417:\n        /* \"@openzeppelin/contracts/utils/Address.sol\":5300:5312  bool success */\n      0x00\n        /* \"@openzeppelin/contracts/utils/Address.sol\":5314:5337  bytes memory returndata */\n      dup1\n        /* \"@openzeppelin/contracts/utils/Address.sol\":5341:5347  target */\n      dup7\n        /* \"@openzeppelin/contracts/utils/Address.sol\":5341:5352  target.call */\n      0xffffffffffffffffffffffffffffffffffffffff\n      and\n        /* \"@openzeppelin/contracts/utils/Address.sol\":5360:5365  value */\n      dup6\n        /* \"@openzeppelin/contracts/utils/Address.sol\":5367:5371  data */\n      dup8\n        /* \"@openzeppelin/contracts/utils/Address.sol\":5341:5372  target.call{value: value}(data) */\n      mload(0x40)\n      tag_420\n      swap2\n      swap1\n      tag_421\n      jump\t// in\n    tag_420:\n      0x00\n      mload(0x40)\n      dup1\n      dup4\n      sub\n      dup2\n      dup6\n      dup8\n      gas\n      call\n      swap3\n      pop\n      pop\n      pop\n      returndatasize\n      dup1\n      0x00\n      dup2\n      eq\n      tag_424\n      jumpi\n      mload(0x40)\n      swap2\n      pop\n      and(add(returndatasize, 0x3f), not(0x1f))\n      dup3\n      add\n      0x40\n      mstore\n      returndatasize\n      dup3\n      mstore\n      returndatasize\n      0x00\n      0x20\n      dup5\n      add\n      returndatacopy\n      jump(tag_423)\n    tag_424:\n      0x60\n      swap2\n      pop\n    tag_423:\n      pop\n        /* \"@openzeppelin/contracts/utils/Address.sol\":5299:5372  (bool success, bytes memory returndata) = target.call{value: value}(data) */\n      swap2\n      pop\n      swap2\n      pop\n        /* \"@openzeppelin/contracts/utils/Address.sol\":5389:5440  verifyCallResult(success, returndata, errorMessage) */\n      tag_425\n        /* \"@openzeppelin/contracts/utils/Address.sol\":5406:5413  success */\n      dup3\n        /* \"@openzeppelin/contracts/utils/Address.sol\":5415:5425  returndata */\n      dup3\n        /* \"@openzeppelin/contracts/utils/Address.sol\":5427:5439  errorMessage */\n      dup7\n        /* \"@openzeppelin/contracts/utils/Address.sol\":5389:5405  verifyCallResult */\n      tag_426\n        /* \"@openzeppelin/contracts/utils/Address.sol\":5389:5440  verifyCallResult(success, returndata, errorMessage) */\n      jump\t// in\n    tag_425:\n        /* \"@openzeppelin/contracts/utils/Address.sol\":5382:5440  return verifyCallResult(success, returndata, errorMessage) */\n      swap3\n      pop\n      pop\n      pop\n        /* \"@openzeppelin/contracts/utils/Address.sol\":4948:5447  function functionCallWithValue(... */\n      swap5\n      swap4\n      pop\n      pop\n      pop\n      pop\n      jump\t// out\n        /* \"@openzeppelin/contracts/utils/Address.sol\":1175:1495  function isContract(address account) internal view returns (bool) {... */\n    tag_416:\n        /* \"@openzeppelin/contracts/utils/Address.sol\":1235:1239  bool */\n      0x00\n        /* \"@openzeppelin/contracts/utils/Address.sol\":1487:1488  0 */\n      dup1\n        /* \"@openzeppelin/contracts/utils/Address.sol\":1465:1472  account */\n      dup3\n        /* \"@openzeppelin/contracts/utils/Address.sol\":1465:1484  account.code.length */\n      0xffffffffffffffffffffffffffffffffffffffff\n      and\n      extcodesize\n        /* \"@openzeppelin/contracts/utils/Address.sol\":1465:1488  account.code.length > 0 */\n      gt\n        /* \"@openzeppelin/contracts/utils/Address.sol\":1458:1488  return account.code.length > 0 */\n      swap1\n      pop\n        /* \"@openzeppelin/contracts/utils/Address.sol\":1175:1495  function isContract(address account) internal view returns (bool) {... */\n      swap2\n      swap1\n      pop\n      jump\t// out\n        /* \"@openzeppelin/contracts/utils/Address.sol\":7561:8253  function verifyCallResult(... */\n    tag_426:\n        /* \"@openzeppelin/contracts/utils/Address.sol\":7707:7719  bytes memory */\n      0x60\n        /* \"@openzeppelin/contracts/utils/Address.sol\":7735:7742  success */\n      dup4\n        /* \"@openzeppelin/contracts/utils/Address.sol\":7731:8247  if (success) {... */\n      iszero\n      tag_429\n      jumpi\n        /* \"@openzeppelin/contracts/utils/Address.sol\":7765:7775  returndata */\n      dup3\n        /* \"@openzeppelin/contracts/utils/Address.sol\":7758:7775  return returndata */\n      swap1\n      pop\n      jump(tag_428)\n        /* \"@openzeppelin/contracts/utils/Address.sol\":7731:8247  if (success) {... */\n    tag_429:\n        /* \"@openzeppelin/contracts/utils/Address.sol\":7896:7897  0 */\n      0x00\n        /* \"@openzeppelin/contracts/utils/Address.sol\":7876:7886  returndata */\n      dup4\n        /* \"@openzeppelin/contracts/utils/Address.sol\":7876:7893  returndata.length */\n      mload\n        /* \"@openzeppelin/contracts/utils/Address.sol\":7876:7897  returndata.length > 0 */\n      gt\n        /* \"@openzeppelin/contracts/utils/Address.sol\":7872:8237  if (returndata.length > 0) {... */\n      iszero\n      tag_431\n      jumpi\n        /* \"@openzeppelin/contracts/utils/Address.sol\":8070:8080  returndata */\n      dup3\n        /* \"@openzeppelin/contracts/utils/Address.sol\":8064:8081  mload(returndata) */\n      mload\n        /* \"@openzeppelin/contracts/utils/Address.sol\":8130:8145  returndata_size */\n      dup1\n        /* \"@openzeppelin/contracts/utils/Address.sol\":8117:8127  returndata */\n      dup5\n        /* \"@openzeppelin/contracts/utils/Address.sol\":8113:8115  32 */\n      0x20\n        /* \"@openzeppelin/contracts/utils/Address.sol\":8109:8128  add(32, returndata) */\n      add\n        /* \"@openzeppelin/contracts/utils/Address.sol\":8102:8146  revert(add(32, returndata), returndata_size) */\n      revert\n        /* \"@openzeppelin/contracts/utils/Address.sol\":7872:8237  if (returndata.length > 0) {... */\n    tag_431:\n        /* \"@openzeppelin/contracts/utils/Address.sol\":8209:8221  errorMessage */\n      dup2\n        /* \"@openzeppelin/contracts/utils/Address.sol\":8202:8222  revert(errorMessage) */\n      mload(0x40)\n      0x08c379a000000000000000000000000000000000000000000000000000000000\n      dup2\n      mstore\n      0x04\n      add\n      tag_433\n      swap2\n      swap1\n      tag_434\n      jump\t// in\n    tag_433:\n      mload(0x40)\n      dup1\n      swap2\n      sub\n      swap1\n      revert\n        /* \"@openzeppelin/contracts/utils/Address.sol\":7561:8253  function verifyCallResult(... */\n    tag_428:\n      swap4\n      swap3\n      pop\n      pop\n      pop\n      jump\t// out\n        /* \"#utility.yul\":7:84   */\n    tag_435:\n        /* \"#utility.yul\":44:51   */\n      0x00\n        /* \"#utility.yul\":73:78   */\n      dup2\n        /* \"#utility.yul\":62:78   */\n      swap1\n      pop\n        /* \"#utility.yul\":7:84   */\n      swap2\n      swap1\n      pop\n      jump\t// out\n        /* \"#utility.yul\":90:208   */\n    tag_436:\n        /* \"#utility.yul\":177:201   */\n      tag_505\n        /* \"#utility.yul\":195:200   */\n      dup2\n        /* \"#utility.yul\":177:201   */\n      tag_435\n      jump\t// in\n    tag_505:\n        /* \"#utility.yul\":172:175   */\n      dup3\n        /* \"#utility.yul\":165:202   */\n      mstore\n        /* \"#utility.yul\":90:208   */\n      pop\n      pop\n      jump\t// out\n        /* \"#utility.yul\":214:436   */\n    tag_39:\n        /* \"#utility.yul\":307:311   */\n      0x00\n        /* \"#utility.yul\":345:347   */\n      0x20\n        /* \"#utility.yul\":334:343   */\n      dup3\n        /* \"#utility.yul\":330:348   */\n      add\n        /* \"#utility.yul\":322:348   */\n      swap1\n      pop\n        /* \"#utility.yul\":358:429   */\n      tag_507\n        /* \"#utility.yul\":426:427   */\n      0x00\n        /* \"#utility.yul\":415:424   */\n      dup4\n        /* \"#utility.yul\":411:428   */\n      add\n        /* \"#utility.yul\":402:408   */\n      dup5\n        /* \"#utility.yul\":358:429   */\n      tag_436\n      jump\t// in\n    tag_507:\n        /* \"#utility.yul\":214:436   */\n      swap3\n      swap2\n      pop\n      pop\n      jump\t// out\n        /* \"#utility.yul\":523:640   */\n    tag_438:\n        /* \"#utility.yul\":632:633   */\n      0x00\n        /* \"#utility.yul\":629:630   */\n      dup1\n        /* \"#utility.yul\":622:634   */\n      revert\n        /* \"#utility.yul\":769:891   */\n    tag_440:\n        /* \"#utility.yul\":842:866   */\n      tag_512\n        /* \"#utility.yul\":860:865   */\n      dup2\n        /* \"#utility.yul\":842:866   */\n      tag_435\n      jump\t// in\n    tag_512:\n        /* \"#utility.yul\":835:840   */\n      dup2\n        /* \"#utility.yul\":832:867   */\n      eq\n        /* \"#utility.yul\":822:885   */\n      tag_513\n      jumpi\n        /* \"#utility.yul\":881:882   */\n      0x00\n        /* \"#utility.yul\":878:879   */\n      dup1\n        /* \"#utility.yul\":871:883   */\n      revert\n        /* \"#utility.yul\":822:885   */\n    tag_513:\n        /* \"#utility.yul\":769:891   */\n      pop\n      jump\t// out\n        /* \"#utility.yul\":897:1036   */\n    tag_441:\n        /* \"#utility.yul\":943:948   */\n      0x00\n        /* \"#utility.yul\":981:987   */\n      dup2\n        /* \"#utility.yul\":968:988   */\n      calldataload\n        /* \"#utility.yul\":959:988   */\n      swap1\n      pop\n        /* \"#utility.yul\":997:1030   */\n      tag_515\n        /* \"#utility.yul\":1024:1029   */\n      dup2\n        /* \"#utility.yul\":997:1030   */\n      tag_440\n      jump\t// in\n    tag_515:\n        /* \"#utility.yul\":897:1036   */\n      swap3\n      swap2\n      pop\n      pop\n      jump\t// out\n        /* \"#utility.yul\":1042:1371   */\n    tag_42:\n        /* \"#utility.yul\":1101:1107   */\n      0x00\n        /* \"#utility.yul\":1150:1152   */\n      0x20\n        /* \"#utility.yul\":1138:1147   */\n      dup3\n        /* \"#utility.yul\":1129:1136   */\n      dup5\n        /* \"#utility.yul\":1125:1148   */\n      sub\n        /* \"#utility.yul\":1121:1153   */\n      slt\n        /* \"#utility.yul\":1118:1237   */\n      iszero\n      tag_517\n      jumpi\n        /* \"#utility.yul\":1156:1235   */\n      tag_518\n      tag_438\n      jump\t// in\n    tag_518:\n        /* \"#utility.yul\":1118:1237   */\n    tag_517:\n        /* \"#utility.yul\":1276:1277   */\n      0x00\n        /* \"#utility.yul\":1301:1354   */\n      tag_519\n        /* \"#utility.yul\":1346:1353   */\n      dup5\n        /* \"#utility.yul\":1337:1343   */\n      dup3\n        /* \"#utility.yul\":1326:1335   */\n      dup6\n        /* \"#utility.yul\":1322:1344   */\n      add\n        /* \"#utility.yul\":1301:1354   */\n      tag_441\n      jump\t// in\n    tag_519:\n        /* \"#utility.yul\":1291:1354   */\n      swap2\n      pop\n        /* \"#utility.yul\":1247:1364   */\n      pop\n        /* \"#utility.yul\":1042:1371   */\n      swap3\n      swap2\n      pop\n      pop\n      jump\t// out\n        /* \"#utility.yul\":1377:1503   */\n    tag_442:\n        /* \"#utility.yul\":1414:1421   */\n      0x00\n        /* \"#utility.yul\":1454:1496   */\n      0xffffffffffffffffffffffffffffffffffffffff\n        /* \"#utility.yul\":1447:1452   */\n      dup3\n        /* \"#utility.yul\":1443:1497   */\n      and\n        /* \"#utility.yul\":1432:1497   */\n      swap1\n      pop\n        /* \"#utility.yul\":1377:1503   */\n      swap2\n      swap1\n      pop\n      jump\t// out\n        /* \"#utility.yul\":1509:1605   */\n    tag_443:\n        /* \"#utility.yul\":1546:1553   */\n      0x00\n        /* \"#utility.yul\":1575:1599   */\n      tag_522\n        /* \"#utility.yul\":1593:1598   */\n      dup3\n        /* \"#utility.yul\":1575:1599   */\n      tag_442\n      jump\t// in\n    tag_522:\n        /* \"#utility.yul\":1564:1599   */\n      swap1\n      pop\n        /* \"#utility.yul\":1509:1605   */\n      swap2\n      swap1\n      pop\n      jump\t// out\n        /* \"#utility.yul\":1611:1733   */\n    tag_444:\n        /* \"#utility.yul\":1684:1708   */\n      tag_524\n        /* \"#utility.yul\":1702:1707   */\n      dup2\n        /* \"#utility.yul\":1684:1708   */\n      tag_443\n      jump\t// in\n    tag_524:\n        /* \"#utility.yul\":1677:1682   */\n      dup2\n        /* \"#utility.yul\":1674:1709   */\n      eq\n        /* \"#utility.yul\":1664:1727   */\n      tag_525\n      jumpi\n        /* \"#utility.yul\":1723:1724   */\n      0x00\n        /* \"#utility.yul\":1720:1721   */\n      dup1\n        /* \"#utility.yul\":1713:1725   */\n      revert\n        /* \"#utility.yul\":1664:1727   */\n    tag_525:\n        /* \"#utility.yul\":1611:1733   */\n      pop\n      jump\t// out\n        /* \"#utility.yul\":1739:1878   */\n    tag_445:\n        /* \"#utility.yul\":1785:1790   */\n      0x00\n        /* \"#utility.yul\":1823:1829   */\n      dup2\n        /* \"#utility.yul\":1810:1830   */\n      calldataload\n        /* \"#utility.yul\":1801:1830   */\n      swap1\n      pop\n        /* \"#utility.yul\":1839:1872   */\n      tag_527\n        /* \"#utility.yul\":1866:1871   */\n      dup2\n        /* \"#utility.yul\":1839:1872   */\n      tag_444\n      jump\t// in\n    tag_527:\n        /* \"#utility.yul\":1739:1878   */\n      swap3\n      swap2\n      pop\n      pop\n      jump\t// out\n        /* \"#utility.yul\":1884:2213   */\n    tag_51:\n        /* \"#utility.yul\":1943:1949   */\n      0x00\n        /* \"#utility.yul\":1992:1994   */\n      0x20\n        /* \"#utility.yul\":1980:1989   */\n      dup3\n        /* \"#utility.yul\":1971:1978   */\n      dup5\n        /* \"#utility.yul\":1967:1990   */\n      sub\n        /* \"#utility.yul\":1963:1995   */\n      slt\n        /* \"#utility.yul\":1960:2079   */\n      iszero\n      tag_529\n      jumpi\n        /* \"#utility.yul\":1998:2077   */\n      tag_530\n      tag_438\n      jump\t// in\n    tag_530:\n        /* \"#utility.yul\":1960:2079   */\n    tag_529:\n        /* \"#utility.yul\":2118:2119   */\n      0x00\n        /* \"#utility.yul\":2143:2196   */\n      tag_531\n        /* \"#utility.yul\":2188:2195   */\n      dup5\n        /* \"#utility.yul\":2179:2185   */\n      dup3\n        /* \"#utility.yul\":2168:2177   */\n      dup6\n        /* \"#utility.yul\":2164:2186   */\n      add\n        /* \"#utility.yul\":2143:2196   */\n      tag_445\n      jump\t// in\n    tag_531:\n        /* \"#utility.yul\":2133:2196   */\n      swap2\n      pop\n        /* \"#utility.yul\":2089:2206   */\n      pop\n        /* \"#utility.yul\":1884:2213   */\n      swap3\n      swap2\n      pop\n      pop\n      jump\t// out\n        /* \"#utility.yul\":2219:2693   */\n    tag_59:\n        /* \"#utility.yul\":2287:2293   */\n      0x00\n        /* \"#utility.yul\":2295:2301   */\n      dup1\n        /* \"#utility.yul\":2344:2346   */\n      0x40\n        /* \"#utility.yul\":2332:2341   */\n      dup4\n        /* \"#utility.yul\":2323:2330   */\n      dup6\n        /* \"#utility.yul\":2319:2342   */\n      sub\n        /* \"#utility.yul\":2315:2347   */\n      slt\n        /* \"#utility.yul\":2312:2431   */\n      iszero\n      tag_533\n      jumpi\n        /* \"#utility.yul\":2350:2429   */\n      tag_534\n      tag_438\n      jump\t// in\n    tag_534:\n        /* \"#utility.yul\":2312:2431   */\n    tag_533:\n        /* \"#utility.yul\":2470:2471   */\n      0x00\n        /* \"#utility.yul\":2495:2548   */\n      tag_535\n        /* \"#utility.yul\":2540:2547   */\n      dup6\n        /* \"#utility.yul\":2531:2537   */\n      dup3\n        /* \"#utility.yul\":2520:2529   */\n      dup7\n        /* \"#utility.yul\":2516:2538   */\n      add\n        /* \"#utility.yul\":2495:2548   */\n      tag_441\n      jump\t// in\n    tag_535:\n        /* \"#utility.yul\":2485:2548   */\n      swap3\n      pop\n        /* \"#utility.yul\":2441:2558   */\n      pop\n        /* \"#utility.yul\":2597:2599   */\n      0x20\n        /* \"#utility.yul\":2623:2676   */\n      tag_536\n        /* \"#utility.yul\":2668:2675   */\n      dup6\n        /* \"#utility.yul\":2659:2665   */\n      dup3\n        /* \"#utility.yul\":2648:2657   */\n      dup7\n        /* \"#utility.yul\":2644:2666   */\n      add\n        /* \"#utility.yul\":2623:2676   */\n      tag_441\n      jump\t// in\n    tag_536:\n        /* \"#utility.yul\":2613:2676   */\n      swap2\n      pop\n        /* \"#utility.yul\":2568:2686   */\n      pop\n        /* \"#utility.yul\":2219:2693   */\n      swap3\n      pop\n      swap3\n      swap1\n      pop\n      jump\t// out\n        /* \"#utility.yul\":2699:2817   */\n    tag_446:\n        /* \"#utility.yul\":2786:2810   */\n      tag_538\n        /* \"#utility.yul\":2804:2809   */\n      dup2\n        /* \"#utility.yul\":2786:2810   */\n      tag_443\n      jump\t// in\n    tag_538:\n        /* \"#utility.yul\":2781:2784   */\n      dup3\n        /* \"#utility.yul\":2774:2811   */\n      mstore\n        /* \"#utility.yul\":2699:2817   */\n      pop\n      pop\n      jump\t// out\n        /* \"#utility.yul\":2823:3045   */\n    tag_86:\n        /* \"#utility.yul\":2916:2920   */\n      0x00\n        /* \"#utility.yul\":2954:2956   */\n      0x20\n        /* \"#utility.yul\":2943:2952   */\n      dup3\n        /* \"#utility.yul\":2939:2957   */\n      add\n        /* \"#utility.yul\":2931:2957   */\n      swap1\n      pop\n        /* \"#utility.yul\":2967:3038   */\n      tag_540\n        /* \"#utility.yul\":3035:3036   */\n      0x00\n        /* \"#utility.yul\":3024:3033   */\n      dup4\n        /* \"#utility.yul\":3020:3037   */\n      add\n        /* \"#utility.yul\":3011:3017   */\n      dup5\n        /* \"#utility.yul\":2967:3038   */\n      tag_446\n      jump\t// in\n    tag_540:\n        /* \"#utility.yul\":2823:3045   */\n      swap3\n      swap2\n      pop\n      pop\n      jump\t// out\n        /* \"#utility.yul\":3051:3111   */\n    tag_447:\n        /* \"#utility.yul\":3079:3082   */\n      0x00\n        /* \"#utility.yul\":3100:3105   */\n      dup2\n        /* \"#utility.yul\":3093:3105   */\n      swap1\n      pop\n        /* \"#utility.yul\":3051:3111   */\n      swap2\n      swap1\n      pop\n      jump\t// out\n        /* \"#utility.yul\":3117:3259   */\n    tag_448:\n        /* \"#utility.yul\":3167:3176   */\n      0x00\n        /* \"#utility.yul\":3200:3253   */\n      tag_543\n        /* \"#utility.yul\":3218:3252   */\n      tag_544\n        /* \"#utility.yul\":3227:3251   */\n      tag_545\n        /* \"#utility.yul\":3245:3250   */\n      dup5\n        /* \"#utility.yul\":3227:3251   */\n      tag_442\n      jump\t// in\n    tag_545:\n        /* \"#utility.yul\":3218:3252   */\n      tag_447\n      jump\t// in\n    tag_544:\n        /* \"#utility.yul\":3200:3253   */\n      tag_442\n      jump\t// in\n    tag_543:\n        /* \"#utility.yul\":3187:3253   */\n      swap1\n      pop\n        /* \"#utility.yul\":3117:3259   */\n      swap2\n      swap1\n      pop\n      jump\t// out\n        /* \"#utility.yul\":3265:3391   */\n    tag_449:\n        /* \"#utility.yul\":3315:3324   */\n      0x00\n        /* \"#utility.yul\":3348:3385   */\n      tag_547\n        /* \"#utility.yul\":3379:3384   */\n      dup3\n        /* \"#utility.yul\":3348:3385   */\n      tag_448\n      jump\t// in\n    tag_547:\n        /* \"#utility.yul\":3335:3385   */\n      swap1\n      pop\n        /* \"#utility.yul\":3265:3391   */\n      swap2\n      swap1\n      pop\n      jump\t// out\n        /* \"#utility.yul\":3397:3537   */\n    tag_450:\n        /* \"#utility.yul\":3461:3470   */\n      0x00\n        /* \"#utility.yul\":3494:3531   */\n      tag_549\n        /* \"#utility.yul\":3525:3530   */\n      dup3\n        /* \"#utility.yul\":3494:3531   */\n      tag_449\n      jump\t// in\n    tag_549:\n        /* \"#utility.yul\":3481:3531   */\n      swap1\n      pop\n        /* \"#utility.yul\":3397:3537   */\n      swap2\n      swap1\n      pop\n      jump\t// out\n        /* \"#utility.yul\":3543:3702   */\n    tag_451:\n        /* \"#utility.yul\":3644:3695   */\n      tag_551\n        /* \"#utility.yul\":3689:3694   */\n      dup2\n        /* \"#utility.yul\":3644:3695   */\n      tag_450\n      jump\t// in\n    tag_551:\n        /* \"#utility.yul\":3639:3642   */\n      dup3\n        /* \"#utility.yul\":3632:3696   */\n      mstore\n        /* \"#utility.yul\":3543:3702   */\n      pop\n      pop\n      jump\t// out\n        /* \"#utility.yul\":3708:3958   */\n    tag_123:\n        /* \"#utility.yul\":3815:3819   */\n      0x00\n        /* \"#utility.yul\":3853:3855   */\n      0x20\n        /* \"#utility.yul\":3842:3851   */\n      dup3\n        /* \"#utility.yul\":3838:3856   */\n      add\n        /* \"#utility.yul\":3830:3856   */\n      swap1\n      pop\n        /* \"#utility.yul\":3866:3951   */\n      tag_553\n        /* \"#utility.yul\":3948:3949   */\n      0x00\n        /* \"#utility.yul\":3937:3946   */\n      dup4\n        /* \"#utility.yul\":3933:3950   */\n      add\n        /* \"#utility.yul\":3924:3930   */\n      dup5\n        /* \"#utility.yul\":3866:3951   */\n      tag_451\n      jump\t// in\n    tag_553:\n        /* \"#utility.yul\":3708:3958   */\n      swap3\n      swap2\n      pop\n      pop\n      jump\t// out\n        /* \"#utility.yul\":3964:4133   */\n    tag_452:\n        /* \"#utility.yul\":4048:4059   */\n      0x00\n        /* \"#utility.yul\":4082:4088   */\n      dup3\n        /* \"#utility.yul\":4077:4080   */\n      dup3\n        /* \"#utility.yul\":4070:4089   */\n      mstore\n        /* \"#utility.yul\":4122:4126   */\n      0x20\n        /* \"#utility.yul\":4117:4120   */\n      dup3\n        /* \"#utility.yul\":4113:4127   */\n      add\n        /* \"#utility.yul\":4098:4127   */\n      swap1\n      pop\n        /* \"#utility.yul\":3964:4133   */\n      swap3\n      swap2\n      pop\n      pop\n      jump\t// out\n        /* \"#utility.yul\":4139:4321   */\n    tag_453:\n        /* \"#utility.yul\":4279:4313   */\n      0x4f776e61626c653a2063616c6c6572206973206e6f7420746865206f776e6572\n        /* \"#utility.yul\":4275:4276   */\n      0x00\n        /* \"#utility.yul\":4267:4273   */\n      dup3\n        /* \"#utility.yul\":4263:4277   */\n      add\n        /* \"#utility.yul\":4256:4314   */\n      mstore\n        /* \"#utility.yul\":4139:4321   */\n      pop\n      jump\t// out\n        /* \"#utility.yul\":4327:4693   */\n    tag_454:\n        /* \"#utility.yul\":4469:4472   */\n      0x00\n        /* \"#utility.yul\":4490:4557   */\n      tag_557\n        /* \"#utility.yul\":4554:4556   */\n      0x20\n        /* \"#utility.yul\":4549:4552   */\n      dup4\n        /* \"#utility.yul\":4490:4557   */\n      tag_452\n      jump\t// in\n    tag_557:\n        /* \"#utility.yul\":4483:4557   */\n      swap2\n      pop\n        /* \"#utility.yul\":4566:4659   */\n      tag_558\n        /* \"#utility.yul\":4655:4658   */\n      dup3\n        /* \"#utility.yul\":4566:4659   */\n      tag_453\n      jump\t// in\n    tag_558:\n        /* \"#utility.yul\":4684:4686   */\n      0x20\n        /* \"#utility.yul\":4679:4682   */\n      dup3\n        /* \"#utility.yul\":4675:4687   */\n      add\n        /* \"#utility.yul\":4668:4687   */\n      swap1\n      pop\n        /* \"#utility.yul\":4327:4693   */\n      swap2\n      swap1\n      pop\n      jump\t// out\n        /* \"#utility.yul\":4699:5118   */\n    tag_135:\n        /* \"#utility.yul\":4865:4869   */\n      0x00\n        /* \"#utility.yul\":4903:4905   */\n      0x20\n        /* \"#utility.yul\":4892:4901   */\n      dup3\n        /* \"#utility.yul\":4888:4906   */\n      add\n        /* \"#utility.yul\":4880:4906   */\n      swap1\n      pop\n        /* \"#utility.yul\":4952:4961   */\n      dup2\n        /* \"#utility.yul\":4946:4950   */\n      dup2\n        /* \"#utility.yul\":4942:4962   */\n      sub\n        /* \"#utility.yul\":4938:4939   */\n      0x00\n        /* \"#utility.yul\":4927:4936   */\n      dup4\n        /* \"#utility.yul\":4923:4940   */\n      add\n        /* \"#utility.yul\":4916:4963   */\n      mstore\n        /* \"#utility.yul\":4980:5111   */\n      tag_560\n        /* \"#utility.yul\":5106:5110   */\n      dup2\n        /* \"#utility.yul\":4980:5111   */\n      tag_454\n      jump\t// in\n    tag_560:\n        /* \"#utility.yul\":4972:5111   */\n      swap1\n      pop\n        /* \"#utility.yul\":4699:5118   */\n      swap2\n      swap1\n      pop\n      jump\t// out\n        /* \"#utility.yul\":5124:5287   */\n    tag_455:\n        /* \"#utility.yul\":5264:5279   */\n      0x43616e2774206265207a65726f00000000000000000000000000000000000000\n        /* \"#utility.yul\":5260:5261   */\n      0x00\n        /* \"#utility.yul\":5252:5258   */\n      dup3\n        /* \"#utility.yul\":5248:5262   */\n      add\n        /* \"#utility.yul\":5241:5280   */\n      mstore\n        /* \"#utility.yul\":5124:5287   */\n      pop\n      jump\t// out\n        /* \"#utility.yul\":5293:5659   */\n    tag_456:\n        /* \"#utility.yul\":5435:5438   */\n      0x00\n        /* \"#utility.yul\":5456:5523   */\n      tag_563\n        /* \"#utility.yul\":5520:5522   */\n      0x0d\n        /* \"#utility.yul\":5515:5518   */\n      dup4\n        /* \"#utility.yul\":5456:5523   */\n      tag_452\n      jump\t// in\n    tag_563:\n        /* \"#utility.yul\":5449:5523   */\n      swap2\n      pop\n        /* \"#utility.yul\":5532:5625   */\n      tag_564\n        /* \"#utility.yul\":5621:5624   */\n      dup3\n        /* \"#utility.yul\":5532:5625   */\n      tag_455\n      jump\t// in\n    tag_564:\n        /* \"#utility.yul\":5650:5652   */\n      0x20\n        /* \"#utility.yul\":5645:5648   */\n      dup3\n        /* \"#utility.yul\":5641:5653   */\n      add\n        /* \"#utility.yul\":5634:5653   */\n      swap1\n      pop\n        /* \"#utility.yul\":5293:5659   */\n      swap2\n      swap1\n      pop\n      jump\t// out\n        /* \"#utility.yul\":5665:6084   */\n    tag_139:\n        /* \"#utility.yul\":5831:5835   */\n      0x00\n        /* \"#utility.yul\":5869:5871   */\n      0x20\n        /* \"#utility.yul\":5858:5867   */\n      dup3\n        /* \"#utility.yul\":5854:5872   */\n      add\n        /* \"#utility.yul\":5846:5872   */\n      swap1\n      pop\n        /* \"#utility.yul\":5918:5927   */\n      dup2\n        /* \"#utility.yul\":5912:5916   */\n      dup2\n        /* \"#utility.yul\":5908:5928   */\n      sub\n        /* \"#utility.yul\":5904:5905   */\n      0x00\n        /* \"#utility.yul\":5893:5902   */\n      dup4\n        /* \"#utility.yul\":5889:5906   */\n      add\n        /* \"#utility.yul\":5882:5929   */\n      mstore\n        /* \"#utility.yul\":5946:6077   */\n      tag_566\n        /* \"#utility.yul\":6072:6076   */\n      dup2\n        /* \"#utility.yul\":5946:6077   */\n      tag_456\n      jump\t// in\n    tag_566:\n        /* \"#utility.yul\":5938:6077   */\n      swap1\n      pop\n        /* \"#utility.yul\":5665:6084   */\n      swap2\n      swap1\n      pop\n      jump\t// out\n        /* \"#utility.yul\":6090:6271   */\n    tag_457:\n        /* \"#utility.yul\":6230:6263   */\n      0x416d6f756e742073686f756c642062652067726561746572207468616e203000\n        /* \"#utility.yul\":6226:6227   */\n      0x00\n        /* \"#utility.yul\":6218:6224   */\n      dup3\n        /* \"#utility.yul\":6214:6228   */\n      add\n        /* \"#utility.yul\":6207:6264   */\n      mstore\n        /* \"#utility.yul\":6090:6271   */\n      pop\n      jump\t// out\n        /* \"#utility.yul\":6277:6643   */\n    tag_458:\n        /* \"#utility.yul\":6419:6422   */\n      0x00\n        /* \"#utility.yul\":6440:6507   */\n      tag_569\n        /* \"#utility.yul\":6504:6506   */\n      0x1f\n        /* \"#utility.yul\":6499:6502   */\n      dup4\n        /* \"#utility.yul\":6440:6507   */\n      tag_452\n      jump\t// in\n    tag_569:\n        /* \"#utility.yul\":6433:6507   */\n      swap2\n      pop\n        /* \"#utility.yul\":6516:6609   */\n      tag_570\n        /* \"#utility.yul\":6605:6608   */\n      dup3\n        /* \"#utility.yul\":6516:6609   */\n      tag_457\n      jump\t// in\n    tag_570:\n        /* \"#utility.yul\":6634:6636   */\n      0x20\n        /* \"#utility.yul\":6629:6632   */\n      dup3\n        /* \"#utility.yul\":6625:6637   */\n      add\n        /* \"#utility.yul\":6618:6637   */\n      swap1\n      pop\n        /* \"#utility.yul\":6277:6643   */\n      swap2\n      swap1\n      pop\n      jump\t// out\n        /* \"#utility.yul\":6649:7068   */\n    tag_143:\n        /* \"#utility.yul\":6815:6819   */\n      0x00\n        /* \"#utility.yul\":6853:6855   */\n      0x20\n        /* \"#utility.yul\":6842:6851   */\n      dup3\n        /* \"#utility.yul\":6838:6856   */\n      add\n        /* \"#utility.yul\":6830:6856   */\n      swap1\n      pop\n        /* \"#utility.yul\":6902:6911   */\n      dup2\n        /* \"#utility.yul\":6896:6900   */\n      dup2\n        /* \"#utility.yul\":6892:6912   */\n      sub\n        /* \"#utility.yul\":6888:6889   */\n      0x00\n        /* \"#utility.yul\":6877:6886   */\n      dup4\n        /* \"#utility.yul\":6873:6890   */\n      add\n        /* \"#utility.yul\":6866:6913   */\n      mstore\n        /* \"#utility.yul\":6930:7061   */\n      tag_572\n        /* \"#utility.yul\":7056:7060   */\n      dup2\n        /* \"#utility.yul\":6930:7061   */\n      tag_458\n      jump\t// in\n    tag_572:\n        /* \"#utility.yul\":6922:7061   */\n      swap1\n      pop\n        /* \"#utility.yul\":6649:7068   */\n      swap2\n      swap1\n      pop\n      jump\t// out\n        /* \"#utility.yul\":7074:7238   */\n    tag_459:\n        /* \"#utility.yul\":7214:7230   */\n      0x496e76616c696420616d6f756e74000000000000000000000000000000000000\n        /* \"#utility.yul\":7210:7211   */\n      0x00\n        /* \"#utility.yul\":7202:7208   */\n      dup3\n        /* \"#utility.yul\":7198:7212   */\n      add\n        /* \"#utility.yul\":7191:7231   */\n      mstore\n        /* \"#utility.yul\":7074:7238   */\n      pop\n      jump\t// out\n        /* \"#utility.yul\":7244:7610   */\n    tag_460:\n        /* \"#utility.yul\":7386:7389   */\n      0x00\n        /* \"#utility.yul\":7407:7474   */\n      tag_575\n        /* \"#utility.yul\":7471:7473   */\n      0x0e\n        /* \"#utility.yul\":7466:7469   */\n      dup4\n        /* \"#utility.yul\":7407:7474   */\n      tag_452\n      jump\t// in\n    tag_575:\n        /* \"#utility.yul\":7400:7474   */\n      swap2\n      pop\n        /* \"#utility.yul\":7483:7576   */\n      tag_576\n        /* \"#utility.yul\":7572:7575   */\n      dup3\n        /* \"#utility.yul\":7483:7576   */\n      tag_459\n      jump\t// in\n    tag_576:\n        /* \"#utility.yul\":7601:7603   */\n      0x20\n        /* \"#utility.yul\":7596:7599   */\n      dup3\n        /* \"#utility.yul\":7592:7604   */\n      add\n        /* \"#utility.yul\":7585:7604   */\n      swap1\n      pop\n        /* \"#utility.yul\":7244:7610   */\n      swap2\n      swap1\n      pop\n      jump\t// out\n        /* \"#utility.yul\":7616:8035   */\n    tag_146:\n        /* \"#utility.yul\":7782:7786   */\n      0x00\n        /* \"#utility.yul\":7820:7822   */\n      0x20\n        /* \"#utility.yul\":7809:7818   */\n      dup3\n        /* \"#utility.yul\":7805:7823   */\n      add\n        /* \"#utility.yul\":7797:7823   */\n      swap1\n      pop\n        /* \"#utility.yul\":7869:7878   */\n      dup2\n        /* \"#utility.yul\":7863:7867   */\n      dup2\n        /* \"#utility.yul\":7859:7879   */\n      sub\n        /* \"#utility.yul\":7855:7856   */\n      0x00\n        /* \"#utility.yul\":7844:7853   */\n      dup4\n        /* \"#utility.yul\":7840:7857   */\n      add\n        /* \"#utility.yul\":7833:7880   */\n      mstore\n        /* \"#utility.yul\":7897:8028   */\n      tag_578\n        /* \"#utility.yul\":8023:8027   */\n      dup2\n        /* \"#utility.yul\":7897:8028   */\n      tag_460\n      jump\t// in\n    tag_578:\n        /* \"#utility.yul\":7889:8028   */\n      swap1\n      pop\n        /* \"#utility.yul\":7616:8035   */\n      swap2\n      swap1\n      pop\n      jump\t// out\n        /* \"#utility.yul\":8041:8221   */\n    tag_461:\n        /* \"#utility.yul\":8089:8166   */\n      0x4e487b7100000000000000000000000000000000000000000000000000000000\n        /* \"#utility.yul\":8086:8087   */\n      0x00\n        /* \"#utility.yul\":8079:8167   */\n      mstore\n        /* \"#utility.yul\":8186:8190   */\n      0x12\n        /* \"#utility.yul\":8183:8184   */\n      0x04\n        /* \"#utility.yul\":8176:8191   */\n      mstore\n        /* \"#utility.yul\":8210:8214   */\n      0x24\n        /* \"#utility.yul\":8207:8208   */\n      0x00\n        /* \"#utility.yul\":8200:8215   */\n      revert\n        /* \"#utility.yul\":8227:8403   */\n    tag_158:\n        /* \"#utility.yul\":8259:8260   */\n      0x00\n        /* \"#utility.yul\":8276:8296   */\n      tag_581\n        /* \"#utility.yul\":8294:8295   */\n      dup3\n        /* \"#utility.yul\":8276:8296   */\n      tag_435\n      jump\t// in\n    tag_581:\n        /* \"#utility.yul\":8271:8296   */\n      swap2\n      pop\n        /* \"#utility.yul\":8310:8330   */\n      tag_582\n        /* \"#utility.yul\":8328:8329   */\n      dup4\n        /* \"#utility.yul\":8310:8330   */\n      tag_435\n      jump\t// in\n    tag_582:\n        /* \"#utility.yul\":8305:8330   */\n      swap3\n      pop\n        /* \"#utility.yul\":8349:8350   */\n      dup3\n        /* \"#utility.yul\":8339:8374   */\n      tag_583\n      jumpi\n        /* \"#utility.yul\":8354:8372   */\n      tag_584\n      tag_461\n      jump\t// in\n    tag_584:\n        /* \"#utility.yul\":8339:8374   */\n    tag_583:\n        /* \"#utility.yul\":8395:8396   */\n      dup3\n        /* \"#utility.yul\":8392:8393   */\n      dup3\n        /* \"#utility.yul\":8388:8397   */\n      mod\n        /* \"#utility.yul\":8383:8397   */\n      swap1\n      pop\n        /* \"#utility.yul\":8227:8403   */\n      swap3\n      swap2\n      pop\n      pop\n      jump\t// out\n        /* \"#utility.yul\":8409:8741   */\n    tag_170:\n        /* \"#utility.yul\":8530:8534   */\n      0x00\n        /* \"#utility.yul\":8568:8570   */\n      0x40\n        /* \"#utility.yul\":8557:8566   */\n      dup3\n        /* \"#utility.yul\":8553:8571   */\n      add\n        /* \"#utility.yul\":8545:8571   */\n      swap1\n      pop\n        /* \"#utility.yul\":8581:8652   */\n      tag_586\n        /* \"#utility.yul\":8649:8650   */\n      0x00\n        /* \"#utility.yul\":8638:8647   */\n      dup4\n        /* \"#utility.yul\":8634:8651   */\n      add\n        /* \"#utility.yul\":8625:8631   */\n      dup6\n        /* \"#utility.yul\":8581:8652   */\n      tag_446\n      jump\t// in\n    tag_586:\n        /* \"#utility.yul\":8662:8734   */\n      tag_587\n        /* \"#utility.yul\":8730:8732   */\n      0x20\n        /* \"#utility.yul\":8719:8728   */\n      dup4\n        /* \"#utility.yul\":8715:8733   */\n      add\n        /* \"#utility.yul\":8706:8712   */\n      dup5\n        /* \"#utility.yul\":8662:8734   */\n      tag_436\n      jump\t// in\n    tag_587:\n        /* \"#utility.yul\":8409:8741   */\n      swap4\n      swap3\n      pop\n      pop\n      pop\n      jump\t// out\n        /* \"#utility.yul\":8747:8913   */\n    tag_462:\n        /* \"#utility.yul\":8887:8905   */\n      0x4e6f7468696e6720746f20636c61696d00000000000000000000000000000000\n        /* \"#utility.yul\":8883:8884   */\n      0x00\n        /* \"#utility.yul\":8875:8881   */\n      dup3\n        /* \"#utility.yul\":8871:8885   */\n      add\n        /* \"#utility.yul\":8864:8906   */\n      mstore\n        /* \"#utility.yul\":8747:8913   */\n      pop\n      jump\t// out\n        /* \"#utility.yul\":8919:9285   */\n    tag_463:\n        /* \"#utility.yul\":9061:9064   */\n      0x00\n        /* \"#utility.yul\":9082:9149   */\n      tag_590\n        /* \"#utility.yul\":9146:9148   */\n      0x10\n        /* \"#utility.yul\":9141:9144   */\n      dup4\n        /* \"#utility.yul\":9082:9149   */\n      tag_452\n      jump\t// in\n    tag_590:\n        /* \"#utility.yul\":9075:9149   */\n      swap2\n      pop\n        /* \"#utility.yul\":9158:9251   */\n      tag_591\n        /* \"#utility.yul\":9247:9250   */\n      dup3\n        /* \"#utility.yul\":9158:9251   */\n      tag_462\n      jump\t// in\n    tag_591:\n        /* \"#utility.yul\":9276:9278   */\n      0x20\n        /* \"#utility.yul\":9271:9274   */\n      dup3\n        /* \"#utility.yul\":9267:9279   */\n      add\n        /* \"#utility.yul\":9260:9279   */\n      swap1\n      pop\n        /* \"#utility.yul\":8919:9285   */\n      swap2\n      swap1\n      pop\n      jump\t// out\n        /* \"#utility.yul\":9291:9710   */\n    tag_178:\n        /* \"#utility.yul\":9457:9461   */\n      0x00\n        /* \"#utility.yul\":9495:9497   */\n      0x20\n        /* \"#utility.yul\":9484:9493   */\n      dup3\n        /* \"#utility.yul\":9480:9498   */\n      add\n        /* \"#utility.yul\":9472:9498   */\n      swap1\n      pop\n        /* \"#utility.yul\":9544:9553   */\n      dup2\n        /* \"#utility.yul\":9538:9542   */\n      dup2\n        /* \"#utility.yul\":9534:9554   */\n      sub\n        /* \"#utility.yul\":9530:9531   */\n      0x00\n        /* \"#utility.yul\":9519:9528   */\n      dup4\n        /* \"#utility.yul\":9515:9532   */\n      add\n        /* \"#utility.yul\":9508:9555   */\n      mstore\n        /* \"#utility.yul\":9572:9703   */\n      tag_593\n        /* \"#utility.yul\":9698:9702   */\n      dup2\n        /* \"#utility.yul\":9572:9703   */\n      tag_463\n      jump\t// in\n    tag_593:\n        /* \"#utility.yul\":9564:9703   */\n      swap1\n      pop\n        /* \"#utility.yul\":9291:9710   */\n      swap2\n      swap1\n      pop\n      jump\t// out\n        /* \"#utility.yul\":9716:9859   */\n    tag_464:\n        /* \"#utility.yul\":9773:9778   */\n      0x00\n        /* \"#utility.yul\":9804:9810   */\n      dup2\n        /* \"#utility.yul\":9798:9811   */\n      mload\n        /* \"#utility.yul\":9789:9811   */\n      swap1\n      pop\n        /* \"#utility.yul\":9820:9853   */\n      tag_595\n        /* \"#utility.yul\":9847:9852   */\n      dup2\n        /* \"#utility.yul\":9820:9853   */\n      tag_440\n      jump\t// in\n    tag_595:\n        /* \"#utility.yul\":9716:9859   */\n      swap3\n      swap2\n      pop\n      pop\n      jump\t// out\n        /* \"#utility.yul\":9865:10216   */\n    tag_184:\n        /* \"#utility.yul\":9935:9941   */\n      0x00\n        /* \"#utility.yul\":9984:9986   */\n      0x20\n        /* \"#utility.yul\":9972:9981   */\n      dup3\n        /* \"#utility.yul\":9963:9970   */\n      dup5\n        /* \"#utility.yul\":9959:9982   */\n      sub\n        /* \"#utility.yul\":9955:9987   */\n      slt\n        /* \"#utility.yul\":9952:10071   */\n      iszero\n      tag_597\n      jumpi\n        /* \"#utility.yul\":9990:10069   */\n      tag_598\n      tag_438\n      jump\t// in\n    tag_598:\n        /* \"#utility.yul\":9952:10071   */\n    tag_597:\n        /* \"#utility.yul\":10110:10111   */\n      0x00\n        /* \"#utility.yul\":10135:10199   */\n      tag_599\n        /* \"#utility.yul\":10191:10198   */\n      dup5\n        /* \"#utility.yul\":10182:10188   */\n      dup3\n        /* \"#utility.yul\":10171:10180   */\n      dup6\n        /* \"#utility.yul\":10167:10189   */\n      add\n        /* \"#utility.yul\":10135:10199   */\n      tag_464\n      jump\t// in\n    tag_599:\n        /* \"#utility.yul\":10125:10199   */\n      swap2\n      pop\n        /* \"#utility.yul\":10081:10209   */\n      pop\n        /* \"#utility.yul\":9865:10216   */\n      swap3\n      swap2\n      pop\n      pop\n      jump\t// out\n        /* \"#utility.yul\":10222:10385   */\n    tag_465:\n        /* \"#utility.yul\":10362:10377   */\n      0x496e73756666696369656e742100000000000000000000000000000000000000\n        /* \"#utility.yul\":10358:10359   */\n      0x00\n        /* \"#utility.yul\":10350:10356   */\n      dup3\n        /* \"#utility.yul\":10346:10360   */\n      add\n        /* \"#utility.yul\":10339:10378   */\n      mstore\n        /* \"#utility.yul\":10222:10385   */\n      pop\n      jump\t// out\n        /* \"#utility.yul\":10391:10757   */\n    tag_466:\n        /* \"#utility.yul\":10533:10536   */\n      0x00\n        /* \"#utility.yul\":10554:10621   */\n      tag_602\n        /* \"#utility.yul\":10618:10620   */\n      0x0d\n        /* \"#utility.yul\":10613:10616   */\n      dup4\n        /* \"#utility.yul\":10554:10621   */\n      tag_452\n      jump\t// in\n    tag_602:\n        /* \"#utility.yul\":10547:10621   */\n      swap2\n      pop\n        /* \"#utility.yul\":10630:10723   */\n      tag_603\n        /* \"#utility.yul\":10719:10722   */\n      dup3\n        /* \"#utility.yul\":10630:10723   */\n      tag_465\n      jump\t// in\n    tag_603:\n        /* \"#utility.yul\":10748:10750   */\n      0x20\n        /* \"#utility.yul\":10743:10746   */\n      dup3\n        /* \"#utility.yul\":10739:10751   */\n      add\n        /* \"#utility.yul\":10732:10751   */\n      swap1\n      pop\n        /* \"#utility.yul\":10391:10757   */\n      swap2\n      swap1\n      pop\n      jump\t// out\n        /* \"#utility.yul\":10763:11182   */\n    tag_224:\n        /* \"#utility.yul\":10929:10933   */\n      0x00\n        /* \"#utility.yul\":10967:10969   */\n      0x20\n        /* \"#utility.yul\":10956:10965   */\n      dup3\n        /* \"#utility.yul\":10952:10970   */\n      add\n        /* \"#utility.yul\":10944:10970   */\n      swap1\n      pop\n        /* \"#utility.yul\":11016:11025   */\n      dup2\n        /* \"#utility.yul\":11010:11014   */\n      dup2\n        /* \"#utility.yul\":11006:11026   */\n      sub\n        /* \"#utility.yul\":11002:11003   */\n      0x00\n        /* \"#utility.yul\":10991:11000   */\n      dup4\n        /* \"#utility.yul\":10987:11004   */\n      add\n        /* \"#utility.yul\":10980:11027   */\n      mstore\n        /* \"#utility.yul\":11044:11175   */\n      tag_605\n        /* \"#utility.yul\":11170:11174   */\n      dup2\n        /* \"#utility.yul\":11044:11175   */\n      tag_466\n      jump\t// in\n    tag_605:\n        /* \"#utility.yul\":11036:11175   */\n      swap1\n      pop\n        /* \"#utility.yul\":10763:11182   */\n      swap2\n      swap1\n      pop\n      jump\t// out\n        /* \"#utility.yul\":11188:11349   */\n    tag_467:\n        /* \"#utility.yul\":11328:11341   */\n      0x43616e2774207374617274000000000000000000000000000000000000000000\n        /* \"#utility.yul\":11324:11325   */\n      0x00\n        /* \"#utility.yul\":11316:11322   */\n      dup3\n        /* \"#utility.yul\":11312:11326   */\n      add\n        /* \"#utility.yul\":11305:11342   */\n      mstore\n        /* \"#utility.yul\":11188:11349   */\n      pop\n      jump\t// out\n        /* \"#utility.yul\":11355:11721   */\n    tag_468:\n        /* \"#utility.yul\":11497:11500   */\n      0x00\n        /* \"#utility.yul\":11518:11585   */\n      tag_608\n        /* \"#utility.yul\":11582:11584   */\n      0x0b\n        /* \"#utility.yul\":11577:11580   */\n      dup4\n        /* \"#utility.yul\":11518:11585   */\n      tag_452\n      jump\t// in\n    tag_608:\n        /* \"#utility.yul\":11511:11585   */\n      swap2\n      pop\n        /* \"#utility.yul\":11594:11687   */\n      tag_609\n        /* \"#utility.yul\":11683:11686   */\n      dup3\n        /* \"#utility.yul\":11594:11687   */\n      tag_467\n      jump\t// in\n    tag_609:\n        /* \"#utility.yul\":11712:11714   */\n      0x20\n        /* \"#utility.yul\":11707:11710   */\n      dup3\n        /* \"#utility.yul\":11703:11715   */\n      add\n        /* \"#utility.yul\":11696:11715   */\n      swap1\n      pop\n        /* \"#utility.yul\":11355:11721   */\n      swap2\n      swap1\n      pop\n      jump\t// out\n        /* \"#utility.yul\":11727:12146   */\n    tag_228:\n        /* \"#utility.yul\":11893:11897   */\n      0x00\n        /* \"#utility.yul\":11931:11933   */\n      0x20\n        /* \"#utility.yul\":11920:11929   */\n      dup3\n        /* \"#utility.yul\":11916:11934   */\n      add\n        /* \"#utility.yul\":11908:11934   */\n      swap1\n      pop\n        /* \"#utility.yul\":11980:11989   */\n      dup2\n        /* \"#utility.yul\":11974:11978   */\n      dup2\n        /* \"#utility.yul\":11970:11990   */\n      sub\n        /* \"#utility.yul\":11966:11967   */\n      0x00\n        /* \"#utility.yul\":11955:11964   */\n      dup4\n        /* \"#utility.yul\":11951:11968   */\n      add\n        /* \"#utility.yul\":11944:11991   */\n      mstore\n        /* \"#utility.yul\":12008:12139   */\n      tag_611\n        /* \"#utility.yul\":12134:12138   */\n      dup2\n        /* \"#utility.yul\":12008:12139   */\n      tag_468\n      jump\t// in\n    tag_611:\n        /* \"#utility.yul\":12000:12139   */\n      swap1\n      pop\n        /* \"#utility.yul\":11727:12146   */\n      swap2\n      swap1\n      pop\n      jump\t// out\n        /* \"#utility.yul\":12152:12314   */\n    tag_469:\n        /* \"#utility.yul\":12292:12306   */\n      0x496e73756666696369656e740000000000000000000000000000000000000000\n        /* \"#utility.yul\":12288:12289   */\n      0x00\n        /* \"#utility.yul\":12280:12286   */\n      dup3\n        /* \"#utility.yul\":12276:12290   */\n      add\n        /* \"#utility.yul\":12269:12307   */\n      mstore\n        /* \"#utility.yul\":12152:12314   */\n      pop\n      jump\t// out\n        /* \"#utility.yul\":12320:12686   */\n    tag_470:\n        /* \"#utility.yul\":12462:12465   */\n      0x00\n        /* \"#utility.yul\":12483:12550   */\n      tag_614\n        /* \"#utility.yul\":12547:12549   */\n      0x0c\n        /* \"#utility.yul\":12542:12545   */\n      dup4\n        /* \"#utility.yul\":12483:12550   */\n      tag_452\n      jump\t// in\n    tag_614:\n        /* \"#utility.yul\":12476:12550   */\n      swap2\n      pop\n        /* \"#utility.yul\":12559:12652   */\n      tag_615\n        /* \"#utility.yul\":12648:12651   */\n      dup3\n        /* \"#utility.yul\":12559:12652   */\n      tag_469\n      jump\t// in\n    tag_615:\n        /* \"#utility.yul\":12677:12679   */\n      0x20\n        /* \"#utility.yul\":12672:12675   */\n      dup3\n        /* \"#utility.yul\":12668:12680   */\n      add\n        /* \"#utility.yul\":12661:12680   */\n      swap1\n      pop\n        /* \"#utility.yul\":12320:12686   */\n      swap2\n      swap1\n      pop\n      jump\t// out\n        /* \"#utility.yul\":12692:13111   */\n    tag_232:\n        /* \"#utility.yul\":12858:12862   */\n      0x00\n        /* \"#utility.yul\":12896:12898   */\n      0x20\n        /* \"#utility.yul\":12885:12894   */\n      dup3\n        /* \"#utility.yul\":12881:12899   */\n      add\n        /* \"#utility.yul\":12873:12899   */\n      swap1\n      pop\n        /* \"#utility.yul\":12945:12954   */\n      dup2\n        /* \"#utility.yul\":12939:12943   */\n      dup2\n        /* \"#utility.yul\":12935:12955   */\n      sub\n        /* \"#utility.yul\":12931:12932   */\n      0x00\n        /* \"#utility.yul\":12920:12929   */\n      dup4\n        /* \"#utility.yul\":12916:12933   */\n      add\n        /* \"#utility.yul\":12909:12956   */\n      mstore\n        /* \"#utility.yul\":12973:13104   */\n      tag_617\n        /* \"#utility.yul\":13099:13103   */\n      dup2\n        /* \"#utility.yul\":12973:13104   */\n      tag_470\n      jump\t// in\n    tag_617:\n        /* \"#utility.yul\":12965:13104   */\n      swap1\n      pop\n        /* \"#utility.yul\":12692:13111   */\n      swap2\n      swap1\n      pop\n      jump\t// out\n        /* \"#utility.yul\":13117:13279   */\n    tag_471:\n        /* \"#utility.yul\":13257:13271   */\n      0x496e76616c6964204d6f64650000000000000000000000000000000000000000\n        /* \"#utility.yul\":13253:13254   */\n      0x00\n        /* \"#utility.yul\":13245:13251   */\n      dup3\n        /* \"#utility.yul\":13241:13255   */\n      add\n        /* \"#utility.yul\":13234:13272   */\n      mstore\n        /* \"#utility.yul\":13117:13279   */\n      pop\n      jump\t// out\n        /* \"#utility.yul\":13285:13651   */\n    tag_472:\n        /* \"#utility.yul\":13427:13430   */\n      0x00\n        /* \"#utility.yul\":13448:13515   */\n      tag_620\n        /* \"#utility.yul\":13512:13514   */\n      0x0c\n        /* \"#utility.yul\":13507:13510   */\n      dup4\n        /* \"#utility.yul\":13448:13515   */\n      tag_452\n      jump\t// in\n    tag_620:\n        /* \"#utility.yul\":13441:13515   */\n      swap2\n      pop\n        /* \"#utility.yul\":13524:13617   */\n      tag_621\n        /* \"#utility.yul\":13613:13616   */\n      dup3\n        /* \"#utility.yul\":13524:13617   */\n      tag_471\n      jump\t// in\n    tag_621:\n        /* \"#utility.yul\":13642:13644   */\n      0x20\n        /* \"#utility.yul\":13637:13640   */\n      dup3\n        /* \"#utility.yul\":13633:13645   */\n      add\n        /* \"#utility.yul\":13626:13645   */\n      swap1\n      pop\n        /* \"#utility.yul\":13285:13651   */\n      swap2\n      swap1\n      pop\n      jump\t// out\n        /* \"#utility.yul\":13657:14076   */\n    tag_248:\n        /* \"#utility.yul\":13823:13827   */\n      0x00\n        /* \"#utility.yul\":13861:13863   */\n      0x20\n        /* \"#utility.yul\":13850:13859   */\n      dup3\n        /* \"#utility.yul\":13846:13864   */\n      add\n        /* \"#utility.yul\":13838:13864   */\n      swap1\n      pop\n        /* \"#utility.yul\":13910:13919   */\n      dup2\n        /* \"#utility.yul\":13904:13908   */\n      dup2\n        /* \"#utility.yul\":13900:13920   */\n      sub\n        /* \"#utility.yul\":13896:13897   */\n      0x00\n        /* \"#utility.yul\":13885:13894   */\n      dup4\n        /* \"#utility.yul\":13881:13898   */\n      add\n        /* \"#utility.yul\":13874:13921   */\n      mstore\n        /* \"#utility.yul\":13938:14069   */\n      tag_623\n        /* \"#utility.yul\":14064:14068   */\n      dup2\n        /* \"#utility.yul\":13938:14069   */\n      tag_472\n      jump\t// in\n    tag_623:\n        /* \"#utility.yul\":13930:14069   */\n      swap1\n      pop\n        /* \"#utility.yul\":13657:14076   */\n      swap2\n      swap1\n      pop\n      jump\t// out\n        /* \"#utility.yul\":14082:14255   */\n    tag_473:\n        /* \"#utility.yul\":14222:14247   */\n      0x496e76616c6964204c6f636b7570204475726174696f6e000000000000000000\n        /* \"#utility.yul\":14218:14219   */\n      0x00\n        /* \"#utility.yul\":14210:14216   */\n      dup3\n        /* \"#utility.yul\":14206:14220   */\n      add\n        /* \"#utility.yul\":14199:14248   */\n      mstore\n        /* \"#utility.yul\":14082:14255   */\n      pop\n      jump\t// out\n        /* \"#utility.yul\":14261:14627   */\n    tag_474:\n        /* \"#utility.yul\":14403:14406   */\n      0x00\n        /* \"#utility.yul\":14424:14491   */\n      tag_626\n        /* \"#utility.yul\":14488:14490   */\n      0x17\n        /* \"#utility.yul\":14483:14486   */\n      dup4\n        /* \"#utility.yul\":14424:14491   */\n      tag_452\n      jump\t// in\n    tag_626:\n        /* \"#utility.yul\":14417:14491   */\n      swap2\n      pop\n        /* \"#utility.yul\":14500:14593   */\n      tag_627\n        /* \"#utility.yul\":14589:14592   */\n      dup3\n        /* \"#utility.yul\":14500:14593   */\n      tag_473\n      jump\t// in\n    tag_627:\n        /* \"#utility.yul\":14618:14620   */\n      0x20\n        /* \"#utility.yul\":14613:14616   */\n      dup3\n        /* \"#utility.yul\":14609:14621   */\n      add\n        /* \"#utility.yul\":14602:14621   */\n      swap1\n      pop\n        /* \"#utility.yul\":14261:14627   */\n      swap2\n      swap1\n      pop\n      jump\t// out\n        /* \"#utility.yul\":14633:15052   */\n    tag_261:\n        /* \"#utility.yul\":14799:14803   */\n      0x00\n        /* \"#utility.yul\":14837:14839   */\n      0x20\n        /* \"#utility.yul\":14826:14835   */\n      dup3\n        /* \"#utility.yul\":14822:14840   */\n      add\n        /* \"#utility.yul\":14814:14840   */\n      swap1\n      pop\n        /* \"#utility.yul\":14886:14895   */\n      dup2\n        /* \"#utility.yul\":14880:14884   */\n      dup2\n        /* \"#utility.yul\":14876:14896   */\n      sub\n        /* \"#utility.yul\":14872:14873   */\n      0x00\n        /* \"#utility.yul\":14861:14870   */\n      dup4\n        /* \"#utility.yul\":14857:14874   */\n      add\n        /* \"#utility.yul\":14850:14897   */\n      mstore\n        /* \"#utility.yul\":14914:15045   */\n      tag_629\n        /* \"#utility.yul\":15040:15044   */\n      dup2\n        /* \"#utility.yul\":14914:15045   */\n      tag_474\n      jump\t// in\n    tag_629:\n        /* \"#utility.yul\":14906:15045   */\n      swap1\n      pop\n        /* \"#utility.yul\":14633:15052   */\n      swap2\n      swap1\n      pop\n      jump\t// out\n        /* \"#utility.yul\":15058:15238   */\n    tag_475:\n        /* \"#utility.yul\":15106:15183   */\n      0x4e487b7100000000000000000000000000000000000000000000000000000000\n        /* \"#utility.yul\":15103:15104   */\n      0x00\n        /* \"#utility.yul\":15096:15184   */\n      mstore\n        /* \"#utility.yul\":15203:15207   */\n      0x11\n        /* \"#utility.yul\":15200:15201   */\n      0x04\n        /* \"#utility.yul\":15193:15208   */\n      mstore\n        /* \"#utility.yul\":15227:15231   */\n      0x24\n        /* \"#utility.yul\":15224:15225   */\n      0x00\n        /* \"#utility.yul\":15217:15232   */\n      revert\n        /* \"#utility.yul\":15244:15549   */\n    tag_270:\n        /* \"#utility.yul\":15284:15287   */\n      0x00\n        /* \"#utility.yul\":15303:15323   */\n      tag_632\n        /* \"#utility.yul\":15321:15322   */\n      dup3\n        /* \"#utility.yul\":15303:15323   */\n      tag_435\n      jump\t// in\n    tag_632:\n        /* \"#utility.yul\":15298:15323   */\n      swap2\n      pop\n        /* \"#utility.yul\":15337:15357   */\n      tag_633\n        /* \"#utility.yul\":15355:15356   */\n      dup4\n        /* \"#utility.yul\":15337:15357   */\n      tag_435\n      jump\t// in\n    tag_633:\n        /* \"#utility.yul\":15332:15357   */\n      swap3\n      pop\n        /* \"#utility.yul\":15491:15492   */\n      dup3\n        /* \"#utility.yul\":15423:15489   */\n      0xffffffffffffffffffffffffffffffffffffffffffffffffffffffffffffffff\n        /* \"#utility.yul\":15419:15493   */\n      sub\n        /* \"#utility.yul\":15416:15417   */\n      dup3\n        /* \"#utility.yul\":15413:15494   */\n      gt\n        /* \"#utility.yul\":15410:15517   */\n      iszero\n      tag_634\n      jumpi\n        /* \"#utility.yul\":15497:15515   */\n      tag_635\n      tag_475\n      jump\t// in\n    tag_635:\n        /* \"#utility.yul\":15410:15517   */\n    tag_634:\n        /* \"#utility.yul\":15541:15542   */\n      dup3\n        /* \"#utility.yul\":15538:15539   */\n      dup3\n        /* \"#utility.yul\":15534:15543   */\n      add\n        /* \"#utility.yul\":15527:15543   */\n      swap1\n      pop\n        /* \"#utility.yul\":15244:15549   */\n      swap3\n      swap2\n      pop\n      pop\n      jump\t// out\n        /* \"#utility.yul\":15555:15731   */\n    tag_476:\n        /* \"#utility.yul\":15695:15723   */\n      0x496e76616c696420556e7374616b696e67204665652052617465000000000000\n        /* \"#utility.yul\":15691:15692   */\n      0x00\n        /* \"#utility.yul\":15683:15689   */\n      dup3\n        /* \"#utility.yul\":15679:15693   */\n      add\n        /* \"#utility.yul\":15672:15724   */\n      mstore\n        /* \"#utility.yul\":15555:15731   */\n      pop\n      jump\t// out\n        /* \"#utility.yul\":15737:16103   */\n    tag_477:\n        /* \"#utility.yul\":15879:15882   */\n      0x00\n        /* \"#utility.yul\":15900:15967   */\n      tag_638\n        /* \"#utility.yul\":15964:15966   */\n      0x1a\n        /* \"#utility.yul\":15959:15962   */\n      dup4\n        /* \"#utility.yul\":15900:15967   */\n      tag_452\n      jump\t// in\n    tag_638:\n        /* \"#utility.yul\":15893:15967   */\n      swap2\n      pop\n        /* \"#utility.yul\":15976:16069   */\n      tag_639\n        /* \"#utility.yul\":16065:16068   */\n      dup3\n        /* \"#utility.yul\":15976:16069   */\n      tag_476\n      jump\t// in\n    tag_639:\n        /* \"#utility.yul\":16094:16096   */\n      0x20\n        /* \"#utility.yul\":16089:16092   */\n      dup3\n        /* \"#utility.yul\":16085:16097   */\n      add\n        /* \"#utility.yul\":16078:16097   */\n      swap1\n      pop\n        /* \"#utility.yul\":15737:16103   */\n      swap2\n      swap1\n      pop\n      jump\t// out\n        /* \"#utility.yul\":16109:16528   */\n    tag_299:\n        /* \"#utility.yul\":16275:16279   */\n      0x00\n        /* \"#utility.yul\":16313:16315   */\n      0x20\n        /* \"#utility.yul\":16302:16311   */\n      dup3\n        /* \"#utility.yul\":16298:16316   */\n      add\n        /* \"#utility.yul\":16290:16316   */\n      swap1\n      pop\n        /* \"#utility.yul\":16362:16371   */\n      dup2\n        /* \"#utility.yul\":16356:16360   */\n      dup2\n        /* \"#utility.yul\":16352:16372   */\n      sub\n        /* \"#utility.yul\":16348:16349   */\n      0x00\n        /* \"#utility.yul\":16337:16346   */\n      dup4\n        /* \"#utility.yul\":16333:16350   */\n      add\n        /* \"#utility.yul\":16326:16373   */\n      mstore\n        /* \"#utility.yul\":16390:16521   */\n      tag_641\n        /* \"#utility.yul\":16516:16520   */\n      dup2\n        /* \"#utility.yul\":16390:16521   */\n      tag_477\n      jump\t// in\n    tag_641:\n        /* \"#utility.yul\":16382:16521   */\n      swap1\n      pop\n        /* \"#utility.yul\":16109:16528   */\n      swap2\n      swap1\n      pop\n      jump\t// out\n        /* \"#utility.yul\":16534:16697   */\n    tag_478:\n        /* \"#utility.yul\":16674:16689   */\n      0x496e76616c69642076616c756500000000000000000000000000000000000000\n        /* \"#utility.yul\":16670:16671   */\n      0x00\n        /* \"#utility.yul\":16662:16668   */\n      dup3\n        /* \"#utility.yul\":16658:16672   */\n      add\n        /* \"#utility.yul\":16651:16690   */\n      mstore\n        /* \"#utility.yul\":16534:16697   */\n      pop\n      jump\t// out\n        /* \"#utility.yul\":16703:17069   */\n    tag_479:\n        /* \"#utility.yul\":16845:16848   */\n      0x00\n        /* \"#utility.yul\":16866:16933   */\n      tag_644\n        /* \"#utility.yul\":16930:16932   */\n      0x0d\n        /* \"#utility.yul\":16925:16928   */\n      dup4\n        /* \"#utility.yul\":16866:16933   */\n      tag_452\n      jump\t// in\n    tag_644:\n        /* \"#utility.yul\":16859:16933   */\n      swap2\n      pop\n        /* \"#utility.yul\":16942:17035   */\n      tag_645\n        /* \"#utility.yul\":17031:17034   */\n      dup3\n        /* \"#utility.yul\":16942:17035   */\n      tag_478\n      jump\t// in\n    tag_645:\n        /* \"#utility.yul\":17060:17062   */\n      0x20\n        /* \"#utility.yul\":17055:17058   */\n      dup3\n        /* \"#utility.yul\":17051:17063   */\n      add\n        /* \"#utility.yul\":17044:17063   */\n      swap1\n      pop\n        /* \"#utility.yul\":16703:17069   */\n      swap2\n      swap1\n      pop\n      jump\t// out\n        /* \"#utility.yul\":17075:17494   */\n    tag_309:\n        /* \"#utility.yul\":17241:17245   */\n      0x00\n        /* \"#utility.yul\":17279:17281   */\n      0x20\n        /* \"#utility.yul\":17268:17277   */\n      dup3\n        /* \"#utility.yul\":17264:17282   */\n      add\n        /* \"#utility.yul\":17256:17282   */\n      swap1\n      pop\n        /* \"#utility.yul\":17328:17337   */\n      dup2\n        /* \"#utility.yul\":17322:17326   */\n      dup2\n        /* \"#utility.yul\":17318:17338   */\n      sub\n        /* \"#utility.yul\":17314:17315   */\n      0x00\n        /* \"#utility.yul\":17303:17312   */\n      dup4\n        /* \"#utility.yul\":17299:17316   */\n      add\n        /* \"#utility.yul\":17292:17339   */\n      mstore\n        /* \"#utility.yul\":17356:17487   */\n      tag_647\n        /* \"#utility.yul\":17482:17486   */\n      dup2\n        /* \"#utility.yul\":17356:17487   */\n      tag_479\n      jump\t// in\n    tag_647:\n        /* \"#utility.yul\":17348:17487   */\n      swap1\n      pop\n        /* \"#utility.yul\":17075:17494   */\n      swap2\n      swap1\n      pop\n      jump\t// out\n        /* \"#utility.yul\":17500:17671   */\n    tag_480:\n        /* \"#utility.yul\":17640:17663   */\n      0x4572726f723a20696e76616c6964207374616b65720000000000000000000000\n        /* \"#utility.yul\":17636:17637   */\n      0x00\n        /* \"#utility.yul\":17628:17634   */\n      dup3\n        /* \"#utility.yul\":17624:17638   */\n      add\n        /* \"#utility.yul\":17617:17664   */\n      mstore\n        /* \"#utility.yul\":17500:17671   */\n      pop\n      jump\t// out\n        /* \"#utility.yul\":17677:18043   */\n    tag_481:\n        /* \"#utility.yul\":17819:17822   */\n      0x00\n        /* \"#utility.yul\":17840:17907   */\n      tag_650\n        /* \"#utility.yul\":17904:17906   */\n      0x15\n        /* \"#utility.yul\":17899:17902   */\n      dup4\n        /* \"#utility.yul\":17840:17907   */\n      tag_452\n      jump\t// in\n    tag_650:\n        /* \"#utility.yul\":17833:17907   */\n      swap2\n      pop\n        /* \"#utility.yul\":17916:18009   */\n      tag_651\n        /* \"#utility.yul\":18005:18008   */\n      dup3\n        /* \"#utility.yul\":17916:18009   */\n      tag_480\n      jump\t// in\n    tag_651:\n        /* \"#utility.yul\":18034:18036   */\n      0x20\n        /* \"#utility.yul\":18029:18032   */\n      dup3\n        /* \"#utility.yul\":18025:18037   */\n      add\n        /* \"#utility.yul\":18018:18037   */\n      swap1\n      pop\n        /* \"#utility.yul\":17677:18043   */\n      swap2\n      swap1\n      pop\n      jump\t// out\n        /* \"#utility.yul\":18049:18468   */\n    tag_323:\n        /* \"#utility.yul\":18215:18219   */\n      0x00\n        /* \"#utility.yul\":18253:18255   */\n      0x20\n        /* \"#utility.yul\":18242:18251   */\n      dup3\n        /* \"#utility.yul\":18238:18256   */\n      add\n        /* \"#utility.yul\":18230:18256   */\n      swap1\n      pop\n        /* \"#utility.yul\":18302:18311   */\n      dup2\n        /* \"#utility.yul\":18296:18300   */\n      dup2\n        /* \"#utility.yul\":18292:18312   */\n      sub\n        /* \"#utility.yul\":18288:18289   */\n      0x00\n        /* \"#utility.yul\":18277:18286   */\n      dup4\n        /* \"#utility.yul\":18273:18290   */\n      add\n        /* \"#utility.yul\":18266:18313   */\n      mstore\n        /* \"#utility.yul\":18330:18461   */\n      tag_653\n        /* \"#utility.yul\":18456:18460   */\n      dup2\n        /* \"#utility.yul\":18330:18461   */\n      tag_481\n      jump\t// in\n    tag_653:\n        /* \"#utility.yul\":18322:18461   */\n      swap1\n      pop\n        /* \"#utility.yul\":18049:18468   */\n      swap2\n      swap1\n      pop\n      jump\t// out\n        /* \"#utility.yul\":18474:18638   */\n    tag_482:\n        /* \"#utility.yul\":18614:18630   */\n      0x4e6f74207374616b657220796574000000000000000000000000000000000000\n        /* \"#utility.yul\":18610:18611   */\n      0x00\n        /* \"#utility.yul\":18602:18608   */\n      dup3\n        /* \"#utility.yul\":18598:18612   */\n      add\n        /* \"#utility.yul\":18591:18631   */\n      mstore\n        /* \"#utility.yul\":18474:18638   */\n      pop\n      jump\t// out\n        /* \"#utility.yul\":18644:19010   */\n    tag_483:\n        /* \"#utility.yul\":18786:18789   */\n      0x00\n        /* \"#utility.yul\":18807:18874   */\n      tag_656\n        /* \"#utility.yul\":18871:18873   */\n      0x0e\n        /* \"#utility.yul\":18866:18869   */\n      dup4\n        /* \"#utility.yul\":18807:18874   */\n      tag_452\n      jump\t// in\n    tag_656:\n        /* \"#utility.yul\":18800:18874   */\n      swap2\n      pop\n        /* \"#utility.yul\":18883:18976   */\n      tag_657\n        /* \"#utility.yul\":18972:18975   */\n      dup3\n        /* \"#utility.yul\":18883:18976   */\n      tag_482\n      jump\t// in\n    tag_657:\n        /* \"#utility.yul\":19001:19003   */\n      0x20\n        /* \"#utility.yul\":18996:18999   */\n      dup3\n        /* \"#utility.yul\":18992:19004   */\n      add\n        /* \"#utility.yul\":18985:19004   */\n      swap1\n      pop\n        /* \"#utility.yul\":18644:19010   */\n      swap2\n      swap1\n      pop\n      jump\t// out\n        /* \"#utility.yul\":19016:19435   */\n    tag_342:\n        /* \"#utility.yul\":19182:19186   */\n      0x00\n        /* \"#utility.yul\":19220:19222   */\n      0x20\n        /* \"#utility.yul\":19209:19218   */\n      dup3\n        /* \"#utility.yul\":19205:19223   */\n      add\n        /* \"#utility.yul\":19197:19223   */\n      swap1\n      pop\n        /* \"#utility.yul\":19269:19278   */\n      dup2\n        /* \"#utility.yul\":19263:19267   */\n      dup2\n        /* \"#utility.yul\":19259:19279   */\n      sub\n        /* \"#utility.yul\":19255:19256   */\n      0x00\n        /* \"#utility.yul\":19244:19253   */\n      dup4\n        /* \"#utility.yul\":19240:19257   */\n      add\n        /* \"#utility.yul\":19233:19280   */\n      mstore\n        /* \"#utility.yul\":19297:19428   */\n      tag_659\n        /* \"#utility.yul\":19423:19427   */\n      dup2\n        /* \"#utility.yul\":19297:19428   */\n      tag_483\n      jump\t// in\n    tag_659:\n        /* \"#utility.yul\":19289:19428   */\n      swap1\n      pop\n        /* \"#utility.yul\":19016:19435   */\n      swap2\n      swap1\n      pop\n      jump\t// out\n        /* \"#utility.yul\":19441:19666   */\n    tag_484:\n        /* \"#utility.yul\":19581:19615   */\n      0x4f776e61626c653a206e6577206f776e657220697320746865207a65726f2061\n        /* \"#utility.yul\":19577:19578   */\n      0x00\n        /* \"#utility.yul\":19569:19575   */\n      dup3\n        /* \"#utility.yul\":19565:19579   */\n      add\n        /* \"#utility.yul\":19558:19616   */\n      mstore\n        /* \"#utility.yul\":19650:19658   */\n      0x6464726573730000000000000000000000000000000000000000000000000000\n        /* \"#utility.yul\":19645:19647   */\n      0x20\n        /* \"#utility.yul\":19637:19643   */\n      dup3\n        /* \"#utility.yul\":19633:19648   */\n      add\n        /* \"#utility.yul\":19626:19659   */\n      mstore\n        /* \"#utility.yul\":19441:19666   */\n      pop\n      jump\t// out\n        /* \"#utility.yul\":19672:20038   */\n    tag_485:\n        /* \"#utility.yul\":19814:19817   */\n      0x00\n        /* \"#utility.yul\":19835:19902   */\n      tag_662\n        /* \"#utility.yul\":19899:19901   */\n      0x26\n        /* \"#utility.yul\":19894:19897   */\n      dup4\n        /* \"#utility.yul\":19835:19902   */\n      tag_452\n      jump\t// in\n    tag_662:\n        /* \"#utility.yul\":19828:19902   */\n      swap2\n      pop\n        /* \"#utility.yul\":19911:20004   */\n      tag_663\n        /* \"#utility.yul\":20000:20003   */\n      dup3\n        /* \"#utility.yul\":19911:20004   */\n      tag_484\n      jump\t// in\n    tag_663:\n        /* \"#utility.yul\":20029:20031   */\n      0x40\n        /* \"#utility.yul\":20024:20027   */\n      dup3\n        /* \"#utility.yul\":20020:20032   */\n      add\n        /* \"#utility.yul\":20013:20032   */\n      swap1\n      pop\n        /* \"#utility.yul\":19672:20038   */\n      swap2\n      swap1\n      pop\n      jump\t// out\n        /* \"#utility.yul\":20044:20463   */\n    tag_367:\n        /* \"#utility.yul\":20210:20214   */\n      0x00\n        /* \"#utility.yul\":20248:20250   */\n      0x20\n        /* \"#utility.yul\":20237:20246   */\n      dup3\n        /* \"#utility.yul\":20233:20251   */\n      add\n        /* \"#utility.yul\":20225:20251   */\n      swap1\n      pop\n        /* \"#utility.yul\":20297:20306   */\n      dup2\n        /* \"#utility.yul\":20291:20295   */\n      dup2\n        /* \"#utility.yul\":20287:20307   */\n      sub\n        /* \"#utility.yul\":20283:20284   */\n      0x00\n        /* \"#utility.yul\":20272:20281   */\n      dup4\n        /* \"#utility.yul\":20268:20285   */\n      add\n        /* \"#utility.yul\":20261:20308   */\n      mstore\n        /* \"#utility.yul\":20325:20456   */\n      tag_665\n        /* \"#utility.yul\":20451:20455   */\n      dup2\n        /* \"#utility.yul\":20325:20456   */\n      tag_485\n      jump\t// in\n    tag_665:\n        /* \"#utility.yul\":20317:20456   */\n      swap1\n      pop\n        /* \"#utility.yul\":20044:20463   */\n      swap2\n      swap1\n      pop\n      jump\t// out\n        /* \"#utility.yul\":20469:20660   */\n    tag_381:\n        /* \"#utility.yul\":20509:20513   */\n      0x00\n        /* \"#utility.yul\":20529:20549   */\n      tag_667\n        /* \"#utility.yul\":20547:20548   */\n      dup3\n        /* \"#utility.yul\":20529:20549   */\n      tag_435\n      jump\t// in\n    tag_667:\n        /* \"#utility.yul\":20524:20549   */\n      swap2\n      pop\n        /* \"#utility.yul\":20563:20583   */\n      tag_668\n        /* \"#utility.yul\":20581:20582   */\n      dup4\n        /* \"#utility.yul\":20563:20583   */\n      tag_435\n      jump\t// in\n    tag_668:\n        /* \"#utility.yul\":20558:20583   */\n      swap3\n      pop\n        /* \"#utility.yul\":20602:20603   */\n      dup3\n        /* \"#utility.yul\":20599:20600   */\n      dup3\n        /* \"#utility.yul\":20596:20604   */\n      lt\n        /* \"#utility.yul\":20593:20627   */\n      iszero\n      tag_669\n      jumpi\n        /* \"#utility.yul\":20607:20625   */\n      tag_670\n      tag_475\n      jump\t// in\n    tag_670:\n        /* \"#utility.yul\":20593:20627   */\n    tag_669:\n        /* \"#utility.yul\":20652:20653   */\n      dup3\n        /* \"#utility.yul\":20649:20650   */\n      dup3\n        /* \"#utility.yul\":20645:20654   */\n      sub\n        /* \"#utility.yul\":20637:20654   */\n      swap1\n      pop\n        /* \"#utility.yul\":20469:20660   */\n      swap3\n      swap2\n      pop\n      pop\n      jump\t// out\n        /* \"#utility.yul\":20666:20851   */\n    tag_384:\n        /* \"#utility.yul\":20706:20707   */\n      0x00\n        /* \"#utility.yul\":20723:20743   */\n      tag_672\n        /* \"#utility.yul\":20741:20742   */\n      dup3\n        /* \"#utility.yul\":20723:20743   */\n      tag_435\n      jump\t// in\n    tag_672:\n        /* \"#utility.yul\":20718:20743   */\n      swap2\n      pop\n        /* \"#utility.yul\":20757:20777   */\n      tag_673\n        /* \"#utility.yul\":20775:20776   */\n      dup4\n        /* \"#utility.yul\":20757:20777   */\n      tag_435\n      jump\t// in\n    tag_673:\n        /* \"#utility.yul\":20752:20777   */\n      swap3\n      pop\n        /* \"#utility.yul\":20796:20797   */\n      dup3\n        /* \"#utility.yul\":20786:20821   */\n      tag_674\n      jumpi\n        /* \"#utility.yul\":20801:20819   */\n      tag_675\n      tag_461\n      jump\t// in\n    tag_675:\n        /* \"#utility.yul\":20786:20821   */\n    tag_674:\n        /* \"#utility.yul\":20843:20844   */\n      dup3\n        /* \"#utility.yul\":20840:20841   */\n      dup3\n        /* \"#utility.yul\":20836:20845   */\n      div\n        /* \"#utility.yul\":20831:20845   */\n      swap1\n      pop\n        /* \"#utility.yul\":20666:20851   */\n      swap3\n      swap2\n      pop\n      pop\n      jump\t// out\n        /* \"#utility.yul\":20857:21205   */\n    tag_389:\n        /* \"#utility.yul\":20897:20904   */\n      0x00\n        /* \"#utility.yul\":20920:20940   */\n      tag_677\n        /* \"#utility.yul\":20938:20939   */\n      dup3\n        /* \"#utility.yul\":20920:20940   */\n      tag_435\n      jump\t// in\n    tag_677:\n        /* \"#utility.yul\":20915:20940   */\n      swap2\n      pop\n        /* \"#utility.yul\":20954:20974   */\n      tag_678\n        /* \"#utility.yul\":20972:20973   */\n      dup4\n        /* \"#utility.yul\":20954:20974   */\n      tag_435\n      jump\t// in\n    tag_678:\n        /* \"#utility.yul\":20949:20974   */\n      swap3\n      pop\n        /* \"#utility.yul\":21142:21143   */\n      dup2\n        /* \"#utility.yul\":21074:21140   */\n      0xffffffffffffffffffffffffffffffffffffffffffffffffffffffffffffffff\n        /* \"#utility.yul\":21070:21144   */\n      div\n        /* \"#utility.yul\":21067:21068   */\n      dup4\n        /* \"#utility.yul\":21064:21145   */\n      gt\n        /* \"#utility.yul\":21059:21060   */\n      dup3\n        /* \"#utility.yul\":21052:21061   */\n      iszero\n        /* \"#utility.yul\":21045:21062   */\n      iszero\n        /* \"#utility.yul\":21041:21146   */\n      and\n        /* \"#utility.yul\":21038:21169   */\n      iszero\n      tag_679\n      jumpi\n        /* \"#utility.yul\":21149:21167   */\n      tag_680\n      tag_475\n      jump\t// in\n    tag_680:\n        /* \"#utility.yul\":21038:21169   */\n    tag_679:\n        /* \"#utility.yul\":21197:21198   */\n      dup3\n        /* \"#utility.yul\":21194:21195   */\n      dup3\n        /* \"#utility.yul\":21190:21199   */\n      mul\n        /* \"#utility.yul\":21179:21199   */\n      swap1\n      pop\n        /* \"#utility.yul\":20857:21205   */\n      swap3\n      swap2\n      pop\n      pop\n      jump\t// out\n        /* \"#utility.yul\":21211:21653   */\n    tag_398:\n        /* \"#utility.yul\":21360:21364   */\n      0x00\n        /* \"#utility.yul\":21398:21400   */\n      0x60\n        /* \"#utility.yul\":21387:21396   */\n      dup3\n        /* \"#utility.yul\":21383:21401   */\n      add\n        /* \"#utility.yul\":21375:21401   */\n      swap1\n      pop\n        /* \"#utility.yul\":21411:21482   */\n      tag_682\n        /* \"#utility.yul\":21479:21480   */\n      0x00\n        /* \"#utility.yul\":21468:21477   */\n      dup4\n        /* \"#utility.yul\":21464:21481   */\n      add\n        /* \"#utility.yul\":21455:21461   */\n      dup7\n        /* \"#utility.yul\":21411:21482   */\n      tag_446\n      jump\t// in\n    tag_682:\n        /* \"#utility.yul\":21492:21564   */\n      tag_683\n        /* \"#utility.yul\":21560:21562   */\n      0x20\n        /* \"#utility.yul\":21549:21558   */\n      dup4\n        /* \"#utility.yul\":21545:21563   */\n      add\n        /* \"#utility.yul\":21536:21542   */\n      dup6\n        /* \"#utility.yul\":21492:21564   */\n      tag_446\n      jump\t// in\n    tag_683:\n        /* \"#utility.yul\":21574:21646   */\n      tag_684\n        /* \"#utility.yul\":21642:21644   */\n      0x40\n        /* \"#utility.yul\":21631:21640   */\n      dup4\n        /* \"#utility.yul\":21627:21645   */\n      add\n        /* \"#utility.yul\":21618:21624   */\n      dup5\n        /* \"#utility.yul\":21574:21646   */\n      tag_436\n      jump\t// in\n    tag_684:\n        /* \"#utility.yul\":21211:21653   */\n      swap5\n      swap4\n      pop\n      pop\n      pop\n      pop\n      jump\t// out\n        /* \"#utility.yul\":21659:21749   */\n    tag_486:\n        /* \"#utility.yul\":21693:21700   */\n      0x00\n        /* \"#utility.yul\":21736:21741   */\n      dup2\n        /* \"#utility.yul\":21729:21742   */\n      iszero\n        /* \"#utility.yul\":21722:21743   */\n      iszero\n        /* \"#utility.yul\":21711:21743   */\n      swap1\n      pop\n        /* \"#utility.yul\":21659:21749   */\n      swap2\n      swap1\n      pop\n      jump\t// out\n        /* \"#utility.yul\":21755:21871   */\n    tag_487:\n        /* \"#utility.yul\":21825:21846   */\n      tag_687\n        /* \"#utility.yul\":21840:21845   */\n      dup2\n        /* \"#utility.yul\":21825:21846   */\n      tag_486\n      jump\t// in\n    tag_687:\n        /* \"#utility.yul\":21818:21823   */\n      dup2\n        /* \"#utility.yul\":21815:21847   */\n      eq\n        /* \"#utility.yul\":21805:21865   */\n      tag_688\n      jumpi\n        /* \"#utility.yul\":21861:21862   */\n      0x00\n        /* \"#utility.yul\":21858:21859   */\n      dup1\n        /* \"#utility.yul\":21851:21863   */\n      revert\n        /* \"#utility.yul\":21805:21865   */\n    tag_688:\n        /* \"#utility.yul\":21755:21871   */\n      pop\n      jump\t// out\n        /* \"#utility.yul\":21877:22014   */\n    tag_488:\n        /* \"#utility.yul\":21931:21936   */\n      0x00\n        /* \"#utility.yul\":21962:21968   */\n      dup2\n        /* \"#utility.yul\":21956:21969   */\n      mload\n        /* \"#utility.yul\":21947:21969   */\n      swap1\n      pop\n        /* \"#utility.yul\":21978:22008   */\n      tag_690\n        /* \"#utility.yul\":22002:22007   */\n      dup2\n        /* \"#utility.yul\":21978:22008   */\n      tag_487\n      jump\t// in\n    tag_690:\n        /* \"#utility.yul\":21877:22014   */\n      swap3\n      swap2\n      pop\n      pop\n      jump\t// out\n        /* \"#utility.yul\":22020:22365   */\n    tag_404:\n        /* \"#utility.yul\":22087:22093   */\n      0x00\n        /* \"#utility.yul\":22136:22138   */\n      0x20\n        /* \"#utility.yul\":22124:22133   */\n      dup3\n        /* \"#utility.yul\":22115:22122   */\n      dup5\n        /* \"#utility.yul\":22111:22134   */\n      sub\n        /* \"#utility.yul\":22107:22139   */\n      slt\n        /* \"#utility.yul\":22104:22223   */\n      iszero\n      tag_692\n      jumpi\n        /* \"#utility.yul\":22142:22221   */\n      tag_693\n      tag_438\n      jump\t// in\n    tag_693:\n        /* \"#utility.yul\":22104:22223   */\n    tag_692:\n        /* \"#utility.yul\":22262:22263   */\n      0x00\n        /* \"#utility.yul\":22287:22348   */\n      tag_694\n        /* \"#utility.yul\":22340:22347   */\n      dup5\n        /* \"#utility.yul\":22331:22337   */\n      dup3\n        /* \"#utility.yul\":22320:22329   */\n      dup6\n        /* \"#utility.yul\":22316:22338   */\n      add\n        /* \"#utility.yul\":22287:22348   */\n      tag_488\n      jump\t// in\n    tag_694:\n        /* \"#utility.yul\":22277:22348   */\n      swap2\n      pop\n        /* \"#utility.yul\":22233:22358   */\n      pop\n        /* \"#utility.yul\":22020:22365   */\n      swap3\n      swap2\n      pop\n      pop\n      jump\t// out\n        /* \"#utility.yul\":22371:22600   */\n    tag_489:\n        /* \"#utility.yul\":22511:22545   */\n      0x5361666542455032303a204245503230206f7065726174696f6e20646964206e\n        /* \"#utility.yul\":22507:22508   */\n      0x00\n        /* \"#utility.yul\":22499:22505   */\n      dup3\n        /* \"#utility.yul\":22495:22509   */\n      add\n        /* \"#utility.yul\":22488:22546   */\n      mstore\n        /* \"#utility.yul\":22580:22592   */\n      0x6f74207375636365656400000000000000000000000000000000000000000000\n        /* \"#utility.yul\":22575:22577   */\n      0x20\n        /* \"#utility.yul\":22567:22573   */\n      dup3\n        /* \"#utility.yul\":22563:22578   */\n      add\n        /* \"#utility.yul\":22556:22593   */\n      mstore\n        /* \"#utility.yul\":22371:22600   */\n      pop\n      jump\t// out\n        /* \"#utility.yul\":22606:22972   */\n    tag_490:\n        /* \"#utility.yul\":22748:22751   */\n      0x00\n        /* \"#utility.yul\":22769:22836   */\n      tag_697\n        /* \"#utility.yul\":22833:22835   */\n      0x2a\n        /* \"#utility.yul\":22828:22831   */\n      dup4\n        /* \"#utility.yul\":22769:22836   */\n      tag_452\n      jump\t// in\n    tag_697:\n        /* \"#utility.yul\":22762:22836   */\n      swap2\n      pop\n        /* \"#utility.yul\":22845:22938   */\n      tag_698\n        /* \"#utility.yul\":22934:22937   */\n      dup3\n        /* \"#utility.yul\":22845:22938   */\n      tag_489\n      jump\t// in\n    tag_698:\n        /* \"#utility.yul\":22963:22965   */\n      0x40\n        /* \"#utility.yul\":22958:22961   */\n      dup3\n        /* \"#utility.yul\":22954:22966   */\n      add\n        /* \"#utility.yul\":22947:22966   */\n      swap1\n      pop\n        /* \"#utility.yul\":22606:22972   */\n      swap2\n      swap1\n      pop\n      jump\t// out\n        /* \"#utility.yul\":22978:23397   */\n    tag_407:\n        /* \"#utility.yul\":23144:23148   */\n      0x00\n        /* \"#utility.yul\":23182:23184   */\n      0x20\n        /* \"#utility.yul\":23171:23180   */\n      dup3\n        /* \"#utility.yul\":23167:23185   */\n      add\n        /* \"#utility.yul\":23159:23185   */\n      swap1\n      pop\n        /* \"#utility.yul\":23231:23240   */\n      dup2\n        /* \"#utility.yul\":23225:23229   */\n      dup2\n        /* \"#utility.yul\":23221:23241   */\n      sub\n        /* \"#utility.yul\":23217:23218   */\n      0x00\n        /* \"#utility.yul\":23206:23215   */\n      dup4\n        /* \"#utility.yul\":23202:23219   */\n      add\n        /* \"#utility.yul\":23195:23242   */\n      mstore\n        /* \"#utility.yul\":23259:23390   */\n      tag_700\n        /* \"#utility.yul\":23385:23389   */\n      dup2\n        /* \"#utility.yul\":23259:23390   */\n      tag_490\n      jump\t// in\n    tag_700:\n        /* \"#utility.yul\":23251:23390   */\n      swap1\n      pop\n        /* \"#utility.yul\":22978:23397   */\n      swap2\n      swap1\n      pop\n      jump\t// out\n        /* \"#utility.yul\":23403:23628   */\n    tag_491:\n        /* \"#utility.yul\":23543:23577   */\n      0x416464726573733a20696e73756666696369656e742062616c616e636520666f\n        /* \"#utility.yul\":23539:23540   */\n      0x00\n        /* \"#utility.yul\":23531:23537   */\n      dup3\n        /* \"#utility.yul\":23527:23541   */\n      add\n        /* \"#utility.yul\":23520:23578   */\n      mstore\n        /* \"#utility.yul\":23612:23620   */\n      0x722063616c6c0000000000000000000000000000000000000000000000000000\n        /* \"#utility.yul\":23607:23609   */\n      0x20\n        /* \"#utility.yul\":23599:23605   */\n      dup3\n        /* \"#utility.yul\":23595:23610   */\n      add\n        /* \"#utility.yul\":23588:23621   */\n      mstore\n        /* \"#utility.yul\":23403:23628   */\n      pop\n      jump\t// out\n        /* \"#utility.yul\":23634:24000   */\n    tag_492:\n        /* \"#utility.yul\":23776:23779   */\n      0x00\n        /* \"#utility.yul\":23797:23864   */\n      tag_703\n        /* \"#utility.yul\":23861:23863   */\n      0x26\n        /* \"#utility.yul\":23856:23859   */\n      dup4\n        /* \"#utility.yul\":23797:23864   */\n      tag_452\n      jump\t// in\n    tag_703:\n        /* \"#utility.yul\":23790:23864   */\n      swap2\n      pop\n        /* \"#utility.yul\":23873:23966   */\n      tag_704\n        /* \"#utility.yul\":23962:23965   */\n      dup3\n        /* \"#utility.yul\":23873:23966   */\n      tag_491\n      jump\t// in\n    tag_704:\n        /* \"#utility.yul\":23991:23993   */\n      0x40\n        /* \"#utility.yul\":23986:23989   */\n      dup3\n        /* \"#utility.yul\":23982:23994   */\n      add\n        /* \"#utility.yul\":23975:23994   */\n      swap1\n      pop\n        /* \"#utility.yul\":23634:24000   */\n      swap2\n      swap1\n      pop\n      jump\t// out\n        /* \"#utility.yul\":24006:24425   */\n    tag_414:\n        /* \"#utility.yul\":24172:24176   */\n      0x00\n        /* \"#utility.yul\":24210:24212   */\n      0x20\n        /* \"#utility.yul\":24199:24208   */\n      dup3\n        /* \"#utility.yul\":24195:24213   */\n      add\n        /* \"#utility.yul\":24187:24213   */\n      swap1\n      pop\n        /* \"#utility.yul\":24259:24268   */\n      dup2\n        /* \"#utility.yul\":24253:24257   */\n      dup2\n        /* \"#utility.yul\":24249:24269   */\n      sub\n        /* \"#utility.yul\":24245:24246   */\n      0x00\n        /* \"#utility.yul\":24234:24243   */\n      dup4\n        /* \"#utility.yul\":24230:24247   */\n      add\n        /* \"#utility.yul\":24223:24270   */\n      mstore\n        /* \"#utility.yul\":24287:24418   */\n      tag_706\n        /* \"#utility.yul\":24413:24417   */\n      dup2\n        /* \"#utility.yul\":24287:24418   */\n      tag_492\n      jump\t// in\n    tag_706:\n        /* \"#utility.yul\":24279:24418   */\n      swap1\n      pop\n        /* \"#utility.yul\":24006:24425   */\n      swap2\n      swap1\n      pop\n      jump\t// out\n        /* \"#utility.yul\":24431:24610   */\n    tag_493:\n        /* \"#utility.yul\":24571:24602   */\n      0x416464726573733a2063616c6c20746f206e6f6e2d636f6e7472616374000000\n        /* \"#utility.yul\":24567:24568   */\n      0x00\n        /* \"#utility.yul\":24559:24565   */\n      dup3\n        /* \"#utility.yul\":24555:24569   */\n      add\n        /* \"#utility.yul\":24548:24603   */\n      mstore\n        /* \"#utility.yul\":24431:24610   */\n      pop\n      jump\t// out\n        /* \"#utility.yul\":24616:24982   */\n    tag_494:\n        /* \"#utility.yul\":24758:24761   */\n      0x00\n        /* \"#utility.yul\":24779:24846   */\n      tag_709\n        /* \"#utility.yul\":24843:24845   */\n      0x1d\n        /* \"#utility.yul\":24838:24841   */\n      dup4\n        /* \"#utility.yul\":24779:24846   */\n      tag_452\n      jump\t// in\n    tag_709:\n        /* \"#utility.yul\":24772:24846   */\n      swap2\n      pop\n        /* \"#utility.yul\":24855:24948   */\n      tag_710\n        /* \"#utility.yul\":24944:24947   */\n      dup3\n        /* \"#utility.yul\":24855:24948   */\n      tag_493\n      jump\t// in\n    tag_710:\n        /* \"#utility.yul\":24973:24975   */\n      0x20\n        /* \"#utility.yul\":24968:24971   */\n      dup3\n        /* \"#utility.yul\":24964:24976   */\n      add\n        /* \"#utility.yul\":24957:24976   */\n      swap1\n      pop\n        /* \"#utility.yul\":24616:24982   */\n      swap2\n      swap1\n      pop\n      jump\t// out\n        /* \"#utility.yul\":24988:25407   */\n    tag_419:\n        /* \"#utility.yul\":25154:25158   */\n      0x00\n        /* \"#utility.yul\":25192:25194   */\n      0x20\n        /* \"#utility.yul\":25181:25190   */\n      dup3\n        /* \"#utility.yul\":25177:25195   */\n      add\n        /* \"#utility.yul\":25169:25195   */\n      swap1\n      pop\n        /* \"#utility.yul\":25241:25250   */\n      dup2\n        /* \"#utility.yul\":25235:25239   */\n      dup2\n        /* \"#utility.yul\":25231:25251   */\n      sub\n        /* \"#utility.yul\":25227:25228   */\n      0x00\n        /* \"#utility.yul\":25216:25225   */\n      dup4\n        /* \"#utility.yul\":25212:25229   */\n      add\n        /* \"#utility.yul\":25205:25252   */\n      mstore\n        /* \"#utility.yul\":25269:25400   */\n      tag_712\n        /* \"#utility.yul\":25395:25399   */\n      dup2\n        /* \"#utility.yul\":25269:25400   */\n      tag_494\n      jump\t// in\n    tag_712:\n        /* \"#utility.yul\":25261:25400   */\n      swap1\n      pop\n        /* \"#utility.yul\":24988:25407   */\n      swap2\n      swap1\n      pop\n      jump\t// out\n        /* \"#utility.yul\":25413:25511   */\n    tag_495:\n        /* \"#utility.yul\":25464:25470   */\n      0x00\n        /* \"#utility.yul\":25498:25503   */\n      dup2\n        /* \"#utility.yul\":25492:25504   */\n      mload\n        /* \"#utility.yul\":25482:25504   */\n      swap1\n      pop\n        /* \"#utility.yul\":25413:25511   */\n      swap2\n      swap1\n      pop\n      jump\t// out\n        /* \"#utility.yul\":25517:25664   */\n    tag_496:\n        /* \"#utility.yul\":25618:25629   */\n      0x00\n        /* \"#utility.yul\":25655:25658   */\n      dup2\n        /* \"#utility.yul\":25640:25658   */\n      swap1\n      pop\n        /* \"#utility.yul\":25517:25664   */\n      swap3\n      swap2\n      pop\n      pop\n      jump\t// out\n        /* \"#utility.yul\":25670:25977   */\n    tag_497:\n        /* \"#utility.yul\":25738:25739   */\n      0x00\n        /* \"#utility.yul\":25748:25861   */\n    tag_716:\n        /* \"#utility.yul\":25762:25768   */\n      dup4\n        /* \"#utility.yul\":25759:25760   */\n      dup2\n        /* \"#utility.yul\":25756:25769   */\n      lt\n        /* \"#utility.yul\":25748:25861   */\n      iszero\n      tag_718\n      jumpi\n        /* \"#utility.yul\":25847:25848   */\n      dup1\n        /* \"#utility.yul\":25842:25845   */\n      dup3\n        /* \"#utility.yul\":25838:25849   */\n      add\n        /* \"#utility.yul\":25832:25850   */\n      mload\n        /* \"#utility.yul\":25828:25829   */\n      dup2\n        /* \"#utility.yul\":25823:25826   */\n      dup5\n        /* \"#utility.yul\":25819:25830   */\n      add\n        /* \"#utility.yul\":25812:25851   */\n      mstore\n        /* \"#utility.yul\":25784:25786   */\n      0x20\n        /* \"#utility.yul\":25781:25782   */\n      dup2\n        /* \"#utility.yul\":25777:25787   */\n      add\n        /* \"#utility.yul\":25772:25787   */\n      swap1\n      pop\n        /* \"#utility.yul\":25748:25861   */\n      jump(tag_716)\n    tag_718:\n        /* \"#utility.yul\":25879:25885   */\n      dup4\n        /* \"#utility.yul\":25876:25877   */\n      dup2\n        /* \"#utility.yul\":25873:25886   */\n      gt\n        /* \"#utility.yul\":25870:25971   */\n      iszero\n      tag_719\n      jumpi\n        /* \"#utility.yul\":25959:25960   */\n      0x00\n        /* \"#utility.yul\":25950:25956   */\n      dup5\n        /* \"#utility.yul\":25945:25948   */\n      dup5\n        /* \"#utility.yul\":25941:25957   */\n      add\n        /* \"#utility.yul\":25934:25961   */\n      mstore\n        /* \"#utility.yul\":25870:25971   */\n    tag_719:\n        /* \"#utility.yul\":25719:25977   */\n      pop\n        /* \"#utility.yul\":25670:25977   */\n      pop\n      pop\n      pop\n      jump\t// out\n        /* \"#utility.yul\":25983:26356   */\n    tag_498:\n        /* \"#utility.yul\":26087:26090   */\n      0x00\n        /* \"#utility.yul\":26115:26153   */\n      tag_721\n        /* \"#utility.yul\":26147:26152   */\n      dup3\n        /* \"#utility.yul\":26115:26153   */\n      tag_495\n      jump\t// in\n    tag_721:\n        /* \"#utility.yul\":26169:26257   */\n      tag_722\n        /* \"#utility.yul\":26250:26256   */\n      dup2\n        /* \"#utility.yul\":26245:26248   */\n      dup6\n        /* \"#utility.yul\":26169:26257   */\n      tag_496\n      jump\t// in\n    tag_722:\n        /* \"#utility.yul\":26162:26257   */\n      swap4\n      pop\n        /* \"#utility.yul\":26266:26318   */\n      tag_723\n        /* \"#utility.yul\":26311:26317   */\n      dup2\n        /* \"#utility.yul\":26306:26309   */\n      dup6\n        /* \"#utility.yul\":26299:26303   */\n      0x20\n        /* \"#utility.yul\":26292:26297   */\n      dup7\n        /* \"#utility.yul\":26288:26304   */\n      add\n        /* \"#utility.yul\":26266:26318   */\n      tag_497\n      jump\t// in\n    tag_723:\n        /* \"#utility.yul\":26343:26349   */\n      dup1\n        /* \"#utility.yul\":26338:26341   */\n      dup5\n        /* \"#utility.yul\":26334:26350   */\n      add\n        /* \"#utility.yul\":26327:26350   */\n      swap2\n      pop\n        /* \"#utility.yul\":26091:26356   */\n      pop\n        /* \"#utility.yul\":25983:26356   */\n      swap3\n      swap2\n      pop\n      pop\n      jump\t// out\n        /* \"#utility.yul\":26362:26633   */\n    tag_421:\n        /* \"#utility.yul\":26492:26495   */\n      0x00\n        /* \"#utility.yul\":26514:26607   */\n      tag_725\n        /* \"#utility.yul\":26603:26606   */\n      dup3\n        /* \"#utility.yul\":26594:26600   */\n      dup5\n        /* \"#utility.yul\":26514:26607   */\n      tag_498\n      jump\t// in\n    tag_725:\n        /* \"#utility.yul\":26507:26607   */\n      swap2\n      pop\n        /* \"#utility.yul\":26624:26627   */\n      dup2\n        /* \"#utility.yul\":26617:26627   */\n      swap1\n      pop\n        /* \"#utility.yul\":26362:26633   */\n      swap3\n      swap2\n      pop\n      pop\n      jump\t// out\n        /* \"#utility.yul\":26639:26738   */\n    tag_499:\n        /* \"#utility.yul\":26691:26697   */\n      0x00\n        /* \"#utility.yul\":26725:26730   */\n      dup2\n        /* \"#utility.yul\":26719:26731   */\n      mload\n        /* \"#utility.yul\":26709:26731   */\n      swap1\n      pop\n        /* \"#utility.yul\":26639:26738   */\n      swap2\n      swap1\n      pop\n      jump\t// out\n        /* \"#utility.yul\":26744:26846   */\n    tag_500:\n        /* \"#utility.yul\":26785:26791   */\n      0x00\n        /* \"#utility.yul\":26836:26838   */\n      0x1f\n        /* \"#utility.yul\":26832:26839   */\n      not\n        /* \"#utility.yul\":26827:26829   */\n      0x1f\n        /* \"#utility.yul\":26820:26825   */\n      dup4\n        /* \"#utility.yul\":26816:26830   */\n      add\n        /* \"#utility.yul\":26812:26840   */\n      and\n        /* \"#utility.yul\":26802:26840   */\n      swap1\n      pop\n        /* \"#utility.yul\":26744:26846   */\n      swap2\n      swap1\n      pop\n      jump\t// out\n        /* \"#utility.yul\":26852:27216   */\n    tag_501:\n        /* \"#utility.yul\":26940:26943   */\n      0x00\n        /* \"#utility.yul\":26968:27007   */\n      tag_729\n        /* \"#utility.yul\":27001:27006   */\n      dup3\n        /* \"#utility.yul\":26968:27007   */\n      tag_499\n      jump\t// in\n    tag_729:\n        /* \"#utility.yul\":27023:27094   */\n      tag_730\n        /* \"#utility.yul\":27087:27093   */\n      dup2\n        /* \"#utility.yul\":27082:27085   */\n      dup6\n        /* \"#utility.yul\":27023:27094   */\n      tag_452\n      jump\t// in\n    tag_730:\n        /* \"#utility.yul\":27016:27094   */\n      swap4\n      pop\n        /* \"#utility.yul\":27103:27155   */\n      tag_731\n        /* \"#utility.yul\":27148:27154   */\n      dup2\n        /* \"#utility.yul\":27143:27146   */\n      dup6\n        /* \"#utility.yul\":27136:27140   */\n      0x20\n        /* \"#utility.yul\":27129:27134   */\n      dup7\n        /* \"#utility.yul\":27125:27141   */\n      add\n        /* \"#utility.yul\":27103:27155   */\n      tag_497\n      jump\t// in\n    tag_731:\n        /* \"#utility.yul\":27180:27209   */\n      tag_732\n        /* \"#utility.yul\":27202:27208   */\n      dup2\n        /* \"#utility.yul\":27180:27209   */\n      tag_500\n      jump\t// in\n    tag_732:\n        /* \"#utility.yul\":27175:27178   */\n      dup5\n        /* \"#utility.yul\":27171:27210   */\n      add\n        /* \"#utility.yul\":27164:27210   */\n      swap2\n      pop\n        /* \"#utility.yul\":26944:27216   */\n      pop\n        /* \"#utility.yul\":26852:27216   */\n      swap3\n      swap2\n      pop\n      pop\n      jump\t// out\n        /* \"#utility.yul\":27222:27535   */\n    tag_434:\n        /* \"#utility.yul\":27335:27339   */\n      0x00\n        /* \"#utility.yul\":27373:27375   */\n      0x20\n        /* \"#utility.yul\":27362:27371   */\n      dup3\n        /* \"#utility.yul\":27358:27376   */\n      add\n        /* \"#utility.yul\":27350:27376   */\n      swap1\n      pop\n        /* \"#utility.yul\":27422:27431   */\n      dup2\n        /* \"#utility.yul\":27416:27420   */\n      dup2\n        /* \"#utility.yul\":27412:27432   */\n      sub\n        /* \"#utility.yul\":27408:27409   */\n      0x00\n        /* \"#utility.yul\":27397:27406   */\n      dup4\n        /* \"#utility.yul\":27393:27410   */\n      add\n        /* \"#utility.yul\":27386:27433   */\n      mstore\n        /* \"#utility.yul\":27450:27528   */\n      tag_734\n        /* \"#utility.yul\":27523:27527   */\n      dup2\n        /* \"#utility.yul\":27514:27520   */\n      dup5\n        /* \"#utility.yul\":27450:27528   */\n      tag_501\n      jump\t// in\n    tag_734:\n        /* \"#utility.yul\":27442:27528   */\n      swap1\n      pop\n        /* \"#utility.yul\":27222:27535   */\n      swap3\n      swap2\n      pop\n      pop\n      jump\t// out\n\n    auxdata: 0xa2646970667358221220316c004a6babf22bf8aa5851c0d55d5a2c88950216f1af5f39fcc40a9f1c03db64736f6c63430008090033\n}\n",
				"bytecode": {
					"linkReferences": {},
					"object": "60806040523480156200001157600080fd5b506040516200382138038062003821833981810160405281019062000037919062000259565b620000576200004b620000af60201b60201c565b620000b760201b60201c565b620000676200017b60201b60201c565b80600d60006101000a81548173ffffffffffffffffffffffffffffffffffffffff021916908373ffffffffffffffffffffffffffffffffffffffff160217905550506200028b565b600033905090565b60008060009054906101000a900473ffffffffffffffffffffffffffffffffffffffff169050816000806101000a81548173ffffffffffffffffffffffffffffffffffffffff021916908373ffffffffffffffffffffffffffffffffffffffff1602179055508173ffffffffffffffffffffffffffffffffffffffff168173ffffffffffffffffffffffffffffffffffffffff167f8be0079c531659141344cd1fd0a4f28419497f9722a3daafe3b4186f6b6457e060405160405180910390a35050565b60c86003819055506105dc600181905550606460048190555060076002819055506276a7006005819055506a027b46536c66c8e300000060068190555069d3c21bcecceda10000006009819055506a027b46536c66c8e30000006008819055506a05ca4ec2a79a7f67000000600781905550565b600080fd5b600073ffffffffffffffffffffffffffffffffffffffff82169050919050565b60006200022182620001f4565b9050919050565b620002338162000214565b81146200023f57600080fd5b50565b600081519050620002538162000228565b92915050565b600060208284031215620002725762000271620001ef565b5b6000620002828482850162000242565b91505092915050565b613586806200029b6000396000f3fe608060405234801561001057600080fd5b50600436106101a95760003560e01c8063817b1cd2116100f9578063aedf562b11610097578063f2fde38b11610071578063f2fde38b1461047c578063f993185514610498578063fc0c546a146104c8578063fe600f84146104e6576101a9565b8063aedf562b14610414578063c1704a1414610444578063c665d80e14610460576101a9565b806391e07e7a116100d357806391e07e7a146103a45780639e447fc6146103c0578063a694fc3a146103dc578063ae544943146103f8576101a9565b8063817b1cd2146103385780638da5cb5b14610356578063909f093e14610374576101a9565b80634b77dd9e11610166578063692642e711610140578063692642e7146102c45780636ef32435146102e0578063715018a6146103105780637e1a37861461031a576101a9565b80634b77dd9e1461025a5780635715ec1114610276578063645a8a5614610294576101a9565b80630917e776146101ae57806323b61117146101cc5780632e1a7d4d146101e85780634641257d146102045780634a4fbeec1461020e5780634b62b70b1461023e575b600080fd5b6101b6610516565b6040516101c3919061279a565b60405180910390f35b6101e660048036038101906101e191906127e6565b610520565b005b61020260048036038101906101fd91906127e6565b6105e9565b005b61020c610986565b005b61022860048036038101906102239190612871565b610c89565b604051610235919061279a565b60405180910390f35b610258600480360381019061025391906127e6565b610e2c565b005b610274600480360381019061026f919061289e565b610f0a565b005b61027e61135d565b60405161028b919061279a565b60405180910390f35b6102ae60048036038101906102a99190612871565b61136a565b6040516102bb919061279a565b60405180910390f35b6102de60048036038101906102d991906127e6565b6113b6565b005b6102fa60048036038101906102f59190612871565b6114b6565b604051610307919061279a565b60405180910390f35b6103186115fc565b005b610322611684565b60405161032f919061279a565b60405180910390f35b61034061168e565b60405161034d919061279a565b60405180910390f35b61035e611694565b60405161036b91906128ed565b60405180910390f35b61038e600480360381019061038991906127e6565b6116bd565b60405161039b919061279a565b60405180910390f35b6103be60048036038101906103b991906127e6565b611758565b005b6103da60048036038101906103d591906127e6565b611858565b005b6103f660048036038101906103f191906127e6565b611958565b005b610412600480360381019061040d91906127e6565b611c55565b005b61042e60048036038101906104299190612871565b611d1e565b60405161043b919061279a565b60405180910390f35b61045e600480360381019061045991906127e6565b611db5565b005b61047a600480360381019061047591906127e6565b611e7e565b005b61049660048036038101906104919190612871565b611f47565b005b6104b260048036038101906104ad9190612871565b61203f565b6040516104bf919061279a565b60405180910390f35b6104d061208b565b6040516104dd9190612967565b60405180910390f35b61050060048036038101906104fb9190612871565b6120b1565b60405161050d919061279a565b60405180910390f35b6000600c54905090565b6105286120fd565b73ffffffffffffffffffffffffffffffffffffffff16610546611694565b73ffffffffffffffffffffffffffffffffffffffff161461059c576040517f08c379a0000000000000000000000000000000000000000000000000000000008152600401610593906129df565b60405180910390fd5b600081116105df576040517f08c379a00000000000000000000000000000000000000000000000000000000081526004016105d690612a4b565b60405180910390fd5b8060088190555050565b6000811161062c576040517f08c379a000000000000000000000000000000000000000000000000000000000815260040161062390612ab7565b60405180910390fd5b600b60003373ffffffffffffffffffffffffffffffffffffffff1673ffffffffffffffffffffffffffffffffffffffff168152602001908152602001600020600101548111156106b1576040517f08c379a00000000000000000000000000000000000000000000000000000000081526004016106a890612b23565b60405180910390fd5b6106b9612105565b6000819050600061072a6201518061071c600b60003373ffffffffffffffffffffffffffffffffffffffff1673ffffffffffffffffffffffffffffffffffffffff16815260200190815260200160002060030154426122d990919063ffffffff16565b6122ef90919063ffffffff16565b9050600060649050600080600b60003373ffffffffffffffffffffffffffffffffffffffff1673ffffffffffffffffffffffffffffffffffffffff1681526020019081526020016000206002015414156107dd576107d5600554600b60003373ffffffffffffffffffffffffffffffffffffffff1673ffffffffffffffffffffffffffffffffffffffff1681526020019081526020016000206003015461230590919063ffffffff16565b4210156107fb565b6000600254846107ed9190612b72565b1480156107fa5750600083115b5b9050806108085760015491505b61085d84600b60003373ffffffffffffffffffffffffffffffffffffffff1673ffffffffffffffffffffffffffffffffffffffff168152602001908152602001600020600101546122d990919063ffffffff16565b600b60003373ffffffffffffffffffffffffffffffffffffffff1673ffffffffffffffffffffffffffffffffffffffff168152602001908152602001600020600101819055506108b884600c546122d990919063ffffffff16565b600c819055506108f76108e86127106108da858861231b90919063ffffffff16565b6122ef90919063ffffffff16565b856122d990919063ffffffff16565b93506109463385600d60009054906101000a900473ffffffffffffffffffffffffffffffffffffffff1673ffffffffffffffffffffffffffffffffffffffff166123319092919063ffffffff16565b7f884edad9ce6fa2440d8a54cc123490eb96d2768479d49ff9c7366125a94243643385604051610977929190612ba3565b60405180910390a15050505050565b61098e612105565b6000600b60003373ffffffffffffffffffffffffffffffffffffffff1673ffffffffffffffffffffffffffffffffffffffff1681526020019081526020016000206000015490506000610a12610a036127106109f56004548661231b90919063ffffffff16565b6122ef90919063ffffffff16565b836122d990919063ffffffff16565b905060008111610a57576040517f08c379a0000000000000000000000000000000000000000000000000000000008152600401610a4e90612c18565b60405180910390fd5b600d60009054906101000a900473ffffffffffffffffffffffffffffffffffffffff1673ffffffffffffffffffffffffffffffffffffffff166370a08231306040518263ffffffff1660e01b8152600401610ab291906128ed565b60206040518083038186803b158015610aca57600080fd5b505afa158015610ade573d6000803e3d6000fd5b505050506040513d601f19601f82011682018060405250810190610b029190612c4d565b811115610bb757600d60009054906101000a900473ffffffffffffffffffffffffffffffffffffffff1673ffffffffffffffffffffffffffffffffffffffff166370a08231306040518263ffffffff1660e01b8152600401610b6491906128ed565b60206040518083038186803b158015610b7c57600080fd5b505afa158015610b90573d6000803e3d6000fd5b505050506040513d601f19601f82011682018060405250810190610bb49190612c4d565b90505b610c043382600d60009054906101000a900473ffffffffffffffffffffffffffffffffffffffff1673ffffffffffffffffffffffffffffffffffffffff166123319092919063ffffffff16565b6000600b60003373ffffffffffffffffffffffffffffffffffffffff1673ffffffffffffffffffffffffffffffffffffffff168152602001908152602001600020600001819055507fc9695243a805adb74c91f28311176c65b417e842d5699893cef56d18bfa48cba3382604051610c7d929190612ba3565b60405180910390a15050565b60006037600b60008473ffffffffffffffffffffffffffffffffffffffff1673ffffffffffffffffffffffffffffffffffffffff1681526020019081526020016000206005015414610cde5760009050610e27565b6000600b60008473ffffffffffffffffffffffffffffffffffffffff1673ffffffffffffffffffffffffffffffffffffffff1681526020019081526020016000206002015414610db95760006007610d9662015180610d88600b60008873ffffffffffffffffffffffffffffffffffffffff1673ffffffffffffffffffffffffffffffffffffffff16815260200190815260200160002060030154426122d990919063ffffffff16565b6122ef90919063ffffffff16565b610da09190612b72565b14610dac576001610daf565b60005b60ff169050610e27565b600554610e11600b60008573ffffffffffffffffffffffffffffffffffffffff1673ffffffffffffffffffffffffffffffffffffffff16815260200190815260200160002060030154426122d990919063ffffffff16565b1015610e1e576001610e21565b60005b60ff1690505b919050565b610e346120fd565b73ffffffffffffffffffffffffffffffffffffffff16610e52611694565b73ffffffffffffffffffffffffffffffffffffffff1614610ea8576040517f08c379a0000000000000000000000000000000000000000000000000000000008152600401610e9f906129df565b60405180910390fd5b60008111610eeb576040517f08c379a0000000000000000000000000000000000000000000000000000000008152600401610ee290612a4b565b60405180910390fd5b610f01620151808261231b90919063ffffffff16565b60058190555050565b60008211610f4d576040517f08c379a0000000000000000000000000000000000000000000000000000000008152600401610f4490612ab7565b60405180910390fd5b81600d60009054906101000a900473ffffffffffffffffffffffffffffffffffffffff1673ffffffffffffffffffffffffffffffffffffffff166370a08231336040518263ffffffff1660e01b8152600401610fa991906128ed565b60206040518083038186803b158015610fc157600080fd5b505afa158015610fd5573d6000803e3d6000fd5b505050506040513d601f19601f82011682018060405250810190610ff99190612c4d565b11611039576040517f08c379a000000000000000000000000000000000000000000000000000000000815260040161103090612cc6565b60405180910390fd5b600061104433610c89565b14611084576040517f08c379a000000000000000000000000000000000000000000000000000000000815260040161107b90612d32565b60405180910390fd5b60008114156110d7576006548210156110d2576040517f08c379a00000000000000000000000000000000000000000000000000000000081526004016110c990612d9e565b60405180910390fd5b611217565b600181141561112a57600954821015611125576040517f08c379a000000000000000000000000000000000000000000000000000000000815260040161111c90612d9e565b60405180910390fd5b611216565b600281141561117d57600854821015611178576040517f08c379a000000000000000000000000000000000000000000000000000000000815260040161116f90612d9e565b60405180910390fd5b611215565b60038114156111d0576007548210156111cb576040517f08c379a00000000000000000000000000000000000000000000000000000000081526004016111c290612d9e565b60405180910390fd5b611214565b60008210611213576040517f08c379a000000000000000000000000000000000000000000000000000000000815260040161120a90612e0a565b60405180910390fd5b5b5b5b5b80600b60003373ffffffffffffffffffffffffffffffffffffffff1673ffffffffffffffffffffffffffffffffffffffff1681526020019081526020016000206002018190555042600b60003373ffffffffffffffffffffffffffffffffffffffff1673ffffffffffffffffffffffffffffffffffffffff168152602001908152602001600020600301819055506037600b60003373ffffffffffffffffffffffffffffffffffffffff1673ffffffffffffffffffffffffffffffffffffffff16815260200190815260200160002060050181905550600a339080600181540180825580915050600190039060005260206000200160009091909190916101000a81548173ffffffffffffffffffffffffffffffffffffffff021916908373ffffffffffffffffffffffffffffffffffffffff16021790555061135982611958565b5050565b6000600a80549050905090565b6000600b60008373ffffffffffffffffffffffffffffffffffffffff1673ffffffffffffffffffffffffffffffffffffffff168152602001908152602001600020600001549050919050565b6113be6120fd565b73ffffffffffffffffffffffffffffffffffffffff166113dc611694565b73ffffffffffffffffffffffffffffffffffffffff1614611432576040517f08c379a0000000000000000000000000000000000000000000000000000000008152600401611429906129df565b60405180910390fd5b60008111611475576040517f08c379a000000000000000000000000000000000000000000000000000000000815260040161146c90612e76565b60405180910390fd5b806002819055507f189bda9782663c67a3f95c0aa5455924c711210b00281c60ead2f0dd8dbc924c816040516114ab919061279a565b60405180910390a150565b600080600b60008473ffffffffffffffffffffffffffffffffffffffff1673ffffffffffffffffffffffffffffffffffffffff16815260200190815260200160002060010154905060006115a36127106115956003546115876115786121c061156a600b60008d73ffffffffffffffffffffffffffffffffffffffff1673ffffffffffffffffffffffffffffffffffffffff16815260200190815260200160002060040154436122d990919063ffffffff16565b6122ef90919063ffffffff16565b8761231b90919063ffffffff16565b61231b90919063ffffffff16565b6122ef90919063ffffffff16565b905080600b60003373ffffffffffffffffffffffffffffffffffffffff1673ffffffffffffffffffffffffffffffffffffffff168152602001908152602001600020600001546115f39190612ec5565b92505050919050565b6116046120fd565b73ffffffffffffffffffffffffffffffffffffffff16611622611694565b73ffffffffffffffffffffffffffffffffffffffff1614611678576040517f08c379a000000000000000000000000000000000000000000000000000000000815260040161166f906129df565b60405180910390fd5b61168260006123b7565b565b6000600354905090565b600c5481565b60008060009054906101000a900473ffffffffffffffffffffffffffffffffffffffff16905090565b6000806000905060008314806116d35750600283145b156116e257600654905061174f565b60018314156116f557600954905061174e565b600383141561170857600754905061174d565b600160001161174c576040517f08c379a000000000000000000000000000000000000000000000000000000000815260040161174390612e0a565b60405180910390fd5b5b5b5b80915050919050565b6117606120fd565b73ffffffffffffffffffffffffffffffffffffffff1661177e611694565b73ffffffffffffffffffffffffffffffffffffffff16146117d4576040517f08c379a00000000000000000000000000000000000000000000000000000000081526004016117cb906129df565b60405180910390fd5b60008111611817576040517f08c379a000000000000000000000000000000000000000000000000000000000815260040161180e90612f67565b60405180910390fd5b806001819055507f150c688dd7595bf7862b8ab1fe46756450eb7d731037942b3bbc46f3f0e21b818160405161184d919061279a565b60405180910390a150565b6118606120fd565b73ffffffffffffffffffffffffffffffffffffffff1661187e611694565b73ffffffffffffffffffffffffffffffffffffffff16146118d4576040517f08c379a00000000000000000000000000000000000000000000000000000000081526004016118cb906129df565b60405180910390fd5b60008111611917576040517f08c379a000000000000000000000000000000000000000000000000000000000815260040161190e90612fd3565b60405180910390fd5b806003819055507f1946fb78c7ca778b54d82cabaac5ba67cf446f58d0ff1f8ceaebb6150e54e44f8160405161194d919061279a565b60405180910390a150565b6000811161199b576040517f08c379a000000000000000000000000000000000000000000000000000000000815260040161199290612ab7565b60405180910390fd5b80600d60009054906101000a900473ffffffffffffffffffffffffffffffffffffffff1673ffffffffffffffffffffffffffffffffffffffff166370a08231336040518263ffffffff1660e01b81526004016119f791906128ed565b60206040518083038186803b158015611a0f57600080fd5b505afa158015611a23573d6000803e3d6000fd5b505050506040513d601f19601f82011682018060405250810190611a479190612c4d565b11611a87576040517f08c379a0000000000000000000000000000000000000000000000000000000008152600401611a7e90612cc6565b60405180910390fd5b6037600b60003373ffffffffffffffffffffffffffffffffffffffff1673ffffffffffffffffffffffffffffffffffffffff1681526020019081526020016000206005015414611b0c576040517f08c379a0000000000000000000000000000000000000000000000000000000008152600401611b039061303f565b60405180910390fd5b611b14612105565b611b63333083600d60009054906101000a900473ffffffffffffffffffffffffffffffffffffffff1673ffffffffffffffffffffffffffffffffffffffff1661247b909392919063ffffffff16565b611bb881600b60003373ffffffffffffffffffffffffffffffffffffffff1673ffffffffffffffffffffffffffffffffffffffff1681526020019081526020016000206001015461230590919063ffffffff16565b600b60003373ffffffffffffffffffffffffffffffffffffffff1673ffffffffffffffffffffffffffffffffffffffff16815260200190815260200160002060010181905550611c1381600c5461230590919063ffffffff16565b600c819055507f9e71bc8eea02a63969f509818f2dafb9254532904319f9dbda79b67bd34a5f3d3382604051611c4a929190612ba3565b60405180910390a150565b611c5d6120fd565b73ffffffffffffffffffffffffffffffffffffffff16611c7b611694565b73ffffffffffffffffffffffffffffffffffffffff1614611cd1576040517f08c379a0000000000000000000000000000000000000000000000000000000008152600401611cc8906129df565b60405180910390fd5b60008111611d14576040517f08c379a0000000000000000000000000000000000000000000000000000000008152600401611d0b90612a4b565b60405180910390fd5b8060078190555050565b60006037611d2b836120b1565b14611d6b576040517f08c379a0000000000000000000000000000000000000000000000000000000008152600401611d62906130ab565b60405180910390fd5b600b60008373ffffffffffffffffffffffffffffffffffffffff1673ffffffffffffffffffffffffffffffffffffffff168152602001908152602001600020600201549050919050565b611dbd6120fd565b73ffffffffffffffffffffffffffffffffffffffff16611ddb611694565b73ffffffffffffffffffffffffffffffffffffffff1614611e31576040517f08c379a0000000000000000000000000000000000000000000000000000000008152600401611e28906129df565b60405180910390fd5b60008111611e74576040517f08c379a0000000000000000000000000000000000000000000000000000000008152600401611e6b90612a4b565b60405180910390fd5b8060098190555050565b611e866120fd565b73ffffffffffffffffffffffffffffffffffffffff16611ea4611694565b73ffffffffffffffffffffffffffffffffffffffff1614611efa576040517f08c379a0000000000000000000000000000000000000000000000000000000008152600401611ef1906129df565b60405180910390fd5b60008111611f3d576040517f08c379a0000000000000000000000000000000000000000000000000000000008152600401611f3490612a4b565b60405180910390fd5b8060068190555050565b611f4f6120fd565b73ffffffffffffffffffffffffffffffffffffffff16611f6d611694565b73ffffffffffffffffffffffffffffffffffffffff1614611fc3576040517f08c379a0000000000000000000000000000000000000000000000000000000008152600401611fba906129df565b60405180910390fd5b600073ffffffffffffffffffffffffffffffffffffffff168173ffffffffffffffffffffffffffffffffffffffff161415612033576040517f08c379a000000000000000000000000000000000000000000000000000000000815260040161202a9061313d565b60405180910390fd5b61203c816123b7565b50565b6000600b60008373ffffffffffffffffffffffffffffffffffffffff1673ffffffffffffffffffffffffffffffffffffffff168152602001908152602001600020600101549050919050565b600d60009054906101000a900473ffffffffffffffffffffffffffffffffffffffff1681565b6000600b60008373ffffffffffffffffffffffffffffffffffffffff1673ffffffffffffffffffffffffffffffffffffffff168152602001908152602001600020600501549050919050565b600033905090565b6000600b60003373ffffffffffffffffffffffffffffffffffffffff1673ffffffffffffffffffffffffffffffffffffffff16815260200190815260200160002060010154905060006121f16127106121e36003546121d56121c66121c06121b8600b60003373ffffffffffffffffffffffffffffffffffffffff1673ffffffffffffffffffffffffffffffffffffffff16815260200190815260200160002060040154436122d990919063ffffffff16565b6122ef90919063ffffffff16565b8761231b90919063ffffffff16565b61231b90919063ffffffff16565b6122ef90919063ffffffff16565b905061224881600b60003373ffffffffffffffffffffffffffffffffffffffff1673ffffffffffffffffffffffffffffffffffffffff1681526020019081526020016000206000015461230590919063ffffffff16565b600b60003373ffffffffffffffffffffffffffffffffffffffff1673ffffffffffffffffffffffffffffffffffffffff1681526020019081526020016000206000018190555043600b60003373ffffffffffffffffffffffffffffffffffffffff1673ffffffffffffffffffffffffffffffffffffffff168152602001908152602001600020600401819055505050565b600081836122e7919061315d565b905092915050565b600081836122fd9190613191565b905092915050565b600081836123139190612ec5565b905092915050565b6000818361232991906131c2565b905092915050565b6123b28363a9059cbb60e01b8484604051602401612350929190612ba3565b604051602081830303815290604052907bffffffffffffffffffffffffffffffffffffffffffffffffffffffff19166020820180517bffffffffffffffffffffffffffffffffffffffffffffffffffffffff8381831617835250505050612504565b505050565b60008060009054906101000a900473ffffffffffffffffffffffffffffffffffffffff169050816000806101000a81548173ffffffffffffffffffffffffffffffffffffffff021916908373ffffffffffffffffffffffffffffffffffffffff1602179055508173ffffffffffffffffffffffffffffffffffffffff168173ffffffffffffffffffffffffffffffffffffffff167f8be0079c531659141344cd1fd0a4f28419497f9722a3daafe3b4186f6b6457e060405160405180910390a35050565b6124fe846323b872dd60e01b85858560405160240161249c9392919061321c565b604051602081830303815290604052907bffffffffffffffffffffffffffffffffffffffffffffffffffffffff19166020820180517bffffffffffffffffffffffffffffffffffffffffffffffffffffffff8381831617835250505050612504565b50505050565b6000612566826040518060400160405280602081526020017f5361666542455032303a206c6f772d6c6576656c2063616c6c206661696c65648152508573ffffffffffffffffffffffffffffffffffffffff166125cb9092919063ffffffff16565b90506000815111156125c65780806020019051810190612586919061328b565b6125c5576040517f08c379a00000000000000000000000000000000000000000000000000000000081526004016125bc9061332a565b60405180910390fd5b5b505050565b60606125da84846000856125e3565b90509392505050565b606082471015612628576040517f08c379a000000000000000000000000000000000000000000000000000000000815260040161261f906133bc565b60405180910390fd5b612631856126f7565b612670576040517f08c379a000000000000000000000000000000000000000000000000000000000815260040161266790613428565b60405180910390fd5b6000808673ffffffffffffffffffffffffffffffffffffffff16858760405161269991906134c2565b60006040518083038185875af1925050503d80600081146126d6576040519150601f19603f3d011682016040523d82523d6000602084013e6126db565b606091505b50915091506126eb82828661271a565b92505050949350505050565b6000808273ffffffffffffffffffffffffffffffffffffffff163b119050919050565b6060831561272a5782905061277a565b60008351111561273d5782518084602001fd5b816040517f08c379a0000000000000000000000000000000000000000000000000000000008152600401612771919061352e565b60405180910390fd5b9392505050565b6000819050919050565b61279481612781565b82525050565b60006020820190506127af600083018461278b565b92915050565b600080fd5b6127c381612781565b81146127ce57600080fd5b50565b6000813590506127e0816127ba565b92915050565b6000602082840312156127fc576127fb6127b5565b5b600061280a848285016127d1565b91505092915050565b600073ffffffffffffffffffffffffffffffffffffffff82169050919050565b600061283e82612813565b9050919050565b61284e81612833565b811461285957600080fd5b50565b60008135905061286b81612845565b92915050565b600060208284031215612887576128866127b5565b5b60006128958482850161285c565b91505092915050565b600080604083850312156128b5576128b46127b5565b5b60006128c3858286016127d1565b92505060206128d4858286016127d1565b9150509250929050565b6128e781612833565b82525050565b600060208201905061290260008301846128de565b92915050565b6000819050919050565b600061292d61292861292384612813565b612908565b612813565b9050919050565b600061293f82612912565b9050919050565b600061295182612934565b9050919050565b61296181612946565b82525050565b600060208201905061297c6000830184612958565b92915050565b600082825260208201905092915050565b7f4f776e61626c653a2063616c6c6572206973206e6f7420746865206f776e6572600082015250565b60006129c9602083612982565b91506129d482612993565b602082019050919050565b600060208201905081810360008301526129f8816129bc565b9050919050565b7f43616e2774206265207a65726f00000000000000000000000000000000000000600082015250565b6000612a35600d83612982565b9150612a40826129ff565b602082019050919050565b60006020820190508181036000830152612a6481612a28565b9050919050565b7f416d6f756e742073686f756c642062652067726561746572207468616e203000600082015250565b6000612aa1601f83612982565b9150612aac82612a6b565b602082019050919050565b60006020820190508181036000830152612ad081612a94565b9050919050565b7f496e76616c696420616d6f756e74000000000000000000000000000000000000600082015250565b6000612b0d600e83612982565b9150612b1882612ad7565b602082019050919050565b60006020820190508181036000830152612b3c81612b00565b9050919050565b7f4e487b7100000000000000000000000000000000000000000000000000000000600052601260045260246000fd5b6000612b7d82612781565b9150612b8883612781565b925082612b9857612b97612b43565b5b828206905092915050565b6000604082019050612bb860008301856128de565b612bc5602083018461278b565b9392505050565b7f4e6f7468696e6720746f20636c61696d00000000000000000000000000000000600082015250565b6000612c02601083612982565b9150612c0d82612bcc565b602082019050919050565b60006020820190508181036000830152612c3181612bf5565b9050919050565b600081519050612c47816127ba565b92915050565b600060208284031215612c6357612c626127b5565b5b6000612c7184828501612c38565b91505092915050565b7f496e73756666696369656e742100000000000000000000000000000000000000600082015250565b6000612cb0600d83612982565b9150612cbb82612c7a565b602082019050919050565b60006020820190508181036000830152612cdf81612ca3565b9050919050565b7f43616e2774207374617274000000000000000000000000000000000000000000600082015250565b6000612d1c600b83612982565b9150612d2782612ce6565b602082019050919050565b60006020820190508181036000830152612d4b81612d0f565b9050919050565b7f496e73756666696369656e740000000000000000000000000000000000000000600082015250565b6000612d88600c83612982565b9150612d9382612d52565b602082019050919050565b60006020820190508181036000830152612db781612d7b565b9050919050565b7f496e76616c6964204d6f64650000000000000000000000000000000000000000600082015250565b6000612df4600c83612982565b9150612dff82612dbe565b602082019050919050565b60006020820190508181036000830152612e2381612de7565b9050919050565b7f496e76616c6964204c6f636b7570204475726174696f6e000000000000000000600082015250565b6000612e60601783612982565b9150612e6b82612e2a565b602082019050919050565b60006020820190508181036000830152612e8f81612e53565b9050919050565b7f4e487b7100000000000000000000000000000000000000000000000000000000600052601160045260246000fd5b6000612ed082612781565b9150612edb83612781565b9250827fffffffffffffffffffffffffffffffffffffffffffffffffffffffffffffffff03821115612f1057612f0f612e96565b5b828201905092915050565b7f496e76616c696420556e7374616b696e67204665652052617465000000000000600082015250565b6000612f51601a83612982565b9150612f5c82612f1b565b602082019050919050565b60006020820190508181036000830152612f8081612f44565b9050919050565b7f496e76616c69642076616c756500000000000000000000000000000000000000600082015250565b6000612fbd600d83612982565b9150612fc882612f87565b602082019050919050565b60006020820190508181036000830152612fec81612fb0565b9050919050565b7f4572726f723a20696e76616c6964207374616b65720000000000000000000000600082015250565b6000613029601583612982565b915061303482612ff3565b602082019050919050565b600060208201905081810360008301526130588161301c565b9050919050565b7f4e6f74207374616b657220796574000000000000000000000000000000000000600082015250565b6000613095600e83612982565b91506130a08261305f565b602082019050919050565b600060208201905081810360008301526130c481613088565b9050919050565b7f4f776e61626c653a206e6577206f776e657220697320746865207a65726f206160008201527f6464726573730000000000000000000000000000000000000000000000000000602082015250565b6000613127602683612982565b9150613132826130cb565b604082019050919050565b600060208201905081810360008301526131568161311a565b9050919050565b600061316882612781565b915061317383612781565b92508282101561318657613185612e96565b5b828203905092915050565b600061319c82612781565b91506131a783612781565b9250826131b7576131b6612b43565b5b828204905092915050565b60006131cd82612781565b91506131d883612781565b9250817fffffffffffffffffffffffffffffffffffffffffffffffffffffffffffffffff048311821515161561321157613210612e96565b5b828202905092915050565b600060608201905061323160008301866128de565b61323e60208301856128de565b61324b604083018461278b565b949350505050565b60008115159050919050565b61326881613253565b811461327357600080fd5b50565b6000815190506132858161325f565b92915050565b6000602082840312156132a1576132a06127b5565b5b60006132af84828501613276565b91505092915050565b7f5361666542455032303a204245503230206f7065726174696f6e20646964206e60008201527f6f74207375636365656400000000000000000000000000000000000000000000602082015250565b6000613314602a83612982565b915061331f826132b8565b604082019050919050565b6000602082019050818103600083015261334381613307565b9050919050565b7f416464726573733a20696e73756666696369656e742062616c616e636520666f60008201527f722063616c6c0000000000000000000000000000000000000000000000000000602082015250565b60006133a6602683612982565b91506133b18261334a565b604082019050919050565b600060208201905081810360008301526133d581613399565b9050919050565b7f416464726573733a2063616c6c20746f206e6f6e2d636f6e7472616374000000600082015250565b6000613412601d83612982565b915061341d826133dc565b602082019050919050565b6000602082019050818103600083015261344181613405565b9050919050565b600081519050919050565b600081905092915050565b60005b8381101561347c578082015181840152602081019050613461565b8381111561348b576000848401525b50505050565b600061349c82613448565b6134a68185613453565b93506134b681856020860161345e565b80840191505092915050565b60006134ce8284613491565b915081905092915050565b600081519050919050565b6000601f19601f8301169050919050565b6000613500826134d9565b61350a8185612982565b935061351a81856020860161345e565b613523816134e4565b840191505092915050565b6000602082019050818103600083015261354881846134f5565b90509291505056fea2646970667358221220316c004a6babf22bf8aa5851c0d55d5a2c88950216f1af5f39fcc40a9f1c03db64736f6c63430008090033",
					"opcodes": "PUSH1 0x80 PUSH1 0x40 MSTORE CALLVALUE DUP1 ISZERO PUSH3 0x11 JUMPI PUSH1 0x0 DUP1 REVERT JUMPDEST POP PUSH1 0x40 MLOAD PUSH3 0x3821 CODESIZE SUB DUP1 PUSH3 0x3821 DUP4 CODECOPY DUP2 DUP2 ADD PUSH1 0x40 MSTORE DUP2 ADD SWAP1 PUSH3 0x37 SWAP2 SWAP1 PUSH3 0x259 JUMP JUMPDEST PUSH3 0x57 PUSH3 0x4B PUSH3 0xAF PUSH1 0x20 SHL PUSH1 0x20 SHR JUMP JUMPDEST PUSH3 0xB7 PUSH1 0x20 SHL PUSH1 0x20 SHR JUMP JUMPDEST PUSH3 0x67 PUSH3 0x17B PUSH1 0x20 SHL PUSH1 0x20 SHR JUMP JUMPDEST DUP1 PUSH1 0xD PUSH1 0x0 PUSH2 0x100 EXP DUP2 SLOAD DUP2 PUSH20 0xFFFFFFFFFFFFFFFFFFFFFFFFFFFFFFFFFFFFFFFF MUL NOT AND SWAP1 DUP4 PUSH20 0xFFFFFFFFFFFFFFFFFFFFFFFFFFFFFFFFFFFFFFFF AND MUL OR SWAP1 SSTORE POP POP PUSH3 0x28B JUMP JUMPDEST PUSH1 0x0 CALLER SWAP1 POP SWAP1 JUMP JUMPDEST PUSH1 0x0 DUP1 PUSH1 0x0 SWAP1 SLOAD SWAP1 PUSH2 0x100 EXP SWAP1 DIV PUSH20 0xFFFFFFFFFFFFFFFFFFFFFFFFFFFFFFFFFFFFFFFF AND SWAP1 POP DUP2 PUSH1 0x0 DUP1 PUSH2 0x100 EXP DUP2 SLOAD DUP2 PUSH20 0xFFFFFFFFFFFFFFFFFFFFFFFFFFFFFFFFFFFFFFFF MUL NOT AND SWAP1 DUP4 PUSH20 0xFFFFFFFFFFFFFFFFFFFFFFFFFFFFFFFFFFFFFFFF AND MUL OR SWAP1 SSTORE POP DUP2 PUSH20 0xFFFFFFFFFFFFFFFFFFFFFFFFFFFFFFFFFFFFFFFF AND DUP2 PUSH20 0xFFFFFFFFFFFFFFFFFFFFFFFFFFFFFFFFFFFFFFFF AND PUSH32 0x8BE0079C531659141344CD1FD0A4F28419497F9722A3DAAFE3B4186F6B6457E0 PUSH1 0x40 MLOAD PUSH1 0x40 MLOAD DUP1 SWAP2 SUB SWAP1 LOG3 POP POP JUMP JUMPDEST PUSH1 0xC8 PUSH1 0x3 DUP2 SWAP1 SSTORE POP PUSH2 0x5DC PUSH1 0x1 DUP2 SWAP1 SSTORE POP PUSH1 0x64 PUSH1 0x4 DUP2 SWAP1 SSTORE POP PUSH1 0x7 PUSH1 0x2 DUP2 SWAP1 SSTORE POP PUSH3 0x76A700 PUSH1 0x5 DUP2 SWAP1 SSTORE POP PUSH11 0x27B46536C66C8E3000000 PUSH1 0x6 DUP2 SWAP1 SSTORE POP PUSH10 0xD3C21BCECCEDA1000000 PUSH1 0x9 DUP2 SWAP1 SSTORE POP PUSH11 0x27B46536C66C8E3000000 PUSH1 0x8 DUP2 SWAP1 SSTORE POP PUSH11 0x5CA4EC2A79A7F67000000 PUSH1 0x7 DUP2 SWAP1 SSTORE POP JUMP JUMPDEST PUSH1 0x0 DUP1 REVERT JUMPDEST PUSH1 0x0 PUSH20 0xFFFFFFFFFFFFFFFFFFFFFFFFFFFFFFFFFFFFFFFF DUP3 AND SWAP1 POP SWAP2 SWAP1 POP JUMP JUMPDEST PUSH1 0x0 PUSH3 0x221 DUP3 PUSH3 0x1F4 JUMP JUMPDEST SWAP1 POP SWAP2 SWAP1 POP JUMP JUMPDEST PUSH3 0x233 DUP2 PUSH3 0x214 JUMP JUMPDEST DUP2 EQ PUSH3 0x23F JUMPI PUSH1 0x0 DUP1 REVERT JUMPDEST POP JUMP JUMPDEST PUSH1 0x0 DUP2 MLOAD SWAP1 POP PUSH3 0x253 DUP2 PUSH3 0x228 JUMP JUMPDEST SWAP3 SWAP2 POP POP JUMP JUMPDEST PUSH1 0x0 PUSH1 0x20 DUP3 DUP5 SUB SLT ISZERO PUSH3 0x272 JUMPI PUSH3 0x271 PUSH3 0x1EF JUMP JUMPDEST JUMPDEST PUSH1 0x0 PUSH3 0x282 DUP5 DUP3 DUP6 ADD PUSH3 0x242 JUMP JUMPDEST SWAP2 POP POP SWAP3 SWAP2 POP POP JUMP JUMPDEST PUSH2 0x3586 DUP1 PUSH3 0x29B PUSH1 0x0 CODECOPY PUSH1 0x0 RETURN INVALID PUSH1 0x80 PUSH1 0x40 MSTORE CALLVALUE DUP1 ISZERO PUSH2 0x10 JUMPI PUSH1 0x0 DUP1 REVERT JUMPDEST POP PUSH1 0x4 CALLDATASIZE LT PUSH2 0x1A9 JUMPI PUSH1 0x0 CALLDATALOAD PUSH1 0xE0 SHR DUP1 PUSH4 0x817B1CD2 GT PUSH2 0xF9 JUMPI DUP1 PUSH4 0xAEDF562B GT PUSH2 0x97 JUMPI DUP1 PUSH4 0xF2FDE38B GT PUSH2 0x71 JUMPI DUP1 PUSH4 0xF2FDE38B EQ PUSH2 0x47C JUMPI DUP1 PUSH4 0xF9931855 EQ PUSH2 0x498 JUMPI DUP1 PUSH4 0xFC0C546A EQ PUSH2 0x4C8 JUMPI DUP1 PUSH4 0xFE600F84 EQ PUSH2 0x4E6 JUMPI PUSH2 0x1A9 JUMP JUMPDEST DUP1 PUSH4 0xAEDF562B EQ PUSH2 0x414 JUMPI DUP1 PUSH4 0xC1704A14 EQ PUSH2 0x444 JUMPI DUP1 PUSH4 0xC665D80E EQ PUSH2 0x460 JUMPI PUSH2 0x1A9 JUMP JUMPDEST DUP1 PUSH4 0x91E07E7A GT PUSH2 0xD3 JUMPI DUP1 PUSH4 0x91E07E7A EQ PUSH2 0x3A4 JUMPI DUP1 PUSH4 0x9E447FC6 EQ PUSH2 0x3C0 JUMPI DUP1 PUSH4 0xA694FC3A EQ PUSH2 0x3DC JUMPI DUP1 PUSH4 0xAE544943 EQ PUSH2 0x3F8 JUMPI PUSH2 0x1A9 JUMP JUMPDEST DUP1 PUSH4 0x817B1CD2 EQ PUSH2 0x338 JUMPI DUP1 PUSH4 0x8DA5CB5B EQ PUSH2 0x356 JUMPI DUP1 PUSH4 0x909F093E EQ PUSH2 0x374 JUMPI PUSH2 0x1A9 JUMP JUMPDEST DUP1 PUSH4 0x4B77DD9E GT PUSH2 0x166 JUMPI DUP1 PUSH4 0x692642E7 GT PUSH2 0x140 JUMPI DUP1 PUSH4 0x692642E7 EQ PUSH2 0x2C4 JUMPI DUP1 PUSH4 0x6EF32435 EQ PUSH2 0x2E0 JUMPI DUP1 PUSH4 0x715018A6 EQ PUSH2 0x310 JUMPI DUP1 PUSH4 0x7E1A3786 EQ PUSH2 0x31A JUMPI PUSH2 0x1A9 JUMP JUMPDEST DUP1 PUSH4 0x4B77DD9E EQ PUSH2 0x25A JUMPI DUP1 PUSH4 0x5715EC11 EQ PUSH2 0x276 JUMPI DUP1 PUSH4 0x645A8A56 EQ PUSH2 0x294 JUMPI PUSH2 0x1A9 JUMP JUMPDEST DUP1 PUSH4 0x917E776 EQ PUSH2 0x1AE JUMPI DUP1 PUSH4 0x23B61117 EQ PUSH2 0x1CC JUMPI DUP1 PUSH4 0x2E1A7D4D EQ PUSH2 0x1E8 JUMPI DUP1 PUSH4 0x4641257D EQ PUSH2 0x204 JUMPI DUP1 PUSH4 0x4A4FBEEC EQ PUSH2 0x20E JUMPI DUP1 PUSH4 0x4B62B70B EQ PUSH2 0x23E JUMPI JUMPDEST PUSH1 0x0 DUP1 REVERT JUMPDEST PUSH2 0x1B6 PUSH2 0x516 JUMP JUMPDEST PUSH1 0x40 MLOAD PUSH2 0x1C3 SWAP2 SWAP1 PUSH2 0x279A JUMP JUMPDEST PUSH1 0x40 MLOAD DUP1 SWAP2 SUB SWAP1 RETURN JUMPDEST PUSH2 0x1E6 PUSH1 0x4 DUP1 CALLDATASIZE SUB DUP2 ADD SWAP1 PUSH2 0x1E1 SWAP2 SWAP1 PUSH2 0x27E6 JUMP JUMPDEST PUSH2 0x520 JUMP JUMPDEST STOP JUMPDEST PUSH2 0x202 PUSH1 0x4 DUP1 CALLDATASIZE SUB DUP2 ADD SWAP1 PUSH2 0x1FD SWAP2 SWAP1 PUSH2 0x27E6 JUMP JUMPDEST PUSH2 0x5E9 JUMP JUMPDEST STOP JUMPDEST PUSH2 0x20C PUSH2 0x986 JUMP JUMPDEST STOP JUMPDEST PUSH2 0x228 PUSH1 0x4 DUP1 CALLDATASIZE SUB DUP2 ADD SWAP1 PUSH2 0x223 SWAP2 SWAP1 PUSH2 0x2871 JUMP JUMPDEST PUSH2 0xC89 JUMP JUMPDEST PUSH1 0x40 MLOAD PUSH2 0x235 SWAP2 SWAP1 PUSH2 0x279A JUMP JUMPDEST PUSH1 0x40 MLOAD DUP1 SWAP2 SUB SWAP1 RETURN JUMPDEST PUSH2 0x258 PUSH1 0x4 DUP1 CALLDATASIZE SUB DUP2 ADD SWAP1 PUSH2 0x253 SWAP2 SWAP1 PUSH2 0x27E6 JUMP JUMPDEST PUSH2 0xE2C JUMP JUMPDEST STOP JUMPDEST PUSH2 0x274 PUSH1 0x4 DUP1 CALLDATASIZE SUB DUP2 ADD SWAP1 PUSH2 0x26F SWAP2 SWAP1 PUSH2 0x289E JUMP JUMPDEST PUSH2 0xF0A JUMP JUMPDEST STOP JUMPDEST PUSH2 0x27E PUSH2 0x135D JUMP JUMPDEST PUSH1 0x40 MLOAD PUSH2 0x28B SWAP2 SWAP1 PUSH2 0x279A JUMP JUMPDEST PUSH1 0x40 MLOAD DUP1 SWAP2 SUB SWAP1 RETURN JUMPDEST PUSH2 0x2AE PUSH1 0x4 DUP1 CALLDATASIZE SUB DUP2 ADD SWAP1 PUSH2 0x2A9 SWAP2 SWAP1 PUSH2 0x2871 JUMP JUMPDEST PUSH2 0x136A JUMP JUMPDEST PUSH1 0x40 MLOAD PUSH2 0x2BB SWAP2 SWAP1 PUSH2 0x279A JUMP JUMPDEST PUSH1 0x40 MLOAD DUP1 SWAP2 SUB SWAP1 RETURN JUMPDEST PUSH2 0x2DE PUSH1 0x4 DUP1 CALLDATASIZE SUB DUP2 ADD SWAP1 PUSH2 0x2D9 SWAP2 SWAP1 PUSH2 0x27E6 JUMP JUMPDEST PUSH2 0x13B6 JUMP JUMPDEST STOP JUMPDEST PUSH2 0x2FA PUSH1 0x4 DUP1 CALLDATASIZE SUB DUP2 ADD SWAP1 PUSH2 0x2F5 SWAP2 SWAP1 PUSH2 0x2871 JUMP JUMPDEST PUSH2 0x14B6 JUMP JUMPDEST PUSH1 0x40 MLOAD PUSH2 0x307 SWAP2 SWAP1 PUSH2 0x279A JUMP JUMPDEST PUSH1 0x40 MLOAD DUP1 SWAP2 SUB SWAP1 RETURN JUMPDEST PUSH2 0x318 PUSH2 0x15FC JUMP JUMPDEST STOP JUMPDEST PUSH2 0x322 PUSH2 0x1684 JUMP JUMPDEST PUSH1 0x40 MLOAD PUSH2 0x32F SWAP2 SWAP1 PUSH2 0x279A JUMP JUMPDEST PUSH1 0x40 MLOAD DUP1 SWAP2 SUB SWAP1 RETURN JUMPDEST PUSH2 0x340 PUSH2 0x168E JUMP JUMPDEST PUSH1 0x40 MLOAD PUSH2 0x34D SWAP2 SWAP1 PUSH2 0x279A JUMP JUMPDEST PUSH1 0x40 MLOAD DUP1 SWAP2 SUB SWAP1 RETURN JUMPDEST PUSH2 0x35E PUSH2 0x1694 JUMP JUMPDEST PUSH1 0x40 MLOAD PUSH2 0x36B SWAP2 SWAP1 PUSH2 0x28ED JUMP JUMPDEST PUSH1 0x40 MLOAD DUP1 SWAP2 SUB SWAP1 RETURN JUMPDEST PUSH2 0x38E PUSH1 0x4 DUP1 CALLDATASIZE SUB DUP2 ADD SWAP1 PUSH2 0x389 SWAP2 SWAP1 PUSH2 0x27E6 JUMP JUMPDEST PUSH2 0x16BD JUMP JUMPDEST PUSH1 0x40 MLOAD PUSH2 0x39B SWAP2 SWAP1 PUSH2 0x279A JUMP JUMPDEST PUSH1 0x40 MLOAD DUP1 SWAP2 SUB SWAP1 RETURN JUMPDEST PUSH2 0x3BE PUSH1 0x4 DUP1 CALLDATASIZE SUB DUP2 ADD SWAP1 PUSH2 0x3B9 SWAP2 SWAP1 PUSH2 0x27E6 JUMP JUMPDEST PUSH2 0x1758 JUMP JUMPDEST STOP JUMPDEST PUSH2 0x3DA PUSH1 0x4 DUP1 CALLDATASIZE SUB DUP2 ADD SWAP1 PUSH2 0x3D5 SWAP2 SWAP1 PUSH2 0x27E6 JUMP JUMPDEST PUSH2 0x1858 JUMP JUMPDEST STOP JUMPDEST PUSH2 0x3F6 PUSH1 0x4 DUP1 CALLDATASIZE SUB DUP2 ADD SWAP1 PUSH2 0x3F1 SWAP2 SWAP1 PUSH2 0x27E6 JUMP JUMPDEST PUSH2 0x1958 JUMP JUMPDEST STOP JUMPDEST PUSH2 0x412 PUSH1 0x4 DUP1 CALLDATASIZE SUB DUP2 ADD SWAP1 PUSH2 0x40D SWAP2 SWAP1 PUSH2 0x27E6 JUMP JUMPDEST PUSH2 0x1C55 JUMP JUMPDEST STOP JUMPDEST PUSH2 0x42E PUSH1 0x4 DUP1 CALLDATASIZE SUB DUP2 ADD SWAP1 PUSH2 0x429 SWAP2 SWAP1 PUSH2 0x2871 JUMP JUMPDEST PUSH2 0x1D1E JUMP JUMPDEST PUSH1 0x40 MLOAD PUSH2 0x43B SWAP2 SWAP1 PUSH2 0x279A JUMP JUMPDEST PUSH1 0x40 MLOAD DUP1 SWAP2 SUB SWAP1 RETURN JUMPDEST PUSH2 0x45E PUSH1 0x4 DUP1 CALLDATASIZE SUB DUP2 ADD SWAP1 PUSH2 0x459 SWAP2 SWAP1 PUSH2 0x27E6 JUMP JUMPDEST PUSH2 0x1DB5 JUMP JUMPDEST STOP JUMPDEST PUSH2 0x47A PUSH1 0x4 DUP1 CALLDATASIZE SUB DUP2 ADD SWAP1 PUSH2 0x475 SWAP2 SWAP1 PUSH2 0x27E6 JUMP JUMPDEST PUSH2 0x1E7E JUMP JUMPDEST STOP JUMPDEST PUSH2 0x496 PUSH1 0x4 DUP1 CALLDATASIZE SUB DUP2 ADD SWAP1 PUSH2 0x491 SWAP2 SWAP1 PUSH2 0x2871 JUMP JUMPDEST PUSH2 0x1F47 JUMP JUMPDEST STOP JUMPDEST PUSH2 0x4B2 PUSH1 0x4 DUP1 CALLDATASIZE SUB DUP2 ADD SWAP1 PUSH2 0x4AD SWAP2 SWAP1 PUSH2 0x2871 JUMP JUMPDEST PUSH2 0x203F JUMP JUMPDEST PUSH1 0x40 MLOAD PUSH2 0x4BF SWAP2 SWAP1 PUSH2 0x279A JUMP JUMPDEST PUSH1 0x40 MLOAD DUP1 SWAP2 SUB SWAP1 RETURN JUMPDEST PUSH2 0x4D0 PUSH2 0x208B JUMP JUMPDEST PUSH1 0x40 MLOAD PUSH2 0x4DD SWAP2 SWAP1 PUSH2 0x2967 JUMP JUMPDEST PUSH1 0x40 MLOAD DUP1 SWAP2 SUB SWAP1 RETURN JUMPDEST PUSH2 0x500 PUSH1 0x4 DUP1 CALLDATASIZE SUB DUP2 ADD SWAP1 PUSH2 0x4FB SWAP2 SWAP1 PUSH2 0x2871 JUMP JUMPDEST PUSH2 0x20B1 JUMP JUMPDEST PUSH1 0x40 MLOAD PUSH2 0x50D SWAP2 SWAP1 PUSH2 0x279A JUMP JUMPDEST PUSH1 0x40 MLOAD DUP1 SWAP2 SUB SWAP1 RETURN JUMPDEST PUSH1 0x0 PUSH1 0xC SLOAD SWAP1 POP SWAP1 JUMP JUMPDEST PUSH2 0x528 PUSH2 0x20FD JUMP JUMPDEST PUSH20 0xFFFFFFFFFFFFFFFFFFFFFFFFFFFFFFFFFFFFFFFF AND PUSH2 0x546 PUSH2 0x1694 JUMP JUMPDEST PUSH20 0xFFFFFFFFFFFFFFFFFFFFFFFFFFFFFFFFFFFFFFFF AND EQ PUSH2 0x59C JUMPI PUSH1 0x40 MLOAD PUSH32 0x8C379A000000000000000000000000000000000000000000000000000000000 DUP2 MSTORE PUSH1 0x4 ADD PUSH2 0x593 SWAP1 PUSH2 0x29DF JUMP JUMPDEST PUSH1 0x40 MLOAD DUP1 SWAP2 SUB SWAP1 REVERT JUMPDEST PUSH1 0x0 DUP2 GT PUSH2 0x5DF JUMPI PUSH1 0x40 MLOAD PUSH32 0x8C379A000000000000000000000000000000000000000000000000000000000 DUP2 MSTORE PUSH1 0x4 ADD PUSH2 0x5D6 SWAP1 PUSH2 0x2A4B JUMP JUMPDEST PUSH1 0x40 MLOAD DUP1 SWAP2 SUB SWAP1 REVERT JUMPDEST DUP1 PUSH1 0x8 DUP2 SWAP1 SSTORE POP POP JUMP JUMPDEST PUSH1 0x0 DUP2 GT PUSH2 0x62C JUMPI PUSH1 0x40 MLOAD PUSH32 0x8C379A000000000000000000000000000000000000000000000000000000000 DUP2 MSTORE PUSH1 0x4 ADD PUSH2 0x623 SWAP1 PUSH2 0x2AB7 JUMP JUMPDEST PUSH1 0x40 MLOAD DUP1 SWAP2 SUB SWAP1 REVERT JUMPDEST PUSH1 0xB PUSH1 0x0 CALLER PUSH20 0xFFFFFFFFFFFFFFFFFFFFFFFFFFFFFFFFFFFFFFFF AND PUSH20 0xFFFFFFFFFFFFFFFFFFFFFFFFFFFFFFFFFFFFFFFF AND DUP2 MSTORE PUSH1 0x20 ADD SWAP1 DUP2 MSTORE PUSH1 0x20 ADD PUSH1 0x0 KECCAK256 PUSH1 0x1 ADD SLOAD DUP2 GT ISZERO PUSH2 0x6B1 JUMPI PUSH1 0x40 MLOAD PUSH32 0x8C379A000000000000000000000000000000000000000000000000000000000 DUP2 MSTORE PUSH1 0x4 ADD PUSH2 0x6A8 SWAP1 PUSH2 0x2B23 JUMP JUMPDEST PUSH1 0x40 MLOAD DUP1 SWAP2 SUB SWAP1 REVERT JUMPDEST PUSH2 0x6B9 PUSH2 0x2105 JUMP JUMPDEST PUSH1 0x0 DUP2 SWAP1 POP PUSH1 0x0 PUSH2 0x72A PUSH3 0x15180 PUSH2 0x71C PUSH1 0xB PUSH1 0x0 CALLER PUSH20 0xFFFFFFFFFFFFFFFFFFFFFFFFFFFFFFFFFFFFFFFF AND PUSH20 0xFFFFFFFFFFFFFFFFFFFFFFFFFFFFFFFFFFFFFFFF AND DUP2 MSTORE PUSH1 0x20 ADD SWAP1 DUP2 MSTORE PUSH1 0x20 ADD PUSH1 0x0 KECCAK256 PUSH1 0x3 ADD SLOAD TIMESTAMP PUSH2 0x22D9 SWAP1 SWAP2 SWAP1 PUSH4 0xFFFFFFFF AND JUMP JUMPDEST PUSH2 0x22EF SWAP1 SWAP2 SWAP1 PUSH4 0xFFFFFFFF AND JUMP JUMPDEST SWAP1 POP PUSH1 0x0 PUSH1 0x64 SWAP1 POP PUSH1 0x0 DUP1 PUSH1 0xB PUSH1 0x0 CALLER PUSH20 0xFFFFFFFFFFFFFFFFFFFFFFFFFFFFFFFFFFFFFFFF AND PUSH20 0xFFFFFFFFFFFFFFFFFFFFFFFFFFFFFFFFFFFFFFFF AND DUP2 MSTORE PUSH1 0x20 ADD SWAP1 DUP2 MSTORE PUSH1 0x20 ADD PUSH1 0x0 KECCAK256 PUSH1 0x2 ADD SLOAD EQ ISZERO PUSH2 0x7DD JUMPI PUSH2 0x7D5 PUSH1 0x5 SLOAD PUSH1 0xB PUSH1 0x0 CALLER PUSH20 0xFFFFFFFFFFFFFFFFFFFFFFFFFFFFFFFFFFFFFFFF AND PUSH20 0xFFFFFFFFFFFFFFFFFFFFFFFFFFFFFFFFFFFFFFFF AND DUP2 MSTORE PUSH1 0x20 ADD SWAP1 DUP2 MSTORE PUSH1 0x20 ADD PUSH1 0x0 KECCAK256 PUSH1 0x3 ADD SLOAD PUSH2 0x2305 SWAP1 SWAP2 SWAP1 PUSH4 0xFFFFFFFF AND JUMP JUMPDEST TIMESTAMP LT ISZERO PUSH2 0x7FB JUMP JUMPDEST PUSH1 0x0 PUSH1 0x2 SLOAD DUP5 PUSH2 0x7ED SWAP2 SWAP1 PUSH2 0x2B72 JUMP JUMPDEST EQ DUP1 ISZERO PUSH2 0x7FA JUMPI POP PUSH1 0x0 DUP4 GT JUMPDEST JUMPDEST SWAP1 POP DUP1 PUSH2 0x808 JUMPI PUSH1 0x1 SLOAD SWAP2 POP JUMPDEST PUSH2 0x85D DUP5 PUSH1 0xB PUSH1 0x0 CALLER PUSH20 0xFFFFFFFFFFFFFFFFFFFFFFFFFFFFFFFFFFFFFFFF AND PUSH20 0xFFFFFFFFFFFFFFFFFFFFFFFFFFFFFFFFFFFFFFFF AND DUP2 MSTORE PUSH1 0x20 ADD SWAP1 DUP2 MSTORE PUSH1 0x20 ADD PUSH1 0x0 KECCAK256 PUSH1 0x1 ADD SLOAD PUSH2 0x22D9 SWAP1 SWAP2 SWAP1 PUSH4 0xFFFFFFFF AND JUMP JUMPDEST PUSH1 0xB PUSH1 0x0 CALLER PUSH20 0xFFFFFFFFFFFFFFFFFFFFFFFFFFFFFFFFFFFFFFFF AND PUSH20 0xFFFFFFFFFFFFFFFFFFFFFFFFFFFFFFFFFFFFFFFF AND DUP2 MSTORE PUSH1 0x20 ADD SWAP1 DUP2 MSTORE PUSH1 0x20 ADD PUSH1 0x0 KECCAK256 PUSH1 0x1 ADD DUP2 SWAP1 SSTORE POP PUSH2 0x8B8 DUP5 PUSH1 0xC SLOAD PUSH2 0x22D9 SWAP1 SWAP2 SWAP1 PUSH4 0xFFFFFFFF AND JUMP JUMPDEST PUSH1 0xC DUP2 SWAP1 SSTORE POP PUSH2 0x8F7 PUSH2 0x8E8 PUSH2 0x2710 PUSH2 0x8DA DUP6 DUP9 PUSH2 0x231B SWAP1 SWAP2 SWAP1 PUSH4 0xFFFFFFFF AND JUMP JUMPDEST PUSH2 0x22EF SWAP1 SWAP2 SWAP1 PUSH4 0xFFFFFFFF AND JUMP JUMPDEST DUP6 PUSH2 0x22D9 SWAP1 SWAP2 SWAP1 PUSH4 0xFFFFFFFF AND JUMP JUMPDEST SWAP4 POP PUSH2 0x946 CALLER DUP6 PUSH1 0xD PUSH1 0x0 SWAP1 SLOAD SWAP1 PUSH2 0x100 EXP SWAP1 DIV PUSH20 0xFFFFFFFFFFFFFFFFFFFFFFFFFFFFFFFFFFFFFFFF AND PUSH20 0xFFFFFFFFFFFFFFFFFFFFFFFFFFFFFFFFFFFFFFFF AND PUSH2 0x2331 SWAP1 SWAP3 SWAP2 SWAP1 PUSH4 0xFFFFFFFF AND JUMP JUMPDEST PUSH32 0x884EDAD9CE6FA2440D8A54CC123490EB96D2768479D49FF9C7366125A9424364 CALLER DUP6 PUSH1 0x40 MLOAD PUSH2 0x977 SWAP3 SWAP2 SWAP1 PUSH2 0x2BA3 JUMP JUMPDEST PUSH1 0x40 MLOAD DUP1 SWAP2 SUB SWAP1 LOG1 POP POP POP POP POP JUMP JUMPDEST PUSH2 0x98E PUSH2 0x2105 JUMP JUMPDEST PUSH1 0x0 PUSH1 0xB PUSH1 0x0 CALLER PUSH20 0xFFFFFFFFFFFFFFFFFFFFFFFFFFFFFFFFFFFFFFFF AND PUSH20 0xFFFFFFFFFFFFFFFFFFFFFFFFFFFFFFFFFFFFFFFF AND DUP2 MSTORE PUSH1 0x20 ADD SWAP1 DUP2 MSTORE PUSH1 0x20 ADD PUSH1 0x0 KECCAK256 PUSH1 0x0 ADD SLOAD SWAP1 POP PUSH1 0x0 PUSH2 0xA12 PUSH2 0xA03 PUSH2 0x2710 PUSH2 0x9F5 PUSH1 0x4 SLOAD DUP7 PUSH2 0x231B SWAP1 SWAP2 SWAP1 PUSH4 0xFFFFFFFF AND JUMP JUMPDEST PUSH2 0x22EF SWAP1 SWAP2 SWAP1 PUSH4 0xFFFFFFFF AND JUMP JUMPDEST DUP4 PUSH2 0x22D9 SWAP1 SWAP2 SWAP1 PUSH4 0xFFFFFFFF AND JUMP JUMPDEST SWAP1 POP PUSH1 0x0 DUP2 GT PUSH2 0xA57 JUMPI PUSH1 0x40 MLOAD PUSH32 0x8C379A000000000000000000000000000000000000000000000000000000000 DUP2 MSTORE PUSH1 0x4 ADD PUSH2 0xA4E SWAP1 PUSH2 0x2C18 JUMP JUMPDEST PUSH1 0x40 MLOAD DUP1 SWAP2 SUB SWAP1 REVERT JUMPDEST PUSH1 0xD PUSH1 0x0 SWAP1 SLOAD SWAP1 PUSH2 0x100 EXP SWAP1 DIV PUSH20 0xFFFFFFFFFFFFFFFFFFFFFFFFFFFFFFFFFFFFFFFF AND PUSH20 0xFFFFFFFFFFFFFFFFFFFFFFFFFFFFFFFFFFFFFFFF AND PUSH4 0x70A08231 ADDRESS PUSH1 0x40 MLOAD DUP3 PUSH4 0xFFFFFFFF AND PUSH1 0xE0 SHL DUP2 MSTORE PUSH1 0x4 ADD PUSH2 0xAB2 SWAP2 SWAP1 PUSH2 0x28ED JUMP JUMPDEST PUSH1 0x20 PUSH1 0x40 MLOAD DUP1 DUP4 SUB DUP2 DUP7 DUP1 EXTCODESIZE ISZERO DUP1 ISZERO PUSH2 0xACA JUMPI PUSH1 0x0 DUP1 REVERT JUMPDEST POP GAS STATICCALL ISZERO DUP1 ISZERO PUSH2 0xADE JUMPI RETURNDATASIZE PUSH1 0x0 DUP1 RETURNDATACOPY RETURNDATASIZE PUSH1 0x0 REVERT JUMPDEST POP POP POP POP PUSH1 0x40 MLOAD RETURNDATASIZE PUSH1 0x1F NOT PUSH1 0x1F DUP3 ADD AND DUP3 ADD DUP1 PUSH1 0x40 MSTORE POP DUP2 ADD SWAP1 PUSH2 0xB02 SWAP2 SWAP1 PUSH2 0x2C4D JUMP JUMPDEST DUP2 GT ISZERO PUSH2 0xBB7 JUMPI PUSH1 0xD PUSH1 0x0 SWAP1 SLOAD SWAP1 PUSH2 0x100 EXP SWAP1 DIV PUSH20 0xFFFFFFFFFFFFFFFFFFFFFFFFFFFFFFFFFFFFFFFF AND PUSH20 0xFFFFFFFFFFFFFFFFFFFFFFFFFFFFFFFFFFFFFFFF AND PUSH4 0x70A08231 ADDRESS PUSH1 0x40 MLOAD DUP3 PUSH4 0xFFFFFFFF AND PUSH1 0xE0 SHL DUP2 MSTORE PUSH1 0x4 ADD PUSH2 0xB64 SWAP2 SWAP1 PUSH2 0x28ED JUMP JUMPDEST PUSH1 0x20 PUSH1 0x40 MLOAD DUP1 DUP4 SUB DUP2 DUP7 DUP1 EXTCODESIZE ISZERO DUP1 ISZERO PUSH2 0xB7C JUMPI PUSH1 0x0 DUP1 REVERT JUMPDEST POP GAS STATICCALL ISZERO DUP1 ISZERO PUSH2 0xB90 JUMPI RETURNDATASIZE PUSH1 0x0 DUP1 RETURNDATACOPY RETURNDATASIZE PUSH1 0x0 REVERT JUMPDEST POP POP POP POP PUSH1 0x40 MLOAD RETURNDATASIZE PUSH1 0x1F NOT PUSH1 0x1F DUP3 ADD AND DUP3 ADD DUP1 PUSH1 0x40 MSTORE POP DUP2 ADD SWAP1 PUSH2 0xBB4 SWAP2 SWAP1 PUSH2 0x2C4D JUMP JUMPDEST SWAP1 POP JUMPDEST PUSH2 0xC04 CALLER DUP3 PUSH1 0xD PUSH1 0x0 SWAP1 SLOAD SWAP1 PUSH2 0x100 EXP SWAP1 DIV PUSH20 0xFFFFFFFFFFFFFFFFFFFFFFFFFFFFFFFFFFFFFFFF AND PUSH20 0xFFFFFFFFFFFFFFFFFFFFFFFFFFFFFFFFFFFFFFFF AND PUSH2 0x2331 SWAP1 SWAP3 SWAP2 SWAP1 PUSH4 0xFFFFFFFF AND JUMP JUMPDEST PUSH1 0x0 PUSH1 0xB PUSH1 0x0 CALLER PUSH20 0xFFFFFFFFFFFFFFFFFFFFFFFFFFFFFFFFFFFFFFFF AND PUSH20 0xFFFFFFFFFFFFFFFFFFFFFFFFFFFFFFFFFFFFFFFF AND DUP2 MSTORE PUSH1 0x20 ADD SWAP1 DUP2 MSTORE PUSH1 0x20 ADD PUSH1 0x0 KECCAK256 PUSH1 0x0 ADD DUP2 SWAP1 SSTORE POP PUSH32 0xC9695243A805ADB74C91F28311176C65B417E842D5699893CEF56D18BFA48CBA CALLER DUP3 PUSH1 0x40 MLOAD PUSH2 0xC7D SWAP3 SWAP2 SWAP1 PUSH2 0x2BA3 JUMP JUMPDEST PUSH1 0x40 MLOAD DUP1 SWAP2 SUB SWAP1 LOG1 POP POP JUMP JUMPDEST PUSH1 0x0 PUSH1 0x37 PUSH1 0xB PUSH1 0x0 DUP5 PUSH20 0xFFFFFFFFFFFFFFFFFFFFFFFFFFFFFFFFFFFFFFFF AND PUSH20 0xFFFFFFFFFFFFFFFFFFFFFFFFFFFFFFFFFFFFFFFF AND DUP2 MSTORE PUSH1 0x20 ADD SWAP1 DUP2 MSTORE PUSH1 0x20 ADD PUSH1 0x0 KECCAK256 PUSH1 0x5 ADD SLOAD EQ PUSH2 0xCDE JUMPI PUSH1 0x0 SWAP1 POP PUSH2 0xE27 JUMP JUMPDEST PUSH1 0x0 PUSH1 0xB PUSH1 0x0 DUP5 PUSH20 0xFFFFFFFFFFFFFFFFFFFFFFFFFFFFFFFFFFFFFFFF AND PUSH20 0xFFFFFFFFFFFFFFFFFFFFFFFFFFFFFFFFFFFFFFFF AND DUP2 MSTORE PUSH1 0x20 ADD SWAP1 DUP2 MSTORE PUSH1 0x20 ADD PUSH1 0x0 KECCAK256 PUSH1 0x2 ADD SLOAD EQ PUSH2 0xDB9 JUMPI PUSH1 0x0 PUSH1 0x7 PUSH2 0xD96 PUSH3 0x15180 PUSH2 0xD88 PUSH1 0xB PUSH1 0x0 DUP9 PUSH20 0xFFFFFFFFFFFFFFFFFFFFFFFFFFFFFFFFFFFFFFFF AND PUSH20 0xFFFFFFFFFFFFFFFFFFFFFFFFFFFFFFFFFFFFFFFF AND DUP2 MSTORE PUSH1 0x20 ADD SWAP1 DUP2 MSTORE PUSH1 0x20 ADD PUSH1 0x0 KECCAK256 PUSH1 0x3 ADD SLOAD TIMESTAMP PUSH2 0x22D9 SWAP1 SWAP2 SWAP1 PUSH4 0xFFFFFFFF AND JUMP JUMPDEST PUSH2 0x22EF SWAP1 SWAP2 SWAP1 PUSH4 0xFFFFFFFF AND JUMP JUMPDEST PUSH2 0xDA0 SWAP2 SWAP1 PUSH2 0x2B72 JUMP JUMPDEST EQ PUSH2 0xDAC JUMPI PUSH1 0x1 PUSH2 0xDAF JUMP JUMPDEST PUSH1 0x0 JUMPDEST PUSH1 0xFF AND SWAP1 POP PUSH2 0xE27 JUMP JUMPDEST PUSH1 0x5 SLOAD PUSH2 0xE11 PUSH1 0xB PUSH1 0x0 DUP6 PUSH20 0xFFFFFFFFFFFFFFFFFFFFFFFFFFFFFFFFFFFFFFFF AND PUSH20 0xFFFFFFFFFFFFFFFFFFFFFFFFFFFFFFFFFFFFFFFF AND DUP2 MSTORE PUSH1 0x20 ADD SWAP1 DUP2 MSTORE PUSH1 0x20 ADD PUSH1 0x0 KECCAK256 PUSH1 0x3 ADD SLOAD TIMESTAMP PUSH2 0x22D9 SWAP1 SWAP2 SWAP1 PUSH4 0xFFFFFFFF AND JUMP JUMPDEST LT ISZERO PUSH2 0xE1E JUMPI PUSH1 0x1 PUSH2 0xE21 JUMP JUMPDEST PUSH1 0x0 JUMPDEST PUSH1 0xFF AND SWAP1 POP JUMPDEST SWAP2 SWAP1 POP JUMP JUMPDEST PUSH2 0xE34 PUSH2 0x20FD JUMP JUMPDEST PUSH20 0xFFFFFFFFFFFFFFFFFFFFFFFFFFFFFFFFFFFFFFFF AND PUSH2 0xE52 PUSH2 0x1694 JUMP JUMPDEST PUSH20 0xFFFFFFFFFFFFFFFFFFFFFFFFFFFFFFFFFFFFFFFF AND EQ PUSH2 0xEA8 JUMPI PUSH1 0x40 MLOAD PUSH32 0x8C379A000000000000000000000000000000000000000000000000000000000 DUP2 MSTORE PUSH1 0x4 ADD PUSH2 0xE9F SWAP1 PUSH2 0x29DF JUMP JUMPDEST PUSH1 0x40 MLOAD DUP1 SWAP2 SUB SWAP1 REVERT JUMPDEST PUSH1 0x0 DUP2 GT PUSH2 0xEEB JUMPI PUSH1 0x40 MLOAD PUSH32 0x8C379A000000000000000000000000000000000000000000000000000000000 DUP2 MSTORE PUSH1 0x4 ADD PUSH2 0xEE2 SWAP1 PUSH2 0x2A4B JUMP JUMPDEST PUSH1 0x40 MLOAD DUP1 SWAP2 SUB SWAP1 REVERT JUMPDEST PUSH2 0xF01 PUSH3 0x15180 DUP3 PUSH2 0x231B SWAP1 SWAP2 SWAP1 PUSH4 0xFFFFFFFF AND JUMP JUMPDEST PUSH1 0x5 DUP2 SWAP1 SSTORE POP POP JUMP JUMPDEST PUSH1 0x0 DUP3 GT PUSH2 0xF4D JUMPI PUSH1 0x40 MLOAD PUSH32 0x8C379A000000000000000000000000000000000000000000000000000000000 DUP2 MSTORE PUSH1 0x4 ADD PUSH2 0xF44 SWAP1 PUSH2 0x2AB7 JUMP JUMPDEST PUSH1 0x40 MLOAD DUP1 SWAP2 SUB SWAP1 REVERT JUMPDEST DUP2 PUSH1 0xD PUSH1 0x0 SWAP1 SLOAD SWAP1 PUSH2 0x100 EXP SWAP1 DIV PUSH20 0xFFFFFFFFFFFFFFFFFFFFFFFFFFFFFFFFFFFFFFFF AND PUSH20 0xFFFFFFFFFFFFFFFFFFFFFFFFFFFFFFFFFFFFFFFF AND PUSH4 0x70A08231 CALLER PUSH1 0x40 MLOAD DUP3 PUSH4 0xFFFFFFFF AND PUSH1 0xE0 SHL DUP2 MSTORE PUSH1 0x4 ADD PUSH2 0xFA9 SWAP2 SWAP1 PUSH2 0x28ED JUMP JUMPDEST PUSH1 0x20 PUSH1 0x40 MLOAD DUP1 DUP4 SUB DUP2 DUP7 DUP1 EXTCODESIZE ISZERO DUP1 ISZERO PUSH2 0xFC1 JUMPI PUSH1 0x0 DUP1 REVERT JUMPDEST POP GAS STATICCALL ISZERO DUP1 ISZERO PUSH2 0xFD5 JUMPI RETURNDATASIZE PUSH1 0x0 DUP1 RETURNDATACOPY RETURNDATASIZE PUSH1 0x0 REVERT JUMPDEST POP POP POP POP PUSH1 0x40 MLOAD RETURNDATASIZE PUSH1 0x1F NOT PUSH1 0x1F DUP3 ADD AND DUP3 ADD DUP1 PUSH1 0x40 MSTORE POP DUP2 ADD SWAP1 PUSH2 0xFF9 SWAP2 SWAP1 PUSH2 0x2C4D JUMP JUMPDEST GT PUSH2 0x1039 JUMPI PUSH1 0x40 MLOAD PUSH32 0x8C379A000000000000000000000000000000000000000000000000000000000 DUP2 MSTORE PUSH1 0x4 ADD PUSH2 0x1030 SWAP1 PUSH2 0x2CC6 JUMP JUMPDEST PUSH1 0x40 MLOAD DUP1 SWAP2 SUB SWAP1 REVERT JUMPDEST PUSH1 0x0 PUSH2 0x1044 CALLER PUSH2 0xC89 JUMP JUMPDEST EQ PUSH2 0x1084 JUMPI PUSH1 0x40 MLOAD PUSH32 0x8C379A000000000000000000000000000000000000000000000000000000000 DUP2 MSTORE PUSH1 0x4 ADD PUSH2 0x107B SWAP1 PUSH2 0x2D32 JUMP JUMPDEST PUSH1 0x40 MLOAD DUP1 SWAP2 SUB SWAP1 REVERT JUMPDEST PUSH1 0x0 DUP2 EQ ISZERO PUSH2 0x10D7 JUMPI PUSH1 0x6 SLOAD DUP3 LT ISZERO PUSH2 0x10D2 JUMPI PUSH1 0x40 MLOAD PUSH32 0x8C379A000000000000000000000000000000000000000000000000000000000 DUP2 MSTORE PUSH1 0x4 ADD PUSH2 0x10C9 SWAP1 PUSH2 0x2D9E JUMP JUMPDEST PUSH1 0x40 MLOAD DUP1 SWAP2 SUB SWAP1 REVERT JUMPDEST PUSH2 0x1217 JUMP JUMPDEST PUSH1 0x1 DUP2 EQ ISZERO PUSH2 0x112A JUMPI PUSH1 0x9 SLOAD DUP3 LT ISZERO PUSH2 0x1125 JUMPI PUSH1 0x40 MLOAD PUSH32 0x8C379A000000000000000000000000000000000000000000000000000000000 DUP2 MSTORE PUSH1 0x4 ADD PUSH2 0x111C SWAP1 PUSH2 0x2D9E JUMP JUMPDEST PUSH1 0x40 MLOAD DUP1 SWAP2 SUB SWAP1 REVERT JUMPDEST PUSH2 0x1216 JUMP JUMPDEST PUSH1 0x2 DUP2 EQ ISZERO PUSH2 0x117D JUMPI PUSH1 0x8 SLOAD DUP3 LT ISZERO PUSH2 0x1178 JUMPI PUSH1 0x40 MLOAD PUSH32 0x8C379A000000000000000000000000000000000000000000000000000000000 DUP2 MSTORE PUSH1 0x4 ADD PUSH2 0x116F SWAP1 PUSH2 0x2D9E JUMP JUMPDEST PUSH1 0x40 MLOAD DUP1 SWAP2 SUB SWAP1 REVERT JUMPDEST PUSH2 0x1215 JUMP JUMPDEST PUSH1 0x3 DUP2 EQ ISZERO PUSH2 0x11D0 JUMPI PUSH1 0x7 SLOAD DUP3 LT ISZERO PUSH2 0x11CB JUMPI PUSH1 0x40 MLOAD PUSH32 0x8C379A000000000000000000000000000000000000000000000000000000000 DUP2 MSTORE PUSH1 0x4 ADD PUSH2 0x11C2 SWAP1 PUSH2 0x2D9E JUMP JUMPDEST PUSH1 0x40 MLOAD DUP1 SWAP2 SUB SWAP1 REVERT JUMPDEST PUSH2 0x1214 JUMP JUMPDEST PUSH1 0x0 DUP3 LT PUSH2 0x1213 JUMPI PUSH1 0x40 MLOAD PUSH32 0x8C379A000000000000000000000000000000000000000000000000000000000 DUP2 MSTORE PUSH1 0x4 ADD PUSH2 0x120A SWAP1 PUSH2 0x2E0A JUMP JUMPDEST PUSH1 0x40 MLOAD DUP1 SWAP2 SUB SWAP1 REVERT JUMPDEST JUMPDEST JUMPDEST JUMPDEST JUMPDEST DUP1 PUSH1 0xB PUSH1 0x0 CALLER PUSH20 0xFFFFFFFFFFFFFFFFFFFFFFFFFFFFFFFFFFFFFFFF AND PUSH20 0xFFFFFFFFFFFFFFFFFFFFFFFFFFFFFFFFFFFFFFFF AND DUP2 MSTORE PUSH1 0x20 ADD SWAP1 DUP2 MSTORE PUSH1 0x20 ADD PUSH1 0x0 KECCAK256 PUSH1 0x2 ADD DUP2 SWAP1 SSTORE POP TIMESTAMP PUSH1 0xB PUSH1 0x0 CALLER PUSH20 0xFFFFFFFFFFFFFFFFFFFFFFFFFFFFFFFFFFFFFFFF AND PUSH20 0xFFFFFFFFFFFFFFFFFFFFFFFFFFFFFFFFFFFFFFFF AND DUP2 MSTORE PUSH1 0x20 ADD SWAP1 DUP2 MSTORE PUSH1 0x20 ADD PUSH1 0x0 KECCAK256 PUSH1 0x3 ADD DUP2 SWAP1 SSTORE POP PUSH1 0x37 PUSH1 0xB PUSH1 0x0 CALLER PUSH20 0xFFFFFFFFFFFFFFFFFFFFFFFFFFFFFFFFFFFFFFFF AND PUSH20 0xFFFFFFFFFFFFFFFFFFFFFFFFFFFFFFFFFFFFFFFF AND DUP2 MSTORE PUSH1 0x20 ADD SWAP1 DUP2 MSTORE PUSH1 0x20 ADD PUSH1 0x0 KECCAK256 PUSH1 0x5 ADD DUP2 SWAP1 SSTORE POP PUSH1 0xA CALLER SWAP1 DUP1 PUSH1 0x1 DUP2 SLOAD ADD DUP1 DUP3 SSTORE DUP1 SWAP2 POP POP PUSH1 0x1 SWAP1 SUB SWAP1 PUSH1 0x0 MSTORE PUSH1 0x20 PUSH1 0x0 KECCAK256 ADD PUSH1 0x0 SWAP1 SWAP2 SWAP1 SWAP2 SWAP1 SWAP2 PUSH2 0x100 EXP DUP2 SLOAD DUP2 PUSH20 0xFFFFFFFFFFFFFFFFFFFFFFFFFFFFFFFFFFFFFFFF MUL NOT AND SWAP1 DUP4 PUSH20 0xFFFFFFFFFFFFFFFFFFFFFFFFFFFFFFFFFFFFFFFF AND MUL OR SWAP1 SSTORE POP PUSH2 0x1359 DUP3 PUSH2 0x1958 JUMP JUMPDEST POP POP JUMP JUMPDEST PUSH1 0x0 PUSH1 0xA DUP1 SLOAD SWAP1 POP SWAP1 POP SWAP1 JUMP JUMPDEST PUSH1 0x0 PUSH1 0xB PUSH1 0x0 DUP4 PUSH20 0xFFFFFFFFFFFFFFFFFFFFFFFFFFFFFFFFFFFFFFFF AND PUSH20 0xFFFFFFFFFFFFFFFFFFFFFFFFFFFFFFFFFFFFFFFF AND DUP2 MSTORE PUSH1 0x20 ADD SWAP1 DUP2 MSTORE PUSH1 0x20 ADD PUSH1 0x0 KECCAK256 PUSH1 0x0 ADD SLOAD SWAP1 POP SWAP2 SWAP1 POP JUMP JUMPDEST PUSH2 0x13BE PUSH2 0x20FD JUMP JUMPDEST PUSH20 0xFFFFFFFFFFFFFFFFFFFFFFFFFFFFFFFFFFFFFFFF AND PUSH2 0x13DC PUSH2 0x1694 JUMP JUMPDEST PUSH20 0xFFFFFFFFFFFFFFFFFFFFFFFFFFFFFFFFFFFFFFFF AND EQ PUSH2 0x1432 JUMPI PUSH1 0x40 MLOAD PUSH32 0x8C379A000000000000000000000000000000000000000000000000000000000 DUP2 MSTORE PUSH1 0x4 ADD PUSH2 0x1429 SWAP1 PUSH2 0x29DF JUMP JUMPDEST PUSH1 0x40 MLOAD DUP1 SWAP2 SUB SWAP1 REVERT JUMPDEST PUSH1 0x0 DUP2 GT PUSH2 0x1475 JUMPI PUSH1 0x40 MLOAD PUSH32 0x8C379A000000000000000000000000000000000000000000000000000000000 DUP2 MSTORE PUSH1 0x4 ADD PUSH2 0x146C SWAP1 PUSH2 0x2E76 JUMP JUMPDEST PUSH1 0x40 MLOAD DUP1 SWAP2 SUB SWAP1 REVERT JUMPDEST DUP1 PUSH1 0x2 DUP2 SWAP1 SSTORE POP PUSH32 0x189BDA9782663C67A3F95C0AA5455924C711210B00281C60EAD2F0DD8DBC924C DUP2 PUSH1 0x40 MLOAD PUSH2 0x14AB SWAP2 SWAP1 PUSH2 0x279A JUMP JUMPDEST PUSH1 0x40 MLOAD DUP1 SWAP2 SUB SWAP1 LOG1 POP JUMP JUMPDEST PUSH1 0x0 DUP1 PUSH1 0xB PUSH1 0x0 DUP5 PUSH20 0xFFFFFFFFFFFFFFFFFFFFFFFFFFFFFFFFFFFFFFFF AND PUSH20 0xFFFFFFFFFFFFFFFFFFFFFFFFFFFFFFFFFFFFFFFF AND DUP2 MSTORE PUSH1 0x20 ADD SWAP1 DUP2 MSTORE PUSH1 0x20 ADD PUSH1 0x0 KECCAK256 PUSH1 0x1 ADD SLOAD SWAP1 POP PUSH1 0x0 PUSH2 0x15A3 PUSH2 0x2710 PUSH2 0x1595 PUSH1 0x3 SLOAD PUSH2 0x1587 PUSH2 0x1578 PUSH2 0x21C0 PUSH2 0x156A PUSH1 0xB PUSH1 0x0 DUP14 PUSH20 0xFFFFFFFFFFFFFFFFFFFFFFFFFFFFFFFFFFFFFFFF AND PUSH20 0xFFFFFFFFFFFFFFFFFFFFFFFFFFFFFFFFFFFFFFFF AND DUP2 MSTORE PUSH1 0x20 ADD SWAP1 DUP2 MSTORE PUSH1 0x20 ADD PUSH1 0x0 KECCAK256 PUSH1 0x4 ADD SLOAD NUMBER PUSH2 0x22D9 SWAP1 SWAP2 SWAP1 PUSH4 0xFFFFFFFF AND JUMP JUMPDEST PUSH2 0x22EF SWAP1 SWAP2 SWAP1 PUSH4 0xFFFFFFFF AND JUMP JUMPDEST DUP8 PUSH2 0x231B SWAP1 SWAP2 SWAP1 PUSH4 0xFFFFFFFF AND JUMP JUMPDEST PUSH2 0x231B SWAP1 SWAP2 SWAP1 PUSH4 0xFFFFFFFF AND JUMP JUMPDEST PUSH2 0x22EF SWAP1 SWAP2 SWAP1 PUSH4 0xFFFFFFFF AND JUMP JUMPDEST SWAP1 POP DUP1 PUSH1 0xB PUSH1 0x0 CALLER PUSH20 0xFFFFFFFFFFFFFFFFFFFFFFFFFFFFFFFFFFFFFFFF AND PUSH20 0xFFFFFFFFFFFFFFFFFFFFFFFFFFFFFFFFFFFFFFFF AND DUP2 MSTORE PUSH1 0x20 ADD SWAP1 DUP2 MSTORE PUSH1 0x20 ADD PUSH1 0x0 KECCAK256 PUSH1 0x0 ADD SLOAD PUSH2 0x15F3 SWAP2 SWAP1 PUSH2 0x2EC5 JUMP JUMPDEST SWAP3 POP POP POP SWAP2 SWAP1 POP JUMP JUMPDEST PUSH2 0x1604 PUSH2 0x20FD JUMP JUMPDEST PUSH20 0xFFFFFFFFFFFFFFFFFFFFFFFFFFFFFFFFFFFFFFFF AND PUSH2 0x1622 PUSH2 0x1694 JUMP JUMPDEST PUSH20 0xFFFFFFFFFFFFFFFFFFFFFFFFFFFFFFFFFFFFFFFF AND EQ PUSH2 0x1678 JUMPI PUSH1 0x40 MLOAD PUSH32 0x8C379A000000000000000000000000000000000000000000000000000000000 DUP2 MSTORE PUSH1 0x4 ADD PUSH2 0x166F SWAP1 PUSH2 0x29DF JUMP JUMPDEST PUSH1 0x40 MLOAD DUP1 SWAP2 SUB SWAP1 REVERT JUMPDEST PUSH2 0x1682 PUSH1 0x0 PUSH2 0x23B7 JUMP JUMPDEST JUMP JUMPDEST PUSH1 0x0 PUSH1 0x3 SLOAD SWAP1 POP SWAP1 JUMP JUMPDEST PUSH1 0xC SLOAD DUP2 JUMP JUMPDEST PUSH1 0x0 DUP1 PUSH1 0x0 SWAP1 SLOAD SWAP1 PUSH2 0x100 EXP SWAP1 DIV PUSH20 0xFFFFFFFFFFFFFFFFFFFFFFFFFFFFFFFFFFFFFFFF AND SWAP1 POP SWAP1 JUMP JUMPDEST PUSH1 0x0 DUP1 PUSH1 0x0 SWAP1 POP PUSH1 0x0 DUP4 EQ DUP1 PUSH2 0x16D3 JUMPI POP PUSH1 0x2 DUP4 EQ JUMPDEST ISZERO PUSH2 0x16E2 JUMPI PUSH1 0x6 SLOAD SWAP1 POP PUSH2 0x174F JUMP JUMPDEST PUSH1 0x1 DUP4 EQ ISZERO PUSH2 0x16F5 JUMPI PUSH1 0x9 SLOAD SWAP1 POP PUSH2 0x174E JUMP JUMPDEST PUSH1 0x3 DUP4 EQ ISZERO PUSH2 0x1708 JUMPI PUSH1 0x7 SLOAD SWAP1 POP PUSH2 0x174D JUMP JUMPDEST PUSH1 0x1 PUSH1 0x0 GT PUSH2 0x174C JUMPI PUSH1 0x40 MLOAD PUSH32 0x8C379A000000000000000000000000000000000000000000000000000000000 DUP2 MSTORE PUSH1 0x4 ADD PUSH2 0x1743 SWAP1 PUSH2 0x2E0A JUMP JUMPDEST PUSH1 0x40 MLOAD DUP1 SWAP2 SUB SWAP1 REVERT JUMPDEST JUMPDEST JUMPDEST JUMPDEST DUP1 SWAP2 POP POP SWAP2 SWAP1 POP JUMP JUMPDEST PUSH2 0x1760 PUSH2 0x20FD JUMP JUMPDEST PUSH20 0xFFFFFFFFFFFFFFFFFFFFFFFFFFFFFFFFFFFFFFFF AND PUSH2 0x177E PUSH2 0x1694 JUMP JUMPDEST PUSH20 0xFFFFFFFFFFFFFFFFFFFFFFFFFFFFFFFFFFFFFFFF AND EQ PUSH2 0x17D4 JUMPI PUSH1 0x40 MLOAD PUSH32 0x8C379A000000000000000000000000000000000000000000000000000000000 DUP2 MSTORE PUSH1 0x4 ADD PUSH2 0x17CB SWAP1 PUSH2 0x29DF JUMP JUMPDEST PUSH1 0x40 MLOAD DUP1 SWAP2 SUB SWAP1 REVERT JUMPDEST PUSH1 0x0 DUP2 GT PUSH2 0x1817 JUMPI PUSH1 0x40 MLOAD PUSH32 0x8C379A000000000000000000000000000000000000000000000000000000000 DUP2 MSTORE PUSH1 0x4 ADD PUSH2 0x180E SWAP1 PUSH2 0x2F67 JUMP JUMPDEST PUSH1 0x40 MLOAD DUP1 SWAP2 SUB SWAP1 REVERT JUMPDEST DUP1 PUSH1 0x1 DUP2 SWAP1 SSTORE POP PUSH32 0x150C688DD7595BF7862B8AB1FE46756450EB7D731037942B3BBC46F3F0E21B81 DUP2 PUSH1 0x40 MLOAD PUSH2 0x184D SWAP2 SWAP1 PUSH2 0x279A JUMP JUMPDEST PUSH1 0x40 MLOAD DUP1 SWAP2 SUB SWAP1 LOG1 POP JUMP JUMPDEST PUSH2 0x1860 PUSH2 0x20FD JUMP JUMPDEST PUSH20 0xFFFFFFFFFFFFFFFFFFFFFFFFFFFFFFFFFFFFFFFF AND PUSH2 0x187E PUSH2 0x1694 JUMP JUMPDEST PUSH20 0xFFFFFFFFFFFFFFFFFFFFFFFFFFFFFFFFFFFFFFFF AND EQ PUSH2 0x18D4 JUMPI PUSH1 0x40 MLOAD PUSH32 0x8C379A000000000000000000000000000000000000000000000000000000000 DUP2 MSTORE PUSH1 0x4 ADD PUSH2 0x18CB SWAP1 PUSH2 0x29DF JUMP JUMPDEST PUSH1 0x40 MLOAD DUP1 SWAP2 SUB SWAP1 REVERT JUMPDEST PUSH1 0x0 DUP2 GT PUSH2 0x1917 JUMPI PUSH1 0x40 MLOAD PUSH32 0x8C379A000000000000000000000000000000000000000000000000000000000 DUP2 MSTORE PUSH1 0x4 ADD PUSH2 0x190E SWAP1 PUSH2 0x2FD3 JUMP JUMPDEST PUSH1 0x40 MLOAD DUP1 SWAP2 SUB SWAP1 REVERT JUMPDEST DUP1 PUSH1 0x3 DUP2 SWAP1 SSTORE POP PUSH32 0x1946FB78C7CA778B54D82CABAAC5BA67CF446F58D0FF1F8CEAEBB6150E54E44F DUP2 PUSH1 0x40 MLOAD PUSH2 0x194D SWAP2 SWAP1 PUSH2 0x279A JUMP JUMPDEST PUSH1 0x40 MLOAD DUP1 SWAP2 SUB SWAP1 LOG1 POP JUMP JUMPDEST PUSH1 0x0 DUP2 GT PUSH2 0x199B JUMPI PUSH1 0x40 MLOAD PUSH32 0x8C379A000000000000000000000000000000000000000000000000000000000 DUP2 MSTORE PUSH1 0x4 ADD PUSH2 0x1992 SWAP1 PUSH2 0x2AB7 JUMP JUMPDEST PUSH1 0x40 MLOAD DUP1 SWAP2 SUB SWAP1 REVERT JUMPDEST DUP1 PUSH1 0xD PUSH1 0x0 SWAP1 SLOAD SWAP1 PUSH2 0x100 EXP SWAP1 DIV PUSH20 0xFFFFFFFFFFFFFFFFFFFFFFFFFFFFFFFFFFFFFFFF AND PUSH20 0xFFFFFFFFFFFFFFFFFFFFFFFFFFFFFFFFFFFFFFFF AND PUSH4 0x70A08231 CALLER PUSH1 0x40 MLOAD DUP3 PUSH4 0xFFFFFFFF AND PUSH1 0xE0 SHL DUP2 MSTORE PUSH1 0x4 ADD PUSH2 0x19F7 SWAP2 SWAP1 PUSH2 0x28ED JUMP JUMPDEST PUSH1 0x20 PUSH1 0x40 MLOAD DUP1 DUP4 SUB DUP2 DUP7 DUP1 EXTCODESIZE ISZERO DUP1 ISZERO PUSH2 0x1A0F JUMPI PUSH1 0x0 DUP1 REVERT JUMPDEST POP GAS STATICCALL ISZERO DUP1 ISZERO PUSH2 0x1A23 JUMPI RETURNDATASIZE PUSH1 0x0 DUP1 RETURNDATACOPY RETURNDATASIZE PUSH1 0x0 REVERT JUMPDEST POP POP POP POP PUSH1 0x40 MLOAD RETURNDATASIZE PUSH1 0x1F NOT PUSH1 0x1F DUP3 ADD AND DUP3 ADD DUP1 PUSH1 0x40 MSTORE POP DUP2 ADD SWAP1 PUSH2 0x1A47 SWAP2 SWAP1 PUSH2 0x2C4D JUMP JUMPDEST GT PUSH2 0x1A87 JUMPI PUSH1 0x40 MLOAD PUSH32 0x8C379A000000000000000000000000000000000000000000000000000000000 DUP2 MSTORE PUSH1 0x4 ADD PUSH2 0x1A7E SWAP1 PUSH2 0x2CC6 JUMP JUMPDEST PUSH1 0x40 MLOAD DUP1 SWAP2 SUB SWAP1 REVERT JUMPDEST PUSH1 0x37 PUSH1 0xB PUSH1 0x0 CALLER PUSH20 0xFFFFFFFFFFFFFFFFFFFFFFFFFFFFFFFFFFFFFFFF AND PUSH20 0xFFFFFFFFFFFFFFFFFFFFFFFFFFFFFFFFFFFFFFFF AND DUP2 MSTORE PUSH1 0x20 ADD SWAP1 DUP2 MSTORE PUSH1 0x20 ADD PUSH1 0x0 KECCAK256 PUSH1 0x5 ADD SLOAD EQ PUSH2 0x1B0C JUMPI PUSH1 0x40 MLOAD PUSH32 0x8C379A000000000000000000000000000000000000000000000000000000000 DUP2 MSTORE PUSH1 0x4 ADD PUSH2 0x1B03 SWAP1 PUSH2 0x303F JUMP JUMPDEST PUSH1 0x40 MLOAD DUP1 SWAP2 SUB SWAP1 REVERT JUMPDEST PUSH2 0x1B14 PUSH2 0x2105 JUMP JUMPDEST PUSH2 0x1B63 CALLER ADDRESS DUP4 PUSH1 0xD PUSH1 0x0 SWAP1 SLOAD SWAP1 PUSH2 0x100 EXP SWAP1 DIV PUSH20 0xFFFFFFFFFFFFFFFFFFFFFFFFFFFFFFFFFFFFFFFF AND PUSH20 0xFFFFFFFFFFFFFFFFFFFFFFFFFFFFFFFFFFFFFFFF AND PUSH2 0x247B SWAP1 SWAP4 SWAP3 SWAP2 SWAP1 PUSH4 0xFFFFFFFF AND JUMP JUMPDEST PUSH2 0x1BB8 DUP2 PUSH1 0xB PUSH1 0x0 CALLER PUSH20 0xFFFFFFFFFFFFFFFFFFFFFFFFFFFFFFFFFFFFFFFF AND PUSH20 0xFFFFFFFFFFFFFFFFFFFFFFFFFFFFFFFFFFFFFFFF AND DUP2 MSTORE PUSH1 0x20 ADD SWAP1 DUP2 MSTORE PUSH1 0x20 ADD PUSH1 0x0 KECCAK256 PUSH1 0x1 ADD SLOAD PUSH2 0x2305 SWAP1 SWAP2 SWAP1 PUSH4 0xFFFFFFFF AND JUMP JUMPDEST PUSH1 0xB PUSH1 0x0 CALLER PUSH20 0xFFFFFFFFFFFFFFFFFFFFFFFFFFFFFFFFFFFFFFFF AND PUSH20 0xFFFFFFFFFFFFFFFFFFFFFFFFFFFFFFFFFFFFFFFF AND DUP2 MSTORE PUSH1 0x20 ADD SWAP1 DUP2 MSTORE PUSH1 0x20 ADD PUSH1 0x0 KECCAK256 PUSH1 0x1 ADD DUP2 SWAP1 SSTORE POP PUSH2 0x1C13 DUP2 PUSH1 0xC SLOAD PUSH2 0x2305 SWAP1 SWAP2 SWAP1 PUSH4 0xFFFFFFFF AND JUMP JUMPDEST PUSH1 0xC DUP2 SWAP1 SSTORE POP PUSH32 0x9E71BC8EEA02A63969F509818F2DAFB9254532904319F9DBDA79B67BD34A5F3D CALLER DUP3 PUSH1 0x40 MLOAD PUSH2 0x1C4A SWAP3 SWAP2 SWAP1 PUSH2 0x2BA3 JUMP JUMPDEST PUSH1 0x40 MLOAD DUP1 SWAP2 SUB SWAP1 LOG1 POP JUMP JUMPDEST PUSH2 0x1C5D PUSH2 0x20FD JUMP JUMPDEST PUSH20 0xFFFFFFFFFFFFFFFFFFFFFFFFFFFFFFFFFFFFFFFF AND PUSH2 0x1C7B PUSH2 0x1694 JUMP JUMPDEST PUSH20 0xFFFFFFFFFFFFFFFFFFFFFFFFFFFFFFFFFFFFFFFF AND EQ PUSH2 0x1CD1 JUMPI PUSH1 0x40 MLOAD PUSH32 0x8C379A000000000000000000000000000000000000000000000000000000000 DUP2 MSTORE PUSH1 0x4 ADD PUSH2 0x1CC8 SWAP1 PUSH2 0x29DF JUMP JUMPDEST PUSH1 0x40 MLOAD DUP1 SWAP2 SUB SWAP1 REVERT JUMPDEST PUSH1 0x0 DUP2 GT PUSH2 0x1D14 JUMPI PUSH1 0x40 MLOAD PUSH32 0x8C379A000000000000000000000000000000000000000000000000000000000 DUP2 MSTORE PUSH1 0x4 ADD PUSH2 0x1D0B SWAP1 PUSH2 0x2A4B JUMP JUMPDEST PUSH1 0x40 MLOAD DUP1 SWAP2 SUB SWAP1 REVERT JUMPDEST DUP1 PUSH1 0x7 DUP2 SWAP1 SSTORE POP POP JUMP JUMPDEST PUSH1 0x0 PUSH1 0x37 PUSH2 0x1D2B DUP4 PUSH2 0x20B1 JUMP JUMPDEST EQ PUSH2 0x1D6B JUMPI PUSH1 0x40 MLOAD PUSH32 0x8C379A000000000000000000000000000000000000000000000000000000000 DUP2 MSTORE PUSH1 0x4 ADD PUSH2 0x1D62 SWAP1 PUSH2 0x30AB JUMP JUMPDEST PUSH1 0x40 MLOAD DUP1 SWAP2 SUB SWAP1 REVERT JUMPDEST PUSH1 0xB PUSH1 0x0 DUP4 PUSH20 0xFFFFFFFFFFFFFFFFFFFFFFFFFFFFFFFFFFFFFFFF AND PUSH20 0xFFFFFFFFFFFFFFFFFFFFFFFFFFFFFFFFFFFFFFFF AND DUP2 MSTORE PUSH1 0x20 ADD SWAP1 DUP2 MSTORE PUSH1 0x20 ADD PUSH1 0x0 KECCAK256 PUSH1 0x2 ADD SLOAD SWAP1 POP SWAP2 SWAP1 POP JUMP JUMPDEST PUSH2 0x1DBD PUSH2 0x20FD JUMP JUMPDEST PUSH20 0xFFFFFFFFFFFFFFFFFFFFFFFFFFFFFFFFFFFFFFFF AND PUSH2 0x1DDB PUSH2 0x1694 JUMP JUMPDEST PUSH20 0xFFFFFFFFFFFFFFFFFFFFFFFFFFFFFFFFFFFFFFFF AND EQ PUSH2 0x1E31 JUMPI PUSH1 0x40 MLOAD PUSH32 0x8C379A000000000000000000000000000000000000000000000000000000000 DUP2 MSTORE PUSH1 0x4 ADD PUSH2 0x1E28 SWAP1 PUSH2 0x29DF JUMP JUMPDEST PUSH1 0x40 MLOAD DUP1 SWAP2 SUB SWAP1 REVERT JUMPDEST PUSH1 0x0 DUP2 GT PUSH2 0x1E74 JUMPI PUSH1 0x40 MLOAD PUSH32 0x8C379A000000000000000000000000000000000000000000000000000000000 DUP2 MSTORE PUSH1 0x4 ADD PUSH2 0x1E6B SWAP1 PUSH2 0x2A4B JUMP JUMPDEST PUSH1 0x40 MLOAD DUP1 SWAP2 SUB SWAP1 REVERT JUMPDEST DUP1 PUSH1 0x9 DUP2 SWAP1 SSTORE POP POP JUMP JUMPDEST PUSH2 0x1E86 PUSH2 0x20FD JUMP JUMPDEST PUSH20 0xFFFFFFFFFFFFFFFFFFFFFFFFFFFFFFFFFFFFFFFF AND PUSH2 0x1EA4 PUSH2 0x1694 JUMP JUMPDEST PUSH20 0xFFFFFFFFFFFFFFFFFFFFFFFFFFFFFFFFFFFFFFFF AND EQ PUSH2 0x1EFA JUMPI PUSH1 0x40 MLOAD PUSH32 0x8C379A000000000000000000000000000000000000000000000000000000000 DUP2 MSTORE PUSH1 0x4 ADD PUSH2 0x1EF1 SWAP1 PUSH2 0x29DF JUMP JUMPDEST PUSH1 0x40 MLOAD DUP1 SWAP2 SUB SWAP1 REVERT JUMPDEST PUSH1 0x0 DUP2 GT PUSH2 0x1F3D JUMPI PUSH1 0x40 MLOAD PUSH32 0x8C379A000000000000000000000000000000000000000000000000000000000 DUP2 MSTORE PUSH1 0x4 ADD PUSH2 0x1F34 SWAP1 PUSH2 0x2A4B JUMP JUMPDEST PUSH1 0x40 MLOAD DUP1 SWAP2 SUB SWAP1 REVERT JUMPDEST DUP1 PUSH1 0x6 DUP2 SWAP1 SSTORE POP POP JUMP JUMPDEST PUSH2 0x1F4F PUSH2 0x20FD JUMP JUMPDEST PUSH20 0xFFFFFFFFFFFFFFFFFFFFFFFFFFFFFFFFFFFFFFFF AND PUSH2 0x1F6D PUSH2 0x1694 JUMP JUMPDEST PUSH20 0xFFFFFFFFFFFFFFFFFFFFFFFFFFFFFFFFFFFFFFFF AND EQ PUSH2 0x1FC3 JUMPI PUSH1 0x40 MLOAD PUSH32 0x8C379A000000000000000000000000000000000000000000000000000000000 DUP2 MSTORE PUSH1 0x4 ADD PUSH2 0x1FBA SWAP1 PUSH2 0x29DF JUMP JUMPDEST PUSH1 0x40 MLOAD DUP1 SWAP2 SUB SWAP1 REVERT JUMPDEST PUSH1 0x0 PUSH20 0xFFFFFFFFFFFFFFFFFFFFFFFFFFFFFFFFFFFFFFFF AND DUP2 PUSH20 0xFFFFFFFFFFFFFFFFFFFFFFFFFFFFFFFFFFFFFFFF AND EQ ISZERO PUSH2 0x2033 JUMPI PUSH1 0x40 MLOAD PUSH32 0x8C379A000000000000000000000000000000000000000000000000000000000 DUP2 MSTORE PUSH1 0x4 ADD PUSH2 0x202A SWAP1 PUSH2 0x313D JUMP JUMPDEST PUSH1 0x40 MLOAD DUP1 SWAP2 SUB SWAP1 REVERT JUMPDEST PUSH2 0x203C DUP2 PUSH2 0x23B7 JUMP JUMPDEST POP JUMP JUMPDEST PUSH1 0x0 PUSH1 0xB PUSH1 0x0 DUP4 PUSH20 0xFFFFFFFFFFFFFFFFFFFFFFFFFFFFFFFFFFFFFFFF AND PUSH20 0xFFFFFFFFFFFFFFFFFFFFFFFFFFFFFFFFFFFFFFFF AND DUP2 MSTORE PUSH1 0x20 ADD SWAP1 DUP2 MSTORE PUSH1 0x20 ADD PUSH1 0x0 KECCAK256 PUSH1 0x1 ADD SLOAD SWAP1 POP SWAP2 SWAP1 POP JUMP JUMPDEST PUSH1 0xD PUSH1 0x0 SWAP1 SLOAD SWAP1 PUSH2 0x100 EXP SWAP1 DIV PUSH20 0xFFFFFFFFFFFFFFFFFFFFFFFFFFFFFFFFFFFFFFFF AND DUP2 JUMP JUMPDEST PUSH1 0x0 PUSH1 0xB PUSH1 0x0 DUP4 PUSH20 0xFFFFFFFFFFFFFFFFFFFFFFFFFFFFFFFFFFFFFFFF AND PUSH20 0xFFFFFFFFFFFFFFFFFFFFFFFFFFFFFFFFFFFFFFFF AND DUP2 MSTORE PUSH1 0x20 ADD SWAP1 DUP2 MSTORE PUSH1 0x20 ADD PUSH1 0x0 KECCAK256 PUSH1 0x5 ADD SLOAD SWAP1 POP SWAP2 SWAP1 POP JUMP JUMPDEST PUSH1 0x0 CALLER SWAP1 POP SWAP1 JUMP JUMPDEST PUSH1 0x0 PUSH1 0xB PUSH1 0x0 CALLER PUSH20 0xFFFFFFFFFFFFFFFFFFFFFFFFFFFFFFFFFFFFFFFF AND PUSH20 0xFFFFFFFFFFFFFFFFFFFFFFFFFFFFFFFFFFFFFFFF AND DUP2 MSTORE PUSH1 0x20 ADD SWAP1 DUP2 MSTORE PUSH1 0x20 ADD PUSH1 0x0 KECCAK256 PUSH1 0x1 ADD SLOAD SWAP1 POP PUSH1 0x0 PUSH2 0x21F1 PUSH2 0x2710 PUSH2 0x21E3 PUSH1 0x3 SLOAD PUSH2 0x21D5 PUSH2 0x21C6 PUSH2 0x21C0 PUSH2 0x21B8 PUSH1 0xB PUSH1 0x0 CALLER PUSH20 0xFFFFFFFFFFFFFFFFFFFFFFFFFFFFFFFFFFFFFFFF AND PUSH20 0xFFFFFFFFFFFFFFFFFFFFFFFFFFFFFFFFFFFFFFFF AND DUP2 MSTORE PUSH1 0x20 ADD SWAP1 DUP2 MSTORE PUSH1 0x20 ADD PUSH1 0x0 KECCAK256 PUSH1 0x4 ADD SLOAD NUMBER PUSH2 0x22D9 SWAP1 SWAP2 SWAP1 PUSH4 0xFFFFFFFF AND JUMP JUMPDEST PUSH2 0x22EF SWAP1 SWAP2 SWAP1 PUSH4 0xFFFFFFFF AND JUMP JUMPDEST DUP8 PUSH2 0x231B SWAP1 SWAP2 SWAP1 PUSH4 0xFFFFFFFF AND JUMP JUMPDEST PUSH2 0x231B SWAP1 SWAP2 SWAP1 PUSH4 0xFFFFFFFF AND JUMP JUMPDEST PUSH2 0x22EF SWAP1 SWAP2 SWAP1 PUSH4 0xFFFFFFFF AND JUMP JUMPDEST SWAP1 POP PUSH2 0x2248 DUP2 PUSH1 0xB PUSH1 0x0 CALLER PUSH20 0xFFFFFFFFFFFFFFFFFFFFFFFFFFFFFFFFFFFFFFFF AND PUSH20 0xFFFFFFFFFFFFFFFFFFFFFFFFFFFFFFFFFFFFFFFF AND DUP2 MSTORE PUSH1 0x20 ADD SWAP1 DUP2 MSTORE PUSH1 0x20 ADD PUSH1 0x0 KECCAK256 PUSH1 0x0 ADD SLOAD PUSH2 0x2305 SWAP1 SWAP2 SWAP1 PUSH4 0xFFFFFFFF AND JUMP JUMPDEST PUSH1 0xB PUSH1 0x0 CALLER PUSH20 0xFFFFFFFFFFFFFFFFFFFFFFFFFFFFFFFFFFFFFFFF AND PUSH20 0xFFFFFFFFFFFFFFFFFFFFFFFFFFFFFFFFFFFFFFFF AND DUP2 MSTORE PUSH1 0x20 ADD SWAP1 DUP2 MSTORE PUSH1 0x20 ADD PUSH1 0x0 KECCAK256 PUSH1 0x0 ADD DUP2 SWAP1 SSTORE POP NUMBER PUSH1 0xB PUSH1 0x0 CALLER PUSH20 0xFFFFFFFFFFFFFFFFFFFFFFFFFFFFFFFFFFFFFFFF AND PUSH20 0xFFFFFFFFFFFFFFFFFFFFFFFFFFFFFFFFFFFFFFFF AND DUP2 MSTORE PUSH1 0x20 ADD SWAP1 DUP2 MSTORE PUSH1 0x20 ADD PUSH1 0x0 KECCAK256 PUSH1 0x4 ADD DUP2 SWAP1 SSTORE POP POP POP JUMP JUMPDEST PUSH1 0x0 DUP2 DUP4 PUSH2 0x22E7 SWAP2 SWAP1 PUSH2 0x315D JUMP JUMPDEST SWAP1 POP SWAP3 SWAP2 POP POP JUMP JUMPDEST PUSH1 0x0 DUP2 DUP4 PUSH2 0x22FD SWAP2 SWAP1 PUSH2 0x3191 JUMP JUMPDEST SWAP1 POP SWAP3 SWAP2 POP POP JUMP JUMPDEST PUSH1 0x0 DUP2 DUP4 PUSH2 0x2313 SWAP2 SWAP1 PUSH2 0x2EC5 JUMP JUMPDEST SWAP1 POP SWAP3 SWAP2 POP POP JUMP JUMPDEST PUSH1 0x0 DUP2 DUP4 PUSH2 0x2329 SWAP2 SWAP1 PUSH2 0x31C2 JUMP JUMPDEST SWAP1 POP SWAP3 SWAP2 POP POP JUMP JUMPDEST PUSH2 0x23B2 DUP4 PUSH4 0xA9059CBB PUSH1 0xE0 SHL DUP5 DUP5 PUSH1 0x40 MLOAD PUSH1 0x24 ADD PUSH2 0x2350 SWAP3 SWAP2 SWAP1 PUSH2 0x2BA3 JUMP JUMPDEST PUSH1 0x40 MLOAD PUSH1 0x20 DUP2 DUP4 SUB SUB DUP2 MSTORE SWAP1 PUSH1 0x40 MSTORE SWAP1 PUSH28 0xFFFFFFFFFFFFFFFFFFFFFFFFFFFFFFFFFFFFFFFFFFFFFFFFFFFFFFFF NOT AND PUSH1 0x20 DUP3 ADD DUP1 MLOAD PUSH28 0xFFFFFFFFFFFFFFFFFFFFFFFFFFFFFFFFFFFFFFFFFFFFFFFFFFFFFFFF DUP4 DUP2 DUP4 AND OR DUP4 MSTORE POP POP POP POP PUSH2 0x2504 JUMP JUMPDEST POP POP POP JUMP JUMPDEST PUSH1 0x0 DUP1 PUSH1 0x0 SWAP1 SLOAD SWAP1 PUSH2 0x100 EXP SWAP1 DIV PUSH20 0xFFFFFFFFFFFFFFFFFFFFFFFFFFFFFFFFFFFFFFFF AND SWAP1 POP DUP2 PUSH1 0x0 DUP1 PUSH2 0x100 EXP DUP2 SLOAD DUP2 PUSH20 0xFFFFFFFFFFFFFFFFFFFFFFFFFFFFFFFFFFFFFFFF MUL NOT AND SWAP1 DUP4 PUSH20 0xFFFFFFFFFFFFFFFFFFFFFFFFFFFFFFFFFFFFFFFF AND MUL OR SWAP1 SSTORE POP DUP2 PUSH20 0xFFFFFFFFFFFFFFFFFFFFFFFFFFFFFFFFFFFFFFFF AND DUP2 PUSH20 0xFFFFFFFFFFFFFFFFFFFFFFFFFFFFFFFFFFFFFFFF AND PUSH32 0x8BE0079C531659141344CD1FD0A4F28419497F9722A3DAAFE3B4186F6B6457E0 PUSH1 0x40 MLOAD PUSH1 0x40 MLOAD DUP1 SWAP2 SUB SWAP1 LOG3 POP POP JUMP JUMPDEST PUSH2 0x24FE DUP5 PUSH4 0x23B872DD PUSH1 0xE0 SHL DUP6 DUP6 DUP6 PUSH1 0x40 MLOAD PUSH1 0x24 ADD PUSH2 0x249C SWAP4 SWAP3 SWAP2 SWAP1 PUSH2 0x321C JUMP JUMPDEST PUSH1 0x40 MLOAD PUSH1 0x20 DUP2 DUP4 SUB SUB DUP2 MSTORE SWAP1 PUSH1 0x40 MSTORE SWAP1 PUSH28 0xFFFFFFFFFFFFFFFFFFFFFFFFFFFFFFFFFFFFFFFFFFFFFFFFFFFFFFFF NOT AND PUSH1 0x20 DUP3 ADD DUP1 MLOAD PUSH28 0xFFFFFFFFFFFFFFFFFFFFFFFFFFFFFFFFFFFFFFFFFFFFFFFFFFFFFFFF DUP4 DUP2 DUP4 AND OR DUP4 MSTORE POP POP POP POP PUSH2 0x2504 JUMP JUMPDEST POP POP POP POP JUMP JUMPDEST PUSH1 0x0 PUSH2 0x2566 DUP3 PUSH1 0x40 MLOAD DUP1 PUSH1 0x40 ADD PUSH1 0x40 MSTORE DUP1 PUSH1 0x20 DUP2 MSTORE PUSH1 0x20 ADD PUSH32 0x5361666542455032303A206C6F772D6C6576656C2063616C6C206661696C6564 DUP2 MSTORE POP DUP6 PUSH20 0xFFFFFFFFFFFFFFFFFFFFFFFFFFFFFFFFFFFFFFFF AND PUSH2 0x25CB SWAP1 SWAP3 SWAP2 SWAP1 PUSH4 0xFFFFFFFF AND JUMP JUMPDEST SWAP1 POP PUSH1 0x0 DUP2 MLOAD GT ISZERO PUSH2 0x25C6 JUMPI DUP1 DUP1 PUSH1 0x20 ADD SWAP1 MLOAD DUP2 ADD SWAP1 PUSH2 0x2586 SWAP2 SWAP1 PUSH2 0x328B JUMP JUMPDEST PUSH2 0x25C5 JUMPI PUSH1 0x40 MLOAD PUSH32 0x8C379A000000000000000000000000000000000000000000000000000000000 DUP2 MSTORE PUSH1 0x4 ADD PUSH2 0x25BC SWAP1 PUSH2 0x332A JUMP JUMPDEST PUSH1 0x40 MLOAD DUP1 SWAP2 SUB SWAP1 REVERT JUMPDEST JUMPDEST POP POP POP JUMP JUMPDEST PUSH1 0x60 PUSH2 0x25DA DUP5 DUP5 PUSH1 0x0 DUP6 PUSH2 0x25E3 JUMP JUMPDEST SWAP1 POP SWAP4 SWAP3 POP POP POP JUMP JUMPDEST PUSH1 0x60 DUP3 SELFBALANCE LT ISZERO PUSH2 0x2628 JUMPI PUSH1 0x40 MLOAD PUSH32 0x8C379A000000000000000000000000000000000000000000000000000000000 DUP2 MSTORE PUSH1 0x4 ADD PUSH2 0x261F SWAP1 PUSH2 0x33BC JUMP JUMPDEST PUSH1 0x40 MLOAD DUP1 SWAP2 SUB SWAP1 REVERT JUMPDEST PUSH2 0x2631 DUP6 PUSH2 0x26F7 JUMP JUMPDEST PUSH2 0x2670 JUMPI PUSH1 0x40 MLOAD PUSH32 0x8C379A000000000000000000000000000000000000000000000000000000000 DUP2 MSTORE PUSH1 0x4 ADD PUSH2 0x2667 SWAP1 PUSH2 0x3428 JUMP JUMPDEST PUSH1 0x40 MLOAD DUP1 SWAP2 SUB SWAP1 REVERT JUMPDEST PUSH1 0x0 DUP1 DUP7 PUSH20 0xFFFFFFFFFFFFFFFFFFFFFFFFFFFFFFFFFFFFFFFF AND DUP6 DUP8 PUSH1 0x40 MLOAD PUSH2 0x2699 SWAP2 SWAP1 PUSH2 0x34C2 JUMP JUMPDEST PUSH1 0x0 PUSH1 0x40 MLOAD DUP1 DUP4 SUB DUP2 DUP6 DUP8 GAS CALL SWAP3 POP POP POP RETURNDATASIZE DUP1 PUSH1 0x0 DUP2 EQ PUSH2 0x26D6 JUMPI PUSH1 0x40 MLOAD SWAP2 POP PUSH1 0x1F NOT PUSH1 0x3F RETURNDATASIZE ADD AND DUP3 ADD PUSH1 0x40 MSTORE RETURNDATASIZE DUP3 MSTORE RETURNDATASIZE PUSH1 0x0 PUSH1 0x20 DUP5 ADD RETURNDATACOPY PUSH2 0x26DB JUMP JUMPDEST PUSH1 0x60 SWAP2 POP JUMPDEST POP SWAP2 POP SWAP2 POP PUSH2 0x26EB DUP3 DUP3 DUP7 PUSH2 0x271A JUMP JUMPDEST SWAP3 POP POP POP SWAP5 SWAP4 POP POP POP POP JUMP JUMPDEST PUSH1 0x0 DUP1 DUP3 PUSH20 0xFFFFFFFFFFFFFFFFFFFFFFFFFFFFFFFFFFFFFFFF AND EXTCODESIZE GT SWAP1 POP SWAP2 SWAP1 POP JUMP JUMPDEST PUSH1 0x60 DUP4 ISZERO PUSH2 0x272A JUMPI DUP3 SWAP1 POP PUSH2 0x277A JUMP JUMPDEST PUSH1 0x0 DUP4 MLOAD GT ISZERO PUSH2 0x273D JUMPI DUP3 MLOAD DUP1 DUP5 PUSH1 0x20 ADD REVERT JUMPDEST DUP2 PUSH1 0x40 MLOAD PUSH32 0x8C379A000000000000000000000000000000000000000000000000000000000 DUP2 MSTORE PUSH1 0x4 ADD PUSH2 0x2771 SWAP2 SWAP1 PUSH2 0x352E JUMP JUMPDEST PUSH1 0x40 MLOAD DUP1 SWAP2 SUB SWAP1 REVERT JUMPDEST SWAP4 SWAP3 POP POP POP JUMP JUMPDEST PUSH1 0x0 DUP2 SWAP1 POP SWAP2 SWAP1 POP JUMP JUMPDEST PUSH2 0x2794 DUP2 PUSH2 0x2781 JUMP JUMPDEST DUP3 MSTORE POP POP JUMP JUMPDEST PUSH1 0x0 PUSH1 0x20 DUP3 ADD SWAP1 POP PUSH2 0x27AF PUSH1 0x0 DUP4 ADD DUP5 PUSH2 0x278B JUMP JUMPDEST SWAP3 SWAP2 POP POP JUMP JUMPDEST PUSH1 0x0 DUP1 REVERT JUMPDEST PUSH2 0x27C3 DUP2 PUSH2 0x2781 JUMP JUMPDEST DUP2 EQ PUSH2 0x27CE JUMPI PUSH1 0x0 DUP1 REVERT JUMPDEST POP JUMP JUMPDEST PUSH1 0x0 DUP2 CALLDATALOAD SWAP1 POP PUSH2 0x27E0 DUP2 PUSH2 0x27BA JUMP JUMPDEST SWAP3 SWAP2 POP POP JUMP JUMPDEST PUSH1 0x0 PUSH1 0x20 DUP3 DUP5 SUB SLT ISZERO PUSH2 0x27FC JUMPI PUSH2 0x27FB PUSH2 0x27B5 JUMP JUMPDEST JUMPDEST PUSH1 0x0 PUSH2 0x280A DUP5 DUP3 DUP6 ADD PUSH2 0x27D1 JUMP JUMPDEST SWAP2 POP POP SWAP3 SWAP2 POP POP JUMP JUMPDEST PUSH1 0x0 PUSH20 0xFFFFFFFFFFFFFFFFFFFFFFFFFFFFFFFFFFFFFFFF DUP3 AND SWAP1 POP SWAP2 SWAP1 POP JUMP JUMPDEST PUSH1 0x0 PUSH2 0x283E DUP3 PUSH2 0x2813 JUMP JUMPDEST SWAP1 POP SWAP2 SWAP1 POP JUMP JUMPDEST PUSH2 0x284E DUP2 PUSH2 0x2833 JUMP JUMPDEST DUP2 EQ PUSH2 0x2859 JUMPI PUSH1 0x0 DUP1 REVERT JUMPDEST POP JUMP JUMPDEST PUSH1 0x0 DUP2 CALLDATALOAD SWAP1 POP PUSH2 0x286B DUP2 PUSH2 0x2845 JUMP JUMPDEST SWAP3 SWAP2 POP POP JUMP JUMPDEST PUSH1 0x0 PUSH1 0x20 DUP3 DUP5 SUB SLT ISZERO PUSH2 0x2887 JUMPI PUSH2 0x2886 PUSH2 0x27B5 JUMP JUMPDEST JUMPDEST PUSH1 0x0 PUSH2 0x2895 DUP5 DUP3 DUP6 ADD PUSH2 0x285C JUMP JUMPDEST SWAP2 POP POP SWAP3 SWAP2 POP POP JUMP JUMPDEST PUSH1 0x0 DUP1 PUSH1 0x40 DUP4 DUP6 SUB SLT ISZERO PUSH2 0x28B5 JUMPI PUSH2 0x28B4 PUSH2 0x27B5 JUMP JUMPDEST JUMPDEST PUSH1 0x0 PUSH2 0x28C3 DUP6 DUP3 DUP7 ADD PUSH2 0x27D1 JUMP JUMPDEST SWAP3 POP POP PUSH1 0x20 PUSH2 0x28D4 DUP6 DUP3 DUP7 ADD PUSH2 0x27D1 JUMP JUMPDEST SWAP2 POP POP SWAP3 POP SWAP3 SWAP1 POP JUMP JUMPDEST PUSH2 0x28E7 DUP2 PUSH2 0x2833 JUMP JUMPDEST DUP3 MSTORE POP POP JUMP JUMPDEST PUSH1 0x0 PUSH1 0x20 DUP3 ADD SWAP1 POP PUSH2 0x2902 PUSH1 0x0 DUP4 ADD DUP5 PUSH2 0x28DE JUMP JUMPDEST SWAP3 SWAP2 POP POP JUMP JUMPDEST PUSH1 0x0 DUP2 SWAP1 POP SWAP2 SWAP1 POP JUMP JUMPDEST PUSH1 0x0 PUSH2 0x292D PUSH2 0x2928 PUSH2 0x2923 DUP5 PUSH2 0x2813 JUMP JUMPDEST PUSH2 0x2908 JUMP JUMPDEST PUSH2 0x2813 JUMP JUMPDEST SWAP1 POP SWAP2 SWAP1 POP JUMP JUMPDEST PUSH1 0x0 PUSH2 0x293F DUP3 PUSH2 0x2912 JUMP JUMPDEST SWAP1 POP SWAP2 SWAP1 POP JUMP JUMPDEST PUSH1 0x0 PUSH2 0x2951 DUP3 PUSH2 0x2934 JUMP JUMPDEST SWAP1 POP SWAP2 SWAP1 POP JUMP JUMPDEST PUSH2 0x2961 DUP2 PUSH2 0x2946 JUMP JUMPDEST DUP3 MSTORE POP POP JUMP JUMPDEST PUSH1 0x0 PUSH1 0x20 DUP3 ADD SWAP1 POP PUSH2 0x297C PUSH1 0x0 DUP4 ADD DUP5 PUSH2 0x2958 JUMP JUMPDEST SWAP3 SWAP2 POP POP JUMP JUMPDEST PUSH1 0x0 DUP3 DUP3 MSTORE PUSH1 0x20 DUP3 ADD SWAP1 POP SWAP3 SWAP2 POP POP JUMP JUMPDEST PUSH32 0x4F776E61626C653A2063616C6C6572206973206E6F7420746865206F776E6572 PUSH1 0x0 DUP3 ADD MSTORE POP JUMP JUMPDEST PUSH1 0x0 PUSH2 0x29C9 PUSH1 0x20 DUP4 PUSH2 0x2982 JUMP JUMPDEST SWAP2 POP PUSH2 0x29D4 DUP3 PUSH2 0x2993 JUMP JUMPDEST PUSH1 0x20 DUP3 ADD SWAP1 POP SWAP2 SWAP1 POP JUMP JUMPDEST PUSH1 0x0 PUSH1 0x20 DUP3 ADD SWAP1 POP DUP2 DUP2 SUB PUSH1 0x0 DUP4 ADD MSTORE PUSH2 0x29F8 DUP2 PUSH2 0x29BC JUMP JUMPDEST SWAP1 POP SWAP2 SWAP1 POP JUMP JUMPDEST PUSH32 0x43616E2774206265207A65726F00000000000000000000000000000000000000 PUSH1 0x0 DUP3 ADD MSTORE POP JUMP JUMPDEST PUSH1 0x0 PUSH2 0x2A35 PUSH1 0xD DUP4 PUSH2 0x2982 JUMP JUMPDEST SWAP2 POP PUSH2 0x2A40 DUP3 PUSH2 0x29FF JUMP JUMPDEST PUSH1 0x20 DUP3 ADD SWAP1 POP SWAP2 SWAP1 POP JUMP JUMPDEST PUSH1 0x0 PUSH1 0x20 DUP3 ADD SWAP1 POP DUP2 DUP2 SUB PUSH1 0x0 DUP4 ADD MSTORE PUSH2 0x2A64 DUP2 PUSH2 0x2A28 JUMP JUMPDEST SWAP1 POP SWAP2 SWAP1 POP JUMP JUMPDEST PUSH32 0x416D6F756E742073686F756C642062652067726561746572207468616E203000 PUSH1 0x0 DUP3 ADD MSTORE POP JUMP JUMPDEST PUSH1 0x0 PUSH2 0x2AA1 PUSH1 0x1F DUP4 PUSH2 0x2982 JUMP JUMPDEST SWAP2 POP PUSH2 0x2AAC DUP3 PUSH2 0x2A6B JUMP JUMPDEST PUSH1 0x20 DUP3 ADD SWAP1 POP SWAP2 SWAP1 POP JUMP JUMPDEST PUSH1 0x0 PUSH1 0x20 DUP3 ADD SWAP1 POP DUP2 DUP2 SUB PUSH1 0x0 DUP4 ADD MSTORE PUSH2 0x2AD0 DUP2 PUSH2 0x2A94 JUMP JUMPDEST SWAP1 POP SWAP2 SWAP1 POP JUMP JUMPDEST PUSH32 0x496E76616C696420616D6F756E74000000000000000000000000000000000000 PUSH1 0x0 DUP3 ADD MSTORE POP JUMP JUMPDEST PUSH1 0x0 PUSH2 0x2B0D PUSH1 0xE DUP4 PUSH2 0x2982 JUMP JUMPDEST SWAP2 POP PUSH2 0x2B18 DUP3 PUSH2 0x2AD7 JUMP JUMPDEST PUSH1 0x20 DUP3 ADD SWAP1 POP SWAP2 SWAP1 POP JUMP JUMPDEST PUSH1 0x0 PUSH1 0x20 DUP3 ADD SWAP1 POP DUP2 DUP2 SUB PUSH1 0x0 DUP4 ADD MSTORE PUSH2 0x2B3C DUP2 PUSH2 0x2B00 JUMP JUMPDEST SWAP1 POP SWAP2 SWAP1 POP JUMP JUMPDEST PUSH32 0x4E487B7100000000000000000000000000000000000000000000000000000000 PUSH1 0x0 MSTORE PUSH1 0x12 PUSH1 0x4 MSTORE PUSH1 0x24 PUSH1 0x0 REVERT JUMPDEST PUSH1 0x0 PUSH2 0x2B7D DUP3 PUSH2 0x2781 JUMP JUMPDEST SWAP2 POP PUSH2 0x2B88 DUP4 PUSH2 0x2781 JUMP JUMPDEST SWAP3 POP DUP3 PUSH2 0x2B98 JUMPI PUSH2 0x2B97 PUSH2 0x2B43 JUMP JUMPDEST JUMPDEST DUP3 DUP3 MOD SWAP1 POP SWAP3 SWAP2 POP POP JUMP JUMPDEST PUSH1 0x0 PUSH1 0x40 DUP3 ADD SWAP1 POP PUSH2 0x2BB8 PUSH1 0x0 DUP4 ADD DUP6 PUSH2 0x28DE JUMP JUMPDEST PUSH2 0x2BC5 PUSH1 0x20 DUP4 ADD DUP5 PUSH2 0x278B JUMP JUMPDEST SWAP4 SWAP3 POP POP POP JUMP JUMPDEST PUSH32 0x4E6F7468696E6720746F20636C61696D00000000000000000000000000000000 PUSH1 0x0 DUP3 ADD MSTORE POP JUMP JUMPDEST PUSH1 0x0 PUSH2 0x2C02 PUSH1 0x10 DUP4 PUSH2 0x2982 JUMP JUMPDEST SWAP2 POP PUSH2 0x2C0D DUP3 PUSH2 0x2BCC JUMP JUMPDEST PUSH1 0x20 DUP3 ADD SWAP1 POP SWAP2 SWAP1 POP JUMP JUMPDEST PUSH1 0x0 PUSH1 0x20 DUP3 ADD SWAP1 POP DUP2 DUP2 SUB PUSH1 0x0 DUP4 ADD MSTORE PUSH2 0x2C31 DUP2 PUSH2 0x2BF5 JUMP JUMPDEST SWAP1 POP SWAP2 SWAP1 POP JUMP JUMPDEST PUSH1 0x0 DUP2 MLOAD SWAP1 POP PUSH2 0x2C47 DUP2 PUSH2 0x27BA JUMP JUMPDEST SWAP3 SWAP2 POP POP JUMP JUMPDEST PUSH1 0x0 PUSH1 0x20 DUP3 DUP5 SUB SLT ISZERO PUSH2 0x2C63 JUMPI PUSH2 0x2C62 PUSH2 0x27B5 JUMP JUMPDEST JUMPDEST PUSH1 0x0 PUSH2 0x2C71 DUP5 DUP3 DUP6 ADD PUSH2 0x2C38 JUMP JUMPDEST SWAP2 POP POP SWAP3 SWAP2 POP POP JUMP JUMPDEST PUSH32 0x496E73756666696369656E742100000000000000000000000000000000000000 PUSH1 0x0 DUP3 ADD MSTORE POP JUMP JUMPDEST PUSH1 0x0 PUSH2 0x2CB0 PUSH1 0xD DUP4 PUSH2 0x2982 JUMP JUMPDEST SWAP2 POP PUSH2 0x2CBB DUP3 PUSH2 0x2C7A JUMP JUMPDEST PUSH1 0x20 DUP3 ADD SWAP1 POP SWAP2 SWAP1 POP JUMP JUMPDEST PUSH1 0x0 PUSH1 0x20 DUP3 ADD SWAP1 POP DUP2 DUP2 SUB PUSH1 0x0 DUP4 ADD MSTORE PUSH2 0x2CDF DUP2 PUSH2 0x2CA3 JUMP JUMPDEST SWAP1 POP SWAP2 SWAP1 POP JUMP JUMPDEST PUSH32 0x43616E2774207374617274000000000000000000000000000000000000000000 PUSH1 0x0 DUP3 ADD MSTORE POP JUMP JUMPDEST PUSH1 0x0 PUSH2 0x2D1C PUSH1 0xB DUP4 PUSH2 0x2982 JUMP JUMPDEST SWAP2 POP PUSH2 0x2D27 DUP3 PUSH2 0x2CE6 JUMP JUMPDEST PUSH1 0x20 DUP3 ADD SWAP1 POP SWAP2 SWAP1 POP JUMP JUMPDEST PUSH1 0x0 PUSH1 0x20 DUP3 ADD SWAP1 POP DUP2 DUP2 SUB PUSH1 0x0 DUP4 ADD MSTORE PUSH2 0x2D4B DUP2 PUSH2 0x2D0F JUMP JUMPDEST SWAP1 POP SWAP2 SWAP1 POP JUMP JUMPDEST PUSH32 0x496E73756666696369656E740000000000000000000000000000000000000000 PUSH1 0x0 DUP3 ADD MSTORE POP JUMP JUMPDEST PUSH1 0x0 PUSH2 0x2D88 PUSH1 0xC DUP4 PUSH2 0x2982 JUMP JUMPDEST SWAP2 POP PUSH2 0x2D93 DUP3 PUSH2 0x2D52 JUMP JUMPDEST PUSH1 0x20 DUP3 ADD SWAP1 POP SWAP2 SWAP1 POP JUMP JUMPDEST PUSH1 0x0 PUSH1 0x20 DUP3 ADD SWAP1 POP DUP2 DUP2 SUB PUSH1 0x0 DUP4 ADD MSTORE PUSH2 0x2DB7 DUP2 PUSH2 0x2D7B JUMP JUMPDEST SWAP1 POP SWAP2 SWAP1 POP JUMP JUMPDEST PUSH32 0x496E76616C6964204D6F64650000000000000000000000000000000000000000 PUSH1 0x0 DUP3 ADD MSTORE POP JUMP JUMPDEST PUSH1 0x0 PUSH2 0x2DF4 PUSH1 0xC DUP4 PUSH2 0x2982 JUMP JUMPDEST SWAP2 POP PUSH2 0x2DFF DUP3 PUSH2 0x2DBE JUMP JUMPDEST PUSH1 0x20 DUP3 ADD SWAP1 POP SWAP2 SWAP1 POP JUMP JUMPDEST PUSH1 0x0 PUSH1 0x20 DUP3 ADD SWAP1 POP DUP2 DUP2 SUB PUSH1 0x0 DUP4 ADD MSTORE PUSH2 0x2E23 DUP2 PUSH2 0x2DE7 JUMP JUMPDEST SWAP1 POP SWAP2 SWAP1 POP JUMP JUMPDEST PUSH32 0x496E76616C6964204C6F636B7570204475726174696F6E000000000000000000 PUSH1 0x0 DUP3 ADD MSTORE POP JUMP JUMPDEST PUSH1 0x0 PUSH2 0x2E60 PUSH1 0x17 DUP4 PUSH2 0x2982 JUMP JUMPDEST SWAP2 POP PUSH2 0x2E6B DUP3 PUSH2 0x2E2A JUMP JUMPDEST PUSH1 0x20 DUP3 ADD SWAP1 POP SWAP2 SWAP1 POP JUMP JUMPDEST PUSH1 0x0 PUSH1 0x20 DUP3 ADD SWAP1 POP DUP2 DUP2 SUB PUSH1 0x0 DUP4 ADD MSTORE PUSH2 0x2E8F DUP2 PUSH2 0x2E53 JUMP JUMPDEST SWAP1 POP SWAP2 SWAP1 POP JUMP JUMPDEST PUSH32 0x4E487B7100000000000000000000000000000000000000000000000000000000 PUSH1 0x0 MSTORE PUSH1 0x11 PUSH1 0x4 MSTORE PUSH1 0x24 PUSH1 0x0 REVERT JUMPDEST PUSH1 0x0 PUSH2 0x2ED0 DUP3 PUSH2 0x2781 JUMP JUMPDEST SWAP2 POP PUSH2 0x2EDB DUP4 PUSH2 0x2781 JUMP JUMPDEST SWAP3 POP DUP3 PUSH32 0xFFFFFFFFFFFFFFFFFFFFFFFFFFFFFFFFFFFFFFFFFFFFFFFFFFFFFFFFFFFFFFFF SUB DUP3 GT ISZERO PUSH2 0x2F10 JUMPI PUSH2 0x2F0F PUSH2 0x2E96 JUMP JUMPDEST JUMPDEST DUP3 DUP3 ADD SWAP1 POP SWAP3 SWAP2 POP POP JUMP JUMPDEST PUSH32 0x496E76616C696420556E7374616B696E67204665652052617465000000000000 PUSH1 0x0 DUP3 ADD MSTORE POP JUMP JUMPDEST PUSH1 0x0 PUSH2 0x2F51 PUSH1 0x1A DUP4 PUSH2 0x2982 JUMP JUMPDEST SWAP2 POP PUSH2 0x2F5C DUP3 PUSH2 0x2F1B JUMP JUMPDEST PUSH1 0x20 DUP3 ADD SWAP1 POP SWAP2 SWAP1 POP JUMP JUMPDEST PUSH1 0x0 PUSH1 0x20 DUP3 ADD SWAP1 POP DUP2 DUP2 SUB PUSH1 0x0 DUP4 ADD MSTORE PUSH2 0x2F80 DUP2 PUSH2 0x2F44 JUMP JUMPDEST SWAP1 POP SWAP2 SWAP1 POP JUMP JUMPDEST PUSH32 0x496E76616C69642076616C756500000000000000000000000000000000000000 PUSH1 0x0 DUP3 ADD MSTORE POP JUMP JUMPDEST PUSH1 0x0 PUSH2 0x2FBD PUSH1 0xD DUP4 PUSH2 0x2982 JUMP JUMPDEST SWAP2 POP PUSH2 0x2FC8 DUP3 PUSH2 0x2F87 JUMP JUMPDEST PUSH1 0x20 DUP3 ADD SWAP1 POP SWAP2 SWAP1 POP JUMP JUMPDEST PUSH1 0x0 PUSH1 0x20 DUP3 ADD SWAP1 POP DUP2 DUP2 SUB PUSH1 0x0 DUP4 ADD MSTORE PUSH2 0x2FEC DUP2 PUSH2 0x2FB0 JUMP JUMPDEST SWAP1 POP SWAP2 SWAP1 POP JUMP JUMPDEST PUSH32 0x4572726F723A20696E76616C6964207374616B65720000000000000000000000 PUSH1 0x0 DUP3 ADD MSTORE POP JUMP JUMPDEST PUSH1 0x0 PUSH2 0x3029 PUSH1 0x15 DUP4 PUSH2 0x2982 JUMP JUMPDEST SWAP2 POP PUSH2 0x3034 DUP3 PUSH2 0x2FF3 JUMP JUMPDEST PUSH1 0x20 DUP3 ADD SWAP1 POP SWAP2 SWAP1 POP JUMP JUMPDEST PUSH1 0x0 PUSH1 0x20 DUP3 ADD SWAP1 POP DUP2 DUP2 SUB PUSH1 0x0 DUP4 ADD MSTORE PUSH2 0x3058 DUP2 PUSH2 0x301C JUMP JUMPDEST SWAP1 POP SWAP2 SWAP1 POP JUMP JUMPDEST PUSH32 0x4E6F74207374616B657220796574000000000000000000000000000000000000 PUSH1 0x0 DUP3 ADD MSTORE POP JUMP JUMPDEST PUSH1 0x0 PUSH2 0x3095 PUSH1 0xE DUP4 PUSH2 0x2982 JUMP JUMPDEST SWAP2 POP PUSH2 0x30A0 DUP3 PUSH2 0x305F JUMP JUMPDEST PUSH1 0x20 DUP3 ADD SWAP1 POP SWAP2 SWAP1 POP JUMP JUMPDEST PUSH1 0x0 PUSH1 0x20 DUP3 ADD SWAP1 POP DUP2 DUP2 SUB PUSH1 0x0 DUP4 ADD MSTORE PUSH2 0x30C4 DUP2 PUSH2 0x3088 JUMP JUMPDEST SWAP1 POP SWAP2 SWAP1 POP JUMP JUMPDEST PUSH32 0x4F776E61626C653A206E6577206F776E657220697320746865207A65726F2061 PUSH1 0x0 DUP3 ADD MSTORE PUSH32 0x6464726573730000000000000000000000000000000000000000000000000000 PUSH1 0x20 DUP3 ADD MSTORE POP JUMP JUMPDEST PUSH1 0x0 PUSH2 0x3127 PUSH1 0x26 DUP4 PUSH2 0x2982 JUMP JUMPDEST SWAP2 POP PUSH2 0x3132 DUP3 PUSH2 0x30CB JUMP JUMPDEST PUSH1 0x40 DUP3 ADD SWAP1 POP SWAP2 SWAP1 POP JUMP JUMPDEST PUSH1 0x0 PUSH1 0x20 DUP3 ADD SWAP1 POP DUP2 DUP2 SUB PUSH1 0x0 DUP4 ADD MSTORE PUSH2 0x3156 DUP2 PUSH2 0x311A JUMP JUMPDEST SWAP1 POP SWAP2 SWAP1 POP JUMP JUMPDEST PUSH1 0x0 PUSH2 0x3168 DUP3 PUSH2 0x2781 JUMP JUMPDEST SWAP2 POP PUSH2 0x3173 DUP4 PUSH2 0x2781 JUMP JUMPDEST SWAP3 POP DUP3 DUP3 LT ISZERO PUSH2 0x3186 JUMPI PUSH2 0x3185 PUSH2 0x2E96 JUMP JUMPDEST JUMPDEST DUP3 DUP3 SUB SWAP1 POP SWAP3 SWAP2 POP POP JUMP JUMPDEST PUSH1 0x0 PUSH2 0x319C DUP3 PUSH2 0x2781 JUMP JUMPDEST SWAP2 POP PUSH2 0x31A7 DUP4 PUSH2 0x2781 JUMP JUMPDEST SWAP3 POP DUP3 PUSH2 0x31B7 JUMPI PUSH2 0x31B6 PUSH2 0x2B43 JUMP JUMPDEST JUMPDEST DUP3 DUP3 DIV SWAP1 POP SWAP3 SWAP2 POP POP JUMP JUMPDEST PUSH1 0x0 PUSH2 0x31CD DUP3 PUSH2 0x2781 JUMP JUMPDEST SWAP2 POP PUSH2 0x31D8 DUP4 PUSH2 0x2781 JUMP JUMPDEST SWAP3 POP DUP2 PUSH32 0xFFFFFFFFFFFFFFFFFFFFFFFFFFFFFFFFFFFFFFFFFFFFFFFFFFFFFFFFFFFFFFFF DIV DUP4 GT DUP3 ISZERO ISZERO AND ISZERO PUSH2 0x3211 JUMPI PUSH2 0x3210 PUSH2 0x2E96 JUMP JUMPDEST JUMPDEST DUP3 DUP3 MUL SWAP1 POP SWAP3 SWAP2 POP POP JUMP JUMPDEST PUSH1 0x0 PUSH1 0x60 DUP3 ADD SWAP1 POP PUSH2 0x3231 PUSH1 0x0 DUP4 ADD DUP7 PUSH2 0x28DE JUMP JUMPDEST PUSH2 0x323E PUSH1 0x20 DUP4 ADD DUP6 PUSH2 0x28DE JUMP JUMPDEST PUSH2 0x324B PUSH1 0x40 DUP4 ADD DUP5 PUSH2 0x278B JUMP JUMPDEST SWAP5 SWAP4 POP POP POP POP JUMP JUMPDEST PUSH1 0x0 DUP2 ISZERO ISZERO SWAP1 POP SWAP2 SWAP1 POP JUMP JUMPDEST PUSH2 0x3268 DUP2 PUSH2 0x3253 JUMP JUMPDEST DUP2 EQ PUSH2 0x3273 JUMPI PUSH1 0x0 DUP1 REVERT JUMPDEST POP JUMP JUMPDEST PUSH1 0x0 DUP2 MLOAD SWAP1 POP PUSH2 0x3285 DUP2 PUSH2 0x325F JUMP JUMPDEST SWAP3 SWAP2 POP POP JUMP JUMPDEST PUSH1 0x0 PUSH1 0x20 DUP3 DUP5 SUB SLT ISZERO PUSH2 0x32A1 JUMPI PUSH2 0x32A0 PUSH2 0x27B5 JUMP JUMPDEST JUMPDEST PUSH1 0x0 PUSH2 0x32AF DUP5 DUP3 DUP6 ADD PUSH2 0x3276 JUMP JUMPDEST SWAP2 POP POP SWAP3 SWAP2 POP POP JUMP JUMPDEST PUSH32 0x5361666542455032303A204245503230206F7065726174696F6E20646964206E PUSH1 0x0 DUP3 ADD MSTORE PUSH32 0x6F74207375636365656400000000000000000000000000000000000000000000 PUSH1 0x20 DUP3 ADD MSTORE POP JUMP JUMPDEST PUSH1 0x0 PUSH2 0x3314 PUSH1 0x2A DUP4 PUSH2 0x2982 JUMP JUMPDEST SWAP2 POP PUSH2 0x331F DUP3 PUSH2 0x32B8 JUMP JUMPDEST PUSH1 0x40 DUP3 ADD SWAP1 POP SWAP2 SWAP1 POP JUMP JUMPDEST PUSH1 0x0 PUSH1 0x20 DUP3 ADD SWAP1 POP DUP2 DUP2 SUB PUSH1 0x0 DUP4 ADD MSTORE PUSH2 0x3343 DUP2 PUSH2 0x3307 JUMP JUMPDEST SWAP1 POP SWAP2 SWAP1 POP JUMP JUMPDEST PUSH32 0x416464726573733A20696E73756666696369656E742062616C616E636520666F PUSH1 0x0 DUP3 ADD MSTORE PUSH32 0x722063616C6C0000000000000000000000000000000000000000000000000000 PUSH1 0x20 DUP3 ADD MSTORE POP JUMP JUMPDEST PUSH1 0x0 PUSH2 0x33A6 PUSH1 0x26 DUP4 PUSH2 0x2982 JUMP JUMPDEST SWAP2 POP PUSH2 0x33B1 DUP3 PUSH2 0x334A JUMP JUMPDEST PUSH1 0x40 DUP3 ADD SWAP1 POP SWAP2 SWAP1 POP JUMP JUMPDEST PUSH1 0x0 PUSH1 0x20 DUP3 ADD SWAP1 POP DUP2 DUP2 SUB PUSH1 0x0 DUP4 ADD MSTORE PUSH2 0x33D5 DUP2 PUSH2 0x3399 JUMP JUMPDEST SWAP1 POP SWAP2 SWAP1 POP JUMP JUMPDEST PUSH32 0x416464726573733A2063616C6C20746F206E6F6E2D636F6E7472616374000000 PUSH1 0x0 DUP3 ADD MSTORE POP JUMP JUMPDEST PUSH1 0x0 PUSH2 0x3412 PUSH1 0x1D DUP4 PUSH2 0x2982 JUMP JUMPDEST SWAP2 POP PUSH2 0x341D DUP3 PUSH2 0x33DC JUMP JUMPDEST PUSH1 0x20 DUP3 ADD SWAP1 POP SWAP2 SWAP1 POP JUMP JUMPDEST PUSH1 0x0 PUSH1 0x20 DUP3 ADD SWAP1 POP DUP2 DUP2 SUB PUSH1 0x0 DUP4 ADD MSTORE PUSH2 0x3441 DUP2 PUSH2 0x3405 JUMP JUMPDEST SWAP1 POP SWAP2 SWAP1 POP JUMP JUMPDEST PUSH1 0x0 DUP2 MLOAD SWAP1 POP SWAP2 SWAP1 POP JUMP JUMPDEST PUSH1 0x0 DUP2 SWAP1 POP SWAP3 SWAP2 POP POP JUMP JUMPDEST PUSH1 0x0 JUMPDEST DUP4 DUP2 LT ISZERO PUSH2 0x347C JUMPI DUP1 DUP3 ADD MLOAD DUP2 DUP5 ADD MSTORE PUSH1 0x20 DUP2 ADD SWAP1 POP PUSH2 0x3461 JUMP JUMPDEST DUP4 DUP2 GT ISZERO PUSH2 0x348B JUMPI PUSH1 0x0 DUP5 DUP5 ADD MSTORE JUMPDEST POP POP POP POP JUMP JUMPDEST PUSH1 0x0 PUSH2 0x349C DUP3 PUSH2 0x3448 JUMP JUMPDEST PUSH2 0x34A6 DUP2 DUP6 PUSH2 0x3453 JUMP JUMPDEST SWAP4 POP PUSH2 0x34B6 DUP2 DUP6 PUSH1 0x20 DUP7 ADD PUSH2 0x345E JUMP JUMPDEST DUP1 DUP5 ADD SWAP2 POP POP SWAP3 SWAP2 POP POP JUMP JUMPDEST PUSH1 0x0 PUSH2 0x34CE DUP3 DUP5 PUSH2 0x3491 JUMP JUMPDEST SWAP2 POP DUP2 SWAP1 POP SWAP3 SWAP2 POP POP JUMP JUMPDEST PUSH1 0x0 DUP2 MLOAD SWAP1 POP SWAP2 SWAP1 POP JUMP JUMPDEST PUSH1 0x0 PUSH1 0x1F NOT PUSH1 0x1F DUP4 ADD AND SWAP1 POP SWAP2 SWAP1 POP JUMP JUMPDEST PUSH1 0x0 PUSH2 0x3500 DUP3 PUSH2 0x34D9 JUMP JUMPDEST PUSH2 0x350A DUP2 DUP6 PUSH2 0x2982 JUMP JUMPDEST SWAP4 POP PUSH2 0x351A DUP2 DUP6 PUSH1 0x20 DUP7 ADD PUSH2 0x345E JUMP JUMPDEST PUSH2 0x3523 DUP2 PUSH2 0x34E4 JUMP JUMPDEST DUP5 ADD SWAP2 POP POP SWAP3 SWAP2 POP POP JUMP JUMPDEST PUSH1 0x0 PUSH1 0x20 DUP3 ADD SWAP1 POP DUP2 DUP2 SUB PUSH1 0x0 DUP4 ADD MSTORE PUSH2 0x3548 DUP2 DUP5 PUSH2 0x34F5 JUMP JUMPDEST SWAP1 POP SWAP3 SWAP2 POP POP JUMP INVALID LOG2 PUSH5 0x6970667358 0x22 SLT KECCAK256 BALANCE PUSH13 0x4A6BABF22BF8AA5851C0D55D GAS 0x2C DUP9 SWAP6 MUL AND CALL 0xAF 0x5F CODECOPY 0xFC 0xC4 EXP SWAP16 SHR SUB 0xDB PUSH5 0x736F6C6343 STOP ADDMOD MULMOD STOP CALLER "
				},
				"gasEstimates": {
					"creation": {
						"codeDepositCost": "2740400",
						"executionCost": "infinite",
						"totalCost": "infinite"
					},
					"external": {
						"getMinimumStakingAmount(uint256)": "infinite",
						"getNumberofStakers()": "2513",
						"getRewardRate()": "2548",
						"getStakerMode(address)": "5154",
						"getTotalStaked()": "2461",
						"harvest()": "infinite",
						"isLocked(address)": "infinite",
						"isStartStaking(address)": "2957",
						"owner()": "2590",
						"renounceOwnership()": "30463",
						"rewardAmount(address)": "2937",
						"rewardToHarvest(address)": "infinite",
						"setCopperMinAmount(uint256)": "24850",
						"setEventPeriod(uint256)": "infinite",
						"setGoldMinAmount(uint256)": "24894",
						"setLockupTime(uint256)": "infinite",
						"setRewardRate(uint256)": "infinite",
						"setSilverMinAmount(uint256)": "24829",
						"setThreeMonthMinAmount(uint256)": "24872",
						"setUnstakingFeeRate(uint256)": "infinite",
						"stake(uint256)": "infinite",
						"stakedAmount(address)": "2913",
						"startStaking(uint256,uint256)": "infinite",
						"token()": "infinite",
						"totalStaked()": "2475",
						"transferOwnership(address)": "30767",
						"withdraw(uint256)": "infinite"
					},
					"internal": {
						"Init()": "infinite",
						"calDaysFromTimestamp(uint256)": "infinite",
						"updateReward()": "infinite"
					}
				},
				"methodIdentifiers": {
					"getMinimumStakingAmount(uint256)": "909f093e",
					"getNumberofStakers()": "5715ec11",
					"getRewardRate()": "7e1a3786",
					"getStakerMode(address)": "aedf562b",
					"getTotalStaked()": "0917e776",
					"harvest()": "4641257d",
					"isLocked(address)": "4a4fbeec",
					"isStartStaking(address)": "fe600f84",
					"owner()": "8da5cb5b",
					"renounceOwnership()": "715018a6",
					"rewardAmount(address)": "645a8a56",
					"rewardToHarvest(address)": "6ef32435",
					"setCopperMinAmount(uint256)": "c1704a14",
					"setEventPeriod(uint256)": "692642e7",
					"setGoldMinAmount(uint256)": "ae544943",
					"setLockupTime(uint256)": "4b62b70b",
					"setRewardRate(uint256)": "9e447fc6",
					"setSilverMinAmount(uint256)": "23b61117",
					"setThreeMonthMinAmount(uint256)": "c665d80e",
					"setUnstakingFeeRate(uint256)": "91e07e7a",
					"stake(uint256)": "a694fc3a",
					"stakedAmount(address)": "f9931855",
					"startStaking(uint256,uint256)": "4b77dd9e",
					"token()": "fc0c546a",
					"totalStaked()": "817b1cd2",
					"transferOwnership(address)": "f2fde38b",
					"withdraw(uint256)": "2e1a7d4d"
				}
			},
			"storageLayout": {
				"storage": [
					{
						"astId": 7,
						"contract": "contracts/Staking.sol:StakingPlatform",
						"label": "_owner",
						"offset": 0,
						"slot": "0",
						"type": "t_address"
					},
					{
						"astId": 1160,
						"contract": "contracts/Staking.sol:StakingPlatform",
						"label": "_unstakingFeeRate",
						"offset": 0,
						"slot": "1",
						"type": "t_uint256"
					},
					{
						"astId": 1162,
						"contract": "contracts/Staking.sol:StakingPlatform",
						"label": "_eventPeriod",
						"offset": 0,
						"slot": "2",
						"type": "t_uint256"
					},
					{
						"astId": 1164,
						"contract": "contracts/Staking.sol:StakingPlatform",
						"label": "_rewardRate",
						"offset": 0,
						"slot": "3",
						"type": "t_uint256"
					},
					{
						"astId": 1166,
						"contract": "contracts/Staking.sol:StakingPlatform",
						"label": "_rewardFeeRate",
						"offset": 0,
						"slot": "4",
						"type": "t_uint256"
					},
					{
						"astId": 1168,
						"contract": "contracts/Staking.sol:StakingPlatform",
						"label": "_lockupPeriod",
						"offset": 0,
						"slot": "5",
						"type": "t_uint256"
					},
					{
						"astId": 1170,
						"contract": "contracts/Staking.sol:StakingPlatform",
						"label": "_minStakeAmount_m",
						"offset": 0,
						"slot": "6",
						"type": "t_uint256"
					},
					{
						"astId": 1172,
						"contract": "contracts/Staking.sol:StakingPlatform",
						"label": "_minStakeAmount_g",
						"offset": 0,
						"slot": "7",
						"type": "t_uint256"
					},
					{
						"astId": 1174,
						"contract": "contracts/Staking.sol:StakingPlatform",
						"label": "_minStakeAmount_s",
						"offset": 0,
						"slot": "8",
						"type": "t_uint256"
					},
					{
						"astId": 1176,
						"contract": "contracts/Staking.sol:StakingPlatform",
						"label": "_minStakeAmount_c",
						"offset": 0,
						"slot": "9",
						"type": "t_uint256"
					},
					{
						"astId": 1179,
						"contract": "contracts/Staking.sol:StakingPlatform",
						"label": "_stakers",
						"offset": 0,
						"slot": "10",
						"type": "t_array(t_address)dyn_storage"
					},
					{
						"astId": 1184,
						"contract": "contracts/Staking.sol:StakingPlatform",
						"label": "_staker",
						"offset": 0,
						"slot": "11",
						"type": "t_mapping(t_address,t_struct(Staker)1158_storage)"
					},
					{
						"astId": 1186,
						"contract": "contracts/Staking.sol:StakingPlatform",
						"label": "totalStaked",
						"offset": 0,
						"slot": "12",
						"type": "t_uint256"
					},
					{
						"astId": 1189,
						"contract": "contracts/Staking.sol:StakingPlatform",
						"label": "token",
						"offset": 0,
						"slot": "13",
						"type": "t_contract(IBEP20)912"
					}
				],
				"types": {
					"t_address": {
						"encoding": "inplace",
						"label": "address",
						"numberOfBytes": "20"
					},
					"t_array(t_address)dyn_storage": {
						"base": "t_address",
						"encoding": "dynamic_array",
						"label": "address[]",
						"numberOfBytes": "32"
					},
					"t_contract(IBEP20)912": {
						"encoding": "inplace",
						"label": "contract IBEP20",
						"numberOfBytes": "20"
					},
					"t_mapping(t_address,t_struct(Staker)1158_storage)": {
						"encoding": "mapping",
						"key": "t_address",
						"label": "mapping(address => struct StakingPlatform.Staker)",
						"numberOfBytes": "32",
						"value": "t_struct(Staker)1158_storage"
					},
					"t_struct(Staker)1158_storage": {
						"encoding": "inplace",
						"label": "struct StakingPlatform.Staker",
						"members": [
							{
								"astId": 1147,
								"contract": "contracts/Staking.sol:StakingPlatform",
								"label": "stakerCurrentReward",
								"offset": 0,
								"slot": "0",
								"type": "t_uint256"
							},
							{
								"astId": 1149,
								"contract": "contracts/Staking.sol:StakingPlatform",
								"label": "stakedAmount",
								"offset": 0,
								"slot": "1",
								"type": "t_uint256"
							},
							{
								"astId": 1151,
								"contract": "contracts/Staking.sol:StakingPlatform",
								"label": "mode",
								"offset": 0,
								"slot": "2",
								"type": "t_uint256"
							},
							{
								"astId": 1153,
								"contract": "contracts/Staking.sol:StakingPlatform",
								"label": "stakeStartTime",
								"offset": 0,
								"slot": "3",
								"type": "t_uint256"
							},
							{
								"astId": 1155,
								"contract": "contracts/Staking.sol:StakingPlatform",
								"label": "lastUpdatedBlockNumber",
								"offset": 0,
								"slot": "4",
								"type": "t_uint256"
							},
							{
								"astId": 1157,
								"contract": "contracts/Staking.sol:StakingPlatform",
								"label": "staked",
								"offset": 0,
								"slot": "5",
								"type": "t_uint256"
							}
						],
						"numberOfBytes": "192"
					},
					"t_uint256": {
						"encoding": "inplace",
						"label": "uint256",
						"numberOfBytes": "32"
					}
				}
			},
			"userdoc": {
				"kind": "user",
				"methods": {},
				"version": 1
			}
		}
	}
}