{
	"contracts/Staking.sol": {
		"StakingPlatform": {
			"abi": [
				{
					"inputs": [
						{
							"internalType": "address",
							"name": "_token",
							"type": "address"
						},
						{
							"internalType": "address",
							"name": "__bountyWallet",
							"type": "address"
						}
					],
					"stateMutability": "nonpayable",
					"type": "constructor"
				},
				{
					"anonymous": false,
					"inputs": [
						{
							"indexed": false,
							"internalType": "address",
							"name": "staker",
							"type": "address"
						},
						{
							"indexed": false,
							"internalType": "uint256",
							"name": "rewardToClaim",
							"type": "uint256"
						}
					],
					"name": "Harvest",
					"type": "event"
				},
				{
					"anonymous": false,
					"inputs": [
						{
							"indexed": true,
							"internalType": "address",
							"name": "previousOwner",
							"type": "address"
						},
						{
							"indexed": true,
							"internalType": "address",
							"name": "newOwner",
							"type": "address"
						}
					],
					"name": "OwnershipTransferred",
					"type": "event"
				},
				{
					"anonymous": false,
					"inputs": [
						{
							"indexed": false,
							"internalType": "address",
							"name": "bountyWallet",
							"type": "address"
						}
					],
					"name": "SetBountyWallet",
					"type": "event"
				},
				{
					"anonymous": false,
					"inputs": [
						{
							"indexed": false,
							"internalType": "uint256",
							"name": "lockupDuration",
							"type": "uint256"
						}
					],
					"name": "SetEventPeriod",
					"type": "event"
				},
				{
					"anonymous": false,
					"inputs": [
						{
							"indexed": false,
							"internalType": "uint256",
							"name": "fixedAPY",
							"type": "uint256"
						}
					],
					"name": "SetFixedAPY",
					"type": "event"
				},
				{
					"anonymous": false,
					"inputs": [
						{
							"indexed": false,
							"internalType": "uint256",
							"name": "unstakingFeeRate",
							"type": "uint256"
						}
					],
					"name": "SetUnstakingFeeRate",
					"type": "event"
				},
				{
					"anonymous": false,
					"inputs": [
						{
							"indexed": false,
							"internalType": "address",
							"name": "staker",
							"type": "address"
						},
						{
							"indexed": false,
							"internalType": "uint256",
							"name": "amount",
							"type": "uint256"
						}
					],
					"name": "Staked",
					"type": "event"
				},
				{
					"anonymous": false,
					"inputs": [
						{
							"indexed": false,
							"internalType": "address",
							"name": "staker",
							"type": "address"
						},
						{
							"indexed": false,
							"internalType": "uint256",
							"name": "amount",
							"type": "uint256"
						}
					],
					"name": "Withdraw",
					"type": "event"
				},
				{
					"inputs": [],
					"name": "harvest",
					"outputs": [],
					"stateMutability": "nonpayable",
					"type": "function"
				},
				{
					"inputs": [],
					"name": "owner",
					"outputs": [
						{
							"internalType": "address",
							"name": "",
							"type": "address"
						}
					],
					"stateMutability": "view",
					"type": "function"
				},
				{
					"inputs": [],
					"name": "renounceOwnership",
					"outputs": [],
					"stateMutability": "nonpayable",
					"type": "function"
				},
				{
					"inputs": [],
					"name": "rewardAmount",
					"outputs": [
						{
							"internalType": "uint256",
							"name": "",
							"type": "uint256"
						}
					],
					"stateMutability": "view",
					"type": "function"
				},
				{
					"inputs": [],
					"name": "rewardToHarvest",
					"outputs": [
						{
							"internalType": "uint256",
							"name": "",
							"type": "uint256"
						}
					],
					"stateMutability": "view",
					"type": "function"
				},
				{
					"inputs": [
						{
							"internalType": "address",
							"name": "__bountyWallet",
							"type": "address"
						}
					],
					"name": "setBountyWallet",
					"outputs": [],
					"stateMutability": "nonpayable",
					"type": "function"
				},
				{
					"inputs": [
						{
							"internalType": "uint256",
							"name": "__eventPeriod",
							"type": "uint256"
						}
					],
					"name": "setEventPeriod",
					"outputs": [],
					"stateMutability": "nonpayable",
					"type": "function"
				},
				{
					"inputs": [
						{
							"internalType": "uint256",
							"name": "__fixedAPY",
							"type": "uint256"
						}
					],
					"name": "setFixedAPY",
					"outputs": [],
					"stateMutability": "nonpayable",
					"type": "function"
				},
				{
					"inputs": [
						{
							"internalType": "uint256",
							"name": "__unstakingFeeRate",
							"type": "uint256"
						}
					],
					"name": "setUnstakingFeeRate",
					"outputs": [],
					"stateMutability": "nonpayable",
					"type": "function"
				},
				{
					"inputs": [
						{
							"internalType": "uint256",
							"name": "_amount",
							"type": "uint256"
						}
					],
					"name": "stake",
					"outputs": [],
					"stateMutability": "nonpayable",
					"type": "function"
				},
				{
					"inputs": [],
					"name": "stakedAmount",
					"outputs": [
						{
							"internalType": "uint256",
							"name": "",
							"type": "uint256"
						}
					],
					"stateMutability": "view",
					"type": "function"
				},
				{
					"inputs": [
						{
							"internalType": "uint256",
							"name": "_amount",
							"type": "uint256"
						},
						{
							"internalType": "uint256",
							"name": "_mode",
							"type": "uint256"
						}
					],
					"name": "startStaking",
					"outputs": [],
					"stateMutability": "nonpayable",
					"type": "function"
				},
				{
					"inputs": [],
					"name": "token",
					"outputs": [
						{
							"internalType": "contract IBEP20",
							"name": "",
							"type": "address"
						}
					],
					"stateMutability": "view",
					"type": "function"
				},
				{
					"inputs": [],
					"name": "totalStaked",
					"outputs": [
						{
							"internalType": "uint256",
							"name": "",
							"type": "uint256"
						}
					],
					"stateMutability": "view",
					"type": "function"
				},
				{
					"inputs": [
						{
							"internalType": "address",
							"name": "newOwner",
							"type": "address"
						}
					],
					"name": "transferOwnership",
					"outputs": [],
					"stateMutability": "nonpayable",
					"type": "function"
				},
				{
					"inputs": [
						{
							"internalType": "uint256",
							"name": "amount",
							"type": "uint256"
						}
					],
					"name": "withdraw",
					"outputs": [],
					"stateMutability": "nonpayable",
					"type": "function"
				}
			],
			"devdoc": {
				"kind": "dev",
				"methods": {
					"owner()": {
						"details": "Returns the address of the current owner."
					},
					"renounceOwnership()": {
						"details": "Leaves the contract without owner. It will not be possible to call `onlyOwner` functions anymore. Can only be called by the current owner. NOTE: Renouncing ownership will leave the contract without an owner, thereby removing any functionality that is only available to the owner."
					},
					"transferOwnership(address)": {
						"details": "Transfers ownership of the contract to a new account (`newOwner`). Can only be called by the current owner."
					}
				},
				"version": 1
			},
			"evm": {
				"assembly": "    /* \"contracts/Staking.sol\":261:6926  contract StakingPlatform is Ownable {... */\n  mstore(0x40, 0x80)\n    /* \"contracts/Staking.sol\":1479:1632  constructor(address _token, address __bountyWallet) {... */\n  callvalue\n  dup1\n  iszero\n  tag_1\n  jumpi\n  0x00\n  dup1\n  revert\ntag_1:\n  pop\n  mload(0x40)\n  sub(codesize, bytecodeSize)\n  dup1\n  bytecodeSize\n  dup4\n  codecopy\n  dup2\n  dup2\n  add\n  0x40\n  mstore\n  dup2\n  add\n  swap1\n  tag_2\n  swap2\n  swap1\n  tag_3\n  jump\t// in\ntag_2:\n    /* \"@openzeppelin/contracts/access/Ownable.sol\":921:953  _transferOwnership(_msgSender()) */\n  tag_7\n    /* \"@openzeppelin/contracts/access/Ownable.sol\":940:952  _msgSender() */\n  tag_8\n    /* \"@openzeppelin/contracts/access/Ownable.sol\":940:950  _msgSender */\n  shl(0x20, tag_9)\n    /* \"@openzeppelin/contracts/access/Ownable.sol\":940:952  _msgSender() */\n  0x20\n  shr\n  jump\t// in\ntag_8:\n    /* \"@openzeppelin/contracts/access/Ownable.sol\":921:939  _transferOwnership */\n  shl(0x20, tag_10)\n    /* \"@openzeppelin/contracts/access/Ownable.sol\":921:953  _transferOwnership(_msgSender()) */\n  0x20\n  shr\n  jump\t// in\ntag_7:\n    /* \"contracts/Staking.sol\":1544:1550  Init() */\n  tag_12\n    /* \"contracts/Staking.sol\":1544:1548  Init */\n  shl(0x20, tag_13)\n    /* \"contracts/Staking.sol\":1544:1550  Init() */\n  0x20\n  shr\n  jump\t// in\ntag_12:\n    /* \"contracts/Staking.sol\":1577:1591  __bountyWallet */\n  dup1\n    /* \"contracts/Staking.sol\":1561:1574  _bountyWallet */\n  0x05\n  0x00\n    /* \"contracts/Staking.sol\":1561:1591  _bountyWallet = __bountyWallet */\n  0x0100\n  exp\n  dup2\n  sload\n  dup2\n  0xffffffffffffffffffffffffffffffffffffffff\n  mul\n  not\n  and\n  swap1\n  dup4\n  0xffffffffffffffffffffffffffffffffffffffff\n  and\n  mul\n  or\n  swap1\n  sstore\n  pop\n    /* \"contracts/Staking.sol\":1617:1623  _token */\n  dup2\n    /* \"contracts/Staking.sol\":1602:1607  token */\n  0x08\n  0x00\n    /* \"contracts/Staking.sol\":1602:1624  token = IBEP20(_token) */\n  0x0100\n  exp\n  dup2\n  sload\n  dup2\n  0xffffffffffffffffffffffffffffffffffffffff\n  mul\n  not\n  and\n  swap1\n  dup4\n  0xffffffffffffffffffffffffffffffffffffffff\n  and\n  mul\n  or\n  swap1\n  sstore\n  pop\n    /* \"contracts/Staking.sol\":1479:1632  constructor(address _token, address __bountyWallet) {... */\n  pop\n  pop\n    /* \"contracts/Staking.sol\":261:6926  contract StakingPlatform is Ownable {... */\n  jump(tag_14)\n    /* \"@openzeppelin/contracts/utils/Context.sol\":640:736  function _msgSender() internal view virtual returns (address) {... */\ntag_9:\n    /* \"@openzeppelin/contracts/utils/Context.sol\":693:700  address */\n  0x00\n    /* \"@openzeppelin/contracts/utils/Context.sol\":719:729  msg.sender */\n  caller\n    /* \"@openzeppelin/contracts/utils/Context.sol\":712:729  return msg.sender */\n  swap1\n  pop\n    /* \"@openzeppelin/contracts/utils/Context.sol\":640:736  function _msgSender() internal view virtual returns (address) {... */\n  swap1\n  jump\t// out\n    /* \"@openzeppelin/contracts/access/Ownable.sol\":2270:2457  function _transferOwnership(address newOwner) internal virtual {... */\ntag_10:\n    /* \"@openzeppelin/contracts/access/Ownable.sol\":2343:2359  address oldOwner */\n  0x00\n    /* \"@openzeppelin/contracts/access/Ownable.sol\":2362:2368  _owner */\n  dup1\n  0x00\n  swap1\n  sload\n  swap1\n  0x0100\n  exp\n  swap1\n  div\n  0xffffffffffffffffffffffffffffffffffffffff\n  and\n    /* \"@openzeppelin/contracts/access/Ownable.sol\":2343:2368  address oldOwner = _owner */\n  swap1\n  pop\n    /* \"@openzeppelin/contracts/access/Ownable.sol\":2387:2395  newOwner */\n  dup2\n    /* \"@openzeppelin/contracts/access/Ownable.sol\":2378:2384  _owner */\n  0x00\n  dup1\n    /* \"@openzeppelin/contracts/access/Ownable.sol\":2378:2395  _owner = newOwner */\n  0x0100\n  exp\n  dup2\n  sload\n  dup2\n  0xffffffffffffffffffffffffffffffffffffffff\n  mul\n  not\n  and\n  swap1\n  dup4\n  0xffffffffffffffffffffffffffffffffffffffff\n  and\n  mul\n  or\n  swap1\n  sstore\n  pop\n    /* \"@openzeppelin/contracts/access/Ownable.sol\":2441:2449  newOwner */\n  dup2\n    /* \"@openzeppelin/contracts/access/Ownable.sol\":2410:2450  OwnershipTransferred(oldOwner, newOwner) */\n  0xffffffffffffffffffffffffffffffffffffffff\n  and\n    /* \"@openzeppelin/contracts/access/Ownable.sol\":2431:2439  oldOwner */\n  dup2\n    /* \"@openzeppelin/contracts/access/Ownable.sol\":2410:2450  OwnershipTransferred(oldOwner, newOwner) */\n  0xffffffffffffffffffffffffffffffffffffffff\n  and\n  0x8be0079c531659141344cd1fd0a4f28419497f9722a3daafe3b4186f6b6457e0\n  mload(0x40)\n  mload(0x40)\n  dup1\n  swap2\n  sub\n  swap1\n  log3\n    /* \"@openzeppelin/contracts/access/Ownable.sol\":2333:2457  {... */\n  pop\n    /* \"@openzeppelin/contracts/access/Ownable.sol\":2270:2457  function _transferOwnership(address newOwner) internal virtual {... */\n  pop\n  jump\t// out\n    /* \"contracts/Staking.sol\":1640:1797  function Init() internal {... */\ntag_13:\n    /* \"contracts/Staking.sol\":1688:1691  125 */\n  0x7d\n    /* \"contracts/Staking.sol\":1676:1685  _fixedAPY */\n  0x03\n    /* \"contracts/Staking.sol\":1676:1691  _fixedAPY = 125 */\n  dup2\n  swap1\n  sstore\n  pop\n    /* \"contracts/Staking.sol\":1722:1726  1500 */\n  0x05dc\n    /* \"contracts/Staking.sol\":1702:1719  _unstakingFeeRate */\n  0x01\n    /* \"contracts/Staking.sol\":1702:1726  _unstakingFeeRate = 1500 */\n  dup2\n  swap1\n  sstore\n  pop\n    /* \"contracts/Staking.sol\":1754:1757  200 */\n  0xc8\n    /* \"contracts/Staking.sol\":1737:1751  _rewardFeeRate */\n  0x04\n    /* \"contracts/Staking.sol\":1737:1757  _rewardFeeRate = 200 */\n  dup2\n  swap1\n  sstore\n  pop\n    /* \"contracts/Staking.sol\":1783:1789  7 days */\n  0x093a80\n    /* \"contracts/Staking.sol\":1768:1780  _eventPeriod */\n  0x02\n    /* \"contracts/Staking.sol\":1768:1789  _eventPeriod = 7 days */\n  dup2\n  swap1\n  sstore\n  pop\n    /* \"contracts/Staking.sol\":1640:1797  function Init() internal {... */\n  jump\t// out\n    /* \"#utility.yul\":88:205   */\ntag_19:\n    /* \"#utility.yul\":197:198   */\n  0x00\n    /* \"#utility.yul\":194:195   */\n  dup1\n    /* \"#utility.yul\":187:199   */\n  revert\n    /* \"#utility.yul\":334:460   */\ntag_21:\n    /* \"#utility.yul\":371:378   */\n  0x00\n    /* \"#utility.yul\":411:453   */\n  0xffffffffffffffffffffffffffffffffffffffff\n    /* \"#utility.yul\":404:409   */\n  dup3\n    /* \"#utility.yul\":400:454   */\n  and\n    /* \"#utility.yul\":389:454   */\n  swap1\n  pop\n    /* \"#utility.yul\":334:460   */\n  swap2\n  swap1\n  pop\n  jump\t// out\n    /* \"#utility.yul\":466:562   */\ntag_22:\n    /* \"#utility.yul\":503:510   */\n  0x00\n    /* \"#utility.yul\":532:556   */\n  tag_31\n    /* \"#utility.yul\":550:555   */\n  dup3\n    /* \"#utility.yul\":532:556   */\n  tag_21\n  jump\t// in\ntag_31:\n    /* \"#utility.yul\":521:556   */\n  swap1\n  pop\n    /* \"#utility.yul\":466:562   */\n  swap2\n  swap1\n  pop\n  jump\t// out\n    /* \"#utility.yul\":568:690   */\ntag_23:\n    /* \"#utility.yul\":641:665   */\n  tag_33\n    /* \"#utility.yul\":659:664   */\n  dup2\n    /* \"#utility.yul\":641:665   */\n  tag_22\n  jump\t// in\ntag_33:\n    /* \"#utility.yul\":634:639   */\n  dup2\n    /* \"#utility.yul\":631:666   */\n  eq\n    /* \"#utility.yul\":621:684   */\n  tag_34\n  jumpi\n    /* \"#utility.yul\":680:681   */\n  0x00\n    /* \"#utility.yul\":677:678   */\n  dup1\n    /* \"#utility.yul\":670:682   */\n  revert\n    /* \"#utility.yul\":621:684   */\ntag_34:\n    /* \"#utility.yul\":568:690   */\n  pop\n  jump\t// out\n    /* \"#utility.yul\":696:839   */\ntag_24:\n    /* \"#utility.yul\":753:758   */\n  0x00\n    /* \"#utility.yul\":784:790   */\n  dup2\n    /* \"#utility.yul\":778:791   */\n  mload\n    /* \"#utility.yul\":769:791   */\n  swap1\n  pop\n    /* \"#utility.yul\":800:833   */\n  tag_36\n    /* \"#utility.yul\":827:832   */\n  dup2\n    /* \"#utility.yul\":800:833   */\n  tag_23\n  jump\t// in\ntag_36:\n    /* \"#utility.yul\":696:839   */\n  swap3\n  swap2\n  pop\n  pop\n  jump\t// out\n    /* \"#utility.yul\":845:1352   */\ntag_3:\n    /* \"#utility.yul\":924:930   */\n  0x00\n    /* \"#utility.yul\":932:938   */\n  dup1\n    /* \"#utility.yul\":981:983   */\n  0x40\n    /* \"#utility.yul\":969:978   */\n  dup4\n    /* \"#utility.yul\":960:967   */\n  dup6\n    /* \"#utility.yul\":956:979   */\n  sub\n    /* \"#utility.yul\":952:984   */\n  slt\n    /* \"#utility.yul\":949:1068   */\n  iszero\n  tag_38\n  jumpi\n    /* \"#utility.yul\":987:1066   */\n  tag_39\n  tag_19\n  jump\t// in\ntag_39:\n    /* \"#utility.yul\":949:1068   */\ntag_38:\n    /* \"#utility.yul\":1107:1108   */\n  0x00\n    /* \"#utility.yul\":1132:1196   */\n  tag_40\n    /* \"#utility.yul\":1188:1195   */\n  dup6\n    /* \"#utility.yul\":1179:1185   */\n  dup3\n    /* \"#utility.yul\":1168:1177   */\n  dup7\n    /* \"#utility.yul\":1164:1186   */\n  add\n    /* \"#utility.yul\":1132:1196   */\n  tag_24\n  jump\t// in\ntag_40:\n    /* \"#utility.yul\":1122:1196   */\n  swap3\n  pop\n    /* \"#utility.yul\":1078:1206   */\n  pop\n    /* \"#utility.yul\":1245:1247   */\n  0x20\n    /* \"#utility.yul\":1271:1335   */\n  tag_41\n    /* \"#utility.yul\":1327:1334   */\n  dup6\n    /* \"#utility.yul\":1318:1324   */\n  dup3\n    /* \"#utility.yul\":1307:1316   */\n  dup7\n    /* \"#utility.yul\":1303:1325   */\n  add\n    /* \"#utility.yul\":1271:1335   */\n  tag_24\n  jump\t// in\ntag_41:\n    /* \"#utility.yul\":1261:1335   */\n  swap2\n  pop\n    /* \"#utility.yul\":1216:1345   */\n  pop\n    /* \"#utility.yul\":845:1352   */\n  swap3\n  pop\n  swap3\n  swap1\n  pop\n  jump\t// out\n    /* \"contracts/Staking.sol\":261:6926  contract StakingPlatform is Ownable {... */\ntag_14:\n  dataSize(sub_0)\n  dup1\n  dataOffset(sub_0)\n  0x00\n  codecopy\n  0x00\n  return\nstop\n\nsub_0: assembly {\n        /* \"contracts/Staking.sol\":261:6926  contract StakingPlatform is Ownable {... */\n      mstore(0x40, 0x80)\n      callvalue\n      dup1\n      iszero\n      tag_1\n      jumpi\n      0x00\n      dup1\n      revert\n    tag_1:\n      pop\n      jumpi(tag_2, lt(calldatasize, 0x04))\n      shr(0xe0, calldataload(0x00))\n      dup1\n      0x817b1cd2\n      gt\n      tag_19\n      jumpi\n      dup1\n      0xa694fc3a\n      gt\n      tag_20\n      jumpi\n      dup1\n      0xa694fc3a\n      eq\n      tag_15\n      jumpi\n      dup1\n      0xf2fde38b\n      eq\n      tag_16\n      jumpi\n      dup1\n      0xf7b2a7be\n      eq\n      tag_17\n      jumpi\n      dup1\n      0xfc0c546a\n      eq\n      tag_18\n      jumpi\n      jump(tag_2)\n    tag_20:\n      dup1\n      0x817b1cd2\n      eq\n      tag_11\n      jumpi\n      dup1\n      0x8a9d3839\n      eq\n      tag_12\n      jumpi\n      dup1\n      0x8da5cb5b\n      eq\n      tag_13\n      jumpi\n      dup1\n      0x91e07e7a\n      eq\n      tag_14\n      jumpi\n      jump(tag_2)\n    tag_19:\n      dup1\n      0x50f19c87\n      gt\n      tag_21\n      jumpi\n      dup1\n      0x50f19c87\n      eq\n      tag_7\n      jumpi\n      dup1\n      0x5d2ec65d\n      eq\n      tag_8\n      jumpi\n      dup1\n      0x692642e7\n      eq\n      tag_9\n      jumpi\n      dup1\n      0x715018a6\n      eq\n      tag_10\n      jumpi\n      jump(tag_2)\n    tag_21:\n      dup1\n      0x2e1a7d4d\n      eq\n      tag_3\n      jumpi\n      dup1\n      0x373d6132\n      eq\n      tag_4\n      jumpi\n      dup1\n      0x4641257d\n      eq\n      tag_5\n      jumpi\n      dup1\n      0x4b77dd9e\n      eq\n      tag_6\n      jumpi\n    tag_2:\n      0x00\n      dup1\n      revert\n        /* \"contracts/Staking.sol\":3820:4736  function withdraw(uint256 amount) external{... */\n    tag_3:\n      tag_22\n      0x04\n      dup1\n      calldatasize\n      sub\n      dup2\n      add\n      swap1\n      tag_23\n      swap2\n      swap1\n      tag_24\n      jump\t// in\n    tag_23:\n      tag_25\n      jump\t// in\n    tag_22:\n      stop\n        /* \"contracts/Staking.sol\":6674:6796  function stakedAmount() public view returns (uint256) {... */\n    tag_4:\n      tag_26\n      tag_27\n      jump\t// in\n    tag_26:\n      mload(0x40)\n      tag_28\n      swap2\n      swap1\n      tag_29\n      jump\t// in\n    tag_28:\n      mload(0x40)\n      dup1\n      swap2\n      sub\n      swap1\n      return\n        /* \"contracts/Staking.sol\":6011:6614  function harvest() public{... */\n    tag_5:\n      tag_30\n      tag_31\n      jump\t// in\n    tag_30:\n      stop\n        /* \"contracts/Staking.sol\":2764:3188  function startStaking(uint256 _amount, uint256 _mode) external {... */\n    tag_6:\n      tag_32\n      0x04\n      dup1\n      calldatasize\n      sub\n      dup2\n      add\n      swap1\n      tag_33\n      swap2\n      swap1\n      tag_34\n      jump\t// in\n    tag_33:\n      tag_35\n      jump\t// in\n    tag_32:\n      stop\n        /* \"contracts/Staking.sol\":4744:4947  function setFixedAPY(uint256 __fixedAPY) external onlyOwner {... */\n    tag_7:\n      tag_36\n      0x04\n      dup1\n      calldatasize\n      sub\n      dup2\n      add\n      swap1\n      tag_37\n      swap2\n      swap1\n      tag_24\n      jump\t// in\n    tag_37:\n      tag_38\n      jump\t// in\n    tag_36:\n      stop\n        /* \"contracts/Staking.sol\":5811:5970  function rewardToHarvest() public view returns (uint256){... */\n    tag_8:\n      tag_39\n      tag_40\n      jump\t// in\n    tag_39:\n      mload(0x40)\n      tag_41\n      swap2\n      swap1\n      tag_29\n      jump\t// in\n    tag_41:\n      mload(0x40)\n      dup1\n      swap2\n      sub\n      swap1\n      return\n        /* \"contracts/Staking.sol\":4955:5203  function setEventPeriod(uint256 __eventPeriod) external onlyOwner {... */\n    tag_9:\n      tag_42\n      0x04\n      dup1\n      calldatasize\n      sub\n      dup2\n      add\n      swap1\n      tag_43\n      swap2\n      swap1\n      tag_24\n      jump\t// in\n    tag_43:\n      tag_44\n      jump\t// in\n    tag_42:\n      stop\n        /* \"@openzeppelin/contracts/access/Ownable.sol\":1668:1769  function renounceOwnership() public virtual onlyOwner {... */\n    tag_10:\n      tag_45\n      tag_46\n      jump\t// in\n    tag_45:\n      stop\n        /* \"contracts/Staking.sol\":973:999  uint256 public totalStaked */\n    tag_11:\n      tag_47\n      tag_48\n      jump\t// in\n    tag_47:\n      mload(0x40)\n      tag_49\n      swap2\n      swap1\n      tag_29\n      jump\t// in\n    tag_49:\n      mload(0x40)\n      dup1\n      swap2\n      sub\n      swap1\n      return\n        /* \"contracts/Staking.sol\":5485:5752  function setBountyWallet(address __bountyWallet) external onlyOwner {... */\n    tag_12:\n      tag_50\n      0x04\n      dup1\n      calldatasize\n      sub\n      dup2\n      add\n      swap1\n      tag_51\n      swap2\n      swap1\n      tag_52\n      jump\t// in\n    tag_51:\n      tag_53\n      jump\t// in\n    tag_50:\n      stop\n        /* \"@openzeppelin/contracts/access/Ownable.sol\":1036:1121  function owner() public view virtual returns (address) {... */\n    tag_13:\n      tag_54\n      tag_55\n      jump\t// in\n    tag_54:\n      mload(0x40)\n      tag_56\n      swap2\n      swap1\n      tag_57\n      jump\t// in\n    tag_56:\n      mload(0x40)\n      dup1\n      swap2\n      sub\n      swap1\n      return\n        /* \"contracts/Staking.sol\":5211:5477  function setUnstakingFeeRate(uint256 __unstakingFeeRate) external onlyOwner {... */\n    tag_14:\n      tag_58\n      0x04\n      dup1\n      calldatasize\n      sub\n      dup2\n      add\n      swap1\n      tag_59\n      swap2\n      swap1\n      tag_24\n      jump\t// in\n    tag_59:\n      tag_60\n      jump\t// in\n    tag_58:\n      stop\n        /* \"contracts/Staking.sol\":3252:3773  function stake(uint256 _amount) public{... */\n    tag_15:\n      tag_61\n      0x04\n      dup1\n      calldatasize\n      sub\n      dup2\n      add\n      swap1\n      tag_62\n      swap2\n      swap1\n      tag_24\n      jump\t// in\n    tag_62:\n      tag_63\n      jump\t// in\n    tag_61:\n      stop\n        /* \"@openzeppelin/contracts/access/Ownable.sol\":1918:2116  function transferOwnership(address newOwner) public virtual onlyOwner {... */\n    tag_16:\n      tag_64\n      0x04\n      dup1\n      calldatasize\n      sub\n      dup2\n      add\n      swap1\n      tag_65\n      swap2\n      swap1\n      tag_52\n      jump\t// in\n    tag_65:\n      tag_66\n      jump\t// in\n    tag_64:\n      stop\n        /* \"contracts/Staking.sol\":6804:6923  function rewardAmount() public view returns (uint256) {... */\n    tag_17:\n      tag_67\n      tag_68\n      jump\t// in\n    tag_67:\n      mload(0x40)\n      tag_69\n      swap2\n      swap1\n      tag_29\n      jump\t// in\n    tag_69:\n      mload(0x40)\n      dup1\n      swap2\n      sub\n      swap1\n      return\n        /* \"contracts/Staking.sol\":1006:1025  IBEP20 public token */\n    tag_18:\n      tag_70\n      tag_71\n      jump\t// in\n    tag_70:\n      mload(0x40)\n      tag_72\n      swap2\n      swap1\n      tag_73\n      jump\t// in\n    tag_72:\n      mload(0x40)\n      dup1\n      swap2\n      sub\n      swap1\n      return\n        /* \"contracts/Staking.sol\":3820:4736  function withdraw(uint256 amount) external{... */\n    tag_25:\n        /* \"contracts/Staking.sol\":3875:3896  Staker storage staker */\n      0x00\n        /* \"contracts/Staking.sol\":3899:3906  _staker */\n      0x06\n        /* \"contracts/Staking.sol\":3899:3918  _staker[msg.sender] */\n      0x00\n        /* \"contracts/Staking.sol\":3907:3917  msg.sender */\n      caller\n        /* \"contracts/Staking.sol\":3899:3918  _staker[msg.sender] */\n      0xffffffffffffffffffffffffffffffffffffffff\n      and\n      0xffffffffffffffffffffffffffffffffffffffff\n      and\n      dup2\n      mstore\n      0x20\n      add\n      swap1\n      dup2\n      mstore\n      0x20\n      add\n      0x00\n      keccak256\n        /* \"contracts/Staking.sol\":3875:3918  Staker storage staker = _staker[msg.sender] */\n      swap1\n      pop\n        /* \"contracts/Staking.sol\":3948:3949  0 */\n      0x00\n        /* \"contracts/Staking.sol\":3939:3945  amount */\n      dup3\n        /* \"contracts/Staking.sol\":3939:3949  amount > 0 */\n      gt\n        /* \"contracts/Staking.sol\":3931:3985  require(amount > 0, \"Amount should be greater than 0\") */\n      tag_75\n      jumpi\n      mload(0x40)\n      0x08c379a000000000000000000000000000000000000000000000000000000000\n      dup2\n      mstore\n      0x04\n      add\n      tag_76\n      swap1\n      tag_77\n      jump\t// in\n    tag_76:\n      mload(0x40)\n      dup1\n      swap2\n      sub\n      swap1\n      revert\n    tag_75:\n        /* \"contracts/Staking.sol\":4014:4020  staker */\n      dup1\n        /* \"contracts/Staking.sol\":4014:4033  staker.stakedAmount */\n      0x01\n      add\n      sload\n        /* \"contracts/Staking.sol\":4004:4010  amount */\n      dup3\n        /* \"contracts/Staking.sol\":4004:4033  amount <= staker.stakedAmount */\n      gt\n      iszero\n        /* \"contracts/Staking.sol\":3996:4052  require(amount <= staker.stakedAmount, \"Invalid amount\") */\n      tag_78\n      jumpi\n      mload(0x40)\n      0x08c379a000000000000000000000000000000000000000000000000000000000\n      dup2\n      mstore\n      0x04\n      add\n      tag_79\n      swap1\n      tag_80\n      jump\t// in\n    tag_79:\n      mload(0x40)\n      dup1\n      swap2\n      sub\n      swap1\n      revert\n    tag_78:\n        /* \"contracts/Staking.sol\":4065:4079  updateReward() */\n      tag_81\n        /* \"contracts/Staking.sol\":4065:4077  updateReward */\n      tag_82\n        /* \"contracts/Staking.sol\":4065:4079  updateReward() */\n      jump\t// in\n    tag_81:\n        /* \"contracts/Staking.sol\":4090:4117  uint256 amountTobeWithdrawn */\n      0x00\n        /* \"contracts/Staking.sol\":4129:4134  token */\n      0x08\n      0x00\n      swap1\n      sload\n      swap1\n      0x0100\n      exp\n      swap1\n      div\n      0xffffffffffffffffffffffffffffffffffffffff\n      and\n        /* \"contracts/Staking.sol\":4129:4144  token.balanceOf */\n      0xffffffffffffffffffffffffffffffffffffffff\n      and\n      0x70a08231\n        /* \"contracts/Staking.sol\":4153:4157  this */\n      address\n        /* \"contracts/Staking.sol\":4129:4159  token.balanceOf(address(this)) */\n      mload(0x40)\n      dup3\n      0xffffffff\n      and\n      0xe0\n      shl\n      dup2\n      mstore\n      0x04\n      add\n      tag_83\n      swap2\n      swap1\n      tag_57\n      jump\t// in\n    tag_83:\n      0x20\n      mload(0x40)\n      dup1\n      dup4\n      sub\n      dup2\n      dup7\n      gas\n      staticcall\n      iszero\n      dup1\n      iszero\n      tag_85\n      jumpi\n      returndatasize\n      0x00\n      dup1\n      returndatacopy\n      revert(0x00, returndatasize)\n    tag_85:\n      pop\n      pop\n      pop\n      pop\n      mload(0x40)\n      returndatasize\n      not(0x1f)\n      0x1f\n      dup3\n      add\n      and\n      dup3\n      add\n      dup1\n      0x40\n      mstore\n      pop\n      dup2\n      add\n      swap1\n      tag_86\n      swap2\n      swap1\n      tag_87\n      jump\t// in\n    tag_86:\n        /* \"contracts/Staking.sol\":4120:4126  amount */\n      dup4\n        /* \"contracts/Staking.sol\":4120:4159  amount < token.balanceOf(address(this)) */\n      lt\n        /* \"contracts/Staking.sol\":4120:4201  amount < token.balanceOf(address(this)) ? amount : token.balanceOf(address(this)) */\n      tag_88\n      jumpi\n        /* \"contracts/Staking.sol\":4171:4176  token */\n      0x08\n      0x00\n      swap1\n      sload\n      swap1\n      0x0100\n      exp\n      swap1\n      div\n      0xffffffffffffffffffffffffffffffffffffffff\n      and\n        /* \"contracts/Staking.sol\":4171:4186  token.balanceOf */\n      0xffffffffffffffffffffffffffffffffffffffff\n      and\n      0x70a08231\n        /* \"contracts/Staking.sol\":4195:4199  this */\n      address\n        /* \"contracts/Staking.sol\":4171:4201  token.balanceOf(address(this)) */\n      mload(0x40)\n      dup3\n      0xffffffff\n      and\n      0xe0\n      shl\n      dup2\n      mstore\n      0x04\n      add\n      tag_89\n      swap2\n      swap1\n      tag_57\n      jump\t// in\n    tag_89:\n      0x20\n      mload(0x40)\n      dup1\n      dup4\n      sub\n      dup2\n      dup7\n      gas\n      staticcall\n      iszero\n      dup1\n      iszero\n      tag_91\n      jumpi\n      returndatasize\n      0x00\n      dup1\n      returndatacopy\n      revert(0x00, returndatasize)\n    tag_91:\n      pop\n      pop\n      pop\n      pop\n      mload(0x40)\n      returndatasize\n      not(0x1f)\n      0x1f\n      dup3\n      add\n      and\n      dup3\n      add\n      dup1\n      0x40\n      mstore\n      pop\n      dup2\n      add\n      swap1\n      tag_92\n      swap2\n      swap1\n      tag_87\n      jump\t// in\n    tag_92:\n        /* \"contracts/Staking.sol\":4120:4201  amount < token.balanceOf(address(this)) ? amount : token.balanceOf(address(this)) */\n      jump(tag_93)\n    tag_88:\n        /* \"contracts/Staking.sol\":4162:4168  amount */\n      dup3\n        /* \"contracts/Staking.sol\":4120:4201  amount < token.balanceOf(address(this)) ? amount : token.balanceOf(address(this)) */\n    tag_93:\n        /* \"contracts/Staking.sol\":4090:4201  uint256 amountTobeWithdrawn = amount < token.balanceOf(address(this)) ? amount : token.balanceOf(address(this)) */\n      swap1\n      pop\n        /* \"contracts/Staking.sol\":4212:4236  uint256 isLockupTimeOver */\n      0x00\n        /* \"contracts/Staking.sol\":4312:4313  0 */\n      dup1\n        /* \"contracts/Staking.sol\":4296:4308  _eventPeriod */\n      sload(0x02)\n        /* \"contracts/Staking.sol\":4239:4293  block.timestamp.sub(staker.stakeStartTime).div(1 days) */\n      tag_94\n        /* \"contracts/Staking.sol\":4286:4292  1 days */\n      0x015180\n        /* \"contracts/Staking.sol\":4239:4281  block.timestamp.sub(staker.stakeStartTime) */\n      tag_95\n        /* \"contracts/Staking.sol\":4259:4265  staker */\n      dup8\n        /* \"contracts/Staking.sol\":4259:4280  staker.stakeStartTime */\n      0x03\n      add\n      sload\n        /* \"contracts/Staking.sol\":4239:4254  block.timestamp */\n      timestamp\n        /* \"contracts/Staking.sol\":4239:4258  block.timestamp.sub */\n      tag_96\n      swap1\n        /* \"contracts/Staking.sol\":4239:4281  block.timestamp.sub(staker.stakeStartTime) */\n      swap2\n      swap1\n      0xffffffff\n      and\n      jump\t// in\n    tag_95:\n        /* \"contracts/Staking.sol\":4239:4285  block.timestamp.sub(staker.stakeStartTime).div */\n      tag_97\n      swap1\n        /* \"contracts/Staking.sol\":4239:4293  block.timestamp.sub(staker.stakeStartTime).div(1 days) */\n      swap2\n      swap1\n      0xffffffff\n      and\n      jump\t// in\n    tag_94:\n        /* \"contracts/Staking.sol\":4239:4308  block.timestamp.sub(staker.stakeStartTime).div(1 days) % _eventPeriod */\n      tag_98\n      swap2\n      swap1\n      tag_99\n      jump\t// in\n    tag_98:\n        /* \"contracts/Staking.sol\":4239:4313  block.timestamp.sub(staker.stakeStartTime).div(1 days) % _eventPeriod == 0 */\n      eq\n        /* \"contracts/Staking.sol\":4239:4321  block.timestamp.sub(staker.stakeStartTime).div(1 days) % _eventPeriod == 0 ? 0 : 1 */\n      tag_100\n      jumpi\n        /* \"contracts/Staking.sol\":4320:4321  1 */\n      0x01\n        /* \"contracts/Staking.sol\":4239:4321  block.timestamp.sub(staker.stakeStartTime).div(1 days) % _eventPeriod == 0 ? 0 : 1 */\n      jump(tag_101)\n    tag_100:\n        /* \"contracts/Staking.sol\":4316:4317  0 */\n      0x00\n        /* \"contracts/Staking.sol\":4239:4321  block.timestamp.sub(staker.stakeStartTime).div(1 days) % _eventPeriod == 0 ? 0 : 1 */\n    tag_101:\n        /* \"contracts/Staking.sol\":4212:4321  uint256 isLockupTimeOver = block.timestamp.sub(staker.stakeStartTime).div(1 days) % _eventPeriod == 0 ? 0 : 1 */\n      0xff\n      and\n      swap1\n      pop\n        /* \"contracts/Staking.sol\":4354:4469  amountTobeWithdrawn.sub(staker.mode.mul(isLockupTimeOver).mul(amountTobeWithdrawn).mul(_unstakingFeeRate).div(1e4)) */\n      tag_102\n        /* \"contracts/Staking.sol\":4378:4468  staker.mode.mul(isLockupTimeOver).mul(amountTobeWithdrawn).mul(_unstakingFeeRate).div(1e4) */\n      tag_103\n        /* \"contracts/Staking.sol\":4464:4467  1e4 */\n      0x2710\n        /* \"contracts/Staking.sol\":4378:4459  staker.mode.mul(isLockupTimeOver).mul(amountTobeWithdrawn).mul(_unstakingFeeRate) */\n      tag_104\n        /* \"contracts/Staking.sol\":4441:4458  _unstakingFeeRate */\n      sload(0x01)\n        /* \"contracts/Staking.sol\":4378:4436  staker.mode.mul(isLockupTimeOver).mul(amountTobeWithdrawn) */\n      tag_105\n        /* \"contracts/Staking.sol\":4416:4435  amountTobeWithdrawn */\n      dup8\n        /* \"contracts/Staking.sol\":4378:4411  staker.mode.mul(isLockupTimeOver) */\n      tag_106\n        /* \"contracts/Staking.sol\":4394:4410  isLockupTimeOver */\n      dup9\n        /* \"contracts/Staking.sol\":4378:4384  staker */\n      dup12\n        /* \"contracts/Staking.sol\":4378:4389  staker.mode */\n      0x02\n      add\n      sload\n        /* \"contracts/Staking.sol\":4378:4393  staker.mode.mul */\n      tag_107\n      swap1\n        /* \"contracts/Staking.sol\":4378:4411  staker.mode.mul(isLockupTimeOver) */\n      swap2\n      swap1\n      0xffffffff\n      and\n      jump\t// in\n    tag_106:\n        /* \"contracts/Staking.sol\":4378:4415  staker.mode.mul(isLockupTimeOver).mul */\n      tag_107\n      swap1\n        /* \"contracts/Staking.sol\":4378:4436  staker.mode.mul(isLockupTimeOver).mul(amountTobeWithdrawn) */\n      swap2\n      swap1\n      0xffffffff\n      and\n      jump\t// in\n    tag_105:\n        /* \"contracts/Staking.sol\":4378:4440  staker.mode.mul(isLockupTimeOver).mul(amountTobeWithdrawn).mul */\n      tag_107\n      swap1\n        /* \"contracts/Staking.sol\":4378:4459  staker.mode.mul(isLockupTimeOver).mul(amountTobeWithdrawn).mul(_unstakingFeeRate) */\n      swap2\n      swap1\n      0xffffffff\n      and\n      jump\t// in\n    tag_104:\n        /* \"contracts/Staking.sol\":4378:4463  staker.mode.mul(isLockupTimeOver).mul(amountTobeWithdrawn).mul(_unstakingFeeRate).div */\n      tag_97\n      swap1\n        /* \"contracts/Staking.sol\":4378:4468  staker.mode.mul(isLockupTimeOver).mul(amountTobeWithdrawn).mul(_unstakingFeeRate).div(1e4) */\n      swap2\n      swap1\n      0xffffffff\n      and\n      jump\t// in\n    tag_103:\n        /* \"contracts/Staking.sol\":4354:4373  amountTobeWithdrawn */\n      dup4\n        /* \"contracts/Staking.sol\":4354:4377  amountTobeWithdrawn.sub */\n      tag_96\n      swap1\n        /* \"contracts/Staking.sol\":4354:4469  amountTobeWithdrawn.sub(staker.mode.mul(isLockupTimeOver).mul(amountTobeWithdrawn).mul(_unstakingFeeRate).div(1e4)) */\n      swap2\n      swap1\n      0xffffffff\n      and\n      jump\t// in\n    tag_102:\n        /* \"contracts/Staking.sol\":4332:4469  amountTobeWithdrawn = amountTobeWithdrawn.sub(staker.mode.mul(isLockupTimeOver).mul(amountTobeWithdrawn).mul(_unstakingFeeRate).div(1e4)) */\n      swap2\n      pop\n        /* \"contracts/Staking.sol\":4494:4530  totalStaked.sub(amountTobeWithdrawn) */\n      tag_108\n        /* \"contracts/Staking.sol\":4510:4529  amountTobeWithdrawn */\n      dup3\n        /* \"contracts/Staking.sol\":4494:4505  totalStaked */\n      sload(0x07)\n        /* \"contracts/Staking.sol\":4494:4509  totalStaked.sub */\n      tag_96\n      swap1\n        /* \"contracts/Staking.sol\":4494:4530  totalStaked.sub(amountTobeWithdrawn) */\n      swap2\n      swap1\n      0xffffffff\n      and\n      jump\t// in\n    tag_108:\n        /* \"contracts/Staking.sol\":4480:4491  totalStaked */\n      0x07\n        /* \"contracts/Staking.sol\":4480:4530  totalStaked = totalStaked.sub(amountTobeWithdrawn) */\n      dup2\n      swap1\n      sstore\n      pop\n        /* \"contracts/Staking.sol\":4563:4607  staker.stakedAmount.sub(amountTobeWithdrawn) */\n      tag_109\n        /* \"contracts/Staking.sol\":4587:4606  amountTobeWithdrawn */\n      dup3\n        /* \"contracts/Staking.sol\":4563:4569  staker */\n      dup5\n        /* \"contracts/Staking.sol\":4563:4582  staker.stakedAmount */\n      0x01\n      add\n      sload\n        /* \"contracts/Staking.sol\":4563:4586  staker.stakedAmount.sub */\n      tag_96\n      swap1\n        /* \"contracts/Staking.sol\":4563:4607  staker.stakedAmount.sub(amountTobeWithdrawn) */\n      swap2\n      swap1\n      0xffffffff\n      and\n      jump\t// in\n    tag_109:\n        /* \"contracts/Staking.sol\":4541:4547  staker */\n      dup4\n        /* \"contracts/Staking.sol\":4541:4560  staker.stakedAmount */\n      0x01\n      add\n        /* \"contracts/Staking.sol\":4541:4607  staker.stakedAmount = staker.stakedAmount.sub(amountTobeWithdrawn) */\n      dup2\n      swap1\n      sstore\n      pop\n        /* \"contracts/Staking.sol\":4618:4669  token.safeTransfer(msg.sender, amountTobeWithdrawn) */\n      tag_110\n        /* \"contracts/Staking.sol\":4637:4647  msg.sender */\n      caller\n        /* \"contracts/Staking.sol\":4649:4668  amountTobeWithdrawn */\n      dup4\n        /* \"contracts/Staking.sol\":4618:4623  token */\n      0x08\n      0x00\n      swap1\n      sload\n      swap1\n      0x0100\n      exp\n      swap1\n      div\n      0xffffffffffffffffffffffffffffffffffffffff\n      and\n        /* \"contracts/Staking.sol\":4618:4636  token.safeTransfer */\n      0xffffffffffffffffffffffffffffffffffffffff\n      and\n      tag_111\n      swap1\n        /* \"contracts/Staking.sol\":4618:4669  token.safeTransfer(msg.sender, amountTobeWithdrawn) */\n      swap3\n      swap2\n      swap1\n      0xffffffff\n      and\n      jump\t// in\n    tag_110:\n        /* \"contracts/Staking.sol\":4687:4728  Withdraw(msg.sender, amountTobeWithdrawn) */\n      0x884edad9ce6fa2440d8a54cc123490eb96d2768479d49ff9c7366125a9424364\n        /* \"contracts/Staking.sol\":4696:4706  msg.sender */\n      caller\n        /* \"contracts/Staking.sol\":4708:4727  amountTobeWithdrawn */\n      dup4\n        /* \"contracts/Staking.sol\":4687:4728  Withdraw(msg.sender, amountTobeWithdrawn) */\n      mload(0x40)\n      tag_112\n      swap3\n      swap2\n      swap1\n      tag_113\n      jump\t// in\n    tag_112:\n      mload(0x40)\n      dup1\n      swap2\n      sub\n      swap1\n      log1\n        /* \"contracts/Staking.sol\":3862:4736  {... */\n      pop\n      pop\n      pop\n        /* \"contracts/Staking.sol\":3820:4736  function withdraw(uint256 amount) external{... */\n      pop\n      jump\t// out\n        /* \"contracts/Staking.sol\":6674:6796  function stakedAmount() public view returns (uint256) {... */\n    tag_27:\n        /* \"contracts/Staking.sol\":6719:6726  uint256 */\n      0x00\n        /* \"contracts/Staking.sol\":6756:6763  _staker */\n      0x06\n        /* \"contracts/Staking.sol\":6756:6775  _staker[msg.sender] */\n      0x00\n        /* \"contracts/Staking.sol\":6764:6774  msg.sender */\n      caller\n        /* \"contracts/Staking.sol\":6756:6775  _staker[msg.sender] */\n      0xffffffffffffffffffffffffffffffffffffffff\n      and\n      0xffffffffffffffffffffffffffffffffffffffff\n      and\n      dup2\n      mstore\n      0x20\n      add\n      swap1\n      dup2\n      mstore\n      0x20\n      add\n      0x00\n      keccak256\n        /* \"contracts/Staking.sol\":6756:6788  _staker[msg.sender].stakedAmount */\n      0x01\n      add\n      sload\n        /* \"contracts/Staking.sol\":6749:6788  return _staker[msg.sender].stakedAmount */\n      swap1\n      pop\n        /* \"contracts/Staking.sol\":6674:6796  function stakedAmount() public view returns (uint256) {... */\n      swap1\n      jump\t// out\n        /* \"contracts/Staking.sol\":6011:6614  function harvest() public{... */\n    tag_31:\n        /* \"contracts/Staking.sol\":6057:6071  updateReward() */\n      tag_116\n        /* \"contracts/Staking.sol\":6057:6069  updateReward */\n      tag_82\n        /* \"contracts/Staking.sol\":6057:6071  updateReward() */\n      jump\t// in\n    tag_116:\n        /* \"contracts/Staking.sol\":6082:6103  Staker storage staker */\n      0x00\n        /* \"contracts/Staking.sol\":6106:6113  _staker */\n      0x06\n        /* \"contracts/Staking.sol\":6106:6125  _staker[msg.sender] */\n      0x00\n        /* \"contracts/Staking.sol\":6114:6124  msg.sender */\n      caller\n        /* \"contracts/Staking.sol\":6106:6125  _staker[msg.sender] */\n      0xffffffffffffffffffffffffffffffffffffffff\n      and\n      0xffffffffffffffffffffffffffffffffffffffff\n      and\n      dup2\n      mstore\n      0x20\n      add\n      swap1\n      dup2\n      mstore\n      0x20\n      add\n      0x00\n      keccak256\n        /* \"contracts/Staking.sol\":6082:6125  Staker storage staker = _staker[msg.sender] */\n      swap1\n      pop\n        /* \"contracts/Staking.sol\":6136:6157  uint256 rewardToClaim */\n      0x00\n        /* \"contracts/Staking.sol\":6160:6249  staker.stakerCurrentReward.sub(staker.stakerCurrentReward.mul(_rewardFeeRate).div(10**4)) */\n      tag_117\n        /* \"contracts/Staking.sol\":6191:6248  staker.stakerCurrentReward.mul(_rewardFeeRate).div(10**4) */\n      tag_118\n        /* \"contracts/Staking.sol\":6242:6247  10**4 */\n      0x2710\n        /* \"contracts/Staking.sol\":6191:6237  staker.stakerCurrentReward.mul(_rewardFeeRate) */\n      tag_119\n        /* \"contracts/Staking.sol\":6222:6236  _rewardFeeRate */\n      sload(0x04)\n        /* \"contracts/Staking.sol\":6191:6197  staker */\n      dup7\n        /* \"contracts/Staking.sol\":6191:6217  staker.stakerCurrentReward */\n      0x00\n      add\n      sload\n        /* \"contracts/Staking.sol\":6191:6221  staker.stakerCurrentReward.mul */\n      tag_107\n      swap1\n        /* \"contracts/Staking.sol\":6191:6237  staker.stakerCurrentReward.mul(_rewardFeeRate) */\n      swap2\n      swap1\n      0xffffffff\n      and\n      jump\t// in\n    tag_119:\n        /* \"contracts/Staking.sol\":6191:6241  staker.stakerCurrentReward.mul(_rewardFeeRate).div */\n      tag_97\n      swap1\n        /* \"contracts/Staking.sol\":6191:6248  staker.stakerCurrentReward.mul(_rewardFeeRate).div(10**4) */\n      swap2\n      swap1\n      0xffffffff\n      and\n      jump\t// in\n    tag_118:\n        /* \"contracts/Staking.sol\":6160:6166  staker */\n      dup4\n        /* \"contracts/Staking.sol\":6160:6186  staker.stakerCurrentReward */\n      0x00\n      add\n      sload\n        /* \"contracts/Staking.sol\":6160:6190  staker.stakerCurrentReward.sub */\n      tag_96\n      swap1\n        /* \"contracts/Staking.sol\":6160:6249  staker.stakerCurrentReward.sub(staker.stakerCurrentReward.mul(_rewardFeeRate).div(10**4)) */\n      swap2\n      swap1\n      0xffffffff\n      and\n      jump\t// in\n    tag_117:\n        /* \"contracts/Staking.sol\":6136:6249  uint256 rewardToClaim = staker.stakerCurrentReward.sub(staker.stakerCurrentReward.mul(_rewardFeeRate).div(10**4)) */\n      swap1\n      pop\n        /* \"contracts/Staking.sol\":6294:6295  0 */\n      0x00\n        /* \"contracts/Staking.sol\":6278:6291  rewardToClaim */\n      dup2\n        /* \"contracts/Staking.sol\":6278:6295  rewardToClaim > 0 */\n      gt\n        /* \"contracts/Staking.sol\":6270:6316  require(rewardToClaim > 0, \"Nothing to claim\") */\n      tag_120\n      jumpi\n      mload(0x40)\n      0x08c379a000000000000000000000000000000000000000000000000000000000\n      dup2\n      mstore\n      0x04\n      add\n      tag_121\n      swap1\n      tag_122\n      jump\t// in\n    tag_121:\n      mload(0x40)\n      dup1\n      swap2\n      sub\n      swap1\n      revert\n    tag_120:\n        /* \"contracts/Staking.sol\":6347:6352  token */\n      0x08\n      0x00\n      swap1\n      sload\n      swap1\n      0x0100\n      exp\n      swap1\n      div\n      0xffffffffffffffffffffffffffffffffffffffff\n      and\n        /* \"contracts/Staking.sol\":6347:6362  token.balanceOf */\n      0xffffffffffffffffffffffffffffffffffffffff\n      and\n      0x70a08231\n        /* \"contracts/Staking.sol\":6363:6376  _bountyWallet */\n      0x05\n      0x00\n      swap1\n      sload\n      swap1\n      0x0100\n      exp\n      swap1\n      div\n      0xffffffffffffffffffffffffffffffffffffffff\n      and\n        /* \"contracts/Staking.sol\":6347:6377  token.balanceOf(_bountyWallet) */\n      mload(0x40)\n      dup3\n      0xffffffff\n      and\n      0xe0\n      shl\n      dup2\n      mstore\n      0x04\n      add\n      tag_123\n      swap2\n      swap1\n      tag_57\n      jump\t// in\n    tag_123:\n      0x20\n      mload(0x40)\n      dup1\n      dup4\n      sub\n      dup2\n      dup7\n      gas\n      staticcall\n      iszero\n      dup1\n      iszero\n      tag_125\n      jumpi\n      returndatasize\n      0x00\n      dup1\n      returndatacopy\n      revert(0x00, returndatasize)\n    tag_125:\n      pop\n      pop\n      pop\n      pop\n      mload(0x40)\n      returndatasize\n      not(0x1f)\n      0x1f\n      dup3\n      add\n      and\n      dup3\n      add\n      dup1\n      0x40\n      mstore\n      pop\n      dup2\n      add\n      swap1\n      tag_126\n      swap2\n      swap1\n      tag_87\n      jump\t// in\n    tag_126:\n        /* \"contracts/Staking.sol\":6331:6344  rewardToClaim */\n      dup2\n        /* \"contracts/Staking.sol\":6331:6377  rewardToClaim > token.balanceOf(_bountyWallet) */\n      gt\n        /* \"contracts/Staking.sol\":6327:6438  if (rewardToClaim > token.balanceOf(_bountyWallet))... */\n      iszero\n      tag_127\n      jumpi\n        /* \"contracts/Staking.sol\":6408:6413  token */\n      0x08\n      0x00\n      swap1\n      sload\n      swap1\n      0x0100\n      exp\n      swap1\n      div\n      0xffffffffffffffffffffffffffffffffffffffff\n      and\n        /* \"contracts/Staking.sol\":6408:6423  token.balanceOf */\n      0xffffffffffffffffffffffffffffffffffffffff\n      and\n      0x70a08231\n        /* \"contracts/Staking.sol\":6424:6437  _bountyWallet */\n      0x05\n      0x00\n      swap1\n      sload\n      swap1\n      0x0100\n      exp\n      swap1\n      div\n      0xffffffffffffffffffffffffffffffffffffffff\n      and\n        /* \"contracts/Staking.sol\":6408:6438  token.balanceOf(_bountyWallet) */\n      mload(0x40)\n      dup3\n      0xffffffff\n      and\n      0xe0\n      shl\n      dup2\n      mstore\n      0x04\n      add\n      tag_128\n      swap2\n      swap1\n      tag_57\n      jump\t// in\n    tag_128:\n      0x20\n      mload(0x40)\n      dup1\n      dup4\n      sub\n      dup2\n      dup7\n      gas\n      staticcall\n      iszero\n      dup1\n      iszero\n      tag_130\n      jumpi\n      returndatasize\n      0x00\n      dup1\n      returndatacopy\n      revert(0x00, returndatasize)\n    tag_130:\n      pop\n      pop\n      pop\n      pop\n      mload(0x40)\n      returndatasize\n      not(0x1f)\n      0x1f\n      dup3\n      add\n      and\n      dup3\n      add\n      dup1\n      0x40\n      mstore\n      pop\n      dup2\n      add\n      swap1\n      tag_131\n      swap2\n      swap1\n      tag_87\n      jump\t// in\n    tag_131:\n        /* \"contracts/Staking.sol\":6392:6438  rewardToClaim = token.balanceOf(_bountyWallet) */\n      swap1\n      pop\n        /* \"contracts/Staking.sol\":6327:6438  if (rewardToClaim > token.balanceOf(_bountyWallet))... */\n    tag_127:\n        /* \"contracts/Staking.sol\":6449:6513  token.safeTransferFrom(_bountyWallet, msg.sender, rewardToClaim) */\n      tag_132\n        /* \"contracts/Staking.sol\":6472:6485  _bountyWallet */\n      0x05\n      0x00\n      swap1\n      sload\n      swap1\n      0x0100\n      exp\n      swap1\n      div\n      0xffffffffffffffffffffffffffffffffffffffff\n      and\n        /* \"contracts/Staking.sol\":6487:6497  msg.sender */\n      caller\n        /* \"contracts/Staking.sol\":6499:6512  rewardToClaim */\n      dup4\n        /* \"contracts/Staking.sol\":6449:6454  token */\n      0x08\n      0x00\n      swap1\n      sload\n      swap1\n      0x0100\n      exp\n      swap1\n      div\n      0xffffffffffffffffffffffffffffffffffffffff\n      and\n        /* \"contracts/Staking.sol\":6449:6471  token.safeTransferFrom */\n      0xffffffffffffffffffffffffffffffffffffffff\n      and\n      tag_133\n      swap1\n        /* \"contracts/Staking.sol\":6449:6513  token.safeTransferFrom(_bountyWallet, msg.sender, rewardToClaim) */\n      swap4\n      swap3\n      swap2\n      swap1\n      0xffffffff\n      and\n      jump\t// in\n    tag_132:\n        /* \"contracts/Staking.sol\":6553:6554  0 */\n      0x00\n        /* \"contracts/Staking.sol\":6524:6530  staker */\n      dup3\n        /* \"contracts/Staking.sol\":6524:6550  staker.stakerCurrentReward */\n      0x00\n      add\n        /* \"contracts/Staking.sol\":6524:6554  staker.stakerCurrentReward = 0 */\n      dup2\n      swap1\n      sstore\n      pop\n        /* \"contracts/Staking.sol\":6572:6606  Harvest(msg.sender, rewardToClaim) */\n      0xc9695243a805adb74c91f28311176c65b417e842d5699893cef56d18bfa48cba\n        /* \"contracts/Staking.sol\":6580:6590  msg.sender */\n      caller\n        /* \"contracts/Staking.sol\":6592:6605  rewardToClaim */\n      dup3\n        /* \"contracts/Staking.sol\":6572:6606  Harvest(msg.sender, rewardToClaim) */\n      mload(0x40)\n      tag_134\n      swap3\n      swap2\n      swap1\n      tag_113\n      jump\t// in\n    tag_134:\n      mload(0x40)\n      dup1\n      swap2\n      sub\n      swap1\n      log1\n        /* \"contracts/Staking.sol\":6036:6614  {... */\n      pop\n      pop\n        /* \"contracts/Staking.sol\":6011:6614  function harvest() public{... */\n      jump\t// out\n        /* \"contracts/Staking.sol\":2764:3188  function startStaking(uint256 _amount, uint256 _mode) external {... */\n    tag_35:\n        /* \"contracts/Staking.sol\":2858:2859  0 */\n      0x00\n        /* \"contracts/Staking.sol\":2848:2855  _amount */\n      dup3\n        /* \"contracts/Staking.sol\":2848:2859  _amount > 0 */\n      gt\n        /* \"contracts/Staking.sol\":2840:2895  require(_amount > 0, \"Amount should be greater than 0\") */\n      tag_136\n      jumpi\n      mload(0x40)\n      0x08c379a000000000000000000000000000000000000000000000000000000000\n      dup2\n      mstore\n      0x04\n      add\n      tag_137\n      swap1\n      tag_77\n      jump\t// in\n    tag_137:\n      mload(0x40)\n      dup1\n      swap2\n      sub\n      swap1\n      revert\n    tag_136:\n        /* \"contracts/Staking.sol\":2944:2951  _amount */\n      dup2\n        /* \"contracts/Staking.sol\":2914:2919  token */\n      0x08\n      0x00\n      swap1\n      sload\n      swap1\n      0x0100\n      exp\n      swap1\n      div\n      0xffffffffffffffffffffffffffffffffffffffff\n      and\n        /* \"contracts/Staking.sol\":2914:2929  token.balanceOf */\n      0xffffffffffffffffffffffffffffffffffffffff\n      and\n      0x70a08231\n        /* \"contracts/Staking.sol\":2930:2940  msg.sender */\n      caller\n        /* \"contracts/Staking.sol\":2914:2941  token.balanceOf(msg.sender) */\n      mload(0x40)\n      dup3\n      0xffffffff\n      and\n      0xe0\n      shl\n      dup2\n      mstore\n      0x04\n      add\n      tag_138\n      swap2\n      swap1\n      tag_57\n      jump\t// in\n    tag_138:\n      0x20\n      mload(0x40)\n      dup1\n      dup4\n      sub\n      dup2\n      dup7\n      gas\n      staticcall\n      iszero\n      dup1\n      iszero\n      tag_140\n      jumpi\n      returndatasize\n      0x00\n      dup1\n      returndatacopy\n      revert(0x00, returndatasize)\n    tag_140:\n      pop\n      pop\n      pop\n      pop\n      mload(0x40)\n      returndatasize\n      not(0x1f)\n      0x1f\n      dup3\n      add\n      and\n      dup3\n      add\n      dup1\n      0x40\n      mstore\n      pop\n      dup2\n      add\n      swap1\n      tag_141\n      swap2\n      swap1\n      tag_87\n      jump\t// in\n    tag_141:\n        /* \"contracts/Staking.sol\":2914:2951  token.balanceOf(msg.sender) > _amount */\n      gt\n        /* \"contracts/Staking.sol\":2906:2969  require(token.balanceOf(msg.sender) > _amount, \"Insufficient!\") */\n      tag_142\n      jumpi\n      mload(0x40)\n      0x08c379a000000000000000000000000000000000000000000000000000000000\n      dup2\n      mstore\n      0x04\n      add\n      tag_143\n      swap1\n      tag_144\n      jump\t// in\n    tag_143:\n      mload(0x40)\n      dup1\n      swap2\n      sub\n      swap1\n      revert\n    tag_142:\n        /* \"contracts/Staking.sol\":3026:3027  0 */\n      0x00\n        /* \"contracts/Staking.sol\":2988:2995  _staker */\n      0x06\n        /* \"contracts/Staking.sol\":2988:3007  _staker[msg.sender] */\n      0x00\n        /* \"contracts/Staking.sol\":2996:3006  msg.sender */\n      caller\n        /* \"contracts/Staking.sol\":2988:3007  _staker[msg.sender] */\n      0xffffffffffffffffffffffffffffffffffffffff\n      and\n      0xffffffffffffffffffffffffffffffffffffffff\n      and\n      dup2\n      mstore\n      0x20\n      add\n      swap1\n      dup2\n      mstore\n      0x20\n      add\n      0x00\n      keccak256\n        /* \"contracts/Staking.sol\":2988:3022  _staker[msg.sender].stakeStartTime */\n      0x03\n      add\n      sload\n        /* \"contracts/Staking.sol\":2988:3027  _staker[msg.sender].stakeStartTime != 0 */\n      eq\n      iszero\n        /* \"contracts/Staking.sol\":2980:3047  require(_staker[msg.sender].stakeStartTime != 0, \"Already started\") */\n      tag_145\n      jumpi\n      mload(0x40)\n      0x08c379a000000000000000000000000000000000000000000000000000000000\n      dup2\n      mstore\n      0x04\n      add\n      tag_146\n      swap1\n      tag_147\n      jump\t// in\n    tag_146:\n      mload(0x40)\n      dup1\n      swap2\n      sub\n      swap1\n      revert\n    tag_145:\n        /* \"contracts/Staking.sol\":3087:3092  _mode */\n      dup1\n        /* \"contracts/Staking.sol\":3060:3067  _staker */\n      0x06\n        /* \"contracts/Staking.sol\":3060:3079  _staker[msg.sender] */\n      0x00\n        /* \"contracts/Staking.sol\":3068:3078  msg.sender */\n      caller\n        /* \"contracts/Staking.sol\":3060:3079  _staker[msg.sender] */\n      0xffffffffffffffffffffffffffffffffffffffff\n      and\n      0xffffffffffffffffffffffffffffffffffffffff\n      and\n      dup2\n      mstore\n      0x20\n      add\n      swap1\n      dup2\n      mstore\n      0x20\n      add\n      0x00\n      keccak256\n        /* \"contracts/Staking.sol\":3060:3084  _staker[msg.sender].mode */\n      0x02\n      add\n        /* \"contracts/Staking.sol\":3060:3092  _staker[msg.sender].mode = _mode */\n      dup2\n      swap1\n      sstore\n      pop\n        /* \"contracts/Staking.sol\":3140:3155  block.timestamp */\n      timestamp\n        /* \"contracts/Staking.sol\":3103:3110  _staker */\n      0x06\n        /* \"contracts/Staking.sol\":3103:3122  _staker[msg.sender] */\n      0x00\n        /* \"contracts/Staking.sol\":3111:3121  msg.sender */\n      caller\n        /* \"contracts/Staking.sol\":3103:3122  _staker[msg.sender] */\n      0xffffffffffffffffffffffffffffffffffffffff\n      and\n      0xffffffffffffffffffffffffffffffffffffffff\n      and\n      dup2\n      mstore\n      0x20\n      add\n      swap1\n      dup2\n      mstore\n      0x20\n      add\n      0x00\n      keccak256\n        /* \"contracts/Staking.sol\":3103:3137  _staker[msg.sender].stakeStartTime */\n      0x03\n      add\n        /* \"contracts/Staking.sol\":3103:3155  _staker[msg.sender].stakeStartTime = block.timestamp */\n      dup2\n      swap1\n      sstore\n      pop\n        /* \"contracts/Staking.sol\":3166:3180  stake(_amount) */\n      tag_148\n        /* \"contracts/Staking.sol\":3172:3179  _amount */\n      dup3\n        /* \"contracts/Staking.sol\":3166:3171  stake */\n      tag_63\n        /* \"contracts/Staking.sol\":3166:3180  stake(_amount) */\n      jump\t// in\n    tag_148:\n        /* \"contracts/Staking.sol\":2764:3188  function startStaking(uint256 _amount, uint256 _mode) external {... */\n      pop\n      pop\n      jump\t// out\n        /* \"contracts/Staking.sol\":4744:4947  function setFixedAPY(uint256 __fixedAPY) external onlyOwner {... */\n    tag_38:\n        /* \"@openzeppelin/contracts/access/Ownable.sol\":1259:1271  _msgSender() */\n      tag_150\n        /* \"@openzeppelin/contracts/access/Ownable.sol\":1259:1269  _msgSender */\n      tag_151\n        /* \"@openzeppelin/contracts/access/Ownable.sol\":1259:1271  _msgSender() */\n      jump\t// in\n    tag_150:\n        /* \"@openzeppelin/contracts/access/Ownable.sol\":1248:1271  owner() == _msgSender() */\n      0xffffffffffffffffffffffffffffffffffffffff\n      and\n        /* \"@openzeppelin/contracts/access/Ownable.sol\":1248:1255  owner() */\n      tag_152\n        /* \"@openzeppelin/contracts/access/Ownable.sol\":1248:1253  owner */\n      tag_55\n        /* \"@openzeppelin/contracts/access/Ownable.sol\":1248:1255  owner() */\n      jump\t// in\n    tag_152:\n        /* \"@openzeppelin/contracts/access/Ownable.sol\":1248:1271  owner() == _msgSender() */\n      0xffffffffffffffffffffffffffffffffffffffff\n      and\n      eq\n        /* \"@openzeppelin/contracts/access/Ownable.sol\":1240:1308  require(owner() == _msgSender(), \"Ownable: caller is not the owner\") */\n      tag_153\n      jumpi\n      mload(0x40)\n      0x08c379a000000000000000000000000000000000000000000000000000000000\n      dup2\n      mstore\n      0x04\n      add\n      tag_154\n      swap1\n      tag_155\n      jump\t// in\n    tag_154:\n      mload(0x40)\n      dup1\n      swap2\n      sub\n      swap1\n      revert\n    tag_153:\n        /* \"contracts/Staking.sol\":4838:4839  0 */\n      0x00\n        /* \"contracts/Staking.sol\":4825:4835  __fixedAPY */\n      dup2\n        /* \"contracts/Staking.sol\":4825:4839  __fixedAPY > 0 */\n      gt\n        /* \"contracts/Staking.sol\":4817:4855  require(__fixedAPY > 0, \"Invalid APY\") */\n      tag_157\n      jumpi\n      mload(0x40)\n      0x08c379a000000000000000000000000000000000000000000000000000000000\n      dup2\n      mstore\n      0x04\n      add\n      tag_158\n      swap1\n      tag_159\n      jump\t// in\n    tag_158:\n      mload(0x40)\n      dup1\n      swap2\n      sub\n      swap1\n      revert\n    tag_157:\n        /* \"contracts/Staking.sol\":4888:4898  __fixedAPY */\n      dup1\n        /* \"contracts/Staking.sol\":4876:4885  _fixedAPY */\n      0x03\n        /* \"contracts/Staking.sol\":4876:4898  _fixedAPY = __fixedAPY */\n      dup2\n      swap1\n      sstore\n      pop\n        /* \"contracts/Staking.sol\":4916:4939  SetFixedAPY(__fixedAPY) */\n      0xb8f51888a0746f534a064d0d08f74852a939d6cd181760e1cedc7a8396d9e22f\n        /* \"contracts/Staking.sol\":4928:4938  __fixedAPY */\n      dup2\n        /* \"contracts/Staking.sol\":4916:4939  SetFixedAPY(__fixedAPY) */\n      mload(0x40)\n      tag_160\n      swap2\n      swap1\n      tag_29\n      jump\t// in\n    tag_160:\n      mload(0x40)\n      dup1\n      swap2\n      sub\n      swap1\n      log1\n        /* \"contracts/Staking.sol\":4744:4947  function setFixedAPY(uint256 __fixedAPY) external onlyOwner {... */\n      pop\n      jump\t// out\n        /* \"contracts/Staking.sol\":5811:5970  function rewardToHarvest() public view returns (uint256){... */\n    tag_40:\n        /* \"contracts/Staking.sol\":5859:5866  uint256 */\n      0x00\n        /* \"contracts/Staking.sol\":5923:5930  _staker */\n      0x06\n        /* \"contracts/Staking.sol\":5923:5942  _staker[msg.sender] */\n      0x00\n        /* \"contracts/Staking.sol\":5931:5941  msg.sender */\n      caller\n        /* \"contracts/Staking.sol\":5923:5942  _staker[msg.sender] */\n      0xffffffffffffffffffffffffffffffffffffffff\n      and\n      0xffffffffffffffffffffffffffffffffffffffff\n      and\n      dup2\n      mstore\n      0x20\n      add\n      swap1\n      dup2\n      mstore\n      0x20\n      add\n      0x00\n      keccak256\n        /* \"contracts/Staking.sol\":5923:5962  _staker[msg.sender].stakerCurrentReward */\n      0x00\n      add\n      sload\n        /* \"contracts/Staking.sol\":5916:5962  return _staker[msg.sender].stakerCurrentReward */\n      swap1\n      pop\n        /* \"contracts/Staking.sol\":5811:5970  function rewardToHarvest() public view returns (uint256){... */\n      swap1\n      jump\t// out\n        /* \"contracts/Staking.sol\":4955:5203  function setEventPeriod(uint256 __eventPeriod) external onlyOwner {... */\n    tag_44:\n        /* \"@openzeppelin/contracts/access/Ownable.sol\":1259:1271  _msgSender() */\n      tag_163\n        /* \"@openzeppelin/contracts/access/Ownable.sol\":1259:1269  _msgSender */\n      tag_151\n        /* \"@openzeppelin/contracts/access/Ownable.sol\":1259:1271  _msgSender() */\n      jump\t// in\n    tag_163:\n        /* \"@openzeppelin/contracts/access/Ownable.sol\":1248:1271  owner() == _msgSender() */\n      0xffffffffffffffffffffffffffffffffffffffff\n      and\n        /* \"@openzeppelin/contracts/access/Ownable.sol\":1248:1255  owner() */\n      tag_164\n        /* \"@openzeppelin/contracts/access/Ownable.sol\":1248:1253  owner */\n      tag_55\n        /* \"@openzeppelin/contracts/access/Ownable.sol\":1248:1255  owner() */\n      jump\t// in\n    tag_164:\n        /* \"@openzeppelin/contracts/access/Ownable.sol\":1248:1271  owner() == _msgSender() */\n      0xffffffffffffffffffffffffffffffffffffffff\n      and\n      eq\n        /* \"@openzeppelin/contracts/access/Ownable.sol\":1240:1308  require(owner() == _msgSender(), \"Ownable: caller is not the owner\") */\n      tag_165\n      jumpi\n      mload(0x40)\n      0x08c379a000000000000000000000000000000000000000000000000000000000\n      dup2\n      mstore\n      0x04\n      add\n      tag_166\n      swap1\n      tag_155\n      jump\t// in\n    tag_166:\n      mload(0x40)\n      dup1\n      swap2\n      sub\n      swap1\n      revert\n    tag_165:\n        /* \"contracts/Staking.sol\":5066:5067  0 */\n      0x00\n        /* \"contracts/Staking.sol\":5050:5063  __eventPeriod */\n      dup2\n        /* \"contracts/Staking.sol\":5050:5067  __eventPeriod > 0 */\n      gt\n        /* \"contracts/Staking.sol\":5042:5095  require(__eventPeriod > 0, \"Invalid Lockup Duration\") */\n      tag_168\n      jumpi\n      mload(0x40)\n      0x08c379a000000000000000000000000000000000000000000000000000000000\n      dup2\n      mstore\n      0x04\n      add\n      tag_169\n      swap1\n      tag_170\n      jump\t// in\n    tag_169:\n      mload(0x40)\n      dup1\n      swap2\n      sub\n      swap1\n      revert\n    tag_168:\n        /* \"contracts/Staking.sol\":5123:5148  __eventPeriod.mul(1 days) */\n      tag_171\n        /* \"contracts/Staking.sol\":5141:5147  1 days */\n      0x015180\n        /* \"contracts/Staking.sol\":5123:5136  __eventPeriod */\n      dup3\n        /* \"contracts/Staking.sol\":5123:5140  __eventPeriod.mul */\n      tag_107\n      swap1\n        /* \"contracts/Staking.sol\":5123:5148  __eventPeriod.mul(1 days) */\n      swap2\n      swap1\n      0xffffffff\n      and\n      jump\t// in\n    tag_171:\n        /* \"contracts/Staking.sol\":5108:5120  _eventPeriod */\n      0x02\n        /* \"contracts/Staking.sol\":5108:5148  _eventPeriod = __eventPeriod.mul(1 days) */\n      dup2\n      swap1\n      sstore\n      pop\n        /* \"contracts/Staking.sol\":5166:5195  SetEventPeriod(__eventPeriod) */\n      0x189bda9782663c67a3f95c0aa5455924c711210b00281c60ead2f0dd8dbc924c\n        /* \"contracts/Staking.sol\":5181:5194  __eventPeriod */\n      dup2\n        /* \"contracts/Staking.sol\":5166:5195  SetEventPeriod(__eventPeriod) */\n      mload(0x40)\n      tag_172\n      swap2\n      swap1\n      tag_29\n      jump\t// in\n    tag_172:\n      mload(0x40)\n      dup1\n      swap2\n      sub\n      swap1\n      log1\n        /* \"contracts/Staking.sol\":4955:5203  function setEventPeriod(uint256 __eventPeriod) external onlyOwner {... */\n      pop\n      jump\t// out\n        /* \"@openzeppelin/contracts/access/Ownable.sol\":1668:1769  function renounceOwnership() public virtual onlyOwner {... */\n    tag_46:\n        /* \"@openzeppelin/contracts/access/Ownable.sol\":1259:1271  _msgSender() */\n      tag_174\n        /* \"@openzeppelin/contracts/access/Ownable.sol\":1259:1269  _msgSender */\n      tag_151\n        /* \"@openzeppelin/contracts/access/Ownable.sol\":1259:1271  _msgSender() */\n      jump\t// in\n    tag_174:\n        /* \"@openzeppelin/contracts/access/Ownable.sol\":1248:1271  owner() == _msgSender() */\n      0xffffffffffffffffffffffffffffffffffffffff\n      and\n        /* \"@openzeppelin/contracts/access/Ownable.sol\":1248:1255  owner() */\n      tag_175\n        /* \"@openzeppelin/contracts/access/Ownable.sol\":1248:1253  owner */\n      tag_55\n        /* \"@openzeppelin/contracts/access/Ownable.sol\":1248:1255  owner() */\n      jump\t// in\n    tag_175:\n        /* \"@openzeppelin/contracts/access/Ownable.sol\":1248:1271  owner() == _msgSender() */\n      0xffffffffffffffffffffffffffffffffffffffff\n      and\n      eq\n        /* \"@openzeppelin/contracts/access/Ownable.sol\":1240:1308  require(owner() == _msgSender(), \"Ownable: caller is not the owner\") */\n      tag_176\n      jumpi\n      mload(0x40)\n      0x08c379a000000000000000000000000000000000000000000000000000000000\n      dup2\n      mstore\n      0x04\n      add\n      tag_177\n      swap1\n      tag_155\n      jump\t// in\n    tag_177:\n      mload(0x40)\n      dup1\n      swap2\n      sub\n      swap1\n      revert\n    tag_176:\n        /* \"@openzeppelin/contracts/access/Ownable.sol\":1732:1762  _transferOwnership(address(0)) */\n      tag_179\n        /* \"@openzeppelin/contracts/access/Ownable.sol\":1759:1760  0 */\n      0x00\n        /* \"@openzeppelin/contracts/access/Ownable.sol\":1732:1750  _transferOwnership */\n      tag_180\n        /* \"@openzeppelin/contracts/access/Ownable.sol\":1732:1762  _transferOwnership(address(0)) */\n      jump\t// in\n    tag_179:\n        /* \"@openzeppelin/contracts/access/Ownable.sol\":1668:1769  function renounceOwnership() public virtual onlyOwner {... */\n      jump\t// out\n        /* \"contracts/Staking.sol\":973:999  uint256 public totalStaked */\n    tag_48:\n      sload(0x07)\n      dup2\n      jump\t// out\n        /* \"contracts/Staking.sol\":5485:5752  function setBountyWallet(address __bountyWallet) external onlyOwner {... */\n    tag_53:\n        /* \"@openzeppelin/contracts/access/Ownable.sol\":1259:1271  _msgSender() */\n      tag_182\n        /* \"@openzeppelin/contracts/access/Ownable.sol\":1259:1269  _msgSender */\n      tag_151\n        /* \"@openzeppelin/contracts/access/Ownable.sol\":1259:1271  _msgSender() */\n      jump\t// in\n    tag_182:\n        /* \"@openzeppelin/contracts/access/Ownable.sol\":1248:1271  owner() == _msgSender() */\n      0xffffffffffffffffffffffffffffffffffffffff\n      and\n        /* \"@openzeppelin/contracts/access/Ownable.sol\":1248:1255  owner() */\n      tag_183\n        /* \"@openzeppelin/contracts/access/Ownable.sol\":1248:1253  owner */\n      tag_55\n        /* \"@openzeppelin/contracts/access/Ownable.sol\":1248:1255  owner() */\n      jump\t// in\n    tag_183:\n        /* \"@openzeppelin/contracts/access/Ownable.sol\":1248:1271  owner() == _msgSender() */\n      0xffffffffffffffffffffffffffffffffffffffff\n      and\n      eq\n        /* \"@openzeppelin/contracts/access/Ownable.sol\":1240:1308  require(owner() == _msgSender(), \"Ownable: caller is not the owner\") */\n      tag_184\n      jumpi\n      mload(0x40)\n      0x08c379a000000000000000000000000000000000000000000000000000000000\n      dup2\n      mstore\n      0x04\n      add\n      tag_185\n      swap1\n      tag_155\n      jump\t// in\n    tag_185:\n      mload(0x40)\n      dup1\n      swap2\n      sub\n      swap1\n      revert\n    tag_184:\n        /* \"contracts/Staking.sol\":5607:5608  0 */\n      0x00\n        /* \"contracts/Staking.sol\":5582:5609  __bountyWallet > address(0) */\n      0xffffffffffffffffffffffffffffffffffffffff\n      and\n        /* \"contracts/Staking.sol\":5582:5596  __bountyWallet */\n      dup2\n        /* \"contracts/Staking.sol\":5582:5609  __bountyWallet > address(0) */\n      0xffffffffffffffffffffffffffffffffffffffff\n      and\n      gt\n        /* \"contracts/Staking.sol\":5574:5652  require(__bountyWallet > address(0), \"Invalid Address. Address can't be zero\") */\n      tag_187\n      jumpi\n      mload(0x40)\n      0x08c379a000000000000000000000000000000000000000000000000000000000\n      dup2\n      mstore\n      0x04\n      add\n      tag_188\n      swap1\n      tag_189\n      jump\t// in\n    tag_188:\n      mload(0x40)\n      dup1\n      swap2\n      sub\n      swap1\n      revert\n    tag_187:\n        /* \"contracts/Staking.sol\":5681:5695  __bountyWallet */\n      dup1\n        /* \"contracts/Staking.sol\":5665:5678  _bountyWallet */\n      0x05\n      0x00\n        /* \"contracts/Staking.sol\":5665:5695  _bountyWallet = __bountyWallet */\n      0x0100\n      exp\n      dup2\n      sload\n      dup2\n      0xffffffffffffffffffffffffffffffffffffffff\n      mul\n      not\n      and\n      swap1\n      dup4\n      0xffffffffffffffffffffffffffffffffffffffff\n      and\n      mul\n      or\n      swap1\n      sstore\n      pop\n        /* \"contracts/Staking.sol\":5713:5744  SetBountyWallet(__bountyWallet) */\n      0xeda87051e2996c46ee8d576509ffc1826e6df46eef99072f838fecbb88992a87\n        /* \"contracts/Staking.sol\":5729:5743  __bountyWallet */\n      dup2\n        /* \"contracts/Staking.sol\":5713:5744  SetBountyWallet(__bountyWallet) */\n      mload(0x40)\n      tag_190\n      swap2\n      swap1\n      tag_57\n      jump\t// in\n    tag_190:\n      mload(0x40)\n      dup1\n      swap2\n      sub\n      swap1\n      log1\n        /* \"contracts/Staking.sol\":5485:5752  function setBountyWallet(address __bountyWallet) external onlyOwner {... */\n      pop\n      jump\t// out\n        /* \"@openzeppelin/contracts/access/Ownable.sol\":1036:1121  function owner() public view virtual returns (address) {... */\n    tag_55:\n        /* \"@openzeppelin/contracts/access/Ownable.sol\":1082:1089  address */\n      0x00\n        /* \"@openzeppelin/contracts/access/Ownable.sol\":1108:1114  _owner */\n      dup1\n      0x00\n      swap1\n      sload\n      swap1\n      0x0100\n      exp\n      swap1\n      div\n      0xffffffffffffffffffffffffffffffffffffffff\n      and\n        /* \"@openzeppelin/contracts/access/Ownable.sol\":1101:1114  return _owner */\n      swap1\n      pop\n        /* \"@openzeppelin/contracts/access/Ownable.sol\":1036:1121  function owner() public view virtual returns (address) {... */\n      swap1\n      jump\t// out\n        /* \"contracts/Staking.sol\":5211:5477  function setUnstakingFeeRate(uint256 __unstakingFeeRate) external onlyOwner {... */\n    tag_60:\n        /* \"@openzeppelin/contracts/access/Ownable.sol\":1259:1271  _msgSender() */\n      tag_193\n        /* \"@openzeppelin/contracts/access/Ownable.sol\":1259:1269  _msgSender */\n      tag_151\n        /* \"@openzeppelin/contracts/access/Ownable.sol\":1259:1271  _msgSender() */\n      jump\t// in\n    tag_193:\n        /* \"@openzeppelin/contracts/access/Ownable.sol\":1248:1271  owner() == _msgSender() */\n      0xffffffffffffffffffffffffffffffffffffffff\n      and\n        /* \"@openzeppelin/contracts/access/Ownable.sol\":1248:1255  owner() */\n      tag_194\n        /* \"@openzeppelin/contracts/access/Ownable.sol\":1248:1253  owner */\n      tag_55\n        /* \"@openzeppelin/contracts/access/Ownable.sol\":1248:1255  owner() */\n      jump\t// in\n    tag_194:\n        /* \"@openzeppelin/contracts/access/Ownable.sol\":1248:1271  owner() == _msgSender() */\n      0xffffffffffffffffffffffffffffffffffffffff\n      and\n      eq\n        /* \"@openzeppelin/contracts/access/Ownable.sol\":1240:1308  require(owner() == _msgSender(), \"Ownable: caller is not the owner\") */\n      tag_195\n      jumpi\n      mload(0x40)\n      0x08c379a000000000000000000000000000000000000000000000000000000000\n      dup2\n      mstore\n      0x04\n      add\n      tag_196\n      swap1\n      tag_155\n      jump\t// in\n    tag_196:\n      mload(0x40)\n      dup1\n      swap2\n      sub\n      swap1\n      revert\n    tag_195:\n        /* \"contracts/Staking.sol\":5329:5330  0 */\n      0x00\n        /* \"contracts/Staking.sol\":5308:5326  __unstakingFeeRate */\n      dup2\n        /* \"contracts/Staking.sol\":5308:5330  __unstakingFeeRate > 0 */\n      gt\n        /* \"contracts/Staking.sol\":5300:5361  require(__unstakingFeeRate > 0, \"Invalid Unstaking Fee Rate\") */\n      tag_198\n      jumpi\n      mload(0x40)\n      0x08c379a000000000000000000000000000000000000000000000000000000000\n      dup2\n      mstore\n      0x04\n      add\n      tag_199\n      swap1\n      tag_200\n      jump\t// in\n    tag_199:\n      mload(0x40)\n      dup1\n      swap2\n      sub\n      swap1\n      revert\n    tag_198:\n        /* \"contracts/Staking.sol\":5394:5412  __unstakingFeeRate */\n      dup1\n        /* \"contracts/Staking.sol\":5374:5391  _unstakingFeeRate */\n      0x01\n        /* \"contracts/Staking.sol\":5374:5412  _unstakingFeeRate = __unstakingFeeRate */\n      dup2\n      swap1\n      sstore\n      pop\n        /* \"contracts/Staking.sol\":5430:5469  SetUnstakingFeeRate(__unstakingFeeRate) */\n      0x150c688dd7595bf7862b8ab1fe46756450eb7d731037942b3bbc46f3f0e21b81\n        /* \"contracts/Staking.sol\":5450:5468  __unstakingFeeRate */\n      dup2\n        /* \"contracts/Staking.sol\":5430:5469  SetUnstakingFeeRate(__unstakingFeeRate) */\n      mload(0x40)\n      tag_201\n      swap2\n      swap1\n      tag_29\n      jump\t// in\n    tag_201:\n      mload(0x40)\n      dup1\n      swap2\n      sub\n      swap1\n      log1\n        /* \"contracts/Staking.sol\":5211:5477  function setUnstakingFeeRate(uint256 __unstakingFeeRate) external onlyOwner {... */\n      pop\n      jump\t// out\n        /* \"contracts/Staking.sol\":3252:3773  function stake(uint256 _amount) public{... */\n    tag_63:\n        /* \"contracts/Staking.sol\":3329:3330  0 */\n      0x00\n        /* \"contracts/Staking.sol\":3319:3326  _amount */\n      dup2\n        /* \"contracts/Staking.sol\":3319:3330  _amount > 0 */\n      gt\n        /* \"contracts/Staking.sol\":3311:3366  require(_amount > 0, \"Amount should be greater than 0\") */\n      tag_203\n      jumpi\n      mload(0x40)\n      0x08c379a000000000000000000000000000000000000000000000000000000000\n      dup2\n      mstore\n      0x04\n      add\n      tag_204\n      swap1\n      tag_77\n      jump\t// in\n    tag_204:\n      mload(0x40)\n      dup1\n      swap2\n      sub\n      swap1\n      revert\n    tag_203:\n        /* \"contracts/Staking.sol\":3415:3422  _amount */\n      dup1\n        /* \"contracts/Staking.sol\":3385:3390  token */\n      0x08\n      0x00\n      swap1\n      sload\n      swap1\n      0x0100\n      exp\n      swap1\n      div\n      0xffffffffffffffffffffffffffffffffffffffff\n      and\n        /* \"contracts/Staking.sol\":3385:3400  token.balanceOf */\n      0xffffffffffffffffffffffffffffffffffffffff\n      and\n      0x70a08231\n        /* \"contracts/Staking.sol\":3401:3411  msg.sender */\n      caller\n        /* \"contracts/Staking.sol\":3385:3412  token.balanceOf(msg.sender) */\n      mload(0x40)\n      dup3\n      0xffffffff\n      and\n      0xe0\n      shl\n      dup2\n      mstore\n      0x04\n      add\n      tag_205\n      swap2\n      swap1\n      tag_57\n      jump\t// in\n    tag_205:\n      0x20\n      mload(0x40)\n      dup1\n      dup4\n      sub\n      dup2\n      dup7\n      gas\n      staticcall\n      iszero\n      dup1\n      iszero\n      tag_207\n      jumpi\n      returndatasize\n      0x00\n      dup1\n      returndatacopy\n      revert(0x00, returndatasize)\n    tag_207:\n      pop\n      pop\n      pop\n      pop\n      mload(0x40)\n      returndatasize\n      not(0x1f)\n      0x1f\n      dup3\n      add\n      and\n      dup3\n      add\n      dup1\n      0x40\n      mstore\n      pop\n      dup2\n      add\n      swap1\n      tag_208\n      swap2\n      swap1\n      tag_87\n      jump\t// in\n    tag_208:\n        /* \"contracts/Staking.sol\":3385:3422  token.balanceOf(msg.sender) > _amount */\n      gt\n        /* \"contracts/Staking.sol\":3377:3440  require(token.balanceOf(msg.sender) > _amount, \"Insufficient!\") */\n      tag_209\n      jumpi\n      mload(0x40)\n      0x08c379a000000000000000000000000000000000000000000000000000000000\n      dup2\n      mstore\n      0x04\n      add\n      tag_210\n      swap1\n      tag_144\n      jump\t// in\n    tag_210:\n      mload(0x40)\n      dup1\n      swap2\n      sub\n      swap1\n      revert\n    tag_209:\n        /* \"contracts/Staking.sol\":3461:3475  updateReward() */\n      tag_211\n        /* \"contracts/Staking.sol\":3461:3473  updateReward */\n      tag_82\n        /* \"contracts/Staking.sol\":3461:3475  updateReward() */\n      jump\t// in\n    tag_211:\n        /* \"contracts/Staking.sol\":3486:3507  Staker storage staker */\n      0x00\n        /* \"contracts/Staking.sol\":3510:3517  _staker */\n      0x06\n        /* \"contracts/Staking.sol\":3510:3529  _staker[msg.sender] */\n      0x00\n        /* \"contracts/Staking.sol\":3518:3528  msg.sender */\n      caller\n        /* \"contracts/Staking.sol\":3510:3529  _staker[msg.sender] */\n      0xffffffffffffffffffffffffffffffffffffffff\n      and\n      0xffffffffffffffffffffffffffffffffffffffff\n      and\n      dup2\n      mstore\n      0x20\n      add\n      swap1\n      dup2\n      mstore\n      0x20\n      add\n      0x00\n      keccak256\n        /* \"contracts/Staking.sol\":3486:3529  Staker storage staker = _staker[msg.sender] */\n      swap1\n      pop\n        /* \"contracts/Staking.sol\":3540:3598  token.safeTransferFrom(msg.sender, address(this), _amount) */\n      tag_212\n        /* \"contracts/Staking.sol\":3563:3573  msg.sender */\n      caller\n        /* \"contracts/Staking.sol\":3583:3587  this */\n      address\n        /* \"contracts/Staking.sol\":3590:3597  _amount */\n      dup5\n        /* \"contracts/Staking.sol\":3540:3545  token */\n      0x08\n      0x00\n      swap1\n      sload\n      swap1\n      0x0100\n      exp\n      swap1\n      div\n      0xffffffffffffffffffffffffffffffffffffffff\n      and\n        /* \"contracts/Staking.sol\":3540:3562  token.safeTransferFrom */\n      0xffffffffffffffffffffffffffffffffffffffff\n      and\n      tag_133\n      swap1\n        /* \"contracts/Staking.sol\":3540:3598  token.safeTransferFrom(msg.sender, address(this), _amount) */\n      swap4\n      swap3\n      swap2\n      swap1\n      0xffffffff\n      and\n      jump\t// in\n    tag_212:\n        /* \"contracts/Staking.sol\":3631:3663  staker.stakedAmount.add(_amount) */\n      tag_213\n        /* \"contracts/Staking.sol\":3655:3662  _amount */\n      dup3\n        /* \"contracts/Staking.sol\":3631:3637  staker */\n      dup3\n        /* \"contracts/Staking.sol\":3631:3650  staker.stakedAmount */\n      0x01\n      add\n      sload\n        /* \"contracts/Staking.sol\":3631:3654  staker.stakedAmount.add */\n      tag_214\n      swap1\n        /* \"contracts/Staking.sol\":3631:3663  staker.stakedAmount.add(_amount) */\n      swap2\n      swap1\n      0xffffffff\n      and\n      jump\t// in\n    tag_213:\n        /* \"contracts/Staking.sol\":3609:3615  staker */\n      dup2\n        /* \"contracts/Staking.sol\":3609:3628  staker.stakedAmount */\n      0x01\n      add\n        /* \"contracts/Staking.sol\":3609:3663  staker.stakedAmount = staker.stakedAmount.add(_amount) */\n      dup2\n      swap1\n      sstore\n      pop\n        /* \"contracts/Staking.sol\":3688:3712  totalStaked.add(_amount) */\n      tag_215\n        /* \"contracts/Staking.sol\":3704:3711  _amount */\n      dup3\n        /* \"contracts/Staking.sol\":3688:3699  totalStaked */\n      sload(0x07)\n        /* \"contracts/Staking.sol\":3688:3703  totalStaked.add */\n      tag_214\n      swap1\n        /* \"contracts/Staking.sol\":3688:3712  totalStaked.add(_amount) */\n      swap2\n      swap1\n      0xffffffff\n      and\n      jump\t// in\n    tag_215:\n        /* \"contracts/Staking.sol\":3674:3685  totalStaked */\n      0x07\n        /* \"contracts/Staking.sol\":3674:3712  totalStaked = totalStaked.add(_amount) */\n      dup2\n      swap1\n      sstore\n      pop\n        /* \"contracts/Staking.sol\":3738:3765  Staked(msg.sender, _amount) */\n      0x9e71bc8eea02a63969f509818f2dafb9254532904319f9dbda79b67bd34a5f3d\n        /* \"contracts/Staking.sol\":3745:3755  msg.sender */\n      caller\n        /* \"contracts/Staking.sol\":3757:3764  _amount */\n      dup4\n        /* \"contracts/Staking.sol\":3738:3765  Staked(msg.sender, _amount) */\n      mload(0x40)\n      tag_216\n      swap3\n      swap2\n      swap1\n      tag_113\n      jump\t// in\n    tag_216:\n      mload(0x40)\n      dup1\n      swap2\n      sub\n      swap1\n      log1\n        /* \"contracts/Staking.sol\":3290:3773  {... */\n      pop\n        /* \"contracts/Staking.sol\":3252:3773  function stake(uint256 _amount) public{... */\n      pop\n      jump\t// out\n        /* \"@openzeppelin/contracts/access/Ownable.sol\":1918:2116  function transferOwnership(address newOwner) public virtual onlyOwner {... */\n    tag_66:\n        /* \"@openzeppelin/contracts/access/Ownable.sol\":1259:1271  _msgSender() */\n      tag_218\n        /* \"@openzeppelin/contracts/access/Ownable.sol\":1259:1269  _msgSender */\n      tag_151\n        /* \"@openzeppelin/contracts/access/Ownable.sol\":1259:1271  _msgSender() */\n      jump\t// in\n    tag_218:\n        /* \"@openzeppelin/contracts/access/Ownable.sol\":1248:1271  owner() == _msgSender() */\n      0xffffffffffffffffffffffffffffffffffffffff\n      and\n        /* \"@openzeppelin/contracts/access/Ownable.sol\":1248:1255  owner() */\n      tag_219\n        /* \"@openzeppelin/contracts/access/Ownable.sol\":1248:1253  owner */\n      tag_55\n        /* \"@openzeppelin/contracts/access/Ownable.sol\":1248:1255  owner() */\n      jump\t// in\n    tag_219:\n        /* \"@openzeppelin/contracts/access/Ownable.sol\":1248:1271  owner() == _msgSender() */\n      0xffffffffffffffffffffffffffffffffffffffff\n      and\n      eq\n        /* \"@openzeppelin/contracts/access/Ownable.sol\":1240:1308  require(owner() == _msgSender(), \"Ownable: caller is not the owner\") */\n      tag_220\n      jumpi\n      mload(0x40)\n      0x08c379a000000000000000000000000000000000000000000000000000000000\n      dup2\n      mstore\n      0x04\n      add\n      tag_221\n      swap1\n      tag_155\n      jump\t// in\n    tag_221:\n      mload(0x40)\n      dup1\n      swap2\n      sub\n      swap1\n      revert\n    tag_220:\n        /* \"@openzeppelin/contracts/access/Ownable.sol\":2026:2027  0 */\n      0x00\n        /* \"@openzeppelin/contracts/access/Ownable.sol\":2006:2028  newOwner != address(0) */\n      0xffffffffffffffffffffffffffffffffffffffff\n      and\n        /* \"@openzeppelin/contracts/access/Ownable.sol\":2006:2014  newOwner */\n      dup2\n        /* \"@openzeppelin/contracts/access/Ownable.sol\":2006:2028  newOwner != address(0) */\n      0xffffffffffffffffffffffffffffffffffffffff\n      and\n      eq\n      iszero\n        /* \"@openzeppelin/contracts/access/Ownable.sol\":1998:2071  require(newOwner != address(0), \"Ownable: new owner is the zero address\") */\n      tag_223\n      jumpi\n      mload(0x40)\n      0x08c379a000000000000000000000000000000000000000000000000000000000\n      dup2\n      mstore\n      0x04\n      add\n      tag_224\n      swap1\n      tag_225\n      jump\t// in\n    tag_224:\n      mload(0x40)\n      dup1\n      swap2\n      sub\n      swap1\n      revert\n    tag_223:\n        /* \"@openzeppelin/contracts/access/Ownable.sol\":2081:2109  _transferOwnership(newOwner) */\n      tag_226\n        /* \"@openzeppelin/contracts/access/Ownable.sol\":2100:2108  newOwner */\n      dup2\n        /* \"@openzeppelin/contracts/access/Ownable.sol\":2081:2099  _transferOwnership */\n      tag_180\n        /* \"@openzeppelin/contracts/access/Ownable.sol\":2081:2109  _transferOwnership(newOwner) */\n      jump\t// in\n    tag_226:\n        /* \"@openzeppelin/contracts/access/Ownable.sol\":1918:2116  function transferOwnership(address newOwner) public virtual onlyOwner {... */\n      pop\n      jump\t// out\n        /* \"contracts/Staking.sol\":6804:6923  function rewardAmount() public view returns (uint256) {... */\n    tag_68:\n        /* \"contracts/Staking.sol\":6849:6856  uint256 */\n      0x00\n        /* \"contracts/Staking.sol\":6876:6883  _staker */\n      0x06\n        /* \"contracts/Staking.sol\":6876:6895  _staker[msg.sender] */\n      0x00\n        /* \"contracts/Staking.sol\":6884:6894  msg.sender */\n      caller\n        /* \"contracts/Staking.sol\":6876:6895  _staker[msg.sender] */\n      0xffffffffffffffffffffffffffffffffffffffff\n      and\n      0xffffffffffffffffffffffffffffffffffffffff\n      and\n      dup2\n      mstore\n      0x20\n      add\n      swap1\n      dup2\n      mstore\n      0x20\n      add\n      0x00\n      keccak256\n        /* \"contracts/Staking.sol\":6876:6915  _staker[msg.sender].stakerCurrentReward */\n      0x00\n      add\n      sload\n        /* \"contracts/Staking.sol\":6869:6915  return _staker[msg.sender].stakerCurrentReward */\n      swap1\n      pop\n        /* \"contracts/Staking.sol\":6804:6923  function rewardAmount() public view returns (uint256) {... */\n      swap1\n      jump\t// out\n        /* \"contracts/Staking.sol\":1006:1025  IBEP20 public token */\n    tag_71:\n      0x08\n      0x00\n      swap1\n      sload\n      swap1\n      0x0100\n      exp\n      swap1\n      div\n      0xffffffffffffffffffffffffffffffffffffffff\n      and\n      dup2\n      jump\t// out\n        /* \"contracts/Staking.sol\":2014:2756  function updateReward() private{... */\n    tag_82:\n        /* \"contracts/Staking.sol\":2066:2087  Staker storage staker */\n      0x00\n        /* \"contracts/Staking.sol\":2090:2097  _staker */\n      0x06\n        /* \"contracts/Staking.sol\":2090:2109  _staker[msg.sender] */\n      0x00\n        /* \"contracts/Staking.sol\":2098:2108  msg.sender */\n      caller\n        /* \"contracts/Staking.sol\":2090:2109  _staker[msg.sender] */\n      0xffffffffffffffffffffffffffffffffffffffff\n      and\n      0xffffffffffffffffffffffffffffffffffffffff\n      and\n      dup2\n      mstore\n      0x20\n      add\n      swap1\n      dup2\n      mstore\n      0x20\n      add\n      0x00\n      keccak256\n        /* \"contracts/Staking.sol\":2066:2109  Staker storage staker = _staker[msg.sender] */\n      swap1\n      pop\n        /* \"contracts/Staking.sol\":2141:2147  staker */\n      dup1\n        /* \"contracts/Staking.sol\":2141:2163  staker.lastUpdatedTime */\n      0x04\n      add\n      sload\n        /* \"contracts/Staking.sol\":2123:2138  block.timestamp */\n      timestamp\n        /* \"contracts/Staking.sol\":2123:2163  block.timestamp < staker.lastUpdatedTime */\n      lt\n        /* \"contracts/Staking.sol\":2120:2198  if(block.timestamp < staker.lastUpdatedTime) {... */\n      iszero\n      tag_229\n      jumpi\n        /* \"contracts/Staking.sol\":2180:2187  return; */\n      pop\n      jump(tag_228)\n        /* \"contracts/Staking.sol\":2120:2198  if(block.timestamp < staker.lastUpdatedTime) {... */\n    tag_229:\n        /* \"contracts/Staking.sol\":2216:2232  uint256 duration */\n      0x00\n        /* \"contracts/Staking.sol\":2235:2296  calDaysFromTimestamp(block.timestamp - staker.stakeStartTime) */\n      tag_230\n        /* \"contracts/Staking.sol\":2274:2280  staker */\n      dup3\n        /* \"contracts/Staking.sol\":2274:2295  staker.stakeStartTime */\n      0x03\n      add\n      sload\n        /* \"contracts/Staking.sol\":2256:2271  block.timestamp */\n      timestamp\n        /* \"contracts/Staking.sol\":2256:2295  block.timestamp - staker.stakeStartTime */\n      tag_231\n      swap2\n      swap1\n      tag_232\n      jump\t// in\n    tag_231:\n        /* \"contracts/Staking.sol\":2235:2255  calDaysFromTimestamp */\n      tag_233\n        /* \"contracts/Staking.sol\":2235:2296  calDaysFromTimestamp(block.timestamp - staker.stakeStartTime) */\n      jump\t// in\n    tag_230:\n        /* \"contracts/Staking.sol\":2216:2296  uint256 duration = calDaysFromTimestamp(block.timestamp - staker.stakeStartTime) */\n      swap1\n      pop\n        /* \"contracts/Staking.sol\":2307:2324  uint256 newReward */\n      0x00\n        /* \"contracts/Staking.sol\":2327:2384  staker.stakedAmount.mul(duration).mul(_fixedAPY).div(1e4) */\n      tag_234\n        /* \"contracts/Staking.sol\":2380:2383  1e4 */\n      0x2710\n        /* \"contracts/Staking.sol\":2327:2375  staker.stakedAmount.mul(duration).mul(_fixedAPY) */\n      tag_235\n        /* \"contracts/Staking.sol\":2365:2374  _fixedAPY */\n      sload(0x03)\n        /* \"contracts/Staking.sol\":2327:2360  staker.stakedAmount.mul(duration) */\n      tag_236\n        /* \"contracts/Staking.sol\":2351:2359  duration */\n      dup7\n        /* \"contracts/Staking.sol\":2327:2333  staker */\n      dup9\n        /* \"contracts/Staking.sol\":2327:2346  staker.stakedAmount */\n      0x01\n      add\n      sload\n        /* \"contracts/Staking.sol\":2327:2350  staker.stakedAmount.mul */\n      tag_107\n      swap1\n        /* \"contracts/Staking.sol\":2327:2360  staker.stakedAmount.mul(duration) */\n      swap2\n      swap1\n      0xffffffff\n      and\n      jump\t// in\n    tag_236:\n        /* \"contracts/Staking.sol\":2327:2364  staker.stakedAmount.mul(duration).mul */\n      tag_107\n      swap1\n        /* \"contracts/Staking.sol\":2327:2375  staker.stakedAmount.mul(duration).mul(_fixedAPY) */\n      swap2\n      swap1\n      0xffffffff\n      and\n      jump\t// in\n    tag_235:\n        /* \"contracts/Staking.sol\":2327:2379  staker.stakedAmount.mul(duration).mul(_fixedAPY).div */\n      tag_97\n      swap1\n        /* \"contracts/Staking.sol\":2327:2384  staker.stakedAmount.mul(duration).mul(_fixedAPY).div(1e4) */\n      swap2\n      swap1\n      0xffffffff\n      and\n      jump\t// in\n    tag_234:\n        /* \"contracts/Staking.sol\":2307:2384  uint256 newReward = staker.stakedAmount.mul(duration).mul(_fixedAPY).div(1e4) */\n      swap1\n      pop\n        /* \"contracts/Staking.sol\":2414:2415  1 */\n      0x01\n        /* \"contracts/Staking.sol\":2399:2405  staker */\n      dup4\n        /* \"contracts/Staking.sol\":2399:2410  staker.mode */\n      0x02\n      add\n      sload\n        /* \"contracts/Staking.sol\":2399:2415  staker.mode == 1 */\n      eq\n        /* \"contracts/Staking.sol\":2395:2617  if (staker.mode == 1) {... */\n      iszero\n      tag_237\n      jumpi\n        /* \"contracts/Staking.sol\":2432:2450  uint256 eventCount */\n      0x00\n        /* \"contracts/Staking.sol\":2453:2479  duration.div(_eventPeriod) */\n      tag_238\n        /* \"contracts/Staking.sol\":2466:2478  _eventPeriod */\n      sload(0x02)\n        /* \"contracts/Staking.sol\":2453:2461  duration */\n      dup5\n        /* \"contracts/Staking.sol\":2453:2465  duration.div */\n      tag_97\n      swap1\n        /* \"contracts/Staking.sol\":2453:2479  duration.div(_eventPeriod) */\n      swap2\n      swap1\n      0xffffffff\n      and\n      jump\t// in\n    tag_238:\n        /* \"contracts/Staking.sol\":2432:2479  uint256 eventCount = duration.div(_eventPeriod) */\n      swap1\n      pop\n        /* \"contracts/Staking.sol\":2506:2605  staker.stakedAmount.mul(eventCount).mul(_fixedAPY.mul(calDaysFromTimestamp(_eventPeriod))).div(1e4) */\n      tag_239\n        /* \"contracts/Staking.sol\":2601:2604  1e4 */\n      0x2710\n        /* \"contracts/Staking.sol\":2506:2596  staker.stakedAmount.mul(eventCount).mul(_fixedAPY.mul(calDaysFromTimestamp(_eventPeriod))) */\n      tag_240\n        /* \"contracts/Staking.sol\":2546:2595  _fixedAPY.mul(calDaysFromTimestamp(_eventPeriod)) */\n      tag_241\n        /* \"contracts/Staking.sol\":2560:2594  calDaysFromTimestamp(_eventPeriod) */\n      tag_242\n        /* \"contracts/Staking.sol\":2581:2593  _eventPeriod */\n      sload(0x02)\n        /* \"contracts/Staking.sol\":2560:2580  calDaysFromTimestamp */\n      tag_233\n        /* \"contracts/Staking.sol\":2560:2594  calDaysFromTimestamp(_eventPeriod) */\n      jump\t// in\n    tag_242:\n        /* \"contracts/Staking.sol\":2546:2555  _fixedAPY */\n      sload(0x03)\n        /* \"contracts/Staking.sol\":2546:2559  _fixedAPY.mul */\n      tag_107\n      swap1\n        /* \"contracts/Staking.sol\":2546:2595  _fixedAPY.mul(calDaysFromTimestamp(_eventPeriod)) */\n      swap2\n      swap1\n      0xffffffff\n      and\n      jump\t// in\n    tag_241:\n        /* \"contracts/Staking.sol\":2506:2541  staker.stakedAmount.mul(eventCount) */\n      tag_243\n        /* \"contracts/Staking.sol\":2530:2540  eventCount */\n      dup6\n        /* \"contracts/Staking.sol\":2506:2512  staker */\n      dup10\n        /* \"contracts/Staking.sol\":2506:2525  staker.stakedAmount */\n      0x01\n      add\n      sload\n        /* \"contracts/Staking.sol\":2506:2529  staker.stakedAmount.mul */\n      tag_107\n      swap1\n        /* \"contracts/Staking.sol\":2506:2541  staker.stakedAmount.mul(eventCount) */\n      swap2\n      swap1\n      0xffffffff\n      and\n      jump\t// in\n    tag_243:\n        /* \"contracts/Staking.sol\":2506:2545  staker.stakedAmount.mul(eventCount).mul */\n      tag_107\n      swap1\n        /* \"contracts/Staking.sol\":2506:2596  staker.stakedAmount.mul(eventCount).mul(_fixedAPY.mul(calDaysFromTimestamp(_eventPeriod))) */\n      swap2\n      swap1\n      0xffffffff\n      and\n      jump\t// in\n    tag_240:\n        /* \"contracts/Staking.sol\":2506:2600  staker.stakedAmount.mul(eventCount).mul(_fixedAPY.mul(calDaysFromTimestamp(_eventPeriod))).div */\n      tag_97\n      swap1\n        /* \"contracts/Staking.sol\":2506:2605  staker.stakedAmount.mul(eventCount).mul(_fixedAPY.mul(calDaysFromTimestamp(_eventPeriod))).div(1e4) */\n      swap2\n      swap1\n      0xffffffff\n      and\n      jump\t// in\n    tag_239:\n        /* \"contracts/Staking.sol\":2494:2605  newReward = staker.stakedAmount.mul(eventCount).mul(_fixedAPY.mul(calDaysFromTimestamp(_eventPeriod))).div(1e4) */\n      swap2\n      pop\n        /* \"contracts/Staking.sol\":2417:2617  {... */\n      pop\n        /* \"contracts/Staking.sol\":2395:2617  if (staker.mode == 1) {... */\n    tag_237:\n        /* \"contracts/Staking.sol\":2656:2697  staker.stakerCurrentReward.add(newReward) */\n      tag_244\n        /* \"contracts/Staking.sol\":2687:2696  newReward */\n      dup2\n        /* \"contracts/Staking.sol\":2656:2662  staker */\n      dup5\n        /* \"contracts/Staking.sol\":2656:2682  staker.stakerCurrentReward */\n      0x00\n      add\n      sload\n        /* \"contracts/Staking.sol\":2656:2686  staker.stakerCurrentReward.add */\n      tag_214\n      swap1\n        /* \"contracts/Staking.sol\":2656:2697  staker.stakerCurrentReward.add(newReward) */\n      swap2\n      swap1\n      0xffffffff\n      and\n      jump\t// in\n    tag_244:\n        /* \"contracts/Staking.sol\":2627:2633  staker */\n      dup4\n        /* \"contracts/Staking.sol\":2627:2653  staker.stakerCurrentReward */\n      0x00\n      add\n        /* \"contracts/Staking.sol\":2627:2697  staker.stakerCurrentReward = staker.stakerCurrentReward.add(newReward) */\n      dup2\n      swap1\n      sstore\n      pop\n        /* \"contracts/Staking.sol\":2733:2748  block.timestamp */\n      timestamp\n        /* \"contracts/Staking.sol\":2708:2714  staker */\n      dup4\n        /* \"contracts/Staking.sol\":2708:2730  staker.lastUpdatedTime */\n      0x04\n      add\n        /* \"contracts/Staking.sol\":2708:2748  staker.lastUpdatedTime = block.timestamp */\n      dup2\n      swap1\n      sstore\n      pop\n        /* \"contracts/Staking.sol\":2045:2756  {... */\n      pop\n      pop\n      pop\n        /* \"contracts/Staking.sol\":2014:2756  function updateReward() private{... */\n    tag_228:\n      jump\t// out\n        /* \"@openzeppelin/contracts/utils/math/SafeMath.sol\":3108:3204  function sub(uint256 a, uint256 b) internal pure returns (uint256) {... */\n    tag_96:\n        /* \"@openzeppelin/contracts/utils/math/SafeMath.sol\":3166:3173  uint256 */\n      0x00\n        /* \"@openzeppelin/contracts/utils/math/SafeMath.sol\":3196:3197  b */\n      dup2\n        /* \"@openzeppelin/contracts/utils/math/SafeMath.sol\":3192:3193  a */\n      dup4\n        /* \"@openzeppelin/contracts/utils/math/SafeMath.sol\":3192:3197  a - b */\n      tag_246\n      swap2\n      swap1\n      tag_232\n      jump\t// in\n    tag_246:\n        /* \"@openzeppelin/contracts/utils/math/SafeMath.sol\":3185:3197  return a - b */\n      swap1\n      pop\n        /* \"@openzeppelin/contracts/utils/math/SafeMath.sol\":3108:3204  function sub(uint256 a, uint256 b) internal pure returns (uint256) {... */\n      swap3\n      swap2\n      pop\n      pop\n      jump\t// out\n        /* \"@openzeppelin/contracts/utils/math/SafeMath.sol\":3836:3932  function div(uint256 a, uint256 b) internal pure returns (uint256) {... */\n    tag_97:\n        /* \"@openzeppelin/contracts/utils/math/SafeMath.sol\":3894:3901  uint256 */\n      0x00\n        /* \"@openzeppelin/contracts/utils/math/SafeMath.sol\":3924:3925  b */\n      dup2\n        /* \"@openzeppelin/contracts/utils/math/SafeMath.sol\":3920:3921  a */\n      dup4\n        /* \"@openzeppelin/contracts/utils/math/SafeMath.sol\":3920:3925  a / b */\n      tag_248\n      swap2\n      swap1\n      tag_249\n      jump\t// in\n    tag_248:\n        /* \"@openzeppelin/contracts/utils/math/SafeMath.sol\":3913:3925  return a / b */\n      swap1\n      pop\n        /* \"@openzeppelin/contracts/utils/math/SafeMath.sol\":3836:3932  function div(uint256 a, uint256 b) internal pure returns (uint256) {... */\n      swap3\n      swap2\n      pop\n      pop\n      jump\t// out\n        /* \"@openzeppelin/contracts/utils/math/SafeMath.sol\":3451:3547  function mul(uint256 a, uint256 b) internal pure returns (uint256) {... */\n    tag_107:\n        /* \"@openzeppelin/contracts/utils/math/SafeMath.sol\":3509:3516  uint256 */\n      0x00\n        /* \"@openzeppelin/contracts/utils/math/SafeMath.sol\":3539:3540  b */\n      dup2\n        /* \"@openzeppelin/contracts/utils/math/SafeMath.sol\":3535:3536  a */\n      dup4\n        /* \"@openzeppelin/contracts/utils/math/SafeMath.sol\":3535:3540  a * b */\n      tag_251\n      swap2\n      swap1\n      tag_252\n      jump\t// in\n    tag_251:\n        /* \"@openzeppelin/contracts/utils/math/SafeMath.sol\":3528:3540  return a * b */\n      swap1\n      pop\n        /* \"@openzeppelin/contracts/utils/math/SafeMath.sol\":3451:3547  function mul(uint256 a, uint256 b) internal pure returns (uint256) {... */\n      swap3\n      swap2\n      pop\n      pop\n      jump\t// out\n        /* \"contracts/SafeBEP20.sol\":290:467  function safeTransfer(IBEP20 token, address to, uint256 value) internal {... */\n    tag_111:\n        /* \"contracts/SafeBEP20.sol\":373:459  _callOptionalReturn(token, abi.encodeWithSelector(token.transfer.selector, to, value)) */\n      tag_254\n        /* \"contracts/SafeBEP20.sol\":393:398  token */\n      dup4\n        /* \"contracts/SafeBEP20.sol\":423:446  token.transfer.selector */\n      shl(0xe0, 0xa9059cbb)\n        /* \"contracts/SafeBEP20.sol\":448:450  to */\n      dup5\n        /* \"contracts/SafeBEP20.sol\":452:457  value */\n      dup5\n        /* \"contracts/SafeBEP20.sol\":400:458  abi.encodeWithSelector(token.transfer.selector, to, value) */\n      add(0x24, mload(0x40))\n      tag_255\n      swap3\n      swap2\n      swap1\n      tag_113\n      jump\t// in\n    tag_255:\n      mload(0x40)\n      0x20\n      dup2\n      dup4\n      sub\n      sub\n      dup2\n      mstore\n      swap1\n      0x40\n      mstore\n      swap1\n      not(0xffffffffffffffffffffffffffffffffffffffffffffffffffffffff)\n      and\n      0x20\n      dup3\n      add\n      dup1\n      mload\n      0xffffffffffffffffffffffffffffffffffffffffffffffffffffffff\n      dup4\n      dup2\n      dup4\n      and\n      or\n      dup4\n      mstore\n      pop\n      pop\n      pop\n      pop\n        /* \"contracts/SafeBEP20.sol\":373:392  _callOptionalReturn */\n      tag_256\n        /* \"contracts/SafeBEP20.sol\":373:459  _callOptionalReturn(token, abi.encodeWithSelector(token.transfer.selector, to, value)) */\n      jump\t// in\n    tag_254:\n        /* \"contracts/SafeBEP20.sol\":290:467  function safeTransfer(IBEP20 token, address to, uint256 value) internal {... */\n      pop\n      pop\n      pop\n      jump\t// out\n        /* \"contracts/SafeBEP20.sol\":475:680  function safeTransferFrom(IBEP20 token, address from, address to, uint256 value) internal {... */\n    tag_133:\n        /* \"contracts/SafeBEP20.sol\":576:672  _callOptionalReturn(token, abi.encodeWithSelector(token.transferFrom.selector, from, to, value)) */\n      tag_258\n        /* \"contracts/SafeBEP20.sol\":596:601  token */\n      dup5\n        /* \"contracts/SafeBEP20.sol\":626:653  token.transferFrom.selector */\n      shl(0xe0, 0x23b872dd)\n        /* \"contracts/SafeBEP20.sol\":655:659  from */\n      dup6\n        /* \"contracts/SafeBEP20.sol\":661:663  to */\n      dup6\n        /* \"contracts/SafeBEP20.sol\":665:670  value */\n      dup6\n        /* \"contracts/SafeBEP20.sol\":603:671  abi.encodeWithSelector(token.transferFrom.selector, from, to, value) */\n      add(0x24, mload(0x40))\n      tag_259\n      swap4\n      swap3\n      swap2\n      swap1\n      tag_260\n      jump\t// in\n    tag_259:\n      mload(0x40)\n      0x20\n      dup2\n      dup4\n      sub\n      sub\n      dup2\n      mstore\n      swap1\n      0x40\n      mstore\n      swap1\n      not(0xffffffffffffffffffffffffffffffffffffffffffffffffffffffff)\n      and\n      0x20\n      dup3\n      add\n      dup1\n      mload\n      0xffffffffffffffffffffffffffffffffffffffffffffffffffffffff\n      dup4\n      dup2\n      dup4\n      and\n      or\n      dup4\n      mstore\n      pop\n      pop\n      pop\n      pop\n        /* \"contracts/SafeBEP20.sol\":576:595  _callOptionalReturn */\n      tag_256\n        /* \"contracts/SafeBEP20.sol\":576:672  _callOptionalReturn(token, abi.encodeWithSelector(token.transferFrom.selector, from, to, value)) */\n      jump\t// in\n    tag_258:\n        /* \"contracts/SafeBEP20.sol\":475:680  function safeTransferFrom(IBEP20 token, address from, address to, uint256 value) internal {... */\n      pop\n      pop\n      pop\n      pop\n      jump\t// out\n        /* \"@openzeppelin/contracts/utils/Context.sol\":640:736  function _msgSender() internal view virtual returns (address) {... */\n    tag_151:\n        /* \"@openzeppelin/contracts/utils/Context.sol\":693:700  address */\n      0x00\n        /* \"@openzeppelin/contracts/utils/Context.sol\":719:729  msg.sender */\n      caller\n        /* \"@openzeppelin/contracts/utils/Context.sol\":712:729  return msg.sender */\n      swap1\n      pop\n        /* \"@openzeppelin/contracts/utils/Context.sol\":640:736  function _msgSender() internal view virtual returns (address) {... */\n      swap1\n      jump\t// out\n        /* \"@openzeppelin/contracts/access/Ownable.sol\":2270:2457  function _transferOwnership(address newOwner) internal virtual {... */\n    tag_180:\n        /* \"@openzeppelin/contracts/access/Ownable.sol\":2343:2359  address oldOwner */\n      0x00\n        /* \"@openzeppelin/contracts/access/Ownable.sol\":2362:2368  _owner */\n      dup1\n      0x00\n      swap1\n      sload\n      swap1\n      0x0100\n      exp\n      swap1\n      div\n      0xffffffffffffffffffffffffffffffffffffffff\n      and\n        /* \"@openzeppelin/contracts/access/Ownable.sol\":2343:2368  address oldOwner = _owner */\n      swap1\n      pop\n        /* \"@openzeppelin/contracts/access/Ownable.sol\":2387:2395  newOwner */\n      dup2\n        /* \"@openzeppelin/contracts/access/Ownable.sol\":2378:2384  _owner */\n      0x00\n      dup1\n        /* \"@openzeppelin/contracts/access/Ownable.sol\":2378:2395  _owner = newOwner */\n      0x0100\n      exp\n      dup2\n      sload\n      dup2\n      0xffffffffffffffffffffffffffffffffffffffff\n      mul\n      not\n      and\n      swap1\n      dup4\n      0xffffffffffffffffffffffffffffffffffffffff\n      and\n      mul\n      or\n      swap1\n      sstore\n      pop\n        /* \"@openzeppelin/contracts/access/Ownable.sol\":2441:2449  newOwner */\n      dup2\n        /* \"@openzeppelin/contracts/access/Ownable.sol\":2410:2450  OwnershipTransferred(oldOwner, newOwner) */\n      0xffffffffffffffffffffffffffffffffffffffff\n      and\n        /* \"@openzeppelin/contracts/access/Ownable.sol\":2431:2439  oldOwner */\n      dup2\n        /* \"@openzeppelin/contracts/access/Ownable.sol\":2410:2450  OwnershipTransferred(oldOwner, newOwner) */\n      0xffffffffffffffffffffffffffffffffffffffff\n      and\n      0x8be0079c531659141344cd1fd0a4f28419497f9722a3daafe3b4186f6b6457e0\n      mload(0x40)\n      mload(0x40)\n      dup1\n      swap2\n      sub\n      swap1\n      log3\n        /* \"@openzeppelin/contracts/access/Ownable.sol\":2333:2457  {... */\n      pop\n        /* \"@openzeppelin/contracts/access/Ownable.sol\":2270:2457  function _transferOwnership(address newOwner) internal virtual {... */\n      pop\n      jump\t// out\n        /* \"@openzeppelin/contracts/utils/math/SafeMath.sol\":2741:2837  function add(uint256 a, uint256 b) internal pure returns (uint256) {... */\n    tag_214:\n        /* \"@openzeppelin/contracts/utils/math/SafeMath.sol\":2799:2806  uint256 */\n      0x00\n        /* \"@openzeppelin/contracts/utils/math/SafeMath.sol\":2829:2830  b */\n      dup2\n        /* \"@openzeppelin/contracts/utils/math/SafeMath.sol\":2825:2826  a */\n      dup4\n        /* \"@openzeppelin/contracts/utils/math/SafeMath.sol\":2825:2830  a + b */\n      tag_264\n      swap2\n      swap1\n      tag_265\n      jump\t// in\n    tag_264:\n        /* \"@openzeppelin/contracts/utils/math/SafeMath.sol\":2818:2830  return a + b */\n      swap1\n      pop\n        /* \"@openzeppelin/contracts/utils/math/SafeMath.sol\":2741:2837  function add(uint256 a, uint256 b) internal pure returns (uint256) {... */\n      swap3\n      swap2\n      pop\n      pop\n      jump\t// out\n        /* \"contracts/Staking.sol\":1805:1939  function calDaysFromTimestamp(uint256 timedur) internal pure returns (uint256) {... */\n    tag_233:\n        /* \"contracts/Staking.sol\":1875:1882  uint256 */\n      0x00\n        /* \"contracts/Staking.sol\":1912:1931  timedur.div(1 days) */\n      tag_267\n        /* \"contracts/Staking.sol\":1924:1930  1 days */\n      0x015180\n        /* \"contracts/Staking.sol\":1912:1919  timedur */\n      dup4\n        /* \"contracts/Staking.sol\":1912:1923  timedur.div */\n      tag_97\n      swap1\n        /* \"contracts/Staking.sol\":1912:1931  timedur.div(1 days) */\n      swap2\n      swap1\n      0xffffffff\n      and\n      jump\t// in\n    tag_267:\n        /* \"contracts/Staking.sol\":1905:1931  return timedur.div(1 days) */\n      swap1\n      pop\n        /* \"contracts/Staking.sol\":1805:1939  function calDaysFromTimestamp(uint256 timedur) internal pure returns (uint256) {... */\n      swap2\n      swap1\n      pop\n      jump\t// out\n        /* \"contracts/SafeBEP20.sol\":2599:3368  function _callOptionalReturn(IBEP20 token, bytes memory data) private {... */\n    tag_256:\n        /* \"contracts/SafeBEP20.sol\":3031:3054  bytes memory returndata */\n      0x00\n        /* \"contracts/SafeBEP20.sol\":3057:3126  address(token).functionCall(data, \"SafeBEP20: low-level call failed\") */\n      tag_269\n        /* \"contracts/SafeBEP20.sol\":3085:3089  data */\n      dup3\n        /* \"contracts/SafeBEP20.sol\":3057:3126  address(token).functionCall(data, \"SafeBEP20: low-level call failed\") */\n      mload(0x40)\n      dup1\n      0x40\n      add\n      0x40\n      mstore\n      dup1\n      0x20\n      dup2\n      mstore\n      0x20\n      add\n      0x5361666542455032303a206c6f772d6c6576656c2063616c6c206661696c6564\n      dup2\n      mstore\n      pop\n        /* \"contracts/SafeBEP20.sol\":3065:3070  token */\n      dup6\n        /* \"contracts/SafeBEP20.sol\":3057:3084  address(token).functionCall */\n      0xffffffffffffffffffffffffffffffffffffffff\n      and\n      tag_270\n      swap1\n        /* \"contracts/SafeBEP20.sol\":3057:3126  address(token).functionCall(data, \"SafeBEP20: low-level call failed\") */\n      swap3\n      swap2\n      swap1\n      0xffffffff\n      and\n      jump\t// in\n    tag_269:\n        /* \"contracts/SafeBEP20.sol\":3031:3126  bytes memory returndata = address(token).functionCall(data, \"SafeBEP20: low-level call failed\") */\n      swap1\n      pop\n        /* \"contracts/SafeBEP20.sol\":3161:3162  0 */\n      0x00\n        /* \"contracts/SafeBEP20.sol\":3141:3151  returndata */\n      dup2\n        /* \"contracts/SafeBEP20.sol\":3141:3158  returndata.length */\n      mload\n        /* \"contracts/SafeBEP20.sol\":3141:3162  returndata.length > 0 */\n      gt\n        /* \"contracts/SafeBEP20.sol\":3137:3361  if (returndata.length > 0) { // Return data is optional... */\n      iszero\n      tag_271\n      jumpi\n        /* \"contracts/SafeBEP20.sol\":3283:3293  returndata */\n      dup1\n        /* \"contracts/SafeBEP20.sol\":3272:3302  abi.decode(returndata, (bool)) */\n      dup1\n      0x20\n      add\n      swap1\n      mload\n      dup2\n      add\n      swap1\n      tag_272\n      swap2\n      swap1\n      tag_273\n      jump\t// in\n    tag_272:\n        /* \"contracts/SafeBEP20.sol\":3264:3349  require(abi.decode(returndata, (bool)), \"SafeBEP20: BEP20 operation did not succeed\") */\n      tag_274\n      jumpi\n      mload(0x40)\n      0x08c379a000000000000000000000000000000000000000000000000000000000\n      dup2\n      mstore\n      0x04\n      add\n      tag_275\n      swap1\n      tag_276\n      jump\t// in\n    tag_275:\n      mload(0x40)\n      dup1\n      swap2\n      sub\n      swap1\n      revert\n    tag_274:\n        /* \"contracts/SafeBEP20.sol\":3137:3361  if (returndata.length > 0) { // Return data is optional... */\n    tag_271:\n        /* \"contracts/SafeBEP20.sol\":2669:3368  {... */\n      pop\n        /* \"contracts/SafeBEP20.sol\":2599:3368  function _callOptionalReturn(IBEP20 token, bytes memory data) private {... */\n      pop\n      pop\n      jump\t// out\n        /* \"@openzeppelin/contracts/utils/Address.sol\":3861:4084  function functionCall(... */\n    tag_270:\n        /* \"@openzeppelin/contracts/utils/Address.sol\":3994:4006  bytes memory */\n      0x60\n        /* \"@openzeppelin/contracts/utils/Address.sol\":4025:4077  functionCallWithValue(target, data, 0, errorMessage) */\n      tag_278\n        /* \"@openzeppelin/contracts/utils/Address.sol\":4047:4053  target */\n      dup5\n        /* \"@openzeppelin/contracts/utils/Address.sol\":4055:4059  data */\n      dup5\n        /* \"@openzeppelin/contracts/utils/Address.sol\":4061:4062  0 */\n      0x00\n        /* \"@openzeppelin/contracts/utils/Address.sol\":4064:4076  errorMessage */\n      dup6\n        /* \"@openzeppelin/contracts/utils/Address.sol\":4025:4046  functionCallWithValue */\n      tag_279\n        /* \"@openzeppelin/contracts/utils/Address.sol\":4025:4077  functionCallWithValue(target, data, 0, errorMessage) */\n      jump\t// in\n    tag_278:\n        /* \"@openzeppelin/contracts/utils/Address.sol\":4018:4077  return functionCallWithValue(target, data, 0, errorMessage) */\n      swap1\n      pop\n        /* \"@openzeppelin/contracts/utils/Address.sol\":3861:4084  function functionCall(... */\n      swap4\n      swap3\n      pop\n      pop\n      pop\n      jump\t// out\n        /* \"@openzeppelin/contracts/utils/Address.sol\":4948:5447  function functionCallWithValue(... */\n    tag_279:\n        /* \"@openzeppelin/contracts/utils/Address.sol\":5113:5125  bytes memory */\n      0x60\n        /* \"@openzeppelin/contracts/utils/Address.sol\":5170:5175  value */\n      dup3\n        /* \"@openzeppelin/contracts/utils/Address.sol\":5145:5166  address(this).balance */\n      selfbalance\n        /* \"@openzeppelin/contracts/utils/Address.sol\":5145:5175  address(this).balance >= value */\n      lt\n      iszero\n        /* \"@openzeppelin/contracts/utils/Address.sol\":5137:5218  require(address(this).balance >= value, \"Address: insufficient balance for call\") */\n      tag_281\n      jumpi\n      mload(0x40)\n      0x08c379a000000000000000000000000000000000000000000000000000000000\n      dup2\n      mstore\n      0x04\n      add\n      tag_282\n      swap1\n      tag_283\n      jump\t// in\n    tag_282:\n      mload(0x40)\n      dup1\n      swap2\n      sub\n      swap1\n      revert\n    tag_281:\n        /* \"@openzeppelin/contracts/utils/Address.sol\":5236:5254  isContract(target) */\n      tag_284\n        /* \"@openzeppelin/contracts/utils/Address.sol\":5247:5253  target */\n      dup6\n        /* \"@openzeppelin/contracts/utils/Address.sol\":5236:5246  isContract */\n      tag_285\n        /* \"@openzeppelin/contracts/utils/Address.sol\":5236:5254  isContract(target) */\n      jump\t// in\n    tag_284:\n        /* \"@openzeppelin/contracts/utils/Address.sol\":5228:5288  require(isContract(target), \"Address: call to non-contract\") */\n      tag_286\n      jumpi\n      mload(0x40)\n      0x08c379a000000000000000000000000000000000000000000000000000000000\n      dup2\n      mstore\n      0x04\n      add\n      tag_287\n      swap1\n      tag_288\n      jump\t// in\n    tag_287:\n      mload(0x40)\n      dup1\n      swap2\n      sub\n      swap1\n      revert\n    tag_286:\n        /* \"@openzeppelin/contracts/utils/Address.sol\":5300:5312  bool success */\n      0x00\n        /* \"@openzeppelin/contracts/utils/Address.sol\":5314:5337  bytes memory returndata */\n      dup1\n        /* \"@openzeppelin/contracts/utils/Address.sol\":5341:5347  target */\n      dup7\n        /* \"@openzeppelin/contracts/utils/Address.sol\":5341:5352  target.call */\n      0xffffffffffffffffffffffffffffffffffffffff\n      and\n        /* \"@openzeppelin/contracts/utils/Address.sol\":5360:5365  value */\n      dup6\n        /* \"@openzeppelin/contracts/utils/Address.sol\":5367:5371  data */\n      dup8\n        /* \"@openzeppelin/contracts/utils/Address.sol\":5341:5372  target.call{value: value}(data) */\n      mload(0x40)\n      tag_289\n      swap2\n      swap1\n      tag_290\n      jump\t// in\n    tag_289:\n      0x00\n      mload(0x40)\n      dup1\n      dup4\n      sub\n      dup2\n      dup6\n      dup8\n      gas\n      call\n      swap3\n      pop\n      pop\n      pop\n      returndatasize\n      dup1\n      0x00\n      dup2\n      eq\n      tag_293\n      jumpi\n      mload(0x40)\n      swap2\n      pop\n      and(add(returndatasize, 0x3f), not(0x1f))\n      dup3\n      add\n      0x40\n      mstore\n      returndatasize\n      dup3\n      mstore\n      returndatasize\n      0x00\n      0x20\n      dup5\n      add\n      returndatacopy\n      jump(tag_292)\n    tag_293:\n      0x60\n      swap2\n      pop\n    tag_292:\n      pop\n        /* \"@openzeppelin/contracts/utils/Address.sol\":5299:5372  (bool success, bytes memory returndata) = target.call{value: value}(data) */\n      swap2\n      pop\n      swap2\n      pop\n        /* \"@openzeppelin/contracts/utils/Address.sol\":5389:5440  verifyCallResult(success, returndata, errorMessage) */\n      tag_294\n        /* \"@openzeppelin/contracts/utils/Address.sol\":5406:5413  success */\n      dup3\n        /* \"@openzeppelin/contracts/utils/Address.sol\":5415:5425  returndata */\n      dup3\n        /* \"@openzeppelin/contracts/utils/Address.sol\":5427:5439  errorMessage */\n      dup7\n        /* \"@openzeppelin/contracts/utils/Address.sol\":5389:5405  verifyCallResult */\n      tag_295\n        /* \"@openzeppelin/contracts/utils/Address.sol\":5389:5440  verifyCallResult(success, returndata, errorMessage) */\n      jump\t// in\n    tag_294:\n        /* \"@openzeppelin/contracts/utils/Address.sol\":5382:5440  return verifyCallResult(success, returndata, errorMessage) */\n      swap3\n      pop\n      pop\n      pop\n        /* \"@openzeppelin/contracts/utils/Address.sol\":4948:5447  function functionCallWithValue(... */\n      swap5\n      swap4\n      pop\n      pop\n      pop\n      pop\n      jump\t// out\n        /* \"@openzeppelin/contracts/utils/Address.sol\":1175:1495  function isContract(address account) internal view returns (bool) {... */\n    tag_285:\n        /* \"@openzeppelin/contracts/utils/Address.sol\":1235:1239  bool */\n      0x00\n        /* \"@openzeppelin/contracts/utils/Address.sol\":1487:1488  0 */\n      dup1\n        /* \"@openzeppelin/contracts/utils/Address.sol\":1465:1472  account */\n      dup3\n        /* \"@openzeppelin/contracts/utils/Address.sol\":1465:1484  account.code.length */\n      0xffffffffffffffffffffffffffffffffffffffff\n      and\n      extcodesize\n        /* \"@openzeppelin/contracts/utils/Address.sol\":1465:1488  account.code.length > 0 */\n      gt\n        /* \"@openzeppelin/contracts/utils/Address.sol\":1458:1488  return account.code.length > 0 */\n      swap1\n      pop\n        /* \"@openzeppelin/contracts/utils/Address.sol\":1175:1495  function isContract(address account) internal view returns (bool) {... */\n      swap2\n      swap1\n      pop\n      jump\t// out\n        /* \"@openzeppelin/contracts/utils/Address.sol\":7561:8253  function verifyCallResult(... */\n    tag_295:\n        /* \"@openzeppelin/contracts/utils/Address.sol\":7707:7719  bytes memory */\n      0x60\n        /* \"@openzeppelin/contracts/utils/Address.sol\":7735:7742  success */\n      dup4\n        /* \"@openzeppelin/contracts/utils/Address.sol\":7731:8247  if (success) {... */\n      iszero\n      tag_298\n      jumpi\n        /* \"@openzeppelin/contracts/utils/Address.sol\":7765:7775  returndata */\n      dup3\n        /* \"@openzeppelin/contracts/utils/Address.sol\":7758:7775  return returndata */\n      swap1\n      pop\n      jump(tag_297)\n        /* \"@openzeppelin/contracts/utils/Address.sol\":7731:8247  if (success) {... */\n    tag_298:\n        /* \"@openzeppelin/contracts/utils/Address.sol\":7896:7897  0 */\n      0x00\n        /* \"@openzeppelin/contracts/utils/Address.sol\":7876:7886  returndata */\n      dup4\n        /* \"@openzeppelin/contracts/utils/Address.sol\":7876:7893  returndata.length */\n      mload\n        /* \"@openzeppelin/contracts/utils/Address.sol\":7876:7897  returndata.length > 0 */\n      gt\n        /* \"@openzeppelin/contracts/utils/Address.sol\":7872:8237  if (returndata.length > 0) {... */\n      iszero\n      tag_300\n      jumpi\n        /* \"@openzeppelin/contracts/utils/Address.sol\":8070:8080  returndata */\n      dup3\n        /* \"@openzeppelin/contracts/utils/Address.sol\":8064:8081  mload(returndata) */\n      mload\n        /* \"@openzeppelin/contracts/utils/Address.sol\":8130:8145  returndata_size */\n      dup1\n        /* \"@openzeppelin/contracts/utils/Address.sol\":8117:8127  returndata */\n      dup5\n        /* \"@openzeppelin/contracts/utils/Address.sol\":8113:8115  32 */\n      0x20\n        /* \"@openzeppelin/contracts/utils/Address.sol\":8109:8128  add(32, returndata) */\n      add\n        /* \"@openzeppelin/contracts/utils/Address.sol\":8102:8146  revert(add(32, returndata), returndata_size) */\n      revert\n        /* \"@openzeppelin/contracts/utils/Address.sol\":7872:8237  if (returndata.length > 0) {... */\n    tag_300:\n        /* \"@openzeppelin/contracts/utils/Address.sol\":8209:8221  errorMessage */\n      dup2\n        /* \"@openzeppelin/contracts/utils/Address.sol\":8202:8222  revert(errorMessage) */\n      mload(0x40)\n      0x08c379a000000000000000000000000000000000000000000000000000000000\n      dup2\n      mstore\n      0x04\n      add\n      tag_302\n      swap2\n      swap1\n      tag_303\n      jump\t// in\n    tag_302:\n      mload(0x40)\n      dup1\n      swap2\n      sub\n      swap1\n      revert\n        /* \"@openzeppelin/contracts/utils/Address.sol\":7561:8253  function verifyCallResult(... */\n    tag_297:\n      swap4\n      swap3\n      pop\n      pop\n      pop\n      jump\t// out\n        /* \"#utility.yul\":88:205   */\n    tag_305:\n        /* \"#utility.yul\":197:198   */\n      0x00\n        /* \"#utility.yul\":194:195   */\n      dup1\n        /* \"#utility.yul\":187:199   */\n      revert\n        /* \"#utility.yul\":334:411   */\n    tag_307:\n        /* \"#utility.yul\":371:378   */\n      0x00\n        /* \"#utility.yul\":400:405   */\n      dup2\n        /* \"#utility.yul\":389:405   */\n      swap1\n      pop\n        /* \"#utility.yul\":334:411   */\n      swap2\n      swap1\n      pop\n      jump\t// out\n        /* \"#utility.yul\":417:539   */\n    tag_308:\n        /* \"#utility.yul\":490:514   */\n      tag_369\n        /* \"#utility.yul\":508:513   */\n      dup2\n        /* \"#utility.yul\":490:514   */\n      tag_307\n      jump\t// in\n    tag_369:\n        /* \"#utility.yul\":483:488   */\n      dup2\n        /* \"#utility.yul\":480:515   */\n      eq\n        /* \"#utility.yul\":470:533   */\n      tag_370\n      jumpi\n        /* \"#utility.yul\":529:530   */\n      0x00\n        /* \"#utility.yul\":526:527   */\n      dup1\n        /* \"#utility.yul\":519:531   */\n      revert\n        /* \"#utility.yul\":470:533   */\n    tag_370:\n        /* \"#utility.yul\":417:539   */\n      pop\n      jump\t// out\n        /* \"#utility.yul\":545:684   */\n    tag_309:\n        /* \"#utility.yul\":591:596   */\n      0x00\n        /* \"#utility.yul\":629:635   */\n      dup2\n        /* \"#utility.yul\":616:636   */\n      calldataload\n        /* \"#utility.yul\":607:636   */\n      swap1\n      pop\n        /* \"#utility.yul\":645:678   */\n      tag_372\n        /* \"#utility.yul\":672:677   */\n      dup2\n        /* \"#utility.yul\":645:678   */\n      tag_308\n      jump\t// in\n    tag_372:\n        /* \"#utility.yul\":545:684   */\n      swap3\n      swap2\n      pop\n      pop\n      jump\t// out\n        /* \"#utility.yul\":690:1019   */\n    tag_24:\n        /* \"#utility.yul\":749:755   */\n      0x00\n        /* \"#utility.yul\":798:800   */\n      0x20\n        /* \"#utility.yul\":786:795   */\n      dup3\n        /* \"#utility.yul\":777:784   */\n      dup5\n        /* \"#utility.yul\":773:796   */\n      sub\n        /* \"#utility.yul\":769:801   */\n      slt\n        /* \"#utility.yul\":766:885   */\n      iszero\n      tag_374\n      jumpi\n        /* \"#utility.yul\":804:883   */\n      tag_375\n      tag_305\n      jump\t// in\n    tag_375:\n        /* \"#utility.yul\":766:885   */\n    tag_374:\n        /* \"#utility.yul\":924:925   */\n      0x00\n        /* \"#utility.yul\":949:1002   */\n      tag_376\n        /* \"#utility.yul\":994:1001   */\n      dup5\n        /* \"#utility.yul\":985:991   */\n      dup3\n        /* \"#utility.yul\":974:983   */\n      dup6\n        /* \"#utility.yul\":970:992   */\n      add\n        /* \"#utility.yul\":949:1002   */\n      tag_309\n      jump\t// in\n    tag_376:\n        /* \"#utility.yul\":939:1002   */\n      swap2\n      pop\n        /* \"#utility.yul\":895:1012   */\n      pop\n        /* \"#utility.yul\":690:1019   */\n      swap3\n      swap2\n      pop\n      pop\n      jump\t// out\n        /* \"#utility.yul\":1025:1143   */\n    tag_310:\n        /* \"#utility.yul\":1112:1136   */\n      tag_378\n        /* \"#utility.yul\":1130:1135   */\n      dup2\n        /* \"#utility.yul\":1112:1136   */\n      tag_307\n      jump\t// in\n    tag_378:\n        /* \"#utility.yul\":1107:1110   */\n      dup3\n        /* \"#utility.yul\":1100:1137   */\n      mstore\n        /* \"#utility.yul\":1025:1143   */\n      pop\n      pop\n      jump\t// out\n        /* \"#utility.yul\":1149:1371   */\n    tag_29:\n        /* \"#utility.yul\":1242:1246   */\n      0x00\n        /* \"#utility.yul\":1280:1282   */\n      0x20\n        /* \"#utility.yul\":1269:1278   */\n      dup3\n        /* \"#utility.yul\":1265:1283   */\n      add\n        /* \"#utility.yul\":1257:1283   */\n      swap1\n      pop\n        /* \"#utility.yul\":1293:1364   */\n      tag_380\n        /* \"#utility.yul\":1361:1362   */\n      0x00\n        /* \"#utility.yul\":1350:1359   */\n      dup4\n        /* \"#utility.yul\":1346:1363   */\n      add\n        /* \"#utility.yul\":1337:1343   */\n      dup5\n        /* \"#utility.yul\":1293:1364   */\n      tag_310\n      jump\t// in\n    tag_380:\n        /* \"#utility.yul\":1149:1371   */\n      swap3\n      swap2\n      pop\n      pop\n      jump\t// out\n        /* \"#utility.yul\":1377:1851   */\n    tag_34:\n        /* \"#utility.yul\":1445:1451   */\n      0x00\n        /* \"#utility.yul\":1453:1459   */\n      dup1\n        /* \"#utility.yul\":1502:1504   */\n      0x40\n        /* \"#utility.yul\":1490:1499   */\n      dup4\n        /* \"#utility.yul\":1481:1488   */\n      dup6\n        /* \"#utility.yul\":1477:1500   */\n      sub\n        /* \"#utility.yul\":1473:1505   */\n      slt\n        /* \"#utility.yul\":1470:1589   */\n      iszero\n      tag_382\n      jumpi\n        /* \"#utility.yul\":1508:1587   */\n      tag_383\n      tag_305\n      jump\t// in\n    tag_383:\n        /* \"#utility.yul\":1470:1589   */\n    tag_382:\n        /* \"#utility.yul\":1628:1629   */\n      0x00\n        /* \"#utility.yul\":1653:1706   */\n      tag_384\n        /* \"#utility.yul\":1698:1705   */\n      dup6\n        /* \"#utility.yul\":1689:1695   */\n      dup3\n        /* \"#utility.yul\":1678:1687   */\n      dup7\n        /* \"#utility.yul\":1674:1696   */\n      add\n        /* \"#utility.yul\":1653:1706   */\n      tag_309\n      jump\t// in\n    tag_384:\n        /* \"#utility.yul\":1643:1706   */\n      swap3\n      pop\n        /* \"#utility.yul\":1599:1716   */\n      pop\n        /* \"#utility.yul\":1755:1757   */\n      0x20\n        /* \"#utility.yul\":1781:1834   */\n      tag_385\n        /* \"#utility.yul\":1826:1833   */\n      dup6\n        /* \"#utility.yul\":1817:1823   */\n      dup3\n        /* \"#utility.yul\":1806:1815   */\n      dup7\n        /* \"#utility.yul\":1802:1824   */\n      add\n        /* \"#utility.yul\":1781:1834   */\n      tag_309\n      jump\t// in\n    tag_385:\n        /* \"#utility.yul\":1771:1834   */\n      swap2\n      pop\n        /* \"#utility.yul\":1726:1844   */\n      pop\n        /* \"#utility.yul\":1377:1851   */\n      swap3\n      pop\n      swap3\n      swap1\n      pop\n      jump\t// out\n        /* \"#utility.yul\":1857:1983   */\n    tag_311:\n        /* \"#utility.yul\":1894:1901   */\n      0x00\n        /* \"#utility.yul\":1934:1976   */\n      0xffffffffffffffffffffffffffffffffffffffff\n        /* \"#utility.yul\":1927:1932   */\n      dup3\n        /* \"#utility.yul\":1923:1977   */\n      and\n        /* \"#utility.yul\":1912:1977   */\n      swap1\n      pop\n        /* \"#utility.yul\":1857:1983   */\n      swap2\n      swap1\n      pop\n      jump\t// out\n        /* \"#utility.yul\":1989:2085   */\n    tag_312:\n        /* \"#utility.yul\":2026:2033   */\n      0x00\n        /* \"#utility.yul\":2055:2079   */\n      tag_388\n        /* \"#utility.yul\":2073:2078   */\n      dup3\n        /* \"#utility.yul\":2055:2079   */\n      tag_311\n      jump\t// in\n    tag_388:\n        /* \"#utility.yul\":2044:2079   */\n      swap1\n      pop\n        /* \"#utility.yul\":1989:2085   */\n      swap2\n      swap1\n      pop\n      jump\t// out\n        /* \"#utility.yul\":2091:2213   */\n    tag_313:\n        /* \"#utility.yul\":2164:2188   */\n      tag_390\n        /* \"#utility.yul\":2182:2187   */\n      dup2\n        /* \"#utility.yul\":2164:2188   */\n      tag_312\n      jump\t// in\n    tag_390:\n        /* \"#utility.yul\":2157:2162   */\n      dup2\n        /* \"#utility.yul\":2154:2189   */\n      eq\n        /* \"#utility.yul\":2144:2207   */\n      tag_391\n      jumpi\n        /* \"#utility.yul\":2203:2204   */\n      0x00\n        /* \"#utility.yul\":2200:2201   */\n      dup1\n        /* \"#utility.yul\":2193:2205   */\n      revert\n        /* \"#utility.yul\":2144:2207   */\n    tag_391:\n        /* \"#utility.yul\":2091:2213   */\n      pop\n      jump\t// out\n        /* \"#utility.yul\":2219:2358   */\n    tag_314:\n        /* \"#utility.yul\":2265:2270   */\n      0x00\n        /* \"#utility.yul\":2303:2309   */\n      dup2\n        /* \"#utility.yul\":2290:2310   */\n      calldataload\n        /* \"#utility.yul\":2281:2310   */\n      swap1\n      pop\n        /* \"#utility.yul\":2319:2352   */\n      tag_393\n        /* \"#utility.yul\":2346:2351   */\n      dup2\n        /* \"#utility.yul\":2319:2352   */\n      tag_313\n      jump\t// in\n    tag_393:\n        /* \"#utility.yul\":2219:2358   */\n      swap3\n      swap2\n      pop\n      pop\n      jump\t// out\n        /* \"#utility.yul\":2364:2693   */\n    tag_52:\n        /* \"#utility.yul\":2423:2429   */\n      0x00\n        /* \"#utility.yul\":2472:2474   */\n      0x20\n        /* \"#utility.yul\":2460:2469   */\n      dup3\n        /* \"#utility.yul\":2451:2458   */\n      dup5\n        /* \"#utility.yul\":2447:2470   */\n      sub\n        /* \"#utility.yul\":2443:2475   */\n      slt\n        /* \"#utility.yul\":2440:2559   */\n      iszero\n      tag_395\n      jumpi\n        /* \"#utility.yul\":2478:2557   */\n      tag_396\n      tag_305\n      jump\t// in\n    tag_396:\n        /* \"#utility.yul\":2440:2559   */\n    tag_395:\n        /* \"#utility.yul\":2598:2599   */\n      0x00\n        /* \"#utility.yul\":2623:2676   */\n      tag_397\n        /* \"#utility.yul\":2668:2675   */\n      dup5\n        /* \"#utility.yul\":2659:2665   */\n      dup3\n        /* \"#utility.yul\":2648:2657   */\n      dup6\n        /* \"#utility.yul\":2644:2666   */\n      add\n        /* \"#utility.yul\":2623:2676   */\n      tag_314\n      jump\t// in\n    tag_397:\n        /* \"#utility.yul\":2613:2676   */\n      swap2\n      pop\n        /* \"#utility.yul\":2569:2686   */\n      pop\n        /* \"#utility.yul\":2364:2693   */\n      swap3\n      swap2\n      pop\n      pop\n      jump\t// out\n        /* \"#utility.yul\":2699:2817   */\n    tag_315:\n        /* \"#utility.yul\":2786:2810   */\n      tag_399\n        /* \"#utility.yul\":2804:2809   */\n      dup2\n        /* \"#utility.yul\":2786:2810   */\n      tag_312\n      jump\t// in\n    tag_399:\n        /* \"#utility.yul\":2781:2784   */\n      dup3\n        /* \"#utility.yul\":2774:2811   */\n      mstore\n        /* \"#utility.yul\":2699:2817   */\n      pop\n      pop\n      jump\t// out\n        /* \"#utility.yul\":2823:3045   */\n    tag_57:\n        /* \"#utility.yul\":2916:2920   */\n      0x00\n        /* \"#utility.yul\":2954:2956   */\n      0x20\n        /* \"#utility.yul\":2943:2952   */\n      dup3\n        /* \"#utility.yul\":2939:2957   */\n      add\n        /* \"#utility.yul\":2931:2957   */\n      swap1\n      pop\n        /* \"#utility.yul\":2967:3038   */\n      tag_401\n        /* \"#utility.yul\":3035:3036   */\n      0x00\n        /* \"#utility.yul\":3024:3033   */\n      dup4\n        /* \"#utility.yul\":3020:3037   */\n      add\n        /* \"#utility.yul\":3011:3017   */\n      dup5\n        /* \"#utility.yul\":2967:3038   */\n      tag_315\n      jump\t// in\n    tag_401:\n        /* \"#utility.yul\":2823:3045   */\n      swap3\n      swap2\n      pop\n      pop\n      jump\t// out\n        /* \"#utility.yul\":3051:3111   */\n    tag_316:\n        /* \"#utility.yul\":3079:3082   */\n      0x00\n        /* \"#utility.yul\":3100:3105   */\n      dup2\n        /* \"#utility.yul\":3093:3105   */\n      swap1\n      pop\n        /* \"#utility.yul\":3051:3111   */\n      swap2\n      swap1\n      pop\n      jump\t// out\n        /* \"#utility.yul\":3117:3259   */\n    tag_317:\n        /* \"#utility.yul\":3167:3176   */\n      0x00\n        /* \"#utility.yul\":3200:3253   */\n      tag_404\n        /* \"#utility.yul\":3218:3252   */\n      tag_405\n        /* \"#utility.yul\":3227:3251   */\n      tag_406\n        /* \"#utility.yul\":3245:3250   */\n      dup5\n        /* \"#utility.yul\":3227:3251   */\n      tag_311\n      jump\t// in\n    tag_406:\n        /* \"#utility.yul\":3218:3252   */\n      tag_316\n      jump\t// in\n    tag_405:\n        /* \"#utility.yul\":3200:3253   */\n      tag_311\n      jump\t// in\n    tag_404:\n        /* \"#utility.yul\":3187:3253   */\n      swap1\n      pop\n        /* \"#utility.yul\":3117:3259   */\n      swap2\n      swap1\n      pop\n      jump\t// out\n        /* \"#utility.yul\":3265:3391   */\n    tag_318:\n        /* \"#utility.yul\":3315:3324   */\n      0x00\n        /* \"#utility.yul\":3348:3385   */\n      tag_408\n        /* \"#utility.yul\":3379:3384   */\n      dup3\n        /* \"#utility.yul\":3348:3385   */\n      tag_317\n      jump\t// in\n    tag_408:\n        /* \"#utility.yul\":3335:3385   */\n      swap1\n      pop\n        /* \"#utility.yul\":3265:3391   */\n      swap2\n      swap1\n      pop\n      jump\t// out\n        /* \"#utility.yul\":3397:3537   */\n    tag_319:\n        /* \"#utility.yul\":3461:3470   */\n      0x00\n        /* \"#utility.yul\":3494:3531   */\n      tag_410\n        /* \"#utility.yul\":3525:3530   */\n      dup3\n        /* \"#utility.yul\":3494:3531   */\n      tag_318\n      jump\t// in\n    tag_410:\n        /* \"#utility.yul\":3481:3531   */\n      swap1\n      pop\n        /* \"#utility.yul\":3397:3537   */\n      swap2\n      swap1\n      pop\n      jump\t// out\n        /* \"#utility.yul\":3543:3702   */\n    tag_320:\n        /* \"#utility.yul\":3644:3695   */\n      tag_412\n        /* \"#utility.yul\":3689:3694   */\n      dup2\n        /* \"#utility.yul\":3644:3695   */\n      tag_319\n      jump\t// in\n    tag_412:\n        /* \"#utility.yul\":3639:3642   */\n      dup3\n        /* \"#utility.yul\":3632:3696   */\n      mstore\n        /* \"#utility.yul\":3543:3702   */\n      pop\n      pop\n      jump\t// out\n        /* \"#utility.yul\":3708:3958   */\n    tag_73:\n        /* \"#utility.yul\":3815:3819   */\n      0x00\n        /* \"#utility.yul\":3853:3855   */\n      0x20\n        /* \"#utility.yul\":3842:3851   */\n      dup3\n        /* \"#utility.yul\":3838:3856   */\n      add\n        /* \"#utility.yul\":3830:3856   */\n      swap1\n      pop\n        /* \"#utility.yul\":3866:3951   */\n      tag_414\n        /* \"#utility.yul\":3948:3949   */\n      0x00\n        /* \"#utility.yul\":3937:3946   */\n      dup4\n        /* \"#utility.yul\":3933:3950   */\n      add\n        /* \"#utility.yul\":3924:3930   */\n      dup5\n        /* \"#utility.yul\":3866:3951   */\n      tag_320\n      jump\t// in\n    tag_414:\n        /* \"#utility.yul\":3708:3958   */\n      swap3\n      swap2\n      pop\n      pop\n      jump\t// out\n        /* \"#utility.yul\":3964:4133   */\n    tag_321:\n        /* \"#utility.yul\":4048:4059   */\n      0x00\n        /* \"#utility.yul\":4082:4088   */\n      dup3\n        /* \"#utility.yul\":4077:4080   */\n      dup3\n        /* \"#utility.yul\":4070:4089   */\n      mstore\n        /* \"#utility.yul\":4122:4126   */\n      0x20\n        /* \"#utility.yul\":4117:4120   */\n      dup3\n        /* \"#utility.yul\":4113:4127   */\n      add\n        /* \"#utility.yul\":4098:4127   */\n      swap1\n      pop\n        /* \"#utility.yul\":3964:4133   */\n      swap3\n      swap2\n      pop\n      pop\n      jump\t// out\n        /* \"#utility.yul\":4139:4320   */\n    tag_322:\n        /* \"#utility.yul\":4279:4312   */\n      0x416d6f756e742073686f756c642062652067726561746572207468616e203000\n        /* \"#utility.yul\":4275:4276   */\n      0x00\n        /* \"#utility.yul\":4267:4273   */\n      dup3\n        /* \"#utility.yul\":4263:4277   */\n      add\n        /* \"#utility.yul\":4256:4313   */\n      mstore\n        /* \"#utility.yul\":4139:4320   */\n      pop\n      jump\t// out\n        /* \"#utility.yul\":4326:4692   */\n    tag_323:\n        /* \"#utility.yul\":4468:4471   */\n      0x00\n        /* \"#utility.yul\":4489:4556   */\n      tag_418\n        /* \"#utility.yul\":4553:4555   */\n      0x1f\n        /* \"#utility.yul\":4548:4551   */\n      dup4\n        /* \"#utility.yul\":4489:4556   */\n      tag_321\n      jump\t// in\n    tag_418:\n        /* \"#utility.yul\":4482:4556   */\n      swap2\n      pop\n        /* \"#utility.yul\":4565:4658   */\n      tag_419\n        /* \"#utility.yul\":4654:4657   */\n      dup3\n        /* \"#utility.yul\":4565:4658   */\n      tag_322\n      jump\t// in\n    tag_419:\n        /* \"#utility.yul\":4683:4685   */\n      0x20\n        /* \"#utility.yul\":4678:4681   */\n      dup3\n        /* \"#utility.yul\":4674:4686   */\n      add\n        /* \"#utility.yul\":4667:4686   */\n      swap1\n      pop\n        /* \"#utility.yul\":4326:4692   */\n      swap2\n      swap1\n      pop\n      jump\t// out\n        /* \"#utility.yul\":4698:5117   */\n    tag_77:\n        /* \"#utility.yul\":4864:4868   */\n      0x00\n        /* \"#utility.yul\":4902:4904   */\n      0x20\n        /* \"#utility.yul\":4891:4900   */\n      dup3\n        /* \"#utility.yul\":4887:4905   */\n      add\n        /* \"#utility.yul\":4879:4905   */\n      swap1\n      pop\n        /* \"#utility.yul\":4951:4960   */\n      dup2\n        /* \"#utility.yul\":4945:4949   */\n      dup2\n        /* \"#utility.yul\":4941:4961   */\n      sub\n        /* \"#utility.yul\":4937:4938   */\n      0x00\n        /* \"#utility.yul\":4926:4935   */\n      dup4\n        /* \"#utility.yul\":4922:4939   */\n      add\n        /* \"#utility.yul\":4915:4962   */\n      mstore\n        /* \"#utility.yul\":4979:5110   */\n      tag_421\n        /* \"#utility.yul\":5105:5109   */\n      dup2\n        /* \"#utility.yul\":4979:5110   */\n      tag_323\n      jump\t// in\n    tag_421:\n        /* \"#utility.yul\":4971:5110   */\n      swap1\n      pop\n        /* \"#utility.yul\":4698:5117   */\n      swap2\n      swap1\n      pop\n      jump\t// out\n        /* \"#utility.yul\":5123:5287   */\n    tag_324:\n        /* \"#utility.yul\":5263:5279   */\n      0x496e76616c696420616d6f756e74000000000000000000000000000000000000\n        /* \"#utility.yul\":5259:5260   */\n      0x00\n        /* \"#utility.yul\":5251:5257   */\n      dup3\n        /* \"#utility.yul\":5247:5261   */\n      add\n        /* \"#utility.yul\":5240:5280   */\n      mstore\n        /* \"#utility.yul\":5123:5287   */\n      pop\n      jump\t// out\n        /* \"#utility.yul\":5293:5659   */\n    tag_325:\n        /* \"#utility.yul\":5435:5438   */\n      0x00\n        /* \"#utility.yul\":5456:5523   */\n      tag_424\n        /* \"#utility.yul\":5520:5522   */\n      0x0e\n        /* \"#utility.yul\":5515:5518   */\n      dup4\n        /* \"#utility.yul\":5456:5523   */\n      tag_321\n      jump\t// in\n    tag_424:\n        /* \"#utility.yul\":5449:5523   */\n      swap2\n      pop\n        /* \"#utility.yul\":5532:5625   */\n      tag_425\n        /* \"#utility.yul\":5621:5624   */\n      dup3\n        /* \"#utility.yul\":5532:5625   */\n      tag_324\n      jump\t// in\n    tag_425:\n        /* \"#utility.yul\":5650:5652   */\n      0x20\n        /* \"#utility.yul\":5645:5648   */\n      dup3\n        /* \"#utility.yul\":5641:5653   */\n      add\n        /* \"#utility.yul\":5634:5653   */\n      swap1\n      pop\n        /* \"#utility.yul\":5293:5659   */\n      swap2\n      swap1\n      pop\n      jump\t// out\n        /* \"#utility.yul\":5665:6084   */\n    tag_80:\n        /* \"#utility.yul\":5831:5835   */\n      0x00\n        /* \"#utility.yul\":5869:5871   */\n      0x20\n        /* \"#utility.yul\":5858:5867   */\n      dup3\n        /* \"#utility.yul\":5854:5872   */\n      add\n        /* \"#utility.yul\":5846:5872   */\n      swap1\n      pop\n        /* \"#utility.yul\":5918:5927   */\n      dup2\n        /* \"#utility.yul\":5912:5916   */\n      dup2\n        /* \"#utility.yul\":5908:5928   */\n      sub\n        /* \"#utility.yul\":5904:5905   */\n      0x00\n        /* \"#utility.yul\":5893:5902   */\n      dup4\n        /* \"#utility.yul\":5889:5906   */\n      add\n        /* \"#utility.yul\":5882:5929   */\n      mstore\n        /* \"#utility.yul\":5946:6077   */\n      tag_427\n        /* \"#utility.yul\":6072:6076   */\n      dup2\n        /* \"#utility.yul\":5946:6077   */\n      tag_325\n      jump\t// in\n    tag_427:\n        /* \"#utility.yul\":5938:6077   */\n      swap1\n      pop\n        /* \"#utility.yul\":5665:6084   */\n      swap2\n      swap1\n      pop\n      jump\t// out\n        /* \"#utility.yul\":6090:6233   */\n    tag_326:\n        /* \"#utility.yul\":6147:6152   */\n      0x00\n        /* \"#utility.yul\":6178:6184   */\n      dup2\n        /* \"#utility.yul\":6172:6185   */\n      mload\n        /* \"#utility.yul\":6163:6185   */\n      swap1\n      pop\n        /* \"#utility.yul\":6194:6227   */\n      tag_429\n        /* \"#utility.yul\":6221:6226   */\n      dup2\n        /* \"#utility.yul\":6194:6227   */\n      tag_308\n      jump\t// in\n    tag_429:\n        /* \"#utility.yul\":6090:6233   */\n      swap3\n      swap2\n      pop\n      pop\n      jump\t// out\n        /* \"#utility.yul\":6239:6590   */\n    tag_87:\n        /* \"#utility.yul\":6309:6315   */\n      0x00\n        /* \"#utility.yul\":6358:6360   */\n      0x20\n        /* \"#utility.yul\":6346:6355   */\n      dup3\n        /* \"#utility.yul\":6337:6344   */\n      dup5\n        /* \"#utility.yul\":6333:6356   */\n      sub\n        /* \"#utility.yul\":6329:6361   */\n      slt\n        /* \"#utility.yul\":6326:6445   */\n      iszero\n      tag_431\n      jumpi\n        /* \"#utility.yul\":6364:6443   */\n      tag_432\n      tag_305\n      jump\t// in\n    tag_432:\n        /* \"#utility.yul\":6326:6445   */\n    tag_431:\n        /* \"#utility.yul\":6484:6485   */\n      0x00\n        /* \"#utility.yul\":6509:6573   */\n      tag_433\n        /* \"#utility.yul\":6565:6572   */\n      dup5\n        /* \"#utility.yul\":6556:6562   */\n      dup3\n        /* \"#utility.yul\":6545:6554   */\n      dup6\n        /* \"#utility.yul\":6541:6563   */\n      add\n        /* \"#utility.yul\":6509:6573   */\n      tag_326\n      jump\t// in\n    tag_433:\n        /* \"#utility.yul\":6499:6573   */\n      swap2\n      pop\n        /* \"#utility.yul\":6455:6583   */\n      pop\n        /* \"#utility.yul\":6239:6590   */\n      swap3\n      swap2\n      pop\n      pop\n      jump\t// out\n        /* \"#utility.yul\":6596:6776   */\n    tag_327:\n        /* \"#utility.yul\":6644:6721   */\n      0x4e487b7100000000000000000000000000000000000000000000000000000000\n        /* \"#utility.yul\":6641:6642   */\n      0x00\n        /* \"#utility.yul\":6634:6722   */\n      mstore\n        /* \"#utility.yul\":6741:6745   */\n      0x12\n        /* \"#utility.yul\":6738:6739   */\n      0x04\n        /* \"#utility.yul\":6731:6746   */\n      mstore\n        /* \"#utility.yul\":6765:6769   */\n      0x24\n        /* \"#utility.yul\":6762:6763   */\n      0x00\n        /* \"#utility.yul\":6755:6770   */\n      revert\n        /* \"#utility.yul\":6782:6958   */\n    tag_99:\n        /* \"#utility.yul\":6814:6815   */\n      0x00\n        /* \"#utility.yul\":6831:6851   */\n      tag_436\n        /* \"#utility.yul\":6849:6850   */\n      dup3\n        /* \"#utility.yul\":6831:6851   */\n      tag_307\n      jump\t// in\n    tag_436:\n        /* \"#utility.yul\":6826:6851   */\n      swap2\n      pop\n        /* \"#utility.yul\":6865:6885   */\n      tag_437\n        /* \"#utility.yul\":6883:6884   */\n      dup4\n        /* \"#utility.yul\":6865:6885   */\n      tag_307\n      jump\t// in\n    tag_437:\n        /* \"#utility.yul\":6860:6885   */\n      swap3\n      pop\n        /* \"#utility.yul\":6904:6905   */\n      dup3\n        /* \"#utility.yul\":6894:6929   */\n      tag_438\n      jumpi\n        /* \"#utility.yul\":6909:6927   */\n      tag_439\n      tag_327\n      jump\t// in\n    tag_439:\n        /* \"#utility.yul\":6894:6929   */\n    tag_438:\n        /* \"#utility.yul\":6950:6951   */\n      dup3\n        /* \"#utility.yul\":6947:6948   */\n      dup3\n        /* \"#utility.yul\":6943:6952   */\n      mod\n        /* \"#utility.yul\":6938:6952   */\n      swap1\n      pop\n        /* \"#utility.yul\":6782:6958   */\n      swap3\n      swap2\n      pop\n      pop\n      jump\t// out\n        /* \"#utility.yul\":6964:7296   */\n    tag_113:\n        /* \"#utility.yul\":7085:7089   */\n      0x00\n        /* \"#utility.yul\":7123:7125   */\n      0x40\n        /* \"#utility.yul\":7112:7121   */\n      dup3\n        /* \"#utility.yul\":7108:7126   */\n      add\n        /* \"#utility.yul\":7100:7126   */\n      swap1\n      pop\n        /* \"#utility.yul\":7136:7207   */\n      tag_441\n        /* \"#utility.yul\":7204:7205   */\n      0x00\n        /* \"#utility.yul\":7193:7202   */\n      dup4\n        /* \"#utility.yul\":7189:7206   */\n      add\n        /* \"#utility.yul\":7180:7186   */\n      dup6\n        /* \"#utility.yul\":7136:7207   */\n      tag_315\n      jump\t// in\n    tag_441:\n        /* \"#utility.yul\":7217:7289   */\n      tag_442\n        /* \"#utility.yul\":7285:7287   */\n      0x20\n        /* \"#utility.yul\":7274:7283   */\n      dup4\n        /* \"#utility.yul\":7270:7288   */\n      add\n        /* \"#utility.yul\":7261:7267   */\n      dup5\n        /* \"#utility.yul\":7217:7289   */\n      tag_310\n      jump\t// in\n    tag_442:\n        /* \"#utility.yul\":6964:7296   */\n      swap4\n      swap3\n      pop\n      pop\n      pop\n      jump\t// out\n        /* \"#utility.yul\":7302:7468   */\n    tag_328:\n        /* \"#utility.yul\":7442:7460   */\n      0x4e6f7468696e6720746f20636c61696d00000000000000000000000000000000\n        /* \"#utility.yul\":7438:7439   */\n      0x00\n        /* \"#utility.yul\":7430:7436   */\n      dup3\n        /* \"#utility.yul\":7426:7440   */\n      add\n        /* \"#utility.yul\":7419:7461   */\n      mstore\n        /* \"#utility.yul\":7302:7468   */\n      pop\n      jump\t// out\n        /* \"#utility.yul\":7474:7840   */\n    tag_329:\n        /* \"#utility.yul\":7616:7619   */\n      0x00\n        /* \"#utility.yul\":7637:7704   */\n      tag_445\n        /* \"#utility.yul\":7701:7703   */\n      0x10\n        /* \"#utility.yul\":7696:7699   */\n      dup4\n        /* \"#utility.yul\":7637:7704   */\n      tag_321\n      jump\t// in\n    tag_445:\n        /* \"#utility.yul\":7630:7704   */\n      swap2\n      pop\n        /* \"#utility.yul\":7713:7806   */\n      tag_446\n        /* \"#utility.yul\":7802:7805   */\n      dup3\n        /* \"#utility.yul\":7713:7806   */\n      tag_328\n      jump\t// in\n    tag_446:\n        /* \"#utility.yul\":7831:7833   */\n      0x20\n        /* \"#utility.yul\":7826:7829   */\n      dup3\n        /* \"#utility.yul\":7822:7834   */\n      add\n        /* \"#utility.yul\":7815:7834   */\n      swap1\n      pop\n        /* \"#utility.yul\":7474:7840   */\n      swap2\n      swap1\n      pop\n      jump\t// out\n        /* \"#utility.yul\":7846:8265   */\n    tag_122:\n        /* \"#utility.yul\":8012:8016   */\n      0x00\n        /* \"#utility.yul\":8050:8052   */\n      0x20\n        /* \"#utility.yul\":8039:8048   */\n      dup3\n        /* \"#utility.yul\":8035:8053   */\n      add\n        /* \"#utility.yul\":8027:8053   */\n      swap1\n      pop\n        /* \"#utility.yul\":8099:8108   */\n      dup2\n        /* \"#utility.yul\":8093:8097   */\n      dup2\n        /* \"#utility.yul\":8089:8109   */\n      sub\n        /* \"#utility.yul\":8085:8086   */\n      0x00\n        /* \"#utility.yul\":8074:8083   */\n      dup4\n        /* \"#utility.yul\":8070:8087   */\n      add\n        /* \"#utility.yul\":8063:8110   */\n      mstore\n        /* \"#utility.yul\":8127:8258   */\n      tag_448\n        /* \"#utility.yul\":8253:8257   */\n      dup2\n        /* \"#utility.yul\":8127:8258   */\n      tag_329\n      jump\t// in\n    tag_448:\n        /* \"#utility.yul\":8119:8258   */\n      swap1\n      pop\n        /* \"#utility.yul\":7846:8265   */\n      swap2\n      swap1\n      pop\n      jump\t// out\n        /* \"#utility.yul\":8271:8434   */\n    tag_330:\n        /* \"#utility.yul\":8411:8426   */\n      0x496e73756666696369656e742100000000000000000000000000000000000000\n        /* \"#utility.yul\":8407:8408   */\n      0x00\n        /* \"#utility.yul\":8399:8405   */\n      dup3\n        /* \"#utility.yul\":8395:8409   */\n      add\n        /* \"#utility.yul\":8388:8427   */\n      mstore\n        /* \"#utility.yul\":8271:8434   */\n      pop\n      jump\t// out\n        /* \"#utility.yul\":8440:8806   */\n    tag_331:\n        /* \"#utility.yul\":8582:8585   */\n      0x00\n        /* \"#utility.yul\":8603:8670   */\n      tag_451\n        /* \"#utility.yul\":8667:8669   */\n      0x0d\n        /* \"#utility.yul\":8662:8665   */\n      dup4\n        /* \"#utility.yul\":8603:8670   */\n      tag_321\n      jump\t// in\n    tag_451:\n        /* \"#utility.yul\":8596:8670   */\n      swap2\n      pop\n        /* \"#utility.yul\":8679:8772   */\n      tag_452\n        /* \"#utility.yul\":8768:8771   */\n      dup3\n        /* \"#utility.yul\":8679:8772   */\n      tag_330\n      jump\t// in\n    tag_452:\n        /* \"#utility.yul\":8797:8799   */\n      0x20\n        /* \"#utility.yul\":8792:8795   */\n      dup3\n        /* \"#utility.yul\":8788:8800   */\n      add\n        /* \"#utility.yul\":8781:8800   */\n      swap1\n      pop\n        /* \"#utility.yul\":8440:8806   */\n      swap2\n      swap1\n      pop\n      jump\t// out\n        /* \"#utility.yul\":8812:9231   */\n    tag_144:\n        /* \"#utility.yul\":8978:8982   */\n      0x00\n        /* \"#utility.yul\":9016:9018   */\n      0x20\n        /* \"#utility.yul\":9005:9014   */\n      dup3\n        /* \"#utility.yul\":9001:9019   */\n      add\n        /* \"#utility.yul\":8993:9019   */\n      swap1\n      pop\n        /* \"#utility.yul\":9065:9074   */\n      dup2\n        /* \"#utility.yul\":9059:9063   */\n      dup2\n        /* \"#utility.yul\":9055:9075   */\n      sub\n        /* \"#utility.yul\":9051:9052   */\n      0x00\n        /* \"#utility.yul\":9040:9049   */\n      dup4\n        /* \"#utility.yul\":9036:9053   */\n      add\n        /* \"#utility.yul\":9029:9076   */\n      mstore\n        /* \"#utility.yul\":9093:9224   */\n      tag_454\n        /* \"#utility.yul\":9219:9223   */\n      dup2\n        /* \"#utility.yul\":9093:9224   */\n      tag_331\n      jump\t// in\n    tag_454:\n        /* \"#utility.yul\":9085:9224   */\n      swap1\n      pop\n        /* \"#utility.yul\":8812:9231   */\n      swap2\n      swap1\n      pop\n      jump\t// out\n        /* \"#utility.yul\":9237:9402   */\n    tag_332:\n        /* \"#utility.yul\":9377:9394   */\n      0x416c726561647920737461727465640000000000000000000000000000000000\n        /* \"#utility.yul\":9373:9374   */\n      0x00\n        /* \"#utility.yul\":9365:9371   */\n      dup3\n        /* \"#utility.yul\":9361:9375   */\n      add\n        /* \"#utility.yul\":9354:9395   */\n      mstore\n        /* \"#utility.yul\":9237:9402   */\n      pop\n      jump\t// out\n        /* \"#utility.yul\":9408:9774   */\n    tag_333:\n        /* \"#utility.yul\":9550:9553   */\n      0x00\n        /* \"#utility.yul\":9571:9638   */\n      tag_457\n        /* \"#utility.yul\":9635:9637   */\n      0x0f\n        /* \"#utility.yul\":9630:9633   */\n      dup4\n        /* \"#utility.yul\":9571:9638   */\n      tag_321\n      jump\t// in\n    tag_457:\n        /* \"#utility.yul\":9564:9638   */\n      swap2\n      pop\n        /* \"#utility.yul\":9647:9740   */\n      tag_458\n        /* \"#utility.yul\":9736:9739   */\n      dup3\n        /* \"#utility.yul\":9647:9740   */\n      tag_332\n      jump\t// in\n    tag_458:\n        /* \"#utility.yul\":9765:9767   */\n      0x20\n        /* \"#utility.yul\":9760:9763   */\n      dup3\n        /* \"#utility.yul\":9756:9768   */\n      add\n        /* \"#utility.yul\":9749:9768   */\n      swap1\n      pop\n        /* \"#utility.yul\":9408:9774   */\n      swap2\n      swap1\n      pop\n      jump\t// out\n        /* \"#utility.yul\":9780:10199   */\n    tag_147:\n        /* \"#utility.yul\":9946:9950   */\n      0x00\n        /* \"#utility.yul\":9984:9986   */\n      0x20\n        /* \"#utility.yul\":9973:9982   */\n      dup3\n        /* \"#utility.yul\":9969:9987   */\n      add\n        /* \"#utility.yul\":9961:9987   */\n      swap1\n      pop\n        /* \"#utility.yul\":10033:10042   */\n      dup2\n        /* \"#utility.yul\":10027:10031   */\n      dup2\n        /* \"#utility.yul\":10023:10043   */\n      sub\n        /* \"#utility.yul\":10019:10020   */\n      0x00\n        /* \"#utility.yul\":10008:10017   */\n      dup4\n        /* \"#utility.yul\":10004:10021   */\n      add\n        /* \"#utility.yul\":9997:10044   */\n      mstore\n        /* \"#utility.yul\":10061:10192   */\n      tag_460\n        /* \"#utility.yul\":10187:10191   */\n      dup2\n        /* \"#utility.yul\":10061:10192   */\n      tag_333\n      jump\t// in\n    tag_460:\n        /* \"#utility.yul\":10053:10192   */\n      swap1\n      pop\n        /* \"#utility.yul\":9780:10199   */\n      swap2\n      swap1\n      pop\n      jump\t// out\n        /* \"#utility.yul\":10205:10387   */\n    tag_334:\n        /* \"#utility.yul\":10345:10379   */\n      0x4f776e61626c653a2063616c6c6572206973206e6f7420746865206f776e6572\n        /* \"#utility.yul\":10341:10342   */\n      0x00\n        /* \"#utility.yul\":10333:10339   */\n      dup3\n        /* \"#utility.yul\":10329:10343   */\n      add\n        /* \"#utility.yul\":10322:10380   */\n      mstore\n        /* \"#utility.yul\":10205:10387   */\n      pop\n      jump\t// out\n        /* \"#utility.yul\":10393:10759   */\n    tag_335:\n        /* \"#utility.yul\":10535:10538   */\n      0x00\n        /* \"#utility.yul\":10556:10623   */\n      tag_463\n        /* \"#utility.yul\":10620:10622   */\n      0x20\n        /* \"#utility.yul\":10615:10618   */\n      dup4\n        /* \"#utility.yul\":10556:10623   */\n      tag_321\n      jump\t// in\n    tag_463:\n        /* \"#utility.yul\":10549:10623   */\n      swap2\n      pop\n        /* \"#utility.yul\":10632:10725   */\n      tag_464\n        /* \"#utility.yul\":10721:10724   */\n      dup3\n        /* \"#utility.yul\":10632:10725   */\n      tag_334\n      jump\t// in\n    tag_464:\n        /* \"#utility.yul\":10750:10752   */\n      0x20\n        /* \"#utility.yul\":10745:10748   */\n      dup3\n        /* \"#utility.yul\":10741:10753   */\n      add\n        /* \"#utility.yul\":10734:10753   */\n      swap1\n      pop\n        /* \"#utility.yul\":10393:10759   */\n      swap2\n      swap1\n      pop\n      jump\t// out\n        /* \"#utility.yul\":10765:11184   */\n    tag_155:\n        /* \"#utility.yul\":10931:10935   */\n      0x00\n        /* \"#utility.yul\":10969:10971   */\n      0x20\n        /* \"#utility.yul\":10958:10967   */\n      dup3\n        /* \"#utility.yul\":10954:10972   */\n      add\n        /* \"#utility.yul\":10946:10972   */\n      swap1\n      pop\n        /* \"#utility.yul\":11018:11027   */\n      dup2\n        /* \"#utility.yul\":11012:11016   */\n      dup2\n        /* \"#utility.yul\":11008:11028   */\n      sub\n        /* \"#utility.yul\":11004:11005   */\n      0x00\n        /* \"#utility.yul\":10993:11002   */\n      dup4\n        /* \"#utility.yul\":10989:11006   */\n      add\n        /* \"#utility.yul\":10982:11029   */\n      mstore\n        /* \"#utility.yul\":11046:11177   */\n      tag_466\n        /* \"#utility.yul\":11172:11176   */\n      dup2\n        /* \"#utility.yul\":11046:11177   */\n      tag_335\n      jump\t// in\n    tag_466:\n        /* \"#utility.yul\":11038:11177   */\n      swap1\n      pop\n        /* \"#utility.yul\":10765:11184   */\n      swap2\n      swap1\n      pop\n      jump\t// out\n        /* \"#utility.yul\":11190:11351   */\n    tag_336:\n        /* \"#utility.yul\":11330:11343   */\n      0x496e76616c696420415059000000000000000000000000000000000000000000\n        /* \"#utility.yul\":11326:11327   */\n      0x00\n        /* \"#utility.yul\":11318:11324   */\n      dup3\n        /* \"#utility.yul\":11314:11328   */\n      add\n        /* \"#utility.yul\":11307:11344   */\n      mstore\n        /* \"#utility.yul\":11190:11351   */\n      pop\n      jump\t// out\n        /* \"#utility.yul\":11357:11723   */\n    tag_337:\n        /* \"#utility.yul\":11499:11502   */\n      0x00\n        /* \"#utility.yul\":11520:11587   */\n      tag_469\n        /* \"#utility.yul\":11584:11586   */\n      0x0b\n        /* \"#utility.yul\":11579:11582   */\n      dup4\n        /* \"#utility.yul\":11520:11587   */\n      tag_321\n      jump\t// in\n    tag_469:\n        /* \"#utility.yul\":11513:11587   */\n      swap2\n      pop\n        /* \"#utility.yul\":11596:11689   */\n      tag_470\n        /* \"#utility.yul\":11685:11688   */\n      dup3\n        /* \"#utility.yul\":11596:11689   */\n      tag_336\n      jump\t// in\n    tag_470:\n        /* \"#utility.yul\":11714:11716   */\n      0x20\n        /* \"#utility.yul\":11709:11712   */\n      dup3\n        /* \"#utility.yul\":11705:11717   */\n      add\n        /* \"#utility.yul\":11698:11717   */\n      swap1\n      pop\n        /* \"#utility.yul\":11357:11723   */\n      swap2\n      swap1\n      pop\n      jump\t// out\n        /* \"#utility.yul\":11729:12148   */\n    tag_159:\n        /* \"#utility.yul\":11895:11899   */\n      0x00\n        /* \"#utility.yul\":11933:11935   */\n      0x20\n        /* \"#utility.yul\":11922:11931   */\n      dup3\n        /* \"#utility.yul\":11918:11936   */\n      add\n        /* \"#utility.yul\":11910:11936   */\n      swap1\n      pop\n        /* \"#utility.yul\":11982:11991   */\n      dup2\n        /* \"#utility.yul\":11976:11980   */\n      dup2\n        /* \"#utility.yul\":11972:11992   */\n      sub\n        /* \"#utility.yul\":11968:11969   */\n      0x00\n        /* \"#utility.yul\":11957:11966   */\n      dup4\n        /* \"#utility.yul\":11953:11970   */\n      add\n        /* \"#utility.yul\":11946:11993   */\n      mstore\n        /* \"#utility.yul\":12010:12141   */\n      tag_472\n        /* \"#utility.yul\":12136:12140   */\n      dup2\n        /* \"#utility.yul\":12010:12141   */\n      tag_337\n      jump\t// in\n    tag_472:\n        /* \"#utility.yul\":12002:12141   */\n      swap1\n      pop\n        /* \"#utility.yul\":11729:12148   */\n      swap2\n      swap1\n      pop\n      jump\t// out\n        /* \"#utility.yul\":12154:12327   */\n    tag_338:\n        /* \"#utility.yul\":12294:12319   */\n      0x496e76616c6964204c6f636b7570204475726174696f6e000000000000000000\n        /* \"#utility.yul\":12290:12291   */\n      0x00\n        /* \"#utility.yul\":12282:12288   */\n      dup3\n        /* \"#utility.yul\":12278:12292   */\n      add\n        /* \"#utility.yul\":12271:12320   */\n      mstore\n        /* \"#utility.yul\":12154:12327   */\n      pop\n      jump\t// out\n        /* \"#utility.yul\":12333:12699   */\n    tag_339:\n        /* \"#utility.yul\":12475:12478   */\n      0x00\n        /* \"#utility.yul\":12496:12563   */\n      tag_475\n        /* \"#utility.yul\":12560:12562   */\n      0x17\n        /* \"#utility.yul\":12555:12558   */\n      dup4\n        /* \"#utility.yul\":12496:12563   */\n      tag_321\n      jump\t// in\n    tag_475:\n        /* \"#utility.yul\":12489:12563   */\n      swap2\n      pop\n        /* \"#utility.yul\":12572:12665   */\n      tag_476\n        /* \"#utility.yul\":12661:12664   */\n      dup3\n        /* \"#utility.yul\":12572:12665   */\n      tag_338\n      jump\t// in\n    tag_476:\n        /* \"#utility.yul\":12690:12692   */\n      0x20\n        /* \"#utility.yul\":12685:12688   */\n      dup3\n        /* \"#utility.yul\":12681:12693   */\n      add\n        /* \"#utility.yul\":12674:12693   */\n      swap1\n      pop\n        /* \"#utility.yul\":12333:12699   */\n      swap2\n      swap1\n      pop\n      jump\t// out\n        /* \"#utility.yul\":12705:13124   */\n    tag_170:\n        /* \"#utility.yul\":12871:12875   */\n      0x00\n        /* \"#utility.yul\":12909:12911   */\n      0x20\n        /* \"#utility.yul\":12898:12907   */\n      dup3\n        /* \"#utility.yul\":12894:12912   */\n      add\n        /* \"#utility.yul\":12886:12912   */\n      swap1\n      pop\n        /* \"#utility.yul\":12958:12967   */\n      dup2\n        /* \"#utility.yul\":12952:12956   */\n      dup2\n        /* \"#utility.yul\":12948:12968   */\n      sub\n        /* \"#utility.yul\":12944:12945   */\n      0x00\n        /* \"#utility.yul\":12933:12942   */\n      dup4\n        /* \"#utility.yul\":12929:12946   */\n      add\n        /* \"#utility.yul\":12922:12969   */\n      mstore\n        /* \"#utility.yul\":12986:13117   */\n      tag_478\n        /* \"#utility.yul\":13112:13116   */\n      dup2\n        /* \"#utility.yul\":12986:13117   */\n      tag_339\n      jump\t// in\n    tag_478:\n        /* \"#utility.yul\":12978:13117   */\n      swap1\n      pop\n        /* \"#utility.yul\":12705:13124   */\n      swap2\n      swap1\n      pop\n      jump\t// out\n        /* \"#utility.yul\":13130:13355   */\n    tag_340:\n        /* \"#utility.yul\":13270:13304   */\n      0x496e76616c696420416464726573732e20416464726573732063616e27742062\n        /* \"#utility.yul\":13266:13267   */\n      0x00\n        /* \"#utility.yul\":13258:13264   */\n      dup3\n        /* \"#utility.yul\":13254:13268   */\n      add\n        /* \"#utility.yul\":13247:13305   */\n      mstore\n        /* \"#utility.yul\":13339:13347   */\n      0x65207a65726f0000000000000000000000000000000000000000000000000000\n        /* \"#utility.yul\":13334:13336   */\n      0x20\n        /* \"#utility.yul\":13326:13332   */\n      dup3\n        /* \"#utility.yul\":13322:13337   */\n      add\n        /* \"#utility.yul\":13315:13348   */\n      mstore\n        /* \"#utility.yul\":13130:13355   */\n      pop\n      jump\t// out\n        /* \"#utility.yul\":13361:13727   */\n    tag_341:\n        /* \"#utility.yul\":13503:13506   */\n      0x00\n        /* \"#utility.yul\":13524:13591   */\n      tag_481\n        /* \"#utility.yul\":13588:13590   */\n      0x26\n        /* \"#utility.yul\":13583:13586   */\n      dup4\n        /* \"#utility.yul\":13524:13591   */\n      tag_321\n      jump\t// in\n    tag_481:\n        /* \"#utility.yul\":13517:13591   */\n      swap2\n      pop\n        /* \"#utility.yul\":13600:13693   */\n      tag_482\n        /* \"#utility.yul\":13689:13692   */\n      dup3\n        /* \"#utility.yul\":13600:13693   */\n      tag_340\n      jump\t// in\n    tag_482:\n        /* \"#utility.yul\":13718:13720   */\n      0x40\n        /* \"#utility.yul\":13713:13716   */\n      dup3\n        /* \"#utility.yul\":13709:13721   */\n      add\n        /* \"#utility.yul\":13702:13721   */\n      swap1\n      pop\n        /* \"#utility.yul\":13361:13727   */\n      swap2\n      swap1\n      pop\n      jump\t// out\n        /* \"#utility.yul\":13733:14152   */\n    tag_189:\n        /* \"#utility.yul\":13899:13903   */\n      0x00\n        /* \"#utility.yul\":13937:13939   */\n      0x20\n        /* \"#utility.yul\":13926:13935   */\n      dup3\n        /* \"#utility.yul\":13922:13940   */\n      add\n        /* \"#utility.yul\":13914:13940   */\n      swap1\n      pop\n        /* \"#utility.yul\":13986:13995   */\n      dup2\n        /* \"#utility.yul\":13980:13984   */\n      dup2\n        /* \"#utility.yul\":13976:13996   */\n      sub\n        /* \"#utility.yul\":13972:13973   */\n      0x00\n        /* \"#utility.yul\":13961:13970   */\n      dup4\n        /* \"#utility.yul\":13957:13974   */\n      add\n        /* \"#utility.yul\":13950:13997   */\n      mstore\n        /* \"#utility.yul\":14014:14145   */\n      tag_484\n        /* \"#utility.yul\":14140:14144   */\n      dup2\n        /* \"#utility.yul\":14014:14145   */\n      tag_341\n      jump\t// in\n    tag_484:\n        /* \"#utility.yul\":14006:14145   */\n      swap1\n      pop\n        /* \"#utility.yul\":13733:14152   */\n      swap2\n      swap1\n      pop\n      jump\t// out\n        /* \"#utility.yul\":14158:14334   */\n    tag_342:\n        /* \"#utility.yul\":14298:14326   */\n      0x496e76616c696420556e7374616b696e67204665652052617465000000000000\n        /* \"#utility.yul\":14294:14295   */\n      0x00\n        /* \"#utility.yul\":14286:14292   */\n      dup3\n        /* \"#utility.yul\":14282:14296   */\n      add\n        /* \"#utility.yul\":14275:14327   */\n      mstore\n        /* \"#utility.yul\":14158:14334   */\n      pop\n      jump\t// out\n        /* \"#utility.yul\":14340:14706   */\n    tag_343:\n        /* \"#utility.yul\":14482:14485   */\n      0x00\n        /* \"#utility.yul\":14503:14570   */\n      tag_487\n        /* \"#utility.yul\":14567:14569   */\n      0x1a\n        /* \"#utility.yul\":14562:14565   */\n      dup4\n        /* \"#utility.yul\":14503:14570   */\n      tag_321\n      jump\t// in\n    tag_487:\n        /* \"#utility.yul\":14496:14570   */\n      swap2\n      pop\n        /* \"#utility.yul\":14579:14672   */\n      tag_488\n        /* \"#utility.yul\":14668:14671   */\n      dup3\n        /* \"#utility.yul\":14579:14672   */\n      tag_342\n      jump\t// in\n    tag_488:\n        /* \"#utility.yul\":14697:14699   */\n      0x20\n        /* \"#utility.yul\":14692:14695   */\n      dup3\n        /* \"#utility.yul\":14688:14700   */\n      add\n        /* \"#utility.yul\":14681:14700   */\n      swap1\n      pop\n        /* \"#utility.yul\":14340:14706   */\n      swap2\n      swap1\n      pop\n      jump\t// out\n        /* \"#utility.yul\":14712:15131   */\n    tag_200:\n        /* \"#utility.yul\":14878:14882   */\n      0x00\n        /* \"#utility.yul\":14916:14918   */\n      0x20\n        /* \"#utility.yul\":14905:14914   */\n      dup3\n        /* \"#utility.yul\":14901:14919   */\n      add\n        /* \"#utility.yul\":14893:14919   */\n      swap1\n      pop\n        /* \"#utility.yul\":14965:14974   */\n      dup2\n        /* \"#utility.yul\":14959:14963   */\n      dup2\n        /* \"#utility.yul\":14955:14975   */\n      sub\n        /* \"#utility.yul\":14951:14952   */\n      0x00\n        /* \"#utility.yul\":14940:14949   */\n      dup4\n        /* \"#utility.yul\":14936:14953   */\n      add\n        /* \"#utility.yul\":14929:14976   */\n      mstore\n        /* \"#utility.yul\":14993:15124   */\n      tag_490\n        /* \"#utility.yul\":15119:15123   */\n      dup2\n        /* \"#utility.yul\":14993:15124   */\n      tag_343\n      jump\t// in\n    tag_490:\n        /* \"#utility.yul\":14985:15124   */\n      swap1\n      pop\n        /* \"#utility.yul\":14712:15131   */\n      swap2\n      swap1\n      pop\n      jump\t// out\n        /* \"#utility.yul\":15137:15362   */\n    tag_344:\n        /* \"#utility.yul\":15277:15311   */\n      0x4f776e61626c653a206e6577206f776e657220697320746865207a65726f2061\n        /* \"#utility.yul\":15273:15274   */\n      0x00\n        /* \"#utility.yul\":15265:15271   */\n      dup3\n        /* \"#utility.yul\":15261:15275   */\n      add\n        /* \"#utility.yul\":15254:15312   */\n      mstore\n        /* \"#utility.yul\":15346:15354   */\n      0x6464726573730000000000000000000000000000000000000000000000000000\n        /* \"#utility.yul\":15341:15343   */\n      0x20\n        /* \"#utility.yul\":15333:15339   */\n      dup3\n        /* \"#utility.yul\":15329:15344   */\n      add\n        /* \"#utility.yul\":15322:15355   */\n      mstore\n        /* \"#utility.yul\":15137:15362   */\n      pop\n      jump\t// out\n        /* \"#utility.yul\":15368:15734   */\n    tag_345:\n        /* \"#utility.yul\":15510:15513   */\n      0x00\n        /* \"#utility.yul\":15531:15598   */\n      tag_493\n        /* \"#utility.yul\":15595:15597   */\n      0x26\n        /* \"#utility.yul\":15590:15593   */\n      dup4\n        /* \"#utility.yul\":15531:15598   */\n      tag_321\n      jump\t// in\n    tag_493:\n        /* \"#utility.yul\":15524:15598   */\n      swap2\n      pop\n        /* \"#utility.yul\":15607:15700   */\n      tag_494\n        /* \"#utility.yul\":15696:15699   */\n      dup3\n        /* \"#utility.yul\":15607:15700   */\n      tag_344\n      jump\t// in\n    tag_494:\n        /* \"#utility.yul\":15725:15727   */\n      0x40\n        /* \"#utility.yul\":15720:15723   */\n      dup3\n        /* \"#utility.yul\":15716:15728   */\n      add\n        /* \"#utility.yul\":15709:15728   */\n      swap1\n      pop\n        /* \"#utility.yul\":15368:15734   */\n      swap2\n      swap1\n      pop\n      jump\t// out\n        /* \"#utility.yul\":15740:16159   */\n    tag_225:\n        /* \"#utility.yul\":15906:15910   */\n      0x00\n        /* \"#utility.yul\":15944:15946   */\n      0x20\n        /* \"#utility.yul\":15933:15942   */\n      dup3\n        /* \"#utility.yul\":15929:15947   */\n      add\n        /* \"#utility.yul\":15921:15947   */\n      swap1\n      pop\n        /* \"#utility.yul\":15993:16002   */\n      dup2\n        /* \"#utility.yul\":15987:15991   */\n      dup2\n        /* \"#utility.yul\":15983:16003   */\n      sub\n        /* \"#utility.yul\":15979:15980   */\n      0x00\n        /* \"#utility.yul\":15968:15977   */\n      dup4\n        /* \"#utility.yul\":15964:15981   */\n      add\n        /* \"#utility.yul\":15957:16004   */\n      mstore\n        /* \"#utility.yul\":16021:16152   */\n      tag_496\n        /* \"#utility.yul\":16147:16151   */\n      dup2\n        /* \"#utility.yul\":16021:16152   */\n      tag_345\n      jump\t// in\n    tag_496:\n        /* \"#utility.yul\":16013:16152   */\n      swap1\n      pop\n        /* \"#utility.yul\":15740:16159   */\n      swap2\n      swap1\n      pop\n      jump\t// out\n        /* \"#utility.yul\":16165:16345   */\n    tag_346:\n        /* \"#utility.yul\":16213:16290   */\n      0x4e487b7100000000000000000000000000000000000000000000000000000000\n        /* \"#utility.yul\":16210:16211   */\n      0x00\n        /* \"#utility.yul\":16203:16291   */\n      mstore\n        /* \"#utility.yul\":16310:16314   */\n      0x11\n        /* \"#utility.yul\":16307:16308   */\n      0x04\n        /* \"#utility.yul\":16300:16315   */\n      mstore\n        /* \"#utility.yul\":16334:16338   */\n      0x24\n        /* \"#utility.yul\":16331:16332   */\n      0x00\n        /* \"#utility.yul\":16324:16339   */\n      revert\n        /* \"#utility.yul\":16351:16542   */\n    tag_232:\n        /* \"#utility.yul\":16391:16395   */\n      0x00\n        /* \"#utility.yul\":16411:16431   */\n      tag_499\n        /* \"#utility.yul\":16429:16430   */\n      dup3\n        /* \"#utility.yul\":16411:16431   */\n      tag_307\n      jump\t// in\n    tag_499:\n        /* \"#utility.yul\":16406:16431   */\n      swap2\n      pop\n        /* \"#utility.yul\":16445:16465   */\n      tag_500\n        /* \"#utility.yul\":16463:16464   */\n      dup4\n        /* \"#utility.yul\":16445:16465   */\n      tag_307\n      jump\t// in\n    tag_500:\n        /* \"#utility.yul\":16440:16465   */\n      swap3\n      pop\n        /* \"#utility.yul\":16484:16485   */\n      dup3\n        /* \"#utility.yul\":16481:16482   */\n      dup3\n        /* \"#utility.yul\":16478:16486   */\n      lt\n        /* \"#utility.yul\":16475:16509   */\n      iszero\n      tag_501\n      jumpi\n        /* \"#utility.yul\":16489:16507   */\n      tag_502\n      tag_346\n      jump\t// in\n    tag_502:\n        /* \"#utility.yul\":16475:16509   */\n    tag_501:\n        /* \"#utility.yul\":16534:16535   */\n      dup3\n        /* \"#utility.yul\":16531:16532   */\n      dup3\n        /* \"#utility.yul\":16527:16536   */\n      sub\n        /* \"#utility.yul\":16519:16536   */\n      swap1\n      pop\n        /* \"#utility.yul\":16351:16542   */\n      swap3\n      swap2\n      pop\n      pop\n      jump\t// out\n        /* \"#utility.yul\":16548:16733   */\n    tag_249:\n        /* \"#utility.yul\":16588:16589   */\n      0x00\n        /* \"#utility.yul\":16605:16625   */\n      tag_504\n        /* \"#utility.yul\":16623:16624   */\n      dup3\n        /* \"#utility.yul\":16605:16625   */\n      tag_307\n      jump\t// in\n    tag_504:\n        /* \"#utility.yul\":16600:16625   */\n      swap2\n      pop\n        /* \"#utility.yul\":16639:16659   */\n      tag_505\n        /* \"#utility.yul\":16657:16658   */\n      dup4\n        /* \"#utility.yul\":16639:16659   */\n      tag_307\n      jump\t// in\n    tag_505:\n        /* \"#utility.yul\":16634:16659   */\n      swap3\n      pop\n        /* \"#utility.yul\":16678:16679   */\n      dup3\n        /* \"#utility.yul\":16668:16703   */\n      tag_506\n      jumpi\n        /* \"#utility.yul\":16683:16701   */\n      tag_507\n      tag_327\n      jump\t// in\n    tag_507:\n        /* \"#utility.yul\":16668:16703   */\n    tag_506:\n        /* \"#utility.yul\":16725:16726   */\n      dup3\n        /* \"#utility.yul\":16722:16723   */\n      dup3\n        /* \"#utility.yul\":16718:16727   */\n      div\n        /* \"#utility.yul\":16713:16727   */\n      swap1\n      pop\n        /* \"#utility.yul\":16548:16733   */\n      swap3\n      swap2\n      pop\n      pop\n      jump\t// out\n        /* \"#utility.yul\":16739:17087   */\n    tag_252:\n        /* \"#utility.yul\":16779:16786   */\n      0x00\n        /* \"#utility.yul\":16802:16822   */\n      tag_509\n        /* \"#utility.yul\":16820:16821   */\n      dup3\n        /* \"#utility.yul\":16802:16822   */\n      tag_307\n      jump\t// in\n    tag_509:\n        /* \"#utility.yul\":16797:16822   */\n      swap2\n      pop\n        /* \"#utility.yul\":16836:16856   */\n      tag_510\n        /* \"#utility.yul\":16854:16855   */\n      dup4\n        /* \"#utility.yul\":16836:16856   */\n      tag_307\n      jump\t// in\n    tag_510:\n        /* \"#utility.yul\":16831:16856   */\n      swap3\n      pop\n        /* \"#utility.yul\":17024:17025   */\n      dup2\n        /* \"#utility.yul\":16956:17022   */\n      0xffffffffffffffffffffffffffffffffffffffffffffffffffffffffffffffff\n        /* \"#utility.yul\":16952:17026   */\n      div\n        /* \"#utility.yul\":16949:16950   */\n      dup4\n        /* \"#utility.yul\":16946:17027   */\n      gt\n        /* \"#utility.yul\":16941:16942   */\n      dup3\n        /* \"#utility.yul\":16934:16943   */\n      iszero\n        /* \"#utility.yul\":16927:16944   */\n      iszero\n        /* \"#utility.yul\":16923:17028   */\n      and\n        /* \"#utility.yul\":16920:17051   */\n      iszero\n      tag_511\n      jumpi\n        /* \"#utility.yul\":17031:17049   */\n      tag_512\n      tag_346\n      jump\t// in\n    tag_512:\n        /* \"#utility.yul\":16920:17051   */\n    tag_511:\n        /* \"#utility.yul\":17079:17080   */\n      dup3\n        /* \"#utility.yul\":17076:17077   */\n      dup3\n        /* \"#utility.yul\":17072:17081   */\n      mul\n        /* \"#utility.yul\":17061:17081   */\n      swap1\n      pop\n        /* \"#utility.yul\":16739:17087   */\n      swap3\n      swap2\n      pop\n      pop\n      jump\t// out\n        /* \"#utility.yul\":17093:17535   */\n    tag_260:\n        /* \"#utility.yul\":17242:17246   */\n      0x00\n        /* \"#utility.yul\":17280:17282   */\n      0x60\n        /* \"#utility.yul\":17269:17278   */\n      dup3\n        /* \"#utility.yul\":17265:17283   */\n      add\n        /* \"#utility.yul\":17257:17283   */\n      swap1\n      pop\n        /* \"#utility.yul\":17293:17364   */\n      tag_514\n        /* \"#utility.yul\":17361:17362   */\n      0x00\n        /* \"#utility.yul\":17350:17359   */\n      dup4\n        /* \"#utility.yul\":17346:17363   */\n      add\n        /* \"#utility.yul\":17337:17343   */\n      dup7\n        /* \"#utility.yul\":17293:17364   */\n      tag_315\n      jump\t// in\n    tag_514:\n        /* \"#utility.yul\":17374:17446   */\n      tag_515\n        /* \"#utility.yul\":17442:17444   */\n      0x20\n        /* \"#utility.yul\":17431:17440   */\n      dup4\n        /* \"#utility.yul\":17427:17445   */\n      add\n        /* \"#utility.yul\":17418:17424   */\n      dup6\n        /* \"#utility.yul\":17374:17446   */\n      tag_315\n      jump\t// in\n    tag_515:\n        /* \"#utility.yul\":17456:17528   */\n      tag_516\n        /* \"#utility.yul\":17524:17526   */\n      0x40\n        /* \"#utility.yul\":17513:17522   */\n      dup4\n        /* \"#utility.yul\":17509:17527   */\n      add\n        /* \"#utility.yul\":17500:17506   */\n      dup5\n        /* \"#utility.yul\":17456:17528   */\n      tag_310\n      jump\t// in\n    tag_516:\n        /* \"#utility.yul\":17093:17535   */\n      swap5\n      swap4\n      pop\n      pop\n      pop\n      pop\n      jump\t// out\n        /* \"#utility.yul\":17541:17846   */\n    tag_265:\n        /* \"#utility.yul\":17581:17584   */\n      0x00\n        /* \"#utility.yul\":17600:17620   */\n      tag_518\n        /* \"#utility.yul\":17618:17619   */\n      dup3\n        /* \"#utility.yul\":17600:17620   */\n      tag_307\n      jump\t// in\n    tag_518:\n        /* \"#utility.yul\":17595:17620   */\n      swap2\n      pop\n        /* \"#utility.yul\":17634:17654   */\n      tag_519\n        /* \"#utility.yul\":17652:17653   */\n      dup4\n        /* \"#utility.yul\":17634:17654   */\n      tag_307\n      jump\t// in\n    tag_519:\n        /* \"#utility.yul\":17629:17654   */\n      swap3\n      pop\n        /* \"#utility.yul\":17788:17789   */\n      dup3\n        /* \"#utility.yul\":17720:17786   */\n      0xffffffffffffffffffffffffffffffffffffffffffffffffffffffffffffffff\n        /* \"#utility.yul\":17716:17790   */\n      sub\n        /* \"#utility.yul\":17713:17714   */\n      dup3\n        /* \"#utility.yul\":17710:17791   */\n      gt\n        /* \"#utility.yul\":17707:17814   */\n      iszero\n      tag_520\n      jumpi\n        /* \"#utility.yul\":17794:17812   */\n      tag_521\n      tag_346\n      jump\t// in\n    tag_521:\n        /* \"#utility.yul\":17707:17814   */\n    tag_520:\n        /* \"#utility.yul\":17838:17839   */\n      dup3\n        /* \"#utility.yul\":17835:17836   */\n      dup3\n        /* \"#utility.yul\":17831:17840   */\n      add\n        /* \"#utility.yul\":17824:17840   */\n      swap1\n      pop\n        /* \"#utility.yul\":17541:17846   */\n      swap3\n      swap2\n      pop\n      pop\n      jump\t// out\n        /* \"#utility.yul\":17852:17942   */\n    tag_347:\n        /* \"#utility.yul\":17886:17893   */\n      0x00\n        /* \"#utility.yul\":17929:17934   */\n      dup2\n        /* \"#utility.yul\":17922:17935   */\n      iszero\n        /* \"#utility.yul\":17915:17936   */\n      iszero\n        /* \"#utility.yul\":17904:17936   */\n      swap1\n      pop\n        /* \"#utility.yul\":17852:17942   */\n      swap2\n      swap1\n      pop\n      jump\t// out\n        /* \"#utility.yul\":17948:18064   */\n    tag_348:\n        /* \"#utility.yul\":18018:18039   */\n      tag_524\n        /* \"#utility.yul\":18033:18038   */\n      dup2\n        /* \"#utility.yul\":18018:18039   */\n      tag_347\n      jump\t// in\n    tag_524:\n        /* \"#utility.yul\":18011:18016   */\n      dup2\n        /* \"#utility.yul\":18008:18040   */\n      eq\n        /* \"#utility.yul\":17998:18058   */\n      tag_525\n      jumpi\n        /* \"#utility.yul\":18054:18055   */\n      0x00\n        /* \"#utility.yul\":18051:18052   */\n      dup1\n        /* \"#utility.yul\":18044:18056   */\n      revert\n        /* \"#utility.yul\":17998:18058   */\n    tag_525:\n        /* \"#utility.yul\":17948:18064   */\n      pop\n      jump\t// out\n        /* \"#utility.yul\":18070:18207   */\n    tag_349:\n        /* \"#utility.yul\":18124:18129   */\n      0x00\n        /* \"#utility.yul\":18155:18161   */\n      dup2\n        /* \"#utility.yul\":18149:18162   */\n      mload\n        /* \"#utility.yul\":18140:18162   */\n      swap1\n      pop\n        /* \"#utility.yul\":18171:18201   */\n      tag_527\n        /* \"#utility.yul\":18195:18200   */\n      dup2\n        /* \"#utility.yul\":18171:18201   */\n      tag_348\n      jump\t// in\n    tag_527:\n        /* \"#utility.yul\":18070:18207   */\n      swap3\n      swap2\n      pop\n      pop\n      jump\t// out\n        /* \"#utility.yul\":18213:18558   */\n    tag_273:\n        /* \"#utility.yul\":18280:18286   */\n      0x00\n        /* \"#utility.yul\":18329:18331   */\n      0x20\n        /* \"#utility.yul\":18317:18326   */\n      dup3\n        /* \"#utility.yul\":18308:18315   */\n      dup5\n        /* \"#utility.yul\":18304:18327   */\n      sub\n        /* \"#utility.yul\":18300:18332   */\n      slt\n        /* \"#utility.yul\":18297:18416   */\n      iszero\n      tag_529\n      jumpi\n        /* \"#utility.yul\":18335:18414   */\n      tag_530\n      tag_305\n      jump\t// in\n    tag_530:\n        /* \"#utility.yul\":18297:18416   */\n    tag_529:\n        /* \"#utility.yul\":18455:18456   */\n      0x00\n        /* \"#utility.yul\":18480:18541   */\n      tag_531\n        /* \"#utility.yul\":18533:18540   */\n      dup5\n        /* \"#utility.yul\":18524:18530   */\n      dup3\n        /* \"#utility.yul\":18513:18522   */\n      dup6\n        /* \"#utility.yul\":18509:18531   */\n      add\n        /* \"#utility.yul\":18480:18541   */\n      tag_349\n      jump\t// in\n    tag_531:\n        /* \"#utility.yul\":18470:18541   */\n      swap2\n      pop\n        /* \"#utility.yul\":18426:18551   */\n      pop\n        /* \"#utility.yul\":18213:18558   */\n      swap3\n      swap2\n      pop\n      pop\n      jump\t// out\n        /* \"#utility.yul\":18564:18793   */\n    tag_350:\n        /* \"#utility.yul\":18704:18738   */\n      0x5361666542455032303a204245503230206f7065726174696f6e20646964206e\n        /* \"#utility.yul\":18700:18701   */\n      0x00\n        /* \"#utility.yul\":18692:18698   */\n      dup3\n        /* \"#utility.yul\":18688:18702   */\n      add\n        /* \"#utility.yul\":18681:18739   */\n      mstore\n        /* \"#utility.yul\":18773:18785   */\n      0x6f74207375636365656400000000000000000000000000000000000000000000\n        /* \"#utility.yul\":18768:18770   */\n      0x20\n        /* \"#utility.yul\":18760:18766   */\n      dup3\n        /* \"#utility.yul\":18756:18771   */\n      add\n        /* \"#utility.yul\":18749:18786   */\n      mstore\n        /* \"#utility.yul\":18564:18793   */\n      pop\n      jump\t// out\n        /* \"#utility.yul\":18799:19165   */\n    tag_351:\n        /* \"#utility.yul\":18941:18944   */\n      0x00\n        /* \"#utility.yul\":18962:19029   */\n      tag_534\n        /* \"#utility.yul\":19026:19028   */\n      0x2a\n        /* \"#utility.yul\":19021:19024   */\n      dup4\n        /* \"#utility.yul\":18962:19029   */\n      tag_321\n      jump\t// in\n    tag_534:\n        /* \"#utility.yul\":18955:19029   */\n      swap2\n      pop\n        /* \"#utility.yul\":19038:19131   */\n      tag_535\n        /* \"#utility.yul\":19127:19130   */\n      dup3\n        /* \"#utility.yul\":19038:19131   */\n      tag_350\n      jump\t// in\n    tag_535:\n        /* \"#utility.yul\":19156:19158   */\n      0x40\n        /* \"#utility.yul\":19151:19154   */\n      dup3\n        /* \"#utility.yul\":19147:19159   */\n      add\n        /* \"#utility.yul\":19140:19159   */\n      swap1\n      pop\n        /* \"#utility.yul\":18799:19165   */\n      swap2\n      swap1\n      pop\n      jump\t// out\n        /* \"#utility.yul\":19171:19590   */\n    tag_276:\n        /* \"#utility.yul\":19337:19341   */\n      0x00\n        /* \"#utility.yul\":19375:19377   */\n      0x20\n        /* \"#utility.yul\":19364:19373   */\n      dup3\n        /* \"#utility.yul\":19360:19378   */\n      add\n        /* \"#utility.yul\":19352:19378   */\n      swap1\n      pop\n        /* \"#utility.yul\":19424:19433   */\n      dup2\n        /* \"#utility.yul\":19418:19422   */\n      dup2\n        /* \"#utility.yul\":19414:19434   */\n      sub\n        /* \"#utility.yul\":19410:19411   */\n      0x00\n        /* \"#utility.yul\":19399:19408   */\n      dup4\n        /* \"#utility.yul\":19395:19412   */\n      add\n        /* \"#utility.yul\":19388:19435   */\n      mstore\n        /* \"#utility.yul\":19452:19583   */\n      tag_537\n        /* \"#utility.yul\":19578:19582   */\n      dup2\n        /* \"#utility.yul\":19452:19583   */\n      tag_351\n      jump\t// in\n    tag_537:\n        /* \"#utility.yul\":19444:19583   */\n      swap1\n      pop\n        /* \"#utility.yul\":19171:19590   */\n      swap2\n      swap1\n      pop\n      jump\t// out\n        /* \"#utility.yul\":19596:19821   */\n    tag_352:\n        /* \"#utility.yul\":19736:19770   */\n      0x416464726573733a20696e73756666696369656e742062616c616e636520666f\n        /* \"#utility.yul\":19732:19733   */\n      0x00\n        /* \"#utility.yul\":19724:19730   */\n      dup3\n        /* \"#utility.yul\":19720:19734   */\n      add\n        /* \"#utility.yul\":19713:19771   */\n      mstore\n        /* \"#utility.yul\":19805:19813   */\n      0x722063616c6c0000000000000000000000000000000000000000000000000000\n        /* \"#utility.yul\":19800:19802   */\n      0x20\n        /* \"#utility.yul\":19792:19798   */\n      dup3\n        /* \"#utility.yul\":19788:19803   */\n      add\n        /* \"#utility.yul\":19781:19814   */\n      mstore\n        /* \"#utility.yul\":19596:19821   */\n      pop\n      jump\t// out\n        /* \"#utility.yul\":19827:20193   */\n    tag_353:\n        /* \"#utility.yul\":19969:19972   */\n      0x00\n        /* \"#utility.yul\":19990:20057   */\n      tag_540\n        /* \"#utility.yul\":20054:20056   */\n      0x26\n        /* \"#utility.yul\":20049:20052   */\n      dup4\n        /* \"#utility.yul\":19990:20057   */\n      tag_321\n      jump\t// in\n    tag_540:\n        /* \"#utility.yul\":19983:20057   */\n      swap2\n      pop\n        /* \"#utility.yul\":20066:20159   */\n      tag_541\n        /* \"#utility.yul\":20155:20158   */\n      dup3\n        /* \"#utility.yul\":20066:20159   */\n      tag_352\n      jump\t// in\n    tag_541:\n        /* \"#utility.yul\":20184:20186   */\n      0x40\n        /* \"#utility.yul\":20179:20182   */\n      dup3\n        /* \"#utility.yul\":20175:20187   */\n      add\n        /* \"#utility.yul\":20168:20187   */\n      swap1\n      pop\n        /* \"#utility.yul\":19827:20193   */\n      swap2\n      swap1\n      pop\n      jump\t// out\n        /* \"#utility.yul\":20199:20618   */\n    tag_283:\n        /* \"#utility.yul\":20365:20369   */\n      0x00\n        /* \"#utility.yul\":20403:20405   */\n      0x20\n        /* \"#utility.yul\":20392:20401   */\n      dup3\n        /* \"#utility.yul\":20388:20406   */\n      add\n        /* \"#utility.yul\":20380:20406   */\n      swap1\n      pop\n        /* \"#utility.yul\":20452:20461   */\n      dup2\n        /* \"#utility.yul\":20446:20450   */\n      dup2\n        /* \"#utility.yul\":20442:20462   */\n      sub\n        /* \"#utility.yul\":20438:20439   */\n      0x00\n        /* \"#utility.yul\":20427:20436   */\n      dup4\n        /* \"#utility.yul\":20423:20440   */\n      add\n        /* \"#utility.yul\":20416:20463   */\n      mstore\n        /* \"#utility.yul\":20480:20611   */\n      tag_543\n        /* \"#utility.yul\":20606:20610   */\n      dup2\n        /* \"#utility.yul\":20480:20611   */\n      tag_353\n      jump\t// in\n    tag_543:\n        /* \"#utility.yul\":20472:20611   */\n      swap1\n      pop\n        /* \"#utility.yul\":20199:20618   */\n      swap2\n      swap1\n      pop\n      jump\t// out\n        /* \"#utility.yul\":20624:20803   */\n    tag_354:\n        /* \"#utility.yul\":20764:20795   */\n      0x416464726573733a2063616c6c20746f206e6f6e2d636f6e7472616374000000\n        /* \"#utility.yul\":20760:20761   */\n      0x00\n        /* \"#utility.yul\":20752:20758   */\n      dup3\n        /* \"#utility.yul\":20748:20762   */\n      add\n        /* \"#utility.yul\":20741:20796   */\n      mstore\n        /* \"#utility.yul\":20624:20803   */\n      pop\n      jump\t// out\n        /* \"#utility.yul\":20809:21175   */\n    tag_355:\n        /* \"#utility.yul\":20951:20954   */\n      0x00\n        /* \"#utility.yul\":20972:21039   */\n      tag_546\n        /* \"#utility.yul\":21036:21038   */\n      0x1d\n        /* \"#utility.yul\":21031:21034   */\n      dup4\n        /* \"#utility.yul\":20972:21039   */\n      tag_321\n      jump\t// in\n    tag_546:\n        /* \"#utility.yul\":20965:21039   */\n      swap2\n      pop\n        /* \"#utility.yul\":21048:21141   */\n      tag_547\n        /* \"#utility.yul\":21137:21140   */\n      dup3\n        /* \"#utility.yul\":21048:21141   */\n      tag_354\n      jump\t// in\n    tag_547:\n        /* \"#utility.yul\":21166:21168   */\n      0x20\n        /* \"#utility.yul\":21161:21164   */\n      dup3\n        /* \"#utility.yul\":21157:21169   */\n      add\n        /* \"#utility.yul\":21150:21169   */\n      swap1\n      pop\n        /* \"#utility.yul\":20809:21175   */\n      swap2\n      swap1\n      pop\n      jump\t// out\n        /* \"#utility.yul\":21181:21600   */\n    tag_288:\n        /* \"#utility.yul\":21347:21351   */\n      0x00\n        /* \"#utility.yul\":21385:21387   */\n      0x20\n        /* \"#utility.yul\":21374:21383   */\n      dup3\n        /* \"#utility.yul\":21370:21388   */\n      add\n        /* \"#utility.yul\":21362:21388   */\n      swap1\n      pop\n        /* \"#utility.yul\":21434:21443   */\n      dup2\n        /* \"#utility.yul\":21428:21432   */\n      dup2\n        /* \"#utility.yul\":21424:21444   */\n      sub\n        /* \"#utility.yul\":21420:21421   */\n      0x00\n        /* \"#utility.yul\":21409:21418   */\n      dup4\n        /* \"#utility.yul\":21405:21422   */\n      add\n        /* \"#utility.yul\":21398:21445   */\n      mstore\n        /* \"#utility.yul\":21462:21593   */\n      tag_549\n        /* \"#utility.yul\":21588:21592   */\n      dup2\n        /* \"#utility.yul\":21462:21593   */\n      tag_355\n      jump\t// in\n    tag_549:\n        /* \"#utility.yul\":21454:21593   */\n      swap1\n      pop\n        /* \"#utility.yul\":21181:21600   */\n      swap2\n      swap1\n      pop\n      jump\t// out\n        /* \"#utility.yul\":21606:21704   */\n    tag_356:\n        /* \"#utility.yul\":21657:21663   */\n      0x00\n        /* \"#utility.yul\":21691:21696   */\n      dup2\n        /* \"#utility.yul\":21685:21697   */\n      mload\n        /* \"#utility.yul\":21675:21697   */\n      swap1\n      pop\n        /* \"#utility.yul\":21606:21704   */\n      swap2\n      swap1\n      pop\n      jump\t// out\n        /* \"#utility.yul\":21710:21857   */\n    tag_357:\n        /* \"#utility.yul\":21811:21822   */\n      0x00\n        /* \"#utility.yul\":21848:21851   */\n      dup2\n        /* \"#utility.yul\":21833:21851   */\n      swap1\n      pop\n        /* \"#utility.yul\":21710:21857   */\n      swap3\n      swap2\n      pop\n      pop\n      jump\t// out\n        /* \"#utility.yul\":21863:22170   */\n    tag_358:\n        /* \"#utility.yul\":21931:21932   */\n      0x00\n        /* \"#utility.yul\":21941:22054   */\n    tag_553:\n        /* \"#utility.yul\":21955:21961   */\n      dup4\n        /* \"#utility.yul\":21952:21953   */\n      dup2\n        /* \"#utility.yul\":21949:21962   */\n      lt\n        /* \"#utility.yul\":21941:22054   */\n      iszero\n      tag_555\n      jumpi\n        /* \"#utility.yul\":22040:22041   */\n      dup1\n        /* \"#utility.yul\":22035:22038   */\n      dup3\n        /* \"#utility.yul\":22031:22042   */\n      add\n        /* \"#utility.yul\":22025:22043   */\n      mload\n        /* \"#utility.yul\":22021:22022   */\n      dup2\n        /* \"#utility.yul\":22016:22019   */\n      dup5\n        /* \"#utility.yul\":22012:22023   */\n      add\n        /* \"#utility.yul\":22005:22044   */\n      mstore\n        /* \"#utility.yul\":21977:21979   */\n      0x20\n        /* \"#utility.yul\":21974:21975   */\n      dup2\n        /* \"#utility.yul\":21970:21980   */\n      add\n        /* \"#utility.yul\":21965:21980   */\n      swap1\n      pop\n        /* \"#utility.yul\":21941:22054   */\n      jump(tag_553)\n    tag_555:\n        /* \"#utility.yul\":22072:22078   */\n      dup4\n        /* \"#utility.yul\":22069:22070   */\n      dup2\n        /* \"#utility.yul\":22066:22079   */\n      gt\n        /* \"#utility.yul\":22063:22164   */\n      iszero\n      tag_556\n      jumpi\n        /* \"#utility.yul\":22152:22153   */\n      0x00\n        /* \"#utility.yul\":22143:22149   */\n      dup5\n        /* \"#utility.yul\":22138:22141   */\n      dup5\n        /* \"#utility.yul\":22134:22150   */\n      add\n        /* \"#utility.yul\":22127:22154   */\n      mstore\n        /* \"#utility.yul\":22063:22164   */\n    tag_556:\n        /* \"#utility.yul\":21912:22170   */\n      pop\n        /* \"#utility.yul\":21863:22170   */\n      pop\n      pop\n      pop\n      jump\t// out\n        /* \"#utility.yul\":22176:22549   */\n    tag_359:\n        /* \"#utility.yul\":22280:22283   */\n      0x00\n        /* \"#utility.yul\":22308:22346   */\n      tag_558\n        /* \"#utility.yul\":22340:22345   */\n      dup3\n        /* \"#utility.yul\":22308:22346   */\n      tag_356\n      jump\t// in\n    tag_558:\n        /* \"#utility.yul\":22362:22450   */\n      tag_559\n        /* \"#utility.yul\":22443:22449   */\n      dup2\n        /* \"#utility.yul\":22438:22441   */\n      dup6\n        /* \"#utility.yul\":22362:22450   */\n      tag_357\n      jump\t// in\n    tag_559:\n        /* \"#utility.yul\":22355:22450   */\n      swap4\n      pop\n        /* \"#utility.yul\":22459:22511   */\n      tag_560\n        /* \"#utility.yul\":22504:22510   */\n      dup2\n        /* \"#utility.yul\":22499:22502   */\n      dup6\n        /* \"#utility.yul\":22492:22496   */\n      0x20\n        /* \"#utility.yul\":22485:22490   */\n      dup7\n        /* \"#utility.yul\":22481:22497   */\n      add\n        /* \"#utility.yul\":22459:22511   */\n      tag_358\n      jump\t// in\n    tag_560:\n        /* \"#utility.yul\":22536:22542   */\n      dup1\n        /* \"#utility.yul\":22531:22534   */\n      dup5\n        /* \"#utility.yul\":22527:22543   */\n      add\n        /* \"#utility.yul\":22520:22543   */\n      swap2\n      pop\n        /* \"#utility.yul\":22284:22549   */\n      pop\n        /* \"#utility.yul\":22176:22549   */\n      swap3\n      swap2\n      pop\n      pop\n      jump\t// out\n        /* \"#utility.yul\":22555:22826   */\n    tag_290:\n        /* \"#utility.yul\":22685:22688   */\n      0x00\n        /* \"#utility.yul\":22707:22800   */\n      tag_562\n        /* \"#utility.yul\":22796:22799   */\n      dup3\n        /* \"#utility.yul\":22787:22793   */\n      dup5\n        /* \"#utility.yul\":22707:22800   */\n      tag_359\n      jump\t// in\n    tag_562:\n        /* \"#utility.yul\":22700:22800   */\n      swap2\n      pop\n        /* \"#utility.yul\":22817:22820   */\n      dup2\n        /* \"#utility.yul\":22810:22820   */\n      swap1\n      pop\n        /* \"#utility.yul\":22555:22826   */\n      swap3\n      swap2\n      pop\n      pop\n      jump\t// out\n        /* \"#utility.yul\":22832:22931   */\n    tag_360:\n        /* \"#utility.yul\":22884:22890   */\n      0x00\n        /* \"#utility.yul\":22918:22923   */\n      dup2\n        /* \"#utility.yul\":22912:22924   */\n      mload\n        /* \"#utility.yul\":22902:22924   */\n      swap1\n      pop\n        /* \"#utility.yul\":22832:22931   */\n      swap2\n      swap1\n      pop\n      jump\t// out\n        /* \"#utility.yul\":22937:23039   */\n    tag_361:\n        /* \"#utility.yul\":22978:22984   */\n      0x00\n        /* \"#utility.yul\":23029:23031   */\n      0x1f\n        /* \"#utility.yul\":23025:23032   */\n      not\n        /* \"#utility.yul\":23020:23022   */\n      0x1f\n        /* \"#utility.yul\":23013:23018   */\n      dup4\n        /* \"#utility.yul\":23009:23023   */\n      add\n        /* \"#utility.yul\":23005:23033   */\n      and\n        /* \"#utility.yul\":22995:23033   */\n      swap1\n      pop\n        /* \"#utility.yul\":22937:23039   */\n      swap2\n      swap1\n      pop\n      jump\t// out\n        /* \"#utility.yul\":23045:23409   */\n    tag_362:\n        /* \"#utility.yul\":23133:23136   */\n      0x00\n        /* \"#utility.yul\":23161:23200   */\n      tag_566\n        /* \"#utility.yul\":23194:23199   */\n      dup3\n        /* \"#utility.yul\":23161:23200   */\n      tag_360\n      jump\t// in\n    tag_566:\n        /* \"#utility.yul\":23216:23287   */\n      tag_567\n        /* \"#utility.yul\":23280:23286   */\n      dup2\n        /* \"#utility.yul\":23275:23278   */\n      dup6\n        /* \"#utility.yul\":23216:23287   */\n      tag_321\n      jump\t// in\n    tag_567:\n        /* \"#utility.yul\":23209:23287   */\n      swap4\n      pop\n        /* \"#utility.yul\":23296:23348   */\n      tag_568\n        /* \"#utility.yul\":23341:23347   */\n      dup2\n        /* \"#utility.yul\":23336:23339   */\n      dup6\n        /* \"#utility.yul\":23329:23333   */\n      0x20\n        /* \"#utility.yul\":23322:23327   */\n      dup7\n        /* \"#utility.yul\":23318:23334   */\n      add\n        /* \"#utility.yul\":23296:23348   */\n      tag_358\n      jump\t// in\n    tag_568:\n        /* \"#utility.yul\":23373:23402   */\n      tag_569\n        /* \"#utility.yul\":23395:23401   */\n      dup2\n        /* \"#utility.yul\":23373:23402   */\n      tag_361\n      jump\t// in\n    tag_569:\n        /* \"#utility.yul\":23368:23371   */\n      dup5\n        /* \"#utility.yul\":23364:23403   */\n      add\n        /* \"#utility.yul\":23357:23403   */\n      swap2\n      pop\n        /* \"#utility.yul\":23137:23409   */\n      pop\n        /* \"#utility.yul\":23045:23409   */\n      swap3\n      swap2\n      pop\n      pop\n      jump\t// out\n        /* \"#utility.yul\":23415:23728   */\n    tag_303:\n        /* \"#utility.yul\":23528:23532   */\n      0x00\n        /* \"#utility.yul\":23566:23568   */\n      0x20\n        /* \"#utility.yul\":23555:23564   */\n      dup3\n        /* \"#utility.yul\":23551:23569   */\n      add\n        /* \"#utility.yul\":23543:23569   */\n      swap1\n      pop\n        /* \"#utility.yul\":23615:23624   */\n      dup2\n        /* \"#utility.yul\":23609:23613   */\n      dup2\n        /* \"#utility.yul\":23605:23625   */\n      sub\n        /* \"#utility.yul\":23601:23602   */\n      0x00\n        /* \"#utility.yul\":23590:23599   */\n      dup4\n        /* \"#utility.yul\":23586:23603   */\n      add\n        /* \"#utility.yul\":23579:23626   */\n      mstore\n        /* \"#utility.yul\":23643:23721   */\n      tag_571\n        /* \"#utility.yul\":23716:23720   */\n      dup2\n        /* \"#utility.yul\":23707:23713   */\n      dup5\n        /* \"#utility.yul\":23643:23721   */\n      tag_362\n      jump\t// in\n    tag_571:\n        /* \"#utility.yul\":23635:23721   */\n      swap1\n      pop\n        /* \"#utility.yul\":23415:23728   */\n      swap3\n      swap2\n      pop\n      pop\n      jump\t// out\n\n    auxdata: 0xa2646970667358221220f86690e040cdcae6ede31357e99b3fccadce3535502bf7a41ab0d62b8602eb4864736f6c634300080a0033\n}\n",
				"bytecode": {
					"linkReferences": {},
					"object": "60806040523480156200001157600080fd5b5060405162002a4d38038062002a4d83398181016040528101906200003791906200024c565b620000576200004b620000f160201b60201c565b620000f960201b60201c565b62000067620001bd60201b60201c565b80600560006101000a81548173ffffffffffffffffffffffffffffffffffffffff021916908373ffffffffffffffffffffffffffffffffffffffff16021790555081600860006101000a81548173ffffffffffffffffffffffffffffffffffffffff021916908373ffffffffffffffffffffffffffffffffffffffff160217905550505062000293565b600033905090565b60008060009054906101000a900473ffffffffffffffffffffffffffffffffffffffff169050816000806101000a81548173ffffffffffffffffffffffffffffffffffffffff021916908373ffffffffffffffffffffffffffffffffffffffff1602179055508173ffffffffffffffffffffffffffffffffffffffff168173ffffffffffffffffffffffffffffffffffffffff167f8be0079c531659141344cd1fd0a4f28419497f9722a3daafe3b4186f6b6457e060405160405180910390a35050565b607d6003819055506105dc60018190555060c860048190555062093a80600281905550565b600080fd5b600073ffffffffffffffffffffffffffffffffffffffff82169050919050565b60006200021482620001e7565b9050919050565b620002268162000207565b81146200023257600080fd5b50565b60008151905062000246816200021b565b92915050565b60008060408385031215620002665762000265620001e2565b5b6000620002768582860162000235565b9250506020620002898582860162000235565b9150509250929050565b6127aa80620002a36000396000f3fe608060405234801561001057600080fd5b50600436106101005760003560e01c8063817b1cd211610097578063a694fc3a11610066578063a694fc3a14610239578063f2fde38b14610255578063f7b2a7be14610271578063fc0c546a1461028f57610100565b8063817b1cd2146101c55780638a9d3839146101e35780638da5cb5b146101ff57806391e07e7a1461021d57610100565b806350f19c87116100d357806350f19c87146101655780635d2ec65d14610181578063692642e71461019f578063715018a6146101bb57610100565b80632e1a7d4d14610105578063373d6132146101215780634641257d1461013f5780634b77dd9e14610149575b600080fd5b61011f600480360381019061011a9190611b6a565b6102ad565b005b610129610646565b6040516101369190611ba6565b60405180910390f35b610147610690565b005b610163600480360381019061015e9190611bc1565b6109a3565b005b61017f600480360381019061017a9190611b6a565b610be4565b005b610189610ce4565b6040516101969190611ba6565b60405180910390f35b6101b960048036038101906101b49190611b6a565b610d2e565b005b6101c3610e43565b005b6101cd610ecb565b6040516101da9190611ba6565b60405180910390f35b6101fd60048036038101906101f89190611c5f565b610ed1565b005b610207611037565b6040516102149190611c9b565b60405180910390f35b61023760048036038101906102329190611b6a565b611060565b005b610253600480360381019061024e9190611b6a565b611160565b005b61026f600480360381019061026a9190611c5f565b611391565b005b610279611489565b6040516102869190611ba6565b60405180910390f35b6102976114d3565b6040516102a49190611d15565b60405180910390f35b6000600660003373ffffffffffffffffffffffffffffffffffffffff1673ffffffffffffffffffffffffffffffffffffffff168152602001908152602001600020905060008211610333576040517f08c379a000000000000000000000000000000000000000000000000000000000815260040161032a90611d8d565b60405180910390fd5b806001015482111561037a576040517f08c379a000000000000000000000000000000000000000000000000000000000815260040161037190611df9565b60405180910390fd5b6103826114f9565b6000600860009054906101000a900473ffffffffffffffffffffffffffffffffffffffff1673ffffffffffffffffffffffffffffffffffffffff166370a08231306040518263ffffffff1660e01b81526004016103df9190611c9b565b602060405180830381865afa1580156103fc573d6000803e3d6000fd5b505050506040513d601f19601f820116820180604052508101906104209190611e2e565b83106104c757600860009054906101000a900473ffffffffffffffffffffffffffffffffffffffff1673ffffffffffffffffffffffffffffffffffffffff166370a08231306040518263ffffffff1660e01b81526004016104819190611c9b565b602060405180830381865afa15801561049e573d6000803e3d6000fd5b505050506040513d601f19601f820116820180604052508101906104c29190611e2e565b6104c9565b825b90506000806002546104fd620151806104ef87600301544261166090919063ffffffff16565b61167690919063ffffffff16565b6105079190611e8a565b14610513576001610516565b60005b60ff16905061057e61056f61271061056160015461055387610545888b6002015461168c90919063ffffffff16565b61168c90919063ffffffff16565b61168c90919063ffffffff16565b61167690919063ffffffff16565b8361166090919063ffffffff16565b91506105958260075461166090919063ffffffff16565b6007819055506105b282846001015461166090919063ffffffff16565b83600101819055506106073383600860009054906101000a900473ffffffffffffffffffffffffffffffffffffffff1673ffffffffffffffffffffffffffffffffffffffff166116a29092919063ffffffff16565b7f884edad9ce6fa2440d8a54cc123490eb96d2768479d49ff9c7366125a94243643383604051610638929190611ebb565b60405180910390a150505050565b6000600660003373ffffffffffffffffffffffffffffffffffffffff1673ffffffffffffffffffffffffffffffffffffffff16815260200190815260200160002060010154905090565b6106986114f9565b6000600660003373ffffffffffffffffffffffffffffffffffffffff1673ffffffffffffffffffffffffffffffffffffffff1681526020019081526020016000209050600061072061070d6127106106ff600454866000015461168c90919063ffffffff16565b61167690919063ffffffff16565b836000015461166090919063ffffffff16565b905060008111610765576040517f08c379a000000000000000000000000000000000000000000000000000000000815260040161075c90611f30565b60405180910390fd5b600860009054906101000a900473ffffffffffffffffffffffffffffffffffffffff1673ffffffffffffffffffffffffffffffffffffffff166370a08231600560009054906101000a900473ffffffffffffffffffffffffffffffffffffffff166040518263ffffffff1660e01b81526004016107e29190611c9b565b602060405180830381865afa1580156107ff573d6000803e3d6000fd5b505050506040513d601f19601f820116820180604052508101906108239190611e2e565b8111156108eb57600860009054906101000a900473ffffffffffffffffffffffffffffffffffffffff1673ffffffffffffffffffffffffffffffffffffffff166370a08231600560009054906101000a900473ffffffffffffffffffffffffffffffffffffffff166040518263ffffffff1660e01b81526004016108a79190611c9b565b602060405180830381865afa1580156108c4573d6000803e3d6000fd5b505050506040513d601f19601f820116820180604052508101906108e89190611e2e565b90505b61095c600560009054906101000a900473ffffffffffffffffffffffffffffffffffffffff163383600860009054906101000a900473ffffffffffffffffffffffffffffffffffffffff1673ffffffffffffffffffffffffffffffffffffffff16611728909392919063ffffffff16565b600082600001819055507fc9695243a805adb74c91f28311176c65b417e842d5699893cef56d18bfa48cba3382604051610997929190611ebb565b60405180910390a15050565b600082116109e6576040517f08c379a00000000000000000000000000000000000000000000000000000000081526004016109dd90611d8d565b60405180910390fd5b81600860009054906101000a900473ffffffffffffffffffffffffffffffffffffffff1673ffffffffffffffffffffffffffffffffffffffff166370a08231336040518263ffffffff1660e01b8152600401610a429190611c9b565b602060405180830381865afa158015610a5f573d6000803e3d6000fd5b505050506040513d601f19601f82011682018060405250810190610a839190611e2e565b11610ac3576040517f08c379a0000000000000000000000000000000000000000000000000000000008152600401610aba90611f9c565b60405180910390fd5b6000600660003373ffffffffffffffffffffffffffffffffffffffff1673ffffffffffffffffffffffffffffffffffffffff168152602001908152602001600020600301541415610b49576040517f08c379a0000000000000000000000000000000000000000000000000000000008152600401610b4090612008565b60405180910390fd5b80600660003373ffffffffffffffffffffffffffffffffffffffff1673ffffffffffffffffffffffffffffffffffffffff1681526020019081526020016000206002018190555042600660003373ffffffffffffffffffffffffffffffffffffffff1673ffffffffffffffffffffffffffffffffffffffff16815260200190815260200160002060030181905550610be082611160565b5050565b610bec6117b1565b73ffffffffffffffffffffffffffffffffffffffff16610c0a611037565b73ffffffffffffffffffffffffffffffffffffffff1614610c60576040517f08c379a0000000000000000000000000000000000000000000000000000000008152600401610c5790612074565b60405180910390fd5b60008111610ca3576040517f08c379a0000000000000000000000000000000000000000000000000000000008152600401610c9a906120e0565b60405180910390fd5b806003819055507fb8f51888a0746f534a064d0d08f74852a939d6cd181760e1cedc7a8396d9e22f81604051610cd99190611ba6565b60405180910390a150565b6000600660003373ffffffffffffffffffffffffffffffffffffffff1673ffffffffffffffffffffffffffffffffffffffff16815260200190815260200160002060000154905090565b610d366117b1565b73ffffffffffffffffffffffffffffffffffffffff16610d54611037565b73ffffffffffffffffffffffffffffffffffffffff1614610daa576040517f08c379a0000000000000000000000000000000000000000000000000000000008152600401610da190612074565b60405180910390fd5b60008111610ded576040517f08c379a0000000000000000000000000000000000000000000000000000000008152600401610de49061214c565b60405180910390fd5b610e03620151808261168c90919063ffffffff16565b6002819055507f189bda9782663c67a3f95c0aa5455924c711210b00281c60ead2f0dd8dbc924c81604051610e389190611ba6565b60405180910390a150565b610e4b6117b1565b73ffffffffffffffffffffffffffffffffffffffff16610e69611037565b73ffffffffffffffffffffffffffffffffffffffff1614610ebf576040517f08c379a0000000000000000000000000000000000000000000000000000000008152600401610eb690612074565b60405180910390fd5b610ec960006117b9565b565b60075481565b610ed96117b1565b73ffffffffffffffffffffffffffffffffffffffff16610ef7611037565b73ffffffffffffffffffffffffffffffffffffffff1614610f4d576040517f08c379a0000000000000000000000000000000000000000000000000000000008152600401610f4490612074565b60405180910390fd5b600073ffffffffffffffffffffffffffffffffffffffff168173ffffffffffffffffffffffffffffffffffffffff1611610fbc576040517f08c379a0000000000000000000000000000000000000000000000000000000008152600401610fb3906121de565b60405180910390fd5b80600560006101000a81548173ffffffffffffffffffffffffffffffffffffffff021916908373ffffffffffffffffffffffffffffffffffffffff1602179055507feda87051e2996c46ee8d576509ffc1826e6df46eef99072f838fecbb88992a878160405161102c9190611c9b565b60405180910390a150565b60008060009054906101000a900473ffffffffffffffffffffffffffffffffffffffff16905090565b6110686117b1565b73ffffffffffffffffffffffffffffffffffffffff16611086611037565b73ffffffffffffffffffffffffffffffffffffffff16146110dc576040517f08c379a00000000000000000000000000000000000000000000000000000000081526004016110d390612074565b60405180910390fd5b6000811161111f576040517f08c379a00000000000000000000000000000000000000000000000000000000081526004016111169061224a565b60405180910390fd5b806001819055507f150c688dd7595bf7862b8ab1fe46756450eb7d731037942b3bbc46f3f0e21b81816040516111559190611ba6565b60405180910390a150565b600081116111a3576040517f08c379a000000000000000000000000000000000000000000000000000000000815260040161119a90611d8d565b60405180910390fd5b80600860009054906101000a900473ffffffffffffffffffffffffffffffffffffffff1673ffffffffffffffffffffffffffffffffffffffff166370a08231336040518263ffffffff1660e01b81526004016111ff9190611c9b565b602060405180830381865afa15801561121c573d6000803e3d6000fd5b505050506040513d601f19601f820116820180604052508101906112409190611e2e565b11611280576040517f08c379a000000000000000000000000000000000000000000000000000000000815260040161127790611f9c565b60405180910390fd5b6112886114f9565b6000600660003373ffffffffffffffffffffffffffffffffffffffff1673ffffffffffffffffffffffffffffffffffffffff168152602001908152602001600020905061131a333084600860009054906101000a900473ffffffffffffffffffffffffffffffffffffffff1673ffffffffffffffffffffffffffffffffffffffff16611728909392919063ffffffff16565b61133182826001015461187d90919063ffffffff16565b816001018190555061134e8260075461187d90919063ffffffff16565b6007819055507f9e71bc8eea02a63969f509818f2dafb9254532904319f9dbda79b67bd34a5f3d3383604051611385929190611ebb565b60405180910390a15050565b6113996117b1565b73ffffffffffffffffffffffffffffffffffffffff166113b7611037565b73ffffffffffffffffffffffffffffffffffffffff161461140d576040517f08c379a000000000000000000000000000000000000000000000000000000000815260040161140490612074565b60405180910390fd5b600073ffffffffffffffffffffffffffffffffffffffff168173ffffffffffffffffffffffffffffffffffffffff16141561147d576040517f08c379a0000000000000000000000000000000000000000000000000000000008152600401611474906122dc565b60405180910390fd5b611486816117b9565b50565b6000600660003373ffffffffffffffffffffffffffffffffffffffff1673ffffffffffffffffffffffffffffffffffffffff16815260200190815260200160002060000154905090565b600860009054906101000a900473ffffffffffffffffffffffffffffffffffffffff1681565b6000600660003373ffffffffffffffffffffffffffffffffffffffff1673ffffffffffffffffffffffffffffffffffffffff1681526020019081526020016000209050806004015442101561154e575061165e565b6000611568826003015442611563919061232b565b611893565b905060006115ab61271061159d60035461158f86886001015461168c90919063ffffffff16565b61168c90919063ffffffff16565b61167690919063ffffffff16565b90506001836002015414156116325760006115d16002548461167690919063ffffffff16565b905061162e6127106116206115fb6115ea600254611893565b60035461168c90919063ffffffff16565b61161285896001015461168c90919063ffffffff16565b61168c90919063ffffffff16565b61167690919063ffffffff16565b9150505b61164981846000015461187d90919063ffffffff16565b83600001819055504283600401819055505050505b565b6000818361166e919061232b565b905092915050565b60008183611684919061235f565b905092915050565b6000818361169a9190612390565b905092915050565b6117238363a9059cbb60e01b84846040516024016116c1929190611ebb565b604051602081830303815290604052907bffffffffffffffffffffffffffffffffffffffffffffffffffffffff19166020820180517bffffffffffffffffffffffffffffffffffffffffffffffffffffffff83818316178352505050506118b2565b505050565b6117ab846323b872dd60e01b858585604051602401611749939291906123ea565b604051602081830303815290604052907bffffffffffffffffffffffffffffffffffffffffffffffffffffffff19166020820180517bffffffffffffffffffffffffffffffffffffffffffffffffffffffff83818316178352505050506118b2565b50505050565b600033905090565b60008060009054906101000a900473ffffffffffffffffffffffffffffffffffffffff169050816000806101000a81548173ffffffffffffffffffffffffffffffffffffffff021916908373ffffffffffffffffffffffffffffffffffffffff1602179055508173ffffffffffffffffffffffffffffffffffffffff168173ffffffffffffffffffffffffffffffffffffffff167f8be0079c531659141344cd1fd0a4f28419497f9722a3daafe3b4186f6b6457e060405160405180910390a35050565b6000818361188b9190612421565b905092915050565b60006118ab620151808361167690919063ffffffff16565b9050919050565b6000611914826040518060400160405280602081526020017f5361666542455032303a206c6f772d6c6576656c2063616c6c206661696c65648152508573ffffffffffffffffffffffffffffffffffffffff166119799092919063ffffffff16565b9050600081511115611974578080602001905181019061193491906124af565b611973576040517f08c379a000000000000000000000000000000000000000000000000000000000815260040161196a9061254e565b60405180910390fd5b5b505050565b60606119888484600085611991565b90509392505050565b6060824710156119d6576040517f08c379a00000000000000000000000000000000000000000000000000000000081526004016119cd906125e0565b60405180910390fd5b6119df85611aa5565b611a1e576040517f08c379a0000000000000000000000000000000000000000000000000000000008152600401611a159061264c565b60405180910390fd5b6000808673ffffffffffffffffffffffffffffffffffffffff168587604051611a4791906126e6565b60006040518083038185875af1925050503d8060008114611a84576040519150601f19603f3d011682016040523d82523d6000602084013e611a89565b606091505b5091509150611a99828286611ac8565b92505050949350505050565b6000808273ffffffffffffffffffffffffffffffffffffffff163b119050919050565b60608315611ad857829050611b28565b600083511115611aeb5782518084602001fd5b816040517f08c379a0000000000000000000000000000000000000000000000000000000008152600401611b1f9190612752565b60405180910390fd5b9392505050565b600080fd5b6000819050919050565b611b4781611b34565b8114611b5257600080fd5b50565b600081359050611b6481611b3e565b92915050565b600060208284031215611b8057611b7f611b2f565b5b6000611b8e84828501611b55565b91505092915050565b611ba081611b34565b82525050565b6000602082019050611bbb6000830184611b97565b92915050565b60008060408385031215611bd857611bd7611b2f565b5b6000611be685828601611b55565b9250506020611bf785828601611b55565b9150509250929050565b600073ffffffffffffffffffffffffffffffffffffffff82169050919050565b6000611c2c82611c01565b9050919050565b611c3c81611c21565b8114611c4757600080fd5b50565b600081359050611c5981611c33565b92915050565b600060208284031215611c7557611c74611b2f565b5b6000611c8384828501611c4a565b91505092915050565b611c9581611c21565b82525050565b6000602082019050611cb06000830184611c8c565b92915050565b6000819050919050565b6000611cdb611cd6611cd184611c01565b611cb6565b611c01565b9050919050565b6000611ced82611cc0565b9050919050565b6000611cff82611ce2565b9050919050565b611d0f81611cf4565b82525050565b6000602082019050611d2a6000830184611d06565b92915050565b600082825260208201905092915050565b7f416d6f756e742073686f756c642062652067726561746572207468616e203000600082015250565b6000611d77601f83611d30565b9150611d8282611d41565b602082019050919050565b60006020820190508181036000830152611da681611d6a565b9050919050565b7f496e76616c696420616d6f756e74000000000000000000000000000000000000600082015250565b6000611de3600e83611d30565b9150611dee82611dad565b602082019050919050565b60006020820190508181036000830152611e1281611dd6565b9050919050565b600081519050611e2881611b3e565b92915050565b600060208284031215611e4457611e43611b2f565b5b6000611e5284828501611e19565b91505092915050565b7f4e487b7100000000000000000000000000000000000000000000000000000000600052601260045260246000fd5b6000611e9582611b34565b9150611ea083611b34565b925082611eb057611eaf611e5b565b5b828206905092915050565b6000604082019050611ed06000830185611c8c565b611edd6020830184611b97565b9392505050565b7f4e6f7468696e6720746f20636c61696d00000000000000000000000000000000600082015250565b6000611f1a601083611d30565b9150611f2582611ee4565b602082019050919050565b60006020820190508181036000830152611f4981611f0d565b9050919050565b7f496e73756666696369656e742100000000000000000000000000000000000000600082015250565b6000611f86600d83611d30565b9150611f9182611f50565b602082019050919050565b60006020820190508181036000830152611fb581611f79565b9050919050565b7f416c726561647920737461727465640000000000000000000000000000000000600082015250565b6000611ff2600f83611d30565b9150611ffd82611fbc565b602082019050919050565b6000602082019050818103600083015261202181611fe5565b9050919050565b7f4f776e61626c653a2063616c6c6572206973206e6f7420746865206f776e6572600082015250565b600061205e602083611d30565b915061206982612028565b602082019050919050565b6000602082019050818103600083015261208d81612051565b9050919050565b7f496e76616c696420415059000000000000000000000000000000000000000000600082015250565b60006120ca600b83611d30565b91506120d582612094565b602082019050919050565b600060208201905081810360008301526120f9816120bd565b9050919050565b7f496e76616c6964204c6f636b7570204475726174696f6e000000000000000000600082015250565b6000612136601783611d30565b915061214182612100565b602082019050919050565b6000602082019050818103600083015261216581612129565b9050919050565b7f496e76616c696420416464726573732e20416464726573732063616e2774206260008201527f65207a65726f0000000000000000000000000000000000000000000000000000602082015250565b60006121c8602683611d30565b91506121d38261216c565b604082019050919050565b600060208201905081810360008301526121f7816121bb565b9050919050565b7f496e76616c696420556e7374616b696e67204665652052617465000000000000600082015250565b6000612234601a83611d30565b915061223f826121fe565b602082019050919050565b6000602082019050818103600083015261226381612227565b9050919050565b7f4f776e61626c653a206e6577206f776e657220697320746865207a65726f206160008201527f6464726573730000000000000000000000000000000000000000000000000000602082015250565b60006122c6602683611d30565b91506122d18261226a565b604082019050919050565b600060208201905081810360008301526122f5816122b9565b9050919050565b7f4e487b7100000000000000000000000000000000000000000000000000000000600052601160045260246000fd5b600061233682611b34565b915061234183611b34565b925082821015612354576123536122fc565b5b828203905092915050565b600061236a82611b34565b915061237583611b34565b92508261238557612384611e5b565b5b828204905092915050565b600061239b82611b34565b91506123a683611b34565b9250817fffffffffffffffffffffffffffffffffffffffffffffffffffffffffffffffff04831182151516156123df576123de6122fc565b5b828202905092915050565b60006060820190506123ff6000830186611c8c565b61240c6020830185611c8c565b6124196040830184611b97565b949350505050565b600061242c82611b34565b915061243783611b34565b9250827fffffffffffffffffffffffffffffffffffffffffffffffffffffffffffffffff0382111561246c5761246b6122fc565b5b828201905092915050565b60008115159050919050565b61248c81612477565b811461249757600080fd5b50565b6000815190506124a981612483565b92915050565b6000602082840312156124c5576124c4611b2f565b5b60006124d38482850161249a565b91505092915050565b7f5361666542455032303a204245503230206f7065726174696f6e20646964206e60008201527f6f74207375636365656400000000000000000000000000000000000000000000602082015250565b6000612538602a83611d30565b9150612543826124dc565b604082019050919050565b600060208201905081810360008301526125678161252b565b9050919050565b7f416464726573733a20696e73756666696369656e742062616c616e636520666f60008201527f722063616c6c0000000000000000000000000000000000000000000000000000602082015250565b60006125ca602683611d30565b91506125d58261256e565b604082019050919050565b600060208201905081810360008301526125f9816125bd565b9050919050565b7f416464726573733a2063616c6c20746f206e6f6e2d636f6e7472616374000000600082015250565b6000612636601d83611d30565b915061264182612600565b602082019050919050565b6000602082019050818103600083015261266581612629565b9050919050565b600081519050919050565b600081905092915050565b60005b838110156126a0578082015181840152602081019050612685565b838111156126af576000848401525b50505050565b60006126c08261266c565b6126ca8185612677565b93506126da818560208601612682565b80840191505092915050565b60006126f282846126b5565b915081905092915050565b600081519050919050565b6000601f19601f8301169050919050565b6000612724826126fd565b61272e8185611d30565b935061273e818560208601612682565b61274781612708565b840191505092915050565b6000602082019050818103600083015261276c8184612719565b90509291505056fea2646970667358221220f86690e040cdcae6ede31357e99b3fccadce3535502bf7a41ab0d62b8602eb4864736f6c634300080a0033",
					"opcodes": "PUSH1 0x80 PUSH1 0x40 MSTORE CALLVALUE DUP1 ISZERO PUSH3 0x11 JUMPI PUSH1 0x0 DUP1 REVERT JUMPDEST POP PUSH1 0x40 MLOAD PUSH3 0x2A4D CODESIZE SUB DUP1 PUSH3 0x2A4D DUP4 CODECOPY DUP2 DUP2 ADD PUSH1 0x40 MSTORE DUP2 ADD SWAP1 PUSH3 0x37 SWAP2 SWAP1 PUSH3 0x24C JUMP JUMPDEST PUSH3 0x57 PUSH3 0x4B PUSH3 0xF1 PUSH1 0x20 SHL PUSH1 0x20 SHR JUMP JUMPDEST PUSH3 0xF9 PUSH1 0x20 SHL PUSH1 0x20 SHR JUMP JUMPDEST PUSH3 0x67 PUSH3 0x1BD PUSH1 0x20 SHL PUSH1 0x20 SHR JUMP JUMPDEST DUP1 PUSH1 0x5 PUSH1 0x0 PUSH2 0x100 EXP DUP2 SLOAD DUP2 PUSH20 0xFFFFFFFFFFFFFFFFFFFFFFFFFFFFFFFFFFFFFFFF MUL NOT AND SWAP1 DUP4 PUSH20 0xFFFFFFFFFFFFFFFFFFFFFFFFFFFFFFFFFFFFFFFF AND MUL OR SWAP1 SSTORE POP DUP2 PUSH1 0x8 PUSH1 0x0 PUSH2 0x100 EXP DUP2 SLOAD DUP2 PUSH20 0xFFFFFFFFFFFFFFFFFFFFFFFFFFFFFFFFFFFFFFFF MUL NOT AND SWAP1 DUP4 PUSH20 0xFFFFFFFFFFFFFFFFFFFFFFFFFFFFFFFFFFFFFFFF AND MUL OR SWAP1 SSTORE POP POP POP PUSH3 0x293 JUMP JUMPDEST PUSH1 0x0 CALLER SWAP1 POP SWAP1 JUMP JUMPDEST PUSH1 0x0 DUP1 PUSH1 0x0 SWAP1 SLOAD SWAP1 PUSH2 0x100 EXP SWAP1 DIV PUSH20 0xFFFFFFFFFFFFFFFFFFFFFFFFFFFFFFFFFFFFFFFF AND SWAP1 POP DUP2 PUSH1 0x0 DUP1 PUSH2 0x100 EXP DUP2 SLOAD DUP2 PUSH20 0xFFFFFFFFFFFFFFFFFFFFFFFFFFFFFFFFFFFFFFFF MUL NOT AND SWAP1 DUP4 PUSH20 0xFFFFFFFFFFFFFFFFFFFFFFFFFFFFFFFFFFFFFFFF AND MUL OR SWAP1 SSTORE POP DUP2 PUSH20 0xFFFFFFFFFFFFFFFFFFFFFFFFFFFFFFFFFFFFFFFF AND DUP2 PUSH20 0xFFFFFFFFFFFFFFFFFFFFFFFFFFFFFFFFFFFFFFFF AND PUSH32 0x8BE0079C531659141344CD1FD0A4F28419497F9722A3DAAFE3B4186F6B6457E0 PUSH1 0x40 MLOAD PUSH1 0x40 MLOAD DUP1 SWAP2 SUB SWAP1 LOG3 POP POP JUMP JUMPDEST PUSH1 0x7D PUSH1 0x3 DUP2 SWAP1 SSTORE POP PUSH2 0x5DC PUSH1 0x1 DUP2 SWAP1 SSTORE POP PUSH1 0xC8 PUSH1 0x4 DUP2 SWAP1 SSTORE POP PUSH3 0x93A80 PUSH1 0x2 DUP2 SWAP1 SSTORE POP JUMP JUMPDEST PUSH1 0x0 DUP1 REVERT JUMPDEST PUSH1 0x0 PUSH20 0xFFFFFFFFFFFFFFFFFFFFFFFFFFFFFFFFFFFFFFFF DUP3 AND SWAP1 POP SWAP2 SWAP1 POP JUMP JUMPDEST PUSH1 0x0 PUSH3 0x214 DUP3 PUSH3 0x1E7 JUMP JUMPDEST SWAP1 POP SWAP2 SWAP1 POP JUMP JUMPDEST PUSH3 0x226 DUP2 PUSH3 0x207 JUMP JUMPDEST DUP2 EQ PUSH3 0x232 JUMPI PUSH1 0x0 DUP1 REVERT JUMPDEST POP JUMP JUMPDEST PUSH1 0x0 DUP2 MLOAD SWAP1 POP PUSH3 0x246 DUP2 PUSH3 0x21B JUMP JUMPDEST SWAP3 SWAP2 POP POP JUMP JUMPDEST PUSH1 0x0 DUP1 PUSH1 0x40 DUP4 DUP6 SUB SLT ISZERO PUSH3 0x266 JUMPI PUSH3 0x265 PUSH3 0x1E2 JUMP JUMPDEST JUMPDEST PUSH1 0x0 PUSH3 0x276 DUP6 DUP3 DUP7 ADD PUSH3 0x235 JUMP JUMPDEST SWAP3 POP POP PUSH1 0x20 PUSH3 0x289 DUP6 DUP3 DUP7 ADD PUSH3 0x235 JUMP JUMPDEST SWAP2 POP POP SWAP3 POP SWAP3 SWAP1 POP JUMP JUMPDEST PUSH2 0x27AA DUP1 PUSH3 0x2A3 PUSH1 0x0 CODECOPY PUSH1 0x0 RETURN INVALID PUSH1 0x80 PUSH1 0x40 MSTORE CALLVALUE DUP1 ISZERO PUSH2 0x10 JUMPI PUSH1 0x0 DUP1 REVERT JUMPDEST POP PUSH1 0x4 CALLDATASIZE LT PUSH2 0x100 JUMPI PUSH1 0x0 CALLDATALOAD PUSH1 0xE0 SHR DUP1 PUSH4 0x817B1CD2 GT PUSH2 0x97 JUMPI DUP1 PUSH4 0xA694FC3A GT PUSH2 0x66 JUMPI DUP1 PUSH4 0xA694FC3A EQ PUSH2 0x239 JUMPI DUP1 PUSH4 0xF2FDE38B EQ PUSH2 0x255 JUMPI DUP1 PUSH4 0xF7B2A7BE EQ PUSH2 0x271 JUMPI DUP1 PUSH4 0xFC0C546A EQ PUSH2 0x28F JUMPI PUSH2 0x100 JUMP JUMPDEST DUP1 PUSH4 0x817B1CD2 EQ PUSH2 0x1C5 JUMPI DUP1 PUSH4 0x8A9D3839 EQ PUSH2 0x1E3 JUMPI DUP1 PUSH4 0x8DA5CB5B EQ PUSH2 0x1FF JUMPI DUP1 PUSH4 0x91E07E7A EQ PUSH2 0x21D JUMPI PUSH2 0x100 JUMP JUMPDEST DUP1 PUSH4 0x50F19C87 GT PUSH2 0xD3 JUMPI DUP1 PUSH4 0x50F19C87 EQ PUSH2 0x165 JUMPI DUP1 PUSH4 0x5D2EC65D EQ PUSH2 0x181 JUMPI DUP1 PUSH4 0x692642E7 EQ PUSH2 0x19F JUMPI DUP1 PUSH4 0x715018A6 EQ PUSH2 0x1BB JUMPI PUSH2 0x100 JUMP JUMPDEST DUP1 PUSH4 0x2E1A7D4D EQ PUSH2 0x105 JUMPI DUP1 PUSH4 0x373D6132 EQ PUSH2 0x121 JUMPI DUP1 PUSH4 0x4641257D EQ PUSH2 0x13F JUMPI DUP1 PUSH4 0x4B77DD9E EQ PUSH2 0x149 JUMPI JUMPDEST PUSH1 0x0 DUP1 REVERT JUMPDEST PUSH2 0x11F PUSH1 0x4 DUP1 CALLDATASIZE SUB DUP2 ADD SWAP1 PUSH2 0x11A SWAP2 SWAP1 PUSH2 0x1B6A JUMP JUMPDEST PUSH2 0x2AD JUMP JUMPDEST STOP JUMPDEST PUSH2 0x129 PUSH2 0x646 JUMP JUMPDEST PUSH1 0x40 MLOAD PUSH2 0x136 SWAP2 SWAP1 PUSH2 0x1BA6 JUMP JUMPDEST PUSH1 0x40 MLOAD DUP1 SWAP2 SUB SWAP1 RETURN JUMPDEST PUSH2 0x147 PUSH2 0x690 JUMP JUMPDEST STOP JUMPDEST PUSH2 0x163 PUSH1 0x4 DUP1 CALLDATASIZE SUB DUP2 ADD SWAP1 PUSH2 0x15E SWAP2 SWAP1 PUSH2 0x1BC1 JUMP JUMPDEST PUSH2 0x9A3 JUMP JUMPDEST STOP JUMPDEST PUSH2 0x17F PUSH1 0x4 DUP1 CALLDATASIZE SUB DUP2 ADD SWAP1 PUSH2 0x17A SWAP2 SWAP1 PUSH2 0x1B6A JUMP JUMPDEST PUSH2 0xBE4 JUMP JUMPDEST STOP JUMPDEST PUSH2 0x189 PUSH2 0xCE4 JUMP JUMPDEST PUSH1 0x40 MLOAD PUSH2 0x196 SWAP2 SWAP1 PUSH2 0x1BA6 JUMP JUMPDEST PUSH1 0x40 MLOAD DUP1 SWAP2 SUB SWAP1 RETURN JUMPDEST PUSH2 0x1B9 PUSH1 0x4 DUP1 CALLDATASIZE SUB DUP2 ADD SWAP1 PUSH2 0x1B4 SWAP2 SWAP1 PUSH2 0x1B6A JUMP JUMPDEST PUSH2 0xD2E JUMP JUMPDEST STOP JUMPDEST PUSH2 0x1C3 PUSH2 0xE43 JUMP JUMPDEST STOP JUMPDEST PUSH2 0x1CD PUSH2 0xECB JUMP JUMPDEST PUSH1 0x40 MLOAD PUSH2 0x1DA SWAP2 SWAP1 PUSH2 0x1BA6 JUMP JUMPDEST PUSH1 0x40 MLOAD DUP1 SWAP2 SUB SWAP1 RETURN JUMPDEST PUSH2 0x1FD PUSH1 0x4 DUP1 CALLDATASIZE SUB DUP2 ADD SWAP1 PUSH2 0x1F8 SWAP2 SWAP1 PUSH2 0x1C5F JUMP JUMPDEST PUSH2 0xED1 JUMP JUMPDEST STOP JUMPDEST PUSH2 0x207 PUSH2 0x1037 JUMP JUMPDEST PUSH1 0x40 MLOAD PUSH2 0x214 SWAP2 SWAP1 PUSH2 0x1C9B JUMP JUMPDEST PUSH1 0x40 MLOAD DUP1 SWAP2 SUB SWAP1 RETURN JUMPDEST PUSH2 0x237 PUSH1 0x4 DUP1 CALLDATASIZE SUB DUP2 ADD SWAP1 PUSH2 0x232 SWAP2 SWAP1 PUSH2 0x1B6A JUMP JUMPDEST PUSH2 0x1060 JUMP JUMPDEST STOP JUMPDEST PUSH2 0x253 PUSH1 0x4 DUP1 CALLDATASIZE SUB DUP2 ADD SWAP1 PUSH2 0x24E SWAP2 SWAP1 PUSH2 0x1B6A JUMP JUMPDEST PUSH2 0x1160 JUMP JUMPDEST STOP JUMPDEST PUSH2 0x26F PUSH1 0x4 DUP1 CALLDATASIZE SUB DUP2 ADD SWAP1 PUSH2 0x26A SWAP2 SWAP1 PUSH2 0x1C5F JUMP JUMPDEST PUSH2 0x1391 JUMP JUMPDEST STOP JUMPDEST PUSH2 0x279 PUSH2 0x1489 JUMP JUMPDEST PUSH1 0x40 MLOAD PUSH2 0x286 SWAP2 SWAP1 PUSH2 0x1BA6 JUMP JUMPDEST PUSH1 0x40 MLOAD DUP1 SWAP2 SUB SWAP1 RETURN JUMPDEST PUSH2 0x297 PUSH2 0x14D3 JUMP JUMPDEST PUSH1 0x40 MLOAD PUSH2 0x2A4 SWAP2 SWAP1 PUSH2 0x1D15 JUMP JUMPDEST PUSH1 0x40 MLOAD DUP1 SWAP2 SUB SWAP1 RETURN JUMPDEST PUSH1 0x0 PUSH1 0x6 PUSH1 0x0 CALLER PUSH20 0xFFFFFFFFFFFFFFFFFFFFFFFFFFFFFFFFFFFFFFFF AND PUSH20 0xFFFFFFFFFFFFFFFFFFFFFFFFFFFFFFFFFFFFFFFF AND DUP2 MSTORE PUSH1 0x20 ADD SWAP1 DUP2 MSTORE PUSH1 0x20 ADD PUSH1 0x0 KECCAK256 SWAP1 POP PUSH1 0x0 DUP3 GT PUSH2 0x333 JUMPI PUSH1 0x40 MLOAD PUSH32 0x8C379A000000000000000000000000000000000000000000000000000000000 DUP2 MSTORE PUSH1 0x4 ADD PUSH2 0x32A SWAP1 PUSH2 0x1D8D JUMP JUMPDEST PUSH1 0x40 MLOAD DUP1 SWAP2 SUB SWAP1 REVERT JUMPDEST DUP1 PUSH1 0x1 ADD SLOAD DUP3 GT ISZERO PUSH2 0x37A JUMPI PUSH1 0x40 MLOAD PUSH32 0x8C379A000000000000000000000000000000000000000000000000000000000 DUP2 MSTORE PUSH1 0x4 ADD PUSH2 0x371 SWAP1 PUSH2 0x1DF9 JUMP JUMPDEST PUSH1 0x40 MLOAD DUP1 SWAP2 SUB SWAP1 REVERT JUMPDEST PUSH2 0x382 PUSH2 0x14F9 JUMP JUMPDEST PUSH1 0x0 PUSH1 0x8 PUSH1 0x0 SWAP1 SLOAD SWAP1 PUSH2 0x100 EXP SWAP1 DIV PUSH20 0xFFFFFFFFFFFFFFFFFFFFFFFFFFFFFFFFFFFFFFFF AND PUSH20 0xFFFFFFFFFFFFFFFFFFFFFFFFFFFFFFFFFFFFFFFF AND PUSH4 0x70A08231 ADDRESS PUSH1 0x40 MLOAD DUP3 PUSH4 0xFFFFFFFF AND PUSH1 0xE0 SHL DUP2 MSTORE PUSH1 0x4 ADD PUSH2 0x3DF SWAP2 SWAP1 PUSH2 0x1C9B JUMP JUMPDEST PUSH1 0x20 PUSH1 0x40 MLOAD DUP1 DUP4 SUB DUP2 DUP7 GAS STATICCALL ISZERO DUP1 ISZERO PUSH2 0x3FC JUMPI RETURNDATASIZE PUSH1 0x0 DUP1 RETURNDATACOPY RETURNDATASIZE PUSH1 0x0 REVERT JUMPDEST POP POP POP POP PUSH1 0x40 MLOAD RETURNDATASIZE PUSH1 0x1F NOT PUSH1 0x1F DUP3 ADD AND DUP3 ADD DUP1 PUSH1 0x40 MSTORE POP DUP2 ADD SWAP1 PUSH2 0x420 SWAP2 SWAP1 PUSH2 0x1E2E JUMP JUMPDEST DUP4 LT PUSH2 0x4C7 JUMPI PUSH1 0x8 PUSH1 0x0 SWAP1 SLOAD SWAP1 PUSH2 0x100 EXP SWAP1 DIV PUSH20 0xFFFFFFFFFFFFFFFFFFFFFFFFFFFFFFFFFFFFFFFF AND PUSH20 0xFFFFFFFFFFFFFFFFFFFFFFFFFFFFFFFFFFFFFFFF AND PUSH4 0x70A08231 ADDRESS PUSH1 0x40 MLOAD DUP3 PUSH4 0xFFFFFFFF AND PUSH1 0xE0 SHL DUP2 MSTORE PUSH1 0x4 ADD PUSH2 0x481 SWAP2 SWAP1 PUSH2 0x1C9B JUMP JUMPDEST PUSH1 0x20 PUSH1 0x40 MLOAD DUP1 DUP4 SUB DUP2 DUP7 GAS STATICCALL ISZERO DUP1 ISZERO PUSH2 0x49E JUMPI RETURNDATASIZE PUSH1 0x0 DUP1 RETURNDATACOPY RETURNDATASIZE PUSH1 0x0 REVERT JUMPDEST POP POP POP POP PUSH1 0x40 MLOAD RETURNDATASIZE PUSH1 0x1F NOT PUSH1 0x1F DUP3 ADD AND DUP3 ADD DUP1 PUSH1 0x40 MSTORE POP DUP2 ADD SWAP1 PUSH2 0x4C2 SWAP2 SWAP1 PUSH2 0x1E2E JUMP JUMPDEST PUSH2 0x4C9 JUMP JUMPDEST DUP3 JUMPDEST SWAP1 POP PUSH1 0x0 DUP1 PUSH1 0x2 SLOAD PUSH2 0x4FD PUSH3 0x15180 PUSH2 0x4EF DUP8 PUSH1 0x3 ADD SLOAD TIMESTAMP PUSH2 0x1660 SWAP1 SWAP2 SWAP1 PUSH4 0xFFFFFFFF AND JUMP JUMPDEST PUSH2 0x1676 SWAP1 SWAP2 SWAP1 PUSH4 0xFFFFFFFF AND JUMP JUMPDEST PUSH2 0x507 SWAP2 SWAP1 PUSH2 0x1E8A JUMP JUMPDEST EQ PUSH2 0x513 JUMPI PUSH1 0x1 PUSH2 0x516 JUMP JUMPDEST PUSH1 0x0 JUMPDEST PUSH1 0xFF AND SWAP1 POP PUSH2 0x57E PUSH2 0x56F PUSH2 0x2710 PUSH2 0x561 PUSH1 0x1 SLOAD PUSH2 0x553 DUP8 PUSH2 0x545 DUP9 DUP12 PUSH1 0x2 ADD SLOAD PUSH2 0x168C SWAP1 SWAP2 SWAP1 PUSH4 0xFFFFFFFF AND JUMP JUMPDEST PUSH2 0x168C SWAP1 SWAP2 SWAP1 PUSH4 0xFFFFFFFF AND JUMP JUMPDEST PUSH2 0x168C SWAP1 SWAP2 SWAP1 PUSH4 0xFFFFFFFF AND JUMP JUMPDEST PUSH2 0x1676 SWAP1 SWAP2 SWAP1 PUSH4 0xFFFFFFFF AND JUMP JUMPDEST DUP4 PUSH2 0x1660 SWAP1 SWAP2 SWAP1 PUSH4 0xFFFFFFFF AND JUMP JUMPDEST SWAP2 POP PUSH2 0x595 DUP3 PUSH1 0x7 SLOAD PUSH2 0x1660 SWAP1 SWAP2 SWAP1 PUSH4 0xFFFFFFFF AND JUMP JUMPDEST PUSH1 0x7 DUP2 SWAP1 SSTORE POP PUSH2 0x5B2 DUP3 DUP5 PUSH1 0x1 ADD SLOAD PUSH2 0x1660 SWAP1 SWAP2 SWAP1 PUSH4 0xFFFFFFFF AND JUMP JUMPDEST DUP4 PUSH1 0x1 ADD DUP2 SWAP1 SSTORE POP PUSH2 0x607 CALLER DUP4 PUSH1 0x8 PUSH1 0x0 SWAP1 SLOAD SWAP1 PUSH2 0x100 EXP SWAP1 DIV PUSH20 0xFFFFFFFFFFFFFFFFFFFFFFFFFFFFFFFFFFFFFFFF AND PUSH20 0xFFFFFFFFFFFFFFFFFFFFFFFFFFFFFFFFFFFFFFFF AND PUSH2 0x16A2 SWAP1 SWAP3 SWAP2 SWAP1 PUSH4 0xFFFFFFFF AND JUMP JUMPDEST PUSH32 0x884EDAD9CE6FA2440D8A54CC123490EB96D2768479D49FF9C7366125A9424364 CALLER DUP4 PUSH1 0x40 MLOAD PUSH2 0x638 SWAP3 SWAP2 SWAP1 PUSH2 0x1EBB JUMP JUMPDEST PUSH1 0x40 MLOAD DUP1 SWAP2 SUB SWAP1 LOG1 POP POP POP POP JUMP JUMPDEST PUSH1 0x0 PUSH1 0x6 PUSH1 0x0 CALLER PUSH20 0xFFFFFFFFFFFFFFFFFFFFFFFFFFFFFFFFFFFFFFFF AND PUSH20 0xFFFFFFFFFFFFFFFFFFFFFFFFFFFFFFFFFFFFFFFF AND DUP2 MSTORE PUSH1 0x20 ADD SWAP1 DUP2 MSTORE PUSH1 0x20 ADD PUSH1 0x0 KECCAK256 PUSH1 0x1 ADD SLOAD SWAP1 POP SWAP1 JUMP JUMPDEST PUSH2 0x698 PUSH2 0x14F9 JUMP JUMPDEST PUSH1 0x0 PUSH1 0x6 PUSH1 0x0 CALLER PUSH20 0xFFFFFFFFFFFFFFFFFFFFFFFFFFFFFFFFFFFFFFFF AND PUSH20 0xFFFFFFFFFFFFFFFFFFFFFFFFFFFFFFFFFFFFFFFF AND DUP2 MSTORE PUSH1 0x20 ADD SWAP1 DUP2 MSTORE PUSH1 0x20 ADD PUSH1 0x0 KECCAK256 SWAP1 POP PUSH1 0x0 PUSH2 0x720 PUSH2 0x70D PUSH2 0x2710 PUSH2 0x6FF PUSH1 0x4 SLOAD DUP7 PUSH1 0x0 ADD SLOAD PUSH2 0x168C SWAP1 SWAP2 SWAP1 PUSH4 0xFFFFFFFF AND JUMP JUMPDEST PUSH2 0x1676 SWAP1 SWAP2 SWAP1 PUSH4 0xFFFFFFFF AND JUMP JUMPDEST DUP4 PUSH1 0x0 ADD SLOAD PUSH2 0x1660 SWAP1 SWAP2 SWAP1 PUSH4 0xFFFFFFFF AND JUMP JUMPDEST SWAP1 POP PUSH1 0x0 DUP2 GT PUSH2 0x765 JUMPI PUSH1 0x40 MLOAD PUSH32 0x8C379A000000000000000000000000000000000000000000000000000000000 DUP2 MSTORE PUSH1 0x4 ADD PUSH2 0x75C SWAP1 PUSH2 0x1F30 JUMP JUMPDEST PUSH1 0x40 MLOAD DUP1 SWAP2 SUB SWAP1 REVERT JUMPDEST PUSH1 0x8 PUSH1 0x0 SWAP1 SLOAD SWAP1 PUSH2 0x100 EXP SWAP1 DIV PUSH20 0xFFFFFFFFFFFFFFFFFFFFFFFFFFFFFFFFFFFFFFFF AND PUSH20 0xFFFFFFFFFFFFFFFFFFFFFFFFFFFFFFFFFFFFFFFF AND PUSH4 0x70A08231 PUSH1 0x5 PUSH1 0x0 SWAP1 SLOAD SWAP1 PUSH2 0x100 EXP SWAP1 DIV PUSH20 0xFFFFFFFFFFFFFFFFFFFFFFFFFFFFFFFFFFFFFFFF AND PUSH1 0x40 MLOAD DUP3 PUSH4 0xFFFFFFFF AND PUSH1 0xE0 SHL DUP2 MSTORE PUSH1 0x4 ADD PUSH2 0x7E2 SWAP2 SWAP1 PUSH2 0x1C9B JUMP JUMPDEST PUSH1 0x20 PUSH1 0x40 MLOAD DUP1 DUP4 SUB DUP2 DUP7 GAS STATICCALL ISZERO DUP1 ISZERO PUSH2 0x7FF JUMPI RETURNDATASIZE PUSH1 0x0 DUP1 RETURNDATACOPY RETURNDATASIZE PUSH1 0x0 REVERT JUMPDEST POP POP POP POP PUSH1 0x40 MLOAD RETURNDATASIZE PUSH1 0x1F NOT PUSH1 0x1F DUP3 ADD AND DUP3 ADD DUP1 PUSH1 0x40 MSTORE POP DUP2 ADD SWAP1 PUSH2 0x823 SWAP2 SWAP1 PUSH2 0x1E2E JUMP JUMPDEST DUP2 GT ISZERO PUSH2 0x8EB JUMPI PUSH1 0x8 PUSH1 0x0 SWAP1 SLOAD SWAP1 PUSH2 0x100 EXP SWAP1 DIV PUSH20 0xFFFFFFFFFFFFFFFFFFFFFFFFFFFFFFFFFFFFFFFF AND PUSH20 0xFFFFFFFFFFFFFFFFFFFFFFFFFFFFFFFFFFFFFFFF AND PUSH4 0x70A08231 PUSH1 0x5 PUSH1 0x0 SWAP1 SLOAD SWAP1 PUSH2 0x100 EXP SWAP1 DIV PUSH20 0xFFFFFFFFFFFFFFFFFFFFFFFFFFFFFFFFFFFFFFFF AND PUSH1 0x40 MLOAD DUP3 PUSH4 0xFFFFFFFF AND PUSH1 0xE0 SHL DUP2 MSTORE PUSH1 0x4 ADD PUSH2 0x8A7 SWAP2 SWAP1 PUSH2 0x1C9B JUMP JUMPDEST PUSH1 0x20 PUSH1 0x40 MLOAD DUP1 DUP4 SUB DUP2 DUP7 GAS STATICCALL ISZERO DUP1 ISZERO PUSH2 0x8C4 JUMPI RETURNDATASIZE PUSH1 0x0 DUP1 RETURNDATACOPY RETURNDATASIZE PUSH1 0x0 REVERT JUMPDEST POP POP POP POP PUSH1 0x40 MLOAD RETURNDATASIZE PUSH1 0x1F NOT PUSH1 0x1F DUP3 ADD AND DUP3 ADD DUP1 PUSH1 0x40 MSTORE POP DUP2 ADD SWAP1 PUSH2 0x8E8 SWAP2 SWAP1 PUSH2 0x1E2E JUMP JUMPDEST SWAP1 POP JUMPDEST PUSH2 0x95C PUSH1 0x5 PUSH1 0x0 SWAP1 SLOAD SWAP1 PUSH2 0x100 EXP SWAP1 DIV PUSH20 0xFFFFFFFFFFFFFFFFFFFFFFFFFFFFFFFFFFFFFFFF AND CALLER DUP4 PUSH1 0x8 PUSH1 0x0 SWAP1 SLOAD SWAP1 PUSH2 0x100 EXP SWAP1 DIV PUSH20 0xFFFFFFFFFFFFFFFFFFFFFFFFFFFFFFFFFFFFFFFF AND PUSH20 0xFFFFFFFFFFFFFFFFFFFFFFFFFFFFFFFFFFFFFFFF AND PUSH2 0x1728 SWAP1 SWAP4 SWAP3 SWAP2 SWAP1 PUSH4 0xFFFFFFFF AND JUMP JUMPDEST PUSH1 0x0 DUP3 PUSH1 0x0 ADD DUP2 SWAP1 SSTORE POP PUSH32 0xC9695243A805ADB74C91F28311176C65B417E842D5699893CEF56D18BFA48CBA CALLER DUP3 PUSH1 0x40 MLOAD PUSH2 0x997 SWAP3 SWAP2 SWAP1 PUSH2 0x1EBB JUMP JUMPDEST PUSH1 0x40 MLOAD DUP1 SWAP2 SUB SWAP1 LOG1 POP POP JUMP JUMPDEST PUSH1 0x0 DUP3 GT PUSH2 0x9E6 JUMPI PUSH1 0x40 MLOAD PUSH32 0x8C379A000000000000000000000000000000000000000000000000000000000 DUP2 MSTORE PUSH1 0x4 ADD PUSH2 0x9DD SWAP1 PUSH2 0x1D8D JUMP JUMPDEST PUSH1 0x40 MLOAD DUP1 SWAP2 SUB SWAP1 REVERT JUMPDEST DUP2 PUSH1 0x8 PUSH1 0x0 SWAP1 SLOAD SWAP1 PUSH2 0x100 EXP SWAP1 DIV PUSH20 0xFFFFFFFFFFFFFFFFFFFFFFFFFFFFFFFFFFFFFFFF AND PUSH20 0xFFFFFFFFFFFFFFFFFFFFFFFFFFFFFFFFFFFFFFFF AND PUSH4 0x70A08231 CALLER PUSH1 0x40 MLOAD DUP3 PUSH4 0xFFFFFFFF AND PUSH1 0xE0 SHL DUP2 MSTORE PUSH1 0x4 ADD PUSH2 0xA42 SWAP2 SWAP1 PUSH2 0x1C9B JUMP JUMPDEST PUSH1 0x20 PUSH1 0x40 MLOAD DUP1 DUP4 SUB DUP2 DUP7 GAS STATICCALL ISZERO DUP1 ISZERO PUSH2 0xA5F JUMPI RETURNDATASIZE PUSH1 0x0 DUP1 RETURNDATACOPY RETURNDATASIZE PUSH1 0x0 REVERT JUMPDEST POP POP POP POP PUSH1 0x40 MLOAD RETURNDATASIZE PUSH1 0x1F NOT PUSH1 0x1F DUP3 ADD AND DUP3 ADD DUP1 PUSH1 0x40 MSTORE POP DUP2 ADD SWAP1 PUSH2 0xA83 SWAP2 SWAP1 PUSH2 0x1E2E JUMP JUMPDEST GT PUSH2 0xAC3 JUMPI PUSH1 0x40 MLOAD PUSH32 0x8C379A000000000000000000000000000000000000000000000000000000000 DUP2 MSTORE PUSH1 0x4 ADD PUSH2 0xABA SWAP1 PUSH2 0x1F9C JUMP JUMPDEST PUSH1 0x40 MLOAD DUP1 SWAP2 SUB SWAP1 REVERT JUMPDEST PUSH1 0x0 PUSH1 0x6 PUSH1 0x0 CALLER PUSH20 0xFFFFFFFFFFFFFFFFFFFFFFFFFFFFFFFFFFFFFFFF AND PUSH20 0xFFFFFFFFFFFFFFFFFFFFFFFFFFFFFFFFFFFFFFFF AND DUP2 MSTORE PUSH1 0x20 ADD SWAP1 DUP2 MSTORE PUSH1 0x20 ADD PUSH1 0x0 KECCAK256 PUSH1 0x3 ADD SLOAD EQ ISZERO PUSH2 0xB49 JUMPI PUSH1 0x40 MLOAD PUSH32 0x8C379A000000000000000000000000000000000000000000000000000000000 DUP2 MSTORE PUSH1 0x4 ADD PUSH2 0xB40 SWAP1 PUSH2 0x2008 JUMP JUMPDEST PUSH1 0x40 MLOAD DUP1 SWAP2 SUB SWAP1 REVERT JUMPDEST DUP1 PUSH1 0x6 PUSH1 0x0 CALLER PUSH20 0xFFFFFFFFFFFFFFFFFFFFFFFFFFFFFFFFFFFFFFFF AND PUSH20 0xFFFFFFFFFFFFFFFFFFFFFFFFFFFFFFFFFFFFFFFF AND DUP2 MSTORE PUSH1 0x20 ADD SWAP1 DUP2 MSTORE PUSH1 0x20 ADD PUSH1 0x0 KECCAK256 PUSH1 0x2 ADD DUP2 SWAP1 SSTORE POP TIMESTAMP PUSH1 0x6 PUSH1 0x0 CALLER PUSH20 0xFFFFFFFFFFFFFFFFFFFFFFFFFFFFFFFFFFFFFFFF AND PUSH20 0xFFFFFFFFFFFFFFFFFFFFFFFFFFFFFFFFFFFFFFFF AND DUP2 MSTORE PUSH1 0x20 ADD SWAP1 DUP2 MSTORE PUSH1 0x20 ADD PUSH1 0x0 KECCAK256 PUSH1 0x3 ADD DUP2 SWAP1 SSTORE POP PUSH2 0xBE0 DUP3 PUSH2 0x1160 JUMP JUMPDEST POP POP JUMP JUMPDEST PUSH2 0xBEC PUSH2 0x17B1 JUMP JUMPDEST PUSH20 0xFFFFFFFFFFFFFFFFFFFFFFFFFFFFFFFFFFFFFFFF AND PUSH2 0xC0A PUSH2 0x1037 JUMP JUMPDEST PUSH20 0xFFFFFFFFFFFFFFFFFFFFFFFFFFFFFFFFFFFFFFFF AND EQ PUSH2 0xC60 JUMPI PUSH1 0x40 MLOAD PUSH32 0x8C379A000000000000000000000000000000000000000000000000000000000 DUP2 MSTORE PUSH1 0x4 ADD PUSH2 0xC57 SWAP1 PUSH2 0x2074 JUMP JUMPDEST PUSH1 0x40 MLOAD DUP1 SWAP2 SUB SWAP1 REVERT JUMPDEST PUSH1 0x0 DUP2 GT PUSH2 0xCA3 JUMPI PUSH1 0x40 MLOAD PUSH32 0x8C379A000000000000000000000000000000000000000000000000000000000 DUP2 MSTORE PUSH1 0x4 ADD PUSH2 0xC9A SWAP1 PUSH2 0x20E0 JUMP JUMPDEST PUSH1 0x40 MLOAD DUP1 SWAP2 SUB SWAP1 REVERT JUMPDEST DUP1 PUSH1 0x3 DUP2 SWAP1 SSTORE POP PUSH32 0xB8F51888A0746F534A064D0D08F74852A939D6CD181760E1CEDC7A8396D9E22F DUP2 PUSH1 0x40 MLOAD PUSH2 0xCD9 SWAP2 SWAP1 PUSH2 0x1BA6 JUMP JUMPDEST PUSH1 0x40 MLOAD DUP1 SWAP2 SUB SWAP1 LOG1 POP JUMP JUMPDEST PUSH1 0x0 PUSH1 0x6 PUSH1 0x0 CALLER PUSH20 0xFFFFFFFFFFFFFFFFFFFFFFFFFFFFFFFFFFFFFFFF AND PUSH20 0xFFFFFFFFFFFFFFFFFFFFFFFFFFFFFFFFFFFFFFFF AND DUP2 MSTORE PUSH1 0x20 ADD SWAP1 DUP2 MSTORE PUSH1 0x20 ADD PUSH1 0x0 KECCAK256 PUSH1 0x0 ADD SLOAD SWAP1 POP SWAP1 JUMP JUMPDEST PUSH2 0xD36 PUSH2 0x17B1 JUMP JUMPDEST PUSH20 0xFFFFFFFFFFFFFFFFFFFFFFFFFFFFFFFFFFFFFFFF AND PUSH2 0xD54 PUSH2 0x1037 JUMP JUMPDEST PUSH20 0xFFFFFFFFFFFFFFFFFFFFFFFFFFFFFFFFFFFFFFFF AND EQ PUSH2 0xDAA JUMPI PUSH1 0x40 MLOAD PUSH32 0x8C379A000000000000000000000000000000000000000000000000000000000 DUP2 MSTORE PUSH1 0x4 ADD PUSH2 0xDA1 SWAP1 PUSH2 0x2074 JUMP JUMPDEST PUSH1 0x40 MLOAD DUP1 SWAP2 SUB SWAP1 REVERT JUMPDEST PUSH1 0x0 DUP2 GT PUSH2 0xDED JUMPI PUSH1 0x40 MLOAD PUSH32 0x8C379A000000000000000000000000000000000000000000000000000000000 DUP2 MSTORE PUSH1 0x4 ADD PUSH2 0xDE4 SWAP1 PUSH2 0x214C JUMP JUMPDEST PUSH1 0x40 MLOAD DUP1 SWAP2 SUB SWAP1 REVERT JUMPDEST PUSH2 0xE03 PUSH3 0x15180 DUP3 PUSH2 0x168C SWAP1 SWAP2 SWAP1 PUSH4 0xFFFFFFFF AND JUMP JUMPDEST PUSH1 0x2 DUP2 SWAP1 SSTORE POP PUSH32 0x189BDA9782663C67A3F95C0AA5455924C711210B00281C60EAD2F0DD8DBC924C DUP2 PUSH1 0x40 MLOAD PUSH2 0xE38 SWAP2 SWAP1 PUSH2 0x1BA6 JUMP JUMPDEST PUSH1 0x40 MLOAD DUP1 SWAP2 SUB SWAP1 LOG1 POP JUMP JUMPDEST PUSH2 0xE4B PUSH2 0x17B1 JUMP JUMPDEST PUSH20 0xFFFFFFFFFFFFFFFFFFFFFFFFFFFFFFFFFFFFFFFF AND PUSH2 0xE69 PUSH2 0x1037 JUMP JUMPDEST PUSH20 0xFFFFFFFFFFFFFFFFFFFFFFFFFFFFFFFFFFFFFFFF AND EQ PUSH2 0xEBF JUMPI PUSH1 0x40 MLOAD PUSH32 0x8C379A000000000000000000000000000000000000000000000000000000000 DUP2 MSTORE PUSH1 0x4 ADD PUSH2 0xEB6 SWAP1 PUSH2 0x2074 JUMP JUMPDEST PUSH1 0x40 MLOAD DUP1 SWAP2 SUB SWAP1 REVERT JUMPDEST PUSH2 0xEC9 PUSH1 0x0 PUSH2 0x17B9 JUMP JUMPDEST JUMP JUMPDEST PUSH1 0x7 SLOAD DUP2 JUMP JUMPDEST PUSH2 0xED9 PUSH2 0x17B1 JUMP JUMPDEST PUSH20 0xFFFFFFFFFFFFFFFFFFFFFFFFFFFFFFFFFFFFFFFF AND PUSH2 0xEF7 PUSH2 0x1037 JUMP JUMPDEST PUSH20 0xFFFFFFFFFFFFFFFFFFFFFFFFFFFFFFFFFFFFFFFF AND EQ PUSH2 0xF4D JUMPI PUSH1 0x40 MLOAD PUSH32 0x8C379A000000000000000000000000000000000000000000000000000000000 DUP2 MSTORE PUSH1 0x4 ADD PUSH2 0xF44 SWAP1 PUSH2 0x2074 JUMP JUMPDEST PUSH1 0x40 MLOAD DUP1 SWAP2 SUB SWAP1 REVERT JUMPDEST PUSH1 0x0 PUSH20 0xFFFFFFFFFFFFFFFFFFFFFFFFFFFFFFFFFFFFFFFF AND DUP2 PUSH20 0xFFFFFFFFFFFFFFFFFFFFFFFFFFFFFFFFFFFFFFFF AND GT PUSH2 0xFBC JUMPI PUSH1 0x40 MLOAD PUSH32 0x8C379A000000000000000000000000000000000000000000000000000000000 DUP2 MSTORE PUSH1 0x4 ADD PUSH2 0xFB3 SWAP1 PUSH2 0x21DE JUMP JUMPDEST PUSH1 0x40 MLOAD DUP1 SWAP2 SUB SWAP1 REVERT JUMPDEST DUP1 PUSH1 0x5 PUSH1 0x0 PUSH2 0x100 EXP DUP2 SLOAD DUP2 PUSH20 0xFFFFFFFFFFFFFFFFFFFFFFFFFFFFFFFFFFFFFFFF MUL NOT AND SWAP1 DUP4 PUSH20 0xFFFFFFFFFFFFFFFFFFFFFFFFFFFFFFFFFFFFFFFF AND MUL OR SWAP1 SSTORE POP PUSH32 0xEDA87051E2996C46EE8D576509FFC1826E6DF46EEF99072F838FECBB88992A87 DUP2 PUSH1 0x40 MLOAD PUSH2 0x102C SWAP2 SWAP1 PUSH2 0x1C9B JUMP JUMPDEST PUSH1 0x40 MLOAD DUP1 SWAP2 SUB SWAP1 LOG1 POP JUMP JUMPDEST PUSH1 0x0 DUP1 PUSH1 0x0 SWAP1 SLOAD SWAP1 PUSH2 0x100 EXP SWAP1 DIV PUSH20 0xFFFFFFFFFFFFFFFFFFFFFFFFFFFFFFFFFFFFFFFF AND SWAP1 POP SWAP1 JUMP JUMPDEST PUSH2 0x1068 PUSH2 0x17B1 JUMP JUMPDEST PUSH20 0xFFFFFFFFFFFFFFFFFFFFFFFFFFFFFFFFFFFFFFFF AND PUSH2 0x1086 PUSH2 0x1037 JUMP JUMPDEST PUSH20 0xFFFFFFFFFFFFFFFFFFFFFFFFFFFFFFFFFFFFFFFF AND EQ PUSH2 0x10DC JUMPI PUSH1 0x40 MLOAD PUSH32 0x8C379A000000000000000000000000000000000000000000000000000000000 DUP2 MSTORE PUSH1 0x4 ADD PUSH2 0x10D3 SWAP1 PUSH2 0x2074 JUMP JUMPDEST PUSH1 0x40 MLOAD DUP1 SWAP2 SUB SWAP1 REVERT JUMPDEST PUSH1 0x0 DUP2 GT PUSH2 0x111F JUMPI PUSH1 0x40 MLOAD PUSH32 0x8C379A000000000000000000000000000000000000000000000000000000000 DUP2 MSTORE PUSH1 0x4 ADD PUSH2 0x1116 SWAP1 PUSH2 0x224A JUMP JUMPDEST PUSH1 0x40 MLOAD DUP1 SWAP2 SUB SWAP1 REVERT JUMPDEST DUP1 PUSH1 0x1 DUP2 SWAP1 SSTORE POP PUSH32 0x150C688DD7595BF7862B8AB1FE46756450EB7D731037942B3BBC46F3F0E21B81 DUP2 PUSH1 0x40 MLOAD PUSH2 0x1155 SWAP2 SWAP1 PUSH2 0x1BA6 JUMP JUMPDEST PUSH1 0x40 MLOAD DUP1 SWAP2 SUB SWAP1 LOG1 POP JUMP JUMPDEST PUSH1 0x0 DUP2 GT PUSH2 0x11A3 JUMPI PUSH1 0x40 MLOAD PUSH32 0x8C379A000000000000000000000000000000000000000000000000000000000 DUP2 MSTORE PUSH1 0x4 ADD PUSH2 0x119A SWAP1 PUSH2 0x1D8D JUMP JUMPDEST PUSH1 0x40 MLOAD DUP1 SWAP2 SUB SWAP1 REVERT JUMPDEST DUP1 PUSH1 0x8 PUSH1 0x0 SWAP1 SLOAD SWAP1 PUSH2 0x100 EXP SWAP1 DIV PUSH20 0xFFFFFFFFFFFFFFFFFFFFFFFFFFFFFFFFFFFFFFFF AND PUSH20 0xFFFFFFFFFFFFFFFFFFFFFFFFFFFFFFFFFFFFFFFF AND PUSH4 0x70A08231 CALLER PUSH1 0x40 MLOAD DUP3 PUSH4 0xFFFFFFFF AND PUSH1 0xE0 SHL DUP2 MSTORE PUSH1 0x4 ADD PUSH2 0x11FF SWAP2 SWAP1 PUSH2 0x1C9B JUMP JUMPDEST PUSH1 0x20 PUSH1 0x40 MLOAD DUP1 DUP4 SUB DUP2 DUP7 GAS STATICCALL ISZERO DUP1 ISZERO PUSH2 0x121C JUMPI RETURNDATASIZE PUSH1 0x0 DUP1 RETURNDATACOPY RETURNDATASIZE PUSH1 0x0 REVERT JUMPDEST POP POP POP POP PUSH1 0x40 MLOAD RETURNDATASIZE PUSH1 0x1F NOT PUSH1 0x1F DUP3 ADD AND DUP3 ADD DUP1 PUSH1 0x40 MSTORE POP DUP2 ADD SWAP1 PUSH2 0x1240 SWAP2 SWAP1 PUSH2 0x1E2E JUMP JUMPDEST GT PUSH2 0x1280 JUMPI PUSH1 0x40 MLOAD PUSH32 0x8C379A000000000000000000000000000000000000000000000000000000000 DUP2 MSTORE PUSH1 0x4 ADD PUSH2 0x1277 SWAP1 PUSH2 0x1F9C JUMP JUMPDEST PUSH1 0x40 MLOAD DUP1 SWAP2 SUB SWAP1 REVERT JUMPDEST PUSH2 0x1288 PUSH2 0x14F9 JUMP JUMPDEST PUSH1 0x0 PUSH1 0x6 PUSH1 0x0 CALLER PUSH20 0xFFFFFFFFFFFFFFFFFFFFFFFFFFFFFFFFFFFFFFFF AND PUSH20 0xFFFFFFFFFFFFFFFFFFFFFFFFFFFFFFFFFFFFFFFF AND DUP2 MSTORE PUSH1 0x20 ADD SWAP1 DUP2 MSTORE PUSH1 0x20 ADD PUSH1 0x0 KECCAK256 SWAP1 POP PUSH2 0x131A CALLER ADDRESS DUP5 PUSH1 0x8 PUSH1 0x0 SWAP1 SLOAD SWAP1 PUSH2 0x100 EXP SWAP1 DIV PUSH20 0xFFFFFFFFFFFFFFFFFFFFFFFFFFFFFFFFFFFFFFFF AND PUSH20 0xFFFFFFFFFFFFFFFFFFFFFFFFFFFFFFFFFFFFFFFF AND PUSH2 0x1728 SWAP1 SWAP4 SWAP3 SWAP2 SWAP1 PUSH4 0xFFFFFFFF AND JUMP JUMPDEST PUSH2 0x1331 DUP3 DUP3 PUSH1 0x1 ADD SLOAD PUSH2 0x187D SWAP1 SWAP2 SWAP1 PUSH4 0xFFFFFFFF AND JUMP JUMPDEST DUP2 PUSH1 0x1 ADD DUP2 SWAP1 SSTORE POP PUSH2 0x134E DUP3 PUSH1 0x7 SLOAD PUSH2 0x187D SWAP1 SWAP2 SWAP1 PUSH4 0xFFFFFFFF AND JUMP JUMPDEST PUSH1 0x7 DUP2 SWAP1 SSTORE POP PUSH32 0x9E71BC8EEA02A63969F509818F2DAFB9254532904319F9DBDA79B67BD34A5F3D CALLER DUP4 PUSH1 0x40 MLOAD PUSH2 0x1385 SWAP3 SWAP2 SWAP1 PUSH2 0x1EBB JUMP JUMPDEST PUSH1 0x40 MLOAD DUP1 SWAP2 SUB SWAP1 LOG1 POP POP JUMP JUMPDEST PUSH2 0x1399 PUSH2 0x17B1 JUMP JUMPDEST PUSH20 0xFFFFFFFFFFFFFFFFFFFFFFFFFFFFFFFFFFFFFFFF AND PUSH2 0x13B7 PUSH2 0x1037 JUMP JUMPDEST PUSH20 0xFFFFFFFFFFFFFFFFFFFFFFFFFFFFFFFFFFFFFFFF AND EQ PUSH2 0x140D JUMPI PUSH1 0x40 MLOAD PUSH32 0x8C379A000000000000000000000000000000000000000000000000000000000 DUP2 MSTORE PUSH1 0x4 ADD PUSH2 0x1404 SWAP1 PUSH2 0x2074 JUMP JUMPDEST PUSH1 0x40 MLOAD DUP1 SWAP2 SUB SWAP1 REVERT JUMPDEST PUSH1 0x0 PUSH20 0xFFFFFFFFFFFFFFFFFFFFFFFFFFFFFFFFFFFFFFFF AND DUP2 PUSH20 0xFFFFFFFFFFFFFFFFFFFFFFFFFFFFFFFFFFFFFFFF AND EQ ISZERO PUSH2 0x147D JUMPI PUSH1 0x40 MLOAD PUSH32 0x8C379A000000000000000000000000000000000000000000000000000000000 DUP2 MSTORE PUSH1 0x4 ADD PUSH2 0x1474 SWAP1 PUSH2 0x22DC JUMP JUMPDEST PUSH1 0x40 MLOAD DUP1 SWAP2 SUB SWAP1 REVERT JUMPDEST PUSH2 0x1486 DUP2 PUSH2 0x17B9 JUMP JUMPDEST POP JUMP JUMPDEST PUSH1 0x0 PUSH1 0x6 PUSH1 0x0 CALLER PUSH20 0xFFFFFFFFFFFFFFFFFFFFFFFFFFFFFFFFFFFFFFFF AND PUSH20 0xFFFFFFFFFFFFFFFFFFFFFFFFFFFFFFFFFFFFFFFF AND DUP2 MSTORE PUSH1 0x20 ADD SWAP1 DUP2 MSTORE PUSH1 0x20 ADD PUSH1 0x0 KECCAK256 PUSH1 0x0 ADD SLOAD SWAP1 POP SWAP1 JUMP JUMPDEST PUSH1 0x8 PUSH1 0x0 SWAP1 SLOAD SWAP1 PUSH2 0x100 EXP SWAP1 DIV PUSH20 0xFFFFFFFFFFFFFFFFFFFFFFFFFFFFFFFFFFFFFFFF AND DUP2 JUMP JUMPDEST PUSH1 0x0 PUSH1 0x6 PUSH1 0x0 CALLER PUSH20 0xFFFFFFFFFFFFFFFFFFFFFFFFFFFFFFFFFFFFFFFF AND PUSH20 0xFFFFFFFFFFFFFFFFFFFFFFFFFFFFFFFFFFFFFFFF AND DUP2 MSTORE PUSH1 0x20 ADD SWAP1 DUP2 MSTORE PUSH1 0x20 ADD PUSH1 0x0 KECCAK256 SWAP1 POP DUP1 PUSH1 0x4 ADD SLOAD TIMESTAMP LT ISZERO PUSH2 0x154E JUMPI POP PUSH2 0x165E JUMP JUMPDEST PUSH1 0x0 PUSH2 0x1568 DUP3 PUSH1 0x3 ADD SLOAD TIMESTAMP PUSH2 0x1563 SWAP2 SWAP1 PUSH2 0x232B JUMP JUMPDEST PUSH2 0x1893 JUMP JUMPDEST SWAP1 POP PUSH1 0x0 PUSH2 0x15AB PUSH2 0x2710 PUSH2 0x159D PUSH1 0x3 SLOAD PUSH2 0x158F DUP7 DUP9 PUSH1 0x1 ADD SLOAD PUSH2 0x168C SWAP1 SWAP2 SWAP1 PUSH4 0xFFFFFFFF AND JUMP JUMPDEST PUSH2 0x168C SWAP1 SWAP2 SWAP1 PUSH4 0xFFFFFFFF AND JUMP JUMPDEST PUSH2 0x1676 SWAP1 SWAP2 SWAP1 PUSH4 0xFFFFFFFF AND JUMP JUMPDEST SWAP1 POP PUSH1 0x1 DUP4 PUSH1 0x2 ADD SLOAD EQ ISZERO PUSH2 0x1632 JUMPI PUSH1 0x0 PUSH2 0x15D1 PUSH1 0x2 SLOAD DUP5 PUSH2 0x1676 SWAP1 SWAP2 SWAP1 PUSH4 0xFFFFFFFF AND JUMP JUMPDEST SWAP1 POP PUSH2 0x162E PUSH2 0x2710 PUSH2 0x1620 PUSH2 0x15FB PUSH2 0x15EA PUSH1 0x2 SLOAD PUSH2 0x1893 JUMP JUMPDEST PUSH1 0x3 SLOAD PUSH2 0x168C SWAP1 SWAP2 SWAP1 PUSH4 0xFFFFFFFF AND JUMP JUMPDEST PUSH2 0x1612 DUP6 DUP10 PUSH1 0x1 ADD SLOAD PUSH2 0x168C SWAP1 SWAP2 SWAP1 PUSH4 0xFFFFFFFF AND JUMP JUMPDEST PUSH2 0x168C SWAP1 SWAP2 SWAP1 PUSH4 0xFFFFFFFF AND JUMP JUMPDEST PUSH2 0x1676 SWAP1 SWAP2 SWAP1 PUSH4 0xFFFFFFFF AND JUMP JUMPDEST SWAP2 POP POP JUMPDEST PUSH2 0x1649 DUP2 DUP5 PUSH1 0x0 ADD SLOAD PUSH2 0x187D SWAP1 SWAP2 SWAP1 PUSH4 0xFFFFFFFF AND JUMP JUMPDEST DUP4 PUSH1 0x0 ADD DUP2 SWAP1 SSTORE POP TIMESTAMP DUP4 PUSH1 0x4 ADD DUP2 SWAP1 SSTORE POP POP POP POP JUMPDEST JUMP JUMPDEST PUSH1 0x0 DUP2 DUP4 PUSH2 0x166E SWAP2 SWAP1 PUSH2 0x232B JUMP JUMPDEST SWAP1 POP SWAP3 SWAP2 POP POP JUMP JUMPDEST PUSH1 0x0 DUP2 DUP4 PUSH2 0x1684 SWAP2 SWAP1 PUSH2 0x235F JUMP JUMPDEST SWAP1 POP SWAP3 SWAP2 POP POP JUMP JUMPDEST PUSH1 0x0 DUP2 DUP4 PUSH2 0x169A SWAP2 SWAP1 PUSH2 0x2390 JUMP JUMPDEST SWAP1 POP SWAP3 SWAP2 POP POP JUMP JUMPDEST PUSH2 0x1723 DUP4 PUSH4 0xA9059CBB PUSH1 0xE0 SHL DUP5 DUP5 PUSH1 0x40 MLOAD PUSH1 0x24 ADD PUSH2 0x16C1 SWAP3 SWAP2 SWAP1 PUSH2 0x1EBB JUMP JUMPDEST PUSH1 0x40 MLOAD PUSH1 0x20 DUP2 DUP4 SUB SUB DUP2 MSTORE SWAP1 PUSH1 0x40 MSTORE SWAP1 PUSH28 0xFFFFFFFFFFFFFFFFFFFFFFFFFFFFFFFFFFFFFFFFFFFFFFFFFFFFFFFF NOT AND PUSH1 0x20 DUP3 ADD DUP1 MLOAD PUSH28 0xFFFFFFFFFFFFFFFFFFFFFFFFFFFFFFFFFFFFFFFFFFFFFFFFFFFFFFFF DUP4 DUP2 DUP4 AND OR DUP4 MSTORE POP POP POP POP PUSH2 0x18B2 JUMP JUMPDEST POP POP POP JUMP JUMPDEST PUSH2 0x17AB DUP5 PUSH4 0x23B872DD PUSH1 0xE0 SHL DUP6 DUP6 DUP6 PUSH1 0x40 MLOAD PUSH1 0x24 ADD PUSH2 0x1749 SWAP4 SWAP3 SWAP2 SWAP1 PUSH2 0x23EA JUMP JUMPDEST PUSH1 0x40 MLOAD PUSH1 0x20 DUP2 DUP4 SUB SUB DUP2 MSTORE SWAP1 PUSH1 0x40 MSTORE SWAP1 PUSH28 0xFFFFFFFFFFFFFFFFFFFFFFFFFFFFFFFFFFFFFFFFFFFFFFFFFFFFFFFF NOT AND PUSH1 0x20 DUP3 ADD DUP1 MLOAD PUSH28 0xFFFFFFFFFFFFFFFFFFFFFFFFFFFFFFFFFFFFFFFFFFFFFFFFFFFFFFFF DUP4 DUP2 DUP4 AND OR DUP4 MSTORE POP POP POP POP PUSH2 0x18B2 JUMP JUMPDEST POP POP POP POP JUMP JUMPDEST PUSH1 0x0 CALLER SWAP1 POP SWAP1 JUMP JUMPDEST PUSH1 0x0 DUP1 PUSH1 0x0 SWAP1 SLOAD SWAP1 PUSH2 0x100 EXP SWAP1 DIV PUSH20 0xFFFFFFFFFFFFFFFFFFFFFFFFFFFFFFFFFFFFFFFF AND SWAP1 POP DUP2 PUSH1 0x0 DUP1 PUSH2 0x100 EXP DUP2 SLOAD DUP2 PUSH20 0xFFFFFFFFFFFFFFFFFFFFFFFFFFFFFFFFFFFFFFFF MUL NOT AND SWAP1 DUP4 PUSH20 0xFFFFFFFFFFFFFFFFFFFFFFFFFFFFFFFFFFFFFFFF AND MUL OR SWAP1 SSTORE POP DUP2 PUSH20 0xFFFFFFFFFFFFFFFFFFFFFFFFFFFFFFFFFFFFFFFF AND DUP2 PUSH20 0xFFFFFFFFFFFFFFFFFFFFFFFFFFFFFFFFFFFFFFFF AND PUSH32 0x8BE0079C531659141344CD1FD0A4F28419497F9722A3DAAFE3B4186F6B6457E0 PUSH1 0x40 MLOAD PUSH1 0x40 MLOAD DUP1 SWAP2 SUB SWAP1 LOG3 POP POP JUMP JUMPDEST PUSH1 0x0 DUP2 DUP4 PUSH2 0x188B SWAP2 SWAP1 PUSH2 0x2421 JUMP JUMPDEST SWAP1 POP SWAP3 SWAP2 POP POP JUMP JUMPDEST PUSH1 0x0 PUSH2 0x18AB PUSH3 0x15180 DUP4 PUSH2 0x1676 SWAP1 SWAP2 SWAP1 PUSH4 0xFFFFFFFF AND JUMP JUMPDEST SWAP1 POP SWAP2 SWAP1 POP JUMP JUMPDEST PUSH1 0x0 PUSH2 0x1914 DUP3 PUSH1 0x40 MLOAD DUP1 PUSH1 0x40 ADD PUSH1 0x40 MSTORE DUP1 PUSH1 0x20 DUP2 MSTORE PUSH1 0x20 ADD PUSH32 0x5361666542455032303A206C6F772D6C6576656C2063616C6C206661696C6564 DUP2 MSTORE POP DUP6 PUSH20 0xFFFFFFFFFFFFFFFFFFFFFFFFFFFFFFFFFFFFFFFF AND PUSH2 0x1979 SWAP1 SWAP3 SWAP2 SWAP1 PUSH4 0xFFFFFFFF AND JUMP JUMPDEST SWAP1 POP PUSH1 0x0 DUP2 MLOAD GT ISZERO PUSH2 0x1974 JUMPI DUP1 DUP1 PUSH1 0x20 ADD SWAP1 MLOAD DUP2 ADD SWAP1 PUSH2 0x1934 SWAP2 SWAP1 PUSH2 0x24AF JUMP JUMPDEST PUSH2 0x1973 JUMPI PUSH1 0x40 MLOAD PUSH32 0x8C379A000000000000000000000000000000000000000000000000000000000 DUP2 MSTORE PUSH1 0x4 ADD PUSH2 0x196A SWAP1 PUSH2 0x254E JUMP JUMPDEST PUSH1 0x40 MLOAD DUP1 SWAP2 SUB SWAP1 REVERT JUMPDEST JUMPDEST POP POP POP JUMP JUMPDEST PUSH1 0x60 PUSH2 0x1988 DUP5 DUP5 PUSH1 0x0 DUP6 PUSH2 0x1991 JUMP JUMPDEST SWAP1 POP SWAP4 SWAP3 POP POP POP JUMP JUMPDEST PUSH1 0x60 DUP3 SELFBALANCE LT ISZERO PUSH2 0x19D6 JUMPI PUSH1 0x40 MLOAD PUSH32 0x8C379A000000000000000000000000000000000000000000000000000000000 DUP2 MSTORE PUSH1 0x4 ADD PUSH2 0x19CD SWAP1 PUSH2 0x25E0 JUMP JUMPDEST PUSH1 0x40 MLOAD DUP1 SWAP2 SUB SWAP1 REVERT JUMPDEST PUSH2 0x19DF DUP6 PUSH2 0x1AA5 JUMP JUMPDEST PUSH2 0x1A1E JUMPI PUSH1 0x40 MLOAD PUSH32 0x8C379A000000000000000000000000000000000000000000000000000000000 DUP2 MSTORE PUSH1 0x4 ADD PUSH2 0x1A15 SWAP1 PUSH2 0x264C JUMP JUMPDEST PUSH1 0x40 MLOAD DUP1 SWAP2 SUB SWAP1 REVERT JUMPDEST PUSH1 0x0 DUP1 DUP7 PUSH20 0xFFFFFFFFFFFFFFFFFFFFFFFFFFFFFFFFFFFFFFFF AND DUP6 DUP8 PUSH1 0x40 MLOAD PUSH2 0x1A47 SWAP2 SWAP1 PUSH2 0x26E6 JUMP JUMPDEST PUSH1 0x0 PUSH1 0x40 MLOAD DUP1 DUP4 SUB DUP2 DUP6 DUP8 GAS CALL SWAP3 POP POP POP RETURNDATASIZE DUP1 PUSH1 0x0 DUP2 EQ PUSH2 0x1A84 JUMPI PUSH1 0x40 MLOAD SWAP2 POP PUSH1 0x1F NOT PUSH1 0x3F RETURNDATASIZE ADD AND DUP3 ADD PUSH1 0x40 MSTORE RETURNDATASIZE DUP3 MSTORE RETURNDATASIZE PUSH1 0x0 PUSH1 0x20 DUP5 ADD RETURNDATACOPY PUSH2 0x1A89 JUMP JUMPDEST PUSH1 0x60 SWAP2 POP JUMPDEST POP SWAP2 POP SWAP2 POP PUSH2 0x1A99 DUP3 DUP3 DUP7 PUSH2 0x1AC8 JUMP JUMPDEST SWAP3 POP POP POP SWAP5 SWAP4 POP POP POP POP JUMP JUMPDEST PUSH1 0x0 DUP1 DUP3 PUSH20 0xFFFFFFFFFFFFFFFFFFFFFFFFFFFFFFFFFFFFFFFF AND EXTCODESIZE GT SWAP1 POP SWAP2 SWAP1 POP JUMP JUMPDEST PUSH1 0x60 DUP4 ISZERO PUSH2 0x1AD8 JUMPI DUP3 SWAP1 POP PUSH2 0x1B28 JUMP JUMPDEST PUSH1 0x0 DUP4 MLOAD GT ISZERO PUSH2 0x1AEB JUMPI DUP3 MLOAD DUP1 DUP5 PUSH1 0x20 ADD REVERT JUMPDEST DUP2 PUSH1 0x40 MLOAD PUSH32 0x8C379A000000000000000000000000000000000000000000000000000000000 DUP2 MSTORE PUSH1 0x4 ADD PUSH2 0x1B1F SWAP2 SWAP1 PUSH2 0x2752 JUMP JUMPDEST PUSH1 0x40 MLOAD DUP1 SWAP2 SUB SWAP1 REVERT JUMPDEST SWAP4 SWAP3 POP POP POP JUMP JUMPDEST PUSH1 0x0 DUP1 REVERT JUMPDEST PUSH1 0x0 DUP2 SWAP1 POP SWAP2 SWAP1 POP JUMP JUMPDEST PUSH2 0x1B47 DUP2 PUSH2 0x1B34 JUMP JUMPDEST DUP2 EQ PUSH2 0x1B52 JUMPI PUSH1 0x0 DUP1 REVERT JUMPDEST POP JUMP JUMPDEST PUSH1 0x0 DUP2 CALLDATALOAD SWAP1 POP PUSH2 0x1B64 DUP2 PUSH2 0x1B3E JUMP JUMPDEST SWAP3 SWAP2 POP POP JUMP JUMPDEST PUSH1 0x0 PUSH1 0x20 DUP3 DUP5 SUB SLT ISZERO PUSH2 0x1B80 JUMPI PUSH2 0x1B7F PUSH2 0x1B2F JUMP JUMPDEST JUMPDEST PUSH1 0x0 PUSH2 0x1B8E DUP5 DUP3 DUP6 ADD PUSH2 0x1B55 JUMP JUMPDEST SWAP2 POP POP SWAP3 SWAP2 POP POP JUMP JUMPDEST PUSH2 0x1BA0 DUP2 PUSH2 0x1B34 JUMP JUMPDEST DUP3 MSTORE POP POP JUMP JUMPDEST PUSH1 0x0 PUSH1 0x20 DUP3 ADD SWAP1 POP PUSH2 0x1BBB PUSH1 0x0 DUP4 ADD DUP5 PUSH2 0x1B97 JUMP JUMPDEST SWAP3 SWAP2 POP POP JUMP JUMPDEST PUSH1 0x0 DUP1 PUSH1 0x40 DUP4 DUP6 SUB SLT ISZERO PUSH2 0x1BD8 JUMPI PUSH2 0x1BD7 PUSH2 0x1B2F JUMP JUMPDEST JUMPDEST PUSH1 0x0 PUSH2 0x1BE6 DUP6 DUP3 DUP7 ADD PUSH2 0x1B55 JUMP JUMPDEST SWAP3 POP POP PUSH1 0x20 PUSH2 0x1BF7 DUP6 DUP3 DUP7 ADD PUSH2 0x1B55 JUMP JUMPDEST SWAP2 POP POP SWAP3 POP SWAP3 SWAP1 POP JUMP JUMPDEST PUSH1 0x0 PUSH20 0xFFFFFFFFFFFFFFFFFFFFFFFFFFFFFFFFFFFFFFFF DUP3 AND SWAP1 POP SWAP2 SWAP1 POP JUMP JUMPDEST PUSH1 0x0 PUSH2 0x1C2C DUP3 PUSH2 0x1C01 JUMP JUMPDEST SWAP1 POP SWAP2 SWAP1 POP JUMP JUMPDEST PUSH2 0x1C3C DUP2 PUSH2 0x1C21 JUMP JUMPDEST DUP2 EQ PUSH2 0x1C47 JUMPI PUSH1 0x0 DUP1 REVERT JUMPDEST POP JUMP JUMPDEST PUSH1 0x0 DUP2 CALLDATALOAD SWAP1 POP PUSH2 0x1C59 DUP2 PUSH2 0x1C33 JUMP JUMPDEST SWAP3 SWAP2 POP POP JUMP JUMPDEST PUSH1 0x0 PUSH1 0x20 DUP3 DUP5 SUB SLT ISZERO PUSH2 0x1C75 JUMPI PUSH2 0x1C74 PUSH2 0x1B2F JUMP JUMPDEST JUMPDEST PUSH1 0x0 PUSH2 0x1C83 DUP5 DUP3 DUP6 ADD PUSH2 0x1C4A JUMP JUMPDEST SWAP2 POP POP SWAP3 SWAP2 POP POP JUMP JUMPDEST PUSH2 0x1C95 DUP2 PUSH2 0x1C21 JUMP JUMPDEST DUP3 MSTORE POP POP JUMP JUMPDEST PUSH1 0x0 PUSH1 0x20 DUP3 ADD SWAP1 POP PUSH2 0x1CB0 PUSH1 0x0 DUP4 ADD DUP5 PUSH2 0x1C8C JUMP JUMPDEST SWAP3 SWAP2 POP POP JUMP JUMPDEST PUSH1 0x0 DUP2 SWAP1 POP SWAP2 SWAP1 POP JUMP JUMPDEST PUSH1 0x0 PUSH2 0x1CDB PUSH2 0x1CD6 PUSH2 0x1CD1 DUP5 PUSH2 0x1C01 JUMP JUMPDEST PUSH2 0x1CB6 JUMP JUMPDEST PUSH2 0x1C01 JUMP JUMPDEST SWAP1 POP SWAP2 SWAP1 POP JUMP JUMPDEST PUSH1 0x0 PUSH2 0x1CED DUP3 PUSH2 0x1CC0 JUMP JUMPDEST SWAP1 POP SWAP2 SWAP1 POP JUMP JUMPDEST PUSH1 0x0 PUSH2 0x1CFF DUP3 PUSH2 0x1CE2 JUMP JUMPDEST SWAP1 POP SWAP2 SWAP1 POP JUMP JUMPDEST PUSH2 0x1D0F DUP2 PUSH2 0x1CF4 JUMP JUMPDEST DUP3 MSTORE POP POP JUMP JUMPDEST PUSH1 0x0 PUSH1 0x20 DUP3 ADD SWAP1 POP PUSH2 0x1D2A PUSH1 0x0 DUP4 ADD DUP5 PUSH2 0x1D06 JUMP JUMPDEST SWAP3 SWAP2 POP POP JUMP JUMPDEST PUSH1 0x0 DUP3 DUP3 MSTORE PUSH1 0x20 DUP3 ADD SWAP1 POP SWAP3 SWAP2 POP POP JUMP JUMPDEST PUSH32 0x416D6F756E742073686F756C642062652067726561746572207468616E203000 PUSH1 0x0 DUP3 ADD MSTORE POP JUMP JUMPDEST PUSH1 0x0 PUSH2 0x1D77 PUSH1 0x1F DUP4 PUSH2 0x1D30 JUMP JUMPDEST SWAP2 POP PUSH2 0x1D82 DUP3 PUSH2 0x1D41 JUMP JUMPDEST PUSH1 0x20 DUP3 ADD SWAP1 POP SWAP2 SWAP1 POP JUMP JUMPDEST PUSH1 0x0 PUSH1 0x20 DUP3 ADD SWAP1 POP DUP2 DUP2 SUB PUSH1 0x0 DUP4 ADD MSTORE PUSH2 0x1DA6 DUP2 PUSH2 0x1D6A JUMP JUMPDEST SWAP1 POP SWAP2 SWAP1 POP JUMP JUMPDEST PUSH32 0x496E76616C696420616D6F756E74000000000000000000000000000000000000 PUSH1 0x0 DUP3 ADD MSTORE POP JUMP JUMPDEST PUSH1 0x0 PUSH2 0x1DE3 PUSH1 0xE DUP4 PUSH2 0x1D30 JUMP JUMPDEST SWAP2 POP PUSH2 0x1DEE DUP3 PUSH2 0x1DAD JUMP JUMPDEST PUSH1 0x20 DUP3 ADD SWAP1 POP SWAP2 SWAP1 POP JUMP JUMPDEST PUSH1 0x0 PUSH1 0x20 DUP3 ADD SWAP1 POP DUP2 DUP2 SUB PUSH1 0x0 DUP4 ADD MSTORE PUSH2 0x1E12 DUP2 PUSH2 0x1DD6 JUMP JUMPDEST SWAP1 POP SWAP2 SWAP1 POP JUMP JUMPDEST PUSH1 0x0 DUP2 MLOAD SWAP1 POP PUSH2 0x1E28 DUP2 PUSH2 0x1B3E JUMP JUMPDEST SWAP3 SWAP2 POP POP JUMP JUMPDEST PUSH1 0x0 PUSH1 0x20 DUP3 DUP5 SUB SLT ISZERO PUSH2 0x1E44 JUMPI PUSH2 0x1E43 PUSH2 0x1B2F JUMP JUMPDEST JUMPDEST PUSH1 0x0 PUSH2 0x1E52 DUP5 DUP3 DUP6 ADD PUSH2 0x1E19 JUMP JUMPDEST SWAP2 POP POP SWAP3 SWAP2 POP POP JUMP JUMPDEST PUSH32 0x4E487B7100000000000000000000000000000000000000000000000000000000 PUSH1 0x0 MSTORE PUSH1 0x12 PUSH1 0x4 MSTORE PUSH1 0x24 PUSH1 0x0 REVERT JUMPDEST PUSH1 0x0 PUSH2 0x1E95 DUP3 PUSH2 0x1B34 JUMP JUMPDEST SWAP2 POP PUSH2 0x1EA0 DUP4 PUSH2 0x1B34 JUMP JUMPDEST SWAP3 POP DUP3 PUSH2 0x1EB0 JUMPI PUSH2 0x1EAF PUSH2 0x1E5B JUMP JUMPDEST JUMPDEST DUP3 DUP3 MOD SWAP1 POP SWAP3 SWAP2 POP POP JUMP JUMPDEST PUSH1 0x0 PUSH1 0x40 DUP3 ADD SWAP1 POP PUSH2 0x1ED0 PUSH1 0x0 DUP4 ADD DUP6 PUSH2 0x1C8C JUMP JUMPDEST PUSH2 0x1EDD PUSH1 0x20 DUP4 ADD DUP5 PUSH2 0x1B97 JUMP JUMPDEST SWAP4 SWAP3 POP POP POP JUMP JUMPDEST PUSH32 0x4E6F7468696E6720746F20636C61696D00000000000000000000000000000000 PUSH1 0x0 DUP3 ADD MSTORE POP JUMP JUMPDEST PUSH1 0x0 PUSH2 0x1F1A PUSH1 0x10 DUP4 PUSH2 0x1D30 JUMP JUMPDEST SWAP2 POP PUSH2 0x1F25 DUP3 PUSH2 0x1EE4 JUMP JUMPDEST PUSH1 0x20 DUP3 ADD SWAP1 POP SWAP2 SWAP1 POP JUMP JUMPDEST PUSH1 0x0 PUSH1 0x20 DUP3 ADD SWAP1 POP DUP2 DUP2 SUB PUSH1 0x0 DUP4 ADD MSTORE PUSH2 0x1F49 DUP2 PUSH2 0x1F0D JUMP JUMPDEST SWAP1 POP SWAP2 SWAP1 POP JUMP JUMPDEST PUSH32 0x496E73756666696369656E742100000000000000000000000000000000000000 PUSH1 0x0 DUP3 ADD MSTORE POP JUMP JUMPDEST PUSH1 0x0 PUSH2 0x1F86 PUSH1 0xD DUP4 PUSH2 0x1D30 JUMP JUMPDEST SWAP2 POP PUSH2 0x1F91 DUP3 PUSH2 0x1F50 JUMP JUMPDEST PUSH1 0x20 DUP3 ADD SWAP1 POP SWAP2 SWAP1 POP JUMP JUMPDEST PUSH1 0x0 PUSH1 0x20 DUP3 ADD SWAP1 POP DUP2 DUP2 SUB PUSH1 0x0 DUP4 ADD MSTORE PUSH2 0x1FB5 DUP2 PUSH2 0x1F79 JUMP JUMPDEST SWAP1 POP SWAP2 SWAP1 POP JUMP JUMPDEST PUSH32 0x416C726561647920737461727465640000000000000000000000000000000000 PUSH1 0x0 DUP3 ADD MSTORE POP JUMP JUMPDEST PUSH1 0x0 PUSH2 0x1FF2 PUSH1 0xF DUP4 PUSH2 0x1D30 JUMP JUMPDEST SWAP2 POP PUSH2 0x1FFD DUP3 PUSH2 0x1FBC JUMP JUMPDEST PUSH1 0x20 DUP3 ADD SWAP1 POP SWAP2 SWAP1 POP JUMP JUMPDEST PUSH1 0x0 PUSH1 0x20 DUP3 ADD SWAP1 POP DUP2 DUP2 SUB PUSH1 0x0 DUP4 ADD MSTORE PUSH2 0x2021 DUP2 PUSH2 0x1FE5 JUMP JUMPDEST SWAP1 POP SWAP2 SWAP1 POP JUMP JUMPDEST PUSH32 0x4F776E61626C653A2063616C6C6572206973206E6F7420746865206F776E6572 PUSH1 0x0 DUP3 ADD MSTORE POP JUMP JUMPDEST PUSH1 0x0 PUSH2 0x205E PUSH1 0x20 DUP4 PUSH2 0x1D30 JUMP JUMPDEST SWAP2 POP PUSH2 0x2069 DUP3 PUSH2 0x2028 JUMP JUMPDEST PUSH1 0x20 DUP3 ADD SWAP1 POP SWAP2 SWAP1 POP JUMP JUMPDEST PUSH1 0x0 PUSH1 0x20 DUP3 ADD SWAP1 POP DUP2 DUP2 SUB PUSH1 0x0 DUP4 ADD MSTORE PUSH2 0x208D DUP2 PUSH2 0x2051 JUMP JUMPDEST SWAP1 POP SWAP2 SWAP1 POP JUMP JUMPDEST PUSH32 0x496E76616C696420415059000000000000000000000000000000000000000000 PUSH1 0x0 DUP3 ADD MSTORE POP JUMP JUMPDEST PUSH1 0x0 PUSH2 0x20CA PUSH1 0xB DUP4 PUSH2 0x1D30 JUMP JUMPDEST SWAP2 POP PUSH2 0x20D5 DUP3 PUSH2 0x2094 JUMP JUMPDEST PUSH1 0x20 DUP3 ADD SWAP1 POP SWAP2 SWAP1 POP JUMP JUMPDEST PUSH1 0x0 PUSH1 0x20 DUP3 ADD SWAP1 POP DUP2 DUP2 SUB PUSH1 0x0 DUP4 ADD MSTORE PUSH2 0x20F9 DUP2 PUSH2 0x20BD JUMP JUMPDEST SWAP1 POP SWAP2 SWAP1 POP JUMP JUMPDEST PUSH32 0x496E76616C6964204C6F636B7570204475726174696F6E000000000000000000 PUSH1 0x0 DUP3 ADD MSTORE POP JUMP JUMPDEST PUSH1 0x0 PUSH2 0x2136 PUSH1 0x17 DUP4 PUSH2 0x1D30 JUMP JUMPDEST SWAP2 POP PUSH2 0x2141 DUP3 PUSH2 0x2100 JUMP JUMPDEST PUSH1 0x20 DUP3 ADD SWAP1 POP SWAP2 SWAP1 POP JUMP JUMPDEST PUSH1 0x0 PUSH1 0x20 DUP3 ADD SWAP1 POP DUP2 DUP2 SUB PUSH1 0x0 DUP4 ADD MSTORE PUSH2 0x2165 DUP2 PUSH2 0x2129 JUMP JUMPDEST SWAP1 POP SWAP2 SWAP1 POP JUMP JUMPDEST PUSH32 0x496E76616C696420416464726573732E20416464726573732063616E27742062 PUSH1 0x0 DUP3 ADD MSTORE PUSH32 0x65207A65726F0000000000000000000000000000000000000000000000000000 PUSH1 0x20 DUP3 ADD MSTORE POP JUMP JUMPDEST PUSH1 0x0 PUSH2 0x21C8 PUSH1 0x26 DUP4 PUSH2 0x1D30 JUMP JUMPDEST SWAP2 POP PUSH2 0x21D3 DUP3 PUSH2 0x216C JUMP JUMPDEST PUSH1 0x40 DUP3 ADD SWAP1 POP SWAP2 SWAP1 POP JUMP JUMPDEST PUSH1 0x0 PUSH1 0x20 DUP3 ADD SWAP1 POP DUP2 DUP2 SUB PUSH1 0x0 DUP4 ADD MSTORE PUSH2 0x21F7 DUP2 PUSH2 0x21BB JUMP JUMPDEST SWAP1 POP SWAP2 SWAP1 POP JUMP JUMPDEST PUSH32 0x496E76616C696420556E7374616B696E67204665652052617465000000000000 PUSH1 0x0 DUP3 ADD MSTORE POP JUMP JUMPDEST PUSH1 0x0 PUSH2 0x2234 PUSH1 0x1A DUP4 PUSH2 0x1D30 JUMP JUMPDEST SWAP2 POP PUSH2 0x223F DUP3 PUSH2 0x21FE JUMP JUMPDEST PUSH1 0x20 DUP3 ADD SWAP1 POP SWAP2 SWAP1 POP JUMP JUMPDEST PUSH1 0x0 PUSH1 0x20 DUP3 ADD SWAP1 POP DUP2 DUP2 SUB PUSH1 0x0 DUP4 ADD MSTORE PUSH2 0x2263 DUP2 PUSH2 0x2227 JUMP JUMPDEST SWAP1 POP SWAP2 SWAP1 POP JUMP JUMPDEST PUSH32 0x4F776E61626C653A206E6577206F776E657220697320746865207A65726F2061 PUSH1 0x0 DUP3 ADD MSTORE PUSH32 0x6464726573730000000000000000000000000000000000000000000000000000 PUSH1 0x20 DUP3 ADD MSTORE POP JUMP JUMPDEST PUSH1 0x0 PUSH2 0x22C6 PUSH1 0x26 DUP4 PUSH2 0x1D30 JUMP JUMPDEST SWAP2 POP PUSH2 0x22D1 DUP3 PUSH2 0x226A JUMP JUMPDEST PUSH1 0x40 DUP3 ADD SWAP1 POP SWAP2 SWAP1 POP JUMP JUMPDEST PUSH1 0x0 PUSH1 0x20 DUP3 ADD SWAP1 POP DUP2 DUP2 SUB PUSH1 0x0 DUP4 ADD MSTORE PUSH2 0x22F5 DUP2 PUSH2 0x22B9 JUMP JUMPDEST SWAP1 POP SWAP2 SWAP1 POP JUMP JUMPDEST PUSH32 0x4E487B7100000000000000000000000000000000000000000000000000000000 PUSH1 0x0 MSTORE PUSH1 0x11 PUSH1 0x4 MSTORE PUSH1 0x24 PUSH1 0x0 REVERT JUMPDEST PUSH1 0x0 PUSH2 0x2336 DUP3 PUSH2 0x1B34 JUMP JUMPDEST SWAP2 POP PUSH2 0x2341 DUP4 PUSH2 0x1B34 JUMP JUMPDEST SWAP3 POP DUP3 DUP3 LT ISZERO PUSH2 0x2354 JUMPI PUSH2 0x2353 PUSH2 0x22FC JUMP JUMPDEST JUMPDEST DUP3 DUP3 SUB SWAP1 POP SWAP3 SWAP2 POP POP JUMP JUMPDEST PUSH1 0x0 PUSH2 0x236A DUP3 PUSH2 0x1B34 JUMP JUMPDEST SWAP2 POP PUSH2 0x2375 DUP4 PUSH2 0x1B34 JUMP JUMPDEST SWAP3 POP DUP3 PUSH2 0x2385 JUMPI PUSH2 0x2384 PUSH2 0x1E5B JUMP JUMPDEST JUMPDEST DUP3 DUP3 DIV SWAP1 POP SWAP3 SWAP2 POP POP JUMP JUMPDEST PUSH1 0x0 PUSH2 0x239B DUP3 PUSH2 0x1B34 JUMP JUMPDEST SWAP2 POP PUSH2 0x23A6 DUP4 PUSH2 0x1B34 JUMP JUMPDEST SWAP3 POP DUP2 PUSH32 0xFFFFFFFFFFFFFFFFFFFFFFFFFFFFFFFFFFFFFFFFFFFFFFFFFFFFFFFFFFFFFFFF DIV DUP4 GT DUP3 ISZERO ISZERO AND ISZERO PUSH2 0x23DF JUMPI PUSH2 0x23DE PUSH2 0x22FC JUMP JUMPDEST JUMPDEST DUP3 DUP3 MUL SWAP1 POP SWAP3 SWAP2 POP POP JUMP JUMPDEST PUSH1 0x0 PUSH1 0x60 DUP3 ADD SWAP1 POP PUSH2 0x23FF PUSH1 0x0 DUP4 ADD DUP7 PUSH2 0x1C8C JUMP JUMPDEST PUSH2 0x240C PUSH1 0x20 DUP4 ADD DUP6 PUSH2 0x1C8C JUMP JUMPDEST PUSH2 0x2419 PUSH1 0x40 DUP4 ADD DUP5 PUSH2 0x1B97 JUMP JUMPDEST SWAP5 SWAP4 POP POP POP POP JUMP JUMPDEST PUSH1 0x0 PUSH2 0x242C DUP3 PUSH2 0x1B34 JUMP JUMPDEST SWAP2 POP PUSH2 0x2437 DUP4 PUSH2 0x1B34 JUMP JUMPDEST SWAP3 POP DUP3 PUSH32 0xFFFFFFFFFFFFFFFFFFFFFFFFFFFFFFFFFFFFFFFFFFFFFFFFFFFFFFFFFFFFFFFF SUB DUP3 GT ISZERO PUSH2 0x246C JUMPI PUSH2 0x246B PUSH2 0x22FC JUMP JUMPDEST JUMPDEST DUP3 DUP3 ADD SWAP1 POP SWAP3 SWAP2 POP POP JUMP JUMPDEST PUSH1 0x0 DUP2 ISZERO ISZERO SWAP1 POP SWAP2 SWAP1 POP JUMP JUMPDEST PUSH2 0x248C DUP2 PUSH2 0x2477 JUMP JUMPDEST DUP2 EQ PUSH2 0x2497 JUMPI PUSH1 0x0 DUP1 REVERT JUMPDEST POP JUMP JUMPDEST PUSH1 0x0 DUP2 MLOAD SWAP1 POP PUSH2 0x24A9 DUP2 PUSH2 0x2483 JUMP JUMPDEST SWAP3 SWAP2 POP POP JUMP JUMPDEST PUSH1 0x0 PUSH1 0x20 DUP3 DUP5 SUB SLT ISZERO PUSH2 0x24C5 JUMPI PUSH2 0x24C4 PUSH2 0x1B2F JUMP JUMPDEST JUMPDEST PUSH1 0x0 PUSH2 0x24D3 DUP5 DUP3 DUP6 ADD PUSH2 0x249A JUMP JUMPDEST SWAP2 POP POP SWAP3 SWAP2 POP POP JUMP JUMPDEST PUSH32 0x5361666542455032303A204245503230206F7065726174696F6E20646964206E PUSH1 0x0 DUP3 ADD MSTORE PUSH32 0x6F74207375636365656400000000000000000000000000000000000000000000 PUSH1 0x20 DUP3 ADD MSTORE POP JUMP JUMPDEST PUSH1 0x0 PUSH2 0x2538 PUSH1 0x2A DUP4 PUSH2 0x1D30 JUMP JUMPDEST SWAP2 POP PUSH2 0x2543 DUP3 PUSH2 0x24DC JUMP JUMPDEST PUSH1 0x40 DUP3 ADD SWAP1 POP SWAP2 SWAP1 POP JUMP JUMPDEST PUSH1 0x0 PUSH1 0x20 DUP3 ADD SWAP1 POP DUP2 DUP2 SUB PUSH1 0x0 DUP4 ADD MSTORE PUSH2 0x2567 DUP2 PUSH2 0x252B JUMP JUMPDEST SWAP1 POP SWAP2 SWAP1 POP JUMP JUMPDEST PUSH32 0x416464726573733A20696E73756666696369656E742062616C616E636520666F PUSH1 0x0 DUP3 ADD MSTORE PUSH32 0x722063616C6C0000000000000000000000000000000000000000000000000000 PUSH1 0x20 DUP3 ADD MSTORE POP JUMP JUMPDEST PUSH1 0x0 PUSH2 0x25CA PUSH1 0x26 DUP4 PUSH2 0x1D30 JUMP JUMPDEST SWAP2 POP PUSH2 0x25D5 DUP3 PUSH2 0x256E JUMP JUMPDEST PUSH1 0x40 DUP3 ADD SWAP1 POP SWAP2 SWAP1 POP JUMP JUMPDEST PUSH1 0x0 PUSH1 0x20 DUP3 ADD SWAP1 POP DUP2 DUP2 SUB PUSH1 0x0 DUP4 ADD MSTORE PUSH2 0x25F9 DUP2 PUSH2 0x25BD JUMP JUMPDEST SWAP1 POP SWAP2 SWAP1 POP JUMP JUMPDEST PUSH32 0x416464726573733A2063616C6C20746F206E6F6E2D636F6E7472616374000000 PUSH1 0x0 DUP3 ADD MSTORE POP JUMP JUMPDEST PUSH1 0x0 PUSH2 0x2636 PUSH1 0x1D DUP4 PUSH2 0x1D30 JUMP JUMPDEST SWAP2 POP PUSH2 0x2641 DUP3 PUSH2 0x2600 JUMP JUMPDEST PUSH1 0x20 DUP3 ADD SWAP1 POP SWAP2 SWAP1 POP JUMP JUMPDEST PUSH1 0x0 PUSH1 0x20 DUP3 ADD SWAP1 POP DUP2 DUP2 SUB PUSH1 0x0 DUP4 ADD MSTORE PUSH2 0x2665 DUP2 PUSH2 0x2629 JUMP JUMPDEST SWAP1 POP SWAP2 SWAP1 POP JUMP JUMPDEST PUSH1 0x0 DUP2 MLOAD SWAP1 POP SWAP2 SWAP1 POP JUMP JUMPDEST PUSH1 0x0 DUP2 SWAP1 POP SWAP3 SWAP2 POP POP JUMP JUMPDEST PUSH1 0x0 JUMPDEST DUP4 DUP2 LT ISZERO PUSH2 0x26A0 JUMPI DUP1 DUP3 ADD MLOAD DUP2 DUP5 ADD MSTORE PUSH1 0x20 DUP2 ADD SWAP1 POP PUSH2 0x2685 JUMP JUMPDEST DUP4 DUP2 GT ISZERO PUSH2 0x26AF JUMPI PUSH1 0x0 DUP5 DUP5 ADD MSTORE JUMPDEST POP POP POP POP JUMP JUMPDEST PUSH1 0x0 PUSH2 0x26C0 DUP3 PUSH2 0x266C JUMP JUMPDEST PUSH2 0x26CA DUP2 DUP6 PUSH2 0x2677 JUMP JUMPDEST SWAP4 POP PUSH2 0x26DA DUP2 DUP6 PUSH1 0x20 DUP7 ADD PUSH2 0x2682 JUMP JUMPDEST DUP1 DUP5 ADD SWAP2 POP POP SWAP3 SWAP2 POP POP JUMP JUMPDEST PUSH1 0x0 PUSH2 0x26F2 DUP3 DUP5 PUSH2 0x26B5 JUMP JUMPDEST SWAP2 POP DUP2 SWAP1 POP SWAP3 SWAP2 POP POP JUMP JUMPDEST PUSH1 0x0 DUP2 MLOAD SWAP1 POP SWAP2 SWAP1 POP JUMP JUMPDEST PUSH1 0x0 PUSH1 0x1F NOT PUSH1 0x1F DUP4 ADD AND SWAP1 POP SWAP2 SWAP1 POP JUMP JUMPDEST PUSH1 0x0 PUSH2 0x2724 DUP3 PUSH2 0x26FD JUMP JUMPDEST PUSH2 0x272E DUP2 DUP6 PUSH2 0x1D30 JUMP JUMPDEST SWAP4 POP PUSH2 0x273E DUP2 DUP6 PUSH1 0x20 DUP7 ADD PUSH2 0x2682 JUMP JUMPDEST PUSH2 0x2747 DUP2 PUSH2 0x2708 JUMP JUMPDEST DUP5 ADD SWAP2 POP POP SWAP3 SWAP2 POP POP JUMP JUMPDEST PUSH1 0x0 PUSH1 0x20 DUP3 ADD SWAP1 POP DUP2 DUP2 SUB PUSH1 0x0 DUP4 ADD MSTORE PUSH2 0x276C DUP2 DUP5 PUSH2 0x2719 JUMP JUMPDEST SWAP1 POP SWAP3 SWAP2 POP POP JUMP INVALID LOG2 PUSH5 0x6970667358 0x22 SLT KECCAK256 0xF8 PUSH7 0x90E040CDCAE6ED 0xE3 SGT JUMPI 0xE9 SWAP12 EXTCODEHASH 0xCC 0xAD 0xCE CALLDATALOAD CALLDATALOAD POP 0x2B 0xF7 LOG4 BYTE 0xB0 0xD6 0x2B DUP7 MUL 0xEB BASEFEE PUSH5 0x736F6C6343 STOP ADDMOD EXP STOP CALLER "
				},
				"gasEstimates": {
					"creation": {
						"codeDepositCost": "2030800",
						"executionCost": "infinite",
						"totalCost": "infinite"
					},
					"external": {
						"harvest()": "infinite",
						"owner()": "2589",
						"renounceOwnership()": "30463",
						"rewardAmount()": "2598",
						"rewardToHarvest()": "2577",
						"setBountyWallet(address)": "infinite",
						"setEventPeriod(uint256)": "infinite",
						"setFixedAPY(uint256)": "infinite",
						"setUnstakingFeeRate(uint256)": "infinite",
						"stake(uint256)": "infinite",
						"stakedAmount()": "2578",
						"startStaking(uint256,uint256)": "infinite",
						"token()": "infinite",
						"totalStaked()": "2452",
						"transferOwnership(address)": "30767",
						"withdraw(uint256)": "infinite"
					},
					"internal": {
						"Init()": "infinite",
						"calDaysFromTimestamp(uint256)": "infinite",
						"updateReward()": "infinite"
					}
				},
				"methodIdentifiers": {
					"harvest()": "4641257d",
					"owner()": "8da5cb5b",
					"renounceOwnership()": "715018a6",
					"rewardAmount()": "f7b2a7be",
					"rewardToHarvest()": "5d2ec65d",
					"setBountyWallet(address)": "8a9d3839",
					"setEventPeriod(uint256)": "692642e7",
					"setFixedAPY(uint256)": "50f19c87",
					"setUnstakingFeeRate(uint256)": "91e07e7a",
					"stake(uint256)": "a694fc3a",
					"stakedAmount()": "373d6132",
					"startStaking(uint256,uint256)": "4b77dd9e",
					"token()": "fc0c546a",
					"totalStaked()": "817b1cd2",
					"transferOwnership(address)": "f2fde38b",
					"withdraw(uint256)": "2e1a7d4d"
				}
			},
			"userdoc": {
				"kind": "user",
				"methods": {},
				"version": 1
			}
		}
	}
}