{
	"contracts/Staking.sol": {
		"StakingPlatform": {
			"abi": [
				{
					"inputs": [
						{
							"internalType": "address",
							"name": "_token",
							"type": "address"
						}
					],
					"stateMutability": "nonpayable",
					"type": "constructor"
				},
				{
					"anonymous": false,
					"inputs": [
						{
							"indexed": false,
							"internalType": "address",
							"name": "staker",
							"type": "address"
						},
						{
							"indexed": false,
							"internalType": "uint256",
							"name": "rewardToClaim",
							"type": "uint256"
						}
					],
					"name": "Harvest",
					"type": "event"
				},
				{
					"anonymous": false,
					"inputs": [
						{
							"indexed": true,
							"internalType": "address",
							"name": "previousOwner",
							"type": "address"
						},
						{
							"indexed": true,
							"internalType": "address",
							"name": "newOwner",
							"type": "address"
						}
					],
					"name": "OwnershipTransferred",
					"type": "event"
				},
				{
					"anonymous": false,
					"inputs": [
						{
							"indexed": false,
							"internalType": "uint256",
							"name": "lockupDuration",
							"type": "uint256"
						}
					],
					"name": "SetEventPeriod",
					"type": "event"
				},
				{
					"anonymous": false,
					"inputs": [
						{
							"indexed": false,
							"internalType": "uint256",
							"name": "rewardRate",
							"type": "uint256"
						}
					],
					"name": "SetRewardRate",
					"type": "event"
				},
				{
					"anonymous": false,
					"inputs": [
						{
							"indexed": false,
							"internalType": "uint256",
							"name": "unstakingFeeRate",
							"type": "uint256"
						}
					],
					"name": "SetUnstakingFeeRate",
					"type": "event"
				},
				{
					"anonymous": false,
					"inputs": [
						{
							"indexed": false,
							"internalType": "address",
							"name": "staker",
							"type": "address"
						},
						{
							"indexed": false,
							"internalType": "uint256",
							"name": "amount",
							"type": "uint256"
						}
					],
					"name": "Staked",
					"type": "event"
				},
				{
					"anonymous": false,
					"inputs": [
						{
							"indexed": false,
							"internalType": "address",
							"name": "staker",
							"type": "address"
						},
						{
							"indexed": false,
							"internalType": "uint256",
							"name": "amount",
							"type": "uint256"
						}
					],
					"name": "Withdraw",
					"type": "event"
				},
				{
					"inputs": [],
					"name": "getNumberofStakers",
					"outputs": [
						{
							"internalType": "uint256",
							"name": "",
							"type": "uint256"
						}
					],
					"stateMutability": "view",
					"type": "function"
				},
				{
					"inputs": [],
					"name": "getRewardRate",
					"outputs": [
						{
							"internalType": "uint256",
							"name": "",
							"type": "uint256"
						}
					],
					"stateMutability": "view",
					"type": "function"
				},
				{
					"inputs": [],
					"name": "getStakedAmount",
					"outputs": [
						{
							"internalType": "uint256",
							"name": "",
							"type": "uint256"
						}
					],
					"stateMutability": "view",
					"type": "function"
				},
				{
					"inputs": [],
					"name": "getStakerMode",
					"outputs": [
						{
							"internalType": "uint256",
							"name": "",
							"type": "uint256"
						}
					],
					"stateMutability": "view",
					"type": "function"
				},
				{
					"inputs": [],
					"name": "getTotalStaked",
					"outputs": [
						{
							"internalType": "uint256",
							"name": "",
							"type": "uint256"
						}
					],
					"stateMutability": "view",
					"type": "function"
				},
				{
					"inputs": [],
					"name": "harvest",
					"outputs": [],
					"stateMutability": "nonpayable",
					"type": "function"
				},
				{
					"inputs": [],
					"name": "isLocked",
					"outputs": [
						{
							"internalType": "bool",
							"name": "",
							"type": "bool"
						}
					],
					"stateMutability": "view",
					"type": "function"
				},
				{
					"inputs": [],
					"name": "isStartStaking",
					"outputs": [
						{
							"internalType": "uint256",
							"name": "",
							"type": "uint256"
						}
					],
					"stateMutability": "view",
					"type": "function"
				},
				{
					"inputs": [],
					"name": "owner",
					"outputs": [
						{
							"internalType": "address",
							"name": "",
							"type": "address"
						}
					],
					"stateMutability": "view",
					"type": "function"
				},
				{
					"inputs": [],
					"name": "renounceOwnership",
					"outputs": [],
					"stateMutability": "nonpayable",
					"type": "function"
				},
				{
					"inputs": [],
					"name": "rewardAmount",
					"outputs": [
						{
							"internalType": "uint256",
							"name": "",
							"type": "uint256"
						}
					],
					"stateMutability": "view",
					"type": "function"
				},
				{
					"inputs": [],
					"name": "rewardToHarvest",
					"outputs": [
						{
							"internalType": "uint256",
							"name": "",
							"type": "uint256"
						}
					],
					"stateMutability": "view",
					"type": "function"
				},
				{
					"inputs": [
						{
							"internalType": "uint256",
							"name": "__eventPeriod",
							"type": "uint256"
						}
					],
					"name": "setEventPeriod",
					"outputs": [],
					"stateMutability": "nonpayable",
					"type": "function"
				},
				{
					"inputs": [
						{
							"internalType": "uint256",
							"name": "lockupTime",
							"type": "uint256"
						}
					],
					"name": "setLockupTime",
					"outputs": [],
					"stateMutability": "nonpayable",
					"type": "function"
				},
				{
					"inputs": [
						{
							"internalType": "uint256",
							"name": "__rewardRate",
							"type": "uint256"
						}
					],
					"name": "setRewardRate",
					"outputs": [],
					"stateMutability": "nonpayable",
					"type": "function"
				},
				{
					"inputs": [
						{
							"internalType": "uint256",
							"name": "__unstakingFeeRate",
							"type": "uint256"
						}
					],
					"name": "setUnstakingFeeRate",
					"outputs": [],
					"stateMutability": "nonpayable",
					"type": "function"
				},
				{
					"inputs": [
						{
							"internalType": "uint256",
							"name": "_amount",
							"type": "uint256"
						}
					],
					"name": "stake",
					"outputs": [],
					"stateMutability": "nonpayable",
					"type": "function"
				},
				{
					"inputs": [],
					"name": "stakedAmount",
					"outputs": [
						{
							"internalType": "uint256",
							"name": "",
							"type": "uint256"
						}
					],
					"stateMutability": "view",
					"type": "function"
				},
				{
					"inputs": [
						{
							"internalType": "uint256",
							"name": "_amount",
							"type": "uint256"
						},
						{
							"internalType": "uint256",
							"name": "_mode",
							"type": "uint256"
						}
					],
					"name": "startStaking",
					"outputs": [],
					"stateMutability": "nonpayable",
					"type": "function"
				},
				{
					"inputs": [],
					"name": "token",
					"outputs": [
						{
							"internalType": "contract IBEP20",
							"name": "",
							"type": "address"
						}
					],
					"stateMutability": "view",
					"type": "function"
				},
				{
					"inputs": [],
					"name": "totalStaked",
					"outputs": [
						{
							"internalType": "uint256",
							"name": "",
							"type": "uint256"
						}
					],
					"stateMutability": "view",
					"type": "function"
				},
				{
					"inputs": [
						{
							"internalType": "address",
							"name": "newOwner",
							"type": "address"
						}
					],
					"name": "transferOwnership",
					"outputs": [],
					"stateMutability": "nonpayable",
					"type": "function"
				},
				{
					"inputs": [
						{
							"internalType": "uint256",
							"name": "amount",
							"type": "uint256"
						}
					],
					"name": "withdraw",
					"outputs": [],
					"stateMutability": "nonpayable",
					"type": "function"
				}
			],
			"devdoc": {
				"kind": "dev",
				"methods": {
					"owner()": {
						"details": "Returns the address of the current owner."
					},
					"renounceOwnership()": {
						"details": "Leaves the contract without owner. It will not be possible to call `onlyOwner` functions anymore. Can only be called by the current owner. NOTE: Renouncing ownership will leave the contract without an owner, thereby removing any functionality that is only available to the owner."
					},
					"transferOwnership(address)": {
						"details": "Transfers ownership of the contract to a new account (`newOwner`). Can only be called by the current owner."
					}
				},
				"version": 1
			},
			"evm": {
				"assembly": "    /* \"contracts/Staking.sol\":204:7902  contract StakingPlatform is Ownable {\r... */\n  mstore(0x40, 0x80)\n    /* \"contracts/Staking.sol\":1447:1543  constructor(address _token) {\r... */\n  callvalue\n  dup1\n  iszero\n  tag_1\n  jumpi\n  0x00\n  dup1\n  revert\ntag_1:\n  pop\n  mload(0x40)\n  sub(codesize, bytecodeSize)\n  dup1\n  bytecodeSize\n  dup4\n  codecopy\n  dup2\n  dup2\n  add\n  0x40\n  mstore\n  dup2\n  add\n  swap1\n  tag_2\n  swap2\n  swap1\n  tag_3\n  jump\t// in\ntag_2:\n    /* \"@openzeppelin/contracts/access/Ownable.sol\":921:953  _transferOwnership(_msgSender()) */\n  tag_7\n    /* \"@openzeppelin/contracts/access/Ownable.sol\":940:952  _msgSender() */\n  tag_8\n    /* \"@openzeppelin/contracts/access/Ownable.sol\":940:950  _msgSender */\n  shl(0x20, tag_9)\n    /* \"@openzeppelin/contracts/access/Ownable.sol\":940:952  _msgSender() */\n  0x20\n  shr\n  jump\t// in\ntag_8:\n    /* \"@openzeppelin/contracts/access/Ownable.sol\":921:939  _transferOwnership */\n  shl(0x20, tag_10)\n    /* \"@openzeppelin/contracts/access/Ownable.sol\":921:953  _transferOwnership(_msgSender()) */\n  0x20\n  shr\n  jump\t// in\ntag_7:\n    /* \"contracts/Staking.sol\":1496:1502  Init() */\n  tag_12\n    /* \"contracts/Staking.sol\":1496:1500  Init */\n  shl(0x20, tag_13)\n    /* \"contracts/Staking.sol\":1496:1502  Init() */\n  0x20\n  shr\n  jump\t// in\ntag_12:\n    /* \"contracts/Staking.sol\":1528:1534  _token */\n  dup1\n    /* \"contracts/Staking.sol\":1513:1518  token */\n  0x09\n  0x00\n    /* \"contracts/Staking.sol\":1513:1535  token = IBEP20(_token) */\n  0x0100\n  exp\n  dup2\n  sload\n  dup2\n  0xffffffffffffffffffffffffffffffffffffffff\n  mul\n  not\n  and\n  swap1\n  dup4\n  0xffffffffffffffffffffffffffffffffffffffff\n  and\n  mul\n  or\n  swap1\n  sstore\n  pop\n    /* \"contracts/Staking.sol\":1447:1543  constructor(address _token) {\r... */\n  pop\n    /* \"contracts/Staking.sol\":204:7902  contract StakingPlatform is Ownable {\r... */\n  jump(tag_14)\n    /* \"@openzeppelin/contracts/utils/Context.sol\":640:736  function _msgSender() internal view virtual returns (address) {... */\ntag_9:\n    /* \"@openzeppelin/contracts/utils/Context.sol\":693:700  address */\n  0x00\n    /* \"@openzeppelin/contracts/utils/Context.sol\":719:729  msg.sender */\n  caller\n    /* \"@openzeppelin/contracts/utils/Context.sol\":712:729  return msg.sender */\n  swap1\n  pop\n    /* \"@openzeppelin/contracts/utils/Context.sol\":640:736  function _msgSender() internal view virtual returns (address) {... */\n  swap1\n  jump\t// out\n    /* \"@openzeppelin/contracts/access/Ownable.sol\":2270:2457  function _transferOwnership(address newOwner) internal virtual {... */\ntag_10:\n    /* \"@openzeppelin/contracts/access/Ownable.sol\":2343:2359  address oldOwner */\n  0x00\n    /* \"@openzeppelin/contracts/access/Ownable.sol\":2362:2368  _owner */\n  dup1\n  0x00\n  swap1\n  sload\n  swap1\n  0x0100\n  exp\n  swap1\n  div\n  0xffffffffffffffffffffffffffffffffffffffff\n  and\n    /* \"@openzeppelin/contracts/access/Ownable.sol\":2343:2368  address oldOwner = _owner */\n  swap1\n  pop\n    /* \"@openzeppelin/contracts/access/Ownable.sol\":2387:2395  newOwner */\n  dup2\n    /* \"@openzeppelin/contracts/access/Ownable.sol\":2378:2384  _owner */\n  0x00\n  dup1\n    /* \"@openzeppelin/contracts/access/Ownable.sol\":2378:2395  _owner = newOwner */\n  0x0100\n  exp\n  dup2\n  sload\n  dup2\n  0xffffffffffffffffffffffffffffffffffffffff\n  mul\n  not\n  and\n  swap1\n  dup4\n  0xffffffffffffffffffffffffffffffffffffffff\n  and\n  mul\n  or\n  swap1\n  sstore\n  pop\n    /* \"@openzeppelin/contracts/access/Ownable.sol\":2441:2449  newOwner */\n  dup2\n    /* \"@openzeppelin/contracts/access/Ownable.sol\":2410:2450  OwnershipTransferred(oldOwner, newOwner) */\n  0xffffffffffffffffffffffffffffffffffffffff\n  and\n    /* \"@openzeppelin/contracts/access/Ownable.sol\":2431:2439  oldOwner */\n  dup2\n    /* \"@openzeppelin/contracts/access/Ownable.sol\":2410:2450  OwnershipTransferred(oldOwner, newOwner) */\n  0xffffffffffffffffffffffffffffffffffffffff\n  and\n  0x8be0079c531659141344cd1fd0a4f28419497f9722a3daafe3b4186f6b6457e0\n  mload(0x40)\n  mload(0x40)\n  dup1\n  swap2\n  sub\n  swap1\n  log3\n    /* \"@openzeppelin/contracts/access/Ownable.sol\":2333:2457  {... */\n  pop\n    /* \"@openzeppelin/contracts/access/Ownable.sol\":2270:2457  function _transferOwnership(address newOwner) internal virtual {... */\n  pop\n  jump\t// out\n    /* \"contracts/Staking.sol\":1551:1765  function Init() internal {\r... */\ntag_13:\n    /* \"contracts/Staking.sol\":1611:1614  200 */\n  0xc8\n    /* \"contracts/Staking.sol\":1597:1608  _rewardRate */\n  0x03\n    /* \"contracts/Staking.sol\":1597:1614  _rewardRate = 200 */\n  dup2\n  swap1\n  sstore\n  pop\n    /* \"contracts/Staking.sol\":1656:1660  1500 */\n  0x05dc\n    /* \"contracts/Staking.sol\":1636:1653  _unstakingFeeRate */\n  0x01\n    /* \"contracts/Staking.sol\":1636:1660  _unstakingFeeRate = 1500 */\n  dup2\n  swap1\n  sstore\n  pop\n    /* \"contracts/Staking.sol\":1688:1691  100 */\n  0x64\n    /* \"contracts/Staking.sol\":1671:1685  _rewardFeeRate */\n  0x04\n    /* \"contracts/Staking.sol\":1671:1691  _rewardFeeRate = 100 */\n  dup2\n  swap1\n  sstore\n  pop\n    /* \"contracts/Staking.sol\":1717:1723  7 days */\n  0x093a80\n    /* \"contracts/Staking.sol\":1702:1714  _eventPeriod */\n  0x02\n    /* \"contracts/Staking.sol\":1702:1723  _eventPeriod = 7 days */\n  dup2\n  swap1\n  sstore\n  pop\n    /* \"contracts/Staking.sol\":1750:1757  90 days */\n  0x76a700\n    /* \"contracts/Staking.sol\":1734:1747  _lockupPeriod */\n  0x05\n    /* \"contracts/Staking.sol\":1734:1757  _lockupPeriod = 90 days */\n  dup2\n  swap1\n  sstore\n  pop\n    /* \"contracts/Staking.sol\":1551:1765  function Init() internal {\r... */\n  jump\t// out\n    /* \"#utility.yul\":7:150   */\ntag_19:\n    /* \"#utility.yul\":64:69   */\n  0x00\n    /* \"#utility.yul\":95:101   */\n  dup2\n    /* \"#utility.yul\":89:102   */\n  mload\n    /* \"#utility.yul\":80:102   */\n  swap1\n  pop\n    /* \"#utility.yul\":111:144   */\n  tag_21\n    /* \"#utility.yul\":138:143   */\n  dup2\n    /* \"#utility.yul\":111:144   */\n  tag_22\n  jump\t// in\ntag_21:\n    /* \"#utility.yul\":7:150   */\n  swap3\n  swap2\n  pop\n  pop\n  jump\t// out\n    /* \"#utility.yul\":156:507   */\ntag_3:\n    /* \"#utility.yul\":226:232   */\n  0x00\n    /* \"#utility.yul\":275:277   */\n  0x20\n    /* \"#utility.yul\":263:272   */\n  dup3\n    /* \"#utility.yul\":254:261   */\n  dup5\n    /* \"#utility.yul\":250:273   */\n  sub\n    /* \"#utility.yul\":246:278   */\n  slt\n    /* \"#utility.yul\":243:362   */\n  iszero\n  tag_24\n  jumpi\n    /* \"#utility.yul\":281:360   */\n  tag_25\n  tag_26\n  jump\t// in\ntag_25:\n    /* \"#utility.yul\":243:362   */\ntag_24:\n    /* \"#utility.yul\":401:402   */\n  0x00\n    /* \"#utility.yul\":426:490   */\n  tag_27\n    /* \"#utility.yul\":482:489   */\n  dup5\n    /* \"#utility.yul\":473:479   */\n  dup3\n    /* \"#utility.yul\":462:471   */\n  dup6\n    /* \"#utility.yul\":458:480   */\n  add\n    /* \"#utility.yul\":426:490   */\n  tag_19\n  jump\t// in\ntag_27:\n    /* \"#utility.yul\":416:490   */\n  swap2\n  pop\n    /* \"#utility.yul\":372:500   */\n  pop\n    /* \"#utility.yul\":156:507   */\n  swap3\n  swap2\n  pop\n  pop\n  jump\t// out\n    /* \"#utility.yul\":594:690   */\ntag_30:\n    /* \"#utility.yul\":631:638   */\n  0x00\n    /* \"#utility.yul\":660:684   */\n  tag_32\n    /* \"#utility.yul\":678:683   */\n  dup3\n    /* \"#utility.yul\":660:684   */\n  tag_33\n  jump\t// in\ntag_32:\n    /* \"#utility.yul\":649:684   */\n  swap1\n  pop\n    /* \"#utility.yul\":594:690   */\n  swap2\n  swap1\n  pop\n  jump\t// out\n    /* \"#utility.yul\":696:822   */\ntag_33:\n    /* \"#utility.yul\":733:740   */\n  0x00\n    /* \"#utility.yul\":773:815   */\n  0xffffffffffffffffffffffffffffffffffffffff\n    /* \"#utility.yul\":766:771   */\n  dup3\n    /* \"#utility.yul\":762:816   */\n  and\n    /* \"#utility.yul\":751:816   */\n  swap1\n  pop\n    /* \"#utility.yul\":696:822   */\n  swap2\n  swap1\n  pop\n  jump\t// out\n    /* \"#utility.yul\":951:1068   */\ntag_26:\n    /* \"#utility.yul\":1060:1061   */\n  0x00\n    /* \"#utility.yul\":1057:1058   */\n  dup1\n    /* \"#utility.yul\":1050:1062   */\n  revert\n    /* \"#utility.yul\":1074:1196   */\ntag_22:\n    /* \"#utility.yul\":1147:1171   */\n  tag_39\n    /* \"#utility.yul\":1165:1170   */\n  dup2\n    /* \"#utility.yul\":1147:1171   */\n  tag_30\n  jump\t// in\ntag_39:\n    /* \"#utility.yul\":1140:1145   */\n  dup2\n    /* \"#utility.yul\":1137:1172   */\n  eq\n    /* \"#utility.yul\":1127:1190   */\n  tag_40\n  jumpi\n    /* \"#utility.yul\":1186:1187   */\n  0x00\n    /* \"#utility.yul\":1183:1184   */\n  dup1\n    /* \"#utility.yul\":1176:1188   */\n  revert\n    /* \"#utility.yul\":1127:1190   */\ntag_40:\n    /* \"#utility.yul\":1074:1196   */\n  pop\n  jump\t// out\n    /* \"contracts/Staking.sol\":204:7902  contract StakingPlatform is Ownable {\r... */\ntag_14:\n  dataSize(sub_0)\n  dup1\n  dataOffset(sub_0)\n  0x00\n  codecopy\n  0x00\n  return\nstop\n\nsub_0: assembly {\n        /* \"contracts/Staking.sol\":204:7902  contract StakingPlatform is Ownable {\r... */\n      mstore(0x40, 0x80)\n      callvalue\n      dup1\n      iszero\n      tag_1\n      jumpi\n      0x00\n      dup1\n      revert\n    tag_1:\n      pop\n      jumpi(tag_2, lt(calldatasize, 0x04))\n      shr(0xe0, calldataload(0x00))\n      dup1\n      0x7e1a3786\n      gt\n      tag_26\n      jumpi\n      dup1\n      0xa4e15db9\n      gt\n      tag_27\n      jumpi\n      dup1\n      0xa4e15db9\n      eq\n      tag_20\n      jumpi\n      dup1\n      0xa4e2d634\n      eq\n      tag_21\n      jumpi\n      dup1\n      0xa694fc3a\n      eq\n      tag_22\n      jumpi\n      dup1\n      0xf2fde38b\n      eq\n      tag_23\n      jumpi\n      dup1\n      0xf7b2a7be\n      eq\n      tag_24\n      jumpi\n      dup1\n      0xfc0c546a\n      eq\n      tag_25\n      jumpi\n      jump(tag_2)\n    tag_27:\n      dup1\n      0x7e1a3786\n      eq\n      tag_14\n      jumpi\n      dup1\n      0x817b1cd2\n      eq\n      tag_15\n      jumpi\n      dup1\n      0x86187082\n      eq\n      tag_16\n      jumpi\n      dup1\n      0x8da5cb5b\n      eq\n      tag_17\n      jumpi\n      dup1\n      0x91e07e7a\n      eq\n      tag_18\n      jumpi\n      dup1\n      0x9e447fc6\n      eq\n      tag_19\n      jumpi\n      jump(tag_2)\n    tag_26:\n      dup1\n      0x4b62b70b\n      gt\n      tag_28\n      jumpi\n      dup1\n      0x4b62b70b\n      eq\n      tag_8\n      jumpi\n      dup1\n      0x4b77dd9e\n      eq\n      tag_9\n      jumpi\n      dup1\n      0x5715ec11\n      eq\n      tag_10\n      jumpi\n      dup1\n      0x5d2ec65d\n      eq\n      tag_11\n      jumpi\n      dup1\n      0x692642e7\n      eq\n      tag_12\n      jumpi\n      dup1\n      0x715018a6\n      eq\n      tag_13\n      jumpi\n      jump(tag_2)\n    tag_28:\n      dup1\n      0x0917e776\n      eq\n      tag_3\n      jumpi\n      dup1\n      0x129488d3\n      eq\n      tag_4\n      jumpi\n      dup1\n      0x2e1a7d4d\n      eq\n      tag_5\n      jumpi\n      dup1\n      0x373d6132\n      eq\n      tag_6\n      jumpi\n      dup1\n      0x4641257d\n      eq\n      tag_7\n      jumpi\n    tag_2:\n      0x00\n      dup1\n      revert\n        /* \"contracts/Staking.sol\":3563:3658  function getTotalStaked() public view returns (uint256) {\r... */\n    tag_3:\n      tag_29\n      tag_30\n      jump\t// in\n    tag_29:\n      mload(0x40)\n      tag_31\n      swap2\n      swap1\n      tag_32\n      jump\t// in\n    tag_31:\n      mload(0x40)\n      dup1\n      swap2\n      sub\n      swap1\n      return\n        /* \"contracts/Staking.sol\":3902:4009  function getStakerMode() public view returns (uint256) {\r... */\n    tag_4:\n      tag_33\n      tag_34\n      jump\t// in\n    tag_33:\n      mload(0x40)\n      tag_35\n      swap2\n      swap1\n      tag_32\n      jump\t// in\n    tag_35:\n      mload(0x40)\n      dup1\n      swap2\n      sub\n      swap1\n      return\n        /* \"contracts/Staking.sol\":4520:5696  function withdraw(uint256 amount) external{\r... */\n    tag_5:\n      tag_36\n      0x04\n      dup1\n      calldatasize\n      sub\n      dup2\n      add\n      swap1\n      tag_37\n      swap2\n      swap1\n      tag_38\n      jump\t// in\n    tag_37:\n      tag_39\n      jump\t// in\n    tag_36:\n      stop\n        /* \"contracts/Staking.sol\":7546:7668  function stakedAmount() public view returns (uint256) {\r... */\n    tag_6:\n      tag_40\n      tag_41\n      jump\t// in\n    tag_40:\n      mload(0x40)\n      tag_42\n      swap2\n      swap1\n      tag_32\n      jump\t// in\n    tag_42:\n      mload(0x40)\n      dup1\n      swap2\n      sub\n      swap1\n      return\n        /* \"contracts/Staking.sol\":6906:7490  function harvest() public{\r... */\n    tag_7:\n      tag_43\n      tag_44\n      jump\t// in\n    tag_43:\n      stop\n        /* \"contracts/Staking.sol\":6481:6643  function setLockupTime(uint256 lockupTime) external onlyOwner {\r... */\n    tag_8:\n      tag_45\n      0x04\n      dup1\n      calldatasize\n      sub\n      dup2\n      add\n      swap1\n      tag_46\n      swap2\n      swap1\n      tag_38\n      jump\t// in\n    tag_46:\n      tag_47\n      jump\t// in\n    tag_45:\n      stop\n        /* \"contracts/Staking.sol\":2372:2887  function startStaking(uint256 _amount, uint256 _mode) external {\r... */\n    tag_9:\n      tag_48\n      0x04\n      dup1\n      calldatasize\n      sub\n      dup2\n      add\n      swap1\n      tag_49\n      swap2\n      swap1\n      tag_50\n      jump\t// in\n    tag_49:\n      tag_51\n      jump\t// in\n    tag_48:\n      stop\n        /* \"contracts/Staking.sol\":3666:3769  function getNumberofStakers() public view returns (uint256) {\r... */\n    tag_10:\n      tag_52\n      tag_53\n      jump\t// in\n    tag_52:\n      mload(0x40)\n      tag_54\n      swap2\n      swap1\n      tag_32\n      jump\t// in\n    tag_54:\n      mload(0x40)\n      dup1\n      swap2\n      sub\n      swap1\n      return\n        /* \"contracts/Staking.sol\":6706:6865  function rewardToHarvest() public view returns (uint256){\r... */\n    tag_11:\n      tag_55\n      tag_56\n      jump\t// in\n    tag_55:\n      mload(0x40)\n      tag_57\n      swap2\n      swap1\n      tag_32\n      jump\t// in\n    tag_57:\n      mload(0x40)\n      dup1\n      swap2\n      sub\n      swap1\n      return\n        /* \"contracts/Staking.sol\":5943:6191  function setEventPeriod(uint256 __eventPeriod) external onlyOwner {\r... */\n    tag_12:\n      tag_58\n      0x04\n      dup1\n      calldatasize\n      sub\n      dup2\n      add\n      swap1\n      tag_59\n      swap2\n      swap1\n      tag_38\n      jump\t// in\n    tag_59:\n      tag_60\n      jump\t// in\n    tag_58:\n      stop\n        /* \"@openzeppelin/contracts/access/Ownable.sol\":1668:1769  function renounceOwnership() public virtual onlyOwner {... */\n    tag_13:\n      tag_61\n      tag_62\n      jump\t// in\n    tag_61:\n      stop\n        /* \"contracts/Staking.sol\":7807:7899  function getRewardRate() public view returns (uint256) {\r... */\n    tag_14:\n      tag_63\n      tag_64\n      jump\t// in\n    tag_63:\n      mload(0x40)\n      tag_65\n      swap2\n      swap1\n      tag_32\n      jump\t// in\n    tag_65:\n      mload(0x40)\n      dup1\n      swap2\n      sub\n      swap1\n      return\n        /* \"contracts/Staking.sol\":987:1013  uint256 public totalStaked */\n    tag_15:\n      tag_66\n      tag_67\n      jump\t// in\n    tag_66:\n      mload(0x40)\n      tag_68\n      swap2\n      swap1\n      tag_32\n      jump\t// in\n    tag_68:\n      mload(0x40)\n      dup1\n      swap2\n      sub\n      swap1\n      return\n        /* \"contracts/Staking.sol\":4017:4127  function isStartStaking() public view returns (uint256) {\r... */\n    tag_16:\n      tag_69\n      tag_70\n      jump\t// in\n    tag_69:\n      mload(0x40)\n      tag_71\n      swap2\n      swap1\n      tag_32\n      jump\t// in\n    tag_71:\n      mload(0x40)\n      dup1\n      swap2\n      sub\n      swap1\n      return\n        /* \"@openzeppelin/contracts/access/Ownable.sol\":1036:1121  function owner() public view virtual returns (address) {... */\n    tag_17:\n      tag_72\n      tag_73\n      jump\t// in\n    tag_72:\n      mload(0x40)\n      tag_74\n      swap2\n      swap1\n      tag_75\n      jump\t// in\n    tag_74:\n      mload(0x40)\n      dup1\n      swap2\n      sub\n      swap1\n      return\n        /* \"contracts/Staking.sol\":6199:6473  function setUnstakingFeeRate(uint256 __unstakingFeeRate) external onlyOwner {\r... */\n    tag_18:\n      tag_76\n      0x04\n      dup1\n      calldatasize\n      sub\n      dup2\n      add\n      swap1\n      tag_77\n      swap2\n      swap1\n      tag_38\n      jump\t// in\n    tag_77:\n      tag_78\n      jump\t// in\n    tag_76:\n      stop\n        /* \"contracts/Staking.sol\":5708:5935  function setRewardRate(uint256 __rewardRate) external onlyOwner {\r... */\n    tag_19:\n      tag_79\n      0x04\n      dup1\n      calldatasize\n      sub\n      dup2\n      add\n      swap1\n      tag_80\n      swap2\n      swap1\n      tag_38\n      jump\t// in\n    tag_80:\n      tag_81\n      jump\t// in\n    tag_79:\n      stop\n        /* \"contracts/Staking.sol\":3777:3894  function getStakedAmount() public view returns (uint256) {\r... */\n    tag_20:\n      tag_82\n      tag_83\n      jump\t// in\n    tag_82:\n      mload(0x40)\n      tag_84\n      swap2\n      swap1\n      tag_32\n      jump\t// in\n    tag_84:\n      mload(0x40)\n      dup1\n      swap2\n      sub\n      swap1\n      return\n        /* \"contracts/Staking.sol\":4135:4473  function isLocked() public view returns (bool) {\r... */\n    tag_21:\n      tag_85\n      tag_86\n      jump\t// in\n    tag_85:\n      mload(0x40)\n      tag_87\n      swap2\n      swap1\n      tag_88\n      jump\t// in\n    tag_87:\n      mload(0x40)\n      dup1\n      swap2\n      sub\n      swap1\n      return\n        /* \"contracts/Staking.sol\":2955:3555  function stake(uint256 _amount) public{\r... */\n    tag_22:\n      tag_89\n      0x04\n      dup1\n      calldatasize\n      sub\n      dup2\n      add\n      swap1\n      tag_90\n      swap2\n      swap1\n      tag_38\n      jump\t// in\n    tag_90:\n      tag_91\n      jump\t// in\n    tag_89:\n      stop\n        /* \"@openzeppelin/contracts/access/Ownable.sol\":1918:2116  function transferOwnership(address newOwner) public virtual onlyOwner {... */\n    tag_23:\n      tag_92\n      0x04\n      dup1\n      calldatasize\n      sub\n      dup2\n      add\n      swap1\n      tag_93\n      swap2\n      swap1\n      tag_94\n      jump\t// in\n    tag_93:\n      tag_95\n      jump\t// in\n    tag_92:\n      stop\n        /* \"contracts/Staking.sol\":7680:7799  function rewardAmount() public view returns (uint256) {\r... */\n    tag_24:\n      tag_96\n      tag_97\n      jump\t// in\n    tag_96:\n      mload(0x40)\n      tag_98\n      swap2\n      swap1\n      tag_32\n      jump\t// in\n    tag_98:\n      mload(0x40)\n      dup1\n      swap2\n      sub\n      swap1\n      return\n        /* \"contracts/Staking.sol\":1020:1039  IBEP20 public token */\n    tag_25:\n      tag_99\n      tag_100\n      jump\t// in\n    tag_99:\n      mload(0x40)\n      tag_101\n      swap2\n      swap1\n      tag_102\n      jump\t// in\n    tag_101:\n      mload(0x40)\n      dup1\n      swap2\n      sub\n      swap1\n      return\n        /* \"contracts/Staking.sol\":3563:3658  function getTotalStaked() public view returns (uint256) {\r... */\n    tag_30:\n        /* \"contracts/Staking.sol\":3610:3617  uint256 */\n      0x00\n        /* \"contracts/Staking.sol\":3639:3650  totalStaked */\n      sload(0x08)\n        /* \"contracts/Staking.sol\":3632:3650  return totalStaked */\n      swap1\n      pop\n        /* \"contracts/Staking.sol\":3563:3658  function getTotalStaked() public view returns (uint256) {\r... */\n      swap1\n      jump\t// out\n        /* \"contracts/Staking.sol\":3902:4009  function getStakerMode() public view returns (uint256) {\r... */\n    tag_34:\n        /* \"contracts/Staking.sol\":3948:3955  uint256 */\n      0x00\n        /* \"contracts/Staking.sol\":3977:3984  _staker */\n      0x07\n        /* \"contracts/Staking.sol\":3977:3996  _staker[msg.sender] */\n      0x00\n        /* \"contracts/Staking.sol\":3985:3995  msg.sender */\n      caller\n        /* \"contracts/Staking.sol\":3977:3996  _staker[msg.sender] */\n      0xffffffffffffffffffffffffffffffffffffffff\n      and\n      0xffffffffffffffffffffffffffffffffffffffff\n      and\n      dup2\n      mstore\n      0x20\n      add\n      swap1\n      dup2\n      mstore\n      0x20\n      add\n      0x00\n      keccak256\n        /* \"contracts/Staking.sol\":3977:4001  _staker[msg.sender].mode */\n      0x02\n      add\n      sload\n        /* \"contracts/Staking.sol\":3970:4001  return _staker[msg.sender].mode */\n      swap1\n      pop\n        /* \"contracts/Staking.sol\":3902:4009  function getStakerMode() public view returns (uint256) {\r... */\n      swap1\n      jump\t// out\n        /* \"contracts/Staking.sol\":4520:5696  function withdraw(uint256 amount) external{\r... */\n    tag_39:\n        /* \"contracts/Staking.sol\":4583:4604  Staker storage staker */\n      0x00\n        /* \"contracts/Staking.sol\":4607:4614  _staker */\n      0x07\n        /* \"contracts/Staking.sol\":4607:4626  _staker[msg.sender] */\n      0x00\n        /* \"contracts/Staking.sol\":4615:4625  msg.sender */\n      caller\n        /* \"contracts/Staking.sol\":4607:4626  _staker[msg.sender] */\n      0xffffffffffffffffffffffffffffffffffffffff\n      and\n      0xffffffffffffffffffffffffffffffffffffffff\n      and\n      dup2\n      mstore\n      0x20\n      add\n      swap1\n      dup2\n      mstore\n      0x20\n      add\n      0x00\n      keccak256\n        /* \"contracts/Staking.sol\":4583:4626  Staker storage staker = _staker[msg.sender] */\n      swap1\n      pop\n        /* \"contracts/Staking.sol\":4656:4657  0 */\n      0x00\n        /* \"contracts/Staking.sol\":4647:4653  amount */\n      dup3\n        /* \"contracts/Staking.sol\":4647:4657  amount > 0 */\n      gt\n        /* \"contracts/Staking.sol\":4639:4693  require(amount > 0, \"Amount should be greater than 0\") */\n      tag_106\n      jumpi\n      mload(0x40)\n      0x08c379a000000000000000000000000000000000000000000000000000000000\n      dup2\n      mstore\n      0x04\n      add\n      tag_107\n      swap1\n      tag_108\n      jump\t// in\n    tag_107:\n      mload(0x40)\n      dup1\n      swap2\n      sub\n      swap1\n      revert\n    tag_106:\n        /* \"contracts/Staking.sol\":4722:4728  staker */\n      dup1\n        /* \"contracts/Staking.sol\":4722:4741  staker.stakedAmount */\n      0x01\n      add\n      sload\n        /* \"contracts/Staking.sol\":4712:4718  amount */\n      dup3\n        /* \"contracts/Staking.sol\":4712:4741  amount <= staker.stakedAmount */\n      gt\n      iszero\n        /* \"contracts/Staking.sol\":4704:4760  require(amount <= staker.stakedAmount, \"Invalid amount\") */\n      tag_109\n      jumpi\n      mload(0x40)\n      0x08c379a000000000000000000000000000000000000000000000000000000000\n      dup2\n      mstore\n      0x04\n      add\n      tag_110\n      swap1\n      tag_111\n      jump\t// in\n    tag_110:\n      mload(0x40)\n      dup1\n      swap2\n      sub\n      swap1\n      revert\n    tag_109:\n        /* \"contracts/Staking.sol\":4773:4787  updateReward() */\n      tag_112\n        /* \"contracts/Staking.sol\":4773:4785  updateReward */\n      tag_113\n        /* \"contracts/Staking.sol\":4773:4787  updateReward() */\n      jump\t// in\n    tag_112:\n        /* \"contracts/Staking.sol\":4798:4825  uint256 amountTobeWithdrawn */\n      0x00\n        /* \"contracts/Staking.sol\":4837:4842  token */\n      0x09\n      0x00\n      swap1\n      sload\n      swap1\n      0x0100\n      exp\n      swap1\n      div\n      0xffffffffffffffffffffffffffffffffffffffff\n      and\n        /* \"contracts/Staking.sol\":4837:4852  token.balanceOf */\n      0xffffffffffffffffffffffffffffffffffffffff\n      and\n      0x70a08231\n        /* \"contracts/Staking.sol\":4861:4865  this */\n      address\n        /* \"contracts/Staking.sol\":4837:4867  token.balanceOf(address(this)) */\n      mload(0x40)\n      dup3\n      0xffffffff\n      and\n      0xe0\n      shl\n      dup2\n      mstore\n      0x04\n      add\n      tag_114\n      swap2\n      swap1\n      tag_75\n      jump\t// in\n    tag_114:\n      0x20\n      mload(0x40)\n      dup1\n      dup4\n      sub\n      dup2\n      dup7\n      dup1\n      extcodesize\n      iszero\n      dup1\n      iszero\n      tag_115\n      jumpi\n      0x00\n      dup1\n      revert\n    tag_115:\n      pop\n      gas\n      staticcall\n      iszero\n      dup1\n      iszero\n      tag_117\n      jumpi\n      returndatasize\n      0x00\n      dup1\n      returndatacopy\n      revert(0x00, returndatasize)\n    tag_117:\n      pop\n      pop\n      pop\n      pop\n      mload(0x40)\n      returndatasize\n      not(0x1f)\n      0x1f\n      dup3\n      add\n      and\n      dup3\n      add\n      dup1\n      0x40\n      mstore\n      pop\n      dup2\n      add\n      swap1\n      tag_118\n      swap2\n      swap1\n      tag_119\n      jump\t// in\n    tag_118:\n        /* \"contracts/Staking.sol\":4828:4834  amount */\n      dup4\n        /* \"contracts/Staking.sol\":4828:4867  amount < token.balanceOf(address(this)) */\n      lt\n        /* \"contracts/Staking.sol\":4828:4909  amount < token.balanceOf(address(this)) ? amount : token.balanceOf(address(this)) */\n      tag_120\n      jumpi\n        /* \"contracts/Staking.sol\":4879:4884  token */\n      0x09\n      0x00\n      swap1\n      sload\n      swap1\n      0x0100\n      exp\n      swap1\n      div\n      0xffffffffffffffffffffffffffffffffffffffff\n      and\n        /* \"contracts/Staking.sol\":4879:4894  token.balanceOf */\n      0xffffffffffffffffffffffffffffffffffffffff\n      and\n      0x70a08231\n        /* \"contracts/Staking.sol\":4903:4907  this */\n      address\n        /* \"contracts/Staking.sol\":4879:4909  token.balanceOf(address(this)) */\n      mload(0x40)\n      dup3\n      0xffffffff\n      and\n      0xe0\n      shl\n      dup2\n      mstore\n      0x04\n      add\n      tag_121\n      swap2\n      swap1\n      tag_75\n      jump\t// in\n    tag_121:\n      0x20\n      mload(0x40)\n      dup1\n      dup4\n      sub\n      dup2\n      dup7\n      dup1\n      extcodesize\n      iszero\n      dup1\n      iszero\n      tag_122\n      jumpi\n      0x00\n      dup1\n      revert\n    tag_122:\n      pop\n      gas\n      staticcall\n      iszero\n      dup1\n      iszero\n      tag_124\n      jumpi\n      returndatasize\n      0x00\n      dup1\n      returndatacopy\n      revert(0x00, returndatasize)\n    tag_124:\n      pop\n      pop\n      pop\n      pop\n      mload(0x40)\n      returndatasize\n      not(0x1f)\n      0x1f\n      dup3\n      add\n      and\n      dup3\n      add\n      dup1\n      0x40\n      mstore\n      pop\n      dup2\n      add\n      swap1\n      tag_125\n      swap2\n      swap1\n      tag_119\n      jump\t// in\n    tag_125:\n        /* \"contracts/Staking.sol\":4828:4909  amount < token.balanceOf(address(this)) ? amount : token.balanceOf(address(this)) */\n      jump(tag_126)\n    tag_120:\n        /* \"contracts/Staking.sol\":4870:4876  amount */\n      dup3\n        /* \"contracts/Staking.sol\":4828:4909  amount < token.balanceOf(address(this)) ? amount : token.balanceOf(address(this)) */\n    tag_126:\n        /* \"contracts/Staking.sol\":4798:4909  uint256 amountTobeWithdrawn = amount < token.balanceOf(address(this)) ? amount : token.balanceOf(address(this)) */\n      swap1\n      pop\n        /* \"contracts/Staking.sol\":4920:4934  uint256 during */\n      0x00\n        /* \"contracts/Staking.sol\":4937:4991  block.timestamp.sub(staker.stakeStartTime).div(1 days) */\n      tag_127\n        /* \"contracts/Staking.sol\":4984:4990  1 days */\n      0x015180\n        /* \"contracts/Staking.sol\":4937:4979  block.timestamp.sub(staker.stakeStartTime) */\n      tag_128\n        /* \"contracts/Staking.sol\":4957:4963  staker */\n      dup6\n        /* \"contracts/Staking.sol\":4957:4978  staker.stakeStartTime */\n      0x03\n      add\n      sload\n        /* \"contracts/Staking.sol\":4937:4952  block.timestamp */\n      timestamp\n        /* \"contracts/Staking.sol\":4937:4956  block.timestamp.sub */\n      tag_129\n      swap1\n        /* \"contracts/Staking.sol\":4937:4979  block.timestamp.sub(staker.stakeStartTime) */\n      swap2\n      swap1\n      0xffffffff\n      and\n      jump\t// in\n    tag_128:\n        /* \"contracts/Staking.sol\":4937:4983  block.timestamp.sub(staker.stakeStartTime).div */\n      tag_130\n      swap1\n        /* \"contracts/Staking.sol\":4937:4991  block.timestamp.sub(staker.stakeStartTime).div(1 days) */\n      swap2\n      swap1\n      0xffffffff\n      and\n      jump\t// in\n    tag_127:\n        /* \"contracts/Staking.sol\":4920:4991  uint256 during = block.timestamp.sub(staker.stakeStartTime).div(1 days) */\n      swap1\n      pop\n        /* \"contracts/Staking.sol\":5002:5013  uint256 fee */\n      0x00\n        /* \"contracts/Staking.sol\":5016:5019  100 */\n      0x64\n        /* \"contracts/Staking.sol\":5002:5019  uint256 fee = 100 */\n      swap1\n      pop\n        /* \"contracts/Staking.sol\":5030:5051  bool isLockupTimeOver */\n      0x00\n        /* \"contracts/Staking.sol\":5069:5070  1 */\n      0x01\n        /* \"contracts/Staking.sol\":5054:5060  staker */\n      dup6\n        /* \"contracts/Staking.sol\":5054:5065  staker.mode */\n      0x02\n      add\n      sload\n        /* \"contracts/Staking.sol\":5054:5070  staker.mode == 1 */\n      eq\n        /* \"contracts/Staking.sol\":5054:5188  staker.mode == 1 ? during % _eventPeriod == 0 && during > 0 :\r... */\n      tag_131\n      jumpi\n        /* \"contracts/Staking.sol\":5148:5188  staker.stakeStartTime.add(_lockupPeriod) */\n      tag_132\n        /* \"contracts/Staking.sol\":5174:5187  _lockupPeriod */\n      sload(0x05)\n        /* \"contracts/Staking.sol\":5148:5154  staker */\n      dup7\n        /* \"contracts/Staking.sol\":5148:5169  staker.stakeStartTime */\n      0x03\n      add\n      sload\n        /* \"contracts/Staking.sol\":5148:5173  staker.stakeStartTime.add */\n      tag_133\n      swap1\n        /* \"contracts/Staking.sol\":5148:5188  staker.stakeStartTime.add(_lockupPeriod) */\n      swap2\n      swap1\n      0xffffffff\n      and\n      jump\t// in\n    tag_132:\n        /* \"contracts/Staking.sol\":5129:5144  block.timestamp */\n      timestamp\n        /* \"contracts/Staking.sol\":5129:5188  block.timestamp >= staker.stakeStartTime.add(_lockupPeriod) */\n      lt\n      iszero\n        /* \"contracts/Staking.sol\":5054:5188  staker.mode == 1 ? during % _eventPeriod == 0 && during > 0 :\r... */\n      jump(tag_134)\n    tag_131:\n        /* \"contracts/Staking.sol\":5098:5099  0 */\n      0x00\n        /* \"contracts/Staking.sol\":5082:5094  _eventPeriod */\n      sload(0x02)\n        /* \"contracts/Staking.sol\":5073:5079  during */\n      dup5\n        /* \"contracts/Staking.sol\":5073:5094  during % _eventPeriod */\n      tag_135\n      swap2\n      swap1\n      tag_136\n      jump\t// in\n    tag_135:\n        /* \"contracts/Staking.sol\":5073:5099  during % _eventPeriod == 0 */\n      eq\n        /* \"contracts/Staking.sol\":5073:5113  during % _eventPeriod == 0 && during > 0 */\n      dup1\n      iszero\n      tag_137\n      jumpi\n      pop\n        /* \"contracts/Staking.sol\":5112:5113  0 */\n      0x00\n        /* \"contracts/Staking.sol\":5103:5109  during */\n      dup4\n        /* \"contracts/Staking.sol\":5103:5113  during > 0 */\n      gt\n        /* \"contracts/Staking.sol\":5073:5113  during % _eventPeriod == 0 && during > 0 */\n    tag_137:\n        /* \"contracts/Staking.sol\":5054:5188  staker.mode == 1 ? during % _eventPeriod == 0 && during > 0 :\r... */\n    tag_134:\n        /* \"contracts/Staking.sol\":5030:5188  bool isLockupTimeOver = staker.mode == 1 ? during % _eventPeriod == 0 && during > 0 :\r... */\n      swap1\n      pop\n        /* \"contracts/Staking.sol\":5204:5220  isLockupTimeOver */\n      dup1\n        /* \"contracts/Staking.sol\":5199:5272  if (!isLockupTimeOver) {\r... */\n      tag_138\n      jumpi\n        /* \"contracts/Staking.sol\":5243:5260  _unstakingFeeRate */\n      sload(0x01)\n        /* \"contracts/Staking.sol\":5237:5260  fee = _unstakingFeeRate */\n      swap2\n      pop\n        /* \"contracts/Staking.sol\":5199:5272  if (!isLockupTimeOver) {\r... */\n    tag_138:\n        /* \"contracts/Staking.sol\":5304:5366  amountTobeWithdrawn.sub(amountTobeWithdrawn.mul(fee).div(1e4)) */\n      tag_139\n        /* \"contracts/Staking.sol\":5328:5365  amountTobeWithdrawn.mul(fee).div(1e4) */\n      tag_140\n        /* \"contracts/Staking.sol\":5361:5364  1e4 */\n      0x2710\n        /* \"contracts/Staking.sol\":5328:5356  amountTobeWithdrawn.mul(fee) */\n      tag_141\n        /* \"contracts/Staking.sol\":5352:5355  fee */\n      dup6\n        /* \"contracts/Staking.sol\":5328:5347  amountTobeWithdrawn */\n      dup9\n        /* \"contracts/Staking.sol\":5328:5351  amountTobeWithdrawn.mul */\n      tag_142\n      swap1\n        /* \"contracts/Staking.sol\":5328:5356  amountTobeWithdrawn.mul(fee) */\n      swap2\n      swap1\n      0xffffffff\n      and\n      jump\t// in\n    tag_141:\n        /* \"contracts/Staking.sol\":5328:5360  amountTobeWithdrawn.mul(fee).div */\n      tag_130\n      swap1\n        /* \"contracts/Staking.sol\":5328:5365  amountTobeWithdrawn.mul(fee).div(1e4) */\n      swap2\n      swap1\n      0xffffffff\n      and\n      jump\t// in\n    tag_140:\n        /* \"contracts/Staking.sol\":5304:5323  amountTobeWithdrawn */\n      dup6\n        /* \"contracts/Staking.sol\":5304:5327  amountTobeWithdrawn.sub */\n      tag_129\n      swap1\n        /* \"contracts/Staking.sol\":5304:5366  amountTobeWithdrawn.sub(amountTobeWithdrawn.mul(fee).div(1e4)) */\n      swap2\n      swap1\n      0xffffffff\n      and\n      jump\t// in\n    tag_139:\n        /* \"contracts/Staking.sol\":5282:5366  amountTobeWithdrawn = amountTobeWithdrawn.sub(amountTobeWithdrawn.mul(fee).div(1e4)) */\n      swap4\n      pop\n        /* \"contracts/Staking.sol\":5391:5427  totalStaked.sub(amountTobeWithdrawn) */\n      tag_143\n        /* \"contracts/Staking.sol\":5407:5426  amountTobeWithdrawn */\n      dup5\n        /* \"contracts/Staking.sol\":5391:5402  totalStaked */\n      sload(0x08)\n        /* \"contracts/Staking.sol\":5391:5406  totalStaked.sub */\n      tag_129\n      swap1\n        /* \"contracts/Staking.sol\":5391:5427  totalStaked.sub(amountTobeWithdrawn) */\n      swap2\n      swap1\n      0xffffffff\n      and\n      jump\t// in\n    tag_143:\n        /* \"contracts/Staking.sol\":5377:5388  totalStaked */\n      0x08\n        /* \"contracts/Staking.sol\":5377:5427  totalStaked = totalStaked.sub(amountTobeWithdrawn) */\n      dup2\n      swap1\n      sstore\n      pop\n        /* \"contracts/Staking.sol\":5460:5504  staker.stakedAmount.sub(amountTobeWithdrawn) */\n      tag_144\n        /* \"contracts/Staking.sol\":5484:5503  amountTobeWithdrawn */\n      dup5\n        /* \"contracts/Staking.sol\":5460:5466  staker */\n      dup7\n        /* \"contracts/Staking.sol\":5460:5479  staker.stakedAmount */\n      0x01\n      add\n      sload\n        /* \"contracts/Staking.sol\":5460:5483  staker.stakedAmount.sub */\n      tag_129\n      swap1\n        /* \"contracts/Staking.sol\":5460:5504  staker.stakedAmount.sub(amountTobeWithdrawn) */\n      swap2\n      swap1\n      0xffffffff\n      and\n      jump\t// in\n    tag_144:\n        /* \"contracts/Staking.sol\":5438:5444  staker */\n      dup6\n        /* \"contracts/Staking.sol\":5438:5457  staker.stakedAmount */\n      0x01\n      add\n        /* \"contracts/Staking.sol\":5438:5504  staker.stakedAmount = staker.stakedAmount.sub(amountTobeWithdrawn) */\n      dup2\n      swap1\n      sstore\n      pop\n        /* \"contracts/Staking.sol\":5515:5566  token.safeTransfer(msg.sender, amountTobeWithdrawn) */\n      tag_145\n        /* \"contracts/Staking.sol\":5534:5544  msg.sender */\n      caller\n        /* \"contracts/Staking.sol\":5546:5565  amountTobeWithdrawn */\n      dup6\n        /* \"contracts/Staking.sol\":5515:5520  token */\n      0x09\n      0x00\n      swap1\n      sload\n      swap1\n      0x0100\n      exp\n      swap1\n      div\n      0xffffffffffffffffffffffffffffffffffffffff\n      and\n        /* \"contracts/Staking.sol\":5515:5533  token.safeTransfer */\n      0xffffffffffffffffffffffffffffffffffffffff\n      and\n      tag_146\n      swap1\n        /* \"contracts/Staking.sol\":5515:5566  token.safeTransfer(msg.sender, amountTobeWithdrawn) */\n      swap3\n      swap2\n      swap1\n      0xffffffff\n      and\n      jump\t// in\n    tag_145:\n        /* \"contracts/Staking.sol\":5584:5625  Withdraw(msg.sender, amountTobeWithdrawn) */\n      0x884edad9ce6fa2440d8a54cc123490eb96d2768479d49ff9c7366125a9424364\n        /* \"contracts/Staking.sol\":5593:5603  msg.sender */\n      caller\n        /* \"contracts/Staking.sol\":5605:5624  amountTobeWithdrawn */\n      dup6\n        /* \"contracts/Staking.sol\":5584:5625  Withdraw(msg.sender, amountTobeWithdrawn) */\n      mload(0x40)\n      tag_147\n      swap3\n      swap2\n      swap1\n      tag_148\n      jump\t// in\n    tag_147:\n      mload(0x40)\n      dup1\n      swap2\n      sub\n      swap1\n      log1\n        /* \"contracts/Staking.sol\":4562:5696  {\r... */\n      pop\n      pop\n      pop\n      pop\n      pop\n        /* \"contracts/Staking.sol\":4520:5696  function withdraw(uint256 amount) external{\r... */\n      pop\n      jump\t// out\n        /* \"contracts/Staking.sol\":7546:7668  function stakedAmount() public view returns (uint256) {\r... */\n    tag_41:\n        /* \"contracts/Staking.sol\":7591:7598  uint256 */\n      0x00\n        /* \"contracts/Staking.sol\":7628:7635  _staker */\n      0x07\n        /* \"contracts/Staking.sol\":7628:7647  _staker[msg.sender] */\n      0x00\n        /* \"contracts/Staking.sol\":7636:7646  msg.sender */\n      caller\n        /* \"contracts/Staking.sol\":7628:7647  _staker[msg.sender] */\n      0xffffffffffffffffffffffffffffffffffffffff\n      and\n      0xffffffffffffffffffffffffffffffffffffffff\n      and\n      dup2\n      mstore\n      0x20\n      add\n      swap1\n      dup2\n      mstore\n      0x20\n      add\n      0x00\n      keccak256\n        /* \"contracts/Staking.sol\":7628:7660  _staker[msg.sender].stakedAmount */\n      0x01\n      add\n      sload\n        /* \"contracts/Staking.sol\":7621:7660  return _staker[msg.sender].stakedAmount */\n      swap1\n      pop\n        /* \"contracts/Staking.sol\":7546:7668  function stakedAmount() public view returns (uint256) {\r... */\n      swap1\n      jump\t// out\n        /* \"contracts/Staking.sol\":6906:7490  function harvest() public{\r... */\n    tag_44:\n        /* \"contracts/Staking.sol\":6952:6966  updateReward() */\n      tag_151\n        /* \"contracts/Staking.sol\":6952:6964  updateReward */\n      tag_113\n        /* \"contracts/Staking.sol\":6952:6966  updateReward() */\n      jump\t// in\n    tag_151:\n        /* \"contracts/Staking.sol\":6977:6998  Staker storage staker */\n      0x00\n        /* \"contracts/Staking.sol\":7001:7008  _staker */\n      0x07\n        /* \"contracts/Staking.sol\":7001:7020  _staker[msg.sender] */\n      0x00\n        /* \"contracts/Staking.sol\":7009:7019  msg.sender */\n      caller\n        /* \"contracts/Staking.sol\":7001:7020  _staker[msg.sender] */\n      0xffffffffffffffffffffffffffffffffffffffff\n      and\n      0xffffffffffffffffffffffffffffffffffffffff\n      and\n      dup2\n      mstore\n      0x20\n      add\n      swap1\n      dup2\n      mstore\n      0x20\n      add\n      0x00\n      keccak256\n        /* \"contracts/Staking.sol\":6977:7020  Staker storage staker = _staker[msg.sender] */\n      swap1\n      pop\n        /* \"contracts/Staking.sol\":7031:7052  uint256 rewardToClaim */\n      0x00\n        /* \"contracts/Staking.sol\":7055:7144  staker.stakerCurrentReward.sub(staker.stakerCurrentReward.mul(_rewardFeeRate).div(10**4)) */\n      tag_152\n        /* \"contracts/Staking.sol\":7086:7143  staker.stakerCurrentReward.mul(_rewardFeeRate).div(10**4) */\n      tag_153\n        /* \"contracts/Staking.sol\":7137:7142  10**4 */\n      0x2710\n        /* \"contracts/Staking.sol\":7086:7132  staker.stakerCurrentReward.mul(_rewardFeeRate) */\n      tag_154\n        /* \"contracts/Staking.sol\":7117:7131  _rewardFeeRate */\n      sload(0x04)\n        /* \"contracts/Staking.sol\":7086:7092  staker */\n      dup7\n        /* \"contracts/Staking.sol\":7086:7112  staker.stakerCurrentReward */\n      0x00\n      add\n      sload\n        /* \"contracts/Staking.sol\":7086:7116  staker.stakerCurrentReward.mul */\n      tag_142\n      swap1\n        /* \"contracts/Staking.sol\":7086:7132  staker.stakerCurrentReward.mul(_rewardFeeRate) */\n      swap2\n      swap1\n      0xffffffff\n      and\n      jump\t// in\n    tag_154:\n        /* \"contracts/Staking.sol\":7086:7136  staker.stakerCurrentReward.mul(_rewardFeeRate).div */\n      tag_130\n      swap1\n        /* \"contracts/Staking.sol\":7086:7143  staker.stakerCurrentReward.mul(_rewardFeeRate).div(10**4) */\n      swap2\n      swap1\n      0xffffffff\n      and\n      jump\t// in\n    tag_153:\n        /* \"contracts/Staking.sol\":7055:7061  staker */\n      dup4\n        /* \"contracts/Staking.sol\":7055:7081  staker.stakerCurrentReward */\n      0x00\n      add\n      sload\n        /* \"contracts/Staking.sol\":7055:7085  staker.stakerCurrentReward.sub */\n      tag_129\n      swap1\n        /* \"contracts/Staking.sol\":7055:7144  staker.stakerCurrentReward.sub(staker.stakerCurrentReward.mul(_rewardFeeRate).div(10**4)) */\n      swap2\n      swap1\n      0xffffffff\n      and\n      jump\t// in\n    tag_152:\n        /* \"contracts/Staking.sol\":7031:7144  uint256 rewardToClaim = staker.stakerCurrentReward.sub(staker.stakerCurrentReward.mul(_rewardFeeRate).div(10**4)) */\n      swap1\n      pop\n        /* \"contracts/Staking.sol\":7189:7190  0 */\n      0x00\n        /* \"contracts/Staking.sol\":7173:7186  rewardToClaim */\n      dup2\n        /* \"contracts/Staking.sol\":7173:7190  rewardToClaim > 0 */\n      gt\n        /* \"contracts/Staking.sol\":7165:7211  require(rewardToClaim > 0, \"Nothing to claim\") */\n      tag_155\n      jumpi\n      mload(0x40)\n      0x08c379a000000000000000000000000000000000000000000000000000000000\n      dup2\n      mstore\n      0x04\n      add\n      tag_156\n      swap1\n      tag_157\n      jump\t// in\n    tag_156:\n      mload(0x40)\n      dup1\n      swap2\n      sub\n      swap1\n      revert\n    tag_155:\n        /* \"contracts/Staking.sol\":7242:7247  token */\n      0x09\n      0x00\n      swap1\n      sload\n      swap1\n      0x0100\n      exp\n      swap1\n      div\n      0xffffffffffffffffffffffffffffffffffffffff\n      and\n        /* \"contracts/Staking.sol\":7242:7257  token.balanceOf */\n      0xffffffffffffffffffffffffffffffffffffffff\n      and\n      0x70a08231\n        /* \"contracts/Staking.sol\":7266:7270  this */\n      address\n        /* \"contracts/Staking.sol\":7242:7272  token.balanceOf(address(this)) */\n      mload(0x40)\n      dup3\n      0xffffffff\n      and\n      0xe0\n      shl\n      dup2\n      mstore\n      0x04\n      add\n      tag_158\n      swap2\n      swap1\n      tag_75\n      jump\t// in\n    tag_158:\n      0x20\n      mload(0x40)\n      dup1\n      dup4\n      sub\n      dup2\n      dup7\n      dup1\n      extcodesize\n      iszero\n      dup1\n      iszero\n      tag_159\n      jumpi\n      0x00\n      dup1\n      revert\n    tag_159:\n      pop\n      gas\n      staticcall\n      iszero\n      dup1\n      iszero\n      tag_161\n      jumpi\n      returndatasize\n      0x00\n      dup1\n      returndatacopy\n      revert(0x00, returndatasize)\n    tag_161:\n      pop\n      pop\n      pop\n      pop\n      mload(0x40)\n      returndatasize\n      not(0x1f)\n      0x1f\n      dup3\n      add\n      and\n      dup3\n      add\n      dup1\n      0x40\n      mstore\n      pop\n      dup2\n      add\n      swap1\n      tag_162\n      swap2\n      swap1\n      tag_119\n      jump\t// in\n    tag_162:\n        /* \"contracts/Staking.sol\":7226:7239  rewardToClaim */\n      dup2\n        /* \"contracts/Staking.sol\":7226:7272  rewardToClaim > token.balanceOf(address(this)) */\n      gt\n        /* \"contracts/Staking.sol\":7222:7333  if (rewardToClaim > token.balanceOf(address(this)))\r... */\n      iszero\n      tag_163\n      jumpi\n        /* \"contracts/Staking.sol\":7303:7308  token */\n      0x09\n      0x00\n      swap1\n      sload\n      swap1\n      0x0100\n      exp\n      swap1\n      div\n      0xffffffffffffffffffffffffffffffffffffffff\n      and\n        /* \"contracts/Staking.sol\":7303:7318  token.balanceOf */\n      0xffffffffffffffffffffffffffffffffffffffff\n      and\n      0x70a08231\n        /* \"contracts/Staking.sol\":7327:7331  this */\n      address\n        /* \"contracts/Staking.sol\":7303:7333  token.balanceOf(address(this)) */\n      mload(0x40)\n      dup3\n      0xffffffff\n      and\n      0xe0\n      shl\n      dup2\n      mstore\n      0x04\n      add\n      tag_164\n      swap2\n      swap1\n      tag_75\n      jump\t// in\n    tag_164:\n      0x20\n      mload(0x40)\n      dup1\n      dup4\n      sub\n      dup2\n      dup7\n      dup1\n      extcodesize\n      iszero\n      dup1\n      iszero\n      tag_165\n      jumpi\n      0x00\n      dup1\n      revert\n    tag_165:\n      pop\n      gas\n      staticcall\n      iszero\n      dup1\n      iszero\n      tag_167\n      jumpi\n      returndatasize\n      0x00\n      dup1\n      returndatacopy\n      revert(0x00, returndatasize)\n    tag_167:\n      pop\n      pop\n      pop\n      pop\n      mload(0x40)\n      returndatasize\n      not(0x1f)\n      0x1f\n      dup3\n      add\n      and\n      dup3\n      add\n      dup1\n      0x40\n      mstore\n      pop\n      dup2\n      add\n      swap1\n      tag_168\n      swap2\n      swap1\n      tag_119\n      jump\t// in\n    tag_168:\n        /* \"contracts/Staking.sol\":7287:7333  rewardToClaim = token.balanceOf(address(this)) */\n      swap1\n      pop\n        /* \"contracts/Staking.sol\":7222:7333  if (rewardToClaim > token.balanceOf(address(this)))\r... */\n    tag_163:\n        /* \"contracts/Staking.sol\":7344:7389  token.safeTransfer(msg.sender, rewardToClaim) */\n      tag_169\n        /* \"contracts/Staking.sol\":7363:7373  msg.sender */\n      caller\n        /* \"contracts/Staking.sol\":7375:7388  rewardToClaim */\n      dup3\n        /* \"contracts/Staking.sol\":7344:7349  token */\n      0x09\n      0x00\n      swap1\n      sload\n      swap1\n      0x0100\n      exp\n      swap1\n      div\n      0xffffffffffffffffffffffffffffffffffffffff\n      and\n        /* \"contracts/Staking.sol\":7344:7362  token.safeTransfer */\n      0xffffffffffffffffffffffffffffffffffffffff\n      and\n      tag_146\n      swap1\n        /* \"contracts/Staking.sol\":7344:7389  token.safeTransfer(msg.sender, rewardToClaim) */\n      swap3\n      swap2\n      swap1\n      0xffffffff\n      and\n      jump\t// in\n    tag_169:\n        /* \"contracts/Staking.sol\":7429:7430  0 */\n      0x00\n        /* \"contracts/Staking.sol\":7400:7406  staker */\n      dup3\n        /* \"contracts/Staking.sol\":7400:7426  staker.stakerCurrentReward */\n      0x00\n      add\n        /* \"contracts/Staking.sol\":7400:7430  staker.stakerCurrentReward = 0 */\n      dup2\n      swap1\n      sstore\n      pop\n        /* \"contracts/Staking.sol\":7448:7482  Harvest(msg.sender, rewardToClaim) */\n      0xc9695243a805adb74c91f28311176c65b417e842d5699893cef56d18bfa48cba\n        /* \"contracts/Staking.sol\":7456:7466  msg.sender */\n      caller\n        /* \"contracts/Staking.sol\":7468:7481  rewardToClaim */\n      dup3\n        /* \"contracts/Staking.sol\":7448:7482  Harvest(msg.sender, rewardToClaim) */\n      mload(0x40)\n      tag_170\n      swap3\n      swap2\n      swap1\n      tag_148\n      jump\t// in\n    tag_170:\n      mload(0x40)\n      dup1\n      swap2\n      sub\n      swap1\n      log1\n        /* \"contracts/Staking.sol\":6931:7490  {\r... */\n      pop\n      pop\n        /* \"contracts/Staking.sol\":6906:7490  function harvest() public{\r... */\n      jump\t// out\n        /* \"contracts/Staking.sol\":6481:6643  function setLockupTime(uint256 lockupTime) external onlyOwner {\r... */\n    tag_47:\n        /* \"@openzeppelin/contracts/access/Ownable.sol\":1259:1271  _msgSender() */\n      tag_172\n        /* \"@openzeppelin/contracts/access/Ownable.sol\":1259:1269  _msgSender */\n      tag_173\n        /* \"@openzeppelin/contracts/access/Ownable.sol\":1259:1271  _msgSender() */\n      jump\t// in\n    tag_172:\n        /* \"@openzeppelin/contracts/access/Ownable.sol\":1248:1271  owner() == _msgSender() */\n      0xffffffffffffffffffffffffffffffffffffffff\n      and\n        /* \"@openzeppelin/contracts/access/Ownable.sol\":1248:1255  owner() */\n      tag_174\n        /* \"@openzeppelin/contracts/access/Ownable.sol\":1248:1253  owner */\n      tag_73\n        /* \"@openzeppelin/contracts/access/Ownable.sol\":1248:1255  owner() */\n      jump\t// in\n    tag_174:\n        /* \"@openzeppelin/contracts/access/Ownable.sol\":1248:1271  owner() == _msgSender() */\n      0xffffffffffffffffffffffffffffffffffffffff\n      and\n      eq\n        /* \"@openzeppelin/contracts/access/Ownable.sol\":1240:1308  require(owner() == _msgSender(), \"Ownable: caller is not the owner\") */\n      tag_175\n      jumpi\n      mload(0x40)\n      0x08c379a000000000000000000000000000000000000000000000000000000000\n      dup2\n      mstore\n      0x04\n      add\n      tag_176\n      swap1\n      tag_177\n      jump\t// in\n    tag_176:\n      mload(0x40)\n      dup1\n      swap2\n      sub\n      swap1\n      revert\n    tag_175:\n        /* \"contracts/Staking.sol\":6577:6578  0 */\n      0x00\n        /* \"contracts/Staking.sol\":6564:6574  lockupTime */\n      dup2\n        /* \"contracts/Staking.sol\":6564:6578  lockupTime > 0 */\n      gt\n        /* \"contracts/Staking.sol\":6556:6596  require(lockupTime > 0, \"Can't be zero\") */\n      tag_179\n      jumpi\n      mload(0x40)\n      0x08c379a000000000000000000000000000000000000000000000000000000000\n      dup2\n      mstore\n      0x04\n      add\n      tag_180\n      swap1\n      tag_181\n      jump\t// in\n    tag_180:\n      mload(0x40)\n      dup1\n      swap2\n      sub\n      swap1\n      revert\n    tag_179:\n        /* \"contracts/Staking.sol\":6625:6635  lockupTime */\n      dup1\n        /* \"contracts/Staking.sol\":6609:6622  _lockupPeriod */\n      0x05\n        /* \"contracts/Staking.sol\":6609:6635  _lockupPeriod = lockupTime */\n      dup2\n      swap1\n      sstore\n      pop\n        /* \"contracts/Staking.sol\":6481:6643  function setLockupTime(uint256 lockupTime) external onlyOwner {\r... */\n      pop\n      jump\t// out\n        /* \"contracts/Staking.sol\":2372:2887  function startStaking(uint256 _amount, uint256 _mode) external {\r... */\n    tag_51:\n        /* \"contracts/Staking.sol\":2474:2475  0 */\n      0x00\n        /* \"contracts/Staking.sol\":2464:2471  _amount */\n      dup3\n        /* \"contracts/Staking.sol\":2464:2475  _amount > 0 */\n      gt\n        /* \"contracts/Staking.sol\":2456:2511  require(_amount > 0, \"Amount should be greater than 0\") */\n      tag_183\n      jumpi\n      mload(0x40)\n      0x08c379a000000000000000000000000000000000000000000000000000000000\n      dup2\n      mstore\n      0x04\n      add\n      tag_184\n      swap1\n      tag_108\n      jump\t// in\n    tag_184:\n      mload(0x40)\n      dup1\n      swap2\n      sub\n      swap1\n      revert\n    tag_183:\n        /* \"contracts/Staking.sol\":2560:2567  _amount */\n      dup2\n        /* \"contracts/Staking.sol\":2530:2535  token */\n      0x09\n      0x00\n      swap1\n      sload\n      swap1\n      0x0100\n      exp\n      swap1\n      div\n      0xffffffffffffffffffffffffffffffffffffffff\n      and\n        /* \"contracts/Staking.sol\":2530:2545  token.balanceOf */\n      0xffffffffffffffffffffffffffffffffffffffff\n      and\n      0x70a08231\n        /* \"contracts/Staking.sol\":2546:2556  msg.sender */\n      caller\n        /* \"contracts/Staking.sol\":2530:2557  token.balanceOf(msg.sender) */\n      mload(0x40)\n      dup3\n      0xffffffff\n      and\n      0xe0\n      shl\n      dup2\n      mstore\n      0x04\n      add\n      tag_185\n      swap2\n      swap1\n      tag_75\n      jump\t// in\n    tag_185:\n      0x20\n      mload(0x40)\n      dup1\n      dup4\n      sub\n      dup2\n      dup7\n      dup1\n      extcodesize\n      iszero\n      dup1\n      iszero\n      tag_186\n      jumpi\n      0x00\n      dup1\n      revert\n    tag_186:\n      pop\n      gas\n      staticcall\n      iszero\n      dup1\n      iszero\n      tag_188\n      jumpi\n      returndatasize\n      0x00\n      dup1\n      returndatacopy\n      revert(0x00, returndatasize)\n    tag_188:\n      pop\n      pop\n      pop\n      pop\n      mload(0x40)\n      returndatasize\n      not(0x1f)\n      0x1f\n      dup3\n      add\n      and\n      dup3\n      add\n      dup1\n      0x40\n      mstore\n      pop\n      dup2\n      add\n      swap1\n      tag_189\n      swap2\n      swap1\n      tag_119\n      jump\t// in\n    tag_189:\n        /* \"contracts/Staking.sol\":2530:2567  token.balanceOf(msg.sender) > _amount */\n      gt\n        /* \"contracts/Staking.sol\":2522:2585  require(token.balanceOf(msg.sender) > _amount, \"Insufficient!\") */\n      tag_190\n      jumpi\n      mload(0x40)\n      0x08c379a000000000000000000000000000000000000000000000000000000000\n      dup2\n      mstore\n      0x04\n      add\n      tag_191\n      swap1\n      tag_192\n      jump\t// in\n    tag_191:\n      mload(0x40)\n      dup1\n      swap2\n      sub\n      swap1\n      revert\n    tag_190:\n        /* \"contracts/Staking.sol\":2634:2638  0x55 */\n      0x55\n        /* \"contracts/Staking.sol\":2604:2611  _staker */\n      0x07\n        /* \"contracts/Staking.sol\":2604:2623  _staker[msg.sender] */\n      0x00\n        /* \"contracts/Staking.sol\":2612:2622  msg.sender */\n      caller\n        /* \"contracts/Staking.sol\":2604:2623  _staker[msg.sender] */\n      0xffffffffffffffffffffffffffffffffffffffff\n      and\n      0xffffffffffffffffffffffffffffffffffffffff\n      and\n      dup2\n      mstore\n      0x20\n      add\n      swap1\n      dup2\n      mstore\n      0x20\n      add\n      0x00\n      keccak256\n        /* \"contracts/Staking.sol\":2604:2630  _staker[msg.sender].staked */\n      0x05\n      add\n      sload\n        /* \"contracts/Staking.sol\":2604:2638  _staker[msg.sender].staked != 0x55 */\n      eq\n      iszero\n        /* \"contracts/Staking.sol\":2596:2658  require(_staker[msg.sender].staked != 0x55, \"Already started\") */\n      tag_193\n      jumpi\n      mload(0x40)\n      0x08c379a000000000000000000000000000000000000000000000000000000000\n      dup2\n      mstore\n      0x04\n      add\n      tag_194\n      swap1\n      tag_195\n      jump\t// in\n    tag_194:\n      mload(0x40)\n      dup1\n      swap2\n      sub\n      swap1\n      revert\n    tag_193:\n        /* \"contracts/Staking.sol\":2706:2711  _mode */\n      dup1\n        /* \"contracts/Staking.sol\":2679:2686  _staker */\n      0x07\n        /* \"contracts/Staking.sol\":2679:2698  _staker[msg.sender] */\n      0x00\n        /* \"contracts/Staking.sol\":2687:2697  msg.sender */\n      caller\n        /* \"contracts/Staking.sol\":2679:2698  _staker[msg.sender] */\n      0xffffffffffffffffffffffffffffffffffffffff\n      and\n      0xffffffffffffffffffffffffffffffffffffffff\n      and\n      dup2\n      mstore\n      0x20\n      add\n      swap1\n      dup2\n      mstore\n      0x20\n      add\n      0x00\n      keccak256\n        /* \"contracts/Staking.sol\":2679:2703  _staker[msg.sender].mode */\n      0x02\n      add\n        /* \"contracts/Staking.sol\":2679:2711  _staker[msg.sender].mode = _mode */\n      dup2\n      swap1\n      sstore\n      pop\n        /* \"contracts/Staking.sol\":2759:2774  block.timestamp */\n      timestamp\n        /* \"contracts/Staking.sol\":2722:2729  _staker */\n      0x07\n        /* \"contracts/Staking.sol\":2722:2741  _staker[msg.sender] */\n      0x00\n        /* \"contracts/Staking.sol\":2730:2740  msg.sender */\n      caller\n        /* \"contracts/Staking.sol\":2722:2741  _staker[msg.sender] */\n      0xffffffffffffffffffffffffffffffffffffffff\n      and\n      0xffffffffffffffffffffffffffffffffffffffff\n      and\n      dup2\n      mstore\n      0x20\n      add\n      swap1\n      dup2\n      mstore\n      0x20\n      add\n      0x00\n      keccak256\n        /* \"contracts/Staking.sol\":2722:2756  _staker[msg.sender].stakeStartTime */\n      0x03\n      add\n        /* \"contracts/Staking.sol\":2722:2774  _staker[msg.sender].stakeStartTime = block.timestamp */\n      dup2\n      swap1\n      sstore\n      pop\n        /* \"contracts/Staking.sol\":2814:2818  0x55 */\n      0x55\n        /* \"contracts/Staking.sol\":2785:2792  _staker */\n      0x07\n        /* \"contracts/Staking.sol\":2785:2804  _staker[msg.sender] */\n      0x00\n        /* \"contracts/Staking.sol\":2793:2803  msg.sender */\n      caller\n        /* \"contracts/Staking.sol\":2785:2804  _staker[msg.sender] */\n      0xffffffffffffffffffffffffffffffffffffffff\n      and\n      0xffffffffffffffffffffffffffffffffffffffff\n      and\n      dup2\n      mstore\n      0x20\n      add\n      swap1\n      dup2\n      mstore\n      0x20\n      add\n      0x00\n      keccak256\n        /* \"contracts/Staking.sol\":2785:2811  _staker[msg.sender].staked */\n      0x05\n      add\n        /* \"contracts/Staking.sol\":2785:2818  _staker[msg.sender].staked = 0x55 */\n      dup2\n      swap1\n      sstore\n      pop\n        /* \"contracts/Staking.sol\":2829:2837  _stakers */\n      0x06\n        /* \"contracts/Staking.sol\":2843:2853  msg.sender */\n      caller\n        /* \"contracts/Staking.sol\":2829:2854  _stakers.push(msg.sender) */\n      swap1\n      dup1\n      0x01\n      dup2\n      sload\n      add\n      dup1\n      dup3\n      sstore\n      dup1\n      swap2\n      pop\n      pop\n      0x01\n      swap1\n      sub\n      swap1\n      0x00\n      mstore\n      keccak256(0x00, 0x20)\n      add\n      0x00\n      swap1\n      swap2\n      swap1\n      swap2\n      swap1\n      swap2\n      0x0100\n      exp\n      dup2\n      sload\n      dup2\n      0xffffffffffffffffffffffffffffffffffffffff\n      mul\n      not\n      and\n      swap1\n      dup4\n      0xffffffffffffffffffffffffffffffffffffffff\n      and\n      mul\n      or\n      swap1\n      sstore\n      pop\n        /* \"contracts/Staking.sol\":2865:2879  stake(_amount) */\n      tag_197\n        /* \"contracts/Staking.sol\":2871:2878  _amount */\n      dup3\n        /* \"contracts/Staking.sol\":2865:2870  stake */\n      tag_91\n        /* \"contracts/Staking.sol\":2865:2879  stake(_amount) */\n      jump\t// in\n    tag_197:\n        /* \"contracts/Staking.sol\":2372:2887  function startStaking(uint256 _amount, uint256 _mode) external {\r... */\n      pop\n      pop\n      jump\t// out\n        /* \"contracts/Staking.sol\":3666:3769  function getNumberofStakers() public view returns (uint256) {\r... */\n    tag_53:\n        /* \"contracts/Staking.sol\":3717:3724  uint256 */\n      0x00\n        /* \"contracts/Staking.sol\":3746:3754  _stakers */\n      0x06\n        /* \"contracts/Staking.sol\":3746:3761  _stakers.length */\n      dup1\n      sload\n      swap1\n      pop\n        /* \"contracts/Staking.sol\":3739:3761  return _stakers.length */\n      swap1\n      pop\n        /* \"contracts/Staking.sol\":3666:3769  function getNumberofStakers() public view returns (uint256) {\r... */\n      swap1\n      jump\t// out\n        /* \"contracts/Staking.sol\":6706:6865  function rewardToHarvest() public view returns (uint256){\r... */\n    tag_56:\n        /* \"contracts/Staking.sol\":6754:6761  uint256 */\n      0x00\n        /* \"contracts/Staking.sol\":6818:6825  _staker */\n      0x07\n        /* \"contracts/Staking.sol\":6818:6837  _staker[msg.sender] */\n      0x00\n        /* \"contracts/Staking.sol\":6826:6836  msg.sender */\n      caller\n        /* \"contracts/Staking.sol\":6818:6837  _staker[msg.sender] */\n      0xffffffffffffffffffffffffffffffffffffffff\n      and\n      0xffffffffffffffffffffffffffffffffffffffff\n      and\n      dup2\n      mstore\n      0x20\n      add\n      swap1\n      dup2\n      mstore\n      0x20\n      add\n      0x00\n      keccak256\n        /* \"contracts/Staking.sol\":6818:6857  _staker[msg.sender].stakerCurrentReward */\n      0x00\n      add\n      sload\n        /* \"contracts/Staking.sol\":6811:6857  return _staker[msg.sender].stakerCurrentReward */\n      swap1\n      pop\n        /* \"contracts/Staking.sol\":6706:6865  function rewardToHarvest() public view returns (uint256){\r... */\n      swap1\n      jump\t// out\n        /* \"contracts/Staking.sol\":5943:6191  function setEventPeriod(uint256 __eventPeriod) external onlyOwner {\r... */\n    tag_60:\n        /* \"@openzeppelin/contracts/access/Ownable.sol\":1259:1271  _msgSender() */\n      tag_201\n        /* \"@openzeppelin/contracts/access/Ownable.sol\":1259:1269  _msgSender */\n      tag_173\n        /* \"@openzeppelin/contracts/access/Ownable.sol\":1259:1271  _msgSender() */\n      jump\t// in\n    tag_201:\n        /* \"@openzeppelin/contracts/access/Ownable.sol\":1248:1271  owner() == _msgSender() */\n      0xffffffffffffffffffffffffffffffffffffffff\n      and\n        /* \"@openzeppelin/contracts/access/Ownable.sol\":1248:1255  owner() */\n      tag_202\n        /* \"@openzeppelin/contracts/access/Ownable.sol\":1248:1253  owner */\n      tag_73\n        /* \"@openzeppelin/contracts/access/Ownable.sol\":1248:1255  owner() */\n      jump\t// in\n    tag_202:\n        /* \"@openzeppelin/contracts/access/Ownable.sol\":1248:1271  owner() == _msgSender() */\n      0xffffffffffffffffffffffffffffffffffffffff\n      and\n      eq\n        /* \"@openzeppelin/contracts/access/Ownable.sol\":1240:1308  require(owner() == _msgSender(), \"Ownable: caller is not the owner\") */\n      tag_203\n      jumpi\n      mload(0x40)\n      0x08c379a000000000000000000000000000000000000000000000000000000000\n      dup2\n      mstore\n      0x04\n      add\n      tag_204\n      swap1\n      tag_177\n      jump\t// in\n    tag_204:\n      mload(0x40)\n      dup1\n      swap2\n      sub\n      swap1\n      revert\n    tag_203:\n        /* \"contracts/Staking.sol\":6054:6055  0 */\n      0x00\n        /* \"contracts/Staking.sol\":6038:6051  __eventPeriod */\n      dup2\n        /* \"contracts/Staking.sol\":6038:6055  __eventPeriod > 0 */\n      gt\n        /* \"contracts/Staking.sol\":6030:6083  require(__eventPeriod > 0, \"Invalid Lockup Duration\") */\n      tag_206\n      jumpi\n      mload(0x40)\n      0x08c379a000000000000000000000000000000000000000000000000000000000\n      dup2\n      mstore\n      0x04\n      add\n      tag_207\n      swap1\n      tag_208\n      jump\t// in\n    tag_207:\n      mload(0x40)\n      dup1\n      swap2\n      sub\n      swap1\n      revert\n    tag_206:\n        /* \"contracts/Staking.sol\":6111:6136  __eventPeriod.mul(1 days) */\n      tag_209\n        /* \"contracts/Staking.sol\":6129:6135  1 days */\n      0x015180\n        /* \"contracts/Staking.sol\":6111:6124  __eventPeriod */\n      dup3\n        /* \"contracts/Staking.sol\":6111:6128  __eventPeriod.mul */\n      tag_142\n      swap1\n        /* \"contracts/Staking.sol\":6111:6136  __eventPeriod.mul(1 days) */\n      swap2\n      swap1\n      0xffffffff\n      and\n      jump\t// in\n    tag_209:\n        /* \"contracts/Staking.sol\":6096:6108  _eventPeriod */\n      0x02\n        /* \"contracts/Staking.sol\":6096:6136  _eventPeriod = __eventPeriod.mul(1 days) */\n      dup2\n      swap1\n      sstore\n      pop\n        /* \"contracts/Staking.sol\":6154:6183  SetEventPeriod(__eventPeriod) */\n      0x189bda9782663c67a3f95c0aa5455924c711210b00281c60ead2f0dd8dbc924c\n        /* \"contracts/Staking.sol\":6169:6182  __eventPeriod */\n      dup2\n        /* \"contracts/Staking.sol\":6154:6183  SetEventPeriod(__eventPeriod) */\n      mload(0x40)\n      tag_210\n      swap2\n      swap1\n      tag_32\n      jump\t// in\n    tag_210:\n      mload(0x40)\n      dup1\n      swap2\n      sub\n      swap1\n      log1\n        /* \"contracts/Staking.sol\":5943:6191  function setEventPeriod(uint256 __eventPeriod) external onlyOwner {\r... */\n      pop\n      jump\t// out\n        /* \"@openzeppelin/contracts/access/Ownable.sol\":1668:1769  function renounceOwnership() public virtual onlyOwner {... */\n    tag_62:\n        /* \"@openzeppelin/contracts/access/Ownable.sol\":1259:1271  _msgSender() */\n      tag_212\n        /* \"@openzeppelin/contracts/access/Ownable.sol\":1259:1269  _msgSender */\n      tag_173\n        /* \"@openzeppelin/contracts/access/Ownable.sol\":1259:1271  _msgSender() */\n      jump\t// in\n    tag_212:\n        /* \"@openzeppelin/contracts/access/Ownable.sol\":1248:1271  owner() == _msgSender() */\n      0xffffffffffffffffffffffffffffffffffffffff\n      and\n        /* \"@openzeppelin/contracts/access/Ownable.sol\":1248:1255  owner() */\n      tag_213\n        /* \"@openzeppelin/contracts/access/Ownable.sol\":1248:1253  owner */\n      tag_73\n        /* \"@openzeppelin/contracts/access/Ownable.sol\":1248:1255  owner() */\n      jump\t// in\n    tag_213:\n        /* \"@openzeppelin/contracts/access/Ownable.sol\":1248:1271  owner() == _msgSender() */\n      0xffffffffffffffffffffffffffffffffffffffff\n      and\n      eq\n        /* \"@openzeppelin/contracts/access/Ownable.sol\":1240:1308  require(owner() == _msgSender(), \"Ownable: caller is not the owner\") */\n      tag_214\n      jumpi\n      mload(0x40)\n      0x08c379a000000000000000000000000000000000000000000000000000000000\n      dup2\n      mstore\n      0x04\n      add\n      tag_215\n      swap1\n      tag_177\n      jump\t// in\n    tag_215:\n      mload(0x40)\n      dup1\n      swap2\n      sub\n      swap1\n      revert\n    tag_214:\n        /* \"@openzeppelin/contracts/access/Ownable.sol\":1732:1762  _transferOwnership(address(0)) */\n      tag_217\n        /* \"@openzeppelin/contracts/access/Ownable.sol\":1759:1760  0 */\n      0x00\n        /* \"@openzeppelin/contracts/access/Ownable.sol\":1732:1750  _transferOwnership */\n      tag_218\n        /* \"@openzeppelin/contracts/access/Ownable.sol\":1732:1762  _transferOwnership(address(0)) */\n      jump\t// in\n    tag_217:\n        /* \"@openzeppelin/contracts/access/Ownable.sol\":1668:1769  function renounceOwnership() public virtual onlyOwner {... */\n      jump\t// out\n        /* \"contracts/Staking.sol\":7807:7899  function getRewardRate() public view returns (uint256) {\r... */\n    tag_64:\n        /* \"contracts/Staking.sol\":7853:7860  uint256 */\n      0x00\n        /* \"contracts/Staking.sol\":7880:7891  _rewardRate */\n      sload(0x03)\n        /* \"contracts/Staking.sol\":7873:7891  return _rewardRate */\n      swap1\n      pop\n        /* \"contracts/Staking.sol\":7807:7899  function getRewardRate() public view returns (uint256) {\r... */\n      swap1\n      jump\t// out\n        /* \"contracts/Staking.sol\":987:1013  uint256 public totalStaked */\n    tag_67:\n      sload(0x08)\n      dup2\n      jump\t// out\n        /* \"contracts/Staking.sol\":4017:4127  function isStartStaking() public view returns (uint256) {\r... */\n    tag_70:\n        /* \"contracts/Staking.sol\":4064:4071  uint256 */\n      0x00\n        /* \"contracts/Staking.sol\":4093:4100  _staker */\n      0x07\n        /* \"contracts/Staking.sol\":4093:4112  _staker[msg.sender] */\n      0x00\n        /* \"contracts/Staking.sol\":4101:4111  msg.sender */\n      caller\n        /* \"contracts/Staking.sol\":4093:4112  _staker[msg.sender] */\n      0xffffffffffffffffffffffffffffffffffffffff\n      and\n      0xffffffffffffffffffffffffffffffffffffffff\n      and\n      dup2\n      mstore\n      0x20\n      add\n      swap1\n      dup2\n      mstore\n      0x20\n      add\n      0x00\n      keccak256\n        /* \"contracts/Staking.sol\":4093:4119  _staker[msg.sender].staked */\n      0x05\n      add\n      sload\n        /* \"contracts/Staking.sol\":4086:4119  return _staker[msg.sender].staked */\n      swap1\n      pop\n        /* \"contracts/Staking.sol\":4017:4127  function isStartStaking() public view returns (uint256) {\r... */\n      swap1\n      jump\t// out\n        /* \"@openzeppelin/contracts/access/Ownable.sol\":1036:1121  function owner() public view virtual returns (address) {... */\n    tag_73:\n        /* \"@openzeppelin/contracts/access/Ownable.sol\":1082:1089  address */\n      0x00\n        /* \"@openzeppelin/contracts/access/Ownable.sol\":1108:1114  _owner */\n      dup1\n      0x00\n      swap1\n      sload\n      swap1\n      0x0100\n      exp\n      swap1\n      div\n      0xffffffffffffffffffffffffffffffffffffffff\n      and\n        /* \"@openzeppelin/contracts/access/Ownable.sol\":1101:1114  return _owner */\n      swap1\n      pop\n        /* \"@openzeppelin/contracts/access/Ownable.sol\":1036:1121  function owner() public view virtual returns (address) {... */\n      swap1\n      jump\t// out\n        /* \"contracts/Staking.sol\":6199:6473  function setUnstakingFeeRate(uint256 __unstakingFeeRate) external onlyOwner {\r... */\n    tag_78:\n        /* \"@openzeppelin/contracts/access/Ownable.sol\":1259:1271  _msgSender() */\n      tag_223\n        /* \"@openzeppelin/contracts/access/Ownable.sol\":1259:1269  _msgSender */\n      tag_173\n        /* \"@openzeppelin/contracts/access/Ownable.sol\":1259:1271  _msgSender() */\n      jump\t// in\n    tag_223:\n        /* \"@openzeppelin/contracts/access/Ownable.sol\":1248:1271  owner() == _msgSender() */\n      0xffffffffffffffffffffffffffffffffffffffff\n      and\n        /* \"@openzeppelin/contracts/access/Ownable.sol\":1248:1255  owner() */\n      tag_224\n        /* \"@openzeppelin/contracts/access/Ownable.sol\":1248:1253  owner */\n      tag_73\n        /* \"@openzeppelin/contracts/access/Ownable.sol\":1248:1255  owner() */\n      jump\t// in\n    tag_224:\n        /* \"@openzeppelin/contracts/access/Ownable.sol\":1248:1271  owner() == _msgSender() */\n      0xffffffffffffffffffffffffffffffffffffffff\n      and\n      eq\n        /* \"@openzeppelin/contracts/access/Ownable.sol\":1240:1308  require(owner() == _msgSender(), \"Ownable: caller is not the owner\") */\n      tag_225\n      jumpi\n      mload(0x40)\n      0x08c379a000000000000000000000000000000000000000000000000000000000\n      dup2\n      mstore\n      0x04\n      add\n      tag_226\n      swap1\n      tag_177\n      jump\t// in\n    tag_226:\n      mload(0x40)\n      dup1\n      swap2\n      sub\n      swap1\n      revert\n    tag_225:\n        /* \"contracts/Staking.sol\":6325:6326  0 */\n      0x00\n        /* \"contracts/Staking.sol\":6304:6322  __unstakingFeeRate */\n      dup2\n        /* \"contracts/Staking.sol\":6304:6326  __unstakingFeeRate > 0 */\n      gt\n        /* \"contracts/Staking.sol\":6296:6357  require(__unstakingFeeRate > 0, \"Invalid Unstaking Fee Rate\") */\n      tag_228\n      jumpi\n      mload(0x40)\n      0x08c379a000000000000000000000000000000000000000000000000000000000\n      dup2\n      mstore\n      0x04\n      add\n      tag_229\n      swap1\n      tag_230\n      jump\t// in\n    tag_229:\n      mload(0x40)\n      dup1\n      swap2\n      sub\n      swap1\n      revert\n    tag_228:\n        /* \"contracts/Staking.sol\":6390:6408  __unstakingFeeRate */\n      dup1\n        /* \"contracts/Staking.sol\":6370:6387  _unstakingFeeRate */\n      0x01\n        /* \"contracts/Staking.sol\":6370:6408  _unstakingFeeRate = __unstakingFeeRate */\n      dup2\n      swap1\n      sstore\n      pop\n        /* \"contracts/Staking.sol\":6426:6465  SetUnstakingFeeRate(__unstakingFeeRate) */\n      0x150c688dd7595bf7862b8ab1fe46756450eb7d731037942b3bbc46f3f0e21b81\n        /* \"contracts/Staking.sol\":6446:6464  __unstakingFeeRate */\n      dup2\n        /* \"contracts/Staking.sol\":6426:6465  SetUnstakingFeeRate(__unstakingFeeRate) */\n      mload(0x40)\n      tag_231\n      swap2\n      swap1\n      tag_32\n      jump\t// in\n    tag_231:\n      mload(0x40)\n      dup1\n      swap2\n      sub\n      swap1\n      log1\n        /* \"contracts/Staking.sol\":6199:6473  function setUnstakingFeeRate(uint256 __unstakingFeeRate) external onlyOwner {\r... */\n      pop\n      jump\t// out\n        /* \"contracts/Staking.sol\":5708:5935  function setRewardRate(uint256 __rewardRate) external onlyOwner {\r... */\n    tag_81:\n        /* \"@openzeppelin/contracts/access/Ownable.sol\":1259:1271  _msgSender() */\n      tag_233\n        /* \"@openzeppelin/contracts/access/Ownable.sol\":1259:1269  _msgSender */\n      tag_173\n        /* \"@openzeppelin/contracts/access/Ownable.sol\":1259:1271  _msgSender() */\n      jump\t// in\n    tag_233:\n        /* \"@openzeppelin/contracts/access/Ownable.sol\":1248:1271  owner() == _msgSender() */\n      0xffffffffffffffffffffffffffffffffffffffff\n      and\n        /* \"@openzeppelin/contracts/access/Ownable.sol\":1248:1255  owner() */\n      tag_234\n        /* \"@openzeppelin/contracts/access/Ownable.sol\":1248:1253  owner */\n      tag_73\n        /* \"@openzeppelin/contracts/access/Ownable.sol\":1248:1255  owner() */\n      jump\t// in\n    tag_234:\n        /* \"@openzeppelin/contracts/access/Ownable.sol\":1248:1271  owner() == _msgSender() */\n      0xffffffffffffffffffffffffffffffffffffffff\n      and\n      eq\n        /* \"@openzeppelin/contracts/access/Ownable.sol\":1240:1308  require(owner() == _msgSender(), \"Ownable: caller is not the owner\") */\n      tag_235\n      jumpi\n      mload(0x40)\n      0x08c379a000000000000000000000000000000000000000000000000000000000\n      dup2\n      mstore\n      0x04\n      add\n      tag_236\n      swap1\n      tag_177\n      jump\t// in\n    tag_236:\n      mload(0x40)\n      dup1\n      swap2\n      sub\n      swap1\n      revert\n    tag_235:\n        /* \"contracts/Staking.sol\":5816:5817  0 */\n      0x00\n        /* \"contracts/Staking.sol\":5801:5813  __rewardRate */\n      dup2\n        /* \"contracts/Staking.sol\":5801:5817  __rewardRate > 0 */\n      gt\n        /* \"contracts/Staking.sol\":5793:5835  require(__rewardRate > 0, \"Invalid value\") */\n      tag_238\n      jumpi\n      mload(0x40)\n      0x08c379a000000000000000000000000000000000000000000000000000000000\n      dup2\n      mstore\n      0x04\n      add\n      tag_239\n      swap1\n      tag_240\n      jump\t// in\n    tag_239:\n      mload(0x40)\n      dup1\n      swap2\n      sub\n      swap1\n      revert\n    tag_238:\n        /* \"contracts/Staking.sol\":5870:5882  __rewardRate */\n      dup1\n        /* \"contracts/Staking.sol\":5856:5867  _rewardRate */\n      0x03\n        /* \"contracts/Staking.sol\":5856:5882  _rewardRate = __rewardRate */\n      dup2\n      swap1\n      sstore\n      pop\n        /* \"contracts/Staking.sol\":5900:5927  SetRewardRate(__rewardRate) */\n      0x1946fb78c7ca778b54d82cabaac5ba67cf446f58d0ff1f8ceaebb6150e54e44f\n        /* \"contracts/Staking.sol\":5914:5926  __rewardRate */\n      dup2\n        /* \"contracts/Staking.sol\":5900:5927  SetRewardRate(__rewardRate) */\n      mload(0x40)\n      tag_241\n      swap2\n      swap1\n      tag_32\n      jump\t// in\n    tag_241:\n      mload(0x40)\n      dup1\n      swap2\n      sub\n      swap1\n      log1\n        /* \"contracts/Staking.sol\":5708:5935  function setRewardRate(uint256 __rewardRate) external onlyOwner {\r... */\n      pop\n      jump\t// out\n        /* \"contracts/Staking.sol\":3777:3894  function getStakedAmount() public view returns (uint256) {\r... */\n    tag_83:\n        /* \"contracts/Staking.sol\":3825:3832  uint256 */\n      0x00\n        /* \"contracts/Staking.sol\":3854:3861  _staker */\n      0x07\n        /* \"contracts/Staking.sol\":3854:3873  _staker[msg.sender] */\n      0x00\n        /* \"contracts/Staking.sol\":3862:3872  msg.sender */\n      caller\n        /* \"contracts/Staking.sol\":3854:3873  _staker[msg.sender] */\n      0xffffffffffffffffffffffffffffffffffffffff\n      and\n      0xffffffffffffffffffffffffffffffffffffffff\n      and\n      dup2\n      mstore\n      0x20\n      add\n      swap1\n      dup2\n      mstore\n      0x20\n      add\n      0x00\n      keccak256\n        /* \"contracts/Staking.sol\":3854:3886  _staker[msg.sender].stakedAmount */\n      0x01\n      add\n      sload\n        /* \"contracts/Staking.sol\":3847:3886  return _staker[msg.sender].stakedAmount */\n      swap1\n      pop\n        /* \"contracts/Staking.sol\":3777:3894  function getStakedAmount() public view returns (uint256) {\r... */\n      swap1\n      jump\t// out\n        /* \"contracts/Staking.sol\":4135:4473  function isLocked() public view returns (bool) {\r... */\n    tag_86:\n        /* \"contracts/Staking.sol\":4176:4180  bool */\n      0x00\n        /* \"contracts/Staking.sol\":4229:4233  0x55 */\n      0x55\n        /* \"contracts/Staking.sol\":4199:4206  _staker */\n      0x07\n        /* \"contracts/Staking.sol\":4199:4218  _staker[msg.sender] */\n      0x00\n        /* \"contracts/Staking.sol\":4207:4217  msg.sender */\n      caller\n        /* \"contracts/Staking.sol\":4199:4218  _staker[msg.sender] */\n      0xffffffffffffffffffffffffffffffffffffffff\n      and\n      0xffffffffffffffffffffffffffffffffffffffff\n      and\n      dup2\n      mstore\n      0x20\n      add\n      swap1\n      dup2\n      mstore\n      0x20\n      add\n      0x00\n      keccak256\n        /* \"contracts/Staking.sol\":4199:4225  _staker[msg.sender].staked */\n      0x05\n      add\n      sload\n        /* \"contracts/Staking.sol\":4199:4233  _staker[msg.sender].staked != 0x55 */\n      eq\n        /* \"contracts/Staking.sol\":4195:4259  if (_staker[msg.sender].staked != 0x55)\r... */\n      tag_244\n      jumpi\n        /* \"contracts/Staking.sol\":4255:4259  true */\n      0x01\n        /* \"contracts/Staking.sol\":4248:4259  return true */\n      swap1\n      pop\n      jump(tag_243)\n        /* \"contracts/Staking.sol\":4195:4259  if (_staker[msg.sender].staked != 0x55)\r... */\n    tag_244:\n        /* \"contracts/Staking.sol\":4302:4303  1 */\n      0x01\n        /* \"contracts/Staking.sol\":4274:4281  _staker */\n      0x07\n        /* \"contracts/Staking.sol\":4274:4293  _staker[msg.sender] */\n      0x00\n        /* \"contracts/Staking.sol\":4282:4292  msg.sender */\n      caller\n        /* \"contracts/Staking.sol\":4274:4293  _staker[msg.sender] */\n      0xffffffffffffffffffffffffffffffffffffffff\n      and\n      0xffffffffffffffffffffffffffffffffffffffff\n      and\n      dup2\n      mstore\n      0x20\n      add\n      swap1\n      dup2\n      mstore\n      0x20\n      add\n      0x00\n      keccak256\n        /* \"contracts/Staking.sol\":4274:4298  _staker[msg.sender].mode */\n      0x02\n      add\n      sload\n        /* \"contracts/Staking.sol\":4274:4303  _staker[msg.sender].mode == 1 */\n      eq\n        /* \"contracts/Staking.sol\":4270:4465  if (_staker[msg.sender].mode == 1)\r... */\n      iszero\n      tag_245\n      jumpi\n        /* \"contracts/Staking.sol\":4407:4408  0 */\n      0x00\n        /* \"contracts/Staking.sol\":4396:4402  7 days */\n      0x093a80\n        /* \"contracts/Staking.sol\":4325:4392  block.timestamp.sub(_staker[msg.sender].stakeStartTime).div(1 days) */\n      tag_246\n        /* \"contracts/Staking.sol\":4385:4391  1 days */\n      0x015180\n        /* \"contracts/Staking.sol\":4325:4380  block.timestamp.sub(_staker[msg.sender].stakeStartTime) */\n      tag_247\n        /* \"contracts/Staking.sol\":4345:4352  _staker */\n      0x07\n        /* \"contracts/Staking.sol\":4345:4364  _staker[msg.sender] */\n      0x00\n        /* \"contracts/Staking.sol\":4353:4363  msg.sender */\n      caller\n        /* \"contracts/Staking.sol\":4345:4364  _staker[msg.sender] */\n      0xffffffffffffffffffffffffffffffffffffffff\n      and\n      0xffffffffffffffffffffffffffffffffffffffff\n      and\n      dup2\n      mstore\n      0x20\n      add\n      swap1\n      dup2\n      mstore\n      0x20\n      add\n      0x00\n      keccak256\n        /* \"contracts/Staking.sol\":4345:4379  _staker[msg.sender].stakeStartTime */\n      0x03\n      add\n      sload\n        /* \"contracts/Staking.sol\":4325:4340  block.timestamp */\n      timestamp\n        /* \"contracts/Staking.sol\":4325:4344  block.timestamp.sub */\n      tag_129\n      swap1\n        /* \"contracts/Staking.sol\":4325:4380  block.timestamp.sub(_staker[msg.sender].stakeStartTime) */\n      swap2\n      swap1\n      0xffffffff\n      and\n      jump\t// in\n    tag_247:\n        /* \"contracts/Staking.sol\":4325:4384  block.timestamp.sub(_staker[msg.sender].stakeStartTime).div */\n      tag_130\n      swap1\n        /* \"contracts/Staking.sol\":4325:4392  block.timestamp.sub(_staker[msg.sender].stakeStartTime).div(1 days) */\n      swap2\n      swap1\n      0xffffffff\n      and\n      jump\t// in\n    tag_246:\n        /* \"contracts/Staking.sol\":4325:4403  block.timestamp.sub(_staker[msg.sender].stakeStartTime).div(1 days) % (7 days) */\n      tag_248\n      swap2\n      swap1\n      tag_136\n      jump\t// in\n    tag_248:\n        /* \"contracts/Staking.sol\":4325:4408  block.timestamp.sub(_staker[msg.sender].stakeStartTime).div(1 days) % (7 days) == 0 */\n      eq\n        /* \"contracts/Staking.sol\":4325:4423  block.timestamp.sub(_staker[msg.sender].stakeStartTime).div(1 days) % (7 days) == 0 ? false : true */\n      tag_249\n      jumpi\n        /* \"contracts/Staking.sol\":4419:4423  true */\n      0x01\n        /* \"contracts/Staking.sol\":4325:4423  block.timestamp.sub(_staker[msg.sender].stakeStartTime).div(1 days) % (7 days) == 0 ? false : true */\n      jump(tag_250)\n    tag_249:\n        /* \"contracts/Staking.sol\":4411:4416  false */\n      0x00\n        /* \"contracts/Staking.sol\":4325:4423  block.timestamp.sub(_staker[msg.sender].stakeStartTime).div(1 days) % (7 days) == 0 ? false : true */\n    tag_250:\n        /* \"contracts/Staking.sol\":4318:4423  return block.timestamp.sub(_staker[msg.sender].stakeStartTime).div(1 days) % (7 days) == 0 ? false : true */\n      swap1\n      pop\n      jump(tag_243)\n        /* \"contracts/Staking.sol\":4270:4465  if (_staker[msg.sender].mode == 1)\r... */\n    tag_245:\n        /* \"contracts/Staking.sol\":4460:4465  false */\n      0x00\n        /* \"contracts/Staking.sol\":4453:4465  return false */\n      swap1\n      pop\n        /* \"contracts/Staking.sol\":4135:4473  function isLocked() public view returns (bool) {\r... */\n    tag_243:\n      swap1\n      jump\t// out\n        /* \"contracts/Staking.sol\":2955:3555  function stake(uint256 _amount) public{\r... */\n    tag_91:\n        /* \"contracts/Staking.sol\":3032:3033  0 */\n      0x00\n        /* \"contracts/Staking.sol\":3022:3029  _amount */\n      dup2\n        /* \"contracts/Staking.sol\":3022:3033  _amount > 0 */\n      gt\n        /* \"contracts/Staking.sol\":3014:3069  require(_amount > 0, \"Amount should be greater than 0\") */\n      tag_253\n      jumpi\n      mload(0x40)\n      0x08c379a000000000000000000000000000000000000000000000000000000000\n      dup2\n      mstore\n      0x04\n      add\n      tag_254\n      swap1\n      tag_108\n      jump\t// in\n    tag_254:\n      mload(0x40)\n      dup1\n      swap2\n      sub\n      swap1\n      revert\n    tag_253:\n        /* \"contracts/Staking.sol\":3118:3125  _amount */\n      dup1\n        /* \"contracts/Staking.sol\":3088:3093  token */\n      0x09\n      0x00\n      swap1\n      sload\n      swap1\n      0x0100\n      exp\n      swap1\n      div\n      0xffffffffffffffffffffffffffffffffffffffff\n      and\n        /* \"contracts/Staking.sol\":3088:3103  token.balanceOf */\n      0xffffffffffffffffffffffffffffffffffffffff\n      and\n      0x70a08231\n        /* \"contracts/Staking.sol\":3104:3114  msg.sender */\n      caller\n        /* \"contracts/Staking.sol\":3088:3115  token.balanceOf(msg.sender) */\n      mload(0x40)\n      dup3\n      0xffffffff\n      and\n      0xe0\n      shl\n      dup2\n      mstore\n      0x04\n      add\n      tag_255\n      swap2\n      swap1\n      tag_75\n      jump\t// in\n    tag_255:\n      0x20\n      mload(0x40)\n      dup1\n      dup4\n      sub\n      dup2\n      dup7\n      dup1\n      extcodesize\n      iszero\n      dup1\n      iszero\n      tag_256\n      jumpi\n      0x00\n      dup1\n      revert\n    tag_256:\n      pop\n      gas\n      staticcall\n      iszero\n      dup1\n      iszero\n      tag_258\n      jumpi\n      returndatasize\n      0x00\n      dup1\n      returndatacopy\n      revert(0x00, returndatasize)\n    tag_258:\n      pop\n      pop\n      pop\n      pop\n      mload(0x40)\n      returndatasize\n      not(0x1f)\n      0x1f\n      dup3\n      add\n      and\n      dup3\n      add\n      dup1\n      0x40\n      mstore\n      pop\n      dup2\n      add\n      swap1\n      tag_259\n      swap2\n      swap1\n      tag_119\n      jump\t// in\n    tag_259:\n        /* \"contracts/Staking.sol\":3088:3125  token.balanceOf(msg.sender) > _amount */\n      gt\n        /* \"contracts/Staking.sol\":3080:3143  require(token.balanceOf(msg.sender) > _amount, \"Insufficient!\") */\n      tag_260\n      jumpi\n      mload(0x40)\n      0x08c379a000000000000000000000000000000000000000000000000000000000\n      dup2\n      mstore\n      0x04\n      add\n      tag_261\n      swap1\n      tag_192\n      jump\t// in\n    tag_261:\n      mload(0x40)\n      dup1\n      swap2\n      sub\n      swap1\n      revert\n    tag_260:\n        /* \"contracts/Staking.sol\":3192:3196  0x55 */\n      0x55\n        /* \"contracts/Staking.sol\":3162:3169  _staker */\n      0x07\n        /* \"contracts/Staking.sol\":3162:3181  _staker[msg.sender] */\n      0x00\n        /* \"contracts/Staking.sol\":3170:3180  msg.sender */\n      caller\n        /* \"contracts/Staking.sol\":3162:3181  _staker[msg.sender] */\n      0xffffffffffffffffffffffffffffffffffffffff\n      and\n      0xffffffffffffffffffffffffffffffffffffffff\n      and\n      dup2\n      mstore\n      0x20\n      add\n      swap1\n      dup2\n      mstore\n      0x20\n      add\n      0x00\n      keccak256\n        /* \"contracts/Staking.sol\":3162:3188  _staker[msg.sender].staked */\n      0x05\n      add\n      sload\n        /* \"contracts/Staking.sol\":3162:3196  _staker[msg.sender].staked == 0x55 */\n      eq\n        /* \"contracts/Staking.sol\":3154:3222  require(_staker[msg.sender].staked == 0x55, \"Error: invalid staker\") */\n      tag_262\n      jumpi\n      mload(0x40)\n      0x08c379a000000000000000000000000000000000000000000000000000000000\n      dup2\n      mstore\n      0x04\n      add\n      tag_263\n      swap1\n      tag_264\n      jump\t// in\n    tag_263:\n      mload(0x40)\n      dup1\n      swap2\n      sub\n      swap1\n      revert\n    tag_262:\n        /* \"contracts/Staking.sol\":3243:3257  updateReward() */\n      tag_265\n        /* \"contracts/Staking.sol\":3243:3255  updateReward */\n      tag_113\n        /* \"contracts/Staking.sol\":3243:3257  updateReward() */\n      jump\t// in\n    tag_265:\n        /* \"contracts/Staking.sol\":3268:3289  Staker storage staker */\n      0x00\n        /* \"contracts/Staking.sol\":3292:3299  _staker */\n      0x07\n        /* \"contracts/Staking.sol\":3292:3311  _staker[msg.sender] */\n      0x00\n        /* \"contracts/Staking.sol\":3300:3310  msg.sender */\n      caller\n        /* \"contracts/Staking.sol\":3292:3311  _staker[msg.sender] */\n      0xffffffffffffffffffffffffffffffffffffffff\n      and\n      0xffffffffffffffffffffffffffffffffffffffff\n      and\n      dup2\n      mstore\n      0x20\n      add\n      swap1\n      dup2\n      mstore\n      0x20\n      add\n      0x00\n      keccak256\n        /* \"contracts/Staking.sol\":3268:3311  Staker storage staker = _staker[msg.sender] */\n      swap1\n      pop\n        /* \"contracts/Staking.sol\":3322:3380  token.safeTransferFrom(msg.sender, address(this), _amount) */\n      tag_266\n        /* \"contracts/Staking.sol\":3345:3355  msg.sender */\n      caller\n        /* \"contracts/Staking.sol\":3365:3369  this */\n      address\n        /* \"contracts/Staking.sol\":3372:3379  _amount */\n      dup5\n        /* \"contracts/Staking.sol\":3322:3327  token */\n      0x09\n      0x00\n      swap1\n      sload\n      swap1\n      0x0100\n      exp\n      swap1\n      div\n      0xffffffffffffffffffffffffffffffffffffffff\n      and\n        /* \"contracts/Staking.sol\":3322:3344  token.safeTransferFrom */\n      0xffffffffffffffffffffffffffffffffffffffff\n      and\n      tag_267\n      swap1\n        /* \"contracts/Staking.sol\":3322:3380  token.safeTransferFrom(msg.sender, address(this), _amount) */\n      swap4\n      swap3\n      swap2\n      swap1\n      0xffffffff\n      and\n      jump\t// in\n    tag_266:\n        /* \"contracts/Staking.sol\":3413:3445  staker.stakedAmount.add(_amount) */\n      tag_268\n        /* \"contracts/Staking.sol\":3437:3444  _amount */\n      dup3\n        /* \"contracts/Staking.sol\":3413:3419  staker */\n      dup3\n        /* \"contracts/Staking.sol\":3413:3432  staker.stakedAmount */\n      0x01\n      add\n      sload\n        /* \"contracts/Staking.sol\":3413:3436  staker.stakedAmount.add */\n      tag_133\n      swap1\n        /* \"contracts/Staking.sol\":3413:3445  staker.stakedAmount.add(_amount) */\n      swap2\n      swap1\n      0xffffffff\n      and\n      jump\t// in\n    tag_268:\n        /* \"contracts/Staking.sol\":3391:3397  staker */\n      dup2\n        /* \"contracts/Staking.sol\":3391:3410  staker.stakedAmount */\n      0x01\n      add\n        /* \"contracts/Staking.sol\":3391:3445  staker.stakedAmount = staker.stakedAmount.add(_amount) */\n      dup2\n      swap1\n      sstore\n      pop\n        /* \"contracts/Staking.sol\":3470:3494  totalStaked.add(_amount) */\n      tag_269\n        /* \"contracts/Staking.sol\":3486:3493  _amount */\n      dup3\n        /* \"contracts/Staking.sol\":3470:3481  totalStaked */\n      sload(0x08)\n        /* \"contracts/Staking.sol\":3470:3485  totalStaked.add */\n      tag_133\n      swap1\n        /* \"contracts/Staking.sol\":3470:3494  totalStaked.add(_amount) */\n      swap2\n      swap1\n      0xffffffff\n      and\n      jump\t// in\n    tag_269:\n        /* \"contracts/Staking.sol\":3456:3467  totalStaked */\n      0x08\n        /* \"contracts/Staking.sol\":3456:3494  totalStaked = totalStaked.add(_amount) */\n      dup2\n      swap1\n      sstore\n      pop\n        /* \"contracts/Staking.sol\":3520:3547  Staked(msg.sender, _amount) */\n      0x9e71bc8eea02a63969f509818f2dafb9254532904319f9dbda79b67bd34a5f3d\n        /* \"contracts/Staking.sol\":3527:3537  msg.sender */\n      caller\n        /* \"contracts/Staking.sol\":3539:3546  _amount */\n      dup4\n        /* \"contracts/Staking.sol\":3520:3547  Staked(msg.sender, _amount) */\n      mload(0x40)\n      tag_270\n      swap3\n      swap2\n      swap1\n      tag_148\n      jump\t// in\n    tag_270:\n      mload(0x40)\n      dup1\n      swap2\n      sub\n      swap1\n      log1\n        /* \"contracts/Staking.sol\":2993:3555  {\r... */\n      pop\n        /* \"contracts/Staking.sol\":2955:3555  function stake(uint256 _amount) public{\r... */\n      pop\n      jump\t// out\n        /* \"@openzeppelin/contracts/access/Ownable.sol\":1918:2116  function transferOwnership(address newOwner) public virtual onlyOwner {... */\n    tag_95:\n        /* \"@openzeppelin/contracts/access/Ownable.sol\":1259:1271  _msgSender() */\n      tag_272\n        /* \"@openzeppelin/contracts/access/Ownable.sol\":1259:1269  _msgSender */\n      tag_173\n        /* \"@openzeppelin/contracts/access/Ownable.sol\":1259:1271  _msgSender() */\n      jump\t// in\n    tag_272:\n        /* \"@openzeppelin/contracts/access/Ownable.sol\":1248:1271  owner() == _msgSender() */\n      0xffffffffffffffffffffffffffffffffffffffff\n      and\n        /* \"@openzeppelin/contracts/access/Ownable.sol\":1248:1255  owner() */\n      tag_273\n        /* \"@openzeppelin/contracts/access/Ownable.sol\":1248:1253  owner */\n      tag_73\n        /* \"@openzeppelin/contracts/access/Ownable.sol\":1248:1255  owner() */\n      jump\t// in\n    tag_273:\n        /* \"@openzeppelin/contracts/access/Ownable.sol\":1248:1271  owner() == _msgSender() */\n      0xffffffffffffffffffffffffffffffffffffffff\n      and\n      eq\n        /* \"@openzeppelin/contracts/access/Ownable.sol\":1240:1308  require(owner() == _msgSender(), \"Ownable: caller is not the owner\") */\n      tag_274\n      jumpi\n      mload(0x40)\n      0x08c379a000000000000000000000000000000000000000000000000000000000\n      dup2\n      mstore\n      0x04\n      add\n      tag_275\n      swap1\n      tag_177\n      jump\t// in\n    tag_275:\n      mload(0x40)\n      dup1\n      swap2\n      sub\n      swap1\n      revert\n    tag_274:\n        /* \"@openzeppelin/contracts/access/Ownable.sol\":2026:2027  0 */\n      0x00\n        /* \"@openzeppelin/contracts/access/Ownable.sol\":2006:2028  newOwner != address(0) */\n      0xffffffffffffffffffffffffffffffffffffffff\n      and\n        /* \"@openzeppelin/contracts/access/Ownable.sol\":2006:2014  newOwner */\n      dup2\n        /* \"@openzeppelin/contracts/access/Ownable.sol\":2006:2028  newOwner != address(0) */\n      0xffffffffffffffffffffffffffffffffffffffff\n      and\n      eq\n      iszero\n        /* \"@openzeppelin/contracts/access/Ownable.sol\":1998:2071  require(newOwner != address(0), \"Ownable: new owner is the zero address\") */\n      tag_277\n      jumpi\n      mload(0x40)\n      0x08c379a000000000000000000000000000000000000000000000000000000000\n      dup2\n      mstore\n      0x04\n      add\n      tag_278\n      swap1\n      tag_279\n      jump\t// in\n    tag_278:\n      mload(0x40)\n      dup1\n      swap2\n      sub\n      swap1\n      revert\n    tag_277:\n        /* \"@openzeppelin/contracts/access/Ownable.sol\":2081:2109  _transferOwnership(newOwner) */\n      tag_280\n        /* \"@openzeppelin/contracts/access/Ownable.sol\":2100:2108  newOwner */\n      dup2\n        /* \"@openzeppelin/contracts/access/Ownable.sol\":2081:2099  _transferOwnership */\n      tag_218\n        /* \"@openzeppelin/contracts/access/Ownable.sol\":2081:2109  _transferOwnership(newOwner) */\n      jump\t// in\n    tag_280:\n        /* \"@openzeppelin/contracts/access/Ownable.sol\":1918:2116  function transferOwnership(address newOwner) public virtual onlyOwner {... */\n      pop\n      jump\t// out\n        /* \"contracts/Staking.sol\":7680:7799  function rewardAmount() public view returns (uint256) {\r... */\n    tag_97:\n        /* \"contracts/Staking.sol\":7725:7732  uint256 */\n      0x00\n        /* \"contracts/Staking.sol\":7752:7759  _staker */\n      0x07\n        /* \"contracts/Staking.sol\":7752:7771  _staker[msg.sender] */\n      0x00\n        /* \"contracts/Staking.sol\":7760:7770  msg.sender */\n      caller\n        /* \"contracts/Staking.sol\":7752:7771  _staker[msg.sender] */\n      0xffffffffffffffffffffffffffffffffffffffff\n      and\n      0xffffffffffffffffffffffffffffffffffffffff\n      and\n      dup2\n      mstore\n      0x20\n      add\n      swap1\n      dup2\n      mstore\n      0x20\n      add\n      0x00\n      keccak256\n        /* \"contracts/Staking.sol\":7752:7791  _staker[msg.sender].stakerCurrentReward */\n      0x00\n      add\n      sload\n        /* \"contracts/Staking.sol\":7745:7791  return _staker[msg.sender].stakerCurrentReward */\n      swap1\n      pop\n        /* \"contracts/Staking.sol\":7680:7799  function rewardAmount() public view returns (uint256) {\r... */\n      swap1\n      jump\t// out\n        /* \"contracts/Staking.sol\":1020:1039  IBEP20 public token */\n    tag_100:\n      0x09\n      0x00\n      swap1\n      sload\n      swap1\n      0x0100\n      exp\n      swap1\n      div\n      0xffffffffffffffffffffffffffffffffffffffff\n      and\n      dup2\n      jump\t// out\n        /* \"contracts/Staking.sol\":1982:2360  function updateReward() private{\r... */\n    tag_113:\n        /* \"contracts/Staking.sol\":2034:2055  Staker storage staker */\n      0x00\n        /* \"contracts/Staking.sol\":2058:2065  _staker */\n      0x07\n        /* \"contracts/Staking.sol\":2058:2077  _staker[msg.sender] */\n      0x00\n        /* \"contracts/Staking.sol\":2066:2076  msg.sender */\n      caller\n        /* \"contracts/Staking.sol\":2058:2077  _staker[msg.sender] */\n      0xffffffffffffffffffffffffffffffffffffffff\n      and\n      0xffffffffffffffffffffffffffffffffffffffff\n      and\n      dup2\n      mstore\n      0x20\n      add\n      swap1\n      dup2\n      mstore\n      0x20\n      add\n      0x00\n      keccak256\n        /* \"contracts/Staking.sol\":2034:2077  Staker storage staker = _staker[msg.sender] */\n      swap1\n      pop\n        /* \"contracts/Staking.sol\":2088:2105  uint256 newReward */\n      0x00\n        /* \"contracts/Staking.sol\":2108:2216  staker.stakedAmount.mul(block.number.sub(staker.lastUpdatedBlockNumber).div(8640)).mul(_rewardRate).div(1e4) */\n      tag_283\n        /* \"contracts/Staking.sol\":2212:2215  1e4 */\n      0x2710\n        /* \"contracts/Staking.sol\":2108:2207  staker.stakedAmount.mul(block.number.sub(staker.lastUpdatedBlockNumber).div(8640)).mul(_rewardRate) */\n      tag_284\n        /* \"contracts/Staking.sol\":2195:2206  _rewardRate */\n      sload(0x03)\n        /* \"contracts/Staking.sol\":2108:2190  staker.stakedAmount.mul(block.number.sub(staker.lastUpdatedBlockNumber).div(8640)) */\n      tag_285\n        /* \"contracts/Staking.sol\":2132:2189  block.number.sub(staker.lastUpdatedBlockNumber).div(8640) */\n      tag_286\n        /* \"contracts/Staking.sol\":2184:2188  8640 */\n      0x21c0\n        /* \"contracts/Staking.sol\":2132:2179  block.number.sub(staker.lastUpdatedBlockNumber) */\n      tag_287\n        /* \"contracts/Staking.sol\":2149:2155  staker */\n      dup10\n        /* \"contracts/Staking.sol\":2149:2178  staker.lastUpdatedBlockNumber */\n      0x04\n      add\n      sload\n        /* \"contracts/Staking.sol\":2132:2144  block.number */\n      number\n        /* \"contracts/Staking.sol\":2132:2148  block.number.sub */\n      tag_129\n      swap1\n        /* \"contracts/Staking.sol\":2132:2179  block.number.sub(staker.lastUpdatedBlockNumber) */\n      swap2\n      swap1\n      0xffffffff\n      and\n      jump\t// in\n    tag_287:\n        /* \"contracts/Staking.sol\":2132:2183  block.number.sub(staker.lastUpdatedBlockNumber).div */\n      tag_130\n      swap1\n        /* \"contracts/Staking.sol\":2132:2189  block.number.sub(staker.lastUpdatedBlockNumber).div(8640) */\n      swap2\n      swap1\n      0xffffffff\n      and\n      jump\t// in\n    tag_286:\n        /* \"contracts/Staking.sol\":2108:2114  staker */\n      dup8\n        /* \"contracts/Staking.sol\":2108:2127  staker.stakedAmount */\n      0x01\n      add\n      sload\n        /* \"contracts/Staking.sol\":2108:2131  staker.stakedAmount.mul */\n      tag_142\n      swap1\n        /* \"contracts/Staking.sol\":2108:2190  staker.stakedAmount.mul(block.number.sub(staker.lastUpdatedBlockNumber).div(8640)) */\n      swap2\n      swap1\n      0xffffffff\n      and\n      jump\t// in\n    tag_285:\n        /* \"contracts/Staking.sol\":2108:2194  staker.stakedAmount.mul(block.number.sub(staker.lastUpdatedBlockNumber).div(8640)).mul */\n      tag_142\n      swap1\n        /* \"contracts/Staking.sol\":2108:2207  staker.stakedAmount.mul(block.number.sub(staker.lastUpdatedBlockNumber).div(8640)).mul(_rewardRate) */\n      swap2\n      swap1\n      0xffffffff\n      and\n      jump\t// in\n    tag_284:\n        /* \"contracts/Staking.sol\":2108:2211  staker.stakedAmount.mul(block.number.sub(staker.lastUpdatedBlockNumber).div(8640)).mul(_rewardRate).div */\n      tag_130\n      swap1\n        /* \"contracts/Staking.sol\":2108:2216  staker.stakedAmount.mul(block.number.sub(staker.lastUpdatedBlockNumber).div(8640)).mul(_rewardRate).div(1e4) */\n      swap2\n      swap1\n      0xffffffff\n      and\n      jump\t// in\n    tag_283:\n        /* \"contracts/Staking.sol\":2088:2216  uint256 newReward = staker.stakedAmount.mul(block.number.sub(staker.lastUpdatedBlockNumber).div(8640)).mul(_rewardRate).div(1e4) */\n      swap1\n      pop\n        /* \"contracts/Staking.sol\":2256:2297  staker.stakerCurrentReward.add(newReward) */\n      tag_288\n        /* \"contracts/Staking.sol\":2287:2296  newReward */\n      dup2\n        /* \"contracts/Staking.sol\":2256:2262  staker */\n      dup4\n        /* \"contracts/Staking.sol\":2256:2282  staker.stakerCurrentReward */\n      0x00\n      add\n      sload\n        /* \"contracts/Staking.sol\":2256:2286  staker.stakerCurrentReward.add */\n      tag_133\n      swap1\n        /* \"contracts/Staking.sol\":2256:2297  staker.stakerCurrentReward.add(newReward) */\n      swap2\n      swap1\n      0xffffffff\n      and\n      jump\t// in\n    tag_288:\n        /* \"contracts/Staking.sol\":2227:2233  staker */\n      dup3\n        /* \"contracts/Staking.sol\":2227:2253  staker.stakerCurrentReward */\n      0x00\n      add\n        /* \"contracts/Staking.sol\":2227:2297  staker.stakerCurrentReward = staker.stakerCurrentReward.add(newReward) */\n      dup2\n      swap1\n      sstore\n      pop\n        /* \"contracts/Staking.sol\":2340:2352  block.number */\n      number\n        /* \"contracts/Staking.sol\":2308:2314  staker */\n      dup3\n        /* \"contracts/Staking.sol\":2308:2337  staker.lastUpdatedBlockNumber */\n      0x04\n      add\n        /* \"contracts/Staking.sol\":2308:2352  staker.lastUpdatedBlockNumber = block.number */\n      dup2\n      swap1\n      sstore\n      pop\n        /* \"contracts/Staking.sol\":2013:2360  {\r... */\n      pop\n      pop\n        /* \"contracts/Staking.sol\":1982:2360  function updateReward() private{\r... */\n      jump\t// out\n        /* \"@openzeppelin/contracts/utils/math/SafeMath.sol\":3108:3204  function sub(uint256 a, uint256 b) internal pure returns (uint256) {... */\n    tag_129:\n        /* \"@openzeppelin/contracts/utils/math/SafeMath.sol\":3166:3173  uint256 */\n      0x00\n        /* \"@openzeppelin/contracts/utils/math/SafeMath.sol\":3196:3197  b */\n      dup2\n        /* \"@openzeppelin/contracts/utils/math/SafeMath.sol\":3192:3193  a */\n      dup4\n        /* \"@openzeppelin/contracts/utils/math/SafeMath.sol\":3192:3197  a - b */\n      tag_290\n      swap2\n      swap1\n      tag_291\n      jump\t// in\n    tag_290:\n        /* \"@openzeppelin/contracts/utils/math/SafeMath.sol\":3185:3197  return a - b */\n      swap1\n      pop\n        /* \"@openzeppelin/contracts/utils/math/SafeMath.sol\":3108:3204  function sub(uint256 a, uint256 b) internal pure returns (uint256) {... */\n      swap3\n      swap2\n      pop\n      pop\n      jump\t// out\n        /* \"@openzeppelin/contracts/utils/math/SafeMath.sol\":3836:3932  function div(uint256 a, uint256 b) internal pure returns (uint256) {... */\n    tag_130:\n        /* \"@openzeppelin/contracts/utils/math/SafeMath.sol\":3894:3901  uint256 */\n      0x00\n        /* \"@openzeppelin/contracts/utils/math/SafeMath.sol\":3924:3925  b */\n      dup2\n        /* \"@openzeppelin/contracts/utils/math/SafeMath.sol\":3920:3921  a */\n      dup4\n        /* \"@openzeppelin/contracts/utils/math/SafeMath.sol\":3920:3925  a / b */\n      tag_293\n      swap2\n      swap1\n      tag_294\n      jump\t// in\n    tag_293:\n        /* \"@openzeppelin/contracts/utils/math/SafeMath.sol\":3913:3925  return a / b */\n      swap1\n      pop\n        /* \"@openzeppelin/contracts/utils/math/SafeMath.sol\":3836:3932  function div(uint256 a, uint256 b) internal pure returns (uint256) {... */\n      swap3\n      swap2\n      pop\n      pop\n      jump\t// out\n        /* \"@openzeppelin/contracts/utils/math/SafeMath.sol\":2741:2837  function add(uint256 a, uint256 b) internal pure returns (uint256) {... */\n    tag_133:\n        /* \"@openzeppelin/contracts/utils/math/SafeMath.sol\":2799:2806  uint256 */\n      0x00\n        /* \"@openzeppelin/contracts/utils/math/SafeMath.sol\":2829:2830  b */\n      dup2\n        /* \"@openzeppelin/contracts/utils/math/SafeMath.sol\":2825:2826  a */\n      dup4\n        /* \"@openzeppelin/contracts/utils/math/SafeMath.sol\":2825:2830  a + b */\n      tag_296\n      swap2\n      swap1\n      tag_297\n      jump\t// in\n    tag_296:\n        /* \"@openzeppelin/contracts/utils/math/SafeMath.sol\":2818:2830  return a + b */\n      swap1\n      pop\n        /* \"@openzeppelin/contracts/utils/math/SafeMath.sol\":2741:2837  function add(uint256 a, uint256 b) internal pure returns (uint256) {... */\n      swap3\n      swap2\n      pop\n      pop\n      jump\t// out\n        /* \"@openzeppelin/contracts/utils/math/SafeMath.sol\":3451:3547  function mul(uint256 a, uint256 b) internal pure returns (uint256) {... */\n    tag_142:\n        /* \"@openzeppelin/contracts/utils/math/SafeMath.sol\":3509:3516  uint256 */\n      0x00\n        /* \"@openzeppelin/contracts/utils/math/SafeMath.sol\":3539:3540  b */\n      dup2\n        /* \"@openzeppelin/contracts/utils/math/SafeMath.sol\":3535:3536  a */\n      dup4\n        /* \"@openzeppelin/contracts/utils/math/SafeMath.sol\":3535:3540  a * b */\n      tag_299\n      swap2\n      swap1\n      tag_300\n      jump\t// in\n    tag_299:\n        /* \"@openzeppelin/contracts/utils/math/SafeMath.sol\":3528:3540  return a * b */\n      swap1\n      pop\n        /* \"@openzeppelin/contracts/utils/math/SafeMath.sol\":3451:3547  function mul(uint256 a, uint256 b) internal pure returns (uint256) {... */\n      swap3\n      swap2\n      pop\n      pop\n      jump\t// out\n        /* \"contracts/SafeBEP20.sol\":290:467  function safeTransfer(IBEP20 token, address to, uint256 value) internal {\r... */\n    tag_146:\n        /* \"contracts/SafeBEP20.sol\":373:459  _callOptionalReturn(token, abi.encodeWithSelector(token.transfer.selector, to, value)) */\n      tag_302\n        /* \"contracts/SafeBEP20.sol\":393:398  token */\n      dup4\n        /* \"contracts/SafeBEP20.sol\":423:446  token.transfer.selector */\n      shl(0xe0, 0xa9059cbb)\n        /* \"contracts/SafeBEP20.sol\":448:450  to */\n      dup5\n        /* \"contracts/SafeBEP20.sol\":452:457  value */\n      dup5\n        /* \"contracts/SafeBEP20.sol\":400:458  abi.encodeWithSelector(token.transfer.selector, to, value) */\n      add(0x24, mload(0x40))\n      tag_303\n      swap3\n      swap2\n      swap1\n      tag_148\n      jump\t// in\n    tag_303:\n      mload(0x40)\n      0x20\n      dup2\n      dup4\n      sub\n      sub\n      dup2\n      mstore\n      swap1\n      0x40\n      mstore\n      swap1\n      not(0xffffffffffffffffffffffffffffffffffffffffffffffffffffffff)\n      and\n      0x20\n      dup3\n      add\n      dup1\n      mload\n      0xffffffffffffffffffffffffffffffffffffffffffffffffffffffff\n      dup4\n      dup2\n      dup4\n      and\n      or\n      dup4\n      mstore\n      pop\n      pop\n      pop\n      pop\n        /* \"contracts/SafeBEP20.sol\":373:392  _callOptionalReturn */\n      tag_304\n        /* \"contracts/SafeBEP20.sol\":373:459  _callOptionalReturn(token, abi.encodeWithSelector(token.transfer.selector, to, value)) */\n      jump\t// in\n    tag_302:\n        /* \"contracts/SafeBEP20.sol\":290:467  function safeTransfer(IBEP20 token, address to, uint256 value) internal {\r... */\n      pop\n      pop\n      pop\n      jump\t// out\n        /* \"@openzeppelin/contracts/utils/Context.sol\":640:736  function _msgSender() internal view virtual returns (address) {... */\n    tag_173:\n        /* \"@openzeppelin/contracts/utils/Context.sol\":693:700  address */\n      0x00\n        /* \"@openzeppelin/contracts/utils/Context.sol\":719:729  msg.sender */\n      caller\n        /* \"@openzeppelin/contracts/utils/Context.sol\":712:729  return msg.sender */\n      swap1\n      pop\n        /* \"@openzeppelin/contracts/utils/Context.sol\":640:736  function _msgSender() internal view virtual returns (address) {... */\n      swap1\n      jump\t// out\n        /* \"@openzeppelin/contracts/access/Ownable.sol\":2270:2457  function _transferOwnership(address newOwner) internal virtual {... */\n    tag_218:\n        /* \"@openzeppelin/contracts/access/Ownable.sol\":2343:2359  address oldOwner */\n      0x00\n        /* \"@openzeppelin/contracts/access/Ownable.sol\":2362:2368  _owner */\n      dup1\n      0x00\n      swap1\n      sload\n      swap1\n      0x0100\n      exp\n      swap1\n      div\n      0xffffffffffffffffffffffffffffffffffffffff\n      and\n        /* \"@openzeppelin/contracts/access/Ownable.sol\":2343:2368  address oldOwner = _owner */\n      swap1\n      pop\n        /* \"@openzeppelin/contracts/access/Ownable.sol\":2387:2395  newOwner */\n      dup2\n        /* \"@openzeppelin/contracts/access/Ownable.sol\":2378:2384  _owner */\n      0x00\n      dup1\n        /* \"@openzeppelin/contracts/access/Ownable.sol\":2378:2395  _owner = newOwner */\n      0x0100\n      exp\n      dup2\n      sload\n      dup2\n      0xffffffffffffffffffffffffffffffffffffffff\n      mul\n      not\n      and\n      swap1\n      dup4\n      0xffffffffffffffffffffffffffffffffffffffff\n      and\n      mul\n      or\n      swap1\n      sstore\n      pop\n        /* \"@openzeppelin/contracts/access/Ownable.sol\":2441:2449  newOwner */\n      dup2\n        /* \"@openzeppelin/contracts/access/Ownable.sol\":2410:2450  OwnershipTransferred(oldOwner, newOwner) */\n      0xffffffffffffffffffffffffffffffffffffffff\n      and\n        /* \"@openzeppelin/contracts/access/Ownable.sol\":2431:2439  oldOwner */\n      dup2\n        /* \"@openzeppelin/contracts/access/Ownable.sol\":2410:2450  OwnershipTransferred(oldOwner, newOwner) */\n      0xffffffffffffffffffffffffffffffffffffffff\n      and\n      0x8be0079c531659141344cd1fd0a4f28419497f9722a3daafe3b4186f6b6457e0\n      mload(0x40)\n      mload(0x40)\n      dup1\n      swap2\n      sub\n      swap1\n      log3\n        /* \"@openzeppelin/contracts/access/Ownable.sol\":2333:2457  {... */\n      pop\n        /* \"@openzeppelin/contracts/access/Ownable.sol\":2270:2457  function _transferOwnership(address newOwner) internal virtual {... */\n      pop\n      jump\t// out\n        /* \"contracts/SafeBEP20.sol\":475:680  function safeTransferFrom(IBEP20 token, address from, address to, uint256 value) internal {\r... */\n    tag_267:\n        /* \"contracts/SafeBEP20.sol\":576:672  _callOptionalReturn(token, abi.encodeWithSelector(token.transferFrom.selector, from, to, value)) */\n      tag_308\n        /* \"contracts/SafeBEP20.sol\":596:601  token */\n      dup5\n        /* \"contracts/SafeBEP20.sol\":626:653  token.transferFrom.selector */\n      shl(0xe0, 0x23b872dd)\n        /* \"contracts/SafeBEP20.sol\":655:659  from */\n      dup6\n        /* \"contracts/SafeBEP20.sol\":661:663  to */\n      dup6\n        /* \"contracts/SafeBEP20.sol\":665:670  value */\n      dup6\n        /* \"contracts/SafeBEP20.sol\":603:671  abi.encodeWithSelector(token.transferFrom.selector, from, to, value) */\n      add(0x24, mload(0x40))\n      tag_309\n      swap4\n      swap3\n      swap2\n      swap1\n      tag_310\n      jump\t// in\n    tag_309:\n      mload(0x40)\n      0x20\n      dup2\n      dup4\n      sub\n      sub\n      dup2\n      mstore\n      swap1\n      0x40\n      mstore\n      swap1\n      not(0xffffffffffffffffffffffffffffffffffffffffffffffffffffffff)\n      and\n      0x20\n      dup3\n      add\n      dup1\n      mload\n      0xffffffffffffffffffffffffffffffffffffffffffffffffffffffff\n      dup4\n      dup2\n      dup4\n      and\n      or\n      dup4\n      mstore\n      pop\n      pop\n      pop\n      pop\n        /* \"contracts/SafeBEP20.sol\":576:595  _callOptionalReturn */\n      tag_304\n        /* \"contracts/SafeBEP20.sol\":576:672  _callOptionalReturn(token, abi.encodeWithSelector(token.transferFrom.selector, from, to, value)) */\n      jump\t// in\n    tag_308:\n        /* \"contracts/SafeBEP20.sol\":475:680  function safeTransferFrom(IBEP20 token, address from, address to, uint256 value) internal {\r... */\n      pop\n      pop\n      pop\n      pop\n      jump\t// out\n        /* \"contracts/SafeBEP20.sol\":2599:3368  function _callOptionalReturn(IBEP20 token, bytes memory data) private {\r... */\n    tag_304:\n        /* \"contracts/SafeBEP20.sol\":3031:3054  bytes memory returndata */\n      0x00\n        /* \"contracts/SafeBEP20.sol\":3057:3126  address(token).functionCall(data, \"SafeBEP20: low-level call failed\") */\n      tag_312\n        /* \"contracts/SafeBEP20.sol\":3085:3089  data */\n      dup3\n        /* \"contracts/SafeBEP20.sol\":3057:3126  address(token).functionCall(data, \"SafeBEP20: low-level call failed\") */\n      mload(0x40)\n      dup1\n      0x40\n      add\n      0x40\n      mstore\n      dup1\n      0x20\n      dup2\n      mstore\n      0x20\n      add\n      0x5361666542455032303a206c6f772d6c6576656c2063616c6c206661696c6564\n      dup2\n      mstore\n      pop\n        /* \"contracts/SafeBEP20.sol\":3065:3070  token */\n      dup6\n        /* \"contracts/SafeBEP20.sol\":3057:3084  address(token).functionCall */\n      0xffffffffffffffffffffffffffffffffffffffff\n      and\n      tag_313\n      swap1\n        /* \"contracts/SafeBEP20.sol\":3057:3126  address(token).functionCall(data, \"SafeBEP20: low-level call failed\") */\n      swap3\n      swap2\n      swap1\n      0xffffffff\n      and\n      jump\t// in\n    tag_312:\n        /* \"contracts/SafeBEP20.sol\":3031:3126  bytes memory returndata = address(token).functionCall(data, \"SafeBEP20: low-level call failed\") */\n      swap1\n      pop\n        /* \"contracts/SafeBEP20.sol\":3161:3162  0 */\n      0x00\n        /* \"contracts/SafeBEP20.sol\":3141:3151  returndata */\n      dup2\n        /* \"contracts/SafeBEP20.sol\":3141:3158  returndata.length */\n      mload\n        /* \"contracts/SafeBEP20.sol\":3141:3162  returndata.length > 0 */\n      gt\n        /* \"contracts/SafeBEP20.sol\":3137:3361  if (returndata.length > 0) { // Return data is optional\r... */\n      iszero\n      tag_314\n      jumpi\n        /* \"contracts/SafeBEP20.sol\":3283:3293  returndata */\n      dup1\n        /* \"contracts/SafeBEP20.sol\":3272:3302  abi.decode(returndata, (bool)) */\n      dup1\n      0x20\n      add\n      swap1\n      mload\n      dup2\n      add\n      swap1\n      tag_315\n      swap2\n      swap1\n      tag_316\n      jump\t// in\n    tag_315:\n        /* \"contracts/SafeBEP20.sol\":3264:3349  require(abi.decode(returndata, (bool)), \"SafeBEP20: BEP20 operation did not succeed\") */\n      tag_317\n      jumpi\n      mload(0x40)\n      0x08c379a000000000000000000000000000000000000000000000000000000000\n      dup2\n      mstore\n      0x04\n      add\n      tag_318\n      swap1\n      tag_319\n      jump\t// in\n    tag_318:\n      mload(0x40)\n      dup1\n      swap2\n      sub\n      swap1\n      revert\n    tag_317:\n        /* \"contracts/SafeBEP20.sol\":3137:3361  if (returndata.length > 0) { // Return data is optional\r... */\n    tag_314:\n        /* \"contracts/SafeBEP20.sol\":2669:3368  {\r... */\n      pop\n        /* \"contracts/SafeBEP20.sol\":2599:3368  function _callOptionalReturn(IBEP20 token, bytes memory data) private {\r... */\n      pop\n      pop\n      jump\t// out\n        /* \"@openzeppelin/contracts/utils/Address.sol\":3861:4084  function functionCall(... */\n    tag_313:\n        /* \"@openzeppelin/contracts/utils/Address.sol\":3994:4006  bytes memory */\n      0x60\n        /* \"@openzeppelin/contracts/utils/Address.sol\":4025:4077  functionCallWithValue(target, data, 0, errorMessage) */\n      tag_321\n        /* \"@openzeppelin/contracts/utils/Address.sol\":4047:4053  target */\n      dup5\n        /* \"@openzeppelin/contracts/utils/Address.sol\":4055:4059  data */\n      dup5\n        /* \"@openzeppelin/contracts/utils/Address.sol\":4061:4062  0 */\n      0x00\n        /* \"@openzeppelin/contracts/utils/Address.sol\":4064:4076  errorMessage */\n      dup6\n        /* \"@openzeppelin/contracts/utils/Address.sol\":4025:4046  functionCallWithValue */\n      tag_322\n        /* \"@openzeppelin/contracts/utils/Address.sol\":4025:4077  functionCallWithValue(target, data, 0, errorMessage) */\n      jump\t// in\n    tag_321:\n        /* \"@openzeppelin/contracts/utils/Address.sol\":4018:4077  return functionCallWithValue(target, data, 0, errorMessage) */\n      swap1\n      pop\n        /* \"@openzeppelin/contracts/utils/Address.sol\":3861:4084  function functionCall(... */\n      swap4\n      swap3\n      pop\n      pop\n      pop\n      jump\t// out\n        /* \"@openzeppelin/contracts/utils/Address.sol\":4948:5447  function functionCallWithValue(... */\n    tag_322:\n        /* \"@openzeppelin/contracts/utils/Address.sol\":5113:5125  bytes memory */\n      0x60\n        /* \"@openzeppelin/contracts/utils/Address.sol\":5170:5175  value */\n      dup3\n        /* \"@openzeppelin/contracts/utils/Address.sol\":5145:5166  address(this).balance */\n      selfbalance\n        /* \"@openzeppelin/contracts/utils/Address.sol\":5145:5175  address(this).balance >= value */\n      lt\n      iszero\n        /* \"@openzeppelin/contracts/utils/Address.sol\":5137:5218  require(address(this).balance >= value, \"Address: insufficient balance for call\") */\n      tag_324\n      jumpi\n      mload(0x40)\n      0x08c379a000000000000000000000000000000000000000000000000000000000\n      dup2\n      mstore\n      0x04\n      add\n      tag_325\n      swap1\n      tag_326\n      jump\t// in\n    tag_325:\n      mload(0x40)\n      dup1\n      swap2\n      sub\n      swap1\n      revert\n    tag_324:\n        /* \"@openzeppelin/contracts/utils/Address.sol\":5236:5254  isContract(target) */\n      tag_327\n        /* \"@openzeppelin/contracts/utils/Address.sol\":5247:5253  target */\n      dup6\n        /* \"@openzeppelin/contracts/utils/Address.sol\":5236:5246  isContract */\n      tag_328\n        /* \"@openzeppelin/contracts/utils/Address.sol\":5236:5254  isContract(target) */\n      jump\t// in\n    tag_327:\n        /* \"@openzeppelin/contracts/utils/Address.sol\":5228:5288  require(isContract(target), \"Address: call to non-contract\") */\n      tag_329\n      jumpi\n      mload(0x40)\n      0x08c379a000000000000000000000000000000000000000000000000000000000\n      dup2\n      mstore\n      0x04\n      add\n      tag_330\n      swap1\n      tag_331\n      jump\t// in\n    tag_330:\n      mload(0x40)\n      dup1\n      swap2\n      sub\n      swap1\n      revert\n    tag_329:\n        /* \"@openzeppelin/contracts/utils/Address.sol\":5300:5312  bool success */\n      0x00\n        /* \"@openzeppelin/contracts/utils/Address.sol\":5314:5337  bytes memory returndata */\n      dup1\n        /* \"@openzeppelin/contracts/utils/Address.sol\":5341:5347  target */\n      dup7\n        /* \"@openzeppelin/contracts/utils/Address.sol\":5341:5352  target.call */\n      0xffffffffffffffffffffffffffffffffffffffff\n      and\n        /* \"@openzeppelin/contracts/utils/Address.sol\":5360:5365  value */\n      dup6\n        /* \"@openzeppelin/contracts/utils/Address.sol\":5367:5371  data */\n      dup8\n        /* \"@openzeppelin/contracts/utils/Address.sol\":5341:5372  target.call{value: value}(data) */\n      mload(0x40)\n      tag_332\n      swap2\n      swap1\n      tag_333\n      jump\t// in\n    tag_332:\n      0x00\n      mload(0x40)\n      dup1\n      dup4\n      sub\n      dup2\n      dup6\n      dup8\n      gas\n      call\n      swap3\n      pop\n      pop\n      pop\n      returndatasize\n      dup1\n      0x00\n      dup2\n      eq\n      tag_336\n      jumpi\n      mload(0x40)\n      swap2\n      pop\n      and(add(returndatasize, 0x3f), not(0x1f))\n      dup3\n      add\n      0x40\n      mstore\n      returndatasize\n      dup3\n      mstore\n      returndatasize\n      0x00\n      0x20\n      dup5\n      add\n      returndatacopy\n      jump(tag_335)\n    tag_336:\n      0x60\n      swap2\n      pop\n    tag_335:\n      pop\n        /* \"@openzeppelin/contracts/utils/Address.sol\":5299:5372  (bool success, bytes memory returndata) = target.call{value: value}(data) */\n      swap2\n      pop\n      swap2\n      pop\n        /* \"@openzeppelin/contracts/utils/Address.sol\":5389:5440  verifyCallResult(success, returndata, errorMessage) */\n      tag_337\n        /* \"@openzeppelin/contracts/utils/Address.sol\":5406:5413  success */\n      dup3\n        /* \"@openzeppelin/contracts/utils/Address.sol\":5415:5425  returndata */\n      dup3\n        /* \"@openzeppelin/contracts/utils/Address.sol\":5427:5439  errorMessage */\n      dup7\n        /* \"@openzeppelin/contracts/utils/Address.sol\":5389:5405  verifyCallResult */\n      tag_338\n        /* \"@openzeppelin/contracts/utils/Address.sol\":5389:5440  verifyCallResult(success, returndata, errorMessage) */\n      jump\t// in\n    tag_337:\n        /* \"@openzeppelin/contracts/utils/Address.sol\":5382:5440  return verifyCallResult(success, returndata, errorMessage) */\n      swap3\n      pop\n      pop\n      pop\n        /* \"@openzeppelin/contracts/utils/Address.sol\":4948:5447  function functionCallWithValue(... */\n      swap5\n      swap4\n      pop\n      pop\n      pop\n      pop\n      jump\t// out\n        /* \"@openzeppelin/contracts/utils/Address.sol\":1175:1495  function isContract(address account) internal view returns (bool) {... */\n    tag_328:\n        /* \"@openzeppelin/contracts/utils/Address.sol\":1235:1239  bool */\n      0x00\n        /* \"@openzeppelin/contracts/utils/Address.sol\":1487:1488  0 */\n      dup1\n        /* \"@openzeppelin/contracts/utils/Address.sol\":1465:1472  account */\n      dup3\n        /* \"@openzeppelin/contracts/utils/Address.sol\":1465:1484  account.code.length */\n      0xffffffffffffffffffffffffffffffffffffffff\n      and\n      extcodesize\n        /* \"@openzeppelin/contracts/utils/Address.sol\":1465:1488  account.code.length > 0 */\n      gt\n        /* \"@openzeppelin/contracts/utils/Address.sol\":1458:1488  return account.code.length > 0 */\n      swap1\n      pop\n        /* \"@openzeppelin/contracts/utils/Address.sol\":1175:1495  function isContract(address account) internal view returns (bool) {... */\n      swap2\n      swap1\n      pop\n      jump\t// out\n        /* \"@openzeppelin/contracts/utils/Address.sol\":7561:8253  function verifyCallResult(... */\n    tag_338:\n        /* \"@openzeppelin/contracts/utils/Address.sol\":7707:7719  bytes memory */\n      0x60\n        /* \"@openzeppelin/contracts/utils/Address.sol\":7735:7742  success */\n      dup4\n        /* \"@openzeppelin/contracts/utils/Address.sol\":7731:8247  if (success) {... */\n      iszero\n      tag_341\n      jumpi\n        /* \"@openzeppelin/contracts/utils/Address.sol\":7765:7775  returndata */\n      dup3\n        /* \"@openzeppelin/contracts/utils/Address.sol\":7758:7775  return returndata */\n      swap1\n      pop\n      jump(tag_340)\n        /* \"@openzeppelin/contracts/utils/Address.sol\":7731:8247  if (success) {... */\n    tag_341:\n        /* \"@openzeppelin/contracts/utils/Address.sol\":7896:7897  0 */\n      0x00\n        /* \"@openzeppelin/contracts/utils/Address.sol\":7876:7886  returndata */\n      dup4\n        /* \"@openzeppelin/contracts/utils/Address.sol\":7876:7893  returndata.length */\n      mload\n        /* \"@openzeppelin/contracts/utils/Address.sol\":7876:7897  returndata.length > 0 */\n      gt\n        /* \"@openzeppelin/contracts/utils/Address.sol\":7872:8237  if (returndata.length > 0) {... */\n      iszero\n      tag_343\n      jumpi\n        /* \"@openzeppelin/contracts/utils/Address.sol\":8070:8080  returndata */\n      dup3\n        /* \"@openzeppelin/contracts/utils/Address.sol\":8064:8081  mload(returndata) */\n      mload\n        /* \"@openzeppelin/contracts/utils/Address.sol\":8130:8145  returndata_size */\n      dup1\n        /* \"@openzeppelin/contracts/utils/Address.sol\":8117:8127  returndata */\n      dup5\n        /* \"@openzeppelin/contracts/utils/Address.sol\":8113:8115  32 */\n      0x20\n        /* \"@openzeppelin/contracts/utils/Address.sol\":8109:8128  add(32, returndata) */\n      add\n        /* \"@openzeppelin/contracts/utils/Address.sol\":8102:8146  revert(add(32, returndata), returndata_size) */\n      revert\n        /* \"@openzeppelin/contracts/utils/Address.sol\":7872:8237  if (returndata.length > 0) {... */\n    tag_343:\n        /* \"@openzeppelin/contracts/utils/Address.sol\":8209:8221  errorMessage */\n      dup2\n        /* \"@openzeppelin/contracts/utils/Address.sol\":8202:8222  revert(errorMessage) */\n      mload(0x40)\n      0x08c379a000000000000000000000000000000000000000000000000000000000\n      dup2\n      mstore\n      0x04\n      add\n      tag_345\n      swap2\n      swap1\n      tag_346\n      jump\t// in\n    tag_345:\n      mload(0x40)\n      dup1\n      swap2\n      sub\n      swap1\n      revert\n        /* \"@openzeppelin/contracts/utils/Address.sol\":7561:8253  function verifyCallResult(... */\n    tag_340:\n      swap4\n      swap3\n      pop\n      pop\n      pop\n      jump\t// out\n        /* \"#utility.yul\":7:146   */\n    tag_348:\n        /* \"#utility.yul\":53:58   */\n      0x00\n        /* \"#utility.yul\":91:97   */\n      dup2\n        /* \"#utility.yul\":78:98   */\n      calldataload\n        /* \"#utility.yul\":69:98   */\n      swap1\n      pop\n        /* \"#utility.yul\":107:140   */\n      tag_350\n        /* \"#utility.yul\":134:139   */\n      dup2\n        /* \"#utility.yul\":107:140   */\n      tag_351\n      jump\t// in\n    tag_350:\n        /* \"#utility.yul\":7:146   */\n      swap3\n      swap2\n      pop\n      pop\n      jump\t// out\n        /* \"#utility.yul\":152:289   */\n    tag_352:\n        /* \"#utility.yul\":206:211   */\n      0x00\n        /* \"#utility.yul\":237:243   */\n      dup2\n        /* \"#utility.yul\":231:244   */\n      mload\n        /* \"#utility.yul\":222:244   */\n      swap1\n      pop\n        /* \"#utility.yul\":253:283   */\n      tag_354\n        /* \"#utility.yul\":277:282   */\n      dup2\n        /* \"#utility.yul\":253:283   */\n      tag_355\n      jump\t// in\n    tag_354:\n        /* \"#utility.yul\":152:289   */\n      swap3\n      swap2\n      pop\n      pop\n      jump\t// out\n        /* \"#utility.yul\":295:434   */\n    tag_356:\n        /* \"#utility.yul\":341:346   */\n      0x00\n        /* \"#utility.yul\":379:385   */\n      dup2\n        /* \"#utility.yul\":366:386   */\n      calldataload\n        /* \"#utility.yul\":357:386   */\n      swap1\n      pop\n        /* \"#utility.yul\":395:428   */\n      tag_358\n        /* \"#utility.yul\":422:427   */\n      dup2\n        /* \"#utility.yul\":395:428   */\n      tag_359\n      jump\t// in\n    tag_358:\n        /* \"#utility.yul\":295:434   */\n      swap3\n      swap2\n      pop\n      pop\n      jump\t// out\n        /* \"#utility.yul\":440:583   */\n    tag_360:\n        /* \"#utility.yul\":497:502   */\n      0x00\n        /* \"#utility.yul\":528:534   */\n      dup2\n        /* \"#utility.yul\":522:535   */\n      mload\n        /* \"#utility.yul\":513:535   */\n      swap1\n      pop\n        /* \"#utility.yul\":544:577   */\n      tag_362\n        /* \"#utility.yul\":571:576   */\n      dup2\n        /* \"#utility.yul\":544:577   */\n      tag_359\n      jump\t// in\n    tag_362:\n        /* \"#utility.yul\":440:583   */\n      swap3\n      swap2\n      pop\n      pop\n      jump\t// out\n        /* \"#utility.yul\":589:918   */\n    tag_94:\n        /* \"#utility.yul\":648:654   */\n      0x00\n        /* \"#utility.yul\":697:699   */\n      0x20\n        /* \"#utility.yul\":685:694   */\n      dup3\n        /* \"#utility.yul\":676:683   */\n      dup5\n        /* \"#utility.yul\":672:695   */\n      sub\n        /* \"#utility.yul\":668:700   */\n      slt\n        /* \"#utility.yul\":665:784   */\n      iszero\n      tag_364\n      jumpi\n        /* \"#utility.yul\":703:782   */\n      tag_365\n      tag_366\n      jump\t// in\n    tag_365:\n        /* \"#utility.yul\":665:784   */\n    tag_364:\n        /* \"#utility.yul\":823:824   */\n      0x00\n        /* \"#utility.yul\":848:901   */\n      tag_367\n        /* \"#utility.yul\":893:900   */\n      dup5\n        /* \"#utility.yul\":884:890   */\n      dup3\n        /* \"#utility.yul\":873:882   */\n      dup6\n        /* \"#utility.yul\":869:891   */\n      add\n        /* \"#utility.yul\":848:901   */\n      tag_348\n      jump\t// in\n    tag_367:\n        /* \"#utility.yul\":838:901   */\n      swap2\n      pop\n        /* \"#utility.yul\":794:911   */\n      pop\n        /* \"#utility.yul\":589:918   */\n      swap3\n      swap2\n      pop\n      pop\n      jump\t// out\n        /* \"#utility.yul\":924:1269   */\n    tag_316:\n        /* \"#utility.yul\":991:997   */\n      0x00\n        /* \"#utility.yul\":1040:1042   */\n      0x20\n        /* \"#utility.yul\":1028:1037   */\n      dup3\n        /* \"#utility.yul\":1019:1026   */\n      dup5\n        /* \"#utility.yul\":1015:1038   */\n      sub\n        /* \"#utility.yul\":1011:1043   */\n      slt\n        /* \"#utility.yul\":1008:1127   */\n      iszero\n      tag_369\n      jumpi\n        /* \"#utility.yul\":1046:1125   */\n      tag_370\n      tag_366\n      jump\t// in\n    tag_370:\n        /* \"#utility.yul\":1008:1127   */\n    tag_369:\n        /* \"#utility.yul\":1166:1167   */\n      0x00\n        /* \"#utility.yul\":1191:1252   */\n      tag_371\n        /* \"#utility.yul\":1244:1251   */\n      dup5\n        /* \"#utility.yul\":1235:1241   */\n      dup3\n        /* \"#utility.yul\":1224:1233   */\n      dup6\n        /* \"#utility.yul\":1220:1242   */\n      add\n        /* \"#utility.yul\":1191:1252   */\n      tag_352\n      jump\t// in\n    tag_371:\n        /* \"#utility.yul\":1181:1252   */\n      swap2\n      pop\n        /* \"#utility.yul\":1137:1262   */\n      pop\n        /* \"#utility.yul\":924:1269   */\n      swap3\n      swap2\n      pop\n      pop\n      jump\t// out\n        /* \"#utility.yul\":1275:1604   */\n    tag_38:\n        /* \"#utility.yul\":1334:1340   */\n      0x00\n        /* \"#utility.yul\":1383:1385   */\n      0x20\n        /* \"#utility.yul\":1371:1380   */\n      dup3\n        /* \"#utility.yul\":1362:1369   */\n      dup5\n        /* \"#utility.yul\":1358:1381   */\n      sub\n        /* \"#utility.yul\":1354:1386   */\n      slt\n        /* \"#utility.yul\":1351:1470   */\n      iszero\n      tag_373\n      jumpi\n        /* \"#utility.yul\":1389:1468   */\n      tag_374\n      tag_366\n      jump\t// in\n    tag_374:\n        /* \"#utility.yul\":1351:1470   */\n    tag_373:\n        /* \"#utility.yul\":1509:1510   */\n      0x00\n        /* \"#utility.yul\":1534:1587   */\n      tag_375\n        /* \"#utility.yul\":1579:1586   */\n      dup5\n        /* \"#utility.yul\":1570:1576   */\n      dup3\n        /* \"#utility.yul\":1559:1568   */\n      dup6\n        /* \"#utility.yul\":1555:1577   */\n      add\n        /* \"#utility.yul\":1534:1587   */\n      tag_356\n      jump\t// in\n    tag_375:\n        /* \"#utility.yul\":1524:1587   */\n      swap2\n      pop\n        /* \"#utility.yul\":1480:1597   */\n      pop\n        /* \"#utility.yul\":1275:1604   */\n      swap3\n      swap2\n      pop\n      pop\n      jump\t// out\n        /* \"#utility.yul\":1610:1961   */\n    tag_119:\n        /* \"#utility.yul\":1680:1686   */\n      0x00\n        /* \"#utility.yul\":1729:1731   */\n      0x20\n        /* \"#utility.yul\":1717:1726   */\n      dup3\n        /* \"#utility.yul\":1708:1715   */\n      dup5\n        /* \"#utility.yul\":1704:1727   */\n      sub\n        /* \"#utility.yul\":1700:1732   */\n      slt\n        /* \"#utility.yul\":1697:1816   */\n      iszero\n      tag_377\n      jumpi\n        /* \"#utility.yul\":1735:1814   */\n      tag_378\n      tag_366\n      jump\t// in\n    tag_378:\n        /* \"#utility.yul\":1697:1816   */\n    tag_377:\n        /* \"#utility.yul\":1855:1856   */\n      0x00\n        /* \"#utility.yul\":1880:1944   */\n      tag_379\n        /* \"#utility.yul\":1936:1943   */\n      dup5\n        /* \"#utility.yul\":1927:1933   */\n      dup3\n        /* \"#utility.yul\":1916:1925   */\n      dup6\n        /* \"#utility.yul\":1912:1934   */\n      add\n        /* \"#utility.yul\":1880:1944   */\n      tag_360\n      jump\t// in\n    tag_379:\n        /* \"#utility.yul\":1870:1944   */\n      swap2\n      pop\n        /* \"#utility.yul\":1826:1954   */\n      pop\n        /* \"#utility.yul\":1610:1961   */\n      swap3\n      swap2\n      pop\n      pop\n      jump\t// out\n        /* \"#utility.yul\":1967:2441   */\n    tag_50:\n        /* \"#utility.yul\":2035:2041   */\n      0x00\n        /* \"#utility.yul\":2043:2049   */\n      dup1\n        /* \"#utility.yul\":2092:2094   */\n      0x40\n        /* \"#utility.yul\":2080:2089   */\n      dup4\n        /* \"#utility.yul\":2071:2078   */\n      dup6\n        /* \"#utility.yul\":2067:2090   */\n      sub\n        /* \"#utility.yul\":2063:2095   */\n      slt\n        /* \"#utility.yul\":2060:2179   */\n      iszero\n      tag_381\n      jumpi\n        /* \"#utility.yul\":2098:2177   */\n      tag_382\n      tag_366\n      jump\t// in\n    tag_382:\n        /* \"#utility.yul\":2060:2179   */\n    tag_381:\n        /* \"#utility.yul\":2218:2219   */\n      0x00\n        /* \"#utility.yul\":2243:2296   */\n      tag_383\n        /* \"#utility.yul\":2288:2295   */\n      dup6\n        /* \"#utility.yul\":2279:2285   */\n      dup3\n        /* \"#utility.yul\":2268:2277   */\n      dup7\n        /* \"#utility.yul\":2264:2286   */\n      add\n        /* \"#utility.yul\":2243:2296   */\n      tag_356\n      jump\t// in\n    tag_383:\n        /* \"#utility.yul\":2233:2296   */\n      swap3\n      pop\n        /* \"#utility.yul\":2189:2306   */\n      pop\n        /* \"#utility.yul\":2345:2347   */\n      0x20\n        /* \"#utility.yul\":2371:2424   */\n      tag_384\n        /* \"#utility.yul\":2416:2423   */\n      dup6\n        /* \"#utility.yul\":2407:2413   */\n      dup3\n        /* \"#utility.yul\":2396:2405   */\n      dup7\n        /* \"#utility.yul\":2392:2414   */\n      add\n        /* \"#utility.yul\":2371:2424   */\n      tag_356\n      jump\t// in\n    tag_384:\n        /* \"#utility.yul\":2361:2424   */\n      swap2\n      pop\n        /* \"#utility.yul\":2316:2434   */\n      pop\n        /* \"#utility.yul\":1967:2441   */\n      swap3\n      pop\n      swap3\n      swap1\n      pop\n      jump\t// out\n        /* \"#utility.yul\":2447:2565   */\n    tag_385:\n        /* \"#utility.yul\":2534:2558   */\n      tag_387\n        /* \"#utility.yul\":2552:2557   */\n      dup2\n        /* \"#utility.yul\":2534:2558   */\n      tag_388\n      jump\t// in\n    tag_387:\n        /* \"#utility.yul\":2529:2532   */\n      dup3\n        /* \"#utility.yul\":2522:2559   */\n      mstore\n        /* \"#utility.yul\":2447:2565   */\n      pop\n      pop\n      jump\t// out\n        /* \"#utility.yul\":2571:2680   */\n    tag_389:\n        /* \"#utility.yul\":2652:2673   */\n      tag_391\n        /* \"#utility.yul\":2667:2672   */\n      dup2\n        /* \"#utility.yul\":2652:2673   */\n      tag_392\n      jump\t// in\n    tag_391:\n        /* \"#utility.yul\":2647:2650   */\n      dup3\n        /* \"#utility.yul\":2640:2674   */\n      mstore\n        /* \"#utility.yul\":2571:2680   */\n      pop\n      pop\n      jump\t// out\n        /* \"#utility.yul\":2686:3059   */\n    tag_393:\n        /* \"#utility.yul\":2790:2793   */\n      0x00\n        /* \"#utility.yul\":2818:2856   */\n      tag_395\n        /* \"#utility.yul\":2850:2855   */\n      dup3\n        /* \"#utility.yul\":2818:2856   */\n      tag_396\n      jump\t// in\n    tag_395:\n        /* \"#utility.yul\":2872:2960   */\n      tag_397\n        /* \"#utility.yul\":2953:2959   */\n      dup2\n        /* \"#utility.yul\":2948:2951   */\n      dup6\n        /* \"#utility.yul\":2872:2960   */\n      tag_398\n      jump\t// in\n    tag_397:\n        /* \"#utility.yul\":2865:2960   */\n      swap4\n      pop\n        /* \"#utility.yul\":2969:3021   */\n      tag_399\n        /* \"#utility.yul\":3014:3020   */\n      dup2\n        /* \"#utility.yul\":3009:3012   */\n      dup6\n        /* \"#utility.yul\":3002:3006   */\n      0x20\n        /* \"#utility.yul\":2995:3000   */\n      dup7\n        /* \"#utility.yul\":2991:3007   */\n      add\n        /* \"#utility.yul\":2969:3021   */\n      tag_400\n      jump\t// in\n    tag_399:\n        /* \"#utility.yul\":3046:3052   */\n      dup1\n        /* \"#utility.yul\":3041:3044   */\n      dup5\n        /* \"#utility.yul\":3037:3053   */\n      add\n        /* \"#utility.yul\":3030:3053   */\n      swap2\n      pop\n        /* \"#utility.yul\":2794:3059   */\n      pop\n        /* \"#utility.yul\":2686:3059   */\n      swap3\n      swap2\n      pop\n      pop\n      jump\t// out\n        /* \"#utility.yul\":3065:3224   */\n    tag_401:\n        /* \"#utility.yul\":3166:3217   */\n      tag_403\n        /* \"#utility.yul\":3211:3216   */\n      dup2\n        /* \"#utility.yul\":3166:3217   */\n      tag_404\n      jump\t// in\n    tag_403:\n        /* \"#utility.yul\":3161:3164   */\n      dup3\n        /* \"#utility.yul\":3154:3218   */\n      mstore\n        /* \"#utility.yul\":3065:3224   */\n      pop\n      pop\n      jump\t// out\n        /* \"#utility.yul\":3230:3594   */\n    tag_405:\n        /* \"#utility.yul\":3318:3321   */\n      0x00\n        /* \"#utility.yul\":3346:3385   */\n      tag_407\n        /* \"#utility.yul\":3379:3384   */\n      dup3\n        /* \"#utility.yul\":3346:3385   */\n      tag_408\n      jump\t// in\n    tag_407:\n        /* \"#utility.yul\":3401:3472   */\n      tag_409\n        /* \"#utility.yul\":3465:3471   */\n      dup2\n        /* \"#utility.yul\":3460:3463   */\n      dup6\n        /* \"#utility.yul\":3401:3472   */\n      tag_410\n      jump\t// in\n    tag_409:\n        /* \"#utility.yul\":3394:3472   */\n      swap4\n      pop\n        /* \"#utility.yul\":3481:3533   */\n      tag_411\n        /* \"#utility.yul\":3526:3532   */\n      dup2\n        /* \"#utility.yul\":3521:3524   */\n      dup6\n        /* \"#utility.yul\":3514:3518   */\n      0x20\n        /* \"#utility.yul\":3507:3512   */\n      dup7\n        /* \"#utility.yul\":3503:3519   */\n      add\n        /* \"#utility.yul\":3481:3533   */\n      tag_400\n      jump\t// in\n    tag_411:\n        /* \"#utility.yul\":3558:3587   */\n      tag_412\n        /* \"#utility.yul\":3580:3586   */\n      dup2\n        /* \"#utility.yul\":3558:3587   */\n      tag_413\n      jump\t// in\n    tag_412:\n        /* \"#utility.yul\":3553:3556   */\n      dup5\n        /* \"#utility.yul\":3549:3588   */\n      add\n        /* \"#utility.yul\":3542:3588   */\n      swap2\n      pop\n        /* \"#utility.yul\":3322:3594   */\n      pop\n        /* \"#utility.yul\":3230:3594   */\n      swap3\n      swap2\n      pop\n      pop\n      jump\t// out\n        /* \"#utility.yul\":3600:3966   */\n    tag_414:\n        /* \"#utility.yul\":3742:3745   */\n      0x00\n        /* \"#utility.yul\":3763:3830   */\n      tag_416\n        /* \"#utility.yul\":3827:3829   */\n      0x10\n        /* \"#utility.yul\":3822:3825   */\n      dup4\n        /* \"#utility.yul\":3763:3830   */\n      tag_410\n      jump\t// in\n    tag_416:\n        /* \"#utility.yul\":3756:3830   */\n      swap2\n      pop\n        /* \"#utility.yul\":3839:3932   */\n      tag_417\n        /* \"#utility.yul\":3928:3931   */\n      dup3\n        /* \"#utility.yul\":3839:3932   */\n      tag_418\n      jump\t// in\n    tag_417:\n        /* \"#utility.yul\":3957:3959   */\n      0x20\n        /* \"#utility.yul\":3952:3955   */\n      dup3\n        /* \"#utility.yul\":3948:3960   */\n      add\n        /* \"#utility.yul\":3941:3960   */\n      swap1\n      pop\n        /* \"#utility.yul\":3600:3966   */\n      swap2\n      swap1\n      pop\n      jump\t// out\n        /* \"#utility.yul\":3972:4338   */\n    tag_419:\n        /* \"#utility.yul\":4114:4117   */\n      0x00\n        /* \"#utility.yul\":4135:4202   */\n      tag_421\n        /* \"#utility.yul\":4199:4201   */\n      0x15\n        /* \"#utility.yul\":4194:4197   */\n      dup4\n        /* \"#utility.yul\":4135:4202   */\n      tag_410\n      jump\t// in\n    tag_421:\n        /* \"#utility.yul\":4128:4202   */\n      swap2\n      pop\n        /* \"#utility.yul\":4211:4304   */\n      tag_422\n        /* \"#utility.yul\":4300:4303   */\n      dup3\n        /* \"#utility.yul\":4211:4304   */\n      tag_423\n      jump\t// in\n    tag_422:\n        /* \"#utility.yul\":4329:4331   */\n      0x20\n        /* \"#utility.yul\":4324:4327   */\n      dup3\n        /* \"#utility.yul\":4320:4332   */\n      add\n        /* \"#utility.yul\":4313:4332   */\n      swap1\n      pop\n        /* \"#utility.yul\":3972:4338   */\n      swap2\n      swap1\n      pop\n      jump\t// out\n        /* \"#utility.yul\":4344:4710   */\n    tag_424:\n        /* \"#utility.yul\":4486:4489   */\n      0x00\n        /* \"#utility.yul\":4507:4574   */\n      tag_426\n        /* \"#utility.yul\":4571:4573   */\n      0x2a\n        /* \"#utility.yul\":4566:4569   */\n      dup4\n        /* \"#utility.yul\":4507:4574   */\n      tag_410\n      jump\t// in\n    tag_426:\n        /* \"#utility.yul\":4500:4574   */\n      swap2\n      pop\n        /* \"#utility.yul\":4583:4676   */\n      tag_427\n        /* \"#utility.yul\":4672:4675   */\n      dup3\n        /* \"#utility.yul\":4583:4676   */\n      tag_428\n      jump\t// in\n    tag_427:\n        /* \"#utility.yul\":4701:4703   */\n      0x40\n        /* \"#utility.yul\":4696:4699   */\n      dup3\n        /* \"#utility.yul\":4692:4704   */\n      add\n        /* \"#utility.yul\":4685:4704   */\n      swap1\n      pop\n        /* \"#utility.yul\":4344:4710   */\n      swap2\n      swap1\n      pop\n      jump\t// out\n        /* \"#utility.yul\":4716:5082   */\n    tag_429:\n        /* \"#utility.yul\":4858:4861   */\n      0x00\n        /* \"#utility.yul\":4879:4946   */\n      tag_431\n        /* \"#utility.yul\":4943:4945   */\n      0x26\n        /* \"#utility.yul\":4938:4941   */\n      dup4\n        /* \"#utility.yul\":4879:4946   */\n      tag_410\n      jump\t// in\n    tag_431:\n        /* \"#utility.yul\":4872:4946   */\n      swap2\n      pop\n        /* \"#utility.yul\":4955:5048   */\n      tag_432\n        /* \"#utility.yul\":5044:5047   */\n      dup3\n        /* \"#utility.yul\":4955:5048   */\n      tag_433\n      jump\t// in\n    tag_432:\n        /* \"#utility.yul\":5073:5075   */\n      0x40\n        /* \"#utility.yul\":5068:5071   */\n      dup3\n        /* \"#utility.yul\":5064:5076   */\n      add\n        /* \"#utility.yul\":5057:5076   */\n      swap1\n      pop\n        /* \"#utility.yul\":4716:5082   */\n      swap2\n      swap1\n      pop\n      jump\t// out\n        /* \"#utility.yul\":5088:5454   */\n    tag_434:\n        /* \"#utility.yul\":5230:5233   */\n      0x00\n        /* \"#utility.yul\":5251:5318   */\n      tag_436\n        /* \"#utility.yul\":5315:5317   */\n      0x0e\n        /* \"#utility.yul\":5310:5313   */\n      dup4\n        /* \"#utility.yul\":5251:5318   */\n      tag_410\n      jump\t// in\n    tag_436:\n        /* \"#utility.yul\":5244:5318   */\n      swap2\n      pop\n        /* \"#utility.yul\":5327:5420   */\n      tag_437\n        /* \"#utility.yul\":5416:5419   */\n      dup3\n        /* \"#utility.yul\":5327:5420   */\n      tag_438\n      jump\t// in\n    tag_437:\n        /* \"#utility.yul\":5445:5447   */\n      0x20\n        /* \"#utility.yul\":5440:5443   */\n      dup3\n        /* \"#utility.yul\":5436:5448   */\n      add\n        /* \"#utility.yul\":5429:5448   */\n      swap1\n      pop\n        /* \"#utility.yul\":5088:5454   */\n      swap2\n      swap1\n      pop\n      jump\t// out\n        /* \"#utility.yul\":5460:5826   */\n    tag_439:\n        /* \"#utility.yul\":5602:5605   */\n      0x00\n        /* \"#utility.yul\":5623:5690   */\n      tag_441\n        /* \"#utility.yul\":5687:5689   */\n      0x0f\n        /* \"#utility.yul\":5682:5685   */\n      dup4\n        /* \"#utility.yul\":5623:5690   */\n      tag_410\n      jump\t// in\n    tag_441:\n        /* \"#utility.yul\":5616:5690   */\n      swap2\n      pop\n        /* \"#utility.yul\":5699:5792   */\n      tag_442\n        /* \"#utility.yul\":5788:5791   */\n      dup3\n        /* \"#utility.yul\":5699:5792   */\n      tag_443\n      jump\t// in\n    tag_442:\n        /* \"#utility.yul\":5817:5819   */\n      0x20\n        /* \"#utility.yul\":5812:5815   */\n      dup3\n        /* \"#utility.yul\":5808:5820   */\n      add\n        /* \"#utility.yul\":5801:5820   */\n      swap1\n      pop\n        /* \"#utility.yul\":5460:5826   */\n      swap2\n      swap1\n      pop\n      jump\t// out\n        /* \"#utility.yul\":5832:6198   */\n    tag_444:\n        /* \"#utility.yul\":5974:5977   */\n      0x00\n        /* \"#utility.yul\":5995:6062   */\n      tag_446\n        /* \"#utility.yul\":6059:6061   */\n      0x26\n        /* \"#utility.yul\":6054:6057   */\n      dup4\n        /* \"#utility.yul\":5995:6062   */\n      tag_410\n      jump\t// in\n    tag_446:\n        /* \"#utility.yul\":5988:6062   */\n      swap2\n      pop\n        /* \"#utility.yul\":6071:6164   */\n      tag_447\n        /* \"#utility.yul\":6160:6163   */\n      dup3\n        /* \"#utility.yul\":6071:6164   */\n      tag_448\n      jump\t// in\n    tag_447:\n        /* \"#utility.yul\":6189:6191   */\n      0x40\n        /* \"#utility.yul\":6184:6187   */\n      dup3\n        /* \"#utility.yul\":6180:6192   */\n      add\n        /* \"#utility.yul\":6173:6192   */\n      swap1\n      pop\n        /* \"#utility.yul\":5832:6198   */\n      swap2\n      swap1\n      pop\n      jump\t// out\n        /* \"#utility.yul\":6204:6570   */\n    tag_449:\n        /* \"#utility.yul\":6346:6349   */\n      0x00\n        /* \"#utility.yul\":6367:6434   */\n      tag_451\n        /* \"#utility.yul\":6431:6433   */\n      0x1f\n        /* \"#utility.yul\":6426:6429   */\n      dup4\n        /* \"#utility.yul\":6367:6434   */\n      tag_410\n      jump\t// in\n    tag_451:\n        /* \"#utility.yul\":6360:6434   */\n      swap2\n      pop\n        /* \"#utility.yul\":6443:6536   */\n      tag_452\n        /* \"#utility.yul\":6532:6535   */\n      dup3\n        /* \"#utility.yul\":6443:6536   */\n      tag_453\n      jump\t// in\n    tag_452:\n        /* \"#utility.yul\":6561:6563   */\n      0x20\n        /* \"#utility.yul\":6556:6559   */\n      dup3\n        /* \"#utility.yul\":6552:6564   */\n      add\n        /* \"#utility.yul\":6545:6564   */\n      swap1\n      pop\n        /* \"#utility.yul\":6204:6570   */\n      swap2\n      swap1\n      pop\n      jump\t// out\n        /* \"#utility.yul\":6576:6942   */\n    tag_454:\n        /* \"#utility.yul\":6718:6721   */\n      0x00\n        /* \"#utility.yul\":6739:6806   */\n      tag_456\n        /* \"#utility.yul\":6803:6805   */\n      0x20\n        /* \"#utility.yul\":6798:6801   */\n      dup4\n        /* \"#utility.yul\":6739:6806   */\n      tag_410\n      jump\t// in\n    tag_456:\n        /* \"#utility.yul\":6732:6806   */\n      swap2\n      pop\n        /* \"#utility.yul\":6815:6908   */\n      tag_457\n        /* \"#utility.yul\":6904:6907   */\n      dup3\n        /* \"#utility.yul\":6815:6908   */\n      tag_458\n      jump\t// in\n    tag_457:\n        /* \"#utility.yul\":6933:6935   */\n      0x20\n        /* \"#utility.yul\":6928:6931   */\n      dup3\n        /* \"#utility.yul\":6924:6936   */\n      add\n        /* \"#utility.yul\":6917:6936   */\n      swap1\n      pop\n        /* \"#utility.yul\":6576:6942   */\n      swap2\n      swap1\n      pop\n      jump\t// out\n        /* \"#utility.yul\":6948:7314   */\n    tag_459:\n        /* \"#utility.yul\":7090:7093   */\n      0x00\n        /* \"#utility.yul\":7111:7178   */\n      tag_461\n        /* \"#utility.yul\":7175:7177   */\n      0x0d\n        /* \"#utility.yul\":7170:7173   */\n      dup4\n        /* \"#utility.yul\":7111:7178   */\n      tag_410\n      jump\t// in\n    tag_461:\n        /* \"#utility.yul\":7104:7178   */\n      swap2\n      pop\n        /* \"#utility.yul\":7187:7280   */\n      tag_462\n        /* \"#utility.yul\":7276:7279   */\n      dup3\n        /* \"#utility.yul\":7187:7280   */\n      tag_463\n      jump\t// in\n    tag_462:\n        /* \"#utility.yul\":7305:7307   */\n      0x20\n        /* \"#utility.yul\":7300:7303   */\n      dup3\n        /* \"#utility.yul\":7296:7308   */\n      add\n        /* \"#utility.yul\":7289:7308   */\n      swap1\n      pop\n        /* \"#utility.yul\":6948:7314   */\n      swap2\n      swap1\n      pop\n      jump\t// out\n        /* \"#utility.yul\":7320:7686   */\n    tag_464:\n        /* \"#utility.yul\":7462:7465   */\n      0x00\n        /* \"#utility.yul\":7483:7550   */\n      tag_466\n        /* \"#utility.yul\":7547:7549   */\n      0x1d\n        /* \"#utility.yul\":7542:7545   */\n      dup4\n        /* \"#utility.yul\":7483:7550   */\n      tag_410\n      jump\t// in\n    tag_466:\n        /* \"#utility.yul\":7476:7550   */\n      swap2\n      pop\n        /* \"#utility.yul\":7559:7652   */\n      tag_467\n        /* \"#utility.yul\":7648:7651   */\n      dup3\n        /* \"#utility.yul\":7559:7652   */\n      tag_468\n      jump\t// in\n    tag_467:\n        /* \"#utility.yul\":7677:7679   */\n      0x20\n        /* \"#utility.yul\":7672:7675   */\n      dup3\n        /* \"#utility.yul\":7668:7680   */\n      add\n        /* \"#utility.yul\":7661:7680   */\n      swap1\n      pop\n        /* \"#utility.yul\":7320:7686   */\n      swap2\n      swap1\n      pop\n      jump\t// out\n        /* \"#utility.yul\":7692:8058   */\n    tag_469:\n        /* \"#utility.yul\":7834:7837   */\n      0x00\n        /* \"#utility.yul\":7855:7922   */\n      tag_471\n        /* \"#utility.yul\":7919:7921   */\n      0x1a\n        /* \"#utility.yul\":7914:7917   */\n      dup4\n        /* \"#utility.yul\":7855:7922   */\n      tag_410\n      jump\t// in\n    tag_471:\n        /* \"#utility.yul\":7848:7922   */\n      swap2\n      pop\n        /* \"#utility.yul\":7931:8024   */\n      tag_472\n        /* \"#utility.yul\":8020:8023   */\n      dup3\n        /* \"#utility.yul\":7931:8024   */\n      tag_473\n      jump\t// in\n    tag_472:\n        /* \"#utility.yul\":8049:8051   */\n      0x20\n        /* \"#utility.yul\":8044:8047   */\n      dup3\n        /* \"#utility.yul\":8040:8052   */\n      add\n        /* \"#utility.yul\":8033:8052   */\n      swap1\n      pop\n        /* \"#utility.yul\":7692:8058   */\n      swap2\n      swap1\n      pop\n      jump\t// out\n        /* \"#utility.yul\":8064:8430   */\n    tag_474:\n        /* \"#utility.yul\":8206:8209   */\n      0x00\n        /* \"#utility.yul\":8227:8294   */\n      tag_476\n        /* \"#utility.yul\":8291:8293   */\n      0x17\n        /* \"#utility.yul\":8286:8289   */\n      dup4\n        /* \"#utility.yul\":8227:8294   */\n      tag_410\n      jump\t// in\n    tag_476:\n        /* \"#utility.yul\":8220:8294   */\n      swap2\n      pop\n        /* \"#utility.yul\":8303:8396   */\n      tag_477\n        /* \"#utility.yul\":8392:8395   */\n      dup3\n        /* \"#utility.yul\":8303:8396   */\n      tag_478\n      jump\t// in\n    tag_477:\n        /* \"#utility.yul\":8421:8423   */\n      0x20\n        /* \"#utility.yul\":8416:8419   */\n      dup3\n        /* \"#utility.yul\":8412:8424   */\n      add\n        /* \"#utility.yul\":8405:8424   */\n      swap1\n      pop\n        /* \"#utility.yul\":8064:8430   */\n      swap2\n      swap1\n      pop\n      jump\t// out\n        /* \"#utility.yul\":8436:8802   */\n    tag_479:\n        /* \"#utility.yul\":8578:8581   */\n      0x00\n        /* \"#utility.yul\":8599:8666   */\n      tag_481\n        /* \"#utility.yul\":8663:8665   */\n      0x0d\n        /* \"#utility.yul\":8658:8661   */\n      dup4\n        /* \"#utility.yul\":8599:8666   */\n      tag_410\n      jump\t// in\n    tag_481:\n        /* \"#utility.yul\":8592:8666   */\n      swap2\n      pop\n        /* \"#utility.yul\":8675:8768   */\n      tag_482\n        /* \"#utility.yul\":8764:8767   */\n      dup3\n        /* \"#utility.yul\":8675:8768   */\n      tag_483\n      jump\t// in\n    tag_482:\n        /* \"#utility.yul\":8793:8795   */\n      0x20\n        /* \"#utility.yul\":8788:8791   */\n      dup3\n        /* \"#utility.yul\":8784:8796   */\n      add\n        /* \"#utility.yul\":8777:8796   */\n      swap1\n      pop\n        /* \"#utility.yul\":8436:8802   */\n      swap2\n      swap1\n      pop\n      jump\t// out\n        /* \"#utility.yul\":8808:9174   */\n    tag_484:\n        /* \"#utility.yul\":8950:8953   */\n      0x00\n        /* \"#utility.yul\":8971:9038   */\n      tag_486\n        /* \"#utility.yul\":9035:9037   */\n      0x0d\n        /* \"#utility.yul\":9030:9033   */\n      dup4\n        /* \"#utility.yul\":8971:9038   */\n      tag_410\n      jump\t// in\n    tag_486:\n        /* \"#utility.yul\":8964:9038   */\n      swap2\n      pop\n        /* \"#utility.yul\":9047:9140   */\n      tag_487\n        /* \"#utility.yul\":9136:9139   */\n      dup3\n        /* \"#utility.yul\":9047:9140   */\n      tag_488\n      jump\t// in\n    tag_487:\n        /* \"#utility.yul\":9165:9167   */\n      0x20\n        /* \"#utility.yul\":9160:9163   */\n      dup3\n        /* \"#utility.yul\":9156:9168   */\n      add\n        /* \"#utility.yul\":9149:9168   */\n      swap1\n      pop\n        /* \"#utility.yul\":8808:9174   */\n      swap2\n      swap1\n      pop\n      jump\t// out\n        /* \"#utility.yul\":9180:9298   */\n    tag_489:\n        /* \"#utility.yul\":9267:9291   */\n      tag_491\n        /* \"#utility.yul\":9285:9290   */\n      dup2\n        /* \"#utility.yul\":9267:9291   */\n      tag_492\n      jump\t// in\n    tag_491:\n        /* \"#utility.yul\":9262:9265   */\n      dup3\n        /* \"#utility.yul\":9255:9292   */\n      mstore\n        /* \"#utility.yul\":9180:9298   */\n      pop\n      pop\n      jump\t// out\n        /* \"#utility.yul\":9304:9575   */\n    tag_333:\n        /* \"#utility.yul\":9434:9437   */\n      0x00\n        /* \"#utility.yul\":9456:9549   */\n      tag_494\n        /* \"#utility.yul\":9545:9548   */\n      dup3\n        /* \"#utility.yul\":9536:9542   */\n      dup5\n        /* \"#utility.yul\":9456:9549   */\n      tag_393\n      jump\t// in\n    tag_494:\n        /* \"#utility.yul\":9449:9549   */\n      swap2\n      pop\n        /* \"#utility.yul\":9566:9569   */\n      dup2\n        /* \"#utility.yul\":9559:9569   */\n      swap1\n      pop\n        /* \"#utility.yul\":9304:9575   */\n      swap3\n      swap2\n      pop\n      pop\n      jump\t// out\n        /* \"#utility.yul\":9581:9803   */\n    tag_75:\n        /* \"#utility.yul\":9674:9678   */\n      0x00\n        /* \"#utility.yul\":9712:9714   */\n      0x20\n        /* \"#utility.yul\":9701:9710   */\n      dup3\n        /* \"#utility.yul\":9697:9715   */\n      add\n        /* \"#utility.yul\":9689:9715   */\n      swap1\n      pop\n        /* \"#utility.yul\":9725:9796   */\n      tag_496\n        /* \"#utility.yul\":9793:9794   */\n      0x00\n        /* \"#utility.yul\":9782:9791   */\n      dup4\n        /* \"#utility.yul\":9778:9795   */\n      add\n        /* \"#utility.yul\":9769:9775   */\n      dup5\n        /* \"#utility.yul\":9725:9796   */\n      tag_385\n      jump\t// in\n    tag_496:\n        /* \"#utility.yul\":9581:9803   */\n      swap3\n      swap2\n      pop\n      pop\n      jump\t// out\n        /* \"#utility.yul\":9809:10251   */\n    tag_310:\n        /* \"#utility.yul\":9958:9962   */\n      0x00\n        /* \"#utility.yul\":9996:9998   */\n      0x60\n        /* \"#utility.yul\":9985:9994   */\n      dup3\n        /* \"#utility.yul\":9981:9999   */\n      add\n        /* \"#utility.yul\":9973:9999   */\n      swap1\n      pop\n        /* \"#utility.yul\":10009:10080   */\n      tag_498\n        /* \"#utility.yul\":10077:10078   */\n      0x00\n        /* \"#utility.yul\":10066:10075   */\n      dup4\n        /* \"#utility.yul\":10062:10079   */\n      add\n        /* \"#utility.yul\":10053:10059   */\n      dup7\n        /* \"#utility.yul\":10009:10080   */\n      tag_385\n      jump\t// in\n    tag_498:\n        /* \"#utility.yul\":10090:10162   */\n      tag_499\n        /* \"#utility.yul\":10158:10160   */\n      0x20\n        /* \"#utility.yul\":10147:10156   */\n      dup4\n        /* \"#utility.yul\":10143:10161   */\n      add\n        /* \"#utility.yul\":10134:10140   */\n      dup6\n        /* \"#utility.yul\":10090:10162   */\n      tag_385\n      jump\t// in\n    tag_499:\n        /* \"#utility.yul\":10172:10244   */\n      tag_500\n        /* \"#utility.yul\":10240:10242   */\n      0x40\n        /* \"#utility.yul\":10229:10238   */\n      dup4\n        /* \"#utility.yul\":10225:10243   */\n      add\n        /* \"#utility.yul\":10216:10222   */\n      dup5\n        /* \"#utility.yul\":10172:10244   */\n      tag_489\n      jump\t// in\n    tag_500:\n        /* \"#utility.yul\":9809:10251   */\n      swap5\n      swap4\n      pop\n      pop\n      pop\n      pop\n      jump\t// out\n        /* \"#utility.yul\":10257:10589   */\n    tag_148:\n        /* \"#utility.yul\":10378:10382   */\n      0x00\n        /* \"#utility.yul\":10416:10418   */\n      0x40\n        /* \"#utility.yul\":10405:10414   */\n      dup3\n        /* \"#utility.yul\":10401:10419   */\n      add\n        /* \"#utility.yul\":10393:10419   */\n      swap1\n      pop\n        /* \"#utility.yul\":10429:10500   */\n      tag_502\n        /* \"#utility.yul\":10497:10498   */\n      0x00\n        /* \"#utility.yul\":10486:10495   */\n      dup4\n        /* \"#utility.yul\":10482:10499   */\n      add\n        /* \"#utility.yul\":10473:10479   */\n      dup6\n        /* \"#utility.yul\":10429:10500   */\n      tag_385\n      jump\t// in\n    tag_502:\n        /* \"#utility.yul\":10510:10582   */\n      tag_503\n        /* \"#utility.yul\":10578:10580   */\n      0x20\n        /* \"#utility.yul\":10567:10576   */\n      dup4\n        /* \"#utility.yul\":10563:10581   */\n      add\n        /* \"#utility.yul\":10554:10560   */\n      dup5\n        /* \"#utility.yul\":10510:10582   */\n      tag_489\n      jump\t// in\n    tag_503:\n        /* \"#utility.yul\":10257:10589   */\n      swap4\n      swap3\n      pop\n      pop\n      pop\n      jump\t// out\n        /* \"#utility.yul\":10595:10805   */\n    tag_88:\n        /* \"#utility.yul\":10682:10686   */\n      0x00\n        /* \"#utility.yul\":10720:10722   */\n      0x20\n        /* \"#utility.yul\":10709:10718   */\n      dup3\n        /* \"#utility.yul\":10705:10723   */\n      add\n        /* \"#utility.yul\":10697:10723   */\n      swap1\n      pop\n        /* \"#utility.yul\":10733:10798   */\n      tag_505\n        /* \"#utility.yul\":10795:10796   */\n      0x00\n        /* \"#utility.yul\":10784:10793   */\n      dup4\n        /* \"#utility.yul\":10780:10797   */\n      add\n        /* \"#utility.yul\":10771:10777   */\n      dup5\n        /* \"#utility.yul\":10733:10798   */\n      tag_389\n      jump\t// in\n    tag_505:\n        /* \"#utility.yul\":10595:10805   */\n      swap3\n      swap2\n      pop\n      pop\n      jump\t// out\n        /* \"#utility.yul\":10811:11061   */\n    tag_102:\n        /* \"#utility.yul\":10918:10922   */\n      0x00\n        /* \"#utility.yul\":10956:10958   */\n      0x20\n        /* \"#utility.yul\":10945:10954   */\n      dup3\n        /* \"#utility.yul\":10941:10959   */\n      add\n        /* \"#utility.yul\":10933:10959   */\n      swap1\n      pop\n        /* \"#utility.yul\":10969:11054   */\n      tag_507\n        /* \"#utility.yul\":11051:11052   */\n      0x00\n        /* \"#utility.yul\":11040:11049   */\n      dup4\n        /* \"#utility.yul\":11036:11053   */\n      add\n        /* \"#utility.yul\":11027:11033   */\n      dup5\n        /* \"#utility.yul\":10969:11054   */\n      tag_401\n      jump\t// in\n    tag_507:\n        /* \"#utility.yul\":10811:11061   */\n      swap3\n      swap2\n      pop\n      pop\n      jump\t// out\n        /* \"#utility.yul\":11067:11380   */\n    tag_346:\n        /* \"#utility.yul\":11180:11184   */\n      0x00\n        /* \"#utility.yul\":11218:11220   */\n      0x20\n        /* \"#utility.yul\":11207:11216   */\n      dup3\n        /* \"#utility.yul\":11203:11221   */\n      add\n        /* \"#utility.yul\":11195:11221   */\n      swap1\n      pop\n        /* \"#utility.yul\":11267:11276   */\n      dup2\n        /* \"#utility.yul\":11261:11265   */\n      dup2\n        /* \"#utility.yul\":11257:11277   */\n      sub\n        /* \"#utility.yul\":11253:11254   */\n      0x00\n        /* \"#utility.yul\":11242:11251   */\n      dup4\n        /* \"#utility.yul\":11238:11255   */\n      add\n        /* \"#utility.yul\":11231:11278   */\n      mstore\n        /* \"#utility.yul\":11295:11373   */\n      tag_509\n        /* \"#utility.yul\":11368:11372   */\n      dup2\n        /* \"#utility.yul\":11359:11365   */\n      dup5\n        /* \"#utility.yul\":11295:11373   */\n      tag_405\n      jump\t// in\n    tag_509:\n        /* \"#utility.yul\":11287:11373   */\n      swap1\n      pop\n        /* \"#utility.yul\":11067:11380   */\n      swap3\n      swap2\n      pop\n      pop\n      jump\t// out\n        /* \"#utility.yul\":11386:11805   */\n    tag_157:\n        /* \"#utility.yul\":11552:11556   */\n      0x00\n        /* \"#utility.yul\":11590:11592   */\n      0x20\n        /* \"#utility.yul\":11579:11588   */\n      dup3\n        /* \"#utility.yul\":11575:11593   */\n      add\n        /* \"#utility.yul\":11567:11593   */\n      swap1\n      pop\n        /* \"#utility.yul\":11639:11648   */\n      dup2\n        /* \"#utility.yul\":11633:11637   */\n      dup2\n        /* \"#utility.yul\":11629:11649   */\n      sub\n        /* \"#utility.yul\":11625:11626   */\n      0x00\n        /* \"#utility.yul\":11614:11623   */\n      dup4\n        /* \"#utility.yul\":11610:11627   */\n      add\n        /* \"#utility.yul\":11603:11650   */\n      mstore\n        /* \"#utility.yul\":11667:11798   */\n      tag_511\n        /* \"#utility.yul\":11793:11797   */\n      dup2\n        /* \"#utility.yul\":11667:11798   */\n      tag_414\n      jump\t// in\n    tag_511:\n        /* \"#utility.yul\":11659:11798   */\n      swap1\n      pop\n        /* \"#utility.yul\":11386:11805   */\n      swap2\n      swap1\n      pop\n      jump\t// out\n        /* \"#utility.yul\":11811:12230   */\n    tag_264:\n        /* \"#utility.yul\":11977:11981   */\n      0x00\n        /* \"#utility.yul\":12015:12017   */\n      0x20\n        /* \"#utility.yul\":12004:12013   */\n      dup3\n        /* \"#utility.yul\":12000:12018   */\n      add\n        /* \"#utility.yul\":11992:12018   */\n      swap1\n      pop\n        /* \"#utility.yul\":12064:12073   */\n      dup2\n        /* \"#utility.yul\":12058:12062   */\n      dup2\n        /* \"#utility.yul\":12054:12074   */\n      sub\n        /* \"#utility.yul\":12050:12051   */\n      0x00\n        /* \"#utility.yul\":12039:12048   */\n      dup4\n        /* \"#utility.yul\":12035:12052   */\n      add\n        /* \"#utility.yul\":12028:12075   */\n      mstore\n        /* \"#utility.yul\":12092:12223   */\n      tag_513\n        /* \"#utility.yul\":12218:12222   */\n      dup2\n        /* \"#utility.yul\":12092:12223   */\n      tag_419\n      jump\t// in\n    tag_513:\n        /* \"#utility.yul\":12084:12223   */\n      swap1\n      pop\n        /* \"#utility.yul\":11811:12230   */\n      swap2\n      swap1\n      pop\n      jump\t// out\n        /* \"#utility.yul\":12236:12655   */\n    tag_319:\n        /* \"#utility.yul\":12402:12406   */\n      0x00\n        /* \"#utility.yul\":12440:12442   */\n      0x20\n        /* \"#utility.yul\":12429:12438   */\n      dup3\n        /* \"#utility.yul\":12425:12443   */\n      add\n        /* \"#utility.yul\":12417:12443   */\n      swap1\n      pop\n        /* \"#utility.yul\":12489:12498   */\n      dup2\n        /* \"#utility.yul\":12483:12487   */\n      dup2\n        /* \"#utility.yul\":12479:12499   */\n      sub\n        /* \"#utility.yul\":12475:12476   */\n      0x00\n        /* \"#utility.yul\":12464:12473   */\n      dup4\n        /* \"#utility.yul\":12460:12477   */\n      add\n        /* \"#utility.yul\":12453:12500   */\n      mstore\n        /* \"#utility.yul\":12517:12648   */\n      tag_515\n        /* \"#utility.yul\":12643:12647   */\n      dup2\n        /* \"#utility.yul\":12517:12648   */\n      tag_424\n      jump\t// in\n    tag_515:\n        /* \"#utility.yul\":12509:12648   */\n      swap1\n      pop\n        /* \"#utility.yul\":12236:12655   */\n      swap2\n      swap1\n      pop\n      jump\t// out\n        /* \"#utility.yul\":12661:13080   */\n    tag_279:\n        /* \"#utility.yul\":12827:12831   */\n      0x00\n        /* \"#utility.yul\":12865:12867   */\n      0x20\n        /* \"#utility.yul\":12854:12863   */\n      dup3\n        /* \"#utility.yul\":12850:12868   */\n      add\n        /* \"#utility.yul\":12842:12868   */\n      swap1\n      pop\n        /* \"#utility.yul\":12914:12923   */\n      dup2\n        /* \"#utility.yul\":12908:12912   */\n      dup2\n        /* \"#utility.yul\":12904:12924   */\n      sub\n        /* \"#utility.yul\":12900:12901   */\n      0x00\n        /* \"#utility.yul\":12889:12898   */\n      dup4\n        /* \"#utility.yul\":12885:12902   */\n      add\n        /* \"#utility.yul\":12878:12925   */\n      mstore\n        /* \"#utility.yul\":12942:13073   */\n      tag_517\n        /* \"#utility.yul\":13068:13072   */\n      dup2\n        /* \"#utility.yul\":12942:13073   */\n      tag_429\n      jump\t// in\n    tag_517:\n        /* \"#utility.yul\":12934:13073   */\n      swap1\n      pop\n        /* \"#utility.yul\":12661:13080   */\n      swap2\n      swap1\n      pop\n      jump\t// out\n        /* \"#utility.yul\":13086:13505   */\n    tag_111:\n        /* \"#utility.yul\":13252:13256   */\n      0x00\n        /* \"#utility.yul\":13290:13292   */\n      0x20\n        /* \"#utility.yul\":13279:13288   */\n      dup3\n        /* \"#utility.yul\":13275:13293   */\n      add\n        /* \"#utility.yul\":13267:13293   */\n      swap1\n      pop\n        /* \"#utility.yul\":13339:13348   */\n      dup2\n        /* \"#utility.yul\":13333:13337   */\n      dup2\n        /* \"#utility.yul\":13329:13349   */\n      sub\n        /* \"#utility.yul\":13325:13326   */\n      0x00\n        /* \"#utility.yul\":13314:13323   */\n      dup4\n        /* \"#utility.yul\":13310:13327   */\n      add\n        /* \"#utility.yul\":13303:13350   */\n      mstore\n        /* \"#utility.yul\":13367:13498   */\n      tag_519\n        /* \"#utility.yul\":13493:13497   */\n      dup2\n        /* \"#utility.yul\":13367:13498   */\n      tag_434\n      jump\t// in\n    tag_519:\n        /* \"#utility.yul\":13359:13498   */\n      swap1\n      pop\n        /* \"#utility.yul\":13086:13505   */\n      swap2\n      swap1\n      pop\n      jump\t// out\n        /* \"#utility.yul\":13511:13930   */\n    tag_195:\n        /* \"#utility.yul\":13677:13681   */\n      0x00\n        /* \"#utility.yul\":13715:13717   */\n      0x20\n        /* \"#utility.yul\":13704:13713   */\n      dup3\n        /* \"#utility.yul\":13700:13718   */\n      add\n        /* \"#utility.yul\":13692:13718   */\n      swap1\n      pop\n        /* \"#utility.yul\":13764:13773   */\n      dup2\n        /* \"#utility.yul\":13758:13762   */\n      dup2\n        /* \"#utility.yul\":13754:13774   */\n      sub\n        /* \"#utility.yul\":13750:13751   */\n      0x00\n        /* \"#utility.yul\":13739:13748   */\n      dup4\n        /* \"#utility.yul\":13735:13752   */\n      add\n        /* \"#utility.yul\":13728:13775   */\n      mstore\n        /* \"#utility.yul\":13792:13923   */\n      tag_521\n        /* \"#utility.yul\":13918:13922   */\n      dup2\n        /* \"#utility.yul\":13792:13923   */\n      tag_439\n      jump\t// in\n    tag_521:\n        /* \"#utility.yul\":13784:13923   */\n      swap1\n      pop\n        /* \"#utility.yul\":13511:13930   */\n      swap2\n      swap1\n      pop\n      jump\t// out\n        /* \"#utility.yul\":13936:14355   */\n    tag_326:\n        /* \"#utility.yul\":14102:14106   */\n      0x00\n        /* \"#utility.yul\":14140:14142   */\n      0x20\n        /* \"#utility.yul\":14129:14138   */\n      dup3\n        /* \"#utility.yul\":14125:14143   */\n      add\n        /* \"#utility.yul\":14117:14143   */\n      swap1\n      pop\n        /* \"#utility.yul\":14189:14198   */\n      dup2\n        /* \"#utility.yul\":14183:14187   */\n      dup2\n        /* \"#utility.yul\":14179:14199   */\n      sub\n        /* \"#utility.yul\":14175:14176   */\n      0x00\n        /* \"#utility.yul\":14164:14173   */\n      dup4\n        /* \"#utility.yul\":14160:14177   */\n      add\n        /* \"#utility.yul\":14153:14200   */\n      mstore\n        /* \"#utility.yul\":14217:14348   */\n      tag_523\n        /* \"#utility.yul\":14343:14347   */\n      dup2\n        /* \"#utility.yul\":14217:14348   */\n      tag_444\n      jump\t// in\n    tag_523:\n        /* \"#utility.yul\":14209:14348   */\n      swap1\n      pop\n        /* \"#utility.yul\":13936:14355   */\n      swap2\n      swap1\n      pop\n      jump\t// out\n        /* \"#utility.yul\":14361:14780   */\n    tag_108:\n        /* \"#utility.yul\":14527:14531   */\n      0x00\n        /* \"#utility.yul\":14565:14567   */\n      0x20\n        /* \"#utility.yul\":14554:14563   */\n      dup3\n        /* \"#utility.yul\":14550:14568   */\n      add\n        /* \"#utility.yul\":14542:14568   */\n      swap1\n      pop\n        /* \"#utility.yul\":14614:14623   */\n      dup2\n        /* \"#utility.yul\":14608:14612   */\n      dup2\n        /* \"#utility.yul\":14604:14624   */\n      sub\n        /* \"#utility.yul\":14600:14601   */\n      0x00\n        /* \"#utility.yul\":14589:14598   */\n      dup4\n        /* \"#utility.yul\":14585:14602   */\n      add\n        /* \"#utility.yul\":14578:14625   */\n      mstore\n        /* \"#utility.yul\":14642:14773   */\n      tag_525\n        /* \"#utility.yul\":14768:14772   */\n      dup2\n        /* \"#utility.yul\":14642:14773   */\n      tag_449\n      jump\t// in\n    tag_525:\n        /* \"#utility.yul\":14634:14773   */\n      swap1\n      pop\n        /* \"#utility.yul\":14361:14780   */\n      swap2\n      swap1\n      pop\n      jump\t// out\n        /* \"#utility.yul\":14786:15205   */\n    tag_177:\n        /* \"#utility.yul\":14952:14956   */\n      0x00\n        /* \"#utility.yul\":14990:14992   */\n      0x20\n        /* \"#utility.yul\":14979:14988   */\n      dup3\n        /* \"#utility.yul\":14975:14993   */\n      add\n        /* \"#utility.yul\":14967:14993   */\n      swap1\n      pop\n        /* \"#utility.yul\":15039:15048   */\n      dup2\n        /* \"#utility.yul\":15033:15037   */\n      dup2\n        /* \"#utility.yul\":15029:15049   */\n      sub\n        /* \"#utility.yul\":15025:15026   */\n      0x00\n        /* \"#utility.yul\":15014:15023   */\n      dup4\n        /* \"#utility.yul\":15010:15027   */\n      add\n        /* \"#utility.yul\":15003:15050   */\n      mstore\n        /* \"#utility.yul\":15067:15198   */\n      tag_527\n        /* \"#utility.yul\":15193:15197   */\n      dup2\n        /* \"#utility.yul\":15067:15198   */\n      tag_454\n      jump\t// in\n    tag_527:\n        /* \"#utility.yul\":15059:15198   */\n      swap1\n      pop\n        /* \"#utility.yul\":14786:15205   */\n      swap2\n      swap1\n      pop\n      jump\t// out\n        /* \"#utility.yul\":15211:15630   */\n    tag_240:\n        /* \"#utility.yul\":15377:15381   */\n      0x00\n        /* \"#utility.yul\":15415:15417   */\n      0x20\n        /* \"#utility.yul\":15404:15413   */\n      dup3\n        /* \"#utility.yul\":15400:15418   */\n      add\n        /* \"#utility.yul\":15392:15418   */\n      swap1\n      pop\n        /* \"#utility.yul\":15464:15473   */\n      dup2\n        /* \"#utility.yul\":15458:15462   */\n      dup2\n        /* \"#utility.yul\":15454:15474   */\n      sub\n        /* \"#utility.yul\":15450:15451   */\n      0x00\n        /* \"#utility.yul\":15439:15448   */\n      dup4\n        /* \"#utility.yul\":15435:15452   */\n      add\n        /* \"#utility.yul\":15428:15475   */\n      mstore\n        /* \"#utility.yul\":15492:15623   */\n      tag_529\n        /* \"#utility.yul\":15618:15622   */\n      dup2\n        /* \"#utility.yul\":15492:15623   */\n      tag_459\n      jump\t// in\n    tag_529:\n        /* \"#utility.yul\":15484:15623   */\n      swap1\n      pop\n        /* \"#utility.yul\":15211:15630   */\n      swap2\n      swap1\n      pop\n      jump\t// out\n        /* \"#utility.yul\":15636:16055   */\n    tag_331:\n        /* \"#utility.yul\":15802:15806   */\n      0x00\n        /* \"#utility.yul\":15840:15842   */\n      0x20\n        /* \"#utility.yul\":15829:15838   */\n      dup3\n        /* \"#utility.yul\":15825:15843   */\n      add\n        /* \"#utility.yul\":15817:15843   */\n      swap1\n      pop\n        /* \"#utility.yul\":15889:15898   */\n      dup2\n        /* \"#utility.yul\":15883:15887   */\n      dup2\n        /* \"#utility.yul\":15879:15899   */\n      sub\n        /* \"#utility.yul\":15875:15876   */\n      0x00\n        /* \"#utility.yul\":15864:15873   */\n      dup4\n        /* \"#utility.yul\":15860:15877   */\n      add\n        /* \"#utility.yul\":15853:15900   */\n      mstore\n        /* \"#utility.yul\":15917:16048   */\n      tag_531\n        /* \"#utility.yul\":16043:16047   */\n      dup2\n        /* \"#utility.yul\":15917:16048   */\n      tag_464\n      jump\t// in\n    tag_531:\n        /* \"#utility.yul\":15909:16048   */\n      swap1\n      pop\n        /* \"#utility.yul\":15636:16055   */\n      swap2\n      swap1\n      pop\n      jump\t// out\n        /* \"#utility.yul\":16061:16480   */\n    tag_230:\n        /* \"#utility.yul\":16227:16231   */\n      0x00\n        /* \"#utility.yul\":16265:16267   */\n      0x20\n        /* \"#utility.yul\":16254:16263   */\n      dup3\n        /* \"#utility.yul\":16250:16268   */\n      add\n        /* \"#utility.yul\":16242:16268   */\n      swap1\n      pop\n        /* \"#utility.yul\":16314:16323   */\n      dup2\n        /* \"#utility.yul\":16308:16312   */\n      dup2\n        /* \"#utility.yul\":16304:16324   */\n      sub\n        /* \"#utility.yul\":16300:16301   */\n      0x00\n        /* \"#utility.yul\":16289:16298   */\n      dup4\n        /* \"#utility.yul\":16285:16302   */\n      add\n        /* \"#utility.yul\":16278:16325   */\n      mstore\n        /* \"#utility.yul\":16342:16473   */\n      tag_533\n        /* \"#utility.yul\":16468:16472   */\n      dup2\n        /* \"#utility.yul\":16342:16473   */\n      tag_469\n      jump\t// in\n    tag_533:\n        /* \"#utility.yul\":16334:16473   */\n      swap1\n      pop\n        /* \"#utility.yul\":16061:16480   */\n      swap2\n      swap1\n      pop\n      jump\t// out\n        /* \"#utility.yul\":16486:16905   */\n    tag_208:\n        /* \"#utility.yul\":16652:16656   */\n      0x00\n        /* \"#utility.yul\":16690:16692   */\n      0x20\n        /* \"#utility.yul\":16679:16688   */\n      dup3\n        /* \"#utility.yul\":16675:16693   */\n      add\n        /* \"#utility.yul\":16667:16693   */\n      swap1\n      pop\n        /* \"#utility.yul\":16739:16748   */\n      dup2\n        /* \"#utility.yul\":16733:16737   */\n      dup2\n        /* \"#utility.yul\":16729:16749   */\n      sub\n        /* \"#utility.yul\":16725:16726   */\n      0x00\n        /* \"#utility.yul\":16714:16723   */\n      dup4\n        /* \"#utility.yul\":16710:16727   */\n      add\n        /* \"#utility.yul\":16703:16750   */\n      mstore\n        /* \"#utility.yul\":16767:16898   */\n      tag_535\n        /* \"#utility.yul\":16893:16897   */\n      dup2\n        /* \"#utility.yul\":16767:16898   */\n      tag_474\n      jump\t// in\n    tag_535:\n        /* \"#utility.yul\":16759:16898   */\n      swap1\n      pop\n        /* \"#utility.yul\":16486:16905   */\n      swap2\n      swap1\n      pop\n      jump\t// out\n        /* \"#utility.yul\":16911:17330   */\n    tag_181:\n        /* \"#utility.yul\":17077:17081   */\n      0x00\n        /* \"#utility.yul\":17115:17117   */\n      0x20\n        /* \"#utility.yul\":17104:17113   */\n      dup3\n        /* \"#utility.yul\":17100:17118   */\n      add\n        /* \"#utility.yul\":17092:17118   */\n      swap1\n      pop\n        /* \"#utility.yul\":17164:17173   */\n      dup2\n        /* \"#utility.yul\":17158:17162   */\n      dup2\n        /* \"#utility.yul\":17154:17174   */\n      sub\n        /* \"#utility.yul\":17150:17151   */\n      0x00\n        /* \"#utility.yul\":17139:17148   */\n      dup4\n        /* \"#utility.yul\":17135:17152   */\n      add\n        /* \"#utility.yul\":17128:17175   */\n      mstore\n        /* \"#utility.yul\":17192:17323   */\n      tag_537\n        /* \"#utility.yul\":17318:17322   */\n      dup2\n        /* \"#utility.yul\":17192:17323   */\n      tag_479\n      jump\t// in\n    tag_537:\n        /* \"#utility.yul\":17184:17323   */\n      swap1\n      pop\n        /* \"#utility.yul\":16911:17330   */\n      swap2\n      swap1\n      pop\n      jump\t// out\n        /* \"#utility.yul\":17336:17755   */\n    tag_192:\n        /* \"#utility.yul\":17502:17506   */\n      0x00\n        /* \"#utility.yul\":17540:17542   */\n      0x20\n        /* \"#utility.yul\":17529:17538   */\n      dup3\n        /* \"#utility.yul\":17525:17543   */\n      add\n        /* \"#utility.yul\":17517:17543   */\n      swap1\n      pop\n        /* \"#utility.yul\":17589:17598   */\n      dup2\n        /* \"#utility.yul\":17583:17587   */\n      dup2\n        /* \"#utility.yul\":17579:17599   */\n      sub\n        /* \"#utility.yul\":17575:17576   */\n      0x00\n        /* \"#utility.yul\":17564:17573   */\n      dup4\n        /* \"#utility.yul\":17560:17577   */\n      add\n        /* \"#utility.yul\":17553:17600   */\n      mstore\n        /* \"#utility.yul\":17617:17748   */\n      tag_539\n        /* \"#utility.yul\":17743:17747   */\n      dup2\n        /* \"#utility.yul\":17617:17748   */\n      tag_484\n      jump\t// in\n    tag_539:\n        /* \"#utility.yul\":17609:17748   */\n      swap1\n      pop\n        /* \"#utility.yul\":17336:17755   */\n      swap2\n      swap1\n      pop\n      jump\t// out\n        /* \"#utility.yul\":17761:17983   */\n    tag_32:\n        /* \"#utility.yul\":17854:17858   */\n      0x00\n        /* \"#utility.yul\":17892:17894   */\n      0x20\n        /* \"#utility.yul\":17881:17890   */\n      dup3\n        /* \"#utility.yul\":17877:17895   */\n      add\n        /* \"#utility.yul\":17869:17895   */\n      swap1\n      pop\n        /* \"#utility.yul\":17905:17976   */\n      tag_541\n        /* \"#utility.yul\":17973:17974   */\n      0x00\n        /* \"#utility.yul\":17962:17971   */\n      dup4\n        /* \"#utility.yul\":17958:17975   */\n      add\n        /* \"#utility.yul\":17949:17955   */\n      dup5\n        /* \"#utility.yul\":17905:17976   */\n      tag_489\n      jump\t// in\n    tag_541:\n        /* \"#utility.yul\":17761:17983   */\n      swap3\n      swap2\n      pop\n      pop\n      jump\t// out\n        /* \"#utility.yul\":18070:18168   */\n    tag_396:\n        /* \"#utility.yul\":18121:18127   */\n      0x00\n        /* \"#utility.yul\":18155:18160   */\n      dup2\n        /* \"#utility.yul\":18149:18161   */\n      mload\n        /* \"#utility.yul\":18139:18161   */\n      swap1\n      pop\n        /* \"#utility.yul\":18070:18168   */\n      swap2\n      swap1\n      pop\n      jump\t// out\n        /* \"#utility.yul\":18174:18273   */\n    tag_408:\n        /* \"#utility.yul\":18226:18232   */\n      0x00\n        /* \"#utility.yul\":18260:18265   */\n      dup2\n        /* \"#utility.yul\":18254:18266   */\n      mload\n        /* \"#utility.yul\":18244:18266   */\n      swap1\n      pop\n        /* \"#utility.yul\":18174:18273   */\n      swap2\n      swap1\n      pop\n      jump\t// out\n        /* \"#utility.yul\":18279:18426   */\n    tag_398:\n        /* \"#utility.yul\":18380:18391   */\n      0x00\n        /* \"#utility.yul\":18417:18420   */\n      dup2\n        /* \"#utility.yul\":18402:18420   */\n      swap1\n      pop\n        /* \"#utility.yul\":18279:18426   */\n      swap3\n      swap2\n      pop\n      pop\n      jump\t// out\n        /* \"#utility.yul\":18432:18601   */\n    tag_410:\n        /* \"#utility.yul\":18516:18527   */\n      0x00\n        /* \"#utility.yul\":18550:18556   */\n      dup3\n        /* \"#utility.yul\":18545:18548   */\n      dup3\n        /* \"#utility.yul\":18538:18557   */\n      mstore\n        /* \"#utility.yul\":18590:18594   */\n      0x20\n        /* \"#utility.yul\":18585:18588   */\n      dup3\n        /* \"#utility.yul\":18581:18595   */\n      add\n        /* \"#utility.yul\":18566:18595   */\n      swap1\n      pop\n        /* \"#utility.yul\":18432:18601   */\n      swap3\n      swap2\n      pop\n      pop\n      jump\t// out\n        /* \"#utility.yul\":18607:18912   */\n    tag_297:\n        /* \"#utility.yul\":18647:18650   */\n      0x00\n        /* \"#utility.yul\":18666:18686   */\n      tag_549\n        /* \"#utility.yul\":18684:18685   */\n      dup3\n        /* \"#utility.yul\":18666:18686   */\n      tag_492\n      jump\t// in\n    tag_549:\n        /* \"#utility.yul\":18661:18686   */\n      swap2\n      pop\n        /* \"#utility.yul\":18700:18720   */\n      tag_550\n        /* \"#utility.yul\":18718:18719   */\n      dup4\n        /* \"#utility.yul\":18700:18720   */\n      tag_492\n      jump\t// in\n    tag_550:\n        /* \"#utility.yul\":18695:18720   */\n      swap3\n      pop\n        /* \"#utility.yul\":18854:18855   */\n      dup3\n        /* \"#utility.yul\":18786:18852   */\n      0xffffffffffffffffffffffffffffffffffffffffffffffffffffffffffffffff\n        /* \"#utility.yul\":18782:18856   */\n      sub\n        /* \"#utility.yul\":18779:18780   */\n      dup3\n        /* \"#utility.yul\":18776:18857   */\n      gt\n        /* \"#utility.yul\":18773:18880   */\n      iszero\n      tag_551\n      jumpi\n        /* \"#utility.yul\":18860:18878   */\n      tag_552\n      tag_553\n      jump\t// in\n    tag_552:\n        /* \"#utility.yul\":18773:18880   */\n    tag_551:\n        /* \"#utility.yul\":18904:18905   */\n      dup3\n        /* \"#utility.yul\":18901:18902   */\n      dup3\n        /* \"#utility.yul\":18897:18906   */\n      add\n        /* \"#utility.yul\":18890:18906   */\n      swap1\n      pop\n        /* \"#utility.yul\":18607:18912   */\n      swap3\n      swap2\n      pop\n      pop\n      jump\t// out\n        /* \"#utility.yul\":18918:19103   */\n    tag_294:\n        /* \"#utility.yul\":18958:18959   */\n      0x00\n        /* \"#utility.yul\":18975:18995   */\n      tag_555\n        /* \"#utility.yul\":18993:18994   */\n      dup3\n        /* \"#utility.yul\":18975:18995   */\n      tag_492\n      jump\t// in\n    tag_555:\n        /* \"#utility.yul\":18970:18995   */\n      swap2\n      pop\n        /* \"#utility.yul\":19009:19029   */\n      tag_556\n        /* \"#utility.yul\":19027:19028   */\n      dup4\n        /* \"#utility.yul\":19009:19029   */\n      tag_492\n      jump\t// in\n    tag_556:\n        /* \"#utility.yul\":19004:19029   */\n      swap3\n      pop\n        /* \"#utility.yul\":19048:19049   */\n      dup3\n        /* \"#utility.yul\":19038:19073   */\n      tag_557\n      jumpi\n        /* \"#utility.yul\":19053:19071   */\n      tag_558\n      tag_559\n      jump\t// in\n    tag_558:\n        /* \"#utility.yul\":19038:19073   */\n    tag_557:\n        /* \"#utility.yul\":19095:19096   */\n      dup3\n        /* \"#utility.yul\":19092:19093   */\n      dup3\n        /* \"#utility.yul\":19088:19097   */\n      div\n        /* \"#utility.yul\":19083:19097   */\n      swap1\n      pop\n        /* \"#utility.yul\":18918:19103   */\n      swap3\n      swap2\n      pop\n      pop\n      jump\t// out\n        /* \"#utility.yul\":19109:19457   */\n    tag_300:\n        /* \"#utility.yul\":19149:19156   */\n      0x00\n        /* \"#utility.yul\":19172:19192   */\n      tag_561\n        /* \"#utility.yul\":19190:19191   */\n      dup3\n        /* \"#utility.yul\":19172:19192   */\n      tag_492\n      jump\t// in\n    tag_561:\n        /* \"#utility.yul\":19167:19192   */\n      swap2\n      pop\n        /* \"#utility.yul\":19206:19226   */\n      tag_562\n        /* \"#utility.yul\":19224:19225   */\n      dup4\n        /* \"#utility.yul\":19206:19226   */\n      tag_492\n      jump\t// in\n    tag_562:\n        /* \"#utility.yul\":19201:19226   */\n      swap3\n      pop\n        /* \"#utility.yul\":19394:19395   */\n      dup2\n        /* \"#utility.yul\":19326:19392   */\n      0xffffffffffffffffffffffffffffffffffffffffffffffffffffffffffffffff\n        /* \"#utility.yul\":19322:19396   */\n      div\n        /* \"#utility.yul\":19319:19320   */\n      dup4\n        /* \"#utility.yul\":19316:19397   */\n      gt\n        /* \"#utility.yul\":19311:19312   */\n      dup3\n        /* \"#utility.yul\":19304:19313   */\n      iszero\n        /* \"#utility.yul\":19297:19314   */\n      iszero\n        /* \"#utility.yul\":19293:19398   */\n      and\n        /* \"#utility.yul\":19290:19421   */\n      iszero\n      tag_563\n      jumpi\n        /* \"#utility.yul\":19401:19419   */\n      tag_564\n      tag_553\n      jump\t// in\n    tag_564:\n        /* \"#utility.yul\":19290:19421   */\n    tag_563:\n        /* \"#utility.yul\":19449:19450   */\n      dup3\n        /* \"#utility.yul\":19446:19447   */\n      dup3\n        /* \"#utility.yul\":19442:19451   */\n      mul\n        /* \"#utility.yul\":19431:19451   */\n      swap1\n      pop\n        /* \"#utility.yul\":19109:19457   */\n      swap3\n      swap2\n      pop\n      pop\n      jump\t// out\n        /* \"#utility.yul\":19463:19654   */\n    tag_291:\n        /* \"#utility.yul\":19503:19507   */\n      0x00\n        /* \"#utility.yul\":19523:19543   */\n      tag_566\n        /* \"#utility.yul\":19541:19542   */\n      dup3\n        /* \"#utility.yul\":19523:19543   */\n      tag_492\n      jump\t// in\n    tag_566:\n        /* \"#utility.yul\":19518:19543   */\n      swap2\n      pop\n        /* \"#utility.yul\":19557:19577   */\n      tag_567\n        /* \"#utility.yul\":19575:19576   */\n      dup4\n        /* \"#utility.yul\":19557:19577   */\n      tag_492\n      jump\t// in\n    tag_567:\n        /* \"#utility.yul\":19552:19577   */\n      swap3\n      pop\n        /* \"#utility.yul\":19596:19597   */\n      dup3\n        /* \"#utility.yul\":19593:19594   */\n      dup3\n        /* \"#utility.yul\":19590:19598   */\n      lt\n        /* \"#utility.yul\":19587:19621   */\n      iszero\n      tag_568\n      jumpi\n        /* \"#utility.yul\":19601:19619   */\n      tag_569\n      tag_553\n      jump\t// in\n    tag_569:\n        /* \"#utility.yul\":19587:19621   */\n    tag_568:\n        /* \"#utility.yul\":19646:19647   */\n      dup3\n        /* \"#utility.yul\":19643:19644   */\n      dup3\n        /* \"#utility.yul\":19639:19648   */\n      sub\n        /* \"#utility.yul\":19631:19648   */\n      swap1\n      pop\n        /* \"#utility.yul\":19463:19654   */\n      swap3\n      swap2\n      pop\n      pop\n      jump\t// out\n        /* \"#utility.yul\":19660:19756   */\n    tag_388:\n        /* \"#utility.yul\":19697:19704   */\n      0x00\n        /* \"#utility.yul\":19726:19750   */\n      tag_571\n        /* \"#utility.yul\":19744:19749   */\n      dup3\n        /* \"#utility.yul\":19726:19750   */\n      tag_572\n      jump\t// in\n    tag_571:\n        /* \"#utility.yul\":19715:19750   */\n      swap1\n      pop\n        /* \"#utility.yul\":19660:19756   */\n      swap2\n      swap1\n      pop\n      jump\t// out\n        /* \"#utility.yul\":19762:19852   */\n    tag_392:\n        /* \"#utility.yul\":19796:19803   */\n      0x00\n        /* \"#utility.yul\":19839:19844   */\n      dup2\n        /* \"#utility.yul\":19832:19845   */\n      iszero\n        /* \"#utility.yul\":19825:19846   */\n      iszero\n        /* \"#utility.yul\":19814:19846   */\n      swap1\n      pop\n        /* \"#utility.yul\":19762:19852   */\n      swap2\n      swap1\n      pop\n      jump\t// out\n        /* \"#utility.yul\":19858:19984   */\n    tag_572:\n        /* \"#utility.yul\":19895:19902   */\n      0x00\n        /* \"#utility.yul\":19935:19977   */\n      0xffffffffffffffffffffffffffffffffffffffff\n        /* \"#utility.yul\":19928:19933   */\n      dup3\n        /* \"#utility.yul\":19924:19978   */\n      and\n        /* \"#utility.yul\":19913:19978   */\n      swap1\n      pop\n        /* \"#utility.yul\":19858:19984   */\n      swap2\n      swap1\n      pop\n      jump\t// out\n        /* \"#utility.yul\":19990:20067   */\n    tag_492:\n        /* \"#utility.yul\":20027:20034   */\n      0x00\n        /* \"#utility.yul\":20056:20061   */\n      dup2\n        /* \"#utility.yul\":20045:20061   */\n      swap1\n      pop\n        /* \"#utility.yul\":19990:20067   */\n      swap2\n      swap1\n      pop\n      jump\t// out\n        /* \"#utility.yul\":20073:20213   */\n    tag_404:\n        /* \"#utility.yul\":20137:20146   */\n      0x00\n        /* \"#utility.yul\":20170:20207   */\n      tag_577\n        /* \"#utility.yul\":20201:20206   */\n      dup3\n        /* \"#utility.yul\":20170:20207   */\n      tag_578\n      jump\t// in\n    tag_577:\n        /* \"#utility.yul\":20157:20207   */\n      swap1\n      pop\n        /* \"#utility.yul\":20073:20213   */\n      swap2\n      swap1\n      pop\n      jump\t// out\n        /* \"#utility.yul\":20219:20345   */\n    tag_578:\n        /* \"#utility.yul\":20269:20278   */\n      0x00\n        /* \"#utility.yul\":20302:20339   */\n      tag_580\n        /* \"#utility.yul\":20333:20338   */\n      dup3\n        /* \"#utility.yul\":20302:20339   */\n      tag_581\n      jump\t// in\n    tag_580:\n        /* \"#utility.yul\":20289:20339   */\n      swap1\n      pop\n        /* \"#utility.yul\":20219:20345   */\n      swap2\n      swap1\n      pop\n      jump\t// out\n        /* \"#utility.yul\":20351:20464   */\n    tag_581:\n        /* \"#utility.yul\":20401:20410   */\n      0x00\n        /* \"#utility.yul\":20434:20458   */\n      tag_583\n        /* \"#utility.yul\":20452:20457   */\n      dup3\n        /* \"#utility.yul\":20434:20458   */\n      tag_572\n      jump\t// in\n    tag_583:\n        /* \"#utility.yul\":20421:20458   */\n      swap1\n      pop\n        /* \"#utility.yul\":20351:20464   */\n      swap2\n      swap1\n      pop\n      jump\t// out\n        /* \"#utility.yul\":20470:20777   */\n    tag_400:\n        /* \"#utility.yul\":20538:20539   */\n      0x00\n        /* \"#utility.yul\":20548:20661   */\n    tag_585:\n        /* \"#utility.yul\":20562:20568   */\n      dup4\n        /* \"#utility.yul\":20559:20560   */\n      dup2\n        /* \"#utility.yul\":20556:20569   */\n      lt\n        /* \"#utility.yul\":20548:20661   */\n      iszero\n      tag_587\n      jumpi\n        /* \"#utility.yul\":20647:20648   */\n      dup1\n        /* \"#utility.yul\":20642:20645   */\n      dup3\n        /* \"#utility.yul\":20638:20649   */\n      add\n        /* \"#utility.yul\":20632:20650   */\n      mload\n        /* \"#utility.yul\":20628:20629   */\n      dup2\n        /* \"#utility.yul\":20623:20626   */\n      dup5\n        /* \"#utility.yul\":20619:20630   */\n      add\n        /* \"#utility.yul\":20612:20651   */\n      mstore\n        /* \"#utility.yul\":20584:20586   */\n      0x20\n        /* \"#utility.yul\":20581:20582   */\n      dup2\n        /* \"#utility.yul\":20577:20587   */\n      add\n        /* \"#utility.yul\":20572:20587   */\n      swap1\n      pop\n        /* \"#utility.yul\":20548:20661   */\n      jump(tag_585)\n    tag_587:\n        /* \"#utility.yul\":20679:20685   */\n      dup4\n        /* \"#utility.yul\":20676:20677   */\n      dup2\n        /* \"#utility.yul\":20673:20686   */\n      gt\n        /* \"#utility.yul\":20670:20771   */\n      iszero\n      tag_588\n      jumpi\n        /* \"#utility.yul\":20759:20760   */\n      0x00\n        /* \"#utility.yul\":20750:20756   */\n      dup5\n        /* \"#utility.yul\":20745:20748   */\n      dup5\n        /* \"#utility.yul\":20741:20757   */\n      add\n        /* \"#utility.yul\":20734:20761   */\n      mstore\n        /* \"#utility.yul\":20670:20771   */\n    tag_588:\n        /* \"#utility.yul\":20519:20777   */\n      pop\n        /* \"#utility.yul\":20470:20777   */\n      pop\n      pop\n      pop\n      jump\t// out\n        /* \"#utility.yul\":20783:20959   */\n    tag_136:\n        /* \"#utility.yul\":20815:20816   */\n      0x00\n        /* \"#utility.yul\":20832:20852   */\n      tag_590\n        /* \"#utility.yul\":20850:20851   */\n      dup3\n        /* \"#utility.yul\":20832:20852   */\n      tag_492\n      jump\t// in\n    tag_590:\n        /* \"#utility.yul\":20827:20852   */\n      swap2\n      pop\n        /* \"#utility.yul\":20866:20886   */\n      tag_591\n        /* \"#utility.yul\":20884:20885   */\n      dup4\n        /* \"#utility.yul\":20866:20886   */\n      tag_492\n      jump\t// in\n    tag_591:\n        /* \"#utility.yul\":20861:20886   */\n      swap3\n      pop\n        /* \"#utility.yul\":20905:20906   */\n      dup3\n        /* \"#utility.yul\":20895:20930   */\n      tag_592\n      jumpi\n        /* \"#utility.yul\":20910:20928   */\n      tag_593\n      tag_559\n      jump\t// in\n    tag_593:\n        /* \"#utility.yul\":20895:20930   */\n    tag_592:\n        /* \"#utility.yul\":20951:20952   */\n      dup3\n        /* \"#utility.yul\":20948:20949   */\n      dup3\n        /* \"#utility.yul\":20944:20953   */\n      mod\n        /* \"#utility.yul\":20939:20953   */\n      swap1\n      pop\n        /* \"#utility.yul\":20783:20959   */\n      swap3\n      swap2\n      pop\n      pop\n      jump\t// out\n        /* \"#utility.yul\":20965:21145   */\n    tag_553:\n        /* \"#utility.yul\":21013:21090   */\n      0x4e487b7100000000000000000000000000000000000000000000000000000000\n        /* \"#utility.yul\":21010:21011   */\n      0x00\n        /* \"#utility.yul\":21003:21091   */\n      mstore\n        /* \"#utility.yul\":21110:21114   */\n      0x11\n        /* \"#utility.yul\":21107:21108   */\n      0x04\n        /* \"#utility.yul\":21100:21115   */\n      mstore\n        /* \"#utility.yul\":21134:21138   */\n      0x24\n        /* \"#utility.yul\":21131:21132   */\n      0x00\n        /* \"#utility.yul\":21124:21139   */\n      revert\n        /* \"#utility.yul\":21151:21331   */\n    tag_559:\n        /* \"#utility.yul\":21199:21276   */\n      0x4e487b7100000000000000000000000000000000000000000000000000000000\n        /* \"#utility.yul\":21196:21197   */\n      0x00\n        /* \"#utility.yul\":21189:21277   */\n      mstore\n        /* \"#utility.yul\":21296:21300   */\n      0x12\n        /* \"#utility.yul\":21293:21294   */\n      0x04\n        /* \"#utility.yul\":21286:21301   */\n      mstore\n        /* \"#utility.yul\":21320:21324   */\n      0x24\n        /* \"#utility.yul\":21317:21318   */\n      0x00\n        /* \"#utility.yul\":21310:21325   */\n      revert\n        /* \"#utility.yul\":21460:21577   */\n    tag_366:\n        /* \"#utility.yul\":21569:21570   */\n      0x00\n        /* \"#utility.yul\":21566:21567   */\n      dup1\n        /* \"#utility.yul\":21559:21571   */\n      revert\n        /* \"#utility.yul\":21583:21685   */\n    tag_413:\n        /* \"#utility.yul\":21624:21630   */\n      0x00\n        /* \"#utility.yul\":21675:21677   */\n      0x1f\n        /* \"#utility.yul\":21671:21678   */\n      not\n        /* \"#utility.yul\":21666:21668   */\n      0x1f\n        /* \"#utility.yul\":21659:21664   */\n      dup4\n        /* \"#utility.yul\":21655:21669   */\n      add\n        /* \"#utility.yul\":21651:21679   */\n      and\n        /* \"#utility.yul\":21641:21679   */\n      swap1\n      pop\n        /* \"#utility.yul\":21583:21685   */\n      swap2\n      swap1\n      pop\n      jump\t// out\n        /* \"#utility.yul\":21691:21857   */\n    tag_418:\n        /* \"#utility.yul\":21831:21849   */\n      0x4e6f7468696e6720746f20636c61696d00000000000000000000000000000000\n        /* \"#utility.yul\":21827:21828   */\n      0x00\n        /* \"#utility.yul\":21819:21825   */\n      dup3\n        /* \"#utility.yul\":21815:21829   */\n      add\n        /* \"#utility.yul\":21808:21850   */\n      mstore\n        /* \"#utility.yul\":21691:21857   */\n      pop\n      jump\t// out\n        /* \"#utility.yul\":21863:22034   */\n    tag_423:\n        /* \"#utility.yul\":22003:22026   */\n      0x4572726f723a20696e76616c6964207374616b65720000000000000000000000\n        /* \"#utility.yul\":21999:22000   */\n      0x00\n        /* \"#utility.yul\":21991:21997   */\n      dup3\n        /* \"#utility.yul\":21987:22001   */\n      add\n        /* \"#utility.yul\":21980:22027   */\n      mstore\n        /* \"#utility.yul\":21863:22034   */\n      pop\n      jump\t// out\n        /* \"#utility.yul\":22040:22269   */\n    tag_428:\n        /* \"#utility.yul\":22180:22214   */\n      0x5361666542455032303a204245503230206f7065726174696f6e20646964206e\n        /* \"#utility.yul\":22176:22177   */\n      0x00\n        /* \"#utility.yul\":22168:22174   */\n      dup3\n        /* \"#utility.yul\":22164:22178   */\n      add\n        /* \"#utility.yul\":22157:22215   */\n      mstore\n        /* \"#utility.yul\":22249:22261   */\n      0x6f74207375636365656400000000000000000000000000000000000000000000\n        /* \"#utility.yul\":22244:22246   */\n      0x20\n        /* \"#utility.yul\":22236:22242   */\n      dup3\n        /* \"#utility.yul\":22232:22247   */\n      add\n        /* \"#utility.yul\":22225:22262   */\n      mstore\n        /* \"#utility.yul\":22040:22269   */\n      pop\n      jump\t// out\n        /* \"#utility.yul\":22275:22500   */\n    tag_433:\n        /* \"#utility.yul\":22415:22449   */\n      0x4f776e61626c653a206e6577206f776e657220697320746865207a65726f2061\n        /* \"#utility.yul\":22411:22412   */\n      0x00\n        /* \"#utility.yul\":22403:22409   */\n      dup3\n        /* \"#utility.yul\":22399:22413   */\n      add\n        /* \"#utility.yul\":22392:22450   */\n      mstore\n        /* \"#utility.yul\":22484:22492   */\n      0x6464726573730000000000000000000000000000000000000000000000000000\n        /* \"#utility.yul\":22479:22481   */\n      0x20\n        /* \"#utility.yul\":22471:22477   */\n      dup3\n        /* \"#utility.yul\":22467:22482   */\n      add\n        /* \"#utility.yul\":22460:22493   */\n      mstore\n        /* \"#utility.yul\":22275:22500   */\n      pop\n      jump\t// out\n        /* \"#utility.yul\":22506:22670   */\n    tag_438:\n        /* \"#utility.yul\":22646:22662   */\n      0x496e76616c696420616d6f756e74000000000000000000000000000000000000\n        /* \"#utility.yul\":22642:22643   */\n      0x00\n        /* \"#utility.yul\":22634:22640   */\n      dup3\n        /* \"#utility.yul\":22630:22644   */\n      add\n        /* \"#utility.yul\":22623:22663   */\n      mstore\n        /* \"#utility.yul\":22506:22670   */\n      pop\n      jump\t// out\n        /* \"#utility.yul\":22676:22841   */\n    tag_443:\n        /* \"#utility.yul\":22816:22833   */\n      0x416c726561647920737461727465640000000000000000000000000000000000\n        /* \"#utility.yul\":22812:22813   */\n      0x00\n        /* \"#utility.yul\":22804:22810   */\n      dup3\n        /* \"#utility.yul\":22800:22814   */\n      add\n        /* \"#utility.yul\":22793:22834   */\n      mstore\n        /* \"#utility.yul\":22676:22841   */\n      pop\n      jump\t// out\n        /* \"#utility.yul\":22847:23072   */\n    tag_448:\n        /* \"#utility.yul\":22987:23021   */\n      0x416464726573733a20696e73756666696369656e742062616c616e636520666f\n        /* \"#utility.yul\":22983:22984   */\n      0x00\n        /* \"#utility.yul\":22975:22981   */\n      dup3\n        /* \"#utility.yul\":22971:22985   */\n      add\n        /* \"#utility.yul\":22964:23022   */\n      mstore\n        /* \"#utility.yul\":23056:23064   */\n      0x722063616c6c0000000000000000000000000000000000000000000000000000\n        /* \"#utility.yul\":23051:23053   */\n      0x20\n        /* \"#utility.yul\":23043:23049   */\n      dup3\n        /* \"#utility.yul\":23039:23054   */\n      add\n        /* \"#utility.yul\":23032:23065   */\n      mstore\n        /* \"#utility.yul\":22847:23072   */\n      pop\n      jump\t// out\n        /* \"#utility.yul\":23078:23259   */\n    tag_453:\n        /* \"#utility.yul\":23218:23251   */\n      0x416d6f756e742073686f756c642062652067726561746572207468616e203000\n        /* \"#utility.yul\":23214:23215   */\n      0x00\n        /* \"#utility.yul\":23206:23212   */\n      dup3\n        /* \"#utility.yul\":23202:23216   */\n      add\n        /* \"#utility.yul\":23195:23252   */\n      mstore\n        /* \"#utility.yul\":23078:23259   */\n      pop\n      jump\t// out\n        /* \"#utility.yul\":23265:23447   */\n    tag_458:\n        /* \"#utility.yul\":23405:23439   */\n      0x4f776e61626c653a2063616c6c6572206973206e6f7420746865206f776e6572\n        /* \"#utility.yul\":23401:23402   */\n      0x00\n        /* \"#utility.yul\":23393:23399   */\n      dup3\n        /* \"#utility.yul\":23389:23403   */\n      add\n        /* \"#utility.yul\":23382:23440   */\n      mstore\n        /* \"#utility.yul\":23265:23447   */\n      pop\n      jump\t// out\n        /* \"#utility.yul\":23453:23616   */\n    tag_463:\n        /* \"#utility.yul\":23593:23608   */\n      0x496e76616c69642076616c756500000000000000000000000000000000000000\n        /* \"#utility.yul\":23589:23590   */\n      0x00\n        /* \"#utility.yul\":23581:23587   */\n      dup3\n        /* \"#utility.yul\":23577:23591   */\n      add\n        /* \"#utility.yul\":23570:23609   */\n      mstore\n        /* \"#utility.yul\":23453:23616   */\n      pop\n      jump\t// out\n        /* \"#utility.yul\":23622:23801   */\n    tag_468:\n        /* \"#utility.yul\":23762:23793   */\n      0x416464726573733a2063616c6c20746f206e6f6e2d636f6e7472616374000000\n        /* \"#utility.yul\":23758:23759   */\n      0x00\n        /* \"#utility.yul\":23750:23756   */\n      dup3\n        /* \"#utility.yul\":23746:23760   */\n      add\n        /* \"#utility.yul\":23739:23794   */\n      mstore\n        /* \"#utility.yul\":23622:23801   */\n      pop\n      jump\t// out\n        /* \"#utility.yul\":23807:23983   */\n    tag_473:\n        /* \"#utility.yul\":23947:23975   */\n      0x496e76616c696420556e7374616b696e67204665652052617465000000000000\n        /* \"#utility.yul\":23943:23944   */\n      0x00\n        /* \"#utility.yul\":23935:23941   */\n      dup3\n        /* \"#utility.yul\":23931:23945   */\n      add\n        /* \"#utility.yul\":23924:23976   */\n      mstore\n        /* \"#utility.yul\":23807:23983   */\n      pop\n      jump\t// out\n        /* \"#utility.yul\":23989:24162   */\n    tag_478:\n        /* \"#utility.yul\":24129:24154   */\n      0x496e76616c6964204c6f636b7570204475726174696f6e000000000000000000\n        /* \"#utility.yul\":24125:24126   */\n      0x00\n        /* \"#utility.yul\":24117:24123   */\n      dup3\n        /* \"#utility.yul\":24113:24127   */\n      add\n        /* \"#utility.yul\":24106:24155   */\n      mstore\n        /* \"#utility.yul\":23989:24162   */\n      pop\n      jump\t// out\n        /* \"#utility.yul\":24168:24331   */\n    tag_483:\n        /* \"#utility.yul\":24308:24323   */\n      0x43616e2774206265207a65726f00000000000000000000000000000000000000\n        /* \"#utility.yul\":24304:24305   */\n      0x00\n        /* \"#utility.yul\":24296:24302   */\n      dup3\n        /* \"#utility.yul\":24292:24306   */\n      add\n        /* \"#utility.yul\":24285:24324   */\n      mstore\n        /* \"#utility.yul\":24168:24331   */\n      pop\n      jump\t// out\n        /* \"#utility.yul\":24337:24500   */\n    tag_488:\n        /* \"#utility.yul\":24477:24492   */\n      0x496e73756666696369656e742100000000000000000000000000000000000000\n        /* \"#utility.yul\":24473:24474   */\n      0x00\n        /* \"#utility.yul\":24465:24471   */\n      dup3\n        /* \"#utility.yul\":24461:24475   */\n      add\n        /* \"#utility.yul\":24454:24493   */\n      mstore\n        /* \"#utility.yul\":24337:24500   */\n      pop\n      jump\t// out\n        /* \"#utility.yul\":24506:24628   */\n    tag_351:\n        /* \"#utility.yul\":24579:24603   */\n      tag_616\n        /* \"#utility.yul\":24597:24602   */\n      dup2\n        /* \"#utility.yul\":24579:24603   */\n      tag_388\n      jump\t// in\n    tag_616:\n        /* \"#utility.yul\":24572:24577   */\n      dup2\n        /* \"#utility.yul\":24569:24604   */\n      eq\n        /* \"#utility.yul\":24559:24622   */\n      tag_617\n      jumpi\n        /* \"#utility.yul\":24618:24619   */\n      0x00\n        /* \"#utility.yul\":24615:24616   */\n      dup1\n        /* \"#utility.yul\":24608:24620   */\n      revert\n        /* \"#utility.yul\":24559:24622   */\n    tag_617:\n        /* \"#utility.yul\":24506:24628   */\n      pop\n      jump\t// out\n        /* \"#utility.yul\":24634:24750   */\n    tag_355:\n        /* \"#utility.yul\":24704:24725   */\n      tag_619\n        /* \"#utility.yul\":24719:24724   */\n      dup2\n        /* \"#utility.yul\":24704:24725   */\n      tag_392\n      jump\t// in\n    tag_619:\n        /* \"#utility.yul\":24697:24702   */\n      dup2\n        /* \"#utility.yul\":24694:24726   */\n      eq\n        /* \"#utility.yul\":24684:24744   */\n      tag_620\n      jumpi\n        /* \"#utility.yul\":24740:24741   */\n      0x00\n        /* \"#utility.yul\":24737:24738   */\n      dup1\n        /* \"#utility.yul\":24730:24742   */\n      revert\n        /* \"#utility.yul\":24684:24744   */\n    tag_620:\n        /* \"#utility.yul\":24634:24750   */\n      pop\n      jump\t// out\n        /* \"#utility.yul\":24756:24878   */\n    tag_359:\n        /* \"#utility.yul\":24829:24853   */\n      tag_622\n        /* \"#utility.yul\":24847:24852   */\n      dup2\n        /* \"#utility.yul\":24829:24853   */\n      tag_492\n      jump\t// in\n    tag_622:\n        /* \"#utility.yul\":24822:24827   */\n      dup2\n        /* \"#utility.yul\":24819:24854   */\n      eq\n        /* \"#utility.yul\":24809:24872   */\n      tag_623\n      jumpi\n        /* \"#utility.yul\":24868:24869   */\n      0x00\n        /* \"#utility.yul\":24865:24866   */\n      dup1\n        /* \"#utility.yul\":24858:24870   */\n      revert\n        /* \"#utility.yul\":24809:24872   */\n    tag_623:\n        /* \"#utility.yul\":24756:24878   */\n      pop\n      jump\t// out\n\n    auxdata: 0xa26469706673582212203d0c408930986b222d745c906b6b3566d9d88e243fe729da772e0f78c05dda6b64736f6c63430008070033\n}\n",
				"bytecode": {
					"linkReferences": {},
					"object": "60806040523480156200001157600080fd5b5060405162002d9f38038062002d9f8339818101604052810190620000379190620001c1565b620000576200004b620000af60201b60201c565b620000b760201b60201c565b620000676200017b60201b60201c565b80600960006101000a81548173ffffffffffffffffffffffffffffffffffffffff021916908373ffffffffffffffffffffffffffffffffffffffff1602179055505062000246565b600033905090565b60008060009054906101000a900473ffffffffffffffffffffffffffffffffffffffff169050816000806101000a81548173ffffffffffffffffffffffffffffffffffffffff021916908373ffffffffffffffffffffffffffffffffffffffff1602179055508173ffffffffffffffffffffffffffffffffffffffff168173ffffffffffffffffffffffffffffffffffffffff167f8be0079c531659141344cd1fd0a4f28419497f9722a3daafe3b4186f6b6457e060405160405180910390a35050565b60c86003819055506105dc600181905550606460048190555062093a806002819055506276a700600581905550565b600081519050620001bb816200022c565b92915050565b600060208284031215620001da57620001d962000227565b5b6000620001ea84828501620001aa565b91505092915050565b6000620002008262000207565b9050919050565b600073ffffffffffffffffffffffffffffffffffffffff82169050919050565b600080fd5b6200023781620001f3565b81146200024357600080fd5b50565b612b4980620002566000396000f3fe608060405234801561001057600080fd5b506004361061014d5760003560e01c80637e1a3786116100c3578063a4e15db91161007c578063a4e15db91461031c578063a4e2d6341461033a578063a694fc3a14610358578063f2fde38b14610374578063f7b2a7be14610390578063fc0c546a146103ae5761014d565b80637e1a37861461026c578063817b1cd21461028a57806386187082146102a85780638da5cb5b146102c657806391e07e7a146102e45780639e447fc6146103005761014d565b80634b62b70b116101155780634b62b70b146101d25780634b77dd9e146101ee5780635715ec111461020a5780635d2ec65d14610228578063692642e714610246578063715018a6146102625761014d565b80630917e77614610152578063129488d3146101705780632e1a7d4d1461018e578063373d6132146101aa5780634641257d146101c8575b600080fd5b61015a6103cc565b604051610167919061253d565b60405180910390f35b6101786103d6565b604051610185919061253d565b60405180910390f35b6101a860048036038101906101a39190611f26565b610420565b005b6101b26107ef565b6040516101bf919061253d565b60405180910390f35b6101d0610839565b005b6101ec60048036038101906101e79190611f26565b610b02565b005b61020860048036038101906102039190611f80565b610bcb565b005b610212610ec6565b60405161021f919061253d565b60405180910390f35b610230610ed3565b60405161023d919061253d565b60405180910390f35b610260600480360381019061025b9190611f26565b610f1d565b005b61026a611032565b005b6102746110ba565b604051610281919061253d565b60405180910390f35b6102926110c4565b60405161029f919061253d565b60405180910390f35b6102b06110ca565b6040516102bd919061253d565b60405180910390f35b6102ce611114565b6040516102db919061228a565b60405180910390f35b6102fe60048036038101906102f99190611f26565b61113d565b005b61031a60048036038101906103159190611f26565b61123d565b005b61032461133d565b604051610331919061253d565b60405180910390f35b610342611387565b60405161034f9190612305565b60405180910390f35b610372600480360381019061036d9190611f26565b6114bf565b005b61038e60048036038101906103899190611ecc565b611784565b005b61039861187c565b6040516103a5919061253d565b60405180910390f35b6103b66118c6565b6040516103c39190612320565b60405180910390f35b6000600854905090565b6000600760003373ffffffffffffffffffffffffffffffffffffffff1673ffffffffffffffffffffffffffffffffffffffff16815260200190815260200160002060020154905090565b6000600760003373ffffffffffffffffffffffffffffffffffffffff1673ffffffffffffffffffffffffffffffffffffffff1681526020019081526020016000209050600082116104a6576040517f08c379a000000000000000000000000000000000000000000000000000000000815260040161049d9061243d565b60405180910390fd5b80600101548211156104ed576040517f08c379a00000000000000000000000000000000000000000000000000000000081526004016104e4906123dd565b60405180910390fd5b6104f56118ec565b6000600960009054906101000a900473ffffffffffffffffffffffffffffffffffffffff1673ffffffffffffffffffffffffffffffffffffffff166370a08231306040518263ffffffff1660e01b8152600401610552919061228a565b60206040518083038186803b15801561056a57600080fd5b505afa15801561057e573d6000803e3d6000fd5b505050506040513d601f19601f820116820180604052508101906105a29190611f53565b831061065857600960009054906101000a900473ffffffffffffffffffffffffffffffffffffffff1673ffffffffffffffffffffffffffffffffffffffff166370a08231306040518263ffffffff1660e01b8152600401610603919061228a565b60206040518083038186803b15801561061b57600080fd5b505afa15801561062f573d6000803e3d6000fd5b505050506040513d601f19601f820116820180604052508101906106539190611f53565b61065a565b825b9050600061068a6201518061067c8560030154426119c890919063ffffffff16565b6119de90919063ffffffff16565b9050600060649050600060018560020154146106c1576106b960055486600301546119f490919063ffffffff16565b4210156106df565b6000600254846106d19190612750565b1480156106de5750600083115b5b9050806106ec5760015491505b6107256107166127106107088588611a0a90919063ffffffff16565b6119de90919063ffffffff16565b856119c890919063ffffffff16565b935061073c846008546119c890919063ffffffff16565b6008819055506107598486600101546119c890919063ffffffff16565b85600101819055506107ae3385600960009054906101000a900473ffffffffffffffffffffffffffffffffffffffff1673ffffffffffffffffffffffffffffffffffffffff16611a209092919063ffffffff16565b7f884edad9ce6fa2440d8a54cc123490eb96d2768479d49ff9c7366125a942436433856040516107df9291906122dc565b60405180910390a1505050505050565b6000600760003373ffffffffffffffffffffffffffffffffffffffff1673ffffffffffffffffffffffffffffffffffffffff16815260200190815260200160002060010154905090565b6108416118ec565b6000600760003373ffffffffffffffffffffffffffffffffffffffff1673ffffffffffffffffffffffffffffffffffffffff168152602001908152602001600020905060006108c96108b66127106108a86004548660000154611a0a90919063ffffffff16565b6119de90919063ffffffff16565b83600001546119c890919063ffffffff16565b90506000811161090e576040517f08c379a00000000000000000000000000000000000000000000000000000000081526004016109059061235d565b60405180910390fd5b600960009054906101000a900473ffffffffffffffffffffffffffffffffffffffff1673ffffffffffffffffffffffffffffffffffffffff166370a08231306040518263ffffffff1660e01b8152600401610969919061228a565b60206040518083038186803b15801561098157600080fd5b505afa158015610995573d6000803e3d6000fd5b505050506040513d601f19601f820116820180604052508101906109b99190611f53565b811115610a6e57600960009054906101000a900473ffffffffffffffffffffffffffffffffffffffff1673ffffffffffffffffffffffffffffffffffffffff166370a08231306040518263ffffffff1660e01b8152600401610a1b919061228a565b60206040518083038186803b158015610a3357600080fd5b505afa158015610a47573d6000803e3d6000fd5b505050506040513d601f19601f82011682018060405250810190610a6b9190611f53565b90505b610abb3382600960009054906101000a900473ffffffffffffffffffffffffffffffffffffffff1673ffffffffffffffffffffffffffffffffffffffff16611a209092919063ffffffff16565b600082600001819055507fc9695243a805adb74c91f28311176c65b417e842d5699893cef56d18bfa48cba3382604051610af69291906122dc565b60405180910390a15050565b610b0a611aa6565b73ffffffffffffffffffffffffffffffffffffffff16610b28611114565b73ffffffffffffffffffffffffffffffffffffffff1614610b7e576040517f08c379a0000000000000000000000000000000000000000000000000000000008152600401610b759061245d565b60405180910390fd5b60008111610bc1576040517f08c379a0000000000000000000000000000000000000000000000000000000008152600401610bb8906124fd565b60405180910390fd5b8060058190555050565b60008211610c0e576040517f08c379a0000000000000000000000000000000000000000000000000000000008152600401610c059061243d565b60405180910390fd5b81600960009054906101000a900473ffffffffffffffffffffffffffffffffffffffff1673ffffffffffffffffffffffffffffffffffffffff166370a08231336040518263ffffffff1660e01b8152600401610c6a919061228a565b60206040518083038186803b158015610c8257600080fd5b505afa158015610c96573d6000803e3d6000fd5b505050506040513d601f19601f82011682018060405250810190610cba9190611f53565b11610cfa576040517f08c379a0000000000000000000000000000000000000000000000000000000008152600401610cf19061251d565b60405180910390fd5b6055600760003373ffffffffffffffffffffffffffffffffffffffff1673ffffffffffffffffffffffffffffffffffffffff168152602001908152602001600020600501541415610d80576040517f08c379a0000000000000000000000000000000000000000000000000000000008152600401610d77906123fd565b60405180910390fd5b80600760003373ffffffffffffffffffffffffffffffffffffffff1673ffffffffffffffffffffffffffffffffffffffff1681526020019081526020016000206002018190555042600760003373ffffffffffffffffffffffffffffffffffffffff1673ffffffffffffffffffffffffffffffffffffffff168152602001908152602001600020600301819055506055600760003373ffffffffffffffffffffffffffffffffffffffff1673ffffffffffffffffffffffffffffffffffffffff168152602001908152602001600020600501819055506006339080600181540180825580915050600190039060005260206000200160009091909190916101000a81548173ffffffffffffffffffffffffffffffffffffffff021916908373ffffffffffffffffffffffffffffffffffffffff160217905550610ec2826114bf565b5050565b6000600680549050905090565b6000600760003373ffffffffffffffffffffffffffffffffffffffff1673ffffffffffffffffffffffffffffffffffffffff16815260200190815260200160002060000154905090565b610f25611aa6565b73ffffffffffffffffffffffffffffffffffffffff16610f43611114565b73ffffffffffffffffffffffffffffffffffffffff1614610f99576040517f08c379a0000000000000000000000000000000000000000000000000000000008152600401610f909061245d565b60405180910390fd5b60008111610fdc576040517f08c379a0000000000000000000000000000000000000000000000000000000008152600401610fd3906124dd565b60405180910390fd5b610ff26201518082611a0a90919063ffffffff16565b6002819055507f189bda9782663c67a3f95c0aa5455924c711210b00281c60ead2f0dd8dbc924c81604051611027919061253d565b60405180910390a150565b61103a611aa6565b73ffffffffffffffffffffffffffffffffffffffff16611058611114565b73ffffffffffffffffffffffffffffffffffffffff16146110ae576040517f08c379a00000000000000000000000000000000000000000000000000000000081526004016110a59061245d565b60405180910390fd5b6110b86000611aae565b565b6000600354905090565b60085481565b6000600760003373ffffffffffffffffffffffffffffffffffffffff1673ffffffffffffffffffffffffffffffffffffffff16815260200190815260200160002060050154905090565b60008060009054906101000a900473ffffffffffffffffffffffffffffffffffffffff16905090565b611145611aa6565b73ffffffffffffffffffffffffffffffffffffffff16611163611114565b73ffffffffffffffffffffffffffffffffffffffff16146111b9576040517f08c379a00000000000000000000000000000000000000000000000000000000081526004016111b09061245d565b60405180910390fd5b600081116111fc576040517f08c379a00000000000000000000000000000000000000000000000000000000081526004016111f3906124bd565b60405180910390fd5b806001819055507f150c688dd7595bf7862b8ab1fe46756450eb7d731037942b3bbc46f3f0e21b8181604051611232919061253d565b60405180910390a150565b611245611aa6565b73ffffffffffffffffffffffffffffffffffffffff16611263611114565b73ffffffffffffffffffffffffffffffffffffffff16146112b9576040517f08c379a00000000000000000000000000000000000000000000000000000000081526004016112b09061245d565b60405180910390fd5b600081116112fc576040517f08c379a00000000000000000000000000000000000000000000000000000000081526004016112f39061247d565b60405180910390fd5b806003819055507f1946fb78c7ca778b54d82cabaac5ba67cf446f58d0ff1f8ceaebb6150e54e44f81604051611332919061253d565b60405180910390a150565b6000600760003373ffffffffffffffffffffffffffffffffffffffff1673ffffffffffffffffffffffffffffffffffffffff16815260200190815260200160002060010154905090565b60006055600760003373ffffffffffffffffffffffffffffffffffffffff1673ffffffffffffffffffffffffffffffffffffffff16815260200190815260200160002060050154146113dc57600190506114bc565b6001600760003373ffffffffffffffffffffffffffffffffffffffff1673ffffffffffffffffffffffffffffffffffffffff1681526020019081526020016000206002015414156114b757600062093a8061149762015180611489600760003373ffffffffffffffffffffffffffffffffffffffff1673ffffffffffffffffffffffffffffffffffffffff16815260200190815260200160002060030154426119c890919063ffffffff16565b6119de90919063ffffffff16565b6114a19190612750565b146114ad5760016114b0565b60005b90506114bc565b600090505b90565b60008111611502576040517f08c379a00000000000000000000000000000000000000000000000000000000081526004016114f99061243d565b60405180910390fd5b80600960009054906101000a900473ffffffffffffffffffffffffffffffffffffffff1673ffffffffffffffffffffffffffffffffffffffff166370a08231336040518263ffffffff1660e01b815260040161155e919061228a565b60206040518083038186803b15801561157657600080fd5b505afa15801561158a573d6000803e3d6000fd5b505050506040513d601f19601f820116820180604052508101906115ae9190611f53565b116115ee576040517f08c379a00000000000000000000000000000000000000000000000000000000081526004016115e59061251d565b60405180910390fd5b6055600760003373ffffffffffffffffffffffffffffffffffffffff1673ffffffffffffffffffffffffffffffffffffffff1681526020019081526020016000206005015414611673576040517f08c379a000000000000000000000000000000000000000000000000000000000815260040161166a9061237d565b60405180910390fd5b61167b6118ec565b6000600760003373ffffffffffffffffffffffffffffffffffffffff1673ffffffffffffffffffffffffffffffffffffffff168152602001908152602001600020905061170d333084600960009054906101000a900473ffffffffffffffffffffffffffffffffffffffff1673ffffffffffffffffffffffffffffffffffffffff16611b72909392919063ffffffff16565b6117248282600101546119f490919063ffffffff16565b8160010181905550611741826008546119f490919063ffffffff16565b6008819055507f9e71bc8eea02a63969f509818f2dafb9254532904319f9dbda79b67bd34a5f3d33836040516117789291906122dc565b60405180910390a15050565b61178c611aa6565b73ffffffffffffffffffffffffffffffffffffffff166117aa611114565b73ffffffffffffffffffffffffffffffffffffffff1614611800576040517f08c379a00000000000000000000000000000000000000000000000000000000081526004016117f79061245d565b60405180910390fd5b600073ffffffffffffffffffffffffffffffffffffffff168173ffffffffffffffffffffffffffffffffffffffff161415611870576040517f08c379a0000000000000000000000000000000000000000000000000000000008152600401611867906123bd565b60405180910390fd5b61187981611aae565b50565b6000600760003373ffffffffffffffffffffffffffffffffffffffff1673ffffffffffffffffffffffffffffffffffffffff16815260200190815260200160002060000154905090565b600960009054906101000a900473ffffffffffffffffffffffffffffffffffffffff1681565b6000600760003373ffffffffffffffffffffffffffffffffffffffff1673ffffffffffffffffffffffffffffffffffffffff1681526020019081526020016000209050600061199a61271061198c60035461197e61196b6121c061195d8960040154436119c890919063ffffffff16565b6119de90919063ffffffff16565b8760010154611a0a90919063ffffffff16565b611a0a90919063ffffffff16565b6119de90919063ffffffff16565b90506119b38183600001546119f490919063ffffffff16565b82600001819055504382600401819055505050565b600081836119d6919061266b565b905092915050565b600081836119ec91906125e0565b905092915050565b60008183611a02919061258a565b905092915050565b60008183611a189190612611565b905092915050565b611aa18363a9059cbb60e01b8484604051602401611a3f9291906122dc565b604051602081830303815290604052907bffffffffffffffffffffffffffffffffffffffffffffffffffffffff19166020820180517bffffffffffffffffffffffffffffffffffffffffffffffffffffffff8381831617835250505050611bfb565b505050565b600033905090565b60008060009054906101000a900473ffffffffffffffffffffffffffffffffffffffff169050816000806101000a81548173ffffffffffffffffffffffffffffffffffffffff021916908373ffffffffffffffffffffffffffffffffffffffff1602179055508173ffffffffffffffffffffffffffffffffffffffff168173ffffffffffffffffffffffffffffffffffffffff167f8be0079c531659141344cd1fd0a4f28419497f9722a3daafe3b4186f6b6457e060405160405180910390a35050565b611bf5846323b872dd60e01b858585604051602401611b93939291906122a5565b604051602081830303815290604052907bffffffffffffffffffffffffffffffffffffffffffffffffffffffff19166020820180517bffffffffffffffffffffffffffffffffffffffffffffffffffffffff8381831617835250505050611bfb565b50505050565b6000611c5d826040518060400160405280602081526020017f5361666542455032303a206c6f772d6c6576656c2063616c6c206661696c65648152508573ffffffffffffffffffffffffffffffffffffffff16611cc29092919063ffffffff16565b9050600081511115611cbd5780806020019051810190611c7d9190611ef9565b611cbc576040517f08c379a0000000000000000000000000000000000000000000000000000000008152600401611cb39061239d565b60405180910390fd5b5b505050565b6060611cd18484600085611cda565b90509392505050565b606082471015611d1f576040517f08c379a0000000000000000000000000000000000000000000000000000000008152600401611d169061241d565b60405180910390fd5b611d2885611dee565b611d67576040517f08c379a0000000000000000000000000000000000000000000000000000000008152600401611d5e9061249d565b60405180910390fd5b6000808673ffffffffffffffffffffffffffffffffffffffff168587604051611d909190612273565b60006040518083038185875af1925050503d8060008114611dcd576040519150601f19603f3d011682016040523d82523d6000602084013e611dd2565b606091505b5091509150611de2828286611e11565b92505050949350505050565b6000808273ffffffffffffffffffffffffffffffffffffffff163b119050919050565b60608315611e2157829050611e71565b600083511115611e345782518084602001fd5b816040517f08c379a0000000000000000000000000000000000000000000000000000000008152600401611e68919061233b565b60405180910390fd5b9392505050565b600081359050611e8781612ace565b92915050565b600081519050611e9c81612ae5565b92915050565b600081359050611eb181612afc565b92915050565b600081519050611ec681612afc565b92915050565b600060208284031215611ee257611ee16127df565b5b6000611ef084828501611e78565b91505092915050565b600060208284031215611f0f57611f0e6127df565b5b6000611f1d84828501611e8d565b91505092915050565b600060208284031215611f3c57611f3b6127df565b5b6000611f4a84828501611ea2565b91505092915050565b600060208284031215611f6957611f686127df565b5b6000611f7784828501611eb7565b91505092915050565b60008060408385031215611f9757611f966127df565b5b6000611fa585828601611ea2565b9250506020611fb685828601611ea2565b9150509250929050565b611fc98161269f565b82525050565b611fd8816126b1565b82525050565b6000611fe982612558565b611ff3818561256e565b935061200381856020860161271d565b80840191505092915050565b612018816126e7565b82525050565b600061202982612563565b6120338185612579565b935061204381856020860161271d565b61204c816127e4565b840191505092915050565b6000612064601083612579565b915061206f826127f5565b602082019050919050565b6000612087601583612579565b91506120928261281e565b602082019050919050565b60006120aa602a83612579565b91506120b582612847565b604082019050919050565b60006120cd602683612579565b91506120d882612896565b604082019050919050565b60006120f0600e83612579565b91506120fb826128e5565b602082019050919050565b6000612113600f83612579565b915061211e8261290e565b602082019050919050565b6000612136602683612579565b915061214182612937565b604082019050919050565b6000612159601f83612579565b915061216482612986565b602082019050919050565b600061217c602083612579565b9150612187826129af565b602082019050919050565b600061219f600d83612579565b91506121aa826129d8565b602082019050919050565b60006121c2601d83612579565b91506121cd82612a01565b602082019050919050565b60006121e5601a83612579565b91506121f082612a2a565b602082019050919050565b6000612208601783612579565b915061221382612a53565b602082019050919050565b600061222b600d83612579565b915061223682612a7c565b602082019050919050565b600061224e600d83612579565b915061225982612aa5565b602082019050919050565b61226d816126dd565b82525050565b600061227f8284611fde565b915081905092915050565b600060208201905061229f6000830184611fc0565b92915050565b60006060820190506122ba6000830186611fc0565b6122c76020830185611fc0565b6122d46040830184612264565b949350505050565b60006040820190506122f16000830185611fc0565b6122fe6020830184612264565b9392505050565b600060208201905061231a6000830184611fcf565b92915050565b6000602082019050612335600083018461200f565b92915050565b60006020820190508181036000830152612355818461201e565b905092915050565b6000602082019050818103600083015261237681612057565b9050919050565b600060208201905081810360008301526123968161207a565b9050919050565b600060208201905081810360008301526123b68161209d565b9050919050565b600060208201905081810360008301526123d6816120c0565b9050919050565b600060208201905081810360008301526123f6816120e3565b9050919050565b6000602082019050818103600083015261241681612106565b9050919050565b6000602082019050818103600083015261243681612129565b9050919050565b600060208201905081810360008301526124568161214c565b9050919050565b600060208201905081810360008301526124768161216f565b9050919050565b6000602082019050818103600083015261249681612192565b9050919050565b600060208201905081810360008301526124b6816121b5565b9050919050565b600060208201905081810360008301526124d6816121d8565b9050919050565b600060208201905081810360008301526124f6816121fb565b9050919050565b600060208201905081810360008301526125168161221e565b9050919050565b6000602082019050818103600083015261253681612241565b9050919050565b60006020820190506125526000830184612264565b92915050565b600081519050919050565b600081519050919050565b600081905092915050565b600082825260208201905092915050565b6000612595826126dd565b91506125a0836126dd565b9250827fffffffffffffffffffffffffffffffffffffffffffffffffffffffffffffffff038211156125d5576125d4612781565b5b828201905092915050565b60006125eb826126dd565b91506125f6836126dd565b925082612606576126056127b0565b5b828204905092915050565b600061261c826126dd565b9150612627836126dd565b9250817fffffffffffffffffffffffffffffffffffffffffffffffffffffffffffffffff04831182151516156126605761265f612781565b5b828202905092915050565b6000612676826126dd565b9150612681836126dd565b92508282101561269457612693612781565b5b828203905092915050565b60006126aa826126bd565b9050919050565b60008115159050919050565b600073ffffffffffffffffffffffffffffffffffffffff82169050919050565b6000819050919050565b60006126f2826126f9565b9050919050565b60006127048261270b565b9050919050565b6000612716826126bd565b9050919050565b60005b8381101561273b578082015181840152602081019050612720565b8381111561274a576000848401525b50505050565b600061275b826126dd565b9150612766836126dd565b925082612776576127756127b0565b5b828206905092915050565b7f4e487b7100000000000000000000000000000000000000000000000000000000600052601160045260246000fd5b7f4e487b7100000000000000000000000000000000000000000000000000000000600052601260045260246000fd5b600080fd5b6000601f19601f8301169050919050565b7f4e6f7468696e6720746f20636c61696d00000000000000000000000000000000600082015250565b7f4572726f723a20696e76616c6964207374616b65720000000000000000000000600082015250565b7f5361666542455032303a204245503230206f7065726174696f6e20646964206e60008201527f6f74207375636365656400000000000000000000000000000000000000000000602082015250565b7f4f776e61626c653a206e6577206f776e657220697320746865207a65726f206160008201527f6464726573730000000000000000000000000000000000000000000000000000602082015250565b7f496e76616c696420616d6f756e74000000000000000000000000000000000000600082015250565b7f416c726561647920737461727465640000000000000000000000000000000000600082015250565b7f416464726573733a20696e73756666696369656e742062616c616e636520666f60008201527f722063616c6c0000000000000000000000000000000000000000000000000000602082015250565b7f416d6f756e742073686f756c642062652067726561746572207468616e203000600082015250565b7f4f776e61626c653a2063616c6c6572206973206e6f7420746865206f776e6572600082015250565b7f496e76616c69642076616c756500000000000000000000000000000000000000600082015250565b7f416464726573733a2063616c6c20746f206e6f6e2d636f6e7472616374000000600082015250565b7f496e76616c696420556e7374616b696e67204665652052617465000000000000600082015250565b7f496e76616c6964204c6f636b7570204475726174696f6e000000000000000000600082015250565b7f43616e2774206265207a65726f00000000000000000000000000000000000000600082015250565b7f496e73756666696369656e742100000000000000000000000000000000000000600082015250565b612ad78161269f565b8114612ae257600080fd5b50565b612aee816126b1565b8114612af957600080fd5b50565b612b05816126dd565b8114612b1057600080fd5b5056fea26469706673582212203d0c408930986b222d745c906b6b3566d9d88e243fe729da772e0f78c05dda6b64736f6c63430008070033",
					"opcodes": "PUSH1 0x80 PUSH1 0x40 MSTORE CALLVALUE DUP1 ISZERO PUSH3 0x11 JUMPI PUSH1 0x0 DUP1 REVERT JUMPDEST POP PUSH1 0x40 MLOAD PUSH3 0x2D9F CODESIZE SUB DUP1 PUSH3 0x2D9F DUP4 CODECOPY DUP2 DUP2 ADD PUSH1 0x40 MSTORE DUP2 ADD SWAP1 PUSH3 0x37 SWAP2 SWAP1 PUSH3 0x1C1 JUMP JUMPDEST PUSH3 0x57 PUSH3 0x4B PUSH3 0xAF PUSH1 0x20 SHL PUSH1 0x20 SHR JUMP JUMPDEST PUSH3 0xB7 PUSH1 0x20 SHL PUSH1 0x20 SHR JUMP JUMPDEST PUSH3 0x67 PUSH3 0x17B PUSH1 0x20 SHL PUSH1 0x20 SHR JUMP JUMPDEST DUP1 PUSH1 0x9 PUSH1 0x0 PUSH2 0x100 EXP DUP2 SLOAD DUP2 PUSH20 0xFFFFFFFFFFFFFFFFFFFFFFFFFFFFFFFFFFFFFFFF MUL NOT AND SWAP1 DUP4 PUSH20 0xFFFFFFFFFFFFFFFFFFFFFFFFFFFFFFFFFFFFFFFF AND MUL OR SWAP1 SSTORE POP POP PUSH3 0x246 JUMP JUMPDEST PUSH1 0x0 CALLER SWAP1 POP SWAP1 JUMP JUMPDEST PUSH1 0x0 DUP1 PUSH1 0x0 SWAP1 SLOAD SWAP1 PUSH2 0x100 EXP SWAP1 DIV PUSH20 0xFFFFFFFFFFFFFFFFFFFFFFFFFFFFFFFFFFFFFFFF AND SWAP1 POP DUP2 PUSH1 0x0 DUP1 PUSH2 0x100 EXP DUP2 SLOAD DUP2 PUSH20 0xFFFFFFFFFFFFFFFFFFFFFFFFFFFFFFFFFFFFFFFF MUL NOT AND SWAP1 DUP4 PUSH20 0xFFFFFFFFFFFFFFFFFFFFFFFFFFFFFFFFFFFFFFFF AND MUL OR SWAP1 SSTORE POP DUP2 PUSH20 0xFFFFFFFFFFFFFFFFFFFFFFFFFFFFFFFFFFFFFFFF AND DUP2 PUSH20 0xFFFFFFFFFFFFFFFFFFFFFFFFFFFFFFFFFFFFFFFF AND PUSH32 0x8BE0079C531659141344CD1FD0A4F28419497F9722A3DAAFE3B4186F6B6457E0 PUSH1 0x40 MLOAD PUSH1 0x40 MLOAD DUP1 SWAP2 SUB SWAP1 LOG3 POP POP JUMP JUMPDEST PUSH1 0xC8 PUSH1 0x3 DUP2 SWAP1 SSTORE POP PUSH2 0x5DC PUSH1 0x1 DUP2 SWAP1 SSTORE POP PUSH1 0x64 PUSH1 0x4 DUP2 SWAP1 SSTORE POP PUSH3 0x93A80 PUSH1 0x2 DUP2 SWAP1 SSTORE POP PUSH3 0x76A700 PUSH1 0x5 DUP2 SWAP1 SSTORE POP JUMP JUMPDEST PUSH1 0x0 DUP2 MLOAD SWAP1 POP PUSH3 0x1BB DUP2 PUSH3 0x22C JUMP JUMPDEST SWAP3 SWAP2 POP POP JUMP JUMPDEST PUSH1 0x0 PUSH1 0x20 DUP3 DUP5 SUB SLT ISZERO PUSH3 0x1DA JUMPI PUSH3 0x1D9 PUSH3 0x227 JUMP JUMPDEST JUMPDEST PUSH1 0x0 PUSH3 0x1EA DUP5 DUP3 DUP6 ADD PUSH3 0x1AA JUMP JUMPDEST SWAP2 POP POP SWAP3 SWAP2 POP POP JUMP JUMPDEST PUSH1 0x0 PUSH3 0x200 DUP3 PUSH3 0x207 JUMP JUMPDEST SWAP1 POP SWAP2 SWAP1 POP JUMP JUMPDEST PUSH1 0x0 PUSH20 0xFFFFFFFFFFFFFFFFFFFFFFFFFFFFFFFFFFFFFFFF DUP3 AND SWAP1 POP SWAP2 SWAP1 POP JUMP JUMPDEST PUSH1 0x0 DUP1 REVERT JUMPDEST PUSH3 0x237 DUP2 PUSH3 0x1F3 JUMP JUMPDEST DUP2 EQ PUSH3 0x243 JUMPI PUSH1 0x0 DUP1 REVERT JUMPDEST POP JUMP JUMPDEST PUSH2 0x2B49 DUP1 PUSH3 0x256 PUSH1 0x0 CODECOPY PUSH1 0x0 RETURN INVALID PUSH1 0x80 PUSH1 0x40 MSTORE CALLVALUE DUP1 ISZERO PUSH2 0x10 JUMPI PUSH1 0x0 DUP1 REVERT JUMPDEST POP PUSH1 0x4 CALLDATASIZE LT PUSH2 0x14D JUMPI PUSH1 0x0 CALLDATALOAD PUSH1 0xE0 SHR DUP1 PUSH4 0x7E1A3786 GT PUSH2 0xC3 JUMPI DUP1 PUSH4 0xA4E15DB9 GT PUSH2 0x7C JUMPI DUP1 PUSH4 0xA4E15DB9 EQ PUSH2 0x31C JUMPI DUP1 PUSH4 0xA4E2D634 EQ PUSH2 0x33A JUMPI DUP1 PUSH4 0xA694FC3A EQ PUSH2 0x358 JUMPI DUP1 PUSH4 0xF2FDE38B EQ PUSH2 0x374 JUMPI DUP1 PUSH4 0xF7B2A7BE EQ PUSH2 0x390 JUMPI DUP1 PUSH4 0xFC0C546A EQ PUSH2 0x3AE JUMPI PUSH2 0x14D JUMP JUMPDEST DUP1 PUSH4 0x7E1A3786 EQ PUSH2 0x26C JUMPI DUP1 PUSH4 0x817B1CD2 EQ PUSH2 0x28A JUMPI DUP1 PUSH4 0x86187082 EQ PUSH2 0x2A8 JUMPI DUP1 PUSH4 0x8DA5CB5B EQ PUSH2 0x2C6 JUMPI DUP1 PUSH4 0x91E07E7A EQ PUSH2 0x2E4 JUMPI DUP1 PUSH4 0x9E447FC6 EQ PUSH2 0x300 JUMPI PUSH2 0x14D JUMP JUMPDEST DUP1 PUSH4 0x4B62B70B GT PUSH2 0x115 JUMPI DUP1 PUSH4 0x4B62B70B EQ PUSH2 0x1D2 JUMPI DUP1 PUSH4 0x4B77DD9E EQ PUSH2 0x1EE JUMPI DUP1 PUSH4 0x5715EC11 EQ PUSH2 0x20A JUMPI DUP1 PUSH4 0x5D2EC65D EQ PUSH2 0x228 JUMPI DUP1 PUSH4 0x692642E7 EQ PUSH2 0x246 JUMPI DUP1 PUSH4 0x715018A6 EQ PUSH2 0x262 JUMPI PUSH2 0x14D JUMP JUMPDEST DUP1 PUSH4 0x917E776 EQ PUSH2 0x152 JUMPI DUP1 PUSH4 0x129488D3 EQ PUSH2 0x170 JUMPI DUP1 PUSH4 0x2E1A7D4D EQ PUSH2 0x18E JUMPI DUP1 PUSH4 0x373D6132 EQ PUSH2 0x1AA JUMPI DUP1 PUSH4 0x4641257D EQ PUSH2 0x1C8 JUMPI JUMPDEST PUSH1 0x0 DUP1 REVERT JUMPDEST PUSH2 0x15A PUSH2 0x3CC JUMP JUMPDEST PUSH1 0x40 MLOAD PUSH2 0x167 SWAP2 SWAP1 PUSH2 0x253D JUMP JUMPDEST PUSH1 0x40 MLOAD DUP1 SWAP2 SUB SWAP1 RETURN JUMPDEST PUSH2 0x178 PUSH2 0x3D6 JUMP JUMPDEST PUSH1 0x40 MLOAD PUSH2 0x185 SWAP2 SWAP1 PUSH2 0x253D JUMP JUMPDEST PUSH1 0x40 MLOAD DUP1 SWAP2 SUB SWAP1 RETURN JUMPDEST PUSH2 0x1A8 PUSH1 0x4 DUP1 CALLDATASIZE SUB DUP2 ADD SWAP1 PUSH2 0x1A3 SWAP2 SWAP1 PUSH2 0x1F26 JUMP JUMPDEST PUSH2 0x420 JUMP JUMPDEST STOP JUMPDEST PUSH2 0x1B2 PUSH2 0x7EF JUMP JUMPDEST PUSH1 0x40 MLOAD PUSH2 0x1BF SWAP2 SWAP1 PUSH2 0x253D JUMP JUMPDEST PUSH1 0x40 MLOAD DUP1 SWAP2 SUB SWAP1 RETURN JUMPDEST PUSH2 0x1D0 PUSH2 0x839 JUMP JUMPDEST STOP JUMPDEST PUSH2 0x1EC PUSH1 0x4 DUP1 CALLDATASIZE SUB DUP2 ADD SWAP1 PUSH2 0x1E7 SWAP2 SWAP1 PUSH2 0x1F26 JUMP JUMPDEST PUSH2 0xB02 JUMP JUMPDEST STOP JUMPDEST PUSH2 0x208 PUSH1 0x4 DUP1 CALLDATASIZE SUB DUP2 ADD SWAP1 PUSH2 0x203 SWAP2 SWAP1 PUSH2 0x1F80 JUMP JUMPDEST PUSH2 0xBCB JUMP JUMPDEST STOP JUMPDEST PUSH2 0x212 PUSH2 0xEC6 JUMP JUMPDEST PUSH1 0x40 MLOAD PUSH2 0x21F SWAP2 SWAP1 PUSH2 0x253D JUMP JUMPDEST PUSH1 0x40 MLOAD DUP1 SWAP2 SUB SWAP1 RETURN JUMPDEST PUSH2 0x230 PUSH2 0xED3 JUMP JUMPDEST PUSH1 0x40 MLOAD PUSH2 0x23D SWAP2 SWAP1 PUSH2 0x253D JUMP JUMPDEST PUSH1 0x40 MLOAD DUP1 SWAP2 SUB SWAP1 RETURN JUMPDEST PUSH2 0x260 PUSH1 0x4 DUP1 CALLDATASIZE SUB DUP2 ADD SWAP1 PUSH2 0x25B SWAP2 SWAP1 PUSH2 0x1F26 JUMP JUMPDEST PUSH2 0xF1D JUMP JUMPDEST STOP JUMPDEST PUSH2 0x26A PUSH2 0x1032 JUMP JUMPDEST STOP JUMPDEST PUSH2 0x274 PUSH2 0x10BA JUMP JUMPDEST PUSH1 0x40 MLOAD PUSH2 0x281 SWAP2 SWAP1 PUSH2 0x253D JUMP JUMPDEST PUSH1 0x40 MLOAD DUP1 SWAP2 SUB SWAP1 RETURN JUMPDEST PUSH2 0x292 PUSH2 0x10C4 JUMP JUMPDEST PUSH1 0x40 MLOAD PUSH2 0x29F SWAP2 SWAP1 PUSH2 0x253D JUMP JUMPDEST PUSH1 0x40 MLOAD DUP1 SWAP2 SUB SWAP1 RETURN JUMPDEST PUSH2 0x2B0 PUSH2 0x10CA JUMP JUMPDEST PUSH1 0x40 MLOAD PUSH2 0x2BD SWAP2 SWAP1 PUSH2 0x253D JUMP JUMPDEST PUSH1 0x40 MLOAD DUP1 SWAP2 SUB SWAP1 RETURN JUMPDEST PUSH2 0x2CE PUSH2 0x1114 JUMP JUMPDEST PUSH1 0x40 MLOAD PUSH2 0x2DB SWAP2 SWAP1 PUSH2 0x228A JUMP JUMPDEST PUSH1 0x40 MLOAD DUP1 SWAP2 SUB SWAP1 RETURN JUMPDEST PUSH2 0x2FE PUSH1 0x4 DUP1 CALLDATASIZE SUB DUP2 ADD SWAP1 PUSH2 0x2F9 SWAP2 SWAP1 PUSH2 0x1F26 JUMP JUMPDEST PUSH2 0x113D JUMP JUMPDEST STOP JUMPDEST PUSH2 0x31A PUSH1 0x4 DUP1 CALLDATASIZE SUB DUP2 ADD SWAP1 PUSH2 0x315 SWAP2 SWAP1 PUSH2 0x1F26 JUMP JUMPDEST PUSH2 0x123D JUMP JUMPDEST STOP JUMPDEST PUSH2 0x324 PUSH2 0x133D JUMP JUMPDEST PUSH1 0x40 MLOAD PUSH2 0x331 SWAP2 SWAP1 PUSH2 0x253D JUMP JUMPDEST PUSH1 0x40 MLOAD DUP1 SWAP2 SUB SWAP1 RETURN JUMPDEST PUSH2 0x342 PUSH2 0x1387 JUMP JUMPDEST PUSH1 0x40 MLOAD PUSH2 0x34F SWAP2 SWAP1 PUSH2 0x2305 JUMP JUMPDEST PUSH1 0x40 MLOAD DUP1 SWAP2 SUB SWAP1 RETURN JUMPDEST PUSH2 0x372 PUSH1 0x4 DUP1 CALLDATASIZE SUB DUP2 ADD SWAP1 PUSH2 0x36D SWAP2 SWAP1 PUSH2 0x1F26 JUMP JUMPDEST PUSH2 0x14BF JUMP JUMPDEST STOP JUMPDEST PUSH2 0x38E PUSH1 0x4 DUP1 CALLDATASIZE SUB DUP2 ADD SWAP1 PUSH2 0x389 SWAP2 SWAP1 PUSH2 0x1ECC JUMP JUMPDEST PUSH2 0x1784 JUMP JUMPDEST STOP JUMPDEST PUSH2 0x398 PUSH2 0x187C JUMP JUMPDEST PUSH1 0x40 MLOAD PUSH2 0x3A5 SWAP2 SWAP1 PUSH2 0x253D JUMP JUMPDEST PUSH1 0x40 MLOAD DUP1 SWAP2 SUB SWAP1 RETURN JUMPDEST PUSH2 0x3B6 PUSH2 0x18C6 JUMP JUMPDEST PUSH1 0x40 MLOAD PUSH2 0x3C3 SWAP2 SWAP1 PUSH2 0x2320 JUMP JUMPDEST PUSH1 0x40 MLOAD DUP1 SWAP2 SUB SWAP1 RETURN JUMPDEST PUSH1 0x0 PUSH1 0x8 SLOAD SWAP1 POP SWAP1 JUMP JUMPDEST PUSH1 0x0 PUSH1 0x7 PUSH1 0x0 CALLER PUSH20 0xFFFFFFFFFFFFFFFFFFFFFFFFFFFFFFFFFFFFFFFF AND PUSH20 0xFFFFFFFFFFFFFFFFFFFFFFFFFFFFFFFFFFFFFFFF AND DUP2 MSTORE PUSH1 0x20 ADD SWAP1 DUP2 MSTORE PUSH1 0x20 ADD PUSH1 0x0 KECCAK256 PUSH1 0x2 ADD SLOAD SWAP1 POP SWAP1 JUMP JUMPDEST PUSH1 0x0 PUSH1 0x7 PUSH1 0x0 CALLER PUSH20 0xFFFFFFFFFFFFFFFFFFFFFFFFFFFFFFFFFFFFFFFF AND PUSH20 0xFFFFFFFFFFFFFFFFFFFFFFFFFFFFFFFFFFFFFFFF AND DUP2 MSTORE PUSH1 0x20 ADD SWAP1 DUP2 MSTORE PUSH1 0x20 ADD PUSH1 0x0 KECCAK256 SWAP1 POP PUSH1 0x0 DUP3 GT PUSH2 0x4A6 JUMPI PUSH1 0x40 MLOAD PUSH32 0x8C379A000000000000000000000000000000000000000000000000000000000 DUP2 MSTORE PUSH1 0x4 ADD PUSH2 0x49D SWAP1 PUSH2 0x243D JUMP JUMPDEST PUSH1 0x40 MLOAD DUP1 SWAP2 SUB SWAP1 REVERT JUMPDEST DUP1 PUSH1 0x1 ADD SLOAD DUP3 GT ISZERO PUSH2 0x4ED JUMPI PUSH1 0x40 MLOAD PUSH32 0x8C379A000000000000000000000000000000000000000000000000000000000 DUP2 MSTORE PUSH1 0x4 ADD PUSH2 0x4E4 SWAP1 PUSH2 0x23DD JUMP JUMPDEST PUSH1 0x40 MLOAD DUP1 SWAP2 SUB SWAP1 REVERT JUMPDEST PUSH2 0x4F5 PUSH2 0x18EC JUMP JUMPDEST PUSH1 0x0 PUSH1 0x9 PUSH1 0x0 SWAP1 SLOAD SWAP1 PUSH2 0x100 EXP SWAP1 DIV PUSH20 0xFFFFFFFFFFFFFFFFFFFFFFFFFFFFFFFFFFFFFFFF AND PUSH20 0xFFFFFFFFFFFFFFFFFFFFFFFFFFFFFFFFFFFFFFFF AND PUSH4 0x70A08231 ADDRESS PUSH1 0x40 MLOAD DUP3 PUSH4 0xFFFFFFFF AND PUSH1 0xE0 SHL DUP2 MSTORE PUSH1 0x4 ADD PUSH2 0x552 SWAP2 SWAP1 PUSH2 0x228A JUMP JUMPDEST PUSH1 0x20 PUSH1 0x40 MLOAD DUP1 DUP4 SUB DUP2 DUP7 DUP1 EXTCODESIZE ISZERO DUP1 ISZERO PUSH2 0x56A JUMPI PUSH1 0x0 DUP1 REVERT JUMPDEST POP GAS STATICCALL ISZERO DUP1 ISZERO PUSH2 0x57E JUMPI RETURNDATASIZE PUSH1 0x0 DUP1 RETURNDATACOPY RETURNDATASIZE PUSH1 0x0 REVERT JUMPDEST POP POP POP POP PUSH1 0x40 MLOAD RETURNDATASIZE PUSH1 0x1F NOT PUSH1 0x1F DUP3 ADD AND DUP3 ADD DUP1 PUSH1 0x40 MSTORE POP DUP2 ADD SWAP1 PUSH2 0x5A2 SWAP2 SWAP1 PUSH2 0x1F53 JUMP JUMPDEST DUP4 LT PUSH2 0x658 JUMPI PUSH1 0x9 PUSH1 0x0 SWAP1 SLOAD SWAP1 PUSH2 0x100 EXP SWAP1 DIV PUSH20 0xFFFFFFFFFFFFFFFFFFFFFFFFFFFFFFFFFFFFFFFF AND PUSH20 0xFFFFFFFFFFFFFFFFFFFFFFFFFFFFFFFFFFFFFFFF AND PUSH4 0x70A08231 ADDRESS PUSH1 0x40 MLOAD DUP3 PUSH4 0xFFFFFFFF AND PUSH1 0xE0 SHL DUP2 MSTORE PUSH1 0x4 ADD PUSH2 0x603 SWAP2 SWAP1 PUSH2 0x228A JUMP JUMPDEST PUSH1 0x20 PUSH1 0x40 MLOAD DUP1 DUP4 SUB DUP2 DUP7 DUP1 EXTCODESIZE ISZERO DUP1 ISZERO PUSH2 0x61B JUMPI PUSH1 0x0 DUP1 REVERT JUMPDEST POP GAS STATICCALL ISZERO DUP1 ISZERO PUSH2 0x62F JUMPI RETURNDATASIZE PUSH1 0x0 DUP1 RETURNDATACOPY RETURNDATASIZE PUSH1 0x0 REVERT JUMPDEST POP POP POP POP PUSH1 0x40 MLOAD RETURNDATASIZE PUSH1 0x1F NOT PUSH1 0x1F DUP3 ADD AND DUP3 ADD DUP1 PUSH1 0x40 MSTORE POP DUP2 ADD SWAP1 PUSH2 0x653 SWAP2 SWAP1 PUSH2 0x1F53 JUMP JUMPDEST PUSH2 0x65A JUMP JUMPDEST DUP3 JUMPDEST SWAP1 POP PUSH1 0x0 PUSH2 0x68A PUSH3 0x15180 PUSH2 0x67C DUP6 PUSH1 0x3 ADD SLOAD TIMESTAMP PUSH2 0x19C8 SWAP1 SWAP2 SWAP1 PUSH4 0xFFFFFFFF AND JUMP JUMPDEST PUSH2 0x19DE SWAP1 SWAP2 SWAP1 PUSH4 0xFFFFFFFF AND JUMP JUMPDEST SWAP1 POP PUSH1 0x0 PUSH1 0x64 SWAP1 POP PUSH1 0x0 PUSH1 0x1 DUP6 PUSH1 0x2 ADD SLOAD EQ PUSH2 0x6C1 JUMPI PUSH2 0x6B9 PUSH1 0x5 SLOAD DUP7 PUSH1 0x3 ADD SLOAD PUSH2 0x19F4 SWAP1 SWAP2 SWAP1 PUSH4 0xFFFFFFFF AND JUMP JUMPDEST TIMESTAMP LT ISZERO PUSH2 0x6DF JUMP JUMPDEST PUSH1 0x0 PUSH1 0x2 SLOAD DUP5 PUSH2 0x6D1 SWAP2 SWAP1 PUSH2 0x2750 JUMP JUMPDEST EQ DUP1 ISZERO PUSH2 0x6DE JUMPI POP PUSH1 0x0 DUP4 GT JUMPDEST JUMPDEST SWAP1 POP DUP1 PUSH2 0x6EC JUMPI PUSH1 0x1 SLOAD SWAP2 POP JUMPDEST PUSH2 0x725 PUSH2 0x716 PUSH2 0x2710 PUSH2 0x708 DUP6 DUP9 PUSH2 0x1A0A SWAP1 SWAP2 SWAP1 PUSH4 0xFFFFFFFF AND JUMP JUMPDEST PUSH2 0x19DE SWAP1 SWAP2 SWAP1 PUSH4 0xFFFFFFFF AND JUMP JUMPDEST DUP6 PUSH2 0x19C8 SWAP1 SWAP2 SWAP1 PUSH4 0xFFFFFFFF AND JUMP JUMPDEST SWAP4 POP PUSH2 0x73C DUP5 PUSH1 0x8 SLOAD PUSH2 0x19C8 SWAP1 SWAP2 SWAP1 PUSH4 0xFFFFFFFF AND JUMP JUMPDEST PUSH1 0x8 DUP2 SWAP1 SSTORE POP PUSH2 0x759 DUP5 DUP7 PUSH1 0x1 ADD SLOAD PUSH2 0x19C8 SWAP1 SWAP2 SWAP1 PUSH4 0xFFFFFFFF AND JUMP JUMPDEST DUP6 PUSH1 0x1 ADD DUP2 SWAP1 SSTORE POP PUSH2 0x7AE CALLER DUP6 PUSH1 0x9 PUSH1 0x0 SWAP1 SLOAD SWAP1 PUSH2 0x100 EXP SWAP1 DIV PUSH20 0xFFFFFFFFFFFFFFFFFFFFFFFFFFFFFFFFFFFFFFFF AND PUSH20 0xFFFFFFFFFFFFFFFFFFFFFFFFFFFFFFFFFFFFFFFF AND PUSH2 0x1A20 SWAP1 SWAP3 SWAP2 SWAP1 PUSH4 0xFFFFFFFF AND JUMP JUMPDEST PUSH32 0x884EDAD9CE6FA2440D8A54CC123490EB96D2768479D49FF9C7366125A9424364 CALLER DUP6 PUSH1 0x40 MLOAD PUSH2 0x7DF SWAP3 SWAP2 SWAP1 PUSH2 0x22DC JUMP JUMPDEST PUSH1 0x40 MLOAD DUP1 SWAP2 SUB SWAP1 LOG1 POP POP POP POP POP POP JUMP JUMPDEST PUSH1 0x0 PUSH1 0x7 PUSH1 0x0 CALLER PUSH20 0xFFFFFFFFFFFFFFFFFFFFFFFFFFFFFFFFFFFFFFFF AND PUSH20 0xFFFFFFFFFFFFFFFFFFFFFFFFFFFFFFFFFFFFFFFF AND DUP2 MSTORE PUSH1 0x20 ADD SWAP1 DUP2 MSTORE PUSH1 0x20 ADD PUSH1 0x0 KECCAK256 PUSH1 0x1 ADD SLOAD SWAP1 POP SWAP1 JUMP JUMPDEST PUSH2 0x841 PUSH2 0x18EC JUMP JUMPDEST PUSH1 0x0 PUSH1 0x7 PUSH1 0x0 CALLER PUSH20 0xFFFFFFFFFFFFFFFFFFFFFFFFFFFFFFFFFFFFFFFF AND PUSH20 0xFFFFFFFFFFFFFFFFFFFFFFFFFFFFFFFFFFFFFFFF AND DUP2 MSTORE PUSH1 0x20 ADD SWAP1 DUP2 MSTORE PUSH1 0x20 ADD PUSH1 0x0 KECCAK256 SWAP1 POP PUSH1 0x0 PUSH2 0x8C9 PUSH2 0x8B6 PUSH2 0x2710 PUSH2 0x8A8 PUSH1 0x4 SLOAD DUP7 PUSH1 0x0 ADD SLOAD PUSH2 0x1A0A SWAP1 SWAP2 SWAP1 PUSH4 0xFFFFFFFF AND JUMP JUMPDEST PUSH2 0x19DE SWAP1 SWAP2 SWAP1 PUSH4 0xFFFFFFFF AND JUMP JUMPDEST DUP4 PUSH1 0x0 ADD SLOAD PUSH2 0x19C8 SWAP1 SWAP2 SWAP1 PUSH4 0xFFFFFFFF AND JUMP JUMPDEST SWAP1 POP PUSH1 0x0 DUP2 GT PUSH2 0x90E JUMPI PUSH1 0x40 MLOAD PUSH32 0x8C379A000000000000000000000000000000000000000000000000000000000 DUP2 MSTORE PUSH1 0x4 ADD PUSH2 0x905 SWAP1 PUSH2 0x235D JUMP JUMPDEST PUSH1 0x40 MLOAD DUP1 SWAP2 SUB SWAP1 REVERT JUMPDEST PUSH1 0x9 PUSH1 0x0 SWAP1 SLOAD SWAP1 PUSH2 0x100 EXP SWAP1 DIV PUSH20 0xFFFFFFFFFFFFFFFFFFFFFFFFFFFFFFFFFFFFFFFF AND PUSH20 0xFFFFFFFFFFFFFFFFFFFFFFFFFFFFFFFFFFFFFFFF AND PUSH4 0x70A08231 ADDRESS PUSH1 0x40 MLOAD DUP3 PUSH4 0xFFFFFFFF AND PUSH1 0xE0 SHL DUP2 MSTORE PUSH1 0x4 ADD PUSH2 0x969 SWAP2 SWAP1 PUSH2 0x228A JUMP JUMPDEST PUSH1 0x20 PUSH1 0x40 MLOAD DUP1 DUP4 SUB DUP2 DUP7 DUP1 EXTCODESIZE ISZERO DUP1 ISZERO PUSH2 0x981 JUMPI PUSH1 0x0 DUP1 REVERT JUMPDEST POP GAS STATICCALL ISZERO DUP1 ISZERO PUSH2 0x995 JUMPI RETURNDATASIZE PUSH1 0x0 DUP1 RETURNDATACOPY RETURNDATASIZE PUSH1 0x0 REVERT JUMPDEST POP POP POP POP PUSH1 0x40 MLOAD RETURNDATASIZE PUSH1 0x1F NOT PUSH1 0x1F DUP3 ADD AND DUP3 ADD DUP1 PUSH1 0x40 MSTORE POP DUP2 ADD SWAP1 PUSH2 0x9B9 SWAP2 SWAP1 PUSH2 0x1F53 JUMP JUMPDEST DUP2 GT ISZERO PUSH2 0xA6E JUMPI PUSH1 0x9 PUSH1 0x0 SWAP1 SLOAD SWAP1 PUSH2 0x100 EXP SWAP1 DIV PUSH20 0xFFFFFFFFFFFFFFFFFFFFFFFFFFFFFFFFFFFFFFFF AND PUSH20 0xFFFFFFFFFFFFFFFFFFFFFFFFFFFFFFFFFFFFFFFF AND PUSH4 0x70A08231 ADDRESS PUSH1 0x40 MLOAD DUP3 PUSH4 0xFFFFFFFF AND PUSH1 0xE0 SHL DUP2 MSTORE PUSH1 0x4 ADD PUSH2 0xA1B SWAP2 SWAP1 PUSH2 0x228A JUMP JUMPDEST PUSH1 0x20 PUSH1 0x40 MLOAD DUP1 DUP4 SUB DUP2 DUP7 DUP1 EXTCODESIZE ISZERO DUP1 ISZERO PUSH2 0xA33 JUMPI PUSH1 0x0 DUP1 REVERT JUMPDEST POP GAS STATICCALL ISZERO DUP1 ISZERO PUSH2 0xA47 JUMPI RETURNDATASIZE PUSH1 0x0 DUP1 RETURNDATACOPY RETURNDATASIZE PUSH1 0x0 REVERT JUMPDEST POP POP POP POP PUSH1 0x40 MLOAD RETURNDATASIZE PUSH1 0x1F NOT PUSH1 0x1F DUP3 ADD AND DUP3 ADD DUP1 PUSH1 0x40 MSTORE POP DUP2 ADD SWAP1 PUSH2 0xA6B SWAP2 SWAP1 PUSH2 0x1F53 JUMP JUMPDEST SWAP1 POP JUMPDEST PUSH2 0xABB CALLER DUP3 PUSH1 0x9 PUSH1 0x0 SWAP1 SLOAD SWAP1 PUSH2 0x100 EXP SWAP1 DIV PUSH20 0xFFFFFFFFFFFFFFFFFFFFFFFFFFFFFFFFFFFFFFFF AND PUSH20 0xFFFFFFFFFFFFFFFFFFFFFFFFFFFFFFFFFFFFFFFF AND PUSH2 0x1A20 SWAP1 SWAP3 SWAP2 SWAP1 PUSH4 0xFFFFFFFF AND JUMP JUMPDEST PUSH1 0x0 DUP3 PUSH1 0x0 ADD DUP2 SWAP1 SSTORE POP PUSH32 0xC9695243A805ADB74C91F28311176C65B417E842D5699893CEF56D18BFA48CBA CALLER DUP3 PUSH1 0x40 MLOAD PUSH2 0xAF6 SWAP3 SWAP2 SWAP1 PUSH2 0x22DC JUMP JUMPDEST PUSH1 0x40 MLOAD DUP1 SWAP2 SUB SWAP1 LOG1 POP POP JUMP JUMPDEST PUSH2 0xB0A PUSH2 0x1AA6 JUMP JUMPDEST PUSH20 0xFFFFFFFFFFFFFFFFFFFFFFFFFFFFFFFFFFFFFFFF AND PUSH2 0xB28 PUSH2 0x1114 JUMP JUMPDEST PUSH20 0xFFFFFFFFFFFFFFFFFFFFFFFFFFFFFFFFFFFFFFFF AND EQ PUSH2 0xB7E JUMPI PUSH1 0x40 MLOAD PUSH32 0x8C379A000000000000000000000000000000000000000000000000000000000 DUP2 MSTORE PUSH1 0x4 ADD PUSH2 0xB75 SWAP1 PUSH2 0x245D JUMP JUMPDEST PUSH1 0x40 MLOAD DUP1 SWAP2 SUB SWAP1 REVERT JUMPDEST PUSH1 0x0 DUP2 GT PUSH2 0xBC1 JUMPI PUSH1 0x40 MLOAD PUSH32 0x8C379A000000000000000000000000000000000000000000000000000000000 DUP2 MSTORE PUSH1 0x4 ADD PUSH2 0xBB8 SWAP1 PUSH2 0x24FD JUMP JUMPDEST PUSH1 0x40 MLOAD DUP1 SWAP2 SUB SWAP1 REVERT JUMPDEST DUP1 PUSH1 0x5 DUP2 SWAP1 SSTORE POP POP JUMP JUMPDEST PUSH1 0x0 DUP3 GT PUSH2 0xC0E JUMPI PUSH1 0x40 MLOAD PUSH32 0x8C379A000000000000000000000000000000000000000000000000000000000 DUP2 MSTORE PUSH1 0x4 ADD PUSH2 0xC05 SWAP1 PUSH2 0x243D JUMP JUMPDEST PUSH1 0x40 MLOAD DUP1 SWAP2 SUB SWAP1 REVERT JUMPDEST DUP2 PUSH1 0x9 PUSH1 0x0 SWAP1 SLOAD SWAP1 PUSH2 0x100 EXP SWAP1 DIV PUSH20 0xFFFFFFFFFFFFFFFFFFFFFFFFFFFFFFFFFFFFFFFF AND PUSH20 0xFFFFFFFFFFFFFFFFFFFFFFFFFFFFFFFFFFFFFFFF AND PUSH4 0x70A08231 CALLER PUSH1 0x40 MLOAD DUP3 PUSH4 0xFFFFFFFF AND PUSH1 0xE0 SHL DUP2 MSTORE PUSH1 0x4 ADD PUSH2 0xC6A SWAP2 SWAP1 PUSH2 0x228A JUMP JUMPDEST PUSH1 0x20 PUSH1 0x40 MLOAD DUP1 DUP4 SUB DUP2 DUP7 DUP1 EXTCODESIZE ISZERO DUP1 ISZERO PUSH2 0xC82 JUMPI PUSH1 0x0 DUP1 REVERT JUMPDEST POP GAS STATICCALL ISZERO DUP1 ISZERO PUSH2 0xC96 JUMPI RETURNDATASIZE PUSH1 0x0 DUP1 RETURNDATACOPY RETURNDATASIZE PUSH1 0x0 REVERT JUMPDEST POP POP POP POP PUSH1 0x40 MLOAD RETURNDATASIZE PUSH1 0x1F NOT PUSH1 0x1F DUP3 ADD AND DUP3 ADD DUP1 PUSH1 0x40 MSTORE POP DUP2 ADD SWAP1 PUSH2 0xCBA SWAP2 SWAP1 PUSH2 0x1F53 JUMP JUMPDEST GT PUSH2 0xCFA JUMPI PUSH1 0x40 MLOAD PUSH32 0x8C379A000000000000000000000000000000000000000000000000000000000 DUP2 MSTORE PUSH1 0x4 ADD PUSH2 0xCF1 SWAP1 PUSH2 0x251D JUMP JUMPDEST PUSH1 0x40 MLOAD DUP1 SWAP2 SUB SWAP1 REVERT JUMPDEST PUSH1 0x55 PUSH1 0x7 PUSH1 0x0 CALLER PUSH20 0xFFFFFFFFFFFFFFFFFFFFFFFFFFFFFFFFFFFFFFFF AND PUSH20 0xFFFFFFFFFFFFFFFFFFFFFFFFFFFFFFFFFFFFFFFF AND DUP2 MSTORE PUSH1 0x20 ADD SWAP1 DUP2 MSTORE PUSH1 0x20 ADD PUSH1 0x0 KECCAK256 PUSH1 0x5 ADD SLOAD EQ ISZERO PUSH2 0xD80 JUMPI PUSH1 0x40 MLOAD PUSH32 0x8C379A000000000000000000000000000000000000000000000000000000000 DUP2 MSTORE PUSH1 0x4 ADD PUSH2 0xD77 SWAP1 PUSH2 0x23FD JUMP JUMPDEST PUSH1 0x40 MLOAD DUP1 SWAP2 SUB SWAP1 REVERT JUMPDEST DUP1 PUSH1 0x7 PUSH1 0x0 CALLER PUSH20 0xFFFFFFFFFFFFFFFFFFFFFFFFFFFFFFFFFFFFFFFF AND PUSH20 0xFFFFFFFFFFFFFFFFFFFFFFFFFFFFFFFFFFFFFFFF AND DUP2 MSTORE PUSH1 0x20 ADD SWAP1 DUP2 MSTORE PUSH1 0x20 ADD PUSH1 0x0 KECCAK256 PUSH1 0x2 ADD DUP2 SWAP1 SSTORE POP TIMESTAMP PUSH1 0x7 PUSH1 0x0 CALLER PUSH20 0xFFFFFFFFFFFFFFFFFFFFFFFFFFFFFFFFFFFFFFFF AND PUSH20 0xFFFFFFFFFFFFFFFFFFFFFFFFFFFFFFFFFFFFFFFF AND DUP2 MSTORE PUSH1 0x20 ADD SWAP1 DUP2 MSTORE PUSH1 0x20 ADD PUSH1 0x0 KECCAK256 PUSH1 0x3 ADD DUP2 SWAP1 SSTORE POP PUSH1 0x55 PUSH1 0x7 PUSH1 0x0 CALLER PUSH20 0xFFFFFFFFFFFFFFFFFFFFFFFFFFFFFFFFFFFFFFFF AND PUSH20 0xFFFFFFFFFFFFFFFFFFFFFFFFFFFFFFFFFFFFFFFF AND DUP2 MSTORE PUSH1 0x20 ADD SWAP1 DUP2 MSTORE PUSH1 0x20 ADD PUSH1 0x0 KECCAK256 PUSH1 0x5 ADD DUP2 SWAP1 SSTORE POP PUSH1 0x6 CALLER SWAP1 DUP1 PUSH1 0x1 DUP2 SLOAD ADD DUP1 DUP3 SSTORE DUP1 SWAP2 POP POP PUSH1 0x1 SWAP1 SUB SWAP1 PUSH1 0x0 MSTORE PUSH1 0x20 PUSH1 0x0 KECCAK256 ADD PUSH1 0x0 SWAP1 SWAP2 SWAP1 SWAP2 SWAP1 SWAP2 PUSH2 0x100 EXP DUP2 SLOAD DUP2 PUSH20 0xFFFFFFFFFFFFFFFFFFFFFFFFFFFFFFFFFFFFFFFF MUL NOT AND SWAP1 DUP4 PUSH20 0xFFFFFFFFFFFFFFFFFFFFFFFFFFFFFFFFFFFFFFFF AND MUL OR SWAP1 SSTORE POP PUSH2 0xEC2 DUP3 PUSH2 0x14BF JUMP JUMPDEST POP POP JUMP JUMPDEST PUSH1 0x0 PUSH1 0x6 DUP1 SLOAD SWAP1 POP SWAP1 POP SWAP1 JUMP JUMPDEST PUSH1 0x0 PUSH1 0x7 PUSH1 0x0 CALLER PUSH20 0xFFFFFFFFFFFFFFFFFFFFFFFFFFFFFFFFFFFFFFFF AND PUSH20 0xFFFFFFFFFFFFFFFFFFFFFFFFFFFFFFFFFFFFFFFF AND DUP2 MSTORE PUSH1 0x20 ADD SWAP1 DUP2 MSTORE PUSH1 0x20 ADD PUSH1 0x0 KECCAK256 PUSH1 0x0 ADD SLOAD SWAP1 POP SWAP1 JUMP JUMPDEST PUSH2 0xF25 PUSH2 0x1AA6 JUMP JUMPDEST PUSH20 0xFFFFFFFFFFFFFFFFFFFFFFFFFFFFFFFFFFFFFFFF AND PUSH2 0xF43 PUSH2 0x1114 JUMP JUMPDEST PUSH20 0xFFFFFFFFFFFFFFFFFFFFFFFFFFFFFFFFFFFFFFFF AND EQ PUSH2 0xF99 JUMPI PUSH1 0x40 MLOAD PUSH32 0x8C379A000000000000000000000000000000000000000000000000000000000 DUP2 MSTORE PUSH1 0x4 ADD PUSH2 0xF90 SWAP1 PUSH2 0x245D JUMP JUMPDEST PUSH1 0x40 MLOAD DUP1 SWAP2 SUB SWAP1 REVERT JUMPDEST PUSH1 0x0 DUP2 GT PUSH2 0xFDC JUMPI PUSH1 0x40 MLOAD PUSH32 0x8C379A000000000000000000000000000000000000000000000000000000000 DUP2 MSTORE PUSH1 0x4 ADD PUSH2 0xFD3 SWAP1 PUSH2 0x24DD JUMP JUMPDEST PUSH1 0x40 MLOAD DUP1 SWAP2 SUB SWAP1 REVERT JUMPDEST PUSH2 0xFF2 PUSH3 0x15180 DUP3 PUSH2 0x1A0A SWAP1 SWAP2 SWAP1 PUSH4 0xFFFFFFFF AND JUMP JUMPDEST PUSH1 0x2 DUP2 SWAP1 SSTORE POP PUSH32 0x189BDA9782663C67A3F95C0AA5455924C711210B00281C60EAD2F0DD8DBC924C DUP2 PUSH1 0x40 MLOAD PUSH2 0x1027 SWAP2 SWAP1 PUSH2 0x253D JUMP JUMPDEST PUSH1 0x40 MLOAD DUP1 SWAP2 SUB SWAP1 LOG1 POP JUMP JUMPDEST PUSH2 0x103A PUSH2 0x1AA6 JUMP JUMPDEST PUSH20 0xFFFFFFFFFFFFFFFFFFFFFFFFFFFFFFFFFFFFFFFF AND PUSH2 0x1058 PUSH2 0x1114 JUMP JUMPDEST PUSH20 0xFFFFFFFFFFFFFFFFFFFFFFFFFFFFFFFFFFFFFFFF AND EQ PUSH2 0x10AE JUMPI PUSH1 0x40 MLOAD PUSH32 0x8C379A000000000000000000000000000000000000000000000000000000000 DUP2 MSTORE PUSH1 0x4 ADD PUSH2 0x10A5 SWAP1 PUSH2 0x245D JUMP JUMPDEST PUSH1 0x40 MLOAD DUP1 SWAP2 SUB SWAP1 REVERT JUMPDEST PUSH2 0x10B8 PUSH1 0x0 PUSH2 0x1AAE JUMP JUMPDEST JUMP JUMPDEST PUSH1 0x0 PUSH1 0x3 SLOAD SWAP1 POP SWAP1 JUMP JUMPDEST PUSH1 0x8 SLOAD DUP2 JUMP JUMPDEST PUSH1 0x0 PUSH1 0x7 PUSH1 0x0 CALLER PUSH20 0xFFFFFFFFFFFFFFFFFFFFFFFFFFFFFFFFFFFFFFFF AND PUSH20 0xFFFFFFFFFFFFFFFFFFFFFFFFFFFFFFFFFFFFFFFF AND DUP2 MSTORE PUSH1 0x20 ADD SWAP1 DUP2 MSTORE PUSH1 0x20 ADD PUSH1 0x0 KECCAK256 PUSH1 0x5 ADD SLOAD SWAP1 POP SWAP1 JUMP JUMPDEST PUSH1 0x0 DUP1 PUSH1 0x0 SWAP1 SLOAD SWAP1 PUSH2 0x100 EXP SWAP1 DIV PUSH20 0xFFFFFFFFFFFFFFFFFFFFFFFFFFFFFFFFFFFFFFFF AND SWAP1 POP SWAP1 JUMP JUMPDEST PUSH2 0x1145 PUSH2 0x1AA6 JUMP JUMPDEST PUSH20 0xFFFFFFFFFFFFFFFFFFFFFFFFFFFFFFFFFFFFFFFF AND PUSH2 0x1163 PUSH2 0x1114 JUMP JUMPDEST PUSH20 0xFFFFFFFFFFFFFFFFFFFFFFFFFFFFFFFFFFFFFFFF AND EQ PUSH2 0x11B9 JUMPI PUSH1 0x40 MLOAD PUSH32 0x8C379A000000000000000000000000000000000000000000000000000000000 DUP2 MSTORE PUSH1 0x4 ADD PUSH2 0x11B0 SWAP1 PUSH2 0x245D JUMP JUMPDEST PUSH1 0x40 MLOAD DUP1 SWAP2 SUB SWAP1 REVERT JUMPDEST PUSH1 0x0 DUP2 GT PUSH2 0x11FC JUMPI PUSH1 0x40 MLOAD PUSH32 0x8C379A000000000000000000000000000000000000000000000000000000000 DUP2 MSTORE PUSH1 0x4 ADD PUSH2 0x11F3 SWAP1 PUSH2 0x24BD JUMP JUMPDEST PUSH1 0x40 MLOAD DUP1 SWAP2 SUB SWAP1 REVERT JUMPDEST DUP1 PUSH1 0x1 DUP2 SWAP1 SSTORE POP PUSH32 0x150C688DD7595BF7862B8AB1FE46756450EB7D731037942B3BBC46F3F0E21B81 DUP2 PUSH1 0x40 MLOAD PUSH2 0x1232 SWAP2 SWAP1 PUSH2 0x253D JUMP JUMPDEST PUSH1 0x40 MLOAD DUP1 SWAP2 SUB SWAP1 LOG1 POP JUMP JUMPDEST PUSH2 0x1245 PUSH2 0x1AA6 JUMP JUMPDEST PUSH20 0xFFFFFFFFFFFFFFFFFFFFFFFFFFFFFFFFFFFFFFFF AND PUSH2 0x1263 PUSH2 0x1114 JUMP JUMPDEST PUSH20 0xFFFFFFFFFFFFFFFFFFFFFFFFFFFFFFFFFFFFFFFF AND EQ PUSH2 0x12B9 JUMPI PUSH1 0x40 MLOAD PUSH32 0x8C379A000000000000000000000000000000000000000000000000000000000 DUP2 MSTORE PUSH1 0x4 ADD PUSH2 0x12B0 SWAP1 PUSH2 0x245D JUMP JUMPDEST PUSH1 0x40 MLOAD DUP1 SWAP2 SUB SWAP1 REVERT JUMPDEST PUSH1 0x0 DUP2 GT PUSH2 0x12FC JUMPI PUSH1 0x40 MLOAD PUSH32 0x8C379A000000000000000000000000000000000000000000000000000000000 DUP2 MSTORE PUSH1 0x4 ADD PUSH2 0x12F3 SWAP1 PUSH2 0x247D JUMP JUMPDEST PUSH1 0x40 MLOAD DUP1 SWAP2 SUB SWAP1 REVERT JUMPDEST DUP1 PUSH1 0x3 DUP2 SWAP1 SSTORE POP PUSH32 0x1946FB78C7CA778B54D82CABAAC5BA67CF446F58D0FF1F8CEAEBB6150E54E44F DUP2 PUSH1 0x40 MLOAD PUSH2 0x1332 SWAP2 SWAP1 PUSH2 0x253D JUMP JUMPDEST PUSH1 0x40 MLOAD DUP1 SWAP2 SUB SWAP1 LOG1 POP JUMP JUMPDEST PUSH1 0x0 PUSH1 0x7 PUSH1 0x0 CALLER PUSH20 0xFFFFFFFFFFFFFFFFFFFFFFFFFFFFFFFFFFFFFFFF AND PUSH20 0xFFFFFFFFFFFFFFFFFFFFFFFFFFFFFFFFFFFFFFFF AND DUP2 MSTORE PUSH1 0x20 ADD SWAP1 DUP2 MSTORE PUSH1 0x20 ADD PUSH1 0x0 KECCAK256 PUSH1 0x1 ADD SLOAD SWAP1 POP SWAP1 JUMP JUMPDEST PUSH1 0x0 PUSH1 0x55 PUSH1 0x7 PUSH1 0x0 CALLER PUSH20 0xFFFFFFFFFFFFFFFFFFFFFFFFFFFFFFFFFFFFFFFF AND PUSH20 0xFFFFFFFFFFFFFFFFFFFFFFFFFFFFFFFFFFFFFFFF AND DUP2 MSTORE PUSH1 0x20 ADD SWAP1 DUP2 MSTORE PUSH1 0x20 ADD PUSH1 0x0 KECCAK256 PUSH1 0x5 ADD SLOAD EQ PUSH2 0x13DC JUMPI PUSH1 0x1 SWAP1 POP PUSH2 0x14BC JUMP JUMPDEST PUSH1 0x1 PUSH1 0x7 PUSH1 0x0 CALLER PUSH20 0xFFFFFFFFFFFFFFFFFFFFFFFFFFFFFFFFFFFFFFFF AND PUSH20 0xFFFFFFFFFFFFFFFFFFFFFFFFFFFFFFFFFFFFFFFF AND DUP2 MSTORE PUSH1 0x20 ADD SWAP1 DUP2 MSTORE PUSH1 0x20 ADD PUSH1 0x0 KECCAK256 PUSH1 0x2 ADD SLOAD EQ ISZERO PUSH2 0x14B7 JUMPI PUSH1 0x0 PUSH3 0x93A80 PUSH2 0x1497 PUSH3 0x15180 PUSH2 0x1489 PUSH1 0x7 PUSH1 0x0 CALLER PUSH20 0xFFFFFFFFFFFFFFFFFFFFFFFFFFFFFFFFFFFFFFFF AND PUSH20 0xFFFFFFFFFFFFFFFFFFFFFFFFFFFFFFFFFFFFFFFF AND DUP2 MSTORE PUSH1 0x20 ADD SWAP1 DUP2 MSTORE PUSH1 0x20 ADD PUSH1 0x0 KECCAK256 PUSH1 0x3 ADD SLOAD TIMESTAMP PUSH2 0x19C8 SWAP1 SWAP2 SWAP1 PUSH4 0xFFFFFFFF AND JUMP JUMPDEST PUSH2 0x19DE SWAP1 SWAP2 SWAP1 PUSH4 0xFFFFFFFF AND JUMP JUMPDEST PUSH2 0x14A1 SWAP2 SWAP1 PUSH2 0x2750 JUMP JUMPDEST EQ PUSH2 0x14AD JUMPI PUSH1 0x1 PUSH2 0x14B0 JUMP JUMPDEST PUSH1 0x0 JUMPDEST SWAP1 POP PUSH2 0x14BC JUMP JUMPDEST PUSH1 0x0 SWAP1 POP JUMPDEST SWAP1 JUMP JUMPDEST PUSH1 0x0 DUP2 GT PUSH2 0x1502 JUMPI PUSH1 0x40 MLOAD PUSH32 0x8C379A000000000000000000000000000000000000000000000000000000000 DUP2 MSTORE PUSH1 0x4 ADD PUSH2 0x14F9 SWAP1 PUSH2 0x243D JUMP JUMPDEST PUSH1 0x40 MLOAD DUP1 SWAP2 SUB SWAP1 REVERT JUMPDEST DUP1 PUSH1 0x9 PUSH1 0x0 SWAP1 SLOAD SWAP1 PUSH2 0x100 EXP SWAP1 DIV PUSH20 0xFFFFFFFFFFFFFFFFFFFFFFFFFFFFFFFFFFFFFFFF AND PUSH20 0xFFFFFFFFFFFFFFFFFFFFFFFFFFFFFFFFFFFFFFFF AND PUSH4 0x70A08231 CALLER PUSH1 0x40 MLOAD DUP3 PUSH4 0xFFFFFFFF AND PUSH1 0xE0 SHL DUP2 MSTORE PUSH1 0x4 ADD PUSH2 0x155E SWAP2 SWAP1 PUSH2 0x228A JUMP JUMPDEST PUSH1 0x20 PUSH1 0x40 MLOAD DUP1 DUP4 SUB DUP2 DUP7 DUP1 EXTCODESIZE ISZERO DUP1 ISZERO PUSH2 0x1576 JUMPI PUSH1 0x0 DUP1 REVERT JUMPDEST POP GAS STATICCALL ISZERO DUP1 ISZERO PUSH2 0x158A JUMPI RETURNDATASIZE PUSH1 0x0 DUP1 RETURNDATACOPY RETURNDATASIZE PUSH1 0x0 REVERT JUMPDEST POP POP POP POP PUSH1 0x40 MLOAD RETURNDATASIZE PUSH1 0x1F NOT PUSH1 0x1F DUP3 ADD AND DUP3 ADD DUP1 PUSH1 0x40 MSTORE POP DUP2 ADD SWAP1 PUSH2 0x15AE SWAP2 SWAP1 PUSH2 0x1F53 JUMP JUMPDEST GT PUSH2 0x15EE JUMPI PUSH1 0x40 MLOAD PUSH32 0x8C379A000000000000000000000000000000000000000000000000000000000 DUP2 MSTORE PUSH1 0x4 ADD PUSH2 0x15E5 SWAP1 PUSH2 0x251D JUMP JUMPDEST PUSH1 0x40 MLOAD DUP1 SWAP2 SUB SWAP1 REVERT JUMPDEST PUSH1 0x55 PUSH1 0x7 PUSH1 0x0 CALLER PUSH20 0xFFFFFFFFFFFFFFFFFFFFFFFFFFFFFFFFFFFFFFFF AND PUSH20 0xFFFFFFFFFFFFFFFFFFFFFFFFFFFFFFFFFFFFFFFF AND DUP2 MSTORE PUSH1 0x20 ADD SWAP1 DUP2 MSTORE PUSH1 0x20 ADD PUSH1 0x0 KECCAK256 PUSH1 0x5 ADD SLOAD EQ PUSH2 0x1673 JUMPI PUSH1 0x40 MLOAD PUSH32 0x8C379A000000000000000000000000000000000000000000000000000000000 DUP2 MSTORE PUSH1 0x4 ADD PUSH2 0x166A SWAP1 PUSH2 0x237D JUMP JUMPDEST PUSH1 0x40 MLOAD DUP1 SWAP2 SUB SWAP1 REVERT JUMPDEST PUSH2 0x167B PUSH2 0x18EC JUMP JUMPDEST PUSH1 0x0 PUSH1 0x7 PUSH1 0x0 CALLER PUSH20 0xFFFFFFFFFFFFFFFFFFFFFFFFFFFFFFFFFFFFFFFF AND PUSH20 0xFFFFFFFFFFFFFFFFFFFFFFFFFFFFFFFFFFFFFFFF AND DUP2 MSTORE PUSH1 0x20 ADD SWAP1 DUP2 MSTORE PUSH1 0x20 ADD PUSH1 0x0 KECCAK256 SWAP1 POP PUSH2 0x170D CALLER ADDRESS DUP5 PUSH1 0x9 PUSH1 0x0 SWAP1 SLOAD SWAP1 PUSH2 0x100 EXP SWAP1 DIV PUSH20 0xFFFFFFFFFFFFFFFFFFFFFFFFFFFFFFFFFFFFFFFF AND PUSH20 0xFFFFFFFFFFFFFFFFFFFFFFFFFFFFFFFFFFFFFFFF AND PUSH2 0x1B72 SWAP1 SWAP4 SWAP3 SWAP2 SWAP1 PUSH4 0xFFFFFFFF AND JUMP JUMPDEST PUSH2 0x1724 DUP3 DUP3 PUSH1 0x1 ADD SLOAD PUSH2 0x19F4 SWAP1 SWAP2 SWAP1 PUSH4 0xFFFFFFFF AND JUMP JUMPDEST DUP2 PUSH1 0x1 ADD DUP2 SWAP1 SSTORE POP PUSH2 0x1741 DUP3 PUSH1 0x8 SLOAD PUSH2 0x19F4 SWAP1 SWAP2 SWAP1 PUSH4 0xFFFFFFFF AND JUMP JUMPDEST PUSH1 0x8 DUP2 SWAP1 SSTORE POP PUSH32 0x9E71BC8EEA02A63969F509818F2DAFB9254532904319F9DBDA79B67BD34A5F3D CALLER DUP4 PUSH1 0x40 MLOAD PUSH2 0x1778 SWAP3 SWAP2 SWAP1 PUSH2 0x22DC JUMP JUMPDEST PUSH1 0x40 MLOAD DUP1 SWAP2 SUB SWAP1 LOG1 POP POP JUMP JUMPDEST PUSH2 0x178C PUSH2 0x1AA6 JUMP JUMPDEST PUSH20 0xFFFFFFFFFFFFFFFFFFFFFFFFFFFFFFFFFFFFFFFF AND PUSH2 0x17AA PUSH2 0x1114 JUMP JUMPDEST PUSH20 0xFFFFFFFFFFFFFFFFFFFFFFFFFFFFFFFFFFFFFFFF AND EQ PUSH2 0x1800 JUMPI PUSH1 0x40 MLOAD PUSH32 0x8C379A000000000000000000000000000000000000000000000000000000000 DUP2 MSTORE PUSH1 0x4 ADD PUSH2 0x17F7 SWAP1 PUSH2 0x245D JUMP JUMPDEST PUSH1 0x40 MLOAD DUP1 SWAP2 SUB SWAP1 REVERT JUMPDEST PUSH1 0x0 PUSH20 0xFFFFFFFFFFFFFFFFFFFFFFFFFFFFFFFFFFFFFFFF AND DUP2 PUSH20 0xFFFFFFFFFFFFFFFFFFFFFFFFFFFFFFFFFFFFFFFF AND EQ ISZERO PUSH2 0x1870 JUMPI PUSH1 0x40 MLOAD PUSH32 0x8C379A000000000000000000000000000000000000000000000000000000000 DUP2 MSTORE PUSH1 0x4 ADD PUSH2 0x1867 SWAP1 PUSH2 0x23BD JUMP JUMPDEST PUSH1 0x40 MLOAD DUP1 SWAP2 SUB SWAP1 REVERT JUMPDEST PUSH2 0x1879 DUP2 PUSH2 0x1AAE JUMP JUMPDEST POP JUMP JUMPDEST PUSH1 0x0 PUSH1 0x7 PUSH1 0x0 CALLER PUSH20 0xFFFFFFFFFFFFFFFFFFFFFFFFFFFFFFFFFFFFFFFF AND PUSH20 0xFFFFFFFFFFFFFFFFFFFFFFFFFFFFFFFFFFFFFFFF AND DUP2 MSTORE PUSH1 0x20 ADD SWAP1 DUP2 MSTORE PUSH1 0x20 ADD PUSH1 0x0 KECCAK256 PUSH1 0x0 ADD SLOAD SWAP1 POP SWAP1 JUMP JUMPDEST PUSH1 0x9 PUSH1 0x0 SWAP1 SLOAD SWAP1 PUSH2 0x100 EXP SWAP1 DIV PUSH20 0xFFFFFFFFFFFFFFFFFFFFFFFFFFFFFFFFFFFFFFFF AND DUP2 JUMP JUMPDEST PUSH1 0x0 PUSH1 0x7 PUSH1 0x0 CALLER PUSH20 0xFFFFFFFFFFFFFFFFFFFFFFFFFFFFFFFFFFFFFFFF AND PUSH20 0xFFFFFFFFFFFFFFFFFFFFFFFFFFFFFFFFFFFFFFFF AND DUP2 MSTORE PUSH1 0x20 ADD SWAP1 DUP2 MSTORE PUSH1 0x20 ADD PUSH1 0x0 KECCAK256 SWAP1 POP PUSH1 0x0 PUSH2 0x199A PUSH2 0x2710 PUSH2 0x198C PUSH1 0x3 SLOAD PUSH2 0x197E PUSH2 0x196B PUSH2 0x21C0 PUSH2 0x195D DUP10 PUSH1 0x4 ADD SLOAD NUMBER PUSH2 0x19C8 SWAP1 SWAP2 SWAP1 PUSH4 0xFFFFFFFF AND JUMP JUMPDEST PUSH2 0x19DE SWAP1 SWAP2 SWAP1 PUSH4 0xFFFFFFFF AND JUMP JUMPDEST DUP8 PUSH1 0x1 ADD SLOAD PUSH2 0x1A0A SWAP1 SWAP2 SWAP1 PUSH4 0xFFFFFFFF AND JUMP JUMPDEST PUSH2 0x1A0A SWAP1 SWAP2 SWAP1 PUSH4 0xFFFFFFFF AND JUMP JUMPDEST PUSH2 0x19DE SWAP1 SWAP2 SWAP1 PUSH4 0xFFFFFFFF AND JUMP JUMPDEST SWAP1 POP PUSH2 0x19B3 DUP2 DUP4 PUSH1 0x0 ADD SLOAD PUSH2 0x19F4 SWAP1 SWAP2 SWAP1 PUSH4 0xFFFFFFFF AND JUMP JUMPDEST DUP3 PUSH1 0x0 ADD DUP2 SWAP1 SSTORE POP NUMBER DUP3 PUSH1 0x4 ADD DUP2 SWAP1 SSTORE POP POP POP JUMP JUMPDEST PUSH1 0x0 DUP2 DUP4 PUSH2 0x19D6 SWAP2 SWAP1 PUSH2 0x266B JUMP JUMPDEST SWAP1 POP SWAP3 SWAP2 POP POP JUMP JUMPDEST PUSH1 0x0 DUP2 DUP4 PUSH2 0x19EC SWAP2 SWAP1 PUSH2 0x25E0 JUMP JUMPDEST SWAP1 POP SWAP3 SWAP2 POP POP JUMP JUMPDEST PUSH1 0x0 DUP2 DUP4 PUSH2 0x1A02 SWAP2 SWAP1 PUSH2 0x258A JUMP JUMPDEST SWAP1 POP SWAP3 SWAP2 POP POP JUMP JUMPDEST PUSH1 0x0 DUP2 DUP4 PUSH2 0x1A18 SWAP2 SWAP1 PUSH2 0x2611 JUMP JUMPDEST SWAP1 POP SWAP3 SWAP2 POP POP JUMP JUMPDEST PUSH2 0x1AA1 DUP4 PUSH4 0xA9059CBB PUSH1 0xE0 SHL DUP5 DUP5 PUSH1 0x40 MLOAD PUSH1 0x24 ADD PUSH2 0x1A3F SWAP3 SWAP2 SWAP1 PUSH2 0x22DC JUMP JUMPDEST PUSH1 0x40 MLOAD PUSH1 0x20 DUP2 DUP4 SUB SUB DUP2 MSTORE SWAP1 PUSH1 0x40 MSTORE SWAP1 PUSH28 0xFFFFFFFFFFFFFFFFFFFFFFFFFFFFFFFFFFFFFFFFFFFFFFFFFFFFFFFF NOT AND PUSH1 0x20 DUP3 ADD DUP1 MLOAD PUSH28 0xFFFFFFFFFFFFFFFFFFFFFFFFFFFFFFFFFFFFFFFFFFFFFFFFFFFFFFFF DUP4 DUP2 DUP4 AND OR DUP4 MSTORE POP POP POP POP PUSH2 0x1BFB JUMP JUMPDEST POP POP POP JUMP JUMPDEST PUSH1 0x0 CALLER SWAP1 POP SWAP1 JUMP JUMPDEST PUSH1 0x0 DUP1 PUSH1 0x0 SWAP1 SLOAD SWAP1 PUSH2 0x100 EXP SWAP1 DIV PUSH20 0xFFFFFFFFFFFFFFFFFFFFFFFFFFFFFFFFFFFFFFFF AND SWAP1 POP DUP2 PUSH1 0x0 DUP1 PUSH2 0x100 EXP DUP2 SLOAD DUP2 PUSH20 0xFFFFFFFFFFFFFFFFFFFFFFFFFFFFFFFFFFFFFFFF MUL NOT AND SWAP1 DUP4 PUSH20 0xFFFFFFFFFFFFFFFFFFFFFFFFFFFFFFFFFFFFFFFF AND MUL OR SWAP1 SSTORE POP DUP2 PUSH20 0xFFFFFFFFFFFFFFFFFFFFFFFFFFFFFFFFFFFFFFFF AND DUP2 PUSH20 0xFFFFFFFFFFFFFFFFFFFFFFFFFFFFFFFFFFFFFFFF AND PUSH32 0x8BE0079C531659141344CD1FD0A4F28419497F9722A3DAAFE3B4186F6B6457E0 PUSH1 0x40 MLOAD PUSH1 0x40 MLOAD DUP1 SWAP2 SUB SWAP1 LOG3 POP POP JUMP JUMPDEST PUSH2 0x1BF5 DUP5 PUSH4 0x23B872DD PUSH1 0xE0 SHL DUP6 DUP6 DUP6 PUSH1 0x40 MLOAD PUSH1 0x24 ADD PUSH2 0x1B93 SWAP4 SWAP3 SWAP2 SWAP1 PUSH2 0x22A5 JUMP JUMPDEST PUSH1 0x40 MLOAD PUSH1 0x20 DUP2 DUP4 SUB SUB DUP2 MSTORE SWAP1 PUSH1 0x40 MSTORE SWAP1 PUSH28 0xFFFFFFFFFFFFFFFFFFFFFFFFFFFFFFFFFFFFFFFFFFFFFFFFFFFFFFFF NOT AND PUSH1 0x20 DUP3 ADD DUP1 MLOAD PUSH28 0xFFFFFFFFFFFFFFFFFFFFFFFFFFFFFFFFFFFFFFFFFFFFFFFFFFFFFFFF DUP4 DUP2 DUP4 AND OR DUP4 MSTORE POP POP POP POP PUSH2 0x1BFB JUMP JUMPDEST POP POP POP POP JUMP JUMPDEST PUSH1 0x0 PUSH2 0x1C5D DUP3 PUSH1 0x40 MLOAD DUP1 PUSH1 0x40 ADD PUSH1 0x40 MSTORE DUP1 PUSH1 0x20 DUP2 MSTORE PUSH1 0x20 ADD PUSH32 0x5361666542455032303A206C6F772D6C6576656C2063616C6C206661696C6564 DUP2 MSTORE POP DUP6 PUSH20 0xFFFFFFFFFFFFFFFFFFFFFFFFFFFFFFFFFFFFFFFF AND PUSH2 0x1CC2 SWAP1 SWAP3 SWAP2 SWAP1 PUSH4 0xFFFFFFFF AND JUMP JUMPDEST SWAP1 POP PUSH1 0x0 DUP2 MLOAD GT ISZERO PUSH2 0x1CBD JUMPI DUP1 DUP1 PUSH1 0x20 ADD SWAP1 MLOAD DUP2 ADD SWAP1 PUSH2 0x1C7D SWAP2 SWAP1 PUSH2 0x1EF9 JUMP JUMPDEST PUSH2 0x1CBC JUMPI PUSH1 0x40 MLOAD PUSH32 0x8C379A000000000000000000000000000000000000000000000000000000000 DUP2 MSTORE PUSH1 0x4 ADD PUSH2 0x1CB3 SWAP1 PUSH2 0x239D JUMP JUMPDEST PUSH1 0x40 MLOAD DUP1 SWAP2 SUB SWAP1 REVERT JUMPDEST JUMPDEST POP POP POP JUMP JUMPDEST PUSH1 0x60 PUSH2 0x1CD1 DUP5 DUP5 PUSH1 0x0 DUP6 PUSH2 0x1CDA JUMP JUMPDEST SWAP1 POP SWAP4 SWAP3 POP POP POP JUMP JUMPDEST PUSH1 0x60 DUP3 SELFBALANCE LT ISZERO PUSH2 0x1D1F JUMPI PUSH1 0x40 MLOAD PUSH32 0x8C379A000000000000000000000000000000000000000000000000000000000 DUP2 MSTORE PUSH1 0x4 ADD PUSH2 0x1D16 SWAP1 PUSH2 0x241D JUMP JUMPDEST PUSH1 0x40 MLOAD DUP1 SWAP2 SUB SWAP1 REVERT JUMPDEST PUSH2 0x1D28 DUP6 PUSH2 0x1DEE JUMP JUMPDEST PUSH2 0x1D67 JUMPI PUSH1 0x40 MLOAD PUSH32 0x8C379A000000000000000000000000000000000000000000000000000000000 DUP2 MSTORE PUSH1 0x4 ADD PUSH2 0x1D5E SWAP1 PUSH2 0x249D JUMP JUMPDEST PUSH1 0x40 MLOAD DUP1 SWAP2 SUB SWAP1 REVERT JUMPDEST PUSH1 0x0 DUP1 DUP7 PUSH20 0xFFFFFFFFFFFFFFFFFFFFFFFFFFFFFFFFFFFFFFFF AND DUP6 DUP8 PUSH1 0x40 MLOAD PUSH2 0x1D90 SWAP2 SWAP1 PUSH2 0x2273 JUMP JUMPDEST PUSH1 0x0 PUSH1 0x40 MLOAD DUP1 DUP4 SUB DUP2 DUP6 DUP8 GAS CALL SWAP3 POP POP POP RETURNDATASIZE DUP1 PUSH1 0x0 DUP2 EQ PUSH2 0x1DCD JUMPI PUSH1 0x40 MLOAD SWAP2 POP PUSH1 0x1F NOT PUSH1 0x3F RETURNDATASIZE ADD AND DUP3 ADD PUSH1 0x40 MSTORE RETURNDATASIZE DUP3 MSTORE RETURNDATASIZE PUSH1 0x0 PUSH1 0x20 DUP5 ADD RETURNDATACOPY PUSH2 0x1DD2 JUMP JUMPDEST PUSH1 0x60 SWAP2 POP JUMPDEST POP SWAP2 POP SWAP2 POP PUSH2 0x1DE2 DUP3 DUP3 DUP7 PUSH2 0x1E11 JUMP JUMPDEST SWAP3 POP POP POP SWAP5 SWAP4 POP POP POP POP JUMP JUMPDEST PUSH1 0x0 DUP1 DUP3 PUSH20 0xFFFFFFFFFFFFFFFFFFFFFFFFFFFFFFFFFFFFFFFF AND EXTCODESIZE GT SWAP1 POP SWAP2 SWAP1 POP JUMP JUMPDEST PUSH1 0x60 DUP4 ISZERO PUSH2 0x1E21 JUMPI DUP3 SWAP1 POP PUSH2 0x1E71 JUMP JUMPDEST PUSH1 0x0 DUP4 MLOAD GT ISZERO PUSH2 0x1E34 JUMPI DUP3 MLOAD DUP1 DUP5 PUSH1 0x20 ADD REVERT JUMPDEST DUP2 PUSH1 0x40 MLOAD PUSH32 0x8C379A000000000000000000000000000000000000000000000000000000000 DUP2 MSTORE PUSH1 0x4 ADD PUSH2 0x1E68 SWAP2 SWAP1 PUSH2 0x233B JUMP JUMPDEST PUSH1 0x40 MLOAD DUP1 SWAP2 SUB SWAP1 REVERT JUMPDEST SWAP4 SWAP3 POP POP POP JUMP JUMPDEST PUSH1 0x0 DUP2 CALLDATALOAD SWAP1 POP PUSH2 0x1E87 DUP2 PUSH2 0x2ACE JUMP JUMPDEST SWAP3 SWAP2 POP POP JUMP JUMPDEST PUSH1 0x0 DUP2 MLOAD SWAP1 POP PUSH2 0x1E9C DUP2 PUSH2 0x2AE5 JUMP JUMPDEST SWAP3 SWAP2 POP POP JUMP JUMPDEST PUSH1 0x0 DUP2 CALLDATALOAD SWAP1 POP PUSH2 0x1EB1 DUP2 PUSH2 0x2AFC JUMP JUMPDEST SWAP3 SWAP2 POP POP JUMP JUMPDEST PUSH1 0x0 DUP2 MLOAD SWAP1 POP PUSH2 0x1EC6 DUP2 PUSH2 0x2AFC JUMP JUMPDEST SWAP3 SWAP2 POP POP JUMP JUMPDEST PUSH1 0x0 PUSH1 0x20 DUP3 DUP5 SUB SLT ISZERO PUSH2 0x1EE2 JUMPI PUSH2 0x1EE1 PUSH2 0x27DF JUMP JUMPDEST JUMPDEST PUSH1 0x0 PUSH2 0x1EF0 DUP5 DUP3 DUP6 ADD PUSH2 0x1E78 JUMP JUMPDEST SWAP2 POP POP SWAP3 SWAP2 POP POP JUMP JUMPDEST PUSH1 0x0 PUSH1 0x20 DUP3 DUP5 SUB SLT ISZERO PUSH2 0x1F0F JUMPI PUSH2 0x1F0E PUSH2 0x27DF JUMP JUMPDEST JUMPDEST PUSH1 0x0 PUSH2 0x1F1D DUP5 DUP3 DUP6 ADD PUSH2 0x1E8D JUMP JUMPDEST SWAP2 POP POP SWAP3 SWAP2 POP POP JUMP JUMPDEST PUSH1 0x0 PUSH1 0x20 DUP3 DUP5 SUB SLT ISZERO PUSH2 0x1F3C JUMPI PUSH2 0x1F3B PUSH2 0x27DF JUMP JUMPDEST JUMPDEST PUSH1 0x0 PUSH2 0x1F4A DUP5 DUP3 DUP6 ADD PUSH2 0x1EA2 JUMP JUMPDEST SWAP2 POP POP SWAP3 SWAP2 POP POP JUMP JUMPDEST PUSH1 0x0 PUSH1 0x20 DUP3 DUP5 SUB SLT ISZERO PUSH2 0x1F69 JUMPI PUSH2 0x1F68 PUSH2 0x27DF JUMP JUMPDEST JUMPDEST PUSH1 0x0 PUSH2 0x1F77 DUP5 DUP3 DUP6 ADD PUSH2 0x1EB7 JUMP JUMPDEST SWAP2 POP POP SWAP3 SWAP2 POP POP JUMP JUMPDEST PUSH1 0x0 DUP1 PUSH1 0x40 DUP4 DUP6 SUB SLT ISZERO PUSH2 0x1F97 JUMPI PUSH2 0x1F96 PUSH2 0x27DF JUMP JUMPDEST JUMPDEST PUSH1 0x0 PUSH2 0x1FA5 DUP6 DUP3 DUP7 ADD PUSH2 0x1EA2 JUMP JUMPDEST SWAP3 POP POP PUSH1 0x20 PUSH2 0x1FB6 DUP6 DUP3 DUP7 ADD PUSH2 0x1EA2 JUMP JUMPDEST SWAP2 POP POP SWAP3 POP SWAP3 SWAP1 POP JUMP JUMPDEST PUSH2 0x1FC9 DUP2 PUSH2 0x269F JUMP JUMPDEST DUP3 MSTORE POP POP JUMP JUMPDEST PUSH2 0x1FD8 DUP2 PUSH2 0x26B1 JUMP JUMPDEST DUP3 MSTORE POP POP JUMP JUMPDEST PUSH1 0x0 PUSH2 0x1FE9 DUP3 PUSH2 0x2558 JUMP JUMPDEST PUSH2 0x1FF3 DUP2 DUP6 PUSH2 0x256E JUMP JUMPDEST SWAP4 POP PUSH2 0x2003 DUP2 DUP6 PUSH1 0x20 DUP7 ADD PUSH2 0x271D JUMP JUMPDEST DUP1 DUP5 ADD SWAP2 POP POP SWAP3 SWAP2 POP POP JUMP JUMPDEST PUSH2 0x2018 DUP2 PUSH2 0x26E7 JUMP JUMPDEST DUP3 MSTORE POP POP JUMP JUMPDEST PUSH1 0x0 PUSH2 0x2029 DUP3 PUSH2 0x2563 JUMP JUMPDEST PUSH2 0x2033 DUP2 DUP6 PUSH2 0x2579 JUMP JUMPDEST SWAP4 POP PUSH2 0x2043 DUP2 DUP6 PUSH1 0x20 DUP7 ADD PUSH2 0x271D JUMP JUMPDEST PUSH2 0x204C DUP2 PUSH2 0x27E4 JUMP JUMPDEST DUP5 ADD SWAP2 POP POP SWAP3 SWAP2 POP POP JUMP JUMPDEST PUSH1 0x0 PUSH2 0x2064 PUSH1 0x10 DUP4 PUSH2 0x2579 JUMP JUMPDEST SWAP2 POP PUSH2 0x206F DUP3 PUSH2 0x27F5 JUMP JUMPDEST PUSH1 0x20 DUP3 ADD SWAP1 POP SWAP2 SWAP1 POP JUMP JUMPDEST PUSH1 0x0 PUSH2 0x2087 PUSH1 0x15 DUP4 PUSH2 0x2579 JUMP JUMPDEST SWAP2 POP PUSH2 0x2092 DUP3 PUSH2 0x281E JUMP JUMPDEST PUSH1 0x20 DUP3 ADD SWAP1 POP SWAP2 SWAP1 POP JUMP JUMPDEST PUSH1 0x0 PUSH2 0x20AA PUSH1 0x2A DUP4 PUSH2 0x2579 JUMP JUMPDEST SWAP2 POP PUSH2 0x20B5 DUP3 PUSH2 0x2847 JUMP JUMPDEST PUSH1 0x40 DUP3 ADD SWAP1 POP SWAP2 SWAP1 POP JUMP JUMPDEST PUSH1 0x0 PUSH2 0x20CD PUSH1 0x26 DUP4 PUSH2 0x2579 JUMP JUMPDEST SWAP2 POP PUSH2 0x20D8 DUP3 PUSH2 0x2896 JUMP JUMPDEST PUSH1 0x40 DUP3 ADD SWAP1 POP SWAP2 SWAP1 POP JUMP JUMPDEST PUSH1 0x0 PUSH2 0x20F0 PUSH1 0xE DUP4 PUSH2 0x2579 JUMP JUMPDEST SWAP2 POP PUSH2 0x20FB DUP3 PUSH2 0x28E5 JUMP JUMPDEST PUSH1 0x20 DUP3 ADD SWAP1 POP SWAP2 SWAP1 POP JUMP JUMPDEST PUSH1 0x0 PUSH2 0x2113 PUSH1 0xF DUP4 PUSH2 0x2579 JUMP JUMPDEST SWAP2 POP PUSH2 0x211E DUP3 PUSH2 0x290E JUMP JUMPDEST PUSH1 0x20 DUP3 ADD SWAP1 POP SWAP2 SWAP1 POP JUMP JUMPDEST PUSH1 0x0 PUSH2 0x2136 PUSH1 0x26 DUP4 PUSH2 0x2579 JUMP JUMPDEST SWAP2 POP PUSH2 0x2141 DUP3 PUSH2 0x2937 JUMP JUMPDEST PUSH1 0x40 DUP3 ADD SWAP1 POP SWAP2 SWAP1 POP JUMP JUMPDEST PUSH1 0x0 PUSH2 0x2159 PUSH1 0x1F DUP4 PUSH2 0x2579 JUMP JUMPDEST SWAP2 POP PUSH2 0x2164 DUP3 PUSH2 0x2986 JUMP JUMPDEST PUSH1 0x20 DUP3 ADD SWAP1 POP SWAP2 SWAP1 POP JUMP JUMPDEST PUSH1 0x0 PUSH2 0x217C PUSH1 0x20 DUP4 PUSH2 0x2579 JUMP JUMPDEST SWAP2 POP PUSH2 0x2187 DUP3 PUSH2 0x29AF JUMP JUMPDEST PUSH1 0x20 DUP3 ADD SWAP1 POP SWAP2 SWAP1 POP JUMP JUMPDEST PUSH1 0x0 PUSH2 0x219F PUSH1 0xD DUP4 PUSH2 0x2579 JUMP JUMPDEST SWAP2 POP PUSH2 0x21AA DUP3 PUSH2 0x29D8 JUMP JUMPDEST PUSH1 0x20 DUP3 ADD SWAP1 POP SWAP2 SWAP1 POP JUMP JUMPDEST PUSH1 0x0 PUSH2 0x21C2 PUSH1 0x1D DUP4 PUSH2 0x2579 JUMP JUMPDEST SWAP2 POP PUSH2 0x21CD DUP3 PUSH2 0x2A01 JUMP JUMPDEST PUSH1 0x20 DUP3 ADD SWAP1 POP SWAP2 SWAP1 POP JUMP JUMPDEST PUSH1 0x0 PUSH2 0x21E5 PUSH1 0x1A DUP4 PUSH2 0x2579 JUMP JUMPDEST SWAP2 POP PUSH2 0x21F0 DUP3 PUSH2 0x2A2A JUMP JUMPDEST PUSH1 0x20 DUP3 ADD SWAP1 POP SWAP2 SWAP1 POP JUMP JUMPDEST PUSH1 0x0 PUSH2 0x2208 PUSH1 0x17 DUP4 PUSH2 0x2579 JUMP JUMPDEST SWAP2 POP PUSH2 0x2213 DUP3 PUSH2 0x2A53 JUMP JUMPDEST PUSH1 0x20 DUP3 ADD SWAP1 POP SWAP2 SWAP1 POP JUMP JUMPDEST PUSH1 0x0 PUSH2 0x222B PUSH1 0xD DUP4 PUSH2 0x2579 JUMP JUMPDEST SWAP2 POP PUSH2 0x2236 DUP3 PUSH2 0x2A7C JUMP JUMPDEST PUSH1 0x20 DUP3 ADD SWAP1 POP SWAP2 SWAP1 POP JUMP JUMPDEST PUSH1 0x0 PUSH2 0x224E PUSH1 0xD DUP4 PUSH2 0x2579 JUMP JUMPDEST SWAP2 POP PUSH2 0x2259 DUP3 PUSH2 0x2AA5 JUMP JUMPDEST PUSH1 0x20 DUP3 ADD SWAP1 POP SWAP2 SWAP1 POP JUMP JUMPDEST PUSH2 0x226D DUP2 PUSH2 0x26DD JUMP JUMPDEST DUP3 MSTORE POP POP JUMP JUMPDEST PUSH1 0x0 PUSH2 0x227F DUP3 DUP5 PUSH2 0x1FDE JUMP JUMPDEST SWAP2 POP DUP2 SWAP1 POP SWAP3 SWAP2 POP POP JUMP JUMPDEST PUSH1 0x0 PUSH1 0x20 DUP3 ADD SWAP1 POP PUSH2 0x229F PUSH1 0x0 DUP4 ADD DUP5 PUSH2 0x1FC0 JUMP JUMPDEST SWAP3 SWAP2 POP POP JUMP JUMPDEST PUSH1 0x0 PUSH1 0x60 DUP3 ADD SWAP1 POP PUSH2 0x22BA PUSH1 0x0 DUP4 ADD DUP7 PUSH2 0x1FC0 JUMP JUMPDEST PUSH2 0x22C7 PUSH1 0x20 DUP4 ADD DUP6 PUSH2 0x1FC0 JUMP JUMPDEST PUSH2 0x22D4 PUSH1 0x40 DUP4 ADD DUP5 PUSH2 0x2264 JUMP JUMPDEST SWAP5 SWAP4 POP POP POP POP JUMP JUMPDEST PUSH1 0x0 PUSH1 0x40 DUP3 ADD SWAP1 POP PUSH2 0x22F1 PUSH1 0x0 DUP4 ADD DUP6 PUSH2 0x1FC0 JUMP JUMPDEST PUSH2 0x22FE PUSH1 0x20 DUP4 ADD DUP5 PUSH2 0x2264 JUMP JUMPDEST SWAP4 SWAP3 POP POP POP JUMP JUMPDEST PUSH1 0x0 PUSH1 0x20 DUP3 ADD SWAP1 POP PUSH2 0x231A PUSH1 0x0 DUP4 ADD DUP5 PUSH2 0x1FCF JUMP JUMPDEST SWAP3 SWAP2 POP POP JUMP JUMPDEST PUSH1 0x0 PUSH1 0x20 DUP3 ADD SWAP1 POP PUSH2 0x2335 PUSH1 0x0 DUP4 ADD DUP5 PUSH2 0x200F JUMP JUMPDEST SWAP3 SWAP2 POP POP JUMP JUMPDEST PUSH1 0x0 PUSH1 0x20 DUP3 ADD SWAP1 POP DUP2 DUP2 SUB PUSH1 0x0 DUP4 ADD MSTORE PUSH2 0x2355 DUP2 DUP5 PUSH2 0x201E JUMP JUMPDEST SWAP1 POP SWAP3 SWAP2 POP POP JUMP JUMPDEST PUSH1 0x0 PUSH1 0x20 DUP3 ADD SWAP1 POP DUP2 DUP2 SUB PUSH1 0x0 DUP4 ADD MSTORE PUSH2 0x2376 DUP2 PUSH2 0x2057 JUMP JUMPDEST SWAP1 POP SWAP2 SWAP1 POP JUMP JUMPDEST PUSH1 0x0 PUSH1 0x20 DUP3 ADD SWAP1 POP DUP2 DUP2 SUB PUSH1 0x0 DUP4 ADD MSTORE PUSH2 0x2396 DUP2 PUSH2 0x207A JUMP JUMPDEST SWAP1 POP SWAP2 SWAP1 POP JUMP JUMPDEST PUSH1 0x0 PUSH1 0x20 DUP3 ADD SWAP1 POP DUP2 DUP2 SUB PUSH1 0x0 DUP4 ADD MSTORE PUSH2 0x23B6 DUP2 PUSH2 0x209D JUMP JUMPDEST SWAP1 POP SWAP2 SWAP1 POP JUMP JUMPDEST PUSH1 0x0 PUSH1 0x20 DUP3 ADD SWAP1 POP DUP2 DUP2 SUB PUSH1 0x0 DUP4 ADD MSTORE PUSH2 0x23D6 DUP2 PUSH2 0x20C0 JUMP JUMPDEST SWAP1 POP SWAP2 SWAP1 POP JUMP JUMPDEST PUSH1 0x0 PUSH1 0x20 DUP3 ADD SWAP1 POP DUP2 DUP2 SUB PUSH1 0x0 DUP4 ADD MSTORE PUSH2 0x23F6 DUP2 PUSH2 0x20E3 JUMP JUMPDEST SWAP1 POP SWAP2 SWAP1 POP JUMP JUMPDEST PUSH1 0x0 PUSH1 0x20 DUP3 ADD SWAP1 POP DUP2 DUP2 SUB PUSH1 0x0 DUP4 ADD MSTORE PUSH2 0x2416 DUP2 PUSH2 0x2106 JUMP JUMPDEST SWAP1 POP SWAP2 SWAP1 POP JUMP JUMPDEST PUSH1 0x0 PUSH1 0x20 DUP3 ADD SWAP1 POP DUP2 DUP2 SUB PUSH1 0x0 DUP4 ADD MSTORE PUSH2 0x2436 DUP2 PUSH2 0x2129 JUMP JUMPDEST SWAP1 POP SWAP2 SWAP1 POP JUMP JUMPDEST PUSH1 0x0 PUSH1 0x20 DUP3 ADD SWAP1 POP DUP2 DUP2 SUB PUSH1 0x0 DUP4 ADD MSTORE PUSH2 0x2456 DUP2 PUSH2 0x214C JUMP JUMPDEST SWAP1 POP SWAP2 SWAP1 POP JUMP JUMPDEST PUSH1 0x0 PUSH1 0x20 DUP3 ADD SWAP1 POP DUP2 DUP2 SUB PUSH1 0x0 DUP4 ADD MSTORE PUSH2 0x2476 DUP2 PUSH2 0x216F JUMP JUMPDEST SWAP1 POP SWAP2 SWAP1 POP JUMP JUMPDEST PUSH1 0x0 PUSH1 0x20 DUP3 ADD SWAP1 POP DUP2 DUP2 SUB PUSH1 0x0 DUP4 ADD MSTORE PUSH2 0x2496 DUP2 PUSH2 0x2192 JUMP JUMPDEST SWAP1 POP SWAP2 SWAP1 POP JUMP JUMPDEST PUSH1 0x0 PUSH1 0x20 DUP3 ADD SWAP1 POP DUP2 DUP2 SUB PUSH1 0x0 DUP4 ADD MSTORE PUSH2 0x24B6 DUP2 PUSH2 0x21B5 JUMP JUMPDEST SWAP1 POP SWAP2 SWAP1 POP JUMP JUMPDEST PUSH1 0x0 PUSH1 0x20 DUP3 ADD SWAP1 POP DUP2 DUP2 SUB PUSH1 0x0 DUP4 ADD MSTORE PUSH2 0x24D6 DUP2 PUSH2 0x21D8 JUMP JUMPDEST SWAP1 POP SWAP2 SWAP1 POP JUMP JUMPDEST PUSH1 0x0 PUSH1 0x20 DUP3 ADD SWAP1 POP DUP2 DUP2 SUB PUSH1 0x0 DUP4 ADD MSTORE PUSH2 0x24F6 DUP2 PUSH2 0x21FB JUMP JUMPDEST SWAP1 POP SWAP2 SWAP1 POP JUMP JUMPDEST PUSH1 0x0 PUSH1 0x20 DUP3 ADD SWAP1 POP DUP2 DUP2 SUB PUSH1 0x0 DUP4 ADD MSTORE PUSH2 0x2516 DUP2 PUSH2 0x221E JUMP JUMPDEST SWAP1 POP SWAP2 SWAP1 POP JUMP JUMPDEST PUSH1 0x0 PUSH1 0x20 DUP3 ADD SWAP1 POP DUP2 DUP2 SUB PUSH1 0x0 DUP4 ADD MSTORE PUSH2 0x2536 DUP2 PUSH2 0x2241 JUMP JUMPDEST SWAP1 POP SWAP2 SWAP1 POP JUMP JUMPDEST PUSH1 0x0 PUSH1 0x20 DUP3 ADD SWAP1 POP PUSH2 0x2552 PUSH1 0x0 DUP4 ADD DUP5 PUSH2 0x2264 JUMP JUMPDEST SWAP3 SWAP2 POP POP JUMP JUMPDEST PUSH1 0x0 DUP2 MLOAD SWAP1 POP SWAP2 SWAP1 POP JUMP JUMPDEST PUSH1 0x0 DUP2 MLOAD SWAP1 POP SWAP2 SWAP1 POP JUMP JUMPDEST PUSH1 0x0 DUP2 SWAP1 POP SWAP3 SWAP2 POP POP JUMP JUMPDEST PUSH1 0x0 DUP3 DUP3 MSTORE PUSH1 0x20 DUP3 ADD SWAP1 POP SWAP3 SWAP2 POP POP JUMP JUMPDEST PUSH1 0x0 PUSH2 0x2595 DUP3 PUSH2 0x26DD JUMP JUMPDEST SWAP2 POP PUSH2 0x25A0 DUP4 PUSH2 0x26DD JUMP JUMPDEST SWAP3 POP DUP3 PUSH32 0xFFFFFFFFFFFFFFFFFFFFFFFFFFFFFFFFFFFFFFFFFFFFFFFFFFFFFFFFFFFFFFFF SUB DUP3 GT ISZERO PUSH2 0x25D5 JUMPI PUSH2 0x25D4 PUSH2 0x2781 JUMP JUMPDEST JUMPDEST DUP3 DUP3 ADD SWAP1 POP SWAP3 SWAP2 POP POP JUMP JUMPDEST PUSH1 0x0 PUSH2 0x25EB DUP3 PUSH2 0x26DD JUMP JUMPDEST SWAP2 POP PUSH2 0x25F6 DUP4 PUSH2 0x26DD JUMP JUMPDEST SWAP3 POP DUP3 PUSH2 0x2606 JUMPI PUSH2 0x2605 PUSH2 0x27B0 JUMP JUMPDEST JUMPDEST DUP3 DUP3 DIV SWAP1 POP SWAP3 SWAP2 POP POP JUMP JUMPDEST PUSH1 0x0 PUSH2 0x261C DUP3 PUSH2 0x26DD JUMP JUMPDEST SWAP2 POP PUSH2 0x2627 DUP4 PUSH2 0x26DD JUMP JUMPDEST SWAP3 POP DUP2 PUSH32 0xFFFFFFFFFFFFFFFFFFFFFFFFFFFFFFFFFFFFFFFFFFFFFFFFFFFFFFFFFFFFFFFF DIV DUP4 GT DUP3 ISZERO ISZERO AND ISZERO PUSH2 0x2660 JUMPI PUSH2 0x265F PUSH2 0x2781 JUMP JUMPDEST JUMPDEST DUP3 DUP3 MUL SWAP1 POP SWAP3 SWAP2 POP POP JUMP JUMPDEST PUSH1 0x0 PUSH2 0x2676 DUP3 PUSH2 0x26DD JUMP JUMPDEST SWAP2 POP PUSH2 0x2681 DUP4 PUSH2 0x26DD JUMP JUMPDEST SWAP3 POP DUP3 DUP3 LT ISZERO PUSH2 0x2694 JUMPI PUSH2 0x2693 PUSH2 0x2781 JUMP JUMPDEST JUMPDEST DUP3 DUP3 SUB SWAP1 POP SWAP3 SWAP2 POP POP JUMP JUMPDEST PUSH1 0x0 PUSH2 0x26AA DUP3 PUSH2 0x26BD JUMP JUMPDEST SWAP1 POP SWAP2 SWAP1 POP JUMP JUMPDEST PUSH1 0x0 DUP2 ISZERO ISZERO SWAP1 POP SWAP2 SWAP1 POP JUMP JUMPDEST PUSH1 0x0 PUSH20 0xFFFFFFFFFFFFFFFFFFFFFFFFFFFFFFFFFFFFFFFF DUP3 AND SWAP1 POP SWAP2 SWAP1 POP JUMP JUMPDEST PUSH1 0x0 DUP2 SWAP1 POP SWAP2 SWAP1 POP JUMP JUMPDEST PUSH1 0x0 PUSH2 0x26F2 DUP3 PUSH2 0x26F9 JUMP JUMPDEST SWAP1 POP SWAP2 SWAP1 POP JUMP JUMPDEST PUSH1 0x0 PUSH2 0x2704 DUP3 PUSH2 0x270B JUMP JUMPDEST SWAP1 POP SWAP2 SWAP1 POP JUMP JUMPDEST PUSH1 0x0 PUSH2 0x2716 DUP3 PUSH2 0x26BD JUMP JUMPDEST SWAP1 POP SWAP2 SWAP1 POP JUMP JUMPDEST PUSH1 0x0 JUMPDEST DUP4 DUP2 LT ISZERO PUSH2 0x273B JUMPI DUP1 DUP3 ADD MLOAD DUP2 DUP5 ADD MSTORE PUSH1 0x20 DUP2 ADD SWAP1 POP PUSH2 0x2720 JUMP JUMPDEST DUP4 DUP2 GT ISZERO PUSH2 0x274A JUMPI PUSH1 0x0 DUP5 DUP5 ADD MSTORE JUMPDEST POP POP POP POP JUMP JUMPDEST PUSH1 0x0 PUSH2 0x275B DUP3 PUSH2 0x26DD JUMP JUMPDEST SWAP2 POP PUSH2 0x2766 DUP4 PUSH2 0x26DD JUMP JUMPDEST SWAP3 POP DUP3 PUSH2 0x2776 JUMPI PUSH2 0x2775 PUSH2 0x27B0 JUMP JUMPDEST JUMPDEST DUP3 DUP3 MOD SWAP1 POP SWAP3 SWAP2 POP POP JUMP JUMPDEST PUSH32 0x4E487B7100000000000000000000000000000000000000000000000000000000 PUSH1 0x0 MSTORE PUSH1 0x11 PUSH1 0x4 MSTORE PUSH1 0x24 PUSH1 0x0 REVERT JUMPDEST PUSH32 0x4E487B7100000000000000000000000000000000000000000000000000000000 PUSH1 0x0 MSTORE PUSH1 0x12 PUSH1 0x4 MSTORE PUSH1 0x24 PUSH1 0x0 REVERT JUMPDEST PUSH1 0x0 DUP1 REVERT JUMPDEST PUSH1 0x0 PUSH1 0x1F NOT PUSH1 0x1F DUP4 ADD AND SWAP1 POP SWAP2 SWAP1 POP JUMP JUMPDEST PUSH32 0x4E6F7468696E6720746F20636C61696D00000000000000000000000000000000 PUSH1 0x0 DUP3 ADD MSTORE POP JUMP JUMPDEST PUSH32 0x4572726F723A20696E76616C6964207374616B65720000000000000000000000 PUSH1 0x0 DUP3 ADD MSTORE POP JUMP JUMPDEST PUSH32 0x5361666542455032303A204245503230206F7065726174696F6E20646964206E PUSH1 0x0 DUP3 ADD MSTORE PUSH32 0x6F74207375636365656400000000000000000000000000000000000000000000 PUSH1 0x20 DUP3 ADD MSTORE POP JUMP JUMPDEST PUSH32 0x4F776E61626C653A206E6577206F776E657220697320746865207A65726F2061 PUSH1 0x0 DUP3 ADD MSTORE PUSH32 0x6464726573730000000000000000000000000000000000000000000000000000 PUSH1 0x20 DUP3 ADD MSTORE POP JUMP JUMPDEST PUSH32 0x496E76616C696420616D6F756E74000000000000000000000000000000000000 PUSH1 0x0 DUP3 ADD MSTORE POP JUMP JUMPDEST PUSH32 0x416C726561647920737461727465640000000000000000000000000000000000 PUSH1 0x0 DUP3 ADD MSTORE POP JUMP JUMPDEST PUSH32 0x416464726573733A20696E73756666696369656E742062616C616E636520666F PUSH1 0x0 DUP3 ADD MSTORE PUSH32 0x722063616C6C0000000000000000000000000000000000000000000000000000 PUSH1 0x20 DUP3 ADD MSTORE POP JUMP JUMPDEST PUSH32 0x416D6F756E742073686F756C642062652067726561746572207468616E203000 PUSH1 0x0 DUP3 ADD MSTORE POP JUMP JUMPDEST PUSH32 0x4F776E61626C653A2063616C6C6572206973206E6F7420746865206F776E6572 PUSH1 0x0 DUP3 ADD MSTORE POP JUMP JUMPDEST PUSH32 0x496E76616C69642076616C756500000000000000000000000000000000000000 PUSH1 0x0 DUP3 ADD MSTORE POP JUMP JUMPDEST PUSH32 0x416464726573733A2063616C6C20746F206E6F6E2D636F6E7472616374000000 PUSH1 0x0 DUP3 ADD MSTORE POP JUMP JUMPDEST PUSH32 0x496E76616C696420556E7374616B696E67204665652052617465000000000000 PUSH1 0x0 DUP3 ADD MSTORE POP JUMP JUMPDEST PUSH32 0x496E76616C6964204C6F636B7570204475726174696F6E000000000000000000 PUSH1 0x0 DUP3 ADD MSTORE POP JUMP JUMPDEST PUSH32 0x43616E2774206265207A65726F00000000000000000000000000000000000000 PUSH1 0x0 DUP3 ADD MSTORE POP JUMP JUMPDEST PUSH32 0x496E73756666696369656E742100000000000000000000000000000000000000 PUSH1 0x0 DUP3 ADD MSTORE POP JUMP JUMPDEST PUSH2 0x2AD7 DUP2 PUSH2 0x269F JUMP JUMPDEST DUP2 EQ PUSH2 0x2AE2 JUMPI PUSH1 0x0 DUP1 REVERT JUMPDEST POP JUMP JUMPDEST PUSH2 0x2AEE DUP2 PUSH2 0x26B1 JUMP JUMPDEST DUP2 EQ PUSH2 0x2AF9 JUMPI PUSH1 0x0 DUP1 REVERT JUMPDEST POP JUMP JUMPDEST PUSH2 0x2B05 DUP2 PUSH2 0x26DD JUMP JUMPDEST DUP2 EQ PUSH2 0x2B10 JUMPI PUSH1 0x0 DUP1 REVERT JUMPDEST POP JUMP INVALID LOG2 PUSH5 0x6970667358 0x22 SLT KECCAK256 RETURNDATASIZE 0xC BLOCKHASH DUP10 ADDRESS SWAP9 PUSH12 0x222D745C906B6B3566D9D88E 0x24 EXTCODEHASH 0xE7 0x29 0xDA PUSH24 0x2E0F78C05DDA6B64736F6C63430008070033000000000000 "
				},
				"gasEstimates": {
					"creation": {
						"codeDepositCost": "2216200",
						"executionCost": "infinite",
						"totalCost": "infinite"
					},
					"external": {
						"getNumberofStakers()": "2512",
						"getRewardRate()": "2460",
						"getStakedAmount()": "2554",
						"getStakerMode()": "2578",
						"getTotalStaked()": "2461",
						"harvest()": "infinite",
						"isLocked()": "infinite",
						"isStartStaking()": "2599",
						"owner()": "2611",
						"renounceOwnership()": "30507",
						"rewardAmount()": "2642",
						"rewardToHarvest()": "2621",
						"setEventPeriod(uint256)": "infinite",
						"setLockupTime(uint256)": "24806",
						"setRewardRate(uint256)": "infinite",
						"setUnstakingFeeRate(uint256)": "infinite",
						"stake(uint256)": "infinite",
						"stakedAmount()": "2622",
						"startStaking(uint256,uint256)": "infinite",
						"token()": "2732",
						"totalStaked()": "2474",
						"transferOwnership(address)": "30811",
						"withdraw(uint256)": "infinite"
					},
					"internal": {
						"Init()": "infinite",
						"calDaysFromTimestamp(uint256)": "infinite",
						"updateReward()": "infinite"
					}
				},
				"methodIdentifiers": {
					"getNumberofStakers()": "5715ec11",
					"getRewardRate()": "7e1a3786",
					"getStakedAmount()": "a4e15db9",
					"getStakerMode()": "129488d3",
					"getTotalStaked()": "0917e776",
					"harvest()": "4641257d",
					"isLocked()": "a4e2d634",
					"isStartStaking()": "86187082",
					"owner()": "8da5cb5b",
					"renounceOwnership()": "715018a6",
					"rewardAmount()": "f7b2a7be",
					"rewardToHarvest()": "5d2ec65d",
					"setEventPeriod(uint256)": "692642e7",
					"setLockupTime(uint256)": "4b62b70b",
					"setRewardRate(uint256)": "9e447fc6",
					"setUnstakingFeeRate(uint256)": "91e07e7a",
					"stake(uint256)": "a694fc3a",
					"stakedAmount()": "373d6132",
					"startStaking(uint256,uint256)": "4b77dd9e",
					"token()": "fc0c546a",
					"totalStaked()": "817b1cd2",
					"transferOwnership(address)": "f2fde38b",
					"withdraw(uint256)": "2e1a7d4d"
				}
			},
			"userdoc": {
				"kind": "user",
				"methods": {},
				"version": 1
			}
		}
	}
}