{
	"Staking_flat.sol": {
		"StakingPlatform": {
			"abi": [
				{
					"inputs": [
						{
							"internalType": "address",
							"name": "_token",
							"type": "address"
						}
					],
					"stateMutability": "nonpayable",
					"type": "constructor"
				},
				{
					"anonymous": false,
					"inputs": [
						{
							"indexed": false,
							"internalType": "address",
							"name": "staker",
							"type": "address"
						},
						{
							"indexed": false,
							"internalType": "uint256",
							"name": "rewardToClaim",
							"type": "uint256"
						}
					],
					"name": "Harvest",
					"type": "event"
				},
				{
					"anonymous": false,
					"inputs": [
						{
							"indexed": true,
							"internalType": "address",
							"name": "previousOwner",
							"type": "address"
						},
						{
							"indexed": true,
							"internalType": "address",
							"name": "newOwner",
							"type": "address"
						}
					],
					"name": "OwnershipTransferred",
					"type": "event"
				},
				{
					"anonymous": false,
					"inputs": [
						{
							"indexed": false,
							"internalType": "uint256",
							"name": "lockupDuration",
							"type": "uint256"
						}
					],
					"name": "SetEventPeriod",
					"type": "event"
				},
				{
					"anonymous": false,
					"inputs": [
						{
							"indexed": false,
							"internalType": "uint256",
							"name": "rewardRate",
							"type": "uint256"
						}
					],
					"name": "SetRewardRate",
					"type": "event"
				},
				{
					"anonymous": false,
					"inputs": [
						{
							"indexed": false,
							"internalType": "uint256",
							"name": "unstakingFeeRate",
							"type": "uint256"
						}
					],
					"name": "SetUnstakingFeeRate",
					"type": "event"
				},
				{
					"anonymous": false,
					"inputs": [
						{
							"indexed": false,
							"internalType": "address",
							"name": "staker",
							"type": "address"
						},
						{
							"indexed": false,
							"internalType": "uint256",
							"name": "amount",
							"type": "uint256"
						}
					],
					"name": "Staked",
					"type": "event"
				},
				{
					"anonymous": false,
					"inputs": [
						{
							"indexed": false,
							"internalType": "address",
							"name": "staker",
							"type": "address"
						},
						{
							"indexed": false,
							"internalType": "uint256",
							"name": "amount",
							"type": "uint256"
						}
					],
					"name": "Withdraw",
					"type": "event"
				},
				{
					"inputs": [],
					"name": "getNumberofStakers",
					"outputs": [
						{
							"internalType": "uint256",
							"name": "",
							"type": "uint256"
						}
					],
					"stateMutability": "view",
					"type": "function"
				},
				{
					"inputs": [],
					"name": "getRewardRate",
					"outputs": [
						{
							"internalType": "uint256",
							"name": "",
							"type": "uint256"
						}
					],
					"stateMutability": "view",
					"type": "function"
				},
				{
					"inputs": [],
					"name": "getTotalStaked",
					"outputs": [
						{
							"internalType": "uint256",
							"name": "",
							"type": "uint256"
						}
					],
					"stateMutability": "view",
					"type": "function"
				},
				{
					"inputs": [],
					"name": "harvest",
					"outputs": [],
					"stateMutability": "nonpayable",
					"type": "function"
				},
				{
					"inputs": [],
					"name": "owner",
					"outputs": [
						{
							"internalType": "address",
							"name": "",
							"type": "address"
						}
					],
					"stateMutability": "view",
					"type": "function"
				},
				{
					"inputs": [],
					"name": "renounceOwnership",
					"outputs": [],
					"stateMutability": "nonpayable",
					"type": "function"
				},
				{
					"inputs": [],
					"name": "rewardAmount",
					"outputs": [
						{
							"internalType": "uint256",
							"name": "",
							"type": "uint256"
						}
					],
					"stateMutability": "view",
					"type": "function"
				},
				{
					"inputs": [],
					"name": "rewardToHarvest",
					"outputs": [
						{
							"internalType": "uint256",
							"name": "",
							"type": "uint256"
						}
					],
					"stateMutability": "view",
					"type": "function"
				},
				{
					"inputs": [
						{
							"internalType": "uint256",
							"name": "__eventPeriod",
							"type": "uint256"
						}
					],
					"name": "setEventPeriod",
					"outputs": [],
					"stateMutability": "nonpayable",
					"type": "function"
				},
				{
					"inputs": [
						{
							"internalType": "uint256",
							"name": "lockupTime",
							"type": "uint256"
						}
					],
					"name": "setLockupTime",
					"outputs": [],
					"stateMutability": "nonpayable",
					"type": "function"
				},
				{
					"inputs": [
						{
							"internalType": "uint256",
							"name": "__rewardRate",
							"type": "uint256"
						}
					],
					"name": "setRewardRate",
					"outputs": [],
					"stateMutability": "nonpayable",
					"type": "function"
				},
				{
					"inputs": [
						{
							"internalType": "uint256",
							"name": "__unstakingFeeRate",
							"type": "uint256"
						}
					],
					"name": "setUnstakingFeeRate",
					"outputs": [],
					"stateMutability": "nonpayable",
					"type": "function"
				},
				{
					"inputs": [
						{
							"internalType": "uint256",
							"name": "_amount",
							"type": "uint256"
						}
					],
					"name": "stake",
					"outputs": [],
					"stateMutability": "nonpayable",
					"type": "function"
				},
				{
					"inputs": [],
					"name": "stakedAmount",
					"outputs": [
						{
							"internalType": "uint256",
							"name": "",
							"type": "uint256"
						}
					],
					"stateMutability": "view",
					"type": "function"
				},
				{
					"inputs": [
						{
							"internalType": "uint256",
							"name": "_amount",
							"type": "uint256"
						},
						{
							"internalType": "uint256",
							"name": "_mode",
							"type": "uint256"
						}
					],
					"name": "startStaking",
					"outputs": [],
					"stateMutability": "nonpayable",
					"type": "function"
				},
				{
					"inputs": [],
					"name": "token",
					"outputs": [
						{
							"internalType": "contract IBEP20",
							"name": "",
							"type": "address"
						}
					],
					"stateMutability": "view",
					"type": "function"
				},
				{
					"inputs": [],
					"name": "totalStaked",
					"outputs": [
						{
							"internalType": "uint256",
							"name": "",
							"type": "uint256"
						}
					],
					"stateMutability": "view",
					"type": "function"
				},
				{
					"inputs": [
						{
							"internalType": "address",
							"name": "newOwner",
							"type": "address"
						}
					],
					"name": "transferOwnership",
					"outputs": [],
					"stateMutability": "nonpayable",
					"type": "function"
				},
				{
					"inputs": [
						{
							"internalType": "uint256",
							"name": "amount",
							"type": "uint256"
						}
					],
					"name": "withdraw",
					"outputs": [],
					"stateMutability": "nonpayable",
					"type": "function"
				}
			],
			"devdoc": {
				"kind": "dev",
				"methods": {
					"owner()": {
						"details": "Returns the address of the current owner."
					},
					"renounceOwnership()": {
						"details": "Leaves the contract without owner. It will not be possible to call `onlyOwner` functions anymore. Can only be called by the current owner. NOTE: Renouncing ownership will leave the contract without an owner, thereby removing any functionality that is only available to the owner."
					},
					"transferOwnership(address)": {
						"details": "Transfers ownership of the contract to a new account (`newOwner`). Can only be called by the current owner."
					}
				},
				"version": 1
			},
			"evm": {
				"assembly": "    /* \"Staking_flat.sol\":27335:34115  contract StakingPlatform is Ownable {... */\n  mstore(0x40, 0x80)\n    /* \"Staking_flat.sol\":28536:28628  constructor(address _token) {... */\n  callvalue\n  dup1\n  iszero\n  tag_1\n  jumpi\n  0x00\n  dup1\n  revert\ntag_1:\n  pop\n  mload(0x40)\n  sub(codesize, bytecodeSize)\n  dup1\n  bytecodeSize\n  dup4\n  codecopy\n  dup2\n  dup2\n  add\n  0x40\n  mstore\n  dup2\n  add\n  swap1\n  tag_2\n  swap2\n  swap1\n  tag_3\n  jump\t// in\ntag_2:\n    /* \"Staking_flat.sol\":25763:25795  _transferOwnership(_msgSender()) */\n  tag_7\n    /* \"Staking_flat.sol\":25782:25794  _msgSender() */\n  tag_8\n    /* \"Staking_flat.sol\":25782:25792  _msgSender */\n  shl(0x20, tag_9)\n    /* \"Staking_flat.sol\":25782:25794  _msgSender() */\n  0x20\n  shr\n  jump\t// in\ntag_8:\n    /* \"Staking_flat.sol\":25763:25781  _transferOwnership */\n  shl(0x20, tag_10)\n    /* \"Staking_flat.sol\":25763:25795  _transferOwnership(_msgSender()) */\n  0x20\n  shr\n  jump\t// in\ntag_7:\n    /* \"Staking_flat.sol\":28583:28589  Init() */\n  tag_12\n    /* \"Staking_flat.sol\":28583:28587  Init */\n  shl(0x20, tag_13)\n    /* \"Staking_flat.sol\":28583:28589  Init() */\n  0x20\n  shr\n  jump\t// in\ntag_12:\n    /* \"Staking_flat.sol\":28614:28620  _token */\n  dup1\n    /* \"Staking_flat.sol\":28599:28604  token */\n  0x09\n  0x00\n    /* \"Staking_flat.sol\":28599:28621  token = IBEP20(_token) */\n  0x0100\n  exp\n  dup2\n  sload\n  dup2\n  0xffffffffffffffffffffffffffffffffffffffff\n  mul\n  not\n  and\n  swap1\n  dup4\n  0xffffffffffffffffffffffffffffffffffffffff\n  and\n  mul\n  or\n  swap1\n  sstore\n  pop\n    /* \"Staking_flat.sol\":28536:28628  constructor(address _token) {... */\n  pop\n    /* \"Staking_flat.sol\":27335:34115  contract StakingPlatform is Ownable {... */\n  jump(tag_14)\n    /* \"Staking_flat.sol\":24669:24765  function _msgSender() internal view virtual returns (address) {... */\ntag_9:\n    /* \"Staking_flat.sol\":24722:24729  address */\n  0x00\n    /* \"Staking_flat.sol\":24748:24758  msg.sender */\n  caller\n    /* \"Staking_flat.sol\":24741:24758  return msg.sender */\n  swap1\n  pop\n    /* \"Staking_flat.sol\":24669:24765  function _msgSender() internal view virtual returns (address) {... */\n  swap1\n  jump\t// out\n    /* \"Staking_flat.sol\":27112:27299  function _transferOwnership(address newOwner) internal virtual {... */\ntag_10:\n    /* \"Staking_flat.sol\":27185:27201  address oldOwner */\n  0x00\n    /* \"Staking_flat.sol\":27204:27210  _owner */\n  dup1\n  0x00\n  swap1\n  sload\n  swap1\n  0x0100\n  exp\n  swap1\n  div\n  0xffffffffffffffffffffffffffffffffffffffff\n  and\n    /* \"Staking_flat.sol\":27185:27210  address oldOwner = _owner */\n  swap1\n  pop\n    /* \"Staking_flat.sol\":27229:27237  newOwner */\n  dup2\n    /* \"Staking_flat.sol\":27220:27226  _owner */\n  0x00\n  dup1\n    /* \"Staking_flat.sol\":27220:27237  _owner = newOwner */\n  0x0100\n  exp\n  dup2\n  sload\n  dup2\n  0xffffffffffffffffffffffffffffffffffffffff\n  mul\n  not\n  and\n  swap1\n  dup4\n  0xffffffffffffffffffffffffffffffffffffffff\n  and\n  mul\n  or\n  swap1\n  sstore\n  pop\n    /* \"Staking_flat.sol\":27283:27291  newOwner */\n  dup2\n    /* \"Staking_flat.sol\":27252:27292  OwnershipTransferred(oldOwner, newOwner) */\n  0xffffffffffffffffffffffffffffffffffffffff\n  and\n    /* \"Staking_flat.sol\":27273:27281  oldOwner */\n  dup2\n    /* \"Staking_flat.sol\":27252:27292  OwnershipTransferred(oldOwner, newOwner) */\n  0xffffffffffffffffffffffffffffffffffffffff\n  and\n  0x8be0079c531659141344cd1fd0a4f28419497f9722a3daafe3b4186f6b6457e0\n  mload(0x40)\n  mload(0x40)\n  dup1\n  swap2\n  sub\n  swap1\n  log3\n    /* \"Staking_flat.sol\":27175:27299  {... */\n  pop\n    /* \"Staking_flat.sol\":27112:27299  function _transferOwnership(address newOwner) internal virtual {... */\n  pop\n  jump\t// out\n    /* \"Staking_flat.sol\":28634:28841  function Init() internal {... */\ntag_13:\n    /* \"Staking_flat.sol\":28692:28695  200 */\n  0xc8\n    /* \"Staking_flat.sol\":28678:28689  _rewardRate */\n  0x03\n    /* \"Staking_flat.sol\":28678:28695  _rewardRate = 200 */\n  dup2\n  swap1\n  sstore\n  pop\n    /* \"Staking_flat.sol\":28736:28740  1500 */\n  0x05dc\n    /* \"Staking_flat.sol\":28716:28733  _unstakingFeeRate */\n  0x01\n    /* \"Staking_flat.sol\":28716:28740  _unstakingFeeRate = 1500 */\n  dup2\n  swap1\n  sstore\n  pop\n    /* \"Staking_flat.sol\":28767:28770  100 */\n  0x64\n    /* \"Staking_flat.sol\":28750:28764  _rewardFeeRate */\n  0x04\n    /* \"Staking_flat.sol\":28750:28770  _rewardFeeRate = 100 */\n  dup2\n  swap1\n  sstore\n  pop\n    /* \"Staking_flat.sol\":28795:28801  7 days */\n  0x093a80\n    /* \"Staking_flat.sol\":28780:28792  _eventPeriod */\n  0x02\n    /* \"Staking_flat.sol\":28780:28801  _eventPeriod = 7 days */\n  dup2\n  swap1\n  sstore\n  pop\n    /* \"Staking_flat.sol\":28827:28834  90 days */\n  0x76a700\n    /* \"Staking_flat.sol\":28811:28824  _lockupPeriod */\n  0x05\n    /* \"Staking_flat.sol\":28811:28834  _lockupPeriod = 90 days */\n  dup2\n  swap1\n  sstore\n  pop\n    /* \"Staking_flat.sol\":28634:28841  function Init() internal {... */\n  jump\t// out\n    /* \"#utility.yul\":7:150   */\ntag_19:\n    /* \"#utility.yul\":64:69   */\n  0x00\n    /* \"#utility.yul\":95:101   */\n  dup2\n    /* \"#utility.yul\":89:102   */\n  mload\n    /* \"#utility.yul\":80:102   */\n  swap1\n  pop\n    /* \"#utility.yul\":111:144   */\n  tag_21\n    /* \"#utility.yul\":138:143   */\n  dup2\n    /* \"#utility.yul\":111:144   */\n  tag_22\n  jump\t// in\ntag_21:\n    /* \"#utility.yul\":7:150   */\n  swap3\n  swap2\n  pop\n  pop\n  jump\t// out\n    /* \"#utility.yul\":156:507   */\ntag_3:\n    /* \"#utility.yul\":226:232   */\n  0x00\n    /* \"#utility.yul\":275:277   */\n  0x20\n    /* \"#utility.yul\":263:272   */\n  dup3\n    /* \"#utility.yul\":254:261   */\n  dup5\n    /* \"#utility.yul\":250:273   */\n  sub\n    /* \"#utility.yul\":246:278   */\n  slt\n    /* \"#utility.yul\":243:362   */\n  iszero\n  tag_24\n  jumpi\n    /* \"#utility.yul\":281:360   */\n  tag_25\n  tag_26\n  jump\t// in\ntag_25:\n    /* \"#utility.yul\":243:362   */\ntag_24:\n    /* \"#utility.yul\":401:402   */\n  0x00\n    /* \"#utility.yul\":426:490   */\n  tag_27\n    /* \"#utility.yul\":482:489   */\n  dup5\n    /* \"#utility.yul\":473:479   */\n  dup3\n    /* \"#utility.yul\":462:471   */\n  dup6\n    /* \"#utility.yul\":458:480   */\n  add\n    /* \"#utility.yul\":426:490   */\n  tag_19\n  jump\t// in\ntag_27:\n    /* \"#utility.yul\":416:490   */\n  swap2\n  pop\n    /* \"#utility.yul\":372:500   */\n  pop\n    /* \"#utility.yul\":156:507   */\n  swap3\n  swap2\n  pop\n  pop\n  jump\t// out\n    /* \"#utility.yul\":594:690   */\ntag_30:\n    /* \"#utility.yul\":631:638   */\n  0x00\n    /* \"#utility.yul\":660:684   */\n  tag_32\n    /* \"#utility.yul\":678:683   */\n  dup3\n    /* \"#utility.yul\":660:684   */\n  tag_33\n  jump\t// in\ntag_32:\n    /* \"#utility.yul\":649:684   */\n  swap1\n  pop\n    /* \"#utility.yul\":594:690   */\n  swap2\n  swap1\n  pop\n  jump\t// out\n    /* \"#utility.yul\":696:822   */\ntag_33:\n    /* \"#utility.yul\":733:740   */\n  0x00\n    /* \"#utility.yul\":773:815   */\n  0xffffffffffffffffffffffffffffffffffffffff\n    /* \"#utility.yul\":766:771   */\n  dup3\n    /* \"#utility.yul\":762:816   */\n  and\n    /* \"#utility.yul\":751:816   */\n  swap1\n  pop\n    /* \"#utility.yul\":696:822   */\n  swap2\n  swap1\n  pop\n  jump\t// out\n    /* \"#utility.yul\":951:1068   */\ntag_26:\n    /* \"#utility.yul\":1060:1061   */\n  0x00\n    /* \"#utility.yul\":1057:1058   */\n  dup1\n    /* \"#utility.yul\":1050:1062   */\n  revert\n    /* \"#utility.yul\":1074:1196   */\ntag_22:\n    /* \"#utility.yul\":1147:1171   */\n  tag_39\n    /* \"#utility.yul\":1165:1170   */\n  dup2\n    /* \"#utility.yul\":1147:1171   */\n  tag_30\n  jump\t// in\ntag_39:\n    /* \"#utility.yul\":1140:1145   */\n  dup2\n    /* \"#utility.yul\":1137:1172   */\n  eq\n    /* \"#utility.yul\":1127:1190   */\n  tag_40\n  jumpi\n    /* \"#utility.yul\":1186:1187   */\n  0x00\n    /* \"#utility.yul\":1183:1184   */\n  dup1\n    /* \"#utility.yul\":1176:1188   */\n  revert\n    /* \"#utility.yul\":1127:1190   */\ntag_40:\n    /* \"#utility.yul\":1074:1196   */\n  pop\n  jump\t// out\n    /* \"Staking_flat.sol\":27335:34115  contract StakingPlatform is Ownable {... */\ntag_14:\n  dataSize(sub_0)\n  dup1\n  dataOffset(sub_0)\n  0x00\n  codecopy\n  0x00\n  return\nstop\n\nsub_0: assembly {\n        /* \"Staking_flat.sol\":27335:34115  contract StakingPlatform is Ownable {... */\n      mstore(0x40, 0x80)\n      callvalue\n      dup1\n      iszero\n      tag_1\n      jumpi\n      0x00\n      dup1\n      revert\n    tag_1:\n      pop\n      jumpi(tag_2, lt(calldatasize, 0x04))\n      shr(0xe0, calldataload(0x00))\n      dup1\n      0x715018a6\n      gt\n      tag_22\n      jumpi\n      dup1\n      0x9e447fc6\n      gt\n      tag_23\n      jumpi\n      dup1\n      0x9e447fc6\n      eq\n      tag_17\n      jumpi\n      dup1\n      0xa694fc3a\n      eq\n      tag_18\n      jumpi\n      dup1\n      0xf2fde38b\n      eq\n      tag_19\n      jumpi\n      dup1\n      0xf7b2a7be\n      eq\n      tag_20\n      jumpi\n      dup1\n      0xfc0c546a\n      eq\n      tag_21\n      jumpi\n      jump(tag_2)\n    tag_23:\n      dup1\n      0x715018a6\n      eq\n      tag_12\n      jumpi\n      dup1\n      0x7e1a3786\n      eq\n      tag_13\n      jumpi\n      dup1\n      0x817b1cd2\n      eq\n      tag_14\n      jumpi\n      dup1\n      0x8da5cb5b\n      eq\n      tag_15\n      jumpi\n      dup1\n      0x91e07e7a\n      eq\n      tag_16\n      jumpi\n      jump(tag_2)\n    tag_22:\n      dup1\n      0x4b62b70b\n      gt\n      tag_24\n      jumpi\n      dup1\n      0x4b62b70b\n      eq\n      tag_7\n      jumpi\n      dup1\n      0x4b77dd9e\n      eq\n      tag_8\n      jumpi\n      dup1\n      0x5715ec11\n      eq\n      tag_9\n      jumpi\n      dup1\n      0x5d2ec65d\n      eq\n      tag_10\n      jumpi\n      dup1\n      0x692642e7\n      eq\n      tag_11\n      jumpi\n      jump(tag_2)\n    tag_24:\n      dup1\n      0x0917e776\n      eq\n      tag_3\n      jumpi\n      dup1\n      0x2e1a7d4d\n      eq\n      tag_4\n      jumpi\n      dup1\n      0x373d6132\n      eq\n      tag_5\n      jumpi\n      dup1\n      0x4641257d\n      eq\n      tag_6\n      jumpi\n    tag_2:\n      0x00\n      dup1\n      revert\n        /* \"Staking_flat.sol\":30586:30678  function getTotalStaked() public view returns (uint256) {... */\n    tag_3:\n      tag_25\n      tag_26\n      jump\t// in\n    tag_25:\n      mload(0x40)\n      tag_27\n      swap2\n      swap1\n      tag_28\n      jump\t// in\n    tag_27:\n      mload(0x40)\n      dup1\n      swap2\n      sub\n      swap1\n      return\n        /* \"Staking_flat.sol\":30828:31981  function withdraw(uint256 amount) external{... */\n    tag_4:\n      tag_29\n      0x04\n      dup1\n      calldatasize\n      sub\n      dup2\n      add\n      swap1\n      tag_30\n      swap2\n      swap1\n      tag_31\n      jump\t// in\n    tag_30:\n      tag_32\n      jump\t// in\n    tag_29:\n      stop\n        /* \"Staking_flat.sol\":33771:33890  function stakedAmount() public view returns (uint256) {... */\n    tag_5:\n      tag_33\n      tag_34\n      jump\t// in\n    tag_33:\n      mload(0x40)\n      tag_35\n      swap2\n      swap1\n      tag_28\n      jump\t// in\n    tag_35:\n      mload(0x40)\n      dup1\n      swap2\n      sub\n      swap1\n      return\n        /* \"Staking_flat.sol\":33147:33718  function harvest() public{... */\n    tag_6:\n      tag_36\n      tag_37\n      jump\t// in\n    tag_36:\n      stop\n        /* \"Staking_flat.sol\":32737:32894  function setLockupTime(uint256 lockupTime) external onlyOwner {... */\n    tag_7:\n      tag_38\n      0x04\n      dup1\n      calldatasize\n      sub\n      dup2\n      add\n      swap1\n      tag_39\n      swap2\n      swap1\n      tag_31\n      jump\t// in\n    tag_39:\n      tag_40\n      jump\t// in\n    tag_38:\n      stop\n        /* \"Staking_flat.sol\":29432:29928  function startStaking(uint256 _amount, uint256 _mode) external {... */\n    tag_8:\n      tag_41\n      0x04\n      dup1\n      calldatasize\n      sub\n      dup2\n      add\n      swap1\n      tag_42\n      swap2\n      swap1\n      tag_43\n      jump\t// in\n    tag_42:\n      tag_44\n      jump\t// in\n    tag_41:\n      stop\n        /* \"Staking_flat.sol\":30684:30784  function getNumberofStakers() public view returns (uint256) {... */\n    tag_9:\n      tag_45\n      tag_46\n      jump\t// in\n    tag_45:\n      mload(0x40)\n      tag_47\n      swap2\n      swap1\n      tag_28\n      jump\t// in\n    tag_47:\n      mload(0x40)\n      dup1\n      swap2\n      sub\n      swap1\n      return\n        /* \"Staking_flat.sol\":32954:33109  function rewardToHarvest() public view returns (uint256){... */\n    tag_10:\n      tag_48\n      tag_49\n      jump\t// in\n    tag_48:\n      mload(0x40)\n      tag_50\n      swap2\n      swap1\n      tag_28\n      jump\t// in\n    tag_50:\n      mload(0x40)\n      dup1\n      swap2\n      sub\n      swap1\n      return\n        /* \"Staking_flat.sol\":32217:32458  function setEventPeriod(uint256 __eventPeriod) external onlyOwner {... */\n    tag_11:\n      tag_51\n      0x04\n      dup1\n      calldatasize\n      sub\n      dup2\n      add\n      swap1\n      tag_52\n      swap2\n      swap1\n      tag_31\n      jump\t// in\n    tag_52:\n      tag_53\n      jump\t// in\n    tag_51:\n      stop\n        /* \"Staking_flat.sol\":26510:26611  function renounceOwnership() public virtual onlyOwner {... */\n    tag_12:\n      tag_54\n      tag_55\n      jump\t// in\n    tag_54:\n      stop\n        /* \"Staking_flat.sol\":34023:34113  function getRewardRate() public view returns (uint256) {... */\n    tag_13:\n      tag_56\n      tag_57\n      jump\t// in\n    tag_56:\n      mload(0x40)\n      tag_58\n      swap2\n      swap1\n      tag_28\n      jump\t// in\n    tag_58:\n      mload(0x40)\n      dup1\n      swap2\n      sub\n      swap1\n      return\n        /* \"Staking_flat.sol\":28087:28113  uint256 public totalStaked */\n    tag_14:\n      tag_59\n      tag_60\n      jump\t// in\n    tag_59:\n      mload(0x40)\n      tag_61\n      swap2\n      swap1\n      tag_28\n      jump\t// in\n    tag_61:\n      mload(0x40)\n      dup1\n      swap2\n      sub\n      swap1\n      return\n        /* \"Staking_flat.sol\":25878:25963  function owner() public view virtual returns (address) {... */\n    tag_15:\n      tag_62\n      tag_63\n      jump\t// in\n    tag_62:\n      mload(0x40)\n      tag_64\n      swap2\n      swap1\n      tag_65\n      jump\t// in\n    tag_64:\n      mload(0x40)\n      dup1\n      swap2\n      sub\n      swap1\n      return\n        /* \"Staking_flat.sol\":32464:32731  function setUnstakingFeeRate(uint256 __unstakingFeeRate) external onlyOwner {... */\n    tag_16:\n      tag_66\n      0x04\n      dup1\n      calldatasize\n      sub\n      dup2\n      add\n      swap1\n      tag_67\n      swap2\n      swap1\n      tag_31\n      jump\t// in\n    tag_67:\n      tag_68\n      jump\t// in\n    tag_66:\n      stop\n        /* \"Staking_flat.sol\":31991:32211  function setRewardRate(uint256 __rewardRate) external onlyOwner {... */\n    tag_17:\n      tag_69\n      0x04\n      dup1\n      calldatasize\n      sub\n      dup2\n      add\n      swap1\n      tag_70\n      swap2\n      swap1\n      tag_31\n      jump\t// in\n    tag_70:\n      tag_71\n      jump\t// in\n    tag_69:\n      stop\n        /* \"Staking_flat.sol\":29993:30580  function stake(uint256 _amount) public{... */\n    tag_18:\n      tag_72\n      0x04\n      dup1\n      calldatasize\n      sub\n      dup2\n      add\n      swap1\n      tag_73\n      swap2\n      swap1\n      tag_31\n      jump\t// in\n    tag_73:\n      tag_74\n      jump\t// in\n    tag_72:\n      stop\n        /* \"Staking_flat.sol\":26760:26958  function transferOwnership(address newOwner) public virtual onlyOwner {... */\n    tag_19:\n      tag_75\n      0x04\n      dup1\n      calldatasize\n      sub\n      dup2\n      add\n      swap1\n      tag_76\n      swap2\n      swap1\n      tag_77\n      jump\t// in\n    tag_76:\n      tag_78\n      jump\t// in\n    tag_75:\n      stop\n        /* \"Staking_flat.sol\":33900:34017  function rewardAmount() public view returns (uint256) {... */\n    tag_20:\n      tag_79\n      tag_80\n      jump\t// in\n    tag_79:\n      mload(0x40)\n      tag_81\n      swap2\n      swap1\n      tag_28\n      jump\t// in\n    tag_81:\n      mload(0x40)\n      dup1\n      swap2\n      sub\n      swap1\n      return\n        /* \"Staking_flat.sol\":28119:28138  IBEP20 public token */\n    tag_21:\n      tag_82\n      tag_83\n      jump\t// in\n    tag_82:\n      mload(0x40)\n      tag_84\n      swap2\n      swap1\n      tag_85\n      jump\t// in\n    tag_84:\n      mload(0x40)\n      dup1\n      swap2\n      sub\n      swap1\n      return\n        /* \"Staking_flat.sol\":30586:30678  function getTotalStaked() public view returns (uint256) {... */\n    tag_26:\n        /* \"Staking_flat.sol\":30633:30640  uint256 */\n      0x00\n        /* \"Staking_flat.sol\":30660:30671  totalStaked */\n      sload(0x08)\n        /* \"Staking_flat.sol\":30653:30671  return totalStaked */\n      swap1\n      pop\n        /* \"Staking_flat.sol\":30586:30678  function getTotalStaked() public view returns (uint256) {... */\n      swap1\n      jump\t// out\n        /* \"Staking_flat.sol\":30828:31981  function withdraw(uint256 amount) external{... */\n    tag_32:\n        /* \"Staking_flat.sol\":30889:30910  Staker storage staker */\n      0x00\n        /* \"Staking_flat.sol\":30913:30920  _staker */\n      0x07\n        /* \"Staking_flat.sol\":30913:30932  _staker[msg.sender] */\n      0x00\n        /* \"Staking_flat.sol\":30921:30931  msg.sender */\n      caller\n        /* \"Staking_flat.sol\":30913:30932  _staker[msg.sender] */\n      0xffffffffffffffffffffffffffffffffffffffff\n      and\n      0xffffffffffffffffffffffffffffffffffffffff\n      and\n      dup2\n      mstore\n      0x20\n      add\n      swap1\n      dup2\n      mstore\n      0x20\n      add\n      0x00\n      keccak256\n        /* \"Staking_flat.sol\":30889:30932  Staker storage staker = _staker[msg.sender] */\n      swap1\n      pop\n        /* \"Staking_flat.sol\":30960:30961  0 */\n      0x00\n        /* \"Staking_flat.sol\":30951:30957  amount */\n      dup3\n        /* \"Staking_flat.sol\":30951:30961  amount > 0 */\n      gt\n        /* \"Staking_flat.sol\":30943:30997  require(amount > 0, \"Amount should be greater than 0\") */\n      tag_88\n      jumpi\n      mload(0x40)\n      0x08c379a000000000000000000000000000000000000000000000000000000000\n      dup2\n      mstore\n      0x04\n      add\n      tag_89\n      swap1\n      tag_90\n      jump\t// in\n    tag_89:\n      mload(0x40)\n      dup1\n      swap2\n      sub\n      swap1\n      revert\n    tag_88:\n        /* \"Staking_flat.sol\":31025:31031  staker */\n      dup1\n        /* \"Staking_flat.sol\":31025:31044  staker.stakedAmount */\n      0x01\n      add\n      sload\n        /* \"Staking_flat.sol\":31015:31021  amount */\n      dup3\n        /* \"Staking_flat.sol\":31015:31044  amount <= staker.stakedAmount */\n      gt\n      iszero\n        /* \"Staking_flat.sol\":31007:31063  require(amount <= staker.stakedAmount, \"Invalid amount\") */\n      tag_91\n      jumpi\n      mload(0x40)\n      0x08c379a000000000000000000000000000000000000000000000000000000000\n      dup2\n      mstore\n      0x04\n      add\n      tag_92\n      swap1\n      tag_93\n      jump\t// in\n    tag_92:\n      mload(0x40)\n      dup1\n      swap2\n      sub\n      swap1\n      revert\n    tag_91:\n        /* \"Staking_flat.sol\":31074:31088  updateReward() */\n      tag_94\n        /* \"Staking_flat.sol\":31074:31086  updateReward */\n      tag_95\n        /* \"Staking_flat.sol\":31074:31088  updateReward() */\n      jump\t// in\n    tag_94:\n        /* \"Staking_flat.sol\":31098:31125  uint256 amountTobeWithdrawn */\n      0x00\n        /* \"Staking_flat.sol\":31137:31142  token */\n      0x09\n      0x00\n      swap1\n      sload\n      swap1\n      0x0100\n      exp\n      swap1\n      div\n      0xffffffffffffffffffffffffffffffffffffffff\n      and\n        /* \"Staking_flat.sol\":31137:31152  token.balanceOf */\n      0xffffffffffffffffffffffffffffffffffffffff\n      and\n      0x70a08231\n        /* \"Staking_flat.sol\":31161:31165  this */\n      address\n        /* \"Staking_flat.sol\":31137:31167  token.balanceOf(address(this)) */\n      mload(0x40)\n      dup3\n      0xffffffff\n      and\n      0xe0\n      shl\n      dup2\n      mstore\n      0x04\n      add\n      tag_96\n      swap2\n      swap1\n      tag_65\n      jump\t// in\n    tag_96:\n      0x20\n      mload(0x40)\n      dup1\n      dup4\n      sub\n      dup2\n      dup7\n      dup1\n      extcodesize\n      iszero\n      dup1\n      iszero\n      tag_97\n      jumpi\n      0x00\n      dup1\n      revert\n    tag_97:\n      pop\n      gas\n      staticcall\n      iszero\n      dup1\n      iszero\n      tag_99\n      jumpi\n      returndatasize\n      0x00\n      dup1\n      returndatacopy\n      revert(0x00, returndatasize)\n    tag_99:\n      pop\n      pop\n      pop\n      pop\n      mload(0x40)\n      returndatasize\n      not(0x1f)\n      0x1f\n      dup3\n      add\n      and\n      dup3\n      add\n      dup1\n      0x40\n      mstore\n      pop\n      dup2\n      add\n      swap1\n      tag_100\n      swap2\n      swap1\n      tag_101\n      jump\t// in\n    tag_100:\n        /* \"Staking_flat.sol\":31128:31134  amount */\n      dup4\n        /* \"Staking_flat.sol\":31128:31167  amount < token.balanceOf(address(this)) */\n      lt\n        /* \"Staking_flat.sol\":31128:31209  amount < token.balanceOf(address(this)) ? amount : token.balanceOf(address(this)) */\n      tag_102\n      jumpi\n        /* \"Staking_flat.sol\":31179:31184  token */\n      0x09\n      0x00\n      swap1\n      sload\n      swap1\n      0x0100\n      exp\n      swap1\n      div\n      0xffffffffffffffffffffffffffffffffffffffff\n      and\n        /* \"Staking_flat.sol\":31179:31194  token.balanceOf */\n      0xffffffffffffffffffffffffffffffffffffffff\n      and\n      0x70a08231\n        /* \"Staking_flat.sol\":31203:31207  this */\n      address\n        /* \"Staking_flat.sol\":31179:31209  token.balanceOf(address(this)) */\n      mload(0x40)\n      dup3\n      0xffffffff\n      and\n      0xe0\n      shl\n      dup2\n      mstore\n      0x04\n      add\n      tag_103\n      swap2\n      swap1\n      tag_65\n      jump\t// in\n    tag_103:\n      0x20\n      mload(0x40)\n      dup1\n      dup4\n      sub\n      dup2\n      dup7\n      dup1\n      extcodesize\n      iszero\n      dup1\n      iszero\n      tag_104\n      jumpi\n      0x00\n      dup1\n      revert\n    tag_104:\n      pop\n      gas\n      staticcall\n      iszero\n      dup1\n      iszero\n      tag_106\n      jumpi\n      returndatasize\n      0x00\n      dup1\n      returndatacopy\n      revert(0x00, returndatasize)\n    tag_106:\n      pop\n      pop\n      pop\n      pop\n      mload(0x40)\n      returndatasize\n      not(0x1f)\n      0x1f\n      dup3\n      add\n      and\n      dup3\n      add\n      dup1\n      0x40\n      mstore\n      pop\n      dup2\n      add\n      swap1\n      tag_107\n      swap2\n      swap1\n      tag_101\n      jump\t// in\n    tag_107:\n        /* \"Staking_flat.sol\":31128:31209  amount < token.balanceOf(address(this)) ? amount : token.balanceOf(address(this)) */\n      jump(tag_108)\n    tag_102:\n        /* \"Staking_flat.sol\":31170:31176  amount */\n      dup3\n        /* \"Staking_flat.sol\":31128:31209  amount < token.balanceOf(address(this)) ? amount : token.balanceOf(address(this)) */\n    tag_108:\n        /* \"Staking_flat.sol\":31098:31209  uint256 amountTobeWithdrawn = amount < token.balanceOf(address(this)) ? amount : token.balanceOf(address(this)) */\n      swap1\n      pop\n        /* \"Staking_flat.sol\":31219:31233  uint256 during */\n      0x00\n        /* \"Staking_flat.sol\":31236:31290  block.timestamp.sub(staker.stakeStartTime).div(1 days) */\n      tag_109\n        /* \"Staking_flat.sol\":31283:31289  1 days */\n      0x015180\n        /* \"Staking_flat.sol\":31236:31278  block.timestamp.sub(staker.stakeStartTime) */\n      tag_110\n        /* \"Staking_flat.sol\":31256:31262  staker */\n      dup6\n        /* \"Staking_flat.sol\":31256:31277  staker.stakeStartTime */\n      0x03\n      add\n      sload\n        /* \"Staking_flat.sol\":31236:31251  block.timestamp */\n      timestamp\n        /* \"Staking_flat.sol\":31236:31255  block.timestamp.sub */\n      tag_111\n      swap1\n        /* \"Staking_flat.sol\":31236:31278  block.timestamp.sub(staker.stakeStartTime) */\n      swap2\n      swap1\n      0xffffffff\n      and\n      jump\t// in\n    tag_110:\n        /* \"Staking_flat.sol\":31236:31282  block.timestamp.sub(staker.stakeStartTime).div */\n      tag_112\n      swap1\n        /* \"Staking_flat.sol\":31236:31290  block.timestamp.sub(staker.stakeStartTime).div(1 days) */\n      swap2\n      swap1\n      0xffffffff\n      and\n      jump\t// in\n    tag_109:\n        /* \"Staking_flat.sol\":31219:31290  uint256 during = block.timestamp.sub(staker.stakeStartTime).div(1 days) */\n      swap1\n      pop\n        /* \"Staking_flat.sol\":31300:31311  uint256 fee */\n      0x00\n        /* \"Staking_flat.sol\":31314:31317  100 */\n      0x64\n        /* \"Staking_flat.sol\":31300:31317  uint256 fee = 100 */\n      swap1\n      pop\n        /* \"Staking_flat.sol\":31327:31348  bool isLockupTimeOver */\n      0x00\n        /* \"Staking_flat.sol\":31366:31367  1 */\n      0x01\n        /* \"Staking_flat.sol\":31351:31357  staker */\n      dup6\n        /* \"Staking_flat.sol\":31351:31362  staker.mode */\n      0x02\n      add\n      sload\n        /* \"Staking_flat.sol\":31351:31367  staker.mode == 1 */\n      eq\n        /* \"Staking_flat.sol\":31351:31484  staker.mode == 1 ? during % _eventPeriod == 0 && during > 0 :... */\n      tag_113\n      jumpi\n        /* \"Staking_flat.sol\":31444:31484  staker.stakeStartTime.add(_lockupPeriod) */\n      tag_114\n        /* \"Staking_flat.sol\":31470:31483  _lockupPeriod */\n      sload(0x05)\n        /* \"Staking_flat.sol\":31444:31450  staker */\n      dup7\n        /* \"Staking_flat.sol\":31444:31465  staker.stakeStartTime */\n      0x03\n      add\n      sload\n        /* \"Staking_flat.sol\":31444:31469  staker.stakeStartTime.add */\n      tag_115\n      swap1\n        /* \"Staking_flat.sol\":31444:31484  staker.stakeStartTime.add(_lockupPeriod) */\n      swap2\n      swap1\n      0xffffffff\n      and\n      jump\t// in\n    tag_114:\n        /* \"Staking_flat.sol\":31425:31440  block.timestamp */\n      timestamp\n        /* \"Staking_flat.sol\":31425:31484  block.timestamp >= staker.stakeStartTime.add(_lockupPeriod) */\n      lt\n      iszero\n        /* \"Staking_flat.sol\":31351:31484  staker.mode == 1 ? during % _eventPeriod == 0 && during > 0 :... */\n      jump(tag_116)\n    tag_113:\n        /* \"Staking_flat.sol\":31395:31396  0 */\n      0x00\n        /* \"Staking_flat.sol\":31379:31391  _eventPeriod */\n      sload(0x02)\n        /* \"Staking_flat.sol\":31370:31376  during */\n      dup5\n        /* \"Staking_flat.sol\":31370:31391  during % _eventPeriod */\n      tag_117\n      swap2\n      swap1\n      tag_118\n      jump\t// in\n    tag_117:\n        /* \"Staking_flat.sol\":31370:31396  during % _eventPeriod == 0 */\n      eq\n        /* \"Staking_flat.sol\":31370:31410  during % _eventPeriod == 0 && during > 0 */\n      dup1\n      iszero\n      tag_119\n      jumpi\n      pop\n        /* \"Staking_flat.sol\":31409:31410  0 */\n      0x00\n        /* \"Staking_flat.sol\":31400:31406  during */\n      dup4\n        /* \"Staking_flat.sol\":31400:31410  during > 0 */\n      gt\n        /* \"Staking_flat.sol\":31370:31410  during % _eventPeriod == 0 && during > 0 */\n    tag_119:\n        /* \"Staking_flat.sol\":31351:31484  staker.mode == 1 ? during % _eventPeriod == 0 && during > 0 :... */\n    tag_116:\n        /* \"Staking_flat.sol\":31327:31484  bool isLockupTimeOver = staker.mode == 1 ? during % _eventPeriod == 0 && during > 0 :... */\n      swap1\n      pop\n        /* \"Staking_flat.sol\":31499:31515  isLockupTimeOver */\n      dup1\n        /* \"Staking_flat.sol\":31494:31565  if (!isLockupTimeOver) {... */\n      tag_120\n      jumpi\n        /* \"Staking_flat.sol\":31537:31554  _unstakingFeeRate */\n      sload(0x01)\n        /* \"Staking_flat.sol\":31531:31554  fee = _unstakingFeeRate */\n      swap2\n      pop\n        /* \"Staking_flat.sol\":31494:31565  if (!isLockupTimeOver) {... */\n    tag_120:\n        /* \"Staking_flat.sol\":31596:31658  amountTobeWithdrawn.sub(amountTobeWithdrawn.mul(fee).div(1e4)) */\n      tag_121\n        /* \"Staking_flat.sol\":31620:31657  amountTobeWithdrawn.mul(fee).div(1e4) */\n      tag_122\n        /* \"Staking_flat.sol\":31653:31656  1e4 */\n      0x2710\n        /* \"Staking_flat.sol\":31620:31648  amountTobeWithdrawn.mul(fee) */\n      tag_123\n        /* \"Staking_flat.sol\":31644:31647  fee */\n      dup6\n        /* \"Staking_flat.sol\":31620:31639  amountTobeWithdrawn */\n      dup9\n        /* \"Staking_flat.sol\":31620:31643  amountTobeWithdrawn.mul */\n      tag_124\n      swap1\n        /* \"Staking_flat.sol\":31620:31648  amountTobeWithdrawn.mul(fee) */\n      swap2\n      swap1\n      0xffffffff\n      and\n      jump\t// in\n    tag_123:\n        /* \"Staking_flat.sol\":31620:31652  amountTobeWithdrawn.mul(fee).div */\n      tag_112\n      swap1\n        /* \"Staking_flat.sol\":31620:31657  amountTobeWithdrawn.mul(fee).div(1e4) */\n      swap2\n      swap1\n      0xffffffff\n      and\n      jump\t// in\n    tag_122:\n        /* \"Staking_flat.sol\":31596:31615  amountTobeWithdrawn */\n      dup6\n        /* \"Staking_flat.sol\":31596:31619  amountTobeWithdrawn.sub */\n      tag_111\n      swap1\n        /* \"Staking_flat.sol\":31596:31658  amountTobeWithdrawn.sub(amountTobeWithdrawn.mul(fee).div(1e4)) */\n      swap2\n      swap1\n      0xffffffff\n      and\n      jump\t// in\n    tag_121:\n        /* \"Staking_flat.sol\":31574:31658  amountTobeWithdrawn = amountTobeWithdrawn.sub(amountTobeWithdrawn.mul(fee).div(1e4)) */\n      swap4\n      pop\n        /* \"Staking_flat.sol\":31682:31718  totalStaked.sub(amountTobeWithdrawn) */\n      tag_125\n        /* \"Staking_flat.sol\":31698:31717  amountTobeWithdrawn */\n      dup5\n        /* \"Staking_flat.sol\":31682:31693  totalStaked */\n      sload(0x08)\n        /* \"Staking_flat.sol\":31682:31697  totalStaked.sub */\n      tag_111\n      swap1\n        /* \"Staking_flat.sol\":31682:31718  totalStaked.sub(amountTobeWithdrawn) */\n      swap2\n      swap1\n      0xffffffff\n      and\n      jump\t// in\n    tag_125:\n        /* \"Staking_flat.sol\":31668:31679  totalStaked */\n      0x08\n        /* \"Staking_flat.sol\":31668:31718  totalStaked = totalStaked.sub(amountTobeWithdrawn) */\n      dup2\n      swap1\n      sstore\n      pop\n        /* \"Staking_flat.sol\":31750:31794  staker.stakedAmount.sub(amountTobeWithdrawn) */\n      tag_126\n        /* \"Staking_flat.sol\":31774:31793  amountTobeWithdrawn */\n      dup5\n        /* \"Staking_flat.sol\":31750:31756  staker */\n      dup7\n        /* \"Staking_flat.sol\":31750:31769  staker.stakedAmount */\n      0x01\n      add\n      sload\n        /* \"Staking_flat.sol\":31750:31773  staker.stakedAmount.sub */\n      tag_111\n      swap1\n        /* \"Staking_flat.sol\":31750:31794  staker.stakedAmount.sub(amountTobeWithdrawn) */\n      swap2\n      swap1\n      0xffffffff\n      and\n      jump\t// in\n    tag_126:\n        /* \"Staking_flat.sol\":31728:31734  staker */\n      dup6\n        /* \"Staking_flat.sol\":31728:31747  staker.stakedAmount */\n      0x01\n      add\n        /* \"Staking_flat.sol\":31728:31794  staker.stakedAmount = staker.stakedAmount.sub(amountTobeWithdrawn) */\n      dup2\n      swap1\n      sstore\n      pop\n        /* \"Staking_flat.sol\":31804:31855  token.safeTransfer(msg.sender, amountTobeWithdrawn) */\n      tag_127\n        /* \"Staking_flat.sol\":31823:31833  msg.sender */\n      caller\n        /* \"Staking_flat.sol\":31835:31854  amountTobeWithdrawn */\n      dup6\n        /* \"Staking_flat.sol\":31804:31809  token */\n      0x09\n      0x00\n      swap1\n      sload\n      swap1\n      0x0100\n      exp\n      swap1\n      div\n      0xffffffffffffffffffffffffffffffffffffffff\n      and\n        /* \"Staking_flat.sol\":31804:31822  token.safeTransfer */\n      0xffffffffffffffffffffffffffffffffffffffff\n      and\n      tag_128\n      swap1\n        /* \"Staking_flat.sol\":31804:31855  token.safeTransfer(msg.sender, amountTobeWithdrawn) */\n      swap3\n      swap2\n      swap1\n      0xffffffff\n      and\n      jump\t// in\n    tag_127:\n        /* \"Staking_flat.sol\":31871:31912  Withdraw(msg.sender, amountTobeWithdrawn) */\n      0x884edad9ce6fa2440d8a54cc123490eb96d2768479d49ff9c7366125a9424364\n        /* \"Staking_flat.sol\":31880:31890  msg.sender */\n      caller\n        /* \"Staking_flat.sol\":31892:31911  amountTobeWithdrawn */\n      dup6\n        /* \"Staking_flat.sol\":31871:31912  Withdraw(msg.sender, amountTobeWithdrawn) */\n      mload(0x40)\n      tag_129\n      swap3\n      swap2\n      swap1\n      tag_130\n      jump\t// in\n    tag_129:\n      mload(0x40)\n      dup1\n      swap2\n      sub\n      swap1\n      log1\n        /* \"Staking_flat.sol\":30870:31981  {... */\n      pop\n      pop\n      pop\n      pop\n      pop\n        /* \"Staking_flat.sol\":30828:31981  function withdraw(uint256 amount) external{... */\n      pop\n      jump\t// out\n        /* \"Staking_flat.sol\":33771:33890  function stakedAmount() public view returns (uint256) {... */\n    tag_34:\n        /* \"Staking_flat.sol\":33816:33823  uint256 */\n      0x00\n        /* \"Staking_flat.sol\":33851:33858  _staker */\n      0x07\n        /* \"Staking_flat.sol\":33851:33870  _staker[msg.sender] */\n      0x00\n        /* \"Staking_flat.sol\":33859:33869  msg.sender */\n      caller\n        /* \"Staking_flat.sol\":33851:33870  _staker[msg.sender] */\n      0xffffffffffffffffffffffffffffffffffffffff\n      and\n      0xffffffffffffffffffffffffffffffffffffffff\n      and\n      dup2\n      mstore\n      0x20\n      add\n      swap1\n      dup2\n      mstore\n      0x20\n      add\n      0x00\n      keccak256\n        /* \"Staking_flat.sol\":33851:33883  _staker[msg.sender].stakedAmount */\n      0x01\n      add\n      sload\n        /* \"Staking_flat.sol\":33844:33883  return _staker[msg.sender].stakedAmount */\n      swap1\n      pop\n        /* \"Staking_flat.sol\":33771:33890  function stakedAmount() public view returns (uint256) {... */\n      swap1\n      jump\t// out\n        /* \"Staking_flat.sol\":33147:33718  function harvest() public{... */\n    tag_37:\n        /* \"Staking_flat.sol\":33191:33205  updateReward() */\n      tag_133\n        /* \"Staking_flat.sol\":33191:33203  updateReward */\n      tag_95\n        /* \"Staking_flat.sol\":33191:33205  updateReward() */\n      jump\t// in\n    tag_133:\n        /* \"Staking_flat.sol\":33215:33236  Staker storage staker */\n      0x00\n        /* \"Staking_flat.sol\":33239:33246  _staker */\n      0x07\n        /* \"Staking_flat.sol\":33239:33258  _staker[msg.sender] */\n      0x00\n        /* \"Staking_flat.sol\":33247:33257  msg.sender */\n      caller\n        /* \"Staking_flat.sol\":33239:33258  _staker[msg.sender] */\n      0xffffffffffffffffffffffffffffffffffffffff\n      and\n      0xffffffffffffffffffffffffffffffffffffffff\n      and\n      dup2\n      mstore\n      0x20\n      add\n      swap1\n      dup2\n      mstore\n      0x20\n      add\n      0x00\n      keccak256\n        /* \"Staking_flat.sol\":33215:33258  Staker storage staker = _staker[msg.sender] */\n      swap1\n      pop\n        /* \"Staking_flat.sol\":33268:33289  uint256 rewardToClaim */\n      0x00\n        /* \"Staking_flat.sol\":33292:33381  staker.stakerCurrentReward.sub(staker.stakerCurrentReward.mul(_rewardFeeRate).div(10**4)) */\n      tag_134\n        /* \"Staking_flat.sol\":33323:33380  staker.stakerCurrentReward.mul(_rewardFeeRate).div(10**4) */\n      tag_135\n        /* \"Staking_flat.sol\":33374:33379  10**4 */\n      0x2710\n        /* \"Staking_flat.sol\":33323:33369  staker.stakerCurrentReward.mul(_rewardFeeRate) */\n      tag_136\n        /* \"Staking_flat.sol\":33354:33368  _rewardFeeRate */\n      sload(0x04)\n        /* \"Staking_flat.sol\":33323:33329  staker */\n      dup7\n        /* \"Staking_flat.sol\":33323:33349  staker.stakerCurrentReward */\n      0x00\n      add\n      sload\n        /* \"Staking_flat.sol\":33323:33353  staker.stakerCurrentReward.mul */\n      tag_124\n      swap1\n        /* \"Staking_flat.sol\":33323:33369  staker.stakerCurrentReward.mul(_rewardFeeRate) */\n      swap2\n      swap1\n      0xffffffff\n      and\n      jump\t// in\n    tag_136:\n        /* \"Staking_flat.sol\":33323:33373  staker.stakerCurrentReward.mul(_rewardFeeRate).div */\n      tag_112\n      swap1\n        /* \"Staking_flat.sol\":33323:33380  staker.stakerCurrentReward.mul(_rewardFeeRate).div(10**4) */\n      swap2\n      swap1\n      0xffffffff\n      and\n      jump\t// in\n    tag_135:\n        /* \"Staking_flat.sol\":33292:33298  staker */\n      dup4\n        /* \"Staking_flat.sol\":33292:33318  staker.stakerCurrentReward */\n      0x00\n      add\n      sload\n        /* \"Staking_flat.sol\":33292:33322  staker.stakerCurrentReward.sub */\n      tag_111\n      swap1\n        /* \"Staking_flat.sol\":33292:33381  staker.stakerCurrentReward.sub(staker.stakerCurrentReward.mul(_rewardFeeRate).div(10**4)) */\n      swap2\n      swap1\n      0xffffffff\n      and\n      jump\t// in\n    tag_134:\n        /* \"Staking_flat.sol\":33268:33381  uint256 rewardToClaim = staker.stakerCurrentReward.sub(staker.stakerCurrentReward.mul(_rewardFeeRate).div(10**4)) */\n      swap1\n      pop\n        /* \"Staking_flat.sol\":33424:33425  0 */\n      0x00\n        /* \"Staking_flat.sol\":33408:33421  rewardToClaim */\n      dup2\n        /* \"Staking_flat.sol\":33408:33425  rewardToClaim > 0 */\n      gt\n        /* \"Staking_flat.sol\":33400:33446  require(rewardToClaim > 0, \"Nothing to claim\") */\n      tag_137\n      jumpi\n      mload(0x40)\n      0x08c379a000000000000000000000000000000000000000000000000000000000\n      dup2\n      mstore\n      0x04\n      add\n      tag_138\n      swap1\n      tag_139\n      jump\t// in\n    tag_138:\n      mload(0x40)\n      dup1\n      swap2\n      sub\n      swap1\n      revert\n    tag_137:\n        /* \"Staking_flat.sol\":33476:33481  token */\n      0x09\n      0x00\n      swap1\n      sload\n      swap1\n      0x0100\n      exp\n      swap1\n      div\n      0xffffffffffffffffffffffffffffffffffffffff\n      and\n        /* \"Staking_flat.sol\":33476:33491  token.balanceOf */\n      0xffffffffffffffffffffffffffffffffffffffff\n      and\n      0x70a08231\n        /* \"Staking_flat.sol\":33500:33504  this */\n      address\n        /* \"Staking_flat.sol\":33476:33506  token.balanceOf(address(this)) */\n      mload(0x40)\n      dup3\n      0xffffffff\n      and\n      0xe0\n      shl\n      dup2\n      mstore\n      0x04\n      add\n      tag_140\n      swap2\n      swap1\n      tag_65\n      jump\t// in\n    tag_140:\n      0x20\n      mload(0x40)\n      dup1\n      dup4\n      sub\n      dup2\n      dup7\n      dup1\n      extcodesize\n      iszero\n      dup1\n      iszero\n      tag_141\n      jumpi\n      0x00\n      dup1\n      revert\n    tag_141:\n      pop\n      gas\n      staticcall\n      iszero\n      dup1\n      iszero\n      tag_143\n      jumpi\n      returndatasize\n      0x00\n      dup1\n      returndatacopy\n      revert(0x00, returndatasize)\n    tag_143:\n      pop\n      pop\n      pop\n      pop\n      mload(0x40)\n      returndatasize\n      not(0x1f)\n      0x1f\n      dup3\n      add\n      and\n      dup3\n      add\n      dup1\n      0x40\n      mstore\n      pop\n      dup2\n      add\n      swap1\n      tag_144\n      swap2\n      swap1\n      tag_101\n      jump\t// in\n    tag_144:\n        /* \"Staking_flat.sol\":33460:33473  rewardToClaim */\n      dup2\n        /* \"Staking_flat.sol\":33460:33506  rewardToClaim > token.balanceOf(address(this)) */\n      gt\n        /* \"Staking_flat.sol\":33456:33566  if (rewardToClaim > token.balanceOf(address(this)))... */\n      iszero\n      tag_145\n      jumpi\n        /* \"Staking_flat.sol\":33536:33541  token */\n      0x09\n      0x00\n      swap1\n      sload\n      swap1\n      0x0100\n      exp\n      swap1\n      div\n      0xffffffffffffffffffffffffffffffffffffffff\n      and\n        /* \"Staking_flat.sol\":33536:33551  token.balanceOf */\n      0xffffffffffffffffffffffffffffffffffffffff\n      and\n      0x70a08231\n        /* \"Staking_flat.sol\":33560:33564  this */\n      address\n        /* \"Staking_flat.sol\":33536:33566  token.balanceOf(address(this)) */\n      mload(0x40)\n      dup3\n      0xffffffff\n      and\n      0xe0\n      shl\n      dup2\n      mstore\n      0x04\n      add\n      tag_146\n      swap2\n      swap1\n      tag_65\n      jump\t// in\n    tag_146:\n      0x20\n      mload(0x40)\n      dup1\n      dup4\n      sub\n      dup2\n      dup7\n      dup1\n      extcodesize\n      iszero\n      dup1\n      iszero\n      tag_147\n      jumpi\n      0x00\n      dup1\n      revert\n    tag_147:\n      pop\n      gas\n      staticcall\n      iszero\n      dup1\n      iszero\n      tag_149\n      jumpi\n      returndatasize\n      0x00\n      dup1\n      returndatacopy\n      revert(0x00, returndatasize)\n    tag_149:\n      pop\n      pop\n      pop\n      pop\n      mload(0x40)\n      returndatasize\n      not(0x1f)\n      0x1f\n      dup3\n      add\n      and\n      dup3\n      add\n      dup1\n      0x40\n      mstore\n      pop\n      dup2\n      add\n      swap1\n      tag_150\n      swap2\n      swap1\n      tag_101\n      jump\t// in\n    tag_150:\n        /* \"Staking_flat.sol\":33520:33566  rewardToClaim = token.balanceOf(address(this)) */\n      swap1\n      pop\n        /* \"Staking_flat.sol\":33456:33566  if (rewardToClaim > token.balanceOf(address(this)))... */\n    tag_145:\n        /* \"Staking_flat.sol\":33576:33621  token.safeTransfer(msg.sender, rewardToClaim) */\n      tag_151\n        /* \"Staking_flat.sol\":33595:33605  msg.sender */\n      caller\n        /* \"Staking_flat.sol\":33607:33620  rewardToClaim */\n      dup3\n        /* \"Staking_flat.sol\":33576:33581  token */\n      0x09\n      0x00\n      swap1\n      sload\n      swap1\n      0x0100\n      exp\n      swap1\n      div\n      0xffffffffffffffffffffffffffffffffffffffff\n      and\n        /* \"Staking_flat.sol\":33576:33594  token.safeTransfer */\n      0xffffffffffffffffffffffffffffffffffffffff\n      and\n      tag_128\n      swap1\n        /* \"Staking_flat.sol\":33576:33621  token.safeTransfer(msg.sender, rewardToClaim) */\n      swap3\n      swap2\n      swap1\n      0xffffffff\n      and\n      jump\t// in\n    tag_151:\n        /* \"Staking_flat.sol\":33660:33661  0 */\n      0x00\n        /* \"Staking_flat.sol\":33631:33637  staker */\n      dup3\n        /* \"Staking_flat.sol\":33631:33657  staker.stakerCurrentReward */\n      0x00\n      add\n        /* \"Staking_flat.sol\":33631:33661  staker.stakerCurrentReward = 0 */\n      dup2\n      swap1\n      sstore\n      pop\n        /* \"Staking_flat.sol\":33677:33711  Harvest(msg.sender, rewardToClaim) */\n      0xc9695243a805adb74c91f28311176c65b417e842d5699893cef56d18bfa48cba\n        /* \"Staking_flat.sol\":33685:33695  msg.sender */\n      caller\n        /* \"Staking_flat.sol\":33697:33710  rewardToClaim */\n      dup3\n        /* \"Staking_flat.sol\":33677:33711  Harvest(msg.sender, rewardToClaim) */\n      mload(0x40)\n      tag_152\n      swap3\n      swap2\n      swap1\n      tag_130\n      jump\t// in\n    tag_152:\n      mload(0x40)\n      dup1\n      swap2\n      sub\n      swap1\n      log1\n        /* \"Staking_flat.sol\":33172:33718  {... */\n      pop\n      pop\n        /* \"Staking_flat.sol\":33147:33718  function harvest() public{... */\n      jump\t// out\n        /* \"Staking_flat.sol\":32737:32894  function setLockupTime(uint256 lockupTime) external onlyOwner {... */\n    tag_40:\n        /* \"Staking_flat.sol\":26101:26113  _msgSender() */\n      tag_154\n        /* \"Staking_flat.sol\":26101:26111  _msgSender */\n      tag_155\n        /* \"Staking_flat.sol\":26101:26113  _msgSender() */\n      jump\t// in\n    tag_154:\n        /* \"Staking_flat.sol\":26090:26113  owner() == _msgSender() */\n      0xffffffffffffffffffffffffffffffffffffffff\n      and\n        /* \"Staking_flat.sol\":26090:26097  owner() */\n      tag_156\n        /* \"Staking_flat.sol\":26090:26095  owner */\n      tag_63\n        /* \"Staking_flat.sol\":26090:26097  owner() */\n      jump\t// in\n    tag_156:\n        /* \"Staking_flat.sol\":26090:26113  owner() == _msgSender() */\n      0xffffffffffffffffffffffffffffffffffffffff\n      and\n      eq\n        /* \"Staking_flat.sol\":26082:26150  require(owner() == _msgSender(), \"Ownable: caller is not the owner\") */\n      tag_157\n      jumpi\n      mload(0x40)\n      0x08c379a000000000000000000000000000000000000000000000000000000000\n      dup2\n      mstore\n      0x04\n      add\n      tag_158\n      swap1\n      tag_159\n      jump\t// in\n    tag_158:\n      mload(0x40)\n      dup1\n      swap2\n      sub\n      swap1\n      revert\n    tag_157:\n        /* \"Staking_flat.sol\":32831:32832  0 */\n      0x00\n        /* \"Staking_flat.sol\":32818:32828  lockupTime */\n      dup2\n        /* \"Staking_flat.sol\":32818:32832  lockupTime > 0 */\n      gt\n        /* \"Staking_flat.sol\":32810:32850  require(lockupTime > 0, \"Can't be zero\") */\n      tag_161\n      jumpi\n      mload(0x40)\n      0x08c379a000000000000000000000000000000000000000000000000000000000\n      dup2\n      mstore\n      0x04\n      add\n      tag_162\n      swap1\n      tag_163\n      jump\t// in\n    tag_162:\n      mload(0x40)\n      dup1\n      swap2\n      sub\n      swap1\n      revert\n    tag_161:\n        /* \"Staking_flat.sol\":32877:32887  lockupTime */\n      dup1\n        /* \"Staking_flat.sol\":32861:32874  _lockupPeriod */\n      0x05\n        /* \"Staking_flat.sol\":32861:32887  _lockupPeriod = lockupTime */\n      dup2\n      swap1\n      sstore\n      pop\n        /* \"Staking_flat.sol\":32737:32894  function setLockupTime(uint256 lockupTime) external onlyOwner {... */\n      pop\n      jump\t// out\n        /* \"Staking_flat.sol\":29432:29928  function startStaking(uint256 _amount, uint256 _mode) external {... */\n    tag_44:\n        /* \"Staking_flat.sol\":29532:29533  0 */\n      0x00\n        /* \"Staking_flat.sol\":29522:29529  _amount */\n      dup3\n        /* \"Staking_flat.sol\":29522:29533  _amount > 0 */\n      gt\n        /* \"Staking_flat.sol\":29514:29569  require(_amount > 0, \"Amount should be greater than 0\") */\n      tag_165\n      jumpi\n      mload(0x40)\n      0x08c379a000000000000000000000000000000000000000000000000000000000\n      dup2\n      mstore\n      0x04\n      add\n      tag_166\n      swap1\n      tag_90\n      jump\t// in\n    tag_166:\n      mload(0x40)\n      dup1\n      swap2\n      sub\n      swap1\n      revert\n    tag_165:\n        /* \"Staking_flat.sol\":29617:29624  _amount */\n      dup2\n        /* \"Staking_flat.sol\":29587:29592  token */\n      0x09\n      0x00\n      swap1\n      sload\n      swap1\n      0x0100\n      exp\n      swap1\n      div\n      0xffffffffffffffffffffffffffffffffffffffff\n      and\n        /* \"Staking_flat.sol\":29587:29602  token.balanceOf */\n      0xffffffffffffffffffffffffffffffffffffffff\n      and\n      0x70a08231\n        /* \"Staking_flat.sol\":29603:29613  msg.sender */\n      caller\n        /* \"Staking_flat.sol\":29587:29614  token.balanceOf(msg.sender) */\n      mload(0x40)\n      dup3\n      0xffffffff\n      and\n      0xe0\n      shl\n      dup2\n      mstore\n      0x04\n      add\n      tag_167\n      swap2\n      swap1\n      tag_65\n      jump\t// in\n    tag_167:\n      0x20\n      mload(0x40)\n      dup1\n      dup4\n      sub\n      dup2\n      dup7\n      dup1\n      extcodesize\n      iszero\n      dup1\n      iszero\n      tag_168\n      jumpi\n      0x00\n      dup1\n      revert\n    tag_168:\n      pop\n      gas\n      staticcall\n      iszero\n      dup1\n      iszero\n      tag_170\n      jumpi\n      returndatasize\n      0x00\n      dup1\n      returndatacopy\n      revert(0x00, returndatasize)\n    tag_170:\n      pop\n      pop\n      pop\n      pop\n      mload(0x40)\n      returndatasize\n      not(0x1f)\n      0x1f\n      dup3\n      add\n      and\n      dup3\n      add\n      dup1\n      0x40\n      mstore\n      pop\n      dup2\n      add\n      swap1\n      tag_171\n      swap2\n      swap1\n      tag_101\n      jump\t// in\n    tag_171:\n        /* \"Staking_flat.sol\":29587:29624  token.balanceOf(msg.sender) > _amount */\n      gt\n        /* \"Staking_flat.sol\":29579:29642  require(token.balanceOf(msg.sender) > _amount, \"Insufficient!\") */\n      tag_172\n      jumpi\n      mload(0x40)\n      0x08c379a000000000000000000000000000000000000000000000000000000000\n      dup2\n      mstore\n      0x04\n      add\n      tag_173\n      swap1\n      tag_174\n      jump\t// in\n    tag_173:\n      mload(0x40)\n      dup1\n      swap2\n      sub\n      swap1\n      revert\n    tag_172:\n        /* \"Staking_flat.sol\":29690:29694  0x55 */\n      0x55\n        /* \"Staking_flat.sol\":29660:29667  _staker */\n      0x07\n        /* \"Staking_flat.sol\":29660:29679  _staker[msg.sender] */\n      0x00\n        /* \"Staking_flat.sol\":29668:29678  msg.sender */\n      caller\n        /* \"Staking_flat.sol\":29660:29679  _staker[msg.sender] */\n      0xffffffffffffffffffffffffffffffffffffffff\n      and\n      0xffffffffffffffffffffffffffffffffffffffff\n      and\n      dup2\n      mstore\n      0x20\n      add\n      swap1\n      dup2\n      mstore\n      0x20\n      add\n      0x00\n      keccak256\n        /* \"Staking_flat.sol\":29660:29686  _staker[msg.sender].staked */\n      0x05\n      add\n      sload\n        /* \"Staking_flat.sol\":29660:29694  _staker[msg.sender].staked != 0x55 */\n      eq\n      iszero\n        /* \"Staking_flat.sol\":29652:29714  require(_staker[msg.sender].staked != 0x55, \"Already started\") */\n      tag_175\n      jumpi\n      mload(0x40)\n      0x08c379a000000000000000000000000000000000000000000000000000000000\n      dup2\n      mstore\n      0x04\n      add\n      tag_176\n      swap1\n      tag_177\n      jump\t// in\n    tag_176:\n      mload(0x40)\n      dup1\n      swap2\n      sub\n      swap1\n      revert\n    tag_175:\n        /* \"Staking_flat.sol\":29752:29757  _mode */\n      dup1\n        /* \"Staking_flat.sol\":29725:29732  _staker */\n      0x07\n        /* \"Staking_flat.sol\":29725:29744  _staker[msg.sender] */\n      0x00\n        /* \"Staking_flat.sol\":29733:29743  msg.sender */\n      caller\n        /* \"Staking_flat.sol\":29725:29744  _staker[msg.sender] */\n      0xffffffffffffffffffffffffffffffffffffffff\n      and\n      0xffffffffffffffffffffffffffffffffffffffff\n      and\n      dup2\n      mstore\n      0x20\n      add\n      swap1\n      dup2\n      mstore\n      0x20\n      add\n      0x00\n      keccak256\n        /* \"Staking_flat.sol\":29725:29749  _staker[msg.sender].mode */\n      0x02\n      add\n        /* \"Staking_flat.sol\":29725:29757  _staker[msg.sender].mode = _mode */\n      dup2\n      swap1\n      sstore\n      pop\n        /* \"Staking_flat.sol\":29804:29819  block.timestamp */\n      timestamp\n        /* \"Staking_flat.sol\":29767:29774  _staker */\n      0x07\n        /* \"Staking_flat.sol\":29767:29786  _staker[msg.sender] */\n      0x00\n        /* \"Staking_flat.sol\":29775:29785  msg.sender */\n      caller\n        /* \"Staking_flat.sol\":29767:29786  _staker[msg.sender] */\n      0xffffffffffffffffffffffffffffffffffffffff\n      and\n      0xffffffffffffffffffffffffffffffffffffffff\n      and\n      dup2\n      mstore\n      0x20\n      add\n      swap1\n      dup2\n      mstore\n      0x20\n      add\n      0x00\n      keccak256\n        /* \"Staking_flat.sol\":29767:29801  _staker[msg.sender].stakeStartTime */\n      0x03\n      add\n        /* \"Staking_flat.sol\":29767:29819  _staker[msg.sender].stakeStartTime = block.timestamp */\n      dup2\n      swap1\n      sstore\n      pop\n        /* \"Staking_flat.sol\":29858:29862  0x55 */\n      0x55\n        /* \"Staking_flat.sol\":29829:29836  _staker */\n      0x07\n        /* \"Staking_flat.sol\":29829:29848  _staker[msg.sender] */\n      0x00\n        /* \"Staking_flat.sol\":29837:29847  msg.sender */\n      caller\n        /* \"Staking_flat.sol\":29829:29848  _staker[msg.sender] */\n      0xffffffffffffffffffffffffffffffffffffffff\n      and\n      0xffffffffffffffffffffffffffffffffffffffff\n      and\n      dup2\n      mstore\n      0x20\n      add\n      swap1\n      dup2\n      mstore\n      0x20\n      add\n      0x00\n      keccak256\n        /* \"Staking_flat.sol\":29829:29855  _staker[msg.sender].staked */\n      0x05\n      add\n        /* \"Staking_flat.sol\":29829:29862  _staker[msg.sender].staked = 0x55 */\n      dup2\n      swap1\n      sstore\n      pop\n        /* \"Staking_flat.sol\":29872:29880  _stakers */\n      0x06\n        /* \"Staking_flat.sol\":29886:29896  msg.sender */\n      caller\n        /* \"Staking_flat.sol\":29872:29897  _stakers.push(msg.sender) */\n      swap1\n      dup1\n      0x01\n      dup2\n      sload\n      add\n      dup1\n      dup3\n      sstore\n      dup1\n      swap2\n      pop\n      pop\n      0x01\n      swap1\n      sub\n      swap1\n      0x00\n      mstore\n      keccak256(0x00, 0x20)\n      add\n      0x00\n      swap1\n      swap2\n      swap1\n      swap2\n      swap1\n      swap2\n      0x0100\n      exp\n      dup2\n      sload\n      dup2\n      0xffffffffffffffffffffffffffffffffffffffff\n      mul\n      not\n      and\n      swap1\n      dup4\n      0xffffffffffffffffffffffffffffffffffffffff\n      and\n      mul\n      or\n      swap1\n      sstore\n      pop\n        /* \"Staking_flat.sol\":29907:29921  stake(_amount) */\n      tag_179\n        /* \"Staking_flat.sol\":29913:29920  _amount */\n      dup3\n        /* \"Staking_flat.sol\":29907:29912  stake */\n      tag_74\n        /* \"Staking_flat.sol\":29907:29921  stake(_amount) */\n      jump\t// in\n    tag_179:\n        /* \"Staking_flat.sol\":29432:29928  function startStaking(uint256 _amount, uint256 _mode) external {... */\n      pop\n      pop\n      jump\t// out\n        /* \"Staking_flat.sol\":30684:30784  function getNumberofStakers() public view returns (uint256) {... */\n    tag_46:\n        /* \"Staking_flat.sol\":30735:30742  uint256 */\n      0x00\n        /* \"Staking_flat.sol\":30762:30770  _stakers */\n      0x06\n        /* \"Staking_flat.sol\":30762:30777  _stakers.length */\n      dup1\n      sload\n      swap1\n      pop\n        /* \"Staking_flat.sol\":30755:30777  return _stakers.length */\n      swap1\n      pop\n        /* \"Staking_flat.sol\":30684:30784  function getNumberofStakers() public view returns (uint256) {... */\n      swap1\n      jump\t// out\n        /* \"Staking_flat.sol\":32954:33109  function rewardToHarvest() public view returns (uint256){... */\n    tag_49:\n        /* \"Staking_flat.sol\":33002:33009  uint256 */\n      0x00\n        /* \"Staking_flat.sol\":33063:33070  _staker */\n      0x07\n        /* \"Staking_flat.sol\":33063:33082  _staker[msg.sender] */\n      0x00\n        /* \"Staking_flat.sol\":33071:33081  msg.sender */\n      caller\n        /* \"Staking_flat.sol\":33063:33082  _staker[msg.sender] */\n      0xffffffffffffffffffffffffffffffffffffffff\n      and\n      0xffffffffffffffffffffffffffffffffffffffff\n      and\n      dup2\n      mstore\n      0x20\n      add\n      swap1\n      dup2\n      mstore\n      0x20\n      add\n      0x00\n      keccak256\n        /* \"Staking_flat.sol\":33063:33102  _staker[msg.sender].stakerCurrentReward */\n      0x00\n      add\n      sload\n        /* \"Staking_flat.sol\":33056:33102  return _staker[msg.sender].stakerCurrentReward */\n      swap1\n      pop\n        /* \"Staking_flat.sol\":32954:33109  function rewardToHarvest() public view returns (uint256){... */\n      swap1\n      jump\t// out\n        /* \"Staking_flat.sol\":32217:32458  function setEventPeriod(uint256 __eventPeriod) external onlyOwner {... */\n    tag_53:\n        /* \"Staking_flat.sol\":26101:26113  _msgSender() */\n      tag_183\n        /* \"Staking_flat.sol\":26101:26111  _msgSender */\n      tag_155\n        /* \"Staking_flat.sol\":26101:26113  _msgSender() */\n      jump\t// in\n    tag_183:\n        /* \"Staking_flat.sol\":26090:26113  owner() == _msgSender() */\n      0xffffffffffffffffffffffffffffffffffffffff\n      and\n        /* \"Staking_flat.sol\":26090:26097  owner() */\n      tag_184\n        /* \"Staking_flat.sol\":26090:26095  owner */\n      tag_63\n        /* \"Staking_flat.sol\":26090:26097  owner() */\n      jump\t// in\n    tag_184:\n        /* \"Staking_flat.sol\":26090:26113  owner() == _msgSender() */\n      0xffffffffffffffffffffffffffffffffffffffff\n      and\n      eq\n        /* \"Staking_flat.sol\":26082:26150  require(owner() == _msgSender(), \"Ownable: caller is not the owner\") */\n      tag_185\n      jumpi\n      mload(0x40)\n      0x08c379a000000000000000000000000000000000000000000000000000000000\n      dup2\n      mstore\n      0x04\n      add\n      tag_186\n      swap1\n      tag_159\n      jump\t// in\n    tag_186:\n      mload(0x40)\n      dup1\n      swap2\n      sub\n      swap1\n      revert\n    tag_185:\n        /* \"Staking_flat.sol\":32326:32327  0 */\n      0x00\n        /* \"Staking_flat.sol\":32310:32323  __eventPeriod */\n      dup2\n        /* \"Staking_flat.sol\":32310:32327  __eventPeriod > 0 */\n      gt\n        /* \"Staking_flat.sol\":32302:32355  require(__eventPeriod > 0, \"Invalid Lockup Duration\") */\n      tag_188\n      jumpi\n      mload(0x40)\n      0x08c379a000000000000000000000000000000000000000000000000000000000\n      dup2\n      mstore\n      0x04\n      add\n      tag_189\n      swap1\n      tag_190\n      jump\t// in\n    tag_189:\n      mload(0x40)\n      dup1\n      swap2\n      sub\n      swap1\n      revert\n    tag_188:\n        /* \"Staking_flat.sol\":32381:32406  __eventPeriod.mul(1 days) */\n      tag_191\n        /* \"Staking_flat.sol\":32399:32405  1 days */\n      0x015180\n        /* \"Staking_flat.sol\":32381:32394  __eventPeriod */\n      dup3\n        /* \"Staking_flat.sol\":32381:32398  __eventPeriod.mul */\n      tag_124\n      swap1\n        /* \"Staking_flat.sol\":32381:32406  __eventPeriod.mul(1 days) */\n      swap2\n      swap1\n      0xffffffff\n      and\n      jump\t// in\n    tag_191:\n        /* \"Staking_flat.sol\":32366:32378  _eventPeriod */\n      0x02\n        /* \"Staking_flat.sol\":32366:32406  _eventPeriod = __eventPeriod.mul(1 days) */\n      dup2\n      swap1\n      sstore\n      pop\n        /* \"Staking_flat.sol\":32422:32451  SetEventPeriod(__eventPeriod) */\n      0x189bda9782663c67a3f95c0aa5455924c711210b00281c60ead2f0dd8dbc924c\n        /* \"Staking_flat.sol\":32437:32450  __eventPeriod */\n      dup2\n        /* \"Staking_flat.sol\":32422:32451  SetEventPeriod(__eventPeriod) */\n      mload(0x40)\n      tag_192\n      swap2\n      swap1\n      tag_28\n      jump\t// in\n    tag_192:\n      mload(0x40)\n      dup1\n      swap2\n      sub\n      swap1\n      log1\n        /* \"Staking_flat.sol\":32217:32458  function setEventPeriod(uint256 __eventPeriod) external onlyOwner {... */\n      pop\n      jump\t// out\n        /* \"Staking_flat.sol\":26510:26611  function renounceOwnership() public virtual onlyOwner {... */\n    tag_55:\n        /* \"Staking_flat.sol\":26101:26113  _msgSender() */\n      tag_194\n        /* \"Staking_flat.sol\":26101:26111  _msgSender */\n      tag_155\n        /* \"Staking_flat.sol\":26101:26113  _msgSender() */\n      jump\t// in\n    tag_194:\n        /* \"Staking_flat.sol\":26090:26113  owner() == _msgSender() */\n      0xffffffffffffffffffffffffffffffffffffffff\n      and\n        /* \"Staking_flat.sol\":26090:26097  owner() */\n      tag_195\n        /* \"Staking_flat.sol\":26090:26095  owner */\n      tag_63\n        /* \"Staking_flat.sol\":26090:26097  owner() */\n      jump\t// in\n    tag_195:\n        /* \"Staking_flat.sol\":26090:26113  owner() == _msgSender() */\n      0xffffffffffffffffffffffffffffffffffffffff\n      and\n      eq\n        /* \"Staking_flat.sol\":26082:26150  require(owner() == _msgSender(), \"Ownable: caller is not the owner\") */\n      tag_196\n      jumpi\n      mload(0x40)\n      0x08c379a000000000000000000000000000000000000000000000000000000000\n      dup2\n      mstore\n      0x04\n      add\n      tag_197\n      swap1\n      tag_159\n      jump\t// in\n    tag_197:\n      mload(0x40)\n      dup1\n      swap2\n      sub\n      swap1\n      revert\n    tag_196:\n        /* \"Staking_flat.sol\":26574:26604  _transferOwnership(address(0)) */\n      tag_199\n        /* \"Staking_flat.sol\":26601:26602  0 */\n      0x00\n        /* \"Staking_flat.sol\":26574:26592  _transferOwnership */\n      tag_200\n        /* \"Staking_flat.sol\":26574:26604  _transferOwnership(address(0)) */\n      jump\t// in\n    tag_199:\n        /* \"Staking_flat.sol\":26510:26611  function renounceOwnership() public virtual onlyOwner {... */\n      jump\t// out\n        /* \"Staking_flat.sol\":34023:34113  function getRewardRate() public view returns (uint256) {... */\n    tag_57:\n        /* \"Staking_flat.sol\":34069:34076  uint256 */\n      0x00\n        /* \"Staking_flat.sol\":34095:34106  _rewardRate */\n      sload(0x03)\n        /* \"Staking_flat.sol\":34088:34106  return _rewardRate */\n      swap1\n      pop\n        /* \"Staking_flat.sol\":34023:34113  function getRewardRate() public view returns (uint256) {... */\n      swap1\n      jump\t// out\n        /* \"Staking_flat.sol\":28087:28113  uint256 public totalStaked */\n    tag_60:\n      sload(0x08)\n      dup2\n      jump\t// out\n        /* \"Staking_flat.sol\":25878:25963  function owner() public view virtual returns (address) {... */\n    tag_63:\n        /* \"Staking_flat.sol\":25924:25931  address */\n      0x00\n        /* \"Staking_flat.sol\":25950:25956  _owner */\n      dup1\n      0x00\n      swap1\n      sload\n      swap1\n      0x0100\n      exp\n      swap1\n      div\n      0xffffffffffffffffffffffffffffffffffffffff\n      and\n        /* \"Staking_flat.sol\":25943:25956  return _owner */\n      swap1\n      pop\n        /* \"Staking_flat.sol\":25878:25963  function owner() public view virtual returns (address) {... */\n      swap1\n      jump\t// out\n        /* \"Staking_flat.sol\":32464:32731  function setUnstakingFeeRate(uint256 __unstakingFeeRate) external onlyOwner {... */\n    tag_68:\n        /* \"Staking_flat.sol\":26101:26113  _msgSender() */\n      tag_204\n        /* \"Staking_flat.sol\":26101:26111  _msgSender */\n      tag_155\n        /* \"Staking_flat.sol\":26101:26113  _msgSender() */\n      jump\t// in\n    tag_204:\n        /* \"Staking_flat.sol\":26090:26113  owner() == _msgSender() */\n      0xffffffffffffffffffffffffffffffffffffffff\n      and\n        /* \"Staking_flat.sol\":26090:26097  owner() */\n      tag_205\n        /* \"Staking_flat.sol\":26090:26095  owner */\n      tag_63\n        /* \"Staking_flat.sol\":26090:26097  owner() */\n      jump\t// in\n    tag_205:\n        /* \"Staking_flat.sol\":26090:26113  owner() == _msgSender() */\n      0xffffffffffffffffffffffffffffffffffffffff\n      and\n      eq\n        /* \"Staking_flat.sol\":26082:26150  require(owner() == _msgSender(), \"Ownable: caller is not the owner\") */\n      tag_206\n      jumpi\n      mload(0x40)\n      0x08c379a000000000000000000000000000000000000000000000000000000000\n      dup2\n      mstore\n      0x04\n      add\n      tag_207\n      swap1\n      tag_159\n      jump\t// in\n    tag_207:\n      mload(0x40)\n      dup1\n      swap2\n      sub\n      swap1\n      revert\n    tag_206:\n        /* \"Staking_flat.sol\":32588:32589  0 */\n      0x00\n        /* \"Staking_flat.sol\":32567:32585  __unstakingFeeRate */\n      dup2\n        /* \"Staking_flat.sol\":32567:32589  __unstakingFeeRate > 0 */\n      gt\n        /* \"Staking_flat.sol\":32559:32620  require(__unstakingFeeRate > 0, \"Invalid Unstaking Fee Rate\") */\n      tag_209\n      jumpi\n      mload(0x40)\n      0x08c379a000000000000000000000000000000000000000000000000000000000\n      dup2\n      mstore\n      0x04\n      add\n      tag_210\n      swap1\n      tag_211\n      jump\t// in\n    tag_210:\n      mload(0x40)\n      dup1\n      swap2\n      sub\n      swap1\n      revert\n    tag_209:\n        /* \"Staking_flat.sol\":32651:32669  __unstakingFeeRate */\n      dup1\n        /* \"Staking_flat.sol\":32631:32648  _unstakingFeeRate */\n      0x01\n        /* \"Staking_flat.sol\":32631:32669  _unstakingFeeRate = __unstakingFeeRate */\n      dup2\n      swap1\n      sstore\n      pop\n        /* \"Staking_flat.sol\":32685:32724  SetUnstakingFeeRate(__unstakingFeeRate) */\n      0x150c688dd7595bf7862b8ab1fe46756450eb7d731037942b3bbc46f3f0e21b81\n        /* \"Staking_flat.sol\":32705:32723  __unstakingFeeRate */\n      dup2\n        /* \"Staking_flat.sol\":32685:32724  SetUnstakingFeeRate(__unstakingFeeRate) */\n      mload(0x40)\n      tag_212\n      swap2\n      swap1\n      tag_28\n      jump\t// in\n    tag_212:\n      mload(0x40)\n      dup1\n      swap2\n      sub\n      swap1\n      log1\n        /* \"Staking_flat.sol\":32464:32731  function setUnstakingFeeRate(uint256 __unstakingFeeRate) external onlyOwner {... */\n      pop\n      jump\t// out\n        /* \"Staking_flat.sol\":31991:32211  function setRewardRate(uint256 __rewardRate) external onlyOwner {... */\n    tag_71:\n        /* \"Staking_flat.sol\":26101:26113  _msgSender() */\n      tag_214\n        /* \"Staking_flat.sol\":26101:26111  _msgSender */\n      tag_155\n        /* \"Staking_flat.sol\":26101:26113  _msgSender() */\n      jump\t// in\n    tag_214:\n        /* \"Staking_flat.sol\":26090:26113  owner() == _msgSender() */\n      0xffffffffffffffffffffffffffffffffffffffff\n      and\n        /* \"Staking_flat.sol\":26090:26097  owner() */\n      tag_215\n        /* \"Staking_flat.sol\":26090:26095  owner */\n      tag_63\n        /* \"Staking_flat.sol\":26090:26097  owner() */\n      jump\t// in\n    tag_215:\n        /* \"Staking_flat.sol\":26090:26113  owner() == _msgSender() */\n      0xffffffffffffffffffffffffffffffffffffffff\n      and\n      eq\n        /* \"Staking_flat.sol\":26082:26150  require(owner() == _msgSender(), \"Ownable: caller is not the owner\") */\n      tag_216\n      jumpi\n      mload(0x40)\n      0x08c379a000000000000000000000000000000000000000000000000000000000\n      dup2\n      mstore\n      0x04\n      add\n      tag_217\n      swap1\n      tag_159\n      jump\t// in\n    tag_217:\n      mload(0x40)\n      dup1\n      swap2\n      sub\n      swap1\n      revert\n    tag_216:\n        /* \"Staking_flat.sol\":32097:32098  0 */\n      0x00\n        /* \"Staking_flat.sol\":32082:32094  __rewardRate */\n      dup2\n        /* \"Staking_flat.sol\":32082:32098  __rewardRate > 0 */\n      gt\n        /* \"Staking_flat.sol\":32074:32116  require(__rewardRate > 0, \"Invalid value\") */\n      tag_219\n      jumpi\n      mload(0x40)\n      0x08c379a000000000000000000000000000000000000000000000000000000000\n      dup2\n      mstore\n      0x04\n      add\n      tag_220\n      swap1\n      tag_221\n      jump\t// in\n    tag_220:\n      mload(0x40)\n      dup1\n      swap2\n      sub\n      swap1\n      revert\n    tag_219:\n        /* \"Staking_flat.sol\":32149:32161  __rewardRate */\n      dup1\n        /* \"Staking_flat.sol\":32135:32146  _rewardRate */\n      0x03\n        /* \"Staking_flat.sol\":32135:32161  _rewardRate = __rewardRate */\n      dup2\n      swap1\n      sstore\n      pop\n        /* \"Staking_flat.sol\":32177:32204  SetRewardRate(__rewardRate) */\n      0x1946fb78c7ca778b54d82cabaac5ba67cf446f58d0ff1f8ceaebb6150e54e44f\n        /* \"Staking_flat.sol\":32191:32203  __rewardRate */\n      dup2\n        /* \"Staking_flat.sol\":32177:32204  SetRewardRate(__rewardRate) */\n      mload(0x40)\n      tag_222\n      swap2\n      swap1\n      tag_28\n      jump\t// in\n    tag_222:\n      mload(0x40)\n      dup1\n      swap2\n      sub\n      swap1\n      log1\n        /* \"Staking_flat.sol\":31991:32211  function setRewardRate(uint256 __rewardRate) external onlyOwner {... */\n      pop\n      jump\t// out\n        /* \"Staking_flat.sol\":29993:30580  function stake(uint256 _amount) public{... */\n    tag_74:\n        /* \"Staking_flat.sol\":30068:30069  0 */\n      0x00\n        /* \"Staking_flat.sol\":30058:30065  _amount */\n      dup2\n        /* \"Staking_flat.sol\":30058:30069  _amount > 0 */\n      gt\n        /* \"Staking_flat.sol\":30050:30105  require(_amount > 0, \"Amount should be greater than 0\") */\n      tag_224\n      jumpi\n      mload(0x40)\n      0x08c379a000000000000000000000000000000000000000000000000000000000\n      dup2\n      mstore\n      0x04\n      add\n      tag_225\n      swap1\n      tag_90\n      jump\t// in\n    tag_225:\n      mload(0x40)\n      dup1\n      swap2\n      sub\n      swap1\n      revert\n    tag_224:\n        /* \"Staking_flat.sol\":30153:30160  _amount */\n      dup1\n        /* \"Staking_flat.sol\":30123:30128  token */\n      0x09\n      0x00\n      swap1\n      sload\n      swap1\n      0x0100\n      exp\n      swap1\n      div\n      0xffffffffffffffffffffffffffffffffffffffff\n      and\n        /* \"Staking_flat.sol\":30123:30138  token.balanceOf */\n      0xffffffffffffffffffffffffffffffffffffffff\n      and\n      0x70a08231\n        /* \"Staking_flat.sol\":30139:30149  msg.sender */\n      caller\n        /* \"Staking_flat.sol\":30123:30150  token.balanceOf(msg.sender) */\n      mload(0x40)\n      dup3\n      0xffffffff\n      and\n      0xe0\n      shl\n      dup2\n      mstore\n      0x04\n      add\n      tag_226\n      swap2\n      swap1\n      tag_65\n      jump\t// in\n    tag_226:\n      0x20\n      mload(0x40)\n      dup1\n      dup4\n      sub\n      dup2\n      dup7\n      dup1\n      extcodesize\n      iszero\n      dup1\n      iszero\n      tag_227\n      jumpi\n      0x00\n      dup1\n      revert\n    tag_227:\n      pop\n      gas\n      staticcall\n      iszero\n      dup1\n      iszero\n      tag_229\n      jumpi\n      returndatasize\n      0x00\n      dup1\n      returndatacopy\n      revert(0x00, returndatasize)\n    tag_229:\n      pop\n      pop\n      pop\n      pop\n      mload(0x40)\n      returndatasize\n      not(0x1f)\n      0x1f\n      dup3\n      add\n      and\n      dup3\n      add\n      dup1\n      0x40\n      mstore\n      pop\n      dup2\n      add\n      swap1\n      tag_230\n      swap2\n      swap1\n      tag_101\n      jump\t// in\n    tag_230:\n        /* \"Staking_flat.sol\":30123:30160  token.balanceOf(msg.sender) > _amount */\n      gt\n        /* \"Staking_flat.sol\":30115:30178  require(token.balanceOf(msg.sender) > _amount, \"Insufficient!\") */\n      tag_231\n      jumpi\n      mload(0x40)\n      0x08c379a000000000000000000000000000000000000000000000000000000000\n      dup2\n      mstore\n      0x04\n      add\n      tag_232\n      swap1\n      tag_174\n      jump\t// in\n    tag_232:\n      mload(0x40)\n      dup1\n      swap2\n      sub\n      swap1\n      revert\n    tag_231:\n        /* \"Staking_flat.sol\":30226:30230  0x55 */\n      0x55\n        /* \"Staking_flat.sol\":30196:30203  _staker */\n      0x07\n        /* \"Staking_flat.sol\":30196:30215  _staker[msg.sender] */\n      0x00\n        /* \"Staking_flat.sol\":30204:30214  msg.sender */\n      caller\n        /* \"Staking_flat.sol\":30196:30215  _staker[msg.sender] */\n      0xffffffffffffffffffffffffffffffffffffffff\n      and\n      0xffffffffffffffffffffffffffffffffffffffff\n      and\n      dup2\n      mstore\n      0x20\n      add\n      swap1\n      dup2\n      mstore\n      0x20\n      add\n      0x00\n      keccak256\n        /* \"Staking_flat.sol\":30196:30222  _staker[msg.sender].staked */\n      0x05\n      add\n      sload\n        /* \"Staking_flat.sol\":30196:30230  _staker[msg.sender].staked == 0x55 */\n      eq\n        /* \"Staking_flat.sol\":30188:30256  require(_staker[msg.sender].staked == 0x55, \"Error: invalid staker\") */\n      tag_233\n      jumpi\n      mload(0x40)\n      0x08c379a000000000000000000000000000000000000000000000000000000000\n      dup2\n      mstore\n      0x04\n      add\n      tag_234\n      swap1\n      tag_235\n      jump\t// in\n    tag_234:\n      mload(0x40)\n      dup1\n      swap2\n      sub\n      swap1\n      revert\n    tag_233:\n        /* \"Staking_flat.sol\":30275:30289  updateReward() */\n      tag_236\n        /* \"Staking_flat.sol\":30275:30287  updateReward */\n      tag_95\n        /* \"Staking_flat.sol\":30275:30289  updateReward() */\n      jump\t// in\n    tag_236:\n        /* \"Staking_flat.sol\":30299:30320  Staker storage staker */\n      0x00\n        /* \"Staking_flat.sol\":30323:30330  _staker */\n      0x07\n        /* \"Staking_flat.sol\":30323:30342  _staker[msg.sender] */\n      0x00\n        /* \"Staking_flat.sol\":30331:30341  msg.sender */\n      caller\n        /* \"Staking_flat.sol\":30323:30342  _staker[msg.sender] */\n      0xffffffffffffffffffffffffffffffffffffffff\n      and\n      0xffffffffffffffffffffffffffffffffffffffff\n      and\n      dup2\n      mstore\n      0x20\n      add\n      swap1\n      dup2\n      mstore\n      0x20\n      add\n      0x00\n      keccak256\n        /* \"Staking_flat.sol\":30299:30342  Staker storage staker = _staker[msg.sender] */\n      swap1\n      pop\n        /* \"Staking_flat.sol\":30352:30410  token.safeTransferFrom(msg.sender, address(this), _amount) */\n      tag_237\n        /* \"Staking_flat.sol\":30375:30385  msg.sender */\n      caller\n        /* \"Staking_flat.sol\":30395:30399  this */\n      address\n        /* \"Staking_flat.sol\":30402:30409  _amount */\n      dup5\n        /* \"Staking_flat.sol\":30352:30357  token */\n      0x09\n      0x00\n      swap1\n      sload\n      swap1\n      0x0100\n      exp\n      swap1\n      div\n      0xffffffffffffffffffffffffffffffffffffffff\n      and\n        /* \"Staking_flat.sol\":30352:30374  token.safeTransferFrom */\n      0xffffffffffffffffffffffffffffffffffffffff\n      and\n      tag_238\n      swap1\n        /* \"Staking_flat.sol\":30352:30410  token.safeTransferFrom(msg.sender, address(this), _amount) */\n      swap4\n      swap3\n      swap2\n      swap1\n      0xffffffff\n      and\n      jump\t// in\n    tag_237:\n        /* \"Staking_flat.sol\":30442:30474  staker.stakedAmount.add(_amount) */\n      tag_239\n        /* \"Staking_flat.sol\":30466:30473  _amount */\n      dup3\n        /* \"Staking_flat.sol\":30442:30448  staker */\n      dup3\n        /* \"Staking_flat.sol\":30442:30461  staker.stakedAmount */\n      0x01\n      add\n      sload\n        /* \"Staking_flat.sol\":30442:30465  staker.stakedAmount.add */\n      tag_115\n      swap1\n        /* \"Staking_flat.sol\":30442:30474  staker.stakedAmount.add(_amount) */\n      swap2\n      swap1\n      0xffffffff\n      and\n      jump\t// in\n    tag_239:\n        /* \"Staking_flat.sol\":30420:30426  staker */\n      dup2\n        /* \"Staking_flat.sol\":30420:30439  staker.stakedAmount */\n      0x01\n      add\n        /* \"Staking_flat.sol\":30420:30474  staker.stakedAmount = staker.stakedAmount.add(_amount) */\n      dup2\n      swap1\n      sstore\n      pop\n        /* \"Staking_flat.sol\":30498:30522  totalStaked.add(_amount) */\n      tag_240\n        /* \"Staking_flat.sol\":30514:30521  _amount */\n      dup3\n        /* \"Staking_flat.sol\":30498:30509  totalStaked */\n      sload(0x08)\n        /* \"Staking_flat.sol\":30498:30513  totalStaked.add */\n      tag_115\n      swap1\n        /* \"Staking_flat.sol\":30498:30522  totalStaked.add(_amount) */\n      swap2\n      swap1\n      0xffffffff\n      and\n      jump\t// in\n    tag_240:\n        /* \"Staking_flat.sol\":30484:30495  totalStaked */\n      0x08\n        /* \"Staking_flat.sol\":30484:30522  totalStaked = totalStaked.add(_amount) */\n      dup2\n      swap1\n      sstore\n      pop\n        /* \"Staking_flat.sol\":30546:30573  Staked(msg.sender, _amount) */\n      0x9e71bc8eea02a63969f509818f2dafb9254532904319f9dbda79b67bd34a5f3d\n        /* \"Staking_flat.sol\":30553:30563  msg.sender */\n      caller\n        /* \"Staking_flat.sol\":30565:30572  _amount */\n      dup4\n        /* \"Staking_flat.sol\":30546:30573  Staked(msg.sender, _amount) */\n      mload(0x40)\n      tag_241\n      swap3\n      swap2\n      swap1\n      tag_130\n      jump\t// in\n    tag_241:\n      mload(0x40)\n      dup1\n      swap2\n      sub\n      swap1\n      log1\n        /* \"Staking_flat.sol\":30031:30580  {... */\n      pop\n        /* \"Staking_flat.sol\":29993:30580  function stake(uint256 _amount) public{... */\n      pop\n      jump\t// out\n        /* \"Staking_flat.sol\":26760:26958  function transferOwnership(address newOwner) public virtual onlyOwner {... */\n    tag_78:\n        /* \"Staking_flat.sol\":26101:26113  _msgSender() */\n      tag_243\n        /* \"Staking_flat.sol\":26101:26111  _msgSender */\n      tag_155\n        /* \"Staking_flat.sol\":26101:26113  _msgSender() */\n      jump\t// in\n    tag_243:\n        /* \"Staking_flat.sol\":26090:26113  owner() == _msgSender() */\n      0xffffffffffffffffffffffffffffffffffffffff\n      and\n        /* \"Staking_flat.sol\":26090:26097  owner() */\n      tag_244\n        /* \"Staking_flat.sol\":26090:26095  owner */\n      tag_63\n        /* \"Staking_flat.sol\":26090:26097  owner() */\n      jump\t// in\n    tag_244:\n        /* \"Staking_flat.sol\":26090:26113  owner() == _msgSender() */\n      0xffffffffffffffffffffffffffffffffffffffff\n      and\n      eq\n        /* \"Staking_flat.sol\":26082:26150  require(owner() == _msgSender(), \"Ownable: caller is not the owner\") */\n      tag_245\n      jumpi\n      mload(0x40)\n      0x08c379a000000000000000000000000000000000000000000000000000000000\n      dup2\n      mstore\n      0x04\n      add\n      tag_246\n      swap1\n      tag_159\n      jump\t// in\n    tag_246:\n      mload(0x40)\n      dup1\n      swap2\n      sub\n      swap1\n      revert\n    tag_245:\n        /* \"Staking_flat.sol\":26868:26869  0 */\n      0x00\n        /* \"Staking_flat.sol\":26848:26870  newOwner != address(0) */\n      0xffffffffffffffffffffffffffffffffffffffff\n      and\n        /* \"Staking_flat.sol\":26848:26856  newOwner */\n      dup2\n        /* \"Staking_flat.sol\":26848:26870  newOwner != address(0) */\n      0xffffffffffffffffffffffffffffffffffffffff\n      and\n      eq\n      iszero\n        /* \"Staking_flat.sol\":26840:26913  require(newOwner != address(0), \"Ownable: new owner is the zero address\") */\n      tag_248\n      jumpi\n      mload(0x40)\n      0x08c379a000000000000000000000000000000000000000000000000000000000\n      dup2\n      mstore\n      0x04\n      add\n      tag_249\n      swap1\n      tag_250\n      jump\t// in\n    tag_249:\n      mload(0x40)\n      dup1\n      swap2\n      sub\n      swap1\n      revert\n    tag_248:\n        /* \"Staking_flat.sol\":26923:26951  _transferOwnership(newOwner) */\n      tag_251\n        /* \"Staking_flat.sol\":26942:26950  newOwner */\n      dup2\n        /* \"Staking_flat.sol\":26923:26941  _transferOwnership */\n      tag_200\n        /* \"Staking_flat.sol\":26923:26951  _transferOwnership(newOwner) */\n      jump\t// in\n    tag_251:\n        /* \"Staking_flat.sol\":26760:26958  function transferOwnership(address newOwner) public virtual onlyOwner {... */\n      pop\n      jump\t// out\n        /* \"Staking_flat.sol\":33900:34017  function rewardAmount() public view returns (uint256) {... */\n    tag_80:\n        /* \"Staking_flat.sol\":33945:33952  uint256 */\n      0x00\n        /* \"Staking_flat.sol\":33971:33978  _staker */\n      0x07\n        /* \"Staking_flat.sol\":33971:33990  _staker[msg.sender] */\n      0x00\n        /* \"Staking_flat.sol\":33979:33989  msg.sender */\n      caller\n        /* \"Staking_flat.sol\":33971:33990  _staker[msg.sender] */\n      0xffffffffffffffffffffffffffffffffffffffff\n      and\n      0xffffffffffffffffffffffffffffffffffffffff\n      and\n      dup2\n      mstore\n      0x20\n      add\n      swap1\n      dup2\n      mstore\n      0x20\n      add\n      0x00\n      keccak256\n        /* \"Staking_flat.sol\":33971:34010  _staker[msg.sender].stakerCurrentReward */\n      0x00\n      add\n      sload\n        /* \"Staking_flat.sol\":33964:34010  return _staker[msg.sender].stakerCurrentReward */\n      swap1\n      pop\n        /* \"Staking_flat.sol\":33900:34017  function rewardAmount() public view returns (uint256) {... */\n      swap1\n      jump\t// out\n        /* \"Staking_flat.sol\":28119:28138  IBEP20 public token */\n    tag_83:\n      0x09\n      0x00\n      swap1\n      sload\n      swap1\n      0x0100\n      exp\n      swap1\n      div\n      0xffffffffffffffffffffffffffffffffffffffff\n      and\n      dup2\n      jump\t// out\n        /* \"Staking_flat.sol\":29050:29422  function updateReward() private{... */\n    tag_95:\n        /* \"Staking_flat.sol\":29100:29121  Staker storage staker */\n      0x00\n        /* \"Staking_flat.sol\":29124:29131  _staker */\n      0x07\n        /* \"Staking_flat.sol\":29124:29143  _staker[msg.sender] */\n      0x00\n        /* \"Staking_flat.sol\":29132:29142  msg.sender */\n      caller\n        /* \"Staking_flat.sol\":29124:29143  _staker[msg.sender] */\n      0xffffffffffffffffffffffffffffffffffffffff\n      and\n      0xffffffffffffffffffffffffffffffffffffffff\n      and\n      dup2\n      mstore\n      0x20\n      add\n      swap1\n      dup2\n      mstore\n      0x20\n      add\n      0x00\n      keccak256\n        /* \"Staking_flat.sol\":29100:29143  Staker storage staker = _staker[msg.sender] */\n      swap1\n      pop\n        /* \"Staking_flat.sol\":29153:29170  uint256 newReward */\n      0x00\n        /* \"Staking_flat.sol\":29173:29281  staker.stakedAmount.mul(block.number.sub(staker.lastUpdatedBlockNumber).div(8640)).mul(_rewardRate).div(1e4) */\n      tag_254\n        /* \"Staking_flat.sol\":29277:29280  1e4 */\n      0x2710\n        /* \"Staking_flat.sol\":29173:29272  staker.stakedAmount.mul(block.number.sub(staker.lastUpdatedBlockNumber).div(8640)).mul(_rewardRate) */\n      tag_255\n        /* \"Staking_flat.sol\":29260:29271  _rewardRate */\n      sload(0x03)\n        /* \"Staking_flat.sol\":29173:29255  staker.stakedAmount.mul(block.number.sub(staker.lastUpdatedBlockNumber).div(8640)) */\n      tag_256\n        /* \"Staking_flat.sol\":29197:29254  block.number.sub(staker.lastUpdatedBlockNumber).div(8640) */\n      tag_257\n        /* \"Staking_flat.sol\":29249:29253  8640 */\n      0x21c0\n        /* \"Staking_flat.sol\":29197:29244  block.number.sub(staker.lastUpdatedBlockNumber) */\n      tag_258\n        /* \"Staking_flat.sol\":29214:29220  staker */\n      dup10\n        /* \"Staking_flat.sol\":29214:29243  staker.lastUpdatedBlockNumber */\n      0x04\n      add\n      sload\n        /* \"Staking_flat.sol\":29197:29209  block.number */\n      number\n        /* \"Staking_flat.sol\":29197:29213  block.number.sub */\n      tag_111\n      swap1\n        /* \"Staking_flat.sol\":29197:29244  block.number.sub(staker.lastUpdatedBlockNumber) */\n      swap2\n      swap1\n      0xffffffff\n      and\n      jump\t// in\n    tag_258:\n        /* \"Staking_flat.sol\":29197:29248  block.number.sub(staker.lastUpdatedBlockNumber).div */\n      tag_112\n      swap1\n        /* \"Staking_flat.sol\":29197:29254  block.number.sub(staker.lastUpdatedBlockNumber).div(8640) */\n      swap2\n      swap1\n      0xffffffff\n      and\n      jump\t// in\n    tag_257:\n        /* \"Staking_flat.sol\":29173:29179  staker */\n      dup8\n        /* \"Staking_flat.sol\":29173:29192  staker.stakedAmount */\n      0x01\n      add\n      sload\n        /* \"Staking_flat.sol\":29173:29196  staker.stakedAmount.mul */\n      tag_124\n      swap1\n        /* \"Staking_flat.sol\":29173:29255  staker.stakedAmount.mul(block.number.sub(staker.lastUpdatedBlockNumber).div(8640)) */\n      swap2\n      swap1\n      0xffffffff\n      and\n      jump\t// in\n    tag_256:\n        /* \"Staking_flat.sol\":29173:29259  staker.stakedAmount.mul(block.number.sub(staker.lastUpdatedBlockNumber).div(8640)).mul */\n      tag_124\n      swap1\n        /* \"Staking_flat.sol\":29173:29272  staker.stakedAmount.mul(block.number.sub(staker.lastUpdatedBlockNumber).div(8640)).mul(_rewardRate) */\n      swap2\n      swap1\n      0xffffffff\n      and\n      jump\t// in\n    tag_255:\n        /* \"Staking_flat.sol\":29173:29276  staker.stakedAmount.mul(block.number.sub(staker.lastUpdatedBlockNumber).div(8640)).mul(_rewardRate).div */\n      tag_112\n      swap1\n        /* \"Staking_flat.sol\":29173:29281  staker.stakedAmount.mul(block.number.sub(staker.lastUpdatedBlockNumber).div(8640)).mul(_rewardRate).div(1e4) */\n      swap2\n      swap1\n      0xffffffff\n      and\n      jump\t// in\n    tag_254:\n        /* \"Staking_flat.sol\":29153:29281  uint256 newReward = staker.stakedAmount.mul(block.number.sub(staker.lastUpdatedBlockNumber).div(8640)).mul(_rewardRate).div(1e4) */\n      swap1\n      pop\n        /* \"Staking_flat.sol\":29320:29361  staker.stakerCurrentReward.add(newReward) */\n      tag_259\n        /* \"Staking_flat.sol\":29351:29360  newReward */\n      dup2\n        /* \"Staking_flat.sol\":29320:29326  staker */\n      dup4\n        /* \"Staking_flat.sol\":29320:29346  staker.stakerCurrentReward */\n      0x00\n      add\n      sload\n        /* \"Staking_flat.sol\":29320:29350  staker.stakerCurrentReward.add */\n      tag_115\n      swap1\n        /* \"Staking_flat.sol\":29320:29361  staker.stakerCurrentReward.add(newReward) */\n      swap2\n      swap1\n      0xffffffff\n      and\n      jump\t// in\n    tag_259:\n        /* \"Staking_flat.sol\":29291:29297  staker */\n      dup3\n        /* \"Staking_flat.sol\":29291:29317  staker.stakerCurrentReward */\n      0x00\n      add\n        /* \"Staking_flat.sol\":29291:29361  staker.stakerCurrentReward = staker.stakerCurrentReward.add(newReward) */\n      dup2\n      swap1\n      sstore\n      pop\n        /* \"Staking_flat.sol\":29403:29415  block.number */\n      number\n        /* \"Staking_flat.sol\":29371:29377  staker */\n      dup3\n        /* \"Staking_flat.sol\":29371:29400  staker.lastUpdatedBlockNumber */\n      0x04\n      add\n        /* \"Staking_flat.sol\":29371:29415  staker.lastUpdatedBlockNumber = block.number */\n      dup2\n      swap1\n      sstore\n      pop\n        /* \"Staking_flat.sol\":29081:29422  {... */\n      pop\n      pop\n        /* \"Staking_flat.sol\":29050:29422  function updateReward() private{... */\n      jump\t// out\n        /* \"Staking_flat.sol\":14446:14542  function sub(uint256 a, uint256 b) internal pure returns (uint256) {... */\n    tag_111:\n        /* \"Staking_flat.sol\":14504:14511  uint256 */\n      0x00\n        /* \"Staking_flat.sol\":14534:14535  b */\n      dup2\n        /* \"Staking_flat.sol\":14530:14531  a */\n      dup4\n        /* \"Staking_flat.sol\":14530:14535  a - b */\n      tag_261\n      swap2\n      swap1\n      tag_262\n      jump\t// in\n    tag_261:\n        /* \"Staking_flat.sol\":14523:14535  return a - b */\n      swap1\n      pop\n        /* \"Staking_flat.sol\":14446:14542  function sub(uint256 a, uint256 b) internal pure returns (uint256) {... */\n      swap3\n      swap2\n      pop\n      pop\n      jump\t// out\n        /* \"Staking_flat.sol\":15174:15270  function div(uint256 a, uint256 b) internal pure returns (uint256) {... */\n    tag_112:\n        /* \"Staking_flat.sol\":15232:15239  uint256 */\n      0x00\n        /* \"Staking_flat.sol\":15262:15263  b */\n      dup2\n        /* \"Staking_flat.sol\":15258:15259  a */\n      dup4\n        /* \"Staking_flat.sol\":15258:15263  a / b */\n      tag_264\n      swap2\n      swap1\n      tag_265\n      jump\t// in\n    tag_264:\n        /* \"Staking_flat.sol\":15251:15263  return a / b */\n      swap1\n      pop\n        /* \"Staking_flat.sol\":15174:15270  function div(uint256 a, uint256 b) internal pure returns (uint256) {... */\n      swap3\n      swap2\n      pop\n      pop\n      jump\t// out\n        /* \"Staking_flat.sol\":14079:14175  function add(uint256 a, uint256 b) internal pure returns (uint256) {... */\n    tag_115:\n        /* \"Staking_flat.sol\":14137:14144  uint256 */\n      0x00\n        /* \"Staking_flat.sol\":14167:14168  b */\n      dup2\n        /* \"Staking_flat.sol\":14163:14164  a */\n      dup4\n        /* \"Staking_flat.sol\":14163:14168  a + b */\n      tag_267\n      swap2\n      swap1\n      tag_268\n      jump\t// in\n    tag_267:\n        /* \"Staking_flat.sol\":14156:14168  return a + b */\n      swap1\n      pop\n        /* \"Staking_flat.sol\":14079:14175  function add(uint256 a, uint256 b) internal pure returns (uint256) {... */\n      swap3\n      swap2\n      pop\n      pop\n      jump\t// out\n        /* \"Staking_flat.sol\":14789:14885  function mul(uint256 a, uint256 b) internal pure returns (uint256) {... */\n    tag_124:\n        /* \"Staking_flat.sol\":14847:14854  uint256 */\n      0x00\n        /* \"Staking_flat.sol\":14877:14878  b */\n      dup2\n        /* \"Staking_flat.sol\":14873:14874  a */\n      dup4\n        /* \"Staking_flat.sol\":14873:14878  a * b */\n      tag_270\n      swap2\n      swap1\n      tag_271\n      jump\t// in\n    tag_270:\n        /* \"Staking_flat.sol\":14866:14878  return a * b */\n      swap1\n      pop\n        /* \"Staking_flat.sol\":14789:14885  function mul(uint256 a, uint256 b) internal pure returns (uint256) {... */\n      swap3\n      swap2\n      pop\n      pop\n      jump\t// out\n        /* \"Staking_flat.sol\":18231:18406  function safeTransfer(IBEP20 token, address to, uint256 value) internal {... */\n    tag_128:\n        /* \"Staking_flat.sol\":18313:18399  _callOptionalReturn(token, abi.encodeWithSelector(token.transfer.selector, to, value)) */\n      tag_273\n        /* \"Staking_flat.sol\":18333:18338  token */\n      dup4\n        /* \"Staking_flat.sol\":18363:18386  token.transfer.selector */\n      shl(0xe0, 0xa9059cbb)\n        /* \"Staking_flat.sol\":18388:18390  to */\n      dup5\n        /* \"Staking_flat.sol\":18392:18397  value */\n      dup5\n        /* \"Staking_flat.sol\":18340:18398  abi.encodeWithSelector(token.transfer.selector, to, value) */\n      add(0x24, mload(0x40))\n      tag_274\n      swap3\n      swap2\n      swap1\n      tag_130\n      jump\t// in\n    tag_274:\n      mload(0x40)\n      0x20\n      dup2\n      dup4\n      sub\n      sub\n      dup2\n      mstore\n      swap1\n      0x40\n      mstore\n      swap1\n      not(0xffffffffffffffffffffffffffffffffffffffffffffffffffffffff)\n      and\n      0x20\n      dup3\n      add\n      dup1\n      mload\n      0xffffffffffffffffffffffffffffffffffffffffffffffffffffffff\n      dup4\n      dup2\n      dup4\n      and\n      or\n      dup4\n      mstore\n      pop\n      pop\n      pop\n      pop\n        /* \"Staking_flat.sol\":18313:18332  _callOptionalReturn */\n      tag_275\n        /* \"Staking_flat.sol\":18313:18399  _callOptionalReturn(token, abi.encodeWithSelector(token.transfer.selector, to, value)) */\n      jump\t// in\n    tag_273:\n        /* \"Staking_flat.sol\":18231:18406  function safeTransfer(IBEP20 token, address to, uint256 value) internal {... */\n      pop\n      pop\n      pop\n      jump\t// out\n        /* \"Staking_flat.sol\":24669:24765  function _msgSender() internal view virtual returns (address) {... */\n    tag_155:\n        /* \"Staking_flat.sol\":24722:24729  address */\n      0x00\n        /* \"Staking_flat.sol\":24748:24758  msg.sender */\n      caller\n        /* \"Staking_flat.sol\":24741:24758  return msg.sender */\n      swap1\n      pop\n        /* \"Staking_flat.sol\":24669:24765  function _msgSender() internal view virtual returns (address) {... */\n      swap1\n      jump\t// out\n        /* \"Staking_flat.sol\":27112:27299  function _transferOwnership(address newOwner) internal virtual {... */\n    tag_200:\n        /* \"Staking_flat.sol\":27185:27201  address oldOwner */\n      0x00\n        /* \"Staking_flat.sol\":27204:27210  _owner */\n      dup1\n      0x00\n      swap1\n      sload\n      swap1\n      0x0100\n      exp\n      swap1\n      div\n      0xffffffffffffffffffffffffffffffffffffffff\n      and\n        /* \"Staking_flat.sol\":27185:27210  address oldOwner = _owner */\n      swap1\n      pop\n        /* \"Staking_flat.sol\":27229:27237  newOwner */\n      dup2\n        /* \"Staking_flat.sol\":27220:27226  _owner */\n      0x00\n      dup1\n        /* \"Staking_flat.sol\":27220:27237  _owner = newOwner */\n      0x0100\n      exp\n      dup2\n      sload\n      dup2\n      0xffffffffffffffffffffffffffffffffffffffff\n      mul\n      not\n      and\n      swap1\n      dup4\n      0xffffffffffffffffffffffffffffffffffffffff\n      and\n      mul\n      or\n      swap1\n      sstore\n      pop\n        /* \"Staking_flat.sol\":27283:27291  newOwner */\n      dup2\n        /* \"Staking_flat.sol\":27252:27292  OwnershipTransferred(oldOwner, newOwner) */\n      0xffffffffffffffffffffffffffffffffffffffff\n      and\n        /* \"Staking_flat.sol\":27273:27281  oldOwner */\n      dup2\n        /* \"Staking_flat.sol\":27252:27292  OwnershipTransferred(oldOwner, newOwner) */\n      0xffffffffffffffffffffffffffffffffffffffff\n      and\n      0x8be0079c531659141344cd1fd0a4f28419497f9722a3daafe3b4186f6b6457e0\n      mload(0x40)\n      mload(0x40)\n      dup1\n      swap2\n      sub\n      swap1\n      log3\n        /* \"Staking_flat.sol\":27175:27299  {... */\n      pop\n        /* \"Staking_flat.sol\":27112:27299  function _transferOwnership(address newOwner) internal virtual {... */\n      pop\n      jump\t// out\n        /* \"Staking_flat.sol\":18412:18615  function safeTransferFrom(IBEP20 token, address from, address to, uint256 value) internal {... */\n    tag_238:\n        /* \"Staking_flat.sol\":18512:18608  _callOptionalReturn(token, abi.encodeWithSelector(token.transferFrom.selector, from, to, value)) */\n      tag_279\n        /* \"Staking_flat.sol\":18532:18537  token */\n      dup5\n        /* \"Staking_flat.sol\":18562:18589  token.transferFrom.selector */\n      shl(0xe0, 0x23b872dd)\n        /* \"Staking_flat.sol\":18591:18595  from */\n      dup6\n        /* \"Staking_flat.sol\":18597:18599  to */\n      dup6\n        /* \"Staking_flat.sol\":18601:18606  value */\n      dup6\n        /* \"Staking_flat.sol\":18539:18607  abi.encodeWithSelector(token.transferFrom.selector, from, to, value) */\n      add(0x24, mload(0x40))\n      tag_280\n      swap4\n      swap3\n      swap2\n      swap1\n      tag_281\n      jump\t// in\n    tag_280:\n      mload(0x40)\n      0x20\n      dup2\n      dup4\n      sub\n      sub\n      dup2\n      mstore\n      swap1\n      0x40\n      mstore\n      swap1\n      not(0xffffffffffffffffffffffffffffffffffffffffffffffffffffffff)\n      and\n      0x20\n      dup3\n      add\n      dup1\n      mload\n      0xffffffffffffffffffffffffffffffffffffffffffffffffffffffff\n      dup4\n      dup2\n      dup4\n      and\n      or\n      dup4\n      mstore\n      pop\n      pop\n      pop\n      pop\n        /* \"Staking_flat.sol\":18512:18531  _callOptionalReturn */\n      tag_275\n        /* \"Staking_flat.sol\":18512:18608  _callOptionalReturn(token, abi.encodeWithSelector(token.transferFrom.selector, from, to, value)) */\n      jump\t// in\n    tag_279:\n        /* \"Staking_flat.sol\":18412:18615  function safeTransferFrom(IBEP20 token, address from, address to, uint256 value) internal {... */\n      pop\n      pop\n      pop\n      pop\n      jump\t// out\n        /* \"Staking_flat.sol\":20498:21257  function _callOptionalReturn(IBEP20 token, bytes memory data) private {... */\n    tag_275:\n        /* \"Staking_flat.sol\":20925:20948  bytes memory returndata */\n      0x00\n        /* \"Staking_flat.sol\":20951:21020  address(token).functionCall(data, \"SafeBEP20: low-level call failed\") */\n      tag_283\n        /* \"Staking_flat.sol\":20979:20983  data */\n      dup3\n        /* \"Staking_flat.sol\":20951:21020  address(token).functionCall(data, \"SafeBEP20: low-level call failed\") */\n      mload(0x40)\n      dup1\n      0x40\n      add\n      0x40\n      mstore\n      dup1\n      0x20\n      dup2\n      mstore\n      0x20\n      add\n      0x5361666542455032303a206c6f772d6c6576656c2063616c6c206661696c6564\n      dup2\n      mstore\n      pop\n        /* \"Staking_flat.sol\":20959:20964  token */\n      dup6\n        /* \"Staking_flat.sol\":20951:20978  address(token).functionCall */\n      0xffffffffffffffffffffffffffffffffffffffff\n      and\n      tag_284\n      swap1\n        /* \"Staking_flat.sol\":20951:21020  address(token).functionCall(data, \"SafeBEP20: low-level call failed\") */\n      swap3\n      swap2\n      swap1\n      0xffffffff\n      and\n      jump\t// in\n    tag_283:\n        /* \"Staking_flat.sol\":20925:21020  bytes memory returndata = address(token).functionCall(data, \"SafeBEP20: low-level call failed\") */\n      swap1\n      pop\n        /* \"Staking_flat.sol\":21054:21055  0 */\n      0x00\n        /* \"Staking_flat.sol\":21034:21044  returndata */\n      dup2\n        /* \"Staking_flat.sol\":21034:21051  returndata.length */\n      mload\n        /* \"Staking_flat.sol\":21034:21055  returndata.length > 0 */\n      gt\n        /* \"Staking_flat.sol\":21030:21251  if (returndata.length > 0) { // Return data is optional... */\n      iszero\n      tag_285\n      jumpi\n        /* \"Staking_flat.sol\":21174:21184  returndata */\n      dup1\n        /* \"Staking_flat.sol\":21163:21193  abi.decode(returndata, (bool)) */\n      dup1\n      0x20\n      add\n      swap1\n      mload\n      dup2\n      add\n      swap1\n      tag_286\n      swap2\n      swap1\n      tag_287\n      jump\t// in\n    tag_286:\n        /* \"Staking_flat.sol\":21155:21240  require(abi.decode(returndata, (bool)), \"SafeBEP20: BEP20 operation did not succeed\") */\n      tag_288\n      jumpi\n      mload(0x40)\n      0x08c379a000000000000000000000000000000000000000000000000000000000\n      dup2\n      mstore\n      0x04\n      add\n      tag_289\n      swap1\n      tag_290\n      jump\t// in\n    tag_289:\n      mload(0x40)\n      dup1\n      swap2\n      sub\n      swap1\n      revert\n    tag_288:\n        /* \"Staking_flat.sol\":21030:21251  if (returndata.length > 0) { // Return data is optional... */\n    tag_285:\n        /* \"Staking_flat.sol\":20568:21257  {... */\n      pop\n        /* \"Staking_flat.sol\":20498:21257  function _callOptionalReturn(IBEP20 token, bytes memory data) private {... */\n      pop\n      pop\n      jump\t// out\n        /* \"Staking_flat.sol\":6938:7161  function functionCall(... */\n    tag_284:\n        /* \"Staking_flat.sol\":7071:7083  bytes memory */\n      0x60\n        /* \"Staking_flat.sol\":7102:7154  functionCallWithValue(target, data, 0, errorMessage) */\n      tag_292\n        /* \"Staking_flat.sol\":7124:7130  target */\n      dup5\n        /* \"Staking_flat.sol\":7132:7136  data */\n      dup5\n        /* \"Staking_flat.sol\":7138:7139  0 */\n      0x00\n        /* \"Staking_flat.sol\":7141:7153  errorMessage */\n      dup6\n        /* \"Staking_flat.sol\":7102:7123  functionCallWithValue */\n      tag_293\n        /* \"Staking_flat.sol\":7102:7154  functionCallWithValue(target, data, 0, errorMessage) */\n      jump\t// in\n    tag_292:\n        /* \"Staking_flat.sol\":7095:7154  return functionCallWithValue(target, data, 0, errorMessage) */\n      swap1\n      pop\n        /* \"Staking_flat.sol\":6938:7161  function functionCall(... */\n      swap4\n      swap3\n      pop\n      pop\n      pop\n      jump\t// out\n        /* \"Staking_flat.sol\":8025:8524  function functionCallWithValue(... */\n    tag_293:\n        /* \"Staking_flat.sol\":8190:8202  bytes memory */\n      0x60\n        /* \"Staking_flat.sol\":8247:8252  value */\n      dup3\n        /* \"Staking_flat.sol\":8222:8243  address(this).balance */\n      selfbalance\n        /* \"Staking_flat.sol\":8222:8252  address(this).balance >= value */\n      lt\n      iszero\n        /* \"Staking_flat.sol\":8214:8295  require(address(this).balance >= value, \"Address: insufficient balance for call\") */\n      tag_295\n      jumpi\n      mload(0x40)\n      0x08c379a000000000000000000000000000000000000000000000000000000000\n      dup2\n      mstore\n      0x04\n      add\n      tag_296\n      swap1\n      tag_297\n      jump\t// in\n    tag_296:\n      mload(0x40)\n      dup1\n      swap2\n      sub\n      swap1\n      revert\n    tag_295:\n        /* \"Staking_flat.sol\":8313:8331  isContract(target) */\n      tag_298\n        /* \"Staking_flat.sol\":8324:8330  target */\n      dup6\n        /* \"Staking_flat.sol\":8313:8323  isContract */\n      tag_299\n        /* \"Staking_flat.sol\":8313:8331  isContract(target) */\n      jump\t// in\n    tag_298:\n        /* \"Staking_flat.sol\":8305:8365  require(isContract(target), \"Address: call to non-contract\") */\n      tag_300\n      jumpi\n      mload(0x40)\n      0x08c379a000000000000000000000000000000000000000000000000000000000\n      dup2\n      mstore\n      0x04\n      add\n      tag_301\n      swap1\n      tag_302\n      jump\t// in\n    tag_301:\n      mload(0x40)\n      dup1\n      swap2\n      sub\n      swap1\n      revert\n    tag_300:\n        /* \"Staking_flat.sol\":8377:8389  bool success */\n      0x00\n        /* \"Staking_flat.sol\":8391:8414  bytes memory returndata */\n      dup1\n        /* \"Staking_flat.sol\":8418:8424  target */\n      dup7\n        /* \"Staking_flat.sol\":8418:8429  target.call */\n      0xffffffffffffffffffffffffffffffffffffffff\n      and\n        /* \"Staking_flat.sol\":8437:8442  value */\n      dup6\n        /* \"Staking_flat.sol\":8444:8448  data */\n      dup8\n        /* \"Staking_flat.sol\":8418:8449  target.call{value: value}(data) */\n      mload(0x40)\n      tag_303\n      swap2\n      swap1\n      tag_304\n      jump\t// in\n    tag_303:\n      0x00\n      mload(0x40)\n      dup1\n      dup4\n      sub\n      dup2\n      dup6\n      dup8\n      gas\n      call\n      swap3\n      pop\n      pop\n      pop\n      returndatasize\n      dup1\n      0x00\n      dup2\n      eq\n      tag_307\n      jumpi\n      mload(0x40)\n      swap2\n      pop\n      and(add(returndatasize, 0x3f), not(0x1f))\n      dup3\n      add\n      0x40\n      mstore\n      returndatasize\n      dup3\n      mstore\n      returndatasize\n      0x00\n      0x20\n      dup5\n      add\n      returndatacopy\n      jump(tag_306)\n    tag_307:\n      0x60\n      swap2\n      pop\n    tag_306:\n      pop\n        /* \"Staking_flat.sol\":8376:8449  (bool success, bytes memory returndata) = target.call{value: value}(data) */\n      swap2\n      pop\n      swap2\n      pop\n        /* \"Staking_flat.sol\":8466:8517  verifyCallResult(success, returndata, errorMessage) */\n      tag_308\n        /* \"Staking_flat.sol\":8483:8490  success */\n      dup3\n        /* \"Staking_flat.sol\":8492:8502  returndata */\n      dup3\n        /* \"Staking_flat.sol\":8504:8516  errorMessage */\n      dup7\n        /* \"Staking_flat.sol\":8466:8482  verifyCallResult */\n      tag_309\n        /* \"Staking_flat.sol\":8466:8517  verifyCallResult(success, returndata, errorMessage) */\n      jump\t// in\n    tag_308:\n        /* \"Staking_flat.sol\":8459:8517  return verifyCallResult(success, returndata, errorMessage) */\n      swap3\n      pop\n      pop\n      pop\n        /* \"Staking_flat.sol\":8025:8524  function functionCallWithValue(... */\n      swap5\n      swap4\n      pop\n      pop\n      pop\n      pop\n      jump\t// out\n        /* \"Staking_flat.sol\":4252:4572  function isContract(address account) internal view returns (bool) {... */\n    tag_299:\n        /* \"Staking_flat.sol\":4312:4316  bool */\n      0x00\n        /* \"Staking_flat.sol\":4564:4565  0 */\n      dup1\n        /* \"Staking_flat.sol\":4542:4549  account */\n      dup3\n        /* \"Staking_flat.sol\":4542:4561  account.code.length */\n      0xffffffffffffffffffffffffffffffffffffffff\n      and\n      extcodesize\n        /* \"Staking_flat.sol\":4542:4565  account.code.length > 0 */\n      gt\n        /* \"Staking_flat.sol\":4535:4565  return account.code.length > 0 */\n      swap1\n      pop\n        /* \"Staking_flat.sol\":4252:4572  function isContract(address account) internal view returns (bool) {... */\n      swap2\n      swap1\n      pop\n      jump\t// out\n        /* \"Staking_flat.sol\":10638:11330  function verifyCallResult(... */\n    tag_309:\n        /* \"Staking_flat.sol\":10784:10796  bytes memory */\n      0x60\n        /* \"Staking_flat.sol\":10812:10819  success */\n      dup4\n        /* \"Staking_flat.sol\":10808:11324  if (success) {... */\n      iszero\n      tag_312\n      jumpi\n        /* \"Staking_flat.sol\":10842:10852  returndata */\n      dup3\n        /* \"Staking_flat.sol\":10835:10852  return returndata */\n      swap1\n      pop\n      jump(tag_311)\n        /* \"Staking_flat.sol\":10808:11324  if (success) {... */\n    tag_312:\n        /* \"Staking_flat.sol\":10973:10974  0 */\n      0x00\n        /* \"Staking_flat.sol\":10953:10963  returndata */\n      dup4\n        /* \"Staking_flat.sol\":10953:10970  returndata.length */\n      mload\n        /* \"Staking_flat.sol\":10953:10974  returndata.length > 0 */\n      gt\n        /* \"Staking_flat.sol\":10949:11314  if (returndata.length > 0) {... */\n      iszero\n      tag_314\n      jumpi\n        /* \"Staking_flat.sol\":11147:11157  returndata */\n      dup3\n        /* \"Staking_flat.sol\":11141:11158  mload(returndata) */\n      mload\n        /* \"Staking_flat.sol\":11207:11222  returndata_size */\n      dup1\n        /* \"Staking_flat.sol\":11194:11204  returndata */\n      dup5\n        /* \"Staking_flat.sol\":11190:11192  32 */\n      0x20\n        /* \"Staking_flat.sol\":11186:11205  add(32, returndata) */\n      add\n        /* \"Staking_flat.sol\":11179:11223  revert(add(32, returndata), returndata_size) */\n      revert\n        /* \"Staking_flat.sol\":10949:11314  if (returndata.length > 0) {... */\n    tag_314:\n        /* \"Staking_flat.sol\":11286:11298  errorMessage */\n      dup2\n        /* \"Staking_flat.sol\":11279:11299  revert(errorMessage) */\n      mload(0x40)\n      0x08c379a000000000000000000000000000000000000000000000000000000000\n      dup2\n      mstore\n      0x04\n      add\n      tag_316\n      swap2\n      swap1\n      tag_317\n      jump\t// in\n    tag_316:\n      mload(0x40)\n      dup1\n      swap2\n      sub\n      swap1\n      revert\n        /* \"Staking_flat.sol\":10638:11330  function verifyCallResult(... */\n    tag_311:\n      swap4\n      swap3\n      pop\n      pop\n      pop\n      jump\t// out\n        /* \"#utility.yul\":7:146   */\n    tag_319:\n        /* \"#utility.yul\":53:58   */\n      0x00\n        /* \"#utility.yul\":91:97   */\n      dup2\n        /* \"#utility.yul\":78:98   */\n      calldataload\n        /* \"#utility.yul\":69:98   */\n      swap1\n      pop\n        /* \"#utility.yul\":107:140   */\n      tag_321\n        /* \"#utility.yul\":134:139   */\n      dup2\n        /* \"#utility.yul\":107:140   */\n      tag_322\n      jump\t// in\n    tag_321:\n        /* \"#utility.yul\":7:146   */\n      swap3\n      swap2\n      pop\n      pop\n      jump\t// out\n        /* \"#utility.yul\":152:289   */\n    tag_323:\n        /* \"#utility.yul\":206:211   */\n      0x00\n        /* \"#utility.yul\":237:243   */\n      dup2\n        /* \"#utility.yul\":231:244   */\n      mload\n        /* \"#utility.yul\":222:244   */\n      swap1\n      pop\n        /* \"#utility.yul\":253:283   */\n      tag_325\n        /* \"#utility.yul\":277:282   */\n      dup2\n        /* \"#utility.yul\":253:283   */\n      tag_326\n      jump\t// in\n    tag_325:\n        /* \"#utility.yul\":152:289   */\n      swap3\n      swap2\n      pop\n      pop\n      jump\t// out\n        /* \"#utility.yul\":295:434   */\n    tag_327:\n        /* \"#utility.yul\":341:346   */\n      0x00\n        /* \"#utility.yul\":379:385   */\n      dup2\n        /* \"#utility.yul\":366:386   */\n      calldataload\n        /* \"#utility.yul\":357:386   */\n      swap1\n      pop\n        /* \"#utility.yul\":395:428   */\n      tag_329\n        /* \"#utility.yul\":422:427   */\n      dup2\n        /* \"#utility.yul\":395:428   */\n      tag_330\n      jump\t// in\n    tag_329:\n        /* \"#utility.yul\":295:434   */\n      swap3\n      swap2\n      pop\n      pop\n      jump\t// out\n        /* \"#utility.yul\":440:583   */\n    tag_331:\n        /* \"#utility.yul\":497:502   */\n      0x00\n        /* \"#utility.yul\":528:534   */\n      dup2\n        /* \"#utility.yul\":522:535   */\n      mload\n        /* \"#utility.yul\":513:535   */\n      swap1\n      pop\n        /* \"#utility.yul\":544:577   */\n      tag_333\n        /* \"#utility.yul\":571:576   */\n      dup2\n        /* \"#utility.yul\":544:577   */\n      tag_330\n      jump\t// in\n    tag_333:\n        /* \"#utility.yul\":440:583   */\n      swap3\n      swap2\n      pop\n      pop\n      jump\t// out\n        /* \"#utility.yul\":589:918   */\n    tag_77:\n        /* \"#utility.yul\":648:654   */\n      0x00\n        /* \"#utility.yul\":697:699   */\n      0x20\n        /* \"#utility.yul\":685:694   */\n      dup3\n        /* \"#utility.yul\":676:683   */\n      dup5\n        /* \"#utility.yul\":672:695   */\n      sub\n        /* \"#utility.yul\":668:700   */\n      slt\n        /* \"#utility.yul\":665:784   */\n      iszero\n      tag_335\n      jumpi\n        /* \"#utility.yul\":703:782   */\n      tag_336\n      tag_337\n      jump\t// in\n    tag_336:\n        /* \"#utility.yul\":665:784   */\n    tag_335:\n        /* \"#utility.yul\":823:824   */\n      0x00\n        /* \"#utility.yul\":848:901   */\n      tag_338\n        /* \"#utility.yul\":893:900   */\n      dup5\n        /* \"#utility.yul\":884:890   */\n      dup3\n        /* \"#utility.yul\":873:882   */\n      dup6\n        /* \"#utility.yul\":869:891   */\n      add\n        /* \"#utility.yul\":848:901   */\n      tag_319\n      jump\t// in\n    tag_338:\n        /* \"#utility.yul\":838:901   */\n      swap2\n      pop\n        /* \"#utility.yul\":794:911   */\n      pop\n        /* \"#utility.yul\":589:918   */\n      swap3\n      swap2\n      pop\n      pop\n      jump\t// out\n        /* \"#utility.yul\":924:1269   */\n    tag_287:\n        /* \"#utility.yul\":991:997   */\n      0x00\n        /* \"#utility.yul\":1040:1042   */\n      0x20\n        /* \"#utility.yul\":1028:1037   */\n      dup3\n        /* \"#utility.yul\":1019:1026   */\n      dup5\n        /* \"#utility.yul\":1015:1038   */\n      sub\n        /* \"#utility.yul\":1011:1043   */\n      slt\n        /* \"#utility.yul\":1008:1127   */\n      iszero\n      tag_340\n      jumpi\n        /* \"#utility.yul\":1046:1125   */\n      tag_341\n      tag_337\n      jump\t// in\n    tag_341:\n        /* \"#utility.yul\":1008:1127   */\n    tag_340:\n        /* \"#utility.yul\":1166:1167   */\n      0x00\n        /* \"#utility.yul\":1191:1252   */\n      tag_342\n        /* \"#utility.yul\":1244:1251   */\n      dup5\n        /* \"#utility.yul\":1235:1241   */\n      dup3\n        /* \"#utility.yul\":1224:1233   */\n      dup6\n        /* \"#utility.yul\":1220:1242   */\n      add\n        /* \"#utility.yul\":1191:1252   */\n      tag_323\n      jump\t// in\n    tag_342:\n        /* \"#utility.yul\":1181:1252   */\n      swap2\n      pop\n        /* \"#utility.yul\":1137:1262   */\n      pop\n        /* \"#utility.yul\":924:1269   */\n      swap3\n      swap2\n      pop\n      pop\n      jump\t// out\n        /* \"#utility.yul\":1275:1604   */\n    tag_31:\n        /* \"#utility.yul\":1334:1340   */\n      0x00\n        /* \"#utility.yul\":1383:1385   */\n      0x20\n        /* \"#utility.yul\":1371:1380   */\n      dup3\n        /* \"#utility.yul\":1362:1369   */\n      dup5\n        /* \"#utility.yul\":1358:1381   */\n      sub\n        /* \"#utility.yul\":1354:1386   */\n      slt\n        /* \"#utility.yul\":1351:1470   */\n      iszero\n      tag_344\n      jumpi\n        /* \"#utility.yul\":1389:1468   */\n      tag_345\n      tag_337\n      jump\t// in\n    tag_345:\n        /* \"#utility.yul\":1351:1470   */\n    tag_344:\n        /* \"#utility.yul\":1509:1510   */\n      0x00\n        /* \"#utility.yul\":1534:1587   */\n      tag_346\n        /* \"#utility.yul\":1579:1586   */\n      dup5\n        /* \"#utility.yul\":1570:1576   */\n      dup3\n        /* \"#utility.yul\":1559:1568   */\n      dup6\n        /* \"#utility.yul\":1555:1577   */\n      add\n        /* \"#utility.yul\":1534:1587   */\n      tag_327\n      jump\t// in\n    tag_346:\n        /* \"#utility.yul\":1524:1587   */\n      swap2\n      pop\n        /* \"#utility.yul\":1480:1597   */\n      pop\n        /* \"#utility.yul\":1275:1604   */\n      swap3\n      swap2\n      pop\n      pop\n      jump\t// out\n        /* \"#utility.yul\":1610:1961   */\n    tag_101:\n        /* \"#utility.yul\":1680:1686   */\n      0x00\n        /* \"#utility.yul\":1729:1731   */\n      0x20\n        /* \"#utility.yul\":1717:1726   */\n      dup3\n        /* \"#utility.yul\":1708:1715   */\n      dup5\n        /* \"#utility.yul\":1704:1727   */\n      sub\n        /* \"#utility.yul\":1700:1732   */\n      slt\n        /* \"#utility.yul\":1697:1816   */\n      iszero\n      tag_348\n      jumpi\n        /* \"#utility.yul\":1735:1814   */\n      tag_349\n      tag_337\n      jump\t// in\n    tag_349:\n        /* \"#utility.yul\":1697:1816   */\n    tag_348:\n        /* \"#utility.yul\":1855:1856   */\n      0x00\n        /* \"#utility.yul\":1880:1944   */\n      tag_350\n        /* \"#utility.yul\":1936:1943   */\n      dup5\n        /* \"#utility.yul\":1927:1933   */\n      dup3\n        /* \"#utility.yul\":1916:1925   */\n      dup6\n        /* \"#utility.yul\":1912:1934   */\n      add\n        /* \"#utility.yul\":1880:1944   */\n      tag_331\n      jump\t// in\n    tag_350:\n        /* \"#utility.yul\":1870:1944   */\n      swap2\n      pop\n        /* \"#utility.yul\":1826:1954   */\n      pop\n        /* \"#utility.yul\":1610:1961   */\n      swap3\n      swap2\n      pop\n      pop\n      jump\t// out\n        /* \"#utility.yul\":1967:2441   */\n    tag_43:\n        /* \"#utility.yul\":2035:2041   */\n      0x00\n        /* \"#utility.yul\":2043:2049   */\n      dup1\n        /* \"#utility.yul\":2092:2094   */\n      0x40\n        /* \"#utility.yul\":2080:2089   */\n      dup4\n        /* \"#utility.yul\":2071:2078   */\n      dup6\n        /* \"#utility.yul\":2067:2090   */\n      sub\n        /* \"#utility.yul\":2063:2095   */\n      slt\n        /* \"#utility.yul\":2060:2179   */\n      iszero\n      tag_352\n      jumpi\n        /* \"#utility.yul\":2098:2177   */\n      tag_353\n      tag_337\n      jump\t// in\n    tag_353:\n        /* \"#utility.yul\":2060:2179   */\n    tag_352:\n        /* \"#utility.yul\":2218:2219   */\n      0x00\n        /* \"#utility.yul\":2243:2296   */\n      tag_354\n        /* \"#utility.yul\":2288:2295   */\n      dup6\n        /* \"#utility.yul\":2279:2285   */\n      dup3\n        /* \"#utility.yul\":2268:2277   */\n      dup7\n        /* \"#utility.yul\":2264:2286   */\n      add\n        /* \"#utility.yul\":2243:2296   */\n      tag_327\n      jump\t// in\n    tag_354:\n        /* \"#utility.yul\":2233:2296   */\n      swap3\n      pop\n        /* \"#utility.yul\":2189:2306   */\n      pop\n        /* \"#utility.yul\":2345:2347   */\n      0x20\n        /* \"#utility.yul\":2371:2424   */\n      tag_355\n        /* \"#utility.yul\":2416:2423   */\n      dup6\n        /* \"#utility.yul\":2407:2413   */\n      dup3\n        /* \"#utility.yul\":2396:2405   */\n      dup7\n        /* \"#utility.yul\":2392:2414   */\n      add\n        /* \"#utility.yul\":2371:2424   */\n      tag_327\n      jump\t// in\n    tag_355:\n        /* \"#utility.yul\":2361:2424   */\n      swap2\n      pop\n        /* \"#utility.yul\":2316:2434   */\n      pop\n        /* \"#utility.yul\":1967:2441   */\n      swap3\n      pop\n      swap3\n      swap1\n      pop\n      jump\t// out\n        /* \"#utility.yul\":2447:2565   */\n    tag_356:\n        /* \"#utility.yul\":2534:2558   */\n      tag_358\n        /* \"#utility.yul\":2552:2557   */\n      dup2\n        /* \"#utility.yul\":2534:2558   */\n      tag_359\n      jump\t// in\n    tag_358:\n        /* \"#utility.yul\":2529:2532   */\n      dup3\n        /* \"#utility.yul\":2522:2559   */\n      mstore\n        /* \"#utility.yul\":2447:2565   */\n      pop\n      pop\n      jump\t// out\n        /* \"#utility.yul\":2571:2944   */\n    tag_360:\n        /* \"#utility.yul\":2675:2678   */\n      0x00\n        /* \"#utility.yul\":2703:2741   */\n      tag_362\n        /* \"#utility.yul\":2735:2740   */\n      dup3\n        /* \"#utility.yul\":2703:2741   */\n      tag_363\n      jump\t// in\n    tag_362:\n        /* \"#utility.yul\":2757:2845   */\n      tag_364\n        /* \"#utility.yul\":2838:2844   */\n      dup2\n        /* \"#utility.yul\":2833:2836   */\n      dup6\n        /* \"#utility.yul\":2757:2845   */\n      tag_365\n      jump\t// in\n    tag_364:\n        /* \"#utility.yul\":2750:2845   */\n      swap4\n      pop\n        /* \"#utility.yul\":2854:2906   */\n      tag_366\n        /* \"#utility.yul\":2899:2905   */\n      dup2\n        /* \"#utility.yul\":2894:2897   */\n      dup6\n        /* \"#utility.yul\":2887:2891   */\n      0x20\n        /* \"#utility.yul\":2880:2885   */\n      dup7\n        /* \"#utility.yul\":2876:2892   */\n      add\n        /* \"#utility.yul\":2854:2906   */\n      tag_367\n      jump\t// in\n    tag_366:\n        /* \"#utility.yul\":2931:2937   */\n      dup1\n        /* \"#utility.yul\":2926:2929   */\n      dup5\n        /* \"#utility.yul\":2922:2938   */\n      add\n        /* \"#utility.yul\":2915:2938   */\n      swap2\n      pop\n        /* \"#utility.yul\":2679:2944   */\n      pop\n        /* \"#utility.yul\":2571:2944   */\n      swap3\n      swap2\n      pop\n      pop\n      jump\t// out\n        /* \"#utility.yul\":2950:3109   */\n    tag_368:\n        /* \"#utility.yul\":3051:3102   */\n      tag_370\n        /* \"#utility.yul\":3096:3101   */\n      dup2\n        /* \"#utility.yul\":3051:3102   */\n      tag_371\n      jump\t// in\n    tag_370:\n        /* \"#utility.yul\":3046:3049   */\n      dup3\n        /* \"#utility.yul\":3039:3103   */\n      mstore\n        /* \"#utility.yul\":2950:3109   */\n      pop\n      pop\n      jump\t// out\n        /* \"#utility.yul\":3115:3479   */\n    tag_372:\n        /* \"#utility.yul\":3203:3206   */\n      0x00\n        /* \"#utility.yul\":3231:3270   */\n      tag_374\n        /* \"#utility.yul\":3264:3269   */\n      dup3\n        /* \"#utility.yul\":3231:3270   */\n      tag_375\n      jump\t// in\n    tag_374:\n        /* \"#utility.yul\":3286:3357   */\n      tag_376\n        /* \"#utility.yul\":3350:3356   */\n      dup2\n        /* \"#utility.yul\":3345:3348   */\n      dup6\n        /* \"#utility.yul\":3286:3357   */\n      tag_377\n      jump\t// in\n    tag_376:\n        /* \"#utility.yul\":3279:3357   */\n      swap4\n      pop\n        /* \"#utility.yul\":3366:3418   */\n      tag_378\n        /* \"#utility.yul\":3411:3417   */\n      dup2\n        /* \"#utility.yul\":3406:3409   */\n      dup6\n        /* \"#utility.yul\":3399:3403   */\n      0x20\n        /* \"#utility.yul\":3392:3397   */\n      dup7\n        /* \"#utility.yul\":3388:3404   */\n      add\n        /* \"#utility.yul\":3366:3418   */\n      tag_367\n      jump\t// in\n    tag_378:\n        /* \"#utility.yul\":3443:3472   */\n      tag_379\n        /* \"#utility.yul\":3465:3471   */\n      dup2\n        /* \"#utility.yul\":3443:3472   */\n      tag_380\n      jump\t// in\n    tag_379:\n        /* \"#utility.yul\":3438:3441   */\n      dup5\n        /* \"#utility.yul\":3434:3473   */\n      add\n        /* \"#utility.yul\":3427:3473   */\n      swap2\n      pop\n        /* \"#utility.yul\":3207:3479   */\n      pop\n        /* \"#utility.yul\":3115:3479   */\n      swap3\n      swap2\n      pop\n      pop\n      jump\t// out\n        /* \"#utility.yul\":3485:3851   */\n    tag_381:\n        /* \"#utility.yul\":3627:3630   */\n      0x00\n        /* \"#utility.yul\":3648:3715   */\n      tag_383\n        /* \"#utility.yul\":3712:3714   */\n      0x10\n        /* \"#utility.yul\":3707:3710   */\n      dup4\n        /* \"#utility.yul\":3648:3715   */\n      tag_377\n      jump\t// in\n    tag_383:\n        /* \"#utility.yul\":3641:3715   */\n      swap2\n      pop\n        /* \"#utility.yul\":3724:3817   */\n      tag_384\n        /* \"#utility.yul\":3813:3816   */\n      dup3\n        /* \"#utility.yul\":3724:3817   */\n      tag_385\n      jump\t// in\n    tag_384:\n        /* \"#utility.yul\":3842:3844   */\n      0x20\n        /* \"#utility.yul\":3837:3840   */\n      dup3\n        /* \"#utility.yul\":3833:3845   */\n      add\n        /* \"#utility.yul\":3826:3845   */\n      swap1\n      pop\n        /* \"#utility.yul\":3485:3851   */\n      swap2\n      swap1\n      pop\n      jump\t// out\n        /* \"#utility.yul\":3857:4223   */\n    tag_386:\n        /* \"#utility.yul\":3999:4002   */\n      0x00\n        /* \"#utility.yul\":4020:4087   */\n      tag_388\n        /* \"#utility.yul\":4084:4086   */\n      0x15\n        /* \"#utility.yul\":4079:4082   */\n      dup4\n        /* \"#utility.yul\":4020:4087   */\n      tag_377\n      jump\t// in\n    tag_388:\n        /* \"#utility.yul\":4013:4087   */\n      swap2\n      pop\n        /* \"#utility.yul\":4096:4189   */\n      tag_389\n        /* \"#utility.yul\":4185:4188   */\n      dup3\n        /* \"#utility.yul\":4096:4189   */\n      tag_390\n      jump\t// in\n    tag_389:\n        /* \"#utility.yul\":4214:4216   */\n      0x20\n        /* \"#utility.yul\":4209:4212   */\n      dup3\n        /* \"#utility.yul\":4205:4217   */\n      add\n        /* \"#utility.yul\":4198:4217   */\n      swap1\n      pop\n        /* \"#utility.yul\":3857:4223   */\n      swap2\n      swap1\n      pop\n      jump\t// out\n        /* \"#utility.yul\":4229:4595   */\n    tag_391:\n        /* \"#utility.yul\":4371:4374   */\n      0x00\n        /* \"#utility.yul\":4392:4459   */\n      tag_393\n        /* \"#utility.yul\":4456:4458   */\n      0x2a\n        /* \"#utility.yul\":4451:4454   */\n      dup4\n        /* \"#utility.yul\":4392:4459   */\n      tag_377\n      jump\t// in\n    tag_393:\n        /* \"#utility.yul\":4385:4459   */\n      swap2\n      pop\n        /* \"#utility.yul\":4468:4561   */\n      tag_394\n        /* \"#utility.yul\":4557:4560   */\n      dup3\n        /* \"#utility.yul\":4468:4561   */\n      tag_395\n      jump\t// in\n    tag_394:\n        /* \"#utility.yul\":4586:4588   */\n      0x40\n        /* \"#utility.yul\":4581:4584   */\n      dup3\n        /* \"#utility.yul\":4577:4589   */\n      add\n        /* \"#utility.yul\":4570:4589   */\n      swap1\n      pop\n        /* \"#utility.yul\":4229:4595   */\n      swap2\n      swap1\n      pop\n      jump\t// out\n        /* \"#utility.yul\":4601:4967   */\n    tag_396:\n        /* \"#utility.yul\":4743:4746   */\n      0x00\n        /* \"#utility.yul\":4764:4831   */\n      tag_398\n        /* \"#utility.yul\":4828:4830   */\n      0x26\n        /* \"#utility.yul\":4823:4826   */\n      dup4\n        /* \"#utility.yul\":4764:4831   */\n      tag_377\n      jump\t// in\n    tag_398:\n        /* \"#utility.yul\":4757:4831   */\n      swap2\n      pop\n        /* \"#utility.yul\":4840:4933   */\n      tag_399\n        /* \"#utility.yul\":4929:4932   */\n      dup3\n        /* \"#utility.yul\":4840:4933   */\n      tag_400\n      jump\t// in\n    tag_399:\n        /* \"#utility.yul\":4958:4960   */\n      0x40\n        /* \"#utility.yul\":4953:4956   */\n      dup3\n        /* \"#utility.yul\":4949:4961   */\n      add\n        /* \"#utility.yul\":4942:4961   */\n      swap1\n      pop\n        /* \"#utility.yul\":4601:4967   */\n      swap2\n      swap1\n      pop\n      jump\t// out\n        /* \"#utility.yul\":4973:5339   */\n    tag_401:\n        /* \"#utility.yul\":5115:5118   */\n      0x00\n        /* \"#utility.yul\":5136:5203   */\n      tag_403\n        /* \"#utility.yul\":5200:5202   */\n      0x0e\n        /* \"#utility.yul\":5195:5198   */\n      dup4\n        /* \"#utility.yul\":5136:5203   */\n      tag_377\n      jump\t// in\n    tag_403:\n        /* \"#utility.yul\":5129:5203   */\n      swap2\n      pop\n        /* \"#utility.yul\":5212:5305   */\n      tag_404\n        /* \"#utility.yul\":5301:5304   */\n      dup3\n        /* \"#utility.yul\":5212:5305   */\n      tag_405\n      jump\t// in\n    tag_404:\n        /* \"#utility.yul\":5330:5332   */\n      0x20\n        /* \"#utility.yul\":5325:5328   */\n      dup3\n        /* \"#utility.yul\":5321:5333   */\n      add\n        /* \"#utility.yul\":5314:5333   */\n      swap1\n      pop\n        /* \"#utility.yul\":4973:5339   */\n      swap2\n      swap1\n      pop\n      jump\t// out\n        /* \"#utility.yul\":5345:5711   */\n    tag_406:\n        /* \"#utility.yul\":5487:5490   */\n      0x00\n        /* \"#utility.yul\":5508:5575   */\n      tag_408\n        /* \"#utility.yul\":5572:5574   */\n      0x0f\n        /* \"#utility.yul\":5567:5570   */\n      dup4\n        /* \"#utility.yul\":5508:5575   */\n      tag_377\n      jump\t// in\n    tag_408:\n        /* \"#utility.yul\":5501:5575   */\n      swap2\n      pop\n        /* \"#utility.yul\":5584:5677   */\n      tag_409\n        /* \"#utility.yul\":5673:5676   */\n      dup3\n        /* \"#utility.yul\":5584:5677   */\n      tag_410\n      jump\t// in\n    tag_409:\n        /* \"#utility.yul\":5702:5704   */\n      0x20\n        /* \"#utility.yul\":5697:5700   */\n      dup3\n        /* \"#utility.yul\":5693:5705   */\n      add\n        /* \"#utility.yul\":5686:5705   */\n      swap1\n      pop\n        /* \"#utility.yul\":5345:5711   */\n      swap2\n      swap1\n      pop\n      jump\t// out\n        /* \"#utility.yul\":5717:6083   */\n    tag_411:\n        /* \"#utility.yul\":5859:5862   */\n      0x00\n        /* \"#utility.yul\":5880:5947   */\n      tag_413\n        /* \"#utility.yul\":5944:5946   */\n      0x26\n        /* \"#utility.yul\":5939:5942   */\n      dup4\n        /* \"#utility.yul\":5880:5947   */\n      tag_377\n      jump\t// in\n    tag_413:\n        /* \"#utility.yul\":5873:5947   */\n      swap2\n      pop\n        /* \"#utility.yul\":5956:6049   */\n      tag_414\n        /* \"#utility.yul\":6045:6048   */\n      dup3\n        /* \"#utility.yul\":5956:6049   */\n      tag_415\n      jump\t// in\n    tag_414:\n        /* \"#utility.yul\":6074:6076   */\n      0x40\n        /* \"#utility.yul\":6069:6072   */\n      dup3\n        /* \"#utility.yul\":6065:6077   */\n      add\n        /* \"#utility.yul\":6058:6077   */\n      swap1\n      pop\n        /* \"#utility.yul\":5717:6083   */\n      swap2\n      swap1\n      pop\n      jump\t// out\n        /* \"#utility.yul\":6089:6455   */\n    tag_416:\n        /* \"#utility.yul\":6231:6234   */\n      0x00\n        /* \"#utility.yul\":6252:6319   */\n      tag_418\n        /* \"#utility.yul\":6316:6318   */\n      0x1f\n        /* \"#utility.yul\":6311:6314   */\n      dup4\n        /* \"#utility.yul\":6252:6319   */\n      tag_377\n      jump\t// in\n    tag_418:\n        /* \"#utility.yul\":6245:6319   */\n      swap2\n      pop\n        /* \"#utility.yul\":6328:6421   */\n      tag_419\n        /* \"#utility.yul\":6417:6420   */\n      dup3\n        /* \"#utility.yul\":6328:6421   */\n      tag_420\n      jump\t// in\n    tag_419:\n        /* \"#utility.yul\":6446:6448   */\n      0x20\n        /* \"#utility.yul\":6441:6444   */\n      dup3\n        /* \"#utility.yul\":6437:6449   */\n      add\n        /* \"#utility.yul\":6430:6449   */\n      swap1\n      pop\n        /* \"#utility.yul\":6089:6455   */\n      swap2\n      swap1\n      pop\n      jump\t// out\n        /* \"#utility.yul\":6461:6827   */\n    tag_421:\n        /* \"#utility.yul\":6603:6606   */\n      0x00\n        /* \"#utility.yul\":6624:6691   */\n      tag_423\n        /* \"#utility.yul\":6688:6690   */\n      0x20\n        /* \"#utility.yul\":6683:6686   */\n      dup4\n        /* \"#utility.yul\":6624:6691   */\n      tag_377\n      jump\t// in\n    tag_423:\n        /* \"#utility.yul\":6617:6691   */\n      swap2\n      pop\n        /* \"#utility.yul\":6700:6793   */\n      tag_424\n        /* \"#utility.yul\":6789:6792   */\n      dup3\n        /* \"#utility.yul\":6700:6793   */\n      tag_425\n      jump\t// in\n    tag_424:\n        /* \"#utility.yul\":6818:6820   */\n      0x20\n        /* \"#utility.yul\":6813:6816   */\n      dup3\n        /* \"#utility.yul\":6809:6821   */\n      add\n        /* \"#utility.yul\":6802:6821   */\n      swap1\n      pop\n        /* \"#utility.yul\":6461:6827   */\n      swap2\n      swap1\n      pop\n      jump\t// out\n        /* \"#utility.yul\":6833:7199   */\n    tag_426:\n        /* \"#utility.yul\":6975:6978   */\n      0x00\n        /* \"#utility.yul\":6996:7063   */\n      tag_428\n        /* \"#utility.yul\":7060:7062   */\n      0x0d\n        /* \"#utility.yul\":7055:7058   */\n      dup4\n        /* \"#utility.yul\":6996:7063   */\n      tag_377\n      jump\t// in\n    tag_428:\n        /* \"#utility.yul\":6989:7063   */\n      swap2\n      pop\n        /* \"#utility.yul\":7072:7165   */\n      tag_429\n        /* \"#utility.yul\":7161:7164   */\n      dup3\n        /* \"#utility.yul\":7072:7165   */\n      tag_430\n      jump\t// in\n    tag_429:\n        /* \"#utility.yul\":7190:7192   */\n      0x20\n        /* \"#utility.yul\":7185:7188   */\n      dup3\n        /* \"#utility.yul\":7181:7193   */\n      add\n        /* \"#utility.yul\":7174:7193   */\n      swap1\n      pop\n        /* \"#utility.yul\":6833:7199   */\n      swap2\n      swap1\n      pop\n      jump\t// out\n        /* \"#utility.yul\":7205:7571   */\n    tag_431:\n        /* \"#utility.yul\":7347:7350   */\n      0x00\n        /* \"#utility.yul\":7368:7435   */\n      tag_433\n        /* \"#utility.yul\":7432:7434   */\n      0x1d\n        /* \"#utility.yul\":7427:7430   */\n      dup4\n        /* \"#utility.yul\":7368:7435   */\n      tag_377\n      jump\t// in\n    tag_433:\n        /* \"#utility.yul\":7361:7435   */\n      swap2\n      pop\n        /* \"#utility.yul\":7444:7537   */\n      tag_434\n        /* \"#utility.yul\":7533:7536   */\n      dup3\n        /* \"#utility.yul\":7444:7537   */\n      tag_435\n      jump\t// in\n    tag_434:\n        /* \"#utility.yul\":7562:7564   */\n      0x20\n        /* \"#utility.yul\":7557:7560   */\n      dup3\n        /* \"#utility.yul\":7553:7565   */\n      add\n        /* \"#utility.yul\":7546:7565   */\n      swap1\n      pop\n        /* \"#utility.yul\":7205:7571   */\n      swap2\n      swap1\n      pop\n      jump\t// out\n        /* \"#utility.yul\":7577:7943   */\n    tag_436:\n        /* \"#utility.yul\":7719:7722   */\n      0x00\n        /* \"#utility.yul\":7740:7807   */\n      tag_438\n        /* \"#utility.yul\":7804:7806   */\n      0x1a\n        /* \"#utility.yul\":7799:7802   */\n      dup4\n        /* \"#utility.yul\":7740:7807   */\n      tag_377\n      jump\t// in\n    tag_438:\n        /* \"#utility.yul\":7733:7807   */\n      swap2\n      pop\n        /* \"#utility.yul\":7816:7909   */\n      tag_439\n        /* \"#utility.yul\":7905:7908   */\n      dup3\n        /* \"#utility.yul\":7816:7909   */\n      tag_440\n      jump\t// in\n    tag_439:\n        /* \"#utility.yul\":7934:7936   */\n      0x20\n        /* \"#utility.yul\":7929:7932   */\n      dup3\n        /* \"#utility.yul\":7925:7937   */\n      add\n        /* \"#utility.yul\":7918:7937   */\n      swap1\n      pop\n        /* \"#utility.yul\":7577:7943   */\n      swap2\n      swap1\n      pop\n      jump\t// out\n        /* \"#utility.yul\":7949:8315   */\n    tag_441:\n        /* \"#utility.yul\":8091:8094   */\n      0x00\n        /* \"#utility.yul\":8112:8179   */\n      tag_443\n        /* \"#utility.yul\":8176:8178   */\n      0x17\n        /* \"#utility.yul\":8171:8174   */\n      dup4\n        /* \"#utility.yul\":8112:8179   */\n      tag_377\n      jump\t// in\n    tag_443:\n        /* \"#utility.yul\":8105:8179   */\n      swap2\n      pop\n        /* \"#utility.yul\":8188:8281   */\n      tag_444\n        /* \"#utility.yul\":8277:8280   */\n      dup3\n        /* \"#utility.yul\":8188:8281   */\n      tag_445\n      jump\t// in\n    tag_444:\n        /* \"#utility.yul\":8306:8308   */\n      0x20\n        /* \"#utility.yul\":8301:8304   */\n      dup3\n        /* \"#utility.yul\":8297:8309   */\n      add\n        /* \"#utility.yul\":8290:8309   */\n      swap1\n      pop\n        /* \"#utility.yul\":7949:8315   */\n      swap2\n      swap1\n      pop\n      jump\t// out\n        /* \"#utility.yul\":8321:8687   */\n    tag_446:\n        /* \"#utility.yul\":8463:8466   */\n      0x00\n        /* \"#utility.yul\":8484:8551   */\n      tag_448\n        /* \"#utility.yul\":8548:8550   */\n      0x0d\n        /* \"#utility.yul\":8543:8546   */\n      dup4\n        /* \"#utility.yul\":8484:8551   */\n      tag_377\n      jump\t// in\n    tag_448:\n        /* \"#utility.yul\":8477:8551   */\n      swap2\n      pop\n        /* \"#utility.yul\":8560:8653   */\n      tag_449\n        /* \"#utility.yul\":8649:8652   */\n      dup3\n        /* \"#utility.yul\":8560:8653   */\n      tag_450\n      jump\t// in\n    tag_449:\n        /* \"#utility.yul\":8678:8680   */\n      0x20\n        /* \"#utility.yul\":8673:8676   */\n      dup3\n        /* \"#utility.yul\":8669:8681   */\n      add\n        /* \"#utility.yul\":8662:8681   */\n      swap1\n      pop\n        /* \"#utility.yul\":8321:8687   */\n      swap2\n      swap1\n      pop\n      jump\t// out\n        /* \"#utility.yul\":8693:9059   */\n    tag_451:\n        /* \"#utility.yul\":8835:8838   */\n      0x00\n        /* \"#utility.yul\":8856:8923   */\n      tag_453\n        /* \"#utility.yul\":8920:8922   */\n      0x0d\n        /* \"#utility.yul\":8915:8918   */\n      dup4\n        /* \"#utility.yul\":8856:8923   */\n      tag_377\n      jump\t// in\n    tag_453:\n        /* \"#utility.yul\":8849:8923   */\n      swap2\n      pop\n        /* \"#utility.yul\":8932:9025   */\n      tag_454\n        /* \"#utility.yul\":9021:9024   */\n      dup3\n        /* \"#utility.yul\":8932:9025   */\n      tag_455\n      jump\t// in\n    tag_454:\n        /* \"#utility.yul\":9050:9052   */\n      0x20\n        /* \"#utility.yul\":9045:9048   */\n      dup3\n        /* \"#utility.yul\":9041:9053   */\n      add\n        /* \"#utility.yul\":9034:9053   */\n      swap1\n      pop\n        /* \"#utility.yul\":8693:9059   */\n      swap2\n      swap1\n      pop\n      jump\t// out\n        /* \"#utility.yul\":9065:9183   */\n    tag_456:\n        /* \"#utility.yul\":9152:9176   */\n      tag_458\n        /* \"#utility.yul\":9170:9175   */\n      dup2\n        /* \"#utility.yul\":9152:9176   */\n      tag_459\n      jump\t// in\n    tag_458:\n        /* \"#utility.yul\":9147:9150   */\n      dup3\n        /* \"#utility.yul\":9140:9177   */\n      mstore\n        /* \"#utility.yul\":9065:9183   */\n      pop\n      pop\n      jump\t// out\n        /* \"#utility.yul\":9189:9460   */\n    tag_304:\n        /* \"#utility.yul\":9319:9322   */\n      0x00\n        /* \"#utility.yul\":9341:9434   */\n      tag_461\n        /* \"#utility.yul\":9430:9433   */\n      dup3\n        /* \"#utility.yul\":9421:9427   */\n      dup5\n        /* \"#utility.yul\":9341:9434   */\n      tag_360\n      jump\t// in\n    tag_461:\n        /* \"#utility.yul\":9334:9434   */\n      swap2\n      pop\n        /* \"#utility.yul\":9451:9454   */\n      dup2\n        /* \"#utility.yul\":9444:9454   */\n      swap1\n      pop\n        /* \"#utility.yul\":9189:9460   */\n      swap3\n      swap2\n      pop\n      pop\n      jump\t// out\n        /* \"#utility.yul\":9466:9688   */\n    tag_65:\n        /* \"#utility.yul\":9559:9563   */\n      0x00\n        /* \"#utility.yul\":9597:9599   */\n      0x20\n        /* \"#utility.yul\":9586:9595   */\n      dup3\n        /* \"#utility.yul\":9582:9600   */\n      add\n        /* \"#utility.yul\":9574:9600   */\n      swap1\n      pop\n        /* \"#utility.yul\":9610:9681   */\n      tag_463\n        /* \"#utility.yul\":9678:9679   */\n      0x00\n        /* \"#utility.yul\":9667:9676   */\n      dup4\n        /* \"#utility.yul\":9663:9680   */\n      add\n        /* \"#utility.yul\":9654:9660   */\n      dup5\n        /* \"#utility.yul\":9610:9681   */\n      tag_356\n      jump\t// in\n    tag_463:\n        /* \"#utility.yul\":9466:9688   */\n      swap3\n      swap2\n      pop\n      pop\n      jump\t// out\n        /* \"#utility.yul\":9694:10136   */\n    tag_281:\n        /* \"#utility.yul\":9843:9847   */\n      0x00\n        /* \"#utility.yul\":9881:9883   */\n      0x60\n        /* \"#utility.yul\":9870:9879   */\n      dup3\n        /* \"#utility.yul\":9866:9884   */\n      add\n        /* \"#utility.yul\":9858:9884   */\n      swap1\n      pop\n        /* \"#utility.yul\":9894:9965   */\n      tag_465\n        /* \"#utility.yul\":9962:9963   */\n      0x00\n        /* \"#utility.yul\":9951:9960   */\n      dup4\n        /* \"#utility.yul\":9947:9964   */\n      add\n        /* \"#utility.yul\":9938:9944   */\n      dup7\n        /* \"#utility.yul\":9894:9965   */\n      tag_356\n      jump\t// in\n    tag_465:\n        /* \"#utility.yul\":9975:10047   */\n      tag_466\n        /* \"#utility.yul\":10043:10045   */\n      0x20\n        /* \"#utility.yul\":10032:10041   */\n      dup4\n        /* \"#utility.yul\":10028:10046   */\n      add\n        /* \"#utility.yul\":10019:10025   */\n      dup6\n        /* \"#utility.yul\":9975:10047   */\n      tag_356\n      jump\t// in\n    tag_466:\n        /* \"#utility.yul\":10057:10129   */\n      tag_467\n        /* \"#utility.yul\":10125:10127   */\n      0x40\n        /* \"#utility.yul\":10114:10123   */\n      dup4\n        /* \"#utility.yul\":10110:10128   */\n      add\n        /* \"#utility.yul\":10101:10107   */\n      dup5\n        /* \"#utility.yul\":10057:10129   */\n      tag_456\n      jump\t// in\n    tag_467:\n        /* \"#utility.yul\":9694:10136   */\n      swap5\n      swap4\n      pop\n      pop\n      pop\n      pop\n      jump\t// out\n        /* \"#utility.yul\":10142:10474   */\n    tag_130:\n        /* \"#utility.yul\":10263:10267   */\n      0x00\n        /* \"#utility.yul\":10301:10303   */\n      0x40\n        /* \"#utility.yul\":10290:10299   */\n      dup3\n        /* \"#utility.yul\":10286:10304   */\n      add\n        /* \"#utility.yul\":10278:10304   */\n      swap1\n      pop\n        /* \"#utility.yul\":10314:10385   */\n      tag_469\n        /* \"#utility.yul\":10382:10383   */\n      0x00\n        /* \"#utility.yul\":10371:10380   */\n      dup4\n        /* \"#utility.yul\":10367:10384   */\n      add\n        /* \"#utility.yul\":10358:10364   */\n      dup6\n        /* \"#utility.yul\":10314:10385   */\n      tag_356\n      jump\t// in\n    tag_469:\n        /* \"#utility.yul\":10395:10467   */\n      tag_470\n        /* \"#utility.yul\":10463:10465   */\n      0x20\n        /* \"#utility.yul\":10452:10461   */\n      dup4\n        /* \"#utility.yul\":10448:10466   */\n      add\n        /* \"#utility.yul\":10439:10445   */\n      dup5\n        /* \"#utility.yul\":10395:10467   */\n      tag_456\n      jump\t// in\n    tag_470:\n        /* \"#utility.yul\":10142:10474   */\n      swap4\n      swap3\n      pop\n      pop\n      pop\n      jump\t// out\n        /* \"#utility.yul\":10480:10730   */\n    tag_85:\n        /* \"#utility.yul\":10587:10591   */\n      0x00\n        /* \"#utility.yul\":10625:10627   */\n      0x20\n        /* \"#utility.yul\":10614:10623   */\n      dup3\n        /* \"#utility.yul\":10610:10628   */\n      add\n        /* \"#utility.yul\":10602:10628   */\n      swap1\n      pop\n        /* \"#utility.yul\":10638:10723   */\n      tag_472\n        /* \"#utility.yul\":10720:10721   */\n      0x00\n        /* \"#utility.yul\":10709:10718   */\n      dup4\n        /* \"#utility.yul\":10705:10722   */\n      add\n        /* \"#utility.yul\":10696:10702   */\n      dup5\n        /* \"#utility.yul\":10638:10723   */\n      tag_368\n      jump\t// in\n    tag_472:\n        /* \"#utility.yul\":10480:10730   */\n      swap3\n      swap2\n      pop\n      pop\n      jump\t// out\n        /* \"#utility.yul\":10736:11049   */\n    tag_317:\n        /* \"#utility.yul\":10849:10853   */\n      0x00\n        /* \"#utility.yul\":10887:10889   */\n      0x20\n        /* \"#utility.yul\":10876:10885   */\n      dup3\n        /* \"#utility.yul\":10872:10890   */\n      add\n        /* \"#utility.yul\":10864:10890   */\n      swap1\n      pop\n        /* \"#utility.yul\":10936:10945   */\n      dup2\n        /* \"#utility.yul\":10930:10934   */\n      dup2\n        /* \"#utility.yul\":10926:10946   */\n      sub\n        /* \"#utility.yul\":10922:10923   */\n      0x00\n        /* \"#utility.yul\":10911:10920   */\n      dup4\n        /* \"#utility.yul\":10907:10924   */\n      add\n        /* \"#utility.yul\":10900:10947   */\n      mstore\n        /* \"#utility.yul\":10964:11042   */\n      tag_474\n        /* \"#utility.yul\":11037:11041   */\n      dup2\n        /* \"#utility.yul\":11028:11034   */\n      dup5\n        /* \"#utility.yul\":10964:11042   */\n      tag_372\n      jump\t// in\n    tag_474:\n        /* \"#utility.yul\":10956:11042   */\n      swap1\n      pop\n        /* \"#utility.yul\":10736:11049   */\n      swap3\n      swap2\n      pop\n      pop\n      jump\t// out\n        /* \"#utility.yul\":11055:11474   */\n    tag_139:\n        /* \"#utility.yul\":11221:11225   */\n      0x00\n        /* \"#utility.yul\":11259:11261   */\n      0x20\n        /* \"#utility.yul\":11248:11257   */\n      dup3\n        /* \"#utility.yul\":11244:11262   */\n      add\n        /* \"#utility.yul\":11236:11262   */\n      swap1\n      pop\n        /* \"#utility.yul\":11308:11317   */\n      dup2\n        /* \"#utility.yul\":11302:11306   */\n      dup2\n        /* \"#utility.yul\":11298:11318   */\n      sub\n        /* \"#utility.yul\":11294:11295   */\n      0x00\n        /* \"#utility.yul\":11283:11292   */\n      dup4\n        /* \"#utility.yul\":11279:11296   */\n      add\n        /* \"#utility.yul\":11272:11319   */\n      mstore\n        /* \"#utility.yul\":11336:11467   */\n      tag_476\n        /* \"#utility.yul\":11462:11466   */\n      dup2\n        /* \"#utility.yul\":11336:11467   */\n      tag_381\n      jump\t// in\n    tag_476:\n        /* \"#utility.yul\":11328:11467   */\n      swap1\n      pop\n        /* \"#utility.yul\":11055:11474   */\n      swap2\n      swap1\n      pop\n      jump\t// out\n        /* \"#utility.yul\":11480:11899   */\n    tag_235:\n        /* \"#utility.yul\":11646:11650   */\n      0x00\n        /* \"#utility.yul\":11684:11686   */\n      0x20\n        /* \"#utility.yul\":11673:11682   */\n      dup3\n        /* \"#utility.yul\":11669:11687   */\n      add\n        /* \"#utility.yul\":11661:11687   */\n      swap1\n      pop\n        /* \"#utility.yul\":11733:11742   */\n      dup2\n        /* \"#utility.yul\":11727:11731   */\n      dup2\n        /* \"#utility.yul\":11723:11743   */\n      sub\n        /* \"#utility.yul\":11719:11720   */\n      0x00\n        /* \"#utility.yul\":11708:11717   */\n      dup4\n        /* \"#utility.yul\":11704:11721   */\n      add\n        /* \"#utility.yul\":11697:11744   */\n      mstore\n        /* \"#utility.yul\":11761:11892   */\n      tag_478\n        /* \"#utility.yul\":11887:11891   */\n      dup2\n        /* \"#utility.yul\":11761:11892   */\n      tag_386\n      jump\t// in\n    tag_478:\n        /* \"#utility.yul\":11753:11892   */\n      swap1\n      pop\n        /* \"#utility.yul\":11480:11899   */\n      swap2\n      swap1\n      pop\n      jump\t// out\n        /* \"#utility.yul\":11905:12324   */\n    tag_290:\n        /* \"#utility.yul\":12071:12075   */\n      0x00\n        /* \"#utility.yul\":12109:12111   */\n      0x20\n        /* \"#utility.yul\":12098:12107   */\n      dup3\n        /* \"#utility.yul\":12094:12112   */\n      add\n        /* \"#utility.yul\":12086:12112   */\n      swap1\n      pop\n        /* \"#utility.yul\":12158:12167   */\n      dup2\n        /* \"#utility.yul\":12152:12156   */\n      dup2\n        /* \"#utility.yul\":12148:12168   */\n      sub\n        /* \"#utility.yul\":12144:12145   */\n      0x00\n        /* \"#utility.yul\":12133:12142   */\n      dup4\n        /* \"#utility.yul\":12129:12146   */\n      add\n        /* \"#utility.yul\":12122:12169   */\n      mstore\n        /* \"#utility.yul\":12186:12317   */\n      tag_480\n        /* \"#utility.yul\":12312:12316   */\n      dup2\n        /* \"#utility.yul\":12186:12317   */\n      tag_391\n      jump\t// in\n    tag_480:\n        /* \"#utility.yul\":12178:12317   */\n      swap1\n      pop\n        /* \"#utility.yul\":11905:12324   */\n      swap2\n      swap1\n      pop\n      jump\t// out\n        /* \"#utility.yul\":12330:12749   */\n    tag_250:\n        /* \"#utility.yul\":12496:12500   */\n      0x00\n        /* \"#utility.yul\":12534:12536   */\n      0x20\n        /* \"#utility.yul\":12523:12532   */\n      dup3\n        /* \"#utility.yul\":12519:12537   */\n      add\n        /* \"#utility.yul\":12511:12537   */\n      swap1\n      pop\n        /* \"#utility.yul\":12583:12592   */\n      dup2\n        /* \"#utility.yul\":12577:12581   */\n      dup2\n        /* \"#utility.yul\":12573:12593   */\n      sub\n        /* \"#utility.yul\":12569:12570   */\n      0x00\n        /* \"#utility.yul\":12558:12567   */\n      dup4\n        /* \"#utility.yul\":12554:12571   */\n      add\n        /* \"#utility.yul\":12547:12594   */\n      mstore\n        /* \"#utility.yul\":12611:12742   */\n      tag_482\n        /* \"#utility.yul\":12737:12741   */\n      dup2\n        /* \"#utility.yul\":12611:12742   */\n      tag_396\n      jump\t// in\n    tag_482:\n        /* \"#utility.yul\":12603:12742   */\n      swap1\n      pop\n        /* \"#utility.yul\":12330:12749   */\n      swap2\n      swap1\n      pop\n      jump\t// out\n        /* \"#utility.yul\":12755:13174   */\n    tag_93:\n        /* \"#utility.yul\":12921:12925   */\n      0x00\n        /* \"#utility.yul\":12959:12961   */\n      0x20\n        /* \"#utility.yul\":12948:12957   */\n      dup3\n        /* \"#utility.yul\":12944:12962   */\n      add\n        /* \"#utility.yul\":12936:12962   */\n      swap1\n      pop\n        /* \"#utility.yul\":13008:13017   */\n      dup2\n        /* \"#utility.yul\":13002:13006   */\n      dup2\n        /* \"#utility.yul\":12998:13018   */\n      sub\n        /* \"#utility.yul\":12994:12995   */\n      0x00\n        /* \"#utility.yul\":12983:12992   */\n      dup4\n        /* \"#utility.yul\":12979:12996   */\n      add\n        /* \"#utility.yul\":12972:13019   */\n      mstore\n        /* \"#utility.yul\":13036:13167   */\n      tag_484\n        /* \"#utility.yul\":13162:13166   */\n      dup2\n        /* \"#utility.yul\":13036:13167   */\n      tag_401\n      jump\t// in\n    tag_484:\n        /* \"#utility.yul\":13028:13167   */\n      swap1\n      pop\n        /* \"#utility.yul\":12755:13174   */\n      swap2\n      swap1\n      pop\n      jump\t// out\n        /* \"#utility.yul\":13180:13599   */\n    tag_177:\n        /* \"#utility.yul\":13346:13350   */\n      0x00\n        /* \"#utility.yul\":13384:13386   */\n      0x20\n        /* \"#utility.yul\":13373:13382   */\n      dup3\n        /* \"#utility.yul\":13369:13387   */\n      add\n        /* \"#utility.yul\":13361:13387   */\n      swap1\n      pop\n        /* \"#utility.yul\":13433:13442   */\n      dup2\n        /* \"#utility.yul\":13427:13431   */\n      dup2\n        /* \"#utility.yul\":13423:13443   */\n      sub\n        /* \"#utility.yul\":13419:13420   */\n      0x00\n        /* \"#utility.yul\":13408:13417   */\n      dup4\n        /* \"#utility.yul\":13404:13421   */\n      add\n        /* \"#utility.yul\":13397:13444   */\n      mstore\n        /* \"#utility.yul\":13461:13592   */\n      tag_486\n        /* \"#utility.yul\":13587:13591   */\n      dup2\n        /* \"#utility.yul\":13461:13592   */\n      tag_406\n      jump\t// in\n    tag_486:\n        /* \"#utility.yul\":13453:13592   */\n      swap1\n      pop\n        /* \"#utility.yul\":13180:13599   */\n      swap2\n      swap1\n      pop\n      jump\t// out\n        /* \"#utility.yul\":13605:14024   */\n    tag_297:\n        /* \"#utility.yul\":13771:13775   */\n      0x00\n        /* \"#utility.yul\":13809:13811   */\n      0x20\n        /* \"#utility.yul\":13798:13807   */\n      dup3\n        /* \"#utility.yul\":13794:13812   */\n      add\n        /* \"#utility.yul\":13786:13812   */\n      swap1\n      pop\n        /* \"#utility.yul\":13858:13867   */\n      dup2\n        /* \"#utility.yul\":13852:13856   */\n      dup2\n        /* \"#utility.yul\":13848:13868   */\n      sub\n        /* \"#utility.yul\":13844:13845   */\n      0x00\n        /* \"#utility.yul\":13833:13842   */\n      dup4\n        /* \"#utility.yul\":13829:13846   */\n      add\n        /* \"#utility.yul\":13822:13869   */\n      mstore\n        /* \"#utility.yul\":13886:14017   */\n      tag_488\n        /* \"#utility.yul\":14012:14016   */\n      dup2\n        /* \"#utility.yul\":13886:14017   */\n      tag_411\n      jump\t// in\n    tag_488:\n        /* \"#utility.yul\":13878:14017   */\n      swap1\n      pop\n        /* \"#utility.yul\":13605:14024   */\n      swap2\n      swap1\n      pop\n      jump\t// out\n        /* \"#utility.yul\":14030:14449   */\n    tag_90:\n        /* \"#utility.yul\":14196:14200   */\n      0x00\n        /* \"#utility.yul\":14234:14236   */\n      0x20\n        /* \"#utility.yul\":14223:14232   */\n      dup3\n        /* \"#utility.yul\":14219:14237   */\n      add\n        /* \"#utility.yul\":14211:14237   */\n      swap1\n      pop\n        /* \"#utility.yul\":14283:14292   */\n      dup2\n        /* \"#utility.yul\":14277:14281   */\n      dup2\n        /* \"#utility.yul\":14273:14293   */\n      sub\n        /* \"#utility.yul\":14269:14270   */\n      0x00\n        /* \"#utility.yul\":14258:14267   */\n      dup4\n        /* \"#utility.yul\":14254:14271   */\n      add\n        /* \"#utility.yul\":14247:14294   */\n      mstore\n        /* \"#utility.yul\":14311:14442   */\n      tag_490\n        /* \"#utility.yul\":14437:14441   */\n      dup2\n        /* \"#utility.yul\":14311:14442   */\n      tag_416\n      jump\t// in\n    tag_490:\n        /* \"#utility.yul\":14303:14442   */\n      swap1\n      pop\n        /* \"#utility.yul\":14030:14449   */\n      swap2\n      swap1\n      pop\n      jump\t// out\n        /* \"#utility.yul\":14455:14874   */\n    tag_159:\n        /* \"#utility.yul\":14621:14625   */\n      0x00\n        /* \"#utility.yul\":14659:14661   */\n      0x20\n        /* \"#utility.yul\":14648:14657   */\n      dup3\n        /* \"#utility.yul\":14644:14662   */\n      add\n        /* \"#utility.yul\":14636:14662   */\n      swap1\n      pop\n        /* \"#utility.yul\":14708:14717   */\n      dup2\n        /* \"#utility.yul\":14702:14706   */\n      dup2\n        /* \"#utility.yul\":14698:14718   */\n      sub\n        /* \"#utility.yul\":14694:14695   */\n      0x00\n        /* \"#utility.yul\":14683:14692   */\n      dup4\n        /* \"#utility.yul\":14679:14696   */\n      add\n        /* \"#utility.yul\":14672:14719   */\n      mstore\n        /* \"#utility.yul\":14736:14867   */\n      tag_492\n        /* \"#utility.yul\":14862:14866   */\n      dup2\n        /* \"#utility.yul\":14736:14867   */\n      tag_421\n      jump\t// in\n    tag_492:\n        /* \"#utility.yul\":14728:14867   */\n      swap1\n      pop\n        /* \"#utility.yul\":14455:14874   */\n      swap2\n      swap1\n      pop\n      jump\t// out\n        /* \"#utility.yul\":14880:15299   */\n    tag_221:\n        /* \"#utility.yul\":15046:15050   */\n      0x00\n        /* \"#utility.yul\":15084:15086   */\n      0x20\n        /* \"#utility.yul\":15073:15082   */\n      dup3\n        /* \"#utility.yul\":15069:15087   */\n      add\n        /* \"#utility.yul\":15061:15087   */\n      swap1\n      pop\n        /* \"#utility.yul\":15133:15142   */\n      dup2\n        /* \"#utility.yul\":15127:15131   */\n      dup2\n        /* \"#utility.yul\":15123:15143   */\n      sub\n        /* \"#utility.yul\":15119:15120   */\n      0x00\n        /* \"#utility.yul\":15108:15117   */\n      dup4\n        /* \"#utility.yul\":15104:15121   */\n      add\n        /* \"#utility.yul\":15097:15144   */\n      mstore\n        /* \"#utility.yul\":15161:15292   */\n      tag_494\n        /* \"#utility.yul\":15287:15291   */\n      dup2\n        /* \"#utility.yul\":15161:15292   */\n      tag_426\n      jump\t// in\n    tag_494:\n        /* \"#utility.yul\":15153:15292   */\n      swap1\n      pop\n        /* \"#utility.yul\":14880:15299   */\n      swap2\n      swap1\n      pop\n      jump\t// out\n        /* \"#utility.yul\":15305:15724   */\n    tag_302:\n        /* \"#utility.yul\":15471:15475   */\n      0x00\n        /* \"#utility.yul\":15509:15511   */\n      0x20\n        /* \"#utility.yul\":15498:15507   */\n      dup3\n        /* \"#utility.yul\":15494:15512   */\n      add\n        /* \"#utility.yul\":15486:15512   */\n      swap1\n      pop\n        /* \"#utility.yul\":15558:15567   */\n      dup2\n        /* \"#utility.yul\":15552:15556   */\n      dup2\n        /* \"#utility.yul\":15548:15568   */\n      sub\n        /* \"#utility.yul\":15544:15545   */\n      0x00\n        /* \"#utility.yul\":15533:15542   */\n      dup4\n        /* \"#utility.yul\":15529:15546   */\n      add\n        /* \"#utility.yul\":15522:15569   */\n      mstore\n        /* \"#utility.yul\":15586:15717   */\n      tag_496\n        /* \"#utility.yul\":15712:15716   */\n      dup2\n        /* \"#utility.yul\":15586:15717   */\n      tag_431\n      jump\t// in\n    tag_496:\n        /* \"#utility.yul\":15578:15717   */\n      swap1\n      pop\n        /* \"#utility.yul\":15305:15724   */\n      swap2\n      swap1\n      pop\n      jump\t// out\n        /* \"#utility.yul\":15730:16149   */\n    tag_211:\n        /* \"#utility.yul\":15896:15900   */\n      0x00\n        /* \"#utility.yul\":15934:15936   */\n      0x20\n        /* \"#utility.yul\":15923:15932   */\n      dup3\n        /* \"#utility.yul\":15919:15937   */\n      add\n        /* \"#utility.yul\":15911:15937   */\n      swap1\n      pop\n        /* \"#utility.yul\":15983:15992   */\n      dup2\n        /* \"#utility.yul\":15977:15981   */\n      dup2\n        /* \"#utility.yul\":15973:15993   */\n      sub\n        /* \"#utility.yul\":15969:15970   */\n      0x00\n        /* \"#utility.yul\":15958:15967   */\n      dup4\n        /* \"#utility.yul\":15954:15971   */\n      add\n        /* \"#utility.yul\":15947:15994   */\n      mstore\n        /* \"#utility.yul\":16011:16142   */\n      tag_498\n        /* \"#utility.yul\":16137:16141   */\n      dup2\n        /* \"#utility.yul\":16011:16142   */\n      tag_436\n      jump\t// in\n    tag_498:\n        /* \"#utility.yul\":16003:16142   */\n      swap1\n      pop\n        /* \"#utility.yul\":15730:16149   */\n      swap2\n      swap1\n      pop\n      jump\t// out\n        /* \"#utility.yul\":16155:16574   */\n    tag_190:\n        /* \"#utility.yul\":16321:16325   */\n      0x00\n        /* \"#utility.yul\":16359:16361   */\n      0x20\n        /* \"#utility.yul\":16348:16357   */\n      dup3\n        /* \"#utility.yul\":16344:16362   */\n      add\n        /* \"#utility.yul\":16336:16362   */\n      swap1\n      pop\n        /* \"#utility.yul\":16408:16417   */\n      dup2\n        /* \"#utility.yul\":16402:16406   */\n      dup2\n        /* \"#utility.yul\":16398:16418   */\n      sub\n        /* \"#utility.yul\":16394:16395   */\n      0x00\n        /* \"#utility.yul\":16383:16392   */\n      dup4\n        /* \"#utility.yul\":16379:16396   */\n      add\n        /* \"#utility.yul\":16372:16419   */\n      mstore\n        /* \"#utility.yul\":16436:16567   */\n      tag_500\n        /* \"#utility.yul\":16562:16566   */\n      dup2\n        /* \"#utility.yul\":16436:16567   */\n      tag_441\n      jump\t// in\n    tag_500:\n        /* \"#utility.yul\":16428:16567   */\n      swap1\n      pop\n        /* \"#utility.yul\":16155:16574   */\n      swap2\n      swap1\n      pop\n      jump\t// out\n        /* \"#utility.yul\":16580:16999   */\n    tag_163:\n        /* \"#utility.yul\":16746:16750   */\n      0x00\n        /* \"#utility.yul\":16784:16786   */\n      0x20\n        /* \"#utility.yul\":16773:16782   */\n      dup3\n        /* \"#utility.yul\":16769:16787   */\n      add\n        /* \"#utility.yul\":16761:16787   */\n      swap1\n      pop\n        /* \"#utility.yul\":16833:16842   */\n      dup2\n        /* \"#utility.yul\":16827:16831   */\n      dup2\n        /* \"#utility.yul\":16823:16843   */\n      sub\n        /* \"#utility.yul\":16819:16820   */\n      0x00\n        /* \"#utility.yul\":16808:16817   */\n      dup4\n        /* \"#utility.yul\":16804:16821   */\n      add\n        /* \"#utility.yul\":16797:16844   */\n      mstore\n        /* \"#utility.yul\":16861:16992   */\n      tag_502\n        /* \"#utility.yul\":16987:16991   */\n      dup2\n        /* \"#utility.yul\":16861:16992   */\n      tag_446\n      jump\t// in\n    tag_502:\n        /* \"#utility.yul\":16853:16992   */\n      swap1\n      pop\n        /* \"#utility.yul\":16580:16999   */\n      swap2\n      swap1\n      pop\n      jump\t// out\n        /* \"#utility.yul\":17005:17424   */\n    tag_174:\n        /* \"#utility.yul\":17171:17175   */\n      0x00\n        /* \"#utility.yul\":17209:17211   */\n      0x20\n        /* \"#utility.yul\":17198:17207   */\n      dup3\n        /* \"#utility.yul\":17194:17212   */\n      add\n        /* \"#utility.yul\":17186:17212   */\n      swap1\n      pop\n        /* \"#utility.yul\":17258:17267   */\n      dup2\n        /* \"#utility.yul\":17252:17256   */\n      dup2\n        /* \"#utility.yul\":17248:17268   */\n      sub\n        /* \"#utility.yul\":17244:17245   */\n      0x00\n        /* \"#utility.yul\":17233:17242   */\n      dup4\n        /* \"#utility.yul\":17229:17246   */\n      add\n        /* \"#utility.yul\":17222:17269   */\n      mstore\n        /* \"#utility.yul\":17286:17417   */\n      tag_504\n        /* \"#utility.yul\":17412:17416   */\n      dup2\n        /* \"#utility.yul\":17286:17417   */\n      tag_451\n      jump\t// in\n    tag_504:\n        /* \"#utility.yul\":17278:17417   */\n      swap1\n      pop\n        /* \"#utility.yul\":17005:17424   */\n      swap2\n      swap1\n      pop\n      jump\t// out\n        /* \"#utility.yul\":17430:17652   */\n    tag_28:\n        /* \"#utility.yul\":17523:17527   */\n      0x00\n        /* \"#utility.yul\":17561:17563   */\n      0x20\n        /* \"#utility.yul\":17550:17559   */\n      dup3\n        /* \"#utility.yul\":17546:17564   */\n      add\n        /* \"#utility.yul\":17538:17564   */\n      swap1\n      pop\n        /* \"#utility.yul\":17574:17645   */\n      tag_506\n        /* \"#utility.yul\":17642:17643   */\n      0x00\n        /* \"#utility.yul\":17631:17640   */\n      dup4\n        /* \"#utility.yul\":17627:17644   */\n      add\n        /* \"#utility.yul\":17618:17624   */\n      dup5\n        /* \"#utility.yul\":17574:17645   */\n      tag_456\n      jump\t// in\n    tag_506:\n        /* \"#utility.yul\":17430:17652   */\n      swap3\n      swap2\n      pop\n      pop\n      jump\t// out\n        /* \"#utility.yul\":17739:17837   */\n    tag_363:\n        /* \"#utility.yul\":17790:17796   */\n      0x00\n        /* \"#utility.yul\":17824:17829   */\n      dup2\n        /* \"#utility.yul\":17818:17830   */\n      mload\n        /* \"#utility.yul\":17808:17830   */\n      swap1\n      pop\n        /* \"#utility.yul\":17739:17837   */\n      swap2\n      swap1\n      pop\n      jump\t// out\n        /* \"#utility.yul\":17843:17942   */\n    tag_375:\n        /* \"#utility.yul\":17895:17901   */\n      0x00\n        /* \"#utility.yul\":17929:17934   */\n      dup2\n        /* \"#utility.yul\":17923:17935   */\n      mload\n        /* \"#utility.yul\":17913:17935   */\n      swap1\n      pop\n        /* \"#utility.yul\":17843:17942   */\n      swap2\n      swap1\n      pop\n      jump\t// out\n        /* \"#utility.yul\":17948:18095   */\n    tag_365:\n        /* \"#utility.yul\":18049:18060   */\n      0x00\n        /* \"#utility.yul\":18086:18089   */\n      dup2\n        /* \"#utility.yul\":18071:18089   */\n      swap1\n      pop\n        /* \"#utility.yul\":17948:18095   */\n      swap3\n      swap2\n      pop\n      pop\n      jump\t// out\n        /* \"#utility.yul\":18101:18270   */\n    tag_377:\n        /* \"#utility.yul\":18185:18196   */\n      0x00\n        /* \"#utility.yul\":18219:18225   */\n      dup3\n        /* \"#utility.yul\":18214:18217   */\n      dup3\n        /* \"#utility.yul\":18207:18226   */\n      mstore\n        /* \"#utility.yul\":18259:18263   */\n      0x20\n        /* \"#utility.yul\":18254:18257   */\n      dup3\n        /* \"#utility.yul\":18250:18264   */\n      add\n        /* \"#utility.yul\":18235:18264   */\n      swap1\n      pop\n        /* \"#utility.yul\":18101:18270   */\n      swap3\n      swap2\n      pop\n      pop\n      jump\t// out\n        /* \"#utility.yul\":18276:18581   */\n    tag_268:\n        /* \"#utility.yul\":18316:18319   */\n      0x00\n        /* \"#utility.yul\":18335:18355   */\n      tag_514\n        /* \"#utility.yul\":18353:18354   */\n      dup3\n        /* \"#utility.yul\":18335:18355   */\n      tag_459\n      jump\t// in\n    tag_514:\n        /* \"#utility.yul\":18330:18355   */\n      swap2\n      pop\n        /* \"#utility.yul\":18369:18389   */\n      tag_515\n        /* \"#utility.yul\":18387:18388   */\n      dup4\n        /* \"#utility.yul\":18369:18389   */\n      tag_459\n      jump\t// in\n    tag_515:\n        /* \"#utility.yul\":18364:18389   */\n      swap3\n      pop\n        /* \"#utility.yul\":18523:18524   */\n      dup3\n        /* \"#utility.yul\":18455:18521   */\n      0xffffffffffffffffffffffffffffffffffffffffffffffffffffffffffffffff\n        /* \"#utility.yul\":18451:18525   */\n      sub\n        /* \"#utility.yul\":18448:18449   */\n      dup3\n        /* \"#utility.yul\":18445:18526   */\n      gt\n        /* \"#utility.yul\":18442:18549   */\n      iszero\n      tag_516\n      jumpi\n        /* \"#utility.yul\":18529:18547   */\n      tag_517\n      tag_518\n      jump\t// in\n    tag_517:\n        /* \"#utility.yul\":18442:18549   */\n    tag_516:\n        /* \"#utility.yul\":18573:18574   */\n      dup3\n        /* \"#utility.yul\":18570:18571   */\n      dup3\n        /* \"#utility.yul\":18566:18575   */\n      add\n        /* \"#utility.yul\":18559:18575   */\n      swap1\n      pop\n        /* \"#utility.yul\":18276:18581   */\n      swap3\n      swap2\n      pop\n      pop\n      jump\t// out\n        /* \"#utility.yul\":18587:18772   */\n    tag_265:\n        /* \"#utility.yul\":18627:18628   */\n      0x00\n        /* \"#utility.yul\":18644:18664   */\n      tag_520\n        /* \"#utility.yul\":18662:18663   */\n      dup3\n        /* \"#utility.yul\":18644:18664   */\n      tag_459\n      jump\t// in\n    tag_520:\n        /* \"#utility.yul\":18639:18664   */\n      swap2\n      pop\n        /* \"#utility.yul\":18678:18698   */\n      tag_521\n        /* \"#utility.yul\":18696:18697   */\n      dup4\n        /* \"#utility.yul\":18678:18698   */\n      tag_459\n      jump\t// in\n    tag_521:\n        /* \"#utility.yul\":18673:18698   */\n      swap3\n      pop\n        /* \"#utility.yul\":18717:18718   */\n      dup3\n        /* \"#utility.yul\":18707:18742   */\n      tag_522\n      jumpi\n        /* \"#utility.yul\":18722:18740   */\n      tag_523\n      tag_524\n      jump\t// in\n    tag_523:\n        /* \"#utility.yul\":18707:18742   */\n    tag_522:\n        /* \"#utility.yul\":18764:18765   */\n      dup3\n        /* \"#utility.yul\":18761:18762   */\n      dup3\n        /* \"#utility.yul\":18757:18766   */\n      div\n        /* \"#utility.yul\":18752:18766   */\n      swap1\n      pop\n        /* \"#utility.yul\":18587:18772   */\n      swap3\n      swap2\n      pop\n      pop\n      jump\t// out\n        /* \"#utility.yul\":18778:19126   */\n    tag_271:\n        /* \"#utility.yul\":18818:18825   */\n      0x00\n        /* \"#utility.yul\":18841:18861   */\n      tag_526\n        /* \"#utility.yul\":18859:18860   */\n      dup3\n        /* \"#utility.yul\":18841:18861   */\n      tag_459\n      jump\t// in\n    tag_526:\n        /* \"#utility.yul\":18836:18861   */\n      swap2\n      pop\n        /* \"#utility.yul\":18875:18895   */\n      tag_527\n        /* \"#utility.yul\":18893:18894   */\n      dup4\n        /* \"#utility.yul\":18875:18895   */\n      tag_459\n      jump\t// in\n    tag_527:\n        /* \"#utility.yul\":18870:18895   */\n      swap3\n      pop\n        /* \"#utility.yul\":19063:19064   */\n      dup2\n        /* \"#utility.yul\":18995:19061   */\n      0xffffffffffffffffffffffffffffffffffffffffffffffffffffffffffffffff\n        /* \"#utility.yul\":18991:19065   */\n      div\n        /* \"#utility.yul\":18988:18989   */\n      dup4\n        /* \"#utility.yul\":18985:19066   */\n      gt\n        /* \"#utility.yul\":18980:18981   */\n      dup3\n        /* \"#utility.yul\":18973:18982   */\n      iszero\n        /* \"#utility.yul\":18966:18983   */\n      iszero\n        /* \"#utility.yul\":18962:19067   */\n      and\n        /* \"#utility.yul\":18959:19090   */\n      iszero\n      tag_528\n      jumpi\n        /* \"#utility.yul\":19070:19088   */\n      tag_529\n      tag_518\n      jump\t// in\n    tag_529:\n        /* \"#utility.yul\":18959:19090   */\n    tag_528:\n        /* \"#utility.yul\":19118:19119   */\n      dup3\n        /* \"#utility.yul\":19115:19116   */\n      dup3\n        /* \"#utility.yul\":19111:19120   */\n      mul\n        /* \"#utility.yul\":19100:19120   */\n      swap1\n      pop\n        /* \"#utility.yul\":18778:19126   */\n      swap3\n      swap2\n      pop\n      pop\n      jump\t// out\n        /* \"#utility.yul\":19132:19323   */\n    tag_262:\n        /* \"#utility.yul\":19172:19176   */\n      0x00\n        /* \"#utility.yul\":19192:19212   */\n      tag_531\n        /* \"#utility.yul\":19210:19211   */\n      dup3\n        /* \"#utility.yul\":19192:19212   */\n      tag_459\n      jump\t// in\n    tag_531:\n        /* \"#utility.yul\":19187:19212   */\n      swap2\n      pop\n        /* \"#utility.yul\":19226:19246   */\n      tag_532\n        /* \"#utility.yul\":19244:19245   */\n      dup4\n        /* \"#utility.yul\":19226:19246   */\n      tag_459\n      jump\t// in\n    tag_532:\n        /* \"#utility.yul\":19221:19246   */\n      swap3\n      pop\n        /* \"#utility.yul\":19265:19266   */\n      dup3\n        /* \"#utility.yul\":19262:19263   */\n      dup3\n        /* \"#utility.yul\":19259:19267   */\n      lt\n        /* \"#utility.yul\":19256:19290   */\n      iszero\n      tag_533\n      jumpi\n        /* \"#utility.yul\":19270:19288   */\n      tag_534\n      tag_518\n      jump\t// in\n    tag_534:\n        /* \"#utility.yul\":19256:19290   */\n    tag_533:\n        /* \"#utility.yul\":19315:19316   */\n      dup3\n        /* \"#utility.yul\":19312:19313   */\n      dup3\n        /* \"#utility.yul\":19308:19317   */\n      sub\n        /* \"#utility.yul\":19300:19317   */\n      swap1\n      pop\n        /* \"#utility.yul\":19132:19323   */\n      swap3\n      swap2\n      pop\n      pop\n      jump\t// out\n        /* \"#utility.yul\":19329:19425   */\n    tag_359:\n        /* \"#utility.yul\":19366:19373   */\n      0x00\n        /* \"#utility.yul\":19395:19419   */\n      tag_536\n        /* \"#utility.yul\":19413:19418   */\n      dup3\n        /* \"#utility.yul\":19395:19419   */\n      tag_537\n      jump\t// in\n    tag_536:\n        /* \"#utility.yul\":19384:19419   */\n      swap1\n      pop\n        /* \"#utility.yul\":19329:19425   */\n      swap2\n      swap1\n      pop\n      jump\t// out\n        /* \"#utility.yul\":19431:19521   */\n    tag_538:\n        /* \"#utility.yul\":19465:19472   */\n      0x00\n        /* \"#utility.yul\":19508:19513   */\n      dup2\n        /* \"#utility.yul\":19501:19514   */\n      iszero\n        /* \"#utility.yul\":19494:19515   */\n      iszero\n        /* \"#utility.yul\":19483:19515   */\n      swap1\n      pop\n        /* \"#utility.yul\":19431:19521   */\n      swap2\n      swap1\n      pop\n      jump\t// out\n        /* \"#utility.yul\":19527:19653   */\n    tag_537:\n        /* \"#utility.yul\":19564:19571   */\n      0x00\n        /* \"#utility.yul\":19604:19646   */\n      0xffffffffffffffffffffffffffffffffffffffff\n        /* \"#utility.yul\":19597:19602   */\n      dup3\n        /* \"#utility.yul\":19593:19647   */\n      and\n        /* \"#utility.yul\":19582:19647   */\n      swap1\n      pop\n        /* \"#utility.yul\":19527:19653   */\n      swap2\n      swap1\n      pop\n      jump\t// out\n        /* \"#utility.yul\":19659:19736   */\n    tag_459:\n        /* \"#utility.yul\":19696:19703   */\n      0x00\n        /* \"#utility.yul\":19725:19730   */\n      dup2\n        /* \"#utility.yul\":19714:19730   */\n      swap1\n      pop\n        /* \"#utility.yul\":19659:19736   */\n      swap2\n      swap1\n      pop\n      jump\t// out\n        /* \"#utility.yul\":19742:19882   */\n    tag_371:\n        /* \"#utility.yul\":19806:19815   */\n      0x00\n        /* \"#utility.yul\":19839:19876   */\n      tag_543\n        /* \"#utility.yul\":19870:19875   */\n      dup3\n        /* \"#utility.yul\":19839:19876   */\n      tag_544\n      jump\t// in\n    tag_543:\n        /* \"#utility.yul\":19826:19876   */\n      swap1\n      pop\n        /* \"#utility.yul\":19742:19882   */\n      swap2\n      swap1\n      pop\n      jump\t// out\n        /* \"#utility.yul\":19888:20014   */\n    tag_544:\n        /* \"#utility.yul\":19938:19947   */\n      0x00\n        /* \"#utility.yul\":19971:20008   */\n      tag_546\n        /* \"#utility.yul\":20002:20007   */\n      dup3\n        /* \"#utility.yul\":19971:20008   */\n      tag_547\n      jump\t// in\n    tag_546:\n        /* \"#utility.yul\":19958:20008   */\n      swap1\n      pop\n        /* \"#utility.yul\":19888:20014   */\n      swap2\n      swap1\n      pop\n      jump\t// out\n        /* \"#utility.yul\":20020:20133   */\n    tag_547:\n        /* \"#utility.yul\":20070:20079   */\n      0x00\n        /* \"#utility.yul\":20103:20127   */\n      tag_549\n        /* \"#utility.yul\":20121:20126   */\n      dup3\n        /* \"#utility.yul\":20103:20127   */\n      tag_537\n      jump\t// in\n    tag_549:\n        /* \"#utility.yul\":20090:20127   */\n      swap1\n      pop\n        /* \"#utility.yul\":20020:20133   */\n      swap2\n      swap1\n      pop\n      jump\t// out\n        /* \"#utility.yul\":20139:20446   */\n    tag_367:\n        /* \"#utility.yul\":20207:20208   */\n      0x00\n        /* \"#utility.yul\":20217:20330   */\n    tag_551:\n        /* \"#utility.yul\":20231:20237   */\n      dup4\n        /* \"#utility.yul\":20228:20229   */\n      dup2\n        /* \"#utility.yul\":20225:20238   */\n      lt\n        /* \"#utility.yul\":20217:20330   */\n      iszero\n      tag_553\n      jumpi\n        /* \"#utility.yul\":20316:20317   */\n      dup1\n        /* \"#utility.yul\":20311:20314   */\n      dup3\n        /* \"#utility.yul\":20307:20318   */\n      add\n        /* \"#utility.yul\":20301:20319   */\n      mload\n        /* \"#utility.yul\":20297:20298   */\n      dup2\n        /* \"#utility.yul\":20292:20295   */\n      dup5\n        /* \"#utility.yul\":20288:20299   */\n      add\n        /* \"#utility.yul\":20281:20320   */\n      mstore\n        /* \"#utility.yul\":20253:20255   */\n      0x20\n        /* \"#utility.yul\":20250:20251   */\n      dup2\n        /* \"#utility.yul\":20246:20256   */\n      add\n        /* \"#utility.yul\":20241:20256   */\n      swap1\n      pop\n        /* \"#utility.yul\":20217:20330   */\n      jump(tag_551)\n    tag_553:\n        /* \"#utility.yul\":20348:20354   */\n      dup4\n        /* \"#utility.yul\":20345:20346   */\n      dup2\n        /* \"#utility.yul\":20342:20355   */\n      gt\n        /* \"#utility.yul\":20339:20440   */\n      iszero\n      tag_554\n      jumpi\n        /* \"#utility.yul\":20428:20429   */\n      0x00\n        /* \"#utility.yul\":20419:20425   */\n      dup5\n        /* \"#utility.yul\":20414:20417   */\n      dup5\n        /* \"#utility.yul\":20410:20426   */\n      add\n        /* \"#utility.yul\":20403:20430   */\n      mstore\n        /* \"#utility.yul\":20339:20440   */\n    tag_554:\n        /* \"#utility.yul\":20188:20446   */\n      pop\n        /* \"#utility.yul\":20139:20446   */\n      pop\n      pop\n      pop\n      jump\t// out\n        /* \"#utility.yul\":20452:20628   */\n    tag_118:\n        /* \"#utility.yul\":20484:20485   */\n      0x00\n        /* \"#utility.yul\":20501:20521   */\n      tag_556\n        /* \"#utility.yul\":20519:20520   */\n      dup3\n        /* \"#utility.yul\":20501:20521   */\n      tag_459\n      jump\t// in\n    tag_556:\n        /* \"#utility.yul\":20496:20521   */\n      swap2\n      pop\n        /* \"#utility.yul\":20535:20555   */\n      tag_557\n        /* \"#utility.yul\":20553:20554   */\n      dup4\n        /* \"#utility.yul\":20535:20555   */\n      tag_459\n      jump\t// in\n    tag_557:\n        /* \"#utility.yul\":20530:20555   */\n      swap3\n      pop\n        /* \"#utility.yul\":20574:20575   */\n      dup3\n        /* \"#utility.yul\":20564:20599   */\n      tag_558\n      jumpi\n        /* \"#utility.yul\":20579:20597   */\n      tag_559\n      tag_524\n      jump\t// in\n    tag_559:\n        /* \"#utility.yul\":20564:20599   */\n    tag_558:\n        /* \"#utility.yul\":20620:20621   */\n      dup3\n        /* \"#utility.yul\":20617:20618   */\n      dup3\n        /* \"#utility.yul\":20613:20622   */\n      mod\n        /* \"#utility.yul\":20608:20622   */\n      swap1\n      pop\n        /* \"#utility.yul\":20452:20628   */\n      swap3\n      swap2\n      pop\n      pop\n      jump\t// out\n        /* \"#utility.yul\":20634:20814   */\n    tag_518:\n        /* \"#utility.yul\":20682:20759   */\n      0x4e487b7100000000000000000000000000000000000000000000000000000000\n        /* \"#utility.yul\":20679:20680   */\n      0x00\n        /* \"#utility.yul\":20672:20760   */\n      mstore\n        /* \"#utility.yul\":20779:20783   */\n      0x11\n        /* \"#utility.yul\":20776:20777   */\n      0x04\n        /* \"#utility.yul\":20769:20784   */\n      mstore\n        /* \"#utility.yul\":20803:20807   */\n      0x24\n        /* \"#utility.yul\":20800:20801   */\n      0x00\n        /* \"#utility.yul\":20793:20808   */\n      revert\n        /* \"#utility.yul\":20820:21000   */\n    tag_524:\n        /* \"#utility.yul\":20868:20945   */\n      0x4e487b7100000000000000000000000000000000000000000000000000000000\n        /* \"#utility.yul\":20865:20866   */\n      0x00\n        /* \"#utility.yul\":20858:20946   */\n      mstore\n        /* \"#utility.yul\":20965:20969   */\n      0x12\n        /* \"#utility.yul\":20962:20963   */\n      0x04\n        /* \"#utility.yul\":20955:20970   */\n      mstore\n        /* \"#utility.yul\":20989:20993   */\n      0x24\n        /* \"#utility.yul\":20986:20987   */\n      0x00\n        /* \"#utility.yul\":20979:20994   */\n      revert\n        /* \"#utility.yul\":21129:21246   */\n    tag_337:\n        /* \"#utility.yul\":21238:21239   */\n      0x00\n        /* \"#utility.yul\":21235:21236   */\n      dup1\n        /* \"#utility.yul\":21228:21240   */\n      revert\n        /* \"#utility.yul\":21252:21354   */\n    tag_380:\n        /* \"#utility.yul\":21293:21299   */\n      0x00\n        /* \"#utility.yul\":21344:21346   */\n      0x1f\n        /* \"#utility.yul\":21340:21347   */\n      not\n        /* \"#utility.yul\":21335:21337   */\n      0x1f\n        /* \"#utility.yul\":21328:21333   */\n      dup4\n        /* \"#utility.yul\":21324:21338   */\n      add\n        /* \"#utility.yul\":21320:21348   */\n      and\n        /* \"#utility.yul\":21310:21348   */\n      swap1\n      pop\n        /* \"#utility.yul\":21252:21354   */\n      swap2\n      swap1\n      pop\n      jump\t// out\n        /* \"#utility.yul\":21360:21526   */\n    tag_385:\n        /* \"#utility.yul\":21500:21518   */\n      0x4e6f7468696e6720746f20636c61696d00000000000000000000000000000000\n        /* \"#utility.yul\":21496:21497   */\n      0x00\n        /* \"#utility.yul\":21488:21494   */\n      dup3\n        /* \"#utility.yul\":21484:21498   */\n      add\n        /* \"#utility.yul\":21477:21519   */\n      mstore\n        /* \"#utility.yul\":21360:21526   */\n      pop\n      jump\t// out\n        /* \"#utility.yul\":21532:21703   */\n    tag_390:\n        /* \"#utility.yul\":21672:21695   */\n      0x4572726f723a20696e76616c6964207374616b65720000000000000000000000\n        /* \"#utility.yul\":21668:21669   */\n      0x00\n        /* \"#utility.yul\":21660:21666   */\n      dup3\n        /* \"#utility.yul\":21656:21670   */\n      add\n        /* \"#utility.yul\":21649:21696   */\n      mstore\n        /* \"#utility.yul\":21532:21703   */\n      pop\n      jump\t// out\n        /* \"#utility.yul\":21709:21938   */\n    tag_395:\n        /* \"#utility.yul\":21849:21883   */\n      0x5361666542455032303a204245503230206f7065726174696f6e20646964206e\n        /* \"#utility.yul\":21845:21846   */\n      0x00\n        /* \"#utility.yul\":21837:21843   */\n      dup3\n        /* \"#utility.yul\":21833:21847   */\n      add\n        /* \"#utility.yul\":21826:21884   */\n      mstore\n        /* \"#utility.yul\":21918:21930   */\n      0x6f74207375636365656400000000000000000000000000000000000000000000\n        /* \"#utility.yul\":21913:21915   */\n      0x20\n        /* \"#utility.yul\":21905:21911   */\n      dup3\n        /* \"#utility.yul\":21901:21916   */\n      add\n        /* \"#utility.yul\":21894:21931   */\n      mstore\n        /* \"#utility.yul\":21709:21938   */\n      pop\n      jump\t// out\n        /* \"#utility.yul\":21944:22169   */\n    tag_400:\n        /* \"#utility.yul\":22084:22118   */\n      0x4f776e61626c653a206e6577206f776e657220697320746865207a65726f2061\n        /* \"#utility.yul\":22080:22081   */\n      0x00\n        /* \"#utility.yul\":22072:22078   */\n      dup3\n        /* \"#utility.yul\":22068:22082   */\n      add\n        /* \"#utility.yul\":22061:22119   */\n      mstore\n        /* \"#utility.yul\":22153:22161   */\n      0x6464726573730000000000000000000000000000000000000000000000000000\n        /* \"#utility.yul\":22148:22150   */\n      0x20\n        /* \"#utility.yul\":22140:22146   */\n      dup3\n        /* \"#utility.yul\":22136:22151   */\n      add\n        /* \"#utility.yul\":22129:22162   */\n      mstore\n        /* \"#utility.yul\":21944:22169   */\n      pop\n      jump\t// out\n        /* \"#utility.yul\":22175:22339   */\n    tag_405:\n        /* \"#utility.yul\":22315:22331   */\n      0x496e76616c696420616d6f756e74000000000000000000000000000000000000\n        /* \"#utility.yul\":22311:22312   */\n      0x00\n        /* \"#utility.yul\":22303:22309   */\n      dup3\n        /* \"#utility.yul\":22299:22313   */\n      add\n        /* \"#utility.yul\":22292:22332   */\n      mstore\n        /* \"#utility.yul\":22175:22339   */\n      pop\n      jump\t// out\n        /* \"#utility.yul\":22345:22510   */\n    tag_410:\n        /* \"#utility.yul\":22485:22502   */\n      0x416c726561647920737461727465640000000000000000000000000000000000\n        /* \"#utility.yul\":22481:22482   */\n      0x00\n        /* \"#utility.yul\":22473:22479   */\n      dup3\n        /* \"#utility.yul\":22469:22483   */\n      add\n        /* \"#utility.yul\":22462:22503   */\n      mstore\n        /* \"#utility.yul\":22345:22510   */\n      pop\n      jump\t// out\n        /* \"#utility.yul\":22516:22741   */\n    tag_415:\n        /* \"#utility.yul\":22656:22690   */\n      0x416464726573733a20696e73756666696369656e742062616c616e636520666f\n        /* \"#utility.yul\":22652:22653   */\n      0x00\n        /* \"#utility.yul\":22644:22650   */\n      dup3\n        /* \"#utility.yul\":22640:22654   */\n      add\n        /* \"#utility.yul\":22633:22691   */\n      mstore\n        /* \"#utility.yul\":22725:22733   */\n      0x722063616c6c0000000000000000000000000000000000000000000000000000\n        /* \"#utility.yul\":22720:22722   */\n      0x20\n        /* \"#utility.yul\":22712:22718   */\n      dup3\n        /* \"#utility.yul\":22708:22723   */\n      add\n        /* \"#utility.yul\":22701:22734   */\n      mstore\n        /* \"#utility.yul\":22516:22741   */\n      pop\n      jump\t// out\n        /* \"#utility.yul\":22747:22928   */\n    tag_420:\n        /* \"#utility.yul\":22887:22920   */\n      0x416d6f756e742073686f756c642062652067726561746572207468616e203000\n        /* \"#utility.yul\":22883:22884   */\n      0x00\n        /* \"#utility.yul\":22875:22881   */\n      dup3\n        /* \"#utility.yul\":22871:22885   */\n      add\n        /* \"#utility.yul\":22864:22921   */\n      mstore\n        /* \"#utility.yul\":22747:22928   */\n      pop\n      jump\t// out\n        /* \"#utility.yul\":22934:23116   */\n    tag_425:\n        /* \"#utility.yul\":23074:23108   */\n      0x4f776e61626c653a2063616c6c6572206973206e6f7420746865206f776e6572\n        /* \"#utility.yul\":23070:23071   */\n      0x00\n        /* \"#utility.yul\":23062:23068   */\n      dup3\n        /* \"#utility.yul\":23058:23072   */\n      add\n        /* \"#utility.yul\":23051:23109   */\n      mstore\n        /* \"#utility.yul\":22934:23116   */\n      pop\n      jump\t// out\n        /* \"#utility.yul\":23122:23285   */\n    tag_430:\n        /* \"#utility.yul\":23262:23277   */\n      0x496e76616c69642076616c756500000000000000000000000000000000000000\n        /* \"#utility.yul\":23258:23259   */\n      0x00\n        /* \"#utility.yul\":23250:23256   */\n      dup3\n        /* \"#utility.yul\":23246:23260   */\n      add\n        /* \"#utility.yul\":23239:23278   */\n      mstore\n        /* \"#utility.yul\":23122:23285   */\n      pop\n      jump\t// out\n        /* \"#utility.yul\":23291:23470   */\n    tag_435:\n        /* \"#utility.yul\":23431:23462   */\n      0x416464726573733a2063616c6c20746f206e6f6e2d636f6e7472616374000000\n        /* \"#utility.yul\":23427:23428   */\n      0x00\n        /* \"#utility.yul\":23419:23425   */\n      dup3\n        /* \"#utility.yul\":23415:23429   */\n      add\n        /* \"#utility.yul\":23408:23463   */\n      mstore\n        /* \"#utility.yul\":23291:23470   */\n      pop\n      jump\t// out\n        /* \"#utility.yul\":23476:23652   */\n    tag_440:\n        /* \"#utility.yul\":23616:23644   */\n      0x496e76616c696420556e7374616b696e67204665652052617465000000000000\n        /* \"#utility.yul\":23612:23613   */\n      0x00\n        /* \"#utility.yul\":23604:23610   */\n      dup3\n        /* \"#utility.yul\":23600:23614   */\n      add\n        /* \"#utility.yul\":23593:23645   */\n      mstore\n        /* \"#utility.yul\":23476:23652   */\n      pop\n      jump\t// out\n        /* \"#utility.yul\":23658:23831   */\n    tag_445:\n        /* \"#utility.yul\":23798:23823   */\n      0x496e76616c6964204c6f636b7570204475726174696f6e000000000000000000\n        /* \"#utility.yul\":23794:23795   */\n      0x00\n        /* \"#utility.yul\":23786:23792   */\n      dup3\n        /* \"#utility.yul\":23782:23796   */\n      add\n        /* \"#utility.yul\":23775:23824   */\n      mstore\n        /* \"#utility.yul\":23658:23831   */\n      pop\n      jump\t// out\n        /* \"#utility.yul\":23837:24000   */\n    tag_450:\n        /* \"#utility.yul\":23977:23992   */\n      0x43616e2774206265207a65726f00000000000000000000000000000000000000\n        /* \"#utility.yul\":23973:23974   */\n      0x00\n        /* \"#utility.yul\":23965:23971   */\n      dup3\n        /* \"#utility.yul\":23961:23975   */\n      add\n        /* \"#utility.yul\":23954:23993   */\n      mstore\n        /* \"#utility.yul\":23837:24000   */\n      pop\n      jump\t// out\n        /* \"#utility.yul\":24006:24169   */\n    tag_455:\n        /* \"#utility.yul\":24146:24161   */\n      0x496e73756666696369656e742100000000000000000000000000000000000000\n        /* \"#utility.yul\":24142:24143   */\n      0x00\n        /* \"#utility.yul\":24134:24140   */\n      dup3\n        /* \"#utility.yul\":24130:24144   */\n      add\n        /* \"#utility.yul\":24123:24162   */\n      mstore\n        /* \"#utility.yul\":24006:24169   */\n      pop\n      jump\t// out\n        /* \"#utility.yul\":24175:24297   */\n    tag_322:\n        /* \"#utility.yul\":24248:24272   */\n      tag_582\n        /* \"#utility.yul\":24266:24271   */\n      dup2\n        /* \"#utility.yul\":24248:24272   */\n      tag_359\n      jump\t// in\n    tag_582:\n        /* \"#utility.yul\":24241:24246   */\n      dup2\n        /* \"#utility.yul\":24238:24273   */\n      eq\n        /* \"#utility.yul\":24228:24291   */\n      tag_583\n      jumpi\n        /* \"#utility.yul\":24287:24288   */\n      0x00\n        /* \"#utility.yul\":24284:24285   */\n      dup1\n        /* \"#utility.yul\":24277:24289   */\n      revert\n        /* \"#utility.yul\":24228:24291   */\n    tag_583:\n        /* \"#utility.yul\":24175:24297   */\n      pop\n      jump\t// out\n        /* \"#utility.yul\":24303:24419   */\n    tag_326:\n        /* \"#utility.yul\":24373:24394   */\n      tag_585\n        /* \"#utility.yul\":24388:24393   */\n      dup2\n        /* \"#utility.yul\":24373:24394   */\n      tag_538\n      jump\t// in\n    tag_585:\n        /* \"#utility.yul\":24366:24371   */\n      dup2\n        /* \"#utility.yul\":24363:24395   */\n      eq\n        /* \"#utility.yul\":24353:24413   */\n      tag_586\n      jumpi\n        /* \"#utility.yul\":24409:24410   */\n      0x00\n        /* \"#utility.yul\":24406:24407   */\n      dup1\n        /* \"#utility.yul\":24399:24411   */\n      revert\n        /* \"#utility.yul\":24353:24413   */\n    tag_586:\n        /* \"#utility.yul\":24303:24419   */\n      pop\n      jump\t// out\n        /* \"#utility.yul\":24425:24547   */\n    tag_330:\n        /* \"#utility.yul\":24498:24522   */\n      tag_588\n        /* \"#utility.yul\":24516:24521   */\n      dup2\n        /* \"#utility.yul\":24498:24522   */\n      tag_459\n      jump\t// in\n    tag_588:\n        /* \"#utility.yul\":24491:24496   */\n      dup2\n        /* \"#utility.yul\":24488:24523   */\n      eq\n        /* \"#utility.yul\":24478:24541   */\n      tag_589\n      jumpi\n        /* \"#utility.yul\":24537:24538   */\n      0x00\n        /* \"#utility.yul\":24534:24535   */\n      dup1\n        /* \"#utility.yul\":24527:24539   */\n      revert\n        /* \"#utility.yul\":24478:24541   */\n    tag_589:\n        /* \"#utility.yul\":24425:24547   */\n      pop\n      jump\t// out\n\n    auxdata: 0xa26469706673582212207cc1a47140e0c601e4e3fe7efb06eff72aa9049445a765de43f31b23d6c08b4c64736f6c63430008070033\n}\n",
				"bytecode": {
					"linkReferences": {},
					"object": "60806040523480156200001157600080fd5b5060405162002abb38038062002abb8339818101604052810190620000379190620001c1565b620000576200004b620000af60201b60201c565b620000b760201b60201c565b620000676200017b60201b60201c565b80600960006101000a81548173ffffffffffffffffffffffffffffffffffffffff021916908373ffffffffffffffffffffffffffffffffffffffff1602179055505062000246565b600033905090565b60008060009054906101000a900473ffffffffffffffffffffffffffffffffffffffff169050816000806101000a81548173ffffffffffffffffffffffffffffffffffffffff021916908373ffffffffffffffffffffffffffffffffffffffff1602179055508173ffffffffffffffffffffffffffffffffffffffff168173ffffffffffffffffffffffffffffffffffffffff167f8be0079c531659141344cd1fd0a4f28419497f9722a3daafe3b4186f6b6457e060405160405180910390a35050565b60c86003819055506105dc600181905550606460048190555062093a806002819055506276a700600581905550565b600081519050620001bb816200022c565b92915050565b600060208284031215620001da57620001d962000227565b5b6000620001ea84828501620001aa565b91505092915050565b6000620002008262000207565b9050919050565b600073ffffffffffffffffffffffffffffffffffffffff82169050919050565b600080fd5b6200023781620001f3565b81146200024357600080fd5b50565b61286580620002566000396000f3fe608060405234801561001057600080fd5b50600436106101215760003560e01c8063715018a6116100ad5780639e447fc6116100715780639e447fc614610298578063a694fc3a146102b4578063f2fde38b146102d0578063f7b2a7be146102ec578063fc0c546a1461030a57610121565b8063715018a6146102185780637e1a378614610222578063817b1cd2146102405780638da5cb5b1461025e57806391e07e7a1461027c57610121565b80634b62b70b116100f45780634b62b70b146101885780634b77dd9e146101a45780635715ec11146101c05780635d2ec65d146101de578063692642e7146101fc57610121565b80630917e776146101265780632e1a7d4d14610144578063373d6132146101605780634641257d1461017e575b600080fd5b61012e610328565b60405161013b9190612259565b60405180910390f35b61015e60048036038101906101599190611c6c565b610332565b005b610168610701565b6040516101759190612259565b60405180910390f35b61018661074b565b005b6101a2600480360381019061019d9190611c6c565b610a14565b005b6101be60048036038101906101b99190611cc6565b610add565b005b6101c8610dd8565b6040516101d59190612259565b60405180910390f35b6101e6610de5565b6040516101f39190612259565b60405180910390f35b61021660048036038101906102119190611c6c565b610e2f565b005b610220610f44565b005b61022a610fcc565b6040516102379190612259565b60405180910390f35b610248610fd6565b6040516102559190612259565b60405180910390f35b610266610fdc565b6040516102739190611fc1565b60405180910390f35b61029660048036038101906102919190611c6c565b611005565b005b6102b260048036038101906102ad9190611c6c565b611105565b005b6102ce60048036038101906102c99190611c6c565b611205565b005b6102ea60048036038101906102e59190611c12565b6114ca565b005b6102f46115c2565b6040516103019190612259565b60405180910390f35b61031261160c565b60405161031f919061203c565b60405180910390f35b6000600854905090565b6000600760003373ffffffffffffffffffffffffffffffffffffffff1673ffffffffffffffffffffffffffffffffffffffff1681526020019081526020016000209050600082116103b8576040517f08c379a00000000000000000000000000000000000000000000000000000000081526004016103af90612159565b60405180910390fd5b80600101548211156103ff576040517f08c379a00000000000000000000000000000000000000000000000000000000081526004016103f6906120f9565b60405180910390fd5b610407611632565b6000600960009054906101000a900473ffffffffffffffffffffffffffffffffffffffff1673ffffffffffffffffffffffffffffffffffffffff166370a08231306040518263ffffffff1660e01b81526004016104649190611fc1565b60206040518083038186803b15801561047c57600080fd5b505afa158015610490573d6000803e3d6000fd5b505050506040513d601f19601f820116820180604052508101906104b49190611c99565b831061056a57600960009054906101000a900473ffffffffffffffffffffffffffffffffffffffff1673ffffffffffffffffffffffffffffffffffffffff166370a08231306040518263ffffffff1660e01b81526004016105159190611fc1565b60206040518083038186803b15801561052d57600080fd5b505afa158015610541573d6000803e3d6000fd5b505050506040513d601f19601f820116820180604052508101906105659190611c99565b61056c565b825b9050600061059c6201518061058e85600301544261170e90919063ffffffff16565b61172490919063ffffffff16565b9050600060649050600060018560020154146105d3576105cb600554866003015461173a90919063ffffffff16565b4210156105f1565b6000600254846105e3919061246c565b1480156105f05750600083115b5b9050806105fe5760015491505b61063761062861271061061a858861175090919063ffffffff16565b61172490919063ffffffff16565b8561170e90919063ffffffff16565b935061064e8460085461170e90919063ffffffff16565b60088190555061066b84866001015461170e90919063ffffffff16565b85600101819055506106c03385600960009054906101000a900473ffffffffffffffffffffffffffffffffffffffff1673ffffffffffffffffffffffffffffffffffffffff166117669092919063ffffffff16565b7f884edad9ce6fa2440d8a54cc123490eb96d2768479d49ff9c7366125a942436433856040516106f1929190612013565b60405180910390a1505050505050565b6000600760003373ffffffffffffffffffffffffffffffffffffffff1673ffffffffffffffffffffffffffffffffffffffff16815260200190815260200160002060010154905090565b610753611632565b6000600760003373ffffffffffffffffffffffffffffffffffffffff1673ffffffffffffffffffffffffffffffffffffffff168152602001908152602001600020905060006107db6107c86127106107ba600454866000015461175090919063ffffffff16565b61172490919063ffffffff16565b836000015461170e90919063ffffffff16565b905060008111610820576040517f08c379a000000000000000000000000000000000000000000000000000000000815260040161081790612079565b60405180910390fd5b600960009054906101000a900473ffffffffffffffffffffffffffffffffffffffff1673ffffffffffffffffffffffffffffffffffffffff166370a08231306040518263ffffffff1660e01b815260040161087b9190611fc1565b60206040518083038186803b15801561089357600080fd5b505afa1580156108a7573d6000803e3d6000fd5b505050506040513d601f19601f820116820180604052508101906108cb9190611c99565b81111561098057600960009054906101000a900473ffffffffffffffffffffffffffffffffffffffff1673ffffffffffffffffffffffffffffffffffffffff166370a08231306040518263ffffffff1660e01b815260040161092d9190611fc1565b60206040518083038186803b15801561094557600080fd5b505afa158015610959573d6000803e3d6000fd5b505050506040513d601f19601f8201168201806040525081019061097d9190611c99565b90505b6109cd3382600960009054906101000a900473ffffffffffffffffffffffffffffffffffffffff1673ffffffffffffffffffffffffffffffffffffffff166117669092919063ffffffff16565b600082600001819055507fc9695243a805adb74c91f28311176c65b417e842d5699893cef56d18bfa48cba3382604051610a08929190612013565b60405180910390a15050565b610a1c6117ec565b73ffffffffffffffffffffffffffffffffffffffff16610a3a610fdc565b73ffffffffffffffffffffffffffffffffffffffff1614610a90576040517f08c379a0000000000000000000000000000000000000000000000000000000008152600401610a8790612179565b60405180910390fd5b60008111610ad3576040517f08c379a0000000000000000000000000000000000000000000000000000000008152600401610aca90612219565b60405180910390fd5b8060058190555050565b60008211610b20576040517f08c379a0000000000000000000000000000000000000000000000000000000008152600401610b1790612159565b60405180910390fd5b81600960009054906101000a900473ffffffffffffffffffffffffffffffffffffffff1673ffffffffffffffffffffffffffffffffffffffff166370a08231336040518263ffffffff1660e01b8152600401610b7c9190611fc1565b60206040518083038186803b158015610b9457600080fd5b505afa158015610ba8573d6000803e3d6000fd5b505050506040513d601f19601f82011682018060405250810190610bcc9190611c99565b11610c0c576040517f08c379a0000000000000000000000000000000000000000000000000000000008152600401610c0390612239565b60405180910390fd5b6055600760003373ffffffffffffffffffffffffffffffffffffffff1673ffffffffffffffffffffffffffffffffffffffff168152602001908152602001600020600501541415610c92576040517f08c379a0000000000000000000000000000000000000000000000000000000008152600401610c8990612119565b60405180910390fd5b80600760003373ffffffffffffffffffffffffffffffffffffffff1673ffffffffffffffffffffffffffffffffffffffff1681526020019081526020016000206002018190555042600760003373ffffffffffffffffffffffffffffffffffffffff1673ffffffffffffffffffffffffffffffffffffffff168152602001908152602001600020600301819055506055600760003373ffffffffffffffffffffffffffffffffffffffff1673ffffffffffffffffffffffffffffffffffffffff168152602001908152602001600020600501819055506006339080600181540180825580915050600190039060005260206000200160009091909190916101000a81548173ffffffffffffffffffffffffffffffffffffffff021916908373ffffffffffffffffffffffffffffffffffffffff160217905550610dd482611205565b5050565b6000600680549050905090565b6000600760003373ffffffffffffffffffffffffffffffffffffffff1673ffffffffffffffffffffffffffffffffffffffff16815260200190815260200160002060000154905090565b610e376117ec565b73ffffffffffffffffffffffffffffffffffffffff16610e55610fdc565b73ffffffffffffffffffffffffffffffffffffffff1614610eab576040517f08c379a0000000000000000000000000000000000000000000000000000000008152600401610ea290612179565b60405180910390fd5b60008111610eee576040517f08c379a0000000000000000000000000000000000000000000000000000000008152600401610ee5906121f9565b60405180910390fd5b610f04620151808261175090919063ffffffff16565b6002819055507f189bda9782663c67a3f95c0aa5455924c711210b00281c60ead2f0dd8dbc924c81604051610f399190612259565b60405180910390a150565b610f4c6117ec565b73ffffffffffffffffffffffffffffffffffffffff16610f6a610fdc565b73ffffffffffffffffffffffffffffffffffffffff1614610fc0576040517f08c379a0000000000000000000000000000000000000000000000000000000008152600401610fb790612179565b60405180910390fd5b610fca60006117f4565b565b6000600354905090565b60085481565b60008060009054906101000a900473ffffffffffffffffffffffffffffffffffffffff16905090565b61100d6117ec565b73ffffffffffffffffffffffffffffffffffffffff1661102b610fdc565b73ffffffffffffffffffffffffffffffffffffffff1614611081576040517f08c379a000000000000000000000000000000000000000000000000000000000815260040161107890612179565b60405180910390fd5b600081116110c4576040517f08c379a00000000000000000000000000000000000000000000000000000000081526004016110bb906121d9565b60405180910390fd5b806001819055507f150c688dd7595bf7862b8ab1fe46756450eb7d731037942b3bbc46f3f0e21b81816040516110fa9190612259565b60405180910390a150565b61110d6117ec565b73ffffffffffffffffffffffffffffffffffffffff1661112b610fdc565b73ffffffffffffffffffffffffffffffffffffffff1614611181576040517f08c379a000000000000000000000000000000000000000000000000000000000815260040161117890612179565b60405180910390fd5b600081116111c4576040517f08c379a00000000000000000000000000000000000000000000000000000000081526004016111bb90612199565b60405180910390fd5b806003819055507f1946fb78c7ca778b54d82cabaac5ba67cf446f58d0ff1f8ceaebb6150e54e44f816040516111fa9190612259565b60405180910390a150565b60008111611248576040517f08c379a000000000000000000000000000000000000000000000000000000000815260040161123f90612159565b60405180910390fd5b80600960009054906101000a900473ffffffffffffffffffffffffffffffffffffffff1673ffffffffffffffffffffffffffffffffffffffff166370a08231336040518263ffffffff1660e01b81526004016112a49190611fc1565b60206040518083038186803b1580156112bc57600080fd5b505afa1580156112d0573d6000803e3d6000fd5b505050506040513d601f19601f820116820180604052508101906112f49190611c99565b11611334576040517f08c379a000000000000000000000000000000000000000000000000000000000815260040161132b90612239565b60405180910390fd5b6055600760003373ffffffffffffffffffffffffffffffffffffffff1673ffffffffffffffffffffffffffffffffffffffff16815260200190815260200160002060050154146113b9576040517f08c379a00000000000000000000000000000000000000000000000000000000081526004016113b090612099565b60405180910390fd5b6113c1611632565b6000600760003373ffffffffffffffffffffffffffffffffffffffff1673ffffffffffffffffffffffffffffffffffffffff1681526020019081526020016000209050611453333084600960009054906101000a900473ffffffffffffffffffffffffffffffffffffffff1673ffffffffffffffffffffffffffffffffffffffff166118b8909392919063ffffffff16565b61146a82826001015461173a90919063ffffffff16565b81600101819055506114878260085461173a90919063ffffffff16565b6008819055507f9e71bc8eea02a63969f509818f2dafb9254532904319f9dbda79b67bd34a5f3d33836040516114be929190612013565b60405180910390a15050565b6114d26117ec565b73ffffffffffffffffffffffffffffffffffffffff166114f0610fdc565b73ffffffffffffffffffffffffffffffffffffffff1614611546576040517f08c379a000000000000000000000000000000000000000000000000000000000815260040161153d90612179565b60405180910390fd5b600073ffffffffffffffffffffffffffffffffffffffff168173ffffffffffffffffffffffffffffffffffffffff1614156115b6576040517f08c379a00000000000000000000000000000000000000000000000000000000081526004016115ad906120d9565b60405180910390fd5b6115bf816117f4565b50565b6000600760003373ffffffffffffffffffffffffffffffffffffffff1673ffffffffffffffffffffffffffffffffffffffff16815260200190815260200160002060000154905090565b600960009054906101000a900473ffffffffffffffffffffffffffffffffffffffff1681565b6000600760003373ffffffffffffffffffffffffffffffffffffffff1673ffffffffffffffffffffffffffffffffffffffff168152602001908152602001600020905060006116e06127106116d26003546116c46116b16121c06116a389600401544361170e90919063ffffffff16565b61172490919063ffffffff16565b876001015461175090919063ffffffff16565b61175090919063ffffffff16565b61172490919063ffffffff16565b90506116f981836000015461173a90919063ffffffff16565b82600001819055504382600401819055505050565b6000818361171c9190612387565b905092915050565b6000818361173291906122fc565b905092915050565b6000818361174891906122a6565b905092915050565b6000818361175e919061232d565b905092915050565b6117e78363a9059cbb60e01b8484604051602401611785929190612013565b604051602081830303815290604052907bffffffffffffffffffffffffffffffffffffffffffffffffffffffff19166020820180517bffffffffffffffffffffffffffffffffffffffffffffffffffffffff8381831617835250505050611941565b505050565b600033905090565b60008060009054906101000a900473ffffffffffffffffffffffffffffffffffffffff169050816000806101000a81548173ffffffffffffffffffffffffffffffffffffffff021916908373ffffffffffffffffffffffffffffffffffffffff1602179055508173ffffffffffffffffffffffffffffffffffffffff168173ffffffffffffffffffffffffffffffffffffffff167f8be0079c531659141344cd1fd0a4f28419497f9722a3daafe3b4186f6b6457e060405160405180910390a35050565b61193b846323b872dd60e01b8585856040516024016118d993929190611fdc565b604051602081830303815290604052907bffffffffffffffffffffffffffffffffffffffffffffffffffffffff19166020820180517bffffffffffffffffffffffffffffffffffffffffffffffffffffffff8381831617835250505050611941565b50505050565b60006119a3826040518060400160405280602081526020017f5361666542455032303a206c6f772d6c6576656c2063616c6c206661696c65648152508573ffffffffffffffffffffffffffffffffffffffff16611a089092919063ffffffff16565b9050600081511115611a0357808060200190518101906119c39190611c3f565b611a02576040517f08c379a00000000000000000000000000000000000000000000000000000000081526004016119f9906120b9565b60405180910390fd5b5b505050565b6060611a178484600085611a20565b90509392505050565b606082471015611a65576040517f08c379a0000000000000000000000000000000000000000000000000000000008152600401611a5c90612139565b60405180910390fd5b611a6e85611b34565b611aad576040517f08c379a0000000000000000000000000000000000000000000000000000000008152600401611aa4906121b9565b60405180910390fd5b6000808673ffffffffffffffffffffffffffffffffffffffff168587604051611ad69190611faa565b60006040518083038185875af1925050503d8060008114611b13576040519150601f19603f3d011682016040523d82523d6000602084013e611b18565b606091505b5091509150611b28828286611b57565b92505050949350505050565b6000808273ffffffffffffffffffffffffffffffffffffffff163b119050919050565b60608315611b6757829050611bb7565b600083511115611b7a5782518084602001fd5b816040517f08c379a0000000000000000000000000000000000000000000000000000000008152600401611bae9190612057565b60405180910390fd5b9392505050565b600081359050611bcd816127ea565b92915050565b600081519050611be281612801565b92915050565b600081359050611bf781612818565b92915050565b600081519050611c0c81612818565b92915050565b600060208284031215611c2857611c276124fb565b5b6000611c3684828501611bbe565b91505092915050565b600060208284031215611c5557611c546124fb565b5b6000611c6384828501611bd3565b91505092915050565b600060208284031215611c8257611c816124fb565b5b6000611c9084828501611be8565b91505092915050565b600060208284031215611caf57611cae6124fb565b5b6000611cbd84828501611bfd565b91505092915050565b60008060408385031215611cdd57611cdc6124fb565b5b6000611ceb85828601611be8565b9250506020611cfc85828601611be8565b9150509250929050565b611d0f816123bb565b82525050565b6000611d2082612274565b611d2a818561228a565b9350611d3a818560208601612439565b80840191505092915050565b611d4f81612403565b82525050565b6000611d608261227f565b611d6a8185612295565b9350611d7a818560208601612439565b611d8381612500565b840191505092915050565b6000611d9b601083612295565b9150611da682612511565b602082019050919050565b6000611dbe601583612295565b9150611dc98261253a565b602082019050919050565b6000611de1602a83612295565b9150611dec82612563565b604082019050919050565b6000611e04602683612295565b9150611e0f826125b2565b604082019050919050565b6000611e27600e83612295565b9150611e3282612601565b602082019050919050565b6000611e4a600f83612295565b9150611e558261262a565b602082019050919050565b6000611e6d602683612295565b9150611e7882612653565b604082019050919050565b6000611e90601f83612295565b9150611e9b826126a2565b602082019050919050565b6000611eb3602083612295565b9150611ebe826126cb565b602082019050919050565b6000611ed6600d83612295565b9150611ee1826126f4565b602082019050919050565b6000611ef9601d83612295565b9150611f048261271d565b602082019050919050565b6000611f1c601a83612295565b9150611f2782612746565b602082019050919050565b6000611f3f601783612295565b9150611f4a8261276f565b602082019050919050565b6000611f62600d83612295565b9150611f6d82612798565b602082019050919050565b6000611f85600d83612295565b9150611f90826127c1565b602082019050919050565b611fa4816123f9565b82525050565b6000611fb68284611d15565b915081905092915050565b6000602082019050611fd66000830184611d06565b92915050565b6000606082019050611ff16000830186611d06565b611ffe6020830185611d06565b61200b6040830184611f9b565b949350505050565b60006040820190506120286000830185611d06565b6120356020830184611f9b565b9392505050565b60006020820190506120516000830184611d46565b92915050565b600060208201905081810360008301526120718184611d55565b905092915050565b6000602082019050818103600083015261209281611d8e565b9050919050565b600060208201905081810360008301526120b281611db1565b9050919050565b600060208201905081810360008301526120d281611dd4565b9050919050565b600060208201905081810360008301526120f281611df7565b9050919050565b6000602082019050818103600083015261211281611e1a565b9050919050565b6000602082019050818103600083015261213281611e3d565b9050919050565b6000602082019050818103600083015261215281611e60565b9050919050565b6000602082019050818103600083015261217281611e83565b9050919050565b6000602082019050818103600083015261219281611ea6565b9050919050565b600060208201905081810360008301526121b281611ec9565b9050919050565b600060208201905081810360008301526121d281611eec565b9050919050565b600060208201905081810360008301526121f281611f0f565b9050919050565b6000602082019050818103600083015261221281611f32565b9050919050565b6000602082019050818103600083015261223281611f55565b9050919050565b6000602082019050818103600083015261225281611f78565b9050919050565b600060208201905061226e6000830184611f9b565b92915050565b600081519050919050565b600081519050919050565b600081905092915050565b600082825260208201905092915050565b60006122b1826123f9565b91506122bc836123f9565b9250827fffffffffffffffffffffffffffffffffffffffffffffffffffffffffffffffff038211156122f1576122f061249d565b5b828201905092915050565b6000612307826123f9565b9150612312836123f9565b925082612322576123216124cc565b5b828204905092915050565b6000612338826123f9565b9150612343836123f9565b9250817fffffffffffffffffffffffffffffffffffffffffffffffffffffffffffffffff048311821515161561237c5761237b61249d565b5b828202905092915050565b6000612392826123f9565b915061239d836123f9565b9250828210156123b0576123af61249d565b5b828203905092915050565b60006123c6826123d9565b9050919050565b60008115159050919050565b600073ffffffffffffffffffffffffffffffffffffffff82169050919050565b6000819050919050565b600061240e82612415565b9050919050565b600061242082612427565b9050919050565b6000612432826123d9565b9050919050565b60005b8381101561245757808201518184015260208101905061243c565b83811115612466576000848401525b50505050565b6000612477826123f9565b9150612482836123f9565b925082612492576124916124cc565b5b828206905092915050565b7f4e487b7100000000000000000000000000000000000000000000000000000000600052601160045260246000fd5b7f4e487b7100000000000000000000000000000000000000000000000000000000600052601260045260246000fd5b600080fd5b6000601f19601f8301169050919050565b7f4e6f7468696e6720746f20636c61696d00000000000000000000000000000000600082015250565b7f4572726f723a20696e76616c6964207374616b65720000000000000000000000600082015250565b7f5361666542455032303a204245503230206f7065726174696f6e20646964206e60008201527f6f74207375636365656400000000000000000000000000000000000000000000602082015250565b7f4f776e61626c653a206e6577206f776e657220697320746865207a65726f206160008201527f6464726573730000000000000000000000000000000000000000000000000000602082015250565b7f496e76616c696420616d6f756e74000000000000000000000000000000000000600082015250565b7f416c726561647920737461727465640000000000000000000000000000000000600082015250565b7f416464726573733a20696e73756666696369656e742062616c616e636520666f60008201527f722063616c6c0000000000000000000000000000000000000000000000000000602082015250565b7f416d6f756e742073686f756c642062652067726561746572207468616e203000600082015250565b7f4f776e61626c653a2063616c6c6572206973206e6f7420746865206f776e6572600082015250565b7f496e76616c69642076616c756500000000000000000000000000000000000000600082015250565b7f416464726573733a2063616c6c20746f206e6f6e2d636f6e7472616374000000600082015250565b7f496e76616c696420556e7374616b696e67204665652052617465000000000000600082015250565b7f496e76616c6964204c6f636b7570204475726174696f6e000000000000000000600082015250565b7f43616e2774206265207a65726f00000000000000000000000000000000000000600082015250565b7f496e73756666696369656e742100000000000000000000000000000000000000600082015250565b6127f3816123bb565b81146127fe57600080fd5b50565b61280a816123cd565b811461281557600080fd5b50565b612821816123f9565b811461282c57600080fd5b5056fea26469706673582212207cc1a47140e0c601e4e3fe7efb06eff72aa9049445a765de43f31b23d6c08b4c64736f6c63430008070033",
					"opcodes": "PUSH1 0x80 PUSH1 0x40 MSTORE CALLVALUE DUP1 ISZERO PUSH3 0x11 JUMPI PUSH1 0x0 DUP1 REVERT JUMPDEST POP PUSH1 0x40 MLOAD PUSH3 0x2ABB CODESIZE SUB DUP1 PUSH3 0x2ABB DUP4 CODECOPY DUP2 DUP2 ADD PUSH1 0x40 MSTORE DUP2 ADD SWAP1 PUSH3 0x37 SWAP2 SWAP1 PUSH3 0x1C1 JUMP JUMPDEST PUSH3 0x57 PUSH3 0x4B PUSH3 0xAF PUSH1 0x20 SHL PUSH1 0x20 SHR JUMP JUMPDEST PUSH3 0xB7 PUSH1 0x20 SHL PUSH1 0x20 SHR JUMP JUMPDEST PUSH3 0x67 PUSH3 0x17B PUSH1 0x20 SHL PUSH1 0x20 SHR JUMP JUMPDEST DUP1 PUSH1 0x9 PUSH1 0x0 PUSH2 0x100 EXP DUP2 SLOAD DUP2 PUSH20 0xFFFFFFFFFFFFFFFFFFFFFFFFFFFFFFFFFFFFFFFF MUL NOT AND SWAP1 DUP4 PUSH20 0xFFFFFFFFFFFFFFFFFFFFFFFFFFFFFFFFFFFFFFFF AND MUL OR SWAP1 SSTORE POP POP PUSH3 0x246 JUMP JUMPDEST PUSH1 0x0 CALLER SWAP1 POP SWAP1 JUMP JUMPDEST PUSH1 0x0 DUP1 PUSH1 0x0 SWAP1 SLOAD SWAP1 PUSH2 0x100 EXP SWAP1 DIV PUSH20 0xFFFFFFFFFFFFFFFFFFFFFFFFFFFFFFFFFFFFFFFF AND SWAP1 POP DUP2 PUSH1 0x0 DUP1 PUSH2 0x100 EXP DUP2 SLOAD DUP2 PUSH20 0xFFFFFFFFFFFFFFFFFFFFFFFFFFFFFFFFFFFFFFFF MUL NOT AND SWAP1 DUP4 PUSH20 0xFFFFFFFFFFFFFFFFFFFFFFFFFFFFFFFFFFFFFFFF AND MUL OR SWAP1 SSTORE POP DUP2 PUSH20 0xFFFFFFFFFFFFFFFFFFFFFFFFFFFFFFFFFFFFFFFF AND DUP2 PUSH20 0xFFFFFFFFFFFFFFFFFFFFFFFFFFFFFFFFFFFFFFFF AND PUSH32 0x8BE0079C531659141344CD1FD0A4F28419497F9722A3DAAFE3B4186F6B6457E0 PUSH1 0x40 MLOAD PUSH1 0x40 MLOAD DUP1 SWAP2 SUB SWAP1 LOG3 POP POP JUMP JUMPDEST PUSH1 0xC8 PUSH1 0x3 DUP2 SWAP1 SSTORE POP PUSH2 0x5DC PUSH1 0x1 DUP2 SWAP1 SSTORE POP PUSH1 0x64 PUSH1 0x4 DUP2 SWAP1 SSTORE POP PUSH3 0x93A80 PUSH1 0x2 DUP2 SWAP1 SSTORE POP PUSH3 0x76A700 PUSH1 0x5 DUP2 SWAP1 SSTORE POP JUMP JUMPDEST PUSH1 0x0 DUP2 MLOAD SWAP1 POP PUSH3 0x1BB DUP2 PUSH3 0x22C JUMP JUMPDEST SWAP3 SWAP2 POP POP JUMP JUMPDEST PUSH1 0x0 PUSH1 0x20 DUP3 DUP5 SUB SLT ISZERO PUSH3 0x1DA JUMPI PUSH3 0x1D9 PUSH3 0x227 JUMP JUMPDEST JUMPDEST PUSH1 0x0 PUSH3 0x1EA DUP5 DUP3 DUP6 ADD PUSH3 0x1AA JUMP JUMPDEST SWAP2 POP POP SWAP3 SWAP2 POP POP JUMP JUMPDEST PUSH1 0x0 PUSH3 0x200 DUP3 PUSH3 0x207 JUMP JUMPDEST SWAP1 POP SWAP2 SWAP1 POP JUMP JUMPDEST PUSH1 0x0 PUSH20 0xFFFFFFFFFFFFFFFFFFFFFFFFFFFFFFFFFFFFFFFF DUP3 AND SWAP1 POP SWAP2 SWAP1 POP JUMP JUMPDEST PUSH1 0x0 DUP1 REVERT JUMPDEST PUSH3 0x237 DUP2 PUSH3 0x1F3 JUMP JUMPDEST DUP2 EQ PUSH3 0x243 JUMPI PUSH1 0x0 DUP1 REVERT JUMPDEST POP JUMP JUMPDEST PUSH2 0x2865 DUP1 PUSH3 0x256 PUSH1 0x0 CODECOPY PUSH1 0x0 RETURN INVALID PUSH1 0x80 PUSH1 0x40 MSTORE CALLVALUE DUP1 ISZERO PUSH2 0x10 JUMPI PUSH1 0x0 DUP1 REVERT JUMPDEST POP PUSH1 0x4 CALLDATASIZE LT PUSH2 0x121 JUMPI PUSH1 0x0 CALLDATALOAD PUSH1 0xE0 SHR DUP1 PUSH4 0x715018A6 GT PUSH2 0xAD JUMPI DUP1 PUSH4 0x9E447FC6 GT PUSH2 0x71 JUMPI DUP1 PUSH4 0x9E447FC6 EQ PUSH2 0x298 JUMPI DUP1 PUSH4 0xA694FC3A EQ PUSH2 0x2B4 JUMPI DUP1 PUSH4 0xF2FDE38B EQ PUSH2 0x2D0 JUMPI DUP1 PUSH4 0xF7B2A7BE EQ PUSH2 0x2EC JUMPI DUP1 PUSH4 0xFC0C546A EQ PUSH2 0x30A JUMPI PUSH2 0x121 JUMP JUMPDEST DUP1 PUSH4 0x715018A6 EQ PUSH2 0x218 JUMPI DUP1 PUSH4 0x7E1A3786 EQ PUSH2 0x222 JUMPI DUP1 PUSH4 0x817B1CD2 EQ PUSH2 0x240 JUMPI DUP1 PUSH4 0x8DA5CB5B EQ PUSH2 0x25E JUMPI DUP1 PUSH4 0x91E07E7A EQ PUSH2 0x27C JUMPI PUSH2 0x121 JUMP JUMPDEST DUP1 PUSH4 0x4B62B70B GT PUSH2 0xF4 JUMPI DUP1 PUSH4 0x4B62B70B EQ PUSH2 0x188 JUMPI DUP1 PUSH4 0x4B77DD9E EQ PUSH2 0x1A4 JUMPI DUP1 PUSH4 0x5715EC11 EQ PUSH2 0x1C0 JUMPI DUP1 PUSH4 0x5D2EC65D EQ PUSH2 0x1DE JUMPI DUP1 PUSH4 0x692642E7 EQ PUSH2 0x1FC JUMPI PUSH2 0x121 JUMP JUMPDEST DUP1 PUSH4 0x917E776 EQ PUSH2 0x126 JUMPI DUP1 PUSH4 0x2E1A7D4D EQ PUSH2 0x144 JUMPI DUP1 PUSH4 0x373D6132 EQ PUSH2 0x160 JUMPI DUP1 PUSH4 0x4641257D EQ PUSH2 0x17E JUMPI JUMPDEST PUSH1 0x0 DUP1 REVERT JUMPDEST PUSH2 0x12E PUSH2 0x328 JUMP JUMPDEST PUSH1 0x40 MLOAD PUSH2 0x13B SWAP2 SWAP1 PUSH2 0x2259 JUMP JUMPDEST PUSH1 0x40 MLOAD DUP1 SWAP2 SUB SWAP1 RETURN JUMPDEST PUSH2 0x15E PUSH1 0x4 DUP1 CALLDATASIZE SUB DUP2 ADD SWAP1 PUSH2 0x159 SWAP2 SWAP1 PUSH2 0x1C6C JUMP JUMPDEST PUSH2 0x332 JUMP JUMPDEST STOP JUMPDEST PUSH2 0x168 PUSH2 0x701 JUMP JUMPDEST PUSH1 0x40 MLOAD PUSH2 0x175 SWAP2 SWAP1 PUSH2 0x2259 JUMP JUMPDEST PUSH1 0x40 MLOAD DUP1 SWAP2 SUB SWAP1 RETURN JUMPDEST PUSH2 0x186 PUSH2 0x74B JUMP JUMPDEST STOP JUMPDEST PUSH2 0x1A2 PUSH1 0x4 DUP1 CALLDATASIZE SUB DUP2 ADD SWAP1 PUSH2 0x19D SWAP2 SWAP1 PUSH2 0x1C6C JUMP JUMPDEST PUSH2 0xA14 JUMP JUMPDEST STOP JUMPDEST PUSH2 0x1BE PUSH1 0x4 DUP1 CALLDATASIZE SUB DUP2 ADD SWAP1 PUSH2 0x1B9 SWAP2 SWAP1 PUSH2 0x1CC6 JUMP JUMPDEST PUSH2 0xADD JUMP JUMPDEST STOP JUMPDEST PUSH2 0x1C8 PUSH2 0xDD8 JUMP JUMPDEST PUSH1 0x40 MLOAD PUSH2 0x1D5 SWAP2 SWAP1 PUSH2 0x2259 JUMP JUMPDEST PUSH1 0x40 MLOAD DUP1 SWAP2 SUB SWAP1 RETURN JUMPDEST PUSH2 0x1E6 PUSH2 0xDE5 JUMP JUMPDEST PUSH1 0x40 MLOAD PUSH2 0x1F3 SWAP2 SWAP1 PUSH2 0x2259 JUMP JUMPDEST PUSH1 0x40 MLOAD DUP1 SWAP2 SUB SWAP1 RETURN JUMPDEST PUSH2 0x216 PUSH1 0x4 DUP1 CALLDATASIZE SUB DUP2 ADD SWAP1 PUSH2 0x211 SWAP2 SWAP1 PUSH2 0x1C6C JUMP JUMPDEST PUSH2 0xE2F JUMP JUMPDEST STOP JUMPDEST PUSH2 0x220 PUSH2 0xF44 JUMP JUMPDEST STOP JUMPDEST PUSH2 0x22A PUSH2 0xFCC JUMP JUMPDEST PUSH1 0x40 MLOAD PUSH2 0x237 SWAP2 SWAP1 PUSH2 0x2259 JUMP JUMPDEST PUSH1 0x40 MLOAD DUP1 SWAP2 SUB SWAP1 RETURN JUMPDEST PUSH2 0x248 PUSH2 0xFD6 JUMP JUMPDEST PUSH1 0x40 MLOAD PUSH2 0x255 SWAP2 SWAP1 PUSH2 0x2259 JUMP JUMPDEST PUSH1 0x40 MLOAD DUP1 SWAP2 SUB SWAP1 RETURN JUMPDEST PUSH2 0x266 PUSH2 0xFDC JUMP JUMPDEST PUSH1 0x40 MLOAD PUSH2 0x273 SWAP2 SWAP1 PUSH2 0x1FC1 JUMP JUMPDEST PUSH1 0x40 MLOAD DUP1 SWAP2 SUB SWAP1 RETURN JUMPDEST PUSH2 0x296 PUSH1 0x4 DUP1 CALLDATASIZE SUB DUP2 ADD SWAP1 PUSH2 0x291 SWAP2 SWAP1 PUSH2 0x1C6C JUMP JUMPDEST PUSH2 0x1005 JUMP JUMPDEST STOP JUMPDEST PUSH2 0x2B2 PUSH1 0x4 DUP1 CALLDATASIZE SUB DUP2 ADD SWAP1 PUSH2 0x2AD SWAP2 SWAP1 PUSH2 0x1C6C JUMP JUMPDEST PUSH2 0x1105 JUMP JUMPDEST STOP JUMPDEST PUSH2 0x2CE PUSH1 0x4 DUP1 CALLDATASIZE SUB DUP2 ADD SWAP1 PUSH2 0x2C9 SWAP2 SWAP1 PUSH2 0x1C6C JUMP JUMPDEST PUSH2 0x1205 JUMP JUMPDEST STOP JUMPDEST PUSH2 0x2EA PUSH1 0x4 DUP1 CALLDATASIZE SUB DUP2 ADD SWAP1 PUSH2 0x2E5 SWAP2 SWAP1 PUSH2 0x1C12 JUMP JUMPDEST PUSH2 0x14CA JUMP JUMPDEST STOP JUMPDEST PUSH2 0x2F4 PUSH2 0x15C2 JUMP JUMPDEST PUSH1 0x40 MLOAD PUSH2 0x301 SWAP2 SWAP1 PUSH2 0x2259 JUMP JUMPDEST PUSH1 0x40 MLOAD DUP1 SWAP2 SUB SWAP1 RETURN JUMPDEST PUSH2 0x312 PUSH2 0x160C JUMP JUMPDEST PUSH1 0x40 MLOAD PUSH2 0x31F SWAP2 SWAP1 PUSH2 0x203C JUMP JUMPDEST PUSH1 0x40 MLOAD DUP1 SWAP2 SUB SWAP1 RETURN JUMPDEST PUSH1 0x0 PUSH1 0x8 SLOAD SWAP1 POP SWAP1 JUMP JUMPDEST PUSH1 0x0 PUSH1 0x7 PUSH1 0x0 CALLER PUSH20 0xFFFFFFFFFFFFFFFFFFFFFFFFFFFFFFFFFFFFFFFF AND PUSH20 0xFFFFFFFFFFFFFFFFFFFFFFFFFFFFFFFFFFFFFFFF AND DUP2 MSTORE PUSH1 0x20 ADD SWAP1 DUP2 MSTORE PUSH1 0x20 ADD PUSH1 0x0 KECCAK256 SWAP1 POP PUSH1 0x0 DUP3 GT PUSH2 0x3B8 JUMPI PUSH1 0x40 MLOAD PUSH32 0x8C379A000000000000000000000000000000000000000000000000000000000 DUP2 MSTORE PUSH1 0x4 ADD PUSH2 0x3AF SWAP1 PUSH2 0x2159 JUMP JUMPDEST PUSH1 0x40 MLOAD DUP1 SWAP2 SUB SWAP1 REVERT JUMPDEST DUP1 PUSH1 0x1 ADD SLOAD DUP3 GT ISZERO PUSH2 0x3FF JUMPI PUSH1 0x40 MLOAD PUSH32 0x8C379A000000000000000000000000000000000000000000000000000000000 DUP2 MSTORE PUSH1 0x4 ADD PUSH2 0x3F6 SWAP1 PUSH2 0x20F9 JUMP JUMPDEST PUSH1 0x40 MLOAD DUP1 SWAP2 SUB SWAP1 REVERT JUMPDEST PUSH2 0x407 PUSH2 0x1632 JUMP JUMPDEST PUSH1 0x0 PUSH1 0x9 PUSH1 0x0 SWAP1 SLOAD SWAP1 PUSH2 0x100 EXP SWAP1 DIV PUSH20 0xFFFFFFFFFFFFFFFFFFFFFFFFFFFFFFFFFFFFFFFF AND PUSH20 0xFFFFFFFFFFFFFFFFFFFFFFFFFFFFFFFFFFFFFFFF AND PUSH4 0x70A08231 ADDRESS PUSH1 0x40 MLOAD DUP3 PUSH4 0xFFFFFFFF AND PUSH1 0xE0 SHL DUP2 MSTORE PUSH1 0x4 ADD PUSH2 0x464 SWAP2 SWAP1 PUSH2 0x1FC1 JUMP JUMPDEST PUSH1 0x20 PUSH1 0x40 MLOAD DUP1 DUP4 SUB DUP2 DUP7 DUP1 EXTCODESIZE ISZERO DUP1 ISZERO PUSH2 0x47C JUMPI PUSH1 0x0 DUP1 REVERT JUMPDEST POP GAS STATICCALL ISZERO DUP1 ISZERO PUSH2 0x490 JUMPI RETURNDATASIZE PUSH1 0x0 DUP1 RETURNDATACOPY RETURNDATASIZE PUSH1 0x0 REVERT JUMPDEST POP POP POP POP PUSH1 0x40 MLOAD RETURNDATASIZE PUSH1 0x1F NOT PUSH1 0x1F DUP3 ADD AND DUP3 ADD DUP1 PUSH1 0x40 MSTORE POP DUP2 ADD SWAP1 PUSH2 0x4B4 SWAP2 SWAP1 PUSH2 0x1C99 JUMP JUMPDEST DUP4 LT PUSH2 0x56A JUMPI PUSH1 0x9 PUSH1 0x0 SWAP1 SLOAD SWAP1 PUSH2 0x100 EXP SWAP1 DIV PUSH20 0xFFFFFFFFFFFFFFFFFFFFFFFFFFFFFFFFFFFFFFFF AND PUSH20 0xFFFFFFFFFFFFFFFFFFFFFFFFFFFFFFFFFFFFFFFF AND PUSH4 0x70A08231 ADDRESS PUSH1 0x40 MLOAD DUP3 PUSH4 0xFFFFFFFF AND PUSH1 0xE0 SHL DUP2 MSTORE PUSH1 0x4 ADD PUSH2 0x515 SWAP2 SWAP1 PUSH2 0x1FC1 JUMP JUMPDEST PUSH1 0x20 PUSH1 0x40 MLOAD DUP1 DUP4 SUB DUP2 DUP7 DUP1 EXTCODESIZE ISZERO DUP1 ISZERO PUSH2 0x52D JUMPI PUSH1 0x0 DUP1 REVERT JUMPDEST POP GAS STATICCALL ISZERO DUP1 ISZERO PUSH2 0x541 JUMPI RETURNDATASIZE PUSH1 0x0 DUP1 RETURNDATACOPY RETURNDATASIZE PUSH1 0x0 REVERT JUMPDEST POP POP POP POP PUSH1 0x40 MLOAD RETURNDATASIZE PUSH1 0x1F NOT PUSH1 0x1F DUP3 ADD AND DUP3 ADD DUP1 PUSH1 0x40 MSTORE POP DUP2 ADD SWAP1 PUSH2 0x565 SWAP2 SWAP1 PUSH2 0x1C99 JUMP JUMPDEST PUSH2 0x56C JUMP JUMPDEST DUP3 JUMPDEST SWAP1 POP PUSH1 0x0 PUSH2 0x59C PUSH3 0x15180 PUSH2 0x58E DUP6 PUSH1 0x3 ADD SLOAD TIMESTAMP PUSH2 0x170E SWAP1 SWAP2 SWAP1 PUSH4 0xFFFFFFFF AND JUMP JUMPDEST PUSH2 0x1724 SWAP1 SWAP2 SWAP1 PUSH4 0xFFFFFFFF AND JUMP JUMPDEST SWAP1 POP PUSH1 0x0 PUSH1 0x64 SWAP1 POP PUSH1 0x0 PUSH1 0x1 DUP6 PUSH1 0x2 ADD SLOAD EQ PUSH2 0x5D3 JUMPI PUSH2 0x5CB PUSH1 0x5 SLOAD DUP7 PUSH1 0x3 ADD SLOAD PUSH2 0x173A SWAP1 SWAP2 SWAP1 PUSH4 0xFFFFFFFF AND JUMP JUMPDEST TIMESTAMP LT ISZERO PUSH2 0x5F1 JUMP JUMPDEST PUSH1 0x0 PUSH1 0x2 SLOAD DUP5 PUSH2 0x5E3 SWAP2 SWAP1 PUSH2 0x246C JUMP JUMPDEST EQ DUP1 ISZERO PUSH2 0x5F0 JUMPI POP PUSH1 0x0 DUP4 GT JUMPDEST JUMPDEST SWAP1 POP DUP1 PUSH2 0x5FE JUMPI PUSH1 0x1 SLOAD SWAP2 POP JUMPDEST PUSH2 0x637 PUSH2 0x628 PUSH2 0x2710 PUSH2 0x61A DUP6 DUP9 PUSH2 0x1750 SWAP1 SWAP2 SWAP1 PUSH4 0xFFFFFFFF AND JUMP JUMPDEST PUSH2 0x1724 SWAP1 SWAP2 SWAP1 PUSH4 0xFFFFFFFF AND JUMP JUMPDEST DUP6 PUSH2 0x170E SWAP1 SWAP2 SWAP1 PUSH4 0xFFFFFFFF AND JUMP JUMPDEST SWAP4 POP PUSH2 0x64E DUP5 PUSH1 0x8 SLOAD PUSH2 0x170E SWAP1 SWAP2 SWAP1 PUSH4 0xFFFFFFFF AND JUMP JUMPDEST PUSH1 0x8 DUP2 SWAP1 SSTORE POP PUSH2 0x66B DUP5 DUP7 PUSH1 0x1 ADD SLOAD PUSH2 0x170E SWAP1 SWAP2 SWAP1 PUSH4 0xFFFFFFFF AND JUMP JUMPDEST DUP6 PUSH1 0x1 ADD DUP2 SWAP1 SSTORE POP PUSH2 0x6C0 CALLER DUP6 PUSH1 0x9 PUSH1 0x0 SWAP1 SLOAD SWAP1 PUSH2 0x100 EXP SWAP1 DIV PUSH20 0xFFFFFFFFFFFFFFFFFFFFFFFFFFFFFFFFFFFFFFFF AND PUSH20 0xFFFFFFFFFFFFFFFFFFFFFFFFFFFFFFFFFFFFFFFF AND PUSH2 0x1766 SWAP1 SWAP3 SWAP2 SWAP1 PUSH4 0xFFFFFFFF AND JUMP JUMPDEST PUSH32 0x884EDAD9CE6FA2440D8A54CC123490EB96D2768479D49FF9C7366125A9424364 CALLER DUP6 PUSH1 0x40 MLOAD PUSH2 0x6F1 SWAP3 SWAP2 SWAP1 PUSH2 0x2013 JUMP JUMPDEST PUSH1 0x40 MLOAD DUP1 SWAP2 SUB SWAP1 LOG1 POP POP POP POP POP POP JUMP JUMPDEST PUSH1 0x0 PUSH1 0x7 PUSH1 0x0 CALLER PUSH20 0xFFFFFFFFFFFFFFFFFFFFFFFFFFFFFFFFFFFFFFFF AND PUSH20 0xFFFFFFFFFFFFFFFFFFFFFFFFFFFFFFFFFFFFFFFF AND DUP2 MSTORE PUSH1 0x20 ADD SWAP1 DUP2 MSTORE PUSH1 0x20 ADD PUSH1 0x0 KECCAK256 PUSH1 0x1 ADD SLOAD SWAP1 POP SWAP1 JUMP JUMPDEST PUSH2 0x753 PUSH2 0x1632 JUMP JUMPDEST PUSH1 0x0 PUSH1 0x7 PUSH1 0x0 CALLER PUSH20 0xFFFFFFFFFFFFFFFFFFFFFFFFFFFFFFFFFFFFFFFF AND PUSH20 0xFFFFFFFFFFFFFFFFFFFFFFFFFFFFFFFFFFFFFFFF AND DUP2 MSTORE PUSH1 0x20 ADD SWAP1 DUP2 MSTORE PUSH1 0x20 ADD PUSH1 0x0 KECCAK256 SWAP1 POP PUSH1 0x0 PUSH2 0x7DB PUSH2 0x7C8 PUSH2 0x2710 PUSH2 0x7BA PUSH1 0x4 SLOAD DUP7 PUSH1 0x0 ADD SLOAD PUSH2 0x1750 SWAP1 SWAP2 SWAP1 PUSH4 0xFFFFFFFF AND JUMP JUMPDEST PUSH2 0x1724 SWAP1 SWAP2 SWAP1 PUSH4 0xFFFFFFFF AND JUMP JUMPDEST DUP4 PUSH1 0x0 ADD SLOAD PUSH2 0x170E SWAP1 SWAP2 SWAP1 PUSH4 0xFFFFFFFF AND JUMP JUMPDEST SWAP1 POP PUSH1 0x0 DUP2 GT PUSH2 0x820 JUMPI PUSH1 0x40 MLOAD PUSH32 0x8C379A000000000000000000000000000000000000000000000000000000000 DUP2 MSTORE PUSH1 0x4 ADD PUSH2 0x817 SWAP1 PUSH2 0x2079 JUMP JUMPDEST PUSH1 0x40 MLOAD DUP1 SWAP2 SUB SWAP1 REVERT JUMPDEST PUSH1 0x9 PUSH1 0x0 SWAP1 SLOAD SWAP1 PUSH2 0x100 EXP SWAP1 DIV PUSH20 0xFFFFFFFFFFFFFFFFFFFFFFFFFFFFFFFFFFFFFFFF AND PUSH20 0xFFFFFFFFFFFFFFFFFFFFFFFFFFFFFFFFFFFFFFFF AND PUSH4 0x70A08231 ADDRESS PUSH1 0x40 MLOAD DUP3 PUSH4 0xFFFFFFFF AND PUSH1 0xE0 SHL DUP2 MSTORE PUSH1 0x4 ADD PUSH2 0x87B SWAP2 SWAP1 PUSH2 0x1FC1 JUMP JUMPDEST PUSH1 0x20 PUSH1 0x40 MLOAD DUP1 DUP4 SUB DUP2 DUP7 DUP1 EXTCODESIZE ISZERO DUP1 ISZERO PUSH2 0x893 JUMPI PUSH1 0x0 DUP1 REVERT JUMPDEST POP GAS STATICCALL ISZERO DUP1 ISZERO PUSH2 0x8A7 JUMPI RETURNDATASIZE PUSH1 0x0 DUP1 RETURNDATACOPY RETURNDATASIZE PUSH1 0x0 REVERT JUMPDEST POP POP POP POP PUSH1 0x40 MLOAD RETURNDATASIZE PUSH1 0x1F NOT PUSH1 0x1F DUP3 ADD AND DUP3 ADD DUP1 PUSH1 0x40 MSTORE POP DUP2 ADD SWAP1 PUSH2 0x8CB SWAP2 SWAP1 PUSH2 0x1C99 JUMP JUMPDEST DUP2 GT ISZERO PUSH2 0x980 JUMPI PUSH1 0x9 PUSH1 0x0 SWAP1 SLOAD SWAP1 PUSH2 0x100 EXP SWAP1 DIV PUSH20 0xFFFFFFFFFFFFFFFFFFFFFFFFFFFFFFFFFFFFFFFF AND PUSH20 0xFFFFFFFFFFFFFFFFFFFFFFFFFFFFFFFFFFFFFFFF AND PUSH4 0x70A08231 ADDRESS PUSH1 0x40 MLOAD DUP3 PUSH4 0xFFFFFFFF AND PUSH1 0xE0 SHL DUP2 MSTORE PUSH1 0x4 ADD PUSH2 0x92D SWAP2 SWAP1 PUSH2 0x1FC1 JUMP JUMPDEST PUSH1 0x20 PUSH1 0x40 MLOAD DUP1 DUP4 SUB DUP2 DUP7 DUP1 EXTCODESIZE ISZERO DUP1 ISZERO PUSH2 0x945 JUMPI PUSH1 0x0 DUP1 REVERT JUMPDEST POP GAS STATICCALL ISZERO DUP1 ISZERO PUSH2 0x959 JUMPI RETURNDATASIZE PUSH1 0x0 DUP1 RETURNDATACOPY RETURNDATASIZE PUSH1 0x0 REVERT JUMPDEST POP POP POP POP PUSH1 0x40 MLOAD RETURNDATASIZE PUSH1 0x1F NOT PUSH1 0x1F DUP3 ADD AND DUP3 ADD DUP1 PUSH1 0x40 MSTORE POP DUP2 ADD SWAP1 PUSH2 0x97D SWAP2 SWAP1 PUSH2 0x1C99 JUMP JUMPDEST SWAP1 POP JUMPDEST PUSH2 0x9CD CALLER DUP3 PUSH1 0x9 PUSH1 0x0 SWAP1 SLOAD SWAP1 PUSH2 0x100 EXP SWAP1 DIV PUSH20 0xFFFFFFFFFFFFFFFFFFFFFFFFFFFFFFFFFFFFFFFF AND PUSH20 0xFFFFFFFFFFFFFFFFFFFFFFFFFFFFFFFFFFFFFFFF AND PUSH2 0x1766 SWAP1 SWAP3 SWAP2 SWAP1 PUSH4 0xFFFFFFFF AND JUMP JUMPDEST PUSH1 0x0 DUP3 PUSH1 0x0 ADD DUP2 SWAP1 SSTORE POP PUSH32 0xC9695243A805ADB74C91F28311176C65B417E842D5699893CEF56D18BFA48CBA CALLER DUP3 PUSH1 0x40 MLOAD PUSH2 0xA08 SWAP3 SWAP2 SWAP1 PUSH2 0x2013 JUMP JUMPDEST PUSH1 0x40 MLOAD DUP1 SWAP2 SUB SWAP1 LOG1 POP POP JUMP JUMPDEST PUSH2 0xA1C PUSH2 0x17EC JUMP JUMPDEST PUSH20 0xFFFFFFFFFFFFFFFFFFFFFFFFFFFFFFFFFFFFFFFF AND PUSH2 0xA3A PUSH2 0xFDC JUMP JUMPDEST PUSH20 0xFFFFFFFFFFFFFFFFFFFFFFFFFFFFFFFFFFFFFFFF AND EQ PUSH2 0xA90 JUMPI PUSH1 0x40 MLOAD PUSH32 0x8C379A000000000000000000000000000000000000000000000000000000000 DUP2 MSTORE PUSH1 0x4 ADD PUSH2 0xA87 SWAP1 PUSH2 0x2179 JUMP JUMPDEST PUSH1 0x40 MLOAD DUP1 SWAP2 SUB SWAP1 REVERT JUMPDEST PUSH1 0x0 DUP2 GT PUSH2 0xAD3 JUMPI PUSH1 0x40 MLOAD PUSH32 0x8C379A000000000000000000000000000000000000000000000000000000000 DUP2 MSTORE PUSH1 0x4 ADD PUSH2 0xACA SWAP1 PUSH2 0x2219 JUMP JUMPDEST PUSH1 0x40 MLOAD DUP1 SWAP2 SUB SWAP1 REVERT JUMPDEST DUP1 PUSH1 0x5 DUP2 SWAP1 SSTORE POP POP JUMP JUMPDEST PUSH1 0x0 DUP3 GT PUSH2 0xB20 JUMPI PUSH1 0x40 MLOAD PUSH32 0x8C379A000000000000000000000000000000000000000000000000000000000 DUP2 MSTORE PUSH1 0x4 ADD PUSH2 0xB17 SWAP1 PUSH2 0x2159 JUMP JUMPDEST PUSH1 0x40 MLOAD DUP1 SWAP2 SUB SWAP1 REVERT JUMPDEST DUP2 PUSH1 0x9 PUSH1 0x0 SWAP1 SLOAD SWAP1 PUSH2 0x100 EXP SWAP1 DIV PUSH20 0xFFFFFFFFFFFFFFFFFFFFFFFFFFFFFFFFFFFFFFFF AND PUSH20 0xFFFFFFFFFFFFFFFFFFFFFFFFFFFFFFFFFFFFFFFF AND PUSH4 0x70A08231 CALLER PUSH1 0x40 MLOAD DUP3 PUSH4 0xFFFFFFFF AND PUSH1 0xE0 SHL DUP2 MSTORE PUSH1 0x4 ADD PUSH2 0xB7C SWAP2 SWAP1 PUSH2 0x1FC1 JUMP JUMPDEST PUSH1 0x20 PUSH1 0x40 MLOAD DUP1 DUP4 SUB DUP2 DUP7 DUP1 EXTCODESIZE ISZERO DUP1 ISZERO PUSH2 0xB94 JUMPI PUSH1 0x0 DUP1 REVERT JUMPDEST POP GAS STATICCALL ISZERO DUP1 ISZERO PUSH2 0xBA8 JUMPI RETURNDATASIZE PUSH1 0x0 DUP1 RETURNDATACOPY RETURNDATASIZE PUSH1 0x0 REVERT JUMPDEST POP POP POP POP PUSH1 0x40 MLOAD RETURNDATASIZE PUSH1 0x1F NOT PUSH1 0x1F DUP3 ADD AND DUP3 ADD DUP1 PUSH1 0x40 MSTORE POP DUP2 ADD SWAP1 PUSH2 0xBCC SWAP2 SWAP1 PUSH2 0x1C99 JUMP JUMPDEST GT PUSH2 0xC0C JUMPI PUSH1 0x40 MLOAD PUSH32 0x8C379A000000000000000000000000000000000000000000000000000000000 DUP2 MSTORE PUSH1 0x4 ADD PUSH2 0xC03 SWAP1 PUSH2 0x2239 JUMP JUMPDEST PUSH1 0x40 MLOAD DUP1 SWAP2 SUB SWAP1 REVERT JUMPDEST PUSH1 0x55 PUSH1 0x7 PUSH1 0x0 CALLER PUSH20 0xFFFFFFFFFFFFFFFFFFFFFFFFFFFFFFFFFFFFFFFF AND PUSH20 0xFFFFFFFFFFFFFFFFFFFFFFFFFFFFFFFFFFFFFFFF AND DUP2 MSTORE PUSH1 0x20 ADD SWAP1 DUP2 MSTORE PUSH1 0x20 ADD PUSH1 0x0 KECCAK256 PUSH1 0x5 ADD SLOAD EQ ISZERO PUSH2 0xC92 JUMPI PUSH1 0x40 MLOAD PUSH32 0x8C379A000000000000000000000000000000000000000000000000000000000 DUP2 MSTORE PUSH1 0x4 ADD PUSH2 0xC89 SWAP1 PUSH2 0x2119 JUMP JUMPDEST PUSH1 0x40 MLOAD DUP1 SWAP2 SUB SWAP1 REVERT JUMPDEST DUP1 PUSH1 0x7 PUSH1 0x0 CALLER PUSH20 0xFFFFFFFFFFFFFFFFFFFFFFFFFFFFFFFFFFFFFFFF AND PUSH20 0xFFFFFFFFFFFFFFFFFFFFFFFFFFFFFFFFFFFFFFFF AND DUP2 MSTORE PUSH1 0x20 ADD SWAP1 DUP2 MSTORE PUSH1 0x20 ADD PUSH1 0x0 KECCAK256 PUSH1 0x2 ADD DUP2 SWAP1 SSTORE POP TIMESTAMP PUSH1 0x7 PUSH1 0x0 CALLER PUSH20 0xFFFFFFFFFFFFFFFFFFFFFFFFFFFFFFFFFFFFFFFF AND PUSH20 0xFFFFFFFFFFFFFFFFFFFFFFFFFFFFFFFFFFFFFFFF AND DUP2 MSTORE PUSH1 0x20 ADD SWAP1 DUP2 MSTORE PUSH1 0x20 ADD PUSH1 0x0 KECCAK256 PUSH1 0x3 ADD DUP2 SWAP1 SSTORE POP PUSH1 0x55 PUSH1 0x7 PUSH1 0x0 CALLER PUSH20 0xFFFFFFFFFFFFFFFFFFFFFFFFFFFFFFFFFFFFFFFF AND PUSH20 0xFFFFFFFFFFFFFFFFFFFFFFFFFFFFFFFFFFFFFFFF AND DUP2 MSTORE PUSH1 0x20 ADD SWAP1 DUP2 MSTORE PUSH1 0x20 ADD PUSH1 0x0 KECCAK256 PUSH1 0x5 ADD DUP2 SWAP1 SSTORE POP PUSH1 0x6 CALLER SWAP1 DUP1 PUSH1 0x1 DUP2 SLOAD ADD DUP1 DUP3 SSTORE DUP1 SWAP2 POP POP PUSH1 0x1 SWAP1 SUB SWAP1 PUSH1 0x0 MSTORE PUSH1 0x20 PUSH1 0x0 KECCAK256 ADD PUSH1 0x0 SWAP1 SWAP2 SWAP1 SWAP2 SWAP1 SWAP2 PUSH2 0x100 EXP DUP2 SLOAD DUP2 PUSH20 0xFFFFFFFFFFFFFFFFFFFFFFFFFFFFFFFFFFFFFFFF MUL NOT AND SWAP1 DUP4 PUSH20 0xFFFFFFFFFFFFFFFFFFFFFFFFFFFFFFFFFFFFFFFF AND MUL OR SWAP1 SSTORE POP PUSH2 0xDD4 DUP3 PUSH2 0x1205 JUMP JUMPDEST POP POP JUMP JUMPDEST PUSH1 0x0 PUSH1 0x6 DUP1 SLOAD SWAP1 POP SWAP1 POP SWAP1 JUMP JUMPDEST PUSH1 0x0 PUSH1 0x7 PUSH1 0x0 CALLER PUSH20 0xFFFFFFFFFFFFFFFFFFFFFFFFFFFFFFFFFFFFFFFF AND PUSH20 0xFFFFFFFFFFFFFFFFFFFFFFFFFFFFFFFFFFFFFFFF AND DUP2 MSTORE PUSH1 0x20 ADD SWAP1 DUP2 MSTORE PUSH1 0x20 ADD PUSH1 0x0 KECCAK256 PUSH1 0x0 ADD SLOAD SWAP1 POP SWAP1 JUMP JUMPDEST PUSH2 0xE37 PUSH2 0x17EC JUMP JUMPDEST PUSH20 0xFFFFFFFFFFFFFFFFFFFFFFFFFFFFFFFFFFFFFFFF AND PUSH2 0xE55 PUSH2 0xFDC JUMP JUMPDEST PUSH20 0xFFFFFFFFFFFFFFFFFFFFFFFFFFFFFFFFFFFFFFFF AND EQ PUSH2 0xEAB JUMPI PUSH1 0x40 MLOAD PUSH32 0x8C379A000000000000000000000000000000000000000000000000000000000 DUP2 MSTORE PUSH1 0x4 ADD PUSH2 0xEA2 SWAP1 PUSH2 0x2179 JUMP JUMPDEST PUSH1 0x40 MLOAD DUP1 SWAP2 SUB SWAP1 REVERT JUMPDEST PUSH1 0x0 DUP2 GT PUSH2 0xEEE JUMPI PUSH1 0x40 MLOAD PUSH32 0x8C379A000000000000000000000000000000000000000000000000000000000 DUP2 MSTORE PUSH1 0x4 ADD PUSH2 0xEE5 SWAP1 PUSH2 0x21F9 JUMP JUMPDEST PUSH1 0x40 MLOAD DUP1 SWAP2 SUB SWAP1 REVERT JUMPDEST PUSH2 0xF04 PUSH3 0x15180 DUP3 PUSH2 0x1750 SWAP1 SWAP2 SWAP1 PUSH4 0xFFFFFFFF AND JUMP JUMPDEST PUSH1 0x2 DUP2 SWAP1 SSTORE POP PUSH32 0x189BDA9782663C67A3F95C0AA5455924C711210B00281C60EAD2F0DD8DBC924C DUP2 PUSH1 0x40 MLOAD PUSH2 0xF39 SWAP2 SWAP1 PUSH2 0x2259 JUMP JUMPDEST PUSH1 0x40 MLOAD DUP1 SWAP2 SUB SWAP1 LOG1 POP JUMP JUMPDEST PUSH2 0xF4C PUSH2 0x17EC JUMP JUMPDEST PUSH20 0xFFFFFFFFFFFFFFFFFFFFFFFFFFFFFFFFFFFFFFFF AND PUSH2 0xF6A PUSH2 0xFDC JUMP JUMPDEST PUSH20 0xFFFFFFFFFFFFFFFFFFFFFFFFFFFFFFFFFFFFFFFF AND EQ PUSH2 0xFC0 JUMPI PUSH1 0x40 MLOAD PUSH32 0x8C379A000000000000000000000000000000000000000000000000000000000 DUP2 MSTORE PUSH1 0x4 ADD PUSH2 0xFB7 SWAP1 PUSH2 0x2179 JUMP JUMPDEST PUSH1 0x40 MLOAD DUP1 SWAP2 SUB SWAP1 REVERT JUMPDEST PUSH2 0xFCA PUSH1 0x0 PUSH2 0x17F4 JUMP JUMPDEST JUMP JUMPDEST PUSH1 0x0 PUSH1 0x3 SLOAD SWAP1 POP SWAP1 JUMP JUMPDEST PUSH1 0x8 SLOAD DUP2 JUMP JUMPDEST PUSH1 0x0 DUP1 PUSH1 0x0 SWAP1 SLOAD SWAP1 PUSH2 0x100 EXP SWAP1 DIV PUSH20 0xFFFFFFFFFFFFFFFFFFFFFFFFFFFFFFFFFFFFFFFF AND SWAP1 POP SWAP1 JUMP JUMPDEST PUSH2 0x100D PUSH2 0x17EC JUMP JUMPDEST PUSH20 0xFFFFFFFFFFFFFFFFFFFFFFFFFFFFFFFFFFFFFFFF AND PUSH2 0x102B PUSH2 0xFDC JUMP JUMPDEST PUSH20 0xFFFFFFFFFFFFFFFFFFFFFFFFFFFFFFFFFFFFFFFF AND EQ PUSH2 0x1081 JUMPI PUSH1 0x40 MLOAD PUSH32 0x8C379A000000000000000000000000000000000000000000000000000000000 DUP2 MSTORE PUSH1 0x4 ADD PUSH2 0x1078 SWAP1 PUSH2 0x2179 JUMP JUMPDEST PUSH1 0x40 MLOAD DUP1 SWAP2 SUB SWAP1 REVERT JUMPDEST PUSH1 0x0 DUP2 GT PUSH2 0x10C4 JUMPI PUSH1 0x40 MLOAD PUSH32 0x8C379A000000000000000000000000000000000000000000000000000000000 DUP2 MSTORE PUSH1 0x4 ADD PUSH2 0x10BB SWAP1 PUSH2 0x21D9 JUMP JUMPDEST PUSH1 0x40 MLOAD DUP1 SWAP2 SUB SWAP1 REVERT JUMPDEST DUP1 PUSH1 0x1 DUP2 SWAP1 SSTORE POP PUSH32 0x150C688DD7595BF7862B8AB1FE46756450EB7D731037942B3BBC46F3F0E21B81 DUP2 PUSH1 0x40 MLOAD PUSH2 0x10FA SWAP2 SWAP1 PUSH2 0x2259 JUMP JUMPDEST PUSH1 0x40 MLOAD DUP1 SWAP2 SUB SWAP1 LOG1 POP JUMP JUMPDEST PUSH2 0x110D PUSH2 0x17EC JUMP JUMPDEST PUSH20 0xFFFFFFFFFFFFFFFFFFFFFFFFFFFFFFFFFFFFFFFF AND PUSH2 0x112B PUSH2 0xFDC JUMP JUMPDEST PUSH20 0xFFFFFFFFFFFFFFFFFFFFFFFFFFFFFFFFFFFFFFFF AND EQ PUSH2 0x1181 JUMPI PUSH1 0x40 MLOAD PUSH32 0x8C379A000000000000000000000000000000000000000000000000000000000 DUP2 MSTORE PUSH1 0x4 ADD PUSH2 0x1178 SWAP1 PUSH2 0x2179 JUMP JUMPDEST PUSH1 0x40 MLOAD DUP1 SWAP2 SUB SWAP1 REVERT JUMPDEST PUSH1 0x0 DUP2 GT PUSH2 0x11C4 JUMPI PUSH1 0x40 MLOAD PUSH32 0x8C379A000000000000000000000000000000000000000000000000000000000 DUP2 MSTORE PUSH1 0x4 ADD PUSH2 0x11BB SWAP1 PUSH2 0x2199 JUMP JUMPDEST PUSH1 0x40 MLOAD DUP1 SWAP2 SUB SWAP1 REVERT JUMPDEST DUP1 PUSH1 0x3 DUP2 SWAP1 SSTORE POP PUSH32 0x1946FB78C7CA778B54D82CABAAC5BA67CF446F58D0FF1F8CEAEBB6150E54E44F DUP2 PUSH1 0x40 MLOAD PUSH2 0x11FA SWAP2 SWAP1 PUSH2 0x2259 JUMP JUMPDEST PUSH1 0x40 MLOAD DUP1 SWAP2 SUB SWAP1 LOG1 POP JUMP JUMPDEST PUSH1 0x0 DUP2 GT PUSH2 0x1248 JUMPI PUSH1 0x40 MLOAD PUSH32 0x8C379A000000000000000000000000000000000000000000000000000000000 DUP2 MSTORE PUSH1 0x4 ADD PUSH2 0x123F SWAP1 PUSH2 0x2159 JUMP JUMPDEST PUSH1 0x40 MLOAD DUP1 SWAP2 SUB SWAP1 REVERT JUMPDEST DUP1 PUSH1 0x9 PUSH1 0x0 SWAP1 SLOAD SWAP1 PUSH2 0x100 EXP SWAP1 DIV PUSH20 0xFFFFFFFFFFFFFFFFFFFFFFFFFFFFFFFFFFFFFFFF AND PUSH20 0xFFFFFFFFFFFFFFFFFFFFFFFFFFFFFFFFFFFFFFFF AND PUSH4 0x70A08231 CALLER PUSH1 0x40 MLOAD DUP3 PUSH4 0xFFFFFFFF AND PUSH1 0xE0 SHL DUP2 MSTORE PUSH1 0x4 ADD PUSH2 0x12A4 SWAP2 SWAP1 PUSH2 0x1FC1 JUMP JUMPDEST PUSH1 0x20 PUSH1 0x40 MLOAD DUP1 DUP4 SUB DUP2 DUP7 DUP1 EXTCODESIZE ISZERO DUP1 ISZERO PUSH2 0x12BC JUMPI PUSH1 0x0 DUP1 REVERT JUMPDEST POP GAS STATICCALL ISZERO DUP1 ISZERO PUSH2 0x12D0 JUMPI RETURNDATASIZE PUSH1 0x0 DUP1 RETURNDATACOPY RETURNDATASIZE PUSH1 0x0 REVERT JUMPDEST POP POP POP POP PUSH1 0x40 MLOAD RETURNDATASIZE PUSH1 0x1F NOT PUSH1 0x1F DUP3 ADD AND DUP3 ADD DUP1 PUSH1 0x40 MSTORE POP DUP2 ADD SWAP1 PUSH2 0x12F4 SWAP2 SWAP1 PUSH2 0x1C99 JUMP JUMPDEST GT PUSH2 0x1334 JUMPI PUSH1 0x40 MLOAD PUSH32 0x8C379A000000000000000000000000000000000000000000000000000000000 DUP2 MSTORE PUSH1 0x4 ADD PUSH2 0x132B SWAP1 PUSH2 0x2239 JUMP JUMPDEST PUSH1 0x40 MLOAD DUP1 SWAP2 SUB SWAP1 REVERT JUMPDEST PUSH1 0x55 PUSH1 0x7 PUSH1 0x0 CALLER PUSH20 0xFFFFFFFFFFFFFFFFFFFFFFFFFFFFFFFFFFFFFFFF AND PUSH20 0xFFFFFFFFFFFFFFFFFFFFFFFFFFFFFFFFFFFFFFFF AND DUP2 MSTORE PUSH1 0x20 ADD SWAP1 DUP2 MSTORE PUSH1 0x20 ADD PUSH1 0x0 KECCAK256 PUSH1 0x5 ADD SLOAD EQ PUSH2 0x13B9 JUMPI PUSH1 0x40 MLOAD PUSH32 0x8C379A000000000000000000000000000000000000000000000000000000000 DUP2 MSTORE PUSH1 0x4 ADD PUSH2 0x13B0 SWAP1 PUSH2 0x2099 JUMP JUMPDEST PUSH1 0x40 MLOAD DUP1 SWAP2 SUB SWAP1 REVERT JUMPDEST PUSH2 0x13C1 PUSH2 0x1632 JUMP JUMPDEST PUSH1 0x0 PUSH1 0x7 PUSH1 0x0 CALLER PUSH20 0xFFFFFFFFFFFFFFFFFFFFFFFFFFFFFFFFFFFFFFFF AND PUSH20 0xFFFFFFFFFFFFFFFFFFFFFFFFFFFFFFFFFFFFFFFF AND DUP2 MSTORE PUSH1 0x20 ADD SWAP1 DUP2 MSTORE PUSH1 0x20 ADD PUSH1 0x0 KECCAK256 SWAP1 POP PUSH2 0x1453 CALLER ADDRESS DUP5 PUSH1 0x9 PUSH1 0x0 SWAP1 SLOAD SWAP1 PUSH2 0x100 EXP SWAP1 DIV PUSH20 0xFFFFFFFFFFFFFFFFFFFFFFFFFFFFFFFFFFFFFFFF AND PUSH20 0xFFFFFFFFFFFFFFFFFFFFFFFFFFFFFFFFFFFFFFFF AND PUSH2 0x18B8 SWAP1 SWAP4 SWAP3 SWAP2 SWAP1 PUSH4 0xFFFFFFFF AND JUMP JUMPDEST PUSH2 0x146A DUP3 DUP3 PUSH1 0x1 ADD SLOAD PUSH2 0x173A SWAP1 SWAP2 SWAP1 PUSH4 0xFFFFFFFF AND JUMP JUMPDEST DUP2 PUSH1 0x1 ADD DUP2 SWAP1 SSTORE POP PUSH2 0x1487 DUP3 PUSH1 0x8 SLOAD PUSH2 0x173A SWAP1 SWAP2 SWAP1 PUSH4 0xFFFFFFFF AND JUMP JUMPDEST PUSH1 0x8 DUP2 SWAP1 SSTORE POP PUSH32 0x9E71BC8EEA02A63969F509818F2DAFB9254532904319F9DBDA79B67BD34A5F3D CALLER DUP4 PUSH1 0x40 MLOAD PUSH2 0x14BE SWAP3 SWAP2 SWAP1 PUSH2 0x2013 JUMP JUMPDEST PUSH1 0x40 MLOAD DUP1 SWAP2 SUB SWAP1 LOG1 POP POP JUMP JUMPDEST PUSH2 0x14D2 PUSH2 0x17EC JUMP JUMPDEST PUSH20 0xFFFFFFFFFFFFFFFFFFFFFFFFFFFFFFFFFFFFFFFF AND PUSH2 0x14F0 PUSH2 0xFDC JUMP JUMPDEST PUSH20 0xFFFFFFFFFFFFFFFFFFFFFFFFFFFFFFFFFFFFFFFF AND EQ PUSH2 0x1546 JUMPI PUSH1 0x40 MLOAD PUSH32 0x8C379A000000000000000000000000000000000000000000000000000000000 DUP2 MSTORE PUSH1 0x4 ADD PUSH2 0x153D SWAP1 PUSH2 0x2179 JUMP JUMPDEST PUSH1 0x40 MLOAD DUP1 SWAP2 SUB SWAP1 REVERT JUMPDEST PUSH1 0x0 PUSH20 0xFFFFFFFFFFFFFFFFFFFFFFFFFFFFFFFFFFFFFFFF AND DUP2 PUSH20 0xFFFFFFFFFFFFFFFFFFFFFFFFFFFFFFFFFFFFFFFF AND EQ ISZERO PUSH2 0x15B6 JUMPI PUSH1 0x40 MLOAD PUSH32 0x8C379A000000000000000000000000000000000000000000000000000000000 DUP2 MSTORE PUSH1 0x4 ADD PUSH2 0x15AD SWAP1 PUSH2 0x20D9 JUMP JUMPDEST PUSH1 0x40 MLOAD DUP1 SWAP2 SUB SWAP1 REVERT JUMPDEST PUSH2 0x15BF DUP2 PUSH2 0x17F4 JUMP JUMPDEST POP JUMP JUMPDEST PUSH1 0x0 PUSH1 0x7 PUSH1 0x0 CALLER PUSH20 0xFFFFFFFFFFFFFFFFFFFFFFFFFFFFFFFFFFFFFFFF AND PUSH20 0xFFFFFFFFFFFFFFFFFFFFFFFFFFFFFFFFFFFFFFFF AND DUP2 MSTORE PUSH1 0x20 ADD SWAP1 DUP2 MSTORE PUSH1 0x20 ADD PUSH1 0x0 KECCAK256 PUSH1 0x0 ADD SLOAD SWAP1 POP SWAP1 JUMP JUMPDEST PUSH1 0x9 PUSH1 0x0 SWAP1 SLOAD SWAP1 PUSH2 0x100 EXP SWAP1 DIV PUSH20 0xFFFFFFFFFFFFFFFFFFFFFFFFFFFFFFFFFFFFFFFF AND DUP2 JUMP JUMPDEST PUSH1 0x0 PUSH1 0x7 PUSH1 0x0 CALLER PUSH20 0xFFFFFFFFFFFFFFFFFFFFFFFFFFFFFFFFFFFFFFFF AND PUSH20 0xFFFFFFFFFFFFFFFFFFFFFFFFFFFFFFFFFFFFFFFF AND DUP2 MSTORE PUSH1 0x20 ADD SWAP1 DUP2 MSTORE PUSH1 0x20 ADD PUSH1 0x0 KECCAK256 SWAP1 POP PUSH1 0x0 PUSH2 0x16E0 PUSH2 0x2710 PUSH2 0x16D2 PUSH1 0x3 SLOAD PUSH2 0x16C4 PUSH2 0x16B1 PUSH2 0x21C0 PUSH2 0x16A3 DUP10 PUSH1 0x4 ADD SLOAD NUMBER PUSH2 0x170E SWAP1 SWAP2 SWAP1 PUSH4 0xFFFFFFFF AND JUMP JUMPDEST PUSH2 0x1724 SWAP1 SWAP2 SWAP1 PUSH4 0xFFFFFFFF AND JUMP JUMPDEST DUP8 PUSH1 0x1 ADD SLOAD PUSH2 0x1750 SWAP1 SWAP2 SWAP1 PUSH4 0xFFFFFFFF AND JUMP JUMPDEST PUSH2 0x1750 SWAP1 SWAP2 SWAP1 PUSH4 0xFFFFFFFF AND JUMP JUMPDEST PUSH2 0x1724 SWAP1 SWAP2 SWAP1 PUSH4 0xFFFFFFFF AND JUMP JUMPDEST SWAP1 POP PUSH2 0x16F9 DUP2 DUP4 PUSH1 0x0 ADD SLOAD PUSH2 0x173A SWAP1 SWAP2 SWAP1 PUSH4 0xFFFFFFFF AND JUMP JUMPDEST DUP3 PUSH1 0x0 ADD DUP2 SWAP1 SSTORE POP NUMBER DUP3 PUSH1 0x4 ADD DUP2 SWAP1 SSTORE POP POP POP JUMP JUMPDEST PUSH1 0x0 DUP2 DUP4 PUSH2 0x171C SWAP2 SWAP1 PUSH2 0x2387 JUMP JUMPDEST SWAP1 POP SWAP3 SWAP2 POP POP JUMP JUMPDEST PUSH1 0x0 DUP2 DUP4 PUSH2 0x1732 SWAP2 SWAP1 PUSH2 0x22FC JUMP JUMPDEST SWAP1 POP SWAP3 SWAP2 POP POP JUMP JUMPDEST PUSH1 0x0 DUP2 DUP4 PUSH2 0x1748 SWAP2 SWAP1 PUSH2 0x22A6 JUMP JUMPDEST SWAP1 POP SWAP3 SWAP2 POP POP JUMP JUMPDEST PUSH1 0x0 DUP2 DUP4 PUSH2 0x175E SWAP2 SWAP1 PUSH2 0x232D JUMP JUMPDEST SWAP1 POP SWAP3 SWAP2 POP POP JUMP JUMPDEST PUSH2 0x17E7 DUP4 PUSH4 0xA9059CBB PUSH1 0xE0 SHL DUP5 DUP5 PUSH1 0x40 MLOAD PUSH1 0x24 ADD PUSH2 0x1785 SWAP3 SWAP2 SWAP1 PUSH2 0x2013 JUMP JUMPDEST PUSH1 0x40 MLOAD PUSH1 0x20 DUP2 DUP4 SUB SUB DUP2 MSTORE SWAP1 PUSH1 0x40 MSTORE SWAP1 PUSH28 0xFFFFFFFFFFFFFFFFFFFFFFFFFFFFFFFFFFFFFFFFFFFFFFFFFFFFFFFF NOT AND PUSH1 0x20 DUP3 ADD DUP1 MLOAD PUSH28 0xFFFFFFFFFFFFFFFFFFFFFFFFFFFFFFFFFFFFFFFFFFFFFFFFFFFFFFFF DUP4 DUP2 DUP4 AND OR DUP4 MSTORE POP POP POP POP PUSH2 0x1941 JUMP JUMPDEST POP POP POP JUMP JUMPDEST PUSH1 0x0 CALLER SWAP1 POP SWAP1 JUMP JUMPDEST PUSH1 0x0 DUP1 PUSH1 0x0 SWAP1 SLOAD SWAP1 PUSH2 0x100 EXP SWAP1 DIV PUSH20 0xFFFFFFFFFFFFFFFFFFFFFFFFFFFFFFFFFFFFFFFF AND SWAP1 POP DUP2 PUSH1 0x0 DUP1 PUSH2 0x100 EXP DUP2 SLOAD DUP2 PUSH20 0xFFFFFFFFFFFFFFFFFFFFFFFFFFFFFFFFFFFFFFFF MUL NOT AND SWAP1 DUP4 PUSH20 0xFFFFFFFFFFFFFFFFFFFFFFFFFFFFFFFFFFFFFFFF AND MUL OR SWAP1 SSTORE POP DUP2 PUSH20 0xFFFFFFFFFFFFFFFFFFFFFFFFFFFFFFFFFFFFFFFF AND DUP2 PUSH20 0xFFFFFFFFFFFFFFFFFFFFFFFFFFFFFFFFFFFFFFFF AND PUSH32 0x8BE0079C531659141344CD1FD0A4F28419497F9722A3DAAFE3B4186F6B6457E0 PUSH1 0x40 MLOAD PUSH1 0x40 MLOAD DUP1 SWAP2 SUB SWAP1 LOG3 POP POP JUMP JUMPDEST PUSH2 0x193B DUP5 PUSH4 0x23B872DD PUSH1 0xE0 SHL DUP6 DUP6 DUP6 PUSH1 0x40 MLOAD PUSH1 0x24 ADD PUSH2 0x18D9 SWAP4 SWAP3 SWAP2 SWAP1 PUSH2 0x1FDC JUMP JUMPDEST PUSH1 0x40 MLOAD PUSH1 0x20 DUP2 DUP4 SUB SUB DUP2 MSTORE SWAP1 PUSH1 0x40 MSTORE SWAP1 PUSH28 0xFFFFFFFFFFFFFFFFFFFFFFFFFFFFFFFFFFFFFFFFFFFFFFFFFFFFFFFF NOT AND PUSH1 0x20 DUP3 ADD DUP1 MLOAD PUSH28 0xFFFFFFFFFFFFFFFFFFFFFFFFFFFFFFFFFFFFFFFFFFFFFFFFFFFFFFFF DUP4 DUP2 DUP4 AND OR DUP4 MSTORE POP POP POP POP PUSH2 0x1941 JUMP JUMPDEST POP POP POP POP JUMP JUMPDEST PUSH1 0x0 PUSH2 0x19A3 DUP3 PUSH1 0x40 MLOAD DUP1 PUSH1 0x40 ADD PUSH1 0x40 MSTORE DUP1 PUSH1 0x20 DUP2 MSTORE PUSH1 0x20 ADD PUSH32 0x5361666542455032303A206C6F772D6C6576656C2063616C6C206661696C6564 DUP2 MSTORE POP DUP6 PUSH20 0xFFFFFFFFFFFFFFFFFFFFFFFFFFFFFFFFFFFFFFFF AND PUSH2 0x1A08 SWAP1 SWAP3 SWAP2 SWAP1 PUSH4 0xFFFFFFFF AND JUMP JUMPDEST SWAP1 POP PUSH1 0x0 DUP2 MLOAD GT ISZERO PUSH2 0x1A03 JUMPI DUP1 DUP1 PUSH1 0x20 ADD SWAP1 MLOAD DUP2 ADD SWAP1 PUSH2 0x19C3 SWAP2 SWAP1 PUSH2 0x1C3F JUMP JUMPDEST PUSH2 0x1A02 JUMPI PUSH1 0x40 MLOAD PUSH32 0x8C379A000000000000000000000000000000000000000000000000000000000 DUP2 MSTORE PUSH1 0x4 ADD PUSH2 0x19F9 SWAP1 PUSH2 0x20B9 JUMP JUMPDEST PUSH1 0x40 MLOAD DUP1 SWAP2 SUB SWAP1 REVERT JUMPDEST JUMPDEST POP POP POP JUMP JUMPDEST PUSH1 0x60 PUSH2 0x1A17 DUP5 DUP5 PUSH1 0x0 DUP6 PUSH2 0x1A20 JUMP JUMPDEST SWAP1 POP SWAP4 SWAP3 POP POP POP JUMP JUMPDEST PUSH1 0x60 DUP3 SELFBALANCE LT ISZERO PUSH2 0x1A65 JUMPI PUSH1 0x40 MLOAD PUSH32 0x8C379A000000000000000000000000000000000000000000000000000000000 DUP2 MSTORE PUSH1 0x4 ADD PUSH2 0x1A5C SWAP1 PUSH2 0x2139 JUMP JUMPDEST PUSH1 0x40 MLOAD DUP1 SWAP2 SUB SWAP1 REVERT JUMPDEST PUSH2 0x1A6E DUP6 PUSH2 0x1B34 JUMP JUMPDEST PUSH2 0x1AAD JUMPI PUSH1 0x40 MLOAD PUSH32 0x8C379A000000000000000000000000000000000000000000000000000000000 DUP2 MSTORE PUSH1 0x4 ADD PUSH2 0x1AA4 SWAP1 PUSH2 0x21B9 JUMP JUMPDEST PUSH1 0x40 MLOAD DUP1 SWAP2 SUB SWAP1 REVERT JUMPDEST PUSH1 0x0 DUP1 DUP7 PUSH20 0xFFFFFFFFFFFFFFFFFFFFFFFFFFFFFFFFFFFFFFFF AND DUP6 DUP8 PUSH1 0x40 MLOAD PUSH2 0x1AD6 SWAP2 SWAP1 PUSH2 0x1FAA JUMP JUMPDEST PUSH1 0x0 PUSH1 0x40 MLOAD DUP1 DUP4 SUB DUP2 DUP6 DUP8 GAS CALL SWAP3 POP POP POP RETURNDATASIZE DUP1 PUSH1 0x0 DUP2 EQ PUSH2 0x1B13 JUMPI PUSH1 0x40 MLOAD SWAP2 POP PUSH1 0x1F NOT PUSH1 0x3F RETURNDATASIZE ADD AND DUP3 ADD PUSH1 0x40 MSTORE RETURNDATASIZE DUP3 MSTORE RETURNDATASIZE PUSH1 0x0 PUSH1 0x20 DUP5 ADD RETURNDATACOPY PUSH2 0x1B18 JUMP JUMPDEST PUSH1 0x60 SWAP2 POP JUMPDEST POP SWAP2 POP SWAP2 POP PUSH2 0x1B28 DUP3 DUP3 DUP7 PUSH2 0x1B57 JUMP JUMPDEST SWAP3 POP POP POP SWAP5 SWAP4 POP POP POP POP JUMP JUMPDEST PUSH1 0x0 DUP1 DUP3 PUSH20 0xFFFFFFFFFFFFFFFFFFFFFFFFFFFFFFFFFFFFFFFF AND EXTCODESIZE GT SWAP1 POP SWAP2 SWAP1 POP JUMP JUMPDEST PUSH1 0x60 DUP4 ISZERO PUSH2 0x1B67 JUMPI DUP3 SWAP1 POP PUSH2 0x1BB7 JUMP JUMPDEST PUSH1 0x0 DUP4 MLOAD GT ISZERO PUSH2 0x1B7A JUMPI DUP3 MLOAD DUP1 DUP5 PUSH1 0x20 ADD REVERT JUMPDEST DUP2 PUSH1 0x40 MLOAD PUSH32 0x8C379A000000000000000000000000000000000000000000000000000000000 DUP2 MSTORE PUSH1 0x4 ADD PUSH2 0x1BAE SWAP2 SWAP1 PUSH2 0x2057 JUMP JUMPDEST PUSH1 0x40 MLOAD DUP1 SWAP2 SUB SWAP1 REVERT JUMPDEST SWAP4 SWAP3 POP POP POP JUMP JUMPDEST PUSH1 0x0 DUP2 CALLDATALOAD SWAP1 POP PUSH2 0x1BCD DUP2 PUSH2 0x27EA JUMP JUMPDEST SWAP3 SWAP2 POP POP JUMP JUMPDEST PUSH1 0x0 DUP2 MLOAD SWAP1 POP PUSH2 0x1BE2 DUP2 PUSH2 0x2801 JUMP JUMPDEST SWAP3 SWAP2 POP POP JUMP JUMPDEST PUSH1 0x0 DUP2 CALLDATALOAD SWAP1 POP PUSH2 0x1BF7 DUP2 PUSH2 0x2818 JUMP JUMPDEST SWAP3 SWAP2 POP POP JUMP JUMPDEST PUSH1 0x0 DUP2 MLOAD SWAP1 POP PUSH2 0x1C0C DUP2 PUSH2 0x2818 JUMP JUMPDEST SWAP3 SWAP2 POP POP JUMP JUMPDEST PUSH1 0x0 PUSH1 0x20 DUP3 DUP5 SUB SLT ISZERO PUSH2 0x1C28 JUMPI PUSH2 0x1C27 PUSH2 0x24FB JUMP JUMPDEST JUMPDEST PUSH1 0x0 PUSH2 0x1C36 DUP5 DUP3 DUP6 ADD PUSH2 0x1BBE JUMP JUMPDEST SWAP2 POP POP SWAP3 SWAP2 POP POP JUMP JUMPDEST PUSH1 0x0 PUSH1 0x20 DUP3 DUP5 SUB SLT ISZERO PUSH2 0x1C55 JUMPI PUSH2 0x1C54 PUSH2 0x24FB JUMP JUMPDEST JUMPDEST PUSH1 0x0 PUSH2 0x1C63 DUP5 DUP3 DUP6 ADD PUSH2 0x1BD3 JUMP JUMPDEST SWAP2 POP POP SWAP3 SWAP2 POP POP JUMP JUMPDEST PUSH1 0x0 PUSH1 0x20 DUP3 DUP5 SUB SLT ISZERO PUSH2 0x1C82 JUMPI PUSH2 0x1C81 PUSH2 0x24FB JUMP JUMPDEST JUMPDEST PUSH1 0x0 PUSH2 0x1C90 DUP5 DUP3 DUP6 ADD PUSH2 0x1BE8 JUMP JUMPDEST SWAP2 POP POP SWAP3 SWAP2 POP POP JUMP JUMPDEST PUSH1 0x0 PUSH1 0x20 DUP3 DUP5 SUB SLT ISZERO PUSH2 0x1CAF JUMPI PUSH2 0x1CAE PUSH2 0x24FB JUMP JUMPDEST JUMPDEST PUSH1 0x0 PUSH2 0x1CBD DUP5 DUP3 DUP6 ADD PUSH2 0x1BFD JUMP JUMPDEST SWAP2 POP POP SWAP3 SWAP2 POP POP JUMP JUMPDEST PUSH1 0x0 DUP1 PUSH1 0x40 DUP4 DUP6 SUB SLT ISZERO PUSH2 0x1CDD JUMPI PUSH2 0x1CDC PUSH2 0x24FB JUMP JUMPDEST JUMPDEST PUSH1 0x0 PUSH2 0x1CEB DUP6 DUP3 DUP7 ADD PUSH2 0x1BE8 JUMP JUMPDEST SWAP3 POP POP PUSH1 0x20 PUSH2 0x1CFC DUP6 DUP3 DUP7 ADD PUSH2 0x1BE8 JUMP JUMPDEST SWAP2 POP POP SWAP3 POP SWAP3 SWAP1 POP JUMP JUMPDEST PUSH2 0x1D0F DUP2 PUSH2 0x23BB JUMP JUMPDEST DUP3 MSTORE POP POP JUMP JUMPDEST PUSH1 0x0 PUSH2 0x1D20 DUP3 PUSH2 0x2274 JUMP JUMPDEST PUSH2 0x1D2A DUP2 DUP6 PUSH2 0x228A JUMP JUMPDEST SWAP4 POP PUSH2 0x1D3A DUP2 DUP6 PUSH1 0x20 DUP7 ADD PUSH2 0x2439 JUMP JUMPDEST DUP1 DUP5 ADD SWAP2 POP POP SWAP3 SWAP2 POP POP JUMP JUMPDEST PUSH2 0x1D4F DUP2 PUSH2 0x2403 JUMP JUMPDEST DUP3 MSTORE POP POP JUMP JUMPDEST PUSH1 0x0 PUSH2 0x1D60 DUP3 PUSH2 0x227F JUMP JUMPDEST PUSH2 0x1D6A DUP2 DUP6 PUSH2 0x2295 JUMP JUMPDEST SWAP4 POP PUSH2 0x1D7A DUP2 DUP6 PUSH1 0x20 DUP7 ADD PUSH2 0x2439 JUMP JUMPDEST PUSH2 0x1D83 DUP2 PUSH2 0x2500 JUMP JUMPDEST DUP5 ADD SWAP2 POP POP SWAP3 SWAP2 POP POP JUMP JUMPDEST PUSH1 0x0 PUSH2 0x1D9B PUSH1 0x10 DUP4 PUSH2 0x2295 JUMP JUMPDEST SWAP2 POP PUSH2 0x1DA6 DUP3 PUSH2 0x2511 JUMP JUMPDEST PUSH1 0x20 DUP3 ADD SWAP1 POP SWAP2 SWAP1 POP JUMP JUMPDEST PUSH1 0x0 PUSH2 0x1DBE PUSH1 0x15 DUP4 PUSH2 0x2295 JUMP JUMPDEST SWAP2 POP PUSH2 0x1DC9 DUP3 PUSH2 0x253A JUMP JUMPDEST PUSH1 0x20 DUP3 ADD SWAP1 POP SWAP2 SWAP1 POP JUMP JUMPDEST PUSH1 0x0 PUSH2 0x1DE1 PUSH1 0x2A DUP4 PUSH2 0x2295 JUMP JUMPDEST SWAP2 POP PUSH2 0x1DEC DUP3 PUSH2 0x2563 JUMP JUMPDEST PUSH1 0x40 DUP3 ADD SWAP1 POP SWAP2 SWAP1 POP JUMP JUMPDEST PUSH1 0x0 PUSH2 0x1E04 PUSH1 0x26 DUP4 PUSH2 0x2295 JUMP JUMPDEST SWAP2 POP PUSH2 0x1E0F DUP3 PUSH2 0x25B2 JUMP JUMPDEST PUSH1 0x40 DUP3 ADD SWAP1 POP SWAP2 SWAP1 POP JUMP JUMPDEST PUSH1 0x0 PUSH2 0x1E27 PUSH1 0xE DUP4 PUSH2 0x2295 JUMP JUMPDEST SWAP2 POP PUSH2 0x1E32 DUP3 PUSH2 0x2601 JUMP JUMPDEST PUSH1 0x20 DUP3 ADD SWAP1 POP SWAP2 SWAP1 POP JUMP JUMPDEST PUSH1 0x0 PUSH2 0x1E4A PUSH1 0xF DUP4 PUSH2 0x2295 JUMP JUMPDEST SWAP2 POP PUSH2 0x1E55 DUP3 PUSH2 0x262A JUMP JUMPDEST PUSH1 0x20 DUP3 ADD SWAP1 POP SWAP2 SWAP1 POP JUMP JUMPDEST PUSH1 0x0 PUSH2 0x1E6D PUSH1 0x26 DUP4 PUSH2 0x2295 JUMP JUMPDEST SWAP2 POP PUSH2 0x1E78 DUP3 PUSH2 0x2653 JUMP JUMPDEST PUSH1 0x40 DUP3 ADD SWAP1 POP SWAP2 SWAP1 POP JUMP JUMPDEST PUSH1 0x0 PUSH2 0x1E90 PUSH1 0x1F DUP4 PUSH2 0x2295 JUMP JUMPDEST SWAP2 POP PUSH2 0x1E9B DUP3 PUSH2 0x26A2 JUMP JUMPDEST PUSH1 0x20 DUP3 ADD SWAP1 POP SWAP2 SWAP1 POP JUMP JUMPDEST PUSH1 0x0 PUSH2 0x1EB3 PUSH1 0x20 DUP4 PUSH2 0x2295 JUMP JUMPDEST SWAP2 POP PUSH2 0x1EBE DUP3 PUSH2 0x26CB JUMP JUMPDEST PUSH1 0x20 DUP3 ADD SWAP1 POP SWAP2 SWAP1 POP JUMP JUMPDEST PUSH1 0x0 PUSH2 0x1ED6 PUSH1 0xD DUP4 PUSH2 0x2295 JUMP JUMPDEST SWAP2 POP PUSH2 0x1EE1 DUP3 PUSH2 0x26F4 JUMP JUMPDEST PUSH1 0x20 DUP3 ADD SWAP1 POP SWAP2 SWAP1 POP JUMP JUMPDEST PUSH1 0x0 PUSH2 0x1EF9 PUSH1 0x1D DUP4 PUSH2 0x2295 JUMP JUMPDEST SWAP2 POP PUSH2 0x1F04 DUP3 PUSH2 0x271D JUMP JUMPDEST PUSH1 0x20 DUP3 ADD SWAP1 POP SWAP2 SWAP1 POP JUMP JUMPDEST PUSH1 0x0 PUSH2 0x1F1C PUSH1 0x1A DUP4 PUSH2 0x2295 JUMP JUMPDEST SWAP2 POP PUSH2 0x1F27 DUP3 PUSH2 0x2746 JUMP JUMPDEST PUSH1 0x20 DUP3 ADD SWAP1 POP SWAP2 SWAP1 POP JUMP JUMPDEST PUSH1 0x0 PUSH2 0x1F3F PUSH1 0x17 DUP4 PUSH2 0x2295 JUMP JUMPDEST SWAP2 POP PUSH2 0x1F4A DUP3 PUSH2 0x276F JUMP JUMPDEST PUSH1 0x20 DUP3 ADD SWAP1 POP SWAP2 SWAP1 POP JUMP JUMPDEST PUSH1 0x0 PUSH2 0x1F62 PUSH1 0xD DUP4 PUSH2 0x2295 JUMP JUMPDEST SWAP2 POP PUSH2 0x1F6D DUP3 PUSH2 0x2798 JUMP JUMPDEST PUSH1 0x20 DUP3 ADD SWAP1 POP SWAP2 SWAP1 POP JUMP JUMPDEST PUSH1 0x0 PUSH2 0x1F85 PUSH1 0xD DUP4 PUSH2 0x2295 JUMP JUMPDEST SWAP2 POP PUSH2 0x1F90 DUP3 PUSH2 0x27C1 JUMP JUMPDEST PUSH1 0x20 DUP3 ADD SWAP1 POP SWAP2 SWAP1 POP JUMP JUMPDEST PUSH2 0x1FA4 DUP2 PUSH2 0x23F9 JUMP JUMPDEST DUP3 MSTORE POP POP JUMP JUMPDEST PUSH1 0x0 PUSH2 0x1FB6 DUP3 DUP5 PUSH2 0x1D15 JUMP JUMPDEST SWAP2 POP DUP2 SWAP1 POP SWAP3 SWAP2 POP POP JUMP JUMPDEST PUSH1 0x0 PUSH1 0x20 DUP3 ADD SWAP1 POP PUSH2 0x1FD6 PUSH1 0x0 DUP4 ADD DUP5 PUSH2 0x1D06 JUMP JUMPDEST SWAP3 SWAP2 POP POP JUMP JUMPDEST PUSH1 0x0 PUSH1 0x60 DUP3 ADD SWAP1 POP PUSH2 0x1FF1 PUSH1 0x0 DUP4 ADD DUP7 PUSH2 0x1D06 JUMP JUMPDEST PUSH2 0x1FFE PUSH1 0x20 DUP4 ADD DUP6 PUSH2 0x1D06 JUMP JUMPDEST PUSH2 0x200B PUSH1 0x40 DUP4 ADD DUP5 PUSH2 0x1F9B JUMP JUMPDEST SWAP5 SWAP4 POP POP POP POP JUMP JUMPDEST PUSH1 0x0 PUSH1 0x40 DUP3 ADD SWAP1 POP PUSH2 0x2028 PUSH1 0x0 DUP4 ADD DUP6 PUSH2 0x1D06 JUMP JUMPDEST PUSH2 0x2035 PUSH1 0x20 DUP4 ADD DUP5 PUSH2 0x1F9B JUMP JUMPDEST SWAP4 SWAP3 POP POP POP JUMP JUMPDEST PUSH1 0x0 PUSH1 0x20 DUP3 ADD SWAP1 POP PUSH2 0x2051 PUSH1 0x0 DUP4 ADD DUP5 PUSH2 0x1D46 JUMP JUMPDEST SWAP3 SWAP2 POP POP JUMP JUMPDEST PUSH1 0x0 PUSH1 0x20 DUP3 ADD SWAP1 POP DUP2 DUP2 SUB PUSH1 0x0 DUP4 ADD MSTORE PUSH2 0x2071 DUP2 DUP5 PUSH2 0x1D55 JUMP JUMPDEST SWAP1 POP SWAP3 SWAP2 POP POP JUMP JUMPDEST PUSH1 0x0 PUSH1 0x20 DUP3 ADD SWAP1 POP DUP2 DUP2 SUB PUSH1 0x0 DUP4 ADD MSTORE PUSH2 0x2092 DUP2 PUSH2 0x1D8E JUMP JUMPDEST SWAP1 POP SWAP2 SWAP1 POP JUMP JUMPDEST PUSH1 0x0 PUSH1 0x20 DUP3 ADD SWAP1 POP DUP2 DUP2 SUB PUSH1 0x0 DUP4 ADD MSTORE PUSH2 0x20B2 DUP2 PUSH2 0x1DB1 JUMP JUMPDEST SWAP1 POP SWAP2 SWAP1 POP JUMP JUMPDEST PUSH1 0x0 PUSH1 0x20 DUP3 ADD SWAP1 POP DUP2 DUP2 SUB PUSH1 0x0 DUP4 ADD MSTORE PUSH2 0x20D2 DUP2 PUSH2 0x1DD4 JUMP JUMPDEST SWAP1 POP SWAP2 SWAP1 POP JUMP JUMPDEST PUSH1 0x0 PUSH1 0x20 DUP3 ADD SWAP1 POP DUP2 DUP2 SUB PUSH1 0x0 DUP4 ADD MSTORE PUSH2 0x20F2 DUP2 PUSH2 0x1DF7 JUMP JUMPDEST SWAP1 POP SWAP2 SWAP1 POP JUMP JUMPDEST PUSH1 0x0 PUSH1 0x20 DUP3 ADD SWAP1 POP DUP2 DUP2 SUB PUSH1 0x0 DUP4 ADD MSTORE PUSH2 0x2112 DUP2 PUSH2 0x1E1A JUMP JUMPDEST SWAP1 POP SWAP2 SWAP1 POP JUMP JUMPDEST PUSH1 0x0 PUSH1 0x20 DUP3 ADD SWAP1 POP DUP2 DUP2 SUB PUSH1 0x0 DUP4 ADD MSTORE PUSH2 0x2132 DUP2 PUSH2 0x1E3D JUMP JUMPDEST SWAP1 POP SWAP2 SWAP1 POP JUMP JUMPDEST PUSH1 0x0 PUSH1 0x20 DUP3 ADD SWAP1 POP DUP2 DUP2 SUB PUSH1 0x0 DUP4 ADD MSTORE PUSH2 0x2152 DUP2 PUSH2 0x1E60 JUMP JUMPDEST SWAP1 POP SWAP2 SWAP1 POP JUMP JUMPDEST PUSH1 0x0 PUSH1 0x20 DUP3 ADD SWAP1 POP DUP2 DUP2 SUB PUSH1 0x0 DUP4 ADD MSTORE PUSH2 0x2172 DUP2 PUSH2 0x1E83 JUMP JUMPDEST SWAP1 POP SWAP2 SWAP1 POP JUMP JUMPDEST PUSH1 0x0 PUSH1 0x20 DUP3 ADD SWAP1 POP DUP2 DUP2 SUB PUSH1 0x0 DUP4 ADD MSTORE PUSH2 0x2192 DUP2 PUSH2 0x1EA6 JUMP JUMPDEST SWAP1 POP SWAP2 SWAP1 POP JUMP JUMPDEST PUSH1 0x0 PUSH1 0x20 DUP3 ADD SWAP1 POP DUP2 DUP2 SUB PUSH1 0x0 DUP4 ADD MSTORE PUSH2 0x21B2 DUP2 PUSH2 0x1EC9 JUMP JUMPDEST SWAP1 POP SWAP2 SWAP1 POP JUMP JUMPDEST PUSH1 0x0 PUSH1 0x20 DUP3 ADD SWAP1 POP DUP2 DUP2 SUB PUSH1 0x0 DUP4 ADD MSTORE PUSH2 0x21D2 DUP2 PUSH2 0x1EEC JUMP JUMPDEST SWAP1 POP SWAP2 SWAP1 POP JUMP JUMPDEST PUSH1 0x0 PUSH1 0x20 DUP3 ADD SWAP1 POP DUP2 DUP2 SUB PUSH1 0x0 DUP4 ADD MSTORE PUSH2 0x21F2 DUP2 PUSH2 0x1F0F JUMP JUMPDEST SWAP1 POP SWAP2 SWAP1 POP JUMP JUMPDEST PUSH1 0x0 PUSH1 0x20 DUP3 ADD SWAP1 POP DUP2 DUP2 SUB PUSH1 0x0 DUP4 ADD MSTORE PUSH2 0x2212 DUP2 PUSH2 0x1F32 JUMP JUMPDEST SWAP1 POP SWAP2 SWAP1 POP JUMP JUMPDEST PUSH1 0x0 PUSH1 0x20 DUP3 ADD SWAP1 POP DUP2 DUP2 SUB PUSH1 0x0 DUP4 ADD MSTORE PUSH2 0x2232 DUP2 PUSH2 0x1F55 JUMP JUMPDEST SWAP1 POP SWAP2 SWAP1 POP JUMP JUMPDEST PUSH1 0x0 PUSH1 0x20 DUP3 ADD SWAP1 POP DUP2 DUP2 SUB PUSH1 0x0 DUP4 ADD MSTORE PUSH2 0x2252 DUP2 PUSH2 0x1F78 JUMP JUMPDEST SWAP1 POP SWAP2 SWAP1 POP JUMP JUMPDEST PUSH1 0x0 PUSH1 0x20 DUP3 ADD SWAP1 POP PUSH2 0x226E PUSH1 0x0 DUP4 ADD DUP5 PUSH2 0x1F9B JUMP JUMPDEST SWAP3 SWAP2 POP POP JUMP JUMPDEST PUSH1 0x0 DUP2 MLOAD SWAP1 POP SWAP2 SWAP1 POP JUMP JUMPDEST PUSH1 0x0 DUP2 MLOAD SWAP1 POP SWAP2 SWAP1 POP JUMP JUMPDEST PUSH1 0x0 DUP2 SWAP1 POP SWAP3 SWAP2 POP POP JUMP JUMPDEST PUSH1 0x0 DUP3 DUP3 MSTORE PUSH1 0x20 DUP3 ADD SWAP1 POP SWAP3 SWAP2 POP POP JUMP JUMPDEST PUSH1 0x0 PUSH2 0x22B1 DUP3 PUSH2 0x23F9 JUMP JUMPDEST SWAP2 POP PUSH2 0x22BC DUP4 PUSH2 0x23F9 JUMP JUMPDEST SWAP3 POP DUP3 PUSH32 0xFFFFFFFFFFFFFFFFFFFFFFFFFFFFFFFFFFFFFFFFFFFFFFFFFFFFFFFFFFFFFFFF SUB DUP3 GT ISZERO PUSH2 0x22F1 JUMPI PUSH2 0x22F0 PUSH2 0x249D JUMP JUMPDEST JUMPDEST DUP3 DUP3 ADD SWAP1 POP SWAP3 SWAP2 POP POP JUMP JUMPDEST PUSH1 0x0 PUSH2 0x2307 DUP3 PUSH2 0x23F9 JUMP JUMPDEST SWAP2 POP PUSH2 0x2312 DUP4 PUSH2 0x23F9 JUMP JUMPDEST SWAP3 POP DUP3 PUSH2 0x2322 JUMPI PUSH2 0x2321 PUSH2 0x24CC JUMP JUMPDEST JUMPDEST DUP3 DUP3 DIV SWAP1 POP SWAP3 SWAP2 POP POP JUMP JUMPDEST PUSH1 0x0 PUSH2 0x2338 DUP3 PUSH2 0x23F9 JUMP JUMPDEST SWAP2 POP PUSH2 0x2343 DUP4 PUSH2 0x23F9 JUMP JUMPDEST SWAP3 POP DUP2 PUSH32 0xFFFFFFFFFFFFFFFFFFFFFFFFFFFFFFFFFFFFFFFFFFFFFFFFFFFFFFFFFFFFFFFF DIV DUP4 GT DUP3 ISZERO ISZERO AND ISZERO PUSH2 0x237C JUMPI PUSH2 0x237B PUSH2 0x249D JUMP JUMPDEST JUMPDEST DUP3 DUP3 MUL SWAP1 POP SWAP3 SWAP2 POP POP JUMP JUMPDEST PUSH1 0x0 PUSH2 0x2392 DUP3 PUSH2 0x23F9 JUMP JUMPDEST SWAP2 POP PUSH2 0x239D DUP4 PUSH2 0x23F9 JUMP JUMPDEST SWAP3 POP DUP3 DUP3 LT ISZERO PUSH2 0x23B0 JUMPI PUSH2 0x23AF PUSH2 0x249D JUMP JUMPDEST JUMPDEST DUP3 DUP3 SUB SWAP1 POP SWAP3 SWAP2 POP POP JUMP JUMPDEST PUSH1 0x0 PUSH2 0x23C6 DUP3 PUSH2 0x23D9 JUMP JUMPDEST SWAP1 POP SWAP2 SWAP1 POP JUMP JUMPDEST PUSH1 0x0 DUP2 ISZERO ISZERO SWAP1 POP SWAP2 SWAP1 POP JUMP JUMPDEST PUSH1 0x0 PUSH20 0xFFFFFFFFFFFFFFFFFFFFFFFFFFFFFFFFFFFFFFFF DUP3 AND SWAP1 POP SWAP2 SWAP1 POP JUMP JUMPDEST PUSH1 0x0 DUP2 SWAP1 POP SWAP2 SWAP1 POP JUMP JUMPDEST PUSH1 0x0 PUSH2 0x240E DUP3 PUSH2 0x2415 JUMP JUMPDEST SWAP1 POP SWAP2 SWAP1 POP JUMP JUMPDEST PUSH1 0x0 PUSH2 0x2420 DUP3 PUSH2 0x2427 JUMP JUMPDEST SWAP1 POP SWAP2 SWAP1 POP JUMP JUMPDEST PUSH1 0x0 PUSH2 0x2432 DUP3 PUSH2 0x23D9 JUMP JUMPDEST SWAP1 POP SWAP2 SWAP1 POP JUMP JUMPDEST PUSH1 0x0 JUMPDEST DUP4 DUP2 LT ISZERO PUSH2 0x2457 JUMPI DUP1 DUP3 ADD MLOAD DUP2 DUP5 ADD MSTORE PUSH1 0x20 DUP2 ADD SWAP1 POP PUSH2 0x243C JUMP JUMPDEST DUP4 DUP2 GT ISZERO PUSH2 0x2466 JUMPI PUSH1 0x0 DUP5 DUP5 ADD MSTORE JUMPDEST POP POP POP POP JUMP JUMPDEST PUSH1 0x0 PUSH2 0x2477 DUP3 PUSH2 0x23F9 JUMP JUMPDEST SWAP2 POP PUSH2 0x2482 DUP4 PUSH2 0x23F9 JUMP JUMPDEST SWAP3 POP DUP3 PUSH2 0x2492 JUMPI PUSH2 0x2491 PUSH2 0x24CC JUMP JUMPDEST JUMPDEST DUP3 DUP3 MOD SWAP1 POP SWAP3 SWAP2 POP POP JUMP JUMPDEST PUSH32 0x4E487B7100000000000000000000000000000000000000000000000000000000 PUSH1 0x0 MSTORE PUSH1 0x11 PUSH1 0x4 MSTORE PUSH1 0x24 PUSH1 0x0 REVERT JUMPDEST PUSH32 0x4E487B7100000000000000000000000000000000000000000000000000000000 PUSH1 0x0 MSTORE PUSH1 0x12 PUSH1 0x4 MSTORE PUSH1 0x24 PUSH1 0x0 REVERT JUMPDEST PUSH1 0x0 DUP1 REVERT JUMPDEST PUSH1 0x0 PUSH1 0x1F NOT PUSH1 0x1F DUP4 ADD AND SWAP1 POP SWAP2 SWAP1 POP JUMP JUMPDEST PUSH32 0x4E6F7468696E6720746F20636C61696D00000000000000000000000000000000 PUSH1 0x0 DUP3 ADD MSTORE POP JUMP JUMPDEST PUSH32 0x4572726F723A20696E76616C6964207374616B65720000000000000000000000 PUSH1 0x0 DUP3 ADD MSTORE POP JUMP JUMPDEST PUSH32 0x5361666542455032303A204245503230206F7065726174696F6E20646964206E PUSH1 0x0 DUP3 ADD MSTORE PUSH32 0x6F74207375636365656400000000000000000000000000000000000000000000 PUSH1 0x20 DUP3 ADD MSTORE POP JUMP JUMPDEST PUSH32 0x4F776E61626C653A206E6577206F776E657220697320746865207A65726F2061 PUSH1 0x0 DUP3 ADD MSTORE PUSH32 0x6464726573730000000000000000000000000000000000000000000000000000 PUSH1 0x20 DUP3 ADD MSTORE POP JUMP JUMPDEST PUSH32 0x496E76616C696420616D6F756E74000000000000000000000000000000000000 PUSH1 0x0 DUP3 ADD MSTORE POP JUMP JUMPDEST PUSH32 0x416C726561647920737461727465640000000000000000000000000000000000 PUSH1 0x0 DUP3 ADD MSTORE POP JUMP JUMPDEST PUSH32 0x416464726573733A20696E73756666696369656E742062616C616E636520666F PUSH1 0x0 DUP3 ADD MSTORE PUSH32 0x722063616C6C0000000000000000000000000000000000000000000000000000 PUSH1 0x20 DUP3 ADD MSTORE POP JUMP JUMPDEST PUSH32 0x416D6F756E742073686F756C642062652067726561746572207468616E203000 PUSH1 0x0 DUP3 ADD MSTORE POP JUMP JUMPDEST PUSH32 0x4F776E61626C653A2063616C6C6572206973206E6F7420746865206F776E6572 PUSH1 0x0 DUP3 ADD MSTORE POP JUMP JUMPDEST PUSH32 0x496E76616C69642076616C756500000000000000000000000000000000000000 PUSH1 0x0 DUP3 ADD MSTORE POP JUMP JUMPDEST PUSH32 0x416464726573733A2063616C6C20746F206E6F6E2D636F6E7472616374000000 PUSH1 0x0 DUP3 ADD MSTORE POP JUMP JUMPDEST PUSH32 0x496E76616C696420556E7374616B696E67204665652052617465000000000000 PUSH1 0x0 DUP3 ADD MSTORE POP JUMP JUMPDEST PUSH32 0x496E76616C6964204C6F636B7570204475726174696F6E000000000000000000 PUSH1 0x0 DUP3 ADD MSTORE POP JUMP JUMPDEST PUSH32 0x43616E2774206265207A65726F00000000000000000000000000000000000000 PUSH1 0x0 DUP3 ADD MSTORE POP JUMP JUMPDEST PUSH32 0x496E73756666696369656E742100000000000000000000000000000000000000 PUSH1 0x0 DUP3 ADD MSTORE POP JUMP JUMPDEST PUSH2 0x27F3 DUP2 PUSH2 0x23BB JUMP JUMPDEST DUP2 EQ PUSH2 0x27FE JUMPI PUSH1 0x0 DUP1 REVERT JUMPDEST POP JUMP JUMPDEST PUSH2 0x280A DUP2 PUSH2 0x23CD JUMP JUMPDEST DUP2 EQ PUSH2 0x2815 JUMPI PUSH1 0x0 DUP1 REVERT JUMPDEST POP JUMP JUMPDEST PUSH2 0x2821 DUP2 PUSH2 0x23F9 JUMP JUMPDEST DUP2 EQ PUSH2 0x282C JUMPI PUSH1 0x0 DUP1 REVERT JUMPDEST POP JUMP INVALID LOG2 PUSH5 0x6970667358 0x22 SLT KECCAK256 PUSH29 0xC1A47140E0C601E4E3FE7EFB06EFF72AA9049445A765DE43F31B23D6C0 DUP12 0x4C PUSH5 0x736F6C6343 STOP ADDMOD SMOD STOP CALLER "
				},
				"gasEstimates": {
					"creation": {
						"codeDepositCost": "2068200",
						"executionCost": "infinite",
						"totalCost": "infinite"
					},
					"external": {
						"getNumberofStakers()": "2512",
						"getRewardRate()": "2482",
						"getTotalStaked()": "2461",
						"harvest()": "infinite",
						"owner()": "2611",
						"renounceOwnership()": "30397",
						"rewardAmount()": "2620",
						"rewardToHarvest()": "2621",
						"setEventPeriod(uint256)": "infinite",
						"setLockupTime(uint256)": "24806",
						"setRewardRate(uint256)": "infinite",
						"setUnstakingFeeRate(uint256)": "infinite",
						"stake(uint256)": "infinite",
						"stakedAmount()": "2600",
						"startStaking(uint256,uint256)": "infinite",
						"token()": "2710",
						"totalStaked()": "2496",
						"transferOwnership(address)": "30789",
						"withdraw(uint256)": "infinite"
					},
					"internal": {
						"Init()": "infinite",
						"calDaysFromTimestamp(uint256)": "infinite",
						"updateReward()": "infinite"
					}
				},
				"methodIdentifiers": {
					"getNumberofStakers()": "5715ec11",
					"getRewardRate()": "7e1a3786",
					"getTotalStaked()": "0917e776",
					"harvest()": "4641257d",
					"owner()": "8da5cb5b",
					"renounceOwnership()": "715018a6",
					"rewardAmount()": "f7b2a7be",
					"rewardToHarvest()": "5d2ec65d",
					"setEventPeriod(uint256)": "692642e7",
					"setLockupTime(uint256)": "4b62b70b",
					"setRewardRate(uint256)": "9e447fc6",
					"setUnstakingFeeRate(uint256)": "91e07e7a",
					"stake(uint256)": "a694fc3a",
					"stakedAmount()": "373d6132",
					"startStaking(uint256,uint256)": "4b77dd9e",
					"token()": "fc0c546a",
					"totalStaked()": "817b1cd2",
					"transferOwnership(address)": "f2fde38b",
					"withdraw(uint256)": "2e1a7d4d"
				}
			},
			"userdoc": {
				"kind": "user",
				"methods": {},
				"version": 1
			}
		}
	}
}