{
	"contracts/Staking.sol": {
		"StakingPlatform": {
			"abi": [
				{
					"inputs": [
						{
							"internalType": "address",
							"name": "_token",
							"type": "address"
						},
						{
							"internalType": "address",
							"name": "__bountyWallet",
							"type": "address"
						}
					],
					"stateMutability": "nonpayable",
					"type": "constructor"
				},
				{
					"anonymous": false,
					"inputs": [
						{
							"indexed": false,
							"internalType": "address",
							"name": "staker",
							"type": "address"
						},
						{
							"indexed": false,
							"internalType": "uint256",
							"name": "rewardToClaim",
							"type": "uint256"
						}
					],
					"name": "Harvest",
					"type": "event"
				},
				{
					"anonymous": false,
					"inputs": [
						{
							"indexed": true,
							"internalType": "address",
							"name": "previousOwner",
							"type": "address"
						},
						{
							"indexed": true,
							"internalType": "address",
							"name": "newOwner",
							"type": "address"
						}
					],
					"name": "OwnershipTransferred",
					"type": "event"
				},
				{
					"anonymous": false,
					"inputs": [
						{
							"indexed": false,
							"internalType": "address",
							"name": "bountyWallet",
							"type": "address"
						}
					],
					"name": "SetBountyWallet",
					"type": "event"
				},
				{
					"anonymous": false,
					"inputs": [
						{
							"indexed": false,
							"internalType": "uint256",
							"name": "lockupDuration",
							"type": "uint256"
						}
					],
					"name": "SetEventPeriod",
					"type": "event"
				},
				{
					"anonymous": false,
					"inputs": [
						{
							"indexed": false,
							"internalType": "uint256",
							"name": "fixedAPY",
							"type": "uint256"
						}
					],
					"name": "SetFixedAPY",
					"type": "event"
				},
				{
					"anonymous": false,
					"inputs": [
						{
							"indexed": false,
							"internalType": "uint256",
							"name": "unstakingFeeRate",
							"type": "uint256"
						}
					],
					"name": "SetUnstakingFeeRate",
					"type": "event"
				},
				{
					"anonymous": false,
					"inputs": [
						{
							"indexed": false,
							"internalType": "address",
							"name": "staker",
							"type": "address"
						},
						{
							"indexed": false,
							"internalType": "uint256",
							"name": "amount",
							"type": "uint256"
						}
					],
					"name": "Staked",
					"type": "event"
				},
				{
					"anonymous": false,
					"inputs": [
						{
							"indexed": false,
							"internalType": "address",
							"name": "staker",
							"type": "address"
						},
						{
							"indexed": false,
							"internalType": "uint256",
							"name": "amount",
							"type": "uint256"
						}
					],
					"name": "Withdraw",
					"type": "event"
				},
				{
					"inputs": [],
					"name": "harvest",
					"outputs": [],
					"stateMutability": "nonpayable",
					"type": "function"
				},
				{
					"inputs": [],
					"name": "owner",
					"outputs": [
						{
							"internalType": "address",
							"name": "",
							"type": "address"
						}
					],
					"stateMutability": "view",
					"type": "function"
				},
				{
					"inputs": [],
					"name": "remainedToNextEvent",
					"outputs": [
						{
							"internalType": "uint256",
							"name": "",
							"type": "uint256"
						}
					],
					"stateMutability": "view",
					"type": "function"
				},
				{
					"inputs": [],
					"name": "renounceOwnership",
					"outputs": [],
					"stateMutability": "nonpayable",
					"type": "function"
				},
				{
					"inputs": [],
					"name": "rewardAmount",
					"outputs": [
						{
							"internalType": "uint256",
							"name": "",
							"type": "uint256"
						}
					],
					"stateMutability": "view",
					"type": "function"
				},
				{
					"inputs": [],
					"name": "rewardToHarvest",
					"outputs": [
						{
							"internalType": "uint256",
							"name": "",
							"type": "uint256"
						}
					],
					"stateMutability": "nonpayable",
					"type": "function"
				},
				{
					"inputs": [
						{
							"internalType": "address",
							"name": "__bountyWallet",
							"type": "address"
						}
					],
					"name": "setBountyWallet",
					"outputs": [],
					"stateMutability": "nonpayable",
					"type": "function"
				},
				{
					"inputs": [
						{
							"internalType": "uint256",
							"name": "__eventPeriod",
							"type": "uint256"
						}
					],
					"name": "setEventPeriod",
					"outputs": [],
					"stateMutability": "nonpayable",
					"type": "function"
				},
				{
					"inputs": [
						{
							"internalType": "uint256",
							"name": "__fixedAPY",
							"type": "uint256"
						}
					],
					"name": "setFixedAPY",
					"outputs": [],
					"stateMutability": "nonpayable",
					"type": "function"
				},
				{
					"inputs": [
						{
							"internalType": "uint256",
							"name": "__unstakingFeeRate",
							"type": "uint256"
						}
					],
					"name": "setUnstakingFeeRate",
					"outputs": [],
					"stateMutability": "nonpayable",
					"type": "function"
				},
				{
					"inputs": [
						{
							"internalType": "uint256",
							"name": "_amount",
							"type": "uint256"
						},
						{
							"internalType": "uint256",
							"name": "_mode",
							"type": "uint256"
						}
					],
					"name": "stake",
					"outputs": [],
					"stateMutability": "nonpayable",
					"type": "function"
				},
				{
					"inputs": [],
					"name": "stakedAmount",
					"outputs": [
						{
							"internalType": "uint256",
							"name": "",
							"type": "uint256"
						}
					],
					"stateMutability": "view",
					"type": "function"
				},
				{
					"inputs": [],
					"name": "token",
					"outputs": [
						{
							"internalType": "contract IBEP20",
							"name": "",
							"type": "address"
						}
					],
					"stateMutability": "view",
					"type": "function"
				},
				{
					"inputs": [],
					"name": "totalStaked",
					"outputs": [
						{
							"internalType": "uint256",
							"name": "",
							"type": "uint256"
						}
					],
					"stateMutability": "view",
					"type": "function"
				},
				{
					"inputs": [
						{
							"internalType": "address",
							"name": "newOwner",
							"type": "address"
						}
					],
					"name": "transferOwnership",
					"outputs": [],
					"stateMutability": "nonpayable",
					"type": "function"
				},
				{
					"inputs": [
						{
							"internalType": "uint256",
							"name": "amount",
							"type": "uint256"
						}
					],
					"name": "withdraw",
					"outputs": [],
					"stateMutability": "nonpayable",
					"type": "function"
				}
			],
			"devdoc": {
				"kind": "dev",
				"methods": {
					"owner()": {
						"details": "Returns the address of the current owner."
					},
					"renounceOwnership()": {
						"details": "Leaves the contract without owner. It will not be possible to call `onlyOwner` functions anymore. Can only be called by the current owner. NOTE: Renouncing ownership will leave the contract without an owner, thereby removing any functionality that is only available to the owner."
					},
					"transferOwnership(address)": {
						"details": "Transfers ownership of the contract to a new account (`newOwner`). Can only be called by the current owner."
					}
				},
				"version": 1
			},
			"evm": {
				"assembly": "    /* \"contracts/Staking.sol\":260:6836  contract StakingPlatform is Ownable {\r... */\n  mstore(0x40, 0x80)\n    /* \"contracts/Staking.sol\":1520:1673  constructor(address _token, address __bountyWallet) {\r... */\n  callvalue\n  dup1\n  iszero\n  tag_1\n  jumpi\n  0x00\n  dup1\n  revert\ntag_1:\n  pop\n  mload(0x40)\n  sub(codesize, bytecodeSize)\n  dup1\n  bytecodeSize\n  dup4\n  codecopy\n  dup2\n  dup2\n  add\n  0x40\n  mstore\n  dup2\n  add\n  swap1\n  tag_2\n  swap2\n  swap1\n  tag_3\n  jump\t// in\ntag_2:\n    /* \"@openzeppelin/contracts/access/Ownable.sol\":921:953  _transferOwnership(_msgSender()) */\n  tag_7\n    /* \"@openzeppelin/contracts/access/Ownable.sol\":940:952  _msgSender() */\n  tag_8\n    /* \"@openzeppelin/contracts/access/Ownable.sol\":940:950  _msgSender */\n  shl(0x20, tag_9)\n    /* \"@openzeppelin/contracts/access/Ownable.sol\":940:952  _msgSender() */\n  0x20\n  shr\n  jump\t// in\ntag_8:\n    /* \"@openzeppelin/contracts/access/Ownable.sol\":921:939  _transferOwnership */\n  shl(0x20, tag_10)\n    /* \"@openzeppelin/contracts/access/Ownable.sol\":921:953  _transferOwnership(_msgSender()) */\n  0x20\n  shr\n  jump\t// in\ntag_7:\n    /* \"contracts/Staking.sol\":1585:1591  Init() */\n  tag_12\n    /* \"contracts/Staking.sol\":1585:1589  Init */\n  shl(0x20, tag_13)\n    /* \"contracts/Staking.sol\":1585:1591  Init() */\n  0x20\n  shr\n  jump\t// in\ntag_12:\n    /* \"contracts/Staking.sol\":1618:1632  __bountyWallet */\n  dup1\n    /* \"contracts/Staking.sol\":1602:1615  _bountyWallet */\n  0x05\n  0x00\n    /* \"contracts/Staking.sol\":1602:1632  _bountyWallet = __bountyWallet */\n  0x0100\n  exp\n  dup2\n  sload\n  dup2\n  0xffffffffffffffffffffffffffffffffffffffff\n  mul\n  not\n  and\n  swap1\n  dup4\n  0xffffffffffffffffffffffffffffffffffffffff\n  and\n  mul\n  or\n  swap1\n  sstore\n  pop\n    /* \"contracts/Staking.sol\":1658:1664  _token */\n  dup2\n    /* \"contracts/Staking.sol\":1643:1648  token */\n  0x08\n  0x00\n    /* \"contracts/Staking.sol\":1643:1665  token = IBEP20(_token) */\n  0x0100\n  exp\n  dup2\n  sload\n  dup2\n  0xffffffffffffffffffffffffffffffffffffffff\n  mul\n  not\n  and\n  swap1\n  dup4\n  0xffffffffffffffffffffffffffffffffffffffff\n  and\n  mul\n  or\n  swap1\n  sstore\n  pop\n    /* \"contracts/Staking.sol\":1520:1673  constructor(address _token, address __bountyWallet) {\r... */\n  pop\n  pop\n    /* \"contracts/Staking.sol\":260:6836  contract StakingPlatform is Ownable {\r... */\n  jump(tag_14)\n    /* \"@openzeppelin/contracts/utils/Context.sol\":640:736  function _msgSender() internal view virtual returns (address) {... */\ntag_9:\n    /* \"@openzeppelin/contracts/utils/Context.sol\":693:700  address */\n  0x00\n    /* \"@openzeppelin/contracts/utils/Context.sol\":719:729  msg.sender */\n  caller\n    /* \"@openzeppelin/contracts/utils/Context.sol\":712:729  return msg.sender */\n  swap1\n  pop\n    /* \"@openzeppelin/contracts/utils/Context.sol\":640:736  function _msgSender() internal view virtual returns (address) {... */\n  swap1\n  jump\t// out\n    /* \"@openzeppelin/contracts/access/Ownable.sol\":2270:2457  function _transferOwnership(address newOwner) internal virtual {... */\ntag_10:\n    /* \"@openzeppelin/contracts/access/Ownable.sol\":2343:2359  address oldOwner */\n  0x00\n    /* \"@openzeppelin/contracts/access/Ownable.sol\":2362:2368  _owner */\n  dup1\n  0x00\n  swap1\n  sload\n  swap1\n  0x0100\n  exp\n  swap1\n  div\n  0xffffffffffffffffffffffffffffffffffffffff\n  and\n    /* \"@openzeppelin/contracts/access/Ownable.sol\":2343:2368  address oldOwner = _owner */\n  swap1\n  pop\n    /* \"@openzeppelin/contracts/access/Ownable.sol\":2387:2395  newOwner */\n  dup2\n    /* \"@openzeppelin/contracts/access/Ownable.sol\":2378:2384  _owner */\n  0x00\n  dup1\n    /* \"@openzeppelin/contracts/access/Ownable.sol\":2378:2395  _owner = newOwner */\n  0x0100\n  exp\n  dup2\n  sload\n  dup2\n  0xffffffffffffffffffffffffffffffffffffffff\n  mul\n  not\n  and\n  swap1\n  dup4\n  0xffffffffffffffffffffffffffffffffffffffff\n  and\n  mul\n  or\n  swap1\n  sstore\n  pop\n    /* \"@openzeppelin/contracts/access/Ownable.sol\":2441:2449  newOwner */\n  dup2\n    /* \"@openzeppelin/contracts/access/Ownable.sol\":2410:2450  OwnershipTransferred(oldOwner, newOwner) */\n  0xffffffffffffffffffffffffffffffffffffffff\n  and\n    /* \"@openzeppelin/contracts/access/Ownable.sol\":2431:2439  oldOwner */\n  dup2\n    /* \"@openzeppelin/contracts/access/Ownable.sol\":2410:2450  OwnershipTransferred(oldOwner, newOwner) */\n  0xffffffffffffffffffffffffffffffffffffffff\n  and\n  0x8be0079c531659141344cd1fd0a4f28419497f9722a3daafe3b4186f6b6457e0\n  mload(0x40)\n  mload(0x40)\n  dup1\n  swap2\n  sub\n  swap1\n  log3\n    /* \"@openzeppelin/contracts/access/Ownable.sol\":2333:2457  {... */\n  pop\n    /* \"@openzeppelin/contracts/access/Ownable.sol\":2270:2457  function _transferOwnership(address newOwner) internal virtual {... */\n  pop\n  jump\t// out\n    /* \"contracts/Staking.sol\":1681:1838  function Init() internal {\r... */\ntag_13:\n    /* \"contracts/Staking.sol\":1729:1732  125 */\n  0x7d\n    /* \"contracts/Staking.sol\":1717:1726  _fixedAPY */\n  0x03\n    /* \"contracts/Staking.sol\":1717:1732  _fixedAPY = 125 */\n  dup2\n  swap1\n  sstore\n  pop\n    /* \"contracts/Staking.sol\":1763:1767  1500 */\n  0x05dc\n    /* \"contracts/Staking.sol\":1743:1760  _unstakingFeeRate */\n  0x01\n    /* \"contracts/Staking.sol\":1743:1767  _unstakingFeeRate = 1500 */\n  dup2\n  swap1\n  sstore\n  pop\n    /* \"contracts/Staking.sol\":1795:1798  200 */\n  0xc8\n    /* \"contracts/Staking.sol\":1778:1792  _rewardFeeRate */\n  0x04\n    /* \"contracts/Staking.sol\":1778:1798  _rewardFeeRate = 200 */\n  dup2\n  swap1\n  sstore\n  pop\n    /* \"contracts/Staking.sol\":1824:1830  7 days */\n  0x093a80\n    /* \"contracts/Staking.sol\":1809:1821  _eventPeriod */\n  0x02\n    /* \"contracts/Staking.sol\":1809:1830  _eventPeriod = 7 days */\n  dup2\n  swap1\n  sstore\n  pop\n    /* \"contracts/Staking.sol\":1681:1838  function Init() internal {\r... */\n  jump\t// out\n    /* \"#utility.yul\":7:150   */\ntag_19:\n    /* \"#utility.yul\":64:69   */\n  0x00\n    /* \"#utility.yul\":95:101   */\n  dup2\n    /* \"#utility.yul\":89:102   */\n  mload\n    /* \"#utility.yul\":80:102   */\n  swap1\n  pop\n    /* \"#utility.yul\":111:144   */\n  tag_21\n    /* \"#utility.yul\":138:143   */\n  dup2\n    /* \"#utility.yul\":111:144   */\n  tag_22\n  jump\t// in\ntag_21:\n    /* \"#utility.yul\":7:150   */\n  swap3\n  swap2\n  pop\n  pop\n  jump\t// out\n    /* \"#utility.yul\":156:663   */\ntag_3:\n    /* \"#utility.yul\":235:241   */\n  0x00\n    /* \"#utility.yul\":243:249   */\n  dup1\n    /* \"#utility.yul\":292:294   */\n  0x40\n    /* \"#utility.yul\":280:289   */\n  dup4\n    /* \"#utility.yul\":271:278   */\n  dup6\n    /* \"#utility.yul\":267:290   */\n  sub\n    /* \"#utility.yul\":263:295   */\n  slt\n    /* \"#utility.yul\":260:379   */\n  iszero\n  tag_24\n  jumpi\n    /* \"#utility.yul\":298:377   */\n  tag_25\n  tag_26\n  jump\t// in\ntag_25:\n    /* \"#utility.yul\":260:379   */\ntag_24:\n    /* \"#utility.yul\":418:419   */\n  0x00\n    /* \"#utility.yul\":443:507   */\n  tag_27\n    /* \"#utility.yul\":499:506   */\n  dup6\n    /* \"#utility.yul\":490:496   */\n  dup3\n    /* \"#utility.yul\":479:488   */\n  dup7\n    /* \"#utility.yul\":475:497   */\n  add\n    /* \"#utility.yul\":443:507   */\n  tag_19\n  jump\t// in\ntag_27:\n    /* \"#utility.yul\":433:507   */\n  swap3\n  pop\n    /* \"#utility.yul\":389:517   */\n  pop\n    /* \"#utility.yul\":556:558   */\n  0x20\n    /* \"#utility.yul\":582:646   */\n  tag_28\n    /* \"#utility.yul\":638:645   */\n  dup6\n    /* \"#utility.yul\":629:635   */\n  dup3\n    /* \"#utility.yul\":618:627   */\n  dup7\n    /* \"#utility.yul\":614:636   */\n  add\n    /* \"#utility.yul\":582:646   */\n  tag_19\n  jump\t// in\ntag_28:\n    /* \"#utility.yul\":572:646   */\n  swap2\n  pop\n    /* \"#utility.yul\":527:656   */\n  pop\n    /* \"#utility.yul\":156:663   */\n  swap3\n  pop\n  swap3\n  swap1\n  pop\n  jump\t// out\n    /* \"#utility.yul\":750:846   */\ntag_31:\n    /* \"#utility.yul\":787:794   */\n  0x00\n    /* \"#utility.yul\":816:840   */\n  tag_33\n    /* \"#utility.yul\":834:839   */\n  dup3\n    /* \"#utility.yul\":816:840   */\n  tag_34\n  jump\t// in\ntag_33:\n    /* \"#utility.yul\":805:840   */\n  swap1\n  pop\n    /* \"#utility.yul\":750:846   */\n  swap2\n  swap1\n  pop\n  jump\t// out\n    /* \"#utility.yul\":852:978   */\ntag_34:\n    /* \"#utility.yul\":889:896   */\n  0x00\n    /* \"#utility.yul\":929:971   */\n  0xffffffffffffffffffffffffffffffffffffffff\n    /* \"#utility.yul\":922:927   */\n  dup3\n    /* \"#utility.yul\":918:972   */\n  and\n    /* \"#utility.yul\":907:972   */\n  swap1\n  pop\n    /* \"#utility.yul\":852:978   */\n  swap2\n  swap1\n  pop\n  jump\t// out\n    /* \"#utility.yul\":1107:1224   */\ntag_26:\n    /* \"#utility.yul\":1216:1217   */\n  0x00\n    /* \"#utility.yul\":1213:1214   */\n  dup1\n    /* \"#utility.yul\":1206:1218   */\n  revert\n    /* \"#utility.yul\":1230:1352   */\ntag_22:\n    /* \"#utility.yul\":1303:1327   */\n  tag_40\n    /* \"#utility.yul\":1321:1326   */\n  dup2\n    /* \"#utility.yul\":1303:1327   */\n  tag_31\n  jump\t// in\ntag_40:\n    /* \"#utility.yul\":1296:1301   */\n  dup2\n    /* \"#utility.yul\":1293:1328   */\n  eq\n    /* \"#utility.yul\":1283:1346   */\n  tag_41\n  jumpi\n    /* \"#utility.yul\":1342:1343   */\n  0x00\n    /* \"#utility.yul\":1339:1340   */\n  dup1\n    /* \"#utility.yul\":1332:1344   */\n  revert\n    /* \"#utility.yul\":1283:1346   */\ntag_41:\n    /* \"#utility.yul\":1230:1352   */\n  pop\n  jump\t// out\n    /* \"contracts/Staking.sol\":260:6836  contract StakingPlatform is Ownable {\r... */\ntag_14:\n  dataSize(sub_0)\n  dup1\n  dataOffset(sub_0)\n  0x00\n  codecopy\n  0x00\n  return\nstop\n\nsub_0: assembly {\n        /* \"contracts/Staking.sol\":260:6836  contract StakingPlatform is Ownable {\r... */\n      mstore(0x40, 0x80)\n      callvalue\n      dup1\n      iszero\n      tag_1\n      jumpi\n      0x00\n      dup1\n      revert\n    tag_1:\n      pop\n      jumpi(tag_2, lt(calldatasize, 0x04))\n      shr(0xe0, calldataload(0x00))\n      dup1\n      0x7b0472f0\n      gt\n      tag_19\n      jumpi\n      dup1\n      0x91e07e7a\n      gt\n      tag_20\n      jumpi\n      dup1\n      0x91e07e7a\n      eq\n      tag_15\n      jumpi\n      dup1\n      0xf2fde38b\n      eq\n      tag_16\n      jumpi\n      dup1\n      0xf7b2a7be\n      eq\n      tag_17\n      jumpi\n      dup1\n      0xfc0c546a\n      eq\n      tag_18\n      jumpi\n      jump(tag_2)\n    tag_20:\n      dup1\n      0x7b0472f0\n      eq\n      tag_11\n      jumpi\n      dup1\n      0x817b1cd2\n      eq\n      tag_12\n      jumpi\n      dup1\n      0x8a9d3839\n      eq\n      tag_13\n      jumpi\n      dup1\n      0x8da5cb5b\n      eq\n      tag_14\n      jumpi\n      jump(tag_2)\n    tag_19:\n      dup1\n      0x5d2ec65d\n      gt\n      tag_21\n      jumpi\n      dup1\n      0x5d2ec65d\n      eq\n      tag_7\n      jumpi\n      dup1\n      0x6413996c\n      eq\n      tag_8\n      jumpi\n      dup1\n      0x692642e7\n      eq\n      tag_9\n      jumpi\n      dup1\n      0x715018a6\n      eq\n      tag_10\n      jumpi\n      jump(tag_2)\n    tag_21:\n      dup1\n      0x2e1a7d4d\n      eq\n      tag_3\n      jumpi\n      dup1\n      0x373d6132\n      eq\n      tag_4\n      jumpi\n      dup1\n      0x4641257d\n      eq\n      tag_5\n      jumpi\n      dup1\n      0x50f19c87\n      eq\n      tag_6\n      jumpi\n    tag_2:\n      0x00\n      dup1\n      revert\n        /* \"contracts/Staking.sol\":3526:4442  function withdraw(uint256 amount) external{\r... */\n    tag_3:\n      tag_22\n      0x04\n      dup1\n      calldatasize\n      sub\n      dup2\n      add\n      swap1\n      tag_23\n      swap2\n      swap1\n      tag_24\n      jump\t// in\n    tag_23:\n      tag_25\n      jump\t// in\n    tag_22:\n      stop\n        /* \"contracts/Staking.sol\":6356:6478  function stakedAmount() public view returns (uint256) {\r... */\n    tag_4:\n      tag_26\n      tag_27\n      jump\t// in\n    tag_26:\n      mload(0x40)\n      tag_28\n      swap2\n      swap1\n      tag_29\n      jump\t// in\n    tag_28:\n      mload(0x40)\n      dup1\n      swap2\n      sub\n      swap1\n      return\n        /* \"contracts/Staking.sol\":5697:6300  function harvest() public{\r... */\n    tag_5:\n      tag_30\n      tag_31\n      jump\t// in\n    tag_30:\n      stop\n        /* \"contracts/Staking.sol\":4450:4653  function setFixedAPY(uint256 __fixedAPY) external onlyOwner {\r... */\n    tag_6:\n      tag_32\n      0x04\n      dup1\n      calldatasize\n      sub\n      dup2\n      add\n      swap1\n      tag_33\n      swap2\n      swap1\n      tag_24\n      jump\t// in\n    tag_33:\n      tag_34\n      jump\t// in\n    tag_32:\n      stop\n        /* \"contracts/Staking.sol\":5505:5656  function rewardToHarvest() public returns (uint256){\r... */\n    tag_7:\n      tag_35\n      tag_36\n      jump\t// in\n    tag_35:\n      mload(0x40)\n      tag_37\n      swap2\n      swap1\n      tag_29\n      jump\t// in\n    tag_37:\n      mload(0x40)\n      dup1\n      swap2\n      sub\n      swap1\n      return\n        /* \"contracts/Staking.sol\":6613:6833  function remainedToNextEvent() public view returns (uint256) {\r... */\n    tag_8:\n      tag_38\n      tag_39\n      jump\t// in\n    tag_38:\n      mload(0x40)\n      tag_40\n      swap2\n      swap1\n      tag_29\n      jump\t// in\n    tag_40:\n      mload(0x40)\n      dup1\n      swap2\n      sub\n      swap1\n      return\n        /* \"contracts/Staking.sol\":4661:4897  function setEventPeriod(uint256 __eventPeriod) external onlyOwner {\r... */\n    tag_9:\n      tag_41\n      0x04\n      dup1\n      calldatasize\n      sub\n      dup2\n      add\n      swap1\n      tag_42\n      swap2\n      swap1\n      tag_24\n      jump\t// in\n    tag_42:\n      tag_43\n      jump\t// in\n    tag_41:\n      stop\n        /* \"@openzeppelin/contracts/access/Ownable.sol\":1668:1769  function renounceOwnership() public virtual onlyOwner {... */\n    tag_10:\n      tag_44\n      tag_45\n      jump\t// in\n    tag_44:\n      stop\n        /* \"contracts/Staking.sol\":2861:3479  function stake(uint256 _amount, uint256 _mode) external{\r... */\n    tag_11:\n      tag_46\n      0x04\n      dup1\n      calldatasize\n      sub\n      dup2\n      add\n      swap1\n      tag_47\n      swap2\n      swap1\n      tag_48\n      jump\t// in\n    tag_47:\n      tag_49\n      jump\t// in\n    tag_46:\n      stop\n        /* \"contracts/Staking.sol\":1014:1040  uint256 public totalStaked */\n    tag_12:\n      tag_50\n      tag_51\n      jump\t// in\n    tag_50:\n      mload(0x40)\n      tag_52\n      swap2\n      swap1\n      tag_29\n      jump\t// in\n    tag_52:\n      mload(0x40)\n      dup1\n      swap2\n      sub\n      swap1\n      return\n        /* \"contracts/Staking.sol\":5179:5446  function setBountyWallet(address __bountyWallet) external onlyOwner {\r... */\n    tag_13:\n      tag_53\n      0x04\n      dup1\n      calldatasize\n      sub\n      dup2\n      add\n      swap1\n      tag_54\n      swap2\n      swap1\n      tag_55\n      jump\t// in\n    tag_54:\n      tag_56\n      jump\t// in\n    tag_53:\n      stop\n        /* \"@openzeppelin/contracts/access/Ownable.sol\":1036:1121  function owner() public view virtual returns (address) {... */\n    tag_14:\n      tag_57\n      tag_58\n      jump\t// in\n    tag_57:\n      mload(0x40)\n      tag_59\n      swap2\n      swap1\n      tag_60\n      jump\t// in\n    tag_59:\n      mload(0x40)\n      dup1\n      swap2\n      sub\n      swap1\n      return\n        /* \"contracts/Staking.sol\":4905:5171  function setUnstakingFeeRate(uint256 __unstakingFeeRate) external onlyOwner {\r... */\n    tag_15:\n      tag_61\n      0x04\n      dup1\n      calldatasize\n      sub\n      dup2\n      add\n      swap1\n      tag_62\n      swap2\n      swap1\n      tag_24\n      jump\t// in\n    tag_62:\n      tag_63\n      jump\t// in\n    tag_61:\n      stop\n        /* \"@openzeppelin/contracts/access/Ownable.sol\":1918:2116  function transferOwnership(address newOwner) public virtual onlyOwner {... */\n    tag_16:\n      tag_64\n      0x04\n      dup1\n      calldatasize\n      sub\n      dup2\n      add\n      swap1\n      tag_65\n      swap2\n      swap1\n      tag_55\n      jump\t// in\n    tag_65:\n      tag_66\n      jump\t// in\n    tag_64:\n      stop\n        /* \"contracts/Staking.sol\":6486:6605  function rewardAmount() public view returns (uint256) {\r... */\n    tag_17:\n      tag_67\n      tag_68\n      jump\t// in\n    tag_67:\n      mload(0x40)\n      tag_69\n      swap2\n      swap1\n      tag_29\n      jump\t// in\n    tag_69:\n      mload(0x40)\n      dup1\n      swap2\n      sub\n      swap1\n      return\n        /* \"contracts/Staking.sol\":1047:1066  IBEP20 public token */\n    tag_18:\n      tag_70\n      tag_71\n      jump\t// in\n    tag_70:\n      mload(0x40)\n      tag_72\n      swap2\n      swap1\n      tag_73\n      jump\t// in\n    tag_72:\n      mload(0x40)\n      dup1\n      swap2\n      sub\n      swap1\n      return\n        /* \"contracts/Staking.sol\":3526:4442  function withdraw(uint256 amount) external{\r... */\n    tag_25:\n        /* \"contracts/Staking.sol\":3581:3602  Staker storage staker */\n      0x00\n        /* \"contracts/Staking.sol\":3605:3612  _staker */\n      0x06\n        /* \"contracts/Staking.sol\":3605:3624  _staker[msg.sender] */\n      0x00\n        /* \"contracts/Staking.sol\":3613:3623  msg.sender */\n      caller\n        /* \"contracts/Staking.sol\":3605:3624  _staker[msg.sender] */\n      0xffffffffffffffffffffffffffffffffffffffff\n      and\n      0xffffffffffffffffffffffffffffffffffffffff\n      and\n      dup2\n      mstore\n      0x20\n      add\n      swap1\n      dup2\n      mstore\n      0x20\n      add\n      0x00\n      keccak256\n        /* \"contracts/Staking.sol\":3581:3624  Staker storage staker = _staker[msg.sender] */\n      swap1\n      pop\n        /* \"contracts/Staking.sol\":3654:3655  0 */\n      0x00\n        /* \"contracts/Staking.sol\":3645:3651  amount */\n      dup3\n        /* \"contracts/Staking.sol\":3645:3655  amount > 0 */\n      gt\n        /* \"contracts/Staking.sol\":3637:3691  require(amount > 0, \"Amount should be greater than 0\") */\n      tag_75\n      jumpi\n      mload(0x40)\n      0x08c379a000000000000000000000000000000000000000000000000000000000\n      dup2\n      mstore\n      0x04\n      add\n      tag_76\n      swap1\n      tag_77\n      jump\t// in\n    tag_76:\n      mload(0x40)\n      dup1\n      swap2\n      sub\n      swap1\n      revert\n    tag_75:\n        /* \"contracts/Staking.sol\":3720:3726  staker */\n      dup1\n        /* \"contracts/Staking.sol\":3720:3739  staker.stakedAmount */\n      0x01\n      add\n      sload\n        /* \"contracts/Staking.sol\":3710:3716  amount */\n      dup3\n        /* \"contracts/Staking.sol\":3710:3739  amount <= staker.stakedAmount */\n      gt\n      iszero\n        /* \"contracts/Staking.sol\":3702:3758  require(amount <= staker.stakedAmount, \"Invalid amount\") */\n      tag_78\n      jumpi\n      mload(0x40)\n      0x08c379a000000000000000000000000000000000000000000000000000000000\n      dup2\n      mstore\n      0x04\n      add\n      tag_79\n      swap1\n      tag_80\n      jump\t// in\n    tag_79:\n      mload(0x40)\n      dup1\n      swap2\n      sub\n      swap1\n      revert\n    tag_78:\n        /* \"contracts/Staking.sol\":3771:3785  updateReward() */\n      tag_81\n        /* \"contracts/Staking.sol\":3771:3783  updateReward */\n      tag_82\n        /* \"contracts/Staking.sol\":3771:3785  updateReward() */\n      jump\t// in\n    tag_81:\n        /* \"contracts/Staking.sol\":3796:3823  uint256 amountTobeWithdrawn */\n      0x00\n        /* \"contracts/Staking.sol\":3835:3840  token */\n      0x08\n      0x00\n      swap1\n      sload\n      swap1\n      0x0100\n      exp\n      swap1\n      div\n      0xffffffffffffffffffffffffffffffffffffffff\n      and\n        /* \"contracts/Staking.sol\":3835:3850  token.balanceOf */\n      0xffffffffffffffffffffffffffffffffffffffff\n      and\n      0x70a08231\n        /* \"contracts/Staking.sol\":3859:3863  this */\n      address\n        /* \"contracts/Staking.sol\":3835:3865  token.balanceOf(address(this)) */\n      mload(0x40)\n      dup3\n      0xffffffff\n      and\n      0xe0\n      shl\n      dup2\n      mstore\n      0x04\n      add\n      tag_83\n      swap2\n      swap1\n      tag_60\n      jump\t// in\n    tag_83:\n      0x20\n      mload(0x40)\n      dup1\n      dup4\n      sub\n      dup2\n      dup7\n      dup1\n      extcodesize\n      iszero\n      dup1\n      iszero\n      tag_84\n      jumpi\n      0x00\n      dup1\n      revert\n    tag_84:\n      pop\n      gas\n      staticcall\n      iszero\n      dup1\n      iszero\n      tag_86\n      jumpi\n      returndatasize\n      0x00\n      dup1\n      returndatacopy\n      revert(0x00, returndatasize)\n    tag_86:\n      pop\n      pop\n      pop\n      pop\n      mload(0x40)\n      returndatasize\n      not(0x1f)\n      0x1f\n      dup3\n      add\n      and\n      dup3\n      add\n      dup1\n      0x40\n      mstore\n      pop\n      dup2\n      add\n      swap1\n      tag_87\n      swap2\n      swap1\n      tag_88\n      jump\t// in\n    tag_87:\n        /* \"contracts/Staking.sol\":3826:3832  amount */\n      dup4\n        /* \"contracts/Staking.sol\":3826:3865  amount < token.balanceOf(address(this)) */\n      lt\n        /* \"contracts/Staking.sol\":3826:3907  amount < token.balanceOf(address(this)) ? amount : token.balanceOf(address(this)) */\n      tag_89\n      jumpi\n        /* \"contracts/Staking.sol\":3877:3882  token */\n      0x08\n      0x00\n      swap1\n      sload\n      swap1\n      0x0100\n      exp\n      swap1\n      div\n      0xffffffffffffffffffffffffffffffffffffffff\n      and\n        /* \"contracts/Staking.sol\":3877:3892  token.balanceOf */\n      0xffffffffffffffffffffffffffffffffffffffff\n      and\n      0x70a08231\n        /* \"contracts/Staking.sol\":3901:3905  this */\n      address\n        /* \"contracts/Staking.sol\":3877:3907  token.balanceOf(address(this)) */\n      mload(0x40)\n      dup3\n      0xffffffff\n      and\n      0xe0\n      shl\n      dup2\n      mstore\n      0x04\n      add\n      tag_90\n      swap2\n      swap1\n      tag_60\n      jump\t// in\n    tag_90:\n      0x20\n      mload(0x40)\n      dup1\n      dup4\n      sub\n      dup2\n      dup7\n      dup1\n      extcodesize\n      iszero\n      dup1\n      iszero\n      tag_91\n      jumpi\n      0x00\n      dup1\n      revert\n    tag_91:\n      pop\n      gas\n      staticcall\n      iszero\n      dup1\n      iszero\n      tag_93\n      jumpi\n      returndatasize\n      0x00\n      dup1\n      returndatacopy\n      revert(0x00, returndatasize)\n    tag_93:\n      pop\n      pop\n      pop\n      pop\n      mload(0x40)\n      returndatasize\n      not(0x1f)\n      0x1f\n      dup3\n      add\n      and\n      dup3\n      add\n      dup1\n      0x40\n      mstore\n      pop\n      dup2\n      add\n      swap1\n      tag_94\n      swap2\n      swap1\n      tag_88\n      jump\t// in\n    tag_94:\n        /* \"contracts/Staking.sol\":3826:3907  amount < token.balanceOf(address(this)) ? amount : token.balanceOf(address(this)) */\n      jump(tag_95)\n    tag_89:\n        /* \"contracts/Staking.sol\":3868:3874  amount */\n      dup3\n        /* \"contracts/Staking.sol\":3826:3907  amount < token.balanceOf(address(this)) ? amount : token.balanceOf(address(this)) */\n    tag_95:\n        /* \"contracts/Staking.sol\":3796:3907  uint256 amountTobeWithdrawn = amount < token.balanceOf(address(this)) ? amount : token.balanceOf(address(this)) */\n      swap1\n      pop\n        /* \"contracts/Staking.sol\":3918:3942  uint256 isLockupTimeOver */\n      0x00\n        /* \"contracts/Staking.sol\":4018:4019  0 */\n      dup1\n        /* \"contracts/Staking.sol\":4002:4014  _eventPeriod */\n      sload(0x02)\n        /* \"contracts/Staking.sol\":3945:3999  block.timestamp.sub(staker.stakeStartTime).div(1 days) */\n      tag_96\n        /* \"contracts/Staking.sol\":3992:3998  1 days */\n      0x015180\n        /* \"contracts/Staking.sol\":3945:3987  block.timestamp.sub(staker.stakeStartTime) */\n      tag_97\n        /* \"contracts/Staking.sol\":3965:3971  staker */\n      dup8\n        /* \"contracts/Staking.sol\":3965:3986  staker.stakeStartTime */\n      0x03\n      add\n      sload\n        /* \"contracts/Staking.sol\":3945:3960  block.timestamp */\n      timestamp\n        /* \"contracts/Staking.sol\":3945:3964  block.timestamp.sub */\n      tag_98\n      swap1\n        /* \"contracts/Staking.sol\":3945:3987  block.timestamp.sub(staker.stakeStartTime) */\n      swap2\n      swap1\n      0xffffffff\n      and\n      jump\t// in\n    tag_97:\n        /* \"contracts/Staking.sol\":3945:3991  block.timestamp.sub(staker.stakeStartTime).div */\n      tag_99\n      swap1\n        /* \"contracts/Staking.sol\":3945:3999  block.timestamp.sub(staker.stakeStartTime).div(1 days) */\n      swap2\n      swap1\n      0xffffffff\n      and\n      jump\t// in\n    tag_96:\n        /* \"contracts/Staking.sol\":3945:4014  block.timestamp.sub(staker.stakeStartTime).div(1 days) % _eventPeriod */\n      tag_100\n      swap2\n      swap1\n      tag_101\n      jump\t// in\n    tag_100:\n        /* \"contracts/Staking.sol\":3945:4019  block.timestamp.sub(staker.stakeStartTime).div(1 days) % _eventPeriod == 0 */\n      eq\n        /* \"contracts/Staking.sol\":3945:4027  block.timestamp.sub(staker.stakeStartTime).div(1 days) % _eventPeriod == 0 ? 0 : 1 */\n      tag_102\n      jumpi\n        /* \"contracts/Staking.sol\":4026:4027  1 */\n      0x01\n        /* \"contracts/Staking.sol\":3945:4027  block.timestamp.sub(staker.stakeStartTime).div(1 days) % _eventPeriod == 0 ? 0 : 1 */\n      jump(tag_103)\n    tag_102:\n        /* \"contracts/Staking.sol\":4022:4023  0 */\n      0x00\n        /* \"contracts/Staking.sol\":3945:4027  block.timestamp.sub(staker.stakeStartTime).div(1 days) % _eventPeriod == 0 ? 0 : 1 */\n    tag_103:\n        /* \"contracts/Staking.sol\":3918:4027  uint256 isLockupTimeOver = block.timestamp.sub(staker.stakeStartTime).div(1 days) % _eventPeriod == 0 ? 0 : 1 */\n      0xff\n      and\n      swap1\n      pop\n        /* \"contracts/Staking.sol\":4060:4175  amountTobeWithdrawn.sub(staker.mode.mul(isLockupTimeOver).mul(amountTobeWithdrawn).mul(_unstakingFeeRate).div(1e4)) */\n      tag_104\n        /* \"contracts/Staking.sol\":4084:4174  staker.mode.mul(isLockupTimeOver).mul(amountTobeWithdrawn).mul(_unstakingFeeRate).div(1e4) */\n      tag_105\n        /* \"contracts/Staking.sol\":4170:4173  1e4 */\n      0x2710\n        /* \"contracts/Staking.sol\":4084:4165  staker.mode.mul(isLockupTimeOver).mul(amountTobeWithdrawn).mul(_unstakingFeeRate) */\n      tag_106\n        /* \"contracts/Staking.sol\":4147:4164  _unstakingFeeRate */\n      sload(0x01)\n        /* \"contracts/Staking.sol\":4084:4142  staker.mode.mul(isLockupTimeOver).mul(amountTobeWithdrawn) */\n      tag_107\n        /* \"contracts/Staking.sol\":4122:4141  amountTobeWithdrawn */\n      dup8\n        /* \"contracts/Staking.sol\":4084:4117  staker.mode.mul(isLockupTimeOver) */\n      tag_108\n        /* \"contracts/Staking.sol\":4100:4116  isLockupTimeOver */\n      dup9\n        /* \"contracts/Staking.sol\":4084:4090  staker */\n      dup12\n        /* \"contracts/Staking.sol\":4084:4095  staker.mode */\n      0x02\n      add\n      sload\n        /* \"contracts/Staking.sol\":4084:4099  staker.mode.mul */\n      tag_109\n      swap1\n        /* \"contracts/Staking.sol\":4084:4117  staker.mode.mul(isLockupTimeOver) */\n      swap2\n      swap1\n      0xffffffff\n      and\n      jump\t// in\n    tag_108:\n        /* \"contracts/Staking.sol\":4084:4121  staker.mode.mul(isLockupTimeOver).mul */\n      tag_109\n      swap1\n        /* \"contracts/Staking.sol\":4084:4142  staker.mode.mul(isLockupTimeOver).mul(amountTobeWithdrawn) */\n      swap2\n      swap1\n      0xffffffff\n      and\n      jump\t// in\n    tag_107:\n        /* \"contracts/Staking.sol\":4084:4146  staker.mode.mul(isLockupTimeOver).mul(amountTobeWithdrawn).mul */\n      tag_109\n      swap1\n        /* \"contracts/Staking.sol\":4084:4165  staker.mode.mul(isLockupTimeOver).mul(amountTobeWithdrawn).mul(_unstakingFeeRate) */\n      swap2\n      swap1\n      0xffffffff\n      and\n      jump\t// in\n    tag_106:\n        /* \"contracts/Staking.sol\":4084:4169  staker.mode.mul(isLockupTimeOver).mul(amountTobeWithdrawn).mul(_unstakingFeeRate).div */\n      tag_99\n      swap1\n        /* \"contracts/Staking.sol\":4084:4174  staker.mode.mul(isLockupTimeOver).mul(amountTobeWithdrawn).mul(_unstakingFeeRate).div(1e4) */\n      swap2\n      swap1\n      0xffffffff\n      and\n      jump\t// in\n    tag_105:\n        /* \"contracts/Staking.sol\":4060:4079  amountTobeWithdrawn */\n      dup4\n        /* \"contracts/Staking.sol\":4060:4083  amountTobeWithdrawn.sub */\n      tag_98\n      swap1\n        /* \"contracts/Staking.sol\":4060:4175  amountTobeWithdrawn.sub(staker.mode.mul(isLockupTimeOver).mul(amountTobeWithdrawn).mul(_unstakingFeeRate).div(1e4)) */\n      swap2\n      swap1\n      0xffffffff\n      and\n      jump\t// in\n    tag_104:\n        /* \"contracts/Staking.sol\":4038:4175  amountTobeWithdrawn = amountTobeWithdrawn.sub(staker.mode.mul(isLockupTimeOver).mul(amountTobeWithdrawn).mul(_unstakingFeeRate).div(1e4)) */\n      swap2\n      pop\n        /* \"contracts/Staking.sol\":4200:4236  totalStaked.sub(amountTobeWithdrawn) */\n      tag_110\n        /* \"contracts/Staking.sol\":4216:4235  amountTobeWithdrawn */\n      dup3\n        /* \"contracts/Staking.sol\":4200:4211  totalStaked */\n      sload(0x07)\n        /* \"contracts/Staking.sol\":4200:4215  totalStaked.sub */\n      tag_98\n      swap1\n        /* \"contracts/Staking.sol\":4200:4236  totalStaked.sub(amountTobeWithdrawn) */\n      swap2\n      swap1\n      0xffffffff\n      and\n      jump\t// in\n    tag_110:\n        /* \"contracts/Staking.sol\":4186:4197  totalStaked */\n      0x07\n        /* \"contracts/Staking.sol\":4186:4236  totalStaked = totalStaked.sub(amountTobeWithdrawn) */\n      dup2\n      swap1\n      sstore\n      pop\n        /* \"contracts/Staking.sol\":4269:4313  staker.stakedAmount.sub(amountTobeWithdrawn) */\n      tag_111\n        /* \"contracts/Staking.sol\":4293:4312  amountTobeWithdrawn */\n      dup3\n        /* \"contracts/Staking.sol\":4269:4275  staker */\n      dup5\n        /* \"contracts/Staking.sol\":4269:4288  staker.stakedAmount */\n      0x01\n      add\n      sload\n        /* \"contracts/Staking.sol\":4269:4292  staker.stakedAmount.sub */\n      tag_98\n      swap1\n        /* \"contracts/Staking.sol\":4269:4313  staker.stakedAmount.sub(amountTobeWithdrawn) */\n      swap2\n      swap1\n      0xffffffff\n      and\n      jump\t// in\n    tag_111:\n        /* \"contracts/Staking.sol\":4247:4253  staker */\n      dup4\n        /* \"contracts/Staking.sol\":4247:4266  staker.stakedAmount */\n      0x01\n      add\n        /* \"contracts/Staking.sol\":4247:4313  staker.stakedAmount = staker.stakedAmount.sub(amountTobeWithdrawn) */\n      dup2\n      swap1\n      sstore\n      pop\n        /* \"contracts/Staking.sol\":4324:4375  token.safeTransfer(msg.sender, amountTobeWithdrawn) */\n      tag_112\n        /* \"contracts/Staking.sol\":4343:4353  msg.sender */\n      caller\n        /* \"contracts/Staking.sol\":4355:4374  amountTobeWithdrawn */\n      dup4\n        /* \"contracts/Staking.sol\":4324:4329  token */\n      0x08\n      0x00\n      swap1\n      sload\n      swap1\n      0x0100\n      exp\n      swap1\n      div\n      0xffffffffffffffffffffffffffffffffffffffff\n      and\n        /* \"contracts/Staking.sol\":4324:4342  token.safeTransfer */\n      0xffffffffffffffffffffffffffffffffffffffff\n      and\n      tag_113\n      swap1\n        /* \"contracts/Staking.sol\":4324:4375  token.safeTransfer(msg.sender, amountTobeWithdrawn) */\n      swap3\n      swap2\n      swap1\n      0xffffffff\n      and\n      jump\t// in\n    tag_112:\n        /* \"contracts/Staking.sol\":4393:4434  Withdraw(msg.sender, amountTobeWithdrawn) */\n      0x884edad9ce6fa2440d8a54cc123490eb96d2768479d49ff9c7366125a9424364\n        /* \"contracts/Staking.sol\":4402:4412  msg.sender */\n      caller\n        /* \"contracts/Staking.sol\":4414:4433  amountTobeWithdrawn */\n      dup4\n        /* \"contracts/Staking.sol\":4393:4434  Withdraw(msg.sender, amountTobeWithdrawn) */\n      mload(0x40)\n      tag_114\n      swap3\n      swap2\n      swap1\n      tag_115\n      jump\t// in\n    tag_114:\n      mload(0x40)\n      dup1\n      swap2\n      sub\n      swap1\n      log1\n        /* \"contracts/Staking.sol\":3568:4442  {\r... */\n      pop\n      pop\n      pop\n        /* \"contracts/Staking.sol\":3526:4442  function withdraw(uint256 amount) external{\r... */\n      pop\n      jump\t// out\n        /* \"contracts/Staking.sol\":6356:6478  function stakedAmount() public view returns (uint256) {\r... */\n    tag_27:\n        /* \"contracts/Staking.sol\":6401:6408  uint256 */\n      0x00\n        /* \"contracts/Staking.sol\":6438:6445  _staker */\n      0x06\n        /* \"contracts/Staking.sol\":6438:6457  _staker[msg.sender] */\n      0x00\n        /* \"contracts/Staking.sol\":6446:6456  msg.sender */\n      caller\n        /* \"contracts/Staking.sol\":6438:6457  _staker[msg.sender] */\n      0xffffffffffffffffffffffffffffffffffffffff\n      and\n      0xffffffffffffffffffffffffffffffffffffffff\n      and\n      dup2\n      mstore\n      0x20\n      add\n      swap1\n      dup2\n      mstore\n      0x20\n      add\n      0x00\n      keccak256\n        /* \"contracts/Staking.sol\":6438:6470  _staker[msg.sender].stakedAmount */\n      0x01\n      add\n      sload\n        /* \"contracts/Staking.sol\":6431:6470  return _staker[msg.sender].stakedAmount */\n      swap1\n      pop\n        /* \"contracts/Staking.sol\":6356:6478  function stakedAmount() public view returns (uint256) {\r... */\n      swap1\n      jump\t// out\n        /* \"contracts/Staking.sol\":5697:6300  function harvest() public{\r... */\n    tag_31:\n        /* \"contracts/Staking.sol\":5743:5757  updateReward() */\n      tag_118\n        /* \"contracts/Staking.sol\":5743:5755  updateReward */\n      tag_82\n        /* \"contracts/Staking.sol\":5743:5757  updateReward() */\n      jump\t// in\n    tag_118:\n        /* \"contracts/Staking.sol\":5768:5789  Staker storage staker */\n      0x00\n        /* \"contracts/Staking.sol\":5792:5799  _staker */\n      0x06\n        /* \"contracts/Staking.sol\":5792:5811  _staker[msg.sender] */\n      0x00\n        /* \"contracts/Staking.sol\":5800:5810  msg.sender */\n      caller\n        /* \"contracts/Staking.sol\":5792:5811  _staker[msg.sender] */\n      0xffffffffffffffffffffffffffffffffffffffff\n      and\n      0xffffffffffffffffffffffffffffffffffffffff\n      and\n      dup2\n      mstore\n      0x20\n      add\n      swap1\n      dup2\n      mstore\n      0x20\n      add\n      0x00\n      keccak256\n        /* \"contracts/Staking.sol\":5768:5811  Staker storage staker = _staker[msg.sender] */\n      swap1\n      pop\n        /* \"contracts/Staking.sol\":5822:5843  uint256 rewardToClaim */\n      0x00\n        /* \"contracts/Staking.sol\":5846:5935  staker.stakerCurrentReward.sub(staker.stakerCurrentReward.mul(_rewardFeeRate).div(10**4)) */\n      tag_119\n        /* \"contracts/Staking.sol\":5877:5934  staker.stakerCurrentReward.mul(_rewardFeeRate).div(10**4) */\n      tag_120\n        /* \"contracts/Staking.sol\":5928:5933  10**4 */\n      0x2710\n        /* \"contracts/Staking.sol\":5877:5923  staker.stakerCurrentReward.mul(_rewardFeeRate) */\n      tag_121\n        /* \"contracts/Staking.sol\":5908:5922  _rewardFeeRate */\n      sload(0x04)\n        /* \"contracts/Staking.sol\":5877:5883  staker */\n      dup7\n        /* \"contracts/Staking.sol\":5877:5903  staker.stakerCurrentReward */\n      0x00\n      add\n      sload\n        /* \"contracts/Staking.sol\":5877:5907  staker.stakerCurrentReward.mul */\n      tag_109\n      swap1\n        /* \"contracts/Staking.sol\":5877:5923  staker.stakerCurrentReward.mul(_rewardFeeRate) */\n      swap2\n      swap1\n      0xffffffff\n      and\n      jump\t// in\n    tag_121:\n        /* \"contracts/Staking.sol\":5877:5927  staker.stakerCurrentReward.mul(_rewardFeeRate).div */\n      tag_99\n      swap1\n        /* \"contracts/Staking.sol\":5877:5934  staker.stakerCurrentReward.mul(_rewardFeeRate).div(10**4) */\n      swap2\n      swap1\n      0xffffffff\n      and\n      jump\t// in\n    tag_120:\n        /* \"contracts/Staking.sol\":5846:5852  staker */\n      dup4\n        /* \"contracts/Staking.sol\":5846:5872  staker.stakerCurrentReward */\n      0x00\n      add\n      sload\n        /* \"contracts/Staking.sol\":5846:5876  staker.stakerCurrentReward.sub */\n      tag_98\n      swap1\n        /* \"contracts/Staking.sol\":5846:5935  staker.stakerCurrentReward.sub(staker.stakerCurrentReward.mul(_rewardFeeRate).div(10**4)) */\n      swap2\n      swap1\n      0xffffffff\n      and\n      jump\t// in\n    tag_119:\n        /* \"contracts/Staking.sol\":5822:5935  uint256 rewardToClaim = staker.stakerCurrentReward.sub(staker.stakerCurrentReward.mul(_rewardFeeRate).div(10**4)) */\n      swap1\n      pop\n        /* \"contracts/Staking.sol\":5980:5981  0 */\n      0x00\n        /* \"contracts/Staking.sol\":5964:5977  rewardToClaim */\n      dup2\n        /* \"contracts/Staking.sol\":5964:5981  rewardToClaim > 0 */\n      gt\n        /* \"contracts/Staking.sol\":5956:6002  require(rewardToClaim > 0, \"Nothing to claim\") */\n      tag_122\n      jumpi\n      mload(0x40)\n      0x08c379a000000000000000000000000000000000000000000000000000000000\n      dup2\n      mstore\n      0x04\n      add\n      tag_123\n      swap1\n      tag_124\n      jump\t// in\n    tag_123:\n      mload(0x40)\n      dup1\n      swap2\n      sub\n      swap1\n      revert\n    tag_122:\n        /* \"contracts/Staking.sol\":6033:6038  token */\n      0x08\n      0x00\n      swap1\n      sload\n      swap1\n      0x0100\n      exp\n      swap1\n      div\n      0xffffffffffffffffffffffffffffffffffffffff\n      and\n        /* \"contracts/Staking.sol\":6033:6048  token.balanceOf */\n      0xffffffffffffffffffffffffffffffffffffffff\n      and\n      0x70a08231\n        /* \"contracts/Staking.sol\":6049:6062  _bountyWallet */\n      0x05\n      0x00\n      swap1\n      sload\n      swap1\n      0x0100\n      exp\n      swap1\n      div\n      0xffffffffffffffffffffffffffffffffffffffff\n      and\n        /* \"contracts/Staking.sol\":6033:6063  token.balanceOf(_bountyWallet) */\n      mload(0x40)\n      dup3\n      0xffffffff\n      and\n      0xe0\n      shl\n      dup2\n      mstore\n      0x04\n      add\n      tag_125\n      swap2\n      swap1\n      tag_60\n      jump\t// in\n    tag_125:\n      0x20\n      mload(0x40)\n      dup1\n      dup4\n      sub\n      dup2\n      dup7\n      dup1\n      extcodesize\n      iszero\n      dup1\n      iszero\n      tag_126\n      jumpi\n      0x00\n      dup1\n      revert\n    tag_126:\n      pop\n      gas\n      staticcall\n      iszero\n      dup1\n      iszero\n      tag_128\n      jumpi\n      returndatasize\n      0x00\n      dup1\n      returndatacopy\n      revert(0x00, returndatasize)\n    tag_128:\n      pop\n      pop\n      pop\n      pop\n      mload(0x40)\n      returndatasize\n      not(0x1f)\n      0x1f\n      dup3\n      add\n      and\n      dup3\n      add\n      dup1\n      0x40\n      mstore\n      pop\n      dup2\n      add\n      swap1\n      tag_129\n      swap2\n      swap1\n      tag_88\n      jump\t// in\n    tag_129:\n        /* \"contracts/Staking.sol\":6017:6030  rewardToClaim */\n      dup2\n        /* \"contracts/Staking.sol\":6017:6063  rewardToClaim > token.balanceOf(_bountyWallet) */\n      gt\n        /* \"contracts/Staking.sol\":6013:6124  if (rewardToClaim > token.balanceOf(_bountyWallet))\r... */\n      iszero\n      tag_130\n      jumpi\n        /* \"contracts/Staking.sol\":6094:6099  token */\n      0x08\n      0x00\n      swap1\n      sload\n      swap1\n      0x0100\n      exp\n      swap1\n      div\n      0xffffffffffffffffffffffffffffffffffffffff\n      and\n        /* \"contracts/Staking.sol\":6094:6109  token.balanceOf */\n      0xffffffffffffffffffffffffffffffffffffffff\n      and\n      0x70a08231\n        /* \"contracts/Staking.sol\":6110:6123  _bountyWallet */\n      0x05\n      0x00\n      swap1\n      sload\n      swap1\n      0x0100\n      exp\n      swap1\n      div\n      0xffffffffffffffffffffffffffffffffffffffff\n      and\n        /* \"contracts/Staking.sol\":6094:6124  token.balanceOf(_bountyWallet) */\n      mload(0x40)\n      dup3\n      0xffffffff\n      and\n      0xe0\n      shl\n      dup2\n      mstore\n      0x04\n      add\n      tag_131\n      swap2\n      swap1\n      tag_60\n      jump\t// in\n    tag_131:\n      0x20\n      mload(0x40)\n      dup1\n      dup4\n      sub\n      dup2\n      dup7\n      dup1\n      extcodesize\n      iszero\n      dup1\n      iszero\n      tag_132\n      jumpi\n      0x00\n      dup1\n      revert\n    tag_132:\n      pop\n      gas\n      staticcall\n      iszero\n      dup1\n      iszero\n      tag_134\n      jumpi\n      returndatasize\n      0x00\n      dup1\n      returndatacopy\n      revert(0x00, returndatasize)\n    tag_134:\n      pop\n      pop\n      pop\n      pop\n      mload(0x40)\n      returndatasize\n      not(0x1f)\n      0x1f\n      dup3\n      add\n      and\n      dup3\n      add\n      dup1\n      0x40\n      mstore\n      pop\n      dup2\n      add\n      swap1\n      tag_135\n      swap2\n      swap1\n      tag_88\n      jump\t// in\n    tag_135:\n        /* \"contracts/Staking.sol\":6078:6124  rewardToClaim = token.balanceOf(_bountyWallet) */\n      swap1\n      pop\n        /* \"contracts/Staking.sol\":6013:6124  if (rewardToClaim > token.balanceOf(_bountyWallet))\r... */\n    tag_130:\n        /* \"contracts/Staking.sol\":6135:6199  token.safeTransferFrom(_bountyWallet, msg.sender, rewardToClaim) */\n      tag_136\n        /* \"contracts/Staking.sol\":6158:6171  _bountyWallet */\n      0x05\n      0x00\n      swap1\n      sload\n      swap1\n      0x0100\n      exp\n      swap1\n      div\n      0xffffffffffffffffffffffffffffffffffffffff\n      and\n        /* \"contracts/Staking.sol\":6173:6183  msg.sender */\n      caller\n        /* \"contracts/Staking.sol\":6185:6198  rewardToClaim */\n      dup4\n        /* \"contracts/Staking.sol\":6135:6140  token */\n      0x08\n      0x00\n      swap1\n      sload\n      swap1\n      0x0100\n      exp\n      swap1\n      div\n      0xffffffffffffffffffffffffffffffffffffffff\n      and\n        /* \"contracts/Staking.sol\":6135:6157  token.safeTransferFrom */\n      0xffffffffffffffffffffffffffffffffffffffff\n      and\n      tag_137\n      swap1\n        /* \"contracts/Staking.sol\":6135:6199  token.safeTransferFrom(_bountyWallet, msg.sender, rewardToClaim) */\n      swap4\n      swap3\n      swap2\n      swap1\n      0xffffffff\n      and\n      jump\t// in\n    tag_136:\n        /* \"contracts/Staking.sol\":6239:6240  0 */\n      0x00\n        /* \"contracts/Staking.sol\":6210:6216  staker */\n      dup3\n        /* \"contracts/Staking.sol\":6210:6236  staker.stakerCurrentReward */\n      0x00\n      add\n        /* \"contracts/Staking.sol\":6210:6240  staker.stakerCurrentReward = 0 */\n      dup2\n      swap1\n      sstore\n      pop\n        /* \"contracts/Staking.sol\":6258:6292  Harvest(msg.sender, rewardToClaim) */\n      0xc9695243a805adb74c91f28311176c65b417e842d5699893cef56d18bfa48cba\n        /* \"contracts/Staking.sol\":6266:6276  msg.sender */\n      caller\n        /* \"contracts/Staking.sol\":6278:6291  rewardToClaim */\n      dup3\n        /* \"contracts/Staking.sol\":6258:6292  Harvest(msg.sender, rewardToClaim) */\n      mload(0x40)\n      tag_138\n      swap3\n      swap2\n      swap1\n      tag_115\n      jump\t// in\n    tag_138:\n      mload(0x40)\n      dup1\n      swap2\n      sub\n      swap1\n      log1\n        /* \"contracts/Staking.sol\":5722:6300  {\r... */\n      pop\n      pop\n        /* \"contracts/Staking.sol\":5697:6300  function harvest() public{\r... */\n      jump\t// out\n        /* \"contracts/Staking.sol\":4450:4653  function setFixedAPY(uint256 __fixedAPY) external onlyOwner {\r... */\n    tag_34:\n        /* \"@openzeppelin/contracts/access/Ownable.sol\":1259:1271  _msgSender() */\n      tag_140\n        /* \"@openzeppelin/contracts/access/Ownable.sol\":1259:1269  _msgSender */\n      tag_141\n        /* \"@openzeppelin/contracts/access/Ownable.sol\":1259:1271  _msgSender() */\n      jump\t// in\n    tag_140:\n        /* \"@openzeppelin/contracts/access/Ownable.sol\":1248:1271  owner() == _msgSender() */\n      0xffffffffffffffffffffffffffffffffffffffff\n      and\n        /* \"@openzeppelin/contracts/access/Ownable.sol\":1248:1255  owner() */\n      tag_142\n        /* \"@openzeppelin/contracts/access/Ownable.sol\":1248:1253  owner */\n      tag_58\n        /* \"@openzeppelin/contracts/access/Ownable.sol\":1248:1255  owner() */\n      jump\t// in\n    tag_142:\n        /* \"@openzeppelin/contracts/access/Ownable.sol\":1248:1271  owner() == _msgSender() */\n      0xffffffffffffffffffffffffffffffffffffffff\n      and\n      eq\n        /* \"@openzeppelin/contracts/access/Ownable.sol\":1240:1308  require(owner() == _msgSender(), \"Ownable: caller is not the owner\") */\n      tag_143\n      jumpi\n      mload(0x40)\n      0x08c379a000000000000000000000000000000000000000000000000000000000\n      dup2\n      mstore\n      0x04\n      add\n      tag_144\n      swap1\n      tag_145\n      jump\t// in\n    tag_144:\n      mload(0x40)\n      dup1\n      swap2\n      sub\n      swap1\n      revert\n    tag_143:\n        /* \"contracts/Staking.sol\":4544:4545  0 */\n      0x00\n        /* \"contracts/Staking.sol\":4531:4541  __fixedAPY */\n      dup2\n        /* \"contracts/Staking.sol\":4531:4545  __fixedAPY > 0 */\n      gt\n        /* \"contracts/Staking.sol\":4523:4561  require(__fixedAPY > 0, \"Invalid APY\") */\n      tag_147\n      jumpi\n      mload(0x40)\n      0x08c379a000000000000000000000000000000000000000000000000000000000\n      dup2\n      mstore\n      0x04\n      add\n      tag_148\n      swap1\n      tag_149\n      jump\t// in\n    tag_148:\n      mload(0x40)\n      dup1\n      swap2\n      sub\n      swap1\n      revert\n    tag_147:\n        /* \"contracts/Staking.sol\":4594:4604  __fixedAPY */\n      dup1\n        /* \"contracts/Staking.sol\":4582:4591  _fixedAPY */\n      0x03\n        /* \"contracts/Staking.sol\":4582:4604  _fixedAPY = __fixedAPY */\n      dup2\n      swap1\n      sstore\n      pop\n        /* \"contracts/Staking.sol\":4622:4645  SetFixedAPY(__fixedAPY) */\n      0xb8f51888a0746f534a064d0d08f74852a939d6cd181760e1cedc7a8396d9e22f\n        /* \"contracts/Staking.sol\":4634:4644  __fixedAPY */\n      dup2\n        /* \"contracts/Staking.sol\":4622:4645  SetFixedAPY(__fixedAPY) */\n      mload(0x40)\n      tag_150\n      swap2\n      swap1\n      tag_29\n      jump\t// in\n    tag_150:\n      mload(0x40)\n      dup1\n      swap2\n      sub\n      swap1\n      log1\n        /* \"contracts/Staking.sol\":4450:4653  function setFixedAPY(uint256 __fixedAPY) external onlyOwner {\r... */\n      pop\n      jump\t// out\n        /* \"contracts/Staking.sol\":5505:5656  function rewardToHarvest() public returns (uint256){\r... */\n    tag_36:\n        /* \"contracts/Staking.sol\":5548:5555  uint256 */\n      0x00\n        /* \"contracts/Staking.sol\":5577:5591  updateReward() */\n      tag_152\n        /* \"contracts/Staking.sol\":5577:5589  updateReward */\n      tag_82\n        /* \"contracts/Staking.sol\":5577:5591  updateReward() */\n      jump\t// in\n    tag_152:\n        /* \"contracts/Staking.sol\":5609:5616  _staker */\n      0x06\n        /* \"contracts/Staking.sol\":5609:5628  _staker[msg.sender] */\n      0x00\n        /* \"contracts/Staking.sol\":5617:5627  msg.sender */\n      caller\n        /* \"contracts/Staking.sol\":5609:5628  _staker[msg.sender] */\n      0xffffffffffffffffffffffffffffffffffffffff\n      and\n      0xffffffffffffffffffffffffffffffffffffffff\n      and\n      dup2\n      mstore\n      0x20\n      add\n      swap1\n      dup2\n      mstore\n      0x20\n      add\n      0x00\n      keccak256\n        /* \"contracts/Staking.sol\":5609:5648  _staker[msg.sender].stakerCurrentReward */\n      0x00\n      add\n      sload\n        /* \"contracts/Staking.sol\":5602:5648  return _staker[msg.sender].stakerCurrentReward */\n      swap1\n      pop\n        /* \"contracts/Staking.sol\":5505:5656  function rewardToHarvest() public returns (uint256){\r... */\n      swap1\n      jump\t// out\n        /* \"contracts/Staking.sol\":6613:6833  function remainedToNextEvent() public view returns (uint256) {\r... */\n    tag_39:\n        /* \"contracts/Staking.sol\":6665:6672  uint256 */\n      0x00\n        /* \"contracts/Staking.sol\":6692:6825  _eventPeriod.sub(1 days).sub(calDaysFromTimestamp(block.timestamp - _staker[msg.sender].stakeStartTime) % (_eventPeriod.sub(1 days))) */\n      tag_154\n        /* \"contracts/Staking.sol\":6799:6823  _eventPeriod.sub(1 days) */\n      tag_155\n        /* \"contracts/Staking.sol\":6816:6822  1 days */\n      0x015180\n        /* \"contracts/Staking.sol\":6799:6811  _eventPeriod */\n      sload(0x02)\n        /* \"contracts/Staking.sol\":6799:6815  _eventPeriod.sub */\n      tag_98\n      swap1\n        /* \"contracts/Staking.sol\":6799:6823  _eventPeriod.sub(1 days) */\n      swap2\n      swap1\n      0xffffffff\n      and\n      jump\t// in\n    tag_155:\n        /* \"contracts/Staking.sol\":6721:6795  calDaysFromTimestamp(block.timestamp - _staker[msg.sender].stakeStartTime) */\n      tag_156\n        /* \"contracts/Staking.sol\":6760:6767  _staker */\n      0x06\n        /* \"contracts/Staking.sol\":6760:6779  _staker[msg.sender] */\n      0x00\n        /* \"contracts/Staking.sol\":6768:6778  msg.sender */\n      caller\n        /* \"contracts/Staking.sol\":6760:6779  _staker[msg.sender] */\n      0xffffffffffffffffffffffffffffffffffffffff\n      and\n      0xffffffffffffffffffffffffffffffffffffffff\n      and\n      dup2\n      mstore\n      0x20\n      add\n      swap1\n      dup2\n      mstore\n      0x20\n      add\n      0x00\n      keccak256\n        /* \"contracts/Staking.sol\":6760:6794  _staker[msg.sender].stakeStartTime */\n      0x03\n      add\n      sload\n        /* \"contracts/Staking.sol\":6742:6757  block.timestamp */\n      timestamp\n        /* \"contracts/Staking.sol\":6742:6794  block.timestamp - _staker[msg.sender].stakeStartTime */\n      tag_157\n      swap2\n      swap1\n      tag_158\n      jump\t// in\n    tag_157:\n        /* \"contracts/Staking.sol\":6721:6741  calDaysFromTimestamp */\n      tag_159\n        /* \"contracts/Staking.sol\":6721:6795  calDaysFromTimestamp(block.timestamp - _staker[msg.sender].stakeStartTime) */\n      jump\t// in\n    tag_156:\n        /* \"contracts/Staking.sol\":6721:6824  calDaysFromTimestamp(block.timestamp - _staker[msg.sender].stakeStartTime) % (_eventPeriod.sub(1 days)) */\n      tag_160\n      swap2\n      swap1\n      tag_101\n      jump\t// in\n    tag_160:\n        /* \"contracts/Staking.sol\":6692:6716  _eventPeriod.sub(1 days) */\n      tag_161\n        /* \"contracts/Staking.sol\":6709:6715  1 days */\n      0x015180\n        /* \"contracts/Staking.sol\":6692:6704  _eventPeriod */\n      sload(0x02)\n        /* \"contracts/Staking.sol\":6692:6708  _eventPeriod.sub */\n      tag_98\n      swap1\n        /* \"contracts/Staking.sol\":6692:6716  _eventPeriod.sub(1 days) */\n      swap2\n      swap1\n      0xffffffff\n      and\n      jump\t// in\n    tag_161:\n        /* \"contracts/Staking.sol\":6692:6720  _eventPeriod.sub(1 days).sub */\n      tag_98\n      swap1\n        /* \"contracts/Staking.sol\":6692:6825  _eventPeriod.sub(1 days).sub(calDaysFromTimestamp(block.timestamp - _staker[msg.sender].stakeStartTime) % (_eventPeriod.sub(1 days))) */\n      swap2\n      swap1\n      0xffffffff\n      and\n      jump\t// in\n    tag_154:\n        /* \"contracts/Staking.sol\":6685:6825  return _eventPeriod.sub(1 days).sub(calDaysFromTimestamp(block.timestamp - _staker[msg.sender].stakeStartTime) % (_eventPeriod.sub(1 days))) */\n      swap1\n      pop\n        /* \"contracts/Staking.sol\":6613:6833  function remainedToNextEvent() public view returns (uint256) {\r... */\n      swap1\n      jump\t// out\n        /* \"contracts/Staking.sol\":4661:4897  function setEventPeriod(uint256 __eventPeriod) external onlyOwner {\r... */\n    tag_43:\n        /* \"@openzeppelin/contracts/access/Ownable.sol\":1259:1271  _msgSender() */\n      tag_163\n        /* \"@openzeppelin/contracts/access/Ownable.sol\":1259:1269  _msgSender */\n      tag_141\n        /* \"@openzeppelin/contracts/access/Ownable.sol\":1259:1271  _msgSender() */\n      jump\t// in\n    tag_163:\n        /* \"@openzeppelin/contracts/access/Ownable.sol\":1248:1271  owner() == _msgSender() */\n      0xffffffffffffffffffffffffffffffffffffffff\n      and\n        /* \"@openzeppelin/contracts/access/Ownable.sol\":1248:1255  owner() */\n      tag_164\n        /* \"@openzeppelin/contracts/access/Ownable.sol\":1248:1253  owner */\n      tag_58\n        /* \"@openzeppelin/contracts/access/Ownable.sol\":1248:1255  owner() */\n      jump\t// in\n    tag_164:\n        /* \"@openzeppelin/contracts/access/Ownable.sol\":1248:1271  owner() == _msgSender() */\n      0xffffffffffffffffffffffffffffffffffffffff\n      and\n      eq\n        /* \"@openzeppelin/contracts/access/Ownable.sol\":1240:1308  require(owner() == _msgSender(), \"Ownable: caller is not the owner\") */\n      tag_165\n      jumpi\n      mload(0x40)\n      0x08c379a000000000000000000000000000000000000000000000000000000000\n      dup2\n      mstore\n      0x04\n      add\n      tag_166\n      swap1\n      tag_145\n      jump\t// in\n    tag_166:\n      mload(0x40)\n      dup1\n      swap2\n      sub\n      swap1\n      revert\n    tag_165:\n        /* \"contracts/Staking.sol\":4772:4773  0 */\n      0x00\n        /* \"contracts/Staking.sol\":4756:4769  __eventPeriod */\n      dup2\n        /* \"contracts/Staking.sol\":4756:4773  __eventPeriod > 0 */\n      gt\n        /* \"contracts/Staking.sol\":4748:4801  require(__eventPeriod > 0, \"Invalid Lockup Duration\") */\n      tag_168\n      jumpi\n      mload(0x40)\n      0x08c379a000000000000000000000000000000000000000000000000000000000\n      dup2\n      mstore\n      0x04\n      add\n      tag_169\n      swap1\n      tag_170\n      jump\t// in\n    tag_169:\n      mload(0x40)\n      dup1\n      swap2\n      sub\n      swap1\n      revert\n    tag_168:\n        /* \"contracts/Staking.sol\":4829:4842  __eventPeriod */\n      dup1\n        /* \"contracts/Staking.sol\":4814:4826  _eventPeriod */\n      0x02\n        /* \"contracts/Staking.sol\":4814:4842  _eventPeriod = __eventPeriod */\n      dup2\n      swap1\n      sstore\n      pop\n        /* \"contracts/Staking.sol\":4860:4889  SetEventPeriod(__eventPeriod) */\n      0x189bda9782663c67a3f95c0aa5455924c711210b00281c60ead2f0dd8dbc924c\n        /* \"contracts/Staking.sol\":4875:4888  __eventPeriod */\n      dup2\n        /* \"contracts/Staking.sol\":4860:4889  SetEventPeriod(__eventPeriod) */\n      mload(0x40)\n      tag_171\n      swap2\n      swap1\n      tag_29\n      jump\t// in\n    tag_171:\n      mload(0x40)\n      dup1\n      swap2\n      sub\n      swap1\n      log1\n        /* \"contracts/Staking.sol\":4661:4897  function setEventPeriod(uint256 __eventPeriod) external onlyOwner {\r... */\n      pop\n      jump\t// out\n        /* \"@openzeppelin/contracts/access/Ownable.sol\":1668:1769  function renounceOwnership() public virtual onlyOwner {... */\n    tag_45:\n        /* \"@openzeppelin/contracts/access/Ownable.sol\":1259:1271  _msgSender() */\n      tag_173\n        /* \"@openzeppelin/contracts/access/Ownable.sol\":1259:1269  _msgSender */\n      tag_141\n        /* \"@openzeppelin/contracts/access/Ownable.sol\":1259:1271  _msgSender() */\n      jump\t// in\n    tag_173:\n        /* \"@openzeppelin/contracts/access/Ownable.sol\":1248:1271  owner() == _msgSender() */\n      0xffffffffffffffffffffffffffffffffffffffff\n      and\n        /* \"@openzeppelin/contracts/access/Ownable.sol\":1248:1255  owner() */\n      tag_174\n        /* \"@openzeppelin/contracts/access/Ownable.sol\":1248:1253  owner */\n      tag_58\n        /* \"@openzeppelin/contracts/access/Ownable.sol\":1248:1255  owner() */\n      jump\t// in\n    tag_174:\n        /* \"@openzeppelin/contracts/access/Ownable.sol\":1248:1271  owner() == _msgSender() */\n      0xffffffffffffffffffffffffffffffffffffffff\n      and\n      eq\n        /* \"@openzeppelin/contracts/access/Ownable.sol\":1240:1308  require(owner() == _msgSender(), \"Ownable: caller is not the owner\") */\n      tag_175\n      jumpi\n      mload(0x40)\n      0x08c379a000000000000000000000000000000000000000000000000000000000\n      dup2\n      mstore\n      0x04\n      add\n      tag_176\n      swap1\n      tag_145\n      jump\t// in\n    tag_176:\n      mload(0x40)\n      dup1\n      swap2\n      sub\n      swap1\n      revert\n    tag_175:\n        /* \"@openzeppelin/contracts/access/Ownable.sol\":1732:1762  _transferOwnership(address(0)) */\n      tag_178\n        /* \"@openzeppelin/contracts/access/Ownable.sol\":1759:1760  0 */\n      0x00\n        /* \"@openzeppelin/contracts/access/Ownable.sol\":1732:1750  _transferOwnership */\n      tag_179\n        /* \"@openzeppelin/contracts/access/Ownable.sol\":1732:1762  _transferOwnership(address(0)) */\n      jump\t// in\n    tag_178:\n        /* \"@openzeppelin/contracts/access/Ownable.sol\":1668:1769  function renounceOwnership() public virtual onlyOwner {... */\n      jump\t// out\n        /* \"contracts/Staking.sol\":2861:3479  function stake(uint256 _amount, uint256 _mode) external{\r... */\n    tag_49:\n        /* \"contracts/Staking.sol\":2955:2956  0 */\n      0x00\n        /* \"contracts/Staking.sol\":2945:2952  _amount */\n      dup3\n        /* \"contracts/Staking.sol\":2945:2956  _amount > 0 */\n      gt\n        /* \"contracts/Staking.sol\":2937:2992  require(_amount > 0, \"Amount should be greater than 0\") */\n      tag_181\n      jumpi\n      mload(0x40)\n      0x08c379a000000000000000000000000000000000000000000000000000000000\n      dup2\n      mstore\n      0x04\n      add\n      tag_182\n      swap1\n      tag_77\n      jump\t// in\n    tag_182:\n      mload(0x40)\n      dup1\n      swap2\n      sub\n      swap1\n      revert\n    tag_181:\n        /* \"contracts/Staking.sol\":3041:3048  _amount */\n      dup2\n        /* \"contracts/Staking.sol\":3011:3016  token */\n      0x08\n      0x00\n      swap1\n      sload\n      swap1\n      0x0100\n      exp\n      swap1\n      div\n      0xffffffffffffffffffffffffffffffffffffffff\n      and\n        /* \"contracts/Staking.sol\":3011:3026  token.balanceOf */\n      0xffffffffffffffffffffffffffffffffffffffff\n      and\n      0x70a08231\n        /* \"contracts/Staking.sol\":3027:3037  msg.sender */\n      caller\n        /* \"contracts/Staking.sol\":3011:3038  token.balanceOf(msg.sender) */\n      mload(0x40)\n      dup3\n      0xffffffff\n      and\n      0xe0\n      shl\n      dup2\n      mstore\n      0x04\n      add\n      tag_183\n      swap2\n      swap1\n      tag_60\n      jump\t// in\n    tag_183:\n      0x20\n      mload(0x40)\n      dup1\n      dup4\n      sub\n      dup2\n      dup7\n      dup1\n      extcodesize\n      iszero\n      dup1\n      iszero\n      tag_184\n      jumpi\n      0x00\n      dup1\n      revert\n    tag_184:\n      pop\n      gas\n      staticcall\n      iszero\n      dup1\n      iszero\n      tag_186\n      jumpi\n      returndatasize\n      0x00\n      dup1\n      returndatacopy\n      revert(0x00, returndatasize)\n    tag_186:\n      pop\n      pop\n      pop\n      pop\n      mload(0x40)\n      returndatasize\n      not(0x1f)\n      0x1f\n      dup3\n      add\n      and\n      dup3\n      add\n      dup1\n      0x40\n      mstore\n      pop\n      dup2\n      add\n      swap1\n      tag_187\n      swap2\n      swap1\n      tag_88\n      jump\t// in\n    tag_187:\n        /* \"contracts/Staking.sol\":3011:3048  token.balanceOf(msg.sender) > _amount */\n      gt\n        /* \"contracts/Staking.sol\":3003:3066  require(token.balanceOf(msg.sender) > _amount, \"Insufficient!\") */\n      tag_188\n      jumpi\n      mload(0x40)\n      0x08c379a000000000000000000000000000000000000000000000000000000000\n      dup2\n      mstore\n      0x04\n      add\n      tag_189\n      swap1\n      tag_190\n      jump\t// in\n    tag_189:\n      mload(0x40)\n      dup1\n      swap2\n      sub\n      swap1\n      revert\n    tag_188:\n        /* \"contracts/Staking.sol\":3087:3101  updateReward() */\n      tag_191\n        /* \"contracts/Staking.sol\":3087:3099  updateReward */\n      tag_82\n        /* \"contracts/Staking.sol\":3087:3101  updateReward() */\n      jump\t// in\n    tag_191:\n        /* \"contracts/Staking.sol\":3112:3133  Staker storage staker */\n      0x00\n        /* \"contracts/Staking.sol\":3136:3143  _staker */\n      0x06\n        /* \"contracts/Staking.sol\":3136:3155  _staker[msg.sender] */\n      0x00\n        /* \"contracts/Staking.sol\":3144:3154  msg.sender */\n      caller\n        /* \"contracts/Staking.sol\":3136:3155  _staker[msg.sender] */\n      0xffffffffffffffffffffffffffffffffffffffff\n      and\n      0xffffffffffffffffffffffffffffffffffffffff\n      and\n      dup2\n      mstore\n      0x20\n      add\n      swap1\n      dup2\n      mstore\n      0x20\n      add\n      0x00\n      keccak256\n        /* \"contracts/Staking.sol\":3112:3155  Staker storage staker = _staker[msg.sender] */\n      swap1\n      pop\n        /* \"contracts/Staking.sol\":3166:3224  token.safeTransferFrom(msg.sender, address(this), _amount) */\n      tag_192\n        /* \"contracts/Staking.sol\":3189:3199  msg.sender */\n      caller\n        /* \"contracts/Staking.sol\":3209:3213  this */\n      address\n        /* \"contracts/Staking.sol\":3216:3223  _amount */\n      dup6\n        /* \"contracts/Staking.sol\":3166:3171  token */\n      0x08\n      0x00\n      swap1\n      sload\n      swap1\n      0x0100\n      exp\n      swap1\n      div\n      0xffffffffffffffffffffffffffffffffffffffff\n      and\n        /* \"contracts/Staking.sol\":3166:3188  token.safeTransferFrom */\n      0xffffffffffffffffffffffffffffffffffffffff\n      and\n      tag_137\n      swap1\n        /* \"contracts/Staking.sol\":3166:3224  token.safeTransferFrom(msg.sender, address(this), _amount) */\n      swap4\n      swap3\n      swap2\n      swap1\n      0xffffffff\n      and\n      jump\t// in\n    tag_192:\n        /* \"contracts/Staking.sol\":3257:3289  staker.stakedAmount.add(_amount) */\n      tag_193\n        /* \"contracts/Staking.sol\":3281:3288  _amount */\n      dup4\n        /* \"contracts/Staking.sol\":3257:3263  staker */\n      dup3\n        /* \"contracts/Staking.sol\":3257:3276  staker.stakedAmount */\n      0x01\n      add\n      sload\n        /* \"contracts/Staking.sol\":3257:3280  staker.stakedAmount.add */\n      tag_194\n      swap1\n        /* \"contracts/Staking.sol\":3257:3289  staker.stakedAmount.add(_amount) */\n      swap2\n      swap1\n      0xffffffff\n      and\n      jump\t// in\n    tag_193:\n        /* \"contracts/Staking.sol\":3235:3241  staker */\n      dup2\n        /* \"contracts/Staking.sol\":3235:3254  staker.stakedAmount */\n      0x01\n      add\n        /* \"contracts/Staking.sol\":3235:3289  staker.stakedAmount = staker.stakedAmount.add(_amount) */\n      dup2\n      swap1\n      sstore\n      pop\n        /* \"contracts/Staking.sol\":3324:3339  block.timestamp */\n      timestamp\n        /* \"contracts/Staking.sol\":3300:3306  staker */\n      dup2\n        /* \"contracts/Staking.sol\":3300:3321  staker.stakeStartTime */\n      0x03\n      add\n        /* \"contracts/Staking.sol\":3300:3339  staker.stakeStartTime = block.timestamp */\n      dup2\n      swap1\n      sstore\n      pop\n        /* \"contracts/Staking.sol\":3364:3369  _mode */\n      dup2\n        /* \"contracts/Staking.sol\":3350:3356  staker */\n      dup2\n        /* \"contracts/Staking.sol\":3350:3361  staker.mode */\n      0x02\n      add\n        /* \"contracts/Staking.sol\":3350:3369  staker.mode = _mode */\n      dup2\n      swap1\n      sstore\n      pop\n        /* \"contracts/Staking.sol\":3394:3418  totalStaked.add(_amount) */\n      tag_195\n        /* \"contracts/Staking.sol\":3410:3417  _amount */\n      dup4\n        /* \"contracts/Staking.sol\":3394:3405  totalStaked */\n      sload(0x07)\n        /* \"contracts/Staking.sol\":3394:3409  totalStaked.add */\n      tag_194\n      swap1\n        /* \"contracts/Staking.sol\":3394:3418  totalStaked.add(_amount) */\n      swap2\n      swap1\n      0xffffffff\n      and\n      jump\t// in\n    tag_195:\n        /* \"contracts/Staking.sol\":3380:3391  totalStaked */\n      0x07\n        /* \"contracts/Staking.sol\":3380:3418  totalStaked = totalStaked.add(_amount) */\n      dup2\n      swap1\n      sstore\n      pop\n        /* \"contracts/Staking.sol\":3444:3471  Staked(msg.sender, _amount) */\n      0x9e71bc8eea02a63969f509818f2dafb9254532904319f9dbda79b67bd34a5f3d\n        /* \"contracts/Staking.sol\":3451:3461  msg.sender */\n      caller\n        /* \"contracts/Staking.sol\":3463:3470  _amount */\n      dup5\n        /* \"contracts/Staking.sol\":3444:3471  Staked(msg.sender, _amount) */\n      mload(0x40)\n      tag_196\n      swap3\n      swap2\n      swap1\n      tag_115\n      jump\t// in\n    tag_196:\n      mload(0x40)\n      dup1\n      swap2\n      sub\n      swap1\n      log1\n        /* \"contracts/Staking.sol\":2916:3479  {\r... */\n      pop\n        /* \"contracts/Staking.sol\":2861:3479  function stake(uint256 _amount, uint256 _mode) external{\r... */\n      pop\n      pop\n      jump\t// out\n        /* \"contracts/Staking.sol\":1014:1040  uint256 public totalStaked */\n    tag_51:\n      sload(0x07)\n      dup2\n      jump\t// out\n        /* \"contracts/Staking.sol\":5179:5446  function setBountyWallet(address __bountyWallet) external onlyOwner {\r... */\n    tag_56:\n        /* \"@openzeppelin/contracts/access/Ownable.sol\":1259:1271  _msgSender() */\n      tag_198\n        /* \"@openzeppelin/contracts/access/Ownable.sol\":1259:1269  _msgSender */\n      tag_141\n        /* \"@openzeppelin/contracts/access/Ownable.sol\":1259:1271  _msgSender() */\n      jump\t// in\n    tag_198:\n        /* \"@openzeppelin/contracts/access/Ownable.sol\":1248:1271  owner() == _msgSender() */\n      0xffffffffffffffffffffffffffffffffffffffff\n      and\n        /* \"@openzeppelin/contracts/access/Ownable.sol\":1248:1255  owner() */\n      tag_199\n        /* \"@openzeppelin/contracts/access/Ownable.sol\":1248:1253  owner */\n      tag_58\n        /* \"@openzeppelin/contracts/access/Ownable.sol\":1248:1255  owner() */\n      jump\t// in\n    tag_199:\n        /* \"@openzeppelin/contracts/access/Ownable.sol\":1248:1271  owner() == _msgSender() */\n      0xffffffffffffffffffffffffffffffffffffffff\n      and\n      eq\n        /* \"@openzeppelin/contracts/access/Ownable.sol\":1240:1308  require(owner() == _msgSender(), \"Ownable: caller is not the owner\") */\n      tag_200\n      jumpi\n      mload(0x40)\n      0x08c379a000000000000000000000000000000000000000000000000000000000\n      dup2\n      mstore\n      0x04\n      add\n      tag_201\n      swap1\n      tag_145\n      jump\t// in\n    tag_201:\n      mload(0x40)\n      dup1\n      swap2\n      sub\n      swap1\n      revert\n    tag_200:\n        /* \"contracts/Staking.sol\":5301:5302  0 */\n      0x00\n        /* \"contracts/Staking.sol\":5276:5303  __bountyWallet > address(0) */\n      0xffffffffffffffffffffffffffffffffffffffff\n      and\n        /* \"contracts/Staking.sol\":5276:5290  __bountyWallet */\n      dup2\n        /* \"contracts/Staking.sol\":5276:5303  __bountyWallet > address(0) */\n      0xffffffffffffffffffffffffffffffffffffffff\n      and\n      gt\n        /* \"contracts/Staking.sol\":5268:5346  require(__bountyWallet > address(0), \"Invalid Address. Address can't be zero\") */\n      tag_203\n      jumpi\n      mload(0x40)\n      0x08c379a000000000000000000000000000000000000000000000000000000000\n      dup2\n      mstore\n      0x04\n      add\n      tag_204\n      swap1\n      tag_205\n      jump\t// in\n    tag_204:\n      mload(0x40)\n      dup1\n      swap2\n      sub\n      swap1\n      revert\n    tag_203:\n        /* \"contracts/Staking.sol\":5375:5389  __bountyWallet */\n      dup1\n        /* \"contracts/Staking.sol\":5359:5372  _bountyWallet */\n      0x05\n      0x00\n        /* \"contracts/Staking.sol\":5359:5389  _bountyWallet = __bountyWallet */\n      0x0100\n      exp\n      dup2\n      sload\n      dup2\n      0xffffffffffffffffffffffffffffffffffffffff\n      mul\n      not\n      and\n      swap1\n      dup4\n      0xffffffffffffffffffffffffffffffffffffffff\n      and\n      mul\n      or\n      swap1\n      sstore\n      pop\n        /* \"contracts/Staking.sol\":5407:5438  SetBountyWallet(__bountyWallet) */\n      0xeda87051e2996c46ee8d576509ffc1826e6df46eef99072f838fecbb88992a87\n        /* \"contracts/Staking.sol\":5423:5437  __bountyWallet */\n      dup2\n        /* \"contracts/Staking.sol\":5407:5438  SetBountyWallet(__bountyWallet) */\n      mload(0x40)\n      tag_206\n      swap2\n      swap1\n      tag_60\n      jump\t// in\n    tag_206:\n      mload(0x40)\n      dup1\n      swap2\n      sub\n      swap1\n      log1\n        /* \"contracts/Staking.sol\":5179:5446  function setBountyWallet(address __bountyWallet) external onlyOwner {\r... */\n      pop\n      jump\t// out\n        /* \"@openzeppelin/contracts/access/Ownable.sol\":1036:1121  function owner() public view virtual returns (address) {... */\n    tag_58:\n        /* \"@openzeppelin/contracts/access/Ownable.sol\":1082:1089  address */\n      0x00\n        /* \"@openzeppelin/contracts/access/Ownable.sol\":1108:1114  _owner */\n      dup1\n      0x00\n      swap1\n      sload\n      swap1\n      0x0100\n      exp\n      swap1\n      div\n      0xffffffffffffffffffffffffffffffffffffffff\n      and\n        /* \"@openzeppelin/contracts/access/Ownable.sol\":1101:1114  return _owner */\n      swap1\n      pop\n        /* \"@openzeppelin/contracts/access/Ownable.sol\":1036:1121  function owner() public view virtual returns (address) {... */\n      swap1\n      jump\t// out\n        /* \"contracts/Staking.sol\":4905:5171  function setUnstakingFeeRate(uint256 __unstakingFeeRate) external onlyOwner {\r... */\n    tag_63:\n        /* \"@openzeppelin/contracts/access/Ownable.sol\":1259:1271  _msgSender() */\n      tag_209\n        /* \"@openzeppelin/contracts/access/Ownable.sol\":1259:1269  _msgSender */\n      tag_141\n        /* \"@openzeppelin/contracts/access/Ownable.sol\":1259:1271  _msgSender() */\n      jump\t// in\n    tag_209:\n        /* \"@openzeppelin/contracts/access/Ownable.sol\":1248:1271  owner() == _msgSender() */\n      0xffffffffffffffffffffffffffffffffffffffff\n      and\n        /* \"@openzeppelin/contracts/access/Ownable.sol\":1248:1255  owner() */\n      tag_210\n        /* \"@openzeppelin/contracts/access/Ownable.sol\":1248:1253  owner */\n      tag_58\n        /* \"@openzeppelin/contracts/access/Ownable.sol\":1248:1255  owner() */\n      jump\t// in\n    tag_210:\n        /* \"@openzeppelin/contracts/access/Ownable.sol\":1248:1271  owner() == _msgSender() */\n      0xffffffffffffffffffffffffffffffffffffffff\n      and\n      eq\n        /* \"@openzeppelin/contracts/access/Ownable.sol\":1240:1308  require(owner() == _msgSender(), \"Ownable: caller is not the owner\") */\n      tag_211\n      jumpi\n      mload(0x40)\n      0x08c379a000000000000000000000000000000000000000000000000000000000\n      dup2\n      mstore\n      0x04\n      add\n      tag_212\n      swap1\n      tag_145\n      jump\t// in\n    tag_212:\n      mload(0x40)\n      dup1\n      swap2\n      sub\n      swap1\n      revert\n    tag_211:\n        /* \"contracts/Staking.sol\":5023:5024  0 */\n      0x00\n        /* \"contracts/Staking.sol\":5002:5020  __unstakingFeeRate */\n      dup2\n        /* \"contracts/Staking.sol\":5002:5024  __unstakingFeeRate > 0 */\n      gt\n        /* \"contracts/Staking.sol\":4994:5055  require(__unstakingFeeRate > 0, \"Invalid Unstaking Fee Rate\") */\n      tag_214\n      jumpi\n      mload(0x40)\n      0x08c379a000000000000000000000000000000000000000000000000000000000\n      dup2\n      mstore\n      0x04\n      add\n      tag_215\n      swap1\n      tag_216\n      jump\t// in\n    tag_215:\n      mload(0x40)\n      dup1\n      swap2\n      sub\n      swap1\n      revert\n    tag_214:\n        /* \"contracts/Staking.sol\":5088:5106  __unstakingFeeRate */\n      dup1\n        /* \"contracts/Staking.sol\":5068:5085  _unstakingFeeRate */\n      0x01\n        /* \"contracts/Staking.sol\":5068:5106  _unstakingFeeRate = __unstakingFeeRate */\n      dup2\n      swap1\n      sstore\n      pop\n        /* \"contracts/Staking.sol\":5124:5163  SetUnstakingFeeRate(__unstakingFeeRate) */\n      0x150c688dd7595bf7862b8ab1fe46756450eb7d731037942b3bbc46f3f0e21b81\n        /* \"contracts/Staking.sol\":5144:5162  __unstakingFeeRate */\n      dup2\n        /* \"contracts/Staking.sol\":5124:5163  SetUnstakingFeeRate(__unstakingFeeRate) */\n      mload(0x40)\n      tag_217\n      swap2\n      swap1\n      tag_29\n      jump\t// in\n    tag_217:\n      mload(0x40)\n      dup1\n      swap2\n      sub\n      swap1\n      log1\n        /* \"contracts/Staking.sol\":4905:5171  function setUnstakingFeeRate(uint256 __unstakingFeeRate) external onlyOwner {\r... */\n      pop\n      jump\t// out\n        /* \"@openzeppelin/contracts/access/Ownable.sol\":1918:2116  function transferOwnership(address newOwner) public virtual onlyOwner {... */\n    tag_66:\n        /* \"@openzeppelin/contracts/access/Ownable.sol\":1259:1271  _msgSender() */\n      tag_219\n        /* \"@openzeppelin/contracts/access/Ownable.sol\":1259:1269  _msgSender */\n      tag_141\n        /* \"@openzeppelin/contracts/access/Ownable.sol\":1259:1271  _msgSender() */\n      jump\t// in\n    tag_219:\n        /* \"@openzeppelin/contracts/access/Ownable.sol\":1248:1271  owner() == _msgSender() */\n      0xffffffffffffffffffffffffffffffffffffffff\n      and\n        /* \"@openzeppelin/contracts/access/Ownable.sol\":1248:1255  owner() */\n      tag_220\n        /* \"@openzeppelin/contracts/access/Ownable.sol\":1248:1253  owner */\n      tag_58\n        /* \"@openzeppelin/contracts/access/Ownable.sol\":1248:1255  owner() */\n      jump\t// in\n    tag_220:\n        /* \"@openzeppelin/contracts/access/Ownable.sol\":1248:1271  owner() == _msgSender() */\n      0xffffffffffffffffffffffffffffffffffffffff\n      and\n      eq\n        /* \"@openzeppelin/contracts/access/Ownable.sol\":1240:1308  require(owner() == _msgSender(), \"Ownable: caller is not the owner\") */\n      tag_221\n      jumpi\n      mload(0x40)\n      0x08c379a000000000000000000000000000000000000000000000000000000000\n      dup2\n      mstore\n      0x04\n      add\n      tag_222\n      swap1\n      tag_145\n      jump\t// in\n    tag_222:\n      mload(0x40)\n      dup1\n      swap2\n      sub\n      swap1\n      revert\n    tag_221:\n        /* \"@openzeppelin/contracts/access/Ownable.sol\":2026:2027  0 */\n      0x00\n        /* \"@openzeppelin/contracts/access/Ownable.sol\":2006:2028  newOwner != address(0) */\n      0xffffffffffffffffffffffffffffffffffffffff\n      and\n        /* \"@openzeppelin/contracts/access/Ownable.sol\":2006:2014  newOwner */\n      dup2\n        /* \"@openzeppelin/contracts/access/Ownable.sol\":2006:2028  newOwner != address(0) */\n      0xffffffffffffffffffffffffffffffffffffffff\n      and\n      eq\n      iszero\n        /* \"@openzeppelin/contracts/access/Ownable.sol\":1998:2071  require(newOwner != address(0), \"Ownable: new owner is the zero address\") */\n      tag_224\n      jumpi\n      mload(0x40)\n      0x08c379a000000000000000000000000000000000000000000000000000000000\n      dup2\n      mstore\n      0x04\n      add\n      tag_225\n      swap1\n      tag_226\n      jump\t// in\n    tag_225:\n      mload(0x40)\n      dup1\n      swap2\n      sub\n      swap1\n      revert\n    tag_224:\n        /* \"@openzeppelin/contracts/access/Ownable.sol\":2081:2109  _transferOwnership(newOwner) */\n      tag_227\n        /* \"@openzeppelin/contracts/access/Ownable.sol\":2100:2108  newOwner */\n      dup2\n        /* \"@openzeppelin/contracts/access/Ownable.sol\":2081:2099  _transferOwnership */\n      tag_179\n        /* \"@openzeppelin/contracts/access/Ownable.sol\":2081:2109  _transferOwnership(newOwner) */\n      jump\t// in\n    tag_227:\n        /* \"@openzeppelin/contracts/access/Ownable.sol\":1918:2116  function transferOwnership(address newOwner) public virtual onlyOwner {... */\n      pop\n      jump\t// out\n        /* \"contracts/Staking.sol\":6486:6605  function rewardAmount() public view returns (uint256) {\r... */\n    tag_68:\n        /* \"contracts/Staking.sol\":6531:6538  uint256 */\n      0x00\n        /* \"contracts/Staking.sol\":6558:6565  _staker */\n      0x06\n        /* \"contracts/Staking.sol\":6558:6577  _staker[msg.sender] */\n      0x00\n        /* \"contracts/Staking.sol\":6566:6576  msg.sender */\n      caller\n        /* \"contracts/Staking.sol\":6558:6577  _staker[msg.sender] */\n      0xffffffffffffffffffffffffffffffffffffffff\n      and\n      0xffffffffffffffffffffffffffffffffffffffff\n      and\n      dup2\n      mstore\n      0x20\n      add\n      swap1\n      dup2\n      mstore\n      0x20\n      add\n      0x00\n      keccak256\n        /* \"contracts/Staking.sol\":6558:6597  _staker[msg.sender].stakerCurrentReward */\n      0x00\n      add\n      sload\n        /* \"contracts/Staking.sol\":6551:6597  return _staker[msg.sender].stakerCurrentReward */\n      swap1\n      pop\n        /* \"contracts/Staking.sol\":6486:6605  function rewardAmount() public view returns (uint256) {\r... */\n      swap1\n      jump\t// out\n        /* \"contracts/Staking.sol\":1047:1066  IBEP20 public token */\n    tag_71:\n      0x08\n      0x00\n      swap1\n      sload\n      swap1\n      0x0100\n      exp\n      swap1\n      div\n      0xffffffffffffffffffffffffffffffffffffffff\n      and\n      dup2\n      jump\t// out\n        /* \"contracts/Staking.sol\":2055:2797  function updateReward() private{\r... */\n    tag_82:\n        /* \"contracts/Staking.sol\":2107:2128  Staker storage staker */\n      0x00\n        /* \"contracts/Staking.sol\":2131:2138  _staker */\n      0x06\n        /* \"contracts/Staking.sol\":2131:2150  _staker[msg.sender] */\n      0x00\n        /* \"contracts/Staking.sol\":2139:2149  msg.sender */\n      caller\n        /* \"contracts/Staking.sol\":2131:2150  _staker[msg.sender] */\n      0xffffffffffffffffffffffffffffffffffffffff\n      and\n      0xffffffffffffffffffffffffffffffffffffffff\n      and\n      dup2\n      mstore\n      0x20\n      add\n      swap1\n      dup2\n      mstore\n      0x20\n      add\n      0x00\n      keccak256\n        /* \"contracts/Staking.sol\":2107:2150  Staker storage staker = _staker[msg.sender] */\n      swap1\n      pop\n        /* \"contracts/Staking.sol\":2182:2188  staker */\n      dup1\n        /* \"contracts/Staking.sol\":2182:2204  staker.lastUpdatedTime */\n      0x04\n      add\n      sload\n        /* \"contracts/Staking.sol\":2164:2179  block.timestamp */\n      timestamp\n        /* \"contracts/Staking.sol\":2164:2204  block.timestamp < staker.lastUpdatedTime */\n      lt\n        /* \"contracts/Staking.sol\":2161:2239  if(block.timestamp < staker.lastUpdatedTime) {\r... */\n      iszero\n      tag_230\n      jumpi\n        /* \"contracts/Staking.sol\":2221:2228  return; */\n      pop\n      jump(tag_229)\n        /* \"contracts/Staking.sol\":2161:2239  if(block.timestamp < staker.lastUpdatedTime) {\r... */\n    tag_230:\n        /* \"contracts/Staking.sol\":2257:2273  uint256 duration */\n      0x00\n        /* \"contracts/Staking.sol\":2276:2337  calDaysFromTimestamp(block.timestamp - staker.stakeStartTime) */\n      tag_231\n        /* \"contracts/Staking.sol\":2315:2321  staker */\n      dup3\n        /* \"contracts/Staking.sol\":2315:2336  staker.stakeStartTime */\n      0x03\n      add\n      sload\n        /* \"contracts/Staking.sol\":2297:2312  block.timestamp */\n      timestamp\n        /* \"contracts/Staking.sol\":2297:2336  block.timestamp - staker.stakeStartTime */\n      tag_232\n      swap2\n      swap1\n      tag_158\n      jump\t// in\n    tag_232:\n        /* \"contracts/Staking.sol\":2276:2296  calDaysFromTimestamp */\n      tag_159\n        /* \"contracts/Staking.sol\":2276:2337  calDaysFromTimestamp(block.timestamp - staker.stakeStartTime) */\n      jump\t// in\n    tag_231:\n        /* \"contracts/Staking.sol\":2257:2337  uint256 duration = calDaysFromTimestamp(block.timestamp - staker.stakeStartTime) */\n      swap1\n      pop\n        /* \"contracts/Staking.sol\":2348:2365  uint256 newReward */\n      0x00\n        /* \"contracts/Staking.sol\":2368:2425  staker.stakedAmount.mul(duration).mul(_fixedAPY).div(1e4) */\n      tag_233\n        /* \"contracts/Staking.sol\":2421:2424  1e4 */\n      0x2710\n        /* \"contracts/Staking.sol\":2368:2416  staker.stakedAmount.mul(duration).mul(_fixedAPY) */\n      tag_234\n        /* \"contracts/Staking.sol\":2406:2415  _fixedAPY */\n      sload(0x03)\n        /* \"contracts/Staking.sol\":2368:2401  staker.stakedAmount.mul(duration) */\n      tag_235\n        /* \"contracts/Staking.sol\":2392:2400  duration */\n      dup7\n        /* \"contracts/Staking.sol\":2368:2374  staker */\n      dup9\n        /* \"contracts/Staking.sol\":2368:2387  staker.stakedAmount */\n      0x01\n      add\n      sload\n        /* \"contracts/Staking.sol\":2368:2391  staker.stakedAmount.mul */\n      tag_109\n      swap1\n        /* \"contracts/Staking.sol\":2368:2401  staker.stakedAmount.mul(duration) */\n      swap2\n      swap1\n      0xffffffff\n      and\n      jump\t// in\n    tag_235:\n        /* \"contracts/Staking.sol\":2368:2405  staker.stakedAmount.mul(duration).mul */\n      tag_109\n      swap1\n        /* \"contracts/Staking.sol\":2368:2416  staker.stakedAmount.mul(duration).mul(_fixedAPY) */\n      swap2\n      swap1\n      0xffffffff\n      and\n      jump\t// in\n    tag_234:\n        /* \"contracts/Staking.sol\":2368:2420  staker.stakedAmount.mul(duration).mul(_fixedAPY).div */\n      tag_99\n      swap1\n        /* \"contracts/Staking.sol\":2368:2425  staker.stakedAmount.mul(duration).mul(_fixedAPY).div(1e4) */\n      swap2\n      swap1\n      0xffffffff\n      and\n      jump\t// in\n    tag_233:\n        /* \"contracts/Staking.sol\":2348:2425  uint256 newReward = staker.stakedAmount.mul(duration).mul(_fixedAPY).div(1e4) */\n      swap1\n      pop\n        /* \"contracts/Staking.sol\":2455:2456  1 */\n      0x01\n        /* \"contracts/Staking.sol\":2440:2446  staker */\n      dup4\n        /* \"contracts/Staking.sol\":2440:2451  staker.mode */\n      0x02\n      add\n      sload\n        /* \"contracts/Staking.sol\":2440:2456  staker.mode == 1 */\n      eq\n        /* \"contracts/Staking.sol\":2436:2658  if (staker.mode == 1) {\r... */\n      iszero\n      tag_236\n      jumpi\n        /* \"contracts/Staking.sol\":2473:2491  uint256 eventCount */\n      0x00\n        /* \"contracts/Staking.sol\":2494:2520  duration.div(_eventPeriod) */\n      tag_237\n        /* \"contracts/Staking.sol\":2507:2519  _eventPeriod */\n      sload(0x02)\n        /* \"contracts/Staking.sol\":2494:2502  duration */\n      dup5\n        /* \"contracts/Staking.sol\":2494:2506  duration.div */\n      tag_99\n      swap1\n        /* \"contracts/Staking.sol\":2494:2520  duration.div(_eventPeriod) */\n      swap2\n      swap1\n      0xffffffff\n      and\n      jump\t// in\n    tag_237:\n        /* \"contracts/Staking.sol\":2473:2520  uint256 eventCount = duration.div(_eventPeriod) */\n      swap1\n      pop\n        /* \"contracts/Staking.sol\":2547:2646  staker.stakedAmount.mul(eventCount).mul(_fixedAPY.mul(calDaysFromTimestamp(_eventPeriod))).div(1e4) */\n      tag_238\n        /* \"contracts/Staking.sol\":2642:2645  1e4 */\n      0x2710\n        /* \"contracts/Staking.sol\":2547:2637  staker.stakedAmount.mul(eventCount).mul(_fixedAPY.mul(calDaysFromTimestamp(_eventPeriod))) */\n      tag_239\n        /* \"contracts/Staking.sol\":2587:2636  _fixedAPY.mul(calDaysFromTimestamp(_eventPeriod)) */\n      tag_240\n        /* \"contracts/Staking.sol\":2601:2635  calDaysFromTimestamp(_eventPeriod) */\n      tag_241\n        /* \"contracts/Staking.sol\":2622:2634  _eventPeriod */\n      sload(0x02)\n        /* \"contracts/Staking.sol\":2601:2621  calDaysFromTimestamp */\n      tag_159\n        /* \"contracts/Staking.sol\":2601:2635  calDaysFromTimestamp(_eventPeriod) */\n      jump\t// in\n    tag_241:\n        /* \"contracts/Staking.sol\":2587:2596  _fixedAPY */\n      sload(0x03)\n        /* \"contracts/Staking.sol\":2587:2600  _fixedAPY.mul */\n      tag_109\n      swap1\n        /* \"contracts/Staking.sol\":2587:2636  _fixedAPY.mul(calDaysFromTimestamp(_eventPeriod)) */\n      swap2\n      swap1\n      0xffffffff\n      and\n      jump\t// in\n    tag_240:\n        /* \"contracts/Staking.sol\":2547:2582  staker.stakedAmount.mul(eventCount) */\n      tag_242\n        /* \"contracts/Staking.sol\":2571:2581  eventCount */\n      dup6\n        /* \"contracts/Staking.sol\":2547:2553  staker */\n      dup10\n        /* \"contracts/Staking.sol\":2547:2566  staker.stakedAmount */\n      0x01\n      add\n      sload\n        /* \"contracts/Staking.sol\":2547:2570  staker.stakedAmount.mul */\n      tag_109\n      swap1\n        /* \"contracts/Staking.sol\":2547:2582  staker.stakedAmount.mul(eventCount) */\n      swap2\n      swap1\n      0xffffffff\n      and\n      jump\t// in\n    tag_242:\n        /* \"contracts/Staking.sol\":2547:2586  staker.stakedAmount.mul(eventCount).mul */\n      tag_109\n      swap1\n        /* \"contracts/Staking.sol\":2547:2637  staker.stakedAmount.mul(eventCount).mul(_fixedAPY.mul(calDaysFromTimestamp(_eventPeriod))) */\n      swap2\n      swap1\n      0xffffffff\n      and\n      jump\t// in\n    tag_239:\n        /* \"contracts/Staking.sol\":2547:2641  staker.stakedAmount.mul(eventCount).mul(_fixedAPY.mul(calDaysFromTimestamp(_eventPeriod))).div */\n      tag_99\n      swap1\n        /* \"contracts/Staking.sol\":2547:2646  staker.stakedAmount.mul(eventCount).mul(_fixedAPY.mul(calDaysFromTimestamp(_eventPeriod))).div(1e4) */\n      swap2\n      swap1\n      0xffffffff\n      and\n      jump\t// in\n    tag_238:\n        /* \"contracts/Staking.sol\":2535:2646  newReward = staker.stakedAmount.mul(eventCount).mul(_fixedAPY.mul(calDaysFromTimestamp(_eventPeriod))).div(1e4) */\n      swap2\n      pop\n        /* \"contracts/Staking.sol\":2458:2658  {\r... */\n      pop\n        /* \"contracts/Staking.sol\":2436:2658  if (staker.mode == 1) {\r... */\n    tag_236:\n        /* \"contracts/Staking.sol\":2697:2738  staker.stakerCurrentReward.add(newReward) */\n      tag_243\n        /* \"contracts/Staking.sol\":2728:2737  newReward */\n      dup2\n        /* \"contracts/Staking.sol\":2697:2703  staker */\n      dup5\n        /* \"contracts/Staking.sol\":2697:2723  staker.stakerCurrentReward */\n      0x00\n      add\n      sload\n        /* \"contracts/Staking.sol\":2697:2727  staker.stakerCurrentReward.add */\n      tag_194\n      swap1\n        /* \"contracts/Staking.sol\":2697:2738  staker.stakerCurrentReward.add(newReward) */\n      swap2\n      swap1\n      0xffffffff\n      and\n      jump\t// in\n    tag_243:\n        /* \"contracts/Staking.sol\":2668:2674  staker */\n      dup4\n        /* \"contracts/Staking.sol\":2668:2694  staker.stakerCurrentReward */\n      0x00\n      add\n        /* \"contracts/Staking.sol\":2668:2738  staker.stakerCurrentReward = staker.stakerCurrentReward.add(newReward) */\n      dup2\n      swap1\n      sstore\n      pop\n        /* \"contracts/Staking.sol\":2774:2789  block.timestamp */\n      timestamp\n        /* \"contracts/Staking.sol\":2749:2755  staker */\n      dup4\n        /* \"contracts/Staking.sol\":2749:2771  staker.lastUpdatedTime */\n      0x04\n      add\n        /* \"contracts/Staking.sol\":2749:2789  staker.lastUpdatedTime = block.timestamp */\n      dup2\n      swap1\n      sstore\n      pop\n        /* \"contracts/Staking.sol\":2086:2797  {\r... */\n      pop\n      pop\n      pop\n        /* \"contracts/Staking.sol\":2055:2797  function updateReward() private{\r... */\n    tag_229:\n      jump\t// out\n        /* \"@openzeppelin/contracts/utils/math/SafeMath.sol\":3108:3204  function sub(uint256 a, uint256 b) internal pure returns (uint256) {... */\n    tag_98:\n        /* \"@openzeppelin/contracts/utils/math/SafeMath.sol\":3166:3173  uint256 */\n      0x00\n        /* \"@openzeppelin/contracts/utils/math/SafeMath.sol\":3196:3197  b */\n      dup2\n        /* \"@openzeppelin/contracts/utils/math/SafeMath.sol\":3192:3193  a */\n      dup4\n        /* \"@openzeppelin/contracts/utils/math/SafeMath.sol\":3192:3197  a - b */\n      tag_245\n      swap2\n      swap1\n      tag_158\n      jump\t// in\n    tag_245:\n        /* \"@openzeppelin/contracts/utils/math/SafeMath.sol\":3185:3197  return a - b */\n      swap1\n      pop\n        /* \"@openzeppelin/contracts/utils/math/SafeMath.sol\":3108:3204  function sub(uint256 a, uint256 b) internal pure returns (uint256) {... */\n      swap3\n      swap2\n      pop\n      pop\n      jump\t// out\n        /* \"@openzeppelin/contracts/utils/math/SafeMath.sol\":3836:3932  function div(uint256 a, uint256 b) internal pure returns (uint256) {... */\n    tag_99:\n        /* \"@openzeppelin/contracts/utils/math/SafeMath.sol\":3894:3901  uint256 */\n      0x00\n        /* \"@openzeppelin/contracts/utils/math/SafeMath.sol\":3924:3925  b */\n      dup2\n        /* \"@openzeppelin/contracts/utils/math/SafeMath.sol\":3920:3921  a */\n      dup4\n        /* \"@openzeppelin/contracts/utils/math/SafeMath.sol\":3920:3925  a / b */\n      tag_247\n      swap2\n      swap1\n      tag_248\n      jump\t// in\n    tag_247:\n        /* \"@openzeppelin/contracts/utils/math/SafeMath.sol\":3913:3925  return a / b */\n      swap1\n      pop\n        /* \"@openzeppelin/contracts/utils/math/SafeMath.sol\":3836:3932  function div(uint256 a, uint256 b) internal pure returns (uint256) {... */\n      swap3\n      swap2\n      pop\n      pop\n      jump\t// out\n        /* \"@openzeppelin/contracts/utils/math/SafeMath.sol\":3451:3547  function mul(uint256 a, uint256 b) internal pure returns (uint256) {... */\n    tag_109:\n        /* \"@openzeppelin/contracts/utils/math/SafeMath.sol\":3509:3516  uint256 */\n      0x00\n        /* \"@openzeppelin/contracts/utils/math/SafeMath.sol\":3539:3540  b */\n      dup2\n        /* \"@openzeppelin/contracts/utils/math/SafeMath.sol\":3535:3536  a */\n      dup4\n        /* \"@openzeppelin/contracts/utils/math/SafeMath.sol\":3535:3540  a * b */\n      tag_250\n      swap2\n      swap1\n      tag_251\n      jump\t// in\n    tag_250:\n        /* \"@openzeppelin/contracts/utils/math/SafeMath.sol\":3528:3540  return a * b */\n      swap1\n      pop\n        /* \"@openzeppelin/contracts/utils/math/SafeMath.sol\":3451:3547  function mul(uint256 a, uint256 b) internal pure returns (uint256) {... */\n      swap3\n      swap2\n      pop\n      pop\n      jump\t// out\n        /* \"contracts/SafeBEP20.sol\":290:467  function safeTransfer(IBEP20 token, address to, uint256 value) internal {\r... */\n    tag_113:\n        /* \"contracts/SafeBEP20.sol\":373:459  _callOptionalReturn(token, abi.encodeWithSelector(token.transfer.selector, to, value)) */\n      tag_253\n        /* \"contracts/SafeBEP20.sol\":393:398  token */\n      dup4\n        /* \"contracts/SafeBEP20.sol\":423:446  token.transfer.selector */\n      shl(0xe0, 0xa9059cbb)\n        /* \"contracts/SafeBEP20.sol\":448:450  to */\n      dup5\n        /* \"contracts/SafeBEP20.sol\":452:457  value */\n      dup5\n        /* \"contracts/SafeBEP20.sol\":400:458  abi.encodeWithSelector(token.transfer.selector, to, value) */\n      add(0x24, mload(0x40))\n      tag_254\n      swap3\n      swap2\n      swap1\n      tag_115\n      jump\t// in\n    tag_254:\n      mload(0x40)\n      0x20\n      dup2\n      dup4\n      sub\n      sub\n      dup2\n      mstore\n      swap1\n      0x40\n      mstore\n      swap1\n      not(0xffffffffffffffffffffffffffffffffffffffffffffffffffffffff)\n      and\n      0x20\n      dup3\n      add\n      dup1\n      mload\n      0xffffffffffffffffffffffffffffffffffffffffffffffffffffffff\n      dup4\n      dup2\n      dup4\n      and\n      or\n      dup4\n      mstore\n      pop\n      pop\n      pop\n      pop\n        /* \"contracts/SafeBEP20.sol\":373:392  _callOptionalReturn */\n      tag_255\n        /* \"contracts/SafeBEP20.sol\":373:459  _callOptionalReturn(token, abi.encodeWithSelector(token.transfer.selector, to, value)) */\n      jump\t// in\n    tag_253:\n        /* \"contracts/SafeBEP20.sol\":290:467  function safeTransfer(IBEP20 token, address to, uint256 value) internal {\r... */\n      pop\n      pop\n      pop\n      jump\t// out\n        /* \"contracts/SafeBEP20.sol\":475:680  function safeTransferFrom(IBEP20 token, address from, address to, uint256 value) internal {\r... */\n    tag_137:\n        /* \"contracts/SafeBEP20.sol\":576:672  _callOptionalReturn(token, abi.encodeWithSelector(token.transferFrom.selector, from, to, value)) */\n      tag_257\n        /* \"contracts/SafeBEP20.sol\":596:601  token */\n      dup5\n        /* \"contracts/SafeBEP20.sol\":626:653  token.transferFrom.selector */\n      shl(0xe0, 0x23b872dd)\n        /* \"contracts/SafeBEP20.sol\":655:659  from */\n      dup6\n        /* \"contracts/SafeBEP20.sol\":661:663  to */\n      dup6\n        /* \"contracts/SafeBEP20.sol\":665:670  value */\n      dup6\n        /* \"contracts/SafeBEP20.sol\":603:671  abi.encodeWithSelector(token.transferFrom.selector, from, to, value) */\n      add(0x24, mload(0x40))\n      tag_258\n      swap4\n      swap3\n      swap2\n      swap1\n      tag_259\n      jump\t// in\n    tag_258:\n      mload(0x40)\n      0x20\n      dup2\n      dup4\n      sub\n      sub\n      dup2\n      mstore\n      swap1\n      0x40\n      mstore\n      swap1\n      not(0xffffffffffffffffffffffffffffffffffffffffffffffffffffffff)\n      and\n      0x20\n      dup3\n      add\n      dup1\n      mload\n      0xffffffffffffffffffffffffffffffffffffffffffffffffffffffff\n      dup4\n      dup2\n      dup4\n      and\n      or\n      dup4\n      mstore\n      pop\n      pop\n      pop\n      pop\n        /* \"contracts/SafeBEP20.sol\":576:595  _callOptionalReturn */\n      tag_255\n        /* \"contracts/SafeBEP20.sol\":576:672  _callOptionalReturn(token, abi.encodeWithSelector(token.transferFrom.selector, from, to, value)) */\n      jump\t// in\n    tag_257:\n        /* \"contracts/SafeBEP20.sol\":475:680  function safeTransferFrom(IBEP20 token, address from, address to, uint256 value) internal {\r... */\n      pop\n      pop\n      pop\n      pop\n      jump\t// out\n        /* \"@openzeppelin/contracts/utils/Context.sol\":640:736  function _msgSender() internal view virtual returns (address) {... */\n    tag_141:\n        /* \"@openzeppelin/contracts/utils/Context.sol\":693:700  address */\n      0x00\n        /* \"@openzeppelin/contracts/utils/Context.sol\":719:729  msg.sender */\n      caller\n        /* \"@openzeppelin/contracts/utils/Context.sol\":712:729  return msg.sender */\n      swap1\n      pop\n        /* \"@openzeppelin/contracts/utils/Context.sol\":640:736  function _msgSender() internal view virtual returns (address) {... */\n      swap1\n      jump\t// out\n        /* \"contracts/Staking.sol\":1846:1980  function calDaysFromTimestamp(uint256 timedur) internal pure returns (uint256) {\r... */\n    tag_159:\n        /* \"contracts/Staking.sol\":1916:1923  uint256 */\n      0x00\n        /* \"contracts/Staking.sol\":1953:1972  timedur.div(1 days) */\n      tag_262\n        /* \"contracts/Staking.sol\":1965:1971  1 days */\n      0x015180\n        /* \"contracts/Staking.sol\":1953:1960  timedur */\n      dup4\n        /* \"contracts/Staking.sol\":1953:1964  timedur.div */\n      tag_99\n      swap1\n        /* \"contracts/Staking.sol\":1953:1972  timedur.div(1 days) */\n      swap2\n      swap1\n      0xffffffff\n      and\n      jump\t// in\n    tag_262:\n        /* \"contracts/Staking.sol\":1946:1972  return timedur.div(1 days) */\n      swap1\n      pop\n        /* \"contracts/Staking.sol\":1846:1980  function calDaysFromTimestamp(uint256 timedur) internal pure returns (uint256) {\r... */\n      swap2\n      swap1\n      pop\n      jump\t// out\n        /* \"@openzeppelin/contracts/access/Ownable.sol\":2270:2457  function _transferOwnership(address newOwner) internal virtual {... */\n    tag_179:\n        /* \"@openzeppelin/contracts/access/Ownable.sol\":2343:2359  address oldOwner */\n      0x00\n        /* \"@openzeppelin/contracts/access/Ownable.sol\":2362:2368  _owner */\n      dup1\n      0x00\n      swap1\n      sload\n      swap1\n      0x0100\n      exp\n      swap1\n      div\n      0xffffffffffffffffffffffffffffffffffffffff\n      and\n        /* \"@openzeppelin/contracts/access/Ownable.sol\":2343:2368  address oldOwner = _owner */\n      swap1\n      pop\n        /* \"@openzeppelin/contracts/access/Ownable.sol\":2387:2395  newOwner */\n      dup2\n        /* \"@openzeppelin/contracts/access/Ownable.sol\":2378:2384  _owner */\n      0x00\n      dup1\n        /* \"@openzeppelin/contracts/access/Ownable.sol\":2378:2395  _owner = newOwner */\n      0x0100\n      exp\n      dup2\n      sload\n      dup2\n      0xffffffffffffffffffffffffffffffffffffffff\n      mul\n      not\n      and\n      swap1\n      dup4\n      0xffffffffffffffffffffffffffffffffffffffff\n      and\n      mul\n      or\n      swap1\n      sstore\n      pop\n        /* \"@openzeppelin/contracts/access/Ownable.sol\":2441:2449  newOwner */\n      dup2\n        /* \"@openzeppelin/contracts/access/Ownable.sol\":2410:2450  OwnershipTransferred(oldOwner, newOwner) */\n      0xffffffffffffffffffffffffffffffffffffffff\n      and\n        /* \"@openzeppelin/contracts/access/Ownable.sol\":2431:2439  oldOwner */\n      dup2\n        /* \"@openzeppelin/contracts/access/Ownable.sol\":2410:2450  OwnershipTransferred(oldOwner, newOwner) */\n      0xffffffffffffffffffffffffffffffffffffffff\n      and\n      0x8be0079c531659141344cd1fd0a4f28419497f9722a3daafe3b4186f6b6457e0\n      mload(0x40)\n      mload(0x40)\n      dup1\n      swap2\n      sub\n      swap1\n      log3\n        /* \"@openzeppelin/contracts/access/Ownable.sol\":2333:2457  {... */\n      pop\n        /* \"@openzeppelin/contracts/access/Ownable.sol\":2270:2457  function _transferOwnership(address newOwner) internal virtual {... */\n      pop\n      jump\t// out\n        /* \"@openzeppelin/contracts/utils/math/SafeMath.sol\":2741:2837  function add(uint256 a, uint256 b) internal pure returns (uint256) {... */\n    tag_194:\n        /* \"@openzeppelin/contracts/utils/math/SafeMath.sol\":2799:2806  uint256 */\n      0x00\n        /* \"@openzeppelin/contracts/utils/math/SafeMath.sol\":2829:2830  b */\n      dup2\n        /* \"@openzeppelin/contracts/utils/math/SafeMath.sol\":2825:2826  a */\n      dup4\n        /* \"@openzeppelin/contracts/utils/math/SafeMath.sol\":2825:2830  a + b */\n      tag_265\n      swap2\n      swap1\n      tag_266\n      jump\t// in\n    tag_265:\n        /* \"@openzeppelin/contracts/utils/math/SafeMath.sol\":2818:2830  return a + b */\n      swap1\n      pop\n        /* \"@openzeppelin/contracts/utils/math/SafeMath.sol\":2741:2837  function add(uint256 a, uint256 b) internal pure returns (uint256) {... */\n      swap3\n      swap2\n      pop\n      pop\n      jump\t// out\n        /* \"contracts/SafeBEP20.sol\":2599:3368  function _callOptionalReturn(IBEP20 token, bytes memory data) private {\r... */\n    tag_255:\n        /* \"contracts/SafeBEP20.sol\":3031:3054  bytes memory returndata */\n      0x00\n        /* \"contracts/SafeBEP20.sol\":3057:3126  address(token).functionCall(data, \"SafeBEP20: low-level call failed\") */\n      tag_268\n        /* \"contracts/SafeBEP20.sol\":3085:3089  data */\n      dup3\n        /* \"contracts/SafeBEP20.sol\":3057:3126  address(token).functionCall(data, \"SafeBEP20: low-level call failed\") */\n      mload(0x40)\n      dup1\n      0x40\n      add\n      0x40\n      mstore\n      dup1\n      0x20\n      dup2\n      mstore\n      0x20\n      add\n      0x5361666542455032303a206c6f772d6c6576656c2063616c6c206661696c6564\n      dup2\n      mstore\n      pop\n        /* \"contracts/SafeBEP20.sol\":3065:3070  token */\n      dup6\n        /* \"contracts/SafeBEP20.sol\":3057:3084  address(token).functionCall */\n      0xffffffffffffffffffffffffffffffffffffffff\n      and\n      tag_269\n      swap1\n        /* \"contracts/SafeBEP20.sol\":3057:3126  address(token).functionCall(data, \"SafeBEP20: low-level call failed\") */\n      swap3\n      swap2\n      swap1\n      0xffffffff\n      and\n      jump\t// in\n    tag_268:\n        /* \"contracts/SafeBEP20.sol\":3031:3126  bytes memory returndata = address(token).functionCall(data, \"SafeBEP20: low-level call failed\") */\n      swap1\n      pop\n        /* \"contracts/SafeBEP20.sol\":3161:3162  0 */\n      0x00\n        /* \"contracts/SafeBEP20.sol\":3141:3151  returndata */\n      dup2\n        /* \"contracts/SafeBEP20.sol\":3141:3158  returndata.length */\n      mload\n        /* \"contracts/SafeBEP20.sol\":3141:3162  returndata.length > 0 */\n      gt\n        /* \"contracts/SafeBEP20.sol\":3137:3361  if (returndata.length > 0) { // Return data is optional\r... */\n      iszero\n      tag_270\n      jumpi\n        /* \"contracts/SafeBEP20.sol\":3283:3293  returndata */\n      dup1\n        /* \"contracts/SafeBEP20.sol\":3272:3302  abi.decode(returndata, (bool)) */\n      dup1\n      0x20\n      add\n      swap1\n      mload\n      dup2\n      add\n      swap1\n      tag_271\n      swap2\n      swap1\n      tag_272\n      jump\t// in\n    tag_271:\n        /* \"contracts/SafeBEP20.sol\":3264:3349  require(abi.decode(returndata, (bool)), \"SafeBEP20: BEP20 operation did not succeed\") */\n      tag_273\n      jumpi\n      mload(0x40)\n      0x08c379a000000000000000000000000000000000000000000000000000000000\n      dup2\n      mstore\n      0x04\n      add\n      tag_274\n      swap1\n      tag_275\n      jump\t// in\n    tag_274:\n      mload(0x40)\n      dup1\n      swap2\n      sub\n      swap1\n      revert\n    tag_273:\n        /* \"contracts/SafeBEP20.sol\":3137:3361  if (returndata.length > 0) { // Return data is optional\r... */\n    tag_270:\n        /* \"contracts/SafeBEP20.sol\":2669:3368  {\r... */\n      pop\n        /* \"contracts/SafeBEP20.sol\":2599:3368  function _callOptionalReturn(IBEP20 token, bytes memory data) private {\r... */\n      pop\n      pop\n      jump\t// out\n        /* \"@openzeppelin/contracts/utils/Address.sol\":3861:4084  function functionCall(... */\n    tag_269:\n        /* \"@openzeppelin/contracts/utils/Address.sol\":3994:4006  bytes memory */\n      0x60\n        /* \"@openzeppelin/contracts/utils/Address.sol\":4025:4077  functionCallWithValue(target, data, 0, errorMessage) */\n      tag_277\n        /* \"@openzeppelin/contracts/utils/Address.sol\":4047:4053  target */\n      dup5\n        /* \"@openzeppelin/contracts/utils/Address.sol\":4055:4059  data */\n      dup5\n        /* \"@openzeppelin/contracts/utils/Address.sol\":4061:4062  0 */\n      0x00\n        /* \"@openzeppelin/contracts/utils/Address.sol\":4064:4076  errorMessage */\n      dup6\n        /* \"@openzeppelin/contracts/utils/Address.sol\":4025:4046  functionCallWithValue */\n      tag_278\n        /* \"@openzeppelin/contracts/utils/Address.sol\":4025:4077  functionCallWithValue(target, data, 0, errorMessage) */\n      jump\t// in\n    tag_277:\n        /* \"@openzeppelin/contracts/utils/Address.sol\":4018:4077  return functionCallWithValue(target, data, 0, errorMessage) */\n      swap1\n      pop\n        /* \"@openzeppelin/contracts/utils/Address.sol\":3861:4084  function functionCall(... */\n      swap4\n      swap3\n      pop\n      pop\n      pop\n      jump\t// out\n        /* \"@openzeppelin/contracts/utils/Address.sol\":4948:5447  function functionCallWithValue(... */\n    tag_278:\n        /* \"@openzeppelin/contracts/utils/Address.sol\":5113:5125  bytes memory */\n      0x60\n        /* \"@openzeppelin/contracts/utils/Address.sol\":5170:5175  value */\n      dup3\n        /* \"@openzeppelin/contracts/utils/Address.sol\":5145:5166  address(this).balance */\n      selfbalance\n        /* \"@openzeppelin/contracts/utils/Address.sol\":5145:5175  address(this).balance >= value */\n      lt\n      iszero\n        /* \"@openzeppelin/contracts/utils/Address.sol\":5137:5218  require(address(this).balance >= value, \"Address: insufficient balance for call\") */\n      tag_280\n      jumpi\n      mload(0x40)\n      0x08c379a000000000000000000000000000000000000000000000000000000000\n      dup2\n      mstore\n      0x04\n      add\n      tag_281\n      swap1\n      tag_282\n      jump\t// in\n    tag_281:\n      mload(0x40)\n      dup1\n      swap2\n      sub\n      swap1\n      revert\n    tag_280:\n        /* \"@openzeppelin/contracts/utils/Address.sol\":5236:5254  isContract(target) */\n      tag_283\n        /* \"@openzeppelin/contracts/utils/Address.sol\":5247:5253  target */\n      dup6\n        /* \"@openzeppelin/contracts/utils/Address.sol\":5236:5246  isContract */\n      tag_284\n        /* \"@openzeppelin/contracts/utils/Address.sol\":5236:5254  isContract(target) */\n      jump\t// in\n    tag_283:\n        /* \"@openzeppelin/contracts/utils/Address.sol\":5228:5288  require(isContract(target), \"Address: call to non-contract\") */\n      tag_285\n      jumpi\n      mload(0x40)\n      0x08c379a000000000000000000000000000000000000000000000000000000000\n      dup2\n      mstore\n      0x04\n      add\n      tag_286\n      swap1\n      tag_287\n      jump\t// in\n    tag_286:\n      mload(0x40)\n      dup1\n      swap2\n      sub\n      swap1\n      revert\n    tag_285:\n        /* \"@openzeppelin/contracts/utils/Address.sol\":5300:5312  bool success */\n      0x00\n        /* \"@openzeppelin/contracts/utils/Address.sol\":5314:5337  bytes memory returndata */\n      dup1\n        /* \"@openzeppelin/contracts/utils/Address.sol\":5341:5347  target */\n      dup7\n        /* \"@openzeppelin/contracts/utils/Address.sol\":5341:5352  target.call */\n      0xffffffffffffffffffffffffffffffffffffffff\n      and\n        /* \"@openzeppelin/contracts/utils/Address.sol\":5360:5365  value */\n      dup6\n        /* \"@openzeppelin/contracts/utils/Address.sol\":5367:5371  data */\n      dup8\n        /* \"@openzeppelin/contracts/utils/Address.sol\":5341:5372  target.call{value: value}(data) */\n      mload(0x40)\n      tag_288\n      swap2\n      swap1\n      tag_289\n      jump\t// in\n    tag_288:\n      0x00\n      mload(0x40)\n      dup1\n      dup4\n      sub\n      dup2\n      dup6\n      dup8\n      gas\n      call\n      swap3\n      pop\n      pop\n      pop\n      returndatasize\n      dup1\n      0x00\n      dup2\n      eq\n      tag_292\n      jumpi\n      mload(0x40)\n      swap2\n      pop\n      and(add(returndatasize, 0x3f), not(0x1f))\n      dup3\n      add\n      0x40\n      mstore\n      returndatasize\n      dup3\n      mstore\n      returndatasize\n      0x00\n      0x20\n      dup5\n      add\n      returndatacopy\n      jump(tag_291)\n    tag_292:\n      0x60\n      swap2\n      pop\n    tag_291:\n      pop\n        /* \"@openzeppelin/contracts/utils/Address.sol\":5299:5372  (bool success, bytes memory returndata) = target.call{value: value}(data) */\n      swap2\n      pop\n      swap2\n      pop\n        /* \"@openzeppelin/contracts/utils/Address.sol\":5389:5440  verifyCallResult(success, returndata, errorMessage) */\n      tag_293\n        /* \"@openzeppelin/contracts/utils/Address.sol\":5406:5413  success */\n      dup3\n        /* \"@openzeppelin/contracts/utils/Address.sol\":5415:5425  returndata */\n      dup3\n        /* \"@openzeppelin/contracts/utils/Address.sol\":5427:5439  errorMessage */\n      dup7\n        /* \"@openzeppelin/contracts/utils/Address.sol\":5389:5405  verifyCallResult */\n      tag_294\n        /* \"@openzeppelin/contracts/utils/Address.sol\":5389:5440  verifyCallResult(success, returndata, errorMessage) */\n      jump\t// in\n    tag_293:\n        /* \"@openzeppelin/contracts/utils/Address.sol\":5382:5440  return verifyCallResult(success, returndata, errorMessage) */\n      swap3\n      pop\n      pop\n      pop\n        /* \"@openzeppelin/contracts/utils/Address.sol\":4948:5447  function functionCallWithValue(... */\n      swap5\n      swap4\n      pop\n      pop\n      pop\n      pop\n      jump\t// out\n        /* \"@openzeppelin/contracts/utils/Address.sol\":1175:1495  function isContract(address account) internal view returns (bool) {... */\n    tag_284:\n        /* \"@openzeppelin/contracts/utils/Address.sol\":1235:1239  bool */\n      0x00\n        /* \"@openzeppelin/contracts/utils/Address.sol\":1487:1488  0 */\n      dup1\n        /* \"@openzeppelin/contracts/utils/Address.sol\":1465:1472  account */\n      dup3\n        /* \"@openzeppelin/contracts/utils/Address.sol\":1465:1484  account.code.length */\n      0xffffffffffffffffffffffffffffffffffffffff\n      and\n      extcodesize\n        /* \"@openzeppelin/contracts/utils/Address.sol\":1465:1488  account.code.length > 0 */\n      gt\n        /* \"@openzeppelin/contracts/utils/Address.sol\":1458:1488  return account.code.length > 0 */\n      swap1\n      pop\n        /* \"@openzeppelin/contracts/utils/Address.sol\":1175:1495  function isContract(address account) internal view returns (bool) {... */\n      swap2\n      swap1\n      pop\n      jump\t// out\n        /* \"@openzeppelin/contracts/utils/Address.sol\":7561:8253  function verifyCallResult(... */\n    tag_294:\n        /* \"@openzeppelin/contracts/utils/Address.sol\":7707:7719  bytes memory */\n      0x60\n        /* \"@openzeppelin/contracts/utils/Address.sol\":7735:7742  success */\n      dup4\n        /* \"@openzeppelin/contracts/utils/Address.sol\":7731:8247  if (success) {... */\n      iszero\n      tag_297\n      jumpi\n        /* \"@openzeppelin/contracts/utils/Address.sol\":7765:7775  returndata */\n      dup3\n        /* \"@openzeppelin/contracts/utils/Address.sol\":7758:7775  return returndata */\n      swap1\n      pop\n      jump(tag_296)\n        /* \"@openzeppelin/contracts/utils/Address.sol\":7731:8247  if (success) {... */\n    tag_297:\n        /* \"@openzeppelin/contracts/utils/Address.sol\":7896:7897  0 */\n      0x00\n        /* \"@openzeppelin/contracts/utils/Address.sol\":7876:7886  returndata */\n      dup4\n        /* \"@openzeppelin/contracts/utils/Address.sol\":7876:7893  returndata.length */\n      mload\n        /* \"@openzeppelin/contracts/utils/Address.sol\":7876:7897  returndata.length > 0 */\n      gt\n        /* \"@openzeppelin/contracts/utils/Address.sol\":7872:8237  if (returndata.length > 0) {... */\n      iszero\n      tag_299\n      jumpi\n        /* \"@openzeppelin/contracts/utils/Address.sol\":8070:8080  returndata */\n      dup3\n        /* \"@openzeppelin/contracts/utils/Address.sol\":8064:8081  mload(returndata) */\n      mload\n        /* \"@openzeppelin/contracts/utils/Address.sol\":8130:8145  returndata_size */\n      dup1\n        /* \"@openzeppelin/contracts/utils/Address.sol\":8117:8127  returndata */\n      dup5\n        /* \"@openzeppelin/contracts/utils/Address.sol\":8113:8115  32 */\n      0x20\n        /* \"@openzeppelin/contracts/utils/Address.sol\":8109:8128  add(32, returndata) */\n      add\n        /* \"@openzeppelin/contracts/utils/Address.sol\":8102:8146  revert(add(32, returndata), returndata_size) */\n      revert\n        /* \"@openzeppelin/contracts/utils/Address.sol\":7872:8237  if (returndata.length > 0) {... */\n    tag_299:\n        /* \"@openzeppelin/contracts/utils/Address.sol\":8209:8221  errorMessage */\n      dup2\n        /* \"@openzeppelin/contracts/utils/Address.sol\":8202:8222  revert(errorMessage) */\n      mload(0x40)\n      0x08c379a000000000000000000000000000000000000000000000000000000000\n      dup2\n      mstore\n      0x04\n      add\n      tag_301\n      swap2\n      swap1\n      tag_302\n      jump\t// in\n    tag_301:\n      mload(0x40)\n      dup1\n      swap2\n      sub\n      swap1\n      revert\n        /* \"@openzeppelin/contracts/utils/Address.sol\":7561:8253  function verifyCallResult(... */\n    tag_296:\n      swap4\n      swap3\n      pop\n      pop\n      pop\n      jump\t// out\n        /* \"#utility.yul\":7:146   */\n    tag_304:\n        /* \"#utility.yul\":53:58   */\n      0x00\n        /* \"#utility.yul\":91:97   */\n      dup2\n        /* \"#utility.yul\":78:98   */\n      calldataload\n        /* \"#utility.yul\":69:98   */\n      swap1\n      pop\n        /* \"#utility.yul\":107:140   */\n      tag_306\n        /* \"#utility.yul\":134:139   */\n      dup2\n        /* \"#utility.yul\":107:140   */\n      tag_307\n      jump\t// in\n    tag_306:\n        /* \"#utility.yul\":7:146   */\n      swap3\n      swap2\n      pop\n      pop\n      jump\t// out\n        /* \"#utility.yul\":152:289   */\n    tag_308:\n        /* \"#utility.yul\":206:211   */\n      0x00\n        /* \"#utility.yul\":237:243   */\n      dup2\n        /* \"#utility.yul\":231:244   */\n      mload\n        /* \"#utility.yul\":222:244   */\n      swap1\n      pop\n        /* \"#utility.yul\":253:283   */\n      tag_310\n        /* \"#utility.yul\":277:282   */\n      dup2\n        /* \"#utility.yul\":253:283   */\n      tag_311\n      jump\t// in\n    tag_310:\n        /* \"#utility.yul\":152:289   */\n      swap3\n      swap2\n      pop\n      pop\n      jump\t// out\n        /* \"#utility.yul\":295:434   */\n    tag_312:\n        /* \"#utility.yul\":341:346   */\n      0x00\n        /* \"#utility.yul\":379:385   */\n      dup2\n        /* \"#utility.yul\":366:386   */\n      calldataload\n        /* \"#utility.yul\":357:386   */\n      swap1\n      pop\n        /* \"#utility.yul\":395:428   */\n      tag_314\n        /* \"#utility.yul\":422:427   */\n      dup2\n        /* \"#utility.yul\":395:428   */\n      tag_315\n      jump\t// in\n    tag_314:\n        /* \"#utility.yul\":295:434   */\n      swap3\n      swap2\n      pop\n      pop\n      jump\t// out\n        /* \"#utility.yul\":440:583   */\n    tag_316:\n        /* \"#utility.yul\":497:502   */\n      0x00\n        /* \"#utility.yul\":528:534   */\n      dup2\n        /* \"#utility.yul\":522:535   */\n      mload\n        /* \"#utility.yul\":513:535   */\n      swap1\n      pop\n        /* \"#utility.yul\":544:577   */\n      tag_318\n        /* \"#utility.yul\":571:576   */\n      dup2\n        /* \"#utility.yul\":544:577   */\n      tag_315\n      jump\t// in\n    tag_318:\n        /* \"#utility.yul\":440:583   */\n      swap3\n      swap2\n      pop\n      pop\n      jump\t// out\n        /* \"#utility.yul\":589:918   */\n    tag_55:\n        /* \"#utility.yul\":648:654   */\n      0x00\n        /* \"#utility.yul\":697:699   */\n      0x20\n        /* \"#utility.yul\":685:694   */\n      dup3\n        /* \"#utility.yul\":676:683   */\n      dup5\n        /* \"#utility.yul\":672:695   */\n      sub\n        /* \"#utility.yul\":668:700   */\n      slt\n        /* \"#utility.yul\":665:784   */\n      iszero\n      tag_320\n      jumpi\n        /* \"#utility.yul\":703:782   */\n      tag_321\n      tag_322\n      jump\t// in\n    tag_321:\n        /* \"#utility.yul\":665:784   */\n    tag_320:\n        /* \"#utility.yul\":823:824   */\n      0x00\n        /* \"#utility.yul\":848:901   */\n      tag_323\n        /* \"#utility.yul\":893:900   */\n      dup5\n        /* \"#utility.yul\":884:890   */\n      dup3\n        /* \"#utility.yul\":873:882   */\n      dup6\n        /* \"#utility.yul\":869:891   */\n      add\n        /* \"#utility.yul\":848:901   */\n      tag_304\n      jump\t// in\n    tag_323:\n        /* \"#utility.yul\":838:901   */\n      swap2\n      pop\n        /* \"#utility.yul\":794:911   */\n      pop\n        /* \"#utility.yul\":589:918   */\n      swap3\n      swap2\n      pop\n      pop\n      jump\t// out\n        /* \"#utility.yul\":924:1269   */\n    tag_272:\n        /* \"#utility.yul\":991:997   */\n      0x00\n        /* \"#utility.yul\":1040:1042   */\n      0x20\n        /* \"#utility.yul\":1028:1037   */\n      dup3\n        /* \"#utility.yul\":1019:1026   */\n      dup5\n        /* \"#utility.yul\":1015:1038   */\n      sub\n        /* \"#utility.yul\":1011:1043   */\n      slt\n        /* \"#utility.yul\":1008:1127   */\n      iszero\n      tag_325\n      jumpi\n        /* \"#utility.yul\":1046:1125   */\n      tag_326\n      tag_322\n      jump\t// in\n    tag_326:\n        /* \"#utility.yul\":1008:1127   */\n    tag_325:\n        /* \"#utility.yul\":1166:1167   */\n      0x00\n        /* \"#utility.yul\":1191:1252   */\n      tag_327\n        /* \"#utility.yul\":1244:1251   */\n      dup5\n        /* \"#utility.yul\":1235:1241   */\n      dup3\n        /* \"#utility.yul\":1224:1233   */\n      dup6\n        /* \"#utility.yul\":1220:1242   */\n      add\n        /* \"#utility.yul\":1191:1252   */\n      tag_308\n      jump\t// in\n    tag_327:\n        /* \"#utility.yul\":1181:1252   */\n      swap2\n      pop\n        /* \"#utility.yul\":1137:1262   */\n      pop\n        /* \"#utility.yul\":924:1269   */\n      swap3\n      swap2\n      pop\n      pop\n      jump\t// out\n        /* \"#utility.yul\":1275:1604   */\n    tag_24:\n        /* \"#utility.yul\":1334:1340   */\n      0x00\n        /* \"#utility.yul\":1383:1385   */\n      0x20\n        /* \"#utility.yul\":1371:1380   */\n      dup3\n        /* \"#utility.yul\":1362:1369   */\n      dup5\n        /* \"#utility.yul\":1358:1381   */\n      sub\n        /* \"#utility.yul\":1354:1386   */\n      slt\n        /* \"#utility.yul\":1351:1470   */\n      iszero\n      tag_329\n      jumpi\n        /* \"#utility.yul\":1389:1468   */\n      tag_330\n      tag_322\n      jump\t// in\n    tag_330:\n        /* \"#utility.yul\":1351:1470   */\n    tag_329:\n        /* \"#utility.yul\":1509:1510   */\n      0x00\n        /* \"#utility.yul\":1534:1587   */\n      tag_331\n        /* \"#utility.yul\":1579:1586   */\n      dup5\n        /* \"#utility.yul\":1570:1576   */\n      dup3\n        /* \"#utility.yul\":1559:1568   */\n      dup6\n        /* \"#utility.yul\":1555:1577   */\n      add\n        /* \"#utility.yul\":1534:1587   */\n      tag_312\n      jump\t// in\n    tag_331:\n        /* \"#utility.yul\":1524:1587   */\n      swap2\n      pop\n        /* \"#utility.yul\":1480:1597   */\n      pop\n        /* \"#utility.yul\":1275:1604   */\n      swap3\n      swap2\n      pop\n      pop\n      jump\t// out\n        /* \"#utility.yul\":1610:1961   */\n    tag_88:\n        /* \"#utility.yul\":1680:1686   */\n      0x00\n        /* \"#utility.yul\":1729:1731   */\n      0x20\n        /* \"#utility.yul\":1717:1726   */\n      dup3\n        /* \"#utility.yul\":1708:1715   */\n      dup5\n        /* \"#utility.yul\":1704:1727   */\n      sub\n        /* \"#utility.yul\":1700:1732   */\n      slt\n        /* \"#utility.yul\":1697:1816   */\n      iszero\n      tag_333\n      jumpi\n        /* \"#utility.yul\":1735:1814   */\n      tag_334\n      tag_322\n      jump\t// in\n    tag_334:\n        /* \"#utility.yul\":1697:1816   */\n    tag_333:\n        /* \"#utility.yul\":1855:1856   */\n      0x00\n        /* \"#utility.yul\":1880:1944   */\n      tag_335\n        /* \"#utility.yul\":1936:1943   */\n      dup5\n        /* \"#utility.yul\":1927:1933   */\n      dup3\n        /* \"#utility.yul\":1916:1925   */\n      dup6\n        /* \"#utility.yul\":1912:1934   */\n      add\n        /* \"#utility.yul\":1880:1944   */\n      tag_316\n      jump\t// in\n    tag_335:\n        /* \"#utility.yul\":1870:1944   */\n      swap2\n      pop\n        /* \"#utility.yul\":1826:1954   */\n      pop\n        /* \"#utility.yul\":1610:1961   */\n      swap3\n      swap2\n      pop\n      pop\n      jump\t// out\n        /* \"#utility.yul\":1967:2441   */\n    tag_48:\n        /* \"#utility.yul\":2035:2041   */\n      0x00\n        /* \"#utility.yul\":2043:2049   */\n      dup1\n        /* \"#utility.yul\":2092:2094   */\n      0x40\n        /* \"#utility.yul\":2080:2089   */\n      dup4\n        /* \"#utility.yul\":2071:2078   */\n      dup6\n        /* \"#utility.yul\":2067:2090   */\n      sub\n        /* \"#utility.yul\":2063:2095   */\n      slt\n        /* \"#utility.yul\":2060:2179   */\n      iszero\n      tag_337\n      jumpi\n        /* \"#utility.yul\":2098:2177   */\n      tag_338\n      tag_322\n      jump\t// in\n    tag_338:\n        /* \"#utility.yul\":2060:2179   */\n    tag_337:\n        /* \"#utility.yul\":2218:2219   */\n      0x00\n        /* \"#utility.yul\":2243:2296   */\n      tag_339\n        /* \"#utility.yul\":2288:2295   */\n      dup6\n        /* \"#utility.yul\":2279:2285   */\n      dup3\n        /* \"#utility.yul\":2268:2277   */\n      dup7\n        /* \"#utility.yul\":2264:2286   */\n      add\n        /* \"#utility.yul\":2243:2296   */\n      tag_312\n      jump\t// in\n    tag_339:\n        /* \"#utility.yul\":2233:2296   */\n      swap3\n      pop\n        /* \"#utility.yul\":2189:2306   */\n      pop\n        /* \"#utility.yul\":2345:2347   */\n      0x20\n        /* \"#utility.yul\":2371:2424   */\n      tag_340\n        /* \"#utility.yul\":2416:2423   */\n      dup6\n        /* \"#utility.yul\":2407:2413   */\n      dup3\n        /* \"#utility.yul\":2396:2405   */\n      dup7\n        /* \"#utility.yul\":2392:2414   */\n      add\n        /* \"#utility.yul\":2371:2424   */\n      tag_312\n      jump\t// in\n    tag_340:\n        /* \"#utility.yul\":2361:2424   */\n      swap2\n      pop\n        /* \"#utility.yul\":2316:2434   */\n      pop\n        /* \"#utility.yul\":1967:2441   */\n      swap3\n      pop\n      swap3\n      swap1\n      pop\n      jump\t// out\n        /* \"#utility.yul\":2447:2565   */\n    tag_341:\n        /* \"#utility.yul\":2534:2558   */\n      tag_343\n        /* \"#utility.yul\":2552:2557   */\n      dup2\n        /* \"#utility.yul\":2534:2558   */\n      tag_344\n      jump\t// in\n    tag_343:\n        /* \"#utility.yul\":2529:2532   */\n      dup3\n        /* \"#utility.yul\":2522:2559   */\n      mstore\n        /* \"#utility.yul\":2447:2565   */\n      pop\n      pop\n      jump\t// out\n        /* \"#utility.yul\":2571:2944   */\n    tag_345:\n        /* \"#utility.yul\":2675:2678   */\n      0x00\n        /* \"#utility.yul\":2703:2741   */\n      tag_347\n        /* \"#utility.yul\":2735:2740   */\n      dup3\n        /* \"#utility.yul\":2703:2741   */\n      tag_348\n      jump\t// in\n    tag_347:\n        /* \"#utility.yul\":2757:2845   */\n      tag_349\n        /* \"#utility.yul\":2838:2844   */\n      dup2\n        /* \"#utility.yul\":2833:2836   */\n      dup6\n        /* \"#utility.yul\":2757:2845   */\n      tag_350\n      jump\t// in\n    tag_349:\n        /* \"#utility.yul\":2750:2845   */\n      swap4\n      pop\n        /* \"#utility.yul\":2854:2906   */\n      tag_351\n        /* \"#utility.yul\":2899:2905   */\n      dup2\n        /* \"#utility.yul\":2894:2897   */\n      dup6\n        /* \"#utility.yul\":2887:2891   */\n      0x20\n        /* \"#utility.yul\":2880:2885   */\n      dup7\n        /* \"#utility.yul\":2876:2892   */\n      add\n        /* \"#utility.yul\":2854:2906   */\n      tag_352\n      jump\t// in\n    tag_351:\n        /* \"#utility.yul\":2931:2937   */\n      dup1\n        /* \"#utility.yul\":2926:2929   */\n      dup5\n        /* \"#utility.yul\":2922:2938   */\n      add\n        /* \"#utility.yul\":2915:2938   */\n      swap2\n      pop\n        /* \"#utility.yul\":2679:2944   */\n      pop\n        /* \"#utility.yul\":2571:2944   */\n      swap3\n      swap2\n      pop\n      pop\n      jump\t// out\n        /* \"#utility.yul\":2950:3109   */\n    tag_353:\n        /* \"#utility.yul\":3051:3102   */\n      tag_355\n        /* \"#utility.yul\":3096:3101   */\n      dup2\n        /* \"#utility.yul\":3051:3102   */\n      tag_356\n      jump\t// in\n    tag_355:\n        /* \"#utility.yul\":3046:3049   */\n      dup3\n        /* \"#utility.yul\":3039:3103   */\n      mstore\n        /* \"#utility.yul\":2950:3109   */\n      pop\n      pop\n      jump\t// out\n        /* \"#utility.yul\":3115:3479   */\n    tag_357:\n        /* \"#utility.yul\":3203:3206   */\n      0x00\n        /* \"#utility.yul\":3231:3270   */\n      tag_359\n        /* \"#utility.yul\":3264:3269   */\n      dup3\n        /* \"#utility.yul\":3231:3270   */\n      tag_360\n      jump\t// in\n    tag_359:\n        /* \"#utility.yul\":3286:3357   */\n      tag_361\n        /* \"#utility.yul\":3350:3356   */\n      dup2\n        /* \"#utility.yul\":3345:3348   */\n      dup6\n        /* \"#utility.yul\":3286:3357   */\n      tag_362\n      jump\t// in\n    tag_361:\n        /* \"#utility.yul\":3279:3357   */\n      swap4\n      pop\n        /* \"#utility.yul\":3366:3418   */\n      tag_363\n        /* \"#utility.yul\":3411:3417   */\n      dup2\n        /* \"#utility.yul\":3406:3409   */\n      dup6\n        /* \"#utility.yul\":3399:3403   */\n      0x20\n        /* \"#utility.yul\":3392:3397   */\n      dup7\n        /* \"#utility.yul\":3388:3404   */\n      add\n        /* \"#utility.yul\":3366:3418   */\n      tag_352\n      jump\t// in\n    tag_363:\n        /* \"#utility.yul\":3443:3472   */\n      tag_364\n        /* \"#utility.yul\":3465:3471   */\n      dup2\n        /* \"#utility.yul\":3443:3472   */\n      tag_365\n      jump\t// in\n    tag_364:\n        /* \"#utility.yul\":3438:3441   */\n      dup5\n        /* \"#utility.yul\":3434:3473   */\n      add\n        /* \"#utility.yul\":3427:3473   */\n      swap2\n      pop\n        /* \"#utility.yul\":3207:3479   */\n      pop\n        /* \"#utility.yul\":3115:3479   */\n      swap3\n      swap2\n      pop\n      pop\n      jump\t// out\n        /* \"#utility.yul\":3485:3851   */\n    tag_366:\n        /* \"#utility.yul\":3627:3630   */\n      0x00\n        /* \"#utility.yul\":3648:3715   */\n      tag_368\n        /* \"#utility.yul\":3712:3714   */\n      0x10\n        /* \"#utility.yul\":3707:3710   */\n      dup4\n        /* \"#utility.yul\":3648:3715   */\n      tag_362\n      jump\t// in\n    tag_368:\n        /* \"#utility.yul\":3641:3715   */\n      swap2\n      pop\n        /* \"#utility.yul\":3724:3817   */\n      tag_369\n        /* \"#utility.yul\":3813:3816   */\n      dup3\n        /* \"#utility.yul\":3724:3817   */\n      tag_370\n      jump\t// in\n    tag_369:\n        /* \"#utility.yul\":3842:3844   */\n      0x20\n        /* \"#utility.yul\":3837:3840   */\n      dup3\n        /* \"#utility.yul\":3833:3845   */\n      add\n        /* \"#utility.yul\":3826:3845   */\n      swap1\n      pop\n        /* \"#utility.yul\":3485:3851   */\n      swap2\n      swap1\n      pop\n      jump\t// out\n        /* \"#utility.yul\":3857:4223   */\n    tag_371:\n        /* \"#utility.yul\":3999:4002   */\n      0x00\n        /* \"#utility.yul\":4020:4087   */\n      tag_373\n        /* \"#utility.yul\":4084:4086   */\n      0x2a\n        /* \"#utility.yul\":4079:4082   */\n      dup4\n        /* \"#utility.yul\":4020:4087   */\n      tag_362\n      jump\t// in\n    tag_373:\n        /* \"#utility.yul\":4013:4087   */\n      swap2\n      pop\n        /* \"#utility.yul\":4096:4189   */\n      tag_374\n        /* \"#utility.yul\":4185:4188   */\n      dup3\n        /* \"#utility.yul\":4096:4189   */\n      tag_375\n      jump\t// in\n    tag_374:\n        /* \"#utility.yul\":4214:4216   */\n      0x40\n        /* \"#utility.yul\":4209:4212   */\n      dup3\n        /* \"#utility.yul\":4205:4217   */\n      add\n        /* \"#utility.yul\":4198:4217   */\n      swap1\n      pop\n        /* \"#utility.yul\":3857:4223   */\n      swap2\n      swap1\n      pop\n      jump\t// out\n        /* \"#utility.yul\":4229:4595   */\n    tag_376:\n        /* \"#utility.yul\":4371:4374   */\n      0x00\n        /* \"#utility.yul\":4392:4459   */\n      tag_378\n        /* \"#utility.yul\":4456:4458   */\n      0x26\n        /* \"#utility.yul\":4451:4454   */\n      dup4\n        /* \"#utility.yul\":4392:4459   */\n      tag_362\n      jump\t// in\n    tag_378:\n        /* \"#utility.yul\":4385:4459   */\n      swap2\n      pop\n        /* \"#utility.yul\":4468:4561   */\n      tag_379\n        /* \"#utility.yul\":4557:4560   */\n      dup3\n        /* \"#utility.yul\":4468:4561   */\n      tag_380\n      jump\t// in\n    tag_379:\n        /* \"#utility.yul\":4586:4588   */\n      0x40\n        /* \"#utility.yul\":4581:4584   */\n      dup3\n        /* \"#utility.yul\":4577:4589   */\n      add\n        /* \"#utility.yul\":4570:4589   */\n      swap1\n      pop\n        /* \"#utility.yul\":4229:4595   */\n      swap2\n      swap1\n      pop\n      jump\t// out\n        /* \"#utility.yul\":4601:4967   */\n    tag_381:\n        /* \"#utility.yul\":4743:4746   */\n      0x00\n        /* \"#utility.yul\":4764:4831   */\n      tag_383\n        /* \"#utility.yul\":4828:4830   */\n      0x0e\n        /* \"#utility.yul\":4823:4826   */\n      dup4\n        /* \"#utility.yul\":4764:4831   */\n      tag_362\n      jump\t// in\n    tag_383:\n        /* \"#utility.yul\":4757:4831   */\n      swap2\n      pop\n        /* \"#utility.yul\":4840:4933   */\n      tag_384\n        /* \"#utility.yul\":4929:4932   */\n      dup3\n        /* \"#utility.yul\":4840:4933   */\n      tag_385\n      jump\t// in\n    tag_384:\n        /* \"#utility.yul\":4958:4960   */\n      0x20\n        /* \"#utility.yul\":4953:4956   */\n      dup3\n        /* \"#utility.yul\":4949:4961   */\n      add\n        /* \"#utility.yul\":4942:4961   */\n      swap1\n      pop\n        /* \"#utility.yul\":4601:4967   */\n      swap2\n      swap1\n      pop\n      jump\t// out\n        /* \"#utility.yul\":4973:5339   */\n    tag_386:\n        /* \"#utility.yul\":5115:5118   */\n      0x00\n        /* \"#utility.yul\":5136:5203   */\n      tag_388\n        /* \"#utility.yul\":5200:5202   */\n      0x26\n        /* \"#utility.yul\":5195:5198   */\n      dup4\n        /* \"#utility.yul\":5136:5203   */\n      tag_362\n      jump\t// in\n    tag_388:\n        /* \"#utility.yul\":5129:5203   */\n      swap2\n      pop\n        /* \"#utility.yul\":5212:5305   */\n      tag_389\n        /* \"#utility.yul\":5301:5304   */\n      dup3\n        /* \"#utility.yul\":5212:5305   */\n      tag_390\n      jump\t// in\n    tag_389:\n        /* \"#utility.yul\":5330:5332   */\n      0x40\n        /* \"#utility.yul\":5325:5328   */\n      dup3\n        /* \"#utility.yul\":5321:5333   */\n      add\n        /* \"#utility.yul\":5314:5333   */\n      swap1\n      pop\n        /* \"#utility.yul\":4973:5339   */\n      swap2\n      swap1\n      pop\n      jump\t// out\n        /* \"#utility.yul\":5345:5711   */\n    tag_391:\n        /* \"#utility.yul\":5487:5490   */\n      0x00\n        /* \"#utility.yul\":5508:5575   */\n      tag_393\n        /* \"#utility.yul\":5572:5574   */\n      0x26\n        /* \"#utility.yul\":5567:5570   */\n      dup4\n        /* \"#utility.yul\":5508:5575   */\n      tag_362\n      jump\t// in\n    tag_393:\n        /* \"#utility.yul\":5501:5575   */\n      swap2\n      pop\n        /* \"#utility.yul\":5584:5677   */\n      tag_394\n        /* \"#utility.yul\":5673:5676   */\n      dup3\n        /* \"#utility.yul\":5584:5677   */\n      tag_395\n      jump\t// in\n    tag_394:\n        /* \"#utility.yul\":5702:5704   */\n      0x40\n        /* \"#utility.yul\":5697:5700   */\n      dup3\n        /* \"#utility.yul\":5693:5705   */\n      add\n        /* \"#utility.yul\":5686:5705   */\n      swap1\n      pop\n        /* \"#utility.yul\":5345:5711   */\n      swap2\n      swap1\n      pop\n      jump\t// out\n        /* \"#utility.yul\":5717:6083   */\n    tag_396:\n        /* \"#utility.yul\":5859:5862   */\n      0x00\n        /* \"#utility.yul\":5880:5947   */\n      tag_398\n        /* \"#utility.yul\":5944:5946   */\n      0x1f\n        /* \"#utility.yul\":5939:5942   */\n      dup4\n        /* \"#utility.yul\":5880:5947   */\n      tag_362\n      jump\t// in\n    tag_398:\n        /* \"#utility.yul\":5873:5947   */\n      swap2\n      pop\n        /* \"#utility.yul\":5956:6049   */\n      tag_399\n        /* \"#utility.yul\":6045:6048   */\n      dup3\n        /* \"#utility.yul\":5956:6049   */\n      tag_400\n      jump\t// in\n    tag_399:\n        /* \"#utility.yul\":6074:6076   */\n      0x20\n        /* \"#utility.yul\":6069:6072   */\n      dup3\n        /* \"#utility.yul\":6065:6077   */\n      add\n        /* \"#utility.yul\":6058:6077   */\n      swap1\n      pop\n        /* \"#utility.yul\":5717:6083   */\n      swap2\n      swap1\n      pop\n      jump\t// out\n        /* \"#utility.yul\":6089:6455   */\n    tag_401:\n        /* \"#utility.yul\":6231:6234   */\n      0x00\n        /* \"#utility.yul\":6252:6319   */\n      tag_403\n        /* \"#utility.yul\":6316:6318   */\n      0x20\n        /* \"#utility.yul\":6311:6314   */\n      dup4\n        /* \"#utility.yul\":6252:6319   */\n      tag_362\n      jump\t// in\n    tag_403:\n        /* \"#utility.yul\":6245:6319   */\n      swap2\n      pop\n        /* \"#utility.yul\":6328:6421   */\n      tag_404\n        /* \"#utility.yul\":6417:6420   */\n      dup3\n        /* \"#utility.yul\":6328:6421   */\n      tag_405\n      jump\t// in\n    tag_404:\n        /* \"#utility.yul\":6446:6448   */\n      0x20\n        /* \"#utility.yul\":6441:6444   */\n      dup3\n        /* \"#utility.yul\":6437:6449   */\n      add\n        /* \"#utility.yul\":6430:6449   */\n      swap1\n      pop\n        /* \"#utility.yul\":6089:6455   */\n      swap2\n      swap1\n      pop\n      jump\t// out\n        /* \"#utility.yul\":6461:6827   */\n    tag_406:\n        /* \"#utility.yul\":6603:6606   */\n      0x00\n        /* \"#utility.yul\":6624:6691   */\n      tag_408\n        /* \"#utility.yul\":6688:6690   */\n      0x0b\n        /* \"#utility.yul\":6683:6686   */\n      dup4\n        /* \"#utility.yul\":6624:6691   */\n      tag_362\n      jump\t// in\n    tag_408:\n        /* \"#utility.yul\":6617:6691   */\n      swap2\n      pop\n        /* \"#utility.yul\":6700:6793   */\n      tag_409\n        /* \"#utility.yul\":6789:6792   */\n      dup3\n        /* \"#utility.yul\":6700:6793   */\n      tag_410\n      jump\t// in\n    tag_409:\n        /* \"#utility.yul\":6818:6820   */\n      0x20\n        /* \"#utility.yul\":6813:6816   */\n      dup3\n        /* \"#utility.yul\":6809:6821   */\n      add\n        /* \"#utility.yul\":6802:6821   */\n      swap1\n      pop\n        /* \"#utility.yul\":6461:6827   */\n      swap2\n      swap1\n      pop\n      jump\t// out\n        /* \"#utility.yul\":6833:7199   */\n    tag_411:\n        /* \"#utility.yul\":6975:6978   */\n      0x00\n        /* \"#utility.yul\":6996:7063   */\n      tag_413\n        /* \"#utility.yul\":7060:7062   */\n      0x1d\n        /* \"#utility.yul\":7055:7058   */\n      dup4\n        /* \"#utility.yul\":6996:7063   */\n      tag_362\n      jump\t// in\n    tag_413:\n        /* \"#utility.yul\":6989:7063   */\n      swap2\n      pop\n        /* \"#utility.yul\":7072:7165   */\n      tag_414\n        /* \"#utility.yul\":7161:7164   */\n      dup3\n        /* \"#utility.yul\":7072:7165   */\n      tag_415\n      jump\t// in\n    tag_414:\n        /* \"#utility.yul\":7190:7192   */\n      0x20\n        /* \"#utility.yul\":7185:7188   */\n      dup3\n        /* \"#utility.yul\":7181:7193   */\n      add\n        /* \"#utility.yul\":7174:7193   */\n      swap1\n      pop\n        /* \"#utility.yul\":6833:7199   */\n      swap2\n      swap1\n      pop\n      jump\t// out\n        /* \"#utility.yul\":7205:7571   */\n    tag_416:\n        /* \"#utility.yul\":7347:7350   */\n      0x00\n        /* \"#utility.yul\":7368:7435   */\n      tag_418\n        /* \"#utility.yul\":7432:7434   */\n      0x1a\n        /* \"#utility.yul\":7427:7430   */\n      dup4\n        /* \"#utility.yul\":7368:7435   */\n      tag_362\n      jump\t// in\n    tag_418:\n        /* \"#utility.yul\":7361:7435   */\n      swap2\n      pop\n        /* \"#utility.yul\":7444:7537   */\n      tag_419\n        /* \"#utility.yul\":7533:7536   */\n      dup3\n        /* \"#utility.yul\":7444:7537   */\n      tag_420\n      jump\t// in\n    tag_419:\n        /* \"#utility.yul\":7562:7564   */\n      0x20\n        /* \"#utility.yul\":7557:7560   */\n      dup3\n        /* \"#utility.yul\":7553:7565   */\n      add\n        /* \"#utility.yul\":7546:7565   */\n      swap1\n      pop\n        /* \"#utility.yul\":7205:7571   */\n      swap2\n      swap1\n      pop\n      jump\t// out\n        /* \"#utility.yul\":7577:7943   */\n    tag_421:\n        /* \"#utility.yul\":7719:7722   */\n      0x00\n        /* \"#utility.yul\":7740:7807   */\n      tag_423\n        /* \"#utility.yul\":7804:7806   */\n      0x17\n        /* \"#utility.yul\":7799:7802   */\n      dup4\n        /* \"#utility.yul\":7740:7807   */\n      tag_362\n      jump\t// in\n    tag_423:\n        /* \"#utility.yul\":7733:7807   */\n      swap2\n      pop\n        /* \"#utility.yul\":7816:7909   */\n      tag_424\n        /* \"#utility.yul\":7905:7908   */\n      dup3\n        /* \"#utility.yul\":7816:7909   */\n      tag_425\n      jump\t// in\n    tag_424:\n        /* \"#utility.yul\":7934:7936   */\n      0x20\n        /* \"#utility.yul\":7929:7932   */\n      dup3\n        /* \"#utility.yul\":7925:7937   */\n      add\n        /* \"#utility.yul\":7918:7937   */\n      swap1\n      pop\n        /* \"#utility.yul\":7577:7943   */\n      swap2\n      swap1\n      pop\n      jump\t// out\n        /* \"#utility.yul\":7949:8315   */\n    tag_426:\n        /* \"#utility.yul\":8091:8094   */\n      0x00\n        /* \"#utility.yul\":8112:8179   */\n      tag_428\n        /* \"#utility.yul\":8176:8178   */\n      0x0d\n        /* \"#utility.yul\":8171:8174   */\n      dup4\n        /* \"#utility.yul\":8112:8179   */\n      tag_362\n      jump\t// in\n    tag_428:\n        /* \"#utility.yul\":8105:8179   */\n      swap2\n      pop\n        /* \"#utility.yul\":8188:8281   */\n      tag_429\n        /* \"#utility.yul\":8277:8280   */\n      dup3\n        /* \"#utility.yul\":8188:8281   */\n      tag_430\n      jump\t// in\n    tag_429:\n        /* \"#utility.yul\":8306:8308   */\n      0x20\n        /* \"#utility.yul\":8301:8304   */\n      dup3\n        /* \"#utility.yul\":8297:8309   */\n      add\n        /* \"#utility.yul\":8290:8309   */\n      swap1\n      pop\n        /* \"#utility.yul\":7949:8315   */\n      swap2\n      swap1\n      pop\n      jump\t// out\n        /* \"#utility.yul\":8321:8439   */\n    tag_431:\n        /* \"#utility.yul\":8408:8432   */\n      tag_433\n        /* \"#utility.yul\":8426:8431   */\n      dup2\n        /* \"#utility.yul\":8408:8432   */\n      tag_434\n      jump\t// in\n    tag_433:\n        /* \"#utility.yul\":8403:8406   */\n      dup3\n        /* \"#utility.yul\":8396:8433   */\n      mstore\n        /* \"#utility.yul\":8321:8439   */\n      pop\n      pop\n      jump\t// out\n        /* \"#utility.yul\":8445:8716   */\n    tag_289:\n        /* \"#utility.yul\":8575:8578   */\n      0x00\n        /* \"#utility.yul\":8597:8690   */\n      tag_436\n        /* \"#utility.yul\":8686:8689   */\n      dup3\n        /* \"#utility.yul\":8677:8683   */\n      dup5\n        /* \"#utility.yul\":8597:8690   */\n      tag_345\n      jump\t// in\n    tag_436:\n        /* \"#utility.yul\":8590:8690   */\n      swap2\n      pop\n        /* \"#utility.yul\":8707:8710   */\n      dup2\n        /* \"#utility.yul\":8700:8710   */\n      swap1\n      pop\n        /* \"#utility.yul\":8445:8716   */\n      swap3\n      swap2\n      pop\n      pop\n      jump\t// out\n        /* \"#utility.yul\":8722:8944   */\n    tag_60:\n        /* \"#utility.yul\":8815:8819   */\n      0x00\n        /* \"#utility.yul\":8853:8855   */\n      0x20\n        /* \"#utility.yul\":8842:8851   */\n      dup3\n        /* \"#utility.yul\":8838:8856   */\n      add\n        /* \"#utility.yul\":8830:8856   */\n      swap1\n      pop\n        /* \"#utility.yul\":8866:8937   */\n      tag_438\n        /* \"#utility.yul\":8934:8935   */\n      0x00\n        /* \"#utility.yul\":8923:8932   */\n      dup4\n        /* \"#utility.yul\":8919:8936   */\n      add\n        /* \"#utility.yul\":8910:8916   */\n      dup5\n        /* \"#utility.yul\":8866:8937   */\n      tag_341\n      jump\t// in\n    tag_438:\n        /* \"#utility.yul\":8722:8944   */\n      swap3\n      swap2\n      pop\n      pop\n      jump\t// out\n        /* \"#utility.yul\":8950:9392   */\n    tag_259:\n        /* \"#utility.yul\":9099:9103   */\n      0x00\n        /* \"#utility.yul\":9137:9139   */\n      0x60\n        /* \"#utility.yul\":9126:9135   */\n      dup3\n        /* \"#utility.yul\":9122:9140   */\n      add\n        /* \"#utility.yul\":9114:9140   */\n      swap1\n      pop\n        /* \"#utility.yul\":9150:9221   */\n      tag_440\n        /* \"#utility.yul\":9218:9219   */\n      0x00\n        /* \"#utility.yul\":9207:9216   */\n      dup4\n        /* \"#utility.yul\":9203:9220   */\n      add\n        /* \"#utility.yul\":9194:9200   */\n      dup7\n        /* \"#utility.yul\":9150:9221   */\n      tag_341\n      jump\t// in\n    tag_440:\n        /* \"#utility.yul\":9231:9303   */\n      tag_441\n        /* \"#utility.yul\":9299:9301   */\n      0x20\n        /* \"#utility.yul\":9288:9297   */\n      dup4\n        /* \"#utility.yul\":9284:9302   */\n      add\n        /* \"#utility.yul\":9275:9281   */\n      dup6\n        /* \"#utility.yul\":9231:9303   */\n      tag_341\n      jump\t// in\n    tag_441:\n        /* \"#utility.yul\":9313:9385   */\n      tag_442\n        /* \"#utility.yul\":9381:9383   */\n      0x40\n        /* \"#utility.yul\":9370:9379   */\n      dup4\n        /* \"#utility.yul\":9366:9384   */\n      add\n        /* \"#utility.yul\":9357:9363   */\n      dup5\n        /* \"#utility.yul\":9313:9385   */\n      tag_431\n      jump\t// in\n    tag_442:\n        /* \"#utility.yul\":8950:9392   */\n      swap5\n      swap4\n      pop\n      pop\n      pop\n      pop\n      jump\t// out\n        /* \"#utility.yul\":9398:9730   */\n    tag_115:\n        /* \"#utility.yul\":9519:9523   */\n      0x00\n        /* \"#utility.yul\":9557:9559   */\n      0x40\n        /* \"#utility.yul\":9546:9555   */\n      dup3\n        /* \"#utility.yul\":9542:9560   */\n      add\n        /* \"#utility.yul\":9534:9560   */\n      swap1\n      pop\n        /* \"#utility.yul\":9570:9641   */\n      tag_444\n        /* \"#utility.yul\":9638:9639   */\n      0x00\n        /* \"#utility.yul\":9627:9636   */\n      dup4\n        /* \"#utility.yul\":9623:9640   */\n      add\n        /* \"#utility.yul\":9614:9620   */\n      dup6\n        /* \"#utility.yul\":9570:9641   */\n      tag_341\n      jump\t// in\n    tag_444:\n        /* \"#utility.yul\":9651:9723   */\n      tag_445\n        /* \"#utility.yul\":9719:9721   */\n      0x20\n        /* \"#utility.yul\":9708:9717   */\n      dup4\n        /* \"#utility.yul\":9704:9722   */\n      add\n        /* \"#utility.yul\":9695:9701   */\n      dup5\n        /* \"#utility.yul\":9651:9723   */\n      tag_431\n      jump\t// in\n    tag_445:\n        /* \"#utility.yul\":9398:9730   */\n      swap4\n      swap3\n      pop\n      pop\n      pop\n      jump\t// out\n        /* \"#utility.yul\":9736:9986   */\n    tag_73:\n        /* \"#utility.yul\":9843:9847   */\n      0x00\n        /* \"#utility.yul\":9881:9883   */\n      0x20\n        /* \"#utility.yul\":9870:9879   */\n      dup3\n        /* \"#utility.yul\":9866:9884   */\n      add\n        /* \"#utility.yul\":9858:9884   */\n      swap1\n      pop\n        /* \"#utility.yul\":9894:9979   */\n      tag_447\n        /* \"#utility.yul\":9976:9977   */\n      0x00\n        /* \"#utility.yul\":9965:9974   */\n      dup4\n        /* \"#utility.yul\":9961:9978   */\n      add\n        /* \"#utility.yul\":9952:9958   */\n      dup5\n        /* \"#utility.yul\":9894:9979   */\n      tag_353\n      jump\t// in\n    tag_447:\n        /* \"#utility.yul\":9736:9986   */\n      swap3\n      swap2\n      pop\n      pop\n      jump\t// out\n        /* \"#utility.yul\":9992:10305   */\n    tag_302:\n        /* \"#utility.yul\":10105:10109   */\n      0x00\n        /* \"#utility.yul\":10143:10145   */\n      0x20\n        /* \"#utility.yul\":10132:10141   */\n      dup3\n        /* \"#utility.yul\":10128:10146   */\n      add\n        /* \"#utility.yul\":10120:10146   */\n      swap1\n      pop\n        /* \"#utility.yul\":10192:10201   */\n      dup2\n        /* \"#utility.yul\":10186:10190   */\n      dup2\n        /* \"#utility.yul\":10182:10202   */\n      sub\n        /* \"#utility.yul\":10178:10179   */\n      0x00\n        /* \"#utility.yul\":10167:10176   */\n      dup4\n        /* \"#utility.yul\":10163:10180   */\n      add\n        /* \"#utility.yul\":10156:10203   */\n      mstore\n        /* \"#utility.yul\":10220:10298   */\n      tag_449\n        /* \"#utility.yul\":10293:10297   */\n      dup2\n        /* \"#utility.yul\":10284:10290   */\n      dup5\n        /* \"#utility.yul\":10220:10298   */\n      tag_357\n      jump\t// in\n    tag_449:\n        /* \"#utility.yul\":10212:10298   */\n      swap1\n      pop\n        /* \"#utility.yul\":9992:10305   */\n      swap3\n      swap2\n      pop\n      pop\n      jump\t// out\n        /* \"#utility.yul\":10311:10730   */\n    tag_124:\n        /* \"#utility.yul\":10477:10481   */\n      0x00\n        /* \"#utility.yul\":10515:10517   */\n      0x20\n        /* \"#utility.yul\":10504:10513   */\n      dup3\n        /* \"#utility.yul\":10500:10518   */\n      add\n        /* \"#utility.yul\":10492:10518   */\n      swap1\n      pop\n        /* \"#utility.yul\":10564:10573   */\n      dup2\n        /* \"#utility.yul\":10558:10562   */\n      dup2\n        /* \"#utility.yul\":10554:10574   */\n      sub\n        /* \"#utility.yul\":10550:10551   */\n      0x00\n        /* \"#utility.yul\":10539:10548   */\n      dup4\n        /* \"#utility.yul\":10535:10552   */\n      add\n        /* \"#utility.yul\":10528:10575   */\n      mstore\n        /* \"#utility.yul\":10592:10723   */\n      tag_451\n        /* \"#utility.yul\":10718:10722   */\n      dup2\n        /* \"#utility.yul\":10592:10723   */\n      tag_366\n      jump\t// in\n    tag_451:\n        /* \"#utility.yul\":10584:10723   */\n      swap1\n      pop\n        /* \"#utility.yul\":10311:10730   */\n      swap2\n      swap1\n      pop\n      jump\t// out\n        /* \"#utility.yul\":10736:11155   */\n    tag_275:\n        /* \"#utility.yul\":10902:10906   */\n      0x00\n        /* \"#utility.yul\":10940:10942   */\n      0x20\n        /* \"#utility.yul\":10929:10938   */\n      dup3\n        /* \"#utility.yul\":10925:10943   */\n      add\n        /* \"#utility.yul\":10917:10943   */\n      swap1\n      pop\n        /* \"#utility.yul\":10989:10998   */\n      dup2\n        /* \"#utility.yul\":10983:10987   */\n      dup2\n        /* \"#utility.yul\":10979:10999   */\n      sub\n        /* \"#utility.yul\":10975:10976   */\n      0x00\n        /* \"#utility.yul\":10964:10973   */\n      dup4\n        /* \"#utility.yul\":10960:10977   */\n      add\n        /* \"#utility.yul\":10953:11000   */\n      mstore\n        /* \"#utility.yul\":11017:11148   */\n      tag_453\n        /* \"#utility.yul\":11143:11147   */\n      dup2\n        /* \"#utility.yul\":11017:11148   */\n      tag_371\n      jump\t// in\n    tag_453:\n        /* \"#utility.yul\":11009:11148   */\n      swap1\n      pop\n        /* \"#utility.yul\":10736:11155   */\n      swap2\n      swap1\n      pop\n      jump\t// out\n        /* \"#utility.yul\":11161:11580   */\n    tag_226:\n        /* \"#utility.yul\":11327:11331   */\n      0x00\n        /* \"#utility.yul\":11365:11367   */\n      0x20\n        /* \"#utility.yul\":11354:11363   */\n      dup3\n        /* \"#utility.yul\":11350:11368   */\n      add\n        /* \"#utility.yul\":11342:11368   */\n      swap1\n      pop\n        /* \"#utility.yul\":11414:11423   */\n      dup2\n        /* \"#utility.yul\":11408:11412   */\n      dup2\n        /* \"#utility.yul\":11404:11424   */\n      sub\n        /* \"#utility.yul\":11400:11401   */\n      0x00\n        /* \"#utility.yul\":11389:11398   */\n      dup4\n        /* \"#utility.yul\":11385:11402   */\n      add\n        /* \"#utility.yul\":11378:11425   */\n      mstore\n        /* \"#utility.yul\":11442:11573   */\n      tag_455\n        /* \"#utility.yul\":11568:11572   */\n      dup2\n        /* \"#utility.yul\":11442:11573   */\n      tag_376\n      jump\t// in\n    tag_455:\n        /* \"#utility.yul\":11434:11573   */\n      swap1\n      pop\n        /* \"#utility.yul\":11161:11580   */\n      swap2\n      swap1\n      pop\n      jump\t// out\n        /* \"#utility.yul\":11586:12005   */\n    tag_80:\n        /* \"#utility.yul\":11752:11756   */\n      0x00\n        /* \"#utility.yul\":11790:11792   */\n      0x20\n        /* \"#utility.yul\":11779:11788   */\n      dup3\n        /* \"#utility.yul\":11775:11793   */\n      add\n        /* \"#utility.yul\":11767:11793   */\n      swap1\n      pop\n        /* \"#utility.yul\":11839:11848   */\n      dup2\n        /* \"#utility.yul\":11833:11837   */\n      dup2\n        /* \"#utility.yul\":11829:11849   */\n      sub\n        /* \"#utility.yul\":11825:11826   */\n      0x00\n        /* \"#utility.yul\":11814:11823   */\n      dup4\n        /* \"#utility.yul\":11810:11827   */\n      add\n        /* \"#utility.yul\":11803:11850   */\n      mstore\n        /* \"#utility.yul\":11867:11998   */\n      tag_457\n        /* \"#utility.yul\":11993:11997   */\n      dup2\n        /* \"#utility.yul\":11867:11998   */\n      tag_381\n      jump\t// in\n    tag_457:\n        /* \"#utility.yul\":11859:11998   */\n      swap1\n      pop\n        /* \"#utility.yul\":11586:12005   */\n      swap2\n      swap1\n      pop\n      jump\t// out\n        /* \"#utility.yul\":12011:12430   */\n    tag_282:\n        /* \"#utility.yul\":12177:12181   */\n      0x00\n        /* \"#utility.yul\":12215:12217   */\n      0x20\n        /* \"#utility.yul\":12204:12213   */\n      dup3\n        /* \"#utility.yul\":12200:12218   */\n      add\n        /* \"#utility.yul\":12192:12218   */\n      swap1\n      pop\n        /* \"#utility.yul\":12264:12273   */\n      dup2\n        /* \"#utility.yul\":12258:12262   */\n      dup2\n        /* \"#utility.yul\":12254:12274   */\n      sub\n        /* \"#utility.yul\":12250:12251   */\n      0x00\n        /* \"#utility.yul\":12239:12248   */\n      dup4\n        /* \"#utility.yul\":12235:12252   */\n      add\n        /* \"#utility.yul\":12228:12275   */\n      mstore\n        /* \"#utility.yul\":12292:12423   */\n      tag_459\n        /* \"#utility.yul\":12418:12422   */\n      dup2\n        /* \"#utility.yul\":12292:12423   */\n      tag_386\n      jump\t// in\n    tag_459:\n        /* \"#utility.yul\":12284:12423   */\n      swap1\n      pop\n        /* \"#utility.yul\":12011:12430   */\n      swap2\n      swap1\n      pop\n      jump\t// out\n        /* \"#utility.yul\":12436:12855   */\n    tag_205:\n        /* \"#utility.yul\":12602:12606   */\n      0x00\n        /* \"#utility.yul\":12640:12642   */\n      0x20\n        /* \"#utility.yul\":12629:12638   */\n      dup3\n        /* \"#utility.yul\":12625:12643   */\n      add\n        /* \"#utility.yul\":12617:12643   */\n      swap1\n      pop\n        /* \"#utility.yul\":12689:12698   */\n      dup2\n        /* \"#utility.yul\":12683:12687   */\n      dup2\n        /* \"#utility.yul\":12679:12699   */\n      sub\n        /* \"#utility.yul\":12675:12676   */\n      0x00\n        /* \"#utility.yul\":12664:12673   */\n      dup4\n        /* \"#utility.yul\":12660:12677   */\n      add\n        /* \"#utility.yul\":12653:12700   */\n      mstore\n        /* \"#utility.yul\":12717:12848   */\n      tag_461\n        /* \"#utility.yul\":12843:12847   */\n      dup2\n        /* \"#utility.yul\":12717:12848   */\n      tag_391\n      jump\t// in\n    tag_461:\n        /* \"#utility.yul\":12709:12848   */\n      swap1\n      pop\n        /* \"#utility.yul\":12436:12855   */\n      swap2\n      swap1\n      pop\n      jump\t// out\n        /* \"#utility.yul\":12861:13280   */\n    tag_77:\n        /* \"#utility.yul\":13027:13031   */\n      0x00\n        /* \"#utility.yul\":13065:13067   */\n      0x20\n        /* \"#utility.yul\":13054:13063   */\n      dup3\n        /* \"#utility.yul\":13050:13068   */\n      add\n        /* \"#utility.yul\":13042:13068   */\n      swap1\n      pop\n        /* \"#utility.yul\":13114:13123   */\n      dup2\n        /* \"#utility.yul\":13108:13112   */\n      dup2\n        /* \"#utility.yul\":13104:13124   */\n      sub\n        /* \"#utility.yul\":13100:13101   */\n      0x00\n        /* \"#utility.yul\":13089:13098   */\n      dup4\n        /* \"#utility.yul\":13085:13102   */\n      add\n        /* \"#utility.yul\":13078:13125   */\n      mstore\n        /* \"#utility.yul\":13142:13273   */\n      tag_463\n        /* \"#utility.yul\":13268:13272   */\n      dup2\n        /* \"#utility.yul\":13142:13273   */\n      tag_396\n      jump\t// in\n    tag_463:\n        /* \"#utility.yul\":13134:13273   */\n      swap1\n      pop\n        /* \"#utility.yul\":12861:13280   */\n      swap2\n      swap1\n      pop\n      jump\t// out\n        /* \"#utility.yul\":13286:13705   */\n    tag_145:\n        /* \"#utility.yul\":13452:13456   */\n      0x00\n        /* \"#utility.yul\":13490:13492   */\n      0x20\n        /* \"#utility.yul\":13479:13488   */\n      dup3\n        /* \"#utility.yul\":13475:13493   */\n      add\n        /* \"#utility.yul\":13467:13493   */\n      swap1\n      pop\n        /* \"#utility.yul\":13539:13548   */\n      dup2\n        /* \"#utility.yul\":13533:13537   */\n      dup2\n        /* \"#utility.yul\":13529:13549   */\n      sub\n        /* \"#utility.yul\":13525:13526   */\n      0x00\n        /* \"#utility.yul\":13514:13523   */\n      dup4\n        /* \"#utility.yul\":13510:13527   */\n      add\n        /* \"#utility.yul\":13503:13550   */\n      mstore\n        /* \"#utility.yul\":13567:13698   */\n      tag_465\n        /* \"#utility.yul\":13693:13697   */\n      dup2\n        /* \"#utility.yul\":13567:13698   */\n      tag_401\n      jump\t// in\n    tag_465:\n        /* \"#utility.yul\":13559:13698   */\n      swap1\n      pop\n        /* \"#utility.yul\":13286:13705   */\n      swap2\n      swap1\n      pop\n      jump\t// out\n        /* \"#utility.yul\":13711:14130   */\n    tag_149:\n        /* \"#utility.yul\":13877:13881   */\n      0x00\n        /* \"#utility.yul\":13915:13917   */\n      0x20\n        /* \"#utility.yul\":13904:13913   */\n      dup3\n        /* \"#utility.yul\":13900:13918   */\n      add\n        /* \"#utility.yul\":13892:13918   */\n      swap1\n      pop\n        /* \"#utility.yul\":13964:13973   */\n      dup2\n        /* \"#utility.yul\":13958:13962   */\n      dup2\n        /* \"#utility.yul\":13954:13974   */\n      sub\n        /* \"#utility.yul\":13950:13951   */\n      0x00\n        /* \"#utility.yul\":13939:13948   */\n      dup4\n        /* \"#utility.yul\":13935:13952   */\n      add\n        /* \"#utility.yul\":13928:13975   */\n      mstore\n        /* \"#utility.yul\":13992:14123   */\n      tag_467\n        /* \"#utility.yul\":14118:14122   */\n      dup2\n        /* \"#utility.yul\":13992:14123   */\n      tag_406\n      jump\t// in\n    tag_467:\n        /* \"#utility.yul\":13984:14123   */\n      swap1\n      pop\n        /* \"#utility.yul\":13711:14130   */\n      swap2\n      swap1\n      pop\n      jump\t// out\n        /* \"#utility.yul\":14136:14555   */\n    tag_287:\n        /* \"#utility.yul\":14302:14306   */\n      0x00\n        /* \"#utility.yul\":14340:14342   */\n      0x20\n        /* \"#utility.yul\":14329:14338   */\n      dup3\n        /* \"#utility.yul\":14325:14343   */\n      add\n        /* \"#utility.yul\":14317:14343   */\n      swap1\n      pop\n        /* \"#utility.yul\":14389:14398   */\n      dup2\n        /* \"#utility.yul\":14383:14387   */\n      dup2\n        /* \"#utility.yul\":14379:14399   */\n      sub\n        /* \"#utility.yul\":14375:14376   */\n      0x00\n        /* \"#utility.yul\":14364:14373   */\n      dup4\n        /* \"#utility.yul\":14360:14377   */\n      add\n        /* \"#utility.yul\":14353:14400   */\n      mstore\n        /* \"#utility.yul\":14417:14548   */\n      tag_469\n        /* \"#utility.yul\":14543:14547   */\n      dup2\n        /* \"#utility.yul\":14417:14548   */\n      tag_411\n      jump\t// in\n    tag_469:\n        /* \"#utility.yul\":14409:14548   */\n      swap1\n      pop\n        /* \"#utility.yul\":14136:14555   */\n      swap2\n      swap1\n      pop\n      jump\t// out\n        /* \"#utility.yul\":14561:14980   */\n    tag_216:\n        /* \"#utility.yul\":14727:14731   */\n      0x00\n        /* \"#utility.yul\":14765:14767   */\n      0x20\n        /* \"#utility.yul\":14754:14763   */\n      dup3\n        /* \"#utility.yul\":14750:14768   */\n      add\n        /* \"#utility.yul\":14742:14768   */\n      swap1\n      pop\n        /* \"#utility.yul\":14814:14823   */\n      dup2\n        /* \"#utility.yul\":14808:14812   */\n      dup2\n        /* \"#utility.yul\":14804:14824   */\n      sub\n        /* \"#utility.yul\":14800:14801   */\n      0x00\n        /* \"#utility.yul\":14789:14798   */\n      dup4\n        /* \"#utility.yul\":14785:14802   */\n      add\n        /* \"#utility.yul\":14778:14825   */\n      mstore\n        /* \"#utility.yul\":14842:14973   */\n      tag_471\n        /* \"#utility.yul\":14968:14972   */\n      dup2\n        /* \"#utility.yul\":14842:14973   */\n      tag_416\n      jump\t// in\n    tag_471:\n        /* \"#utility.yul\":14834:14973   */\n      swap1\n      pop\n        /* \"#utility.yul\":14561:14980   */\n      swap2\n      swap1\n      pop\n      jump\t// out\n        /* \"#utility.yul\":14986:15405   */\n    tag_170:\n        /* \"#utility.yul\":15152:15156   */\n      0x00\n        /* \"#utility.yul\":15190:15192   */\n      0x20\n        /* \"#utility.yul\":15179:15188   */\n      dup3\n        /* \"#utility.yul\":15175:15193   */\n      add\n        /* \"#utility.yul\":15167:15193   */\n      swap1\n      pop\n        /* \"#utility.yul\":15239:15248   */\n      dup2\n        /* \"#utility.yul\":15233:15237   */\n      dup2\n        /* \"#utility.yul\":15229:15249   */\n      sub\n        /* \"#utility.yul\":15225:15226   */\n      0x00\n        /* \"#utility.yul\":15214:15223   */\n      dup4\n        /* \"#utility.yul\":15210:15227   */\n      add\n        /* \"#utility.yul\":15203:15250   */\n      mstore\n        /* \"#utility.yul\":15267:15398   */\n      tag_473\n        /* \"#utility.yul\":15393:15397   */\n      dup2\n        /* \"#utility.yul\":15267:15398   */\n      tag_421\n      jump\t// in\n    tag_473:\n        /* \"#utility.yul\":15259:15398   */\n      swap1\n      pop\n        /* \"#utility.yul\":14986:15405   */\n      swap2\n      swap1\n      pop\n      jump\t// out\n        /* \"#utility.yul\":15411:15830   */\n    tag_190:\n        /* \"#utility.yul\":15577:15581   */\n      0x00\n        /* \"#utility.yul\":15615:15617   */\n      0x20\n        /* \"#utility.yul\":15604:15613   */\n      dup3\n        /* \"#utility.yul\":15600:15618   */\n      add\n        /* \"#utility.yul\":15592:15618   */\n      swap1\n      pop\n        /* \"#utility.yul\":15664:15673   */\n      dup2\n        /* \"#utility.yul\":15658:15662   */\n      dup2\n        /* \"#utility.yul\":15654:15674   */\n      sub\n        /* \"#utility.yul\":15650:15651   */\n      0x00\n        /* \"#utility.yul\":15639:15648   */\n      dup4\n        /* \"#utility.yul\":15635:15652   */\n      add\n        /* \"#utility.yul\":15628:15675   */\n      mstore\n        /* \"#utility.yul\":15692:15823   */\n      tag_475\n        /* \"#utility.yul\":15818:15822   */\n      dup2\n        /* \"#utility.yul\":15692:15823   */\n      tag_426\n      jump\t// in\n    tag_475:\n        /* \"#utility.yul\":15684:15823   */\n      swap1\n      pop\n        /* \"#utility.yul\":15411:15830   */\n      swap2\n      swap1\n      pop\n      jump\t// out\n        /* \"#utility.yul\":15836:16058   */\n    tag_29:\n        /* \"#utility.yul\":15929:15933   */\n      0x00\n        /* \"#utility.yul\":15967:15969   */\n      0x20\n        /* \"#utility.yul\":15956:15965   */\n      dup3\n        /* \"#utility.yul\":15952:15970   */\n      add\n        /* \"#utility.yul\":15944:15970   */\n      swap1\n      pop\n        /* \"#utility.yul\":15980:16051   */\n      tag_477\n        /* \"#utility.yul\":16048:16049   */\n      0x00\n        /* \"#utility.yul\":16037:16046   */\n      dup4\n        /* \"#utility.yul\":16033:16050   */\n      add\n        /* \"#utility.yul\":16024:16030   */\n      dup5\n        /* \"#utility.yul\":15980:16051   */\n      tag_431\n      jump\t// in\n    tag_477:\n        /* \"#utility.yul\":15836:16058   */\n      swap3\n      swap2\n      pop\n      pop\n      jump\t// out\n        /* \"#utility.yul\":16145:16243   */\n    tag_348:\n        /* \"#utility.yul\":16196:16202   */\n      0x00\n        /* \"#utility.yul\":16230:16235   */\n      dup2\n        /* \"#utility.yul\":16224:16236   */\n      mload\n        /* \"#utility.yul\":16214:16236   */\n      swap1\n      pop\n        /* \"#utility.yul\":16145:16243   */\n      swap2\n      swap1\n      pop\n      jump\t// out\n        /* \"#utility.yul\":16249:16348   */\n    tag_360:\n        /* \"#utility.yul\":16301:16307   */\n      0x00\n        /* \"#utility.yul\":16335:16340   */\n      dup2\n        /* \"#utility.yul\":16329:16341   */\n      mload\n        /* \"#utility.yul\":16319:16341   */\n      swap1\n      pop\n        /* \"#utility.yul\":16249:16348   */\n      swap2\n      swap1\n      pop\n      jump\t// out\n        /* \"#utility.yul\":16354:16501   */\n    tag_350:\n        /* \"#utility.yul\":16455:16466   */\n      0x00\n        /* \"#utility.yul\":16492:16495   */\n      dup2\n        /* \"#utility.yul\":16477:16495   */\n      swap1\n      pop\n        /* \"#utility.yul\":16354:16501   */\n      swap3\n      swap2\n      pop\n      pop\n      jump\t// out\n        /* \"#utility.yul\":16507:16676   */\n    tag_362:\n        /* \"#utility.yul\":16591:16602   */\n      0x00\n        /* \"#utility.yul\":16625:16631   */\n      dup3\n        /* \"#utility.yul\":16620:16623   */\n      dup3\n        /* \"#utility.yul\":16613:16632   */\n      mstore\n        /* \"#utility.yul\":16665:16669   */\n      0x20\n        /* \"#utility.yul\":16660:16663   */\n      dup3\n        /* \"#utility.yul\":16656:16670   */\n      add\n        /* \"#utility.yul\":16641:16670   */\n      swap1\n      pop\n        /* \"#utility.yul\":16507:16676   */\n      swap3\n      swap2\n      pop\n      pop\n      jump\t// out\n        /* \"#utility.yul\":16682:16987   */\n    tag_266:\n        /* \"#utility.yul\":16722:16725   */\n      0x00\n        /* \"#utility.yul\":16741:16761   */\n      tag_485\n        /* \"#utility.yul\":16759:16760   */\n      dup3\n        /* \"#utility.yul\":16741:16761   */\n      tag_434\n      jump\t// in\n    tag_485:\n        /* \"#utility.yul\":16736:16761   */\n      swap2\n      pop\n        /* \"#utility.yul\":16775:16795   */\n      tag_486\n        /* \"#utility.yul\":16793:16794   */\n      dup4\n        /* \"#utility.yul\":16775:16795   */\n      tag_434\n      jump\t// in\n    tag_486:\n        /* \"#utility.yul\":16770:16795   */\n      swap3\n      pop\n        /* \"#utility.yul\":16929:16930   */\n      dup3\n        /* \"#utility.yul\":16861:16927   */\n      0xffffffffffffffffffffffffffffffffffffffffffffffffffffffffffffffff\n        /* \"#utility.yul\":16857:16931   */\n      sub\n        /* \"#utility.yul\":16854:16855   */\n      dup3\n        /* \"#utility.yul\":16851:16932   */\n      gt\n        /* \"#utility.yul\":16848:16955   */\n      iszero\n      tag_487\n      jumpi\n        /* \"#utility.yul\":16935:16953   */\n      tag_488\n      tag_489\n      jump\t// in\n    tag_488:\n        /* \"#utility.yul\":16848:16955   */\n    tag_487:\n        /* \"#utility.yul\":16979:16980   */\n      dup3\n        /* \"#utility.yul\":16976:16977   */\n      dup3\n        /* \"#utility.yul\":16972:16981   */\n      add\n        /* \"#utility.yul\":16965:16981   */\n      swap1\n      pop\n        /* \"#utility.yul\":16682:16987   */\n      swap3\n      swap2\n      pop\n      pop\n      jump\t// out\n        /* \"#utility.yul\":16993:17178   */\n    tag_248:\n        /* \"#utility.yul\":17033:17034   */\n      0x00\n        /* \"#utility.yul\":17050:17070   */\n      tag_491\n        /* \"#utility.yul\":17068:17069   */\n      dup3\n        /* \"#utility.yul\":17050:17070   */\n      tag_434\n      jump\t// in\n    tag_491:\n        /* \"#utility.yul\":17045:17070   */\n      swap2\n      pop\n        /* \"#utility.yul\":17084:17104   */\n      tag_492\n        /* \"#utility.yul\":17102:17103   */\n      dup4\n        /* \"#utility.yul\":17084:17104   */\n      tag_434\n      jump\t// in\n    tag_492:\n        /* \"#utility.yul\":17079:17104   */\n      swap3\n      pop\n        /* \"#utility.yul\":17123:17124   */\n      dup3\n        /* \"#utility.yul\":17113:17148   */\n      tag_493\n      jumpi\n        /* \"#utility.yul\":17128:17146   */\n      tag_494\n      tag_495\n      jump\t// in\n    tag_494:\n        /* \"#utility.yul\":17113:17148   */\n    tag_493:\n        /* \"#utility.yul\":17170:17171   */\n      dup3\n        /* \"#utility.yul\":17167:17168   */\n      dup3\n        /* \"#utility.yul\":17163:17172   */\n      div\n        /* \"#utility.yul\":17158:17172   */\n      swap1\n      pop\n        /* \"#utility.yul\":16993:17178   */\n      swap3\n      swap2\n      pop\n      pop\n      jump\t// out\n        /* \"#utility.yul\":17184:17532   */\n    tag_251:\n        /* \"#utility.yul\":17224:17231   */\n      0x00\n        /* \"#utility.yul\":17247:17267   */\n      tag_497\n        /* \"#utility.yul\":17265:17266   */\n      dup3\n        /* \"#utility.yul\":17247:17267   */\n      tag_434\n      jump\t// in\n    tag_497:\n        /* \"#utility.yul\":17242:17267   */\n      swap2\n      pop\n        /* \"#utility.yul\":17281:17301   */\n      tag_498\n        /* \"#utility.yul\":17299:17300   */\n      dup4\n        /* \"#utility.yul\":17281:17301   */\n      tag_434\n      jump\t// in\n    tag_498:\n        /* \"#utility.yul\":17276:17301   */\n      swap3\n      pop\n        /* \"#utility.yul\":17469:17470   */\n      dup2\n        /* \"#utility.yul\":17401:17467   */\n      0xffffffffffffffffffffffffffffffffffffffffffffffffffffffffffffffff\n        /* \"#utility.yul\":17397:17471   */\n      div\n        /* \"#utility.yul\":17394:17395   */\n      dup4\n        /* \"#utility.yul\":17391:17472   */\n      gt\n        /* \"#utility.yul\":17386:17387   */\n      dup3\n        /* \"#utility.yul\":17379:17388   */\n      iszero\n        /* \"#utility.yul\":17372:17389   */\n      iszero\n        /* \"#utility.yul\":17368:17473   */\n      and\n        /* \"#utility.yul\":17365:17496   */\n      iszero\n      tag_499\n      jumpi\n        /* \"#utility.yul\":17476:17494   */\n      tag_500\n      tag_489\n      jump\t// in\n    tag_500:\n        /* \"#utility.yul\":17365:17496   */\n    tag_499:\n        /* \"#utility.yul\":17524:17525   */\n      dup3\n        /* \"#utility.yul\":17521:17522   */\n      dup3\n        /* \"#utility.yul\":17517:17526   */\n      mul\n        /* \"#utility.yul\":17506:17526   */\n      swap1\n      pop\n        /* \"#utility.yul\":17184:17532   */\n      swap3\n      swap2\n      pop\n      pop\n      jump\t// out\n        /* \"#utility.yul\":17538:17729   */\n    tag_158:\n        /* \"#utility.yul\":17578:17582   */\n      0x00\n        /* \"#utility.yul\":17598:17618   */\n      tag_502\n        /* \"#utility.yul\":17616:17617   */\n      dup3\n        /* \"#utility.yul\":17598:17618   */\n      tag_434\n      jump\t// in\n    tag_502:\n        /* \"#utility.yul\":17593:17618   */\n      swap2\n      pop\n        /* \"#utility.yul\":17632:17652   */\n      tag_503\n        /* \"#utility.yul\":17650:17651   */\n      dup4\n        /* \"#utility.yul\":17632:17652   */\n      tag_434\n      jump\t// in\n    tag_503:\n        /* \"#utility.yul\":17627:17652   */\n      swap3\n      pop\n        /* \"#utility.yul\":17671:17672   */\n      dup3\n        /* \"#utility.yul\":17668:17669   */\n      dup3\n        /* \"#utility.yul\":17665:17673   */\n      lt\n        /* \"#utility.yul\":17662:17696   */\n      iszero\n      tag_504\n      jumpi\n        /* \"#utility.yul\":17676:17694   */\n      tag_505\n      tag_489\n      jump\t// in\n    tag_505:\n        /* \"#utility.yul\":17662:17696   */\n    tag_504:\n        /* \"#utility.yul\":17721:17722   */\n      dup3\n        /* \"#utility.yul\":17718:17719   */\n      dup3\n        /* \"#utility.yul\":17714:17723   */\n      sub\n        /* \"#utility.yul\":17706:17723   */\n      swap1\n      pop\n        /* \"#utility.yul\":17538:17729   */\n      swap3\n      swap2\n      pop\n      pop\n      jump\t// out\n        /* \"#utility.yul\":17735:17831   */\n    tag_344:\n        /* \"#utility.yul\":17772:17779   */\n      0x00\n        /* \"#utility.yul\":17801:17825   */\n      tag_507\n        /* \"#utility.yul\":17819:17824   */\n      dup3\n        /* \"#utility.yul\":17801:17825   */\n      tag_508\n      jump\t// in\n    tag_507:\n        /* \"#utility.yul\":17790:17825   */\n      swap1\n      pop\n        /* \"#utility.yul\":17735:17831   */\n      swap2\n      swap1\n      pop\n      jump\t// out\n        /* \"#utility.yul\":17837:17927   */\n    tag_509:\n        /* \"#utility.yul\":17871:17878   */\n      0x00\n        /* \"#utility.yul\":17914:17919   */\n      dup2\n        /* \"#utility.yul\":17907:17920   */\n      iszero\n        /* \"#utility.yul\":17900:17921   */\n      iszero\n        /* \"#utility.yul\":17889:17921   */\n      swap1\n      pop\n        /* \"#utility.yul\":17837:17927   */\n      swap2\n      swap1\n      pop\n      jump\t// out\n        /* \"#utility.yul\":17933:18059   */\n    tag_508:\n        /* \"#utility.yul\":17970:17977   */\n      0x00\n        /* \"#utility.yul\":18010:18052   */\n      0xffffffffffffffffffffffffffffffffffffffff\n        /* \"#utility.yul\":18003:18008   */\n      dup3\n        /* \"#utility.yul\":17999:18053   */\n      and\n        /* \"#utility.yul\":17988:18053   */\n      swap1\n      pop\n        /* \"#utility.yul\":17933:18059   */\n      swap2\n      swap1\n      pop\n      jump\t// out\n        /* \"#utility.yul\":18065:18142   */\n    tag_434:\n        /* \"#utility.yul\":18102:18109   */\n      0x00\n        /* \"#utility.yul\":18131:18136   */\n      dup2\n        /* \"#utility.yul\":18120:18136   */\n      swap1\n      pop\n        /* \"#utility.yul\":18065:18142   */\n      swap2\n      swap1\n      pop\n      jump\t// out\n        /* \"#utility.yul\":18148:18288   */\n    tag_356:\n        /* \"#utility.yul\":18212:18221   */\n      0x00\n        /* \"#utility.yul\":18245:18282   */\n      tag_514\n        /* \"#utility.yul\":18276:18281   */\n      dup3\n        /* \"#utility.yul\":18245:18282   */\n      tag_515\n      jump\t// in\n    tag_514:\n        /* \"#utility.yul\":18232:18282   */\n      swap1\n      pop\n        /* \"#utility.yul\":18148:18288   */\n      swap2\n      swap1\n      pop\n      jump\t// out\n        /* \"#utility.yul\":18294:18420   */\n    tag_515:\n        /* \"#utility.yul\":18344:18353   */\n      0x00\n        /* \"#utility.yul\":18377:18414   */\n      tag_517\n        /* \"#utility.yul\":18408:18413   */\n      dup3\n        /* \"#utility.yul\":18377:18414   */\n      tag_518\n      jump\t// in\n    tag_517:\n        /* \"#utility.yul\":18364:18414   */\n      swap1\n      pop\n        /* \"#utility.yul\":18294:18420   */\n      swap2\n      swap1\n      pop\n      jump\t// out\n        /* \"#utility.yul\":18426:18539   */\n    tag_518:\n        /* \"#utility.yul\":18476:18485   */\n      0x00\n        /* \"#utility.yul\":18509:18533   */\n      tag_520\n        /* \"#utility.yul\":18527:18532   */\n      dup3\n        /* \"#utility.yul\":18509:18533   */\n      tag_508\n      jump\t// in\n    tag_520:\n        /* \"#utility.yul\":18496:18533   */\n      swap1\n      pop\n        /* \"#utility.yul\":18426:18539   */\n      swap2\n      swap1\n      pop\n      jump\t// out\n        /* \"#utility.yul\":18545:18852   */\n    tag_352:\n        /* \"#utility.yul\":18613:18614   */\n      0x00\n        /* \"#utility.yul\":18623:18736   */\n    tag_522:\n        /* \"#utility.yul\":18637:18643   */\n      dup4\n        /* \"#utility.yul\":18634:18635   */\n      dup2\n        /* \"#utility.yul\":18631:18644   */\n      lt\n        /* \"#utility.yul\":18623:18736   */\n      iszero\n      tag_524\n      jumpi\n        /* \"#utility.yul\":18722:18723   */\n      dup1\n        /* \"#utility.yul\":18717:18720   */\n      dup3\n        /* \"#utility.yul\":18713:18724   */\n      add\n        /* \"#utility.yul\":18707:18725   */\n      mload\n        /* \"#utility.yul\":18703:18704   */\n      dup2\n        /* \"#utility.yul\":18698:18701   */\n      dup5\n        /* \"#utility.yul\":18694:18705   */\n      add\n        /* \"#utility.yul\":18687:18726   */\n      mstore\n        /* \"#utility.yul\":18659:18661   */\n      0x20\n        /* \"#utility.yul\":18656:18657   */\n      dup2\n        /* \"#utility.yul\":18652:18662   */\n      add\n        /* \"#utility.yul\":18647:18662   */\n      swap1\n      pop\n        /* \"#utility.yul\":18623:18736   */\n      jump(tag_522)\n    tag_524:\n        /* \"#utility.yul\":18754:18760   */\n      dup4\n        /* \"#utility.yul\":18751:18752   */\n      dup2\n        /* \"#utility.yul\":18748:18761   */\n      gt\n        /* \"#utility.yul\":18745:18846   */\n      iszero\n      tag_525\n      jumpi\n        /* \"#utility.yul\":18834:18835   */\n      0x00\n        /* \"#utility.yul\":18825:18831   */\n      dup5\n        /* \"#utility.yul\":18820:18823   */\n      dup5\n        /* \"#utility.yul\":18816:18832   */\n      add\n        /* \"#utility.yul\":18809:18836   */\n      mstore\n        /* \"#utility.yul\":18745:18846   */\n    tag_525:\n        /* \"#utility.yul\":18594:18852   */\n      pop\n        /* \"#utility.yul\":18545:18852   */\n      pop\n      pop\n      pop\n      jump\t// out\n        /* \"#utility.yul\":18858:19034   */\n    tag_101:\n        /* \"#utility.yul\":18890:18891   */\n      0x00\n        /* \"#utility.yul\":18907:18927   */\n      tag_527\n        /* \"#utility.yul\":18925:18926   */\n      dup3\n        /* \"#utility.yul\":18907:18927   */\n      tag_434\n      jump\t// in\n    tag_527:\n        /* \"#utility.yul\":18902:18927   */\n      swap2\n      pop\n        /* \"#utility.yul\":18941:18961   */\n      tag_528\n        /* \"#utility.yul\":18959:18960   */\n      dup4\n        /* \"#utility.yul\":18941:18961   */\n      tag_434\n      jump\t// in\n    tag_528:\n        /* \"#utility.yul\":18936:18961   */\n      swap3\n      pop\n        /* \"#utility.yul\":18980:18981   */\n      dup3\n        /* \"#utility.yul\":18970:19005   */\n      tag_529\n      jumpi\n        /* \"#utility.yul\":18985:19003   */\n      tag_530\n      tag_495\n      jump\t// in\n    tag_530:\n        /* \"#utility.yul\":18970:19005   */\n    tag_529:\n        /* \"#utility.yul\":19026:19027   */\n      dup3\n        /* \"#utility.yul\":19023:19024   */\n      dup3\n        /* \"#utility.yul\":19019:19028   */\n      mod\n        /* \"#utility.yul\":19014:19028   */\n      swap1\n      pop\n        /* \"#utility.yul\":18858:19034   */\n      swap3\n      swap2\n      pop\n      pop\n      jump\t// out\n        /* \"#utility.yul\":19040:19220   */\n    tag_489:\n        /* \"#utility.yul\":19088:19165   */\n      0x4e487b7100000000000000000000000000000000000000000000000000000000\n        /* \"#utility.yul\":19085:19086   */\n      0x00\n        /* \"#utility.yul\":19078:19166   */\n      mstore\n        /* \"#utility.yul\":19185:19189   */\n      0x11\n        /* \"#utility.yul\":19182:19183   */\n      0x04\n        /* \"#utility.yul\":19175:19190   */\n      mstore\n        /* \"#utility.yul\":19209:19213   */\n      0x24\n        /* \"#utility.yul\":19206:19207   */\n      0x00\n        /* \"#utility.yul\":19199:19214   */\n      revert\n        /* \"#utility.yul\":19226:19406   */\n    tag_495:\n        /* \"#utility.yul\":19274:19351   */\n      0x4e487b7100000000000000000000000000000000000000000000000000000000\n        /* \"#utility.yul\":19271:19272   */\n      0x00\n        /* \"#utility.yul\":19264:19352   */\n      mstore\n        /* \"#utility.yul\":19371:19375   */\n      0x12\n        /* \"#utility.yul\":19368:19369   */\n      0x04\n        /* \"#utility.yul\":19361:19376   */\n      mstore\n        /* \"#utility.yul\":19395:19399   */\n      0x24\n        /* \"#utility.yul\":19392:19393   */\n      0x00\n        /* \"#utility.yul\":19385:19400   */\n      revert\n        /* \"#utility.yul\":19535:19652   */\n    tag_322:\n        /* \"#utility.yul\":19644:19645   */\n      0x00\n        /* \"#utility.yul\":19641:19642   */\n      dup1\n        /* \"#utility.yul\":19634:19646   */\n      revert\n        /* \"#utility.yul\":19658:19760   */\n    tag_365:\n        /* \"#utility.yul\":19699:19705   */\n      0x00\n        /* \"#utility.yul\":19750:19752   */\n      0x1f\n        /* \"#utility.yul\":19746:19753   */\n      not\n        /* \"#utility.yul\":19741:19743   */\n      0x1f\n        /* \"#utility.yul\":19734:19739   */\n      dup4\n        /* \"#utility.yul\":19730:19744   */\n      add\n        /* \"#utility.yul\":19726:19754   */\n      and\n        /* \"#utility.yul\":19716:19754   */\n      swap1\n      pop\n        /* \"#utility.yul\":19658:19760   */\n      swap2\n      swap1\n      pop\n      jump\t// out\n        /* \"#utility.yul\":19766:19932   */\n    tag_370:\n        /* \"#utility.yul\":19906:19924   */\n      0x4e6f7468696e6720746f20636c61696d00000000000000000000000000000000\n        /* \"#utility.yul\":19902:19903   */\n      0x00\n        /* \"#utility.yul\":19894:19900   */\n      dup3\n        /* \"#utility.yul\":19890:19904   */\n      add\n        /* \"#utility.yul\":19883:19925   */\n      mstore\n        /* \"#utility.yul\":19766:19932   */\n      pop\n      jump\t// out\n        /* \"#utility.yul\":19938:20167   */\n    tag_375:\n        /* \"#utility.yul\":20078:20112   */\n      0x5361666542455032303a204245503230206f7065726174696f6e20646964206e\n        /* \"#utility.yul\":20074:20075   */\n      0x00\n        /* \"#utility.yul\":20066:20072   */\n      dup3\n        /* \"#utility.yul\":20062:20076   */\n      add\n        /* \"#utility.yul\":20055:20113   */\n      mstore\n        /* \"#utility.yul\":20147:20159   */\n      0x6f74207375636365656400000000000000000000000000000000000000000000\n        /* \"#utility.yul\":20142:20144   */\n      0x20\n        /* \"#utility.yul\":20134:20140   */\n      dup3\n        /* \"#utility.yul\":20130:20145   */\n      add\n        /* \"#utility.yul\":20123:20160   */\n      mstore\n        /* \"#utility.yul\":19938:20167   */\n      pop\n      jump\t// out\n        /* \"#utility.yul\":20173:20398   */\n    tag_380:\n        /* \"#utility.yul\":20313:20347   */\n      0x4f776e61626c653a206e6577206f776e657220697320746865207a65726f2061\n        /* \"#utility.yul\":20309:20310   */\n      0x00\n        /* \"#utility.yul\":20301:20307   */\n      dup3\n        /* \"#utility.yul\":20297:20311   */\n      add\n        /* \"#utility.yul\":20290:20348   */\n      mstore\n        /* \"#utility.yul\":20382:20390   */\n      0x6464726573730000000000000000000000000000000000000000000000000000\n        /* \"#utility.yul\":20377:20379   */\n      0x20\n        /* \"#utility.yul\":20369:20375   */\n      dup3\n        /* \"#utility.yul\":20365:20380   */\n      add\n        /* \"#utility.yul\":20358:20391   */\n      mstore\n        /* \"#utility.yul\":20173:20398   */\n      pop\n      jump\t// out\n        /* \"#utility.yul\":20404:20568   */\n    tag_385:\n        /* \"#utility.yul\":20544:20560   */\n      0x496e76616c696420616d6f756e74000000000000000000000000000000000000\n        /* \"#utility.yul\":20540:20541   */\n      0x00\n        /* \"#utility.yul\":20532:20538   */\n      dup3\n        /* \"#utility.yul\":20528:20542   */\n      add\n        /* \"#utility.yul\":20521:20561   */\n      mstore\n        /* \"#utility.yul\":20404:20568   */\n      pop\n      jump\t// out\n        /* \"#utility.yul\":20574:20799   */\n    tag_390:\n        /* \"#utility.yul\":20714:20748   */\n      0x416464726573733a20696e73756666696369656e742062616c616e636520666f\n        /* \"#utility.yul\":20710:20711   */\n      0x00\n        /* \"#utility.yul\":20702:20708   */\n      dup3\n        /* \"#utility.yul\":20698:20712   */\n      add\n        /* \"#utility.yul\":20691:20749   */\n      mstore\n        /* \"#utility.yul\":20783:20791   */\n      0x722063616c6c0000000000000000000000000000000000000000000000000000\n        /* \"#utility.yul\":20778:20780   */\n      0x20\n        /* \"#utility.yul\":20770:20776   */\n      dup3\n        /* \"#utility.yul\":20766:20781   */\n      add\n        /* \"#utility.yul\":20759:20792   */\n      mstore\n        /* \"#utility.yul\":20574:20799   */\n      pop\n      jump\t// out\n        /* \"#utility.yul\":20805:21030   */\n    tag_395:\n        /* \"#utility.yul\":20945:20979   */\n      0x496e76616c696420416464726573732e20416464726573732063616e27742062\n        /* \"#utility.yul\":20941:20942   */\n      0x00\n        /* \"#utility.yul\":20933:20939   */\n      dup3\n        /* \"#utility.yul\":20929:20943   */\n      add\n        /* \"#utility.yul\":20922:20980   */\n      mstore\n        /* \"#utility.yul\":21014:21022   */\n      0x65207a65726f0000000000000000000000000000000000000000000000000000\n        /* \"#utility.yul\":21009:21011   */\n      0x20\n        /* \"#utility.yul\":21001:21007   */\n      dup3\n        /* \"#utility.yul\":20997:21012   */\n      add\n        /* \"#utility.yul\":20990:21023   */\n      mstore\n        /* \"#utility.yul\":20805:21030   */\n      pop\n      jump\t// out\n        /* \"#utility.yul\":21036:21217   */\n    tag_400:\n        /* \"#utility.yul\":21176:21209   */\n      0x416d6f756e742073686f756c642062652067726561746572207468616e203000\n        /* \"#utility.yul\":21172:21173   */\n      0x00\n        /* \"#utility.yul\":21164:21170   */\n      dup3\n        /* \"#utility.yul\":21160:21174   */\n      add\n        /* \"#utility.yul\":21153:21210   */\n      mstore\n        /* \"#utility.yul\":21036:21217   */\n      pop\n      jump\t// out\n        /* \"#utility.yul\":21223:21405   */\n    tag_405:\n        /* \"#utility.yul\":21363:21397   */\n      0x4f776e61626c653a2063616c6c6572206973206e6f7420746865206f776e6572\n        /* \"#utility.yul\":21359:21360   */\n      0x00\n        /* \"#utility.yul\":21351:21357   */\n      dup3\n        /* \"#utility.yul\":21347:21361   */\n      add\n        /* \"#utility.yul\":21340:21398   */\n      mstore\n        /* \"#utility.yul\":21223:21405   */\n      pop\n      jump\t// out\n        /* \"#utility.yul\":21411:21572   */\n    tag_410:\n        /* \"#utility.yul\":21551:21564   */\n      0x496e76616c696420415059000000000000000000000000000000000000000000\n        /* \"#utility.yul\":21547:21548   */\n      0x00\n        /* \"#utility.yul\":21539:21545   */\n      dup3\n        /* \"#utility.yul\":21535:21549   */\n      add\n        /* \"#utility.yul\":21528:21565   */\n      mstore\n        /* \"#utility.yul\":21411:21572   */\n      pop\n      jump\t// out\n        /* \"#utility.yul\":21578:21757   */\n    tag_415:\n        /* \"#utility.yul\":21718:21749   */\n      0x416464726573733a2063616c6c20746f206e6f6e2d636f6e7472616374000000\n        /* \"#utility.yul\":21714:21715   */\n      0x00\n        /* \"#utility.yul\":21706:21712   */\n      dup3\n        /* \"#utility.yul\":21702:21716   */\n      add\n        /* \"#utility.yul\":21695:21750   */\n      mstore\n        /* \"#utility.yul\":21578:21757   */\n      pop\n      jump\t// out\n        /* \"#utility.yul\":21763:21939   */\n    tag_420:\n        /* \"#utility.yul\":21903:21931   */\n      0x496e76616c696420556e7374616b696e67204665652052617465000000000000\n        /* \"#utility.yul\":21899:21900   */\n      0x00\n        /* \"#utility.yul\":21891:21897   */\n      dup3\n        /* \"#utility.yul\":21887:21901   */\n      add\n        /* \"#utility.yul\":21880:21932   */\n      mstore\n        /* \"#utility.yul\":21763:21939   */\n      pop\n      jump\t// out\n        /* \"#utility.yul\":21945:22118   */\n    tag_425:\n        /* \"#utility.yul\":22085:22110   */\n      0x496e76616c6964204c6f636b7570204475726174696f6e000000000000000000\n        /* \"#utility.yul\":22081:22082   */\n      0x00\n        /* \"#utility.yul\":22073:22079   */\n      dup3\n        /* \"#utility.yul\":22069:22083   */\n      add\n        /* \"#utility.yul\":22062:22111   */\n      mstore\n        /* \"#utility.yul\":21945:22118   */\n      pop\n      jump\t// out\n        /* \"#utility.yul\":22124:22287   */\n    tag_430:\n        /* \"#utility.yul\":22264:22279   */\n      0x496e73756666696369656e742100000000000000000000000000000000000000\n        /* \"#utility.yul\":22260:22261   */\n      0x00\n        /* \"#utility.yul\":22252:22258   */\n      dup3\n        /* \"#utility.yul\":22248:22262   */\n      add\n        /* \"#utility.yul\":22241:22280   */\n      mstore\n        /* \"#utility.yul\":22124:22287   */\n      pop\n      jump\t// out\n        /* \"#utility.yul\":22293:22415   */\n    tag_307:\n        /* \"#utility.yul\":22366:22390   */\n      tag_551\n        /* \"#utility.yul\":22384:22389   */\n      dup2\n        /* \"#utility.yul\":22366:22390   */\n      tag_344\n      jump\t// in\n    tag_551:\n        /* \"#utility.yul\":22359:22364   */\n      dup2\n        /* \"#utility.yul\":22356:22391   */\n      eq\n        /* \"#utility.yul\":22346:22409   */\n      tag_552\n      jumpi\n        /* \"#utility.yul\":22405:22406   */\n      0x00\n        /* \"#utility.yul\":22402:22403   */\n      dup1\n        /* \"#utility.yul\":22395:22407   */\n      revert\n        /* \"#utility.yul\":22346:22409   */\n    tag_552:\n        /* \"#utility.yul\":22293:22415   */\n      pop\n      jump\t// out\n        /* \"#utility.yul\":22421:22537   */\n    tag_311:\n        /* \"#utility.yul\":22491:22512   */\n      tag_554\n        /* \"#utility.yul\":22506:22511   */\n      dup2\n        /* \"#utility.yul\":22491:22512   */\n      tag_509\n      jump\t// in\n    tag_554:\n        /* \"#utility.yul\":22484:22489   */\n      dup2\n        /* \"#utility.yul\":22481:22513   */\n      eq\n        /* \"#utility.yul\":22471:22531   */\n      tag_555\n      jumpi\n        /* \"#utility.yul\":22527:22528   */\n      0x00\n        /* \"#utility.yul\":22524:22525   */\n      dup1\n        /* \"#utility.yul\":22517:22529   */\n      revert\n        /* \"#utility.yul\":22471:22531   */\n    tag_555:\n        /* \"#utility.yul\":22421:22537   */\n      pop\n      jump\t// out\n        /* \"#utility.yul\":22543:22665   */\n    tag_315:\n        /* \"#utility.yul\":22616:22640   */\n      tag_557\n        /* \"#utility.yul\":22634:22639   */\n      dup2\n        /* \"#utility.yul\":22616:22640   */\n      tag_434\n      jump\t// in\n    tag_557:\n        /* \"#utility.yul\":22609:22614   */\n      dup2\n        /* \"#utility.yul\":22606:22641   */\n      eq\n        /* \"#utility.yul\":22596:22659   */\n      tag_558\n      jumpi\n        /* \"#utility.yul\":22655:22656   */\n      0x00\n        /* \"#utility.yul\":22652:22653   */\n      dup1\n        /* \"#utility.yul\":22645:22657   */\n      revert\n        /* \"#utility.yul\":22596:22659   */\n    tag_558:\n        /* \"#utility.yul\":22543:22665   */\n      pop\n      jump\t// out\n\n    auxdata: 0xa2646970667358221220e6efc59e49dc7e980978f294c922af4c8d26fb936a7cecb155c3fa1d54af0bf964736f6c63430008070033\n}\n",
				"bytecode": {
					"linkReferences": {},
					"object": "60806040523480156200001157600080fd5b5060405162002881380380620028818339818101604052810190620000379190620001f9565b620000576200004b620000f160201b60201c565b620000f960201b60201c565b62000067620001bd60201b60201c565b80600560006101000a81548173ffffffffffffffffffffffffffffffffffffffff021916908373ffffffffffffffffffffffffffffffffffffffff16021790555081600860006101000a81548173ffffffffffffffffffffffffffffffffffffffff021916908373ffffffffffffffffffffffffffffffffffffffff160217905550505062000293565b600033905090565b60008060009054906101000a900473ffffffffffffffffffffffffffffffffffffffff169050816000806101000a81548173ffffffffffffffffffffffffffffffffffffffff021916908373ffffffffffffffffffffffffffffffffffffffff1602179055508173ffffffffffffffffffffffffffffffffffffffff168173ffffffffffffffffffffffffffffffffffffffff167f8be0079c531659141344cd1fd0a4f28419497f9722a3daafe3b4186f6b6457e060405160405180910390a35050565b607d6003819055506105dc60018190555060c860048190555062093a80600281905550565b600081519050620001f38162000279565b92915050565b6000806040838503121562000213576200021262000274565b5b60006200022385828601620001e2565b92505060206200023685828601620001e2565b9150509250929050565b60006200024d8262000254565b9050919050565b600073ffffffffffffffffffffffffffffffffffffffff82169050919050565b600080fd5b620002848162000240565b81146200029057600080fd5b50565b6125de80620002a36000396000f3fe608060405234801561001057600080fd5b50600436106101005760003560e01c80637b0472f01161009757806391e07e7a1161006657806391e07e7a1461023b578063f2fde38b14610257578063f7b2a7be14610273578063fc0c546a1461029157610100565b80637b0472f0146101c7578063817b1cd2146101e35780638a9d3839146102015780638da5cb5b1461021d57610100565b80635d2ec65d116100d35780635d2ec65d146101655780636413996c14610183578063692642e7146101a1578063715018a6146101bd57610100565b80632e1a7d4d14610105578063373d6132146101215780634641257d1461013f57806350f19c8714610149575b600080fd5b61011f600480360381019061011a9190611a97565b6102af565b005b610129610666565b6040516101369190611ffe565b60405180910390f35b6101476106b0565b005b610163600480360381019061015e9190611a97565b6109e1565b005b61016d610ae1565b60405161017a9190611ffe565b60405180910390f35b61018b610b33565b6040516101989190611ffe565b60405180910390f35b6101bb60048036038101906101b69190611a97565b610bdb565b005b6101c5610cdb565b005b6101e160048036038101906101dc9190611af1565b610d63565b005b6101eb610fb6565b6040516101f89190611ffe565b60405180910390f35b61021b60048036038101906102169190611a3d565b610fbc565b005b610225611122565b6040516102329190611da6565b60405180910390f35b61025560048036038101906102509190611a97565b61114b565b005b610271600480360381019061026c9190611a3d565b61124b565b005b61027b611343565b6040516102889190611ffe565b60405180910390f35b61029961138d565b6040516102a69190611e21565b60405180910390f35b6000600660003373ffffffffffffffffffffffffffffffffffffffff1673ffffffffffffffffffffffffffffffffffffffff168152602001908152602001600020905060008211610335576040517f08c379a000000000000000000000000000000000000000000000000000000000815260040161032c90611f1e565b60405180910390fd5b806001015482111561037c576040517f08c379a000000000000000000000000000000000000000000000000000000000815260040161037390611ebe565b60405180910390fd5b6103846113b3565b6000600860009054906101000a900473ffffffffffffffffffffffffffffffffffffffff1673ffffffffffffffffffffffffffffffffffffffff166370a08231306040518263ffffffff1660e01b81526004016103e19190611da6565b60206040518083038186803b1580156103f957600080fd5b505afa15801561040d573d6000803e3d6000fd5b505050506040513d601f19601f820116820180604052508101906104319190611ac4565b83106104e757600860009054906101000a900473ffffffffffffffffffffffffffffffffffffffff1673ffffffffffffffffffffffffffffffffffffffff166370a08231306040518263ffffffff1660e01b81526004016104929190611da6565b60206040518083038186803b1580156104aa57600080fd5b505afa1580156104be573d6000803e3d6000fd5b505050506040513d601f19601f820116820180604052508101906104e29190611ac4565b6104e9565b825b905060008060025461051d6201518061050f87600301544261151a90919063ffffffff16565b61153090919063ffffffff16565b6105279190612211565b14610533576001610536565b60005b60ff16905061059e61058f61271061058160015461057387610565888b6002015461154690919063ffffffff16565b61154690919063ffffffff16565b61154690919063ffffffff16565b61153090919063ffffffff16565b8361151a90919063ffffffff16565b91506105b58260075461151a90919063ffffffff16565b6007819055506105d282846001015461151a90919063ffffffff16565b83600101819055506106273383600860009054906101000a900473ffffffffffffffffffffffffffffffffffffffff1673ffffffffffffffffffffffffffffffffffffffff1661155c9092919063ffffffff16565b7f884edad9ce6fa2440d8a54cc123490eb96d2768479d49ff9c7366125a94243643383604051610658929190611df8565b60405180910390a150505050565b6000600660003373ffffffffffffffffffffffffffffffffffffffff1673ffffffffffffffffffffffffffffffffffffffff16815260200190815260200160002060010154905090565b6106b86113b3565b6000600660003373ffffffffffffffffffffffffffffffffffffffff1673ffffffffffffffffffffffffffffffffffffffff1681526020019081526020016000209050600061074061072d61271061071f600454866000015461154690919063ffffffff16565b61153090919063ffffffff16565b836000015461151a90919063ffffffff16565b905060008111610785576040517f08c379a000000000000000000000000000000000000000000000000000000000815260040161077c90611e5e565b60405180910390fd5b600860009054906101000a900473ffffffffffffffffffffffffffffffffffffffff1673ffffffffffffffffffffffffffffffffffffffff166370a08231600560009054906101000a900473ffffffffffffffffffffffffffffffffffffffff166040518263ffffffff1660e01b81526004016108029190611da6565b60206040518083038186803b15801561081a57600080fd5b505afa15801561082e573d6000803e3d6000fd5b505050506040513d601f19601f820116820180604052508101906108529190611ac4565b81111561092957600860009054906101000a900473ffffffffffffffffffffffffffffffffffffffff1673ffffffffffffffffffffffffffffffffffffffff166370a08231600560009054906101000a900473ffffffffffffffffffffffffffffffffffffffff166040518263ffffffff1660e01b81526004016108d69190611da6565b60206040518083038186803b1580156108ee57600080fd5b505afa158015610902573d6000803e3d6000fd5b505050506040513d601f19601f820116820180604052508101906109269190611ac4565b90505b61099a600560009054906101000a900473ffffffffffffffffffffffffffffffffffffffff163383600860009054906101000a900473ffffffffffffffffffffffffffffffffffffffff1673ffffffffffffffffffffffffffffffffffffffff166115e2909392919063ffffffff16565b600082600001819055507fc9695243a805adb74c91f28311176c65b417e842d5699893cef56d18bfa48cba33826040516109d5929190611df8565b60405180910390a15050565b6109e961166b565b73ffffffffffffffffffffffffffffffffffffffff16610a07611122565b73ffffffffffffffffffffffffffffffffffffffff1614610a5d576040517f08c379a0000000000000000000000000000000000000000000000000000000008152600401610a5490611f3e565b60405180910390fd5b60008111610aa0576040517f08c379a0000000000000000000000000000000000000000000000000000000008152600401610a9790611f5e565b60405180910390fd5b806003819055507fb8f51888a0746f534a064d0d08f74852a939d6cd181760e1cedc7a8396d9e22f81604051610ad69190611ffe565b60405180910390a150565b6000610aeb6113b3565b600660003373ffffffffffffffffffffffffffffffffffffffff1673ffffffffffffffffffffffffffffffffffffffff16815260200190815260200160002060000154905090565b6000610bd6610b506201518060025461151a90919063ffffffff16565b610ba6600660003373ffffffffffffffffffffffffffffffffffffffff1673ffffffffffffffffffffffffffffffffffffffff1681526020019081526020016000206003015442610ba1919061212c565b611673565b610bb09190612211565b610bc86201518060025461151a90919063ffffffff16565b61151a90919063ffffffff16565b905090565b610be361166b565b73ffffffffffffffffffffffffffffffffffffffff16610c01611122565b73ffffffffffffffffffffffffffffffffffffffff1614610c57576040517f08c379a0000000000000000000000000000000000000000000000000000000008152600401610c4e90611f3e565b60405180910390fd5b60008111610c9a576040517f08c379a0000000000000000000000000000000000000000000000000000000008152600401610c9190611fbe565b60405180910390fd5b806002819055507f189bda9782663c67a3f95c0aa5455924c711210b00281c60ead2f0dd8dbc924c81604051610cd09190611ffe565b60405180910390a150565b610ce361166b565b73ffffffffffffffffffffffffffffffffffffffff16610d01611122565b73ffffffffffffffffffffffffffffffffffffffff1614610d57576040517f08c379a0000000000000000000000000000000000000000000000000000000008152600401610d4e90611f3e565b60405180910390fd5b610d616000611692565b565b60008211610da6576040517f08c379a0000000000000000000000000000000000000000000000000000000008152600401610d9d90611f1e565b60405180910390fd5b81600860009054906101000a900473ffffffffffffffffffffffffffffffffffffffff1673ffffffffffffffffffffffffffffffffffffffff166370a08231336040518263ffffffff1660e01b8152600401610e029190611da6565b60206040518083038186803b158015610e1a57600080fd5b505afa158015610e2e573d6000803e3d6000fd5b505050506040513d601f19601f82011682018060405250810190610e529190611ac4565b11610e92576040517f08c379a0000000000000000000000000000000000000000000000000000000008152600401610e8990611fde565b60405180910390fd5b610e9a6113b3565b6000600660003373ffffffffffffffffffffffffffffffffffffffff1673ffffffffffffffffffffffffffffffffffffffff1681526020019081526020016000209050610f2c333085600860009054906101000a900473ffffffffffffffffffffffffffffffffffffffff1673ffffffffffffffffffffffffffffffffffffffff166115e2909392919063ffffffff16565b610f4383826001015461175690919063ffffffff16565b8160010181905550428160030181905550818160020181905550610f728360075461175690919063ffffffff16565b6007819055507f9e71bc8eea02a63969f509818f2dafb9254532904319f9dbda79b67bd34a5f3d3384604051610fa9929190611df8565b60405180910390a1505050565b60075481565b610fc461166b565b73ffffffffffffffffffffffffffffffffffffffff16610fe2611122565b73ffffffffffffffffffffffffffffffffffffffff1614611038576040517f08c379a000000000000000000000000000000000000000000000000000000000815260040161102f90611f3e565b60405180910390fd5b600073ffffffffffffffffffffffffffffffffffffffff168173ffffffffffffffffffffffffffffffffffffffff16116110a7576040517f08c379a000000000000000000000000000000000000000000000000000000000815260040161109e90611efe565b60405180910390fd5b80600560006101000a81548173ffffffffffffffffffffffffffffffffffffffff021916908373ffffffffffffffffffffffffffffffffffffffff1602179055507feda87051e2996c46ee8d576509ffc1826e6df46eef99072f838fecbb88992a87816040516111179190611da6565b60405180910390a150565b60008060009054906101000a900473ffffffffffffffffffffffffffffffffffffffff16905090565b61115361166b565b73ffffffffffffffffffffffffffffffffffffffff16611171611122565b73ffffffffffffffffffffffffffffffffffffffff16146111c7576040517f08c379a00000000000000000000000000000000000000000000000000000000081526004016111be90611f3e565b60405180910390fd5b6000811161120a576040517f08c379a000000000000000000000000000000000000000000000000000000000815260040161120190611f9e565b60405180910390fd5b806001819055507f150c688dd7595bf7862b8ab1fe46756450eb7d731037942b3bbc46f3f0e21b81816040516112409190611ffe565b60405180910390a150565b61125361166b565b73ffffffffffffffffffffffffffffffffffffffff16611271611122565b73ffffffffffffffffffffffffffffffffffffffff16146112c7576040517f08c379a00000000000000000000000000000000000000000000000000000000081526004016112be90611f3e565b60405180910390fd5b600073ffffffffffffffffffffffffffffffffffffffff168173ffffffffffffffffffffffffffffffffffffffff161415611337576040517f08c379a000000000000000000000000000000000000000000000000000000000815260040161132e90611e9e565b60405180910390fd5b61134081611692565b50565b6000600660003373ffffffffffffffffffffffffffffffffffffffff1673ffffffffffffffffffffffffffffffffffffffff16815260200190815260200160002060000154905090565b600860009054906101000a900473ffffffffffffffffffffffffffffffffffffffff1681565b6000600660003373ffffffffffffffffffffffffffffffffffffffff1673ffffffffffffffffffffffffffffffffffffffff168152602001908152602001600020905080600401544210156114085750611518565b600061142282600301544261141d919061212c565b611673565b9050600061146561271061145760035461144986886001015461154690919063ffffffff16565b61154690919063ffffffff16565b61153090919063ffffffff16565b90506001836002015414156114ec57600061148b6002548461153090919063ffffffff16565b90506114e86127106114da6114b56114a4600254611673565b60035461154690919063ffffffff16565b6114cc85896001015461154690919063ffffffff16565b61154690919063ffffffff16565b61153090919063ffffffff16565b9150505b61150381846000015461175690919063ffffffff16565b83600001819055504283600401819055505050505b565b60008183611528919061212c565b905092915050565b6000818361153e91906120a1565b905092915050565b6000818361155491906120d2565b905092915050565b6115dd8363a9059cbb60e01b848460405160240161157b929190611df8565b604051602081830303815290604052907bffffffffffffffffffffffffffffffffffffffffffffffffffffffff19166020820180517bffffffffffffffffffffffffffffffffffffffffffffffffffffffff838183161783525050505061176c565b505050565b611665846323b872dd60e01b85858560405160240161160393929190611dc1565b604051602081830303815290604052907bffffffffffffffffffffffffffffffffffffffffffffffffffffffff19166020820180517bffffffffffffffffffffffffffffffffffffffffffffffffffffffff838183161783525050505061176c565b50505050565b600033905090565b600061168b620151808361153090919063ffffffff16565b9050919050565b60008060009054906101000a900473ffffffffffffffffffffffffffffffffffffffff169050816000806101000a81548173ffffffffffffffffffffffffffffffffffffffff021916908373ffffffffffffffffffffffffffffffffffffffff1602179055508173ffffffffffffffffffffffffffffffffffffffff168173ffffffffffffffffffffffffffffffffffffffff167f8be0079c531659141344cd1fd0a4f28419497f9722a3daafe3b4186f6b6457e060405160405180910390a35050565b60008183611764919061204b565b905092915050565b60006117ce826040518060400160405280602081526020017f5361666542455032303a206c6f772d6c6576656c2063616c6c206661696c65648152508573ffffffffffffffffffffffffffffffffffffffff166118339092919063ffffffff16565b905060008151111561182e57808060200190518101906117ee9190611a6a565b61182d576040517f08c379a000000000000000000000000000000000000000000000000000000000815260040161182490611e7e565b60405180910390fd5b5b505050565b6060611842848460008561184b565b90509392505050565b606082471015611890576040517f08c379a000000000000000000000000000000000000000000000000000000000815260040161188790611ede565b60405180910390fd5b6118998561195f565b6118d8576040517f08c379a00000000000000000000000000000000000000000000000000000000081526004016118cf90611f7e565b60405180910390fd5b6000808673ffffffffffffffffffffffffffffffffffffffff1685876040516119019190611d8f565b60006040518083038185875af1925050503d806000811461193e576040519150601f19603f3d011682016040523d82523d6000602084013e611943565b606091505b5091509150611953828286611982565b92505050949350505050565b6000808273ffffffffffffffffffffffffffffffffffffffff163b119050919050565b60608315611992578290506119e2565b6000835111156119a55782518084602001fd5b816040517f08c379a00000000000000000000000000000000000000000000000000000000081526004016119d99190611e3c565b60405180910390fd5b9392505050565b6000813590506119f881612563565b92915050565b600081519050611a0d8161257a565b92915050565b600081359050611a2281612591565b92915050565b600081519050611a3781612591565b92915050565b600060208284031215611a5357611a526122a0565b5b6000611a61848285016119e9565b91505092915050565b600060208284031215611a8057611a7f6122a0565b5b6000611a8e848285016119fe565b91505092915050565b600060208284031215611aad57611aac6122a0565b5b6000611abb84828501611a13565b91505092915050565b600060208284031215611ada57611ad96122a0565b5b6000611ae884828501611a28565b91505092915050565b60008060408385031215611b0857611b076122a0565b5b6000611b1685828601611a13565b9250506020611b2785828601611a13565b9150509250929050565b611b3a81612160565b82525050565b6000611b4b82612019565b611b55818561202f565b9350611b658185602086016121de565b80840191505092915050565b611b7a816121a8565b82525050565b6000611b8b82612024565b611b95818561203a565b9350611ba58185602086016121de565b611bae816122a5565b840191505092915050565b6000611bc660108361203a565b9150611bd1826122b6565b602082019050919050565b6000611be9602a8361203a565b9150611bf4826122df565b604082019050919050565b6000611c0c60268361203a565b9150611c178261232e565b604082019050919050565b6000611c2f600e8361203a565b9150611c3a8261237d565b602082019050919050565b6000611c5260268361203a565b9150611c5d826123a6565b604082019050919050565b6000611c7560268361203a565b9150611c80826123f5565b604082019050919050565b6000611c98601f8361203a565b9150611ca382612444565b602082019050919050565b6000611cbb60208361203a565b9150611cc68261246d565b602082019050919050565b6000611cde600b8361203a565b9150611ce982612496565b602082019050919050565b6000611d01601d8361203a565b9150611d0c826124bf565b602082019050919050565b6000611d24601a8361203a565b9150611d2f826124e8565b602082019050919050565b6000611d4760178361203a565b9150611d5282612511565b602082019050919050565b6000611d6a600d8361203a565b9150611d758261253a565b602082019050919050565b611d898161219e565b82525050565b6000611d9b8284611b40565b915081905092915050565b6000602082019050611dbb6000830184611b31565b92915050565b6000606082019050611dd66000830186611b31565b611de36020830185611b31565b611df06040830184611d80565b949350505050565b6000604082019050611e0d6000830185611b31565b611e1a6020830184611d80565b9392505050565b6000602082019050611e366000830184611b71565b92915050565b60006020820190508181036000830152611e568184611b80565b905092915050565b60006020820190508181036000830152611e7781611bb9565b9050919050565b60006020820190508181036000830152611e9781611bdc565b9050919050565b60006020820190508181036000830152611eb781611bff565b9050919050565b60006020820190508181036000830152611ed781611c22565b9050919050565b60006020820190508181036000830152611ef781611c45565b9050919050565b60006020820190508181036000830152611f1781611c68565b9050919050565b60006020820190508181036000830152611f3781611c8b565b9050919050565b60006020820190508181036000830152611f5781611cae565b9050919050565b60006020820190508181036000830152611f7781611cd1565b9050919050565b60006020820190508181036000830152611f9781611cf4565b9050919050565b60006020820190508181036000830152611fb781611d17565b9050919050565b60006020820190508181036000830152611fd781611d3a565b9050919050565b60006020820190508181036000830152611ff781611d5d565b9050919050565b60006020820190506120136000830184611d80565b92915050565b600081519050919050565b600081519050919050565b600081905092915050565b600082825260208201905092915050565b60006120568261219e565b91506120618361219e565b9250827fffffffffffffffffffffffffffffffffffffffffffffffffffffffffffffffff0382111561209657612095612242565b5b828201905092915050565b60006120ac8261219e565b91506120b78361219e565b9250826120c7576120c6612271565b5b828204905092915050565b60006120dd8261219e565b91506120e88361219e565b9250817fffffffffffffffffffffffffffffffffffffffffffffffffffffffffffffffff048311821515161561212157612120612242565b5b828202905092915050565b60006121378261219e565b91506121428361219e565b92508282101561215557612154612242565b5b828203905092915050565b600061216b8261217e565b9050919050565b60008115159050919050565b600073ffffffffffffffffffffffffffffffffffffffff82169050919050565b6000819050919050565b60006121b3826121ba565b9050919050565b60006121c5826121cc565b9050919050565b60006121d78261217e565b9050919050565b60005b838110156121fc5780820151818401526020810190506121e1565b8381111561220b576000848401525b50505050565b600061221c8261219e565b91506122278361219e565b92508261223757612236612271565b5b828206905092915050565b7f4e487b7100000000000000000000000000000000000000000000000000000000600052601160045260246000fd5b7f4e487b7100000000000000000000000000000000000000000000000000000000600052601260045260246000fd5b600080fd5b6000601f19601f8301169050919050565b7f4e6f7468696e6720746f20636c61696d00000000000000000000000000000000600082015250565b7f5361666542455032303a204245503230206f7065726174696f6e20646964206e60008201527f6f74207375636365656400000000000000000000000000000000000000000000602082015250565b7f4f776e61626c653a206e6577206f776e657220697320746865207a65726f206160008201527f6464726573730000000000000000000000000000000000000000000000000000602082015250565b7f496e76616c696420616d6f756e74000000000000000000000000000000000000600082015250565b7f416464726573733a20696e73756666696369656e742062616c616e636520666f60008201527f722063616c6c0000000000000000000000000000000000000000000000000000602082015250565b7f496e76616c696420416464726573732e20416464726573732063616e2774206260008201527f65207a65726f0000000000000000000000000000000000000000000000000000602082015250565b7f416d6f756e742073686f756c642062652067726561746572207468616e203000600082015250565b7f4f776e61626c653a2063616c6c6572206973206e6f7420746865206f776e6572600082015250565b7f496e76616c696420415059000000000000000000000000000000000000000000600082015250565b7f416464726573733a2063616c6c20746f206e6f6e2d636f6e7472616374000000600082015250565b7f496e76616c696420556e7374616b696e67204665652052617465000000000000600082015250565b7f496e76616c6964204c6f636b7570204475726174696f6e000000000000000000600082015250565b7f496e73756666696369656e742100000000000000000000000000000000000000600082015250565b61256c81612160565b811461257757600080fd5b50565b61258381612172565b811461258e57600080fd5b50565b61259a8161219e565b81146125a557600080fd5b5056fea2646970667358221220e6efc59e49dc7e980978f294c922af4c8d26fb936a7cecb155c3fa1d54af0bf964736f6c63430008070033",
					"opcodes": "PUSH1 0x80 PUSH1 0x40 MSTORE CALLVALUE DUP1 ISZERO PUSH3 0x11 JUMPI PUSH1 0x0 DUP1 REVERT JUMPDEST POP PUSH1 0x40 MLOAD PUSH3 0x2881 CODESIZE SUB DUP1 PUSH3 0x2881 DUP4 CODECOPY DUP2 DUP2 ADD PUSH1 0x40 MSTORE DUP2 ADD SWAP1 PUSH3 0x37 SWAP2 SWAP1 PUSH3 0x1F9 JUMP JUMPDEST PUSH3 0x57 PUSH3 0x4B PUSH3 0xF1 PUSH1 0x20 SHL PUSH1 0x20 SHR JUMP JUMPDEST PUSH3 0xF9 PUSH1 0x20 SHL PUSH1 0x20 SHR JUMP JUMPDEST PUSH3 0x67 PUSH3 0x1BD PUSH1 0x20 SHL PUSH1 0x20 SHR JUMP JUMPDEST DUP1 PUSH1 0x5 PUSH1 0x0 PUSH2 0x100 EXP DUP2 SLOAD DUP2 PUSH20 0xFFFFFFFFFFFFFFFFFFFFFFFFFFFFFFFFFFFFFFFF MUL NOT AND SWAP1 DUP4 PUSH20 0xFFFFFFFFFFFFFFFFFFFFFFFFFFFFFFFFFFFFFFFF AND MUL OR SWAP1 SSTORE POP DUP2 PUSH1 0x8 PUSH1 0x0 PUSH2 0x100 EXP DUP2 SLOAD DUP2 PUSH20 0xFFFFFFFFFFFFFFFFFFFFFFFFFFFFFFFFFFFFFFFF MUL NOT AND SWAP1 DUP4 PUSH20 0xFFFFFFFFFFFFFFFFFFFFFFFFFFFFFFFFFFFFFFFF AND MUL OR SWAP1 SSTORE POP POP POP PUSH3 0x293 JUMP JUMPDEST PUSH1 0x0 CALLER SWAP1 POP SWAP1 JUMP JUMPDEST PUSH1 0x0 DUP1 PUSH1 0x0 SWAP1 SLOAD SWAP1 PUSH2 0x100 EXP SWAP1 DIV PUSH20 0xFFFFFFFFFFFFFFFFFFFFFFFFFFFFFFFFFFFFFFFF AND SWAP1 POP DUP2 PUSH1 0x0 DUP1 PUSH2 0x100 EXP DUP2 SLOAD DUP2 PUSH20 0xFFFFFFFFFFFFFFFFFFFFFFFFFFFFFFFFFFFFFFFF MUL NOT AND SWAP1 DUP4 PUSH20 0xFFFFFFFFFFFFFFFFFFFFFFFFFFFFFFFFFFFFFFFF AND MUL OR SWAP1 SSTORE POP DUP2 PUSH20 0xFFFFFFFFFFFFFFFFFFFFFFFFFFFFFFFFFFFFFFFF AND DUP2 PUSH20 0xFFFFFFFFFFFFFFFFFFFFFFFFFFFFFFFFFFFFFFFF AND PUSH32 0x8BE0079C531659141344CD1FD0A4F28419497F9722A3DAAFE3B4186F6B6457E0 PUSH1 0x40 MLOAD PUSH1 0x40 MLOAD DUP1 SWAP2 SUB SWAP1 LOG3 POP POP JUMP JUMPDEST PUSH1 0x7D PUSH1 0x3 DUP2 SWAP1 SSTORE POP PUSH2 0x5DC PUSH1 0x1 DUP2 SWAP1 SSTORE POP PUSH1 0xC8 PUSH1 0x4 DUP2 SWAP1 SSTORE POP PUSH3 0x93A80 PUSH1 0x2 DUP2 SWAP1 SSTORE POP JUMP JUMPDEST PUSH1 0x0 DUP2 MLOAD SWAP1 POP PUSH3 0x1F3 DUP2 PUSH3 0x279 JUMP JUMPDEST SWAP3 SWAP2 POP POP JUMP JUMPDEST PUSH1 0x0 DUP1 PUSH1 0x40 DUP4 DUP6 SUB SLT ISZERO PUSH3 0x213 JUMPI PUSH3 0x212 PUSH3 0x274 JUMP JUMPDEST JUMPDEST PUSH1 0x0 PUSH3 0x223 DUP6 DUP3 DUP7 ADD PUSH3 0x1E2 JUMP JUMPDEST SWAP3 POP POP PUSH1 0x20 PUSH3 0x236 DUP6 DUP3 DUP7 ADD PUSH3 0x1E2 JUMP JUMPDEST SWAP2 POP POP SWAP3 POP SWAP3 SWAP1 POP JUMP JUMPDEST PUSH1 0x0 PUSH3 0x24D DUP3 PUSH3 0x254 JUMP JUMPDEST SWAP1 POP SWAP2 SWAP1 POP JUMP JUMPDEST PUSH1 0x0 PUSH20 0xFFFFFFFFFFFFFFFFFFFFFFFFFFFFFFFFFFFFFFFF DUP3 AND SWAP1 POP SWAP2 SWAP1 POP JUMP JUMPDEST PUSH1 0x0 DUP1 REVERT JUMPDEST PUSH3 0x284 DUP2 PUSH3 0x240 JUMP JUMPDEST DUP2 EQ PUSH3 0x290 JUMPI PUSH1 0x0 DUP1 REVERT JUMPDEST POP JUMP JUMPDEST PUSH2 0x25DE DUP1 PUSH3 0x2A3 PUSH1 0x0 CODECOPY PUSH1 0x0 RETURN INVALID PUSH1 0x80 PUSH1 0x40 MSTORE CALLVALUE DUP1 ISZERO PUSH2 0x10 JUMPI PUSH1 0x0 DUP1 REVERT JUMPDEST POP PUSH1 0x4 CALLDATASIZE LT PUSH2 0x100 JUMPI PUSH1 0x0 CALLDATALOAD PUSH1 0xE0 SHR DUP1 PUSH4 0x7B0472F0 GT PUSH2 0x97 JUMPI DUP1 PUSH4 0x91E07E7A GT PUSH2 0x66 JUMPI DUP1 PUSH4 0x91E07E7A EQ PUSH2 0x23B JUMPI DUP1 PUSH4 0xF2FDE38B EQ PUSH2 0x257 JUMPI DUP1 PUSH4 0xF7B2A7BE EQ PUSH2 0x273 JUMPI DUP1 PUSH4 0xFC0C546A EQ PUSH2 0x291 JUMPI PUSH2 0x100 JUMP JUMPDEST DUP1 PUSH4 0x7B0472F0 EQ PUSH2 0x1C7 JUMPI DUP1 PUSH4 0x817B1CD2 EQ PUSH2 0x1E3 JUMPI DUP1 PUSH4 0x8A9D3839 EQ PUSH2 0x201 JUMPI DUP1 PUSH4 0x8DA5CB5B EQ PUSH2 0x21D JUMPI PUSH2 0x100 JUMP JUMPDEST DUP1 PUSH4 0x5D2EC65D GT PUSH2 0xD3 JUMPI DUP1 PUSH4 0x5D2EC65D EQ PUSH2 0x165 JUMPI DUP1 PUSH4 0x6413996C EQ PUSH2 0x183 JUMPI DUP1 PUSH4 0x692642E7 EQ PUSH2 0x1A1 JUMPI DUP1 PUSH4 0x715018A6 EQ PUSH2 0x1BD JUMPI PUSH2 0x100 JUMP JUMPDEST DUP1 PUSH4 0x2E1A7D4D EQ PUSH2 0x105 JUMPI DUP1 PUSH4 0x373D6132 EQ PUSH2 0x121 JUMPI DUP1 PUSH4 0x4641257D EQ PUSH2 0x13F JUMPI DUP1 PUSH4 0x50F19C87 EQ PUSH2 0x149 JUMPI JUMPDEST PUSH1 0x0 DUP1 REVERT JUMPDEST PUSH2 0x11F PUSH1 0x4 DUP1 CALLDATASIZE SUB DUP2 ADD SWAP1 PUSH2 0x11A SWAP2 SWAP1 PUSH2 0x1A97 JUMP JUMPDEST PUSH2 0x2AF JUMP JUMPDEST STOP JUMPDEST PUSH2 0x129 PUSH2 0x666 JUMP JUMPDEST PUSH1 0x40 MLOAD PUSH2 0x136 SWAP2 SWAP1 PUSH2 0x1FFE JUMP JUMPDEST PUSH1 0x40 MLOAD DUP1 SWAP2 SUB SWAP1 RETURN JUMPDEST PUSH2 0x147 PUSH2 0x6B0 JUMP JUMPDEST STOP JUMPDEST PUSH2 0x163 PUSH1 0x4 DUP1 CALLDATASIZE SUB DUP2 ADD SWAP1 PUSH2 0x15E SWAP2 SWAP1 PUSH2 0x1A97 JUMP JUMPDEST PUSH2 0x9E1 JUMP JUMPDEST STOP JUMPDEST PUSH2 0x16D PUSH2 0xAE1 JUMP JUMPDEST PUSH1 0x40 MLOAD PUSH2 0x17A SWAP2 SWAP1 PUSH2 0x1FFE JUMP JUMPDEST PUSH1 0x40 MLOAD DUP1 SWAP2 SUB SWAP1 RETURN JUMPDEST PUSH2 0x18B PUSH2 0xB33 JUMP JUMPDEST PUSH1 0x40 MLOAD PUSH2 0x198 SWAP2 SWAP1 PUSH2 0x1FFE JUMP JUMPDEST PUSH1 0x40 MLOAD DUP1 SWAP2 SUB SWAP1 RETURN JUMPDEST PUSH2 0x1BB PUSH1 0x4 DUP1 CALLDATASIZE SUB DUP2 ADD SWAP1 PUSH2 0x1B6 SWAP2 SWAP1 PUSH2 0x1A97 JUMP JUMPDEST PUSH2 0xBDB JUMP JUMPDEST STOP JUMPDEST PUSH2 0x1C5 PUSH2 0xCDB JUMP JUMPDEST STOP JUMPDEST PUSH2 0x1E1 PUSH1 0x4 DUP1 CALLDATASIZE SUB DUP2 ADD SWAP1 PUSH2 0x1DC SWAP2 SWAP1 PUSH2 0x1AF1 JUMP JUMPDEST PUSH2 0xD63 JUMP JUMPDEST STOP JUMPDEST PUSH2 0x1EB PUSH2 0xFB6 JUMP JUMPDEST PUSH1 0x40 MLOAD PUSH2 0x1F8 SWAP2 SWAP1 PUSH2 0x1FFE JUMP JUMPDEST PUSH1 0x40 MLOAD DUP1 SWAP2 SUB SWAP1 RETURN JUMPDEST PUSH2 0x21B PUSH1 0x4 DUP1 CALLDATASIZE SUB DUP2 ADD SWAP1 PUSH2 0x216 SWAP2 SWAP1 PUSH2 0x1A3D JUMP JUMPDEST PUSH2 0xFBC JUMP JUMPDEST STOP JUMPDEST PUSH2 0x225 PUSH2 0x1122 JUMP JUMPDEST PUSH1 0x40 MLOAD PUSH2 0x232 SWAP2 SWAP1 PUSH2 0x1DA6 JUMP JUMPDEST PUSH1 0x40 MLOAD DUP1 SWAP2 SUB SWAP1 RETURN JUMPDEST PUSH2 0x255 PUSH1 0x4 DUP1 CALLDATASIZE SUB DUP2 ADD SWAP1 PUSH2 0x250 SWAP2 SWAP1 PUSH2 0x1A97 JUMP JUMPDEST PUSH2 0x114B JUMP JUMPDEST STOP JUMPDEST PUSH2 0x271 PUSH1 0x4 DUP1 CALLDATASIZE SUB DUP2 ADD SWAP1 PUSH2 0x26C SWAP2 SWAP1 PUSH2 0x1A3D JUMP JUMPDEST PUSH2 0x124B JUMP JUMPDEST STOP JUMPDEST PUSH2 0x27B PUSH2 0x1343 JUMP JUMPDEST PUSH1 0x40 MLOAD PUSH2 0x288 SWAP2 SWAP1 PUSH2 0x1FFE JUMP JUMPDEST PUSH1 0x40 MLOAD DUP1 SWAP2 SUB SWAP1 RETURN JUMPDEST PUSH2 0x299 PUSH2 0x138D JUMP JUMPDEST PUSH1 0x40 MLOAD PUSH2 0x2A6 SWAP2 SWAP1 PUSH2 0x1E21 JUMP JUMPDEST PUSH1 0x40 MLOAD DUP1 SWAP2 SUB SWAP1 RETURN JUMPDEST PUSH1 0x0 PUSH1 0x6 PUSH1 0x0 CALLER PUSH20 0xFFFFFFFFFFFFFFFFFFFFFFFFFFFFFFFFFFFFFFFF AND PUSH20 0xFFFFFFFFFFFFFFFFFFFFFFFFFFFFFFFFFFFFFFFF AND DUP2 MSTORE PUSH1 0x20 ADD SWAP1 DUP2 MSTORE PUSH1 0x20 ADD PUSH1 0x0 KECCAK256 SWAP1 POP PUSH1 0x0 DUP3 GT PUSH2 0x335 JUMPI PUSH1 0x40 MLOAD PUSH32 0x8C379A000000000000000000000000000000000000000000000000000000000 DUP2 MSTORE PUSH1 0x4 ADD PUSH2 0x32C SWAP1 PUSH2 0x1F1E JUMP JUMPDEST PUSH1 0x40 MLOAD DUP1 SWAP2 SUB SWAP1 REVERT JUMPDEST DUP1 PUSH1 0x1 ADD SLOAD DUP3 GT ISZERO PUSH2 0x37C JUMPI PUSH1 0x40 MLOAD PUSH32 0x8C379A000000000000000000000000000000000000000000000000000000000 DUP2 MSTORE PUSH1 0x4 ADD PUSH2 0x373 SWAP1 PUSH2 0x1EBE JUMP JUMPDEST PUSH1 0x40 MLOAD DUP1 SWAP2 SUB SWAP1 REVERT JUMPDEST PUSH2 0x384 PUSH2 0x13B3 JUMP JUMPDEST PUSH1 0x0 PUSH1 0x8 PUSH1 0x0 SWAP1 SLOAD SWAP1 PUSH2 0x100 EXP SWAP1 DIV PUSH20 0xFFFFFFFFFFFFFFFFFFFFFFFFFFFFFFFFFFFFFFFF AND PUSH20 0xFFFFFFFFFFFFFFFFFFFFFFFFFFFFFFFFFFFFFFFF AND PUSH4 0x70A08231 ADDRESS PUSH1 0x40 MLOAD DUP3 PUSH4 0xFFFFFFFF AND PUSH1 0xE0 SHL DUP2 MSTORE PUSH1 0x4 ADD PUSH2 0x3E1 SWAP2 SWAP1 PUSH2 0x1DA6 JUMP JUMPDEST PUSH1 0x20 PUSH1 0x40 MLOAD DUP1 DUP4 SUB DUP2 DUP7 DUP1 EXTCODESIZE ISZERO DUP1 ISZERO PUSH2 0x3F9 JUMPI PUSH1 0x0 DUP1 REVERT JUMPDEST POP GAS STATICCALL ISZERO DUP1 ISZERO PUSH2 0x40D JUMPI RETURNDATASIZE PUSH1 0x0 DUP1 RETURNDATACOPY RETURNDATASIZE PUSH1 0x0 REVERT JUMPDEST POP POP POP POP PUSH1 0x40 MLOAD RETURNDATASIZE PUSH1 0x1F NOT PUSH1 0x1F DUP3 ADD AND DUP3 ADD DUP1 PUSH1 0x40 MSTORE POP DUP2 ADD SWAP1 PUSH2 0x431 SWAP2 SWAP1 PUSH2 0x1AC4 JUMP JUMPDEST DUP4 LT PUSH2 0x4E7 JUMPI PUSH1 0x8 PUSH1 0x0 SWAP1 SLOAD SWAP1 PUSH2 0x100 EXP SWAP1 DIV PUSH20 0xFFFFFFFFFFFFFFFFFFFFFFFFFFFFFFFFFFFFFFFF AND PUSH20 0xFFFFFFFFFFFFFFFFFFFFFFFFFFFFFFFFFFFFFFFF AND PUSH4 0x70A08231 ADDRESS PUSH1 0x40 MLOAD DUP3 PUSH4 0xFFFFFFFF AND PUSH1 0xE0 SHL DUP2 MSTORE PUSH1 0x4 ADD PUSH2 0x492 SWAP2 SWAP1 PUSH2 0x1DA6 JUMP JUMPDEST PUSH1 0x20 PUSH1 0x40 MLOAD DUP1 DUP4 SUB DUP2 DUP7 DUP1 EXTCODESIZE ISZERO DUP1 ISZERO PUSH2 0x4AA JUMPI PUSH1 0x0 DUP1 REVERT JUMPDEST POP GAS STATICCALL ISZERO DUP1 ISZERO PUSH2 0x4BE JUMPI RETURNDATASIZE PUSH1 0x0 DUP1 RETURNDATACOPY RETURNDATASIZE PUSH1 0x0 REVERT JUMPDEST POP POP POP POP PUSH1 0x40 MLOAD RETURNDATASIZE PUSH1 0x1F NOT PUSH1 0x1F DUP3 ADD AND DUP3 ADD DUP1 PUSH1 0x40 MSTORE POP DUP2 ADD SWAP1 PUSH2 0x4E2 SWAP2 SWAP1 PUSH2 0x1AC4 JUMP JUMPDEST PUSH2 0x4E9 JUMP JUMPDEST DUP3 JUMPDEST SWAP1 POP PUSH1 0x0 DUP1 PUSH1 0x2 SLOAD PUSH2 0x51D PUSH3 0x15180 PUSH2 0x50F DUP8 PUSH1 0x3 ADD SLOAD TIMESTAMP PUSH2 0x151A SWAP1 SWAP2 SWAP1 PUSH4 0xFFFFFFFF AND JUMP JUMPDEST PUSH2 0x1530 SWAP1 SWAP2 SWAP1 PUSH4 0xFFFFFFFF AND JUMP JUMPDEST PUSH2 0x527 SWAP2 SWAP1 PUSH2 0x2211 JUMP JUMPDEST EQ PUSH2 0x533 JUMPI PUSH1 0x1 PUSH2 0x536 JUMP JUMPDEST PUSH1 0x0 JUMPDEST PUSH1 0xFF AND SWAP1 POP PUSH2 0x59E PUSH2 0x58F PUSH2 0x2710 PUSH2 0x581 PUSH1 0x1 SLOAD PUSH2 0x573 DUP8 PUSH2 0x565 DUP9 DUP12 PUSH1 0x2 ADD SLOAD PUSH2 0x1546 SWAP1 SWAP2 SWAP1 PUSH4 0xFFFFFFFF AND JUMP JUMPDEST PUSH2 0x1546 SWAP1 SWAP2 SWAP1 PUSH4 0xFFFFFFFF AND JUMP JUMPDEST PUSH2 0x1546 SWAP1 SWAP2 SWAP1 PUSH4 0xFFFFFFFF AND JUMP JUMPDEST PUSH2 0x1530 SWAP1 SWAP2 SWAP1 PUSH4 0xFFFFFFFF AND JUMP JUMPDEST DUP4 PUSH2 0x151A SWAP1 SWAP2 SWAP1 PUSH4 0xFFFFFFFF AND JUMP JUMPDEST SWAP2 POP PUSH2 0x5B5 DUP3 PUSH1 0x7 SLOAD PUSH2 0x151A SWAP1 SWAP2 SWAP1 PUSH4 0xFFFFFFFF AND JUMP JUMPDEST PUSH1 0x7 DUP2 SWAP1 SSTORE POP PUSH2 0x5D2 DUP3 DUP5 PUSH1 0x1 ADD SLOAD PUSH2 0x151A SWAP1 SWAP2 SWAP1 PUSH4 0xFFFFFFFF AND JUMP JUMPDEST DUP4 PUSH1 0x1 ADD DUP2 SWAP1 SSTORE POP PUSH2 0x627 CALLER DUP4 PUSH1 0x8 PUSH1 0x0 SWAP1 SLOAD SWAP1 PUSH2 0x100 EXP SWAP1 DIV PUSH20 0xFFFFFFFFFFFFFFFFFFFFFFFFFFFFFFFFFFFFFFFF AND PUSH20 0xFFFFFFFFFFFFFFFFFFFFFFFFFFFFFFFFFFFFFFFF AND PUSH2 0x155C SWAP1 SWAP3 SWAP2 SWAP1 PUSH4 0xFFFFFFFF AND JUMP JUMPDEST PUSH32 0x884EDAD9CE6FA2440D8A54CC123490EB96D2768479D49FF9C7366125A9424364 CALLER DUP4 PUSH1 0x40 MLOAD PUSH2 0x658 SWAP3 SWAP2 SWAP1 PUSH2 0x1DF8 JUMP JUMPDEST PUSH1 0x40 MLOAD DUP1 SWAP2 SUB SWAP1 LOG1 POP POP POP POP JUMP JUMPDEST PUSH1 0x0 PUSH1 0x6 PUSH1 0x0 CALLER PUSH20 0xFFFFFFFFFFFFFFFFFFFFFFFFFFFFFFFFFFFFFFFF AND PUSH20 0xFFFFFFFFFFFFFFFFFFFFFFFFFFFFFFFFFFFFFFFF AND DUP2 MSTORE PUSH1 0x20 ADD SWAP1 DUP2 MSTORE PUSH1 0x20 ADD PUSH1 0x0 KECCAK256 PUSH1 0x1 ADD SLOAD SWAP1 POP SWAP1 JUMP JUMPDEST PUSH2 0x6B8 PUSH2 0x13B3 JUMP JUMPDEST PUSH1 0x0 PUSH1 0x6 PUSH1 0x0 CALLER PUSH20 0xFFFFFFFFFFFFFFFFFFFFFFFFFFFFFFFFFFFFFFFF AND PUSH20 0xFFFFFFFFFFFFFFFFFFFFFFFFFFFFFFFFFFFFFFFF AND DUP2 MSTORE PUSH1 0x20 ADD SWAP1 DUP2 MSTORE PUSH1 0x20 ADD PUSH1 0x0 KECCAK256 SWAP1 POP PUSH1 0x0 PUSH2 0x740 PUSH2 0x72D PUSH2 0x2710 PUSH2 0x71F PUSH1 0x4 SLOAD DUP7 PUSH1 0x0 ADD SLOAD PUSH2 0x1546 SWAP1 SWAP2 SWAP1 PUSH4 0xFFFFFFFF AND JUMP JUMPDEST PUSH2 0x1530 SWAP1 SWAP2 SWAP1 PUSH4 0xFFFFFFFF AND JUMP JUMPDEST DUP4 PUSH1 0x0 ADD SLOAD PUSH2 0x151A SWAP1 SWAP2 SWAP1 PUSH4 0xFFFFFFFF AND JUMP JUMPDEST SWAP1 POP PUSH1 0x0 DUP2 GT PUSH2 0x785 JUMPI PUSH1 0x40 MLOAD PUSH32 0x8C379A000000000000000000000000000000000000000000000000000000000 DUP2 MSTORE PUSH1 0x4 ADD PUSH2 0x77C SWAP1 PUSH2 0x1E5E JUMP JUMPDEST PUSH1 0x40 MLOAD DUP1 SWAP2 SUB SWAP1 REVERT JUMPDEST PUSH1 0x8 PUSH1 0x0 SWAP1 SLOAD SWAP1 PUSH2 0x100 EXP SWAP1 DIV PUSH20 0xFFFFFFFFFFFFFFFFFFFFFFFFFFFFFFFFFFFFFFFF AND PUSH20 0xFFFFFFFFFFFFFFFFFFFFFFFFFFFFFFFFFFFFFFFF AND PUSH4 0x70A08231 PUSH1 0x5 PUSH1 0x0 SWAP1 SLOAD SWAP1 PUSH2 0x100 EXP SWAP1 DIV PUSH20 0xFFFFFFFFFFFFFFFFFFFFFFFFFFFFFFFFFFFFFFFF AND PUSH1 0x40 MLOAD DUP3 PUSH4 0xFFFFFFFF AND PUSH1 0xE0 SHL DUP2 MSTORE PUSH1 0x4 ADD PUSH2 0x802 SWAP2 SWAP1 PUSH2 0x1DA6 JUMP JUMPDEST PUSH1 0x20 PUSH1 0x40 MLOAD DUP1 DUP4 SUB DUP2 DUP7 DUP1 EXTCODESIZE ISZERO DUP1 ISZERO PUSH2 0x81A JUMPI PUSH1 0x0 DUP1 REVERT JUMPDEST POP GAS STATICCALL ISZERO DUP1 ISZERO PUSH2 0x82E JUMPI RETURNDATASIZE PUSH1 0x0 DUP1 RETURNDATACOPY RETURNDATASIZE PUSH1 0x0 REVERT JUMPDEST POP POP POP POP PUSH1 0x40 MLOAD RETURNDATASIZE PUSH1 0x1F NOT PUSH1 0x1F DUP3 ADD AND DUP3 ADD DUP1 PUSH1 0x40 MSTORE POP DUP2 ADD SWAP1 PUSH2 0x852 SWAP2 SWAP1 PUSH2 0x1AC4 JUMP JUMPDEST DUP2 GT ISZERO PUSH2 0x929 JUMPI PUSH1 0x8 PUSH1 0x0 SWAP1 SLOAD SWAP1 PUSH2 0x100 EXP SWAP1 DIV PUSH20 0xFFFFFFFFFFFFFFFFFFFFFFFFFFFFFFFFFFFFFFFF AND PUSH20 0xFFFFFFFFFFFFFFFFFFFFFFFFFFFFFFFFFFFFFFFF AND PUSH4 0x70A08231 PUSH1 0x5 PUSH1 0x0 SWAP1 SLOAD SWAP1 PUSH2 0x100 EXP SWAP1 DIV PUSH20 0xFFFFFFFFFFFFFFFFFFFFFFFFFFFFFFFFFFFFFFFF AND PUSH1 0x40 MLOAD DUP3 PUSH4 0xFFFFFFFF AND PUSH1 0xE0 SHL DUP2 MSTORE PUSH1 0x4 ADD PUSH2 0x8D6 SWAP2 SWAP1 PUSH2 0x1DA6 JUMP JUMPDEST PUSH1 0x20 PUSH1 0x40 MLOAD DUP1 DUP4 SUB DUP2 DUP7 DUP1 EXTCODESIZE ISZERO DUP1 ISZERO PUSH2 0x8EE JUMPI PUSH1 0x0 DUP1 REVERT JUMPDEST POP GAS STATICCALL ISZERO DUP1 ISZERO PUSH2 0x902 JUMPI RETURNDATASIZE PUSH1 0x0 DUP1 RETURNDATACOPY RETURNDATASIZE PUSH1 0x0 REVERT JUMPDEST POP POP POP POP PUSH1 0x40 MLOAD RETURNDATASIZE PUSH1 0x1F NOT PUSH1 0x1F DUP3 ADD AND DUP3 ADD DUP1 PUSH1 0x40 MSTORE POP DUP2 ADD SWAP1 PUSH2 0x926 SWAP2 SWAP1 PUSH2 0x1AC4 JUMP JUMPDEST SWAP1 POP JUMPDEST PUSH2 0x99A PUSH1 0x5 PUSH1 0x0 SWAP1 SLOAD SWAP1 PUSH2 0x100 EXP SWAP1 DIV PUSH20 0xFFFFFFFFFFFFFFFFFFFFFFFFFFFFFFFFFFFFFFFF AND CALLER DUP4 PUSH1 0x8 PUSH1 0x0 SWAP1 SLOAD SWAP1 PUSH2 0x100 EXP SWAP1 DIV PUSH20 0xFFFFFFFFFFFFFFFFFFFFFFFFFFFFFFFFFFFFFFFF AND PUSH20 0xFFFFFFFFFFFFFFFFFFFFFFFFFFFFFFFFFFFFFFFF AND PUSH2 0x15E2 SWAP1 SWAP4 SWAP3 SWAP2 SWAP1 PUSH4 0xFFFFFFFF AND JUMP JUMPDEST PUSH1 0x0 DUP3 PUSH1 0x0 ADD DUP2 SWAP1 SSTORE POP PUSH32 0xC9695243A805ADB74C91F28311176C65B417E842D5699893CEF56D18BFA48CBA CALLER DUP3 PUSH1 0x40 MLOAD PUSH2 0x9D5 SWAP3 SWAP2 SWAP1 PUSH2 0x1DF8 JUMP JUMPDEST PUSH1 0x40 MLOAD DUP1 SWAP2 SUB SWAP1 LOG1 POP POP JUMP JUMPDEST PUSH2 0x9E9 PUSH2 0x166B JUMP JUMPDEST PUSH20 0xFFFFFFFFFFFFFFFFFFFFFFFFFFFFFFFFFFFFFFFF AND PUSH2 0xA07 PUSH2 0x1122 JUMP JUMPDEST PUSH20 0xFFFFFFFFFFFFFFFFFFFFFFFFFFFFFFFFFFFFFFFF AND EQ PUSH2 0xA5D JUMPI PUSH1 0x40 MLOAD PUSH32 0x8C379A000000000000000000000000000000000000000000000000000000000 DUP2 MSTORE PUSH1 0x4 ADD PUSH2 0xA54 SWAP1 PUSH2 0x1F3E JUMP JUMPDEST PUSH1 0x40 MLOAD DUP1 SWAP2 SUB SWAP1 REVERT JUMPDEST PUSH1 0x0 DUP2 GT PUSH2 0xAA0 JUMPI PUSH1 0x40 MLOAD PUSH32 0x8C379A000000000000000000000000000000000000000000000000000000000 DUP2 MSTORE PUSH1 0x4 ADD PUSH2 0xA97 SWAP1 PUSH2 0x1F5E JUMP JUMPDEST PUSH1 0x40 MLOAD DUP1 SWAP2 SUB SWAP1 REVERT JUMPDEST DUP1 PUSH1 0x3 DUP2 SWAP1 SSTORE POP PUSH32 0xB8F51888A0746F534A064D0D08F74852A939D6CD181760E1CEDC7A8396D9E22F DUP2 PUSH1 0x40 MLOAD PUSH2 0xAD6 SWAP2 SWAP1 PUSH2 0x1FFE JUMP JUMPDEST PUSH1 0x40 MLOAD DUP1 SWAP2 SUB SWAP1 LOG1 POP JUMP JUMPDEST PUSH1 0x0 PUSH2 0xAEB PUSH2 0x13B3 JUMP JUMPDEST PUSH1 0x6 PUSH1 0x0 CALLER PUSH20 0xFFFFFFFFFFFFFFFFFFFFFFFFFFFFFFFFFFFFFFFF AND PUSH20 0xFFFFFFFFFFFFFFFFFFFFFFFFFFFFFFFFFFFFFFFF AND DUP2 MSTORE PUSH1 0x20 ADD SWAP1 DUP2 MSTORE PUSH1 0x20 ADD PUSH1 0x0 KECCAK256 PUSH1 0x0 ADD SLOAD SWAP1 POP SWAP1 JUMP JUMPDEST PUSH1 0x0 PUSH2 0xBD6 PUSH2 0xB50 PUSH3 0x15180 PUSH1 0x2 SLOAD PUSH2 0x151A SWAP1 SWAP2 SWAP1 PUSH4 0xFFFFFFFF AND JUMP JUMPDEST PUSH2 0xBA6 PUSH1 0x6 PUSH1 0x0 CALLER PUSH20 0xFFFFFFFFFFFFFFFFFFFFFFFFFFFFFFFFFFFFFFFF AND PUSH20 0xFFFFFFFFFFFFFFFFFFFFFFFFFFFFFFFFFFFFFFFF AND DUP2 MSTORE PUSH1 0x20 ADD SWAP1 DUP2 MSTORE PUSH1 0x20 ADD PUSH1 0x0 KECCAK256 PUSH1 0x3 ADD SLOAD TIMESTAMP PUSH2 0xBA1 SWAP2 SWAP1 PUSH2 0x212C JUMP JUMPDEST PUSH2 0x1673 JUMP JUMPDEST PUSH2 0xBB0 SWAP2 SWAP1 PUSH2 0x2211 JUMP JUMPDEST PUSH2 0xBC8 PUSH3 0x15180 PUSH1 0x2 SLOAD PUSH2 0x151A SWAP1 SWAP2 SWAP1 PUSH4 0xFFFFFFFF AND JUMP JUMPDEST PUSH2 0x151A SWAP1 SWAP2 SWAP1 PUSH4 0xFFFFFFFF AND JUMP JUMPDEST SWAP1 POP SWAP1 JUMP JUMPDEST PUSH2 0xBE3 PUSH2 0x166B JUMP JUMPDEST PUSH20 0xFFFFFFFFFFFFFFFFFFFFFFFFFFFFFFFFFFFFFFFF AND PUSH2 0xC01 PUSH2 0x1122 JUMP JUMPDEST PUSH20 0xFFFFFFFFFFFFFFFFFFFFFFFFFFFFFFFFFFFFFFFF AND EQ PUSH2 0xC57 JUMPI PUSH1 0x40 MLOAD PUSH32 0x8C379A000000000000000000000000000000000000000000000000000000000 DUP2 MSTORE PUSH1 0x4 ADD PUSH2 0xC4E SWAP1 PUSH2 0x1F3E JUMP JUMPDEST PUSH1 0x40 MLOAD DUP1 SWAP2 SUB SWAP1 REVERT JUMPDEST PUSH1 0x0 DUP2 GT PUSH2 0xC9A JUMPI PUSH1 0x40 MLOAD PUSH32 0x8C379A000000000000000000000000000000000000000000000000000000000 DUP2 MSTORE PUSH1 0x4 ADD PUSH2 0xC91 SWAP1 PUSH2 0x1FBE JUMP JUMPDEST PUSH1 0x40 MLOAD DUP1 SWAP2 SUB SWAP1 REVERT JUMPDEST DUP1 PUSH1 0x2 DUP2 SWAP1 SSTORE POP PUSH32 0x189BDA9782663C67A3F95C0AA5455924C711210B00281C60EAD2F0DD8DBC924C DUP2 PUSH1 0x40 MLOAD PUSH2 0xCD0 SWAP2 SWAP1 PUSH2 0x1FFE JUMP JUMPDEST PUSH1 0x40 MLOAD DUP1 SWAP2 SUB SWAP1 LOG1 POP JUMP JUMPDEST PUSH2 0xCE3 PUSH2 0x166B JUMP JUMPDEST PUSH20 0xFFFFFFFFFFFFFFFFFFFFFFFFFFFFFFFFFFFFFFFF AND PUSH2 0xD01 PUSH2 0x1122 JUMP JUMPDEST PUSH20 0xFFFFFFFFFFFFFFFFFFFFFFFFFFFFFFFFFFFFFFFF AND EQ PUSH2 0xD57 JUMPI PUSH1 0x40 MLOAD PUSH32 0x8C379A000000000000000000000000000000000000000000000000000000000 DUP2 MSTORE PUSH1 0x4 ADD PUSH2 0xD4E SWAP1 PUSH2 0x1F3E JUMP JUMPDEST PUSH1 0x40 MLOAD DUP1 SWAP2 SUB SWAP1 REVERT JUMPDEST PUSH2 0xD61 PUSH1 0x0 PUSH2 0x1692 JUMP JUMPDEST JUMP JUMPDEST PUSH1 0x0 DUP3 GT PUSH2 0xDA6 JUMPI PUSH1 0x40 MLOAD PUSH32 0x8C379A000000000000000000000000000000000000000000000000000000000 DUP2 MSTORE PUSH1 0x4 ADD PUSH2 0xD9D SWAP1 PUSH2 0x1F1E JUMP JUMPDEST PUSH1 0x40 MLOAD DUP1 SWAP2 SUB SWAP1 REVERT JUMPDEST DUP2 PUSH1 0x8 PUSH1 0x0 SWAP1 SLOAD SWAP1 PUSH2 0x100 EXP SWAP1 DIV PUSH20 0xFFFFFFFFFFFFFFFFFFFFFFFFFFFFFFFFFFFFFFFF AND PUSH20 0xFFFFFFFFFFFFFFFFFFFFFFFFFFFFFFFFFFFFFFFF AND PUSH4 0x70A08231 CALLER PUSH1 0x40 MLOAD DUP3 PUSH4 0xFFFFFFFF AND PUSH1 0xE0 SHL DUP2 MSTORE PUSH1 0x4 ADD PUSH2 0xE02 SWAP2 SWAP1 PUSH2 0x1DA6 JUMP JUMPDEST PUSH1 0x20 PUSH1 0x40 MLOAD DUP1 DUP4 SUB DUP2 DUP7 DUP1 EXTCODESIZE ISZERO DUP1 ISZERO PUSH2 0xE1A JUMPI PUSH1 0x0 DUP1 REVERT JUMPDEST POP GAS STATICCALL ISZERO DUP1 ISZERO PUSH2 0xE2E JUMPI RETURNDATASIZE PUSH1 0x0 DUP1 RETURNDATACOPY RETURNDATASIZE PUSH1 0x0 REVERT JUMPDEST POP POP POP POP PUSH1 0x40 MLOAD RETURNDATASIZE PUSH1 0x1F NOT PUSH1 0x1F DUP3 ADD AND DUP3 ADD DUP1 PUSH1 0x40 MSTORE POP DUP2 ADD SWAP1 PUSH2 0xE52 SWAP2 SWAP1 PUSH2 0x1AC4 JUMP JUMPDEST GT PUSH2 0xE92 JUMPI PUSH1 0x40 MLOAD PUSH32 0x8C379A000000000000000000000000000000000000000000000000000000000 DUP2 MSTORE PUSH1 0x4 ADD PUSH2 0xE89 SWAP1 PUSH2 0x1FDE JUMP JUMPDEST PUSH1 0x40 MLOAD DUP1 SWAP2 SUB SWAP1 REVERT JUMPDEST PUSH2 0xE9A PUSH2 0x13B3 JUMP JUMPDEST PUSH1 0x0 PUSH1 0x6 PUSH1 0x0 CALLER PUSH20 0xFFFFFFFFFFFFFFFFFFFFFFFFFFFFFFFFFFFFFFFF AND PUSH20 0xFFFFFFFFFFFFFFFFFFFFFFFFFFFFFFFFFFFFFFFF AND DUP2 MSTORE PUSH1 0x20 ADD SWAP1 DUP2 MSTORE PUSH1 0x20 ADD PUSH1 0x0 KECCAK256 SWAP1 POP PUSH2 0xF2C CALLER ADDRESS DUP6 PUSH1 0x8 PUSH1 0x0 SWAP1 SLOAD SWAP1 PUSH2 0x100 EXP SWAP1 DIV PUSH20 0xFFFFFFFFFFFFFFFFFFFFFFFFFFFFFFFFFFFFFFFF AND PUSH20 0xFFFFFFFFFFFFFFFFFFFFFFFFFFFFFFFFFFFFFFFF AND PUSH2 0x15E2 SWAP1 SWAP4 SWAP3 SWAP2 SWAP1 PUSH4 0xFFFFFFFF AND JUMP JUMPDEST PUSH2 0xF43 DUP4 DUP3 PUSH1 0x1 ADD SLOAD PUSH2 0x1756 SWAP1 SWAP2 SWAP1 PUSH4 0xFFFFFFFF AND JUMP JUMPDEST DUP2 PUSH1 0x1 ADD DUP2 SWAP1 SSTORE POP TIMESTAMP DUP2 PUSH1 0x3 ADD DUP2 SWAP1 SSTORE POP DUP2 DUP2 PUSH1 0x2 ADD DUP2 SWAP1 SSTORE POP PUSH2 0xF72 DUP4 PUSH1 0x7 SLOAD PUSH2 0x1756 SWAP1 SWAP2 SWAP1 PUSH4 0xFFFFFFFF AND JUMP JUMPDEST PUSH1 0x7 DUP2 SWAP1 SSTORE POP PUSH32 0x9E71BC8EEA02A63969F509818F2DAFB9254532904319F9DBDA79B67BD34A5F3D CALLER DUP5 PUSH1 0x40 MLOAD PUSH2 0xFA9 SWAP3 SWAP2 SWAP1 PUSH2 0x1DF8 JUMP JUMPDEST PUSH1 0x40 MLOAD DUP1 SWAP2 SUB SWAP1 LOG1 POP POP POP JUMP JUMPDEST PUSH1 0x7 SLOAD DUP2 JUMP JUMPDEST PUSH2 0xFC4 PUSH2 0x166B JUMP JUMPDEST PUSH20 0xFFFFFFFFFFFFFFFFFFFFFFFFFFFFFFFFFFFFFFFF AND PUSH2 0xFE2 PUSH2 0x1122 JUMP JUMPDEST PUSH20 0xFFFFFFFFFFFFFFFFFFFFFFFFFFFFFFFFFFFFFFFF AND EQ PUSH2 0x1038 JUMPI PUSH1 0x40 MLOAD PUSH32 0x8C379A000000000000000000000000000000000000000000000000000000000 DUP2 MSTORE PUSH1 0x4 ADD PUSH2 0x102F SWAP1 PUSH2 0x1F3E JUMP JUMPDEST PUSH1 0x40 MLOAD DUP1 SWAP2 SUB SWAP1 REVERT JUMPDEST PUSH1 0x0 PUSH20 0xFFFFFFFFFFFFFFFFFFFFFFFFFFFFFFFFFFFFFFFF AND DUP2 PUSH20 0xFFFFFFFFFFFFFFFFFFFFFFFFFFFFFFFFFFFFFFFF AND GT PUSH2 0x10A7 JUMPI PUSH1 0x40 MLOAD PUSH32 0x8C379A000000000000000000000000000000000000000000000000000000000 DUP2 MSTORE PUSH1 0x4 ADD PUSH2 0x109E SWAP1 PUSH2 0x1EFE JUMP JUMPDEST PUSH1 0x40 MLOAD DUP1 SWAP2 SUB SWAP1 REVERT JUMPDEST DUP1 PUSH1 0x5 PUSH1 0x0 PUSH2 0x100 EXP DUP2 SLOAD DUP2 PUSH20 0xFFFFFFFFFFFFFFFFFFFFFFFFFFFFFFFFFFFFFFFF MUL NOT AND SWAP1 DUP4 PUSH20 0xFFFFFFFFFFFFFFFFFFFFFFFFFFFFFFFFFFFFFFFF AND MUL OR SWAP1 SSTORE POP PUSH32 0xEDA87051E2996C46EE8D576509FFC1826E6DF46EEF99072F838FECBB88992A87 DUP2 PUSH1 0x40 MLOAD PUSH2 0x1117 SWAP2 SWAP1 PUSH2 0x1DA6 JUMP JUMPDEST PUSH1 0x40 MLOAD DUP1 SWAP2 SUB SWAP1 LOG1 POP JUMP JUMPDEST PUSH1 0x0 DUP1 PUSH1 0x0 SWAP1 SLOAD SWAP1 PUSH2 0x100 EXP SWAP1 DIV PUSH20 0xFFFFFFFFFFFFFFFFFFFFFFFFFFFFFFFFFFFFFFFF AND SWAP1 POP SWAP1 JUMP JUMPDEST PUSH2 0x1153 PUSH2 0x166B JUMP JUMPDEST PUSH20 0xFFFFFFFFFFFFFFFFFFFFFFFFFFFFFFFFFFFFFFFF AND PUSH2 0x1171 PUSH2 0x1122 JUMP JUMPDEST PUSH20 0xFFFFFFFFFFFFFFFFFFFFFFFFFFFFFFFFFFFFFFFF AND EQ PUSH2 0x11C7 JUMPI PUSH1 0x40 MLOAD PUSH32 0x8C379A000000000000000000000000000000000000000000000000000000000 DUP2 MSTORE PUSH1 0x4 ADD PUSH2 0x11BE SWAP1 PUSH2 0x1F3E JUMP JUMPDEST PUSH1 0x40 MLOAD DUP1 SWAP2 SUB SWAP1 REVERT JUMPDEST PUSH1 0x0 DUP2 GT PUSH2 0x120A JUMPI PUSH1 0x40 MLOAD PUSH32 0x8C379A000000000000000000000000000000000000000000000000000000000 DUP2 MSTORE PUSH1 0x4 ADD PUSH2 0x1201 SWAP1 PUSH2 0x1F9E JUMP JUMPDEST PUSH1 0x40 MLOAD DUP1 SWAP2 SUB SWAP1 REVERT JUMPDEST DUP1 PUSH1 0x1 DUP2 SWAP1 SSTORE POP PUSH32 0x150C688DD7595BF7862B8AB1FE46756450EB7D731037942B3BBC46F3F0E21B81 DUP2 PUSH1 0x40 MLOAD PUSH2 0x1240 SWAP2 SWAP1 PUSH2 0x1FFE JUMP JUMPDEST PUSH1 0x40 MLOAD DUP1 SWAP2 SUB SWAP1 LOG1 POP JUMP JUMPDEST PUSH2 0x1253 PUSH2 0x166B JUMP JUMPDEST PUSH20 0xFFFFFFFFFFFFFFFFFFFFFFFFFFFFFFFFFFFFFFFF AND PUSH2 0x1271 PUSH2 0x1122 JUMP JUMPDEST PUSH20 0xFFFFFFFFFFFFFFFFFFFFFFFFFFFFFFFFFFFFFFFF AND EQ PUSH2 0x12C7 JUMPI PUSH1 0x40 MLOAD PUSH32 0x8C379A000000000000000000000000000000000000000000000000000000000 DUP2 MSTORE PUSH1 0x4 ADD PUSH2 0x12BE SWAP1 PUSH2 0x1F3E JUMP JUMPDEST PUSH1 0x40 MLOAD DUP1 SWAP2 SUB SWAP1 REVERT JUMPDEST PUSH1 0x0 PUSH20 0xFFFFFFFFFFFFFFFFFFFFFFFFFFFFFFFFFFFFFFFF AND DUP2 PUSH20 0xFFFFFFFFFFFFFFFFFFFFFFFFFFFFFFFFFFFFFFFF AND EQ ISZERO PUSH2 0x1337 JUMPI PUSH1 0x40 MLOAD PUSH32 0x8C379A000000000000000000000000000000000000000000000000000000000 DUP2 MSTORE PUSH1 0x4 ADD PUSH2 0x132E SWAP1 PUSH2 0x1E9E JUMP JUMPDEST PUSH1 0x40 MLOAD DUP1 SWAP2 SUB SWAP1 REVERT JUMPDEST PUSH2 0x1340 DUP2 PUSH2 0x1692 JUMP JUMPDEST POP JUMP JUMPDEST PUSH1 0x0 PUSH1 0x6 PUSH1 0x0 CALLER PUSH20 0xFFFFFFFFFFFFFFFFFFFFFFFFFFFFFFFFFFFFFFFF AND PUSH20 0xFFFFFFFFFFFFFFFFFFFFFFFFFFFFFFFFFFFFFFFF AND DUP2 MSTORE PUSH1 0x20 ADD SWAP1 DUP2 MSTORE PUSH1 0x20 ADD PUSH1 0x0 KECCAK256 PUSH1 0x0 ADD SLOAD SWAP1 POP SWAP1 JUMP JUMPDEST PUSH1 0x8 PUSH1 0x0 SWAP1 SLOAD SWAP1 PUSH2 0x100 EXP SWAP1 DIV PUSH20 0xFFFFFFFFFFFFFFFFFFFFFFFFFFFFFFFFFFFFFFFF AND DUP2 JUMP JUMPDEST PUSH1 0x0 PUSH1 0x6 PUSH1 0x0 CALLER PUSH20 0xFFFFFFFFFFFFFFFFFFFFFFFFFFFFFFFFFFFFFFFF AND PUSH20 0xFFFFFFFFFFFFFFFFFFFFFFFFFFFFFFFFFFFFFFFF AND DUP2 MSTORE PUSH1 0x20 ADD SWAP1 DUP2 MSTORE PUSH1 0x20 ADD PUSH1 0x0 KECCAK256 SWAP1 POP DUP1 PUSH1 0x4 ADD SLOAD TIMESTAMP LT ISZERO PUSH2 0x1408 JUMPI POP PUSH2 0x1518 JUMP JUMPDEST PUSH1 0x0 PUSH2 0x1422 DUP3 PUSH1 0x3 ADD SLOAD TIMESTAMP PUSH2 0x141D SWAP2 SWAP1 PUSH2 0x212C JUMP JUMPDEST PUSH2 0x1673 JUMP JUMPDEST SWAP1 POP PUSH1 0x0 PUSH2 0x1465 PUSH2 0x2710 PUSH2 0x1457 PUSH1 0x3 SLOAD PUSH2 0x1449 DUP7 DUP9 PUSH1 0x1 ADD SLOAD PUSH2 0x1546 SWAP1 SWAP2 SWAP1 PUSH4 0xFFFFFFFF AND JUMP JUMPDEST PUSH2 0x1546 SWAP1 SWAP2 SWAP1 PUSH4 0xFFFFFFFF AND JUMP JUMPDEST PUSH2 0x1530 SWAP1 SWAP2 SWAP1 PUSH4 0xFFFFFFFF AND JUMP JUMPDEST SWAP1 POP PUSH1 0x1 DUP4 PUSH1 0x2 ADD SLOAD EQ ISZERO PUSH2 0x14EC JUMPI PUSH1 0x0 PUSH2 0x148B PUSH1 0x2 SLOAD DUP5 PUSH2 0x1530 SWAP1 SWAP2 SWAP1 PUSH4 0xFFFFFFFF AND JUMP JUMPDEST SWAP1 POP PUSH2 0x14E8 PUSH2 0x2710 PUSH2 0x14DA PUSH2 0x14B5 PUSH2 0x14A4 PUSH1 0x2 SLOAD PUSH2 0x1673 JUMP JUMPDEST PUSH1 0x3 SLOAD PUSH2 0x1546 SWAP1 SWAP2 SWAP1 PUSH4 0xFFFFFFFF AND JUMP JUMPDEST PUSH2 0x14CC DUP6 DUP10 PUSH1 0x1 ADD SLOAD PUSH2 0x1546 SWAP1 SWAP2 SWAP1 PUSH4 0xFFFFFFFF AND JUMP JUMPDEST PUSH2 0x1546 SWAP1 SWAP2 SWAP1 PUSH4 0xFFFFFFFF AND JUMP JUMPDEST PUSH2 0x1530 SWAP1 SWAP2 SWAP1 PUSH4 0xFFFFFFFF AND JUMP JUMPDEST SWAP2 POP POP JUMPDEST PUSH2 0x1503 DUP2 DUP5 PUSH1 0x0 ADD SLOAD PUSH2 0x1756 SWAP1 SWAP2 SWAP1 PUSH4 0xFFFFFFFF AND JUMP JUMPDEST DUP4 PUSH1 0x0 ADD DUP2 SWAP1 SSTORE POP TIMESTAMP DUP4 PUSH1 0x4 ADD DUP2 SWAP1 SSTORE POP POP POP POP JUMPDEST JUMP JUMPDEST PUSH1 0x0 DUP2 DUP4 PUSH2 0x1528 SWAP2 SWAP1 PUSH2 0x212C JUMP JUMPDEST SWAP1 POP SWAP3 SWAP2 POP POP JUMP JUMPDEST PUSH1 0x0 DUP2 DUP4 PUSH2 0x153E SWAP2 SWAP1 PUSH2 0x20A1 JUMP JUMPDEST SWAP1 POP SWAP3 SWAP2 POP POP JUMP JUMPDEST PUSH1 0x0 DUP2 DUP4 PUSH2 0x1554 SWAP2 SWAP1 PUSH2 0x20D2 JUMP JUMPDEST SWAP1 POP SWAP3 SWAP2 POP POP JUMP JUMPDEST PUSH2 0x15DD DUP4 PUSH4 0xA9059CBB PUSH1 0xE0 SHL DUP5 DUP5 PUSH1 0x40 MLOAD PUSH1 0x24 ADD PUSH2 0x157B SWAP3 SWAP2 SWAP1 PUSH2 0x1DF8 JUMP JUMPDEST PUSH1 0x40 MLOAD PUSH1 0x20 DUP2 DUP4 SUB SUB DUP2 MSTORE SWAP1 PUSH1 0x40 MSTORE SWAP1 PUSH28 0xFFFFFFFFFFFFFFFFFFFFFFFFFFFFFFFFFFFFFFFFFFFFFFFFFFFFFFFF NOT AND PUSH1 0x20 DUP3 ADD DUP1 MLOAD PUSH28 0xFFFFFFFFFFFFFFFFFFFFFFFFFFFFFFFFFFFFFFFFFFFFFFFFFFFFFFFF DUP4 DUP2 DUP4 AND OR DUP4 MSTORE POP POP POP POP PUSH2 0x176C JUMP JUMPDEST POP POP POP JUMP JUMPDEST PUSH2 0x1665 DUP5 PUSH4 0x23B872DD PUSH1 0xE0 SHL DUP6 DUP6 DUP6 PUSH1 0x40 MLOAD PUSH1 0x24 ADD PUSH2 0x1603 SWAP4 SWAP3 SWAP2 SWAP1 PUSH2 0x1DC1 JUMP JUMPDEST PUSH1 0x40 MLOAD PUSH1 0x20 DUP2 DUP4 SUB SUB DUP2 MSTORE SWAP1 PUSH1 0x40 MSTORE SWAP1 PUSH28 0xFFFFFFFFFFFFFFFFFFFFFFFFFFFFFFFFFFFFFFFFFFFFFFFFFFFFFFFF NOT AND PUSH1 0x20 DUP3 ADD DUP1 MLOAD PUSH28 0xFFFFFFFFFFFFFFFFFFFFFFFFFFFFFFFFFFFFFFFFFFFFFFFFFFFFFFFF DUP4 DUP2 DUP4 AND OR DUP4 MSTORE POP POP POP POP PUSH2 0x176C JUMP JUMPDEST POP POP POP POP JUMP JUMPDEST PUSH1 0x0 CALLER SWAP1 POP SWAP1 JUMP JUMPDEST PUSH1 0x0 PUSH2 0x168B PUSH3 0x15180 DUP4 PUSH2 0x1530 SWAP1 SWAP2 SWAP1 PUSH4 0xFFFFFFFF AND JUMP JUMPDEST SWAP1 POP SWAP2 SWAP1 POP JUMP JUMPDEST PUSH1 0x0 DUP1 PUSH1 0x0 SWAP1 SLOAD SWAP1 PUSH2 0x100 EXP SWAP1 DIV PUSH20 0xFFFFFFFFFFFFFFFFFFFFFFFFFFFFFFFFFFFFFFFF AND SWAP1 POP DUP2 PUSH1 0x0 DUP1 PUSH2 0x100 EXP DUP2 SLOAD DUP2 PUSH20 0xFFFFFFFFFFFFFFFFFFFFFFFFFFFFFFFFFFFFFFFF MUL NOT AND SWAP1 DUP4 PUSH20 0xFFFFFFFFFFFFFFFFFFFFFFFFFFFFFFFFFFFFFFFF AND MUL OR SWAP1 SSTORE POP DUP2 PUSH20 0xFFFFFFFFFFFFFFFFFFFFFFFFFFFFFFFFFFFFFFFF AND DUP2 PUSH20 0xFFFFFFFFFFFFFFFFFFFFFFFFFFFFFFFFFFFFFFFF AND PUSH32 0x8BE0079C531659141344CD1FD0A4F28419497F9722A3DAAFE3B4186F6B6457E0 PUSH1 0x40 MLOAD PUSH1 0x40 MLOAD DUP1 SWAP2 SUB SWAP1 LOG3 POP POP JUMP JUMPDEST PUSH1 0x0 DUP2 DUP4 PUSH2 0x1764 SWAP2 SWAP1 PUSH2 0x204B JUMP JUMPDEST SWAP1 POP SWAP3 SWAP2 POP POP JUMP JUMPDEST PUSH1 0x0 PUSH2 0x17CE DUP3 PUSH1 0x40 MLOAD DUP1 PUSH1 0x40 ADD PUSH1 0x40 MSTORE DUP1 PUSH1 0x20 DUP2 MSTORE PUSH1 0x20 ADD PUSH32 0x5361666542455032303A206C6F772D6C6576656C2063616C6C206661696C6564 DUP2 MSTORE POP DUP6 PUSH20 0xFFFFFFFFFFFFFFFFFFFFFFFFFFFFFFFFFFFFFFFF AND PUSH2 0x1833 SWAP1 SWAP3 SWAP2 SWAP1 PUSH4 0xFFFFFFFF AND JUMP JUMPDEST SWAP1 POP PUSH1 0x0 DUP2 MLOAD GT ISZERO PUSH2 0x182E JUMPI DUP1 DUP1 PUSH1 0x20 ADD SWAP1 MLOAD DUP2 ADD SWAP1 PUSH2 0x17EE SWAP2 SWAP1 PUSH2 0x1A6A JUMP JUMPDEST PUSH2 0x182D JUMPI PUSH1 0x40 MLOAD PUSH32 0x8C379A000000000000000000000000000000000000000000000000000000000 DUP2 MSTORE PUSH1 0x4 ADD PUSH2 0x1824 SWAP1 PUSH2 0x1E7E JUMP JUMPDEST PUSH1 0x40 MLOAD DUP1 SWAP2 SUB SWAP1 REVERT JUMPDEST JUMPDEST POP POP POP JUMP JUMPDEST PUSH1 0x60 PUSH2 0x1842 DUP5 DUP5 PUSH1 0x0 DUP6 PUSH2 0x184B JUMP JUMPDEST SWAP1 POP SWAP4 SWAP3 POP POP POP JUMP JUMPDEST PUSH1 0x60 DUP3 SELFBALANCE LT ISZERO PUSH2 0x1890 JUMPI PUSH1 0x40 MLOAD PUSH32 0x8C379A000000000000000000000000000000000000000000000000000000000 DUP2 MSTORE PUSH1 0x4 ADD PUSH2 0x1887 SWAP1 PUSH2 0x1EDE JUMP JUMPDEST PUSH1 0x40 MLOAD DUP1 SWAP2 SUB SWAP1 REVERT JUMPDEST PUSH2 0x1899 DUP6 PUSH2 0x195F JUMP JUMPDEST PUSH2 0x18D8 JUMPI PUSH1 0x40 MLOAD PUSH32 0x8C379A000000000000000000000000000000000000000000000000000000000 DUP2 MSTORE PUSH1 0x4 ADD PUSH2 0x18CF SWAP1 PUSH2 0x1F7E JUMP JUMPDEST PUSH1 0x40 MLOAD DUP1 SWAP2 SUB SWAP1 REVERT JUMPDEST PUSH1 0x0 DUP1 DUP7 PUSH20 0xFFFFFFFFFFFFFFFFFFFFFFFFFFFFFFFFFFFFFFFF AND DUP6 DUP8 PUSH1 0x40 MLOAD PUSH2 0x1901 SWAP2 SWAP1 PUSH2 0x1D8F JUMP JUMPDEST PUSH1 0x0 PUSH1 0x40 MLOAD DUP1 DUP4 SUB DUP2 DUP6 DUP8 GAS CALL SWAP3 POP POP POP RETURNDATASIZE DUP1 PUSH1 0x0 DUP2 EQ PUSH2 0x193E JUMPI PUSH1 0x40 MLOAD SWAP2 POP PUSH1 0x1F NOT PUSH1 0x3F RETURNDATASIZE ADD AND DUP3 ADD PUSH1 0x40 MSTORE RETURNDATASIZE DUP3 MSTORE RETURNDATASIZE PUSH1 0x0 PUSH1 0x20 DUP5 ADD RETURNDATACOPY PUSH2 0x1943 JUMP JUMPDEST PUSH1 0x60 SWAP2 POP JUMPDEST POP SWAP2 POP SWAP2 POP PUSH2 0x1953 DUP3 DUP3 DUP7 PUSH2 0x1982 JUMP JUMPDEST SWAP3 POP POP POP SWAP5 SWAP4 POP POP POP POP JUMP JUMPDEST PUSH1 0x0 DUP1 DUP3 PUSH20 0xFFFFFFFFFFFFFFFFFFFFFFFFFFFFFFFFFFFFFFFF AND EXTCODESIZE GT SWAP1 POP SWAP2 SWAP1 POP JUMP JUMPDEST PUSH1 0x60 DUP4 ISZERO PUSH2 0x1992 JUMPI DUP3 SWAP1 POP PUSH2 0x19E2 JUMP JUMPDEST PUSH1 0x0 DUP4 MLOAD GT ISZERO PUSH2 0x19A5 JUMPI DUP3 MLOAD DUP1 DUP5 PUSH1 0x20 ADD REVERT JUMPDEST DUP2 PUSH1 0x40 MLOAD PUSH32 0x8C379A000000000000000000000000000000000000000000000000000000000 DUP2 MSTORE PUSH1 0x4 ADD PUSH2 0x19D9 SWAP2 SWAP1 PUSH2 0x1E3C JUMP JUMPDEST PUSH1 0x40 MLOAD DUP1 SWAP2 SUB SWAP1 REVERT JUMPDEST SWAP4 SWAP3 POP POP POP JUMP JUMPDEST PUSH1 0x0 DUP2 CALLDATALOAD SWAP1 POP PUSH2 0x19F8 DUP2 PUSH2 0x2563 JUMP JUMPDEST SWAP3 SWAP2 POP POP JUMP JUMPDEST PUSH1 0x0 DUP2 MLOAD SWAP1 POP PUSH2 0x1A0D DUP2 PUSH2 0x257A JUMP JUMPDEST SWAP3 SWAP2 POP POP JUMP JUMPDEST PUSH1 0x0 DUP2 CALLDATALOAD SWAP1 POP PUSH2 0x1A22 DUP2 PUSH2 0x2591 JUMP JUMPDEST SWAP3 SWAP2 POP POP JUMP JUMPDEST PUSH1 0x0 DUP2 MLOAD SWAP1 POP PUSH2 0x1A37 DUP2 PUSH2 0x2591 JUMP JUMPDEST SWAP3 SWAP2 POP POP JUMP JUMPDEST PUSH1 0x0 PUSH1 0x20 DUP3 DUP5 SUB SLT ISZERO PUSH2 0x1A53 JUMPI PUSH2 0x1A52 PUSH2 0x22A0 JUMP JUMPDEST JUMPDEST PUSH1 0x0 PUSH2 0x1A61 DUP5 DUP3 DUP6 ADD PUSH2 0x19E9 JUMP JUMPDEST SWAP2 POP POP SWAP3 SWAP2 POP POP JUMP JUMPDEST PUSH1 0x0 PUSH1 0x20 DUP3 DUP5 SUB SLT ISZERO PUSH2 0x1A80 JUMPI PUSH2 0x1A7F PUSH2 0x22A0 JUMP JUMPDEST JUMPDEST PUSH1 0x0 PUSH2 0x1A8E DUP5 DUP3 DUP6 ADD PUSH2 0x19FE JUMP JUMPDEST SWAP2 POP POP SWAP3 SWAP2 POP POP JUMP JUMPDEST PUSH1 0x0 PUSH1 0x20 DUP3 DUP5 SUB SLT ISZERO PUSH2 0x1AAD JUMPI PUSH2 0x1AAC PUSH2 0x22A0 JUMP JUMPDEST JUMPDEST PUSH1 0x0 PUSH2 0x1ABB DUP5 DUP3 DUP6 ADD PUSH2 0x1A13 JUMP JUMPDEST SWAP2 POP POP SWAP3 SWAP2 POP POP JUMP JUMPDEST PUSH1 0x0 PUSH1 0x20 DUP3 DUP5 SUB SLT ISZERO PUSH2 0x1ADA JUMPI PUSH2 0x1AD9 PUSH2 0x22A0 JUMP JUMPDEST JUMPDEST PUSH1 0x0 PUSH2 0x1AE8 DUP5 DUP3 DUP6 ADD PUSH2 0x1A28 JUMP JUMPDEST SWAP2 POP POP SWAP3 SWAP2 POP POP JUMP JUMPDEST PUSH1 0x0 DUP1 PUSH1 0x40 DUP4 DUP6 SUB SLT ISZERO PUSH2 0x1B08 JUMPI PUSH2 0x1B07 PUSH2 0x22A0 JUMP JUMPDEST JUMPDEST PUSH1 0x0 PUSH2 0x1B16 DUP6 DUP3 DUP7 ADD PUSH2 0x1A13 JUMP JUMPDEST SWAP3 POP POP PUSH1 0x20 PUSH2 0x1B27 DUP6 DUP3 DUP7 ADD PUSH2 0x1A13 JUMP JUMPDEST SWAP2 POP POP SWAP3 POP SWAP3 SWAP1 POP JUMP JUMPDEST PUSH2 0x1B3A DUP2 PUSH2 0x2160 JUMP JUMPDEST DUP3 MSTORE POP POP JUMP JUMPDEST PUSH1 0x0 PUSH2 0x1B4B DUP3 PUSH2 0x2019 JUMP JUMPDEST PUSH2 0x1B55 DUP2 DUP6 PUSH2 0x202F JUMP JUMPDEST SWAP4 POP PUSH2 0x1B65 DUP2 DUP6 PUSH1 0x20 DUP7 ADD PUSH2 0x21DE JUMP JUMPDEST DUP1 DUP5 ADD SWAP2 POP POP SWAP3 SWAP2 POP POP JUMP JUMPDEST PUSH2 0x1B7A DUP2 PUSH2 0x21A8 JUMP JUMPDEST DUP3 MSTORE POP POP JUMP JUMPDEST PUSH1 0x0 PUSH2 0x1B8B DUP3 PUSH2 0x2024 JUMP JUMPDEST PUSH2 0x1B95 DUP2 DUP6 PUSH2 0x203A JUMP JUMPDEST SWAP4 POP PUSH2 0x1BA5 DUP2 DUP6 PUSH1 0x20 DUP7 ADD PUSH2 0x21DE JUMP JUMPDEST PUSH2 0x1BAE DUP2 PUSH2 0x22A5 JUMP JUMPDEST DUP5 ADD SWAP2 POP POP SWAP3 SWAP2 POP POP JUMP JUMPDEST PUSH1 0x0 PUSH2 0x1BC6 PUSH1 0x10 DUP4 PUSH2 0x203A JUMP JUMPDEST SWAP2 POP PUSH2 0x1BD1 DUP3 PUSH2 0x22B6 JUMP JUMPDEST PUSH1 0x20 DUP3 ADD SWAP1 POP SWAP2 SWAP1 POP JUMP JUMPDEST PUSH1 0x0 PUSH2 0x1BE9 PUSH1 0x2A DUP4 PUSH2 0x203A JUMP JUMPDEST SWAP2 POP PUSH2 0x1BF4 DUP3 PUSH2 0x22DF JUMP JUMPDEST PUSH1 0x40 DUP3 ADD SWAP1 POP SWAP2 SWAP1 POP JUMP JUMPDEST PUSH1 0x0 PUSH2 0x1C0C PUSH1 0x26 DUP4 PUSH2 0x203A JUMP JUMPDEST SWAP2 POP PUSH2 0x1C17 DUP3 PUSH2 0x232E JUMP JUMPDEST PUSH1 0x40 DUP3 ADD SWAP1 POP SWAP2 SWAP1 POP JUMP JUMPDEST PUSH1 0x0 PUSH2 0x1C2F PUSH1 0xE DUP4 PUSH2 0x203A JUMP JUMPDEST SWAP2 POP PUSH2 0x1C3A DUP3 PUSH2 0x237D JUMP JUMPDEST PUSH1 0x20 DUP3 ADD SWAP1 POP SWAP2 SWAP1 POP JUMP JUMPDEST PUSH1 0x0 PUSH2 0x1C52 PUSH1 0x26 DUP4 PUSH2 0x203A JUMP JUMPDEST SWAP2 POP PUSH2 0x1C5D DUP3 PUSH2 0x23A6 JUMP JUMPDEST PUSH1 0x40 DUP3 ADD SWAP1 POP SWAP2 SWAP1 POP JUMP JUMPDEST PUSH1 0x0 PUSH2 0x1C75 PUSH1 0x26 DUP4 PUSH2 0x203A JUMP JUMPDEST SWAP2 POP PUSH2 0x1C80 DUP3 PUSH2 0x23F5 JUMP JUMPDEST PUSH1 0x40 DUP3 ADD SWAP1 POP SWAP2 SWAP1 POP JUMP JUMPDEST PUSH1 0x0 PUSH2 0x1C98 PUSH1 0x1F DUP4 PUSH2 0x203A JUMP JUMPDEST SWAP2 POP PUSH2 0x1CA3 DUP3 PUSH2 0x2444 JUMP JUMPDEST PUSH1 0x20 DUP3 ADD SWAP1 POP SWAP2 SWAP1 POP JUMP JUMPDEST PUSH1 0x0 PUSH2 0x1CBB PUSH1 0x20 DUP4 PUSH2 0x203A JUMP JUMPDEST SWAP2 POP PUSH2 0x1CC6 DUP3 PUSH2 0x246D JUMP JUMPDEST PUSH1 0x20 DUP3 ADD SWAP1 POP SWAP2 SWAP1 POP JUMP JUMPDEST PUSH1 0x0 PUSH2 0x1CDE PUSH1 0xB DUP4 PUSH2 0x203A JUMP JUMPDEST SWAP2 POP PUSH2 0x1CE9 DUP3 PUSH2 0x2496 JUMP JUMPDEST PUSH1 0x20 DUP3 ADD SWAP1 POP SWAP2 SWAP1 POP JUMP JUMPDEST PUSH1 0x0 PUSH2 0x1D01 PUSH1 0x1D DUP4 PUSH2 0x203A JUMP JUMPDEST SWAP2 POP PUSH2 0x1D0C DUP3 PUSH2 0x24BF JUMP JUMPDEST PUSH1 0x20 DUP3 ADD SWAP1 POP SWAP2 SWAP1 POP JUMP JUMPDEST PUSH1 0x0 PUSH2 0x1D24 PUSH1 0x1A DUP4 PUSH2 0x203A JUMP JUMPDEST SWAP2 POP PUSH2 0x1D2F DUP3 PUSH2 0x24E8 JUMP JUMPDEST PUSH1 0x20 DUP3 ADD SWAP1 POP SWAP2 SWAP1 POP JUMP JUMPDEST PUSH1 0x0 PUSH2 0x1D47 PUSH1 0x17 DUP4 PUSH2 0x203A JUMP JUMPDEST SWAP2 POP PUSH2 0x1D52 DUP3 PUSH2 0x2511 JUMP JUMPDEST PUSH1 0x20 DUP3 ADD SWAP1 POP SWAP2 SWAP1 POP JUMP JUMPDEST PUSH1 0x0 PUSH2 0x1D6A PUSH1 0xD DUP4 PUSH2 0x203A JUMP JUMPDEST SWAP2 POP PUSH2 0x1D75 DUP3 PUSH2 0x253A JUMP JUMPDEST PUSH1 0x20 DUP3 ADD SWAP1 POP SWAP2 SWAP1 POP JUMP JUMPDEST PUSH2 0x1D89 DUP2 PUSH2 0x219E JUMP JUMPDEST DUP3 MSTORE POP POP JUMP JUMPDEST PUSH1 0x0 PUSH2 0x1D9B DUP3 DUP5 PUSH2 0x1B40 JUMP JUMPDEST SWAP2 POP DUP2 SWAP1 POP SWAP3 SWAP2 POP POP JUMP JUMPDEST PUSH1 0x0 PUSH1 0x20 DUP3 ADD SWAP1 POP PUSH2 0x1DBB PUSH1 0x0 DUP4 ADD DUP5 PUSH2 0x1B31 JUMP JUMPDEST SWAP3 SWAP2 POP POP JUMP JUMPDEST PUSH1 0x0 PUSH1 0x60 DUP3 ADD SWAP1 POP PUSH2 0x1DD6 PUSH1 0x0 DUP4 ADD DUP7 PUSH2 0x1B31 JUMP JUMPDEST PUSH2 0x1DE3 PUSH1 0x20 DUP4 ADD DUP6 PUSH2 0x1B31 JUMP JUMPDEST PUSH2 0x1DF0 PUSH1 0x40 DUP4 ADD DUP5 PUSH2 0x1D80 JUMP JUMPDEST SWAP5 SWAP4 POP POP POP POP JUMP JUMPDEST PUSH1 0x0 PUSH1 0x40 DUP3 ADD SWAP1 POP PUSH2 0x1E0D PUSH1 0x0 DUP4 ADD DUP6 PUSH2 0x1B31 JUMP JUMPDEST PUSH2 0x1E1A PUSH1 0x20 DUP4 ADD DUP5 PUSH2 0x1D80 JUMP JUMPDEST SWAP4 SWAP3 POP POP POP JUMP JUMPDEST PUSH1 0x0 PUSH1 0x20 DUP3 ADD SWAP1 POP PUSH2 0x1E36 PUSH1 0x0 DUP4 ADD DUP5 PUSH2 0x1B71 JUMP JUMPDEST SWAP3 SWAP2 POP POP JUMP JUMPDEST PUSH1 0x0 PUSH1 0x20 DUP3 ADD SWAP1 POP DUP2 DUP2 SUB PUSH1 0x0 DUP4 ADD MSTORE PUSH2 0x1E56 DUP2 DUP5 PUSH2 0x1B80 JUMP JUMPDEST SWAP1 POP SWAP3 SWAP2 POP POP JUMP JUMPDEST PUSH1 0x0 PUSH1 0x20 DUP3 ADD SWAP1 POP DUP2 DUP2 SUB PUSH1 0x0 DUP4 ADD MSTORE PUSH2 0x1E77 DUP2 PUSH2 0x1BB9 JUMP JUMPDEST SWAP1 POP SWAP2 SWAP1 POP JUMP JUMPDEST PUSH1 0x0 PUSH1 0x20 DUP3 ADD SWAP1 POP DUP2 DUP2 SUB PUSH1 0x0 DUP4 ADD MSTORE PUSH2 0x1E97 DUP2 PUSH2 0x1BDC JUMP JUMPDEST SWAP1 POP SWAP2 SWAP1 POP JUMP JUMPDEST PUSH1 0x0 PUSH1 0x20 DUP3 ADD SWAP1 POP DUP2 DUP2 SUB PUSH1 0x0 DUP4 ADD MSTORE PUSH2 0x1EB7 DUP2 PUSH2 0x1BFF JUMP JUMPDEST SWAP1 POP SWAP2 SWAP1 POP JUMP JUMPDEST PUSH1 0x0 PUSH1 0x20 DUP3 ADD SWAP1 POP DUP2 DUP2 SUB PUSH1 0x0 DUP4 ADD MSTORE PUSH2 0x1ED7 DUP2 PUSH2 0x1C22 JUMP JUMPDEST SWAP1 POP SWAP2 SWAP1 POP JUMP JUMPDEST PUSH1 0x0 PUSH1 0x20 DUP3 ADD SWAP1 POP DUP2 DUP2 SUB PUSH1 0x0 DUP4 ADD MSTORE PUSH2 0x1EF7 DUP2 PUSH2 0x1C45 JUMP JUMPDEST SWAP1 POP SWAP2 SWAP1 POP JUMP JUMPDEST PUSH1 0x0 PUSH1 0x20 DUP3 ADD SWAP1 POP DUP2 DUP2 SUB PUSH1 0x0 DUP4 ADD MSTORE PUSH2 0x1F17 DUP2 PUSH2 0x1C68 JUMP JUMPDEST SWAP1 POP SWAP2 SWAP1 POP JUMP JUMPDEST PUSH1 0x0 PUSH1 0x20 DUP3 ADD SWAP1 POP DUP2 DUP2 SUB PUSH1 0x0 DUP4 ADD MSTORE PUSH2 0x1F37 DUP2 PUSH2 0x1C8B JUMP JUMPDEST SWAP1 POP SWAP2 SWAP1 POP JUMP JUMPDEST PUSH1 0x0 PUSH1 0x20 DUP3 ADD SWAP1 POP DUP2 DUP2 SUB PUSH1 0x0 DUP4 ADD MSTORE PUSH2 0x1F57 DUP2 PUSH2 0x1CAE JUMP JUMPDEST SWAP1 POP SWAP2 SWAP1 POP JUMP JUMPDEST PUSH1 0x0 PUSH1 0x20 DUP3 ADD SWAP1 POP DUP2 DUP2 SUB PUSH1 0x0 DUP4 ADD MSTORE PUSH2 0x1F77 DUP2 PUSH2 0x1CD1 JUMP JUMPDEST SWAP1 POP SWAP2 SWAP1 POP JUMP JUMPDEST PUSH1 0x0 PUSH1 0x20 DUP3 ADD SWAP1 POP DUP2 DUP2 SUB PUSH1 0x0 DUP4 ADD MSTORE PUSH2 0x1F97 DUP2 PUSH2 0x1CF4 JUMP JUMPDEST SWAP1 POP SWAP2 SWAP1 POP JUMP JUMPDEST PUSH1 0x0 PUSH1 0x20 DUP3 ADD SWAP1 POP DUP2 DUP2 SUB PUSH1 0x0 DUP4 ADD MSTORE PUSH2 0x1FB7 DUP2 PUSH2 0x1D17 JUMP JUMPDEST SWAP1 POP SWAP2 SWAP1 POP JUMP JUMPDEST PUSH1 0x0 PUSH1 0x20 DUP3 ADD SWAP1 POP DUP2 DUP2 SUB PUSH1 0x0 DUP4 ADD MSTORE PUSH2 0x1FD7 DUP2 PUSH2 0x1D3A JUMP JUMPDEST SWAP1 POP SWAP2 SWAP1 POP JUMP JUMPDEST PUSH1 0x0 PUSH1 0x20 DUP3 ADD SWAP1 POP DUP2 DUP2 SUB PUSH1 0x0 DUP4 ADD MSTORE PUSH2 0x1FF7 DUP2 PUSH2 0x1D5D JUMP JUMPDEST SWAP1 POP SWAP2 SWAP1 POP JUMP JUMPDEST PUSH1 0x0 PUSH1 0x20 DUP3 ADD SWAP1 POP PUSH2 0x2013 PUSH1 0x0 DUP4 ADD DUP5 PUSH2 0x1D80 JUMP JUMPDEST SWAP3 SWAP2 POP POP JUMP JUMPDEST PUSH1 0x0 DUP2 MLOAD SWAP1 POP SWAP2 SWAP1 POP JUMP JUMPDEST PUSH1 0x0 DUP2 MLOAD SWAP1 POP SWAP2 SWAP1 POP JUMP JUMPDEST PUSH1 0x0 DUP2 SWAP1 POP SWAP3 SWAP2 POP POP JUMP JUMPDEST PUSH1 0x0 DUP3 DUP3 MSTORE PUSH1 0x20 DUP3 ADD SWAP1 POP SWAP3 SWAP2 POP POP JUMP JUMPDEST PUSH1 0x0 PUSH2 0x2056 DUP3 PUSH2 0x219E JUMP JUMPDEST SWAP2 POP PUSH2 0x2061 DUP4 PUSH2 0x219E JUMP JUMPDEST SWAP3 POP DUP3 PUSH32 0xFFFFFFFFFFFFFFFFFFFFFFFFFFFFFFFFFFFFFFFFFFFFFFFFFFFFFFFFFFFFFFFF SUB DUP3 GT ISZERO PUSH2 0x2096 JUMPI PUSH2 0x2095 PUSH2 0x2242 JUMP JUMPDEST JUMPDEST DUP3 DUP3 ADD SWAP1 POP SWAP3 SWAP2 POP POP JUMP JUMPDEST PUSH1 0x0 PUSH2 0x20AC DUP3 PUSH2 0x219E JUMP JUMPDEST SWAP2 POP PUSH2 0x20B7 DUP4 PUSH2 0x219E JUMP JUMPDEST SWAP3 POP DUP3 PUSH2 0x20C7 JUMPI PUSH2 0x20C6 PUSH2 0x2271 JUMP JUMPDEST JUMPDEST DUP3 DUP3 DIV SWAP1 POP SWAP3 SWAP2 POP POP JUMP JUMPDEST PUSH1 0x0 PUSH2 0x20DD DUP3 PUSH2 0x219E JUMP JUMPDEST SWAP2 POP PUSH2 0x20E8 DUP4 PUSH2 0x219E JUMP JUMPDEST SWAP3 POP DUP2 PUSH32 0xFFFFFFFFFFFFFFFFFFFFFFFFFFFFFFFFFFFFFFFFFFFFFFFFFFFFFFFFFFFFFFFF DIV DUP4 GT DUP3 ISZERO ISZERO AND ISZERO PUSH2 0x2121 JUMPI PUSH2 0x2120 PUSH2 0x2242 JUMP JUMPDEST JUMPDEST DUP3 DUP3 MUL SWAP1 POP SWAP3 SWAP2 POP POP JUMP JUMPDEST PUSH1 0x0 PUSH2 0x2137 DUP3 PUSH2 0x219E JUMP JUMPDEST SWAP2 POP PUSH2 0x2142 DUP4 PUSH2 0x219E JUMP JUMPDEST SWAP3 POP DUP3 DUP3 LT ISZERO PUSH2 0x2155 JUMPI PUSH2 0x2154 PUSH2 0x2242 JUMP JUMPDEST JUMPDEST DUP3 DUP3 SUB SWAP1 POP SWAP3 SWAP2 POP POP JUMP JUMPDEST PUSH1 0x0 PUSH2 0x216B DUP3 PUSH2 0x217E JUMP JUMPDEST SWAP1 POP SWAP2 SWAP1 POP JUMP JUMPDEST PUSH1 0x0 DUP2 ISZERO ISZERO SWAP1 POP SWAP2 SWAP1 POP JUMP JUMPDEST PUSH1 0x0 PUSH20 0xFFFFFFFFFFFFFFFFFFFFFFFFFFFFFFFFFFFFFFFF DUP3 AND SWAP1 POP SWAP2 SWAP1 POP JUMP JUMPDEST PUSH1 0x0 DUP2 SWAP1 POP SWAP2 SWAP1 POP JUMP JUMPDEST PUSH1 0x0 PUSH2 0x21B3 DUP3 PUSH2 0x21BA JUMP JUMPDEST SWAP1 POP SWAP2 SWAP1 POP JUMP JUMPDEST PUSH1 0x0 PUSH2 0x21C5 DUP3 PUSH2 0x21CC JUMP JUMPDEST SWAP1 POP SWAP2 SWAP1 POP JUMP JUMPDEST PUSH1 0x0 PUSH2 0x21D7 DUP3 PUSH2 0x217E JUMP JUMPDEST SWAP1 POP SWAP2 SWAP1 POP JUMP JUMPDEST PUSH1 0x0 JUMPDEST DUP4 DUP2 LT ISZERO PUSH2 0x21FC JUMPI DUP1 DUP3 ADD MLOAD DUP2 DUP5 ADD MSTORE PUSH1 0x20 DUP2 ADD SWAP1 POP PUSH2 0x21E1 JUMP JUMPDEST DUP4 DUP2 GT ISZERO PUSH2 0x220B JUMPI PUSH1 0x0 DUP5 DUP5 ADD MSTORE JUMPDEST POP POP POP POP JUMP JUMPDEST PUSH1 0x0 PUSH2 0x221C DUP3 PUSH2 0x219E JUMP JUMPDEST SWAP2 POP PUSH2 0x2227 DUP4 PUSH2 0x219E JUMP JUMPDEST SWAP3 POP DUP3 PUSH2 0x2237 JUMPI PUSH2 0x2236 PUSH2 0x2271 JUMP JUMPDEST JUMPDEST DUP3 DUP3 MOD SWAP1 POP SWAP3 SWAP2 POP POP JUMP JUMPDEST PUSH32 0x4E487B7100000000000000000000000000000000000000000000000000000000 PUSH1 0x0 MSTORE PUSH1 0x11 PUSH1 0x4 MSTORE PUSH1 0x24 PUSH1 0x0 REVERT JUMPDEST PUSH32 0x4E487B7100000000000000000000000000000000000000000000000000000000 PUSH1 0x0 MSTORE PUSH1 0x12 PUSH1 0x4 MSTORE PUSH1 0x24 PUSH1 0x0 REVERT JUMPDEST PUSH1 0x0 DUP1 REVERT JUMPDEST PUSH1 0x0 PUSH1 0x1F NOT PUSH1 0x1F DUP4 ADD AND SWAP1 POP SWAP2 SWAP1 POP JUMP JUMPDEST PUSH32 0x4E6F7468696E6720746F20636C61696D00000000000000000000000000000000 PUSH1 0x0 DUP3 ADD MSTORE POP JUMP JUMPDEST PUSH32 0x5361666542455032303A204245503230206F7065726174696F6E20646964206E PUSH1 0x0 DUP3 ADD MSTORE PUSH32 0x6F74207375636365656400000000000000000000000000000000000000000000 PUSH1 0x20 DUP3 ADD MSTORE POP JUMP JUMPDEST PUSH32 0x4F776E61626C653A206E6577206F776E657220697320746865207A65726F2061 PUSH1 0x0 DUP3 ADD MSTORE PUSH32 0x6464726573730000000000000000000000000000000000000000000000000000 PUSH1 0x20 DUP3 ADD MSTORE POP JUMP JUMPDEST PUSH32 0x496E76616C696420616D6F756E74000000000000000000000000000000000000 PUSH1 0x0 DUP3 ADD MSTORE POP JUMP JUMPDEST PUSH32 0x416464726573733A20696E73756666696369656E742062616C616E636520666F PUSH1 0x0 DUP3 ADD MSTORE PUSH32 0x722063616C6C0000000000000000000000000000000000000000000000000000 PUSH1 0x20 DUP3 ADD MSTORE POP JUMP JUMPDEST PUSH32 0x496E76616C696420416464726573732E20416464726573732063616E27742062 PUSH1 0x0 DUP3 ADD MSTORE PUSH32 0x65207A65726F0000000000000000000000000000000000000000000000000000 PUSH1 0x20 DUP3 ADD MSTORE POP JUMP JUMPDEST PUSH32 0x416D6F756E742073686F756C642062652067726561746572207468616E203000 PUSH1 0x0 DUP3 ADD MSTORE POP JUMP JUMPDEST PUSH32 0x4F776E61626C653A2063616C6C6572206973206E6F7420746865206F776E6572 PUSH1 0x0 DUP3 ADD MSTORE POP JUMP JUMPDEST PUSH32 0x496E76616C696420415059000000000000000000000000000000000000000000 PUSH1 0x0 DUP3 ADD MSTORE POP JUMP JUMPDEST PUSH32 0x416464726573733A2063616C6C20746F206E6F6E2D636F6E7472616374000000 PUSH1 0x0 DUP3 ADD MSTORE POP JUMP JUMPDEST PUSH32 0x496E76616C696420556E7374616B696E67204665652052617465000000000000 PUSH1 0x0 DUP3 ADD MSTORE POP JUMP JUMPDEST PUSH32 0x496E76616C6964204C6F636B7570204475726174696F6E000000000000000000 PUSH1 0x0 DUP3 ADD MSTORE POP JUMP JUMPDEST PUSH32 0x496E73756666696369656E742100000000000000000000000000000000000000 PUSH1 0x0 DUP3 ADD MSTORE POP JUMP JUMPDEST PUSH2 0x256C DUP2 PUSH2 0x2160 JUMP JUMPDEST DUP2 EQ PUSH2 0x2577 JUMPI PUSH1 0x0 DUP1 REVERT JUMPDEST POP JUMP JUMPDEST PUSH2 0x2583 DUP2 PUSH2 0x2172 JUMP JUMPDEST DUP2 EQ PUSH2 0x258E JUMPI PUSH1 0x0 DUP1 REVERT JUMPDEST POP JUMP JUMPDEST PUSH2 0x259A DUP2 PUSH2 0x219E JUMP JUMPDEST DUP2 EQ PUSH2 0x25A5 JUMPI PUSH1 0x0 DUP1 REVERT JUMPDEST POP JUMP INVALID LOG2 PUSH5 0x6970667358 0x22 SLT KECCAK256 0xE6 0xEF 0xC5 SWAP15 0x49 0xDC PUSH31 0x980978F294C922AF4C8D26FB936A7CECB155C3FA1D54AF0BF964736F6C6343 STOP ADDMOD SMOD STOP CALLER "
				},
				"gasEstimates": {
					"creation": {
						"codeDepositCost": "1938800",
						"executionCost": "infinite",
						"totalCost": "infinite"
					},
					"external": {
						"harvest()": "infinite",
						"owner()": "2611",
						"remainedToNextEvent()": "infinite",
						"renounceOwnership()": "30463",
						"rewardAmount()": "2598",
						"rewardToHarvest()": "infinite",
						"setBountyWallet(address)": "infinite",
						"setEventPeriod(uint256)": "infinite",
						"setFixedAPY(uint256)": "infinite",
						"setUnstakingFeeRate(uint256)": "infinite",
						"stake(uint256,uint256)": "infinite",
						"stakedAmount()": "2578",
						"token()": "2688",
						"totalStaked()": "2474",
						"transferOwnership(address)": "30767",
						"withdraw(uint256)": "infinite"
					},
					"internal": {
						"Init()": "infinite",
						"calDaysFromTimestamp(uint256)": "infinite",
						"updateReward()": "infinite"
					}
				},
				"methodIdentifiers": {
					"harvest()": "4641257d",
					"owner()": "8da5cb5b",
					"remainedToNextEvent()": "6413996c",
					"renounceOwnership()": "715018a6",
					"rewardAmount()": "f7b2a7be",
					"rewardToHarvest()": "5d2ec65d",
					"setBountyWallet(address)": "8a9d3839",
					"setEventPeriod(uint256)": "692642e7",
					"setFixedAPY(uint256)": "50f19c87",
					"setUnstakingFeeRate(uint256)": "91e07e7a",
					"stake(uint256,uint256)": "7b0472f0",
					"stakedAmount()": "373d6132",
					"token()": "fc0c546a",
					"totalStaked()": "817b1cd2",
					"transferOwnership(address)": "f2fde38b",
					"withdraw(uint256)": "2e1a7d4d"
				}
			},
			"userdoc": {
				"kind": "user",
				"methods": {},
				"version": 1
			}
		}
	}
}