{
	"contracts/Staking.sol": {
		"StakingPlatform": {
			"abi": [
				{
					"inputs": [
						{
							"internalType": "address",
							"name": "_token",
							"type": "address"
						}
					],
					"stateMutability": "nonpayable",
					"type": "constructor"
				},
				{
					"anonymous": false,
					"inputs": [
						{
							"indexed": false,
							"internalType": "address",
							"name": "staker",
							"type": "address"
						},
						{
							"indexed": false,
							"internalType": "uint256",
							"name": "rewardToClaim",
							"type": "uint256"
						}
					],
					"name": "Harvest",
					"type": "event"
				},
				{
					"anonymous": false,
					"inputs": [
						{
							"indexed": true,
							"internalType": "address",
							"name": "previousOwner",
							"type": "address"
						},
						{
							"indexed": true,
							"internalType": "address",
							"name": "newOwner",
							"type": "address"
						}
					],
					"name": "OwnershipTransferred",
					"type": "event"
				},
				{
					"anonymous": false,
					"inputs": [
						{
							"indexed": false,
							"internalType": "uint256",
							"name": "lockupDuration",
							"type": "uint256"
						}
					],
					"name": "SetEventPeriod",
					"type": "event"
				},
				{
					"anonymous": false,
					"inputs": [
						{
							"indexed": false,
							"internalType": "uint256",
							"name": "rewardRate",
							"type": "uint256"
						}
					],
					"name": "SetRewardRate",
					"type": "event"
				},
				{
					"anonymous": false,
					"inputs": [
						{
							"indexed": false,
							"internalType": "uint256",
							"name": "unstakingFeeRate",
							"type": "uint256"
						}
					],
					"name": "SetUnstakingFeeRate",
					"type": "event"
				},
				{
					"anonymous": false,
					"inputs": [
						{
							"indexed": false,
							"internalType": "address",
							"name": "staker",
							"type": "address"
						},
						{
							"indexed": false,
							"internalType": "uint256",
							"name": "amount",
							"type": "uint256"
						}
					],
					"name": "Staked",
					"type": "event"
				},
				{
					"anonymous": false,
					"inputs": [
						{
							"indexed": false,
							"internalType": "address",
							"name": "staker",
							"type": "address"
						},
						{
							"indexed": false,
							"internalType": "uint256",
							"name": "amount",
							"type": "uint256"
						}
					],
					"name": "Withdraw",
					"type": "event"
				},
				{
					"inputs": [],
					"name": "eventPeriod",
					"outputs": [
						{
							"internalType": "uint256",
							"name": "",
							"type": "uint256"
						}
					],
					"stateMutability": "view",
					"type": "function"
				},
				{
					"inputs": [
						{
							"internalType": "uint256",
							"name": "_mode",
							"type": "uint256"
						}
					],
					"name": "getMinimumStakingAmount",
					"outputs": [
						{
							"internalType": "uint256",
							"name": "",
							"type": "uint256"
						}
					],
					"stateMutability": "view",
					"type": "function"
				},
				{
					"inputs": [],
					"name": "getNumberofStakers",
					"outputs": [
						{
							"internalType": "uint256",
							"name": "",
							"type": "uint256"
						}
					],
					"stateMutability": "view",
					"type": "function"
				},
				{
					"inputs": [],
					"name": "getRewardRate",
					"outputs": [
						{
							"internalType": "uint256",
							"name": "",
							"type": "uint256"
						}
					],
					"stateMutability": "view",
					"type": "function"
				},
				{
					"inputs": [
						{
							"internalType": "address",
							"name": "_address",
							"type": "address"
						}
					],
					"name": "getStakerMode",
					"outputs": [
						{
							"internalType": "uint256",
							"name": "",
							"type": "uint256"
						}
					],
					"stateMutability": "view",
					"type": "function"
				},
				{
					"inputs": [],
					"name": "getTotalStaked",
					"outputs": [
						{
							"internalType": "uint256",
							"name": "",
							"type": "uint256"
						}
					],
					"stateMutability": "view",
					"type": "function"
				},
				{
					"inputs": [],
					"name": "harvest",
					"outputs": [],
					"stateMutability": "nonpayable",
					"type": "function"
				},
				{
					"inputs": [
						{
							"internalType": "address",
							"name": "_address",
							"type": "address"
						}
					],
					"name": "isLocked",
					"outputs": [
						{
							"internalType": "uint256",
							"name": "",
							"type": "uint256"
						}
					],
					"stateMutability": "view",
					"type": "function"
				},
				{
					"inputs": [
						{
							"internalType": "address",
							"name": "_address",
							"type": "address"
						}
					],
					"name": "isStartStaking",
					"outputs": [
						{
							"internalType": "uint256",
							"name": "",
							"type": "uint256"
						}
					],
					"stateMutability": "view",
					"type": "function"
				},
				{
					"inputs": [
						{
							"internalType": "uint256",
							"name": "mode",
							"type": "uint256"
						}
					],
					"name": "lockupPeriod",
					"outputs": [
						{
							"internalType": "uint256",
							"name": "",
							"type": "uint256"
						}
					],
					"stateMutability": "view",
					"type": "function"
				},
				{
					"inputs": [],
					"name": "owner",
					"outputs": [
						{
							"internalType": "address",
							"name": "",
							"type": "address"
						}
					],
					"stateMutability": "view",
					"type": "function"
				},
				{
					"inputs": [],
					"name": "renounceOwnership",
					"outputs": [],
					"stateMutability": "nonpayable",
					"type": "function"
				},
				{
					"inputs": [
						{
							"internalType": "address",
							"name": "_address",
							"type": "address"
						}
					],
					"name": "rewardToHarvest",
					"outputs": [
						{
							"internalType": "uint256",
							"name": "",
							"type": "uint256"
						}
					],
					"stateMutability": "view",
					"type": "function"
				},
				{
					"inputs": [
						{
							"internalType": "uint256",
							"name": "_minAmount",
							"type": "uint256"
						}
					],
					"name": "setCopperMinAmount",
					"outputs": [],
					"stateMutability": "nonpayable",
					"type": "function"
				},
				{
					"inputs": [
						{
							"internalType": "uint256",
							"name": "__eventPeriod",
							"type": "uint256"
						}
					],
					"name": "setEventPeriod",
					"outputs": [],
					"stateMutability": "nonpayable",
					"type": "function"
				},
				{
					"inputs": [
						{
							"internalType": "uint256",
							"name": "_minAmount",
							"type": "uint256"
						}
					],
					"name": "setGoldMinAmount",
					"outputs": [],
					"stateMutability": "nonpayable",
					"type": "function"
				},
				{
					"inputs": [
						{
							"internalType": "uint256",
							"name": "lockupTime",
							"type": "uint256"
						}
					],
					"name": "setLockupTime",
					"outputs": [],
					"stateMutability": "nonpayable",
					"type": "function"
				},
				{
					"inputs": [
						{
							"internalType": "uint256",
							"name": "__rewardRate",
							"type": "uint256"
						}
					],
					"name": "setRewardRate",
					"outputs": [],
					"stateMutability": "nonpayable",
					"type": "function"
				},
				{
					"inputs": [
						{
							"internalType": "uint256",
							"name": "_minAmount",
							"type": "uint256"
						}
					],
					"name": "setSilverMinAmount",
					"outputs": [],
					"stateMutability": "nonpayable",
					"type": "function"
				},
				{
					"inputs": [
						{
							"internalType": "uint256",
							"name": "_minAmount",
							"type": "uint256"
						}
					],
					"name": "setThreeMonthMinAmount",
					"outputs": [],
					"stateMutability": "nonpayable",
					"type": "function"
				},
				{
					"inputs": [
						{
							"internalType": "uint256",
							"name": "__unstakingFeeRate",
							"type": "uint256"
						}
					],
					"name": "setUnstakingFeeRate",
					"outputs": [],
					"stateMutability": "nonpayable",
					"type": "function"
				},
				{
					"inputs": [
						{
							"internalType": "uint256",
							"name": "_amount",
							"type": "uint256"
						}
					],
					"name": "stake",
					"outputs": [],
					"stateMutability": "nonpayable",
					"type": "function"
				},
				{
					"inputs": [
						{
							"internalType": "address",
							"name": "_address",
							"type": "address"
						}
					],
					"name": "stakedAmount",
					"outputs": [
						{
							"internalType": "uint256",
							"name": "",
							"type": "uint256"
						}
					],
					"stateMutability": "view",
					"type": "function"
				},
				{
					"inputs": [
						{
							"internalType": "uint256",
							"name": "_amount",
							"type": "uint256"
						},
						{
							"internalType": "uint256",
							"name": "_mode",
							"type": "uint256"
						}
					],
					"name": "startStaking",
					"outputs": [],
					"stateMutability": "nonpayable",
					"type": "function"
				},
				{
					"inputs": [],
					"name": "token",
					"outputs": [
						{
							"internalType": "contract IBEP20",
							"name": "",
							"type": "address"
						}
					],
					"stateMutability": "view",
					"type": "function"
				},
				{
					"inputs": [],
					"name": "totalStaked",
					"outputs": [
						{
							"internalType": "uint256",
							"name": "",
							"type": "uint256"
						}
					],
					"stateMutability": "view",
					"type": "function"
				},
				{
					"inputs": [
						{
							"internalType": "address",
							"name": "newOwner",
							"type": "address"
						}
					],
					"name": "transferOwnership",
					"outputs": [],
					"stateMutability": "nonpayable",
					"type": "function"
				},
				{
					"inputs": [],
					"name": "unstakingFeeLate",
					"outputs": [
						{
							"internalType": "uint256",
							"name": "",
							"type": "uint256"
						}
					],
					"stateMutability": "view",
					"type": "function"
				},
				{
					"inputs": [
						{
							"internalType": "uint256",
							"name": "amount",
							"type": "uint256"
						}
					],
					"name": "withdraw",
					"outputs": [],
					"stateMutability": "nonpayable",
					"type": "function"
				}
			],
			"devdoc": {
				"kind": "dev",
				"methods": {
					"owner()": {
						"details": "Returns the address of the current owner."
					},
					"renounceOwnership()": {
						"details": "Leaves the contract without owner. It will not be possible to call `onlyOwner` functions anymore. Can only be called by the current owner. NOTE: Renouncing ownership will leave the contract without an owner, thereby removing any functionality that is only available to the owner."
					},
					"transferOwnership(address)": {
						"details": "Transfers ownership of the contract to a new account (`newOwner`). Can only be called by the current owner."
					}
				},
				"version": 1
			},
			"evm": {
				"assembly": "    /* \"contracts/Staking.sol\":260:10157  contract StakingPlatform is Ownable {... */\n  mstore(0x40, 0x80)\n    /* \"contracts/Staking.sol\":1666:1762  constructor(address _token) {... */\n  callvalue\n  dup1\n  iszero\n  tag_1\n  jumpi\n  0x00\n  dup1\n  revert\ntag_1:\n  pop\n  mload(0x40)\n  sub(codesize, bytecodeSize)\n  dup1\n  bytecodeSize\n  dup4\n  codecopy\n  dup2\n  dup2\n  add\n  0x40\n  mstore\n  dup2\n  add\n  swap1\n  tag_2\n  swap2\n  swap1\n  tag_3\n  jump\t// in\ntag_2:\n    /* \"@openzeppelin/contracts/access/Ownable.sol\":921:953  _transferOwnership(_msgSender()) */\n  tag_7\n    /* \"@openzeppelin/contracts/access/Ownable.sol\":940:952  _msgSender() */\n  tag_8\n    /* \"@openzeppelin/contracts/access/Ownable.sol\":940:950  _msgSender */\n  shl(0x20, tag_9)\n    /* \"@openzeppelin/contracts/access/Ownable.sol\":940:952  _msgSender() */\n  0x20\n  shr\n  jump\t// in\ntag_8:\n    /* \"@openzeppelin/contracts/access/Ownable.sol\":921:939  _transferOwnership */\n  shl(0x20, tag_10)\n    /* \"@openzeppelin/contracts/access/Ownable.sol\":921:953  _transferOwnership(_msgSender()) */\n  0x20\n  shr\n  jump\t// in\ntag_7:\n    /* \"contracts/Staking.sol\":1715:1721  Init() */\n  tag_12\n    /* \"contracts/Staking.sol\":1715:1719  Init */\n  shl(0x20, tag_13)\n    /* \"contracts/Staking.sol\":1715:1721  Init() */\n  0x20\n  shr\n  jump\t// in\ntag_12:\n    /* \"contracts/Staking.sol\":1747:1753  _token */\n  dup1\n    /* \"contracts/Staking.sol\":1732:1737  token */\n  0x0d\n  0x00\n    /* \"contracts/Staking.sol\":1732:1754  token = IBEP20(_token) */\n  0x0100\n  exp\n  dup2\n  sload\n  dup2\n  0xffffffffffffffffffffffffffffffffffffffff\n  mul\n  not\n  and\n  swap1\n  dup4\n  0xffffffffffffffffffffffffffffffffffffffff\n  and\n  mul\n  or\n  swap1\n  sstore\n  pop\n    /* \"contracts/Staking.sol\":1666:1762  constructor(address _token) {... */\n  pop\n    /* \"contracts/Staking.sol\":260:10157  contract StakingPlatform is Ownable {... */\n  jump(tag_14)\n    /* \"@openzeppelin/contracts/utils/Context.sol\":640:736  function _msgSender() internal view virtual returns (address) {... */\ntag_9:\n    /* \"@openzeppelin/contracts/utils/Context.sol\":693:700  address */\n  0x00\n    /* \"@openzeppelin/contracts/utils/Context.sol\":719:729  msg.sender */\n  caller\n    /* \"@openzeppelin/contracts/utils/Context.sol\":712:729  return msg.sender */\n  swap1\n  pop\n    /* \"@openzeppelin/contracts/utils/Context.sol\":640:736  function _msgSender() internal view virtual returns (address) {... */\n  swap1\n  jump\t// out\n    /* \"@openzeppelin/contracts/access/Ownable.sol\":2270:2457  function _transferOwnership(address newOwner) internal virtual {... */\ntag_10:\n    /* \"@openzeppelin/contracts/access/Ownable.sol\":2343:2359  address oldOwner */\n  0x00\n    /* \"@openzeppelin/contracts/access/Ownable.sol\":2362:2368  _owner */\n  dup1\n  0x00\n  swap1\n  sload\n  swap1\n  0x0100\n  exp\n  swap1\n  div\n  0xffffffffffffffffffffffffffffffffffffffff\n  and\n    /* \"@openzeppelin/contracts/access/Ownable.sol\":2343:2368  address oldOwner = _owner */\n  swap1\n  pop\n    /* \"@openzeppelin/contracts/access/Ownable.sol\":2387:2395  newOwner */\n  dup2\n    /* \"@openzeppelin/contracts/access/Ownable.sol\":2378:2384  _owner */\n  0x00\n  dup1\n    /* \"@openzeppelin/contracts/access/Ownable.sol\":2378:2395  _owner = newOwner */\n  0x0100\n  exp\n  dup2\n  sload\n  dup2\n  0xffffffffffffffffffffffffffffffffffffffff\n  mul\n  not\n  and\n  swap1\n  dup4\n  0xffffffffffffffffffffffffffffffffffffffff\n  and\n  mul\n  or\n  swap1\n  sstore\n  pop\n    /* \"@openzeppelin/contracts/access/Ownable.sol\":2441:2449  newOwner */\n  dup2\n    /* \"@openzeppelin/contracts/access/Ownable.sol\":2410:2450  OwnershipTransferred(oldOwner, newOwner) */\n  0xffffffffffffffffffffffffffffffffffffffff\n  and\n    /* \"@openzeppelin/contracts/access/Ownable.sol\":2431:2439  oldOwner */\n  dup2\n    /* \"@openzeppelin/contracts/access/Ownable.sol\":2410:2450  OwnershipTransferred(oldOwner, newOwner) */\n  0xffffffffffffffffffffffffffffffffffffffff\n  and\n  0x8be0079c531659141344cd1fd0a4f28419497f9722a3daafe3b4186f6b6457e0\n  mload(0x40)\n  mload(0x40)\n  dup1\n  swap2\n  sub\n  swap1\n  log3\n    /* \"@openzeppelin/contracts/access/Ownable.sol\":2333:2457  {... */\n  pop\n    /* \"@openzeppelin/contracts/access/Ownable.sol\":2270:2457  function _transferOwnership(address newOwner) internal virtual {... */\n  pop\n  jump\t// out\n    /* \"contracts/Staking.sol\":1770:2125  function Init() internal {... */\ntag_13:\n    /* \"contracts/Staking.sol\":1830:1833  200 */\n  0xc8\n    /* \"contracts/Staking.sol\":1816:1827  _rewardRate */\n  0x03\n    /* \"contracts/Staking.sol\":1816:1833  _rewardRate = 200 */\n  dup2\n  swap1\n  sstore\n  pop\n    /* \"contracts/Staking.sol\":1875:1879  1500 */\n  0x05dc\n    /* \"contracts/Staking.sol\":1855:1872  _unstakingFeeRate */\n  0x01\n    /* \"contracts/Staking.sol\":1855:1879  _unstakingFeeRate = 1500 */\n  dup2\n  swap1\n  sstore\n  pop\n    /* \"contracts/Staking.sol\":1907:1910  100 */\n  0x64\n    /* \"contracts/Staking.sol\":1890:1904  _rewardFeeRate */\n  0x04\n    /* \"contracts/Staking.sol\":1890:1910  _rewardFeeRate = 100 */\n  dup2\n  swap1\n  sstore\n  pop\n    /* \"contracts/Staking.sol\":1936:1937  7 */\n  0x07\n    /* \"contracts/Staking.sol\":1921:1933  _eventPeriod */\n  0x02\n    /* \"contracts/Staking.sol\":1921:1937  _eventPeriod = 7 */\n  dup2\n  swap1\n  sstore\n  pop\n    /* \"contracts/Staking.sol\":1964:1966  90 */\n  0x5a\n    /* \"contracts/Staking.sol\":1948:1961  _lockupPeriod */\n  0x05\n    /* \"contracts/Staking.sol\":1948:1966  _lockupPeriod = 90 */\n  dup2\n  swap1\n  sstore\n  pop\n    /* \"contracts/Staking.sol\":1997:2004  3* 1e24 */\n  0x027b46536c66c8e3000000\n    /* \"contracts/Staking.sol\":1977:1994  _minStakeAmount_m */\n  0x06\n    /* \"contracts/Staking.sol\":1977:2004  _minStakeAmount_m = 3* 1e24 */\n  dup2\n  swap1\n  sstore\n  pop\n    /* \"contracts/Staking.sol\":2035:2039  1e24 */\n  0xd3c21bcecceda1000000\n    /* \"contracts/Staking.sol\":2015:2032  _minStakeAmount_c */\n  0x09\n    /* \"contracts/Staking.sol\":2015:2039  _minStakeAmount_c = 1e24 */\n  dup2\n  swap1\n  sstore\n  pop\n    /* \"contracts/Staking.sol\":2070:2078  3 * 1e24 */\n  0x027b46536c66c8e3000000\n    /* \"contracts/Staking.sol\":2050:2067  _minStakeAmount_s */\n  0x08\n    /* \"contracts/Staking.sol\":2050:2078  _minStakeAmount_s = 3 * 1e24 */\n  dup2\n  swap1\n  sstore\n  pop\n    /* \"contracts/Staking.sol\":2109:2117  7 * 1e24 */\n  0x05ca4ec2a79a7f67000000\n    /* \"contracts/Staking.sol\":2089:2106  _minStakeAmount_g */\n  0x07\n    /* \"contracts/Staking.sol\":2089:2117  _minStakeAmount_g = 7 * 1e24 */\n  dup2\n  swap1\n  sstore\n  pop\n    /* \"contracts/Staking.sol\":1770:2125  function Init() internal {... */\n  jump\t// out\n    /* \"#utility.yul\":88:205   */\ntag_19:\n    /* \"#utility.yul\":197:198   */\n  0x00\n    /* \"#utility.yul\":194:195   */\n  dup1\n    /* \"#utility.yul\":187:199   */\n  revert\n    /* \"#utility.yul\":334:460   */\ntag_21:\n    /* \"#utility.yul\":371:378   */\n  0x00\n    /* \"#utility.yul\":411:453   */\n  0xffffffffffffffffffffffffffffffffffffffff\n    /* \"#utility.yul\":404:409   */\n  dup3\n    /* \"#utility.yul\":400:454   */\n  and\n    /* \"#utility.yul\":389:454   */\n  swap1\n  pop\n    /* \"#utility.yul\":334:460   */\n  swap2\n  swap1\n  pop\n  jump\t// out\n    /* \"#utility.yul\":466:562   */\ntag_22:\n    /* \"#utility.yul\":503:510   */\n  0x00\n    /* \"#utility.yul\":532:556   */\n  tag_31\n    /* \"#utility.yul\":550:555   */\n  dup3\n    /* \"#utility.yul\":532:556   */\n  tag_21\n  jump\t// in\ntag_31:\n    /* \"#utility.yul\":521:556   */\n  swap1\n  pop\n    /* \"#utility.yul\":466:562   */\n  swap2\n  swap1\n  pop\n  jump\t// out\n    /* \"#utility.yul\":568:690   */\ntag_23:\n    /* \"#utility.yul\":641:665   */\n  tag_33\n    /* \"#utility.yul\":659:664   */\n  dup2\n    /* \"#utility.yul\":641:665   */\n  tag_22\n  jump\t// in\ntag_33:\n    /* \"#utility.yul\":634:639   */\n  dup2\n    /* \"#utility.yul\":631:666   */\n  eq\n    /* \"#utility.yul\":621:684   */\n  tag_34\n  jumpi\n    /* \"#utility.yul\":680:681   */\n  0x00\n    /* \"#utility.yul\":677:678   */\n  dup1\n    /* \"#utility.yul\":670:682   */\n  revert\n    /* \"#utility.yul\":621:684   */\ntag_34:\n    /* \"#utility.yul\":568:690   */\n  pop\n  jump\t// out\n    /* \"#utility.yul\":696:839   */\ntag_24:\n    /* \"#utility.yul\":753:758   */\n  0x00\n    /* \"#utility.yul\":784:790   */\n  dup2\n    /* \"#utility.yul\":778:791   */\n  mload\n    /* \"#utility.yul\":769:791   */\n  swap1\n  pop\n    /* \"#utility.yul\":800:833   */\n  tag_36\n    /* \"#utility.yul\":827:832   */\n  dup2\n    /* \"#utility.yul\":800:833   */\n  tag_23\n  jump\t// in\ntag_36:\n    /* \"#utility.yul\":696:839   */\n  swap3\n  swap2\n  pop\n  pop\n  jump\t// out\n    /* \"#utility.yul\":845:1196   */\ntag_3:\n    /* \"#utility.yul\":915:921   */\n  0x00\n    /* \"#utility.yul\":964:966   */\n  0x20\n    /* \"#utility.yul\":952:961   */\n  dup3\n    /* \"#utility.yul\":943:950   */\n  dup5\n    /* \"#utility.yul\":939:962   */\n  sub\n    /* \"#utility.yul\":935:967   */\n  slt\n    /* \"#utility.yul\":932:1051   */\n  iszero\n  tag_38\n  jumpi\n    /* \"#utility.yul\":970:1049   */\n  tag_39\n  tag_19\n  jump\t// in\ntag_39:\n    /* \"#utility.yul\":932:1051   */\ntag_38:\n    /* \"#utility.yul\":1090:1091   */\n  0x00\n    /* \"#utility.yul\":1115:1179   */\n  tag_40\n    /* \"#utility.yul\":1171:1178   */\n  dup5\n    /* \"#utility.yul\":1162:1168   */\n  dup3\n    /* \"#utility.yul\":1151:1160   */\n  dup6\n    /* \"#utility.yul\":1147:1169   */\n  add\n    /* \"#utility.yul\":1115:1179   */\n  tag_24\n  jump\t// in\ntag_40:\n    /* \"#utility.yul\":1105:1179   */\n  swap2\n  pop\n    /* \"#utility.yul\":1061:1189   */\n  pop\n    /* \"#utility.yul\":845:1196   */\n  swap3\n  swap2\n  pop\n  pop\n  jump\t// out\n    /* \"contracts/Staking.sol\":260:10157  contract StakingPlatform is Ownable {... */\ntag_14:\n  dataSize(sub_0)\n  dup1\n  dataOffset(sub_0)\n  0x00\n  codecopy\n  0x00\n  return\nstop\n\nsub_0: assembly {\n        /* \"contracts/Staking.sol\":260:10157  contract StakingPlatform is Ownable {... */\n      mstore(0x40, 0x80)\n      callvalue\n      dup1\n      iszero\n      tag_1\n      jumpi\n      0x00\n      dup1\n      revert\n    tag_1:\n      pop\n      jumpi(tag_2, lt(calldatasize, 0x04))\n      shr(0xe0, calldataload(0x00))\n      dup1\n      0x817b1cd2\n      gt\n      tag_32\n      jumpi\n      dup1\n      0xaedf562b\n      gt\n      tag_33\n      jumpi\n      dup1\n      0xf2fde38b\n      gt\n      tag_34\n      jumpi\n      dup1\n      0xf2fde38b\n      eq\n      tag_28\n      jumpi\n      dup1\n      0xf9931855\n      eq\n      tag_29\n      jumpi\n      dup1\n      0xfc0c546a\n      eq\n      tag_30\n      jumpi\n      dup1\n      0xfe600f84\n      eq\n      tag_31\n      jumpi\n      jump(tag_2)\n    tag_34:\n      dup1\n      0xaedf562b\n      eq\n      tag_24\n      jumpi\n      dup1\n      0xc1704a14\n      eq\n      tag_25\n      jumpi\n      dup1\n      0xc665d80e\n      eq\n      tag_26\n      jumpi\n      dup1\n      0xce34751f\n      eq\n      tag_27\n      jumpi\n      jump(tag_2)\n    tag_33:\n      dup1\n      0x91e07e7a\n      gt\n      tag_35\n      jumpi\n      dup1\n      0x91e07e7a\n      eq\n      tag_20\n      jumpi\n      dup1\n      0x9e447fc6\n      eq\n      tag_21\n      jumpi\n      dup1\n      0xa694fc3a\n      eq\n      tag_22\n      jumpi\n      dup1\n      0xae544943\n      eq\n      tag_23\n      jumpi\n      jump(tag_2)\n    tag_35:\n      dup1\n      0x817b1cd2\n      eq\n      tag_17\n      jumpi\n      dup1\n      0x8da5cb5b\n      eq\n      tag_18\n      jumpi\n      dup1\n      0x909f093e\n      eq\n      tag_19\n      jumpi\n      jump(tag_2)\n    tag_32:\n      dup1\n      0x4b62b70b\n      gt\n      tag_36\n      jumpi\n      dup1\n      0x692642e7\n      gt\n      tag_37\n      jumpi\n      dup1\n      0x692642e7\n      eq\n      tag_13\n      jumpi\n      dup1\n      0x6ef32435\n      eq\n      tag_14\n      jumpi\n      dup1\n      0x715018a6\n      eq\n      tag_15\n      jumpi\n      dup1\n      0x7e1a3786\n      eq\n      tag_16\n      jumpi\n      jump(tag_2)\n    tag_37:\n      dup1\n      0x4b62b70b\n      eq\n      tag_10\n      jumpi\n      dup1\n      0x4b77dd9e\n      eq\n      tag_11\n      jumpi\n      dup1\n      0x5715ec11\n      eq\n      tag_12\n      jumpi\n      jump(tag_2)\n    tag_36:\n      dup1\n      0x23b61117\n      gt\n      tag_38\n      jumpi\n      dup1\n      0x23b61117\n      eq\n      tag_6\n      jumpi\n      dup1\n      0x2e1a7d4d\n      eq\n      tag_7\n      jumpi\n      dup1\n      0x4641257d\n      eq\n      tag_8\n      jumpi\n      dup1\n      0x4a4fbeec\n      eq\n      tag_9\n      jumpi\n      jump(tag_2)\n    tag_38:\n      dup1\n      0x0917e776\n      eq\n      tag_3\n      jumpi\n      dup1\n      0x18b2367e\n      eq\n      tag_4\n      jumpi\n      dup1\n      0x221dfe03\n      eq\n      tag_5\n      jumpi\n    tag_2:\n      0x00\n      dup1\n      revert\n        /* \"contracts/Staking.sol\":4219:4314  function getTotalStaked() public view returns (uint256) {... */\n    tag_3:\n      tag_39\n      tag_40\n      jump\t// in\n    tag_39:\n      mload(0x40)\n      tag_41\n      swap2\n      swap1\n      tag_42\n      jump\t// in\n    tag_41:\n      mload(0x40)\n      dup1\n      swap2\n      sub\n      swap1\n      return\n        /* \"contracts/Staking.sol\":5609:5710  function eventPeriod() public view returns (uint256) {... */\n    tag_4:\n      tag_43\n      tag_44\n      jump\t// in\n    tag_43:\n      mload(0x40)\n      tag_45\n      swap2\n      swap1\n      tag_42\n      jump\t// in\n    tag_45:\n      mload(0x40)\n      dup1\n      swap2\n      sub\n      swap1\n      return\n        /* \"contracts/Staking.sol\":5718:5821  function unstakingFeeLate() public view returns (uint256) {... */\n    tag_5:\n      tag_46\n      tag_47\n      jump\t// in\n    tag_46:\n      mload(0x40)\n      tag_48\n      swap2\n      swap1\n      tag_42\n      jump\t// in\n    tag_48:\n      mload(0x40)\n      dup1\n      swap2\n      sub\n      swap1\n      return\n        /* \"contracts/Staking.sol\":8720:8892  function setSilverMinAmount(uint256 _minAmount) external onlyOwner {... */\n    tag_6:\n      tag_49\n      0x04\n      dup1\n      calldatasize\n      sub\n      dup2\n      add\n      swap1\n      tag_50\n      swap2\n      swap1\n      tag_51\n      jump\t// in\n    tag_50:\n      tag_52\n      jump\t// in\n    tag_49:\n      stop\n        /* \"contracts/Staking.sol\":6313:7385  function withdraw(uint256 amount) external{... */\n    tag_7:\n      tag_53\n      0x04\n      dup1\n      calldatasize\n      sub\n      dup2\n      add\n      swap1\n      tag_54\n      swap2\n      swap1\n      tag_51\n      jump\t// in\n    tag_54:\n      tag_55\n      jump\t// in\n    tag_53:\n      stop\n        /* \"contracts/Staking.sol\":9123:9718  function harvest() public{... */\n    tag_8:\n      tag_56\n      tag_57\n      jump\t// in\n    tag_56:\n      stop\n        /* \"contracts/Staking.sol\":4766:5183  function isLocked(address _address) public view returns (uint256) {... */\n    tag_9:\n      tag_58\n      0x04\n      dup1\n      calldatasize\n      sub\n      dup2\n      add\n      swap1\n      tag_59\n      swap2\n      swap1\n      tag_60\n      jump\t// in\n    tag_59:\n      tag_61\n      jump\t// in\n    tag_58:\n      mload(0x40)\n      tag_62\n      swap2\n      swap1\n      tag_42\n      jump\t// in\n    tag_62:\n      mload(0x40)\n      dup1\n      swap2\n      sub\n      swap1\n      return\n        /* \"contracts/Staking.sol\":8158:8336  function setLockupTime(uint256 lockupTime) external onlyOwner {... */\n    tag_10:\n      tag_63\n      0x04\n      dup1\n      calldatasize\n      sub\n      dup2\n      add\n      swap1\n      tag_64\n      swap2\n      swap1\n      tag_51\n      jump\t// in\n    tag_64:\n      tag_65\n      jump\t// in\n    tag_63:\n      stop\n        /* \"contracts/Staking.sol\":2666:3563  function startStaking(uint256 _amount, uint256 _mode) external {... */\n    tag_11:\n      tag_66\n      0x04\n      dup1\n      calldatasize\n      sub\n      dup2\n      add\n      swap1\n      tag_67\n      swap2\n      swap1\n      tag_68\n      jump\t// in\n    tag_67:\n      tag_69\n      jump\t// in\n    tag_66:\n      stop\n        /* \"contracts/Staking.sol\":4322:4425  function getNumberofStakers() public view returns (uint256) {... */\n    tag_12:\n      tag_70\n      tag_71\n      jump\t// in\n    tag_70:\n      mload(0x40)\n      tag_72\n      swap2\n      swap1\n      tag_42\n      jump\t// in\n    tag_72:\n      mload(0x40)\n      dup1\n      swap2\n      sub\n      swap1\n      return\n        /* \"contracts/Staking.sol\":7632:7868  function setEventPeriod(uint256 __eventPeriod) external onlyOwner {... */\n    tag_13:\n      tag_73\n      0x04\n      dup1\n      calldatasize\n      sub\n      dup2\n      add\n      swap1\n      tag_74\n      swap2\n      swap1\n      tag_51\n      jump\t// in\n    tag_74:\n      tag_75\n      jump\t// in\n    tag_73:\n      stop\n        /* \"contracts/Staking.sol\":5880:6266  function rewardToHarvest(address _address) public view returns (uint256){... */\n    tag_14:\n      tag_76\n      0x04\n      dup1\n      calldatasize\n      sub\n      dup2\n      add\n      swap1\n      tag_77\n      swap2\n      swap1\n      tag_60\n      jump\t// in\n    tag_77:\n      tag_78\n      jump\t// in\n    tag_76:\n      mload(0x40)\n      tag_79\n      swap2\n      swap1\n      tag_42\n      jump\t// in\n    tag_79:\n      mload(0x40)\n      dup1\n      swap2\n      sub\n      swap1\n      return\n        /* \"@openzeppelin/contracts/access/Ownable.sol\":1668:1769  function renounceOwnership() public virtual onlyOwner {... */\n    tag_15:\n      tag_80\n      tag_81\n      jump\t// in\n    tag_80:\n      stop\n        /* \"contracts/Staking.sol\":5339:5433  function getRewardRate() public view returns (uint256) {... */\n    tag_16:\n      tag_82\n      tag_83\n      jump\t// in\n    tag_82:\n      mload(0x40)\n      tag_84\n      swap2\n      swap1\n      tag_42\n      jump\t// in\n    tag_84:\n      mload(0x40)\n      dup1\n      swap2\n      sub\n      swap1\n      return\n        /* \"contracts/Staking.sol\":1206:1232  uint256 public totalStaked */\n    tag_17:\n      tag_85\n      tag_86\n      jump\t// in\n    tag_85:\n      mload(0x40)\n      tag_87\n      swap2\n      swap1\n      tag_42\n      jump\t// in\n    tag_87:\n      mload(0x40)\n      dup1\n      swap2\n      sub\n      swap1\n      return\n        /* \"@openzeppelin/contracts/access/Ownable.sol\":1036:1121  function owner() public view virtual returns (address) {... */\n    tag_18:\n      tag_88\n      tag_89\n      jump\t// in\n    tag_88:\n      mload(0x40)\n      tag_90\n      swap2\n      swap1\n      tag_91\n      jump\t// in\n    tag_90:\n      mload(0x40)\n      dup1\n      swap2\n      sub\n      swap1\n      return\n        /* \"contracts/Staking.sol\":9726:10154  function getMinimumStakingAmount(uint256 _mode) public view returns (uint256) {... */\n    tag_19:\n      tag_92\n      0x04\n      dup1\n      calldatasize\n      sub\n      dup2\n      add\n      swap1\n      tag_93\n      swap2\n      swap1\n      tag_51\n      jump\t// in\n    tag_93:\n      tag_94\n      jump\t// in\n    tag_92:\n      mload(0x40)\n      tag_95\n      swap2\n      swap1\n      tag_42\n      jump\t// in\n    tag_95:\n      mload(0x40)\n      dup1\n      swap2\n      sub\n      swap1\n      return\n        /* \"contracts/Staking.sol\":7876:8150  function setUnstakingFeeRate(uint256 __unstakingFeeRate) external onlyOwner {... */\n    tag_20:\n      tag_96\n      0x04\n      dup1\n      calldatasize\n      sub\n      dup2\n      add\n      swap1\n      tag_97\n      swap2\n      swap1\n      tag_51\n      jump\t// in\n    tag_97:\n      tag_98\n      jump\t// in\n    tag_96:\n      stop\n        /* \"contracts/Staking.sol\":7397:7624  function setRewardRate(uint256 __rewardRate) external onlyOwner {... */\n    tag_21:\n      tag_99\n      0x04\n      dup1\n      calldatasize\n      sub\n      dup2\n      add\n      swap1\n      tag_100\n      swap2\n      swap1\n      tag_51\n      jump\t// in\n    tag_100:\n      tag_101\n      jump\t// in\n    tag_99:\n      stop\n        /* \"contracts/Staking.sol\":3631:4211  function stake(uint256 _amount) public{... */\n    tag_22:\n      tag_102\n      0x04\n      dup1\n      calldatasize\n      sub\n      dup2\n      add\n      swap1\n      tag_103\n      swap2\n      swap1\n      tag_51\n      jump\t// in\n    tag_103:\n      tag_104\n      jump\t// in\n    tag_102:\n      stop\n        /* \"contracts/Staking.sol\":8900:9078  function setGoldMinAmount(uint256 _minAmount) external onlyOwner {... */\n    tag_23:\n      tag_105\n      0x04\n      dup1\n      calldatasize\n      sub\n      dup2\n      add\n      swap1\n      tag_106\n      swap2\n      swap1\n      tag_51\n      jump\t// in\n    tag_106:\n      tag_107\n      jump\t// in\n    tag_105:\n      stop\n        /* \"contracts/Staking.sol\":4433:4622  function getStakerMode(address _address) public view returns (uint256) {... */\n    tag_24:\n      tag_108\n      0x04\n      dup1\n      calldatasize\n      sub\n      dup2\n      add\n      swap1\n      tag_109\n      swap2\n      swap1\n      tag_60\n      jump\t// in\n    tag_109:\n      tag_110\n      jump\t// in\n    tag_108:\n      mload(0x40)\n      tag_111\n      swap2\n      swap1\n      tag_42\n      jump\t// in\n    tag_111:\n      mload(0x40)\n      dup1\n      swap2\n      sub\n      swap1\n      return\n        /* \"contracts/Staking.sol\":8540:8712  function setCopperMinAmount(uint256 _minAmount) external onlyOwner {... */\n    tag_25:\n      tag_112\n      0x04\n      dup1\n      calldatasize\n      sub\n      dup2\n      add\n      swap1\n      tag_113\n      swap2\n      swap1\n      tag_51\n      jump\t// in\n    tag_113:\n      tag_114\n      jump\t// in\n    tag_112:\n      stop\n        /* \"contracts/Staking.sol\":8344:8528  function setThreeMonthMinAmount(uint256 _minAmount) external onlyOwner {... */\n    tag_26:\n      tag_115\n      0x04\n      dup1\n      calldatasize\n      sub\n      dup2\n      add\n      swap1\n      tag_116\n      swap2\n      swap1\n      tag_51\n      jump\t// in\n    tag_116:\n      tag_117\n      jump\t// in\n    tag_115:\n      stop\n        /* \"contracts/Staking.sol\":5441:5601  function lockupPeriod(uint256 mode) public view returns (uint256) {... */\n    tag_27:\n      tag_118\n      0x04\n      dup1\n      calldatasize\n      sub\n      dup2\n      add\n      swap1\n      tag_119\n      swap2\n      swap1\n      tag_51\n      jump\t// in\n    tag_119:\n      tag_120\n      jump\t// in\n    tag_118:\n      mload(0x40)\n      tag_121\n      swap2\n      swap1\n      tag_42\n      jump\t// in\n    tag_121:\n      mload(0x40)\n      dup1\n      swap2\n      sub\n      swap1\n      return\n        /* \"@openzeppelin/contracts/access/Ownable.sol\":1918:2116  function transferOwnership(address newOwner) public virtual onlyOwner {... */\n    tag_28:\n      tag_122\n      0x04\n      dup1\n      calldatasize\n      sub\n      dup2\n      add\n      swap1\n      tag_123\n      swap2\n      swap1\n      tag_60\n      jump\t// in\n    tag_123:\n      tag_124\n      jump\t// in\n    tag_122:\n      stop\n        /* \"contracts/Staking.sol\":5195:5331  function stakedAmount(address _address) public view returns (uint256) {... */\n    tag_29:\n      tag_125\n      0x04\n      dup1\n      calldatasize\n      sub\n      dup2\n      add\n      swap1\n      tag_126\n      swap2\n      swap1\n      tag_60\n      jump\t// in\n    tag_126:\n      tag_127\n      jump\t// in\n    tag_125:\n      mload(0x40)\n      tag_128\n      swap2\n      swap1\n      tag_42\n      jump\t// in\n    tag_128:\n      mload(0x40)\n      dup1\n      swap2\n      sub\n      swap1\n      return\n        /* \"contracts/Staking.sol\":1239:1258  IBEP20 public token */\n    tag_30:\n      tag_129\n      tag_130\n      jump\t// in\n    tag_129:\n      mload(0x40)\n      tag_131\n      swap2\n      swap1\n      tag_132\n      jump\t// in\n    tag_131:\n      mload(0x40)\n      dup1\n      swap2\n      sub\n      swap1\n      return\n        /* \"contracts/Staking.sol\":4634:4758  function isStartStaking(address _address) public view returns (uint256) {... */\n    tag_31:\n      tag_133\n      0x04\n      dup1\n      calldatasize\n      sub\n      dup2\n      add\n      swap1\n      tag_134\n      swap2\n      swap1\n      tag_60\n      jump\t// in\n    tag_134:\n      tag_135\n      jump\t// in\n    tag_133:\n      mload(0x40)\n      tag_136\n      swap2\n      swap1\n      tag_42\n      jump\t// in\n    tag_136:\n      mload(0x40)\n      dup1\n      swap2\n      sub\n      swap1\n      return\n        /* \"contracts/Staking.sol\":4219:4314  function getTotalStaked() public view returns (uint256) {... */\n    tag_40:\n        /* \"contracts/Staking.sol\":4266:4273  uint256 */\n      0x00\n        /* \"contracts/Staking.sol\":4295:4306  totalStaked */\n      sload(0x0c)\n        /* \"contracts/Staking.sol\":4288:4306  return totalStaked */\n      swap1\n      pop\n        /* \"contracts/Staking.sol\":4219:4314  function getTotalStaked() public view returns (uint256) {... */\n      swap1\n      jump\t// out\n        /* \"contracts/Staking.sol\":5609:5710  function eventPeriod() public view returns (uint256) {... */\n    tag_44:\n        /* \"contracts/Staking.sol\":5653:5660  uint256 */\n      0x00\n        /* \"contracts/Staking.sol\":5690:5702  _eventPeriod */\n      sload(0x02)\n        /* \"contracts/Staking.sol\":5683:5702  return _eventPeriod */\n      swap1\n      pop\n        /* \"contracts/Staking.sol\":5609:5710  function eventPeriod() public view returns (uint256) {... */\n      swap1\n      jump\t// out\n        /* \"contracts/Staking.sol\":5718:5821  function unstakingFeeLate() public view returns (uint256) {... */\n    tag_47:\n        /* \"contracts/Staking.sol\":5767:5774  uint256 */\n      0x00\n        /* \"contracts/Staking.sol\":5796:5813  _unstakingFeeRate */\n      sload(0x01)\n        /* \"contracts/Staking.sol\":5789:5813  return _unstakingFeeRate */\n      swap1\n      pop\n        /* \"contracts/Staking.sol\":5718:5821  function unstakingFeeLate() public view returns (uint256) {... */\n      swap1\n      jump\t// out\n        /* \"contracts/Staking.sol\":8720:8892  function setSilverMinAmount(uint256 _minAmount) external onlyOwner {... */\n    tag_52:\n        /* \"@openzeppelin/contracts/access/Ownable.sol\":1259:1271  _msgSender() */\n      tag_141\n        /* \"@openzeppelin/contracts/access/Ownable.sol\":1259:1269  _msgSender */\n      tag_142\n        /* \"@openzeppelin/contracts/access/Ownable.sol\":1259:1271  _msgSender() */\n      jump\t// in\n    tag_141:\n        /* \"@openzeppelin/contracts/access/Ownable.sol\":1248:1271  owner() == _msgSender() */\n      0xffffffffffffffffffffffffffffffffffffffff\n      and\n        /* \"@openzeppelin/contracts/access/Ownable.sol\":1248:1255  owner() */\n      tag_143\n        /* \"@openzeppelin/contracts/access/Ownable.sol\":1248:1253  owner */\n      tag_89\n        /* \"@openzeppelin/contracts/access/Ownable.sol\":1248:1255  owner() */\n      jump\t// in\n    tag_143:\n        /* \"@openzeppelin/contracts/access/Ownable.sol\":1248:1271  owner() == _msgSender() */\n      0xffffffffffffffffffffffffffffffffffffffff\n      and\n      eq\n        /* \"@openzeppelin/contracts/access/Ownable.sol\":1240:1308  require(owner() == _msgSender(), \"Ownable: caller is not the owner\") */\n      tag_144\n      jumpi\n      mload(0x40)\n      0x08c379a000000000000000000000000000000000000000000000000000000000\n      dup2\n      mstore\n      0x04\n      add\n      tag_145\n      swap1\n      tag_146\n      jump\t// in\n    tag_145:\n      mload(0x40)\n      dup1\n      swap2\n      sub\n      swap1\n      revert\n    tag_144:\n        /* \"contracts/Staking.sol\":8822:8823  0 */\n      0x00\n        /* \"contracts/Staking.sol\":8809:8819  _minAmount */\n      dup2\n        /* \"contracts/Staking.sol\":8809:8823  _minAmount > 0 */\n      gt\n        /* \"contracts/Staking.sol\":8800:8841  require (_minAmount > 0, \"Can't be zero\") */\n      tag_148\n      jumpi\n      mload(0x40)\n      0x08c379a000000000000000000000000000000000000000000000000000000000\n      dup2\n      mstore\n      0x04\n      add\n      tag_149\n      swap1\n      tag_150\n      jump\t// in\n    tag_149:\n      mload(0x40)\n      dup1\n      swap2\n      sub\n      swap1\n      revert\n    tag_148:\n        /* \"contracts/Staking.sol\":8874:8884  _minAmount */\n      dup1\n        /* \"contracts/Staking.sol\":8854:8871  _minStakeAmount_s */\n      0x08\n        /* \"contracts/Staking.sol\":8854:8884  _minStakeAmount_s = _minAmount */\n      dup2\n      swap1\n      sstore\n      pop\n        /* \"contracts/Staking.sol\":8720:8892  function setSilverMinAmount(uint256 _minAmount) external onlyOwner {... */\n      pop\n      jump\t// out\n        /* \"contracts/Staking.sol\":6313:7385  function withdraw(uint256 amount) external{... */\n    tag_55:\n        /* \"contracts/Staking.sol\":6393:6394  0 */\n      0x00\n        /* \"contracts/Staking.sol\":6384:6390  amount */\n      dup2\n        /* \"contracts/Staking.sol\":6384:6394  amount > 0 */\n      gt\n        /* \"contracts/Staking.sol\":6376:6430  require(amount > 0, \"Amount should be greater than 0\") */\n      tag_152\n      jumpi\n      mload(0x40)\n      0x08c379a000000000000000000000000000000000000000000000000000000000\n      dup2\n      mstore\n      0x04\n      add\n      tag_153\n      swap1\n      tag_154\n      jump\t// in\n    tag_153:\n      mload(0x40)\n      dup1\n      swap2\n      sub\n      swap1\n      revert\n    tag_152:\n        /* \"contracts/Staking.sol\":6459:6466  _staker */\n      0x0b\n        /* \"contracts/Staking.sol\":6459:6478  _staker[msg.sender] */\n      0x00\n        /* \"contracts/Staking.sol\":6467:6477  msg.sender */\n      caller\n        /* \"contracts/Staking.sol\":6459:6478  _staker[msg.sender] */\n      0xffffffffffffffffffffffffffffffffffffffff\n      and\n      0xffffffffffffffffffffffffffffffffffffffff\n      and\n      dup2\n      mstore\n      0x20\n      add\n      swap1\n      dup2\n      mstore\n      0x20\n      add\n      0x00\n      keccak256\n        /* \"contracts/Staking.sol\":6459:6491  _staker[msg.sender].stakedAmount */\n      0x01\n      add\n      sload\n        /* \"contracts/Staking.sol\":6449:6455  amount */\n      dup2\n        /* \"contracts/Staking.sol\":6449:6491  amount <= _staker[msg.sender].stakedAmount */\n      gt\n      iszero\n        /* \"contracts/Staking.sol\":6441:6510  require(amount <= _staker[msg.sender].stakedAmount, \"Invalid amount\") */\n      tag_155\n      jumpi\n      mload(0x40)\n      0x08c379a000000000000000000000000000000000000000000000000000000000\n      dup2\n      mstore\n      0x04\n      add\n      tag_156\n      swap1\n      tag_157\n      jump\t// in\n    tag_156:\n      mload(0x40)\n      dup1\n      swap2\n      sub\n      swap1\n      revert\n    tag_155:\n        /* \"contracts/Staking.sol\":6523:6537  updateReward() */\n      tag_158\n        /* \"contracts/Staking.sol\":6523:6535  updateReward */\n      tag_159\n        /* \"contracts/Staking.sol\":6523:6537  updateReward() */\n      jump\t// in\n    tag_158:\n        /* \"contracts/Staking.sol\":6548:6575  uint256 amountTobeWithdrawn */\n      0x00\n        /* \"contracts/Staking.sol\":6578:6584  amount */\n      dup2\n        /* \"contracts/Staking.sol\":6548:6584  uint256 amountTobeWithdrawn = amount */\n      swap1\n      pop\n        /* \"contracts/Staking.sol\":6595:6609  uint256 during */\n      0x00\n        /* \"contracts/Staking.sol\":6612:6679  block.timestamp.sub(_staker[msg.sender].stakeStartTime).div(1 days) */\n      tag_160\n        /* \"contracts/Staking.sol\":6672:6678  1 days */\n      0x015180\n        /* \"contracts/Staking.sol\":6612:6667  block.timestamp.sub(_staker[msg.sender].stakeStartTime) */\n      tag_161\n        /* \"contracts/Staking.sol\":6632:6639  _staker */\n      0x0b\n        /* \"contracts/Staking.sol\":6632:6651  _staker[msg.sender] */\n      0x00\n        /* \"contracts/Staking.sol\":6640:6650  msg.sender */\n      caller\n        /* \"contracts/Staking.sol\":6632:6651  _staker[msg.sender] */\n      0xffffffffffffffffffffffffffffffffffffffff\n      and\n      0xffffffffffffffffffffffffffffffffffffffff\n      and\n      dup2\n      mstore\n      0x20\n      add\n      swap1\n      dup2\n      mstore\n      0x20\n      add\n      0x00\n      keccak256\n        /* \"contracts/Staking.sol\":6632:6666  _staker[msg.sender].stakeStartTime */\n      0x03\n      add\n      sload\n        /* \"contracts/Staking.sol\":6612:6627  block.timestamp */\n      timestamp\n        /* \"contracts/Staking.sol\":6612:6631  block.timestamp.sub */\n      tag_162\n      swap1\n        /* \"contracts/Staking.sol\":6612:6667  block.timestamp.sub(_staker[msg.sender].stakeStartTime) */\n      swap2\n      swap1\n      0xffffffff\n      and\n      jump\t// in\n    tag_161:\n        /* \"contracts/Staking.sol\":6612:6671  block.timestamp.sub(_staker[msg.sender].stakeStartTime).div */\n      tag_163\n      swap1\n        /* \"contracts/Staking.sol\":6612:6679  block.timestamp.sub(_staker[msg.sender].stakeStartTime).div(1 days) */\n      swap2\n      swap1\n      0xffffffff\n      and\n      jump\t// in\n    tag_160:\n        /* \"contracts/Staking.sol\":6595:6679  uint256 during = block.timestamp.sub(_staker[msg.sender].stakeStartTime).div(1 days) */\n      swap1\n      pop\n        /* \"contracts/Staking.sol\":6690:6701  uint256 fee */\n      0x00\n        /* \"contracts/Staking.sol\":6704:6707  100 */\n      0x64\n        /* \"contracts/Staking.sol\":6690:6707  uint256 fee = 100 */\n      swap1\n      pop\n        /* \"contracts/Staking.sol\":6718:6739  bool isLockupTimeOver */\n      0x00\n        /* \"contracts/Staking.sol\":6770:6771  0 */\n      dup1\n        /* \"contracts/Staking.sol\":6742:6749  _staker */\n      0x0b\n        /* \"contracts/Staking.sol\":6742:6761  _staker[msg.sender] */\n      0x00\n        /* \"contracts/Staking.sol\":6750:6760  msg.sender */\n      caller\n        /* \"contracts/Staking.sol\":6742:6761  _staker[msg.sender] */\n      0xffffffffffffffffffffffffffffffffffffffff\n      and\n      0xffffffffffffffffffffffffffffffffffffffff\n      and\n      dup2\n      mstore\n      0x20\n      add\n      swap1\n      dup2\n      mstore\n      0x20\n      add\n      0x00\n      keccak256\n        /* \"contracts/Staking.sol\":6742:6766  _staker[msg.sender].mode */\n      0x02\n      add\n      sload\n        /* \"contracts/Staking.sol\":6742:6771  _staker[msg.sender].mode != 0 */\n      eq\n      iszero\n        /* \"contracts/Staking.sol\":6742:6914  _staker[msg.sender].mode != 0 ? during % _eventPeriod == 0 && during > 0 :... */\n      tag_164\n      jumpi\n        /* \"contracts/Staking.sol\":6849:6914  _staker[msg.sender].stakeStartTime.add(_lockupPeriod.mul(1 days)) */\n      tag_165\n        /* \"contracts/Staking.sol\":6888:6913  _lockupPeriod.mul(1 days) */\n      tag_166\n        /* \"contracts/Staking.sol\":6906:6912  1 days */\n      0x015180\n        /* \"contracts/Staking.sol\":6888:6901  _lockupPeriod */\n      sload(0x05)\n        /* \"contracts/Staking.sol\":6888:6905  _lockupPeriod.mul */\n      tag_167\n      swap1\n        /* \"contracts/Staking.sol\":6888:6913  _lockupPeriod.mul(1 days) */\n      swap2\n      swap1\n      0xffffffff\n      and\n      jump\t// in\n    tag_166:\n        /* \"contracts/Staking.sol\":6849:6856  _staker */\n      0x0b\n        /* \"contracts/Staking.sol\":6849:6868  _staker[msg.sender] */\n      0x00\n        /* \"contracts/Staking.sol\":6857:6867  msg.sender */\n      caller\n        /* \"contracts/Staking.sol\":6849:6868  _staker[msg.sender] */\n      0xffffffffffffffffffffffffffffffffffffffff\n      and\n      0xffffffffffffffffffffffffffffffffffffffff\n      and\n      dup2\n      mstore\n      0x20\n      add\n      swap1\n      dup2\n      mstore\n      0x20\n      add\n      0x00\n      keccak256\n        /* \"contracts/Staking.sol\":6849:6883  _staker[msg.sender].stakeStartTime */\n      0x03\n      add\n      sload\n        /* \"contracts/Staking.sol\":6849:6887  _staker[msg.sender].stakeStartTime.add */\n      tag_168\n      swap1\n        /* \"contracts/Staking.sol\":6849:6914  _staker[msg.sender].stakeStartTime.add(_lockupPeriod.mul(1 days)) */\n      swap2\n      swap1\n      0xffffffff\n      and\n      jump\t// in\n    tag_165:\n        /* \"contracts/Staking.sol\":6830:6845  block.timestamp */\n      timestamp\n        /* \"contracts/Staking.sol\":6830:6914  block.timestamp >= _staker[msg.sender].stakeStartTime.add(_lockupPeriod.mul(1 days)) */\n      lt\n      iszero\n        /* \"contracts/Staking.sol\":6742:6914  _staker[msg.sender].mode != 0 ? during % _eventPeriod == 0 && during > 0 :... */\n      jump(tag_169)\n    tag_164:\n        /* \"contracts/Staking.sol\":6799:6800  0 */\n      0x00\n        /* \"contracts/Staking.sol\":6783:6795  _eventPeriod */\n      sload(0x02)\n        /* \"contracts/Staking.sol\":6774:6780  during */\n      dup5\n        /* \"contracts/Staking.sol\":6774:6795  during % _eventPeriod */\n      tag_170\n      swap2\n      swap1\n      tag_171\n      jump\t// in\n    tag_170:\n        /* \"contracts/Staking.sol\":6774:6800  during % _eventPeriod == 0 */\n      eq\n        /* \"contracts/Staking.sol\":6774:6814  during % _eventPeriod == 0 && during > 0 */\n      dup1\n      iszero\n      tag_172\n      jumpi\n      pop\n        /* \"contracts/Staking.sol\":6813:6814  0 */\n      0x00\n        /* \"contracts/Staking.sol\":6804:6810  during */\n      dup4\n        /* \"contracts/Staking.sol\":6804:6814  during > 0 */\n      gt\n        /* \"contracts/Staking.sol\":6774:6814  during % _eventPeriod == 0 && during > 0 */\n    tag_172:\n        /* \"contracts/Staking.sol\":6742:6914  _staker[msg.sender].mode != 0 ? during % _eventPeriod == 0 && during > 0 :... */\n    tag_169:\n        /* \"contracts/Staking.sol\":6718:6914  bool isLockupTimeOver = _staker[msg.sender].mode != 0 ? during % _eventPeriod == 0 && during > 0 :... */\n      swap1\n      pop\n        /* \"contracts/Staking.sol\":6930:6946  isLockupTimeOver */\n      dup1\n        /* \"contracts/Staking.sol\":6925:6998  if (!isLockupTimeOver) {... */\n      tag_173\n      jumpi\n        /* \"contracts/Staking.sol\":6969:6986  _unstakingFeeRate */\n      sload(0x01)\n        /* \"contracts/Staking.sol\":6963:6986  fee = _unstakingFeeRate */\n      swap2\n      pop\n        /* \"contracts/Staking.sol\":6925:6998  if (!isLockupTimeOver) {... */\n    tag_173:\n        /* \"contracts/Staking.sol\":7043:7100  _staker[msg.sender].stakedAmount.sub(amountTobeWithdrawn) */\n      tag_174\n        /* \"contracts/Staking.sol\":7080:7099  amountTobeWithdrawn */\n      dup5\n        /* \"contracts/Staking.sol\":7043:7050  _staker */\n      0x0b\n        /* \"contracts/Staking.sol\":7043:7062  _staker[msg.sender] */\n      0x00\n        /* \"contracts/Staking.sol\":7051:7061  msg.sender */\n      caller\n        /* \"contracts/Staking.sol\":7043:7062  _staker[msg.sender] */\n      0xffffffffffffffffffffffffffffffffffffffff\n      and\n      0xffffffffffffffffffffffffffffffffffffffff\n      and\n      dup2\n      mstore\n      0x20\n      add\n      swap1\n      dup2\n      mstore\n      0x20\n      add\n      0x00\n      keccak256\n        /* \"contracts/Staking.sol\":7043:7075  _staker[msg.sender].stakedAmount */\n      0x01\n      add\n      sload\n        /* \"contracts/Staking.sol\":7043:7079  _staker[msg.sender].stakedAmount.sub */\n      tag_162\n      swap1\n        /* \"contracts/Staking.sol\":7043:7100  _staker[msg.sender].stakedAmount.sub(amountTobeWithdrawn) */\n      swap2\n      swap1\n      0xffffffff\n      and\n      jump\t// in\n    tag_174:\n        /* \"contracts/Staking.sol\":7008:7015  _staker */\n      0x0b\n        /* \"contracts/Staking.sol\":7008:7027  _staker[msg.sender] */\n      0x00\n        /* \"contracts/Staking.sol\":7016:7026  msg.sender */\n      caller\n        /* \"contracts/Staking.sol\":7008:7027  _staker[msg.sender] */\n      0xffffffffffffffffffffffffffffffffffffffff\n      and\n      0xffffffffffffffffffffffffffffffffffffffff\n      and\n      dup2\n      mstore\n      0x20\n      add\n      swap1\n      dup2\n      mstore\n      0x20\n      add\n      0x00\n      keccak256\n        /* \"contracts/Staking.sol\":7008:7040  _staker[msg.sender].stakedAmount */\n      0x01\n      add\n        /* \"contracts/Staking.sol\":7008:7100  _staker[msg.sender].stakedAmount = _staker[msg.sender].stakedAmount.sub(amountTobeWithdrawn) */\n      dup2\n      swap1\n      sstore\n      pop\n        /* \"contracts/Staking.sol\":7125:7161  totalStaked.sub(amountTobeWithdrawn) */\n      tag_175\n        /* \"contracts/Staking.sol\":7141:7160  amountTobeWithdrawn */\n      dup5\n        /* \"contracts/Staking.sol\":7125:7136  totalStaked */\n      sload(0x0c)\n        /* \"contracts/Staking.sol\":7125:7140  totalStaked.sub */\n      tag_162\n      swap1\n        /* \"contracts/Staking.sol\":7125:7161  totalStaked.sub(amountTobeWithdrawn) */\n      swap2\n      swap1\n      0xffffffff\n      and\n      jump\t// in\n    tag_175:\n        /* \"contracts/Staking.sol\":7111:7122  totalStaked */\n      0x0c\n        /* \"contracts/Staking.sol\":7111:7161  totalStaked = totalStaked.sub(amountTobeWithdrawn) */\n      dup2\n      swap1\n      sstore\n      pop\n        /* \"contracts/Staking.sol\":7194:7256  amountTobeWithdrawn.sub(amountTobeWithdrawn.mul(fee).div(1e4)) */\n      tag_176\n        /* \"contracts/Staking.sol\":7218:7255  amountTobeWithdrawn.mul(fee).div(1e4) */\n      tag_177\n        /* \"contracts/Staking.sol\":7251:7254  1e4 */\n      0x2710\n        /* \"contracts/Staking.sol\":7218:7246  amountTobeWithdrawn.mul(fee) */\n      tag_178\n        /* \"contracts/Staking.sol\":7242:7245  fee */\n      dup6\n        /* \"contracts/Staking.sol\":7218:7237  amountTobeWithdrawn */\n      dup9\n        /* \"contracts/Staking.sol\":7218:7241  amountTobeWithdrawn.mul */\n      tag_167\n      swap1\n        /* \"contracts/Staking.sol\":7218:7246  amountTobeWithdrawn.mul(fee) */\n      swap2\n      swap1\n      0xffffffff\n      and\n      jump\t// in\n    tag_178:\n        /* \"contracts/Staking.sol\":7218:7250  amountTobeWithdrawn.mul(fee).div */\n      tag_163\n      swap1\n        /* \"contracts/Staking.sol\":7218:7255  amountTobeWithdrawn.mul(fee).div(1e4) */\n      swap2\n      swap1\n      0xffffffff\n      and\n      jump\t// in\n    tag_177:\n        /* \"contracts/Staking.sol\":7194:7213  amountTobeWithdrawn */\n      dup6\n        /* \"contracts/Staking.sol\":7194:7217  amountTobeWithdrawn.sub */\n      tag_162\n      swap1\n        /* \"contracts/Staking.sol\":7194:7256  amountTobeWithdrawn.sub(amountTobeWithdrawn.mul(fee).div(1e4)) */\n      swap2\n      swap1\n      0xffffffff\n      and\n      jump\t// in\n    tag_176:\n        /* \"contracts/Staking.sol\":7172:7256  amountTobeWithdrawn = amountTobeWithdrawn.sub(amountTobeWithdrawn.mul(fee).div(1e4)) */\n      swap4\n      pop\n        /* \"contracts/Staking.sol\":7267:7318  token.safeTransfer(msg.sender, amountTobeWithdrawn) */\n      tag_179\n        /* \"contracts/Staking.sol\":7286:7296  msg.sender */\n      caller\n        /* \"contracts/Staking.sol\":7298:7317  amountTobeWithdrawn */\n      dup6\n        /* \"contracts/Staking.sol\":7267:7272  token */\n      0x0d\n      0x00\n      swap1\n      sload\n      swap1\n      0x0100\n      exp\n      swap1\n      div\n      0xffffffffffffffffffffffffffffffffffffffff\n      and\n        /* \"contracts/Staking.sol\":7267:7285  token.safeTransfer */\n      0xffffffffffffffffffffffffffffffffffffffff\n      and\n      tag_180\n      swap1\n        /* \"contracts/Staking.sol\":7267:7318  token.safeTransfer(msg.sender, amountTobeWithdrawn) */\n      swap3\n      swap2\n      swap1\n      0xffffffff\n      and\n      jump\t// in\n    tag_179:\n        /* \"contracts/Staking.sol\":7336:7377  Withdraw(msg.sender, amountTobeWithdrawn) */\n      0x884edad9ce6fa2440d8a54cc123490eb96d2768479d49ff9c7366125a9424364\n        /* \"contracts/Staking.sol\":7345:7355  msg.sender */\n      caller\n        /* \"contracts/Staking.sol\":7357:7376  amountTobeWithdrawn */\n      dup6\n        /* \"contracts/Staking.sol\":7336:7377  Withdraw(msg.sender, amountTobeWithdrawn) */\n      mload(0x40)\n      tag_181\n      swap3\n      swap2\n      swap1\n      tag_182\n      jump\t// in\n    tag_181:\n      mload(0x40)\n      dup1\n      swap2\n      sub\n      swap1\n      log1\n        /* \"contracts/Staking.sol\":6355:7385  {... */\n      pop\n      pop\n      pop\n      pop\n        /* \"contracts/Staking.sol\":6313:7385  function withdraw(uint256 amount) external{... */\n      pop\n      jump\t// out\n        /* \"contracts/Staking.sol\":9123:9718  function harvest() public{... */\n    tag_57:\n        /* \"contracts/Staking.sol\":9169:9183  updateReward() */\n      tag_184\n        /* \"contracts/Staking.sol\":9169:9181  updateReward */\n      tag_159\n        /* \"contracts/Staking.sol\":9169:9183  updateReward() */\n      jump\t// in\n    tag_184:\n        /* \"contracts/Staking.sol\":9204:9221  uint256 curReward */\n      0x00\n        /* \"contracts/Staking.sol\":9224:9231  _staker */\n      0x0b\n        /* \"contracts/Staking.sol\":9224:9243  _staker[msg.sender] */\n      0x00\n        /* \"contracts/Staking.sol\":9232:9242  msg.sender */\n      caller\n        /* \"contracts/Staking.sol\":9224:9243  _staker[msg.sender] */\n      0xffffffffffffffffffffffffffffffffffffffff\n      and\n      0xffffffffffffffffffffffffffffffffffffffff\n      and\n      dup2\n      mstore\n      0x20\n      add\n      swap1\n      dup2\n      mstore\n      0x20\n      add\n      0x00\n      keccak256\n        /* \"contracts/Staking.sol\":9224:9263  _staker[msg.sender].stakerCurrentReward */\n      0x00\n      add\n      sload\n        /* \"contracts/Staking.sol\":9204:9263  uint256 curReward = _staker[msg.sender].stakerCurrentReward */\n      swap1\n      pop\n        /* \"contracts/Staking.sol\":9274:9295  uint256 rewardToClaim */\n      0x00\n        /* \"contracts/Staking.sol\":9298:9351  curReward.sub(curReward.mul(_rewardFeeRate).div(1e4)) */\n      tag_185\n        /* \"contracts/Staking.sol\":9312:9350  curReward.mul(_rewardFeeRate).div(1e4) */\n      tag_186\n        /* \"contracts/Staking.sol\":9346:9349  1e4 */\n      0x2710\n        /* \"contracts/Staking.sol\":9312:9341  curReward.mul(_rewardFeeRate) */\n      tag_187\n        /* \"contracts/Staking.sol\":9326:9340  _rewardFeeRate */\n      sload(0x04)\n        /* \"contracts/Staking.sol\":9312:9321  curReward */\n      dup7\n        /* \"contracts/Staking.sol\":9312:9325  curReward.mul */\n      tag_167\n      swap1\n        /* \"contracts/Staking.sol\":9312:9341  curReward.mul(_rewardFeeRate) */\n      swap2\n      swap1\n      0xffffffff\n      and\n      jump\t// in\n    tag_187:\n        /* \"contracts/Staking.sol\":9312:9345  curReward.mul(_rewardFeeRate).div */\n      tag_163\n      swap1\n        /* \"contracts/Staking.sol\":9312:9350  curReward.mul(_rewardFeeRate).div(1e4) */\n      swap2\n      swap1\n      0xffffffff\n      and\n      jump\t// in\n    tag_186:\n        /* \"contracts/Staking.sol\":9298:9307  curReward */\n      dup4\n        /* \"contracts/Staking.sol\":9298:9311  curReward.sub */\n      tag_162\n      swap1\n        /* \"contracts/Staking.sol\":9298:9351  curReward.sub(curReward.mul(_rewardFeeRate).div(1e4)) */\n      swap2\n      swap1\n      0xffffffff\n      and\n      jump\t// in\n    tag_185:\n        /* \"contracts/Staking.sol\":9274:9351  uint256 rewardToClaim = curReward.sub(curReward.mul(_rewardFeeRate).div(1e4)) */\n      swap1\n      pop\n        /* \"contracts/Staking.sol\":9396:9397  0 */\n      0x00\n        /* \"contracts/Staking.sol\":9380:9393  rewardToClaim */\n      dup2\n        /* \"contracts/Staking.sol\":9380:9397  rewardToClaim > 0 */\n      gt\n        /* \"contracts/Staking.sol\":9372:9418  require(rewardToClaim > 0, \"Nothing to claim\") */\n      tag_188\n      jumpi\n      mload(0x40)\n      0x08c379a000000000000000000000000000000000000000000000000000000000\n      dup2\n      mstore\n      0x04\n      add\n      tag_189\n      swap1\n      tag_190\n      jump\t// in\n    tag_189:\n      mload(0x40)\n      dup1\n      swap2\n      sub\n      swap1\n      revert\n    tag_188:\n        /* \"contracts/Staking.sol\":9449:9454  token */\n      0x0d\n      0x00\n      swap1\n      sload\n      swap1\n      0x0100\n      exp\n      swap1\n      div\n      0xffffffffffffffffffffffffffffffffffffffff\n      and\n        /* \"contracts/Staking.sol\":9449:9464  token.balanceOf */\n      0xffffffffffffffffffffffffffffffffffffffff\n      and\n      0x70a08231\n        /* \"contracts/Staking.sol\":9473:9477  this */\n      address\n        /* \"contracts/Staking.sol\":9449:9479  token.balanceOf(address(this)) */\n      mload(0x40)\n      dup3\n      0xffffffff\n      and\n      0xe0\n      shl\n      dup2\n      mstore\n      0x04\n      add\n      tag_191\n      swap2\n      swap1\n      tag_91\n      jump\t// in\n    tag_191:\n      0x20\n      mload(0x40)\n      dup1\n      dup4\n      sub\n      dup2\n      dup7\n      dup1\n      extcodesize\n      iszero\n      dup1\n      iszero\n      tag_192\n      jumpi\n      0x00\n      dup1\n      revert\n    tag_192:\n      pop\n      gas\n      staticcall\n      iszero\n      dup1\n      iszero\n      tag_194\n      jumpi\n      returndatasize\n      0x00\n      dup1\n      returndatacopy\n      revert(0x00, returndatasize)\n    tag_194:\n      pop\n      pop\n      pop\n      pop\n      mload(0x40)\n      returndatasize\n      not(0x1f)\n      0x1f\n      dup3\n      add\n      and\n      dup3\n      add\n      dup1\n      0x40\n      mstore\n      pop\n      dup2\n      add\n      swap1\n      tag_195\n      swap2\n      swap1\n      tag_196\n      jump\t// in\n    tag_195:\n        /* \"contracts/Staking.sol\":9433:9446  rewardToClaim */\n      dup2\n        /* \"contracts/Staking.sol\":9433:9479  rewardToClaim > token.balanceOf(address(this)) */\n      gt\n        /* \"contracts/Staking.sol\":9429:9540  if (rewardToClaim > token.balanceOf(address(this)))... */\n      iszero\n      tag_197\n      jumpi\n        /* \"contracts/Staking.sol\":9510:9515  token */\n      0x0d\n      0x00\n      swap1\n      sload\n      swap1\n      0x0100\n      exp\n      swap1\n      div\n      0xffffffffffffffffffffffffffffffffffffffff\n      and\n        /* \"contracts/Staking.sol\":9510:9525  token.balanceOf */\n      0xffffffffffffffffffffffffffffffffffffffff\n      and\n      0x70a08231\n        /* \"contracts/Staking.sol\":9534:9538  this */\n      address\n        /* \"contracts/Staking.sol\":9510:9540  token.balanceOf(address(this)) */\n      mload(0x40)\n      dup3\n      0xffffffff\n      and\n      0xe0\n      shl\n      dup2\n      mstore\n      0x04\n      add\n      tag_198\n      swap2\n      swap1\n      tag_91\n      jump\t// in\n    tag_198:\n      0x20\n      mload(0x40)\n      dup1\n      dup4\n      sub\n      dup2\n      dup7\n      dup1\n      extcodesize\n      iszero\n      dup1\n      iszero\n      tag_199\n      jumpi\n      0x00\n      dup1\n      revert\n    tag_199:\n      pop\n      gas\n      staticcall\n      iszero\n      dup1\n      iszero\n      tag_201\n      jumpi\n      returndatasize\n      0x00\n      dup1\n      returndatacopy\n      revert(0x00, returndatasize)\n    tag_201:\n      pop\n      pop\n      pop\n      pop\n      mload(0x40)\n      returndatasize\n      not(0x1f)\n      0x1f\n      dup3\n      add\n      and\n      dup3\n      add\n      dup1\n      0x40\n      mstore\n      pop\n      dup2\n      add\n      swap1\n      tag_202\n      swap2\n      swap1\n      tag_196\n      jump\t// in\n    tag_202:\n        /* \"contracts/Staking.sol\":9494:9540  rewardToClaim = token.balanceOf(address(this)) */\n      swap1\n      pop\n        /* \"contracts/Staking.sol\":9429:9540  if (rewardToClaim > token.balanceOf(address(this)))... */\n    tag_197:\n        /* \"contracts/Staking.sol\":9551:9596  token.safeTransfer(msg.sender, rewardToClaim) */\n      tag_203\n        /* \"contracts/Staking.sol\":9570:9580  msg.sender */\n      caller\n        /* \"contracts/Staking.sol\":9582:9595  rewardToClaim */\n      dup3\n        /* \"contracts/Staking.sol\":9551:9556  token */\n      0x0d\n      0x00\n      swap1\n      sload\n      swap1\n      0x0100\n      exp\n      swap1\n      div\n      0xffffffffffffffffffffffffffffffffffffffff\n      and\n        /* \"contracts/Staking.sol\":9551:9569  token.safeTransfer */\n      0xffffffffffffffffffffffffffffffffffffffff\n      and\n      tag_180\n      swap1\n        /* \"contracts/Staking.sol\":9551:9596  token.safeTransfer(msg.sender, rewardToClaim) */\n      swap3\n      swap2\n      swap1\n      0xffffffff\n      and\n      jump\t// in\n    tag_203:\n        /* \"contracts/Staking.sol\":9649:9650  0 */\n      0x00\n        /* \"contracts/Staking.sol\":9607:9614  _staker */\n      0x0b\n        /* \"contracts/Staking.sol\":9607:9626  _staker[msg.sender] */\n      0x00\n        /* \"contracts/Staking.sol\":9615:9625  msg.sender */\n      caller\n        /* \"contracts/Staking.sol\":9607:9626  _staker[msg.sender] */\n      0xffffffffffffffffffffffffffffffffffffffff\n      and\n      0xffffffffffffffffffffffffffffffffffffffff\n      and\n      dup2\n      mstore\n      0x20\n      add\n      swap1\n      dup2\n      mstore\n      0x20\n      add\n      0x00\n      keccak256\n        /* \"contracts/Staking.sol\":9607:9646  _staker[msg.sender].stakerCurrentReward */\n      0x00\n      add\n        /* \"contracts/Staking.sol\":9607:9650  _staker[msg.sender].stakerCurrentReward = 0 */\n      dup2\n      swap1\n      sstore\n      pop\n        /* \"contracts/Staking.sol\":9676:9710  Harvest(msg.sender, rewardToClaim) */\n      0xc9695243a805adb74c91f28311176c65b417e842d5699893cef56d18bfa48cba\n        /* \"contracts/Staking.sol\":9684:9694  msg.sender */\n      caller\n        /* \"contracts/Staking.sol\":9696:9709  rewardToClaim */\n      dup3\n        /* \"contracts/Staking.sol\":9676:9710  Harvest(msg.sender, rewardToClaim) */\n      mload(0x40)\n      tag_204\n      swap3\n      swap2\n      swap1\n      tag_182\n      jump\t// in\n    tag_204:\n      mload(0x40)\n      dup1\n      swap2\n      sub\n      swap1\n      log1\n        /* \"contracts/Staking.sol\":9148:9718  {... */\n      pop\n      pop\n        /* \"contracts/Staking.sol\":9123:9718  function harvest() public{... */\n      jump\t// out\n        /* \"contracts/Staking.sol\":4766:5183  function isLocked(address _address) public view returns (uint256) {... */\n    tag_61:\n        /* \"contracts/Staking.sol\":4823:4830  uint256 */\n      0x00\n        /* \"contracts/Staking.sol\":4877:4879  55 */\n      0x37\n        /* \"contracts/Staking.sol\":4849:4856  _staker */\n      0x0b\n        /* \"contracts/Staking.sol\":4849:4866  _staker[_address] */\n      0x00\n        /* \"contracts/Staking.sol\":4857:4865  _address */\n      dup5\n        /* \"contracts/Staking.sol\":4849:4866  _staker[_address] */\n      0xffffffffffffffffffffffffffffffffffffffff\n      and\n      0xffffffffffffffffffffffffffffffffffffffff\n      and\n      dup2\n      mstore\n      0x20\n      add\n      swap1\n      dup2\n      mstore\n      0x20\n      add\n      0x00\n      keccak256\n        /* \"contracts/Staking.sol\":4849:4873  _staker[_address].staked */\n      0x05\n      add\n      sload\n        /* \"contracts/Staking.sol\":4849:4879  _staker[_address].staked != 55 */\n      eq\n        /* \"contracts/Staking.sol\":4845:4902  if (_staker[_address].staked != 55)... */\n      tag_206\n      jumpi\n        /* \"contracts/Staking.sol\":4901:4902  0 */\n      0x00\n        /* \"contracts/Staking.sol\":4894:4902  return 0 */\n      swap1\n      pop\n      jump(tag_205)\n        /* \"contracts/Staking.sol\":4845:4902  if (_staker[_address].staked != 55)... */\n    tag_206:\n        /* \"contracts/Staking.sol\":4943:4944  0 */\n      0x00\n        /* \"contracts/Staking.sol\":4917:4924  _staker */\n      0x0b\n        /* \"contracts/Staking.sol\":4917:4934  _staker[_address] */\n      0x00\n        /* \"contracts/Staking.sol\":4925:4933  _address */\n      dup5\n        /* \"contracts/Staking.sol\":4917:4934  _staker[_address] */\n      0xffffffffffffffffffffffffffffffffffffffff\n      and\n      0xffffffffffffffffffffffffffffffffffffffff\n      and\n      dup2\n      mstore\n      0x20\n      add\n      swap1\n      dup2\n      mstore\n      0x20\n      add\n      0x00\n      keccak256\n        /* \"contracts/Staking.sol\":4917:4939  _staker[_address].mode */\n      0x02\n      add\n      sload\n        /* \"contracts/Staking.sol\":4917:4944  _staker[_address].mode != 0 */\n      eq\n        /* \"contracts/Staking.sol\":4913:5175  if (_staker[_address].mode != 0)... */\n      tag_207\n      jumpi\n        /* \"contracts/Staking.sol\":5039:5040  0 */\n      0x00\n        /* \"contracts/Staking.sol\":5034:5035  7 */\n      0x07\n        /* \"contracts/Staking.sol\":4966:5031  block.timestamp.sub(_staker[_address].stakeStartTime).div(1 days) */\n      tag_208\n        /* \"contracts/Staking.sol\":5024:5030  1 days */\n      0x015180\n        /* \"contracts/Staking.sol\":4966:5019  block.timestamp.sub(_staker[_address].stakeStartTime) */\n      tag_209\n        /* \"contracts/Staking.sol\":4986:4993  _staker */\n      0x0b\n        /* \"contracts/Staking.sol\":4986:5003  _staker[_address] */\n      0x00\n        /* \"contracts/Staking.sol\":4994:5002  _address */\n      dup9\n        /* \"contracts/Staking.sol\":4986:5003  _staker[_address] */\n      0xffffffffffffffffffffffffffffffffffffffff\n      and\n      0xffffffffffffffffffffffffffffffffffffffff\n      and\n      dup2\n      mstore\n      0x20\n      add\n      swap1\n      dup2\n      mstore\n      0x20\n      add\n      0x00\n      keccak256\n        /* \"contracts/Staking.sol\":4986:5018  _staker[_address].stakeStartTime */\n      0x03\n      add\n      sload\n        /* \"contracts/Staking.sol\":4966:4981  block.timestamp */\n      timestamp\n        /* \"contracts/Staking.sol\":4966:4985  block.timestamp.sub */\n      tag_162\n      swap1\n        /* \"contracts/Staking.sol\":4966:5019  block.timestamp.sub(_staker[_address].stakeStartTime) */\n      swap2\n      swap1\n      0xffffffff\n      and\n      jump\t// in\n    tag_209:\n        /* \"contracts/Staking.sol\":4966:5023  block.timestamp.sub(_staker[_address].stakeStartTime).div */\n      tag_163\n      swap1\n        /* \"contracts/Staking.sol\":4966:5031  block.timestamp.sub(_staker[_address].stakeStartTime).div(1 days) */\n      swap2\n      swap1\n      0xffffffff\n      and\n      jump\t// in\n    tag_208:\n        /* \"contracts/Staking.sol\":4966:5035  block.timestamp.sub(_staker[_address].stakeStartTime).div(1 days) % 7 */\n      tag_210\n      swap2\n      swap1\n      tag_171\n      jump\t// in\n    tag_210:\n        /* \"contracts/Staking.sol\":4966:5040  block.timestamp.sub(_staker[_address].stakeStartTime).div(1 days) % 7 == 0 */\n      eq\n        /* \"contracts/Staking.sol\":4966:5048  block.timestamp.sub(_staker[_address].stakeStartTime).div(1 days) % 7 == 0 ? 0 : 1 */\n      tag_211\n      jumpi\n        /* \"contracts/Staking.sol\":5047:5048  1 */\n      0x01\n        /* \"contracts/Staking.sol\":4966:5048  block.timestamp.sub(_staker[_address].stakeStartTime).div(1 days) % 7 == 0 ? 0 : 1 */\n      jump(tag_212)\n    tag_211:\n        /* \"contracts/Staking.sol\":5043:5044  0 */\n      0x00\n        /* \"contracts/Staking.sol\":4966:5048  block.timestamp.sub(_staker[_address].stakeStartTime).div(1 days) % 7 == 0 ? 0 : 1 */\n    tag_212:\n        /* \"contracts/Staking.sol\":4959:5048  return block.timestamp.sub(_staker[_address].stakeStartTime).div(1 days) % 7 == 0 ? 0 : 1 */\n      0xff\n      and\n      swap1\n      pop\n      jump(tag_205)\n        /* \"contracts/Staking.sol\":4913:5175  if (_staker[_address].mode != 0)... */\n    tag_207:\n        /* \"contracts/Staking.sol\":5142:5167  _lockupPeriod.mul(1 days) */\n      tag_214\n        /* \"contracts/Staking.sol\":5160:5166  1 days */\n      0x015180\n        /* \"contracts/Staking.sol\":5142:5155  _lockupPeriod */\n      sload(0x05)\n        /* \"contracts/Staking.sol\":5142:5159  _lockupPeriod.mul */\n      tag_167\n      swap1\n        /* \"contracts/Staking.sol\":5142:5167  _lockupPeriod.mul(1 days) */\n      swap2\n      swap1\n      0xffffffff\n      and\n      jump\t// in\n    tag_214:\n        /* \"contracts/Staking.sol\":5085:5138  block.timestamp.sub(_staker[_address].stakeStartTime) */\n      tag_215\n        /* \"contracts/Staking.sol\":5105:5112  _staker */\n      0x0b\n        /* \"contracts/Staking.sol\":5105:5122  _staker[_address] */\n      0x00\n        /* \"contracts/Staking.sol\":5113:5121  _address */\n      dup6\n        /* \"contracts/Staking.sol\":5105:5122  _staker[_address] */\n      0xffffffffffffffffffffffffffffffffffffffff\n      and\n      0xffffffffffffffffffffffffffffffffffffffff\n      and\n      dup2\n      mstore\n      0x20\n      add\n      swap1\n      dup2\n      mstore\n      0x20\n      add\n      0x00\n      keccak256\n        /* \"contracts/Staking.sol\":5105:5137  _staker[_address].stakeStartTime */\n      0x03\n      add\n      sload\n        /* \"contracts/Staking.sol\":5085:5100  block.timestamp */\n      timestamp\n        /* \"contracts/Staking.sol\":5085:5104  block.timestamp.sub */\n      tag_162\n      swap1\n        /* \"contracts/Staking.sol\":5085:5138  block.timestamp.sub(_staker[_address].stakeStartTime) */\n      swap2\n      swap1\n      0xffffffff\n      and\n      jump\t// in\n    tag_215:\n        /* \"contracts/Staking.sol\":5085:5167  block.timestamp.sub(_staker[_address].stakeStartTime) >= _lockupPeriod.mul(1 days) */\n      lt\n      iszero\n        /* \"contracts/Staking.sol\":5085:5175  block.timestamp.sub(_staker[_address].stakeStartTime) >= _lockupPeriod.mul(1 days) ? 0 : 1 */\n      tag_216\n      jumpi\n        /* \"contracts/Staking.sol\":5174:5175  1 */\n      0x01\n        /* \"contracts/Staking.sol\":5085:5175  block.timestamp.sub(_staker[_address].stakeStartTime) >= _lockupPeriod.mul(1 days) ? 0 : 1 */\n      jump(tag_217)\n    tag_216:\n        /* \"contracts/Staking.sol\":5170:5171  0 */\n      0x00\n        /* \"contracts/Staking.sol\":5085:5175  block.timestamp.sub(_staker[_address].stakeStartTime) >= _lockupPeriod.mul(1 days) ? 0 : 1 */\n    tag_217:\n        /* \"contracts/Staking.sol\":5078:5175  return block.timestamp.sub(_staker[_address].stakeStartTime) >= _lockupPeriod.mul(1 days) ? 0 : 1 */\n      0xff\n      and\n      swap1\n      pop\n        /* \"contracts/Staking.sol\":4766:5183  function isLocked(address _address) public view returns (uint256) {... */\n    tag_205:\n      swap2\n      swap1\n      pop\n      jump\t// out\n        /* \"contracts/Staking.sol\":8158:8336  function setLockupTime(uint256 lockupTime) external onlyOwner {... */\n    tag_65:\n        /* \"@openzeppelin/contracts/access/Ownable.sol\":1259:1271  _msgSender() */\n      tag_219\n        /* \"@openzeppelin/contracts/access/Ownable.sol\":1259:1269  _msgSender */\n      tag_142\n        /* \"@openzeppelin/contracts/access/Ownable.sol\":1259:1271  _msgSender() */\n      jump\t// in\n    tag_219:\n        /* \"@openzeppelin/contracts/access/Ownable.sol\":1248:1271  owner() == _msgSender() */\n      0xffffffffffffffffffffffffffffffffffffffff\n      and\n        /* \"@openzeppelin/contracts/access/Ownable.sol\":1248:1255  owner() */\n      tag_220\n        /* \"@openzeppelin/contracts/access/Ownable.sol\":1248:1253  owner */\n      tag_89\n        /* \"@openzeppelin/contracts/access/Ownable.sol\":1248:1255  owner() */\n      jump\t// in\n    tag_220:\n        /* \"@openzeppelin/contracts/access/Ownable.sol\":1248:1271  owner() == _msgSender() */\n      0xffffffffffffffffffffffffffffffffffffffff\n      and\n      eq\n        /* \"@openzeppelin/contracts/access/Ownable.sol\":1240:1308  require(owner() == _msgSender(), \"Ownable: caller is not the owner\") */\n      tag_221\n      jumpi\n      mload(0x40)\n      0x08c379a000000000000000000000000000000000000000000000000000000000\n      dup2\n      mstore\n      0x04\n      add\n      tag_222\n      swap1\n      tag_146\n      jump\t// in\n    tag_222:\n      mload(0x40)\n      dup1\n      swap2\n      sub\n      swap1\n      revert\n    tag_221:\n        /* \"contracts/Staking.sol\":8262:8263  0 */\n      0x00\n        /* \"contracts/Staking.sol\":8249:8259  lockupTime */\n      dup2\n        /* \"contracts/Staking.sol\":8249:8263  lockupTime > 0 */\n      gt\n        /* \"contracts/Staking.sol\":8241:8281  require(lockupTime > 0, \"Can't be zero\") */\n      tag_224\n      jumpi\n      mload(0x40)\n      0x08c379a000000000000000000000000000000000000000000000000000000000\n      dup2\n      mstore\n      0x04\n      add\n      tag_225\n      swap1\n      tag_150\n      jump\t// in\n    tag_225:\n      mload(0x40)\n      dup1\n      swap2\n      sub\n      swap1\n      revert\n    tag_224:\n        /* \"contracts/Staking.sol\":8318:8328  lockupTime */\n      dup1\n        /* \"contracts/Staking.sol\":8302:8315  _lockupPeriod */\n      0x05\n        /* \"contracts/Staking.sol\":8302:8328  _lockupPeriod = lockupTime */\n      dup2\n      swap1\n      sstore\n      pop\n        /* \"contracts/Staking.sol\":8158:8336  function setLockupTime(uint256 lockupTime) external onlyOwner {... */\n      pop\n      jump\t// out\n        /* \"contracts/Staking.sol\":2666:3563  function startStaking(uint256 _amount, uint256 _mode) external {... */\n    tag_69:\n        /* \"contracts/Staking.sol\":2768:2769  0 */\n      0x00\n        /* \"contracts/Staking.sol\":2758:2765  _amount */\n      dup3\n        /* \"contracts/Staking.sol\":2758:2769  _amount > 0 */\n      gt\n        /* \"contracts/Staking.sol\":2750:2805  require(_amount > 0, \"Amount should be greater than 0\") */\n      tag_227\n      jumpi\n      mload(0x40)\n      0x08c379a000000000000000000000000000000000000000000000000000000000\n      dup2\n      mstore\n      0x04\n      add\n      tag_228\n      swap1\n      tag_154\n      jump\t// in\n    tag_228:\n      mload(0x40)\n      dup1\n      swap2\n      sub\n      swap1\n      revert\n    tag_227:\n        /* \"contracts/Staking.sol\":2854:2861  _amount */\n      dup2\n        /* \"contracts/Staking.sol\":2824:2829  token */\n      0x0d\n      0x00\n      swap1\n      sload\n      swap1\n      0x0100\n      exp\n      swap1\n      div\n      0xffffffffffffffffffffffffffffffffffffffff\n      and\n        /* \"contracts/Staking.sol\":2824:2839  token.balanceOf */\n      0xffffffffffffffffffffffffffffffffffffffff\n      and\n      0x70a08231\n        /* \"contracts/Staking.sol\":2840:2850  msg.sender */\n      caller\n        /* \"contracts/Staking.sol\":2824:2851  token.balanceOf(msg.sender) */\n      mload(0x40)\n      dup3\n      0xffffffff\n      and\n      0xe0\n      shl\n      dup2\n      mstore\n      0x04\n      add\n      tag_229\n      swap2\n      swap1\n      tag_91\n      jump\t// in\n    tag_229:\n      0x20\n      mload(0x40)\n      dup1\n      dup4\n      sub\n      dup2\n      dup7\n      dup1\n      extcodesize\n      iszero\n      dup1\n      iszero\n      tag_230\n      jumpi\n      0x00\n      dup1\n      revert\n    tag_230:\n      pop\n      gas\n      staticcall\n      iszero\n      dup1\n      iszero\n      tag_232\n      jumpi\n      returndatasize\n      0x00\n      dup1\n      returndatacopy\n      revert(0x00, returndatasize)\n    tag_232:\n      pop\n      pop\n      pop\n      pop\n      mload(0x40)\n      returndatasize\n      not(0x1f)\n      0x1f\n      dup3\n      add\n      and\n      dup3\n      add\n      dup1\n      0x40\n      mstore\n      pop\n      dup2\n      add\n      swap1\n      tag_233\n      swap2\n      swap1\n      tag_196\n      jump\t// in\n    tag_233:\n        /* \"contracts/Staking.sol\":2824:2861  token.balanceOf(msg.sender) > _amount */\n      gt\n        /* \"contracts/Staking.sol\":2816:2879  require(token.balanceOf(msg.sender) > _amount, \"Insufficient!\") */\n      tag_234\n      jumpi\n      mload(0x40)\n      0x08c379a000000000000000000000000000000000000000000000000000000000\n      dup2\n      mstore\n      0x04\n      add\n      tag_235\n      swap1\n      tag_236\n      jump\t// in\n    tag_235:\n      mload(0x40)\n      dup1\n      swap2\n      sub\n      swap1\n      revert\n    tag_234:\n        /* \"contracts/Staking.sol\":2922:2923  0 */\n      0x00\n        /* \"contracts/Staking.sol\":2898:2918  isLocked(msg.sender) */\n      tag_237\n        /* \"contracts/Staking.sol\":2907:2917  msg.sender */\n      caller\n        /* \"contracts/Staking.sol\":2898:2906  isLocked */\n      tag_61\n        /* \"contracts/Staking.sol\":2898:2918  isLocked(msg.sender) */\n      jump\t// in\n    tag_237:\n        /* \"contracts/Staking.sol\":2898:2923  isLocked(msg.sender) == 0 */\n      eq\n        /* \"contracts/Staking.sol\":2890:2939  require(isLocked(msg.sender) == 0, \"Can't start\") */\n      tag_238\n      jumpi\n      mload(0x40)\n      0x08c379a000000000000000000000000000000000000000000000000000000000\n      dup2\n      mstore\n      0x04\n      add\n      tag_239\n      swap1\n      tag_240\n      jump\t// in\n    tag_239:\n      mload(0x40)\n      dup1\n      swap2\n      sub\n      swap1\n      revert\n    tag_238:\n        /* \"contracts/Staking.sol\":2973:2974  0 */\n      0x00\n        /* \"contracts/Staking.sol\":2964:2969  _mode */\n      dup2\n        /* \"contracts/Staking.sol\":2964:2974  _mode == 0 */\n      eq\n        /* \"contracts/Staking.sol\":2960:3336  if (_mode == 0) require(_amount >= _minStakeAmount_m, \"Insufficient\");... */\n      iszero\n      tag_241\n      jumpi\n        /* \"contracts/Staking.sol\":2995:3012  _minStakeAmount_m */\n      sload(0x06)\n        /* \"contracts/Staking.sol\":2984:2991  _amount */\n      dup3\n        /* \"contracts/Staking.sol\":2984:3012  _amount >= _minStakeAmount_m */\n      lt\n      iszero\n        /* \"contracts/Staking.sol\":2976:3029  require(_amount >= _minStakeAmount_m, \"Insufficient\") */\n      tag_242\n      jumpi\n      mload(0x40)\n      0x08c379a000000000000000000000000000000000000000000000000000000000\n      dup2\n      mstore\n      0x04\n      add\n      tag_243\n      swap1\n      tag_244\n      jump\t// in\n    tag_243:\n      mload(0x40)\n      dup1\n      swap2\n      sub\n      swap1\n      revert\n    tag_242:\n        /* \"contracts/Staking.sol\":2960:3336  if (_mode == 0) require(_amount >= _minStakeAmount_m, \"Insufficient\");... */\n      jump(tag_245)\n    tag_241:\n        /* \"contracts/Staking.sol\":3058:3059  1 */\n      0x01\n        /* \"contracts/Staking.sol\":3049:3054  _mode */\n      dup2\n        /* \"contracts/Staking.sol\":3049:3059  _mode == 1 */\n      eq\n        /* \"contracts/Staking.sol\":3045:3336  if (_mode == 1) require(_amount >= _minStakeAmount_c, \"Insufficient\");... */\n      iszero\n      tag_246\n      jumpi\n        /* \"contracts/Staking.sol\":3080:3097  _minStakeAmount_c */\n      sload(0x09)\n        /* \"contracts/Staking.sol\":3069:3076  _amount */\n      dup3\n        /* \"contracts/Staking.sol\":3069:3097  _amount >= _minStakeAmount_c */\n      lt\n      iszero\n        /* \"contracts/Staking.sol\":3061:3114  require(_amount >= _minStakeAmount_c, \"Insufficient\") */\n      tag_247\n      jumpi\n      mload(0x40)\n      0x08c379a000000000000000000000000000000000000000000000000000000000\n      dup2\n      mstore\n      0x04\n      add\n      tag_248\n      swap1\n      tag_244\n      jump\t// in\n    tag_248:\n      mload(0x40)\n      dup1\n      swap2\n      sub\n      swap1\n      revert\n    tag_247:\n        /* \"contracts/Staking.sol\":3045:3336  if (_mode == 1) require(_amount >= _minStakeAmount_c, \"Insufficient\");... */\n      jump(tag_249)\n    tag_246:\n        /* \"contracts/Staking.sol\":3143:3144  2 */\n      0x02\n        /* \"contracts/Staking.sol\":3134:3139  _mode */\n      dup2\n        /* \"contracts/Staking.sol\":3134:3144  _mode == 2 */\n      eq\n        /* \"contracts/Staking.sol\":3130:3336  if (_mode == 2) require(_amount >= _minStakeAmount_s, \"Insufficient\");... */\n      iszero\n      tag_250\n      jumpi\n        /* \"contracts/Staking.sol\":3165:3182  _minStakeAmount_s */\n      sload(0x08)\n        /* \"contracts/Staking.sol\":3154:3161  _amount */\n      dup3\n        /* \"contracts/Staking.sol\":3154:3182  _amount >= _minStakeAmount_s */\n      lt\n      iszero\n        /* \"contracts/Staking.sol\":3146:3199  require(_amount >= _minStakeAmount_s, \"Insufficient\") */\n      tag_251\n      jumpi\n      mload(0x40)\n      0x08c379a000000000000000000000000000000000000000000000000000000000\n      dup2\n      mstore\n      0x04\n      add\n      tag_252\n      swap1\n      tag_244\n      jump\t// in\n    tag_252:\n      mload(0x40)\n      dup1\n      swap2\n      sub\n      swap1\n      revert\n    tag_251:\n        /* \"contracts/Staking.sol\":3130:3336  if (_mode == 2) require(_amount >= _minStakeAmount_s, \"Insufficient\");... */\n      jump(tag_253)\n    tag_250:\n        /* \"contracts/Staking.sol\":3228:3229  3 */\n      0x03\n        /* \"contracts/Staking.sol\":3219:3224  _mode */\n      dup2\n        /* \"contracts/Staking.sol\":3219:3229  _mode == 3 */\n      eq\n        /* \"contracts/Staking.sol\":3215:3336  if (_mode == 3) require(_amount >= _minStakeAmount_g, \"Insufficient\");... */\n      iszero\n      tag_254\n      jumpi\n        /* \"contracts/Staking.sol\":3250:3267  _minStakeAmount_g */\n      sload(0x07)\n        /* \"contracts/Staking.sol\":3239:3246  _amount */\n      dup3\n        /* \"contracts/Staking.sol\":3239:3267  _amount >= _minStakeAmount_g */\n      lt\n      iszero\n        /* \"contracts/Staking.sol\":3231:3284  require(_amount >= _minStakeAmount_g, \"Insufficient\") */\n      tag_255\n      jumpi\n      mload(0x40)\n      0x08c379a000000000000000000000000000000000000000000000000000000000\n      dup2\n      mstore\n      0x04\n      add\n      tag_256\n      swap1\n      tag_244\n      jump\t// in\n    tag_256:\n      mload(0x40)\n      dup1\n      swap2\n      sub\n      swap1\n      revert\n    tag_255:\n        /* \"contracts/Staking.sol\":3215:3336  if (_mode == 3) require(_amount >= _minStakeAmount_g, \"Insufficient\");... */\n      jump(tag_257)\n    tag_254:\n        /* \"contracts/Staking.sol\":3318:3319  0 */\n      0x00\n        /* \"contracts/Staking.sol\":3308:3315  _amount */\n      dup3\n        /* \"contracts/Staking.sol\":3308:3319  _amount < 0 */\n      lt\n        /* \"contracts/Staking.sol\":3300:3336  require(_amount < 0, \"Invalid Mode\") */\n      tag_258\n      jumpi\n      mload(0x40)\n      0x08c379a000000000000000000000000000000000000000000000000000000000\n      dup2\n      mstore\n      0x04\n      add\n      tag_259\n      swap1\n      tag_260\n      jump\t// in\n    tag_259:\n      mload(0x40)\n      dup1\n      swap2\n      sub\n      swap1\n      revert\n    tag_258:\n        /* \"contracts/Staking.sol\":3215:3336  if (_mode == 3) require(_amount >= _minStakeAmount_g, \"Insufficient\");... */\n    tag_257:\n        /* \"contracts/Staking.sol\":3130:3336  if (_mode == 2) require(_amount >= _minStakeAmount_s, \"Insufficient\");... */\n    tag_253:\n        /* \"contracts/Staking.sol\":3045:3336  if (_mode == 1) require(_amount >= _minStakeAmount_c, \"Insufficient\");... */\n    tag_249:\n        /* \"contracts/Staking.sol\":2960:3336  if (_mode == 0) require(_amount >= _minStakeAmount_m, \"Insufficient\");... */\n    tag_245:\n        /* \"contracts/Staking.sol\":3384:3389  _mode */\n      dup1\n        /* \"contracts/Staking.sol\":3357:3364  _staker */\n      0x0b\n        /* \"contracts/Staking.sol\":3357:3376  _staker[msg.sender] */\n      0x00\n        /* \"contracts/Staking.sol\":3365:3375  msg.sender */\n      caller\n        /* \"contracts/Staking.sol\":3357:3376  _staker[msg.sender] */\n      0xffffffffffffffffffffffffffffffffffffffff\n      and\n      0xffffffffffffffffffffffffffffffffffffffff\n      and\n      dup2\n      mstore\n      0x20\n      add\n      swap1\n      dup2\n      mstore\n      0x20\n      add\n      0x00\n      keccak256\n        /* \"contracts/Staking.sol\":3357:3381  _staker[msg.sender].mode */\n      0x02\n      add\n        /* \"contracts/Staking.sol\":3357:3389  _staker[msg.sender].mode = _mode */\n      dup2\n      swap1\n      sstore\n      pop\n        /* \"contracts/Staking.sol\":3437:3452  block.timestamp */\n      timestamp\n        /* \"contracts/Staking.sol\":3400:3407  _staker */\n      0x0b\n        /* \"contracts/Staking.sol\":3400:3419  _staker[msg.sender] */\n      0x00\n        /* \"contracts/Staking.sol\":3408:3418  msg.sender */\n      caller\n        /* \"contracts/Staking.sol\":3400:3419  _staker[msg.sender] */\n      0xffffffffffffffffffffffffffffffffffffffff\n      and\n      0xffffffffffffffffffffffffffffffffffffffff\n      and\n      dup2\n      mstore\n      0x20\n      add\n      swap1\n      dup2\n      mstore\n      0x20\n      add\n      0x00\n      keccak256\n        /* \"contracts/Staking.sol\":3400:3434  _staker[msg.sender].stakeStartTime */\n      0x03\n      add\n        /* \"contracts/Staking.sol\":3400:3452  _staker[msg.sender].stakeStartTime = block.timestamp */\n      dup2\n      swap1\n      sstore\n      pop\n        /* \"contracts/Staking.sol\":3492:3494  55 */\n      0x37\n        /* \"contracts/Staking.sol\":3463:3470  _staker */\n      0x0b\n        /* \"contracts/Staking.sol\":3463:3482  _staker[msg.sender] */\n      0x00\n        /* \"contracts/Staking.sol\":3471:3481  msg.sender */\n      caller\n        /* \"contracts/Staking.sol\":3463:3482  _staker[msg.sender] */\n      0xffffffffffffffffffffffffffffffffffffffff\n      and\n      0xffffffffffffffffffffffffffffffffffffffff\n      and\n      dup2\n      mstore\n      0x20\n      add\n      swap1\n      dup2\n      mstore\n      0x20\n      add\n      0x00\n      keccak256\n        /* \"contracts/Staking.sol\":3463:3489  _staker[msg.sender].staked */\n      0x05\n      add\n        /* \"contracts/Staking.sol\":3463:3494  _staker[msg.sender].staked = 55 */\n      dup2\n      swap1\n      sstore\n      pop\n        /* \"contracts/Staking.sol\":3505:3513  _stakers */\n      0x0a\n        /* \"contracts/Staking.sol\":3519:3529  msg.sender */\n      caller\n        /* \"contracts/Staking.sol\":3505:3530  _stakers.push(msg.sender) */\n      swap1\n      dup1\n      0x01\n      dup2\n      sload\n      add\n      dup1\n      dup3\n      sstore\n      dup1\n      swap2\n      pop\n      pop\n      0x01\n      swap1\n      sub\n      swap1\n      0x00\n      mstore\n      keccak256(0x00, 0x20)\n      add\n      0x00\n      swap1\n      swap2\n      swap1\n      swap2\n      swap1\n      swap2\n      0x0100\n      exp\n      dup2\n      sload\n      dup2\n      0xffffffffffffffffffffffffffffffffffffffff\n      mul\n      not\n      and\n      swap1\n      dup4\n      0xffffffffffffffffffffffffffffffffffffffff\n      and\n      mul\n      or\n      swap1\n      sstore\n      pop\n        /* \"contracts/Staking.sol\":3541:3555  stake(_amount) */\n      tag_262\n        /* \"contracts/Staking.sol\":3547:3554  _amount */\n      dup3\n        /* \"contracts/Staking.sol\":3541:3546  stake */\n      tag_104\n        /* \"contracts/Staking.sol\":3541:3555  stake(_amount) */\n      jump\t// in\n    tag_262:\n        /* \"contracts/Staking.sol\":2666:3563  function startStaking(uint256 _amount, uint256 _mode) external {... */\n      pop\n      pop\n      jump\t// out\n        /* \"contracts/Staking.sol\":4322:4425  function getNumberofStakers() public view returns (uint256) {... */\n    tag_71:\n        /* \"contracts/Staking.sol\":4373:4380  uint256 */\n      0x00\n        /* \"contracts/Staking.sol\":4402:4410  _stakers */\n      0x0a\n        /* \"contracts/Staking.sol\":4402:4417  _stakers.length */\n      dup1\n      sload\n      swap1\n      pop\n        /* \"contracts/Staking.sol\":4395:4417  return _stakers.length */\n      swap1\n      pop\n        /* \"contracts/Staking.sol\":4322:4425  function getNumberofStakers() public view returns (uint256) {... */\n      swap1\n      jump\t// out\n        /* \"contracts/Staking.sol\":7632:7868  function setEventPeriod(uint256 __eventPeriod) external onlyOwner {... */\n    tag_75:\n        /* \"@openzeppelin/contracts/access/Ownable.sol\":1259:1271  _msgSender() */\n      tag_265\n        /* \"@openzeppelin/contracts/access/Ownable.sol\":1259:1269  _msgSender */\n      tag_142\n        /* \"@openzeppelin/contracts/access/Ownable.sol\":1259:1271  _msgSender() */\n      jump\t// in\n    tag_265:\n        /* \"@openzeppelin/contracts/access/Ownable.sol\":1248:1271  owner() == _msgSender() */\n      0xffffffffffffffffffffffffffffffffffffffff\n      and\n        /* \"@openzeppelin/contracts/access/Ownable.sol\":1248:1255  owner() */\n      tag_266\n        /* \"@openzeppelin/contracts/access/Ownable.sol\":1248:1253  owner */\n      tag_89\n        /* \"@openzeppelin/contracts/access/Ownable.sol\":1248:1255  owner() */\n      jump\t// in\n    tag_266:\n        /* \"@openzeppelin/contracts/access/Ownable.sol\":1248:1271  owner() == _msgSender() */\n      0xffffffffffffffffffffffffffffffffffffffff\n      and\n      eq\n        /* \"@openzeppelin/contracts/access/Ownable.sol\":1240:1308  require(owner() == _msgSender(), \"Ownable: caller is not the owner\") */\n      tag_267\n      jumpi\n      mload(0x40)\n      0x08c379a000000000000000000000000000000000000000000000000000000000\n      dup2\n      mstore\n      0x04\n      add\n      tag_268\n      swap1\n      tag_146\n      jump\t// in\n    tag_268:\n      mload(0x40)\n      dup1\n      swap2\n      sub\n      swap1\n      revert\n    tag_267:\n        /* \"contracts/Staking.sol\":7743:7744  0 */\n      0x00\n        /* \"contracts/Staking.sol\":7727:7740  __eventPeriod */\n      dup2\n        /* \"contracts/Staking.sol\":7727:7744  __eventPeriod > 0 */\n      gt\n        /* \"contracts/Staking.sol\":7719:7772  require(__eventPeriod > 0, \"Invalid Lockup Duration\") */\n      tag_270\n      jumpi\n      mload(0x40)\n      0x08c379a000000000000000000000000000000000000000000000000000000000\n      dup2\n      mstore\n      0x04\n      add\n      tag_271\n      swap1\n      tag_272\n      jump\t// in\n    tag_271:\n      mload(0x40)\n      dup1\n      swap2\n      sub\n      swap1\n      revert\n    tag_270:\n        /* \"contracts/Staking.sol\":7800:7813  __eventPeriod */\n      dup1\n        /* \"contracts/Staking.sol\":7785:7797  _eventPeriod */\n      0x02\n        /* \"contracts/Staking.sol\":7785:7813  _eventPeriod = __eventPeriod */\n      dup2\n      swap1\n      sstore\n      pop\n        /* \"contracts/Staking.sol\":7831:7860  SetEventPeriod(__eventPeriod) */\n      0x189bda9782663c67a3f95c0aa5455924c711210b00281c60ead2f0dd8dbc924c\n        /* \"contracts/Staking.sol\":7846:7859  __eventPeriod */\n      dup2\n        /* \"contracts/Staking.sol\":7831:7860  SetEventPeriod(__eventPeriod) */\n      mload(0x40)\n      tag_273\n      swap2\n      swap1\n      tag_42\n      jump\t// in\n    tag_273:\n      mload(0x40)\n      dup1\n      swap2\n      sub\n      swap1\n      log1\n        /* \"contracts/Staking.sol\":7632:7868  function setEventPeriod(uint256 __eventPeriod) external onlyOwner {... */\n      pop\n      jump\t// out\n        /* \"contracts/Staking.sol\":5880:6266  function rewardToHarvest(address _address) public view returns (uint256){... */\n    tag_78:\n        /* \"contracts/Staking.sol\":5944:5951  uint256 */\n      0x00\n        /* \"contracts/Staking.sol\":5973:5999  uint256 stakerStakedAmount */\n      dup1\n        /* \"contracts/Staking.sol\":6002:6009  _staker */\n      0x0b\n        /* \"contracts/Staking.sol\":6002:6019  _staker[_address] */\n      0x00\n        /* \"contracts/Staking.sol\":6010:6018  _address */\n      dup5\n        /* \"contracts/Staking.sol\":6002:6019  _staker[_address] */\n      0xffffffffffffffffffffffffffffffffffffffff\n      and\n      0xffffffffffffffffffffffffffffffffffffffff\n      and\n      dup2\n      mstore\n      0x20\n      add\n      swap1\n      dup2\n      mstore\n      0x20\n      add\n      0x00\n      keccak256\n        /* \"contracts/Staking.sol\":6002:6032  _staker[_address].stakedAmount */\n      0x01\n      add\n      sload\n        /* \"contracts/Staking.sol\":5973:6032  uint256 stakerStakedAmount = _staker[_address].stakedAmount */\n      swap1\n      pop\n        /* \"contracts/Staking.sol\":6043:6060  uint256 newReward */\n      0x00\n        /* \"contracts/Staking.sol\":6063:6179  stakerStakedAmount.mul(block.timestamp.sub(_staker[_address].lastUpdatedTime)).mul(_rewardRate).div(1 days).div(1e4) */\n      tag_275\n        /* \"contracts/Staking.sol\":6175:6178  1e4 */\n      0x2710\n        /* \"contracts/Staking.sol\":6063:6170  stakerStakedAmount.mul(block.timestamp.sub(_staker[_address].lastUpdatedTime)).mul(_rewardRate).div(1 days) */\n      tag_276\n        /* \"contracts/Staking.sol\":6163:6169  1 days */\n      0x015180\n        /* \"contracts/Staking.sol\":6063:6158  stakerStakedAmount.mul(block.timestamp.sub(_staker[_address].lastUpdatedTime)).mul(_rewardRate) */\n      tag_277\n        /* \"contracts/Staking.sol\":6146:6157  _rewardRate */\n      sload(0x03)\n        /* \"contracts/Staking.sol\":6063:6141  stakerStakedAmount.mul(block.timestamp.sub(_staker[_address].lastUpdatedTime)) */\n      tag_278\n        /* \"contracts/Staking.sol\":6086:6140  block.timestamp.sub(_staker[_address].lastUpdatedTime) */\n      tag_279\n        /* \"contracts/Staking.sol\":6106:6113  _staker */\n      0x0b\n        /* \"contracts/Staking.sol\":6106:6123  _staker[_address] */\n      0x00\n        /* \"contracts/Staking.sol\":6114:6122  _address */\n      dup14\n        /* \"contracts/Staking.sol\":6106:6123  _staker[_address] */\n      0xffffffffffffffffffffffffffffffffffffffff\n      and\n      0xffffffffffffffffffffffffffffffffffffffff\n      and\n      dup2\n      mstore\n      0x20\n      add\n      swap1\n      dup2\n      mstore\n      0x20\n      add\n      0x00\n      keccak256\n        /* \"contracts/Staking.sol\":6106:6139  _staker[_address].lastUpdatedTime */\n      0x04\n      add\n      sload\n        /* \"contracts/Staking.sol\":6086:6101  block.timestamp */\n      timestamp\n        /* \"contracts/Staking.sol\":6086:6105  block.timestamp.sub */\n      tag_162\n      swap1\n        /* \"contracts/Staking.sol\":6086:6140  block.timestamp.sub(_staker[_address].lastUpdatedTime) */\n      swap2\n      swap1\n      0xffffffff\n      and\n      jump\t// in\n    tag_279:\n        /* \"contracts/Staking.sol\":6063:6081  stakerStakedAmount */\n      dup10\n        /* \"contracts/Staking.sol\":6063:6085  stakerStakedAmount.mul */\n      tag_167\n      swap1\n        /* \"contracts/Staking.sol\":6063:6141  stakerStakedAmount.mul(block.timestamp.sub(_staker[_address].lastUpdatedTime)) */\n      swap2\n      swap1\n      0xffffffff\n      and\n      jump\t// in\n    tag_278:\n        /* \"contracts/Staking.sol\":6063:6145  stakerStakedAmount.mul(block.timestamp.sub(_staker[_address].lastUpdatedTime)).mul */\n      tag_167\n      swap1\n        /* \"contracts/Staking.sol\":6063:6158  stakerStakedAmount.mul(block.timestamp.sub(_staker[_address].lastUpdatedTime)).mul(_rewardRate) */\n      swap2\n      swap1\n      0xffffffff\n      and\n      jump\t// in\n    tag_277:\n        /* \"contracts/Staking.sol\":6063:6162  stakerStakedAmount.mul(block.timestamp.sub(_staker[_address].lastUpdatedTime)).mul(_rewardRate).div */\n      tag_163\n      swap1\n        /* \"contracts/Staking.sol\":6063:6170  stakerStakedAmount.mul(block.timestamp.sub(_staker[_address].lastUpdatedTime)).mul(_rewardRate).div(1 days) */\n      swap2\n      swap1\n      0xffffffff\n      and\n      jump\t// in\n    tag_276:\n        /* \"contracts/Staking.sol\":6063:6174  stakerStakedAmount.mul(block.timestamp.sub(_staker[_address].lastUpdatedTime)).mul(_rewardRate).div(1 days).div */\n      tag_163\n      swap1\n        /* \"contracts/Staking.sol\":6063:6179  stakerStakedAmount.mul(block.timestamp.sub(_staker[_address].lastUpdatedTime)).mul(_rewardRate).div(1 days).div(1e4) */\n      swap2\n      swap1\n      0xffffffff\n      and\n      jump\t// in\n    tag_275:\n        /* \"contracts/Staking.sol\":6043:6179  uint256 newReward = stakerStakedAmount.mul(block.timestamp.sub(_staker[_address].lastUpdatedTime)).mul(_rewardRate).div(1 days).div(1e4) */\n      swap1\n      pop\n        /* \"contracts/Staking.sol\":6249:6258  newReward */\n      dup1\n        /* \"contracts/Staking.sol\":6207:6214  _staker */\n      0x0b\n        /* \"contracts/Staking.sol\":6207:6226  _staker[msg.sender] */\n      0x00\n        /* \"contracts/Staking.sol\":6215:6225  msg.sender */\n      caller\n        /* \"contracts/Staking.sol\":6207:6226  _staker[msg.sender] */\n      0xffffffffffffffffffffffffffffffffffffffff\n      and\n      0xffffffffffffffffffffffffffffffffffffffff\n      and\n      dup2\n      mstore\n      0x20\n      add\n      swap1\n      dup2\n      mstore\n      0x20\n      add\n      0x00\n      keccak256\n        /* \"contracts/Staking.sol\":6207:6246  _staker[msg.sender].stakerCurrentReward */\n      0x00\n      add\n      sload\n        /* \"contracts/Staking.sol\":6207:6258  _staker[msg.sender].stakerCurrentReward + newReward */\n      tag_280\n      swap2\n      swap1\n      tag_281\n      jump\t// in\n    tag_280:\n        /* \"contracts/Staking.sol\":6200:6258  return _staker[msg.sender].stakerCurrentReward + newReward */\n      swap3\n      pop\n      pop\n      pop\n        /* \"contracts/Staking.sol\":5880:6266  function rewardToHarvest(address _address) public view returns (uint256){... */\n      swap2\n      swap1\n      pop\n      jump\t// out\n        /* \"@openzeppelin/contracts/access/Ownable.sol\":1668:1769  function renounceOwnership() public virtual onlyOwner {... */\n    tag_81:\n        /* \"@openzeppelin/contracts/access/Ownable.sol\":1259:1271  _msgSender() */\n      tag_283\n        /* \"@openzeppelin/contracts/access/Ownable.sol\":1259:1269  _msgSender */\n      tag_142\n        /* \"@openzeppelin/contracts/access/Ownable.sol\":1259:1271  _msgSender() */\n      jump\t// in\n    tag_283:\n        /* \"@openzeppelin/contracts/access/Ownable.sol\":1248:1271  owner() == _msgSender() */\n      0xffffffffffffffffffffffffffffffffffffffff\n      and\n        /* \"@openzeppelin/contracts/access/Ownable.sol\":1248:1255  owner() */\n      tag_284\n        /* \"@openzeppelin/contracts/access/Ownable.sol\":1248:1253  owner */\n      tag_89\n        /* \"@openzeppelin/contracts/access/Ownable.sol\":1248:1255  owner() */\n      jump\t// in\n    tag_284:\n        /* \"@openzeppelin/contracts/access/Ownable.sol\":1248:1271  owner() == _msgSender() */\n      0xffffffffffffffffffffffffffffffffffffffff\n      and\n      eq\n        /* \"@openzeppelin/contracts/access/Ownable.sol\":1240:1308  require(owner() == _msgSender(), \"Ownable: caller is not the owner\") */\n      tag_285\n      jumpi\n      mload(0x40)\n      0x08c379a000000000000000000000000000000000000000000000000000000000\n      dup2\n      mstore\n      0x04\n      add\n      tag_286\n      swap1\n      tag_146\n      jump\t// in\n    tag_286:\n      mload(0x40)\n      dup1\n      swap2\n      sub\n      swap1\n      revert\n    tag_285:\n        /* \"@openzeppelin/contracts/access/Ownable.sol\":1732:1762  _transferOwnership(address(0)) */\n      tag_288\n        /* \"@openzeppelin/contracts/access/Ownable.sol\":1759:1760  0 */\n      0x00\n        /* \"@openzeppelin/contracts/access/Ownable.sol\":1732:1750  _transferOwnership */\n      tag_289\n        /* \"@openzeppelin/contracts/access/Ownable.sol\":1732:1762  _transferOwnership(address(0)) */\n      jump\t// in\n    tag_288:\n        /* \"@openzeppelin/contracts/access/Ownable.sol\":1668:1769  function renounceOwnership() public virtual onlyOwner {... */\n      jump\t// out\n        /* \"contracts/Staking.sol\":5339:5433  function getRewardRate() public view returns (uint256) {... */\n    tag_83:\n        /* \"contracts/Staking.sol\":5385:5392  uint256 */\n      0x00\n        /* \"contracts/Staking.sol\":5414:5425  _rewardRate */\n      sload(0x03)\n        /* \"contracts/Staking.sol\":5407:5425  return _rewardRate */\n      swap1\n      pop\n        /* \"contracts/Staking.sol\":5339:5433  function getRewardRate() public view returns (uint256) {... */\n      swap1\n      jump\t// out\n        /* \"contracts/Staking.sol\":1206:1232  uint256 public totalStaked */\n    tag_86:\n      sload(0x0c)\n      dup2\n      jump\t// out\n        /* \"@openzeppelin/contracts/access/Ownable.sol\":1036:1121  function owner() public view virtual returns (address) {... */\n    tag_89:\n        /* \"@openzeppelin/contracts/access/Ownable.sol\":1082:1089  address */\n      0x00\n        /* \"@openzeppelin/contracts/access/Ownable.sol\":1108:1114  _owner */\n      dup1\n      0x00\n      swap1\n      sload\n      swap1\n      0x0100\n      exp\n      swap1\n      div\n      0xffffffffffffffffffffffffffffffffffffffff\n      and\n        /* \"@openzeppelin/contracts/access/Ownable.sol\":1101:1114  return _owner */\n      swap1\n      pop\n        /* \"@openzeppelin/contracts/access/Ownable.sol\":1036:1121  function owner() public view virtual returns (address) {... */\n      swap1\n      jump\t// out\n        /* \"contracts/Staking.sol\":9726:10154  function getMinimumStakingAmount(uint256 _mode) public view returns (uint256) {... */\n    tag_94:\n        /* \"contracts/Staking.sol\":9795:9802  uint256 */\n      0x00\n        /* \"contracts/Staking.sol\":9825:9848  uint256 _minStakeAmount */\n      dup1\n        /* \"contracts/Staking.sol\":9851:9852  0 */\n      0x00\n        /* \"contracts/Staking.sol\":9825:9852  uint256 _minStakeAmount = 0 */\n      swap1\n      pop\n        /* \"contracts/Staking.sol\":9878:9879  0 */\n      0x00\n        /* \"contracts/Staking.sol\":9869:9874  _mode */\n      dup4\n        /* \"contracts/Staking.sol\":9869:9879  _mode == 0 */\n      eq\n        /* \"contracts/Staking.sol\":9869:9893  _mode == 0 || _mode == 2 */\n      dup1\n      tag_293\n      jumpi\n      pop\n        /* \"contracts/Staking.sol\":9892:9893  2 */\n      0x02\n        /* \"contracts/Staking.sol\":9883:9888  _mode */\n      dup4\n        /* \"contracts/Staking.sol\":9883:9893  _mode == 2 */\n      eq\n        /* \"contracts/Staking.sol\":9869:9893  _mode == 0 || _mode == 2 */\n    tag_293:\n        /* \"contracts/Staking.sol\":9865:10111  if (_mode == 0 || _mode == 2) _minStakeAmount = _minStakeAmount_m;... */\n      iszero\n      tag_294\n      jumpi\n        /* \"contracts/Staking.sol\":9913:9930  _minStakeAmount_m */\n      sload(0x06)\n        /* \"contracts/Staking.sol\":9895:9930  _minStakeAmount = _minStakeAmount_m */\n      swap1\n      pop\n        /* \"contracts/Staking.sol\":9865:10111  if (_mode == 0 || _mode == 2) _minStakeAmount = _minStakeAmount_m;... */\n      jump(tag_295)\n    tag_294:\n        /* \"contracts/Staking.sol\":9959:9960  1 */\n      0x01\n        /* \"contracts/Staking.sol\":9950:9955  _mode */\n      dup4\n        /* \"contracts/Staking.sol\":9950:9960  _mode == 1 */\n      eq\n        /* \"contracts/Staking.sol\":9946:10111  if (_mode == 1) _minStakeAmount = _minStakeAmount_c;... */\n      iszero\n      tag_296\n      jumpi\n        /* \"contracts/Staking.sol\":9980:9997  _minStakeAmount_c */\n      sload(0x09)\n        /* \"contracts/Staking.sol\":9962:9997  _minStakeAmount = _minStakeAmount_c */\n      swap1\n      pop\n        /* \"contracts/Staking.sol\":9946:10111  if (_mode == 1) _minStakeAmount = _minStakeAmount_c;... */\n      jump(tag_297)\n    tag_296:\n        /* \"contracts/Staking.sol\":10026:10027  3 */\n      0x03\n        /* \"contracts/Staking.sol\":10017:10022  _mode */\n      dup4\n        /* \"contracts/Staking.sol\":10017:10027  _mode == 3 */\n      eq\n        /* \"contracts/Staking.sol\":10013:10111  if (_mode == 3) _minStakeAmount = _minStakeAmount_g;... */\n      iszero\n      tag_298\n      jumpi\n        /* \"contracts/Staking.sol\":10047:10064  _minStakeAmount_g */\n      sload(0x07)\n        /* \"contracts/Staking.sol\":10029:10064  _minStakeAmount = _minStakeAmount_g */\n      swap1\n      pop\n        /* \"contracts/Staking.sol\":10013:10111  if (_mode == 3) _minStakeAmount = _minStakeAmount_g;... */\n      jump(tag_299)\n    tag_298:\n        /* \"contracts/Staking.sol\":10093:10094  1 */\n      0x01\n        /* \"contracts/Staking.sol\":10089:10090  0 */\n      0x00\n        /* \"contracts/Staking.sol\":10089:10094  0 > 1 */\n      gt\n        /* \"contracts/Staking.sol\":10080:10111  require (0 > 1, \"Invalid Mode\") */\n      tag_300\n      jumpi\n      mload(0x40)\n      0x08c379a000000000000000000000000000000000000000000000000000000000\n      dup2\n      mstore\n      0x04\n      add\n      tag_301\n      swap1\n      tag_260\n      jump\t// in\n    tag_301:\n      mload(0x40)\n      dup1\n      swap2\n      sub\n      swap1\n      revert\n    tag_300:\n        /* \"contracts/Staking.sol\":10013:10111  if (_mode == 3) _minStakeAmount = _minStakeAmount_g;... */\n    tag_299:\n        /* \"contracts/Staking.sol\":9946:10111  if (_mode == 1) _minStakeAmount = _minStakeAmount_c;... */\n    tag_297:\n        /* \"contracts/Staking.sol\":9865:10111  if (_mode == 0 || _mode == 2) _minStakeAmount = _minStakeAmount_m;... */\n    tag_295:\n        /* \"contracts/Staking.sol\":10131:10146  _minStakeAmount */\n      dup1\n        /* \"contracts/Staking.sol\":10124:10146  return _minStakeAmount */\n      swap2\n      pop\n      pop\n        /* \"contracts/Staking.sol\":9726:10154  function getMinimumStakingAmount(uint256 _mode) public view returns (uint256) {... */\n      swap2\n      swap1\n      pop\n      jump\t// out\n        /* \"contracts/Staking.sol\":7876:8150  function setUnstakingFeeRate(uint256 __unstakingFeeRate) external onlyOwner {... */\n    tag_98:\n        /* \"@openzeppelin/contracts/access/Ownable.sol\":1259:1271  _msgSender() */\n      tag_303\n        /* \"@openzeppelin/contracts/access/Ownable.sol\":1259:1269  _msgSender */\n      tag_142\n        /* \"@openzeppelin/contracts/access/Ownable.sol\":1259:1271  _msgSender() */\n      jump\t// in\n    tag_303:\n        /* \"@openzeppelin/contracts/access/Ownable.sol\":1248:1271  owner() == _msgSender() */\n      0xffffffffffffffffffffffffffffffffffffffff\n      and\n        /* \"@openzeppelin/contracts/access/Ownable.sol\":1248:1255  owner() */\n      tag_304\n        /* \"@openzeppelin/contracts/access/Ownable.sol\":1248:1253  owner */\n      tag_89\n        /* \"@openzeppelin/contracts/access/Ownable.sol\":1248:1255  owner() */\n      jump\t// in\n    tag_304:\n        /* \"@openzeppelin/contracts/access/Ownable.sol\":1248:1271  owner() == _msgSender() */\n      0xffffffffffffffffffffffffffffffffffffffff\n      and\n      eq\n        /* \"@openzeppelin/contracts/access/Ownable.sol\":1240:1308  require(owner() == _msgSender(), \"Ownable: caller is not the owner\") */\n      tag_305\n      jumpi\n      mload(0x40)\n      0x08c379a000000000000000000000000000000000000000000000000000000000\n      dup2\n      mstore\n      0x04\n      add\n      tag_306\n      swap1\n      tag_146\n      jump\t// in\n    tag_306:\n      mload(0x40)\n      dup1\n      swap2\n      sub\n      swap1\n      revert\n    tag_305:\n        /* \"contracts/Staking.sol\":8002:8003  0 */\n      0x00\n        /* \"contracts/Staking.sol\":7981:7999  __unstakingFeeRate */\n      dup2\n        /* \"contracts/Staking.sol\":7981:8003  __unstakingFeeRate > 0 */\n      gt\n        /* \"contracts/Staking.sol\":7973:8034  require(__unstakingFeeRate > 0, \"Invalid Unstaking Fee Rate\") */\n      tag_308\n      jumpi\n      mload(0x40)\n      0x08c379a000000000000000000000000000000000000000000000000000000000\n      dup2\n      mstore\n      0x04\n      add\n      tag_309\n      swap1\n      tag_310\n      jump\t// in\n    tag_309:\n      mload(0x40)\n      dup1\n      swap2\n      sub\n      swap1\n      revert\n    tag_308:\n        /* \"contracts/Staking.sol\":8067:8085  __unstakingFeeRate */\n      dup1\n        /* \"contracts/Staking.sol\":8047:8064  _unstakingFeeRate */\n      0x01\n        /* \"contracts/Staking.sol\":8047:8085  _unstakingFeeRate = __unstakingFeeRate */\n      dup2\n      swap1\n      sstore\n      pop\n        /* \"contracts/Staking.sol\":8103:8142  SetUnstakingFeeRate(__unstakingFeeRate) */\n      0x150c688dd7595bf7862b8ab1fe46756450eb7d731037942b3bbc46f3f0e21b81\n        /* \"contracts/Staking.sol\":8123:8141  __unstakingFeeRate */\n      dup2\n        /* \"contracts/Staking.sol\":8103:8142  SetUnstakingFeeRate(__unstakingFeeRate) */\n      mload(0x40)\n      tag_311\n      swap2\n      swap1\n      tag_42\n      jump\t// in\n    tag_311:\n      mload(0x40)\n      dup1\n      swap2\n      sub\n      swap1\n      log1\n        /* \"contracts/Staking.sol\":7876:8150  function setUnstakingFeeRate(uint256 __unstakingFeeRate) external onlyOwner {... */\n      pop\n      jump\t// out\n        /* \"contracts/Staking.sol\":7397:7624  function setRewardRate(uint256 __rewardRate) external onlyOwner {... */\n    tag_101:\n        /* \"@openzeppelin/contracts/access/Ownable.sol\":1259:1271  _msgSender() */\n      tag_313\n        /* \"@openzeppelin/contracts/access/Ownable.sol\":1259:1269  _msgSender */\n      tag_142\n        /* \"@openzeppelin/contracts/access/Ownable.sol\":1259:1271  _msgSender() */\n      jump\t// in\n    tag_313:\n        /* \"@openzeppelin/contracts/access/Ownable.sol\":1248:1271  owner() == _msgSender() */\n      0xffffffffffffffffffffffffffffffffffffffff\n      and\n        /* \"@openzeppelin/contracts/access/Ownable.sol\":1248:1255  owner() */\n      tag_314\n        /* \"@openzeppelin/contracts/access/Ownable.sol\":1248:1253  owner */\n      tag_89\n        /* \"@openzeppelin/contracts/access/Ownable.sol\":1248:1255  owner() */\n      jump\t// in\n    tag_314:\n        /* \"@openzeppelin/contracts/access/Ownable.sol\":1248:1271  owner() == _msgSender() */\n      0xffffffffffffffffffffffffffffffffffffffff\n      and\n      eq\n        /* \"@openzeppelin/contracts/access/Ownable.sol\":1240:1308  require(owner() == _msgSender(), \"Ownable: caller is not the owner\") */\n      tag_315\n      jumpi\n      mload(0x40)\n      0x08c379a000000000000000000000000000000000000000000000000000000000\n      dup2\n      mstore\n      0x04\n      add\n      tag_316\n      swap1\n      tag_146\n      jump\t// in\n    tag_316:\n      mload(0x40)\n      dup1\n      swap2\n      sub\n      swap1\n      revert\n    tag_315:\n        /* \"contracts/Staking.sol\":7505:7506  0 */\n      0x00\n        /* \"contracts/Staking.sol\":7490:7502  __rewardRate */\n      dup2\n        /* \"contracts/Staking.sol\":7490:7506  __rewardRate > 0 */\n      gt\n        /* \"contracts/Staking.sol\":7482:7524  require(__rewardRate > 0, \"Invalid value\") */\n      tag_318\n      jumpi\n      mload(0x40)\n      0x08c379a000000000000000000000000000000000000000000000000000000000\n      dup2\n      mstore\n      0x04\n      add\n      tag_319\n      swap1\n      tag_320\n      jump\t// in\n    tag_319:\n      mload(0x40)\n      dup1\n      swap2\n      sub\n      swap1\n      revert\n    tag_318:\n        /* \"contracts/Staking.sol\":7559:7571  __rewardRate */\n      dup1\n        /* \"contracts/Staking.sol\":7545:7556  _rewardRate */\n      0x03\n        /* \"contracts/Staking.sol\":7545:7571  _rewardRate = __rewardRate */\n      dup2\n      swap1\n      sstore\n      pop\n        /* \"contracts/Staking.sol\":7589:7616  SetRewardRate(__rewardRate) */\n      0x1946fb78c7ca778b54d82cabaac5ba67cf446f58d0ff1f8ceaebb6150e54e44f\n        /* \"contracts/Staking.sol\":7603:7615  __rewardRate */\n      dup2\n        /* \"contracts/Staking.sol\":7589:7616  SetRewardRate(__rewardRate) */\n      mload(0x40)\n      tag_321\n      swap2\n      swap1\n      tag_42\n      jump\t// in\n    tag_321:\n      mload(0x40)\n      dup1\n      swap2\n      sub\n      swap1\n      log1\n        /* \"contracts/Staking.sol\":7397:7624  function setRewardRate(uint256 __rewardRate) external onlyOwner {... */\n      pop\n      jump\t// out\n        /* \"contracts/Staking.sol\":3631:4211  function stake(uint256 _amount) public{... */\n    tag_104:\n        /* \"contracts/Staking.sol\":3708:3709  0 */\n      0x00\n        /* \"contracts/Staking.sol\":3698:3705  _amount */\n      dup2\n        /* \"contracts/Staking.sol\":3698:3709  _amount > 0 */\n      gt\n        /* \"contracts/Staking.sol\":3690:3745  require(_amount > 0, \"Amount should be greater than 0\") */\n      tag_323\n      jumpi\n      mload(0x40)\n      0x08c379a000000000000000000000000000000000000000000000000000000000\n      dup2\n      mstore\n      0x04\n      add\n      tag_324\n      swap1\n      tag_154\n      jump\t// in\n    tag_324:\n      mload(0x40)\n      dup1\n      swap2\n      sub\n      swap1\n      revert\n    tag_323:\n        /* \"contracts/Staking.sol\":3794:3801  _amount */\n      dup1\n        /* \"contracts/Staking.sol\":3764:3769  token */\n      0x0d\n      0x00\n      swap1\n      sload\n      swap1\n      0x0100\n      exp\n      swap1\n      div\n      0xffffffffffffffffffffffffffffffffffffffff\n      and\n        /* \"contracts/Staking.sol\":3764:3779  token.balanceOf */\n      0xffffffffffffffffffffffffffffffffffffffff\n      and\n      0x70a08231\n        /* \"contracts/Staking.sol\":3780:3790  msg.sender */\n      caller\n        /* \"contracts/Staking.sol\":3764:3791  token.balanceOf(msg.sender) */\n      mload(0x40)\n      dup3\n      0xffffffff\n      and\n      0xe0\n      shl\n      dup2\n      mstore\n      0x04\n      add\n      tag_325\n      swap2\n      swap1\n      tag_91\n      jump\t// in\n    tag_325:\n      0x20\n      mload(0x40)\n      dup1\n      dup4\n      sub\n      dup2\n      dup7\n      dup1\n      extcodesize\n      iszero\n      dup1\n      iszero\n      tag_326\n      jumpi\n      0x00\n      dup1\n      revert\n    tag_326:\n      pop\n      gas\n      staticcall\n      iszero\n      dup1\n      iszero\n      tag_328\n      jumpi\n      returndatasize\n      0x00\n      dup1\n      returndatacopy\n      revert(0x00, returndatasize)\n    tag_328:\n      pop\n      pop\n      pop\n      pop\n      mload(0x40)\n      returndatasize\n      not(0x1f)\n      0x1f\n      dup3\n      add\n      and\n      dup3\n      add\n      dup1\n      0x40\n      mstore\n      pop\n      dup2\n      add\n      swap1\n      tag_329\n      swap2\n      swap1\n      tag_196\n      jump\t// in\n    tag_329:\n        /* \"contracts/Staking.sol\":3764:3801  token.balanceOf(msg.sender) > _amount */\n      gt\n        /* \"contracts/Staking.sol\":3756:3819  require(token.balanceOf(msg.sender) > _amount, \"Insufficient!\") */\n      tag_330\n      jumpi\n      mload(0x40)\n      0x08c379a000000000000000000000000000000000000000000000000000000000\n      dup2\n      mstore\n      0x04\n      add\n      tag_331\n      swap1\n      tag_236\n      jump\t// in\n    tag_331:\n      mload(0x40)\n      dup1\n      swap2\n      sub\n      swap1\n      revert\n    tag_330:\n        /* \"contracts/Staking.sol\":3868:3870  55 */\n      0x37\n        /* \"contracts/Staking.sol\":3838:3845  _staker */\n      0x0b\n        /* \"contracts/Staking.sol\":3838:3857  _staker[msg.sender] */\n      0x00\n        /* \"contracts/Staking.sol\":3846:3856  msg.sender */\n      caller\n        /* \"contracts/Staking.sol\":3838:3857  _staker[msg.sender] */\n      0xffffffffffffffffffffffffffffffffffffffff\n      and\n      0xffffffffffffffffffffffffffffffffffffffff\n      and\n      dup2\n      mstore\n      0x20\n      add\n      swap1\n      dup2\n      mstore\n      0x20\n      add\n      0x00\n      keccak256\n        /* \"contracts/Staking.sol\":3838:3864  _staker[msg.sender].staked */\n      0x05\n      add\n      sload\n        /* \"contracts/Staking.sol\":3838:3870  _staker[msg.sender].staked == 55 */\n      eq\n        /* \"contracts/Staking.sol\":3830:3896  require(_staker[msg.sender].staked == 55, \"Error: invalid staker\") */\n      tag_332\n      jumpi\n      mload(0x40)\n      0x08c379a000000000000000000000000000000000000000000000000000000000\n      dup2\n      mstore\n      0x04\n      add\n      tag_333\n      swap1\n      tag_334\n      jump\t// in\n    tag_333:\n      mload(0x40)\n      dup1\n      swap2\n      sub\n      swap1\n      revert\n    tag_332:\n        /* \"contracts/Staking.sol\":3917:3931  updateReward() */\n      tag_335\n        /* \"contracts/Staking.sol\":3917:3929  updateReward */\n      tag_159\n        /* \"contracts/Staking.sol\":3917:3931  updateReward() */\n      jump\t// in\n    tag_335:\n        /* \"contracts/Staking.sol\":3952:4010  token.safeTransferFrom(msg.sender, address(this), _amount) */\n      tag_336\n        /* \"contracts/Staking.sol\":3975:3985  msg.sender */\n      caller\n        /* \"contracts/Staking.sol\":3995:3999  this */\n      address\n        /* \"contracts/Staking.sol\":4002:4009  _amount */\n      dup4\n        /* \"contracts/Staking.sol\":3952:3957  token */\n      0x0d\n      0x00\n      swap1\n      sload\n      swap1\n      0x0100\n      exp\n      swap1\n      div\n      0xffffffffffffffffffffffffffffffffffffffff\n      and\n        /* \"contracts/Staking.sol\":3952:3974  token.safeTransferFrom */\n      0xffffffffffffffffffffffffffffffffffffffff\n      and\n      tag_337\n      swap1\n        /* \"contracts/Staking.sol\":3952:4010  token.safeTransferFrom(msg.sender, address(this), _amount) */\n      swap4\n      swap3\n      swap2\n      swap1\n      0xffffffff\n      and\n      jump\t// in\n    tag_336:\n        /* \"contracts/Staking.sol\":4056:4101  _staker[msg.sender].stakedAmount.add(_amount) */\n      tag_338\n        /* \"contracts/Staking.sol\":4093:4100  _amount */\n      dup2\n        /* \"contracts/Staking.sol\":4056:4063  _staker */\n      0x0b\n        /* \"contracts/Staking.sol\":4056:4075  _staker[msg.sender] */\n      0x00\n        /* \"contracts/Staking.sol\":4064:4074  msg.sender */\n      caller\n        /* \"contracts/Staking.sol\":4056:4075  _staker[msg.sender] */\n      0xffffffffffffffffffffffffffffffffffffffff\n      and\n      0xffffffffffffffffffffffffffffffffffffffff\n      and\n      dup2\n      mstore\n      0x20\n      add\n      swap1\n      dup2\n      mstore\n      0x20\n      add\n      0x00\n      keccak256\n        /* \"contracts/Staking.sol\":4056:4088  _staker[msg.sender].stakedAmount */\n      0x01\n      add\n      sload\n        /* \"contracts/Staking.sol\":4056:4092  _staker[msg.sender].stakedAmount.add */\n      tag_168\n      swap1\n        /* \"contracts/Staking.sol\":4056:4101  _staker[msg.sender].stakedAmount.add(_amount) */\n      swap2\n      swap1\n      0xffffffff\n      and\n      jump\t// in\n    tag_338:\n        /* \"contracts/Staking.sol\":4021:4028  _staker */\n      0x0b\n        /* \"contracts/Staking.sol\":4021:4040  _staker[msg.sender] */\n      0x00\n        /* \"contracts/Staking.sol\":4029:4039  msg.sender */\n      caller\n        /* \"contracts/Staking.sol\":4021:4040  _staker[msg.sender] */\n      0xffffffffffffffffffffffffffffffffffffffff\n      and\n      0xffffffffffffffffffffffffffffffffffffffff\n      and\n      dup2\n      mstore\n      0x20\n      add\n      swap1\n      dup2\n      mstore\n      0x20\n      add\n      0x00\n      keccak256\n        /* \"contracts/Staking.sol\":4021:4053  _staker[msg.sender].stakedAmount */\n      0x01\n      add\n        /* \"contracts/Staking.sol\":4021:4101  _staker[msg.sender].stakedAmount = _staker[msg.sender].stakedAmount.add(_amount) */\n      dup2\n      swap1\n      sstore\n      pop\n        /* \"contracts/Staking.sol\":4126:4150  totalStaked.add(_amount) */\n      tag_339\n        /* \"contracts/Staking.sol\":4142:4149  _amount */\n      dup2\n        /* \"contracts/Staking.sol\":4126:4137  totalStaked */\n      sload(0x0c)\n        /* \"contracts/Staking.sol\":4126:4141  totalStaked.add */\n      tag_168\n      swap1\n        /* \"contracts/Staking.sol\":4126:4150  totalStaked.add(_amount) */\n      swap2\n      swap1\n      0xffffffff\n      and\n      jump\t// in\n    tag_339:\n        /* \"contracts/Staking.sol\":4112:4123  totalStaked */\n      0x0c\n        /* \"contracts/Staking.sol\":4112:4150  totalStaked = totalStaked.add(_amount) */\n      dup2\n      swap1\n      sstore\n      pop\n        /* \"contracts/Staking.sol\":4176:4203  Staked(msg.sender, _amount) */\n      0x9e71bc8eea02a63969f509818f2dafb9254532904319f9dbda79b67bd34a5f3d\n        /* \"contracts/Staking.sol\":4183:4193  msg.sender */\n      caller\n        /* \"contracts/Staking.sol\":4195:4202  _amount */\n      dup3\n        /* \"contracts/Staking.sol\":4176:4203  Staked(msg.sender, _amount) */\n      mload(0x40)\n      tag_340\n      swap3\n      swap2\n      swap1\n      tag_182\n      jump\t// in\n    tag_340:\n      mload(0x40)\n      dup1\n      swap2\n      sub\n      swap1\n      log1\n        /* \"contracts/Staking.sol\":3631:4211  function stake(uint256 _amount) public{... */\n      pop\n      jump\t// out\n        /* \"contracts/Staking.sol\":8900:9078  function setGoldMinAmount(uint256 _minAmount) external onlyOwner {... */\n    tag_107:\n        /* \"@openzeppelin/contracts/access/Ownable.sol\":1259:1271  _msgSender() */\n      tag_342\n        /* \"@openzeppelin/contracts/access/Ownable.sol\":1259:1269  _msgSender */\n      tag_142\n        /* \"@openzeppelin/contracts/access/Ownable.sol\":1259:1271  _msgSender() */\n      jump\t// in\n    tag_342:\n        /* \"@openzeppelin/contracts/access/Ownable.sol\":1248:1271  owner() == _msgSender() */\n      0xffffffffffffffffffffffffffffffffffffffff\n      and\n        /* \"@openzeppelin/contracts/access/Ownable.sol\":1248:1255  owner() */\n      tag_343\n        /* \"@openzeppelin/contracts/access/Ownable.sol\":1248:1253  owner */\n      tag_89\n        /* \"@openzeppelin/contracts/access/Ownable.sol\":1248:1255  owner() */\n      jump\t// in\n    tag_343:\n        /* \"@openzeppelin/contracts/access/Ownable.sol\":1248:1271  owner() == _msgSender() */\n      0xffffffffffffffffffffffffffffffffffffffff\n      and\n      eq\n        /* \"@openzeppelin/contracts/access/Ownable.sol\":1240:1308  require(owner() == _msgSender(), \"Ownable: caller is not the owner\") */\n      tag_344\n      jumpi\n      mload(0x40)\n      0x08c379a000000000000000000000000000000000000000000000000000000000\n      dup2\n      mstore\n      0x04\n      add\n      tag_345\n      swap1\n      tag_146\n      jump\t// in\n    tag_345:\n      mload(0x40)\n      dup1\n      swap2\n      sub\n      swap1\n      revert\n    tag_344:\n        /* \"contracts/Staking.sol\":9000:9001  0 */\n      0x00\n        /* \"contracts/Staking.sol\":8987:8997  _minAmount */\n      dup2\n        /* \"contracts/Staking.sol\":8987:9001  _minAmount > 0 */\n      gt\n        /* \"contracts/Staking.sol\":8978:9019  require (_minAmount > 0, \"Can't be zero\") */\n      tag_347\n      jumpi\n      mload(0x40)\n      0x08c379a000000000000000000000000000000000000000000000000000000000\n      dup2\n      mstore\n      0x04\n      add\n      tag_348\n      swap1\n      tag_150\n      jump\t// in\n    tag_348:\n      mload(0x40)\n      dup1\n      swap2\n      sub\n      swap1\n      revert\n    tag_347:\n        /* \"contracts/Staking.sol\":9060:9070  _minAmount */\n      dup1\n        /* \"contracts/Staking.sol\":9040:9057  _minStakeAmount_g */\n      0x07\n        /* \"contracts/Staking.sol\":9040:9070  _minStakeAmount_g = _minAmount */\n      dup2\n      swap1\n      sstore\n      pop\n        /* \"contracts/Staking.sol\":8900:9078  function setGoldMinAmount(uint256 _minAmount) external onlyOwner {... */\n      pop\n      jump\t// out\n        /* \"contracts/Staking.sol\":4433:4622  function getStakerMode(address _address) public view returns (uint256) {... */\n    tag_110:\n        /* \"contracts/Staking.sol\":4495:4502  uint256 */\n      0x00\n        /* \"contracts/Staking.sol\":4553:4555  55 */\n      0x37\n        /* \"contracts/Staking.sol\":4525:4549  isStartStaking(_address) */\n      tag_350\n        /* \"contracts/Staking.sol\":4540:4548  _address */\n      dup4\n        /* \"contracts/Staking.sol\":4525:4539  isStartStaking */\n      tag_135\n        /* \"contracts/Staking.sol\":4525:4549  isStartStaking(_address) */\n      jump\t// in\n    tag_350:\n        /* \"contracts/Staking.sol\":4525:4555  isStartStaking(_address) == 55 */\n      eq\n        /* \"contracts/Staking.sol\":4517:4574  require(isStartStaking(_address) == 55, \"Not staker yet\") */\n      tag_351\n      jumpi\n      mload(0x40)\n      0x08c379a000000000000000000000000000000000000000000000000000000000\n      dup2\n      mstore\n      0x04\n      add\n      tag_352\n      swap1\n      tag_353\n      jump\t// in\n    tag_352:\n      mload(0x40)\n      dup1\n      swap2\n      sub\n      swap1\n      revert\n    tag_351:\n        /* \"contracts/Staking.sol\":4592:4599  _staker */\n      0x0b\n        /* \"contracts/Staking.sol\":4592:4609  _staker[_address] */\n      0x00\n        /* \"contracts/Staking.sol\":4600:4608  _address */\n      dup4\n        /* \"contracts/Staking.sol\":4592:4609  _staker[_address] */\n      0xffffffffffffffffffffffffffffffffffffffff\n      and\n      0xffffffffffffffffffffffffffffffffffffffff\n      and\n      dup2\n      mstore\n      0x20\n      add\n      swap1\n      dup2\n      mstore\n      0x20\n      add\n      0x00\n      keccak256\n        /* \"contracts/Staking.sol\":4592:4614  _staker[_address].mode */\n      0x02\n      add\n      sload\n        /* \"contracts/Staking.sol\":4585:4614  return _staker[_address].mode */\n      swap1\n      pop\n        /* \"contracts/Staking.sol\":4433:4622  function getStakerMode(address _address) public view returns (uint256) {... */\n      swap2\n      swap1\n      pop\n      jump\t// out\n        /* \"contracts/Staking.sol\":8540:8712  function setCopperMinAmount(uint256 _minAmount) external onlyOwner {... */\n    tag_114:\n        /* \"@openzeppelin/contracts/access/Ownable.sol\":1259:1271  _msgSender() */\n      tag_355\n        /* \"@openzeppelin/contracts/access/Ownable.sol\":1259:1269  _msgSender */\n      tag_142\n        /* \"@openzeppelin/contracts/access/Ownable.sol\":1259:1271  _msgSender() */\n      jump\t// in\n    tag_355:\n        /* \"@openzeppelin/contracts/access/Ownable.sol\":1248:1271  owner() == _msgSender() */\n      0xffffffffffffffffffffffffffffffffffffffff\n      and\n        /* \"@openzeppelin/contracts/access/Ownable.sol\":1248:1255  owner() */\n      tag_356\n        /* \"@openzeppelin/contracts/access/Ownable.sol\":1248:1253  owner */\n      tag_89\n        /* \"@openzeppelin/contracts/access/Ownable.sol\":1248:1255  owner() */\n      jump\t// in\n    tag_356:\n        /* \"@openzeppelin/contracts/access/Ownable.sol\":1248:1271  owner() == _msgSender() */\n      0xffffffffffffffffffffffffffffffffffffffff\n      and\n      eq\n        /* \"@openzeppelin/contracts/access/Ownable.sol\":1240:1308  require(owner() == _msgSender(), \"Ownable: caller is not the owner\") */\n      tag_357\n      jumpi\n      mload(0x40)\n      0x08c379a000000000000000000000000000000000000000000000000000000000\n      dup2\n      mstore\n      0x04\n      add\n      tag_358\n      swap1\n      tag_146\n      jump\t// in\n    tag_358:\n      mload(0x40)\n      dup1\n      swap2\n      sub\n      swap1\n      revert\n    tag_357:\n        /* \"contracts/Staking.sol\":8642:8643  0 */\n      0x00\n        /* \"contracts/Staking.sol\":8629:8639  _minAmount */\n      dup2\n        /* \"contracts/Staking.sol\":8629:8643  _minAmount > 0 */\n      gt\n        /* \"contracts/Staking.sol\":8620:8661  require (_minAmount > 0, \"Can't be zero\") */\n      tag_360\n      jumpi\n      mload(0x40)\n      0x08c379a000000000000000000000000000000000000000000000000000000000\n      dup2\n      mstore\n      0x04\n      add\n      tag_361\n      swap1\n      tag_150\n      jump\t// in\n    tag_361:\n      mload(0x40)\n      dup1\n      swap2\n      sub\n      swap1\n      revert\n    tag_360:\n        /* \"contracts/Staking.sol\":8694:8704  _minAmount */\n      dup1\n        /* \"contracts/Staking.sol\":8674:8691  _minStakeAmount_c */\n      0x09\n        /* \"contracts/Staking.sol\":8674:8704  _minStakeAmount_c = _minAmount */\n      dup2\n      swap1\n      sstore\n      pop\n        /* \"contracts/Staking.sol\":8540:8712  function setCopperMinAmount(uint256 _minAmount) external onlyOwner {... */\n      pop\n      jump\t// out\n        /* \"contracts/Staking.sol\":8344:8528  function setThreeMonthMinAmount(uint256 _minAmount) external onlyOwner {... */\n    tag_117:\n        /* \"@openzeppelin/contracts/access/Ownable.sol\":1259:1271  _msgSender() */\n      tag_363\n        /* \"@openzeppelin/contracts/access/Ownable.sol\":1259:1269  _msgSender */\n      tag_142\n        /* \"@openzeppelin/contracts/access/Ownable.sol\":1259:1271  _msgSender() */\n      jump\t// in\n    tag_363:\n        /* \"@openzeppelin/contracts/access/Ownable.sol\":1248:1271  owner() == _msgSender() */\n      0xffffffffffffffffffffffffffffffffffffffff\n      and\n        /* \"@openzeppelin/contracts/access/Ownable.sol\":1248:1255  owner() */\n      tag_364\n        /* \"@openzeppelin/contracts/access/Ownable.sol\":1248:1253  owner */\n      tag_89\n        /* \"@openzeppelin/contracts/access/Ownable.sol\":1248:1255  owner() */\n      jump\t// in\n    tag_364:\n        /* \"@openzeppelin/contracts/access/Ownable.sol\":1248:1271  owner() == _msgSender() */\n      0xffffffffffffffffffffffffffffffffffffffff\n      and\n      eq\n        /* \"@openzeppelin/contracts/access/Ownable.sol\":1240:1308  require(owner() == _msgSender(), \"Ownable: caller is not the owner\") */\n      tag_365\n      jumpi\n      mload(0x40)\n      0x08c379a000000000000000000000000000000000000000000000000000000000\n      dup2\n      mstore\n      0x04\n      add\n      tag_366\n      swap1\n      tag_146\n      jump\t// in\n    tag_366:\n      mload(0x40)\n      dup1\n      swap2\n      sub\n      swap1\n      revert\n    tag_365:\n        /* \"contracts/Staking.sol\":8458:8459  0 */\n      0x00\n        /* \"contracts/Staking.sol\":8445:8455  _minAmount */\n      dup2\n        /* \"contracts/Staking.sol\":8445:8459  _minAmount > 0 */\n      gt\n        /* \"contracts/Staking.sol\":8436:8477  require (_minAmount > 0, \"Can't be zero\") */\n      tag_368\n      jumpi\n      mload(0x40)\n      0x08c379a000000000000000000000000000000000000000000000000000000000\n      dup2\n      mstore\n      0x04\n      add\n      tag_369\n      swap1\n      tag_150\n      jump\t// in\n    tag_369:\n      mload(0x40)\n      dup1\n      swap2\n      sub\n      swap1\n      revert\n    tag_368:\n        /* \"contracts/Staking.sol\":8510:8520  _minAmount */\n      dup1\n        /* \"contracts/Staking.sol\":8490:8507  _minStakeAmount_m */\n      0x06\n        /* \"contracts/Staking.sol\":8490:8520  _minStakeAmount_m = _minAmount */\n      dup2\n      swap1\n      sstore\n      pop\n        /* \"contracts/Staking.sol\":8344:8528  function setThreeMonthMinAmount(uint256 _minAmount) external onlyOwner {... */\n      pop\n      jump\t// out\n        /* \"contracts/Staking.sol\":5441:5601  function lockupPeriod(uint256 mode) public view returns (uint256) {... */\n    tag_120:\n        /* \"contracts/Staking.sol\":5498:5505  uint256 */\n      0x00\n        /* \"contracts/Staking.sol\":5540:5541  0 */\n      dup1\n        /* \"contracts/Staking.sol\":5532:5536  mode */\n      dup3\n        /* \"contracts/Staking.sol\":5532:5541  mode == 0 */\n      eq\n        /* \"contracts/Staking.sol\":5528:5563  if (mode == 0) return _lockupPeriod */\n      iszero\n      tag_371\n      jumpi\n        /* \"contracts/Staking.sol\":5550:5563  _lockupPeriod */\n      sload(0x05)\n        /* \"contracts/Staking.sol\":5543:5563  return _lockupPeriod */\n      swap1\n      pop\n      jump(tag_370)\n        /* \"contracts/Staking.sol\":5528:5563  if (mode == 0) return _lockupPeriod */\n    tag_371:\n        /* \"contracts/Staking.sol\":5581:5593  _eventPeriod */\n      sload(0x02)\n        /* \"contracts/Staking.sol\":5574:5593  return _eventPeriod */\n      swap1\n      pop\n        /* \"contracts/Staking.sol\":5441:5601  function lockupPeriod(uint256 mode) public view returns (uint256) {... */\n    tag_370:\n      swap2\n      swap1\n      pop\n      jump\t// out\n        /* \"@openzeppelin/contracts/access/Ownable.sol\":1918:2116  function transferOwnership(address newOwner) public virtual onlyOwner {... */\n    tag_124:\n        /* \"@openzeppelin/contracts/access/Ownable.sol\":1259:1271  _msgSender() */\n      tag_373\n        /* \"@openzeppelin/contracts/access/Ownable.sol\":1259:1269  _msgSender */\n      tag_142\n        /* \"@openzeppelin/contracts/access/Ownable.sol\":1259:1271  _msgSender() */\n      jump\t// in\n    tag_373:\n        /* \"@openzeppelin/contracts/access/Ownable.sol\":1248:1271  owner() == _msgSender() */\n      0xffffffffffffffffffffffffffffffffffffffff\n      and\n        /* \"@openzeppelin/contracts/access/Ownable.sol\":1248:1255  owner() */\n      tag_374\n        /* \"@openzeppelin/contracts/access/Ownable.sol\":1248:1253  owner */\n      tag_89\n        /* \"@openzeppelin/contracts/access/Ownable.sol\":1248:1255  owner() */\n      jump\t// in\n    tag_374:\n        /* \"@openzeppelin/contracts/access/Ownable.sol\":1248:1271  owner() == _msgSender() */\n      0xffffffffffffffffffffffffffffffffffffffff\n      and\n      eq\n        /* \"@openzeppelin/contracts/access/Ownable.sol\":1240:1308  require(owner() == _msgSender(), \"Ownable: caller is not the owner\") */\n      tag_375\n      jumpi\n      mload(0x40)\n      0x08c379a000000000000000000000000000000000000000000000000000000000\n      dup2\n      mstore\n      0x04\n      add\n      tag_376\n      swap1\n      tag_146\n      jump\t// in\n    tag_376:\n      mload(0x40)\n      dup1\n      swap2\n      sub\n      swap1\n      revert\n    tag_375:\n        /* \"@openzeppelin/contracts/access/Ownable.sol\":2026:2027  0 */\n      0x00\n        /* \"@openzeppelin/contracts/access/Ownable.sol\":2006:2028  newOwner != address(0) */\n      0xffffffffffffffffffffffffffffffffffffffff\n      and\n        /* \"@openzeppelin/contracts/access/Ownable.sol\":2006:2014  newOwner */\n      dup2\n        /* \"@openzeppelin/contracts/access/Ownable.sol\":2006:2028  newOwner != address(0) */\n      0xffffffffffffffffffffffffffffffffffffffff\n      and\n      eq\n      iszero\n        /* \"@openzeppelin/contracts/access/Ownable.sol\":1998:2071  require(newOwner != address(0), \"Ownable: new owner is the zero address\") */\n      tag_378\n      jumpi\n      mload(0x40)\n      0x08c379a000000000000000000000000000000000000000000000000000000000\n      dup2\n      mstore\n      0x04\n      add\n      tag_379\n      swap1\n      tag_380\n      jump\t// in\n    tag_379:\n      mload(0x40)\n      dup1\n      swap2\n      sub\n      swap1\n      revert\n    tag_378:\n        /* \"@openzeppelin/contracts/access/Ownable.sol\":2081:2109  _transferOwnership(newOwner) */\n      tag_381\n        /* \"@openzeppelin/contracts/access/Ownable.sol\":2100:2108  newOwner */\n      dup2\n        /* \"@openzeppelin/contracts/access/Ownable.sol\":2081:2099  _transferOwnership */\n      tag_289\n        /* \"@openzeppelin/contracts/access/Ownable.sol\":2081:2109  _transferOwnership(newOwner) */\n      jump\t// in\n    tag_381:\n        /* \"@openzeppelin/contracts/access/Ownable.sol\":1918:2116  function transferOwnership(address newOwner) public virtual onlyOwner {... */\n      pop\n      jump\t// out\n        /* \"contracts/Staking.sol\":5195:5331  function stakedAmount(address _address) public view returns (uint256) {... */\n    tag_127:\n        /* \"contracts/Staking.sol\":5256:5263  uint256 */\n      0x00\n        /* \"contracts/Staking.sol\":5293:5300  _staker */\n      0x0b\n        /* \"contracts/Staking.sol\":5293:5310  _staker[_address] */\n      0x00\n        /* \"contracts/Staking.sol\":5301:5309  _address */\n      dup4\n        /* \"contracts/Staking.sol\":5293:5310  _staker[_address] */\n      0xffffffffffffffffffffffffffffffffffffffff\n      and\n      0xffffffffffffffffffffffffffffffffffffffff\n      and\n      dup2\n      mstore\n      0x20\n      add\n      swap1\n      dup2\n      mstore\n      0x20\n      add\n      0x00\n      keccak256\n        /* \"contracts/Staking.sol\":5293:5323  _staker[_address].stakedAmount */\n      0x01\n      add\n      sload\n        /* \"contracts/Staking.sol\":5286:5323  return _staker[_address].stakedAmount */\n      swap1\n      pop\n        /* \"contracts/Staking.sol\":5195:5331  function stakedAmount(address _address) public view returns (uint256) {... */\n      swap2\n      swap1\n      pop\n      jump\t// out\n        /* \"contracts/Staking.sol\":1239:1258  IBEP20 public token */\n    tag_130:\n      0x0d\n      0x00\n      swap1\n      sload\n      swap1\n      0x0100\n      exp\n      swap1\n      div\n      0xffffffffffffffffffffffffffffffffffffffff\n      and\n      dup2\n      jump\t// out\n        /* \"contracts/Staking.sol\":4634:4758  function isStartStaking(address _address) public view returns (uint256) {... */\n    tag_135:\n        /* \"contracts/Staking.sol\":4697:4704  uint256 */\n      0x00\n        /* \"contracts/Staking.sol\":4726:4733  _staker */\n      0x0b\n        /* \"contracts/Staking.sol\":4726:4743  _staker[_address] */\n      0x00\n        /* \"contracts/Staking.sol\":4734:4742  _address */\n      dup4\n        /* \"contracts/Staking.sol\":4726:4743  _staker[_address] */\n      0xffffffffffffffffffffffffffffffffffffffff\n      and\n      0xffffffffffffffffffffffffffffffffffffffff\n      and\n      dup2\n      mstore\n      0x20\n      add\n      swap1\n      dup2\n      mstore\n      0x20\n      add\n      0x00\n      keccak256\n        /* \"contracts/Staking.sol\":4726:4750  _staker[_address].staked */\n      0x05\n      add\n      sload\n        /* \"contracts/Staking.sol\":4719:4750  return _staker[_address].staked */\n      swap1\n      pop\n        /* \"contracts/Staking.sol\":4634:4758  function isStartStaking(address _address) public view returns (uint256) {... */\n      swap2\n      swap1\n      pop\n      jump\t// out\n        /* \"@openzeppelin/contracts/utils/Context.sol\":640:736  function _msgSender() internal view virtual returns (address) {... */\n    tag_142:\n        /* \"@openzeppelin/contracts/utils/Context.sol\":693:700  address */\n      0x00\n        /* \"@openzeppelin/contracts/utils/Context.sol\":719:729  msg.sender */\n      caller\n        /* \"@openzeppelin/contracts/utils/Context.sol\":712:729  return msg.sender */\n      swap1\n      pop\n        /* \"@openzeppelin/contracts/utils/Context.sol\":640:736  function _msgSender() internal view virtual returns (address) {... */\n      swap1\n      jump\t// out\n        /* \"contracts/Staking.sol\":2200:2654  function updateReward() private{... */\n    tag_159:\n        /* \"contracts/Staking.sol\":2252:2278  uint256 stakerStakedAmount */\n      0x00\n        /* \"contracts/Staking.sol\":2281:2288  _staker */\n      0x0b\n        /* \"contracts/Staking.sol\":2281:2300  _staker[msg.sender] */\n      0x00\n        /* \"contracts/Staking.sol\":2289:2299  msg.sender */\n      caller\n        /* \"contracts/Staking.sol\":2281:2300  _staker[msg.sender] */\n      0xffffffffffffffffffffffffffffffffffffffff\n      and\n      0xffffffffffffffffffffffffffffffffffffffff\n      and\n      dup2\n      mstore\n      0x20\n      add\n      swap1\n      dup2\n      mstore\n      0x20\n      add\n      0x00\n      keccak256\n        /* \"contracts/Staking.sol\":2281:2313  _staker[msg.sender].stakedAmount */\n      0x01\n      add\n      sload\n        /* \"contracts/Staking.sol\":2252:2313  uint256 stakerStakedAmount = _staker[msg.sender].stakedAmount */\n      swap1\n      pop\n        /* \"contracts/Staking.sol\":2334:2351  uint256 newReward */\n      0x00\n        /* \"contracts/Staking.sol\":2354:2475  stakerStakedAmount.mul(block.timestamp.sub(_staker[msg.sender].lastUpdatedTime)).mul(_rewardRate).div(1 minutes).div(1e4) */\n      tag_386\n        /* \"contracts/Staking.sol\":2471:2474  1e4 */\n      0x2710\n        /* \"contracts/Staking.sol\":2354:2466  stakerStakedAmount.mul(block.timestamp.sub(_staker[msg.sender].lastUpdatedTime)).mul(_rewardRate).div(1 minutes) */\n      tag_387\n        /* \"contracts/Staking.sol\":2456:2465  1 minutes */\n      0x3c\n        /* \"contracts/Staking.sol\":2354:2451  stakerStakedAmount.mul(block.timestamp.sub(_staker[msg.sender].lastUpdatedTime)).mul(_rewardRate) */\n      tag_388\n        /* \"contracts/Staking.sol\":2439:2450  _rewardRate */\n      sload(0x03)\n        /* \"contracts/Staking.sol\":2354:2434  stakerStakedAmount.mul(block.timestamp.sub(_staker[msg.sender].lastUpdatedTime)) */\n      tag_389\n        /* \"contracts/Staking.sol\":2377:2433  block.timestamp.sub(_staker[msg.sender].lastUpdatedTime) */\n      tag_390\n        /* \"contracts/Staking.sol\":2397:2404  _staker */\n      0x0b\n        /* \"contracts/Staking.sol\":2397:2416  _staker[msg.sender] */\n      0x00\n        /* \"contracts/Staking.sol\":2405:2415  msg.sender */\n      caller\n        /* \"contracts/Staking.sol\":2397:2416  _staker[msg.sender] */\n      0xffffffffffffffffffffffffffffffffffffffff\n      and\n      0xffffffffffffffffffffffffffffffffffffffff\n      and\n      dup2\n      mstore\n      0x20\n      add\n      swap1\n      dup2\n      mstore\n      0x20\n      add\n      0x00\n      keccak256\n        /* \"contracts/Staking.sol\":2397:2432  _staker[msg.sender].lastUpdatedTime */\n      0x04\n      add\n      sload\n        /* \"contracts/Staking.sol\":2377:2392  block.timestamp */\n      timestamp\n        /* \"contracts/Staking.sol\":2377:2396  block.timestamp.sub */\n      tag_162\n      swap1\n        /* \"contracts/Staking.sol\":2377:2433  block.timestamp.sub(_staker[msg.sender].lastUpdatedTime) */\n      swap2\n      swap1\n      0xffffffff\n      and\n      jump\t// in\n    tag_390:\n        /* \"contracts/Staking.sol\":2354:2372  stakerStakedAmount */\n      dup10\n        /* \"contracts/Staking.sol\":2354:2376  stakerStakedAmount.mul */\n      tag_167\n      swap1\n        /* \"contracts/Staking.sol\":2354:2434  stakerStakedAmount.mul(block.timestamp.sub(_staker[msg.sender].lastUpdatedTime)) */\n      swap2\n      swap1\n      0xffffffff\n      and\n      jump\t// in\n    tag_389:\n        /* \"contracts/Staking.sol\":2354:2438  stakerStakedAmount.mul(block.timestamp.sub(_staker[msg.sender].lastUpdatedTime)).mul */\n      tag_167\n      swap1\n        /* \"contracts/Staking.sol\":2354:2451  stakerStakedAmount.mul(block.timestamp.sub(_staker[msg.sender].lastUpdatedTime)).mul(_rewardRate) */\n      swap2\n      swap1\n      0xffffffff\n      and\n      jump\t// in\n    tag_388:\n        /* \"contracts/Staking.sol\":2354:2455  stakerStakedAmount.mul(block.timestamp.sub(_staker[msg.sender].lastUpdatedTime)).mul(_rewardRate).div */\n      tag_163\n      swap1\n        /* \"contracts/Staking.sol\":2354:2466  stakerStakedAmount.mul(block.timestamp.sub(_staker[msg.sender].lastUpdatedTime)).mul(_rewardRate).div(1 minutes) */\n      swap2\n      swap1\n      0xffffffff\n      and\n      jump\t// in\n    tag_387:\n        /* \"contracts/Staking.sol\":2354:2470  stakerStakedAmount.mul(block.timestamp.sub(_staker[msg.sender].lastUpdatedTime)).mul(_rewardRate).div(1 minutes).div */\n      tag_163\n      swap1\n        /* \"contracts/Staking.sol\":2354:2475  stakerStakedAmount.mul(block.timestamp.sub(_staker[msg.sender].lastUpdatedTime)).mul(_rewardRate).div(1 minutes).div(1e4) */\n      swap2\n      swap1\n      0xffffffff\n      and\n      jump\t// in\n    tag_386:\n        /* \"contracts/Staking.sol\":2334:2475  uint256 newReward = stakerStakedAmount.mul(block.timestamp.sub(_staker[msg.sender].lastUpdatedTime)).mul(_rewardRate).div(1 minutes).div(1e4) */\n      swap1\n      pop\n        /* \"contracts/Staking.sol\":2528:2582  _staker[msg.sender].stakerCurrentReward.add(newReward) */\n      tag_391\n        /* \"contracts/Staking.sol\":2572:2581  newReward */\n      dup2\n        /* \"contracts/Staking.sol\":2528:2535  _staker */\n      0x0b\n        /* \"contracts/Staking.sol\":2528:2547  _staker[msg.sender] */\n      0x00\n        /* \"contracts/Staking.sol\":2536:2546  msg.sender */\n      caller\n        /* \"contracts/Staking.sol\":2528:2547  _staker[msg.sender] */\n      0xffffffffffffffffffffffffffffffffffffffff\n      and\n      0xffffffffffffffffffffffffffffffffffffffff\n      and\n      dup2\n      mstore\n      0x20\n      add\n      swap1\n      dup2\n      mstore\n      0x20\n      add\n      0x00\n      keccak256\n        /* \"contracts/Staking.sol\":2528:2567  _staker[msg.sender].stakerCurrentReward */\n      0x00\n      add\n      sload\n        /* \"contracts/Staking.sol\":2528:2571  _staker[msg.sender].stakerCurrentReward.add */\n      tag_168\n      swap1\n        /* \"contracts/Staking.sol\":2528:2582  _staker[msg.sender].stakerCurrentReward.add(newReward) */\n      swap2\n      swap1\n      0xffffffff\n      and\n      jump\t// in\n    tag_391:\n        /* \"contracts/Staking.sol\":2486:2493  _staker */\n      0x0b\n        /* \"contracts/Staking.sol\":2486:2505  _staker[msg.sender] */\n      0x00\n        /* \"contracts/Staking.sol\":2494:2504  msg.sender */\n      caller\n        /* \"contracts/Staking.sol\":2486:2505  _staker[msg.sender] */\n      0xffffffffffffffffffffffffffffffffffffffff\n      and\n      0xffffffffffffffffffffffffffffffffffffffff\n      and\n      dup2\n      mstore\n      0x20\n      add\n      swap1\n      dup2\n      mstore\n      0x20\n      add\n      0x00\n      keccak256\n        /* \"contracts/Staking.sol\":2486:2525  _staker[msg.sender].stakerCurrentReward */\n      0x00\n      add\n        /* \"contracts/Staking.sol\":2486:2582  _staker[msg.sender].stakerCurrentReward = _staker[msg.sender].stakerCurrentReward.add(newReward) */\n      dup2\n      swap1\n      sstore\n      pop\n        /* \"contracts/Staking.sol\":2631:2646  block.timestamp */\n      timestamp\n        /* \"contracts/Staking.sol\":2593:2600  _staker */\n      0x0b\n        /* \"contracts/Staking.sol\":2593:2612  _staker[msg.sender] */\n      0x00\n        /* \"contracts/Staking.sol\":2601:2611  msg.sender */\n      caller\n        /* \"contracts/Staking.sol\":2593:2612  _staker[msg.sender] */\n      0xffffffffffffffffffffffffffffffffffffffff\n      and\n      0xffffffffffffffffffffffffffffffffffffffff\n      and\n      dup2\n      mstore\n      0x20\n      add\n      swap1\n      dup2\n      mstore\n      0x20\n      add\n      0x00\n      keccak256\n        /* \"contracts/Staking.sol\":2593:2628  _staker[msg.sender].lastUpdatedTime */\n      0x04\n      add\n        /* \"contracts/Staking.sol\":2593:2646  _staker[msg.sender].lastUpdatedTime = block.timestamp */\n      dup2\n      swap1\n      sstore\n      pop\n        /* \"contracts/Staking.sol\":2231:2654  {... */\n      pop\n      pop\n        /* \"contracts/Staking.sol\":2200:2654  function updateReward() private{... */\n      jump\t// out\n        /* \"@openzeppelin/contracts/utils/math/SafeMath.sol\":3108:3204  function sub(uint256 a, uint256 b) internal pure returns (uint256) {... */\n    tag_162:\n        /* \"@openzeppelin/contracts/utils/math/SafeMath.sol\":3166:3173  uint256 */\n      0x00\n        /* \"@openzeppelin/contracts/utils/math/SafeMath.sol\":3196:3197  b */\n      dup2\n        /* \"@openzeppelin/contracts/utils/math/SafeMath.sol\":3192:3193  a */\n      dup4\n        /* \"@openzeppelin/contracts/utils/math/SafeMath.sol\":3192:3197  a - b */\n      tag_393\n      swap2\n      swap1\n      tag_394\n      jump\t// in\n    tag_393:\n        /* \"@openzeppelin/contracts/utils/math/SafeMath.sol\":3185:3197  return a - b */\n      swap1\n      pop\n        /* \"@openzeppelin/contracts/utils/math/SafeMath.sol\":3108:3204  function sub(uint256 a, uint256 b) internal pure returns (uint256) {... */\n      swap3\n      swap2\n      pop\n      pop\n      jump\t// out\n        /* \"@openzeppelin/contracts/utils/math/SafeMath.sol\":3836:3932  function div(uint256 a, uint256 b) internal pure returns (uint256) {... */\n    tag_163:\n        /* \"@openzeppelin/contracts/utils/math/SafeMath.sol\":3894:3901  uint256 */\n      0x00\n        /* \"@openzeppelin/contracts/utils/math/SafeMath.sol\":3924:3925  b */\n      dup2\n        /* \"@openzeppelin/contracts/utils/math/SafeMath.sol\":3920:3921  a */\n      dup4\n        /* \"@openzeppelin/contracts/utils/math/SafeMath.sol\":3920:3925  a / b */\n      tag_396\n      swap2\n      swap1\n      tag_397\n      jump\t// in\n    tag_396:\n        /* \"@openzeppelin/contracts/utils/math/SafeMath.sol\":3913:3925  return a / b */\n      swap1\n      pop\n        /* \"@openzeppelin/contracts/utils/math/SafeMath.sol\":3836:3932  function div(uint256 a, uint256 b) internal pure returns (uint256) {... */\n      swap3\n      swap2\n      pop\n      pop\n      jump\t// out\n        /* \"@openzeppelin/contracts/utils/math/SafeMath.sol\":3451:3547  function mul(uint256 a, uint256 b) internal pure returns (uint256) {... */\n    tag_167:\n        /* \"@openzeppelin/contracts/utils/math/SafeMath.sol\":3509:3516  uint256 */\n      0x00\n        /* \"@openzeppelin/contracts/utils/math/SafeMath.sol\":3539:3540  b */\n      dup2\n        /* \"@openzeppelin/contracts/utils/math/SafeMath.sol\":3535:3536  a */\n      dup4\n        /* \"@openzeppelin/contracts/utils/math/SafeMath.sol\":3535:3540  a * b */\n      tag_399\n      swap2\n      swap1\n      tag_400\n      jump\t// in\n    tag_399:\n        /* \"@openzeppelin/contracts/utils/math/SafeMath.sol\":3528:3540  return a * b */\n      swap1\n      pop\n        /* \"@openzeppelin/contracts/utils/math/SafeMath.sol\":3451:3547  function mul(uint256 a, uint256 b) internal pure returns (uint256) {... */\n      swap3\n      swap2\n      pop\n      pop\n      jump\t// out\n        /* \"@openzeppelin/contracts/utils/math/SafeMath.sol\":2741:2837  function add(uint256 a, uint256 b) internal pure returns (uint256) {... */\n    tag_168:\n        /* \"@openzeppelin/contracts/utils/math/SafeMath.sol\":2799:2806  uint256 */\n      0x00\n        /* \"@openzeppelin/contracts/utils/math/SafeMath.sol\":2829:2830  b */\n      dup2\n        /* \"@openzeppelin/contracts/utils/math/SafeMath.sol\":2825:2826  a */\n      dup4\n        /* \"@openzeppelin/contracts/utils/math/SafeMath.sol\":2825:2830  a + b */\n      tag_402\n      swap2\n      swap1\n      tag_281\n      jump\t// in\n    tag_402:\n        /* \"@openzeppelin/contracts/utils/math/SafeMath.sol\":2818:2830  return a + b */\n      swap1\n      pop\n        /* \"@openzeppelin/contracts/utils/math/SafeMath.sol\":2741:2837  function add(uint256 a, uint256 b) internal pure returns (uint256) {... */\n      swap3\n      swap2\n      pop\n      pop\n      jump\t// out\n        /* \"contracts/SafeBEP20.sol\":290:467  function safeTransfer(IBEP20 token, address to, uint256 value) internal {... */\n    tag_180:\n        /* \"contracts/SafeBEP20.sol\":373:459  _callOptionalReturn(token, abi.encodeWithSelector(token.transfer.selector, to, value)) */\n      tag_404\n        /* \"contracts/SafeBEP20.sol\":393:398  token */\n      dup4\n        /* \"contracts/SafeBEP20.sol\":423:446  token.transfer.selector */\n      shl(0xe0, 0xa9059cbb)\n        /* \"contracts/SafeBEP20.sol\":448:450  to */\n      dup5\n        /* \"contracts/SafeBEP20.sol\":452:457  value */\n      dup5\n        /* \"contracts/SafeBEP20.sol\":400:458  abi.encodeWithSelector(token.transfer.selector, to, value) */\n      add(0x24, mload(0x40))\n      tag_405\n      swap3\n      swap2\n      swap1\n      tag_182\n      jump\t// in\n    tag_405:\n      mload(0x40)\n      0x20\n      dup2\n      dup4\n      sub\n      sub\n      dup2\n      mstore\n      swap1\n      0x40\n      mstore\n      swap1\n      not(0xffffffffffffffffffffffffffffffffffffffffffffffffffffffff)\n      and\n      0x20\n      dup3\n      add\n      dup1\n      mload\n      0xffffffffffffffffffffffffffffffffffffffffffffffffffffffff\n      dup4\n      dup2\n      dup4\n      and\n      or\n      dup4\n      mstore\n      pop\n      pop\n      pop\n      pop\n        /* \"contracts/SafeBEP20.sol\":373:392  _callOptionalReturn */\n      tag_406\n        /* \"contracts/SafeBEP20.sol\":373:459  _callOptionalReturn(token, abi.encodeWithSelector(token.transfer.selector, to, value)) */\n      jump\t// in\n    tag_404:\n        /* \"contracts/SafeBEP20.sol\":290:467  function safeTransfer(IBEP20 token, address to, uint256 value) internal {... */\n      pop\n      pop\n      pop\n      jump\t// out\n        /* \"@openzeppelin/contracts/access/Ownable.sol\":2270:2457  function _transferOwnership(address newOwner) internal virtual {... */\n    tag_289:\n        /* \"@openzeppelin/contracts/access/Ownable.sol\":2343:2359  address oldOwner */\n      0x00\n        /* \"@openzeppelin/contracts/access/Ownable.sol\":2362:2368  _owner */\n      dup1\n      0x00\n      swap1\n      sload\n      swap1\n      0x0100\n      exp\n      swap1\n      div\n      0xffffffffffffffffffffffffffffffffffffffff\n      and\n        /* \"@openzeppelin/contracts/access/Ownable.sol\":2343:2368  address oldOwner = _owner */\n      swap1\n      pop\n        /* \"@openzeppelin/contracts/access/Ownable.sol\":2387:2395  newOwner */\n      dup2\n        /* \"@openzeppelin/contracts/access/Ownable.sol\":2378:2384  _owner */\n      0x00\n      dup1\n        /* \"@openzeppelin/contracts/access/Ownable.sol\":2378:2395  _owner = newOwner */\n      0x0100\n      exp\n      dup2\n      sload\n      dup2\n      0xffffffffffffffffffffffffffffffffffffffff\n      mul\n      not\n      and\n      swap1\n      dup4\n      0xffffffffffffffffffffffffffffffffffffffff\n      and\n      mul\n      or\n      swap1\n      sstore\n      pop\n        /* \"@openzeppelin/contracts/access/Ownable.sol\":2441:2449  newOwner */\n      dup2\n        /* \"@openzeppelin/contracts/access/Ownable.sol\":2410:2450  OwnershipTransferred(oldOwner, newOwner) */\n      0xffffffffffffffffffffffffffffffffffffffff\n      and\n        /* \"@openzeppelin/contracts/access/Ownable.sol\":2431:2439  oldOwner */\n      dup2\n        /* \"@openzeppelin/contracts/access/Ownable.sol\":2410:2450  OwnershipTransferred(oldOwner, newOwner) */\n      0xffffffffffffffffffffffffffffffffffffffff\n      and\n      0x8be0079c531659141344cd1fd0a4f28419497f9722a3daafe3b4186f6b6457e0\n      mload(0x40)\n      mload(0x40)\n      dup1\n      swap2\n      sub\n      swap1\n      log3\n        /* \"@openzeppelin/contracts/access/Ownable.sol\":2333:2457  {... */\n      pop\n        /* \"@openzeppelin/contracts/access/Ownable.sol\":2270:2457  function _transferOwnership(address newOwner) internal virtual {... */\n      pop\n      jump\t// out\n        /* \"contracts/SafeBEP20.sol\":475:680  function safeTransferFrom(IBEP20 token, address from, address to, uint256 value) internal {... */\n    tag_337:\n        /* \"contracts/SafeBEP20.sol\":576:672  _callOptionalReturn(token, abi.encodeWithSelector(token.transferFrom.selector, from, to, value)) */\n      tag_409\n        /* \"contracts/SafeBEP20.sol\":596:601  token */\n      dup5\n        /* \"contracts/SafeBEP20.sol\":626:653  token.transferFrom.selector */\n      shl(0xe0, 0x23b872dd)\n        /* \"contracts/SafeBEP20.sol\":655:659  from */\n      dup6\n        /* \"contracts/SafeBEP20.sol\":661:663  to */\n      dup6\n        /* \"contracts/SafeBEP20.sol\":665:670  value */\n      dup6\n        /* \"contracts/SafeBEP20.sol\":603:671  abi.encodeWithSelector(token.transferFrom.selector, from, to, value) */\n      add(0x24, mload(0x40))\n      tag_410\n      swap4\n      swap3\n      swap2\n      swap1\n      tag_411\n      jump\t// in\n    tag_410:\n      mload(0x40)\n      0x20\n      dup2\n      dup4\n      sub\n      sub\n      dup2\n      mstore\n      swap1\n      0x40\n      mstore\n      swap1\n      not(0xffffffffffffffffffffffffffffffffffffffffffffffffffffffff)\n      and\n      0x20\n      dup3\n      add\n      dup1\n      mload\n      0xffffffffffffffffffffffffffffffffffffffffffffffffffffffff\n      dup4\n      dup2\n      dup4\n      and\n      or\n      dup4\n      mstore\n      pop\n      pop\n      pop\n      pop\n        /* \"contracts/SafeBEP20.sol\":576:595  _callOptionalReturn */\n      tag_406\n        /* \"contracts/SafeBEP20.sol\":576:672  _callOptionalReturn(token, abi.encodeWithSelector(token.transferFrom.selector, from, to, value)) */\n      jump\t// in\n    tag_409:\n        /* \"contracts/SafeBEP20.sol\":475:680  function safeTransferFrom(IBEP20 token, address from, address to, uint256 value) internal {... */\n      pop\n      pop\n      pop\n      pop\n      jump\t// out\n        /* \"contracts/SafeBEP20.sol\":2599:3368  function _callOptionalReturn(IBEP20 token, bytes memory data) private {... */\n    tag_406:\n        /* \"contracts/SafeBEP20.sol\":3031:3054  bytes memory returndata */\n      0x00\n        /* \"contracts/SafeBEP20.sol\":3057:3126  address(token).functionCall(data, \"SafeBEP20: low-level call failed\") */\n      tag_413\n        /* \"contracts/SafeBEP20.sol\":3085:3089  data */\n      dup3\n        /* \"contracts/SafeBEP20.sol\":3057:3126  address(token).functionCall(data, \"SafeBEP20: low-level call failed\") */\n      mload(0x40)\n      dup1\n      0x40\n      add\n      0x40\n      mstore\n      dup1\n      0x20\n      dup2\n      mstore\n      0x20\n      add\n      0x5361666542455032303a206c6f772d6c6576656c2063616c6c206661696c6564\n      dup2\n      mstore\n      pop\n        /* \"contracts/SafeBEP20.sol\":3065:3070  token */\n      dup6\n        /* \"contracts/SafeBEP20.sol\":3057:3084  address(token).functionCall */\n      0xffffffffffffffffffffffffffffffffffffffff\n      and\n      tag_414\n      swap1\n        /* \"contracts/SafeBEP20.sol\":3057:3126  address(token).functionCall(data, \"SafeBEP20: low-level call failed\") */\n      swap3\n      swap2\n      swap1\n      0xffffffff\n      and\n      jump\t// in\n    tag_413:\n        /* \"contracts/SafeBEP20.sol\":3031:3126  bytes memory returndata = address(token).functionCall(data, \"SafeBEP20: low-level call failed\") */\n      swap1\n      pop\n        /* \"contracts/SafeBEP20.sol\":3161:3162  0 */\n      0x00\n        /* \"contracts/SafeBEP20.sol\":3141:3151  returndata */\n      dup2\n        /* \"contracts/SafeBEP20.sol\":3141:3158  returndata.length */\n      mload\n        /* \"contracts/SafeBEP20.sol\":3141:3162  returndata.length > 0 */\n      gt\n        /* \"contracts/SafeBEP20.sol\":3137:3361  if (returndata.length > 0) { // Return data is optional... */\n      iszero\n      tag_415\n      jumpi\n        /* \"contracts/SafeBEP20.sol\":3283:3293  returndata */\n      dup1\n        /* \"contracts/SafeBEP20.sol\":3272:3302  abi.decode(returndata, (bool)) */\n      dup1\n      0x20\n      add\n      swap1\n      mload\n      dup2\n      add\n      swap1\n      tag_416\n      swap2\n      swap1\n      tag_417\n      jump\t// in\n    tag_416:\n        /* \"contracts/SafeBEP20.sol\":3264:3349  require(abi.decode(returndata, (bool)), \"SafeBEP20: BEP20 operation did not succeed\") */\n      tag_418\n      jumpi\n      mload(0x40)\n      0x08c379a000000000000000000000000000000000000000000000000000000000\n      dup2\n      mstore\n      0x04\n      add\n      tag_419\n      swap1\n      tag_420\n      jump\t// in\n    tag_419:\n      mload(0x40)\n      dup1\n      swap2\n      sub\n      swap1\n      revert\n    tag_418:\n        /* \"contracts/SafeBEP20.sol\":3137:3361  if (returndata.length > 0) { // Return data is optional... */\n    tag_415:\n        /* \"contracts/SafeBEP20.sol\":2669:3368  {... */\n      pop\n        /* \"contracts/SafeBEP20.sol\":2599:3368  function _callOptionalReturn(IBEP20 token, bytes memory data) private {... */\n      pop\n      pop\n      jump\t// out\n        /* \"@openzeppelin/contracts/utils/Address.sol\":3861:4084  function functionCall(... */\n    tag_414:\n        /* \"@openzeppelin/contracts/utils/Address.sol\":3994:4006  bytes memory */\n      0x60\n        /* \"@openzeppelin/contracts/utils/Address.sol\":4025:4077  functionCallWithValue(target, data, 0, errorMessage) */\n      tag_422\n        /* \"@openzeppelin/contracts/utils/Address.sol\":4047:4053  target */\n      dup5\n        /* \"@openzeppelin/contracts/utils/Address.sol\":4055:4059  data */\n      dup5\n        /* \"@openzeppelin/contracts/utils/Address.sol\":4061:4062  0 */\n      0x00\n        /* \"@openzeppelin/contracts/utils/Address.sol\":4064:4076  errorMessage */\n      dup6\n        /* \"@openzeppelin/contracts/utils/Address.sol\":4025:4046  functionCallWithValue */\n      tag_423\n        /* \"@openzeppelin/contracts/utils/Address.sol\":4025:4077  functionCallWithValue(target, data, 0, errorMessage) */\n      jump\t// in\n    tag_422:\n        /* \"@openzeppelin/contracts/utils/Address.sol\":4018:4077  return functionCallWithValue(target, data, 0, errorMessage) */\n      swap1\n      pop\n        /* \"@openzeppelin/contracts/utils/Address.sol\":3861:4084  function functionCall(... */\n      swap4\n      swap3\n      pop\n      pop\n      pop\n      jump\t// out\n        /* \"@openzeppelin/contracts/utils/Address.sol\":4948:5447  function functionCallWithValue(... */\n    tag_423:\n        /* \"@openzeppelin/contracts/utils/Address.sol\":5113:5125  bytes memory */\n      0x60\n        /* \"@openzeppelin/contracts/utils/Address.sol\":5170:5175  value */\n      dup3\n        /* \"@openzeppelin/contracts/utils/Address.sol\":5145:5166  address(this).balance */\n      selfbalance\n        /* \"@openzeppelin/contracts/utils/Address.sol\":5145:5175  address(this).balance >= value */\n      lt\n      iszero\n        /* \"@openzeppelin/contracts/utils/Address.sol\":5137:5218  require(address(this).balance >= value, \"Address: insufficient balance for call\") */\n      tag_425\n      jumpi\n      mload(0x40)\n      0x08c379a000000000000000000000000000000000000000000000000000000000\n      dup2\n      mstore\n      0x04\n      add\n      tag_426\n      swap1\n      tag_427\n      jump\t// in\n    tag_426:\n      mload(0x40)\n      dup1\n      swap2\n      sub\n      swap1\n      revert\n    tag_425:\n        /* \"@openzeppelin/contracts/utils/Address.sol\":5236:5254  isContract(target) */\n      tag_428\n        /* \"@openzeppelin/contracts/utils/Address.sol\":5247:5253  target */\n      dup6\n        /* \"@openzeppelin/contracts/utils/Address.sol\":5236:5246  isContract */\n      tag_429\n        /* \"@openzeppelin/contracts/utils/Address.sol\":5236:5254  isContract(target) */\n      jump\t// in\n    tag_428:\n        /* \"@openzeppelin/contracts/utils/Address.sol\":5228:5288  require(isContract(target), \"Address: call to non-contract\") */\n      tag_430\n      jumpi\n      mload(0x40)\n      0x08c379a000000000000000000000000000000000000000000000000000000000\n      dup2\n      mstore\n      0x04\n      add\n      tag_431\n      swap1\n      tag_432\n      jump\t// in\n    tag_431:\n      mload(0x40)\n      dup1\n      swap2\n      sub\n      swap1\n      revert\n    tag_430:\n        /* \"@openzeppelin/contracts/utils/Address.sol\":5300:5312  bool success */\n      0x00\n        /* \"@openzeppelin/contracts/utils/Address.sol\":5314:5337  bytes memory returndata */\n      dup1\n        /* \"@openzeppelin/contracts/utils/Address.sol\":5341:5347  target */\n      dup7\n        /* \"@openzeppelin/contracts/utils/Address.sol\":5341:5352  target.call */\n      0xffffffffffffffffffffffffffffffffffffffff\n      and\n        /* \"@openzeppelin/contracts/utils/Address.sol\":5360:5365  value */\n      dup6\n        /* \"@openzeppelin/contracts/utils/Address.sol\":5367:5371  data */\n      dup8\n        /* \"@openzeppelin/contracts/utils/Address.sol\":5341:5372  target.call{value: value}(data) */\n      mload(0x40)\n      tag_433\n      swap2\n      swap1\n      tag_434\n      jump\t// in\n    tag_433:\n      0x00\n      mload(0x40)\n      dup1\n      dup4\n      sub\n      dup2\n      dup6\n      dup8\n      gas\n      call\n      swap3\n      pop\n      pop\n      pop\n      returndatasize\n      dup1\n      0x00\n      dup2\n      eq\n      tag_437\n      jumpi\n      mload(0x40)\n      swap2\n      pop\n      and(add(returndatasize, 0x3f), not(0x1f))\n      dup3\n      add\n      0x40\n      mstore\n      returndatasize\n      dup3\n      mstore\n      returndatasize\n      0x00\n      0x20\n      dup5\n      add\n      returndatacopy\n      jump(tag_436)\n    tag_437:\n      0x60\n      swap2\n      pop\n    tag_436:\n      pop\n        /* \"@openzeppelin/contracts/utils/Address.sol\":5299:5372  (bool success, bytes memory returndata) = target.call{value: value}(data) */\n      swap2\n      pop\n      swap2\n      pop\n        /* \"@openzeppelin/contracts/utils/Address.sol\":5389:5440  verifyCallResult(success, returndata, errorMessage) */\n      tag_438\n        /* \"@openzeppelin/contracts/utils/Address.sol\":5406:5413  success */\n      dup3\n        /* \"@openzeppelin/contracts/utils/Address.sol\":5415:5425  returndata */\n      dup3\n        /* \"@openzeppelin/contracts/utils/Address.sol\":5427:5439  errorMessage */\n      dup7\n        /* \"@openzeppelin/contracts/utils/Address.sol\":5389:5405  verifyCallResult */\n      tag_439\n        /* \"@openzeppelin/contracts/utils/Address.sol\":5389:5440  verifyCallResult(success, returndata, errorMessage) */\n      jump\t// in\n    tag_438:\n        /* \"@openzeppelin/contracts/utils/Address.sol\":5382:5440  return verifyCallResult(success, returndata, errorMessage) */\n      swap3\n      pop\n      pop\n      pop\n        /* \"@openzeppelin/contracts/utils/Address.sol\":4948:5447  function functionCallWithValue(... */\n      swap5\n      swap4\n      pop\n      pop\n      pop\n      pop\n      jump\t// out\n        /* \"@openzeppelin/contracts/utils/Address.sol\":1175:1495  function isContract(address account) internal view returns (bool) {... */\n    tag_429:\n        /* \"@openzeppelin/contracts/utils/Address.sol\":1235:1239  bool */\n      0x00\n        /* \"@openzeppelin/contracts/utils/Address.sol\":1487:1488  0 */\n      dup1\n        /* \"@openzeppelin/contracts/utils/Address.sol\":1465:1472  account */\n      dup3\n        /* \"@openzeppelin/contracts/utils/Address.sol\":1465:1484  account.code.length */\n      0xffffffffffffffffffffffffffffffffffffffff\n      and\n      extcodesize\n        /* \"@openzeppelin/contracts/utils/Address.sol\":1465:1488  account.code.length > 0 */\n      gt\n        /* \"@openzeppelin/contracts/utils/Address.sol\":1458:1488  return account.code.length > 0 */\n      swap1\n      pop\n        /* \"@openzeppelin/contracts/utils/Address.sol\":1175:1495  function isContract(address account) internal view returns (bool) {... */\n      swap2\n      swap1\n      pop\n      jump\t// out\n        /* \"@openzeppelin/contracts/utils/Address.sol\":7561:8253  function verifyCallResult(... */\n    tag_439:\n        /* \"@openzeppelin/contracts/utils/Address.sol\":7707:7719  bytes memory */\n      0x60\n        /* \"@openzeppelin/contracts/utils/Address.sol\":7735:7742  success */\n      dup4\n        /* \"@openzeppelin/contracts/utils/Address.sol\":7731:8247  if (success) {... */\n      iszero\n      tag_442\n      jumpi\n        /* \"@openzeppelin/contracts/utils/Address.sol\":7765:7775  returndata */\n      dup3\n        /* \"@openzeppelin/contracts/utils/Address.sol\":7758:7775  return returndata */\n      swap1\n      pop\n      jump(tag_441)\n        /* \"@openzeppelin/contracts/utils/Address.sol\":7731:8247  if (success) {... */\n    tag_442:\n        /* \"@openzeppelin/contracts/utils/Address.sol\":7896:7897  0 */\n      0x00\n        /* \"@openzeppelin/contracts/utils/Address.sol\":7876:7886  returndata */\n      dup4\n        /* \"@openzeppelin/contracts/utils/Address.sol\":7876:7893  returndata.length */\n      mload\n        /* \"@openzeppelin/contracts/utils/Address.sol\":7876:7897  returndata.length > 0 */\n      gt\n        /* \"@openzeppelin/contracts/utils/Address.sol\":7872:8237  if (returndata.length > 0) {... */\n      iszero\n      tag_444\n      jumpi\n        /* \"@openzeppelin/contracts/utils/Address.sol\":8070:8080  returndata */\n      dup3\n        /* \"@openzeppelin/contracts/utils/Address.sol\":8064:8081  mload(returndata) */\n      mload\n        /* \"@openzeppelin/contracts/utils/Address.sol\":8130:8145  returndata_size */\n      dup1\n        /* \"@openzeppelin/contracts/utils/Address.sol\":8117:8127  returndata */\n      dup5\n        /* \"@openzeppelin/contracts/utils/Address.sol\":8113:8115  32 */\n      0x20\n        /* \"@openzeppelin/contracts/utils/Address.sol\":8109:8128  add(32, returndata) */\n      add\n        /* \"@openzeppelin/contracts/utils/Address.sol\":8102:8146  revert(add(32, returndata), returndata_size) */\n      revert\n        /* \"@openzeppelin/contracts/utils/Address.sol\":7872:8237  if (returndata.length > 0) {... */\n    tag_444:\n        /* \"@openzeppelin/contracts/utils/Address.sol\":8209:8221  errorMessage */\n      dup2\n        /* \"@openzeppelin/contracts/utils/Address.sol\":8202:8222  revert(errorMessage) */\n      mload(0x40)\n      0x08c379a000000000000000000000000000000000000000000000000000000000\n      dup2\n      mstore\n      0x04\n      add\n      tag_446\n      swap2\n      swap1\n      tag_447\n      jump\t// in\n    tag_446:\n      mload(0x40)\n      dup1\n      swap2\n      sub\n      swap1\n      revert\n        /* \"@openzeppelin/contracts/utils/Address.sol\":7561:8253  function verifyCallResult(... */\n    tag_441:\n      swap4\n      swap3\n      pop\n      pop\n      pop\n      jump\t// out\n        /* \"#utility.yul\":7:84   */\n    tag_448:\n        /* \"#utility.yul\":44:51   */\n      0x00\n        /* \"#utility.yul\":73:78   */\n      dup2\n        /* \"#utility.yul\":62:78   */\n      swap1\n      pop\n        /* \"#utility.yul\":7:84   */\n      swap2\n      swap1\n      pop\n      jump\t// out\n        /* \"#utility.yul\":90:208   */\n    tag_449:\n        /* \"#utility.yul\":177:201   */\n      tag_518\n        /* \"#utility.yul\":195:200   */\n      dup2\n        /* \"#utility.yul\":177:201   */\n      tag_448\n      jump\t// in\n    tag_518:\n        /* \"#utility.yul\":172:175   */\n      dup3\n        /* \"#utility.yul\":165:202   */\n      mstore\n        /* \"#utility.yul\":90:208   */\n      pop\n      pop\n      jump\t// out\n        /* \"#utility.yul\":214:436   */\n    tag_42:\n        /* \"#utility.yul\":307:311   */\n      0x00\n        /* \"#utility.yul\":345:347   */\n      0x20\n        /* \"#utility.yul\":334:343   */\n      dup3\n        /* \"#utility.yul\":330:348   */\n      add\n        /* \"#utility.yul\":322:348   */\n      swap1\n      pop\n        /* \"#utility.yul\":358:429   */\n      tag_520\n        /* \"#utility.yul\":426:427   */\n      0x00\n        /* \"#utility.yul\":415:424   */\n      dup4\n        /* \"#utility.yul\":411:428   */\n      add\n        /* \"#utility.yul\":402:408   */\n      dup5\n        /* \"#utility.yul\":358:429   */\n      tag_449\n      jump\t// in\n    tag_520:\n        /* \"#utility.yul\":214:436   */\n      swap3\n      swap2\n      pop\n      pop\n      jump\t// out\n        /* \"#utility.yul\":523:640   */\n    tag_451:\n        /* \"#utility.yul\":632:633   */\n      0x00\n        /* \"#utility.yul\":629:630   */\n      dup1\n        /* \"#utility.yul\":622:634   */\n      revert\n        /* \"#utility.yul\":769:891   */\n    tag_453:\n        /* \"#utility.yul\":842:866   */\n      tag_525\n        /* \"#utility.yul\":860:865   */\n      dup2\n        /* \"#utility.yul\":842:866   */\n      tag_448\n      jump\t// in\n    tag_525:\n        /* \"#utility.yul\":835:840   */\n      dup2\n        /* \"#utility.yul\":832:867   */\n      eq\n        /* \"#utility.yul\":822:885   */\n      tag_526\n      jumpi\n        /* \"#utility.yul\":881:882   */\n      0x00\n        /* \"#utility.yul\":878:879   */\n      dup1\n        /* \"#utility.yul\":871:883   */\n      revert\n        /* \"#utility.yul\":822:885   */\n    tag_526:\n        /* \"#utility.yul\":769:891   */\n      pop\n      jump\t// out\n        /* \"#utility.yul\":897:1036   */\n    tag_454:\n        /* \"#utility.yul\":943:948   */\n      0x00\n        /* \"#utility.yul\":981:987   */\n      dup2\n        /* \"#utility.yul\":968:988   */\n      calldataload\n        /* \"#utility.yul\":959:988   */\n      swap1\n      pop\n        /* \"#utility.yul\":997:1030   */\n      tag_528\n        /* \"#utility.yul\":1024:1029   */\n      dup2\n        /* \"#utility.yul\":997:1030   */\n      tag_453\n      jump\t// in\n    tag_528:\n        /* \"#utility.yul\":897:1036   */\n      swap3\n      swap2\n      pop\n      pop\n      jump\t// out\n        /* \"#utility.yul\":1042:1371   */\n    tag_51:\n        /* \"#utility.yul\":1101:1107   */\n      0x00\n        /* \"#utility.yul\":1150:1152   */\n      0x20\n        /* \"#utility.yul\":1138:1147   */\n      dup3\n        /* \"#utility.yul\":1129:1136   */\n      dup5\n        /* \"#utility.yul\":1125:1148   */\n      sub\n        /* \"#utility.yul\":1121:1153   */\n      slt\n        /* \"#utility.yul\":1118:1237   */\n      iszero\n      tag_530\n      jumpi\n        /* \"#utility.yul\":1156:1235   */\n      tag_531\n      tag_451\n      jump\t// in\n    tag_531:\n        /* \"#utility.yul\":1118:1237   */\n    tag_530:\n        /* \"#utility.yul\":1276:1277   */\n      0x00\n        /* \"#utility.yul\":1301:1354   */\n      tag_532\n        /* \"#utility.yul\":1346:1353   */\n      dup5\n        /* \"#utility.yul\":1337:1343   */\n      dup3\n        /* \"#utility.yul\":1326:1335   */\n      dup6\n        /* \"#utility.yul\":1322:1344   */\n      add\n        /* \"#utility.yul\":1301:1354   */\n      tag_454\n      jump\t// in\n    tag_532:\n        /* \"#utility.yul\":1291:1354   */\n      swap2\n      pop\n        /* \"#utility.yul\":1247:1364   */\n      pop\n        /* \"#utility.yul\":1042:1371   */\n      swap3\n      swap2\n      pop\n      pop\n      jump\t// out\n        /* \"#utility.yul\":1377:1503   */\n    tag_455:\n        /* \"#utility.yul\":1414:1421   */\n      0x00\n        /* \"#utility.yul\":1454:1496   */\n      0xffffffffffffffffffffffffffffffffffffffff\n        /* \"#utility.yul\":1447:1452   */\n      dup3\n        /* \"#utility.yul\":1443:1497   */\n      and\n        /* \"#utility.yul\":1432:1497   */\n      swap1\n      pop\n        /* \"#utility.yul\":1377:1503   */\n      swap2\n      swap1\n      pop\n      jump\t// out\n        /* \"#utility.yul\":1509:1605   */\n    tag_456:\n        /* \"#utility.yul\":1546:1553   */\n      0x00\n        /* \"#utility.yul\":1575:1599   */\n      tag_535\n        /* \"#utility.yul\":1593:1598   */\n      dup3\n        /* \"#utility.yul\":1575:1599   */\n      tag_455\n      jump\t// in\n    tag_535:\n        /* \"#utility.yul\":1564:1599   */\n      swap1\n      pop\n        /* \"#utility.yul\":1509:1605   */\n      swap2\n      swap1\n      pop\n      jump\t// out\n        /* \"#utility.yul\":1611:1733   */\n    tag_457:\n        /* \"#utility.yul\":1684:1708   */\n      tag_537\n        /* \"#utility.yul\":1702:1707   */\n      dup2\n        /* \"#utility.yul\":1684:1708   */\n      tag_456\n      jump\t// in\n    tag_537:\n        /* \"#utility.yul\":1677:1682   */\n      dup2\n        /* \"#utility.yul\":1674:1709   */\n      eq\n        /* \"#utility.yul\":1664:1727   */\n      tag_538\n      jumpi\n        /* \"#utility.yul\":1723:1724   */\n      0x00\n        /* \"#utility.yul\":1720:1721   */\n      dup1\n        /* \"#utility.yul\":1713:1725   */\n      revert\n        /* \"#utility.yul\":1664:1727   */\n    tag_538:\n        /* \"#utility.yul\":1611:1733   */\n      pop\n      jump\t// out\n        /* \"#utility.yul\":1739:1878   */\n    tag_458:\n        /* \"#utility.yul\":1785:1790   */\n      0x00\n        /* \"#utility.yul\":1823:1829   */\n      dup2\n        /* \"#utility.yul\":1810:1830   */\n      calldataload\n        /* \"#utility.yul\":1801:1830   */\n      swap1\n      pop\n        /* \"#utility.yul\":1839:1872   */\n      tag_540\n        /* \"#utility.yul\":1866:1871   */\n      dup2\n        /* \"#utility.yul\":1839:1872   */\n      tag_457\n      jump\t// in\n    tag_540:\n        /* \"#utility.yul\":1739:1878   */\n      swap3\n      swap2\n      pop\n      pop\n      jump\t// out\n        /* \"#utility.yul\":1884:2213   */\n    tag_60:\n        /* \"#utility.yul\":1943:1949   */\n      0x00\n        /* \"#utility.yul\":1992:1994   */\n      0x20\n        /* \"#utility.yul\":1980:1989   */\n      dup3\n        /* \"#utility.yul\":1971:1978   */\n      dup5\n        /* \"#utility.yul\":1967:1990   */\n      sub\n        /* \"#utility.yul\":1963:1995   */\n      slt\n        /* \"#utility.yul\":1960:2079   */\n      iszero\n      tag_542\n      jumpi\n        /* \"#utility.yul\":1998:2077   */\n      tag_543\n      tag_451\n      jump\t// in\n    tag_543:\n        /* \"#utility.yul\":1960:2079   */\n    tag_542:\n        /* \"#utility.yul\":2118:2119   */\n      0x00\n        /* \"#utility.yul\":2143:2196   */\n      tag_544\n        /* \"#utility.yul\":2188:2195   */\n      dup5\n        /* \"#utility.yul\":2179:2185   */\n      dup3\n        /* \"#utility.yul\":2168:2177   */\n      dup6\n        /* \"#utility.yul\":2164:2186   */\n      add\n        /* \"#utility.yul\":2143:2196   */\n      tag_458\n      jump\t// in\n    tag_544:\n        /* \"#utility.yul\":2133:2196   */\n      swap2\n      pop\n        /* \"#utility.yul\":2089:2206   */\n      pop\n        /* \"#utility.yul\":1884:2213   */\n      swap3\n      swap2\n      pop\n      pop\n      jump\t// out\n        /* \"#utility.yul\":2219:2693   */\n    tag_68:\n        /* \"#utility.yul\":2287:2293   */\n      0x00\n        /* \"#utility.yul\":2295:2301   */\n      dup1\n        /* \"#utility.yul\":2344:2346   */\n      0x40\n        /* \"#utility.yul\":2332:2341   */\n      dup4\n        /* \"#utility.yul\":2323:2330   */\n      dup6\n        /* \"#utility.yul\":2319:2342   */\n      sub\n        /* \"#utility.yul\":2315:2347   */\n      slt\n        /* \"#utility.yul\":2312:2431   */\n      iszero\n      tag_546\n      jumpi\n        /* \"#utility.yul\":2350:2429   */\n      tag_547\n      tag_451\n      jump\t// in\n    tag_547:\n        /* \"#utility.yul\":2312:2431   */\n    tag_546:\n        /* \"#utility.yul\":2470:2471   */\n      0x00\n        /* \"#utility.yul\":2495:2548   */\n      tag_548\n        /* \"#utility.yul\":2540:2547   */\n      dup6\n        /* \"#utility.yul\":2531:2537   */\n      dup3\n        /* \"#utility.yul\":2520:2529   */\n      dup7\n        /* \"#utility.yul\":2516:2538   */\n      add\n        /* \"#utility.yul\":2495:2548   */\n      tag_454\n      jump\t// in\n    tag_548:\n        /* \"#utility.yul\":2485:2548   */\n      swap3\n      pop\n        /* \"#utility.yul\":2441:2558   */\n      pop\n        /* \"#utility.yul\":2597:2599   */\n      0x20\n        /* \"#utility.yul\":2623:2676   */\n      tag_549\n        /* \"#utility.yul\":2668:2675   */\n      dup6\n        /* \"#utility.yul\":2659:2665   */\n      dup3\n        /* \"#utility.yul\":2648:2657   */\n      dup7\n        /* \"#utility.yul\":2644:2666   */\n      add\n        /* \"#utility.yul\":2623:2676   */\n      tag_454\n      jump\t// in\n    tag_549:\n        /* \"#utility.yul\":2613:2676   */\n      swap2\n      pop\n        /* \"#utility.yul\":2568:2686   */\n      pop\n        /* \"#utility.yul\":2219:2693   */\n      swap3\n      pop\n      swap3\n      swap1\n      pop\n      jump\t// out\n        /* \"#utility.yul\":2699:2817   */\n    tag_459:\n        /* \"#utility.yul\":2786:2810   */\n      tag_551\n        /* \"#utility.yul\":2804:2809   */\n      dup2\n        /* \"#utility.yul\":2786:2810   */\n      tag_456\n      jump\t// in\n    tag_551:\n        /* \"#utility.yul\":2781:2784   */\n      dup3\n        /* \"#utility.yul\":2774:2811   */\n      mstore\n        /* \"#utility.yul\":2699:2817   */\n      pop\n      pop\n      jump\t// out\n        /* \"#utility.yul\":2823:3045   */\n    tag_91:\n        /* \"#utility.yul\":2916:2920   */\n      0x00\n        /* \"#utility.yul\":2954:2956   */\n      0x20\n        /* \"#utility.yul\":2943:2952   */\n      dup3\n        /* \"#utility.yul\":2939:2957   */\n      add\n        /* \"#utility.yul\":2931:2957   */\n      swap1\n      pop\n        /* \"#utility.yul\":2967:3038   */\n      tag_553\n        /* \"#utility.yul\":3035:3036   */\n      0x00\n        /* \"#utility.yul\":3024:3033   */\n      dup4\n        /* \"#utility.yul\":3020:3037   */\n      add\n        /* \"#utility.yul\":3011:3017   */\n      dup5\n        /* \"#utility.yul\":2967:3038   */\n      tag_459\n      jump\t// in\n    tag_553:\n        /* \"#utility.yul\":2823:3045   */\n      swap3\n      swap2\n      pop\n      pop\n      jump\t// out\n        /* \"#utility.yul\":3051:3111   */\n    tag_460:\n        /* \"#utility.yul\":3079:3082   */\n      0x00\n        /* \"#utility.yul\":3100:3105   */\n      dup2\n        /* \"#utility.yul\":3093:3105   */\n      swap1\n      pop\n        /* \"#utility.yul\":3051:3111   */\n      swap2\n      swap1\n      pop\n      jump\t// out\n        /* \"#utility.yul\":3117:3259   */\n    tag_461:\n        /* \"#utility.yul\":3167:3176   */\n      0x00\n        /* \"#utility.yul\":3200:3253   */\n      tag_556\n        /* \"#utility.yul\":3218:3252   */\n      tag_557\n        /* \"#utility.yul\":3227:3251   */\n      tag_558\n        /* \"#utility.yul\":3245:3250   */\n      dup5\n        /* \"#utility.yul\":3227:3251   */\n      tag_455\n      jump\t// in\n    tag_558:\n        /* \"#utility.yul\":3218:3252   */\n      tag_460\n      jump\t// in\n    tag_557:\n        /* \"#utility.yul\":3200:3253   */\n      tag_455\n      jump\t// in\n    tag_556:\n        /* \"#utility.yul\":3187:3253   */\n      swap1\n      pop\n        /* \"#utility.yul\":3117:3259   */\n      swap2\n      swap1\n      pop\n      jump\t// out\n        /* \"#utility.yul\":3265:3391   */\n    tag_462:\n        /* \"#utility.yul\":3315:3324   */\n      0x00\n        /* \"#utility.yul\":3348:3385   */\n      tag_560\n        /* \"#utility.yul\":3379:3384   */\n      dup3\n        /* \"#utility.yul\":3348:3385   */\n      tag_461\n      jump\t// in\n    tag_560:\n        /* \"#utility.yul\":3335:3385   */\n      swap1\n      pop\n        /* \"#utility.yul\":3265:3391   */\n      swap2\n      swap1\n      pop\n      jump\t// out\n        /* \"#utility.yul\":3397:3537   */\n    tag_463:\n        /* \"#utility.yul\":3461:3470   */\n      0x00\n        /* \"#utility.yul\":3494:3531   */\n      tag_562\n        /* \"#utility.yul\":3525:3530   */\n      dup3\n        /* \"#utility.yul\":3494:3531   */\n      tag_462\n      jump\t// in\n    tag_562:\n        /* \"#utility.yul\":3481:3531   */\n      swap1\n      pop\n        /* \"#utility.yul\":3397:3537   */\n      swap2\n      swap1\n      pop\n      jump\t// out\n        /* \"#utility.yul\":3543:3702   */\n    tag_464:\n        /* \"#utility.yul\":3644:3695   */\n      tag_564\n        /* \"#utility.yul\":3689:3694   */\n      dup2\n        /* \"#utility.yul\":3644:3695   */\n      tag_463\n      jump\t// in\n    tag_564:\n        /* \"#utility.yul\":3639:3642   */\n      dup3\n        /* \"#utility.yul\":3632:3696   */\n      mstore\n        /* \"#utility.yul\":3543:3702   */\n      pop\n      pop\n      jump\t// out\n        /* \"#utility.yul\":3708:3958   */\n    tag_132:\n        /* \"#utility.yul\":3815:3819   */\n      0x00\n        /* \"#utility.yul\":3853:3855   */\n      0x20\n        /* \"#utility.yul\":3842:3851   */\n      dup3\n        /* \"#utility.yul\":3838:3856   */\n      add\n        /* \"#utility.yul\":3830:3856   */\n      swap1\n      pop\n        /* \"#utility.yul\":3866:3951   */\n      tag_566\n        /* \"#utility.yul\":3948:3949   */\n      0x00\n        /* \"#utility.yul\":3937:3946   */\n      dup4\n        /* \"#utility.yul\":3933:3950   */\n      add\n        /* \"#utility.yul\":3924:3930   */\n      dup5\n        /* \"#utility.yul\":3866:3951   */\n      tag_464\n      jump\t// in\n    tag_566:\n        /* \"#utility.yul\":3708:3958   */\n      swap3\n      swap2\n      pop\n      pop\n      jump\t// out\n        /* \"#utility.yul\":3964:4133   */\n    tag_465:\n        /* \"#utility.yul\":4048:4059   */\n      0x00\n        /* \"#utility.yul\":4082:4088   */\n      dup3\n        /* \"#utility.yul\":4077:4080   */\n      dup3\n        /* \"#utility.yul\":4070:4089   */\n      mstore\n        /* \"#utility.yul\":4122:4126   */\n      0x20\n        /* \"#utility.yul\":4117:4120   */\n      dup3\n        /* \"#utility.yul\":4113:4127   */\n      add\n        /* \"#utility.yul\":4098:4127   */\n      swap1\n      pop\n        /* \"#utility.yul\":3964:4133   */\n      swap3\n      swap2\n      pop\n      pop\n      jump\t// out\n        /* \"#utility.yul\":4139:4321   */\n    tag_466:\n        /* \"#utility.yul\":4279:4313   */\n      0x4f776e61626c653a2063616c6c6572206973206e6f7420746865206f776e6572\n        /* \"#utility.yul\":4275:4276   */\n      0x00\n        /* \"#utility.yul\":4267:4273   */\n      dup3\n        /* \"#utility.yul\":4263:4277   */\n      add\n        /* \"#utility.yul\":4256:4314   */\n      mstore\n        /* \"#utility.yul\":4139:4321   */\n      pop\n      jump\t// out\n        /* \"#utility.yul\":4327:4693   */\n    tag_467:\n        /* \"#utility.yul\":4469:4472   */\n      0x00\n        /* \"#utility.yul\":4490:4557   */\n      tag_570\n        /* \"#utility.yul\":4554:4556   */\n      0x20\n        /* \"#utility.yul\":4549:4552   */\n      dup4\n        /* \"#utility.yul\":4490:4557   */\n      tag_465\n      jump\t// in\n    tag_570:\n        /* \"#utility.yul\":4483:4557   */\n      swap2\n      pop\n        /* \"#utility.yul\":4566:4659   */\n      tag_571\n        /* \"#utility.yul\":4655:4658   */\n      dup3\n        /* \"#utility.yul\":4566:4659   */\n      tag_466\n      jump\t// in\n    tag_571:\n        /* \"#utility.yul\":4684:4686   */\n      0x20\n        /* \"#utility.yul\":4679:4682   */\n      dup3\n        /* \"#utility.yul\":4675:4687   */\n      add\n        /* \"#utility.yul\":4668:4687   */\n      swap1\n      pop\n        /* \"#utility.yul\":4327:4693   */\n      swap2\n      swap1\n      pop\n      jump\t// out\n        /* \"#utility.yul\":4699:5118   */\n    tag_146:\n        /* \"#utility.yul\":4865:4869   */\n      0x00\n        /* \"#utility.yul\":4903:4905   */\n      0x20\n        /* \"#utility.yul\":4892:4901   */\n      dup3\n        /* \"#utility.yul\":4888:4906   */\n      add\n        /* \"#utility.yul\":4880:4906   */\n      swap1\n      pop\n        /* \"#utility.yul\":4952:4961   */\n      dup2\n        /* \"#utility.yul\":4946:4950   */\n      dup2\n        /* \"#utility.yul\":4942:4962   */\n      sub\n        /* \"#utility.yul\":4938:4939   */\n      0x00\n        /* \"#utility.yul\":4927:4936   */\n      dup4\n        /* \"#utility.yul\":4923:4940   */\n      add\n        /* \"#utility.yul\":4916:4963   */\n      mstore\n        /* \"#utility.yul\":4980:5111   */\n      tag_573\n        /* \"#utility.yul\":5106:5110   */\n      dup2\n        /* \"#utility.yul\":4980:5111   */\n      tag_467\n      jump\t// in\n    tag_573:\n        /* \"#utility.yul\":4972:5111   */\n      swap1\n      pop\n        /* \"#utility.yul\":4699:5118   */\n      swap2\n      swap1\n      pop\n      jump\t// out\n        /* \"#utility.yul\":5124:5287   */\n    tag_468:\n        /* \"#utility.yul\":5264:5279   */\n      0x43616e2774206265207a65726f00000000000000000000000000000000000000\n        /* \"#utility.yul\":5260:5261   */\n      0x00\n        /* \"#utility.yul\":5252:5258   */\n      dup3\n        /* \"#utility.yul\":5248:5262   */\n      add\n        /* \"#utility.yul\":5241:5280   */\n      mstore\n        /* \"#utility.yul\":5124:5287   */\n      pop\n      jump\t// out\n        /* \"#utility.yul\":5293:5659   */\n    tag_469:\n        /* \"#utility.yul\":5435:5438   */\n      0x00\n        /* \"#utility.yul\":5456:5523   */\n      tag_576\n        /* \"#utility.yul\":5520:5522   */\n      0x0d\n        /* \"#utility.yul\":5515:5518   */\n      dup4\n        /* \"#utility.yul\":5456:5523   */\n      tag_465\n      jump\t// in\n    tag_576:\n        /* \"#utility.yul\":5449:5523   */\n      swap2\n      pop\n        /* \"#utility.yul\":5532:5625   */\n      tag_577\n        /* \"#utility.yul\":5621:5624   */\n      dup3\n        /* \"#utility.yul\":5532:5625   */\n      tag_468\n      jump\t// in\n    tag_577:\n        /* \"#utility.yul\":5650:5652   */\n      0x20\n        /* \"#utility.yul\":5645:5648   */\n      dup3\n        /* \"#utility.yul\":5641:5653   */\n      add\n        /* \"#utility.yul\":5634:5653   */\n      swap1\n      pop\n        /* \"#utility.yul\":5293:5659   */\n      swap2\n      swap1\n      pop\n      jump\t// out\n        /* \"#utility.yul\":5665:6084   */\n    tag_150:\n        /* \"#utility.yul\":5831:5835   */\n      0x00\n        /* \"#utility.yul\":5869:5871   */\n      0x20\n        /* \"#utility.yul\":5858:5867   */\n      dup3\n        /* \"#utility.yul\":5854:5872   */\n      add\n        /* \"#utility.yul\":5846:5872   */\n      swap1\n      pop\n        /* \"#utility.yul\":5918:5927   */\n      dup2\n        /* \"#utility.yul\":5912:5916   */\n      dup2\n        /* \"#utility.yul\":5908:5928   */\n      sub\n        /* \"#utility.yul\":5904:5905   */\n      0x00\n        /* \"#utility.yul\":5893:5902   */\n      dup4\n        /* \"#utility.yul\":5889:5906   */\n      add\n        /* \"#utility.yul\":5882:5929   */\n      mstore\n        /* \"#utility.yul\":5946:6077   */\n      tag_579\n        /* \"#utility.yul\":6072:6076   */\n      dup2\n        /* \"#utility.yul\":5946:6077   */\n      tag_469\n      jump\t// in\n    tag_579:\n        /* \"#utility.yul\":5938:6077   */\n      swap1\n      pop\n        /* \"#utility.yul\":5665:6084   */\n      swap2\n      swap1\n      pop\n      jump\t// out\n        /* \"#utility.yul\":6090:6271   */\n    tag_470:\n        /* \"#utility.yul\":6230:6263   */\n      0x416d6f756e742073686f756c642062652067726561746572207468616e203000\n        /* \"#utility.yul\":6226:6227   */\n      0x00\n        /* \"#utility.yul\":6218:6224   */\n      dup3\n        /* \"#utility.yul\":6214:6228   */\n      add\n        /* \"#utility.yul\":6207:6264   */\n      mstore\n        /* \"#utility.yul\":6090:6271   */\n      pop\n      jump\t// out\n        /* \"#utility.yul\":6277:6643   */\n    tag_471:\n        /* \"#utility.yul\":6419:6422   */\n      0x00\n        /* \"#utility.yul\":6440:6507   */\n      tag_582\n        /* \"#utility.yul\":6504:6506   */\n      0x1f\n        /* \"#utility.yul\":6499:6502   */\n      dup4\n        /* \"#utility.yul\":6440:6507   */\n      tag_465\n      jump\t// in\n    tag_582:\n        /* \"#utility.yul\":6433:6507   */\n      swap2\n      pop\n        /* \"#utility.yul\":6516:6609   */\n      tag_583\n        /* \"#utility.yul\":6605:6608   */\n      dup3\n        /* \"#utility.yul\":6516:6609   */\n      tag_470\n      jump\t// in\n    tag_583:\n        /* \"#utility.yul\":6634:6636   */\n      0x20\n        /* \"#utility.yul\":6629:6632   */\n      dup3\n        /* \"#utility.yul\":6625:6637   */\n      add\n        /* \"#utility.yul\":6618:6637   */\n      swap1\n      pop\n        /* \"#utility.yul\":6277:6643   */\n      swap2\n      swap1\n      pop\n      jump\t// out\n        /* \"#utility.yul\":6649:7068   */\n    tag_154:\n        /* \"#utility.yul\":6815:6819   */\n      0x00\n        /* \"#utility.yul\":6853:6855   */\n      0x20\n        /* \"#utility.yul\":6842:6851   */\n      dup3\n        /* \"#utility.yul\":6838:6856   */\n      add\n        /* \"#utility.yul\":6830:6856   */\n      swap1\n      pop\n        /* \"#utility.yul\":6902:6911   */\n      dup2\n        /* \"#utility.yul\":6896:6900   */\n      dup2\n        /* \"#utility.yul\":6892:6912   */\n      sub\n        /* \"#utility.yul\":6888:6889   */\n      0x00\n        /* \"#utility.yul\":6877:6886   */\n      dup4\n        /* \"#utility.yul\":6873:6890   */\n      add\n        /* \"#utility.yul\":6866:6913   */\n      mstore\n        /* \"#utility.yul\":6930:7061   */\n      tag_585\n        /* \"#utility.yul\":7056:7060   */\n      dup2\n        /* \"#utility.yul\":6930:7061   */\n      tag_471\n      jump\t// in\n    tag_585:\n        /* \"#utility.yul\":6922:7061   */\n      swap1\n      pop\n        /* \"#utility.yul\":6649:7068   */\n      swap2\n      swap1\n      pop\n      jump\t// out\n        /* \"#utility.yul\":7074:7238   */\n    tag_472:\n        /* \"#utility.yul\":7214:7230   */\n      0x496e76616c696420616d6f756e74000000000000000000000000000000000000\n        /* \"#utility.yul\":7210:7211   */\n      0x00\n        /* \"#utility.yul\":7202:7208   */\n      dup3\n        /* \"#utility.yul\":7198:7212   */\n      add\n        /* \"#utility.yul\":7191:7231   */\n      mstore\n        /* \"#utility.yul\":7074:7238   */\n      pop\n      jump\t// out\n        /* \"#utility.yul\":7244:7610   */\n    tag_473:\n        /* \"#utility.yul\":7386:7389   */\n      0x00\n        /* \"#utility.yul\":7407:7474   */\n      tag_588\n        /* \"#utility.yul\":7471:7473   */\n      0x0e\n        /* \"#utility.yul\":7466:7469   */\n      dup4\n        /* \"#utility.yul\":7407:7474   */\n      tag_465\n      jump\t// in\n    tag_588:\n        /* \"#utility.yul\":7400:7474   */\n      swap2\n      pop\n        /* \"#utility.yul\":7483:7576   */\n      tag_589\n        /* \"#utility.yul\":7572:7575   */\n      dup3\n        /* \"#utility.yul\":7483:7576   */\n      tag_472\n      jump\t// in\n    tag_589:\n        /* \"#utility.yul\":7601:7603   */\n      0x20\n        /* \"#utility.yul\":7596:7599   */\n      dup3\n        /* \"#utility.yul\":7592:7604   */\n      add\n        /* \"#utility.yul\":7585:7604   */\n      swap1\n      pop\n        /* \"#utility.yul\":7244:7610   */\n      swap2\n      swap1\n      pop\n      jump\t// out\n        /* \"#utility.yul\":7616:8035   */\n    tag_157:\n        /* \"#utility.yul\":7782:7786   */\n      0x00\n        /* \"#utility.yul\":7820:7822   */\n      0x20\n        /* \"#utility.yul\":7809:7818   */\n      dup3\n        /* \"#utility.yul\":7805:7823   */\n      add\n        /* \"#utility.yul\":7797:7823   */\n      swap1\n      pop\n        /* \"#utility.yul\":7869:7878   */\n      dup2\n        /* \"#utility.yul\":7863:7867   */\n      dup2\n        /* \"#utility.yul\":7859:7879   */\n      sub\n        /* \"#utility.yul\":7855:7856   */\n      0x00\n        /* \"#utility.yul\":7844:7853   */\n      dup4\n        /* \"#utility.yul\":7840:7857   */\n      add\n        /* \"#utility.yul\":7833:7880   */\n      mstore\n        /* \"#utility.yul\":7897:8028   */\n      tag_591\n        /* \"#utility.yul\":8023:8027   */\n      dup2\n        /* \"#utility.yul\":7897:8028   */\n      tag_473\n      jump\t// in\n    tag_591:\n        /* \"#utility.yul\":7889:8028   */\n      swap1\n      pop\n        /* \"#utility.yul\":7616:8035   */\n      swap2\n      swap1\n      pop\n      jump\t// out\n        /* \"#utility.yul\":8041:8221   */\n    tag_474:\n        /* \"#utility.yul\":8089:8166   */\n      0x4e487b7100000000000000000000000000000000000000000000000000000000\n        /* \"#utility.yul\":8086:8087   */\n      0x00\n        /* \"#utility.yul\":8079:8167   */\n      mstore\n        /* \"#utility.yul\":8186:8190   */\n      0x12\n        /* \"#utility.yul\":8183:8184   */\n      0x04\n        /* \"#utility.yul\":8176:8191   */\n      mstore\n        /* \"#utility.yul\":8210:8214   */\n      0x24\n        /* \"#utility.yul\":8207:8208   */\n      0x00\n        /* \"#utility.yul\":8200:8215   */\n      revert\n        /* \"#utility.yul\":8227:8403   */\n    tag_171:\n        /* \"#utility.yul\":8259:8260   */\n      0x00\n        /* \"#utility.yul\":8276:8296   */\n      tag_594\n        /* \"#utility.yul\":8294:8295   */\n      dup3\n        /* \"#utility.yul\":8276:8296   */\n      tag_448\n      jump\t// in\n    tag_594:\n        /* \"#utility.yul\":8271:8296   */\n      swap2\n      pop\n        /* \"#utility.yul\":8310:8330   */\n      tag_595\n        /* \"#utility.yul\":8328:8329   */\n      dup4\n        /* \"#utility.yul\":8310:8330   */\n      tag_448\n      jump\t// in\n    tag_595:\n        /* \"#utility.yul\":8305:8330   */\n      swap3\n      pop\n        /* \"#utility.yul\":8349:8350   */\n      dup3\n        /* \"#utility.yul\":8339:8374   */\n      tag_596\n      jumpi\n        /* \"#utility.yul\":8354:8372   */\n      tag_597\n      tag_474\n      jump\t// in\n    tag_597:\n        /* \"#utility.yul\":8339:8374   */\n    tag_596:\n        /* \"#utility.yul\":8395:8396   */\n      dup3\n        /* \"#utility.yul\":8392:8393   */\n      dup3\n        /* \"#utility.yul\":8388:8397   */\n      mod\n        /* \"#utility.yul\":8383:8397   */\n      swap1\n      pop\n        /* \"#utility.yul\":8227:8403   */\n      swap3\n      swap2\n      pop\n      pop\n      jump\t// out\n        /* \"#utility.yul\":8409:8741   */\n    tag_182:\n        /* \"#utility.yul\":8530:8534   */\n      0x00\n        /* \"#utility.yul\":8568:8570   */\n      0x40\n        /* \"#utility.yul\":8557:8566   */\n      dup3\n        /* \"#utility.yul\":8553:8571   */\n      add\n        /* \"#utility.yul\":8545:8571   */\n      swap1\n      pop\n        /* \"#utility.yul\":8581:8652   */\n      tag_599\n        /* \"#utility.yul\":8649:8650   */\n      0x00\n        /* \"#utility.yul\":8638:8647   */\n      dup4\n        /* \"#utility.yul\":8634:8651   */\n      add\n        /* \"#utility.yul\":8625:8631   */\n      dup6\n        /* \"#utility.yul\":8581:8652   */\n      tag_459\n      jump\t// in\n    tag_599:\n        /* \"#utility.yul\":8662:8734   */\n      tag_600\n        /* \"#utility.yul\":8730:8732   */\n      0x20\n        /* \"#utility.yul\":8719:8728   */\n      dup4\n        /* \"#utility.yul\":8715:8733   */\n      add\n        /* \"#utility.yul\":8706:8712   */\n      dup5\n        /* \"#utility.yul\":8662:8734   */\n      tag_449\n      jump\t// in\n    tag_600:\n        /* \"#utility.yul\":8409:8741   */\n      swap4\n      swap3\n      pop\n      pop\n      pop\n      jump\t// out\n        /* \"#utility.yul\":8747:8913   */\n    tag_475:\n        /* \"#utility.yul\":8887:8905   */\n      0x4e6f7468696e6720746f20636c61696d00000000000000000000000000000000\n        /* \"#utility.yul\":8883:8884   */\n      0x00\n        /* \"#utility.yul\":8875:8881   */\n      dup3\n        /* \"#utility.yul\":8871:8885   */\n      add\n        /* \"#utility.yul\":8864:8906   */\n      mstore\n        /* \"#utility.yul\":8747:8913   */\n      pop\n      jump\t// out\n        /* \"#utility.yul\":8919:9285   */\n    tag_476:\n        /* \"#utility.yul\":9061:9064   */\n      0x00\n        /* \"#utility.yul\":9082:9149   */\n      tag_603\n        /* \"#utility.yul\":9146:9148   */\n      0x10\n        /* \"#utility.yul\":9141:9144   */\n      dup4\n        /* \"#utility.yul\":9082:9149   */\n      tag_465\n      jump\t// in\n    tag_603:\n        /* \"#utility.yul\":9075:9149   */\n      swap2\n      pop\n        /* \"#utility.yul\":9158:9251   */\n      tag_604\n        /* \"#utility.yul\":9247:9250   */\n      dup3\n        /* \"#utility.yul\":9158:9251   */\n      tag_475\n      jump\t// in\n    tag_604:\n        /* \"#utility.yul\":9276:9278   */\n      0x20\n        /* \"#utility.yul\":9271:9274   */\n      dup3\n        /* \"#utility.yul\":9267:9279   */\n      add\n        /* \"#utility.yul\":9260:9279   */\n      swap1\n      pop\n        /* \"#utility.yul\":8919:9285   */\n      swap2\n      swap1\n      pop\n      jump\t// out\n        /* \"#utility.yul\":9291:9710   */\n    tag_190:\n        /* \"#utility.yul\":9457:9461   */\n      0x00\n        /* \"#utility.yul\":9495:9497   */\n      0x20\n        /* \"#utility.yul\":9484:9493   */\n      dup3\n        /* \"#utility.yul\":9480:9498   */\n      add\n        /* \"#utility.yul\":9472:9498   */\n      swap1\n      pop\n        /* \"#utility.yul\":9544:9553   */\n      dup2\n        /* \"#utility.yul\":9538:9542   */\n      dup2\n        /* \"#utility.yul\":9534:9554   */\n      sub\n        /* \"#utility.yul\":9530:9531   */\n      0x00\n        /* \"#utility.yul\":9519:9528   */\n      dup4\n        /* \"#utility.yul\":9515:9532   */\n      add\n        /* \"#utility.yul\":9508:9555   */\n      mstore\n        /* \"#utility.yul\":9572:9703   */\n      tag_606\n        /* \"#utility.yul\":9698:9702   */\n      dup2\n        /* \"#utility.yul\":9572:9703   */\n      tag_476\n      jump\t// in\n    tag_606:\n        /* \"#utility.yul\":9564:9703   */\n      swap1\n      pop\n        /* \"#utility.yul\":9291:9710   */\n      swap2\n      swap1\n      pop\n      jump\t// out\n        /* \"#utility.yul\":9716:9859   */\n    tag_477:\n        /* \"#utility.yul\":9773:9778   */\n      0x00\n        /* \"#utility.yul\":9804:9810   */\n      dup2\n        /* \"#utility.yul\":9798:9811   */\n      mload\n        /* \"#utility.yul\":9789:9811   */\n      swap1\n      pop\n        /* \"#utility.yul\":9820:9853   */\n      tag_608\n        /* \"#utility.yul\":9847:9852   */\n      dup2\n        /* \"#utility.yul\":9820:9853   */\n      tag_453\n      jump\t// in\n    tag_608:\n        /* \"#utility.yul\":9716:9859   */\n      swap3\n      swap2\n      pop\n      pop\n      jump\t// out\n        /* \"#utility.yul\":9865:10216   */\n    tag_196:\n        /* \"#utility.yul\":9935:9941   */\n      0x00\n        /* \"#utility.yul\":9984:9986   */\n      0x20\n        /* \"#utility.yul\":9972:9981   */\n      dup3\n        /* \"#utility.yul\":9963:9970   */\n      dup5\n        /* \"#utility.yul\":9959:9982   */\n      sub\n        /* \"#utility.yul\":9955:9987   */\n      slt\n        /* \"#utility.yul\":9952:10071   */\n      iszero\n      tag_610\n      jumpi\n        /* \"#utility.yul\":9990:10069   */\n      tag_611\n      tag_451\n      jump\t// in\n    tag_611:\n        /* \"#utility.yul\":9952:10071   */\n    tag_610:\n        /* \"#utility.yul\":10110:10111   */\n      0x00\n        /* \"#utility.yul\":10135:10199   */\n      tag_612\n        /* \"#utility.yul\":10191:10198   */\n      dup5\n        /* \"#utility.yul\":10182:10188   */\n      dup3\n        /* \"#utility.yul\":10171:10180   */\n      dup6\n        /* \"#utility.yul\":10167:10189   */\n      add\n        /* \"#utility.yul\":10135:10199   */\n      tag_477\n      jump\t// in\n    tag_612:\n        /* \"#utility.yul\":10125:10199   */\n      swap2\n      pop\n        /* \"#utility.yul\":10081:10209   */\n      pop\n        /* \"#utility.yul\":9865:10216   */\n      swap3\n      swap2\n      pop\n      pop\n      jump\t// out\n        /* \"#utility.yul\":10222:10385   */\n    tag_478:\n        /* \"#utility.yul\":10362:10377   */\n      0x496e73756666696369656e742100000000000000000000000000000000000000\n        /* \"#utility.yul\":10358:10359   */\n      0x00\n        /* \"#utility.yul\":10350:10356   */\n      dup3\n        /* \"#utility.yul\":10346:10360   */\n      add\n        /* \"#utility.yul\":10339:10378   */\n      mstore\n        /* \"#utility.yul\":10222:10385   */\n      pop\n      jump\t// out\n        /* \"#utility.yul\":10391:10757   */\n    tag_479:\n        /* \"#utility.yul\":10533:10536   */\n      0x00\n        /* \"#utility.yul\":10554:10621   */\n      tag_615\n        /* \"#utility.yul\":10618:10620   */\n      0x0d\n        /* \"#utility.yul\":10613:10616   */\n      dup4\n        /* \"#utility.yul\":10554:10621   */\n      tag_465\n      jump\t// in\n    tag_615:\n        /* \"#utility.yul\":10547:10621   */\n      swap2\n      pop\n        /* \"#utility.yul\":10630:10723   */\n      tag_616\n        /* \"#utility.yul\":10719:10722   */\n      dup3\n        /* \"#utility.yul\":10630:10723   */\n      tag_478\n      jump\t// in\n    tag_616:\n        /* \"#utility.yul\":10748:10750   */\n      0x20\n        /* \"#utility.yul\":10743:10746   */\n      dup3\n        /* \"#utility.yul\":10739:10751   */\n      add\n        /* \"#utility.yul\":10732:10751   */\n      swap1\n      pop\n        /* \"#utility.yul\":10391:10757   */\n      swap2\n      swap1\n      pop\n      jump\t// out\n        /* \"#utility.yul\":10763:11182   */\n    tag_236:\n        /* \"#utility.yul\":10929:10933   */\n      0x00\n        /* \"#utility.yul\":10967:10969   */\n      0x20\n        /* \"#utility.yul\":10956:10965   */\n      dup3\n        /* \"#utility.yul\":10952:10970   */\n      add\n        /* \"#utility.yul\":10944:10970   */\n      swap1\n      pop\n        /* \"#utility.yul\":11016:11025   */\n      dup2\n        /* \"#utility.yul\":11010:11014   */\n      dup2\n        /* \"#utility.yul\":11006:11026   */\n      sub\n        /* \"#utility.yul\":11002:11003   */\n      0x00\n        /* \"#utility.yul\":10991:11000   */\n      dup4\n        /* \"#utility.yul\":10987:11004   */\n      add\n        /* \"#utility.yul\":10980:11027   */\n      mstore\n        /* \"#utility.yul\":11044:11175   */\n      tag_618\n        /* \"#utility.yul\":11170:11174   */\n      dup2\n        /* \"#utility.yul\":11044:11175   */\n      tag_479\n      jump\t// in\n    tag_618:\n        /* \"#utility.yul\":11036:11175   */\n      swap1\n      pop\n        /* \"#utility.yul\":10763:11182   */\n      swap2\n      swap1\n      pop\n      jump\t// out\n        /* \"#utility.yul\":11188:11349   */\n    tag_480:\n        /* \"#utility.yul\":11328:11341   */\n      0x43616e2774207374617274000000000000000000000000000000000000000000\n        /* \"#utility.yul\":11324:11325   */\n      0x00\n        /* \"#utility.yul\":11316:11322   */\n      dup3\n        /* \"#utility.yul\":11312:11326   */\n      add\n        /* \"#utility.yul\":11305:11342   */\n      mstore\n        /* \"#utility.yul\":11188:11349   */\n      pop\n      jump\t// out\n        /* \"#utility.yul\":11355:11721   */\n    tag_481:\n        /* \"#utility.yul\":11497:11500   */\n      0x00\n        /* \"#utility.yul\":11518:11585   */\n      tag_621\n        /* \"#utility.yul\":11582:11584   */\n      0x0b\n        /* \"#utility.yul\":11577:11580   */\n      dup4\n        /* \"#utility.yul\":11518:11585   */\n      tag_465\n      jump\t// in\n    tag_621:\n        /* \"#utility.yul\":11511:11585   */\n      swap2\n      pop\n        /* \"#utility.yul\":11594:11687   */\n      tag_622\n        /* \"#utility.yul\":11683:11686   */\n      dup3\n        /* \"#utility.yul\":11594:11687   */\n      tag_480\n      jump\t// in\n    tag_622:\n        /* \"#utility.yul\":11712:11714   */\n      0x20\n        /* \"#utility.yul\":11707:11710   */\n      dup3\n        /* \"#utility.yul\":11703:11715   */\n      add\n        /* \"#utility.yul\":11696:11715   */\n      swap1\n      pop\n        /* \"#utility.yul\":11355:11721   */\n      swap2\n      swap1\n      pop\n      jump\t// out\n        /* \"#utility.yul\":11727:12146   */\n    tag_240:\n        /* \"#utility.yul\":11893:11897   */\n      0x00\n        /* \"#utility.yul\":11931:11933   */\n      0x20\n        /* \"#utility.yul\":11920:11929   */\n      dup3\n        /* \"#utility.yul\":11916:11934   */\n      add\n        /* \"#utility.yul\":11908:11934   */\n      swap1\n      pop\n        /* \"#utility.yul\":11980:11989   */\n      dup2\n        /* \"#utility.yul\":11974:11978   */\n      dup2\n        /* \"#utility.yul\":11970:11990   */\n      sub\n        /* \"#utility.yul\":11966:11967   */\n      0x00\n        /* \"#utility.yul\":11955:11964   */\n      dup4\n        /* \"#utility.yul\":11951:11968   */\n      add\n        /* \"#utility.yul\":11944:11991   */\n      mstore\n        /* \"#utility.yul\":12008:12139   */\n      tag_624\n        /* \"#utility.yul\":12134:12138   */\n      dup2\n        /* \"#utility.yul\":12008:12139   */\n      tag_481\n      jump\t// in\n    tag_624:\n        /* \"#utility.yul\":12000:12139   */\n      swap1\n      pop\n        /* \"#utility.yul\":11727:12146   */\n      swap2\n      swap1\n      pop\n      jump\t// out\n        /* \"#utility.yul\":12152:12314   */\n    tag_482:\n        /* \"#utility.yul\":12292:12306   */\n      0x496e73756666696369656e740000000000000000000000000000000000000000\n        /* \"#utility.yul\":12288:12289   */\n      0x00\n        /* \"#utility.yul\":12280:12286   */\n      dup3\n        /* \"#utility.yul\":12276:12290   */\n      add\n        /* \"#utility.yul\":12269:12307   */\n      mstore\n        /* \"#utility.yul\":12152:12314   */\n      pop\n      jump\t// out\n        /* \"#utility.yul\":12320:12686   */\n    tag_483:\n        /* \"#utility.yul\":12462:12465   */\n      0x00\n        /* \"#utility.yul\":12483:12550   */\n      tag_627\n        /* \"#utility.yul\":12547:12549   */\n      0x0c\n        /* \"#utility.yul\":12542:12545   */\n      dup4\n        /* \"#utility.yul\":12483:12550   */\n      tag_465\n      jump\t// in\n    tag_627:\n        /* \"#utility.yul\":12476:12550   */\n      swap2\n      pop\n        /* \"#utility.yul\":12559:12652   */\n      tag_628\n        /* \"#utility.yul\":12648:12651   */\n      dup3\n        /* \"#utility.yul\":12559:12652   */\n      tag_482\n      jump\t// in\n    tag_628:\n        /* \"#utility.yul\":12677:12679   */\n      0x20\n        /* \"#utility.yul\":12672:12675   */\n      dup3\n        /* \"#utility.yul\":12668:12680   */\n      add\n        /* \"#utility.yul\":12661:12680   */\n      swap1\n      pop\n        /* \"#utility.yul\":12320:12686   */\n      swap2\n      swap1\n      pop\n      jump\t// out\n        /* \"#utility.yul\":12692:13111   */\n    tag_244:\n        /* \"#utility.yul\":12858:12862   */\n      0x00\n        /* \"#utility.yul\":12896:12898   */\n      0x20\n        /* \"#utility.yul\":12885:12894   */\n      dup3\n        /* \"#utility.yul\":12881:12899   */\n      add\n        /* \"#utility.yul\":12873:12899   */\n      swap1\n      pop\n        /* \"#utility.yul\":12945:12954   */\n      dup2\n        /* \"#utility.yul\":12939:12943   */\n      dup2\n        /* \"#utility.yul\":12935:12955   */\n      sub\n        /* \"#utility.yul\":12931:12932   */\n      0x00\n        /* \"#utility.yul\":12920:12929   */\n      dup4\n        /* \"#utility.yul\":12916:12933   */\n      add\n        /* \"#utility.yul\":12909:12956   */\n      mstore\n        /* \"#utility.yul\":12973:13104   */\n      tag_630\n        /* \"#utility.yul\":13099:13103   */\n      dup2\n        /* \"#utility.yul\":12973:13104   */\n      tag_483\n      jump\t// in\n    tag_630:\n        /* \"#utility.yul\":12965:13104   */\n      swap1\n      pop\n        /* \"#utility.yul\":12692:13111   */\n      swap2\n      swap1\n      pop\n      jump\t// out\n        /* \"#utility.yul\":13117:13279   */\n    tag_484:\n        /* \"#utility.yul\":13257:13271   */\n      0x496e76616c6964204d6f64650000000000000000000000000000000000000000\n        /* \"#utility.yul\":13253:13254   */\n      0x00\n        /* \"#utility.yul\":13245:13251   */\n      dup3\n        /* \"#utility.yul\":13241:13255   */\n      add\n        /* \"#utility.yul\":13234:13272   */\n      mstore\n        /* \"#utility.yul\":13117:13279   */\n      pop\n      jump\t// out\n        /* \"#utility.yul\":13285:13651   */\n    tag_485:\n        /* \"#utility.yul\":13427:13430   */\n      0x00\n        /* \"#utility.yul\":13448:13515   */\n      tag_633\n        /* \"#utility.yul\":13512:13514   */\n      0x0c\n        /* \"#utility.yul\":13507:13510   */\n      dup4\n        /* \"#utility.yul\":13448:13515   */\n      tag_465\n      jump\t// in\n    tag_633:\n        /* \"#utility.yul\":13441:13515   */\n      swap2\n      pop\n        /* \"#utility.yul\":13524:13617   */\n      tag_634\n        /* \"#utility.yul\":13613:13616   */\n      dup3\n        /* \"#utility.yul\":13524:13617   */\n      tag_484\n      jump\t// in\n    tag_634:\n        /* \"#utility.yul\":13642:13644   */\n      0x20\n        /* \"#utility.yul\":13637:13640   */\n      dup3\n        /* \"#utility.yul\":13633:13645   */\n      add\n        /* \"#utility.yul\":13626:13645   */\n      swap1\n      pop\n        /* \"#utility.yul\":13285:13651   */\n      swap2\n      swap1\n      pop\n      jump\t// out\n        /* \"#utility.yul\":13657:14076   */\n    tag_260:\n        /* \"#utility.yul\":13823:13827   */\n      0x00\n        /* \"#utility.yul\":13861:13863   */\n      0x20\n        /* \"#utility.yul\":13850:13859   */\n      dup3\n        /* \"#utility.yul\":13846:13864   */\n      add\n        /* \"#utility.yul\":13838:13864   */\n      swap1\n      pop\n        /* \"#utility.yul\":13910:13919   */\n      dup2\n        /* \"#utility.yul\":13904:13908   */\n      dup2\n        /* \"#utility.yul\":13900:13920   */\n      sub\n        /* \"#utility.yul\":13896:13897   */\n      0x00\n        /* \"#utility.yul\":13885:13894   */\n      dup4\n        /* \"#utility.yul\":13881:13898   */\n      add\n        /* \"#utility.yul\":13874:13921   */\n      mstore\n        /* \"#utility.yul\":13938:14069   */\n      tag_636\n        /* \"#utility.yul\":14064:14068   */\n      dup2\n        /* \"#utility.yul\":13938:14069   */\n      tag_485\n      jump\t// in\n    tag_636:\n        /* \"#utility.yul\":13930:14069   */\n      swap1\n      pop\n        /* \"#utility.yul\":13657:14076   */\n      swap2\n      swap1\n      pop\n      jump\t// out\n        /* \"#utility.yul\":14082:14255   */\n    tag_486:\n        /* \"#utility.yul\":14222:14247   */\n      0x496e76616c6964204c6f636b7570204475726174696f6e000000000000000000\n        /* \"#utility.yul\":14218:14219   */\n      0x00\n        /* \"#utility.yul\":14210:14216   */\n      dup3\n        /* \"#utility.yul\":14206:14220   */\n      add\n        /* \"#utility.yul\":14199:14248   */\n      mstore\n        /* \"#utility.yul\":14082:14255   */\n      pop\n      jump\t// out\n        /* \"#utility.yul\":14261:14627   */\n    tag_487:\n        /* \"#utility.yul\":14403:14406   */\n      0x00\n        /* \"#utility.yul\":14424:14491   */\n      tag_639\n        /* \"#utility.yul\":14488:14490   */\n      0x17\n        /* \"#utility.yul\":14483:14486   */\n      dup4\n        /* \"#utility.yul\":14424:14491   */\n      tag_465\n      jump\t// in\n    tag_639:\n        /* \"#utility.yul\":14417:14491   */\n      swap2\n      pop\n        /* \"#utility.yul\":14500:14593   */\n      tag_640\n        /* \"#utility.yul\":14589:14592   */\n      dup3\n        /* \"#utility.yul\":14500:14593   */\n      tag_486\n      jump\t// in\n    tag_640:\n        /* \"#utility.yul\":14618:14620   */\n      0x20\n        /* \"#utility.yul\":14613:14616   */\n      dup3\n        /* \"#utility.yul\":14609:14621   */\n      add\n        /* \"#utility.yul\":14602:14621   */\n      swap1\n      pop\n        /* \"#utility.yul\":14261:14627   */\n      swap2\n      swap1\n      pop\n      jump\t// out\n        /* \"#utility.yul\":14633:15052   */\n    tag_272:\n        /* \"#utility.yul\":14799:14803   */\n      0x00\n        /* \"#utility.yul\":14837:14839   */\n      0x20\n        /* \"#utility.yul\":14826:14835   */\n      dup3\n        /* \"#utility.yul\":14822:14840   */\n      add\n        /* \"#utility.yul\":14814:14840   */\n      swap1\n      pop\n        /* \"#utility.yul\":14886:14895   */\n      dup2\n        /* \"#utility.yul\":14880:14884   */\n      dup2\n        /* \"#utility.yul\":14876:14896   */\n      sub\n        /* \"#utility.yul\":14872:14873   */\n      0x00\n        /* \"#utility.yul\":14861:14870   */\n      dup4\n        /* \"#utility.yul\":14857:14874   */\n      add\n        /* \"#utility.yul\":14850:14897   */\n      mstore\n        /* \"#utility.yul\":14914:15045   */\n      tag_642\n        /* \"#utility.yul\":15040:15044   */\n      dup2\n        /* \"#utility.yul\":14914:15045   */\n      tag_487\n      jump\t// in\n    tag_642:\n        /* \"#utility.yul\":14906:15045   */\n      swap1\n      pop\n        /* \"#utility.yul\":14633:15052   */\n      swap2\n      swap1\n      pop\n      jump\t// out\n        /* \"#utility.yul\":15058:15238   */\n    tag_488:\n        /* \"#utility.yul\":15106:15183   */\n      0x4e487b7100000000000000000000000000000000000000000000000000000000\n        /* \"#utility.yul\":15103:15104   */\n      0x00\n        /* \"#utility.yul\":15096:15184   */\n      mstore\n        /* \"#utility.yul\":15203:15207   */\n      0x11\n        /* \"#utility.yul\":15200:15201   */\n      0x04\n        /* \"#utility.yul\":15193:15208   */\n      mstore\n        /* \"#utility.yul\":15227:15231   */\n      0x24\n        /* \"#utility.yul\":15224:15225   */\n      0x00\n        /* \"#utility.yul\":15217:15232   */\n      revert\n        /* \"#utility.yul\":15244:15549   */\n    tag_281:\n        /* \"#utility.yul\":15284:15287   */\n      0x00\n        /* \"#utility.yul\":15303:15323   */\n      tag_645\n        /* \"#utility.yul\":15321:15322   */\n      dup3\n        /* \"#utility.yul\":15303:15323   */\n      tag_448\n      jump\t// in\n    tag_645:\n        /* \"#utility.yul\":15298:15323   */\n      swap2\n      pop\n        /* \"#utility.yul\":15337:15357   */\n      tag_646\n        /* \"#utility.yul\":15355:15356   */\n      dup4\n        /* \"#utility.yul\":15337:15357   */\n      tag_448\n      jump\t// in\n    tag_646:\n        /* \"#utility.yul\":15332:15357   */\n      swap3\n      pop\n        /* \"#utility.yul\":15491:15492   */\n      dup3\n        /* \"#utility.yul\":15423:15489   */\n      0xffffffffffffffffffffffffffffffffffffffffffffffffffffffffffffffff\n        /* \"#utility.yul\":15419:15493   */\n      sub\n        /* \"#utility.yul\":15416:15417   */\n      dup3\n        /* \"#utility.yul\":15413:15494   */\n      gt\n        /* \"#utility.yul\":15410:15517   */\n      iszero\n      tag_647\n      jumpi\n        /* \"#utility.yul\":15497:15515   */\n      tag_648\n      tag_488\n      jump\t// in\n    tag_648:\n        /* \"#utility.yul\":15410:15517   */\n    tag_647:\n        /* \"#utility.yul\":15541:15542   */\n      dup3\n        /* \"#utility.yul\":15538:15539   */\n      dup3\n        /* \"#utility.yul\":15534:15543   */\n      add\n        /* \"#utility.yul\":15527:15543   */\n      swap1\n      pop\n        /* \"#utility.yul\":15244:15549   */\n      swap3\n      swap2\n      pop\n      pop\n      jump\t// out\n        /* \"#utility.yul\":15555:15731   */\n    tag_489:\n        /* \"#utility.yul\":15695:15723   */\n      0x496e76616c696420556e7374616b696e67204665652052617465000000000000\n        /* \"#utility.yul\":15691:15692   */\n      0x00\n        /* \"#utility.yul\":15683:15689   */\n      dup3\n        /* \"#utility.yul\":15679:15693   */\n      add\n        /* \"#utility.yul\":15672:15724   */\n      mstore\n        /* \"#utility.yul\":15555:15731   */\n      pop\n      jump\t// out\n        /* \"#utility.yul\":15737:16103   */\n    tag_490:\n        /* \"#utility.yul\":15879:15882   */\n      0x00\n        /* \"#utility.yul\":15900:15967   */\n      tag_651\n        /* \"#utility.yul\":15964:15966   */\n      0x1a\n        /* \"#utility.yul\":15959:15962   */\n      dup4\n        /* \"#utility.yul\":15900:15967   */\n      tag_465\n      jump\t// in\n    tag_651:\n        /* \"#utility.yul\":15893:15967   */\n      swap2\n      pop\n        /* \"#utility.yul\":15976:16069   */\n      tag_652\n        /* \"#utility.yul\":16065:16068   */\n      dup3\n        /* \"#utility.yul\":15976:16069   */\n      tag_489\n      jump\t// in\n    tag_652:\n        /* \"#utility.yul\":16094:16096   */\n      0x20\n        /* \"#utility.yul\":16089:16092   */\n      dup3\n        /* \"#utility.yul\":16085:16097   */\n      add\n        /* \"#utility.yul\":16078:16097   */\n      swap1\n      pop\n        /* \"#utility.yul\":15737:16103   */\n      swap2\n      swap1\n      pop\n      jump\t// out\n        /* \"#utility.yul\":16109:16528   */\n    tag_310:\n        /* \"#utility.yul\":16275:16279   */\n      0x00\n        /* \"#utility.yul\":16313:16315   */\n      0x20\n        /* \"#utility.yul\":16302:16311   */\n      dup3\n        /* \"#utility.yul\":16298:16316   */\n      add\n        /* \"#utility.yul\":16290:16316   */\n      swap1\n      pop\n        /* \"#utility.yul\":16362:16371   */\n      dup2\n        /* \"#utility.yul\":16356:16360   */\n      dup2\n        /* \"#utility.yul\":16352:16372   */\n      sub\n        /* \"#utility.yul\":16348:16349   */\n      0x00\n        /* \"#utility.yul\":16337:16346   */\n      dup4\n        /* \"#utility.yul\":16333:16350   */\n      add\n        /* \"#utility.yul\":16326:16373   */\n      mstore\n        /* \"#utility.yul\":16390:16521   */\n      tag_654\n        /* \"#utility.yul\":16516:16520   */\n      dup2\n        /* \"#utility.yul\":16390:16521   */\n      tag_490\n      jump\t// in\n    tag_654:\n        /* \"#utility.yul\":16382:16521   */\n      swap1\n      pop\n        /* \"#utility.yul\":16109:16528   */\n      swap2\n      swap1\n      pop\n      jump\t// out\n        /* \"#utility.yul\":16534:16697   */\n    tag_491:\n        /* \"#utility.yul\":16674:16689   */\n      0x496e76616c69642076616c756500000000000000000000000000000000000000\n        /* \"#utility.yul\":16670:16671   */\n      0x00\n        /* \"#utility.yul\":16662:16668   */\n      dup3\n        /* \"#utility.yul\":16658:16672   */\n      add\n        /* \"#utility.yul\":16651:16690   */\n      mstore\n        /* \"#utility.yul\":16534:16697   */\n      pop\n      jump\t// out\n        /* \"#utility.yul\":16703:17069   */\n    tag_492:\n        /* \"#utility.yul\":16845:16848   */\n      0x00\n        /* \"#utility.yul\":16866:16933   */\n      tag_657\n        /* \"#utility.yul\":16930:16932   */\n      0x0d\n        /* \"#utility.yul\":16925:16928   */\n      dup4\n        /* \"#utility.yul\":16866:16933   */\n      tag_465\n      jump\t// in\n    tag_657:\n        /* \"#utility.yul\":16859:16933   */\n      swap2\n      pop\n        /* \"#utility.yul\":16942:17035   */\n      tag_658\n        /* \"#utility.yul\":17031:17034   */\n      dup3\n        /* \"#utility.yul\":16942:17035   */\n      tag_491\n      jump\t// in\n    tag_658:\n        /* \"#utility.yul\":17060:17062   */\n      0x20\n        /* \"#utility.yul\":17055:17058   */\n      dup3\n        /* \"#utility.yul\":17051:17063   */\n      add\n        /* \"#utility.yul\":17044:17063   */\n      swap1\n      pop\n        /* \"#utility.yul\":16703:17069   */\n      swap2\n      swap1\n      pop\n      jump\t// out\n        /* \"#utility.yul\":17075:17494   */\n    tag_320:\n        /* \"#utility.yul\":17241:17245   */\n      0x00\n        /* \"#utility.yul\":17279:17281   */\n      0x20\n        /* \"#utility.yul\":17268:17277   */\n      dup3\n        /* \"#utility.yul\":17264:17282   */\n      add\n        /* \"#utility.yul\":17256:17282   */\n      swap1\n      pop\n        /* \"#utility.yul\":17328:17337   */\n      dup2\n        /* \"#utility.yul\":17322:17326   */\n      dup2\n        /* \"#utility.yul\":17318:17338   */\n      sub\n        /* \"#utility.yul\":17314:17315   */\n      0x00\n        /* \"#utility.yul\":17303:17312   */\n      dup4\n        /* \"#utility.yul\":17299:17316   */\n      add\n        /* \"#utility.yul\":17292:17339   */\n      mstore\n        /* \"#utility.yul\":17356:17487   */\n      tag_660\n        /* \"#utility.yul\":17482:17486   */\n      dup2\n        /* \"#utility.yul\":17356:17487   */\n      tag_492\n      jump\t// in\n    tag_660:\n        /* \"#utility.yul\":17348:17487   */\n      swap1\n      pop\n        /* \"#utility.yul\":17075:17494   */\n      swap2\n      swap1\n      pop\n      jump\t// out\n        /* \"#utility.yul\":17500:17671   */\n    tag_493:\n        /* \"#utility.yul\":17640:17663   */\n      0x4572726f723a20696e76616c6964207374616b65720000000000000000000000\n        /* \"#utility.yul\":17636:17637   */\n      0x00\n        /* \"#utility.yul\":17628:17634   */\n      dup3\n        /* \"#utility.yul\":17624:17638   */\n      add\n        /* \"#utility.yul\":17617:17664   */\n      mstore\n        /* \"#utility.yul\":17500:17671   */\n      pop\n      jump\t// out\n        /* \"#utility.yul\":17677:18043   */\n    tag_494:\n        /* \"#utility.yul\":17819:17822   */\n      0x00\n        /* \"#utility.yul\":17840:17907   */\n      tag_663\n        /* \"#utility.yul\":17904:17906   */\n      0x15\n        /* \"#utility.yul\":17899:17902   */\n      dup4\n        /* \"#utility.yul\":17840:17907   */\n      tag_465\n      jump\t// in\n    tag_663:\n        /* \"#utility.yul\":17833:17907   */\n      swap2\n      pop\n        /* \"#utility.yul\":17916:18009   */\n      tag_664\n        /* \"#utility.yul\":18005:18008   */\n      dup3\n        /* \"#utility.yul\":17916:18009   */\n      tag_493\n      jump\t// in\n    tag_664:\n        /* \"#utility.yul\":18034:18036   */\n      0x20\n        /* \"#utility.yul\":18029:18032   */\n      dup3\n        /* \"#utility.yul\":18025:18037   */\n      add\n        /* \"#utility.yul\":18018:18037   */\n      swap1\n      pop\n        /* \"#utility.yul\":17677:18043   */\n      swap2\n      swap1\n      pop\n      jump\t// out\n        /* \"#utility.yul\":18049:18468   */\n    tag_334:\n        /* \"#utility.yul\":18215:18219   */\n      0x00\n        /* \"#utility.yul\":18253:18255   */\n      0x20\n        /* \"#utility.yul\":18242:18251   */\n      dup3\n        /* \"#utility.yul\":18238:18256   */\n      add\n        /* \"#utility.yul\":18230:18256   */\n      swap1\n      pop\n        /* \"#utility.yul\":18302:18311   */\n      dup2\n        /* \"#utility.yul\":18296:18300   */\n      dup2\n        /* \"#utility.yul\":18292:18312   */\n      sub\n        /* \"#utility.yul\":18288:18289   */\n      0x00\n        /* \"#utility.yul\":18277:18286   */\n      dup4\n        /* \"#utility.yul\":18273:18290   */\n      add\n        /* \"#utility.yul\":18266:18313   */\n      mstore\n        /* \"#utility.yul\":18330:18461   */\n      tag_666\n        /* \"#utility.yul\":18456:18460   */\n      dup2\n        /* \"#utility.yul\":18330:18461   */\n      tag_494\n      jump\t// in\n    tag_666:\n        /* \"#utility.yul\":18322:18461   */\n      swap1\n      pop\n        /* \"#utility.yul\":18049:18468   */\n      swap2\n      swap1\n      pop\n      jump\t// out\n        /* \"#utility.yul\":18474:18638   */\n    tag_495:\n        /* \"#utility.yul\":18614:18630   */\n      0x4e6f74207374616b657220796574000000000000000000000000000000000000\n        /* \"#utility.yul\":18610:18611   */\n      0x00\n        /* \"#utility.yul\":18602:18608   */\n      dup3\n        /* \"#utility.yul\":18598:18612   */\n      add\n        /* \"#utility.yul\":18591:18631   */\n      mstore\n        /* \"#utility.yul\":18474:18638   */\n      pop\n      jump\t// out\n        /* \"#utility.yul\":18644:19010   */\n    tag_496:\n        /* \"#utility.yul\":18786:18789   */\n      0x00\n        /* \"#utility.yul\":18807:18874   */\n      tag_669\n        /* \"#utility.yul\":18871:18873   */\n      0x0e\n        /* \"#utility.yul\":18866:18869   */\n      dup4\n        /* \"#utility.yul\":18807:18874   */\n      tag_465\n      jump\t// in\n    tag_669:\n        /* \"#utility.yul\":18800:18874   */\n      swap2\n      pop\n        /* \"#utility.yul\":18883:18976   */\n      tag_670\n        /* \"#utility.yul\":18972:18975   */\n      dup3\n        /* \"#utility.yul\":18883:18976   */\n      tag_495\n      jump\t// in\n    tag_670:\n        /* \"#utility.yul\":19001:19003   */\n      0x20\n        /* \"#utility.yul\":18996:18999   */\n      dup3\n        /* \"#utility.yul\":18992:19004   */\n      add\n        /* \"#utility.yul\":18985:19004   */\n      swap1\n      pop\n        /* \"#utility.yul\":18644:19010   */\n      swap2\n      swap1\n      pop\n      jump\t// out\n        /* \"#utility.yul\":19016:19435   */\n    tag_353:\n        /* \"#utility.yul\":19182:19186   */\n      0x00\n        /* \"#utility.yul\":19220:19222   */\n      0x20\n        /* \"#utility.yul\":19209:19218   */\n      dup3\n        /* \"#utility.yul\":19205:19223   */\n      add\n        /* \"#utility.yul\":19197:19223   */\n      swap1\n      pop\n        /* \"#utility.yul\":19269:19278   */\n      dup2\n        /* \"#utility.yul\":19263:19267   */\n      dup2\n        /* \"#utility.yul\":19259:19279   */\n      sub\n        /* \"#utility.yul\":19255:19256   */\n      0x00\n        /* \"#utility.yul\":19244:19253   */\n      dup4\n        /* \"#utility.yul\":19240:19257   */\n      add\n        /* \"#utility.yul\":19233:19280   */\n      mstore\n        /* \"#utility.yul\":19297:19428   */\n      tag_672\n        /* \"#utility.yul\":19423:19427   */\n      dup2\n        /* \"#utility.yul\":19297:19428   */\n      tag_496\n      jump\t// in\n    tag_672:\n        /* \"#utility.yul\":19289:19428   */\n      swap1\n      pop\n        /* \"#utility.yul\":19016:19435   */\n      swap2\n      swap1\n      pop\n      jump\t// out\n        /* \"#utility.yul\":19441:19666   */\n    tag_497:\n        /* \"#utility.yul\":19581:19615   */\n      0x4f776e61626c653a206e6577206f776e657220697320746865207a65726f2061\n        /* \"#utility.yul\":19577:19578   */\n      0x00\n        /* \"#utility.yul\":19569:19575   */\n      dup3\n        /* \"#utility.yul\":19565:19579   */\n      add\n        /* \"#utility.yul\":19558:19616   */\n      mstore\n        /* \"#utility.yul\":19650:19658   */\n      0x6464726573730000000000000000000000000000000000000000000000000000\n        /* \"#utility.yul\":19645:19647   */\n      0x20\n        /* \"#utility.yul\":19637:19643   */\n      dup3\n        /* \"#utility.yul\":19633:19648   */\n      add\n        /* \"#utility.yul\":19626:19659   */\n      mstore\n        /* \"#utility.yul\":19441:19666   */\n      pop\n      jump\t// out\n        /* \"#utility.yul\":19672:20038   */\n    tag_498:\n        /* \"#utility.yul\":19814:19817   */\n      0x00\n        /* \"#utility.yul\":19835:19902   */\n      tag_675\n        /* \"#utility.yul\":19899:19901   */\n      0x26\n        /* \"#utility.yul\":19894:19897   */\n      dup4\n        /* \"#utility.yul\":19835:19902   */\n      tag_465\n      jump\t// in\n    tag_675:\n        /* \"#utility.yul\":19828:19902   */\n      swap2\n      pop\n        /* \"#utility.yul\":19911:20004   */\n      tag_676\n        /* \"#utility.yul\":20000:20003   */\n      dup3\n        /* \"#utility.yul\":19911:20004   */\n      tag_497\n      jump\t// in\n    tag_676:\n        /* \"#utility.yul\":20029:20031   */\n      0x40\n        /* \"#utility.yul\":20024:20027   */\n      dup3\n        /* \"#utility.yul\":20020:20032   */\n      add\n        /* \"#utility.yul\":20013:20032   */\n      swap1\n      pop\n        /* \"#utility.yul\":19672:20038   */\n      swap2\n      swap1\n      pop\n      jump\t// out\n        /* \"#utility.yul\":20044:20463   */\n    tag_380:\n        /* \"#utility.yul\":20210:20214   */\n      0x00\n        /* \"#utility.yul\":20248:20250   */\n      0x20\n        /* \"#utility.yul\":20237:20246   */\n      dup3\n        /* \"#utility.yul\":20233:20251   */\n      add\n        /* \"#utility.yul\":20225:20251   */\n      swap1\n      pop\n        /* \"#utility.yul\":20297:20306   */\n      dup2\n        /* \"#utility.yul\":20291:20295   */\n      dup2\n        /* \"#utility.yul\":20287:20307   */\n      sub\n        /* \"#utility.yul\":20283:20284   */\n      0x00\n        /* \"#utility.yul\":20272:20281   */\n      dup4\n        /* \"#utility.yul\":20268:20285   */\n      add\n        /* \"#utility.yul\":20261:20308   */\n      mstore\n        /* \"#utility.yul\":20325:20456   */\n      tag_678\n        /* \"#utility.yul\":20451:20455   */\n      dup2\n        /* \"#utility.yul\":20325:20456   */\n      tag_498\n      jump\t// in\n    tag_678:\n        /* \"#utility.yul\":20317:20456   */\n      swap1\n      pop\n        /* \"#utility.yul\":20044:20463   */\n      swap2\n      swap1\n      pop\n      jump\t// out\n        /* \"#utility.yul\":20469:20660   */\n    tag_394:\n        /* \"#utility.yul\":20509:20513   */\n      0x00\n        /* \"#utility.yul\":20529:20549   */\n      tag_680\n        /* \"#utility.yul\":20547:20548   */\n      dup3\n        /* \"#utility.yul\":20529:20549   */\n      tag_448\n      jump\t// in\n    tag_680:\n        /* \"#utility.yul\":20524:20549   */\n      swap2\n      pop\n        /* \"#utility.yul\":20563:20583   */\n      tag_681\n        /* \"#utility.yul\":20581:20582   */\n      dup4\n        /* \"#utility.yul\":20563:20583   */\n      tag_448\n      jump\t// in\n    tag_681:\n        /* \"#utility.yul\":20558:20583   */\n      swap3\n      pop\n        /* \"#utility.yul\":20602:20603   */\n      dup3\n        /* \"#utility.yul\":20599:20600   */\n      dup3\n        /* \"#utility.yul\":20596:20604   */\n      lt\n        /* \"#utility.yul\":20593:20627   */\n      iszero\n      tag_682\n      jumpi\n        /* \"#utility.yul\":20607:20625   */\n      tag_683\n      tag_488\n      jump\t// in\n    tag_683:\n        /* \"#utility.yul\":20593:20627   */\n    tag_682:\n        /* \"#utility.yul\":20652:20653   */\n      dup3\n        /* \"#utility.yul\":20649:20650   */\n      dup3\n        /* \"#utility.yul\":20645:20654   */\n      sub\n        /* \"#utility.yul\":20637:20654   */\n      swap1\n      pop\n        /* \"#utility.yul\":20469:20660   */\n      swap3\n      swap2\n      pop\n      pop\n      jump\t// out\n        /* \"#utility.yul\":20666:20851   */\n    tag_397:\n        /* \"#utility.yul\":20706:20707   */\n      0x00\n        /* \"#utility.yul\":20723:20743   */\n      tag_685\n        /* \"#utility.yul\":20741:20742   */\n      dup3\n        /* \"#utility.yul\":20723:20743   */\n      tag_448\n      jump\t// in\n    tag_685:\n        /* \"#utility.yul\":20718:20743   */\n      swap2\n      pop\n        /* \"#utility.yul\":20757:20777   */\n      tag_686\n        /* \"#utility.yul\":20775:20776   */\n      dup4\n        /* \"#utility.yul\":20757:20777   */\n      tag_448\n      jump\t// in\n    tag_686:\n        /* \"#utility.yul\":20752:20777   */\n      swap3\n      pop\n        /* \"#utility.yul\":20796:20797   */\n      dup3\n        /* \"#utility.yul\":20786:20821   */\n      tag_687\n      jumpi\n        /* \"#utility.yul\":20801:20819   */\n      tag_688\n      tag_474\n      jump\t// in\n    tag_688:\n        /* \"#utility.yul\":20786:20821   */\n    tag_687:\n        /* \"#utility.yul\":20843:20844   */\n      dup3\n        /* \"#utility.yul\":20840:20841   */\n      dup3\n        /* \"#utility.yul\":20836:20845   */\n      div\n        /* \"#utility.yul\":20831:20845   */\n      swap1\n      pop\n        /* \"#utility.yul\":20666:20851   */\n      swap3\n      swap2\n      pop\n      pop\n      jump\t// out\n        /* \"#utility.yul\":20857:21205   */\n    tag_400:\n        /* \"#utility.yul\":20897:20904   */\n      0x00\n        /* \"#utility.yul\":20920:20940   */\n      tag_690\n        /* \"#utility.yul\":20938:20939   */\n      dup3\n        /* \"#utility.yul\":20920:20940   */\n      tag_448\n      jump\t// in\n    tag_690:\n        /* \"#utility.yul\":20915:20940   */\n      swap2\n      pop\n        /* \"#utility.yul\":20954:20974   */\n      tag_691\n        /* \"#utility.yul\":20972:20973   */\n      dup4\n        /* \"#utility.yul\":20954:20974   */\n      tag_448\n      jump\t// in\n    tag_691:\n        /* \"#utility.yul\":20949:20974   */\n      swap3\n      pop\n        /* \"#utility.yul\":21142:21143   */\n      dup2\n        /* \"#utility.yul\":21074:21140   */\n      0xffffffffffffffffffffffffffffffffffffffffffffffffffffffffffffffff\n        /* \"#utility.yul\":21070:21144   */\n      div\n        /* \"#utility.yul\":21067:21068   */\n      dup4\n        /* \"#utility.yul\":21064:21145   */\n      gt\n        /* \"#utility.yul\":21059:21060   */\n      dup3\n        /* \"#utility.yul\":21052:21061   */\n      iszero\n        /* \"#utility.yul\":21045:21062   */\n      iszero\n        /* \"#utility.yul\":21041:21146   */\n      and\n        /* \"#utility.yul\":21038:21169   */\n      iszero\n      tag_692\n      jumpi\n        /* \"#utility.yul\":21149:21167   */\n      tag_693\n      tag_488\n      jump\t// in\n    tag_693:\n        /* \"#utility.yul\":21038:21169   */\n    tag_692:\n        /* \"#utility.yul\":21197:21198   */\n      dup3\n        /* \"#utility.yul\":21194:21195   */\n      dup3\n        /* \"#utility.yul\":21190:21199   */\n      mul\n        /* \"#utility.yul\":21179:21199   */\n      swap1\n      pop\n        /* \"#utility.yul\":20857:21205   */\n      swap3\n      swap2\n      pop\n      pop\n      jump\t// out\n        /* \"#utility.yul\":21211:21653   */\n    tag_411:\n        /* \"#utility.yul\":21360:21364   */\n      0x00\n        /* \"#utility.yul\":21398:21400   */\n      0x60\n        /* \"#utility.yul\":21387:21396   */\n      dup3\n        /* \"#utility.yul\":21383:21401   */\n      add\n        /* \"#utility.yul\":21375:21401   */\n      swap1\n      pop\n        /* \"#utility.yul\":21411:21482   */\n      tag_695\n        /* \"#utility.yul\":21479:21480   */\n      0x00\n        /* \"#utility.yul\":21468:21477   */\n      dup4\n        /* \"#utility.yul\":21464:21481   */\n      add\n        /* \"#utility.yul\":21455:21461   */\n      dup7\n        /* \"#utility.yul\":21411:21482   */\n      tag_459\n      jump\t// in\n    tag_695:\n        /* \"#utility.yul\":21492:21564   */\n      tag_696\n        /* \"#utility.yul\":21560:21562   */\n      0x20\n        /* \"#utility.yul\":21549:21558   */\n      dup4\n        /* \"#utility.yul\":21545:21563   */\n      add\n        /* \"#utility.yul\":21536:21542   */\n      dup6\n        /* \"#utility.yul\":21492:21564   */\n      tag_459\n      jump\t// in\n    tag_696:\n        /* \"#utility.yul\":21574:21646   */\n      tag_697\n        /* \"#utility.yul\":21642:21644   */\n      0x40\n        /* \"#utility.yul\":21631:21640   */\n      dup4\n        /* \"#utility.yul\":21627:21645   */\n      add\n        /* \"#utility.yul\":21618:21624   */\n      dup5\n        /* \"#utility.yul\":21574:21646   */\n      tag_449\n      jump\t// in\n    tag_697:\n        /* \"#utility.yul\":21211:21653   */\n      swap5\n      swap4\n      pop\n      pop\n      pop\n      pop\n      jump\t// out\n        /* \"#utility.yul\":21659:21749   */\n    tag_499:\n        /* \"#utility.yul\":21693:21700   */\n      0x00\n        /* \"#utility.yul\":21736:21741   */\n      dup2\n        /* \"#utility.yul\":21729:21742   */\n      iszero\n        /* \"#utility.yul\":21722:21743   */\n      iszero\n        /* \"#utility.yul\":21711:21743   */\n      swap1\n      pop\n        /* \"#utility.yul\":21659:21749   */\n      swap2\n      swap1\n      pop\n      jump\t// out\n        /* \"#utility.yul\":21755:21871   */\n    tag_500:\n        /* \"#utility.yul\":21825:21846   */\n      tag_700\n        /* \"#utility.yul\":21840:21845   */\n      dup2\n        /* \"#utility.yul\":21825:21846   */\n      tag_499\n      jump\t// in\n    tag_700:\n        /* \"#utility.yul\":21818:21823   */\n      dup2\n        /* \"#utility.yul\":21815:21847   */\n      eq\n        /* \"#utility.yul\":21805:21865   */\n      tag_701\n      jumpi\n        /* \"#utility.yul\":21861:21862   */\n      0x00\n        /* \"#utility.yul\":21858:21859   */\n      dup1\n        /* \"#utility.yul\":21851:21863   */\n      revert\n        /* \"#utility.yul\":21805:21865   */\n    tag_701:\n        /* \"#utility.yul\":21755:21871   */\n      pop\n      jump\t// out\n        /* \"#utility.yul\":21877:22014   */\n    tag_501:\n        /* \"#utility.yul\":21931:21936   */\n      0x00\n        /* \"#utility.yul\":21962:21968   */\n      dup2\n        /* \"#utility.yul\":21956:21969   */\n      mload\n        /* \"#utility.yul\":21947:21969   */\n      swap1\n      pop\n        /* \"#utility.yul\":21978:22008   */\n      tag_703\n        /* \"#utility.yul\":22002:22007   */\n      dup2\n        /* \"#utility.yul\":21978:22008   */\n      tag_500\n      jump\t// in\n    tag_703:\n        /* \"#utility.yul\":21877:22014   */\n      swap3\n      swap2\n      pop\n      pop\n      jump\t// out\n        /* \"#utility.yul\":22020:22365   */\n    tag_417:\n        /* \"#utility.yul\":22087:22093   */\n      0x00\n        /* \"#utility.yul\":22136:22138   */\n      0x20\n        /* \"#utility.yul\":22124:22133   */\n      dup3\n        /* \"#utility.yul\":22115:22122   */\n      dup5\n        /* \"#utility.yul\":22111:22134   */\n      sub\n        /* \"#utility.yul\":22107:22139   */\n      slt\n        /* \"#utility.yul\":22104:22223   */\n      iszero\n      tag_705\n      jumpi\n        /* \"#utility.yul\":22142:22221   */\n      tag_706\n      tag_451\n      jump\t// in\n    tag_706:\n        /* \"#utility.yul\":22104:22223   */\n    tag_705:\n        /* \"#utility.yul\":22262:22263   */\n      0x00\n        /* \"#utility.yul\":22287:22348   */\n      tag_707\n        /* \"#utility.yul\":22340:22347   */\n      dup5\n        /* \"#utility.yul\":22331:22337   */\n      dup3\n        /* \"#utility.yul\":22320:22329   */\n      dup6\n        /* \"#utility.yul\":22316:22338   */\n      add\n        /* \"#utility.yul\":22287:22348   */\n      tag_501\n      jump\t// in\n    tag_707:\n        /* \"#utility.yul\":22277:22348   */\n      swap2\n      pop\n        /* \"#utility.yul\":22233:22358   */\n      pop\n        /* \"#utility.yul\":22020:22365   */\n      swap3\n      swap2\n      pop\n      pop\n      jump\t// out\n        /* \"#utility.yul\":22371:22600   */\n    tag_502:\n        /* \"#utility.yul\":22511:22545   */\n      0x5361666542455032303a204245503230206f7065726174696f6e20646964206e\n        /* \"#utility.yul\":22507:22508   */\n      0x00\n        /* \"#utility.yul\":22499:22505   */\n      dup3\n        /* \"#utility.yul\":22495:22509   */\n      add\n        /* \"#utility.yul\":22488:22546   */\n      mstore\n        /* \"#utility.yul\":22580:22592   */\n      0x6f74207375636365656400000000000000000000000000000000000000000000\n        /* \"#utility.yul\":22575:22577   */\n      0x20\n        /* \"#utility.yul\":22567:22573   */\n      dup3\n        /* \"#utility.yul\":22563:22578   */\n      add\n        /* \"#utility.yul\":22556:22593   */\n      mstore\n        /* \"#utility.yul\":22371:22600   */\n      pop\n      jump\t// out\n        /* \"#utility.yul\":22606:22972   */\n    tag_503:\n        /* \"#utility.yul\":22748:22751   */\n      0x00\n        /* \"#utility.yul\":22769:22836   */\n      tag_710\n        /* \"#utility.yul\":22833:22835   */\n      0x2a\n        /* \"#utility.yul\":22828:22831   */\n      dup4\n        /* \"#utility.yul\":22769:22836   */\n      tag_465\n      jump\t// in\n    tag_710:\n        /* \"#utility.yul\":22762:22836   */\n      swap2\n      pop\n        /* \"#utility.yul\":22845:22938   */\n      tag_711\n        /* \"#utility.yul\":22934:22937   */\n      dup3\n        /* \"#utility.yul\":22845:22938   */\n      tag_502\n      jump\t// in\n    tag_711:\n        /* \"#utility.yul\":22963:22965   */\n      0x40\n        /* \"#utility.yul\":22958:22961   */\n      dup3\n        /* \"#utility.yul\":22954:22966   */\n      add\n        /* \"#utility.yul\":22947:22966   */\n      swap1\n      pop\n        /* \"#utility.yul\":22606:22972   */\n      swap2\n      swap1\n      pop\n      jump\t// out\n        /* \"#utility.yul\":22978:23397   */\n    tag_420:\n        /* \"#utility.yul\":23144:23148   */\n      0x00\n        /* \"#utility.yul\":23182:23184   */\n      0x20\n        /* \"#utility.yul\":23171:23180   */\n      dup3\n        /* \"#utility.yul\":23167:23185   */\n      add\n        /* \"#utility.yul\":23159:23185   */\n      swap1\n      pop\n        /* \"#utility.yul\":23231:23240   */\n      dup2\n        /* \"#utility.yul\":23225:23229   */\n      dup2\n        /* \"#utility.yul\":23221:23241   */\n      sub\n        /* \"#utility.yul\":23217:23218   */\n      0x00\n        /* \"#utility.yul\":23206:23215   */\n      dup4\n        /* \"#utility.yul\":23202:23219   */\n      add\n        /* \"#utility.yul\":23195:23242   */\n      mstore\n        /* \"#utility.yul\":23259:23390   */\n      tag_713\n        /* \"#utility.yul\":23385:23389   */\n      dup2\n        /* \"#utility.yul\":23259:23390   */\n      tag_503\n      jump\t// in\n    tag_713:\n        /* \"#utility.yul\":23251:23390   */\n      swap1\n      pop\n        /* \"#utility.yul\":22978:23397   */\n      swap2\n      swap1\n      pop\n      jump\t// out\n        /* \"#utility.yul\":23403:23628   */\n    tag_504:\n        /* \"#utility.yul\":23543:23577   */\n      0x416464726573733a20696e73756666696369656e742062616c616e636520666f\n        /* \"#utility.yul\":23539:23540   */\n      0x00\n        /* \"#utility.yul\":23531:23537   */\n      dup3\n        /* \"#utility.yul\":23527:23541   */\n      add\n        /* \"#utility.yul\":23520:23578   */\n      mstore\n        /* \"#utility.yul\":23612:23620   */\n      0x722063616c6c0000000000000000000000000000000000000000000000000000\n        /* \"#utility.yul\":23607:23609   */\n      0x20\n        /* \"#utility.yul\":23599:23605   */\n      dup3\n        /* \"#utility.yul\":23595:23610   */\n      add\n        /* \"#utility.yul\":23588:23621   */\n      mstore\n        /* \"#utility.yul\":23403:23628   */\n      pop\n      jump\t// out\n        /* \"#utility.yul\":23634:24000   */\n    tag_505:\n        /* \"#utility.yul\":23776:23779   */\n      0x00\n        /* \"#utility.yul\":23797:23864   */\n      tag_716\n        /* \"#utility.yul\":23861:23863   */\n      0x26\n        /* \"#utility.yul\":23856:23859   */\n      dup4\n        /* \"#utility.yul\":23797:23864   */\n      tag_465\n      jump\t// in\n    tag_716:\n        /* \"#utility.yul\":23790:23864   */\n      swap2\n      pop\n        /* \"#utility.yul\":23873:23966   */\n      tag_717\n        /* \"#utility.yul\":23962:23965   */\n      dup3\n        /* \"#utility.yul\":23873:23966   */\n      tag_504\n      jump\t// in\n    tag_717:\n        /* \"#utility.yul\":23991:23993   */\n      0x40\n        /* \"#utility.yul\":23986:23989   */\n      dup3\n        /* \"#utility.yul\":23982:23994   */\n      add\n        /* \"#utility.yul\":23975:23994   */\n      swap1\n      pop\n        /* \"#utility.yul\":23634:24000   */\n      swap2\n      swap1\n      pop\n      jump\t// out\n        /* \"#utility.yul\":24006:24425   */\n    tag_427:\n        /* \"#utility.yul\":24172:24176   */\n      0x00\n        /* \"#utility.yul\":24210:24212   */\n      0x20\n        /* \"#utility.yul\":24199:24208   */\n      dup3\n        /* \"#utility.yul\":24195:24213   */\n      add\n        /* \"#utility.yul\":24187:24213   */\n      swap1\n      pop\n        /* \"#utility.yul\":24259:24268   */\n      dup2\n        /* \"#utility.yul\":24253:24257   */\n      dup2\n        /* \"#utility.yul\":24249:24269   */\n      sub\n        /* \"#utility.yul\":24245:24246   */\n      0x00\n        /* \"#utility.yul\":24234:24243   */\n      dup4\n        /* \"#utility.yul\":24230:24247   */\n      add\n        /* \"#utility.yul\":24223:24270   */\n      mstore\n        /* \"#utility.yul\":24287:24418   */\n      tag_719\n        /* \"#utility.yul\":24413:24417   */\n      dup2\n        /* \"#utility.yul\":24287:24418   */\n      tag_505\n      jump\t// in\n    tag_719:\n        /* \"#utility.yul\":24279:24418   */\n      swap1\n      pop\n        /* \"#utility.yul\":24006:24425   */\n      swap2\n      swap1\n      pop\n      jump\t// out\n        /* \"#utility.yul\":24431:24610   */\n    tag_506:\n        /* \"#utility.yul\":24571:24602   */\n      0x416464726573733a2063616c6c20746f206e6f6e2d636f6e7472616374000000\n        /* \"#utility.yul\":24567:24568   */\n      0x00\n        /* \"#utility.yul\":24559:24565   */\n      dup3\n        /* \"#utility.yul\":24555:24569   */\n      add\n        /* \"#utility.yul\":24548:24603   */\n      mstore\n        /* \"#utility.yul\":24431:24610   */\n      pop\n      jump\t// out\n        /* \"#utility.yul\":24616:24982   */\n    tag_507:\n        /* \"#utility.yul\":24758:24761   */\n      0x00\n        /* \"#utility.yul\":24779:24846   */\n      tag_722\n        /* \"#utility.yul\":24843:24845   */\n      0x1d\n        /* \"#utility.yul\":24838:24841   */\n      dup4\n        /* \"#utility.yul\":24779:24846   */\n      tag_465\n      jump\t// in\n    tag_722:\n        /* \"#utility.yul\":24772:24846   */\n      swap2\n      pop\n        /* \"#utility.yul\":24855:24948   */\n      tag_723\n        /* \"#utility.yul\":24944:24947   */\n      dup3\n        /* \"#utility.yul\":24855:24948   */\n      tag_506\n      jump\t// in\n    tag_723:\n        /* \"#utility.yul\":24973:24975   */\n      0x20\n        /* \"#utility.yul\":24968:24971   */\n      dup3\n        /* \"#utility.yul\":24964:24976   */\n      add\n        /* \"#utility.yul\":24957:24976   */\n      swap1\n      pop\n        /* \"#utility.yul\":24616:24982   */\n      swap2\n      swap1\n      pop\n      jump\t// out\n        /* \"#utility.yul\":24988:25407   */\n    tag_432:\n        /* \"#utility.yul\":25154:25158   */\n      0x00\n        /* \"#utility.yul\":25192:25194   */\n      0x20\n        /* \"#utility.yul\":25181:25190   */\n      dup3\n        /* \"#utility.yul\":25177:25195   */\n      add\n        /* \"#utility.yul\":25169:25195   */\n      swap1\n      pop\n        /* \"#utility.yul\":25241:25250   */\n      dup2\n        /* \"#utility.yul\":25235:25239   */\n      dup2\n        /* \"#utility.yul\":25231:25251   */\n      sub\n        /* \"#utility.yul\":25227:25228   */\n      0x00\n        /* \"#utility.yul\":25216:25225   */\n      dup4\n        /* \"#utility.yul\":25212:25229   */\n      add\n        /* \"#utility.yul\":25205:25252   */\n      mstore\n        /* \"#utility.yul\":25269:25400   */\n      tag_725\n        /* \"#utility.yul\":25395:25399   */\n      dup2\n        /* \"#utility.yul\":25269:25400   */\n      tag_507\n      jump\t// in\n    tag_725:\n        /* \"#utility.yul\":25261:25400   */\n      swap1\n      pop\n        /* \"#utility.yul\":24988:25407   */\n      swap2\n      swap1\n      pop\n      jump\t// out\n        /* \"#utility.yul\":25413:25511   */\n    tag_508:\n        /* \"#utility.yul\":25464:25470   */\n      0x00\n        /* \"#utility.yul\":25498:25503   */\n      dup2\n        /* \"#utility.yul\":25492:25504   */\n      mload\n        /* \"#utility.yul\":25482:25504   */\n      swap1\n      pop\n        /* \"#utility.yul\":25413:25511   */\n      swap2\n      swap1\n      pop\n      jump\t// out\n        /* \"#utility.yul\":25517:25664   */\n    tag_509:\n        /* \"#utility.yul\":25618:25629   */\n      0x00\n        /* \"#utility.yul\":25655:25658   */\n      dup2\n        /* \"#utility.yul\":25640:25658   */\n      swap1\n      pop\n        /* \"#utility.yul\":25517:25664   */\n      swap3\n      swap2\n      pop\n      pop\n      jump\t// out\n        /* \"#utility.yul\":25670:25977   */\n    tag_510:\n        /* \"#utility.yul\":25738:25739   */\n      0x00\n        /* \"#utility.yul\":25748:25861   */\n    tag_729:\n        /* \"#utility.yul\":25762:25768   */\n      dup4\n        /* \"#utility.yul\":25759:25760   */\n      dup2\n        /* \"#utility.yul\":25756:25769   */\n      lt\n        /* \"#utility.yul\":25748:25861   */\n      iszero\n      tag_731\n      jumpi\n        /* \"#utility.yul\":25847:25848   */\n      dup1\n        /* \"#utility.yul\":25842:25845   */\n      dup3\n        /* \"#utility.yul\":25838:25849   */\n      add\n        /* \"#utility.yul\":25832:25850   */\n      mload\n        /* \"#utility.yul\":25828:25829   */\n      dup2\n        /* \"#utility.yul\":25823:25826   */\n      dup5\n        /* \"#utility.yul\":25819:25830   */\n      add\n        /* \"#utility.yul\":25812:25851   */\n      mstore\n        /* \"#utility.yul\":25784:25786   */\n      0x20\n        /* \"#utility.yul\":25781:25782   */\n      dup2\n        /* \"#utility.yul\":25777:25787   */\n      add\n        /* \"#utility.yul\":25772:25787   */\n      swap1\n      pop\n        /* \"#utility.yul\":25748:25861   */\n      jump(tag_729)\n    tag_731:\n        /* \"#utility.yul\":25879:25885   */\n      dup4\n        /* \"#utility.yul\":25876:25877   */\n      dup2\n        /* \"#utility.yul\":25873:25886   */\n      gt\n        /* \"#utility.yul\":25870:25971   */\n      iszero\n      tag_732\n      jumpi\n        /* \"#utility.yul\":25959:25960   */\n      0x00\n        /* \"#utility.yul\":25950:25956   */\n      dup5\n        /* \"#utility.yul\":25945:25948   */\n      dup5\n        /* \"#utility.yul\":25941:25957   */\n      add\n        /* \"#utility.yul\":25934:25961   */\n      mstore\n        /* \"#utility.yul\":25870:25971   */\n    tag_732:\n        /* \"#utility.yul\":25719:25977   */\n      pop\n        /* \"#utility.yul\":25670:25977   */\n      pop\n      pop\n      pop\n      jump\t// out\n        /* \"#utility.yul\":25983:26356   */\n    tag_511:\n        /* \"#utility.yul\":26087:26090   */\n      0x00\n        /* \"#utility.yul\":26115:26153   */\n      tag_734\n        /* \"#utility.yul\":26147:26152   */\n      dup3\n        /* \"#utility.yul\":26115:26153   */\n      tag_508\n      jump\t// in\n    tag_734:\n        /* \"#utility.yul\":26169:26257   */\n      tag_735\n        /* \"#utility.yul\":26250:26256   */\n      dup2\n        /* \"#utility.yul\":26245:26248   */\n      dup6\n        /* \"#utility.yul\":26169:26257   */\n      tag_509\n      jump\t// in\n    tag_735:\n        /* \"#utility.yul\":26162:26257   */\n      swap4\n      pop\n        /* \"#utility.yul\":26266:26318   */\n      tag_736\n        /* \"#utility.yul\":26311:26317   */\n      dup2\n        /* \"#utility.yul\":26306:26309   */\n      dup6\n        /* \"#utility.yul\":26299:26303   */\n      0x20\n        /* \"#utility.yul\":26292:26297   */\n      dup7\n        /* \"#utility.yul\":26288:26304   */\n      add\n        /* \"#utility.yul\":26266:26318   */\n      tag_510\n      jump\t// in\n    tag_736:\n        /* \"#utility.yul\":26343:26349   */\n      dup1\n        /* \"#utility.yul\":26338:26341   */\n      dup5\n        /* \"#utility.yul\":26334:26350   */\n      add\n        /* \"#utility.yul\":26327:26350   */\n      swap2\n      pop\n        /* \"#utility.yul\":26091:26356   */\n      pop\n        /* \"#utility.yul\":25983:26356   */\n      swap3\n      swap2\n      pop\n      pop\n      jump\t// out\n        /* \"#utility.yul\":26362:26633   */\n    tag_434:\n        /* \"#utility.yul\":26492:26495   */\n      0x00\n        /* \"#utility.yul\":26514:26607   */\n      tag_738\n        /* \"#utility.yul\":26603:26606   */\n      dup3\n        /* \"#utility.yul\":26594:26600   */\n      dup5\n        /* \"#utility.yul\":26514:26607   */\n      tag_511\n      jump\t// in\n    tag_738:\n        /* \"#utility.yul\":26507:26607   */\n      swap2\n      pop\n        /* \"#utility.yul\":26624:26627   */\n      dup2\n        /* \"#utility.yul\":26617:26627   */\n      swap1\n      pop\n        /* \"#utility.yul\":26362:26633   */\n      swap3\n      swap2\n      pop\n      pop\n      jump\t// out\n        /* \"#utility.yul\":26639:26738   */\n    tag_512:\n        /* \"#utility.yul\":26691:26697   */\n      0x00\n        /* \"#utility.yul\":26725:26730   */\n      dup2\n        /* \"#utility.yul\":26719:26731   */\n      mload\n        /* \"#utility.yul\":26709:26731   */\n      swap1\n      pop\n        /* \"#utility.yul\":26639:26738   */\n      swap2\n      swap1\n      pop\n      jump\t// out\n        /* \"#utility.yul\":26744:26846   */\n    tag_513:\n        /* \"#utility.yul\":26785:26791   */\n      0x00\n        /* \"#utility.yul\":26836:26838   */\n      0x1f\n        /* \"#utility.yul\":26832:26839   */\n      not\n        /* \"#utility.yul\":26827:26829   */\n      0x1f\n        /* \"#utility.yul\":26820:26825   */\n      dup4\n        /* \"#utility.yul\":26816:26830   */\n      add\n        /* \"#utility.yul\":26812:26840   */\n      and\n        /* \"#utility.yul\":26802:26840   */\n      swap1\n      pop\n        /* \"#utility.yul\":26744:26846   */\n      swap2\n      swap1\n      pop\n      jump\t// out\n        /* \"#utility.yul\":26852:27216   */\n    tag_514:\n        /* \"#utility.yul\":26940:26943   */\n      0x00\n        /* \"#utility.yul\":26968:27007   */\n      tag_742\n        /* \"#utility.yul\":27001:27006   */\n      dup3\n        /* \"#utility.yul\":26968:27007   */\n      tag_512\n      jump\t// in\n    tag_742:\n        /* \"#utility.yul\":27023:27094   */\n      tag_743\n        /* \"#utility.yul\":27087:27093   */\n      dup2\n        /* \"#utility.yul\":27082:27085   */\n      dup6\n        /* \"#utility.yul\":27023:27094   */\n      tag_465\n      jump\t// in\n    tag_743:\n        /* \"#utility.yul\":27016:27094   */\n      swap4\n      pop\n        /* \"#utility.yul\":27103:27155   */\n      tag_744\n        /* \"#utility.yul\":27148:27154   */\n      dup2\n        /* \"#utility.yul\":27143:27146   */\n      dup6\n        /* \"#utility.yul\":27136:27140   */\n      0x20\n        /* \"#utility.yul\":27129:27134   */\n      dup7\n        /* \"#utility.yul\":27125:27141   */\n      add\n        /* \"#utility.yul\":27103:27155   */\n      tag_510\n      jump\t// in\n    tag_744:\n        /* \"#utility.yul\":27180:27209   */\n      tag_745\n        /* \"#utility.yul\":27202:27208   */\n      dup2\n        /* \"#utility.yul\":27180:27209   */\n      tag_513\n      jump\t// in\n    tag_745:\n        /* \"#utility.yul\":27175:27178   */\n      dup5\n        /* \"#utility.yul\":27171:27210   */\n      add\n        /* \"#utility.yul\":27164:27210   */\n      swap2\n      pop\n        /* \"#utility.yul\":26944:27216   */\n      pop\n        /* \"#utility.yul\":26852:27216   */\n      swap3\n      swap2\n      pop\n      pop\n      jump\t// out\n        /* \"#utility.yul\":27222:27535   */\n    tag_447:\n        /* \"#utility.yul\":27335:27339   */\n      0x00\n        /* \"#utility.yul\":27373:27375   */\n      0x20\n        /* \"#utility.yul\":27362:27371   */\n      dup3\n        /* \"#utility.yul\":27358:27376   */\n      add\n        /* \"#utility.yul\":27350:27376   */\n      swap1\n      pop\n        /* \"#utility.yul\":27422:27431   */\n      dup2\n        /* \"#utility.yul\":27416:27420   */\n      dup2\n        /* \"#utility.yul\":27412:27432   */\n      sub\n        /* \"#utility.yul\":27408:27409   */\n      0x00\n        /* \"#utility.yul\":27397:27406   */\n      dup4\n        /* \"#utility.yul\":27393:27410   */\n      add\n        /* \"#utility.yul\":27386:27433   */\n      mstore\n        /* \"#utility.yul\":27450:27528   */\n      tag_747\n        /* \"#utility.yul\":27523:27527   */\n      dup2\n        /* \"#utility.yul\":27514:27520   */\n      dup5\n        /* \"#utility.yul\":27450:27528   */\n      tag_514\n      jump\t// in\n    tag_747:\n        /* \"#utility.yul\":27442:27528   */\n      swap1\n      pop\n        /* \"#utility.yul\":27222:27535   */\n      swap3\n      swap2\n      pop\n      pop\n      jump\t// out\n\n    auxdata: 0xa264697066735822122065973e8b3407e221c545fa96307fd8580b7c9883990a872431b2c0d99b98d6fc64736f6c63430008090033\n}\n",
				"bytecode": {
					"linkReferences": {},
					"object": "60806040523480156200001157600080fd5b506040516200387d3803806200387d833981810160405281019062000037919062000257565b620000576200004b620000af60201b60201c565b620000b760201b60201c565b620000676200017b60201b60201c565b80600d60006101000a81548173ffffffffffffffffffffffffffffffffffffffff021916908373ffffffffffffffffffffffffffffffffffffffff1602179055505062000289565b600033905090565b60008060009054906101000a900473ffffffffffffffffffffffffffffffffffffffff169050816000806101000a81548173ffffffffffffffffffffffffffffffffffffffff021916908373ffffffffffffffffffffffffffffffffffffffff1602179055508173ffffffffffffffffffffffffffffffffffffffff168173ffffffffffffffffffffffffffffffffffffffff167f8be0079c531659141344cd1fd0a4f28419497f9722a3daafe3b4186f6b6457e060405160405180910390a35050565b60c86003819055506105dc60018190555060646004819055506007600281905550605a6005819055506a027b46536c66c8e300000060068190555069d3c21bcecceda10000006009819055506a027b46536c66c8e30000006008819055506a05ca4ec2a79a7f67000000600781905550565b600080fd5b600073ffffffffffffffffffffffffffffffffffffffff82169050919050565b60006200021f82620001f2565b9050919050565b620002318162000212565b81146200023d57600080fd5b50565b600081519050620002518162000226565b92915050565b60006020828403121562000270576200026f620001ed565b5b6000620002808482850162000240565b91505092915050565b6135e480620002996000396000f3fe608060405234801561001057600080fd5b50600436106101cf5760003560e01c8063817b1cd211610104578063aedf562b116100a2578063f2fde38b11610071578063f2fde38b146104de578063f9931855146104fa578063fc0c546a1461052a578063fe600f8414610548576101cf565b8063aedf562b14610446578063c1704a1414610476578063c665d80e14610492578063ce34751f146104ae576101cf565b806391e07e7a116100de57806391e07e7a146103d65780639e447fc6146103f2578063a694fc3a1461040e578063ae5449431461042a576101cf565b8063817b1cd21461036a5780638da5cb5b14610388578063909f093e146103a6576101cf565b80634b62b70b11610171578063692642e71161014b578063692642e7146102f65780636ef3243514610312578063715018a6146103425780637e1a37861461034c576101cf565b80634b62b70b146102a05780634b77dd9e146102bc5780635715ec11146102d8576101cf565b806323b61117116101ad57806323b611171461022e5780632e1a7d4d1461024a5780634641257d146102665780634a4fbeec14610270576101cf565b80630917e776146101d457806318b2367e146101f2578063221dfe0314610210575b600080fd5b6101dc610578565b6040516101e991906127f8565b60405180910390f35b6101fa610582565b60405161020791906127f8565b60405180910390f35b61021861058c565b60405161022591906127f8565b60405180910390f35b61024860048036038101906102439190612844565b610596565b005b610264600480360381019061025f9190612844565b61065f565b005b61026e610a11565b005b61028a600480360381019061028591906128cf565b610d14565b60405161029791906127f8565b60405180910390f35b6102ba60048036038101906102b59190612844565b610ecc565b005b6102d660048036038101906102d191906128fc565b610f95565b005b6102e06113e8565b6040516102ed91906127f8565b60405180910390f35b610310600480360381019061030b9190612844565b6113f5565b005b61032c600480360381019061032791906128cf565b6114f5565b60405161033991906127f8565b60405180910390f35b61034a61163c565b005b6103546116c4565b60405161036191906127f8565b60405180910390f35b6103726116ce565b60405161037f91906127f8565b60405180910390f35b6103906116d4565b60405161039d919061294b565b60405180910390f35b6103c060048036038101906103bb9190612844565b6116fd565b6040516103cd91906127f8565b60405180910390f35b6103f060048036038101906103eb9190612844565b611798565b005b61040c60048036038101906104079190612844565b611898565b005b61042860048036038101906104239190612844565b611998565b005b610444600480360381019061043f9190612844565b611c95565b005b610460600480360381019061045b91906128cf565b611d5e565b60405161046d91906127f8565b60405180910390f35b610490600480360381019061048b9190612844565b611df5565b005b6104ac60048036038101906104a79190612844565b611ebe565b005b6104c860048036038101906104c39190612844565b611f87565b6040516104d591906127f8565b60405180910390f35b6104f860048036038101906104f391906128cf565b611fa6565b005b610514600480360381019061050f91906128cf565b61209e565b60405161052191906127f8565b60405180910390f35b6105326120ea565b60405161053f91906129c5565b60405180910390f35b610562600480360381019061055d91906128cf565b612110565b60405161056f91906127f8565b60405180910390f35b6000600c54905090565b6000600254905090565b6000600154905090565b61059e61215c565b73ffffffffffffffffffffffffffffffffffffffff166105bc6116d4565b73ffffffffffffffffffffffffffffffffffffffff1614610612576040517f08c379a000000000000000000000000000000000000000000000000000000000815260040161060990612a3d565b60405180910390fd5b60008111610655576040517f08c379a000000000000000000000000000000000000000000000000000000000815260040161064c90612aa9565b60405180910390fd5b8060088190555050565b600081116106a2576040517f08c379a000000000000000000000000000000000000000000000000000000000815260040161069990612b15565b60405180910390fd5b600b60003373ffffffffffffffffffffffffffffffffffffffff1673ffffffffffffffffffffffffffffffffffffffff16815260200190815260200160002060010154811115610727576040517f08c379a000000000000000000000000000000000000000000000000000000000815260040161071e90612b81565b60405180910390fd5b61072f612164565b600081905060006107a062015180610792600b60003373ffffffffffffffffffffffffffffffffffffffff1673ffffffffffffffffffffffffffffffffffffffff168152602001908152602001600020600301544261233790919063ffffffff16565b61234d90919063ffffffff16565b9050600060649050600080600b60003373ffffffffffffffffffffffffffffffffffffffff1673ffffffffffffffffffffffffffffffffffffffff1681526020019081526020016000206002015414156108685761086061080f6201518060055461236390919063ffffffff16565b600b60003373ffffffffffffffffffffffffffffffffffffffff1673ffffffffffffffffffffffffffffffffffffffff1681526020019081526020016000206003015461237990919063ffffffff16565b421015610886565b6000600254846108789190612bd0565b1480156108855750600083115b5b9050806108935760015491505b6108e884600b60003373ffffffffffffffffffffffffffffffffffffffff1673ffffffffffffffffffffffffffffffffffffffff1681526020019081526020016000206001015461233790919063ffffffff16565b600b60003373ffffffffffffffffffffffffffffffffffffffff1673ffffffffffffffffffffffffffffffffffffffff1681526020019081526020016000206001018190555061094384600c5461233790919063ffffffff16565b600c81905550610982610973612710610965858861236390919063ffffffff16565b61234d90919063ffffffff16565b8561233790919063ffffffff16565b93506109d13385600d60009054906101000a900473ffffffffffffffffffffffffffffffffffffffff1673ffffffffffffffffffffffffffffffffffffffff1661238f9092919063ffffffff16565b7f884edad9ce6fa2440d8a54cc123490eb96d2768479d49ff9c7366125a94243643385604051610a02929190612c01565b60405180910390a15050505050565b610a19612164565b6000600b60003373ffffffffffffffffffffffffffffffffffffffff1673ffffffffffffffffffffffffffffffffffffffff1681526020019081526020016000206000015490506000610a9d610a8e612710610a806004548661236390919063ffffffff16565b61234d90919063ffffffff16565b8361233790919063ffffffff16565b905060008111610ae2576040517f08c379a0000000000000000000000000000000000000000000000000000000008152600401610ad990612c76565b60405180910390fd5b600d60009054906101000a900473ffffffffffffffffffffffffffffffffffffffff1673ffffffffffffffffffffffffffffffffffffffff166370a08231306040518263ffffffff1660e01b8152600401610b3d919061294b565b60206040518083038186803b158015610b5557600080fd5b505afa158015610b69573d6000803e3d6000fd5b505050506040513d601f19601f82011682018060405250810190610b8d9190612cab565b811115610c4257600d60009054906101000a900473ffffffffffffffffffffffffffffffffffffffff1673ffffffffffffffffffffffffffffffffffffffff166370a08231306040518263ffffffff1660e01b8152600401610bef919061294b565b60206040518083038186803b158015610c0757600080fd5b505afa158015610c1b573d6000803e3d6000fd5b505050506040513d601f19601f82011682018060405250810190610c3f9190612cab565b90505b610c8f3382600d60009054906101000a900473ffffffffffffffffffffffffffffffffffffffff1673ffffffffffffffffffffffffffffffffffffffff1661238f9092919063ffffffff16565b6000600b60003373ffffffffffffffffffffffffffffffffffffffff1673ffffffffffffffffffffffffffffffffffffffff168152602001908152602001600020600001819055507fc9695243a805adb74c91f28311176c65b417e842d5699893cef56d18bfa48cba3382604051610d08929190612c01565b60405180910390a15050565b60006037600b60008473ffffffffffffffffffffffffffffffffffffffff1673ffffffffffffffffffffffffffffffffffffffff1681526020019081526020016000206005015414610d695760009050610ec7565b6000600b60008473ffffffffffffffffffffffffffffffffffffffff1673ffffffffffffffffffffffffffffffffffffffff1681526020019081526020016000206002015414610e445760006007610e2162015180610e13600b60008873ffffffffffffffffffffffffffffffffffffffff1673ffffffffffffffffffffffffffffffffffffffff168152602001908152602001600020600301544261233790919063ffffffff16565b61234d90919063ffffffff16565b610e2b9190612bd0565b14610e37576001610e3a565b60005b60ff169050610ec7565b610e5c6201518060055461236390919063ffffffff16565b610eb1600b60008573ffffffffffffffffffffffffffffffffffffffff1673ffffffffffffffffffffffffffffffffffffffff168152602001908152602001600020600301544261233790919063ffffffff16565b1015610ebe576001610ec1565b60005b60ff1690505b919050565b610ed461215c565b73ffffffffffffffffffffffffffffffffffffffff16610ef26116d4565b73ffffffffffffffffffffffffffffffffffffffff1614610f48576040517f08c379a0000000000000000000000000000000000000000000000000000000008152600401610f3f90612a3d565b60405180910390fd5b60008111610f8b576040517f08c379a0000000000000000000000000000000000000000000000000000000008152600401610f8290612aa9565b60405180910390fd5b8060058190555050565b60008211610fd8576040517f08c379a0000000000000000000000000000000000000000000000000000000008152600401610fcf90612b15565b60405180910390fd5b81600d60009054906101000a900473ffffffffffffffffffffffffffffffffffffffff1673ffffffffffffffffffffffffffffffffffffffff166370a08231336040518263ffffffff1660e01b8152600401611034919061294b565b60206040518083038186803b15801561104c57600080fd5b505afa158015611060573d6000803e3d6000fd5b505050506040513d601f19601f820116820180604052508101906110849190612cab565b116110c4576040517f08c379a00000000000000000000000000000000000000000000000000000000081526004016110bb90612d24565b60405180910390fd5b60006110cf33610d14565b1461110f576040517f08c379a000000000000000000000000000000000000000000000000000000000815260040161110690612d90565b60405180910390fd5b60008114156111625760065482101561115d576040517f08c379a000000000000000000000000000000000000000000000000000000000815260040161115490612dfc565b60405180910390fd5b6112a2565b60018114156111b5576009548210156111b0576040517f08c379a00000000000000000000000000000000000000000000000000000000081526004016111a790612dfc565b60405180910390fd5b6112a1565b600281141561120857600854821015611203576040517f08c379a00000000000000000000000000000000000000000000000000000000081526004016111fa90612dfc565b60405180910390fd5b6112a0565b600381141561125b57600754821015611256576040517f08c379a000000000000000000000000000000000000000000000000000000000815260040161124d90612dfc565b60405180910390fd5b61129f565b6000821061129e576040517f08c379a000000000000000000000000000000000000000000000000000000000815260040161129590612e68565b60405180910390fd5b5b5b5b5b80600b60003373ffffffffffffffffffffffffffffffffffffffff1673ffffffffffffffffffffffffffffffffffffffff1681526020019081526020016000206002018190555042600b60003373ffffffffffffffffffffffffffffffffffffffff1673ffffffffffffffffffffffffffffffffffffffff168152602001908152602001600020600301819055506037600b60003373ffffffffffffffffffffffffffffffffffffffff1673ffffffffffffffffffffffffffffffffffffffff16815260200190815260200160002060050181905550600a339080600181540180825580915050600190039060005260206000200160009091909190916101000a81548173ffffffffffffffffffffffffffffffffffffffff021916908373ffffffffffffffffffffffffffffffffffffffff1602179055506113e482611998565b5050565b6000600a80549050905090565b6113fd61215c565b73ffffffffffffffffffffffffffffffffffffffff1661141b6116d4565b73ffffffffffffffffffffffffffffffffffffffff1614611471576040517f08c379a000000000000000000000000000000000000000000000000000000000815260040161146890612a3d565b60405180910390fd5b600081116114b4576040517f08c379a00000000000000000000000000000000000000000000000000000000081526004016114ab90612ed4565b60405180910390fd5b806002819055507f189bda9782663c67a3f95c0aa5455924c711210b00281c60ead2f0dd8dbc924c816040516114ea91906127f8565b60405180910390a150565b600080600b60008473ffffffffffffffffffffffffffffffffffffffff1673ffffffffffffffffffffffffffffffffffffffff16815260200190815260200160002060010154905060006115e36127106115d5620151806115c76003546115b96115aa600b60008d73ffffffffffffffffffffffffffffffffffffffff1673ffffffffffffffffffffffffffffffffffffffff168152602001908152602001600020600401544261233790919063ffffffff16565b8961236390919063ffffffff16565b61236390919063ffffffff16565b61234d90919063ffffffff16565b61234d90919063ffffffff16565b905080600b60003373ffffffffffffffffffffffffffffffffffffffff1673ffffffffffffffffffffffffffffffffffffffff168152602001908152602001600020600001546116339190612f23565b92505050919050565b61164461215c565b73ffffffffffffffffffffffffffffffffffffffff166116626116d4565b73ffffffffffffffffffffffffffffffffffffffff16146116b8576040517f08c379a00000000000000000000000000000000000000000000000000000000081526004016116af90612a3d565b60405180910390fd5b6116c26000612415565b565b6000600354905090565b600c5481565b60008060009054906101000a900473ffffffffffffffffffffffffffffffffffffffff16905090565b6000806000905060008314806117135750600283145b1561172257600654905061178f565b600183141561173557600954905061178e565b600383141561174857600754905061178d565b600160001161178c576040517f08c379a000000000000000000000000000000000000000000000000000000000815260040161178390612e68565b60405180910390fd5b5b5b5b80915050919050565b6117a061215c565b73ffffffffffffffffffffffffffffffffffffffff166117be6116d4565b73ffffffffffffffffffffffffffffffffffffffff1614611814576040517f08c379a000000000000000000000000000000000000000000000000000000000815260040161180b90612a3d565b60405180910390fd5b60008111611857576040517f08c379a000000000000000000000000000000000000000000000000000000000815260040161184e90612fc5565b60405180910390fd5b806001819055507f150c688dd7595bf7862b8ab1fe46756450eb7d731037942b3bbc46f3f0e21b818160405161188d91906127f8565b60405180910390a150565b6118a061215c565b73ffffffffffffffffffffffffffffffffffffffff166118be6116d4565b73ffffffffffffffffffffffffffffffffffffffff1614611914576040517f08c379a000000000000000000000000000000000000000000000000000000000815260040161190b90612a3d565b60405180910390fd5b60008111611957576040517f08c379a000000000000000000000000000000000000000000000000000000000815260040161194e90613031565b60405180910390fd5b806003819055507f1946fb78c7ca778b54d82cabaac5ba67cf446f58d0ff1f8ceaebb6150e54e44f8160405161198d91906127f8565b60405180910390a150565b600081116119db576040517f08c379a00000000000000000000000000000000000000000000000000000000081526004016119d290612b15565b60405180910390fd5b80600d60009054906101000a900473ffffffffffffffffffffffffffffffffffffffff1673ffffffffffffffffffffffffffffffffffffffff166370a08231336040518263ffffffff1660e01b8152600401611a37919061294b565b60206040518083038186803b158015611a4f57600080fd5b505afa158015611a63573d6000803e3d6000fd5b505050506040513d601f19601f82011682018060405250810190611a879190612cab565b11611ac7576040517f08c379a0000000000000000000000000000000000000000000000000000000008152600401611abe90612d24565b60405180910390fd5b6037600b60003373ffffffffffffffffffffffffffffffffffffffff1673ffffffffffffffffffffffffffffffffffffffff1681526020019081526020016000206005015414611b4c576040517f08c379a0000000000000000000000000000000000000000000000000000000008152600401611b439061309d565b60405180910390fd5b611b54612164565b611ba3333083600d60009054906101000a900473ffffffffffffffffffffffffffffffffffffffff1673ffffffffffffffffffffffffffffffffffffffff166124d9909392919063ffffffff16565b611bf881600b60003373ffffffffffffffffffffffffffffffffffffffff1673ffffffffffffffffffffffffffffffffffffffff1681526020019081526020016000206001015461237990919063ffffffff16565b600b60003373ffffffffffffffffffffffffffffffffffffffff1673ffffffffffffffffffffffffffffffffffffffff16815260200190815260200160002060010181905550611c5381600c5461237990919063ffffffff16565b600c819055507f9e71bc8eea02a63969f509818f2dafb9254532904319f9dbda79b67bd34a5f3d3382604051611c8a929190612c01565b60405180910390a150565b611c9d61215c565b73ffffffffffffffffffffffffffffffffffffffff16611cbb6116d4565b73ffffffffffffffffffffffffffffffffffffffff1614611d11576040517f08c379a0000000000000000000000000000000000000000000000000000000008152600401611d0890612a3d565b60405180910390fd5b60008111611d54576040517f08c379a0000000000000000000000000000000000000000000000000000000008152600401611d4b90612aa9565b60405180910390fd5b8060078190555050565b60006037611d6b83612110565b14611dab576040517f08c379a0000000000000000000000000000000000000000000000000000000008152600401611da290613109565b60405180910390fd5b600b60008373ffffffffffffffffffffffffffffffffffffffff1673ffffffffffffffffffffffffffffffffffffffff168152602001908152602001600020600201549050919050565b611dfd61215c565b73ffffffffffffffffffffffffffffffffffffffff16611e1b6116d4565b73ffffffffffffffffffffffffffffffffffffffff1614611e71576040517f08c379a0000000000000000000000000000000000000000000000000000000008152600401611e6890612a3d565b60405180910390fd5b60008111611eb4576040517f08c379a0000000000000000000000000000000000000000000000000000000008152600401611eab90612aa9565b60405180910390fd5b8060098190555050565b611ec661215c565b73ffffffffffffffffffffffffffffffffffffffff16611ee46116d4565b73ffffffffffffffffffffffffffffffffffffffff1614611f3a576040517f08c379a0000000000000000000000000000000000000000000000000000000008152600401611f3190612a3d565b60405180910390fd5b60008111611f7d576040517f08c379a0000000000000000000000000000000000000000000000000000000008152600401611f7490612aa9565b60405180910390fd5b8060068190555050565b600080821415611f9b576005549050611fa1565b60025490505b919050565b611fae61215c565b73ffffffffffffffffffffffffffffffffffffffff16611fcc6116d4565b73ffffffffffffffffffffffffffffffffffffffff1614612022576040517f08c379a000000000000000000000000000000000000000000000000000000000815260040161201990612a3d565b60405180910390fd5b600073ffffffffffffffffffffffffffffffffffffffff168173ffffffffffffffffffffffffffffffffffffffff161415612092576040517f08c379a00000000000000000000000000000000000000000000000000000000081526004016120899061319b565b60405180910390fd5b61209b81612415565b50565b6000600b60008373ffffffffffffffffffffffffffffffffffffffff1673ffffffffffffffffffffffffffffffffffffffff168152602001908152602001600020600101549050919050565b600d60009054906101000a900473ffffffffffffffffffffffffffffffffffffffff1681565b6000600b60008373ffffffffffffffffffffffffffffffffffffffff1673ffffffffffffffffffffffffffffffffffffffff168152602001908152602001600020600501549050919050565b600033905090565b6000600b60003373ffffffffffffffffffffffffffffffffffffffff1673ffffffffffffffffffffffffffffffffffffffff168152602001908152602001600020600101549050600061224f612710612241603c612233600354612225612216600b60003373ffffffffffffffffffffffffffffffffffffffff1673ffffffffffffffffffffffffffffffffffffffff168152602001908152602001600020600401544261233790919063ffffffff16565b8961236390919063ffffffff16565b61236390919063ffffffff16565b61234d90919063ffffffff16565b61234d90919063ffffffff16565b90506122a681600b60003373ffffffffffffffffffffffffffffffffffffffff1673ffffffffffffffffffffffffffffffffffffffff1681526020019081526020016000206000015461237990919063ffffffff16565b600b60003373ffffffffffffffffffffffffffffffffffffffff1673ffffffffffffffffffffffffffffffffffffffff1681526020019081526020016000206000018190555042600b60003373ffffffffffffffffffffffffffffffffffffffff1673ffffffffffffffffffffffffffffffffffffffff168152602001908152602001600020600401819055505050565b6000818361234591906131bb565b905092915050565b6000818361235b91906131ef565b905092915050565b600081836123719190613220565b905092915050565b600081836123879190612f23565b905092915050565b6124108363a9059cbb60e01b84846040516024016123ae929190612c01565b604051602081830303815290604052907bffffffffffffffffffffffffffffffffffffffffffffffffffffffff19166020820180517bffffffffffffffffffffffffffffffffffffffffffffffffffffffff8381831617835250505050612562565b505050565b60008060009054906101000a900473ffffffffffffffffffffffffffffffffffffffff169050816000806101000a81548173ffffffffffffffffffffffffffffffffffffffff021916908373ffffffffffffffffffffffffffffffffffffffff1602179055508173ffffffffffffffffffffffffffffffffffffffff168173ffffffffffffffffffffffffffffffffffffffff167f8be0079c531659141344cd1fd0a4f28419497f9722a3daafe3b4186f6b6457e060405160405180910390a35050565b61255c846323b872dd60e01b8585856040516024016124fa9392919061327a565b604051602081830303815290604052907bffffffffffffffffffffffffffffffffffffffffffffffffffffffff19166020820180517bffffffffffffffffffffffffffffffffffffffffffffffffffffffff8381831617835250505050612562565b50505050565b60006125c4826040518060400160405280602081526020017f5361666542455032303a206c6f772d6c6576656c2063616c6c206661696c65648152508573ffffffffffffffffffffffffffffffffffffffff166126299092919063ffffffff16565b905060008151111561262457808060200190518101906125e491906132e9565b612623576040517f08c379a000000000000000000000000000000000000000000000000000000000815260040161261a90613388565b60405180910390fd5b5b505050565b60606126388484600085612641565b90509392505050565b606082471015612686576040517f08c379a000000000000000000000000000000000000000000000000000000000815260040161267d9061341a565b60405180910390fd5b61268f85612755565b6126ce576040517f08c379a00000000000000000000000000000000000000000000000000000000081526004016126c590613486565b60405180910390fd5b6000808673ffffffffffffffffffffffffffffffffffffffff1685876040516126f79190613520565b60006040518083038185875af1925050503d8060008114612734576040519150601f19603f3d011682016040523d82523d6000602084013e612739565b606091505b5091509150612749828286612778565b92505050949350505050565b6000808273ffffffffffffffffffffffffffffffffffffffff163b119050919050565b60608315612788578290506127d8565b60008351111561279b5782518084602001fd5b816040517f08c379a00000000000000000000000000000000000000000000000000000000081526004016127cf919061358c565b60405180910390fd5b9392505050565b6000819050919050565b6127f2816127df565b82525050565b600060208201905061280d60008301846127e9565b92915050565b600080fd5b612821816127df565b811461282c57600080fd5b50565b60008135905061283e81612818565b92915050565b60006020828403121561285a57612859612813565b5b60006128688482850161282f565b91505092915050565b600073ffffffffffffffffffffffffffffffffffffffff82169050919050565b600061289c82612871565b9050919050565b6128ac81612891565b81146128b757600080fd5b50565b6000813590506128c9816128a3565b92915050565b6000602082840312156128e5576128e4612813565b5b60006128f3848285016128ba565b91505092915050565b6000806040838503121561291357612912612813565b5b60006129218582860161282f565b92505060206129328582860161282f565b9150509250929050565b61294581612891565b82525050565b6000602082019050612960600083018461293c565b92915050565b6000819050919050565b600061298b61298661298184612871565b612966565b612871565b9050919050565b600061299d82612970565b9050919050565b60006129af82612992565b9050919050565b6129bf816129a4565b82525050565b60006020820190506129da60008301846129b6565b92915050565b600082825260208201905092915050565b7f4f776e61626c653a2063616c6c6572206973206e6f7420746865206f776e6572600082015250565b6000612a276020836129e0565b9150612a32826129f1565b602082019050919050565b60006020820190508181036000830152612a5681612a1a565b9050919050565b7f43616e2774206265207a65726f00000000000000000000000000000000000000600082015250565b6000612a93600d836129e0565b9150612a9e82612a5d565b602082019050919050565b60006020820190508181036000830152612ac281612a86565b9050919050565b7f416d6f756e742073686f756c642062652067726561746572207468616e203000600082015250565b6000612aff601f836129e0565b9150612b0a82612ac9565b602082019050919050565b60006020820190508181036000830152612b2e81612af2565b9050919050565b7f496e76616c696420616d6f756e74000000000000000000000000000000000000600082015250565b6000612b6b600e836129e0565b9150612b7682612b35565b602082019050919050565b60006020820190508181036000830152612b9a81612b5e565b9050919050565b7f4e487b7100000000000000000000000000000000000000000000000000000000600052601260045260246000fd5b6000612bdb826127df565b9150612be6836127df565b925082612bf657612bf5612ba1565b5b828206905092915050565b6000604082019050612c16600083018561293c565b612c2360208301846127e9565b9392505050565b7f4e6f7468696e6720746f20636c61696d00000000000000000000000000000000600082015250565b6000612c606010836129e0565b9150612c6b82612c2a565b602082019050919050565b60006020820190508181036000830152612c8f81612c53565b9050919050565b600081519050612ca581612818565b92915050565b600060208284031215612cc157612cc0612813565b5b6000612ccf84828501612c96565b91505092915050565b7f496e73756666696369656e742100000000000000000000000000000000000000600082015250565b6000612d0e600d836129e0565b9150612d1982612cd8565b602082019050919050565b60006020820190508181036000830152612d3d81612d01565b9050919050565b7f43616e2774207374617274000000000000000000000000000000000000000000600082015250565b6000612d7a600b836129e0565b9150612d8582612d44565b602082019050919050565b60006020820190508181036000830152612da981612d6d565b9050919050565b7f496e73756666696369656e740000000000000000000000000000000000000000600082015250565b6000612de6600c836129e0565b9150612df182612db0565b602082019050919050565b60006020820190508181036000830152612e1581612dd9565b9050919050565b7f496e76616c6964204d6f64650000000000000000000000000000000000000000600082015250565b6000612e52600c836129e0565b9150612e5d82612e1c565b602082019050919050565b60006020820190508181036000830152612e8181612e45565b9050919050565b7f496e76616c6964204c6f636b7570204475726174696f6e000000000000000000600082015250565b6000612ebe6017836129e0565b9150612ec982612e88565b602082019050919050565b60006020820190508181036000830152612eed81612eb1565b9050919050565b7f4e487b7100000000000000000000000000000000000000000000000000000000600052601160045260246000fd5b6000612f2e826127df565b9150612f39836127df565b9250827fffffffffffffffffffffffffffffffffffffffffffffffffffffffffffffffff03821115612f6e57612f6d612ef4565b5b828201905092915050565b7f496e76616c696420556e7374616b696e67204665652052617465000000000000600082015250565b6000612faf601a836129e0565b9150612fba82612f79565b602082019050919050565b60006020820190508181036000830152612fde81612fa2565b9050919050565b7f496e76616c69642076616c756500000000000000000000000000000000000000600082015250565b600061301b600d836129e0565b915061302682612fe5565b602082019050919050565b6000602082019050818103600083015261304a8161300e565b9050919050565b7f4572726f723a20696e76616c6964207374616b65720000000000000000000000600082015250565b60006130876015836129e0565b915061309282613051565b602082019050919050565b600060208201905081810360008301526130b68161307a565b9050919050565b7f4e6f74207374616b657220796574000000000000000000000000000000000000600082015250565b60006130f3600e836129e0565b91506130fe826130bd565b602082019050919050565b60006020820190508181036000830152613122816130e6565b9050919050565b7f4f776e61626c653a206e6577206f776e657220697320746865207a65726f206160008201527f6464726573730000000000000000000000000000000000000000000000000000602082015250565b60006131856026836129e0565b915061319082613129565b604082019050919050565b600060208201905081810360008301526131b481613178565b9050919050565b60006131c6826127df565b91506131d1836127df565b9250828210156131e4576131e3612ef4565b5b828203905092915050565b60006131fa826127df565b9150613205836127df565b92508261321557613214612ba1565b5b828204905092915050565b600061322b826127df565b9150613236836127df565b9250817fffffffffffffffffffffffffffffffffffffffffffffffffffffffffffffffff048311821515161561326f5761326e612ef4565b5b828202905092915050565b600060608201905061328f600083018661293c565b61329c602083018561293c565b6132a960408301846127e9565b949350505050565b60008115159050919050565b6132c6816132b1565b81146132d157600080fd5b50565b6000815190506132e3816132bd565b92915050565b6000602082840312156132ff576132fe612813565b5b600061330d848285016132d4565b91505092915050565b7f5361666542455032303a204245503230206f7065726174696f6e20646964206e60008201527f6f74207375636365656400000000000000000000000000000000000000000000602082015250565b6000613372602a836129e0565b915061337d82613316565b604082019050919050565b600060208201905081810360008301526133a181613365565b9050919050565b7f416464726573733a20696e73756666696369656e742062616c616e636520666f60008201527f722063616c6c0000000000000000000000000000000000000000000000000000602082015250565b60006134046026836129e0565b915061340f826133a8565b604082019050919050565b60006020820190508181036000830152613433816133f7565b9050919050565b7f416464726573733a2063616c6c20746f206e6f6e2d636f6e7472616374000000600082015250565b6000613470601d836129e0565b915061347b8261343a565b602082019050919050565b6000602082019050818103600083015261349f81613463565b9050919050565b600081519050919050565b600081905092915050565b60005b838110156134da5780820151818401526020810190506134bf565b838111156134e9576000848401525b50505050565b60006134fa826134a6565b61350481856134b1565b93506135148185602086016134bc565b80840191505092915050565b600061352c82846134ef565b915081905092915050565b600081519050919050565b6000601f19601f8301169050919050565b600061355e82613537565b61356881856129e0565b93506135788185602086016134bc565b61358181613542565b840191505092915050565b600060208201905081810360008301526135a68184613553565b90509291505056fea264697066735822122065973e8b3407e221c545fa96307fd8580b7c9883990a872431b2c0d99b98d6fc64736f6c63430008090033",
					"opcodes": "PUSH1 0x80 PUSH1 0x40 MSTORE CALLVALUE DUP1 ISZERO PUSH3 0x11 JUMPI PUSH1 0x0 DUP1 REVERT JUMPDEST POP PUSH1 0x40 MLOAD PUSH3 0x387D CODESIZE SUB DUP1 PUSH3 0x387D DUP4 CODECOPY DUP2 DUP2 ADD PUSH1 0x40 MSTORE DUP2 ADD SWAP1 PUSH3 0x37 SWAP2 SWAP1 PUSH3 0x257 JUMP JUMPDEST PUSH3 0x57 PUSH3 0x4B PUSH3 0xAF PUSH1 0x20 SHL PUSH1 0x20 SHR JUMP JUMPDEST PUSH3 0xB7 PUSH1 0x20 SHL PUSH1 0x20 SHR JUMP JUMPDEST PUSH3 0x67 PUSH3 0x17B PUSH1 0x20 SHL PUSH1 0x20 SHR JUMP JUMPDEST DUP1 PUSH1 0xD PUSH1 0x0 PUSH2 0x100 EXP DUP2 SLOAD DUP2 PUSH20 0xFFFFFFFFFFFFFFFFFFFFFFFFFFFFFFFFFFFFFFFF MUL NOT AND SWAP1 DUP4 PUSH20 0xFFFFFFFFFFFFFFFFFFFFFFFFFFFFFFFFFFFFFFFF AND MUL OR SWAP1 SSTORE POP POP PUSH3 0x289 JUMP JUMPDEST PUSH1 0x0 CALLER SWAP1 POP SWAP1 JUMP JUMPDEST PUSH1 0x0 DUP1 PUSH1 0x0 SWAP1 SLOAD SWAP1 PUSH2 0x100 EXP SWAP1 DIV PUSH20 0xFFFFFFFFFFFFFFFFFFFFFFFFFFFFFFFFFFFFFFFF AND SWAP1 POP DUP2 PUSH1 0x0 DUP1 PUSH2 0x100 EXP DUP2 SLOAD DUP2 PUSH20 0xFFFFFFFFFFFFFFFFFFFFFFFFFFFFFFFFFFFFFFFF MUL NOT AND SWAP1 DUP4 PUSH20 0xFFFFFFFFFFFFFFFFFFFFFFFFFFFFFFFFFFFFFFFF AND MUL OR SWAP1 SSTORE POP DUP2 PUSH20 0xFFFFFFFFFFFFFFFFFFFFFFFFFFFFFFFFFFFFFFFF AND DUP2 PUSH20 0xFFFFFFFFFFFFFFFFFFFFFFFFFFFFFFFFFFFFFFFF AND PUSH32 0x8BE0079C531659141344CD1FD0A4F28419497F9722A3DAAFE3B4186F6B6457E0 PUSH1 0x40 MLOAD PUSH1 0x40 MLOAD DUP1 SWAP2 SUB SWAP1 LOG3 POP POP JUMP JUMPDEST PUSH1 0xC8 PUSH1 0x3 DUP2 SWAP1 SSTORE POP PUSH2 0x5DC PUSH1 0x1 DUP2 SWAP1 SSTORE POP PUSH1 0x64 PUSH1 0x4 DUP2 SWAP1 SSTORE POP PUSH1 0x7 PUSH1 0x2 DUP2 SWAP1 SSTORE POP PUSH1 0x5A PUSH1 0x5 DUP2 SWAP1 SSTORE POP PUSH11 0x27B46536C66C8E3000000 PUSH1 0x6 DUP2 SWAP1 SSTORE POP PUSH10 0xD3C21BCECCEDA1000000 PUSH1 0x9 DUP2 SWAP1 SSTORE POP PUSH11 0x27B46536C66C8E3000000 PUSH1 0x8 DUP2 SWAP1 SSTORE POP PUSH11 0x5CA4EC2A79A7F67000000 PUSH1 0x7 DUP2 SWAP1 SSTORE POP JUMP JUMPDEST PUSH1 0x0 DUP1 REVERT JUMPDEST PUSH1 0x0 PUSH20 0xFFFFFFFFFFFFFFFFFFFFFFFFFFFFFFFFFFFFFFFF DUP3 AND SWAP1 POP SWAP2 SWAP1 POP JUMP JUMPDEST PUSH1 0x0 PUSH3 0x21F DUP3 PUSH3 0x1F2 JUMP JUMPDEST SWAP1 POP SWAP2 SWAP1 POP JUMP JUMPDEST PUSH3 0x231 DUP2 PUSH3 0x212 JUMP JUMPDEST DUP2 EQ PUSH3 0x23D JUMPI PUSH1 0x0 DUP1 REVERT JUMPDEST POP JUMP JUMPDEST PUSH1 0x0 DUP2 MLOAD SWAP1 POP PUSH3 0x251 DUP2 PUSH3 0x226 JUMP JUMPDEST SWAP3 SWAP2 POP POP JUMP JUMPDEST PUSH1 0x0 PUSH1 0x20 DUP3 DUP5 SUB SLT ISZERO PUSH3 0x270 JUMPI PUSH3 0x26F PUSH3 0x1ED JUMP JUMPDEST JUMPDEST PUSH1 0x0 PUSH3 0x280 DUP5 DUP3 DUP6 ADD PUSH3 0x240 JUMP JUMPDEST SWAP2 POP POP SWAP3 SWAP2 POP POP JUMP JUMPDEST PUSH2 0x35E4 DUP1 PUSH3 0x299 PUSH1 0x0 CODECOPY PUSH1 0x0 RETURN INVALID PUSH1 0x80 PUSH1 0x40 MSTORE CALLVALUE DUP1 ISZERO PUSH2 0x10 JUMPI PUSH1 0x0 DUP1 REVERT JUMPDEST POP PUSH1 0x4 CALLDATASIZE LT PUSH2 0x1CF JUMPI PUSH1 0x0 CALLDATALOAD PUSH1 0xE0 SHR DUP1 PUSH4 0x817B1CD2 GT PUSH2 0x104 JUMPI DUP1 PUSH4 0xAEDF562B GT PUSH2 0xA2 JUMPI DUP1 PUSH4 0xF2FDE38B GT PUSH2 0x71 JUMPI DUP1 PUSH4 0xF2FDE38B EQ PUSH2 0x4DE JUMPI DUP1 PUSH4 0xF9931855 EQ PUSH2 0x4FA JUMPI DUP1 PUSH4 0xFC0C546A EQ PUSH2 0x52A JUMPI DUP1 PUSH4 0xFE600F84 EQ PUSH2 0x548 JUMPI PUSH2 0x1CF JUMP JUMPDEST DUP1 PUSH4 0xAEDF562B EQ PUSH2 0x446 JUMPI DUP1 PUSH4 0xC1704A14 EQ PUSH2 0x476 JUMPI DUP1 PUSH4 0xC665D80E EQ PUSH2 0x492 JUMPI DUP1 PUSH4 0xCE34751F EQ PUSH2 0x4AE JUMPI PUSH2 0x1CF JUMP JUMPDEST DUP1 PUSH4 0x91E07E7A GT PUSH2 0xDE JUMPI DUP1 PUSH4 0x91E07E7A EQ PUSH2 0x3D6 JUMPI DUP1 PUSH4 0x9E447FC6 EQ PUSH2 0x3F2 JUMPI DUP1 PUSH4 0xA694FC3A EQ PUSH2 0x40E JUMPI DUP1 PUSH4 0xAE544943 EQ PUSH2 0x42A JUMPI PUSH2 0x1CF JUMP JUMPDEST DUP1 PUSH4 0x817B1CD2 EQ PUSH2 0x36A JUMPI DUP1 PUSH4 0x8DA5CB5B EQ PUSH2 0x388 JUMPI DUP1 PUSH4 0x909F093E EQ PUSH2 0x3A6 JUMPI PUSH2 0x1CF JUMP JUMPDEST DUP1 PUSH4 0x4B62B70B GT PUSH2 0x171 JUMPI DUP1 PUSH4 0x692642E7 GT PUSH2 0x14B JUMPI DUP1 PUSH4 0x692642E7 EQ PUSH2 0x2F6 JUMPI DUP1 PUSH4 0x6EF32435 EQ PUSH2 0x312 JUMPI DUP1 PUSH4 0x715018A6 EQ PUSH2 0x342 JUMPI DUP1 PUSH4 0x7E1A3786 EQ PUSH2 0x34C JUMPI PUSH2 0x1CF JUMP JUMPDEST DUP1 PUSH4 0x4B62B70B EQ PUSH2 0x2A0 JUMPI DUP1 PUSH4 0x4B77DD9E EQ PUSH2 0x2BC JUMPI DUP1 PUSH4 0x5715EC11 EQ PUSH2 0x2D8 JUMPI PUSH2 0x1CF JUMP JUMPDEST DUP1 PUSH4 0x23B61117 GT PUSH2 0x1AD JUMPI DUP1 PUSH4 0x23B61117 EQ PUSH2 0x22E JUMPI DUP1 PUSH4 0x2E1A7D4D EQ PUSH2 0x24A JUMPI DUP1 PUSH4 0x4641257D EQ PUSH2 0x266 JUMPI DUP1 PUSH4 0x4A4FBEEC EQ PUSH2 0x270 JUMPI PUSH2 0x1CF JUMP JUMPDEST DUP1 PUSH4 0x917E776 EQ PUSH2 0x1D4 JUMPI DUP1 PUSH4 0x18B2367E EQ PUSH2 0x1F2 JUMPI DUP1 PUSH4 0x221DFE03 EQ PUSH2 0x210 JUMPI JUMPDEST PUSH1 0x0 DUP1 REVERT JUMPDEST PUSH2 0x1DC PUSH2 0x578 JUMP JUMPDEST PUSH1 0x40 MLOAD PUSH2 0x1E9 SWAP2 SWAP1 PUSH2 0x27F8 JUMP JUMPDEST PUSH1 0x40 MLOAD DUP1 SWAP2 SUB SWAP1 RETURN JUMPDEST PUSH2 0x1FA PUSH2 0x582 JUMP JUMPDEST PUSH1 0x40 MLOAD PUSH2 0x207 SWAP2 SWAP1 PUSH2 0x27F8 JUMP JUMPDEST PUSH1 0x40 MLOAD DUP1 SWAP2 SUB SWAP1 RETURN JUMPDEST PUSH2 0x218 PUSH2 0x58C JUMP JUMPDEST PUSH1 0x40 MLOAD PUSH2 0x225 SWAP2 SWAP1 PUSH2 0x27F8 JUMP JUMPDEST PUSH1 0x40 MLOAD DUP1 SWAP2 SUB SWAP1 RETURN JUMPDEST PUSH2 0x248 PUSH1 0x4 DUP1 CALLDATASIZE SUB DUP2 ADD SWAP1 PUSH2 0x243 SWAP2 SWAP1 PUSH2 0x2844 JUMP JUMPDEST PUSH2 0x596 JUMP JUMPDEST STOP JUMPDEST PUSH2 0x264 PUSH1 0x4 DUP1 CALLDATASIZE SUB DUP2 ADD SWAP1 PUSH2 0x25F SWAP2 SWAP1 PUSH2 0x2844 JUMP JUMPDEST PUSH2 0x65F JUMP JUMPDEST STOP JUMPDEST PUSH2 0x26E PUSH2 0xA11 JUMP JUMPDEST STOP JUMPDEST PUSH2 0x28A PUSH1 0x4 DUP1 CALLDATASIZE SUB DUP2 ADD SWAP1 PUSH2 0x285 SWAP2 SWAP1 PUSH2 0x28CF JUMP JUMPDEST PUSH2 0xD14 JUMP JUMPDEST PUSH1 0x40 MLOAD PUSH2 0x297 SWAP2 SWAP1 PUSH2 0x27F8 JUMP JUMPDEST PUSH1 0x40 MLOAD DUP1 SWAP2 SUB SWAP1 RETURN JUMPDEST PUSH2 0x2BA PUSH1 0x4 DUP1 CALLDATASIZE SUB DUP2 ADD SWAP1 PUSH2 0x2B5 SWAP2 SWAP1 PUSH2 0x2844 JUMP JUMPDEST PUSH2 0xECC JUMP JUMPDEST STOP JUMPDEST PUSH2 0x2D6 PUSH1 0x4 DUP1 CALLDATASIZE SUB DUP2 ADD SWAP1 PUSH2 0x2D1 SWAP2 SWAP1 PUSH2 0x28FC JUMP JUMPDEST PUSH2 0xF95 JUMP JUMPDEST STOP JUMPDEST PUSH2 0x2E0 PUSH2 0x13E8 JUMP JUMPDEST PUSH1 0x40 MLOAD PUSH2 0x2ED SWAP2 SWAP1 PUSH2 0x27F8 JUMP JUMPDEST PUSH1 0x40 MLOAD DUP1 SWAP2 SUB SWAP1 RETURN JUMPDEST PUSH2 0x310 PUSH1 0x4 DUP1 CALLDATASIZE SUB DUP2 ADD SWAP1 PUSH2 0x30B SWAP2 SWAP1 PUSH2 0x2844 JUMP JUMPDEST PUSH2 0x13F5 JUMP JUMPDEST STOP JUMPDEST PUSH2 0x32C PUSH1 0x4 DUP1 CALLDATASIZE SUB DUP2 ADD SWAP1 PUSH2 0x327 SWAP2 SWAP1 PUSH2 0x28CF JUMP JUMPDEST PUSH2 0x14F5 JUMP JUMPDEST PUSH1 0x40 MLOAD PUSH2 0x339 SWAP2 SWAP1 PUSH2 0x27F8 JUMP JUMPDEST PUSH1 0x40 MLOAD DUP1 SWAP2 SUB SWAP1 RETURN JUMPDEST PUSH2 0x34A PUSH2 0x163C JUMP JUMPDEST STOP JUMPDEST PUSH2 0x354 PUSH2 0x16C4 JUMP JUMPDEST PUSH1 0x40 MLOAD PUSH2 0x361 SWAP2 SWAP1 PUSH2 0x27F8 JUMP JUMPDEST PUSH1 0x40 MLOAD DUP1 SWAP2 SUB SWAP1 RETURN JUMPDEST PUSH2 0x372 PUSH2 0x16CE JUMP JUMPDEST PUSH1 0x40 MLOAD PUSH2 0x37F SWAP2 SWAP1 PUSH2 0x27F8 JUMP JUMPDEST PUSH1 0x40 MLOAD DUP1 SWAP2 SUB SWAP1 RETURN JUMPDEST PUSH2 0x390 PUSH2 0x16D4 JUMP JUMPDEST PUSH1 0x40 MLOAD PUSH2 0x39D SWAP2 SWAP1 PUSH2 0x294B JUMP JUMPDEST PUSH1 0x40 MLOAD DUP1 SWAP2 SUB SWAP1 RETURN JUMPDEST PUSH2 0x3C0 PUSH1 0x4 DUP1 CALLDATASIZE SUB DUP2 ADD SWAP1 PUSH2 0x3BB SWAP2 SWAP1 PUSH2 0x2844 JUMP JUMPDEST PUSH2 0x16FD JUMP JUMPDEST PUSH1 0x40 MLOAD PUSH2 0x3CD SWAP2 SWAP1 PUSH2 0x27F8 JUMP JUMPDEST PUSH1 0x40 MLOAD DUP1 SWAP2 SUB SWAP1 RETURN JUMPDEST PUSH2 0x3F0 PUSH1 0x4 DUP1 CALLDATASIZE SUB DUP2 ADD SWAP1 PUSH2 0x3EB SWAP2 SWAP1 PUSH2 0x2844 JUMP JUMPDEST PUSH2 0x1798 JUMP JUMPDEST STOP JUMPDEST PUSH2 0x40C PUSH1 0x4 DUP1 CALLDATASIZE SUB DUP2 ADD SWAP1 PUSH2 0x407 SWAP2 SWAP1 PUSH2 0x2844 JUMP JUMPDEST PUSH2 0x1898 JUMP JUMPDEST STOP JUMPDEST PUSH2 0x428 PUSH1 0x4 DUP1 CALLDATASIZE SUB DUP2 ADD SWAP1 PUSH2 0x423 SWAP2 SWAP1 PUSH2 0x2844 JUMP JUMPDEST PUSH2 0x1998 JUMP JUMPDEST STOP JUMPDEST PUSH2 0x444 PUSH1 0x4 DUP1 CALLDATASIZE SUB DUP2 ADD SWAP1 PUSH2 0x43F SWAP2 SWAP1 PUSH2 0x2844 JUMP JUMPDEST PUSH2 0x1C95 JUMP JUMPDEST STOP JUMPDEST PUSH2 0x460 PUSH1 0x4 DUP1 CALLDATASIZE SUB DUP2 ADD SWAP1 PUSH2 0x45B SWAP2 SWAP1 PUSH2 0x28CF JUMP JUMPDEST PUSH2 0x1D5E JUMP JUMPDEST PUSH1 0x40 MLOAD PUSH2 0x46D SWAP2 SWAP1 PUSH2 0x27F8 JUMP JUMPDEST PUSH1 0x40 MLOAD DUP1 SWAP2 SUB SWAP1 RETURN JUMPDEST PUSH2 0x490 PUSH1 0x4 DUP1 CALLDATASIZE SUB DUP2 ADD SWAP1 PUSH2 0x48B SWAP2 SWAP1 PUSH2 0x2844 JUMP JUMPDEST PUSH2 0x1DF5 JUMP JUMPDEST STOP JUMPDEST PUSH2 0x4AC PUSH1 0x4 DUP1 CALLDATASIZE SUB DUP2 ADD SWAP1 PUSH2 0x4A7 SWAP2 SWAP1 PUSH2 0x2844 JUMP JUMPDEST PUSH2 0x1EBE JUMP JUMPDEST STOP JUMPDEST PUSH2 0x4C8 PUSH1 0x4 DUP1 CALLDATASIZE SUB DUP2 ADD SWAP1 PUSH2 0x4C3 SWAP2 SWAP1 PUSH2 0x2844 JUMP JUMPDEST PUSH2 0x1F87 JUMP JUMPDEST PUSH1 0x40 MLOAD PUSH2 0x4D5 SWAP2 SWAP1 PUSH2 0x27F8 JUMP JUMPDEST PUSH1 0x40 MLOAD DUP1 SWAP2 SUB SWAP1 RETURN JUMPDEST PUSH2 0x4F8 PUSH1 0x4 DUP1 CALLDATASIZE SUB DUP2 ADD SWAP1 PUSH2 0x4F3 SWAP2 SWAP1 PUSH2 0x28CF JUMP JUMPDEST PUSH2 0x1FA6 JUMP JUMPDEST STOP JUMPDEST PUSH2 0x514 PUSH1 0x4 DUP1 CALLDATASIZE SUB DUP2 ADD SWAP1 PUSH2 0x50F SWAP2 SWAP1 PUSH2 0x28CF JUMP JUMPDEST PUSH2 0x209E JUMP JUMPDEST PUSH1 0x40 MLOAD PUSH2 0x521 SWAP2 SWAP1 PUSH2 0x27F8 JUMP JUMPDEST PUSH1 0x40 MLOAD DUP1 SWAP2 SUB SWAP1 RETURN JUMPDEST PUSH2 0x532 PUSH2 0x20EA JUMP JUMPDEST PUSH1 0x40 MLOAD PUSH2 0x53F SWAP2 SWAP1 PUSH2 0x29C5 JUMP JUMPDEST PUSH1 0x40 MLOAD DUP1 SWAP2 SUB SWAP1 RETURN JUMPDEST PUSH2 0x562 PUSH1 0x4 DUP1 CALLDATASIZE SUB DUP2 ADD SWAP1 PUSH2 0x55D SWAP2 SWAP1 PUSH2 0x28CF JUMP JUMPDEST PUSH2 0x2110 JUMP JUMPDEST PUSH1 0x40 MLOAD PUSH2 0x56F SWAP2 SWAP1 PUSH2 0x27F8 JUMP JUMPDEST PUSH1 0x40 MLOAD DUP1 SWAP2 SUB SWAP1 RETURN JUMPDEST PUSH1 0x0 PUSH1 0xC SLOAD SWAP1 POP SWAP1 JUMP JUMPDEST PUSH1 0x0 PUSH1 0x2 SLOAD SWAP1 POP SWAP1 JUMP JUMPDEST PUSH1 0x0 PUSH1 0x1 SLOAD SWAP1 POP SWAP1 JUMP JUMPDEST PUSH2 0x59E PUSH2 0x215C JUMP JUMPDEST PUSH20 0xFFFFFFFFFFFFFFFFFFFFFFFFFFFFFFFFFFFFFFFF AND PUSH2 0x5BC PUSH2 0x16D4 JUMP JUMPDEST PUSH20 0xFFFFFFFFFFFFFFFFFFFFFFFFFFFFFFFFFFFFFFFF AND EQ PUSH2 0x612 JUMPI PUSH1 0x40 MLOAD PUSH32 0x8C379A000000000000000000000000000000000000000000000000000000000 DUP2 MSTORE PUSH1 0x4 ADD PUSH2 0x609 SWAP1 PUSH2 0x2A3D JUMP JUMPDEST PUSH1 0x40 MLOAD DUP1 SWAP2 SUB SWAP1 REVERT JUMPDEST PUSH1 0x0 DUP2 GT PUSH2 0x655 JUMPI PUSH1 0x40 MLOAD PUSH32 0x8C379A000000000000000000000000000000000000000000000000000000000 DUP2 MSTORE PUSH1 0x4 ADD PUSH2 0x64C SWAP1 PUSH2 0x2AA9 JUMP JUMPDEST PUSH1 0x40 MLOAD DUP1 SWAP2 SUB SWAP1 REVERT JUMPDEST DUP1 PUSH1 0x8 DUP2 SWAP1 SSTORE POP POP JUMP JUMPDEST PUSH1 0x0 DUP2 GT PUSH2 0x6A2 JUMPI PUSH1 0x40 MLOAD PUSH32 0x8C379A000000000000000000000000000000000000000000000000000000000 DUP2 MSTORE PUSH1 0x4 ADD PUSH2 0x699 SWAP1 PUSH2 0x2B15 JUMP JUMPDEST PUSH1 0x40 MLOAD DUP1 SWAP2 SUB SWAP1 REVERT JUMPDEST PUSH1 0xB PUSH1 0x0 CALLER PUSH20 0xFFFFFFFFFFFFFFFFFFFFFFFFFFFFFFFFFFFFFFFF AND PUSH20 0xFFFFFFFFFFFFFFFFFFFFFFFFFFFFFFFFFFFFFFFF AND DUP2 MSTORE PUSH1 0x20 ADD SWAP1 DUP2 MSTORE PUSH1 0x20 ADD PUSH1 0x0 KECCAK256 PUSH1 0x1 ADD SLOAD DUP2 GT ISZERO PUSH2 0x727 JUMPI PUSH1 0x40 MLOAD PUSH32 0x8C379A000000000000000000000000000000000000000000000000000000000 DUP2 MSTORE PUSH1 0x4 ADD PUSH2 0x71E SWAP1 PUSH2 0x2B81 JUMP JUMPDEST PUSH1 0x40 MLOAD DUP1 SWAP2 SUB SWAP1 REVERT JUMPDEST PUSH2 0x72F PUSH2 0x2164 JUMP JUMPDEST PUSH1 0x0 DUP2 SWAP1 POP PUSH1 0x0 PUSH2 0x7A0 PUSH3 0x15180 PUSH2 0x792 PUSH1 0xB PUSH1 0x0 CALLER PUSH20 0xFFFFFFFFFFFFFFFFFFFFFFFFFFFFFFFFFFFFFFFF AND PUSH20 0xFFFFFFFFFFFFFFFFFFFFFFFFFFFFFFFFFFFFFFFF AND DUP2 MSTORE PUSH1 0x20 ADD SWAP1 DUP2 MSTORE PUSH1 0x20 ADD PUSH1 0x0 KECCAK256 PUSH1 0x3 ADD SLOAD TIMESTAMP PUSH2 0x2337 SWAP1 SWAP2 SWAP1 PUSH4 0xFFFFFFFF AND JUMP JUMPDEST PUSH2 0x234D SWAP1 SWAP2 SWAP1 PUSH4 0xFFFFFFFF AND JUMP JUMPDEST SWAP1 POP PUSH1 0x0 PUSH1 0x64 SWAP1 POP PUSH1 0x0 DUP1 PUSH1 0xB PUSH1 0x0 CALLER PUSH20 0xFFFFFFFFFFFFFFFFFFFFFFFFFFFFFFFFFFFFFFFF AND PUSH20 0xFFFFFFFFFFFFFFFFFFFFFFFFFFFFFFFFFFFFFFFF AND DUP2 MSTORE PUSH1 0x20 ADD SWAP1 DUP2 MSTORE PUSH1 0x20 ADD PUSH1 0x0 KECCAK256 PUSH1 0x2 ADD SLOAD EQ ISZERO PUSH2 0x868 JUMPI PUSH2 0x860 PUSH2 0x80F PUSH3 0x15180 PUSH1 0x5 SLOAD PUSH2 0x2363 SWAP1 SWAP2 SWAP1 PUSH4 0xFFFFFFFF AND JUMP JUMPDEST PUSH1 0xB PUSH1 0x0 CALLER PUSH20 0xFFFFFFFFFFFFFFFFFFFFFFFFFFFFFFFFFFFFFFFF AND PUSH20 0xFFFFFFFFFFFFFFFFFFFFFFFFFFFFFFFFFFFFFFFF AND DUP2 MSTORE PUSH1 0x20 ADD SWAP1 DUP2 MSTORE PUSH1 0x20 ADD PUSH1 0x0 KECCAK256 PUSH1 0x3 ADD SLOAD PUSH2 0x2379 SWAP1 SWAP2 SWAP1 PUSH4 0xFFFFFFFF AND JUMP JUMPDEST TIMESTAMP LT ISZERO PUSH2 0x886 JUMP JUMPDEST PUSH1 0x0 PUSH1 0x2 SLOAD DUP5 PUSH2 0x878 SWAP2 SWAP1 PUSH2 0x2BD0 JUMP JUMPDEST EQ DUP1 ISZERO PUSH2 0x885 JUMPI POP PUSH1 0x0 DUP4 GT JUMPDEST JUMPDEST SWAP1 POP DUP1 PUSH2 0x893 JUMPI PUSH1 0x1 SLOAD SWAP2 POP JUMPDEST PUSH2 0x8E8 DUP5 PUSH1 0xB PUSH1 0x0 CALLER PUSH20 0xFFFFFFFFFFFFFFFFFFFFFFFFFFFFFFFFFFFFFFFF AND PUSH20 0xFFFFFFFFFFFFFFFFFFFFFFFFFFFFFFFFFFFFFFFF AND DUP2 MSTORE PUSH1 0x20 ADD SWAP1 DUP2 MSTORE PUSH1 0x20 ADD PUSH1 0x0 KECCAK256 PUSH1 0x1 ADD SLOAD PUSH2 0x2337 SWAP1 SWAP2 SWAP1 PUSH4 0xFFFFFFFF AND JUMP JUMPDEST PUSH1 0xB PUSH1 0x0 CALLER PUSH20 0xFFFFFFFFFFFFFFFFFFFFFFFFFFFFFFFFFFFFFFFF AND PUSH20 0xFFFFFFFFFFFFFFFFFFFFFFFFFFFFFFFFFFFFFFFF AND DUP2 MSTORE PUSH1 0x20 ADD SWAP1 DUP2 MSTORE PUSH1 0x20 ADD PUSH1 0x0 KECCAK256 PUSH1 0x1 ADD DUP2 SWAP1 SSTORE POP PUSH2 0x943 DUP5 PUSH1 0xC SLOAD PUSH2 0x2337 SWAP1 SWAP2 SWAP1 PUSH4 0xFFFFFFFF AND JUMP JUMPDEST PUSH1 0xC DUP2 SWAP1 SSTORE POP PUSH2 0x982 PUSH2 0x973 PUSH2 0x2710 PUSH2 0x965 DUP6 DUP9 PUSH2 0x2363 SWAP1 SWAP2 SWAP1 PUSH4 0xFFFFFFFF AND JUMP JUMPDEST PUSH2 0x234D SWAP1 SWAP2 SWAP1 PUSH4 0xFFFFFFFF AND JUMP JUMPDEST DUP6 PUSH2 0x2337 SWAP1 SWAP2 SWAP1 PUSH4 0xFFFFFFFF AND JUMP JUMPDEST SWAP4 POP PUSH2 0x9D1 CALLER DUP6 PUSH1 0xD PUSH1 0x0 SWAP1 SLOAD SWAP1 PUSH2 0x100 EXP SWAP1 DIV PUSH20 0xFFFFFFFFFFFFFFFFFFFFFFFFFFFFFFFFFFFFFFFF AND PUSH20 0xFFFFFFFFFFFFFFFFFFFFFFFFFFFFFFFFFFFFFFFF AND PUSH2 0x238F SWAP1 SWAP3 SWAP2 SWAP1 PUSH4 0xFFFFFFFF AND JUMP JUMPDEST PUSH32 0x884EDAD9CE6FA2440D8A54CC123490EB96D2768479D49FF9C7366125A9424364 CALLER DUP6 PUSH1 0x40 MLOAD PUSH2 0xA02 SWAP3 SWAP2 SWAP1 PUSH2 0x2C01 JUMP JUMPDEST PUSH1 0x40 MLOAD DUP1 SWAP2 SUB SWAP1 LOG1 POP POP POP POP POP JUMP JUMPDEST PUSH2 0xA19 PUSH2 0x2164 JUMP JUMPDEST PUSH1 0x0 PUSH1 0xB PUSH1 0x0 CALLER PUSH20 0xFFFFFFFFFFFFFFFFFFFFFFFFFFFFFFFFFFFFFFFF AND PUSH20 0xFFFFFFFFFFFFFFFFFFFFFFFFFFFFFFFFFFFFFFFF AND DUP2 MSTORE PUSH1 0x20 ADD SWAP1 DUP2 MSTORE PUSH1 0x20 ADD PUSH1 0x0 KECCAK256 PUSH1 0x0 ADD SLOAD SWAP1 POP PUSH1 0x0 PUSH2 0xA9D PUSH2 0xA8E PUSH2 0x2710 PUSH2 0xA80 PUSH1 0x4 SLOAD DUP7 PUSH2 0x2363 SWAP1 SWAP2 SWAP1 PUSH4 0xFFFFFFFF AND JUMP JUMPDEST PUSH2 0x234D SWAP1 SWAP2 SWAP1 PUSH4 0xFFFFFFFF AND JUMP JUMPDEST DUP4 PUSH2 0x2337 SWAP1 SWAP2 SWAP1 PUSH4 0xFFFFFFFF AND JUMP JUMPDEST SWAP1 POP PUSH1 0x0 DUP2 GT PUSH2 0xAE2 JUMPI PUSH1 0x40 MLOAD PUSH32 0x8C379A000000000000000000000000000000000000000000000000000000000 DUP2 MSTORE PUSH1 0x4 ADD PUSH2 0xAD9 SWAP1 PUSH2 0x2C76 JUMP JUMPDEST PUSH1 0x40 MLOAD DUP1 SWAP2 SUB SWAP1 REVERT JUMPDEST PUSH1 0xD PUSH1 0x0 SWAP1 SLOAD SWAP1 PUSH2 0x100 EXP SWAP1 DIV PUSH20 0xFFFFFFFFFFFFFFFFFFFFFFFFFFFFFFFFFFFFFFFF AND PUSH20 0xFFFFFFFFFFFFFFFFFFFFFFFFFFFFFFFFFFFFFFFF AND PUSH4 0x70A08231 ADDRESS PUSH1 0x40 MLOAD DUP3 PUSH4 0xFFFFFFFF AND PUSH1 0xE0 SHL DUP2 MSTORE PUSH1 0x4 ADD PUSH2 0xB3D SWAP2 SWAP1 PUSH2 0x294B JUMP JUMPDEST PUSH1 0x20 PUSH1 0x40 MLOAD DUP1 DUP4 SUB DUP2 DUP7 DUP1 EXTCODESIZE ISZERO DUP1 ISZERO PUSH2 0xB55 JUMPI PUSH1 0x0 DUP1 REVERT JUMPDEST POP GAS STATICCALL ISZERO DUP1 ISZERO PUSH2 0xB69 JUMPI RETURNDATASIZE PUSH1 0x0 DUP1 RETURNDATACOPY RETURNDATASIZE PUSH1 0x0 REVERT JUMPDEST POP POP POP POP PUSH1 0x40 MLOAD RETURNDATASIZE PUSH1 0x1F NOT PUSH1 0x1F DUP3 ADD AND DUP3 ADD DUP1 PUSH1 0x40 MSTORE POP DUP2 ADD SWAP1 PUSH2 0xB8D SWAP2 SWAP1 PUSH2 0x2CAB JUMP JUMPDEST DUP2 GT ISZERO PUSH2 0xC42 JUMPI PUSH1 0xD PUSH1 0x0 SWAP1 SLOAD SWAP1 PUSH2 0x100 EXP SWAP1 DIV PUSH20 0xFFFFFFFFFFFFFFFFFFFFFFFFFFFFFFFFFFFFFFFF AND PUSH20 0xFFFFFFFFFFFFFFFFFFFFFFFFFFFFFFFFFFFFFFFF AND PUSH4 0x70A08231 ADDRESS PUSH1 0x40 MLOAD DUP3 PUSH4 0xFFFFFFFF AND PUSH1 0xE0 SHL DUP2 MSTORE PUSH1 0x4 ADD PUSH2 0xBEF SWAP2 SWAP1 PUSH2 0x294B JUMP JUMPDEST PUSH1 0x20 PUSH1 0x40 MLOAD DUP1 DUP4 SUB DUP2 DUP7 DUP1 EXTCODESIZE ISZERO DUP1 ISZERO PUSH2 0xC07 JUMPI PUSH1 0x0 DUP1 REVERT JUMPDEST POP GAS STATICCALL ISZERO DUP1 ISZERO PUSH2 0xC1B JUMPI RETURNDATASIZE PUSH1 0x0 DUP1 RETURNDATACOPY RETURNDATASIZE PUSH1 0x0 REVERT JUMPDEST POP POP POP POP PUSH1 0x40 MLOAD RETURNDATASIZE PUSH1 0x1F NOT PUSH1 0x1F DUP3 ADD AND DUP3 ADD DUP1 PUSH1 0x40 MSTORE POP DUP2 ADD SWAP1 PUSH2 0xC3F SWAP2 SWAP1 PUSH2 0x2CAB JUMP JUMPDEST SWAP1 POP JUMPDEST PUSH2 0xC8F CALLER DUP3 PUSH1 0xD PUSH1 0x0 SWAP1 SLOAD SWAP1 PUSH2 0x100 EXP SWAP1 DIV PUSH20 0xFFFFFFFFFFFFFFFFFFFFFFFFFFFFFFFFFFFFFFFF AND PUSH20 0xFFFFFFFFFFFFFFFFFFFFFFFFFFFFFFFFFFFFFFFF AND PUSH2 0x238F SWAP1 SWAP3 SWAP2 SWAP1 PUSH4 0xFFFFFFFF AND JUMP JUMPDEST PUSH1 0x0 PUSH1 0xB PUSH1 0x0 CALLER PUSH20 0xFFFFFFFFFFFFFFFFFFFFFFFFFFFFFFFFFFFFFFFF AND PUSH20 0xFFFFFFFFFFFFFFFFFFFFFFFFFFFFFFFFFFFFFFFF AND DUP2 MSTORE PUSH1 0x20 ADD SWAP1 DUP2 MSTORE PUSH1 0x20 ADD PUSH1 0x0 KECCAK256 PUSH1 0x0 ADD DUP2 SWAP1 SSTORE POP PUSH32 0xC9695243A805ADB74C91F28311176C65B417E842D5699893CEF56D18BFA48CBA CALLER DUP3 PUSH1 0x40 MLOAD PUSH2 0xD08 SWAP3 SWAP2 SWAP1 PUSH2 0x2C01 JUMP JUMPDEST PUSH1 0x40 MLOAD DUP1 SWAP2 SUB SWAP1 LOG1 POP POP JUMP JUMPDEST PUSH1 0x0 PUSH1 0x37 PUSH1 0xB PUSH1 0x0 DUP5 PUSH20 0xFFFFFFFFFFFFFFFFFFFFFFFFFFFFFFFFFFFFFFFF AND PUSH20 0xFFFFFFFFFFFFFFFFFFFFFFFFFFFFFFFFFFFFFFFF AND DUP2 MSTORE PUSH1 0x20 ADD SWAP1 DUP2 MSTORE PUSH1 0x20 ADD PUSH1 0x0 KECCAK256 PUSH1 0x5 ADD SLOAD EQ PUSH2 0xD69 JUMPI PUSH1 0x0 SWAP1 POP PUSH2 0xEC7 JUMP JUMPDEST PUSH1 0x0 PUSH1 0xB PUSH1 0x0 DUP5 PUSH20 0xFFFFFFFFFFFFFFFFFFFFFFFFFFFFFFFFFFFFFFFF AND PUSH20 0xFFFFFFFFFFFFFFFFFFFFFFFFFFFFFFFFFFFFFFFF AND DUP2 MSTORE PUSH1 0x20 ADD SWAP1 DUP2 MSTORE PUSH1 0x20 ADD PUSH1 0x0 KECCAK256 PUSH1 0x2 ADD SLOAD EQ PUSH2 0xE44 JUMPI PUSH1 0x0 PUSH1 0x7 PUSH2 0xE21 PUSH3 0x15180 PUSH2 0xE13 PUSH1 0xB PUSH1 0x0 DUP9 PUSH20 0xFFFFFFFFFFFFFFFFFFFFFFFFFFFFFFFFFFFFFFFF AND PUSH20 0xFFFFFFFFFFFFFFFFFFFFFFFFFFFFFFFFFFFFFFFF AND DUP2 MSTORE PUSH1 0x20 ADD SWAP1 DUP2 MSTORE PUSH1 0x20 ADD PUSH1 0x0 KECCAK256 PUSH1 0x3 ADD SLOAD TIMESTAMP PUSH2 0x2337 SWAP1 SWAP2 SWAP1 PUSH4 0xFFFFFFFF AND JUMP JUMPDEST PUSH2 0x234D SWAP1 SWAP2 SWAP1 PUSH4 0xFFFFFFFF AND JUMP JUMPDEST PUSH2 0xE2B SWAP2 SWAP1 PUSH2 0x2BD0 JUMP JUMPDEST EQ PUSH2 0xE37 JUMPI PUSH1 0x1 PUSH2 0xE3A JUMP JUMPDEST PUSH1 0x0 JUMPDEST PUSH1 0xFF AND SWAP1 POP PUSH2 0xEC7 JUMP JUMPDEST PUSH2 0xE5C PUSH3 0x15180 PUSH1 0x5 SLOAD PUSH2 0x2363 SWAP1 SWAP2 SWAP1 PUSH4 0xFFFFFFFF AND JUMP JUMPDEST PUSH2 0xEB1 PUSH1 0xB PUSH1 0x0 DUP6 PUSH20 0xFFFFFFFFFFFFFFFFFFFFFFFFFFFFFFFFFFFFFFFF AND PUSH20 0xFFFFFFFFFFFFFFFFFFFFFFFFFFFFFFFFFFFFFFFF AND DUP2 MSTORE PUSH1 0x20 ADD SWAP1 DUP2 MSTORE PUSH1 0x20 ADD PUSH1 0x0 KECCAK256 PUSH1 0x3 ADD SLOAD TIMESTAMP PUSH2 0x2337 SWAP1 SWAP2 SWAP1 PUSH4 0xFFFFFFFF AND JUMP JUMPDEST LT ISZERO PUSH2 0xEBE JUMPI PUSH1 0x1 PUSH2 0xEC1 JUMP JUMPDEST PUSH1 0x0 JUMPDEST PUSH1 0xFF AND SWAP1 POP JUMPDEST SWAP2 SWAP1 POP JUMP JUMPDEST PUSH2 0xED4 PUSH2 0x215C JUMP JUMPDEST PUSH20 0xFFFFFFFFFFFFFFFFFFFFFFFFFFFFFFFFFFFFFFFF AND PUSH2 0xEF2 PUSH2 0x16D4 JUMP JUMPDEST PUSH20 0xFFFFFFFFFFFFFFFFFFFFFFFFFFFFFFFFFFFFFFFF AND EQ PUSH2 0xF48 JUMPI PUSH1 0x40 MLOAD PUSH32 0x8C379A000000000000000000000000000000000000000000000000000000000 DUP2 MSTORE PUSH1 0x4 ADD PUSH2 0xF3F SWAP1 PUSH2 0x2A3D JUMP JUMPDEST PUSH1 0x40 MLOAD DUP1 SWAP2 SUB SWAP1 REVERT JUMPDEST PUSH1 0x0 DUP2 GT PUSH2 0xF8B JUMPI PUSH1 0x40 MLOAD PUSH32 0x8C379A000000000000000000000000000000000000000000000000000000000 DUP2 MSTORE PUSH1 0x4 ADD PUSH2 0xF82 SWAP1 PUSH2 0x2AA9 JUMP JUMPDEST PUSH1 0x40 MLOAD DUP1 SWAP2 SUB SWAP1 REVERT JUMPDEST DUP1 PUSH1 0x5 DUP2 SWAP1 SSTORE POP POP JUMP JUMPDEST PUSH1 0x0 DUP3 GT PUSH2 0xFD8 JUMPI PUSH1 0x40 MLOAD PUSH32 0x8C379A000000000000000000000000000000000000000000000000000000000 DUP2 MSTORE PUSH1 0x4 ADD PUSH2 0xFCF SWAP1 PUSH2 0x2B15 JUMP JUMPDEST PUSH1 0x40 MLOAD DUP1 SWAP2 SUB SWAP1 REVERT JUMPDEST DUP2 PUSH1 0xD PUSH1 0x0 SWAP1 SLOAD SWAP1 PUSH2 0x100 EXP SWAP1 DIV PUSH20 0xFFFFFFFFFFFFFFFFFFFFFFFFFFFFFFFFFFFFFFFF AND PUSH20 0xFFFFFFFFFFFFFFFFFFFFFFFFFFFFFFFFFFFFFFFF AND PUSH4 0x70A08231 CALLER PUSH1 0x40 MLOAD DUP3 PUSH4 0xFFFFFFFF AND PUSH1 0xE0 SHL DUP2 MSTORE PUSH1 0x4 ADD PUSH2 0x1034 SWAP2 SWAP1 PUSH2 0x294B JUMP JUMPDEST PUSH1 0x20 PUSH1 0x40 MLOAD DUP1 DUP4 SUB DUP2 DUP7 DUP1 EXTCODESIZE ISZERO DUP1 ISZERO PUSH2 0x104C JUMPI PUSH1 0x0 DUP1 REVERT JUMPDEST POP GAS STATICCALL ISZERO DUP1 ISZERO PUSH2 0x1060 JUMPI RETURNDATASIZE PUSH1 0x0 DUP1 RETURNDATACOPY RETURNDATASIZE PUSH1 0x0 REVERT JUMPDEST POP POP POP POP PUSH1 0x40 MLOAD RETURNDATASIZE PUSH1 0x1F NOT PUSH1 0x1F DUP3 ADD AND DUP3 ADD DUP1 PUSH1 0x40 MSTORE POP DUP2 ADD SWAP1 PUSH2 0x1084 SWAP2 SWAP1 PUSH2 0x2CAB JUMP JUMPDEST GT PUSH2 0x10C4 JUMPI PUSH1 0x40 MLOAD PUSH32 0x8C379A000000000000000000000000000000000000000000000000000000000 DUP2 MSTORE PUSH1 0x4 ADD PUSH2 0x10BB SWAP1 PUSH2 0x2D24 JUMP JUMPDEST PUSH1 0x40 MLOAD DUP1 SWAP2 SUB SWAP1 REVERT JUMPDEST PUSH1 0x0 PUSH2 0x10CF CALLER PUSH2 0xD14 JUMP JUMPDEST EQ PUSH2 0x110F JUMPI PUSH1 0x40 MLOAD PUSH32 0x8C379A000000000000000000000000000000000000000000000000000000000 DUP2 MSTORE PUSH1 0x4 ADD PUSH2 0x1106 SWAP1 PUSH2 0x2D90 JUMP JUMPDEST PUSH1 0x40 MLOAD DUP1 SWAP2 SUB SWAP1 REVERT JUMPDEST PUSH1 0x0 DUP2 EQ ISZERO PUSH2 0x1162 JUMPI PUSH1 0x6 SLOAD DUP3 LT ISZERO PUSH2 0x115D JUMPI PUSH1 0x40 MLOAD PUSH32 0x8C379A000000000000000000000000000000000000000000000000000000000 DUP2 MSTORE PUSH1 0x4 ADD PUSH2 0x1154 SWAP1 PUSH2 0x2DFC JUMP JUMPDEST PUSH1 0x40 MLOAD DUP1 SWAP2 SUB SWAP1 REVERT JUMPDEST PUSH2 0x12A2 JUMP JUMPDEST PUSH1 0x1 DUP2 EQ ISZERO PUSH2 0x11B5 JUMPI PUSH1 0x9 SLOAD DUP3 LT ISZERO PUSH2 0x11B0 JUMPI PUSH1 0x40 MLOAD PUSH32 0x8C379A000000000000000000000000000000000000000000000000000000000 DUP2 MSTORE PUSH1 0x4 ADD PUSH2 0x11A7 SWAP1 PUSH2 0x2DFC JUMP JUMPDEST PUSH1 0x40 MLOAD DUP1 SWAP2 SUB SWAP1 REVERT JUMPDEST PUSH2 0x12A1 JUMP JUMPDEST PUSH1 0x2 DUP2 EQ ISZERO PUSH2 0x1208 JUMPI PUSH1 0x8 SLOAD DUP3 LT ISZERO PUSH2 0x1203 JUMPI PUSH1 0x40 MLOAD PUSH32 0x8C379A000000000000000000000000000000000000000000000000000000000 DUP2 MSTORE PUSH1 0x4 ADD PUSH2 0x11FA SWAP1 PUSH2 0x2DFC JUMP JUMPDEST PUSH1 0x40 MLOAD DUP1 SWAP2 SUB SWAP1 REVERT JUMPDEST PUSH2 0x12A0 JUMP JUMPDEST PUSH1 0x3 DUP2 EQ ISZERO PUSH2 0x125B JUMPI PUSH1 0x7 SLOAD DUP3 LT ISZERO PUSH2 0x1256 JUMPI PUSH1 0x40 MLOAD PUSH32 0x8C379A000000000000000000000000000000000000000000000000000000000 DUP2 MSTORE PUSH1 0x4 ADD PUSH2 0x124D SWAP1 PUSH2 0x2DFC JUMP JUMPDEST PUSH1 0x40 MLOAD DUP1 SWAP2 SUB SWAP1 REVERT JUMPDEST PUSH2 0x129F JUMP JUMPDEST PUSH1 0x0 DUP3 LT PUSH2 0x129E JUMPI PUSH1 0x40 MLOAD PUSH32 0x8C379A000000000000000000000000000000000000000000000000000000000 DUP2 MSTORE PUSH1 0x4 ADD PUSH2 0x1295 SWAP1 PUSH2 0x2E68 JUMP JUMPDEST PUSH1 0x40 MLOAD DUP1 SWAP2 SUB SWAP1 REVERT JUMPDEST JUMPDEST JUMPDEST JUMPDEST JUMPDEST DUP1 PUSH1 0xB PUSH1 0x0 CALLER PUSH20 0xFFFFFFFFFFFFFFFFFFFFFFFFFFFFFFFFFFFFFFFF AND PUSH20 0xFFFFFFFFFFFFFFFFFFFFFFFFFFFFFFFFFFFFFFFF AND DUP2 MSTORE PUSH1 0x20 ADD SWAP1 DUP2 MSTORE PUSH1 0x20 ADD PUSH1 0x0 KECCAK256 PUSH1 0x2 ADD DUP2 SWAP1 SSTORE POP TIMESTAMP PUSH1 0xB PUSH1 0x0 CALLER PUSH20 0xFFFFFFFFFFFFFFFFFFFFFFFFFFFFFFFFFFFFFFFF AND PUSH20 0xFFFFFFFFFFFFFFFFFFFFFFFFFFFFFFFFFFFFFFFF AND DUP2 MSTORE PUSH1 0x20 ADD SWAP1 DUP2 MSTORE PUSH1 0x20 ADD PUSH1 0x0 KECCAK256 PUSH1 0x3 ADD DUP2 SWAP1 SSTORE POP PUSH1 0x37 PUSH1 0xB PUSH1 0x0 CALLER PUSH20 0xFFFFFFFFFFFFFFFFFFFFFFFFFFFFFFFFFFFFFFFF AND PUSH20 0xFFFFFFFFFFFFFFFFFFFFFFFFFFFFFFFFFFFFFFFF AND DUP2 MSTORE PUSH1 0x20 ADD SWAP1 DUP2 MSTORE PUSH1 0x20 ADD PUSH1 0x0 KECCAK256 PUSH1 0x5 ADD DUP2 SWAP1 SSTORE POP PUSH1 0xA CALLER SWAP1 DUP1 PUSH1 0x1 DUP2 SLOAD ADD DUP1 DUP3 SSTORE DUP1 SWAP2 POP POP PUSH1 0x1 SWAP1 SUB SWAP1 PUSH1 0x0 MSTORE PUSH1 0x20 PUSH1 0x0 KECCAK256 ADD PUSH1 0x0 SWAP1 SWAP2 SWAP1 SWAP2 SWAP1 SWAP2 PUSH2 0x100 EXP DUP2 SLOAD DUP2 PUSH20 0xFFFFFFFFFFFFFFFFFFFFFFFFFFFFFFFFFFFFFFFF MUL NOT AND SWAP1 DUP4 PUSH20 0xFFFFFFFFFFFFFFFFFFFFFFFFFFFFFFFFFFFFFFFF AND MUL OR SWAP1 SSTORE POP PUSH2 0x13E4 DUP3 PUSH2 0x1998 JUMP JUMPDEST POP POP JUMP JUMPDEST PUSH1 0x0 PUSH1 0xA DUP1 SLOAD SWAP1 POP SWAP1 POP SWAP1 JUMP JUMPDEST PUSH2 0x13FD PUSH2 0x215C JUMP JUMPDEST PUSH20 0xFFFFFFFFFFFFFFFFFFFFFFFFFFFFFFFFFFFFFFFF AND PUSH2 0x141B PUSH2 0x16D4 JUMP JUMPDEST PUSH20 0xFFFFFFFFFFFFFFFFFFFFFFFFFFFFFFFFFFFFFFFF AND EQ PUSH2 0x1471 JUMPI PUSH1 0x40 MLOAD PUSH32 0x8C379A000000000000000000000000000000000000000000000000000000000 DUP2 MSTORE PUSH1 0x4 ADD PUSH2 0x1468 SWAP1 PUSH2 0x2A3D JUMP JUMPDEST PUSH1 0x40 MLOAD DUP1 SWAP2 SUB SWAP1 REVERT JUMPDEST PUSH1 0x0 DUP2 GT PUSH2 0x14B4 JUMPI PUSH1 0x40 MLOAD PUSH32 0x8C379A000000000000000000000000000000000000000000000000000000000 DUP2 MSTORE PUSH1 0x4 ADD PUSH2 0x14AB SWAP1 PUSH2 0x2ED4 JUMP JUMPDEST PUSH1 0x40 MLOAD DUP1 SWAP2 SUB SWAP1 REVERT JUMPDEST DUP1 PUSH1 0x2 DUP2 SWAP1 SSTORE POP PUSH32 0x189BDA9782663C67A3F95C0AA5455924C711210B00281C60EAD2F0DD8DBC924C DUP2 PUSH1 0x40 MLOAD PUSH2 0x14EA SWAP2 SWAP1 PUSH2 0x27F8 JUMP JUMPDEST PUSH1 0x40 MLOAD DUP1 SWAP2 SUB SWAP1 LOG1 POP JUMP JUMPDEST PUSH1 0x0 DUP1 PUSH1 0xB PUSH1 0x0 DUP5 PUSH20 0xFFFFFFFFFFFFFFFFFFFFFFFFFFFFFFFFFFFFFFFF AND PUSH20 0xFFFFFFFFFFFFFFFFFFFFFFFFFFFFFFFFFFFFFFFF AND DUP2 MSTORE PUSH1 0x20 ADD SWAP1 DUP2 MSTORE PUSH1 0x20 ADD PUSH1 0x0 KECCAK256 PUSH1 0x1 ADD SLOAD SWAP1 POP PUSH1 0x0 PUSH2 0x15E3 PUSH2 0x2710 PUSH2 0x15D5 PUSH3 0x15180 PUSH2 0x15C7 PUSH1 0x3 SLOAD PUSH2 0x15B9 PUSH2 0x15AA PUSH1 0xB PUSH1 0x0 DUP14 PUSH20 0xFFFFFFFFFFFFFFFFFFFFFFFFFFFFFFFFFFFFFFFF AND PUSH20 0xFFFFFFFFFFFFFFFFFFFFFFFFFFFFFFFFFFFFFFFF AND DUP2 MSTORE PUSH1 0x20 ADD SWAP1 DUP2 MSTORE PUSH1 0x20 ADD PUSH1 0x0 KECCAK256 PUSH1 0x4 ADD SLOAD TIMESTAMP PUSH2 0x2337 SWAP1 SWAP2 SWAP1 PUSH4 0xFFFFFFFF AND JUMP JUMPDEST DUP10 PUSH2 0x2363 SWAP1 SWAP2 SWAP1 PUSH4 0xFFFFFFFF AND JUMP JUMPDEST PUSH2 0x2363 SWAP1 SWAP2 SWAP1 PUSH4 0xFFFFFFFF AND JUMP JUMPDEST PUSH2 0x234D SWAP1 SWAP2 SWAP1 PUSH4 0xFFFFFFFF AND JUMP JUMPDEST PUSH2 0x234D SWAP1 SWAP2 SWAP1 PUSH4 0xFFFFFFFF AND JUMP JUMPDEST SWAP1 POP DUP1 PUSH1 0xB PUSH1 0x0 CALLER PUSH20 0xFFFFFFFFFFFFFFFFFFFFFFFFFFFFFFFFFFFFFFFF AND PUSH20 0xFFFFFFFFFFFFFFFFFFFFFFFFFFFFFFFFFFFFFFFF AND DUP2 MSTORE PUSH1 0x20 ADD SWAP1 DUP2 MSTORE PUSH1 0x20 ADD PUSH1 0x0 KECCAK256 PUSH1 0x0 ADD SLOAD PUSH2 0x1633 SWAP2 SWAP1 PUSH2 0x2F23 JUMP JUMPDEST SWAP3 POP POP POP SWAP2 SWAP1 POP JUMP JUMPDEST PUSH2 0x1644 PUSH2 0x215C JUMP JUMPDEST PUSH20 0xFFFFFFFFFFFFFFFFFFFFFFFFFFFFFFFFFFFFFFFF AND PUSH2 0x1662 PUSH2 0x16D4 JUMP JUMPDEST PUSH20 0xFFFFFFFFFFFFFFFFFFFFFFFFFFFFFFFFFFFFFFFF AND EQ PUSH2 0x16B8 JUMPI PUSH1 0x40 MLOAD PUSH32 0x8C379A000000000000000000000000000000000000000000000000000000000 DUP2 MSTORE PUSH1 0x4 ADD PUSH2 0x16AF SWAP1 PUSH2 0x2A3D JUMP JUMPDEST PUSH1 0x40 MLOAD DUP1 SWAP2 SUB SWAP1 REVERT JUMPDEST PUSH2 0x16C2 PUSH1 0x0 PUSH2 0x2415 JUMP JUMPDEST JUMP JUMPDEST PUSH1 0x0 PUSH1 0x3 SLOAD SWAP1 POP SWAP1 JUMP JUMPDEST PUSH1 0xC SLOAD DUP2 JUMP JUMPDEST PUSH1 0x0 DUP1 PUSH1 0x0 SWAP1 SLOAD SWAP1 PUSH2 0x100 EXP SWAP1 DIV PUSH20 0xFFFFFFFFFFFFFFFFFFFFFFFFFFFFFFFFFFFFFFFF AND SWAP1 POP SWAP1 JUMP JUMPDEST PUSH1 0x0 DUP1 PUSH1 0x0 SWAP1 POP PUSH1 0x0 DUP4 EQ DUP1 PUSH2 0x1713 JUMPI POP PUSH1 0x2 DUP4 EQ JUMPDEST ISZERO PUSH2 0x1722 JUMPI PUSH1 0x6 SLOAD SWAP1 POP PUSH2 0x178F JUMP JUMPDEST PUSH1 0x1 DUP4 EQ ISZERO PUSH2 0x1735 JUMPI PUSH1 0x9 SLOAD SWAP1 POP PUSH2 0x178E JUMP JUMPDEST PUSH1 0x3 DUP4 EQ ISZERO PUSH2 0x1748 JUMPI PUSH1 0x7 SLOAD SWAP1 POP PUSH2 0x178D JUMP JUMPDEST PUSH1 0x1 PUSH1 0x0 GT PUSH2 0x178C JUMPI PUSH1 0x40 MLOAD PUSH32 0x8C379A000000000000000000000000000000000000000000000000000000000 DUP2 MSTORE PUSH1 0x4 ADD PUSH2 0x1783 SWAP1 PUSH2 0x2E68 JUMP JUMPDEST PUSH1 0x40 MLOAD DUP1 SWAP2 SUB SWAP1 REVERT JUMPDEST JUMPDEST JUMPDEST JUMPDEST DUP1 SWAP2 POP POP SWAP2 SWAP1 POP JUMP JUMPDEST PUSH2 0x17A0 PUSH2 0x215C JUMP JUMPDEST PUSH20 0xFFFFFFFFFFFFFFFFFFFFFFFFFFFFFFFFFFFFFFFF AND PUSH2 0x17BE PUSH2 0x16D4 JUMP JUMPDEST PUSH20 0xFFFFFFFFFFFFFFFFFFFFFFFFFFFFFFFFFFFFFFFF AND EQ PUSH2 0x1814 JUMPI PUSH1 0x40 MLOAD PUSH32 0x8C379A000000000000000000000000000000000000000000000000000000000 DUP2 MSTORE PUSH1 0x4 ADD PUSH2 0x180B SWAP1 PUSH2 0x2A3D JUMP JUMPDEST PUSH1 0x40 MLOAD DUP1 SWAP2 SUB SWAP1 REVERT JUMPDEST PUSH1 0x0 DUP2 GT PUSH2 0x1857 JUMPI PUSH1 0x40 MLOAD PUSH32 0x8C379A000000000000000000000000000000000000000000000000000000000 DUP2 MSTORE PUSH1 0x4 ADD PUSH2 0x184E SWAP1 PUSH2 0x2FC5 JUMP JUMPDEST PUSH1 0x40 MLOAD DUP1 SWAP2 SUB SWAP1 REVERT JUMPDEST DUP1 PUSH1 0x1 DUP2 SWAP1 SSTORE POP PUSH32 0x150C688DD7595BF7862B8AB1FE46756450EB7D731037942B3BBC46F3F0E21B81 DUP2 PUSH1 0x40 MLOAD PUSH2 0x188D SWAP2 SWAP1 PUSH2 0x27F8 JUMP JUMPDEST PUSH1 0x40 MLOAD DUP1 SWAP2 SUB SWAP1 LOG1 POP JUMP JUMPDEST PUSH2 0x18A0 PUSH2 0x215C JUMP JUMPDEST PUSH20 0xFFFFFFFFFFFFFFFFFFFFFFFFFFFFFFFFFFFFFFFF AND PUSH2 0x18BE PUSH2 0x16D4 JUMP JUMPDEST PUSH20 0xFFFFFFFFFFFFFFFFFFFFFFFFFFFFFFFFFFFFFFFF AND EQ PUSH2 0x1914 JUMPI PUSH1 0x40 MLOAD PUSH32 0x8C379A000000000000000000000000000000000000000000000000000000000 DUP2 MSTORE PUSH1 0x4 ADD PUSH2 0x190B SWAP1 PUSH2 0x2A3D JUMP JUMPDEST PUSH1 0x40 MLOAD DUP1 SWAP2 SUB SWAP1 REVERT JUMPDEST PUSH1 0x0 DUP2 GT PUSH2 0x1957 JUMPI PUSH1 0x40 MLOAD PUSH32 0x8C379A000000000000000000000000000000000000000000000000000000000 DUP2 MSTORE PUSH1 0x4 ADD PUSH2 0x194E SWAP1 PUSH2 0x3031 JUMP JUMPDEST PUSH1 0x40 MLOAD DUP1 SWAP2 SUB SWAP1 REVERT JUMPDEST DUP1 PUSH1 0x3 DUP2 SWAP1 SSTORE POP PUSH32 0x1946FB78C7CA778B54D82CABAAC5BA67CF446F58D0FF1F8CEAEBB6150E54E44F DUP2 PUSH1 0x40 MLOAD PUSH2 0x198D SWAP2 SWAP1 PUSH2 0x27F8 JUMP JUMPDEST PUSH1 0x40 MLOAD DUP1 SWAP2 SUB SWAP1 LOG1 POP JUMP JUMPDEST PUSH1 0x0 DUP2 GT PUSH2 0x19DB JUMPI PUSH1 0x40 MLOAD PUSH32 0x8C379A000000000000000000000000000000000000000000000000000000000 DUP2 MSTORE PUSH1 0x4 ADD PUSH2 0x19D2 SWAP1 PUSH2 0x2B15 JUMP JUMPDEST PUSH1 0x40 MLOAD DUP1 SWAP2 SUB SWAP1 REVERT JUMPDEST DUP1 PUSH1 0xD PUSH1 0x0 SWAP1 SLOAD SWAP1 PUSH2 0x100 EXP SWAP1 DIV PUSH20 0xFFFFFFFFFFFFFFFFFFFFFFFFFFFFFFFFFFFFFFFF AND PUSH20 0xFFFFFFFFFFFFFFFFFFFFFFFFFFFFFFFFFFFFFFFF AND PUSH4 0x70A08231 CALLER PUSH1 0x40 MLOAD DUP3 PUSH4 0xFFFFFFFF AND PUSH1 0xE0 SHL DUP2 MSTORE PUSH1 0x4 ADD PUSH2 0x1A37 SWAP2 SWAP1 PUSH2 0x294B JUMP JUMPDEST PUSH1 0x20 PUSH1 0x40 MLOAD DUP1 DUP4 SUB DUP2 DUP7 DUP1 EXTCODESIZE ISZERO DUP1 ISZERO PUSH2 0x1A4F JUMPI PUSH1 0x0 DUP1 REVERT JUMPDEST POP GAS STATICCALL ISZERO DUP1 ISZERO PUSH2 0x1A63 JUMPI RETURNDATASIZE PUSH1 0x0 DUP1 RETURNDATACOPY RETURNDATASIZE PUSH1 0x0 REVERT JUMPDEST POP POP POP POP PUSH1 0x40 MLOAD RETURNDATASIZE PUSH1 0x1F NOT PUSH1 0x1F DUP3 ADD AND DUP3 ADD DUP1 PUSH1 0x40 MSTORE POP DUP2 ADD SWAP1 PUSH2 0x1A87 SWAP2 SWAP1 PUSH2 0x2CAB JUMP JUMPDEST GT PUSH2 0x1AC7 JUMPI PUSH1 0x40 MLOAD PUSH32 0x8C379A000000000000000000000000000000000000000000000000000000000 DUP2 MSTORE PUSH1 0x4 ADD PUSH2 0x1ABE SWAP1 PUSH2 0x2D24 JUMP JUMPDEST PUSH1 0x40 MLOAD DUP1 SWAP2 SUB SWAP1 REVERT JUMPDEST PUSH1 0x37 PUSH1 0xB PUSH1 0x0 CALLER PUSH20 0xFFFFFFFFFFFFFFFFFFFFFFFFFFFFFFFFFFFFFFFF AND PUSH20 0xFFFFFFFFFFFFFFFFFFFFFFFFFFFFFFFFFFFFFFFF AND DUP2 MSTORE PUSH1 0x20 ADD SWAP1 DUP2 MSTORE PUSH1 0x20 ADD PUSH1 0x0 KECCAK256 PUSH1 0x5 ADD SLOAD EQ PUSH2 0x1B4C JUMPI PUSH1 0x40 MLOAD PUSH32 0x8C379A000000000000000000000000000000000000000000000000000000000 DUP2 MSTORE PUSH1 0x4 ADD PUSH2 0x1B43 SWAP1 PUSH2 0x309D JUMP JUMPDEST PUSH1 0x40 MLOAD DUP1 SWAP2 SUB SWAP1 REVERT JUMPDEST PUSH2 0x1B54 PUSH2 0x2164 JUMP JUMPDEST PUSH2 0x1BA3 CALLER ADDRESS DUP4 PUSH1 0xD PUSH1 0x0 SWAP1 SLOAD SWAP1 PUSH2 0x100 EXP SWAP1 DIV PUSH20 0xFFFFFFFFFFFFFFFFFFFFFFFFFFFFFFFFFFFFFFFF AND PUSH20 0xFFFFFFFFFFFFFFFFFFFFFFFFFFFFFFFFFFFFFFFF AND PUSH2 0x24D9 SWAP1 SWAP4 SWAP3 SWAP2 SWAP1 PUSH4 0xFFFFFFFF AND JUMP JUMPDEST PUSH2 0x1BF8 DUP2 PUSH1 0xB PUSH1 0x0 CALLER PUSH20 0xFFFFFFFFFFFFFFFFFFFFFFFFFFFFFFFFFFFFFFFF AND PUSH20 0xFFFFFFFFFFFFFFFFFFFFFFFFFFFFFFFFFFFFFFFF AND DUP2 MSTORE PUSH1 0x20 ADD SWAP1 DUP2 MSTORE PUSH1 0x20 ADD PUSH1 0x0 KECCAK256 PUSH1 0x1 ADD SLOAD PUSH2 0x2379 SWAP1 SWAP2 SWAP1 PUSH4 0xFFFFFFFF AND JUMP JUMPDEST PUSH1 0xB PUSH1 0x0 CALLER PUSH20 0xFFFFFFFFFFFFFFFFFFFFFFFFFFFFFFFFFFFFFFFF AND PUSH20 0xFFFFFFFFFFFFFFFFFFFFFFFFFFFFFFFFFFFFFFFF AND DUP2 MSTORE PUSH1 0x20 ADD SWAP1 DUP2 MSTORE PUSH1 0x20 ADD PUSH1 0x0 KECCAK256 PUSH1 0x1 ADD DUP2 SWAP1 SSTORE POP PUSH2 0x1C53 DUP2 PUSH1 0xC SLOAD PUSH2 0x2379 SWAP1 SWAP2 SWAP1 PUSH4 0xFFFFFFFF AND JUMP JUMPDEST PUSH1 0xC DUP2 SWAP1 SSTORE POP PUSH32 0x9E71BC8EEA02A63969F509818F2DAFB9254532904319F9DBDA79B67BD34A5F3D CALLER DUP3 PUSH1 0x40 MLOAD PUSH2 0x1C8A SWAP3 SWAP2 SWAP1 PUSH2 0x2C01 JUMP JUMPDEST PUSH1 0x40 MLOAD DUP1 SWAP2 SUB SWAP1 LOG1 POP JUMP JUMPDEST PUSH2 0x1C9D PUSH2 0x215C JUMP JUMPDEST PUSH20 0xFFFFFFFFFFFFFFFFFFFFFFFFFFFFFFFFFFFFFFFF AND PUSH2 0x1CBB PUSH2 0x16D4 JUMP JUMPDEST PUSH20 0xFFFFFFFFFFFFFFFFFFFFFFFFFFFFFFFFFFFFFFFF AND EQ PUSH2 0x1D11 JUMPI PUSH1 0x40 MLOAD PUSH32 0x8C379A000000000000000000000000000000000000000000000000000000000 DUP2 MSTORE PUSH1 0x4 ADD PUSH2 0x1D08 SWAP1 PUSH2 0x2A3D JUMP JUMPDEST PUSH1 0x40 MLOAD DUP1 SWAP2 SUB SWAP1 REVERT JUMPDEST PUSH1 0x0 DUP2 GT PUSH2 0x1D54 JUMPI PUSH1 0x40 MLOAD PUSH32 0x8C379A000000000000000000000000000000000000000000000000000000000 DUP2 MSTORE PUSH1 0x4 ADD PUSH2 0x1D4B SWAP1 PUSH2 0x2AA9 JUMP JUMPDEST PUSH1 0x40 MLOAD DUP1 SWAP2 SUB SWAP1 REVERT JUMPDEST DUP1 PUSH1 0x7 DUP2 SWAP1 SSTORE POP POP JUMP JUMPDEST PUSH1 0x0 PUSH1 0x37 PUSH2 0x1D6B DUP4 PUSH2 0x2110 JUMP JUMPDEST EQ PUSH2 0x1DAB JUMPI PUSH1 0x40 MLOAD PUSH32 0x8C379A000000000000000000000000000000000000000000000000000000000 DUP2 MSTORE PUSH1 0x4 ADD PUSH2 0x1DA2 SWAP1 PUSH2 0x3109 JUMP JUMPDEST PUSH1 0x40 MLOAD DUP1 SWAP2 SUB SWAP1 REVERT JUMPDEST PUSH1 0xB PUSH1 0x0 DUP4 PUSH20 0xFFFFFFFFFFFFFFFFFFFFFFFFFFFFFFFFFFFFFFFF AND PUSH20 0xFFFFFFFFFFFFFFFFFFFFFFFFFFFFFFFFFFFFFFFF AND DUP2 MSTORE PUSH1 0x20 ADD SWAP1 DUP2 MSTORE PUSH1 0x20 ADD PUSH1 0x0 KECCAK256 PUSH1 0x2 ADD SLOAD SWAP1 POP SWAP2 SWAP1 POP JUMP JUMPDEST PUSH2 0x1DFD PUSH2 0x215C JUMP JUMPDEST PUSH20 0xFFFFFFFFFFFFFFFFFFFFFFFFFFFFFFFFFFFFFFFF AND PUSH2 0x1E1B PUSH2 0x16D4 JUMP JUMPDEST PUSH20 0xFFFFFFFFFFFFFFFFFFFFFFFFFFFFFFFFFFFFFFFF AND EQ PUSH2 0x1E71 JUMPI PUSH1 0x40 MLOAD PUSH32 0x8C379A000000000000000000000000000000000000000000000000000000000 DUP2 MSTORE PUSH1 0x4 ADD PUSH2 0x1E68 SWAP1 PUSH2 0x2A3D JUMP JUMPDEST PUSH1 0x40 MLOAD DUP1 SWAP2 SUB SWAP1 REVERT JUMPDEST PUSH1 0x0 DUP2 GT PUSH2 0x1EB4 JUMPI PUSH1 0x40 MLOAD PUSH32 0x8C379A000000000000000000000000000000000000000000000000000000000 DUP2 MSTORE PUSH1 0x4 ADD PUSH2 0x1EAB SWAP1 PUSH2 0x2AA9 JUMP JUMPDEST PUSH1 0x40 MLOAD DUP1 SWAP2 SUB SWAP1 REVERT JUMPDEST DUP1 PUSH1 0x9 DUP2 SWAP1 SSTORE POP POP JUMP JUMPDEST PUSH2 0x1EC6 PUSH2 0x215C JUMP JUMPDEST PUSH20 0xFFFFFFFFFFFFFFFFFFFFFFFFFFFFFFFFFFFFFFFF AND PUSH2 0x1EE4 PUSH2 0x16D4 JUMP JUMPDEST PUSH20 0xFFFFFFFFFFFFFFFFFFFFFFFFFFFFFFFFFFFFFFFF AND EQ PUSH2 0x1F3A JUMPI PUSH1 0x40 MLOAD PUSH32 0x8C379A000000000000000000000000000000000000000000000000000000000 DUP2 MSTORE PUSH1 0x4 ADD PUSH2 0x1F31 SWAP1 PUSH2 0x2A3D JUMP JUMPDEST PUSH1 0x40 MLOAD DUP1 SWAP2 SUB SWAP1 REVERT JUMPDEST PUSH1 0x0 DUP2 GT PUSH2 0x1F7D JUMPI PUSH1 0x40 MLOAD PUSH32 0x8C379A000000000000000000000000000000000000000000000000000000000 DUP2 MSTORE PUSH1 0x4 ADD PUSH2 0x1F74 SWAP1 PUSH2 0x2AA9 JUMP JUMPDEST PUSH1 0x40 MLOAD DUP1 SWAP2 SUB SWAP1 REVERT JUMPDEST DUP1 PUSH1 0x6 DUP2 SWAP1 SSTORE POP POP JUMP JUMPDEST PUSH1 0x0 DUP1 DUP3 EQ ISZERO PUSH2 0x1F9B JUMPI PUSH1 0x5 SLOAD SWAP1 POP PUSH2 0x1FA1 JUMP JUMPDEST PUSH1 0x2 SLOAD SWAP1 POP JUMPDEST SWAP2 SWAP1 POP JUMP JUMPDEST PUSH2 0x1FAE PUSH2 0x215C JUMP JUMPDEST PUSH20 0xFFFFFFFFFFFFFFFFFFFFFFFFFFFFFFFFFFFFFFFF AND PUSH2 0x1FCC PUSH2 0x16D4 JUMP JUMPDEST PUSH20 0xFFFFFFFFFFFFFFFFFFFFFFFFFFFFFFFFFFFFFFFF AND EQ PUSH2 0x2022 JUMPI PUSH1 0x40 MLOAD PUSH32 0x8C379A000000000000000000000000000000000000000000000000000000000 DUP2 MSTORE PUSH1 0x4 ADD PUSH2 0x2019 SWAP1 PUSH2 0x2A3D JUMP JUMPDEST PUSH1 0x40 MLOAD DUP1 SWAP2 SUB SWAP1 REVERT JUMPDEST PUSH1 0x0 PUSH20 0xFFFFFFFFFFFFFFFFFFFFFFFFFFFFFFFFFFFFFFFF AND DUP2 PUSH20 0xFFFFFFFFFFFFFFFFFFFFFFFFFFFFFFFFFFFFFFFF AND EQ ISZERO PUSH2 0x2092 JUMPI PUSH1 0x40 MLOAD PUSH32 0x8C379A000000000000000000000000000000000000000000000000000000000 DUP2 MSTORE PUSH1 0x4 ADD PUSH2 0x2089 SWAP1 PUSH2 0x319B JUMP JUMPDEST PUSH1 0x40 MLOAD DUP1 SWAP2 SUB SWAP1 REVERT JUMPDEST PUSH2 0x209B DUP2 PUSH2 0x2415 JUMP JUMPDEST POP JUMP JUMPDEST PUSH1 0x0 PUSH1 0xB PUSH1 0x0 DUP4 PUSH20 0xFFFFFFFFFFFFFFFFFFFFFFFFFFFFFFFFFFFFFFFF AND PUSH20 0xFFFFFFFFFFFFFFFFFFFFFFFFFFFFFFFFFFFFFFFF AND DUP2 MSTORE PUSH1 0x20 ADD SWAP1 DUP2 MSTORE PUSH1 0x20 ADD PUSH1 0x0 KECCAK256 PUSH1 0x1 ADD SLOAD SWAP1 POP SWAP2 SWAP1 POP JUMP JUMPDEST PUSH1 0xD PUSH1 0x0 SWAP1 SLOAD SWAP1 PUSH2 0x100 EXP SWAP1 DIV PUSH20 0xFFFFFFFFFFFFFFFFFFFFFFFFFFFFFFFFFFFFFFFF AND DUP2 JUMP JUMPDEST PUSH1 0x0 PUSH1 0xB PUSH1 0x0 DUP4 PUSH20 0xFFFFFFFFFFFFFFFFFFFFFFFFFFFFFFFFFFFFFFFF AND PUSH20 0xFFFFFFFFFFFFFFFFFFFFFFFFFFFFFFFFFFFFFFFF AND DUP2 MSTORE PUSH1 0x20 ADD SWAP1 DUP2 MSTORE PUSH1 0x20 ADD PUSH1 0x0 KECCAK256 PUSH1 0x5 ADD SLOAD SWAP1 POP SWAP2 SWAP1 POP JUMP JUMPDEST PUSH1 0x0 CALLER SWAP1 POP SWAP1 JUMP JUMPDEST PUSH1 0x0 PUSH1 0xB PUSH1 0x0 CALLER PUSH20 0xFFFFFFFFFFFFFFFFFFFFFFFFFFFFFFFFFFFFFFFF AND PUSH20 0xFFFFFFFFFFFFFFFFFFFFFFFFFFFFFFFFFFFFFFFF AND DUP2 MSTORE PUSH1 0x20 ADD SWAP1 DUP2 MSTORE PUSH1 0x20 ADD PUSH1 0x0 KECCAK256 PUSH1 0x1 ADD SLOAD SWAP1 POP PUSH1 0x0 PUSH2 0x224F PUSH2 0x2710 PUSH2 0x2241 PUSH1 0x3C PUSH2 0x2233 PUSH1 0x3 SLOAD PUSH2 0x2225 PUSH2 0x2216 PUSH1 0xB PUSH1 0x0 CALLER PUSH20 0xFFFFFFFFFFFFFFFFFFFFFFFFFFFFFFFFFFFFFFFF AND PUSH20 0xFFFFFFFFFFFFFFFFFFFFFFFFFFFFFFFFFFFFFFFF AND DUP2 MSTORE PUSH1 0x20 ADD SWAP1 DUP2 MSTORE PUSH1 0x20 ADD PUSH1 0x0 KECCAK256 PUSH1 0x4 ADD SLOAD TIMESTAMP PUSH2 0x2337 SWAP1 SWAP2 SWAP1 PUSH4 0xFFFFFFFF AND JUMP JUMPDEST DUP10 PUSH2 0x2363 SWAP1 SWAP2 SWAP1 PUSH4 0xFFFFFFFF AND JUMP JUMPDEST PUSH2 0x2363 SWAP1 SWAP2 SWAP1 PUSH4 0xFFFFFFFF AND JUMP JUMPDEST PUSH2 0x234D SWAP1 SWAP2 SWAP1 PUSH4 0xFFFFFFFF AND JUMP JUMPDEST PUSH2 0x234D SWAP1 SWAP2 SWAP1 PUSH4 0xFFFFFFFF AND JUMP JUMPDEST SWAP1 POP PUSH2 0x22A6 DUP2 PUSH1 0xB PUSH1 0x0 CALLER PUSH20 0xFFFFFFFFFFFFFFFFFFFFFFFFFFFFFFFFFFFFFFFF AND PUSH20 0xFFFFFFFFFFFFFFFFFFFFFFFFFFFFFFFFFFFFFFFF AND DUP2 MSTORE PUSH1 0x20 ADD SWAP1 DUP2 MSTORE PUSH1 0x20 ADD PUSH1 0x0 KECCAK256 PUSH1 0x0 ADD SLOAD PUSH2 0x2379 SWAP1 SWAP2 SWAP1 PUSH4 0xFFFFFFFF AND JUMP JUMPDEST PUSH1 0xB PUSH1 0x0 CALLER PUSH20 0xFFFFFFFFFFFFFFFFFFFFFFFFFFFFFFFFFFFFFFFF AND PUSH20 0xFFFFFFFFFFFFFFFFFFFFFFFFFFFFFFFFFFFFFFFF AND DUP2 MSTORE PUSH1 0x20 ADD SWAP1 DUP2 MSTORE PUSH1 0x20 ADD PUSH1 0x0 KECCAK256 PUSH1 0x0 ADD DUP2 SWAP1 SSTORE POP TIMESTAMP PUSH1 0xB PUSH1 0x0 CALLER PUSH20 0xFFFFFFFFFFFFFFFFFFFFFFFFFFFFFFFFFFFFFFFF AND PUSH20 0xFFFFFFFFFFFFFFFFFFFFFFFFFFFFFFFFFFFFFFFF AND DUP2 MSTORE PUSH1 0x20 ADD SWAP1 DUP2 MSTORE PUSH1 0x20 ADD PUSH1 0x0 KECCAK256 PUSH1 0x4 ADD DUP2 SWAP1 SSTORE POP POP POP JUMP JUMPDEST PUSH1 0x0 DUP2 DUP4 PUSH2 0x2345 SWAP2 SWAP1 PUSH2 0x31BB JUMP JUMPDEST SWAP1 POP SWAP3 SWAP2 POP POP JUMP JUMPDEST PUSH1 0x0 DUP2 DUP4 PUSH2 0x235B SWAP2 SWAP1 PUSH2 0x31EF JUMP JUMPDEST SWAP1 POP SWAP3 SWAP2 POP POP JUMP JUMPDEST PUSH1 0x0 DUP2 DUP4 PUSH2 0x2371 SWAP2 SWAP1 PUSH2 0x3220 JUMP JUMPDEST SWAP1 POP SWAP3 SWAP2 POP POP JUMP JUMPDEST PUSH1 0x0 DUP2 DUP4 PUSH2 0x2387 SWAP2 SWAP1 PUSH2 0x2F23 JUMP JUMPDEST SWAP1 POP SWAP3 SWAP2 POP POP JUMP JUMPDEST PUSH2 0x2410 DUP4 PUSH4 0xA9059CBB PUSH1 0xE0 SHL DUP5 DUP5 PUSH1 0x40 MLOAD PUSH1 0x24 ADD PUSH2 0x23AE SWAP3 SWAP2 SWAP1 PUSH2 0x2C01 JUMP JUMPDEST PUSH1 0x40 MLOAD PUSH1 0x20 DUP2 DUP4 SUB SUB DUP2 MSTORE SWAP1 PUSH1 0x40 MSTORE SWAP1 PUSH28 0xFFFFFFFFFFFFFFFFFFFFFFFFFFFFFFFFFFFFFFFFFFFFFFFFFFFFFFFF NOT AND PUSH1 0x20 DUP3 ADD DUP1 MLOAD PUSH28 0xFFFFFFFFFFFFFFFFFFFFFFFFFFFFFFFFFFFFFFFFFFFFFFFFFFFFFFFF DUP4 DUP2 DUP4 AND OR DUP4 MSTORE POP POP POP POP PUSH2 0x2562 JUMP JUMPDEST POP POP POP JUMP JUMPDEST PUSH1 0x0 DUP1 PUSH1 0x0 SWAP1 SLOAD SWAP1 PUSH2 0x100 EXP SWAP1 DIV PUSH20 0xFFFFFFFFFFFFFFFFFFFFFFFFFFFFFFFFFFFFFFFF AND SWAP1 POP DUP2 PUSH1 0x0 DUP1 PUSH2 0x100 EXP DUP2 SLOAD DUP2 PUSH20 0xFFFFFFFFFFFFFFFFFFFFFFFFFFFFFFFFFFFFFFFF MUL NOT AND SWAP1 DUP4 PUSH20 0xFFFFFFFFFFFFFFFFFFFFFFFFFFFFFFFFFFFFFFFF AND MUL OR SWAP1 SSTORE POP DUP2 PUSH20 0xFFFFFFFFFFFFFFFFFFFFFFFFFFFFFFFFFFFFFFFF AND DUP2 PUSH20 0xFFFFFFFFFFFFFFFFFFFFFFFFFFFFFFFFFFFFFFFF AND PUSH32 0x8BE0079C531659141344CD1FD0A4F28419497F9722A3DAAFE3B4186F6B6457E0 PUSH1 0x40 MLOAD PUSH1 0x40 MLOAD DUP1 SWAP2 SUB SWAP1 LOG3 POP POP JUMP JUMPDEST PUSH2 0x255C DUP5 PUSH4 0x23B872DD PUSH1 0xE0 SHL DUP6 DUP6 DUP6 PUSH1 0x40 MLOAD PUSH1 0x24 ADD PUSH2 0x24FA SWAP4 SWAP3 SWAP2 SWAP1 PUSH2 0x327A JUMP JUMPDEST PUSH1 0x40 MLOAD PUSH1 0x20 DUP2 DUP4 SUB SUB DUP2 MSTORE SWAP1 PUSH1 0x40 MSTORE SWAP1 PUSH28 0xFFFFFFFFFFFFFFFFFFFFFFFFFFFFFFFFFFFFFFFFFFFFFFFFFFFFFFFF NOT AND PUSH1 0x20 DUP3 ADD DUP1 MLOAD PUSH28 0xFFFFFFFFFFFFFFFFFFFFFFFFFFFFFFFFFFFFFFFFFFFFFFFFFFFFFFFF DUP4 DUP2 DUP4 AND OR DUP4 MSTORE POP POP POP POP PUSH2 0x2562 JUMP JUMPDEST POP POP POP POP JUMP JUMPDEST PUSH1 0x0 PUSH2 0x25C4 DUP3 PUSH1 0x40 MLOAD DUP1 PUSH1 0x40 ADD PUSH1 0x40 MSTORE DUP1 PUSH1 0x20 DUP2 MSTORE PUSH1 0x20 ADD PUSH32 0x5361666542455032303A206C6F772D6C6576656C2063616C6C206661696C6564 DUP2 MSTORE POP DUP6 PUSH20 0xFFFFFFFFFFFFFFFFFFFFFFFFFFFFFFFFFFFFFFFF AND PUSH2 0x2629 SWAP1 SWAP3 SWAP2 SWAP1 PUSH4 0xFFFFFFFF AND JUMP JUMPDEST SWAP1 POP PUSH1 0x0 DUP2 MLOAD GT ISZERO PUSH2 0x2624 JUMPI DUP1 DUP1 PUSH1 0x20 ADD SWAP1 MLOAD DUP2 ADD SWAP1 PUSH2 0x25E4 SWAP2 SWAP1 PUSH2 0x32E9 JUMP JUMPDEST PUSH2 0x2623 JUMPI PUSH1 0x40 MLOAD PUSH32 0x8C379A000000000000000000000000000000000000000000000000000000000 DUP2 MSTORE PUSH1 0x4 ADD PUSH2 0x261A SWAP1 PUSH2 0x3388 JUMP JUMPDEST PUSH1 0x40 MLOAD DUP1 SWAP2 SUB SWAP1 REVERT JUMPDEST JUMPDEST POP POP POP JUMP JUMPDEST PUSH1 0x60 PUSH2 0x2638 DUP5 DUP5 PUSH1 0x0 DUP6 PUSH2 0x2641 JUMP JUMPDEST SWAP1 POP SWAP4 SWAP3 POP POP POP JUMP JUMPDEST PUSH1 0x60 DUP3 SELFBALANCE LT ISZERO PUSH2 0x2686 JUMPI PUSH1 0x40 MLOAD PUSH32 0x8C379A000000000000000000000000000000000000000000000000000000000 DUP2 MSTORE PUSH1 0x4 ADD PUSH2 0x267D SWAP1 PUSH2 0x341A JUMP JUMPDEST PUSH1 0x40 MLOAD DUP1 SWAP2 SUB SWAP1 REVERT JUMPDEST PUSH2 0x268F DUP6 PUSH2 0x2755 JUMP JUMPDEST PUSH2 0x26CE JUMPI PUSH1 0x40 MLOAD PUSH32 0x8C379A000000000000000000000000000000000000000000000000000000000 DUP2 MSTORE PUSH1 0x4 ADD PUSH2 0x26C5 SWAP1 PUSH2 0x3486 JUMP JUMPDEST PUSH1 0x40 MLOAD DUP1 SWAP2 SUB SWAP1 REVERT JUMPDEST PUSH1 0x0 DUP1 DUP7 PUSH20 0xFFFFFFFFFFFFFFFFFFFFFFFFFFFFFFFFFFFFFFFF AND DUP6 DUP8 PUSH1 0x40 MLOAD PUSH2 0x26F7 SWAP2 SWAP1 PUSH2 0x3520 JUMP JUMPDEST PUSH1 0x0 PUSH1 0x40 MLOAD DUP1 DUP4 SUB DUP2 DUP6 DUP8 GAS CALL SWAP3 POP POP POP RETURNDATASIZE DUP1 PUSH1 0x0 DUP2 EQ PUSH2 0x2734 JUMPI PUSH1 0x40 MLOAD SWAP2 POP PUSH1 0x1F NOT PUSH1 0x3F RETURNDATASIZE ADD AND DUP3 ADD PUSH1 0x40 MSTORE RETURNDATASIZE DUP3 MSTORE RETURNDATASIZE PUSH1 0x0 PUSH1 0x20 DUP5 ADD RETURNDATACOPY PUSH2 0x2739 JUMP JUMPDEST PUSH1 0x60 SWAP2 POP JUMPDEST POP SWAP2 POP SWAP2 POP PUSH2 0x2749 DUP3 DUP3 DUP7 PUSH2 0x2778 JUMP JUMPDEST SWAP3 POP POP POP SWAP5 SWAP4 POP POP POP POP JUMP JUMPDEST PUSH1 0x0 DUP1 DUP3 PUSH20 0xFFFFFFFFFFFFFFFFFFFFFFFFFFFFFFFFFFFFFFFF AND EXTCODESIZE GT SWAP1 POP SWAP2 SWAP1 POP JUMP JUMPDEST PUSH1 0x60 DUP4 ISZERO PUSH2 0x2788 JUMPI DUP3 SWAP1 POP PUSH2 0x27D8 JUMP JUMPDEST PUSH1 0x0 DUP4 MLOAD GT ISZERO PUSH2 0x279B JUMPI DUP3 MLOAD DUP1 DUP5 PUSH1 0x20 ADD REVERT JUMPDEST DUP2 PUSH1 0x40 MLOAD PUSH32 0x8C379A000000000000000000000000000000000000000000000000000000000 DUP2 MSTORE PUSH1 0x4 ADD PUSH2 0x27CF SWAP2 SWAP1 PUSH2 0x358C JUMP JUMPDEST PUSH1 0x40 MLOAD DUP1 SWAP2 SUB SWAP1 REVERT JUMPDEST SWAP4 SWAP3 POP POP POP JUMP JUMPDEST PUSH1 0x0 DUP2 SWAP1 POP SWAP2 SWAP1 POP JUMP JUMPDEST PUSH2 0x27F2 DUP2 PUSH2 0x27DF JUMP JUMPDEST DUP3 MSTORE POP POP JUMP JUMPDEST PUSH1 0x0 PUSH1 0x20 DUP3 ADD SWAP1 POP PUSH2 0x280D PUSH1 0x0 DUP4 ADD DUP5 PUSH2 0x27E9 JUMP JUMPDEST SWAP3 SWAP2 POP POP JUMP JUMPDEST PUSH1 0x0 DUP1 REVERT JUMPDEST PUSH2 0x2821 DUP2 PUSH2 0x27DF JUMP JUMPDEST DUP2 EQ PUSH2 0x282C JUMPI PUSH1 0x0 DUP1 REVERT JUMPDEST POP JUMP JUMPDEST PUSH1 0x0 DUP2 CALLDATALOAD SWAP1 POP PUSH2 0x283E DUP2 PUSH2 0x2818 JUMP JUMPDEST SWAP3 SWAP2 POP POP JUMP JUMPDEST PUSH1 0x0 PUSH1 0x20 DUP3 DUP5 SUB SLT ISZERO PUSH2 0x285A JUMPI PUSH2 0x2859 PUSH2 0x2813 JUMP JUMPDEST JUMPDEST PUSH1 0x0 PUSH2 0x2868 DUP5 DUP3 DUP6 ADD PUSH2 0x282F JUMP JUMPDEST SWAP2 POP POP SWAP3 SWAP2 POP POP JUMP JUMPDEST PUSH1 0x0 PUSH20 0xFFFFFFFFFFFFFFFFFFFFFFFFFFFFFFFFFFFFFFFF DUP3 AND SWAP1 POP SWAP2 SWAP1 POP JUMP JUMPDEST PUSH1 0x0 PUSH2 0x289C DUP3 PUSH2 0x2871 JUMP JUMPDEST SWAP1 POP SWAP2 SWAP1 POP JUMP JUMPDEST PUSH2 0x28AC DUP2 PUSH2 0x2891 JUMP JUMPDEST DUP2 EQ PUSH2 0x28B7 JUMPI PUSH1 0x0 DUP1 REVERT JUMPDEST POP JUMP JUMPDEST PUSH1 0x0 DUP2 CALLDATALOAD SWAP1 POP PUSH2 0x28C9 DUP2 PUSH2 0x28A3 JUMP JUMPDEST SWAP3 SWAP2 POP POP JUMP JUMPDEST PUSH1 0x0 PUSH1 0x20 DUP3 DUP5 SUB SLT ISZERO PUSH2 0x28E5 JUMPI PUSH2 0x28E4 PUSH2 0x2813 JUMP JUMPDEST JUMPDEST PUSH1 0x0 PUSH2 0x28F3 DUP5 DUP3 DUP6 ADD PUSH2 0x28BA JUMP JUMPDEST SWAP2 POP POP SWAP3 SWAP2 POP POP JUMP JUMPDEST PUSH1 0x0 DUP1 PUSH1 0x40 DUP4 DUP6 SUB SLT ISZERO PUSH2 0x2913 JUMPI PUSH2 0x2912 PUSH2 0x2813 JUMP JUMPDEST JUMPDEST PUSH1 0x0 PUSH2 0x2921 DUP6 DUP3 DUP7 ADD PUSH2 0x282F JUMP JUMPDEST SWAP3 POP POP PUSH1 0x20 PUSH2 0x2932 DUP6 DUP3 DUP7 ADD PUSH2 0x282F JUMP JUMPDEST SWAP2 POP POP SWAP3 POP SWAP3 SWAP1 POP JUMP JUMPDEST PUSH2 0x2945 DUP2 PUSH2 0x2891 JUMP JUMPDEST DUP3 MSTORE POP POP JUMP JUMPDEST PUSH1 0x0 PUSH1 0x20 DUP3 ADD SWAP1 POP PUSH2 0x2960 PUSH1 0x0 DUP4 ADD DUP5 PUSH2 0x293C JUMP JUMPDEST SWAP3 SWAP2 POP POP JUMP JUMPDEST PUSH1 0x0 DUP2 SWAP1 POP SWAP2 SWAP1 POP JUMP JUMPDEST PUSH1 0x0 PUSH2 0x298B PUSH2 0x2986 PUSH2 0x2981 DUP5 PUSH2 0x2871 JUMP JUMPDEST PUSH2 0x2966 JUMP JUMPDEST PUSH2 0x2871 JUMP JUMPDEST SWAP1 POP SWAP2 SWAP1 POP JUMP JUMPDEST PUSH1 0x0 PUSH2 0x299D DUP3 PUSH2 0x2970 JUMP JUMPDEST SWAP1 POP SWAP2 SWAP1 POP JUMP JUMPDEST PUSH1 0x0 PUSH2 0x29AF DUP3 PUSH2 0x2992 JUMP JUMPDEST SWAP1 POP SWAP2 SWAP1 POP JUMP JUMPDEST PUSH2 0x29BF DUP2 PUSH2 0x29A4 JUMP JUMPDEST DUP3 MSTORE POP POP JUMP JUMPDEST PUSH1 0x0 PUSH1 0x20 DUP3 ADD SWAP1 POP PUSH2 0x29DA PUSH1 0x0 DUP4 ADD DUP5 PUSH2 0x29B6 JUMP JUMPDEST SWAP3 SWAP2 POP POP JUMP JUMPDEST PUSH1 0x0 DUP3 DUP3 MSTORE PUSH1 0x20 DUP3 ADD SWAP1 POP SWAP3 SWAP2 POP POP JUMP JUMPDEST PUSH32 0x4F776E61626C653A2063616C6C6572206973206E6F7420746865206F776E6572 PUSH1 0x0 DUP3 ADD MSTORE POP JUMP JUMPDEST PUSH1 0x0 PUSH2 0x2A27 PUSH1 0x20 DUP4 PUSH2 0x29E0 JUMP JUMPDEST SWAP2 POP PUSH2 0x2A32 DUP3 PUSH2 0x29F1 JUMP JUMPDEST PUSH1 0x20 DUP3 ADD SWAP1 POP SWAP2 SWAP1 POP JUMP JUMPDEST PUSH1 0x0 PUSH1 0x20 DUP3 ADD SWAP1 POP DUP2 DUP2 SUB PUSH1 0x0 DUP4 ADD MSTORE PUSH2 0x2A56 DUP2 PUSH2 0x2A1A JUMP JUMPDEST SWAP1 POP SWAP2 SWAP1 POP JUMP JUMPDEST PUSH32 0x43616E2774206265207A65726F00000000000000000000000000000000000000 PUSH1 0x0 DUP3 ADD MSTORE POP JUMP JUMPDEST PUSH1 0x0 PUSH2 0x2A93 PUSH1 0xD DUP4 PUSH2 0x29E0 JUMP JUMPDEST SWAP2 POP PUSH2 0x2A9E DUP3 PUSH2 0x2A5D JUMP JUMPDEST PUSH1 0x20 DUP3 ADD SWAP1 POP SWAP2 SWAP1 POP JUMP JUMPDEST PUSH1 0x0 PUSH1 0x20 DUP3 ADD SWAP1 POP DUP2 DUP2 SUB PUSH1 0x0 DUP4 ADD MSTORE PUSH2 0x2AC2 DUP2 PUSH2 0x2A86 JUMP JUMPDEST SWAP1 POP SWAP2 SWAP1 POP JUMP JUMPDEST PUSH32 0x416D6F756E742073686F756C642062652067726561746572207468616E203000 PUSH1 0x0 DUP3 ADD MSTORE POP JUMP JUMPDEST PUSH1 0x0 PUSH2 0x2AFF PUSH1 0x1F DUP4 PUSH2 0x29E0 JUMP JUMPDEST SWAP2 POP PUSH2 0x2B0A DUP3 PUSH2 0x2AC9 JUMP JUMPDEST PUSH1 0x20 DUP3 ADD SWAP1 POP SWAP2 SWAP1 POP JUMP JUMPDEST PUSH1 0x0 PUSH1 0x20 DUP3 ADD SWAP1 POP DUP2 DUP2 SUB PUSH1 0x0 DUP4 ADD MSTORE PUSH2 0x2B2E DUP2 PUSH2 0x2AF2 JUMP JUMPDEST SWAP1 POP SWAP2 SWAP1 POP JUMP JUMPDEST PUSH32 0x496E76616C696420616D6F756E74000000000000000000000000000000000000 PUSH1 0x0 DUP3 ADD MSTORE POP JUMP JUMPDEST PUSH1 0x0 PUSH2 0x2B6B PUSH1 0xE DUP4 PUSH2 0x29E0 JUMP JUMPDEST SWAP2 POP PUSH2 0x2B76 DUP3 PUSH2 0x2B35 JUMP JUMPDEST PUSH1 0x20 DUP3 ADD SWAP1 POP SWAP2 SWAP1 POP JUMP JUMPDEST PUSH1 0x0 PUSH1 0x20 DUP3 ADD SWAP1 POP DUP2 DUP2 SUB PUSH1 0x0 DUP4 ADD MSTORE PUSH2 0x2B9A DUP2 PUSH2 0x2B5E JUMP JUMPDEST SWAP1 POP SWAP2 SWAP1 POP JUMP JUMPDEST PUSH32 0x4E487B7100000000000000000000000000000000000000000000000000000000 PUSH1 0x0 MSTORE PUSH1 0x12 PUSH1 0x4 MSTORE PUSH1 0x24 PUSH1 0x0 REVERT JUMPDEST PUSH1 0x0 PUSH2 0x2BDB DUP3 PUSH2 0x27DF JUMP JUMPDEST SWAP2 POP PUSH2 0x2BE6 DUP4 PUSH2 0x27DF JUMP JUMPDEST SWAP3 POP DUP3 PUSH2 0x2BF6 JUMPI PUSH2 0x2BF5 PUSH2 0x2BA1 JUMP JUMPDEST JUMPDEST DUP3 DUP3 MOD SWAP1 POP SWAP3 SWAP2 POP POP JUMP JUMPDEST PUSH1 0x0 PUSH1 0x40 DUP3 ADD SWAP1 POP PUSH2 0x2C16 PUSH1 0x0 DUP4 ADD DUP6 PUSH2 0x293C JUMP JUMPDEST PUSH2 0x2C23 PUSH1 0x20 DUP4 ADD DUP5 PUSH2 0x27E9 JUMP JUMPDEST SWAP4 SWAP3 POP POP POP JUMP JUMPDEST PUSH32 0x4E6F7468696E6720746F20636C61696D00000000000000000000000000000000 PUSH1 0x0 DUP3 ADD MSTORE POP JUMP JUMPDEST PUSH1 0x0 PUSH2 0x2C60 PUSH1 0x10 DUP4 PUSH2 0x29E0 JUMP JUMPDEST SWAP2 POP PUSH2 0x2C6B DUP3 PUSH2 0x2C2A JUMP JUMPDEST PUSH1 0x20 DUP3 ADD SWAP1 POP SWAP2 SWAP1 POP JUMP JUMPDEST PUSH1 0x0 PUSH1 0x20 DUP3 ADD SWAP1 POP DUP2 DUP2 SUB PUSH1 0x0 DUP4 ADD MSTORE PUSH2 0x2C8F DUP2 PUSH2 0x2C53 JUMP JUMPDEST SWAP1 POP SWAP2 SWAP1 POP JUMP JUMPDEST PUSH1 0x0 DUP2 MLOAD SWAP1 POP PUSH2 0x2CA5 DUP2 PUSH2 0x2818 JUMP JUMPDEST SWAP3 SWAP2 POP POP JUMP JUMPDEST PUSH1 0x0 PUSH1 0x20 DUP3 DUP5 SUB SLT ISZERO PUSH2 0x2CC1 JUMPI PUSH2 0x2CC0 PUSH2 0x2813 JUMP JUMPDEST JUMPDEST PUSH1 0x0 PUSH2 0x2CCF DUP5 DUP3 DUP6 ADD PUSH2 0x2C96 JUMP JUMPDEST SWAP2 POP POP SWAP3 SWAP2 POP POP JUMP JUMPDEST PUSH32 0x496E73756666696369656E742100000000000000000000000000000000000000 PUSH1 0x0 DUP3 ADD MSTORE POP JUMP JUMPDEST PUSH1 0x0 PUSH2 0x2D0E PUSH1 0xD DUP4 PUSH2 0x29E0 JUMP JUMPDEST SWAP2 POP PUSH2 0x2D19 DUP3 PUSH2 0x2CD8 JUMP JUMPDEST PUSH1 0x20 DUP3 ADD SWAP1 POP SWAP2 SWAP1 POP JUMP JUMPDEST PUSH1 0x0 PUSH1 0x20 DUP3 ADD SWAP1 POP DUP2 DUP2 SUB PUSH1 0x0 DUP4 ADD MSTORE PUSH2 0x2D3D DUP2 PUSH2 0x2D01 JUMP JUMPDEST SWAP1 POP SWAP2 SWAP1 POP JUMP JUMPDEST PUSH32 0x43616E2774207374617274000000000000000000000000000000000000000000 PUSH1 0x0 DUP3 ADD MSTORE POP JUMP JUMPDEST PUSH1 0x0 PUSH2 0x2D7A PUSH1 0xB DUP4 PUSH2 0x29E0 JUMP JUMPDEST SWAP2 POP PUSH2 0x2D85 DUP3 PUSH2 0x2D44 JUMP JUMPDEST PUSH1 0x20 DUP3 ADD SWAP1 POP SWAP2 SWAP1 POP JUMP JUMPDEST PUSH1 0x0 PUSH1 0x20 DUP3 ADD SWAP1 POP DUP2 DUP2 SUB PUSH1 0x0 DUP4 ADD MSTORE PUSH2 0x2DA9 DUP2 PUSH2 0x2D6D JUMP JUMPDEST SWAP1 POP SWAP2 SWAP1 POP JUMP JUMPDEST PUSH32 0x496E73756666696369656E740000000000000000000000000000000000000000 PUSH1 0x0 DUP3 ADD MSTORE POP JUMP JUMPDEST PUSH1 0x0 PUSH2 0x2DE6 PUSH1 0xC DUP4 PUSH2 0x29E0 JUMP JUMPDEST SWAP2 POP PUSH2 0x2DF1 DUP3 PUSH2 0x2DB0 JUMP JUMPDEST PUSH1 0x20 DUP3 ADD SWAP1 POP SWAP2 SWAP1 POP JUMP JUMPDEST PUSH1 0x0 PUSH1 0x20 DUP3 ADD SWAP1 POP DUP2 DUP2 SUB PUSH1 0x0 DUP4 ADD MSTORE PUSH2 0x2E15 DUP2 PUSH2 0x2DD9 JUMP JUMPDEST SWAP1 POP SWAP2 SWAP1 POP JUMP JUMPDEST PUSH32 0x496E76616C6964204D6F64650000000000000000000000000000000000000000 PUSH1 0x0 DUP3 ADD MSTORE POP JUMP JUMPDEST PUSH1 0x0 PUSH2 0x2E52 PUSH1 0xC DUP4 PUSH2 0x29E0 JUMP JUMPDEST SWAP2 POP PUSH2 0x2E5D DUP3 PUSH2 0x2E1C JUMP JUMPDEST PUSH1 0x20 DUP3 ADD SWAP1 POP SWAP2 SWAP1 POP JUMP JUMPDEST PUSH1 0x0 PUSH1 0x20 DUP3 ADD SWAP1 POP DUP2 DUP2 SUB PUSH1 0x0 DUP4 ADD MSTORE PUSH2 0x2E81 DUP2 PUSH2 0x2E45 JUMP JUMPDEST SWAP1 POP SWAP2 SWAP1 POP JUMP JUMPDEST PUSH32 0x496E76616C6964204C6F636B7570204475726174696F6E000000000000000000 PUSH1 0x0 DUP3 ADD MSTORE POP JUMP JUMPDEST PUSH1 0x0 PUSH2 0x2EBE PUSH1 0x17 DUP4 PUSH2 0x29E0 JUMP JUMPDEST SWAP2 POP PUSH2 0x2EC9 DUP3 PUSH2 0x2E88 JUMP JUMPDEST PUSH1 0x20 DUP3 ADD SWAP1 POP SWAP2 SWAP1 POP JUMP JUMPDEST PUSH1 0x0 PUSH1 0x20 DUP3 ADD SWAP1 POP DUP2 DUP2 SUB PUSH1 0x0 DUP4 ADD MSTORE PUSH2 0x2EED DUP2 PUSH2 0x2EB1 JUMP JUMPDEST SWAP1 POP SWAP2 SWAP1 POP JUMP JUMPDEST PUSH32 0x4E487B7100000000000000000000000000000000000000000000000000000000 PUSH1 0x0 MSTORE PUSH1 0x11 PUSH1 0x4 MSTORE PUSH1 0x24 PUSH1 0x0 REVERT JUMPDEST PUSH1 0x0 PUSH2 0x2F2E DUP3 PUSH2 0x27DF JUMP JUMPDEST SWAP2 POP PUSH2 0x2F39 DUP4 PUSH2 0x27DF JUMP JUMPDEST SWAP3 POP DUP3 PUSH32 0xFFFFFFFFFFFFFFFFFFFFFFFFFFFFFFFFFFFFFFFFFFFFFFFFFFFFFFFFFFFFFFFF SUB DUP3 GT ISZERO PUSH2 0x2F6E JUMPI PUSH2 0x2F6D PUSH2 0x2EF4 JUMP JUMPDEST JUMPDEST DUP3 DUP3 ADD SWAP1 POP SWAP3 SWAP2 POP POP JUMP JUMPDEST PUSH32 0x496E76616C696420556E7374616B696E67204665652052617465000000000000 PUSH1 0x0 DUP3 ADD MSTORE POP JUMP JUMPDEST PUSH1 0x0 PUSH2 0x2FAF PUSH1 0x1A DUP4 PUSH2 0x29E0 JUMP JUMPDEST SWAP2 POP PUSH2 0x2FBA DUP3 PUSH2 0x2F79 JUMP JUMPDEST PUSH1 0x20 DUP3 ADD SWAP1 POP SWAP2 SWAP1 POP JUMP JUMPDEST PUSH1 0x0 PUSH1 0x20 DUP3 ADD SWAP1 POP DUP2 DUP2 SUB PUSH1 0x0 DUP4 ADD MSTORE PUSH2 0x2FDE DUP2 PUSH2 0x2FA2 JUMP JUMPDEST SWAP1 POP SWAP2 SWAP1 POP JUMP JUMPDEST PUSH32 0x496E76616C69642076616C756500000000000000000000000000000000000000 PUSH1 0x0 DUP3 ADD MSTORE POP JUMP JUMPDEST PUSH1 0x0 PUSH2 0x301B PUSH1 0xD DUP4 PUSH2 0x29E0 JUMP JUMPDEST SWAP2 POP PUSH2 0x3026 DUP3 PUSH2 0x2FE5 JUMP JUMPDEST PUSH1 0x20 DUP3 ADD SWAP1 POP SWAP2 SWAP1 POP JUMP JUMPDEST PUSH1 0x0 PUSH1 0x20 DUP3 ADD SWAP1 POP DUP2 DUP2 SUB PUSH1 0x0 DUP4 ADD MSTORE PUSH2 0x304A DUP2 PUSH2 0x300E JUMP JUMPDEST SWAP1 POP SWAP2 SWAP1 POP JUMP JUMPDEST PUSH32 0x4572726F723A20696E76616C6964207374616B65720000000000000000000000 PUSH1 0x0 DUP3 ADD MSTORE POP JUMP JUMPDEST PUSH1 0x0 PUSH2 0x3087 PUSH1 0x15 DUP4 PUSH2 0x29E0 JUMP JUMPDEST SWAP2 POP PUSH2 0x3092 DUP3 PUSH2 0x3051 JUMP JUMPDEST PUSH1 0x20 DUP3 ADD SWAP1 POP SWAP2 SWAP1 POP JUMP JUMPDEST PUSH1 0x0 PUSH1 0x20 DUP3 ADD SWAP1 POP DUP2 DUP2 SUB PUSH1 0x0 DUP4 ADD MSTORE PUSH2 0x30B6 DUP2 PUSH2 0x307A JUMP JUMPDEST SWAP1 POP SWAP2 SWAP1 POP JUMP JUMPDEST PUSH32 0x4E6F74207374616B657220796574000000000000000000000000000000000000 PUSH1 0x0 DUP3 ADD MSTORE POP JUMP JUMPDEST PUSH1 0x0 PUSH2 0x30F3 PUSH1 0xE DUP4 PUSH2 0x29E0 JUMP JUMPDEST SWAP2 POP PUSH2 0x30FE DUP3 PUSH2 0x30BD JUMP JUMPDEST PUSH1 0x20 DUP3 ADD SWAP1 POP SWAP2 SWAP1 POP JUMP JUMPDEST PUSH1 0x0 PUSH1 0x20 DUP3 ADD SWAP1 POP DUP2 DUP2 SUB PUSH1 0x0 DUP4 ADD MSTORE PUSH2 0x3122 DUP2 PUSH2 0x30E6 JUMP JUMPDEST SWAP1 POP SWAP2 SWAP1 POP JUMP JUMPDEST PUSH32 0x4F776E61626C653A206E6577206F776E657220697320746865207A65726F2061 PUSH1 0x0 DUP3 ADD MSTORE PUSH32 0x6464726573730000000000000000000000000000000000000000000000000000 PUSH1 0x20 DUP3 ADD MSTORE POP JUMP JUMPDEST PUSH1 0x0 PUSH2 0x3185 PUSH1 0x26 DUP4 PUSH2 0x29E0 JUMP JUMPDEST SWAP2 POP PUSH2 0x3190 DUP3 PUSH2 0x3129 JUMP JUMPDEST PUSH1 0x40 DUP3 ADD SWAP1 POP SWAP2 SWAP1 POP JUMP JUMPDEST PUSH1 0x0 PUSH1 0x20 DUP3 ADD SWAP1 POP DUP2 DUP2 SUB PUSH1 0x0 DUP4 ADD MSTORE PUSH2 0x31B4 DUP2 PUSH2 0x3178 JUMP JUMPDEST SWAP1 POP SWAP2 SWAP1 POP JUMP JUMPDEST PUSH1 0x0 PUSH2 0x31C6 DUP3 PUSH2 0x27DF JUMP JUMPDEST SWAP2 POP PUSH2 0x31D1 DUP4 PUSH2 0x27DF JUMP JUMPDEST SWAP3 POP DUP3 DUP3 LT ISZERO PUSH2 0x31E4 JUMPI PUSH2 0x31E3 PUSH2 0x2EF4 JUMP JUMPDEST JUMPDEST DUP3 DUP3 SUB SWAP1 POP SWAP3 SWAP2 POP POP JUMP JUMPDEST PUSH1 0x0 PUSH2 0x31FA DUP3 PUSH2 0x27DF JUMP JUMPDEST SWAP2 POP PUSH2 0x3205 DUP4 PUSH2 0x27DF JUMP JUMPDEST SWAP3 POP DUP3 PUSH2 0x3215 JUMPI PUSH2 0x3214 PUSH2 0x2BA1 JUMP JUMPDEST JUMPDEST DUP3 DUP3 DIV SWAP1 POP SWAP3 SWAP2 POP POP JUMP JUMPDEST PUSH1 0x0 PUSH2 0x322B DUP3 PUSH2 0x27DF JUMP JUMPDEST SWAP2 POP PUSH2 0x3236 DUP4 PUSH2 0x27DF JUMP JUMPDEST SWAP3 POP DUP2 PUSH32 0xFFFFFFFFFFFFFFFFFFFFFFFFFFFFFFFFFFFFFFFFFFFFFFFFFFFFFFFFFFFFFFFF DIV DUP4 GT DUP3 ISZERO ISZERO AND ISZERO PUSH2 0x326F JUMPI PUSH2 0x326E PUSH2 0x2EF4 JUMP JUMPDEST JUMPDEST DUP3 DUP3 MUL SWAP1 POP SWAP3 SWAP2 POP POP JUMP JUMPDEST PUSH1 0x0 PUSH1 0x60 DUP3 ADD SWAP1 POP PUSH2 0x328F PUSH1 0x0 DUP4 ADD DUP7 PUSH2 0x293C JUMP JUMPDEST PUSH2 0x329C PUSH1 0x20 DUP4 ADD DUP6 PUSH2 0x293C JUMP JUMPDEST PUSH2 0x32A9 PUSH1 0x40 DUP4 ADD DUP5 PUSH2 0x27E9 JUMP JUMPDEST SWAP5 SWAP4 POP POP POP POP JUMP JUMPDEST PUSH1 0x0 DUP2 ISZERO ISZERO SWAP1 POP SWAP2 SWAP1 POP JUMP JUMPDEST PUSH2 0x32C6 DUP2 PUSH2 0x32B1 JUMP JUMPDEST DUP2 EQ PUSH2 0x32D1 JUMPI PUSH1 0x0 DUP1 REVERT JUMPDEST POP JUMP JUMPDEST PUSH1 0x0 DUP2 MLOAD SWAP1 POP PUSH2 0x32E3 DUP2 PUSH2 0x32BD JUMP JUMPDEST SWAP3 SWAP2 POP POP JUMP JUMPDEST PUSH1 0x0 PUSH1 0x20 DUP3 DUP5 SUB SLT ISZERO PUSH2 0x32FF JUMPI PUSH2 0x32FE PUSH2 0x2813 JUMP JUMPDEST JUMPDEST PUSH1 0x0 PUSH2 0x330D DUP5 DUP3 DUP6 ADD PUSH2 0x32D4 JUMP JUMPDEST SWAP2 POP POP SWAP3 SWAP2 POP POP JUMP JUMPDEST PUSH32 0x5361666542455032303A204245503230206F7065726174696F6E20646964206E PUSH1 0x0 DUP3 ADD MSTORE PUSH32 0x6F74207375636365656400000000000000000000000000000000000000000000 PUSH1 0x20 DUP3 ADD MSTORE POP JUMP JUMPDEST PUSH1 0x0 PUSH2 0x3372 PUSH1 0x2A DUP4 PUSH2 0x29E0 JUMP JUMPDEST SWAP2 POP PUSH2 0x337D DUP3 PUSH2 0x3316 JUMP JUMPDEST PUSH1 0x40 DUP3 ADD SWAP1 POP SWAP2 SWAP1 POP JUMP JUMPDEST PUSH1 0x0 PUSH1 0x20 DUP3 ADD SWAP1 POP DUP2 DUP2 SUB PUSH1 0x0 DUP4 ADD MSTORE PUSH2 0x33A1 DUP2 PUSH2 0x3365 JUMP JUMPDEST SWAP1 POP SWAP2 SWAP1 POP JUMP JUMPDEST PUSH32 0x416464726573733A20696E73756666696369656E742062616C616E636520666F PUSH1 0x0 DUP3 ADD MSTORE PUSH32 0x722063616C6C0000000000000000000000000000000000000000000000000000 PUSH1 0x20 DUP3 ADD MSTORE POP JUMP JUMPDEST PUSH1 0x0 PUSH2 0x3404 PUSH1 0x26 DUP4 PUSH2 0x29E0 JUMP JUMPDEST SWAP2 POP PUSH2 0x340F DUP3 PUSH2 0x33A8 JUMP JUMPDEST PUSH1 0x40 DUP3 ADD SWAP1 POP SWAP2 SWAP1 POP JUMP JUMPDEST PUSH1 0x0 PUSH1 0x20 DUP3 ADD SWAP1 POP DUP2 DUP2 SUB PUSH1 0x0 DUP4 ADD MSTORE PUSH2 0x3433 DUP2 PUSH2 0x33F7 JUMP JUMPDEST SWAP1 POP SWAP2 SWAP1 POP JUMP JUMPDEST PUSH32 0x416464726573733A2063616C6C20746F206E6F6E2D636F6E7472616374000000 PUSH1 0x0 DUP3 ADD MSTORE POP JUMP JUMPDEST PUSH1 0x0 PUSH2 0x3470 PUSH1 0x1D DUP4 PUSH2 0x29E0 JUMP JUMPDEST SWAP2 POP PUSH2 0x347B DUP3 PUSH2 0x343A JUMP JUMPDEST PUSH1 0x20 DUP3 ADD SWAP1 POP SWAP2 SWAP1 POP JUMP JUMPDEST PUSH1 0x0 PUSH1 0x20 DUP3 ADD SWAP1 POP DUP2 DUP2 SUB PUSH1 0x0 DUP4 ADD MSTORE PUSH2 0x349F DUP2 PUSH2 0x3463 JUMP JUMPDEST SWAP1 POP SWAP2 SWAP1 POP JUMP JUMPDEST PUSH1 0x0 DUP2 MLOAD SWAP1 POP SWAP2 SWAP1 POP JUMP JUMPDEST PUSH1 0x0 DUP2 SWAP1 POP SWAP3 SWAP2 POP POP JUMP JUMPDEST PUSH1 0x0 JUMPDEST DUP4 DUP2 LT ISZERO PUSH2 0x34DA JUMPI DUP1 DUP3 ADD MLOAD DUP2 DUP5 ADD MSTORE PUSH1 0x20 DUP2 ADD SWAP1 POP PUSH2 0x34BF JUMP JUMPDEST DUP4 DUP2 GT ISZERO PUSH2 0x34E9 JUMPI PUSH1 0x0 DUP5 DUP5 ADD MSTORE JUMPDEST POP POP POP POP JUMP JUMPDEST PUSH1 0x0 PUSH2 0x34FA DUP3 PUSH2 0x34A6 JUMP JUMPDEST PUSH2 0x3504 DUP2 DUP6 PUSH2 0x34B1 JUMP JUMPDEST SWAP4 POP PUSH2 0x3514 DUP2 DUP6 PUSH1 0x20 DUP7 ADD PUSH2 0x34BC JUMP JUMPDEST DUP1 DUP5 ADD SWAP2 POP POP SWAP3 SWAP2 POP POP JUMP JUMPDEST PUSH1 0x0 PUSH2 0x352C DUP3 DUP5 PUSH2 0x34EF JUMP JUMPDEST SWAP2 POP DUP2 SWAP1 POP SWAP3 SWAP2 POP POP JUMP JUMPDEST PUSH1 0x0 DUP2 MLOAD SWAP1 POP SWAP2 SWAP1 POP JUMP JUMPDEST PUSH1 0x0 PUSH1 0x1F NOT PUSH1 0x1F DUP4 ADD AND SWAP1 POP SWAP2 SWAP1 POP JUMP JUMPDEST PUSH1 0x0 PUSH2 0x355E DUP3 PUSH2 0x3537 JUMP JUMPDEST PUSH2 0x3568 DUP2 DUP6 PUSH2 0x29E0 JUMP JUMPDEST SWAP4 POP PUSH2 0x3578 DUP2 DUP6 PUSH1 0x20 DUP7 ADD PUSH2 0x34BC JUMP JUMPDEST PUSH2 0x3581 DUP2 PUSH2 0x3542 JUMP JUMPDEST DUP5 ADD SWAP2 POP POP SWAP3 SWAP2 POP POP JUMP JUMPDEST PUSH1 0x0 PUSH1 0x20 DUP3 ADD SWAP1 POP DUP2 DUP2 SUB PUSH1 0x0 DUP4 ADD MSTORE PUSH2 0x35A6 DUP2 DUP5 PUSH2 0x3553 JUMP JUMPDEST SWAP1 POP SWAP3 SWAP2 POP POP JUMP INVALID LOG2 PUSH5 0x6970667358 0x22 SLT KECCAK256 PUSH6 0x973E8B3407E2 0x21 0xC5 GASLIMIT STATICCALL SWAP7 ADDRESS PUSH32 0xD8580B7C9883990A872431B2C0D99B98D6FC64736F6C63430008090033000000 "
				},
				"gasEstimates": {
					"creation": {
						"codeDepositCost": "2759200",
						"executionCost": "infinite",
						"totalCost": "infinite"
					},
					"external": {
						"eventPeriod()": "2506",
						"getMinimumStakingAmount(uint256)": "infinite",
						"getNumberofStakers()": "2535",
						"getRewardRate()": "2548",
						"getStakerMode(address)": "5154",
						"getTotalStaked()": "2484",
						"harvest()": "infinite",
						"isLocked(address)": "infinite",
						"isStartStaking(address)": "2957",
						"lockupPeriod(uint256)": "infinite",
						"owner()": "2590",
						"renounceOwnership()": "30463",
						"rewardToHarvest(address)": "infinite",
						"setCopperMinAmount(uint256)": "24850",
						"setEventPeriod(uint256)": "infinite",
						"setGoldMinAmount(uint256)": "24894",
						"setLockupTime(uint256)": "24829",
						"setRewardRate(uint256)": "infinite",
						"setSilverMinAmount(uint256)": "24829",
						"setThreeMonthMinAmount(uint256)": "24872",
						"setUnstakingFeeRate(uint256)": "infinite",
						"stake(uint256)": "infinite",
						"stakedAmount(address)": "2913",
						"startStaking(uint256,uint256)": "infinite",
						"token()": "infinite",
						"totalStaked()": "2475",
						"transferOwnership(address)": "30767",
						"unstakingFeeLate()": "2528",
						"withdraw(uint256)": "infinite"
					},
					"internal": {
						"Init()": "infinite",
						"updateReward()": "infinite"
					}
				},
				"methodIdentifiers": {
					"eventPeriod()": "18b2367e",
					"getMinimumStakingAmount(uint256)": "909f093e",
					"getNumberofStakers()": "5715ec11",
					"getRewardRate()": "7e1a3786",
					"getStakerMode(address)": "aedf562b",
					"getTotalStaked()": "0917e776",
					"harvest()": "4641257d",
					"isLocked(address)": "4a4fbeec",
					"isStartStaking(address)": "fe600f84",
					"lockupPeriod(uint256)": "ce34751f",
					"owner()": "8da5cb5b",
					"renounceOwnership()": "715018a6",
					"rewardToHarvest(address)": "6ef32435",
					"setCopperMinAmount(uint256)": "c1704a14",
					"setEventPeriod(uint256)": "692642e7",
					"setGoldMinAmount(uint256)": "ae544943",
					"setLockupTime(uint256)": "4b62b70b",
					"setRewardRate(uint256)": "9e447fc6",
					"setSilverMinAmount(uint256)": "23b61117",
					"setThreeMonthMinAmount(uint256)": "c665d80e",
					"setUnstakingFeeRate(uint256)": "91e07e7a",
					"stake(uint256)": "a694fc3a",
					"stakedAmount(address)": "f9931855",
					"startStaking(uint256,uint256)": "4b77dd9e",
					"token()": "fc0c546a",
					"totalStaked()": "817b1cd2",
					"transferOwnership(address)": "f2fde38b",
					"unstakingFeeLate()": "221dfe03",
					"withdraw(uint256)": "2e1a7d4d"
				}
			},
			"storageLayout": {
				"storage": [
					{
						"astId": 7,
						"contract": "contracts/Staking.sol:StakingPlatform",
						"label": "_owner",
						"offset": 0,
						"slot": "0",
						"type": "t_address"
					},
					{
						"astId": 1160,
						"contract": "contracts/Staking.sol:StakingPlatform",
						"label": "_unstakingFeeRate",
						"offset": 0,
						"slot": "1",
						"type": "t_uint256"
					},
					{
						"astId": 1162,
						"contract": "contracts/Staking.sol:StakingPlatform",
						"label": "_eventPeriod",
						"offset": 0,
						"slot": "2",
						"type": "t_uint256"
					},
					{
						"astId": 1164,
						"contract": "contracts/Staking.sol:StakingPlatform",
						"label": "_rewardRate",
						"offset": 0,
						"slot": "3",
						"type": "t_uint256"
					},
					{
						"astId": 1166,
						"contract": "contracts/Staking.sol:StakingPlatform",
						"label": "_rewardFeeRate",
						"offset": 0,
						"slot": "4",
						"type": "t_uint256"
					},
					{
						"astId": 1168,
						"contract": "contracts/Staking.sol:StakingPlatform",
						"label": "_lockupPeriod",
						"offset": 0,
						"slot": "5",
						"type": "t_uint256"
					},
					{
						"astId": 1170,
						"contract": "contracts/Staking.sol:StakingPlatform",
						"label": "_minStakeAmount_m",
						"offset": 0,
						"slot": "6",
						"type": "t_uint256"
					},
					{
						"astId": 1172,
						"contract": "contracts/Staking.sol:StakingPlatform",
						"label": "_minStakeAmount_g",
						"offset": 0,
						"slot": "7",
						"type": "t_uint256"
					},
					{
						"astId": 1174,
						"contract": "contracts/Staking.sol:StakingPlatform",
						"label": "_minStakeAmount_s",
						"offset": 0,
						"slot": "8",
						"type": "t_uint256"
					},
					{
						"astId": 1176,
						"contract": "contracts/Staking.sol:StakingPlatform",
						"label": "_minStakeAmount_c",
						"offset": 0,
						"slot": "9",
						"type": "t_uint256"
					},
					{
						"astId": 1179,
						"contract": "contracts/Staking.sol:StakingPlatform",
						"label": "_stakers",
						"offset": 0,
						"slot": "10",
						"type": "t_array(t_address)dyn_storage"
					},
					{
						"astId": 1184,
						"contract": "contracts/Staking.sol:StakingPlatform",
						"label": "_staker",
						"offset": 0,
						"slot": "11",
						"type": "t_mapping(t_address,t_struct(Staker)1158_storage)"
					},
					{
						"astId": 1186,
						"contract": "contracts/Staking.sol:StakingPlatform",
						"label": "totalStaked",
						"offset": 0,
						"slot": "12",
						"type": "t_uint256"
					},
					{
						"astId": 1189,
						"contract": "contracts/Staking.sol:StakingPlatform",
						"label": "token",
						"offset": 0,
						"slot": "13",
						"type": "t_contract(IBEP20)912"
					}
				],
				"types": {
					"t_address": {
						"encoding": "inplace",
						"label": "address",
						"numberOfBytes": "20"
					},
					"t_array(t_address)dyn_storage": {
						"base": "t_address",
						"encoding": "dynamic_array",
						"label": "address[]",
						"numberOfBytes": "32"
					},
					"t_contract(IBEP20)912": {
						"encoding": "inplace",
						"label": "contract IBEP20",
						"numberOfBytes": "20"
					},
					"t_mapping(t_address,t_struct(Staker)1158_storage)": {
						"encoding": "mapping",
						"key": "t_address",
						"label": "mapping(address => struct StakingPlatform.Staker)",
						"numberOfBytes": "32",
						"value": "t_struct(Staker)1158_storage"
					},
					"t_struct(Staker)1158_storage": {
						"encoding": "inplace",
						"label": "struct StakingPlatform.Staker",
						"members": [
							{
								"astId": 1147,
								"contract": "contracts/Staking.sol:StakingPlatform",
								"label": "stakerCurrentReward",
								"offset": 0,
								"slot": "0",
								"type": "t_uint256"
							},
							{
								"astId": 1149,
								"contract": "contracts/Staking.sol:StakingPlatform",
								"label": "stakedAmount",
								"offset": 0,
								"slot": "1",
								"type": "t_uint256"
							},
							{
								"astId": 1151,
								"contract": "contracts/Staking.sol:StakingPlatform",
								"label": "mode",
								"offset": 0,
								"slot": "2",
								"type": "t_uint256"
							},
							{
								"astId": 1153,
								"contract": "contracts/Staking.sol:StakingPlatform",
								"label": "stakeStartTime",
								"offset": 0,
								"slot": "3",
								"type": "t_uint256"
							},
							{
								"astId": 1155,
								"contract": "contracts/Staking.sol:StakingPlatform",
								"label": "lastUpdatedTime",
								"offset": 0,
								"slot": "4",
								"type": "t_uint256"
							},
							{
								"astId": 1157,
								"contract": "contracts/Staking.sol:StakingPlatform",
								"label": "staked",
								"offset": 0,
								"slot": "5",
								"type": "t_uint256"
							}
						],
						"numberOfBytes": "192"
					},
					"t_uint256": {
						"encoding": "inplace",
						"label": "uint256",
						"numberOfBytes": "32"
					}
				}
			},
			"userdoc": {
				"kind": "user",
				"methods": {},
				"version": 1
			}
		}
	}
}