{
	"contracts/Staking.sol": {
		"StakingPlatform": {
			"abi": [
				{
					"inputs": [
						{
							"internalType": "address",
							"name": "_token",
							"type": "address"
						}
					],
					"stateMutability": "nonpayable",
					"type": "constructor"
				},
				{
					"anonymous": false,
					"inputs": [
						{
							"indexed": false,
							"internalType": "address",
							"name": "staker",
							"type": "address"
						},
						{
							"indexed": false,
							"internalType": "uint256",
							"name": "rewardToClaim",
							"type": "uint256"
						}
					],
					"name": "Harvest",
					"type": "event"
				},
				{
					"anonymous": false,
					"inputs": [
						{
							"indexed": true,
							"internalType": "address",
							"name": "previousOwner",
							"type": "address"
						},
						{
							"indexed": true,
							"internalType": "address",
							"name": "newOwner",
							"type": "address"
						}
					],
					"name": "OwnershipTransferred",
					"type": "event"
				},
				{
					"anonymous": false,
					"inputs": [
						{
							"indexed": false,
							"internalType": "uint256",
							"name": "lockupDuration",
							"type": "uint256"
						}
					],
					"name": "SetEventPeriod",
					"type": "event"
				},
				{
					"anonymous": false,
					"inputs": [
						{
							"indexed": false,
							"internalType": "uint256",
							"name": "rewardRate",
							"type": "uint256"
						}
					],
					"name": "SetRewardRate",
					"type": "event"
				},
				{
					"anonymous": false,
					"inputs": [
						{
							"indexed": false,
							"internalType": "uint256",
							"name": "unstakingFeeRate",
							"type": "uint256"
						}
					],
					"name": "SetUnstakingFeeRate",
					"type": "event"
				},
				{
					"anonymous": false,
					"inputs": [
						{
							"indexed": false,
							"internalType": "address",
							"name": "staker",
							"type": "address"
						},
						{
							"indexed": false,
							"internalType": "uint256",
							"name": "amount",
							"type": "uint256"
						}
					],
					"name": "Staked",
					"type": "event"
				},
				{
					"anonymous": false,
					"inputs": [
						{
							"indexed": false,
							"internalType": "address",
							"name": "staker",
							"type": "address"
						},
						{
							"indexed": false,
							"internalType": "uint256",
							"name": "amount",
							"type": "uint256"
						}
					],
					"name": "Withdraw",
					"type": "event"
				},
				{
					"inputs": [],
					"name": "getNumberofStakers",
					"outputs": [
						{
							"internalType": "uint256",
							"name": "",
							"type": "uint256"
						}
					],
					"stateMutability": "view",
					"type": "function"
				},
				{
					"inputs": [],
					"name": "getRewardRate",
					"outputs": [
						{
							"internalType": "uint256",
							"name": "",
							"type": "uint256"
						}
					],
					"stateMutability": "view",
					"type": "function"
				},
				{
					"inputs": [],
					"name": "getStakerMode",
					"outputs": [
						{
							"internalType": "uint256",
							"name": "",
							"type": "uint256"
						}
					],
					"stateMutability": "view",
					"type": "function"
				},
				{
					"inputs": [],
					"name": "getTotalStaked",
					"outputs": [
						{
							"internalType": "uint256",
							"name": "",
							"type": "uint256"
						}
					],
					"stateMutability": "view",
					"type": "function"
				},
				{
					"inputs": [],
					"name": "harvest",
					"outputs": [],
					"stateMutability": "nonpayable",
					"type": "function"
				},
				{
					"inputs": [],
					"name": "isLocked",
					"outputs": [
						{
							"internalType": "uint256",
							"name": "",
							"type": "uint256"
						}
					],
					"stateMutability": "view",
					"type": "function"
				},
				{
					"inputs": [],
					"name": "isStartStaking",
					"outputs": [
						{
							"internalType": "uint256",
							"name": "",
							"type": "uint256"
						}
					],
					"stateMutability": "view",
					"type": "function"
				},
				{
					"inputs": [],
					"name": "owner",
					"outputs": [
						{
							"internalType": "address",
							"name": "",
							"type": "address"
						}
					],
					"stateMutability": "view",
					"type": "function"
				},
				{
					"inputs": [],
					"name": "renounceOwnership",
					"outputs": [],
					"stateMutability": "nonpayable",
					"type": "function"
				},
				{
					"inputs": [],
					"name": "rewardAmount",
					"outputs": [
						{
							"internalType": "uint256",
							"name": "",
							"type": "uint256"
						}
					],
					"stateMutability": "view",
					"type": "function"
				},
				{
					"inputs": [],
					"name": "rewardToHarvest",
					"outputs": [
						{
							"internalType": "uint256",
							"name": "",
							"type": "uint256"
						}
					],
					"stateMutability": "view",
					"type": "function"
				},
				{
					"inputs": [
						{
							"internalType": "uint256",
							"name": "__eventPeriod",
							"type": "uint256"
						}
					],
					"name": "setEventPeriod",
					"outputs": [],
					"stateMutability": "nonpayable",
					"type": "function"
				},
				{
					"inputs": [
						{
							"internalType": "uint256",
							"name": "lockupTime",
							"type": "uint256"
						}
					],
					"name": "setLockupTime",
					"outputs": [],
					"stateMutability": "nonpayable",
					"type": "function"
				},
				{
					"inputs": [
						{
							"internalType": "uint256",
							"name": "__rewardRate",
							"type": "uint256"
						}
					],
					"name": "setRewardRate",
					"outputs": [],
					"stateMutability": "nonpayable",
					"type": "function"
				},
				{
					"inputs": [
						{
							"internalType": "uint256",
							"name": "__unstakingFeeRate",
							"type": "uint256"
						}
					],
					"name": "setUnstakingFeeRate",
					"outputs": [],
					"stateMutability": "nonpayable",
					"type": "function"
				},
				{
					"inputs": [
						{
							"internalType": "uint256",
							"name": "_amount",
							"type": "uint256"
						}
					],
					"name": "stake",
					"outputs": [],
					"stateMutability": "nonpayable",
					"type": "function"
				},
				{
					"inputs": [
						{
							"internalType": "address",
							"name": "_address",
							"type": "address"
						}
					],
					"name": "stakedAmount",
					"outputs": [
						{
							"internalType": "uint256",
							"name": "",
							"type": "uint256"
						}
					],
					"stateMutability": "view",
					"type": "function"
				},
				{
					"inputs": [
						{
							"internalType": "uint256",
							"name": "_amount",
							"type": "uint256"
						},
						{
							"internalType": "uint256",
							"name": "_mode",
							"type": "uint256"
						}
					],
					"name": "startStaking",
					"outputs": [],
					"stateMutability": "nonpayable",
					"type": "function"
				},
				{
					"inputs": [],
					"name": "token",
					"outputs": [
						{
							"internalType": "contract IBEP20",
							"name": "",
							"type": "address"
						}
					],
					"stateMutability": "view",
					"type": "function"
				},
				{
					"inputs": [],
					"name": "totalStaked",
					"outputs": [
						{
							"internalType": "uint256",
							"name": "",
							"type": "uint256"
						}
					],
					"stateMutability": "view",
					"type": "function"
				},
				{
					"inputs": [
						{
							"internalType": "address",
							"name": "newOwner",
							"type": "address"
						}
					],
					"name": "transferOwnership",
					"outputs": [],
					"stateMutability": "nonpayable",
					"type": "function"
				},
				{
					"inputs": [
						{
							"internalType": "uint256",
							"name": "amount",
							"type": "uint256"
						}
					],
					"name": "withdraw",
					"outputs": [],
					"stateMutability": "nonpayable",
					"type": "function"
				}
			],
			"devdoc": {
				"kind": "dev",
				"methods": {
					"owner()": {
						"details": "Returns the address of the current owner."
					},
					"renounceOwnership()": {
						"details": "Leaves the contract without owner. It will not be possible to call `onlyOwner` functions anymore. Can only be called by the current owner. NOTE: Renouncing ownership will leave the contract without an owner, thereby removing any functionality that is only available to the owner."
					},
					"transferOwnership(address)": {
						"details": "Transfers ownership of the contract to a new account (`newOwner`). Can only be called by the current owner."
					}
				},
				"version": 1
			},
			"evm": {
				"assembly": "    /* \"contracts/Staking.sol\":260:7792  contract StakingPlatform is Ownable {\r... */\n  mstore(0x40, 0x80)\n    /* \"contracts/Staking.sol\":1503:1599  constructor(address _token) {\r... */\n  callvalue\n  dup1\n  iszero\n  tag_1\n  jumpi\n  0x00\n  dup1\n  revert\ntag_1:\n  pop\n  mload(0x40)\n  sub(codesize, bytecodeSize)\n  dup1\n  bytecodeSize\n  dup4\n  codecopy\n  dup2\n  dup2\n  add\n  0x40\n  mstore\n  dup2\n  add\n  swap1\n  tag_2\n  swap2\n  swap1\n  tag_3\n  jump\t// in\ntag_2:\n    /* \"@openzeppelin/contracts/access/Ownable.sol\":921:953  _transferOwnership(_msgSender()) */\n  tag_7\n    /* \"@openzeppelin/contracts/access/Ownable.sol\":940:952  _msgSender() */\n  tag_8\n    /* \"@openzeppelin/contracts/access/Ownable.sol\":940:950  _msgSender */\n  shl(0x20, tag_9)\n    /* \"@openzeppelin/contracts/access/Ownable.sol\":940:952  _msgSender() */\n  0x20\n  shr\n  jump\t// in\ntag_8:\n    /* \"@openzeppelin/contracts/access/Ownable.sol\":921:939  _transferOwnership */\n  shl(0x20, tag_10)\n    /* \"@openzeppelin/contracts/access/Ownable.sol\":921:953  _transferOwnership(_msgSender()) */\n  0x20\n  shr\n  jump\t// in\ntag_7:\n    /* \"contracts/Staking.sol\":1552:1558  Init() */\n  tag_12\n    /* \"contracts/Staking.sol\":1552:1556  Init */\n  shl(0x20, tag_13)\n    /* \"contracts/Staking.sol\":1552:1558  Init() */\n  0x20\n  shr\n  jump\t// in\ntag_12:\n    /* \"contracts/Staking.sol\":1584:1590  _token */\n  dup1\n    /* \"contracts/Staking.sol\":1569:1574  token */\n  0x09\n  0x00\n    /* \"contracts/Staking.sol\":1569:1591  token = IBEP20(_token) */\n  0x0100\n  exp\n  dup2\n  sload\n  dup2\n  0xffffffffffffffffffffffffffffffffffffffff\n  mul\n  not\n  and\n  swap1\n  dup4\n  0xffffffffffffffffffffffffffffffffffffffff\n  and\n  mul\n  or\n  swap1\n  sstore\n  pop\n    /* \"contracts/Staking.sol\":1503:1599  constructor(address _token) {\r... */\n  pop\n    /* \"contracts/Staking.sol\":260:7792  contract StakingPlatform is Ownable {\r... */\n  jump(tag_14)\n    /* \"@openzeppelin/contracts/utils/Context.sol\":640:736  function _msgSender() internal view virtual returns (address) {... */\ntag_9:\n    /* \"@openzeppelin/contracts/utils/Context.sol\":693:700  address */\n  0x00\n    /* \"@openzeppelin/contracts/utils/Context.sol\":719:729  msg.sender */\n  caller\n    /* \"@openzeppelin/contracts/utils/Context.sol\":712:729  return msg.sender */\n  swap1\n  pop\n    /* \"@openzeppelin/contracts/utils/Context.sol\":640:736  function _msgSender() internal view virtual returns (address) {... */\n  swap1\n  jump\t// out\n    /* \"@openzeppelin/contracts/access/Ownable.sol\":2270:2457  function _transferOwnership(address newOwner) internal virtual {... */\ntag_10:\n    /* \"@openzeppelin/contracts/access/Ownable.sol\":2343:2359  address oldOwner */\n  0x00\n    /* \"@openzeppelin/contracts/access/Ownable.sol\":2362:2368  _owner */\n  dup1\n  0x00\n  swap1\n  sload\n  swap1\n  0x0100\n  exp\n  swap1\n  div\n  0xffffffffffffffffffffffffffffffffffffffff\n  and\n    /* \"@openzeppelin/contracts/access/Ownable.sol\":2343:2368  address oldOwner = _owner */\n  swap1\n  pop\n    /* \"@openzeppelin/contracts/access/Ownable.sol\":2387:2395  newOwner */\n  dup2\n    /* \"@openzeppelin/contracts/access/Ownable.sol\":2378:2384  _owner */\n  0x00\n  dup1\n    /* \"@openzeppelin/contracts/access/Ownable.sol\":2378:2395  _owner = newOwner */\n  0x0100\n  exp\n  dup2\n  sload\n  dup2\n  0xffffffffffffffffffffffffffffffffffffffff\n  mul\n  not\n  and\n  swap1\n  dup4\n  0xffffffffffffffffffffffffffffffffffffffff\n  and\n  mul\n  or\n  swap1\n  sstore\n  pop\n    /* \"@openzeppelin/contracts/access/Ownable.sol\":2441:2449  newOwner */\n  dup2\n    /* \"@openzeppelin/contracts/access/Ownable.sol\":2410:2450  OwnershipTransferred(oldOwner, newOwner) */\n  0xffffffffffffffffffffffffffffffffffffffff\n  and\n    /* \"@openzeppelin/contracts/access/Ownable.sol\":2431:2439  oldOwner */\n  dup2\n    /* \"@openzeppelin/contracts/access/Ownable.sol\":2410:2450  OwnershipTransferred(oldOwner, newOwner) */\n  0xffffffffffffffffffffffffffffffffffffffff\n  and\n  0x8be0079c531659141344cd1fd0a4f28419497f9722a3daafe3b4186f6b6457e0\n  mload(0x40)\n  mload(0x40)\n  dup1\n  swap2\n  sub\n  swap1\n  log3\n    /* \"@openzeppelin/contracts/access/Ownable.sol\":2333:2457  {... */\n  pop\n    /* \"@openzeppelin/contracts/access/Ownable.sol\":2270:2457  function _transferOwnership(address newOwner) internal virtual {... */\n  pop\n  jump\t// out\n    /* \"contracts/Staking.sol\":1607:1821  function Init() internal {\r... */\ntag_13:\n    /* \"contracts/Staking.sol\":1667:1670  200 */\n  0xc8\n    /* \"contracts/Staking.sol\":1653:1664  _rewardRate */\n  0x03\n    /* \"contracts/Staking.sol\":1653:1670  _rewardRate = 200 */\n  dup2\n  swap1\n  sstore\n  pop\n    /* \"contracts/Staking.sol\":1712:1716  1500 */\n  0x05dc\n    /* \"contracts/Staking.sol\":1692:1709  _unstakingFeeRate */\n  0x01\n    /* \"contracts/Staking.sol\":1692:1716  _unstakingFeeRate = 1500 */\n  dup2\n  swap1\n  sstore\n  pop\n    /* \"contracts/Staking.sol\":1744:1747  100 */\n  0x64\n    /* \"contracts/Staking.sol\":1727:1741  _rewardFeeRate */\n  0x04\n    /* \"contracts/Staking.sol\":1727:1747  _rewardFeeRate = 100 */\n  dup2\n  swap1\n  sstore\n  pop\n    /* \"contracts/Staking.sol\":1773:1779  7 days */\n  0x093a80\n    /* \"contracts/Staking.sol\":1758:1770  _eventPeriod */\n  0x02\n    /* \"contracts/Staking.sol\":1758:1779  _eventPeriod = 7 days */\n  dup2\n  swap1\n  sstore\n  pop\n    /* \"contracts/Staking.sol\":1806:1813  90 days */\n  0x76a700\n    /* \"contracts/Staking.sol\":1790:1803  _lockupPeriod */\n  0x05\n    /* \"contracts/Staking.sol\":1790:1813  _lockupPeriod = 90 days */\n  dup2\n  swap1\n  sstore\n  pop\n    /* \"contracts/Staking.sol\":1607:1821  function Init() internal {\r... */\n  jump\t// out\n    /* \"#utility.yul\":7:150   */\ntag_19:\n    /* \"#utility.yul\":64:69   */\n  0x00\n    /* \"#utility.yul\":95:101   */\n  dup2\n    /* \"#utility.yul\":89:102   */\n  mload\n    /* \"#utility.yul\":80:102   */\n  swap1\n  pop\n    /* \"#utility.yul\":111:144   */\n  tag_21\n    /* \"#utility.yul\":138:143   */\n  dup2\n    /* \"#utility.yul\":111:144   */\n  tag_22\n  jump\t// in\ntag_21:\n    /* \"#utility.yul\":7:150   */\n  swap3\n  swap2\n  pop\n  pop\n  jump\t// out\n    /* \"#utility.yul\":156:507   */\ntag_3:\n    /* \"#utility.yul\":226:232   */\n  0x00\n    /* \"#utility.yul\":275:277   */\n  0x20\n    /* \"#utility.yul\":263:272   */\n  dup3\n    /* \"#utility.yul\":254:261   */\n  dup5\n    /* \"#utility.yul\":250:273   */\n  sub\n    /* \"#utility.yul\":246:278   */\n  slt\n    /* \"#utility.yul\":243:362   */\n  iszero\n  tag_24\n  jumpi\n    /* \"#utility.yul\":281:360   */\n  tag_25\n  tag_26\n  jump\t// in\ntag_25:\n    /* \"#utility.yul\":243:362   */\ntag_24:\n    /* \"#utility.yul\":401:402   */\n  0x00\n    /* \"#utility.yul\":426:490   */\n  tag_27\n    /* \"#utility.yul\":482:489   */\n  dup5\n    /* \"#utility.yul\":473:479   */\n  dup3\n    /* \"#utility.yul\":462:471   */\n  dup6\n    /* \"#utility.yul\":458:480   */\n  add\n    /* \"#utility.yul\":426:490   */\n  tag_19\n  jump\t// in\ntag_27:\n    /* \"#utility.yul\":416:490   */\n  swap2\n  pop\n    /* \"#utility.yul\":372:500   */\n  pop\n    /* \"#utility.yul\":156:507   */\n  swap3\n  swap2\n  pop\n  pop\n  jump\t// out\n    /* \"#utility.yul\":594:690   */\ntag_30:\n    /* \"#utility.yul\":631:638   */\n  0x00\n    /* \"#utility.yul\":660:684   */\n  tag_32\n    /* \"#utility.yul\":678:683   */\n  dup3\n    /* \"#utility.yul\":660:684   */\n  tag_33\n  jump\t// in\ntag_32:\n    /* \"#utility.yul\":649:684   */\n  swap1\n  pop\n    /* \"#utility.yul\":594:690   */\n  swap2\n  swap1\n  pop\n  jump\t// out\n    /* \"#utility.yul\":696:822   */\ntag_33:\n    /* \"#utility.yul\":733:740   */\n  0x00\n    /* \"#utility.yul\":773:815   */\n  0xffffffffffffffffffffffffffffffffffffffff\n    /* \"#utility.yul\":766:771   */\n  dup3\n    /* \"#utility.yul\":762:816   */\n  and\n    /* \"#utility.yul\":751:816   */\n  swap1\n  pop\n    /* \"#utility.yul\":696:822   */\n  swap2\n  swap1\n  pop\n  jump\t// out\n    /* \"#utility.yul\":951:1068   */\ntag_26:\n    /* \"#utility.yul\":1060:1061   */\n  0x00\n    /* \"#utility.yul\":1057:1058   */\n  dup1\n    /* \"#utility.yul\":1050:1062   */\n  revert\n    /* \"#utility.yul\":1074:1196   */\ntag_22:\n    /* \"#utility.yul\":1147:1171   */\n  tag_39\n    /* \"#utility.yul\":1165:1170   */\n  dup2\n    /* \"#utility.yul\":1147:1171   */\n  tag_30\n  jump\t// in\ntag_39:\n    /* \"#utility.yul\":1140:1145   */\n  dup2\n    /* \"#utility.yul\":1137:1172   */\n  eq\n    /* \"#utility.yul\":1127:1190   */\n  tag_40\n  jumpi\n    /* \"#utility.yul\":1186:1187   */\n  0x00\n    /* \"#utility.yul\":1183:1184   */\n  dup1\n    /* \"#utility.yul\":1176:1188   */\n  revert\n    /* \"#utility.yul\":1127:1190   */\ntag_40:\n    /* \"#utility.yul\":1074:1196   */\n  pop\n  jump\t// out\n    /* \"contracts/Staking.sol\":260:7792  contract StakingPlatform is Ownable {\r... */\ntag_14:\n  dataSize(sub_0)\n  dup1\n  dataOffset(sub_0)\n  0x00\n  codecopy\n  0x00\n  return\nstop\n\nsub_0: assembly {\n        /* \"contracts/Staking.sol\":260:7792  contract StakingPlatform is Ownable {\r... */\n      mstore(0x40, 0x80)\n      callvalue\n      dup1\n      iszero\n      tag_1\n      jumpi\n      0x00\n      dup1\n      revert\n    tag_1:\n      pop\n      jumpi(tag_2, lt(calldatasize, 0x04))\n      shr(0xe0, calldataload(0x00))\n      dup1\n      0x817b1cd2\n      gt\n      tag_25\n      jumpi\n      dup1\n      0xa4e2d634\n      gt\n      tag_26\n      jumpi\n      dup1\n      0xa4e2d634\n      eq\n      tag_19\n      jumpi\n      dup1\n      0xa694fc3a\n      eq\n      tag_20\n      jumpi\n      dup1\n      0xf2fde38b\n      eq\n      tag_21\n      jumpi\n      dup1\n      0xf7b2a7be\n      eq\n      tag_22\n      jumpi\n      dup1\n      0xf9931855\n      eq\n      tag_23\n      jumpi\n      dup1\n      0xfc0c546a\n      eq\n      tag_24\n      jumpi\n      jump(tag_2)\n    tag_26:\n      dup1\n      0x817b1cd2\n      eq\n      tag_14\n      jumpi\n      dup1\n      0x86187082\n      eq\n      tag_15\n      jumpi\n      dup1\n      0x8da5cb5b\n      eq\n      tag_16\n      jumpi\n      dup1\n      0x91e07e7a\n      eq\n      tag_17\n      jumpi\n      dup1\n      0x9e447fc6\n      eq\n      tag_18\n      jumpi\n      jump(tag_2)\n    tag_25:\n      dup1\n      0x4b77dd9e\n      gt\n      tag_27\n      jumpi\n      dup1\n      0x4b77dd9e\n      eq\n      tag_8\n      jumpi\n      dup1\n      0x5715ec11\n      eq\n      tag_9\n      jumpi\n      dup1\n      0x5d2ec65d\n      eq\n      tag_10\n      jumpi\n      dup1\n      0x692642e7\n      eq\n      tag_11\n      jumpi\n      dup1\n      0x715018a6\n      eq\n      tag_12\n      jumpi\n      dup1\n      0x7e1a3786\n      eq\n      tag_13\n      jumpi\n      jump(tag_2)\n    tag_27:\n      dup1\n      0x0917e776\n      eq\n      tag_3\n      jumpi\n      dup1\n      0x129488d3\n      eq\n      tag_4\n      jumpi\n      dup1\n      0x2e1a7d4d\n      eq\n      tag_5\n      jumpi\n      dup1\n      0x4641257d\n      eq\n      tag_6\n      jumpi\n      dup1\n      0x4b62b70b\n      eq\n      tag_7\n      jumpi\n    tag_2:\n      0x00\n      dup1\n      revert\n        /* \"contracts/Staking.sol\":3619:3714  function getTotalStaked() public view returns (uint256) {\r... */\n    tag_3:\n      tag_28\n      tag_29\n      jump\t// in\n    tag_28:\n      mload(0x40)\n      tag_30\n      swap2\n      swap1\n      tag_31\n      jump\t// in\n    tag_30:\n      mload(0x40)\n      dup1\n      swap2\n      sub\n      swap1\n      return\n        /* \"contracts/Staking.sol\":3833:3940  function getStakerMode() public view returns (uint256) {\r... */\n    tag_4:\n      tag_32\n      tag_33\n      jump\t// in\n    tag_32:\n      mload(0x40)\n      tag_34\n      swap2\n      swap1\n      tag_31\n      jump\t// in\n    tag_34:\n      mload(0x40)\n      dup1\n      swap2\n      sub\n      swap1\n      return\n        /* \"contracts/Staking.sol\":4819:5995  function withdraw(uint256 amount) external{\r... */\n    tag_5:\n      tag_35\n      0x04\n      dup1\n      calldatasize\n      sub\n      dup2\n      add\n      swap1\n      tag_36\n      swap2\n      swap1\n      tag_37\n      jump\t// in\n    tag_36:\n      tag_38\n      jump\t// in\n    tag_35:\n      stop\n        /* \"contracts/Staking.sol\":7205:7789  function harvest() public{\r... */\n    tag_6:\n      tag_39\n      tag_40\n      jump\t// in\n    tag_39:\n      stop\n        /* \"contracts/Staking.sol\":6780:6942  function setLockupTime(uint256 lockupTime) external onlyOwner {\r... */\n    tag_7:\n      tag_41\n      0x04\n      dup1\n      calldatasize\n      sub\n      dup2\n      add\n      swap1\n      tag_42\n      swap2\n      swap1\n      tag_37\n      jump\t// in\n    tag_42:\n      tag_43\n      jump\t// in\n    tag_41:\n      stop\n        /* \"contracts/Staking.sol\":2428:2943  function startStaking(uint256 _amount, uint256 _mode) external {\r... */\n    tag_8:\n      tag_44\n      0x04\n      dup1\n      calldatasize\n      sub\n      dup2\n      add\n      swap1\n      tag_45\n      swap2\n      swap1\n      tag_46\n      jump\t// in\n    tag_45:\n      tag_47\n      jump\t// in\n    tag_44:\n      stop\n        /* \"contracts/Staking.sol\":3722:3825  function getNumberofStakers() public view returns (uint256) {\r... */\n    tag_9:\n      tag_48\n      tag_49\n      jump\t// in\n    tag_48:\n      mload(0x40)\n      tag_50\n      swap2\n      swap1\n      tag_31\n      jump\t// in\n    tag_50:\n      mload(0x40)\n      dup1\n      swap2\n      sub\n      swap1\n      return\n        /* \"contracts/Staking.sol\":7005:7164  function rewardToHarvest() public view returns (uint256){\r... */\n    tag_10:\n      tag_51\n      tag_52\n      jump\t// in\n    tag_51:\n      mload(0x40)\n      tag_53\n      swap2\n      swap1\n      tag_31\n      jump\t// in\n    tag_53:\n      mload(0x40)\n      dup1\n      swap2\n      sub\n      swap1\n      return\n        /* \"contracts/Staking.sol\":6242:6490  function setEventPeriod(uint256 __eventPeriod) external onlyOwner {\r... */\n    tag_11:\n      tag_54\n      0x04\n      dup1\n      calldatasize\n      sub\n      dup2\n      add\n      swap1\n      tag_55\n      swap2\n      swap1\n      tag_37\n      jump\t// in\n    tag_55:\n      tag_56\n      jump\t// in\n    tag_54:\n      stop\n        /* \"@openzeppelin/contracts/access/Ownable.sol\":1668:1769  function renounceOwnership() public virtual onlyOwner {... */\n    tag_12:\n      tag_57\n      tag_58\n      jump\t// in\n    tag_57:\n      stop\n        /* \"contracts/Staking.sol\":4680:4772  function getRewardRate() public view returns (uint256) {\r... */\n    tag_13:\n      tag_59\n      tag_60\n      jump\t// in\n    tag_59:\n      mload(0x40)\n      tag_61\n      swap2\n      swap1\n      tag_31\n      jump\t// in\n    tag_61:\n      mload(0x40)\n      dup1\n      swap2\n      sub\n      swap1\n      return\n        /* \"contracts/Staking.sol\":1043:1069  uint256 public totalStaked */\n    tag_14:\n      tag_62\n      tag_63\n      jump\t// in\n    tag_62:\n      mload(0x40)\n      tag_64\n      swap2\n      swap1\n      tag_31\n      jump\t// in\n    tag_64:\n      mload(0x40)\n      dup1\n      swap2\n      sub\n      swap1\n      return\n        /* \"contracts/Staking.sol\":3948:4058  function isStartStaking() public view returns (uint256) {\r... */\n    tag_15:\n      tag_65\n      tag_66\n      jump\t// in\n    tag_65:\n      mload(0x40)\n      tag_67\n      swap2\n      swap1\n      tag_31\n      jump\t// in\n    tag_67:\n      mload(0x40)\n      dup1\n      swap2\n      sub\n      swap1\n      return\n        /* \"@openzeppelin/contracts/access/Ownable.sol\":1036:1121  function owner() public view virtual returns (address) {... */\n    tag_16:\n      tag_68\n      tag_69\n      jump\t// in\n    tag_68:\n      mload(0x40)\n      tag_70\n      swap2\n      swap1\n      tag_71\n      jump\t// in\n    tag_70:\n      mload(0x40)\n      dup1\n      swap2\n      sub\n      swap1\n      return\n        /* \"contracts/Staking.sol\":6498:6772  function setUnstakingFeeRate(uint256 __unstakingFeeRate) external onlyOwner {\r... */\n    tag_17:\n      tag_72\n      0x04\n      dup1\n      calldatasize\n      sub\n      dup2\n      add\n      swap1\n      tag_73\n      swap2\n      swap1\n      tag_37\n      jump\t// in\n    tag_73:\n      tag_74\n      jump\t// in\n    tag_72:\n      stop\n        /* \"contracts/Staking.sol\":6007:6234  function setRewardRate(uint256 __rewardRate) external onlyOwner {\r... */\n    tag_18:\n      tag_75\n      0x04\n      dup1\n      calldatasize\n      sub\n      dup2\n      add\n      swap1\n      tag_76\n      swap2\n      swap1\n      tag_37\n      jump\t// in\n    tag_76:\n      tag_77\n      jump\t// in\n    tag_75:\n      stop\n        /* \"contracts/Staking.sol\":4066:4393  function isLocked() public view returns (uint256) {\r... */\n    tag_19:\n      tag_78\n      tag_79\n      jump\t// in\n    tag_78:\n      mload(0x40)\n      tag_80\n      swap2\n      swap1\n      tag_31\n      jump\t// in\n    tag_80:\n      mload(0x40)\n      dup1\n      swap2\n      sub\n      swap1\n      return\n        /* \"contracts/Staking.sol\":3011:3611  function stake(uint256 _amount) public{\r... */\n    tag_20:\n      tag_81\n      0x04\n      dup1\n      calldatasize\n      sub\n      dup2\n      add\n      swap1\n      tag_82\n      swap2\n      swap1\n      tag_37\n      jump\t// in\n    tag_82:\n      tag_83\n      jump\t// in\n    tag_81:\n      stop\n        /* \"@openzeppelin/contracts/access/Ownable.sol\":1918:2116  function transferOwnership(address newOwner) public virtual onlyOwner {... */\n    tag_21:\n      tag_84\n      0x04\n      dup1\n      calldatasize\n      sub\n      dup2\n      add\n      swap1\n      tag_85\n      swap2\n      swap1\n      tag_86\n      jump\t// in\n    tag_85:\n      tag_87\n      jump\t// in\n    tag_84:\n      stop\n        /* \"contracts/Staking.sol\":4553:4672  function rewardAmount() public view returns (uint256) {\r... */\n    tag_22:\n      tag_88\n      tag_89\n      jump\t// in\n    tag_88:\n      mload(0x40)\n      tag_90\n      swap2\n      swap1\n      tag_31\n      jump\t// in\n    tag_90:\n      mload(0x40)\n      dup1\n      swap2\n      sub\n      swap1\n      return\n        /* \"contracts/Staking.sol\":4405:4541  function stakedAmount(address _address) public view returns (uint256) {\r... */\n    tag_23:\n      tag_91\n      0x04\n      dup1\n      calldatasize\n      sub\n      dup2\n      add\n      swap1\n      tag_92\n      swap2\n      swap1\n      tag_86\n      jump\t// in\n    tag_92:\n      tag_93\n      jump\t// in\n    tag_91:\n      mload(0x40)\n      tag_94\n      swap2\n      swap1\n      tag_31\n      jump\t// in\n    tag_94:\n      mload(0x40)\n      dup1\n      swap2\n      sub\n      swap1\n      return\n        /* \"contracts/Staking.sol\":1076:1095  IBEP20 public token */\n    tag_24:\n      tag_95\n      tag_96\n      jump\t// in\n    tag_95:\n      mload(0x40)\n      tag_97\n      swap2\n      swap1\n      tag_98\n      jump\t// in\n    tag_97:\n      mload(0x40)\n      dup1\n      swap2\n      sub\n      swap1\n      return\n        /* \"contracts/Staking.sol\":3619:3714  function getTotalStaked() public view returns (uint256) {\r... */\n    tag_29:\n        /* \"contracts/Staking.sol\":3666:3673  uint256 */\n      0x00\n        /* \"contracts/Staking.sol\":3695:3706  totalStaked */\n      sload(0x08)\n        /* \"contracts/Staking.sol\":3688:3706  return totalStaked */\n      swap1\n      pop\n        /* \"contracts/Staking.sol\":3619:3714  function getTotalStaked() public view returns (uint256) {\r... */\n      swap1\n      jump\t// out\n        /* \"contracts/Staking.sol\":3833:3940  function getStakerMode() public view returns (uint256) {\r... */\n    tag_33:\n        /* \"contracts/Staking.sol\":3879:3886  uint256 */\n      0x00\n        /* \"contracts/Staking.sol\":3908:3915  _staker */\n      0x07\n        /* \"contracts/Staking.sol\":3908:3927  _staker[msg.sender] */\n      0x00\n        /* \"contracts/Staking.sol\":3916:3926  msg.sender */\n      caller\n        /* \"contracts/Staking.sol\":3908:3927  _staker[msg.sender] */\n      0xffffffffffffffffffffffffffffffffffffffff\n      and\n      0xffffffffffffffffffffffffffffffffffffffff\n      and\n      dup2\n      mstore\n      0x20\n      add\n      swap1\n      dup2\n      mstore\n      0x20\n      add\n      0x00\n      keccak256\n        /* \"contracts/Staking.sol\":3908:3932  _staker[msg.sender].mode */\n      0x02\n      add\n      sload\n        /* \"contracts/Staking.sol\":3901:3932  return _staker[msg.sender].mode */\n      swap1\n      pop\n        /* \"contracts/Staking.sol\":3833:3940  function getStakerMode() public view returns (uint256) {\r... */\n      swap1\n      jump\t// out\n        /* \"contracts/Staking.sol\":4819:5995  function withdraw(uint256 amount) external{\r... */\n    tag_38:\n        /* \"contracts/Staking.sol\":4882:4903  Staker storage staker */\n      0x00\n        /* \"contracts/Staking.sol\":4906:4913  _staker */\n      0x07\n        /* \"contracts/Staking.sol\":4906:4925  _staker[msg.sender] */\n      0x00\n        /* \"contracts/Staking.sol\":4914:4924  msg.sender */\n      caller\n        /* \"contracts/Staking.sol\":4906:4925  _staker[msg.sender] */\n      0xffffffffffffffffffffffffffffffffffffffff\n      and\n      0xffffffffffffffffffffffffffffffffffffffff\n      and\n      dup2\n      mstore\n      0x20\n      add\n      swap1\n      dup2\n      mstore\n      0x20\n      add\n      0x00\n      keccak256\n        /* \"contracts/Staking.sol\":4882:4925  Staker storage staker = _staker[msg.sender] */\n      swap1\n      pop\n        /* \"contracts/Staking.sol\":4955:4956  0 */\n      0x00\n        /* \"contracts/Staking.sol\":4946:4952  amount */\n      dup3\n        /* \"contracts/Staking.sol\":4946:4956  amount > 0 */\n      gt\n        /* \"contracts/Staking.sol\":4938:4992  require(amount > 0, \"Amount should be greater than 0\") */\n      tag_102\n      jumpi\n      mload(0x40)\n      0x08c379a000000000000000000000000000000000000000000000000000000000\n      dup2\n      mstore\n      0x04\n      add\n      tag_103\n      swap1\n      tag_104\n      jump\t// in\n    tag_103:\n      mload(0x40)\n      dup1\n      swap2\n      sub\n      swap1\n      revert\n    tag_102:\n        /* \"contracts/Staking.sol\":5021:5027  staker */\n      dup1\n        /* \"contracts/Staking.sol\":5021:5040  staker.stakedAmount */\n      0x01\n      add\n      sload\n        /* \"contracts/Staking.sol\":5011:5017  amount */\n      dup3\n        /* \"contracts/Staking.sol\":5011:5040  amount <= staker.stakedAmount */\n      gt\n      iszero\n        /* \"contracts/Staking.sol\":5003:5059  require(amount <= staker.stakedAmount, \"Invalid amount\") */\n      tag_105\n      jumpi\n      mload(0x40)\n      0x08c379a000000000000000000000000000000000000000000000000000000000\n      dup2\n      mstore\n      0x04\n      add\n      tag_106\n      swap1\n      tag_107\n      jump\t// in\n    tag_106:\n      mload(0x40)\n      dup1\n      swap2\n      sub\n      swap1\n      revert\n    tag_105:\n        /* \"contracts/Staking.sol\":5072:5086  updateReward() */\n      tag_108\n        /* \"contracts/Staking.sol\":5072:5084  updateReward */\n      tag_109\n        /* \"contracts/Staking.sol\":5072:5086  updateReward() */\n      jump\t// in\n    tag_108:\n        /* \"contracts/Staking.sol\":5097:5124  uint256 amountTobeWithdrawn */\n      0x00\n        /* \"contracts/Staking.sol\":5136:5141  token */\n      0x09\n      0x00\n      swap1\n      sload\n      swap1\n      0x0100\n      exp\n      swap1\n      div\n      0xffffffffffffffffffffffffffffffffffffffff\n      and\n        /* \"contracts/Staking.sol\":5136:5151  token.balanceOf */\n      0xffffffffffffffffffffffffffffffffffffffff\n      and\n      0x70a08231\n        /* \"contracts/Staking.sol\":5160:5164  this */\n      address\n        /* \"contracts/Staking.sol\":5136:5166  token.balanceOf(address(this)) */\n      mload(0x40)\n      dup3\n      0xffffffff\n      and\n      0xe0\n      shl\n      dup2\n      mstore\n      0x04\n      add\n      tag_110\n      swap2\n      swap1\n      tag_71\n      jump\t// in\n    tag_110:\n      0x20\n      mload(0x40)\n      dup1\n      dup4\n      sub\n      dup2\n      dup7\n      dup1\n      extcodesize\n      iszero\n      dup1\n      iszero\n      tag_111\n      jumpi\n      0x00\n      dup1\n      revert\n    tag_111:\n      pop\n      gas\n      staticcall\n      iszero\n      dup1\n      iszero\n      tag_113\n      jumpi\n      returndatasize\n      0x00\n      dup1\n      returndatacopy\n      revert(0x00, returndatasize)\n    tag_113:\n      pop\n      pop\n      pop\n      pop\n      mload(0x40)\n      returndatasize\n      not(0x1f)\n      0x1f\n      dup3\n      add\n      and\n      dup3\n      add\n      dup1\n      0x40\n      mstore\n      pop\n      dup2\n      add\n      swap1\n      tag_114\n      swap2\n      swap1\n      tag_115\n      jump\t// in\n    tag_114:\n        /* \"contracts/Staking.sol\":5127:5133  amount */\n      dup4\n        /* \"contracts/Staking.sol\":5127:5166  amount < token.balanceOf(address(this)) */\n      lt\n        /* \"contracts/Staking.sol\":5127:5208  amount < token.balanceOf(address(this)) ? amount : token.balanceOf(address(this)) */\n      tag_116\n      jumpi\n        /* \"contracts/Staking.sol\":5178:5183  token */\n      0x09\n      0x00\n      swap1\n      sload\n      swap1\n      0x0100\n      exp\n      swap1\n      div\n      0xffffffffffffffffffffffffffffffffffffffff\n      and\n        /* \"contracts/Staking.sol\":5178:5193  token.balanceOf */\n      0xffffffffffffffffffffffffffffffffffffffff\n      and\n      0x70a08231\n        /* \"contracts/Staking.sol\":5202:5206  this */\n      address\n        /* \"contracts/Staking.sol\":5178:5208  token.balanceOf(address(this)) */\n      mload(0x40)\n      dup3\n      0xffffffff\n      and\n      0xe0\n      shl\n      dup2\n      mstore\n      0x04\n      add\n      tag_117\n      swap2\n      swap1\n      tag_71\n      jump\t// in\n    tag_117:\n      0x20\n      mload(0x40)\n      dup1\n      dup4\n      sub\n      dup2\n      dup7\n      dup1\n      extcodesize\n      iszero\n      dup1\n      iszero\n      tag_118\n      jumpi\n      0x00\n      dup1\n      revert\n    tag_118:\n      pop\n      gas\n      staticcall\n      iszero\n      dup1\n      iszero\n      tag_120\n      jumpi\n      returndatasize\n      0x00\n      dup1\n      returndatacopy\n      revert(0x00, returndatasize)\n    tag_120:\n      pop\n      pop\n      pop\n      pop\n      mload(0x40)\n      returndatasize\n      not(0x1f)\n      0x1f\n      dup3\n      add\n      and\n      dup3\n      add\n      dup1\n      0x40\n      mstore\n      pop\n      dup2\n      add\n      swap1\n      tag_121\n      swap2\n      swap1\n      tag_115\n      jump\t// in\n    tag_121:\n        /* \"contracts/Staking.sol\":5127:5208  amount < token.balanceOf(address(this)) ? amount : token.balanceOf(address(this)) */\n      jump(tag_122)\n    tag_116:\n        /* \"contracts/Staking.sol\":5169:5175  amount */\n      dup3\n        /* \"contracts/Staking.sol\":5127:5208  amount < token.balanceOf(address(this)) ? amount : token.balanceOf(address(this)) */\n    tag_122:\n        /* \"contracts/Staking.sol\":5097:5208  uint256 amountTobeWithdrawn = amount < token.balanceOf(address(this)) ? amount : token.balanceOf(address(this)) */\n      swap1\n      pop\n        /* \"contracts/Staking.sol\":5219:5233  uint256 during */\n      0x00\n        /* \"contracts/Staking.sol\":5236:5290  block.timestamp.sub(staker.stakeStartTime).div(1 days) */\n      tag_123\n        /* \"contracts/Staking.sol\":5283:5289  1 days */\n      0x015180\n        /* \"contracts/Staking.sol\":5236:5278  block.timestamp.sub(staker.stakeStartTime) */\n      tag_124\n        /* \"contracts/Staking.sol\":5256:5262  staker */\n      dup6\n        /* \"contracts/Staking.sol\":5256:5277  staker.stakeStartTime */\n      0x03\n      add\n      sload\n        /* \"contracts/Staking.sol\":5236:5251  block.timestamp */\n      timestamp\n        /* \"contracts/Staking.sol\":5236:5255  block.timestamp.sub */\n      tag_125\n      swap1\n        /* \"contracts/Staking.sol\":5236:5278  block.timestamp.sub(staker.stakeStartTime) */\n      swap2\n      swap1\n      0xffffffff\n      and\n      jump\t// in\n    tag_124:\n        /* \"contracts/Staking.sol\":5236:5282  block.timestamp.sub(staker.stakeStartTime).div */\n      tag_126\n      swap1\n        /* \"contracts/Staking.sol\":5236:5290  block.timestamp.sub(staker.stakeStartTime).div(1 days) */\n      swap2\n      swap1\n      0xffffffff\n      and\n      jump\t// in\n    tag_123:\n        /* \"contracts/Staking.sol\":5219:5290  uint256 during = block.timestamp.sub(staker.stakeStartTime).div(1 days) */\n      swap1\n      pop\n        /* \"contracts/Staking.sol\":5301:5312  uint256 fee */\n      0x00\n        /* \"contracts/Staking.sol\":5315:5318  100 */\n      0x64\n        /* \"contracts/Staking.sol\":5301:5318  uint256 fee = 100 */\n      swap1\n      pop\n        /* \"contracts/Staking.sol\":5329:5350  bool isLockupTimeOver */\n      0x00\n        /* \"contracts/Staking.sol\":5368:5369  1 */\n      0x01\n        /* \"contracts/Staking.sol\":5353:5359  staker */\n      dup6\n        /* \"contracts/Staking.sol\":5353:5364  staker.mode */\n      0x02\n      add\n      sload\n        /* \"contracts/Staking.sol\":5353:5369  staker.mode == 1 */\n      eq\n        /* \"contracts/Staking.sol\":5353:5487  staker.mode == 1 ? during % _eventPeriod == 0 && during > 0 :\r... */\n      tag_127\n      jumpi\n        /* \"contracts/Staking.sol\":5447:5487  staker.stakeStartTime.add(_lockupPeriod) */\n      tag_128\n        /* \"contracts/Staking.sol\":5473:5486  _lockupPeriod */\n      sload(0x05)\n        /* \"contracts/Staking.sol\":5447:5453  staker */\n      dup7\n        /* \"contracts/Staking.sol\":5447:5468  staker.stakeStartTime */\n      0x03\n      add\n      sload\n        /* \"contracts/Staking.sol\":5447:5472  staker.stakeStartTime.add */\n      tag_129\n      swap1\n        /* \"contracts/Staking.sol\":5447:5487  staker.stakeStartTime.add(_lockupPeriod) */\n      swap2\n      swap1\n      0xffffffff\n      and\n      jump\t// in\n    tag_128:\n        /* \"contracts/Staking.sol\":5428:5443  block.timestamp */\n      timestamp\n        /* \"contracts/Staking.sol\":5428:5487  block.timestamp >= staker.stakeStartTime.add(_lockupPeriod) */\n      lt\n      iszero\n        /* \"contracts/Staking.sol\":5353:5487  staker.mode == 1 ? during % _eventPeriod == 0 && during > 0 :\r... */\n      jump(tag_130)\n    tag_127:\n        /* \"contracts/Staking.sol\":5397:5398  0 */\n      0x00\n        /* \"contracts/Staking.sol\":5381:5393  _eventPeriod */\n      sload(0x02)\n        /* \"contracts/Staking.sol\":5372:5378  during */\n      dup5\n        /* \"contracts/Staking.sol\":5372:5393  during % _eventPeriod */\n      tag_131\n      swap2\n      swap1\n      tag_132\n      jump\t// in\n    tag_131:\n        /* \"contracts/Staking.sol\":5372:5398  during % _eventPeriod == 0 */\n      eq\n        /* \"contracts/Staking.sol\":5372:5412  during % _eventPeriod == 0 && during > 0 */\n      dup1\n      iszero\n      tag_133\n      jumpi\n      pop\n        /* \"contracts/Staking.sol\":5411:5412  0 */\n      0x00\n        /* \"contracts/Staking.sol\":5402:5408  during */\n      dup4\n        /* \"contracts/Staking.sol\":5402:5412  during > 0 */\n      gt\n        /* \"contracts/Staking.sol\":5372:5412  during % _eventPeriod == 0 && during > 0 */\n    tag_133:\n        /* \"contracts/Staking.sol\":5353:5487  staker.mode == 1 ? during % _eventPeriod == 0 && during > 0 :\r... */\n    tag_130:\n        /* \"contracts/Staking.sol\":5329:5487  bool isLockupTimeOver = staker.mode == 1 ? during % _eventPeriod == 0 && during > 0 :\r... */\n      swap1\n      pop\n        /* \"contracts/Staking.sol\":5503:5519  isLockupTimeOver */\n      dup1\n        /* \"contracts/Staking.sol\":5498:5571  if (!isLockupTimeOver) {\r... */\n      tag_134\n      jumpi\n        /* \"contracts/Staking.sol\":5542:5559  _unstakingFeeRate */\n      sload(0x01)\n        /* \"contracts/Staking.sol\":5536:5559  fee = _unstakingFeeRate */\n      swap2\n      pop\n        /* \"contracts/Staking.sol\":5498:5571  if (!isLockupTimeOver) {\r... */\n    tag_134:\n        /* \"contracts/Staking.sol\":5603:5665  amountTobeWithdrawn.sub(amountTobeWithdrawn.mul(fee).div(1e4)) */\n      tag_135\n        /* \"contracts/Staking.sol\":5627:5664  amountTobeWithdrawn.mul(fee).div(1e4) */\n      tag_136\n        /* \"contracts/Staking.sol\":5660:5663  1e4 */\n      0x2710\n        /* \"contracts/Staking.sol\":5627:5655  amountTobeWithdrawn.mul(fee) */\n      tag_137\n        /* \"contracts/Staking.sol\":5651:5654  fee */\n      dup6\n        /* \"contracts/Staking.sol\":5627:5646  amountTobeWithdrawn */\n      dup9\n        /* \"contracts/Staking.sol\":5627:5650  amountTobeWithdrawn.mul */\n      tag_138\n      swap1\n        /* \"contracts/Staking.sol\":5627:5655  amountTobeWithdrawn.mul(fee) */\n      swap2\n      swap1\n      0xffffffff\n      and\n      jump\t// in\n    tag_137:\n        /* \"contracts/Staking.sol\":5627:5659  amountTobeWithdrawn.mul(fee).div */\n      tag_126\n      swap1\n        /* \"contracts/Staking.sol\":5627:5664  amountTobeWithdrawn.mul(fee).div(1e4) */\n      swap2\n      swap1\n      0xffffffff\n      and\n      jump\t// in\n    tag_136:\n        /* \"contracts/Staking.sol\":5603:5622  amountTobeWithdrawn */\n      dup6\n        /* \"contracts/Staking.sol\":5603:5626  amountTobeWithdrawn.sub */\n      tag_125\n      swap1\n        /* \"contracts/Staking.sol\":5603:5665  amountTobeWithdrawn.sub(amountTobeWithdrawn.mul(fee).div(1e4)) */\n      swap2\n      swap1\n      0xffffffff\n      and\n      jump\t// in\n    tag_135:\n        /* \"contracts/Staking.sol\":5581:5665  amountTobeWithdrawn = amountTobeWithdrawn.sub(amountTobeWithdrawn.mul(fee).div(1e4)) */\n      swap4\n      pop\n        /* \"contracts/Staking.sol\":5690:5726  totalStaked.sub(amountTobeWithdrawn) */\n      tag_139\n        /* \"contracts/Staking.sol\":5706:5725  amountTobeWithdrawn */\n      dup5\n        /* \"contracts/Staking.sol\":5690:5701  totalStaked */\n      sload(0x08)\n        /* \"contracts/Staking.sol\":5690:5705  totalStaked.sub */\n      tag_125\n      swap1\n        /* \"contracts/Staking.sol\":5690:5726  totalStaked.sub(amountTobeWithdrawn) */\n      swap2\n      swap1\n      0xffffffff\n      and\n      jump\t// in\n    tag_139:\n        /* \"contracts/Staking.sol\":5676:5687  totalStaked */\n      0x08\n        /* \"contracts/Staking.sol\":5676:5726  totalStaked = totalStaked.sub(amountTobeWithdrawn) */\n      dup2\n      swap1\n      sstore\n      pop\n        /* \"contracts/Staking.sol\":5759:5803  staker.stakedAmount.sub(amountTobeWithdrawn) */\n      tag_140\n        /* \"contracts/Staking.sol\":5783:5802  amountTobeWithdrawn */\n      dup5\n        /* \"contracts/Staking.sol\":5759:5765  staker */\n      dup7\n        /* \"contracts/Staking.sol\":5759:5778  staker.stakedAmount */\n      0x01\n      add\n      sload\n        /* \"contracts/Staking.sol\":5759:5782  staker.stakedAmount.sub */\n      tag_125\n      swap1\n        /* \"contracts/Staking.sol\":5759:5803  staker.stakedAmount.sub(amountTobeWithdrawn) */\n      swap2\n      swap1\n      0xffffffff\n      and\n      jump\t// in\n    tag_140:\n        /* \"contracts/Staking.sol\":5737:5743  staker */\n      dup6\n        /* \"contracts/Staking.sol\":5737:5756  staker.stakedAmount */\n      0x01\n      add\n        /* \"contracts/Staking.sol\":5737:5803  staker.stakedAmount = staker.stakedAmount.sub(amountTobeWithdrawn) */\n      dup2\n      swap1\n      sstore\n      pop\n        /* \"contracts/Staking.sol\":5814:5865  token.safeTransfer(msg.sender, amountTobeWithdrawn) */\n      tag_141\n        /* \"contracts/Staking.sol\":5833:5843  msg.sender */\n      caller\n        /* \"contracts/Staking.sol\":5845:5864  amountTobeWithdrawn */\n      dup6\n        /* \"contracts/Staking.sol\":5814:5819  token */\n      0x09\n      0x00\n      swap1\n      sload\n      swap1\n      0x0100\n      exp\n      swap1\n      div\n      0xffffffffffffffffffffffffffffffffffffffff\n      and\n        /* \"contracts/Staking.sol\":5814:5832  token.safeTransfer */\n      0xffffffffffffffffffffffffffffffffffffffff\n      and\n      tag_142\n      swap1\n        /* \"contracts/Staking.sol\":5814:5865  token.safeTransfer(msg.sender, amountTobeWithdrawn) */\n      swap3\n      swap2\n      swap1\n      0xffffffff\n      and\n      jump\t// in\n    tag_141:\n        /* \"contracts/Staking.sol\":5883:5924  Withdraw(msg.sender, amountTobeWithdrawn) */\n      0x884edad9ce6fa2440d8a54cc123490eb96d2768479d49ff9c7366125a9424364\n        /* \"contracts/Staking.sol\":5892:5902  msg.sender */\n      caller\n        /* \"contracts/Staking.sol\":5904:5923  amountTobeWithdrawn */\n      dup6\n        /* \"contracts/Staking.sol\":5883:5924  Withdraw(msg.sender, amountTobeWithdrawn) */\n      mload(0x40)\n      tag_143\n      swap3\n      swap2\n      swap1\n      tag_144\n      jump\t// in\n    tag_143:\n      mload(0x40)\n      dup1\n      swap2\n      sub\n      swap1\n      log1\n        /* \"contracts/Staking.sol\":4861:5995  {\r... */\n      pop\n      pop\n      pop\n      pop\n      pop\n        /* \"contracts/Staking.sol\":4819:5995  function withdraw(uint256 amount) external{\r... */\n      pop\n      jump\t// out\n        /* \"contracts/Staking.sol\":7205:7789  function harvest() public{\r... */\n    tag_40:\n        /* \"contracts/Staking.sol\":7251:7265  updateReward() */\n      tag_146\n        /* \"contracts/Staking.sol\":7251:7263  updateReward */\n      tag_109\n        /* \"contracts/Staking.sol\":7251:7265  updateReward() */\n      jump\t// in\n    tag_146:\n        /* \"contracts/Staking.sol\":7276:7297  Staker storage staker */\n      0x00\n        /* \"contracts/Staking.sol\":7300:7307  _staker */\n      0x07\n        /* \"contracts/Staking.sol\":7300:7319  _staker[msg.sender] */\n      0x00\n        /* \"contracts/Staking.sol\":7308:7318  msg.sender */\n      caller\n        /* \"contracts/Staking.sol\":7300:7319  _staker[msg.sender] */\n      0xffffffffffffffffffffffffffffffffffffffff\n      and\n      0xffffffffffffffffffffffffffffffffffffffff\n      and\n      dup2\n      mstore\n      0x20\n      add\n      swap1\n      dup2\n      mstore\n      0x20\n      add\n      0x00\n      keccak256\n        /* \"contracts/Staking.sol\":7276:7319  Staker storage staker = _staker[msg.sender] */\n      swap1\n      pop\n        /* \"contracts/Staking.sol\":7330:7351  uint256 rewardToClaim */\n      0x00\n        /* \"contracts/Staking.sol\":7354:7443  staker.stakerCurrentReward.sub(staker.stakerCurrentReward.mul(_rewardFeeRate).div(10**4)) */\n      tag_147\n        /* \"contracts/Staking.sol\":7385:7442  staker.stakerCurrentReward.mul(_rewardFeeRate).div(10**4) */\n      tag_148\n        /* \"contracts/Staking.sol\":7436:7441  10**4 */\n      0x2710\n        /* \"contracts/Staking.sol\":7385:7431  staker.stakerCurrentReward.mul(_rewardFeeRate) */\n      tag_149\n        /* \"contracts/Staking.sol\":7416:7430  _rewardFeeRate */\n      sload(0x04)\n        /* \"contracts/Staking.sol\":7385:7391  staker */\n      dup7\n        /* \"contracts/Staking.sol\":7385:7411  staker.stakerCurrentReward */\n      0x00\n      add\n      sload\n        /* \"contracts/Staking.sol\":7385:7415  staker.stakerCurrentReward.mul */\n      tag_138\n      swap1\n        /* \"contracts/Staking.sol\":7385:7431  staker.stakerCurrentReward.mul(_rewardFeeRate) */\n      swap2\n      swap1\n      0xffffffff\n      and\n      jump\t// in\n    tag_149:\n        /* \"contracts/Staking.sol\":7385:7435  staker.stakerCurrentReward.mul(_rewardFeeRate).div */\n      tag_126\n      swap1\n        /* \"contracts/Staking.sol\":7385:7442  staker.stakerCurrentReward.mul(_rewardFeeRate).div(10**4) */\n      swap2\n      swap1\n      0xffffffff\n      and\n      jump\t// in\n    tag_148:\n        /* \"contracts/Staking.sol\":7354:7360  staker */\n      dup4\n        /* \"contracts/Staking.sol\":7354:7380  staker.stakerCurrentReward */\n      0x00\n      add\n      sload\n        /* \"contracts/Staking.sol\":7354:7384  staker.stakerCurrentReward.sub */\n      tag_125\n      swap1\n        /* \"contracts/Staking.sol\":7354:7443  staker.stakerCurrentReward.sub(staker.stakerCurrentReward.mul(_rewardFeeRate).div(10**4)) */\n      swap2\n      swap1\n      0xffffffff\n      and\n      jump\t// in\n    tag_147:\n        /* \"contracts/Staking.sol\":7330:7443  uint256 rewardToClaim = staker.stakerCurrentReward.sub(staker.stakerCurrentReward.mul(_rewardFeeRate).div(10**4)) */\n      swap1\n      pop\n        /* \"contracts/Staking.sol\":7488:7489  0 */\n      0x00\n        /* \"contracts/Staking.sol\":7472:7485  rewardToClaim */\n      dup2\n        /* \"contracts/Staking.sol\":7472:7489  rewardToClaim > 0 */\n      gt\n        /* \"contracts/Staking.sol\":7464:7510  require(rewardToClaim > 0, \"Nothing to claim\") */\n      tag_150\n      jumpi\n      mload(0x40)\n      0x08c379a000000000000000000000000000000000000000000000000000000000\n      dup2\n      mstore\n      0x04\n      add\n      tag_151\n      swap1\n      tag_152\n      jump\t// in\n    tag_151:\n      mload(0x40)\n      dup1\n      swap2\n      sub\n      swap1\n      revert\n    tag_150:\n        /* \"contracts/Staking.sol\":7541:7546  token */\n      0x09\n      0x00\n      swap1\n      sload\n      swap1\n      0x0100\n      exp\n      swap1\n      div\n      0xffffffffffffffffffffffffffffffffffffffff\n      and\n        /* \"contracts/Staking.sol\":7541:7556  token.balanceOf */\n      0xffffffffffffffffffffffffffffffffffffffff\n      and\n      0x70a08231\n        /* \"contracts/Staking.sol\":7565:7569  this */\n      address\n        /* \"contracts/Staking.sol\":7541:7571  token.balanceOf(address(this)) */\n      mload(0x40)\n      dup3\n      0xffffffff\n      and\n      0xe0\n      shl\n      dup2\n      mstore\n      0x04\n      add\n      tag_153\n      swap2\n      swap1\n      tag_71\n      jump\t// in\n    tag_153:\n      0x20\n      mload(0x40)\n      dup1\n      dup4\n      sub\n      dup2\n      dup7\n      dup1\n      extcodesize\n      iszero\n      dup1\n      iszero\n      tag_154\n      jumpi\n      0x00\n      dup1\n      revert\n    tag_154:\n      pop\n      gas\n      staticcall\n      iszero\n      dup1\n      iszero\n      tag_156\n      jumpi\n      returndatasize\n      0x00\n      dup1\n      returndatacopy\n      revert(0x00, returndatasize)\n    tag_156:\n      pop\n      pop\n      pop\n      pop\n      mload(0x40)\n      returndatasize\n      not(0x1f)\n      0x1f\n      dup3\n      add\n      and\n      dup3\n      add\n      dup1\n      0x40\n      mstore\n      pop\n      dup2\n      add\n      swap1\n      tag_157\n      swap2\n      swap1\n      tag_115\n      jump\t// in\n    tag_157:\n        /* \"contracts/Staking.sol\":7525:7538  rewardToClaim */\n      dup2\n        /* \"contracts/Staking.sol\":7525:7571  rewardToClaim > token.balanceOf(address(this)) */\n      gt\n        /* \"contracts/Staking.sol\":7521:7632  if (rewardToClaim > token.balanceOf(address(this)))\r... */\n      iszero\n      tag_158\n      jumpi\n        /* \"contracts/Staking.sol\":7602:7607  token */\n      0x09\n      0x00\n      swap1\n      sload\n      swap1\n      0x0100\n      exp\n      swap1\n      div\n      0xffffffffffffffffffffffffffffffffffffffff\n      and\n        /* \"contracts/Staking.sol\":7602:7617  token.balanceOf */\n      0xffffffffffffffffffffffffffffffffffffffff\n      and\n      0x70a08231\n        /* \"contracts/Staking.sol\":7626:7630  this */\n      address\n        /* \"contracts/Staking.sol\":7602:7632  token.balanceOf(address(this)) */\n      mload(0x40)\n      dup3\n      0xffffffff\n      and\n      0xe0\n      shl\n      dup2\n      mstore\n      0x04\n      add\n      tag_159\n      swap2\n      swap1\n      tag_71\n      jump\t// in\n    tag_159:\n      0x20\n      mload(0x40)\n      dup1\n      dup4\n      sub\n      dup2\n      dup7\n      dup1\n      extcodesize\n      iszero\n      dup1\n      iszero\n      tag_160\n      jumpi\n      0x00\n      dup1\n      revert\n    tag_160:\n      pop\n      gas\n      staticcall\n      iszero\n      dup1\n      iszero\n      tag_162\n      jumpi\n      returndatasize\n      0x00\n      dup1\n      returndatacopy\n      revert(0x00, returndatasize)\n    tag_162:\n      pop\n      pop\n      pop\n      pop\n      mload(0x40)\n      returndatasize\n      not(0x1f)\n      0x1f\n      dup3\n      add\n      and\n      dup3\n      add\n      dup1\n      0x40\n      mstore\n      pop\n      dup2\n      add\n      swap1\n      tag_163\n      swap2\n      swap1\n      tag_115\n      jump\t// in\n    tag_163:\n        /* \"contracts/Staking.sol\":7586:7632  rewardToClaim = token.balanceOf(address(this)) */\n      swap1\n      pop\n        /* \"contracts/Staking.sol\":7521:7632  if (rewardToClaim > token.balanceOf(address(this)))\r... */\n    tag_158:\n        /* \"contracts/Staking.sol\":7643:7688  token.safeTransfer(msg.sender, rewardToClaim) */\n      tag_164\n        /* \"contracts/Staking.sol\":7662:7672  msg.sender */\n      caller\n        /* \"contracts/Staking.sol\":7674:7687  rewardToClaim */\n      dup3\n        /* \"contracts/Staking.sol\":7643:7648  token */\n      0x09\n      0x00\n      swap1\n      sload\n      swap1\n      0x0100\n      exp\n      swap1\n      div\n      0xffffffffffffffffffffffffffffffffffffffff\n      and\n        /* \"contracts/Staking.sol\":7643:7661  token.safeTransfer */\n      0xffffffffffffffffffffffffffffffffffffffff\n      and\n      tag_142\n      swap1\n        /* \"contracts/Staking.sol\":7643:7688  token.safeTransfer(msg.sender, rewardToClaim) */\n      swap3\n      swap2\n      swap1\n      0xffffffff\n      and\n      jump\t// in\n    tag_164:\n        /* \"contracts/Staking.sol\":7728:7729  0 */\n      0x00\n        /* \"contracts/Staking.sol\":7699:7705  staker */\n      dup3\n        /* \"contracts/Staking.sol\":7699:7725  staker.stakerCurrentReward */\n      0x00\n      add\n        /* \"contracts/Staking.sol\":7699:7729  staker.stakerCurrentReward = 0 */\n      dup2\n      swap1\n      sstore\n      pop\n        /* \"contracts/Staking.sol\":7747:7781  Harvest(msg.sender, rewardToClaim) */\n      0xc9695243a805adb74c91f28311176c65b417e842d5699893cef56d18bfa48cba\n        /* \"contracts/Staking.sol\":7755:7765  msg.sender */\n      caller\n        /* \"contracts/Staking.sol\":7767:7780  rewardToClaim */\n      dup3\n        /* \"contracts/Staking.sol\":7747:7781  Harvest(msg.sender, rewardToClaim) */\n      mload(0x40)\n      tag_165\n      swap3\n      swap2\n      swap1\n      tag_144\n      jump\t// in\n    tag_165:\n      mload(0x40)\n      dup1\n      swap2\n      sub\n      swap1\n      log1\n        /* \"contracts/Staking.sol\":7230:7789  {\r... */\n      pop\n      pop\n        /* \"contracts/Staking.sol\":7205:7789  function harvest() public{\r... */\n      jump\t// out\n        /* \"contracts/Staking.sol\":6780:6942  function setLockupTime(uint256 lockupTime) external onlyOwner {\r... */\n    tag_43:\n        /* \"@openzeppelin/contracts/access/Ownable.sol\":1259:1271  _msgSender() */\n      tag_167\n        /* \"@openzeppelin/contracts/access/Ownable.sol\":1259:1269  _msgSender */\n      tag_168\n        /* \"@openzeppelin/contracts/access/Ownable.sol\":1259:1271  _msgSender() */\n      jump\t// in\n    tag_167:\n        /* \"@openzeppelin/contracts/access/Ownable.sol\":1248:1271  owner() == _msgSender() */\n      0xffffffffffffffffffffffffffffffffffffffff\n      and\n        /* \"@openzeppelin/contracts/access/Ownable.sol\":1248:1255  owner() */\n      tag_169\n        /* \"@openzeppelin/contracts/access/Ownable.sol\":1248:1253  owner */\n      tag_69\n        /* \"@openzeppelin/contracts/access/Ownable.sol\":1248:1255  owner() */\n      jump\t// in\n    tag_169:\n        /* \"@openzeppelin/contracts/access/Ownable.sol\":1248:1271  owner() == _msgSender() */\n      0xffffffffffffffffffffffffffffffffffffffff\n      and\n      eq\n        /* \"@openzeppelin/contracts/access/Ownable.sol\":1240:1308  require(owner() == _msgSender(), \"Ownable: caller is not the owner\") */\n      tag_170\n      jumpi\n      mload(0x40)\n      0x08c379a000000000000000000000000000000000000000000000000000000000\n      dup2\n      mstore\n      0x04\n      add\n      tag_171\n      swap1\n      tag_172\n      jump\t// in\n    tag_171:\n      mload(0x40)\n      dup1\n      swap2\n      sub\n      swap1\n      revert\n    tag_170:\n        /* \"contracts/Staking.sol\":6876:6877  0 */\n      0x00\n        /* \"contracts/Staking.sol\":6863:6873  lockupTime */\n      dup2\n        /* \"contracts/Staking.sol\":6863:6877  lockupTime > 0 */\n      gt\n        /* \"contracts/Staking.sol\":6855:6895  require(lockupTime > 0, \"Can't be zero\") */\n      tag_174\n      jumpi\n      mload(0x40)\n      0x08c379a000000000000000000000000000000000000000000000000000000000\n      dup2\n      mstore\n      0x04\n      add\n      tag_175\n      swap1\n      tag_176\n      jump\t// in\n    tag_175:\n      mload(0x40)\n      dup1\n      swap2\n      sub\n      swap1\n      revert\n    tag_174:\n        /* \"contracts/Staking.sol\":6924:6934  lockupTime */\n      dup1\n        /* \"contracts/Staking.sol\":6908:6921  _lockupPeriod */\n      0x05\n        /* \"contracts/Staking.sol\":6908:6934  _lockupPeriod = lockupTime */\n      dup2\n      swap1\n      sstore\n      pop\n        /* \"contracts/Staking.sol\":6780:6942  function setLockupTime(uint256 lockupTime) external onlyOwner {\r... */\n      pop\n      jump\t// out\n        /* \"contracts/Staking.sol\":2428:2943  function startStaking(uint256 _amount, uint256 _mode) external {\r... */\n    tag_47:\n        /* \"contracts/Staking.sol\":2530:2531  0 */\n      0x00\n        /* \"contracts/Staking.sol\":2520:2527  _amount */\n      dup3\n        /* \"contracts/Staking.sol\":2520:2531  _amount > 0 */\n      gt\n        /* \"contracts/Staking.sol\":2512:2567  require(_amount > 0, \"Amount should be greater than 0\") */\n      tag_178\n      jumpi\n      mload(0x40)\n      0x08c379a000000000000000000000000000000000000000000000000000000000\n      dup2\n      mstore\n      0x04\n      add\n      tag_179\n      swap1\n      tag_104\n      jump\t// in\n    tag_179:\n      mload(0x40)\n      dup1\n      swap2\n      sub\n      swap1\n      revert\n    tag_178:\n        /* \"contracts/Staking.sol\":2616:2623  _amount */\n      dup2\n        /* \"contracts/Staking.sol\":2586:2591  token */\n      0x09\n      0x00\n      swap1\n      sload\n      swap1\n      0x0100\n      exp\n      swap1\n      div\n      0xffffffffffffffffffffffffffffffffffffffff\n      and\n        /* \"contracts/Staking.sol\":2586:2601  token.balanceOf */\n      0xffffffffffffffffffffffffffffffffffffffff\n      and\n      0x70a08231\n        /* \"contracts/Staking.sol\":2602:2612  msg.sender */\n      caller\n        /* \"contracts/Staking.sol\":2586:2613  token.balanceOf(msg.sender) */\n      mload(0x40)\n      dup3\n      0xffffffff\n      and\n      0xe0\n      shl\n      dup2\n      mstore\n      0x04\n      add\n      tag_180\n      swap2\n      swap1\n      tag_71\n      jump\t// in\n    tag_180:\n      0x20\n      mload(0x40)\n      dup1\n      dup4\n      sub\n      dup2\n      dup7\n      dup1\n      extcodesize\n      iszero\n      dup1\n      iszero\n      tag_181\n      jumpi\n      0x00\n      dup1\n      revert\n    tag_181:\n      pop\n      gas\n      staticcall\n      iszero\n      dup1\n      iszero\n      tag_183\n      jumpi\n      returndatasize\n      0x00\n      dup1\n      returndatacopy\n      revert(0x00, returndatasize)\n    tag_183:\n      pop\n      pop\n      pop\n      pop\n      mload(0x40)\n      returndatasize\n      not(0x1f)\n      0x1f\n      dup3\n      add\n      and\n      dup3\n      add\n      dup1\n      0x40\n      mstore\n      pop\n      dup2\n      add\n      swap1\n      tag_184\n      swap2\n      swap1\n      tag_115\n      jump\t// in\n    tag_184:\n        /* \"contracts/Staking.sol\":2586:2623  token.balanceOf(msg.sender) > _amount */\n      gt\n        /* \"contracts/Staking.sol\":2578:2641  require(token.balanceOf(msg.sender) > _amount, \"Insufficient!\") */\n      tag_185\n      jumpi\n      mload(0x40)\n      0x08c379a000000000000000000000000000000000000000000000000000000000\n      dup2\n      mstore\n      0x04\n      add\n      tag_186\n      swap1\n      tag_187\n      jump\t// in\n    tag_186:\n      mload(0x40)\n      dup1\n      swap2\n      sub\n      swap1\n      revert\n    tag_185:\n        /* \"contracts/Staking.sol\":2690:2694  0x55 */\n      0x55\n        /* \"contracts/Staking.sol\":2660:2667  _staker */\n      0x07\n        /* \"contracts/Staking.sol\":2660:2679  _staker[msg.sender] */\n      0x00\n        /* \"contracts/Staking.sol\":2668:2678  msg.sender */\n      caller\n        /* \"contracts/Staking.sol\":2660:2679  _staker[msg.sender] */\n      0xffffffffffffffffffffffffffffffffffffffff\n      and\n      0xffffffffffffffffffffffffffffffffffffffff\n      and\n      dup2\n      mstore\n      0x20\n      add\n      swap1\n      dup2\n      mstore\n      0x20\n      add\n      0x00\n      keccak256\n        /* \"contracts/Staking.sol\":2660:2686  _staker[msg.sender].staked */\n      0x05\n      add\n      sload\n        /* \"contracts/Staking.sol\":2660:2694  _staker[msg.sender].staked != 0x55 */\n      eq\n      iszero\n        /* \"contracts/Staking.sol\":2652:2714  require(_staker[msg.sender].staked != 0x55, \"Already started\") */\n      tag_188\n      jumpi\n      mload(0x40)\n      0x08c379a000000000000000000000000000000000000000000000000000000000\n      dup2\n      mstore\n      0x04\n      add\n      tag_189\n      swap1\n      tag_190\n      jump\t// in\n    tag_189:\n      mload(0x40)\n      dup1\n      swap2\n      sub\n      swap1\n      revert\n    tag_188:\n        /* \"contracts/Staking.sol\":2762:2767  _mode */\n      dup1\n        /* \"contracts/Staking.sol\":2735:2742  _staker */\n      0x07\n        /* \"contracts/Staking.sol\":2735:2754  _staker[msg.sender] */\n      0x00\n        /* \"contracts/Staking.sol\":2743:2753  msg.sender */\n      caller\n        /* \"contracts/Staking.sol\":2735:2754  _staker[msg.sender] */\n      0xffffffffffffffffffffffffffffffffffffffff\n      and\n      0xffffffffffffffffffffffffffffffffffffffff\n      and\n      dup2\n      mstore\n      0x20\n      add\n      swap1\n      dup2\n      mstore\n      0x20\n      add\n      0x00\n      keccak256\n        /* \"contracts/Staking.sol\":2735:2759  _staker[msg.sender].mode */\n      0x02\n      add\n        /* \"contracts/Staking.sol\":2735:2767  _staker[msg.sender].mode = _mode */\n      dup2\n      swap1\n      sstore\n      pop\n        /* \"contracts/Staking.sol\":2815:2830  block.timestamp */\n      timestamp\n        /* \"contracts/Staking.sol\":2778:2785  _staker */\n      0x07\n        /* \"contracts/Staking.sol\":2778:2797  _staker[msg.sender] */\n      0x00\n        /* \"contracts/Staking.sol\":2786:2796  msg.sender */\n      caller\n        /* \"contracts/Staking.sol\":2778:2797  _staker[msg.sender] */\n      0xffffffffffffffffffffffffffffffffffffffff\n      and\n      0xffffffffffffffffffffffffffffffffffffffff\n      and\n      dup2\n      mstore\n      0x20\n      add\n      swap1\n      dup2\n      mstore\n      0x20\n      add\n      0x00\n      keccak256\n        /* \"contracts/Staking.sol\":2778:2812  _staker[msg.sender].stakeStartTime */\n      0x03\n      add\n        /* \"contracts/Staking.sol\":2778:2830  _staker[msg.sender].stakeStartTime = block.timestamp */\n      dup2\n      swap1\n      sstore\n      pop\n        /* \"contracts/Staking.sol\":2870:2874  0x55 */\n      0x55\n        /* \"contracts/Staking.sol\":2841:2848  _staker */\n      0x07\n        /* \"contracts/Staking.sol\":2841:2860  _staker[msg.sender] */\n      0x00\n        /* \"contracts/Staking.sol\":2849:2859  msg.sender */\n      caller\n        /* \"contracts/Staking.sol\":2841:2860  _staker[msg.sender] */\n      0xffffffffffffffffffffffffffffffffffffffff\n      and\n      0xffffffffffffffffffffffffffffffffffffffff\n      and\n      dup2\n      mstore\n      0x20\n      add\n      swap1\n      dup2\n      mstore\n      0x20\n      add\n      0x00\n      keccak256\n        /* \"contracts/Staking.sol\":2841:2867  _staker[msg.sender].staked */\n      0x05\n      add\n        /* \"contracts/Staking.sol\":2841:2874  _staker[msg.sender].staked = 0x55 */\n      dup2\n      swap1\n      sstore\n      pop\n        /* \"contracts/Staking.sol\":2885:2893  _stakers */\n      0x06\n        /* \"contracts/Staking.sol\":2899:2909  msg.sender */\n      caller\n        /* \"contracts/Staking.sol\":2885:2910  _stakers.push(msg.sender) */\n      swap1\n      dup1\n      0x01\n      dup2\n      sload\n      add\n      dup1\n      dup3\n      sstore\n      dup1\n      swap2\n      pop\n      pop\n      0x01\n      swap1\n      sub\n      swap1\n      0x00\n      mstore\n      keccak256(0x00, 0x20)\n      add\n      0x00\n      swap1\n      swap2\n      swap1\n      swap2\n      swap1\n      swap2\n      0x0100\n      exp\n      dup2\n      sload\n      dup2\n      0xffffffffffffffffffffffffffffffffffffffff\n      mul\n      not\n      and\n      swap1\n      dup4\n      0xffffffffffffffffffffffffffffffffffffffff\n      and\n      mul\n      or\n      swap1\n      sstore\n      pop\n        /* \"contracts/Staking.sol\":2921:2935  stake(_amount) */\n      tag_192\n        /* \"contracts/Staking.sol\":2927:2934  _amount */\n      dup3\n        /* \"contracts/Staking.sol\":2921:2926  stake */\n      tag_83\n        /* \"contracts/Staking.sol\":2921:2935  stake(_amount) */\n      jump\t// in\n    tag_192:\n        /* \"contracts/Staking.sol\":2428:2943  function startStaking(uint256 _amount, uint256 _mode) external {\r... */\n      pop\n      pop\n      jump\t// out\n        /* \"contracts/Staking.sol\":3722:3825  function getNumberofStakers() public view returns (uint256) {\r... */\n    tag_49:\n        /* \"contracts/Staking.sol\":3773:3780  uint256 */\n      0x00\n        /* \"contracts/Staking.sol\":3802:3810  _stakers */\n      0x06\n        /* \"contracts/Staking.sol\":3802:3817  _stakers.length */\n      dup1\n      sload\n      swap1\n      pop\n        /* \"contracts/Staking.sol\":3795:3817  return _stakers.length */\n      swap1\n      pop\n        /* \"contracts/Staking.sol\":3722:3825  function getNumberofStakers() public view returns (uint256) {\r... */\n      swap1\n      jump\t// out\n        /* \"contracts/Staking.sol\":7005:7164  function rewardToHarvest() public view returns (uint256){\r... */\n    tag_52:\n        /* \"contracts/Staking.sol\":7053:7060  uint256 */\n      0x00\n        /* \"contracts/Staking.sol\":7117:7124  _staker */\n      0x07\n        /* \"contracts/Staking.sol\":7117:7136  _staker[msg.sender] */\n      0x00\n        /* \"contracts/Staking.sol\":7125:7135  msg.sender */\n      caller\n        /* \"contracts/Staking.sol\":7117:7136  _staker[msg.sender] */\n      0xffffffffffffffffffffffffffffffffffffffff\n      and\n      0xffffffffffffffffffffffffffffffffffffffff\n      and\n      dup2\n      mstore\n      0x20\n      add\n      swap1\n      dup2\n      mstore\n      0x20\n      add\n      0x00\n      keccak256\n        /* \"contracts/Staking.sol\":7117:7156  _staker[msg.sender].stakerCurrentReward */\n      0x00\n      add\n      sload\n        /* \"contracts/Staking.sol\":7110:7156  return _staker[msg.sender].stakerCurrentReward */\n      swap1\n      pop\n        /* \"contracts/Staking.sol\":7005:7164  function rewardToHarvest() public view returns (uint256){\r... */\n      swap1\n      jump\t// out\n        /* \"contracts/Staking.sol\":6242:6490  function setEventPeriod(uint256 __eventPeriod) external onlyOwner {\r... */\n    tag_56:\n        /* \"@openzeppelin/contracts/access/Ownable.sol\":1259:1271  _msgSender() */\n      tag_196\n        /* \"@openzeppelin/contracts/access/Ownable.sol\":1259:1269  _msgSender */\n      tag_168\n        /* \"@openzeppelin/contracts/access/Ownable.sol\":1259:1271  _msgSender() */\n      jump\t// in\n    tag_196:\n        /* \"@openzeppelin/contracts/access/Ownable.sol\":1248:1271  owner() == _msgSender() */\n      0xffffffffffffffffffffffffffffffffffffffff\n      and\n        /* \"@openzeppelin/contracts/access/Ownable.sol\":1248:1255  owner() */\n      tag_197\n        /* \"@openzeppelin/contracts/access/Ownable.sol\":1248:1253  owner */\n      tag_69\n        /* \"@openzeppelin/contracts/access/Ownable.sol\":1248:1255  owner() */\n      jump\t// in\n    tag_197:\n        /* \"@openzeppelin/contracts/access/Ownable.sol\":1248:1271  owner() == _msgSender() */\n      0xffffffffffffffffffffffffffffffffffffffff\n      and\n      eq\n        /* \"@openzeppelin/contracts/access/Ownable.sol\":1240:1308  require(owner() == _msgSender(), \"Ownable: caller is not the owner\") */\n      tag_198\n      jumpi\n      mload(0x40)\n      0x08c379a000000000000000000000000000000000000000000000000000000000\n      dup2\n      mstore\n      0x04\n      add\n      tag_199\n      swap1\n      tag_172\n      jump\t// in\n    tag_199:\n      mload(0x40)\n      dup1\n      swap2\n      sub\n      swap1\n      revert\n    tag_198:\n        /* \"contracts/Staking.sol\":6353:6354  0 */\n      0x00\n        /* \"contracts/Staking.sol\":6337:6350  __eventPeriod */\n      dup2\n        /* \"contracts/Staking.sol\":6337:6354  __eventPeriod > 0 */\n      gt\n        /* \"contracts/Staking.sol\":6329:6382  require(__eventPeriod > 0, \"Invalid Lockup Duration\") */\n      tag_201\n      jumpi\n      mload(0x40)\n      0x08c379a000000000000000000000000000000000000000000000000000000000\n      dup2\n      mstore\n      0x04\n      add\n      tag_202\n      swap1\n      tag_203\n      jump\t// in\n    tag_202:\n      mload(0x40)\n      dup1\n      swap2\n      sub\n      swap1\n      revert\n    tag_201:\n        /* \"contracts/Staking.sol\":6410:6435  __eventPeriod.mul(1 days) */\n      tag_204\n        /* \"contracts/Staking.sol\":6428:6434  1 days */\n      0x015180\n        /* \"contracts/Staking.sol\":6410:6423  __eventPeriod */\n      dup3\n        /* \"contracts/Staking.sol\":6410:6427  __eventPeriod.mul */\n      tag_138\n      swap1\n        /* \"contracts/Staking.sol\":6410:6435  __eventPeriod.mul(1 days) */\n      swap2\n      swap1\n      0xffffffff\n      and\n      jump\t// in\n    tag_204:\n        /* \"contracts/Staking.sol\":6395:6407  _eventPeriod */\n      0x02\n        /* \"contracts/Staking.sol\":6395:6435  _eventPeriod = __eventPeriod.mul(1 days) */\n      dup2\n      swap1\n      sstore\n      pop\n        /* \"contracts/Staking.sol\":6453:6482  SetEventPeriod(__eventPeriod) */\n      0x189bda9782663c67a3f95c0aa5455924c711210b00281c60ead2f0dd8dbc924c\n        /* \"contracts/Staking.sol\":6468:6481  __eventPeriod */\n      dup2\n        /* \"contracts/Staking.sol\":6453:6482  SetEventPeriod(__eventPeriod) */\n      mload(0x40)\n      tag_205\n      swap2\n      swap1\n      tag_31\n      jump\t// in\n    tag_205:\n      mload(0x40)\n      dup1\n      swap2\n      sub\n      swap1\n      log1\n        /* \"contracts/Staking.sol\":6242:6490  function setEventPeriod(uint256 __eventPeriod) external onlyOwner {\r... */\n      pop\n      jump\t// out\n        /* \"@openzeppelin/contracts/access/Ownable.sol\":1668:1769  function renounceOwnership() public virtual onlyOwner {... */\n    tag_58:\n        /* \"@openzeppelin/contracts/access/Ownable.sol\":1259:1271  _msgSender() */\n      tag_207\n        /* \"@openzeppelin/contracts/access/Ownable.sol\":1259:1269  _msgSender */\n      tag_168\n        /* \"@openzeppelin/contracts/access/Ownable.sol\":1259:1271  _msgSender() */\n      jump\t// in\n    tag_207:\n        /* \"@openzeppelin/contracts/access/Ownable.sol\":1248:1271  owner() == _msgSender() */\n      0xffffffffffffffffffffffffffffffffffffffff\n      and\n        /* \"@openzeppelin/contracts/access/Ownable.sol\":1248:1255  owner() */\n      tag_208\n        /* \"@openzeppelin/contracts/access/Ownable.sol\":1248:1253  owner */\n      tag_69\n        /* \"@openzeppelin/contracts/access/Ownable.sol\":1248:1255  owner() */\n      jump\t// in\n    tag_208:\n        /* \"@openzeppelin/contracts/access/Ownable.sol\":1248:1271  owner() == _msgSender() */\n      0xffffffffffffffffffffffffffffffffffffffff\n      and\n      eq\n        /* \"@openzeppelin/contracts/access/Ownable.sol\":1240:1308  require(owner() == _msgSender(), \"Ownable: caller is not the owner\") */\n      tag_209\n      jumpi\n      mload(0x40)\n      0x08c379a000000000000000000000000000000000000000000000000000000000\n      dup2\n      mstore\n      0x04\n      add\n      tag_210\n      swap1\n      tag_172\n      jump\t// in\n    tag_210:\n      mload(0x40)\n      dup1\n      swap2\n      sub\n      swap1\n      revert\n    tag_209:\n        /* \"@openzeppelin/contracts/access/Ownable.sol\":1732:1762  _transferOwnership(address(0)) */\n      tag_212\n        /* \"@openzeppelin/contracts/access/Ownable.sol\":1759:1760  0 */\n      0x00\n        /* \"@openzeppelin/contracts/access/Ownable.sol\":1732:1750  _transferOwnership */\n      tag_213\n        /* \"@openzeppelin/contracts/access/Ownable.sol\":1732:1762  _transferOwnership(address(0)) */\n      jump\t// in\n    tag_212:\n        /* \"@openzeppelin/contracts/access/Ownable.sol\":1668:1769  function renounceOwnership() public virtual onlyOwner {... */\n      jump\t// out\n        /* \"contracts/Staking.sol\":4680:4772  function getRewardRate() public view returns (uint256) {\r... */\n    tag_60:\n        /* \"contracts/Staking.sol\":4726:4733  uint256 */\n      0x00\n        /* \"contracts/Staking.sol\":4753:4764  _rewardRate */\n      sload(0x03)\n        /* \"contracts/Staking.sol\":4746:4764  return _rewardRate */\n      swap1\n      pop\n        /* \"contracts/Staking.sol\":4680:4772  function getRewardRate() public view returns (uint256) {\r... */\n      swap1\n      jump\t// out\n        /* \"contracts/Staking.sol\":1043:1069  uint256 public totalStaked */\n    tag_63:\n      sload(0x08)\n      dup2\n      jump\t// out\n        /* \"contracts/Staking.sol\":3948:4058  function isStartStaking() public view returns (uint256) {\r... */\n    tag_66:\n        /* \"contracts/Staking.sol\":3995:4002  uint256 */\n      0x00\n        /* \"contracts/Staking.sol\":4024:4031  _staker */\n      0x07\n        /* \"contracts/Staking.sol\":4024:4043  _staker[msg.sender] */\n      0x00\n        /* \"contracts/Staking.sol\":4032:4042  msg.sender */\n      caller\n        /* \"contracts/Staking.sol\":4024:4043  _staker[msg.sender] */\n      0xffffffffffffffffffffffffffffffffffffffff\n      and\n      0xffffffffffffffffffffffffffffffffffffffff\n      and\n      dup2\n      mstore\n      0x20\n      add\n      swap1\n      dup2\n      mstore\n      0x20\n      add\n      0x00\n      keccak256\n        /* \"contracts/Staking.sol\":4024:4050  _staker[msg.sender].staked */\n      0x05\n      add\n      sload\n        /* \"contracts/Staking.sol\":4017:4050  return _staker[msg.sender].staked */\n      swap1\n      pop\n        /* \"contracts/Staking.sol\":3948:4058  function isStartStaking() public view returns (uint256) {\r... */\n      swap1\n      jump\t// out\n        /* \"@openzeppelin/contracts/access/Ownable.sol\":1036:1121  function owner() public view virtual returns (address) {... */\n    tag_69:\n        /* \"@openzeppelin/contracts/access/Ownable.sol\":1082:1089  address */\n      0x00\n        /* \"@openzeppelin/contracts/access/Ownable.sol\":1108:1114  _owner */\n      dup1\n      0x00\n      swap1\n      sload\n      swap1\n      0x0100\n      exp\n      swap1\n      div\n      0xffffffffffffffffffffffffffffffffffffffff\n      and\n        /* \"@openzeppelin/contracts/access/Ownable.sol\":1101:1114  return _owner */\n      swap1\n      pop\n        /* \"@openzeppelin/contracts/access/Ownable.sol\":1036:1121  function owner() public view virtual returns (address) {... */\n      swap1\n      jump\t// out\n        /* \"contracts/Staking.sol\":6498:6772  function setUnstakingFeeRate(uint256 __unstakingFeeRate) external onlyOwner {\r... */\n    tag_74:\n        /* \"@openzeppelin/contracts/access/Ownable.sol\":1259:1271  _msgSender() */\n      tag_218\n        /* \"@openzeppelin/contracts/access/Ownable.sol\":1259:1269  _msgSender */\n      tag_168\n        /* \"@openzeppelin/contracts/access/Ownable.sol\":1259:1271  _msgSender() */\n      jump\t// in\n    tag_218:\n        /* \"@openzeppelin/contracts/access/Ownable.sol\":1248:1271  owner() == _msgSender() */\n      0xffffffffffffffffffffffffffffffffffffffff\n      and\n        /* \"@openzeppelin/contracts/access/Ownable.sol\":1248:1255  owner() */\n      tag_219\n        /* \"@openzeppelin/contracts/access/Ownable.sol\":1248:1253  owner */\n      tag_69\n        /* \"@openzeppelin/contracts/access/Ownable.sol\":1248:1255  owner() */\n      jump\t// in\n    tag_219:\n        /* \"@openzeppelin/contracts/access/Ownable.sol\":1248:1271  owner() == _msgSender() */\n      0xffffffffffffffffffffffffffffffffffffffff\n      and\n      eq\n        /* \"@openzeppelin/contracts/access/Ownable.sol\":1240:1308  require(owner() == _msgSender(), \"Ownable: caller is not the owner\") */\n      tag_220\n      jumpi\n      mload(0x40)\n      0x08c379a000000000000000000000000000000000000000000000000000000000\n      dup2\n      mstore\n      0x04\n      add\n      tag_221\n      swap1\n      tag_172\n      jump\t// in\n    tag_221:\n      mload(0x40)\n      dup1\n      swap2\n      sub\n      swap1\n      revert\n    tag_220:\n        /* \"contracts/Staking.sol\":6624:6625  0 */\n      0x00\n        /* \"contracts/Staking.sol\":6603:6621  __unstakingFeeRate */\n      dup2\n        /* \"contracts/Staking.sol\":6603:6625  __unstakingFeeRate > 0 */\n      gt\n        /* \"contracts/Staking.sol\":6595:6656  require(__unstakingFeeRate > 0, \"Invalid Unstaking Fee Rate\") */\n      tag_223\n      jumpi\n      mload(0x40)\n      0x08c379a000000000000000000000000000000000000000000000000000000000\n      dup2\n      mstore\n      0x04\n      add\n      tag_224\n      swap1\n      tag_225\n      jump\t// in\n    tag_224:\n      mload(0x40)\n      dup1\n      swap2\n      sub\n      swap1\n      revert\n    tag_223:\n        /* \"contracts/Staking.sol\":6689:6707  __unstakingFeeRate */\n      dup1\n        /* \"contracts/Staking.sol\":6669:6686  _unstakingFeeRate */\n      0x01\n        /* \"contracts/Staking.sol\":6669:6707  _unstakingFeeRate = __unstakingFeeRate */\n      dup2\n      swap1\n      sstore\n      pop\n        /* \"contracts/Staking.sol\":6725:6764  SetUnstakingFeeRate(__unstakingFeeRate) */\n      0x150c688dd7595bf7862b8ab1fe46756450eb7d731037942b3bbc46f3f0e21b81\n        /* \"contracts/Staking.sol\":6745:6763  __unstakingFeeRate */\n      dup2\n        /* \"contracts/Staking.sol\":6725:6764  SetUnstakingFeeRate(__unstakingFeeRate) */\n      mload(0x40)\n      tag_226\n      swap2\n      swap1\n      tag_31\n      jump\t// in\n    tag_226:\n      mload(0x40)\n      dup1\n      swap2\n      sub\n      swap1\n      log1\n        /* \"contracts/Staking.sol\":6498:6772  function setUnstakingFeeRate(uint256 __unstakingFeeRate) external onlyOwner {\r... */\n      pop\n      jump\t// out\n        /* \"contracts/Staking.sol\":6007:6234  function setRewardRate(uint256 __rewardRate) external onlyOwner {\r... */\n    tag_77:\n        /* \"@openzeppelin/contracts/access/Ownable.sol\":1259:1271  _msgSender() */\n      tag_228\n        /* \"@openzeppelin/contracts/access/Ownable.sol\":1259:1269  _msgSender */\n      tag_168\n        /* \"@openzeppelin/contracts/access/Ownable.sol\":1259:1271  _msgSender() */\n      jump\t// in\n    tag_228:\n        /* \"@openzeppelin/contracts/access/Ownable.sol\":1248:1271  owner() == _msgSender() */\n      0xffffffffffffffffffffffffffffffffffffffff\n      and\n        /* \"@openzeppelin/contracts/access/Ownable.sol\":1248:1255  owner() */\n      tag_229\n        /* \"@openzeppelin/contracts/access/Ownable.sol\":1248:1253  owner */\n      tag_69\n        /* \"@openzeppelin/contracts/access/Ownable.sol\":1248:1255  owner() */\n      jump\t// in\n    tag_229:\n        /* \"@openzeppelin/contracts/access/Ownable.sol\":1248:1271  owner() == _msgSender() */\n      0xffffffffffffffffffffffffffffffffffffffff\n      and\n      eq\n        /* \"@openzeppelin/contracts/access/Ownable.sol\":1240:1308  require(owner() == _msgSender(), \"Ownable: caller is not the owner\") */\n      tag_230\n      jumpi\n      mload(0x40)\n      0x08c379a000000000000000000000000000000000000000000000000000000000\n      dup2\n      mstore\n      0x04\n      add\n      tag_231\n      swap1\n      tag_172\n      jump\t// in\n    tag_231:\n      mload(0x40)\n      dup1\n      swap2\n      sub\n      swap1\n      revert\n    tag_230:\n        /* \"contracts/Staking.sol\":6115:6116  0 */\n      0x00\n        /* \"contracts/Staking.sol\":6100:6112  __rewardRate */\n      dup2\n        /* \"contracts/Staking.sol\":6100:6116  __rewardRate > 0 */\n      gt\n        /* \"contracts/Staking.sol\":6092:6134  require(__rewardRate > 0, \"Invalid value\") */\n      tag_233\n      jumpi\n      mload(0x40)\n      0x08c379a000000000000000000000000000000000000000000000000000000000\n      dup2\n      mstore\n      0x04\n      add\n      tag_234\n      swap1\n      tag_235\n      jump\t// in\n    tag_234:\n      mload(0x40)\n      dup1\n      swap2\n      sub\n      swap1\n      revert\n    tag_233:\n        /* \"contracts/Staking.sol\":6169:6181  __rewardRate */\n      dup1\n        /* \"contracts/Staking.sol\":6155:6166  _rewardRate */\n      0x03\n        /* \"contracts/Staking.sol\":6155:6181  _rewardRate = __rewardRate */\n      dup2\n      swap1\n      sstore\n      pop\n        /* \"contracts/Staking.sol\":6199:6226  SetRewardRate(__rewardRate) */\n      0x1946fb78c7ca778b54d82cabaac5ba67cf446f58d0ff1f8ceaebb6150e54e44f\n        /* \"contracts/Staking.sol\":6213:6225  __rewardRate */\n      dup2\n        /* \"contracts/Staking.sol\":6199:6226  SetRewardRate(__rewardRate) */\n      mload(0x40)\n      tag_236\n      swap2\n      swap1\n      tag_31\n      jump\t// in\n    tag_236:\n      mload(0x40)\n      dup1\n      swap2\n      sub\n      swap1\n      log1\n        /* \"contracts/Staking.sol\":6007:6234  function setRewardRate(uint256 __rewardRate) external onlyOwner {\r... */\n      pop\n      jump\t// out\n        /* \"contracts/Staking.sol\":4066:4393  function isLocked() public view returns (uint256) {\r... */\n    tag_79:\n        /* \"contracts/Staking.sol\":4107:4114  uint256 */\n      0x00\n        /* \"contracts/Staking.sol\":4163:4167  0x55 */\n      0x55\n        /* \"contracts/Staking.sol\":4133:4140  _staker */\n      0x07\n        /* \"contracts/Staking.sol\":4133:4152  _staker[msg.sender] */\n      0x00\n        /* \"contracts/Staking.sol\":4141:4151  msg.sender */\n      caller\n        /* \"contracts/Staking.sol\":4133:4152  _staker[msg.sender] */\n      0xffffffffffffffffffffffffffffffffffffffff\n      and\n      0xffffffffffffffffffffffffffffffffffffffff\n      and\n      dup2\n      mstore\n      0x20\n      add\n      swap1\n      dup2\n      mstore\n      0x20\n      add\n      0x00\n      keccak256\n        /* \"contracts/Staking.sol\":4133:4159  _staker[msg.sender].staked */\n      0x05\n      add\n      sload\n        /* \"contracts/Staking.sol\":4133:4167  _staker[msg.sender].staked != 0x55 */\n      eq\n        /* \"contracts/Staking.sol\":4129:4190  if (_staker[msg.sender].staked != 0x55)\r... */\n      tag_238\n      jumpi\n        /* \"contracts/Staking.sol\":4189:4190  1 */\n      0x01\n        /* \"contracts/Staking.sol\":4182:4190  return 1 */\n      swap1\n      pop\n      jump(tag_237)\n        /* \"contracts/Staking.sol\":4129:4190  if (_staker[msg.sender].staked != 0x55)\r... */\n    tag_238:\n        /* \"contracts/Staking.sol\":4233:4234  1 */\n      0x01\n        /* \"contracts/Staking.sol\":4205:4212  _staker */\n      0x07\n        /* \"contracts/Staking.sol\":4205:4224  _staker[msg.sender] */\n      0x00\n        /* \"contracts/Staking.sol\":4213:4223  msg.sender */\n      caller\n        /* \"contracts/Staking.sol\":4205:4224  _staker[msg.sender] */\n      0xffffffffffffffffffffffffffffffffffffffff\n      and\n      0xffffffffffffffffffffffffffffffffffffffff\n      and\n      dup2\n      mstore\n      0x20\n      add\n      swap1\n      dup2\n      mstore\n      0x20\n      add\n      0x00\n      keccak256\n        /* \"contracts/Staking.sol\":4205:4229  _staker[msg.sender].mode */\n      0x02\n      add\n      sload\n        /* \"contracts/Staking.sol\":4205:4234  _staker[msg.sender].mode == 1 */\n      eq\n        /* \"contracts/Staking.sol\":4201:4385  if (_staker[msg.sender].mode == 1)\r... */\n      iszero\n      tag_239\n      jumpi\n        /* \"contracts/Staking.sol\":4338:4339  0 */\n      0x00\n        /* \"contracts/Staking.sol\":4327:4333  7 days */\n      0x093a80\n        /* \"contracts/Staking.sol\":4256:4323  block.timestamp.sub(_staker[msg.sender].stakeStartTime).div(1 days) */\n      tag_240\n        /* \"contracts/Staking.sol\":4316:4322  1 days */\n      0x015180\n        /* \"contracts/Staking.sol\":4256:4311  block.timestamp.sub(_staker[msg.sender].stakeStartTime) */\n      tag_241\n        /* \"contracts/Staking.sol\":4276:4283  _staker */\n      0x07\n        /* \"contracts/Staking.sol\":4276:4295  _staker[msg.sender] */\n      0x00\n        /* \"contracts/Staking.sol\":4284:4294  msg.sender */\n      caller\n        /* \"contracts/Staking.sol\":4276:4295  _staker[msg.sender] */\n      0xffffffffffffffffffffffffffffffffffffffff\n      and\n      0xffffffffffffffffffffffffffffffffffffffff\n      and\n      dup2\n      mstore\n      0x20\n      add\n      swap1\n      dup2\n      mstore\n      0x20\n      add\n      0x00\n      keccak256\n        /* \"contracts/Staking.sol\":4276:4310  _staker[msg.sender].stakeStartTime */\n      0x03\n      add\n      sload\n        /* \"contracts/Staking.sol\":4256:4271  block.timestamp */\n      timestamp\n        /* \"contracts/Staking.sol\":4256:4275  block.timestamp.sub */\n      tag_125\n      swap1\n        /* \"contracts/Staking.sol\":4256:4311  block.timestamp.sub(_staker[msg.sender].stakeStartTime) */\n      swap2\n      swap1\n      0xffffffff\n      and\n      jump\t// in\n    tag_241:\n        /* \"contracts/Staking.sol\":4256:4315  block.timestamp.sub(_staker[msg.sender].stakeStartTime).div */\n      tag_126\n      swap1\n        /* \"contracts/Staking.sol\":4256:4323  block.timestamp.sub(_staker[msg.sender].stakeStartTime).div(1 days) */\n      swap2\n      swap1\n      0xffffffff\n      and\n      jump\t// in\n    tag_240:\n        /* \"contracts/Staking.sol\":4256:4334  block.timestamp.sub(_staker[msg.sender].stakeStartTime).div(1 days) % (7 days) */\n      tag_242\n      swap2\n      swap1\n      tag_132\n      jump\t// in\n    tag_242:\n        /* \"contracts/Staking.sol\":4256:4339  block.timestamp.sub(_staker[msg.sender].stakeStartTime).div(1 days) % (7 days) == 0 */\n      eq\n        /* \"contracts/Staking.sol\":4256:4347  block.timestamp.sub(_staker[msg.sender].stakeStartTime).div(1 days) % (7 days) == 0 ? 0 : 1 */\n      tag_243\n      jumpi\n        /* \"contracts/Staking.sol\":4346:4347  1 */\n      0x01\n        /* \"contracts/Staking.sol\":4256:4347  block.timestamp.sub(_staker[msg.sender].stakeStartTime).div(1 days) % (7 days) == 0 ? 0 : 1 */\n      jump(tag_244)\n    tag_243:\n        /* \"contracts/Staking.sol\":4342:4343  0 */\n      0x00\n        /* \"contracts/Staking.sol\":4256:4347  block.timestamp.sub(_staker[msg.sender].stakeStartTime).div(1 days) % (7 days) == 0 ? 0 : 1 */\n    tag_244:\n        /* \"contracts/Staking.sol\":4249:4347  return block.timestamp.sub(_staker[msg.sender].stakeStartTime).div(1 days) % (7 days) == 0 ? 0 : 1 */\n      0xff\n      and\n      swap1\n      pop\n      jump(tag_237)\n        /* \"contracts/Staking.sol\":4201:4385  if (_staker[msg.sender].mode == 1)\r... */\n    tag_239:\n        /* \"contracts/Staking.sol\":4384:4385  0 */\n      0x00\n        /* \"contracts/Staking.sol\":4377:4385  return 0 */\n      swap1\n      pop\n        /* \"contracts/Staking.sol\":4066:4393  function isLocked() public view returns (uint256) {\r... */\n    tag_237:\n      swap1\n      jump\t// out\n        /* \"contracts/Staking.sol\":3011:3611  function stake(uint256 _amount) public{\r... */\n    tag_83:\n        /* \"contracts/Staking.sol\":3088:3089  0 */\n      0x00\n        /* \"contracts/Staking.sol\":3078:3085  _amount */\n      dup2\n        /* \"contracts/Staking.sol\":3078:3089  _amount > 0 */\n      gt\n        /* \"contracts/Staking.sol\":3070:3125  require(_amount > 0, \"Amount should be greater than 0\") */\n      tag_247\n      jumpi\n      mload(0x40)\n      0x08c379a000000000000000000000000000000000000000000000000000000000\n      dup2\n      mstore\n      0x04\n      add\n      tag_248\n      swap1\n      tag_104\n      jump\t// in\n    tag_248:\n      mload(0x40)\n      dup1\n      swap2\n      sub\n      swap1\n      revert\n    tag_247:\n        /* \"contracts/Staking.sol\":3174:3181  _amount */\n      dup1\n        /* \"contracts/Staking.sol\":3144:3149  token */\n      0x09\n      0x00\n      swap1\n      sload\n      swap1\n      0x0100\n      exp\n      swap1\n      div\n      0xffffffffffffffffffffffffffffffffffffffff\n      and\n        /* \"contracts/Staking.sol\":3144:3159  token.balanceOf */\n      0xffffffffffffffffffffffffffffffffffffffff\n      and\n      0x70a08231\n        /* \"contracts/Staking.sol\":3160:3170  msg.sender */\n      caller\n        /* \"contracts/Staking.sol\":3144:3171  token.balanceOf(msg.sender) */\n      mload(0x40)\n      dup3\n      0xffffffff\n      and\n      0xe0\n      shl\n      dup2\n      mstore\n      0x04\n      add\n      tag_249\n      swap2\n      swap1\n      tag_71\n      jump\t// in\n    tag_249:\n      0x20\n      mload(0x40)\n      dup1\n      dup4\n      sub\n      dup2\n      dup7\n      dup1\n      extcodesize\n      iszero\n      dup1\n      iszero\n      tag_250\n      jumpi\n      0x00\n      dup1\n      revert\n    tag_250:\n      pop\n      gas\n      staticcall\n      iszero\n      dup1\n      iszero\n      tag_252\n      jumpi\n      returndatasize\n      0x00\n      dup1\n      returndatacopy\n      revert(0x00, returndatasize)\n    tag_252:\n      pop\n      pop\n      pop\n      pop\n      mload(0x40)\n      returndatasize\n      not(0x1f)\n      0x1f\n      dup3\n      add\n      and\n      dup3\n      add\n      dup1\n      0x40\n      mstore\n      pop\n      dup2\n      add\n      swap1\n      tag_253\n      swap2\n      swap1\n      tag_115\n      jump\t// in\n    tag_253:\n        /* \"contracts/Staking.sol\":3144:3181  token.balanceOf(msg.sender) > _amount */\n      gt\n        /* \"contracts/Staking.sol\":3136:3199  require(token.balanceOf(msg.sender) > _amount, \"Insufficient!\") */\n      tag_254\n      jumpi\n      mload(0x40)\n      0x08c379a000000000000000000000000000000000000000000000000000000000\n      dup2\n      mstore\n      0x04\n      add\n      tag_255\n      swap1\n      tag_187\n      jump\t// in\n    tag_255:\n      mload(0x40)\n      dup1\n      swap2\n      sub\n      swap1\n      revert\n    tag_254:\n        /* \"contracts/Staking.sol\":3248:3252  0x55 */\n      0x55\n        /* \"contracts/Staking.sol\":3218:3225  _staker */\n      0x07\n        /* \"contracts/Staking.sol\":3218:3237  _staker[msg.sender] */\n      0x00\n        /* \"contracts/Staking.sol\":3226:3236  msg.sender */\n      caller\n        /* \"contracts/Staking.sol\":3218:3237  _staker[msg.sender] */\n      0xffffffffffffffffffffffffffffffffffffffff\n      and\n      0xffffffffffffffffffffffffffffffffffffffff\n      and\n      dup2\n      mstore\n      0x20\n      add\n      swap1\n      dup2\n      mstore\n      0x20\n      add\n      0x00\n      keccak256\n        /* \"contracts/Staking.sol\":3218:3244  _staker[msg.sender].staked */\n      0x05\n      add\n      sload\n        /* \"contracts/Staking.sol\":3218:3252  _staker[msg.sender].staked == 0x55 */\n      eq\n        /* \"contracts/Staking.sol\":3210:3278  require(_staker[msg.sender].staked == 0x55, \"Error: invalid staker\") */\n      tag_256\n      jumpi\n      mload(0x40)\n      0x08c379a000000000000000000000000000000000000000000000000000000000\n      dup2\n      mstore\n      0x04\n      add\n      tag_257\n      swap1\n      tag_258\n      jump\t// in\n    tag_257:\n      mload(0x40)\n      dup1\n      swap2\n      sub\n      swap1\n      revert\n    tag_256:\n        /* \"contracts/Staking.sol\":3299:3313  updateReward() */\n      tag_259\n        /* \"contracts/Staking.sol\":3299:3311  updateReward */\n      tag_109\n        /* \"contracts/Staking.sol\":3299:3313  updateReward() */\n      jump\t// in\n    tag_259:\n        /* \"contracts/Staking.sol\":3324:3345  Staker storage staker */\n      0x00\n        /* \"contracts/Staking.sol\":3348:3355  _staker */\n      0x07\n        /* \"contracts/Staking.sol\":3348:3367  _staker[msg.sender] */\n      0x00\n        /* \"contracts/Staking.sol\":3356:3366  msg.sender */\n      caller\n        /* \"contracts/Staking.sol\":3348:3367  _staker[msg.sender] */\n      0xffffffffffffffffffffffffffffffffffffffff\n      and\n      0xffffffffffffffffffffffffffffffffffffffff\n      and\n      dup2\n      mstore\n      0x20\n      add\n      swap1\n      dup2\n      mstore\n      0x20\n      add\n      0x00\n      keccak256\n        /* \"contracts/Staking.sol\":3324:3367  Staker storage staker = _staker[msg.sender] */\n      swap1\n      pop\n        /* \"contracts/Staking.sol\":3378:3436  token.safeTransferFrom(msg.sender, address(this), _amount) */\n      tag_260\n        /* \"contracts/Staking.sol\":3401:3411  msg.sender */\n      caller\n        /* \"contracts/Staking.sol\":3421:3425  this */\n      address\n        /* \"contracts/Staking.sol\":3428:3435  _amount */\n      dup5\n        /* \"contracts/Staking.sol\":3378:3383  token */\n      0x09\n      0x00\n      swap1\n      sload\n      swap1\n      0x0100\n      exp\n      swap1\n      div\n      0xffffffffffffffffffffffffffffffffffffffff\n      and\n        /* \"contracts/Staking.sol\":3378:3400  token.safeTransferFrom */\n      0xffffffffffffffffffffffffffffffffffffffff\n      and\n      tag_261\n      swap1\n        /* \"contracts/Staking.sol\":3378:3436  token.safeTransferFrom(msg.sender, address(this), _amount) */\n      swap4\n      swap3\n      swap2\n      swap1\n      0xffffffff\n      and\n      jump\t// in\n    tag_260:\n        /* \"contracts/Staking.sol\":3469:3501  staker.stakedAmount.add(_amount) */\n      tag_262\n        /* \"contracts/Staking.sol\":3493:3500  _amount */\n      dup3\n        /* \"contracts/Staking.sol\":3469:3475  staker */\n      dup3\n        /* \"contracts/Staking.sol\":3469:3488  staker.stakedAmount */\n      0x01\n      add\n      sload\n        /* \"contracts/Staking.sol\":3469:3492  staker.stakedAmount.add */\n      tag_129\n      swap1\n        /* \"contracts/Staking.sol\":3469:3501  staker.stakedAmount.add(_amount) */\n      swap2\n      swap1\n      0xffffffff\n      and\n      jump\t// in\n    tag_262:\n        /* \"contracts/Staking.sol\":3447:3453  staker */\n      dup2\n        /* \"contracts/Staking.sol\":3447:3466  staker.stakedAmount */\n      0x01\n      add\n        /* \"contracts/Staking.sol\":3447:3501  staker.stakedAmount = staker.stakedAmount.add(_amount) */\n      dup2\n      swap1\n      sstore\n      pop\n        /* \"contracts/Staking.sol\":3526:3550  totalStaked.add(_amount) */\n      tag_263\n        /* \"contracts/Staking.sol\":3542:3549  _amount */\n      dup3\n        /* \"contracts/Staking.sol\":3526:3537  totalStaked */\n      sload(0x08)\n        /* \"contracts/Staking.sol\":3526:3541  totalStaked.add */\n      tag_129\n      swap1\n        /* \"contracts/Staking.sol\":3526:3550  totalStaked.add(_amount) */\n      swap2\n      swap1\n      0xffffffff\n      and\n      jump\t// in\n    tag_263:\n        /* \"contracts/Staking.sol\":3512:3523  totalStaked */\n      0x08\n        /* \"contracts/Staking.sol\":3512:3550  totalStaked = totalStaked.add(_amount) */\n      dup2\n      swap1\n      sstore\n      pop\n        /* \"contracts/Staking.sol\":3576:3603  Staked(msg.sender, _amount) */\n      0x9e71bc8eea02a63969f509818f2dafb9254532904319f9dbda79b67bd34a5f3d\n        /* \"contracts/Staking.sol\":3583:3593  msg.sender */\n      caller\n        /* \"contracts/Staking.sol\":3595:3602  _amount */\n      dup4\n        /* \"contracts/Staking.sol\":3576:3603  Staked(msg.sender, _amount) */\n      mload(0x40)\n      tag_264\n      swap3\n      swap2\n      swap1\n      tag_144\n      jump\t// in\n    tag_264:\n      mload(0x40)\n      dup1\n      swap2\n      sub\n      swap1\n      log1\n        /* \"contracts/Staking.sol\":3049:3611  {\r... */\n      pop\n        /* \"contracts/Staking.sol\":3011:3611  function stake(uint256 _amount) public{\r... */\n      pop\n      jump\t// out\n        /* \"@openzeppelin/contracts/access/Ownable.sol\":1918:2116  function transferOwnership(address newOwner) public virtual onlyOwner {... */\n    tag_87:\n        /* \"@openzeppelin/contracts/access/Ownable.sol\":1259:1271  _msgSender() */\n      tag_266\n        /* \"@openzeppelin/contracts/access/Ownable.sol\":1259:1269  _msgSender */\n      tag_168\n        /* \"@openzeppelin/contracts/access/Ownable.sol\":1259:1271  _msgSender() */\n      jump\t// in\n    tag_266:\n        /* \"@openzeppelin/contracts/access/Ownable.sol\":1248:1271  owner() == _msgSender() */\n      0xffffffffffffffffffffffffffffffffffffffff\n      and\n        /* \"@openzeppelin/contracts/access/Ownable.sol\":1248:1255  owner() */\n      tag_267\n        /* \"@openzeppelin/contracts/access/Ownable.sol\":1248:1253  owner */\n      tag_69\n        /* \"@openzeppelin/contracts/access/Ownable.sol\":1248:1255  owner() */\n      jump\t// in\n    tag_267:\n        /* \"@openzeppelin/contracts/access/Ownable.sol\":1248:1271  owner() == _msgSender() */\n      0xffffffffffffffffffffffffffffffffffffffff\n      and\n      eq\n        /* \"@openzeppelin/contracts/access/Ownable.sol\":1240:1308  require(owner() == _msgSender(), \"Ownable: caller is not the owner\") */\n      tag_268\n      jumpi\n      mload(0x40)\n      0x08c379a000000000000000000000000000000000000000000000000000000000\n      dup2\n      mstore\n      0x04\n      add\n      tag_269\n      swap1\n      tag_172\n      jump\t// in\n    tag_269:\n      mload(0x40)\n      dup1\n      swap2\n      sub\n      swap1\n      revert\n    tag_268:\n        /* \"@openzeppelin/contracts/access/Ownable.sol\":2026:2027  0 */\n      0x00\n        /* \"@openzeppelin/contracts/access/Ownable.sol\":2006:2028  newOwner != address(0) */\n      0xffffffffffffffffffffffffffffffffffffffff\n      and\n        /* \"@openzeppelin/contracts/access/Ownable.sol\":2006:2014  newOwner */\n      dup2\n        /* \"@openzeppelin/contracts/access/Ownable.sol\":2006:2028  newOwner != address(0) */\n      0xffffffffffffffffffffffffffffffffffffffff\n      and\n      eq\n      iszero\n        /* \"@openzeppelin/contracts/access/Ownable.sol\":1998:2071  require(newOwner != address(0), \"Ownable: new owner is the zero address\") */\n      tag_271\n      jumpi\n      mload(0x40)\n      0x08c379a000000000000000000000000000000000000000000000000000000000\n      dup2\n      mstore\n      0x04\n      add\n      tag_272\n      swap1\n      tag_273\n      jump\t// in\n    tag_272:\n      mload(0x40)\n      dup1\n      swap2\n      sub\n      swap1\n      revert\n    tag_271:\n        /* \"@openzeppelin/contracts/access/Ownable.sol\":2081:2109  _transferOwnership(newOwner) */\n      tag_274\n        /* \"@openzeppelin/contracts/access/Ownable.sol\":2100:2108  newOwner */\n      dup2\n        /* \"@openzeppelin/contracts/access/Ownable.sol\":2081:2099  _transferOwnership */\n      tag_213\n        /* \"@openzeppelin/contracts/access/Ownable.sol\":2081:2109  _transferOwnership(newOwner) */\n      jump\t// in\n    tag_274:\n        /* \"@openzeppelin/contracts/access/Ownable.sol\":1918:2116  function transferOwnership(address newOwner) public virtual onlyOwner {... */\n      pop\n      jump\t// out\n        /* \"contracts/Staking.sol\":4553:4672  function rewardAmount() public view returns (uint256) {\r... */\n    tag_89:\n        /* \"contracts/Staking.sol\":4598:4605  uint256 */\n      0x00\n        /* \"contracts/Staking.sol\":4625:4632  _staker */\n      0x07\n        /* \"contracts/Staking.sol\":4625:4644  _staker[msg.sender] */\n      0x00\n        /* \"contracts/Staking.sol\":4633:4643  msg.sender */\n      caller\n        /* \"contracts/Staking.sol\":4625:4644  _staker[msg.sender] */\n      0xffffffffffffffffffffffffffffffffffffffff\n      and\n      0xffffffffffffffffffffffffffffffffffffffff\n      and\n      dup2\n      mstore\n      0x20\n      add\n      swap1\n      dup2\n      mstore\n      0x20\n      add\n      0x00\n      keccak256\n        /* \"contracts/Staking.sol\":4625:4664  _staker[msg.sender].stakerCurrentReward */\n      0x00\n      add\n      sload\n        /* \"contracts/Staking.sol\":4618:4664  return _staker[msg.sender].stakerCurrentReward */\n      swap1\n      pop\n        /* \"contracts/Staking.sol\":4553:4672  function rewardAmount() public view returns (uint256) {\r... */\n      swap1\n      jump\t// out\n        /* \"contracts/Staking.sol\":4405:4541  function stakedAmount(address _address) public view returns (uint256) {\r... */\n    tag_93:\n        /* \"contracts/Staking.sol\":4466:4473  uint256 */\n      0x00\n        /* \"contracts/Staking.sol\":4503:4510  _staker */\n      0x07\n        /* \"contracts/Staking.sol\":4503:4520  _staker[_address] */\n      0x00\n        /* \"contracts/Staking.sol\":4511:4519  _address */\n      dup4\n        /* \"contracts/Staking.sol\":4503:4520  _staker[_address] */\n      0xffffffffffffffffffffffffffffffffffffffff\n      and\n      0xffffffffffffffffffffffffffffffffffffffff\n      and\n      dup2\n      mstore\n      0x20\n      add\n      swap1\n      dup2\n      mstore\n      0x20\n      add\n      0x00\n      keccak256\n        /* \"contracts/Staking.sol\":4503:4533  _staker[_address].stakedAmount */\n      0x01\n      add\n      sload\n        /* \"contracts/Staking.sol\":4496:4533  return _staker[_address].stakedAmount */\n      swap1\n      pop\n        /* \"contracts/Staking.sol\":4405:4541  function stakedAmount(address _address) public view returns (uint256) {\r... */\n      swap2\n      swap1\n      pop\n      jump\t// out\n        /* \"contracts/Staking.sol\":1076:1095  IBEP20 public token */\n    tag_96:\n      0x09\n      0x00\n      swap1\n      sload\n      swap1\n      0x0100\n      exp\n      swap1\n      div\n      0xffffffffffffffffffffffffffffffffffffffff\n      and\n      dup2\n      jump\t// out\n        /* \"contracts/Staking.sol\":2038:2416  function updateReward() private{\r... */\n    tag_109:\n        /* \"contracts/Staking.sol\":2090:2111  Staker storage staker */\n      0x00\n        /* \"contracts/Staking.sol\":2114:2121  _staker */\n      0x07\n        /* \"contracts/Staking.sol\":2114:2133  _staker[msg.sender] */\n      0x00\n        /* \"contracts/Staking.sol\":2122:2132  msg.sender */\n      caller\n        /* \"contracts/Staking.sol\":2114:2133  _staker[msg.sender] */\n      0xffffffffffffffffffffffffffffffffffffffff\n      and\n      0xffffffffffffffffffffffffffffffffffffffff\n      and\n      dup2\n      mstore\n      0x20\n      add\n      swap1\n      dup2\n      mstore\n      0x20\n      add\n      0x00\n      keccak256\n        /* \"contracts/Staking.sol\":2090:2133  Staker storage staker = _staker[msg.sender] */\n      swap1\n      pop\n        /* \"contracts/Staking.sol\":2144:2161  uint256 newReward */\n      0x00\n        /* \"contracts/Staking.sol\":2164:2272  staker.stakedAmount.mul(block.number.sub(staker.lastUpdatedBlockNumber).div(8640)).mul(_rewardRate).div(1e4) */\n      tag_278\n        /* \"contracts/Staking.sol\":2268:2271  1e4 */\n      0x2710\n        /* \"contracts/Staking.sol\":2164:2263  staker.stakedAmount.mul(block.number.sub(staker.lastUpdatedBlockNumber).div(8640)).mul(_rewardRate) */\n      tag_279\n        /* \"contracts/Staking.sol\":2251:2262  _rewardRate */\n      sload(0x03)\n        /* \"contracts/Staking.sol\":2164:2246  staker.stakedAmount.mul(block.number.sub(staker.lastUpdatedBlockNumber).div(8640)) */\n      tag_280\n        /* \"contracts/Staking.sol\":2188:2245  block.number.sub(staker.lastUpdatedBlockNumber).div(8640) */\n      tag_281\n        /* \"contracts/Staking.sol\":2240:2244  8640 */\n      0x21c0\n        /* \"contracts/Staking.sol\":2188:2235  block.number.sub(staker.lastUpdatedBlockNumber) */\n      tag_282\n        /* \"contracts/Staking.sol\":2205:2211  staker */\n      dup10\n        /* \"contracts/Staking.sol\":2205:2234  staker.lastUpdatedBlockNumber */\n      0x04\n      add\n      sload\n        /* \"contracts/Staking.sol\":2188:2200  block.number */\n      number\n        /* \"contracts/Staking.sol\":2188:2204  block.number.sub */\n      tag_125\n      swap1\n        /* \"contracts/Staking.sol\":2188:2235  block.number.sub(staker.lastUpdatedBlockNumber) */\n      swap2\n      swap1\n      0xffffffff\n      and\n      jump\t// in\n    tag_282:\n        /* \"contracts/Staking.sol\":2188:2239  block.number.sub(staker.lastUpdatedBlockNumber).div */\n      tag_126\n      swap1\n        /* \"contracts/Staking.sol\":2188:2245  block.number.sub(staker.lastUpdatedBlockNumber).div(8640) */\n      swap2\n      swap1\n      0xffffffff\n      and\n      jump\t// in\n    tag_281:\n        /* \"contracts/Staking.sol\":2164:2170  staker */\n      dup8\n        /* \"contracts/Staking.sol\":2164:2183  staker.stakedAmount */\n      0x01\n      add\n      sload\n        /* \"contracts/Staking.sol\":2164:2187  staker.stakedAmount.mul */\n      tag_138\n      swap1\n        /* \"contracts/Staking.sol\":2164:2246  staker.stakedAmount.mul(block.number.sub(staker.lastUpdatedBlockNumber).div(8640)) */\n      swap2\n      swap1\n      0xffffffff\n      and\n      jump\t// in\n    tag_280:\n        /* \"contracts/Staking.sol\":2164:2250  staker.stakedAmount.mul(block.number.sub(staker.lastUpdatedBlockNumber).div(8640)).mul */\n      tag_138\n      swap1\n        /* \"contracts/Staking.sol\":2164:2263  staker.stakedAmount.mul(block.number.sub(staker.lastUpdatedBlockNumber).div(8640)).mul(_rewardRate) */\n      swap2\n      swap1\n      0xffffffff\n      and\n      jump\t// in\n    tag_279:\n        /* \"contracts/Staking.sol\":2164:2267  staker.stakedAmount.mul(block.number.sub(staker.lastUpdatedBlockNumber).div(8640)).mul(_rewardRate).div */\n      tag_126\n      swap1\n        /* \"contracts/Staking.sol\":2164:2272  staker.stakedAmount.mul(block.number.sub(staker.lastUpdatedBlockNumber).div(8640)).mul(_rewardRate).div(1e4) */\n      swap2\n      swap1\n      0xffffffff\n      and\n      jump\t// in\n    tag_278:\n        /* \"contracts/Staking.sol\":2144:2272  uint256 newReward = staker.stakedAmount.mul(block.number.sub(staker.lastUpdatedBlockNumber).div(8640)).mul(_rewardRate).div(1e4) */\n      swap1\n      pop\n        /* \"contracts/Staking.sol\":2312:2353  staker.stakerCurrentReward.add(newReward) */\n      tag_283\n        /* \"contracts/Staking.sol\":2343:2352  newReward */\n      dup2\n        /* \"contracts/Staking.sol\":2312:2318  staker */\n      dup4\n        /* \"contracts/Staking.sol\":2312:2338  staker.stakerCurrentReward */\n      0x00\n      add\n      sload\n        /* \"contracts/Staking.sol\":2312:2342  staker.stakerCurrentReward.add */\n      tag_129\n      swap1\n        /* \"contracts/Staking.sol\":2312:2353  staker.stakerCurrentReward.add(newReward) */\n      swap2\n      swap1\n      0xffffffff\n      and\n      jump\t// in\n    tag_283:\n        /* \"contracts/Staking.sol\":2283:2289  staker */\n      dup3\n        /* \"contracts/Staking.sol\":2283:2309  staker.stakerCurrentReward */\n      0x00\n      add\n        /* \"contracts/Staking.sol\":2283:2353  staker.stakerCurrentReward = staker.stakerCurrentReward.add(newReward) */\n      dup2\n      swap1\n      sstore\n      pop\n        /* \"contracts/Staking.sol\":2396:2408  block.number */\n      number\n        /* \"contracts/Staking.sol\":2364:2370  staker */\n      dup3\n        /* \"contracts/Staking.sol\":2364:2393  staker.lastUpdatedBlockNumber */\n      0x04\n      add\n        /* \"contracts/Staking.sol\":2364:2408  staker.lastUpdatedBlockNumber = block.number */\n      dup2\n      swap1\n      sstore\n      pop\n        /* \"contracts/Staking.sol\":2069:2416  {\r... */\n      pop\n      pop\n        /* \"contracts/Staking.sol\":2038:2416  function updateReward() private{\r... */\n      jump\t// out\n        /* \"@openzeppelin/contracts/utils/math/SafeMath.sol\":3108:3204  function sub(uint256 a, uint256 b) internal pure returns (uint256) {... */\n    tag_125:\n        /* \"@openzeppelin/contracts/utils/math/SafeMath.sol\":3166:3173  uint256 */\n      0x00\n        /* \"@openzeppelin/contracts/utils/math/SafeMath.sol\":3196:3197  b */\n      dup2\n        /* \"@openzeppelin/contracts/utils/math/SafeMath.sol\":3192:3193  a */\n      dup4\n        /* \"@openzeppelin/contracts/utils/math/SafeMath.sol\":3192:3197  a - b */\n      tag_285\n      swap2\n      swap1\n      tag_286\n      jump\t// in\n    tag_285:\n        /* \"@openzeppelin/contracts/utils/math/SafeMath.sol\":3185:3197  return a - b */\n      swap1\n      pop\n        /* \"@openzeppelin/contracts/utils/math/SafeMath.sol\":3108:3204  function sub(uint256 a, uint256 b) internal pure returns (uint256) {... */\n      swap3\n      swap2\n      pop\n      pop\n      jump\t// out\n        /* \"@openzeppelin/contracts/utils/math/SafeMath.sol\":3836:3932  function div(uint256 a, uint256 b) internal pure returns (uint256) {... */\n    tag_126:\n        /* \"@openzeppelin/contracts/utils/math/SafeMath.sol\":3894:3901  uint256 */\n      0x00\n        /* \"@openzeppelin/contracts/utils/math/SafeMath.sol\":3924:3925  b */\n      dup2\n        /* \"@openzeppelin/contracts/utils/math/SafeMath.sol\":3920:3921  a */\n      dup4\n        /* \"@openzeppelin/contracts/utils/math/SafeMath.sol\":3920:3925  a / b */\n      tag_288\n      swap2\n      swap1\n      tag_289\n      jump\t// in\n    tag_288:\n        /* \"@openzeppelin/contracts/utils/math/SafeMath.sol\":3913:3925  return a / b */\n      swap1\n      pop\n        /* \"@openzeppelin/contracts/utils/math/SafeMath.sol\":3836:3932  function div(uint256 a, uint256 b) internal pure returns (uint256) {... */\n      swap3\n      swap2\n      pop\n      pop\n      jump\t// out\n        /* \"@openzeppelin/contracts/utils/math/SafeMath.sol\":2741:2837  function add(uint256 a, uint256 b) internal pure returns (uint256) {... */\n    tag_129:\n        /* \"@openzeppelin/contracts/utils/math/SafeMath.sol\":2799:2806  uint256 */\n      0x00\n        /* \"@openzeppelin/contracts/utils/math/SafeMath.sol\":2829:2830  b */\n      dup2\n        /* \"@openzeppelin/contracts/utils/math/SafeMath.sol\":2825:2826  a */\n      dup4\n        /* \"@openzeppelin/contracts/utils/math/SafeMath.sol\":2825:2830  a + b */\n      tag_291\n      swap2\n      swap1\n      tag_292\n      jump\t// in\n    tag_291:\n        /* \"@openzeppelin/contracts/utils/math/SafeMath.sol\":2818:2830  return a + b */\n      swap1\n      pop\n        /* \"@openzeppelin/contracts/utils/math/SafeMath.sol\":2741:2837  function add(uint256 a, uint256 b) internal pure returns (uint256) {... */\n      swap3\n      swap2\n      pop\n      pop\n      jump\t// out\n        /* \"@openzeppelin/contracts/utils/math/SafeMath.sol\":3451:3547  function mul(uint256 a, uint256 b) internal pure returns (uint256) {... */\n    tag_138:\n        /* \"@openzeppelin/contracts/utils/math/SafeMath.sol\":3509:3516  uint256 */\n      0x00\n        /* \"@openzeppelin/contracts/utils/math/SafeMath.sol\":3539:3540  b */\n      dup2\n        /* \"@openzeppelin/contracts/utils/math/SafeMath.sol\":3535:3536  a */\n      dup4\n        /* \"@openzeppelin/contracts/utils/math/SafeMath.sol\":3535:3540  a * b */\n      tag_294\n      swap2\n      swap1\n      tag_295\n      jump\t// in\n    tag_294:\n        /* \"@openzeppelin/contracts/utils/math/SafeMath.sol\":3528:3540  return a * b */\n      swap1\n      pop\n        /* \"@openzeppelin/contracts/utils/math/SafeMath.sol\":3451:3547  function mul(uint256 a, uint256 b) internal pure returns (uint256) {... */\n      swap3\n      swap2\n      pop\n      pop\n      jump\t// out\n        /* \"contracts/SafeBEP20.sol\":290:467  function safeTransfer(IBEP20 token, address to, uint256 value) internal {\r... */\n    tag_142:\n        /* \"contracts/SafeBEP20.sol\":373:459  _callOptionalReturn(token, abi.encodeWithSelector(token.transfer.selector, to, value)) */\n      tag_297\n        /* \"contracts/SafeBEP20.sol\":393:398  token */\n      dup4\n        /* \"contracts/SafeBEP20.sol\":423:446  token.transfer.selector */\n      shl(0xe0, 0xa9059cbb)\n        /* \"contracts/SafeBEP20.sol\":448:450  to */\n      dup5\n        /* \"contracts/SafeBEP20.sol\":452:457  value */\n      dup5\n        /* \"contracts/SafeBEP20.sol\":400:458  abi.encodeWithSelector(token.transfer.selector, to, value) */\n      add(0x24, mload(0x40))\n      tag_298\n      swap3\n      swap2\n      swap1\n      tag_144\n      jump\t// in\n    tag_298:\n      mload(0x40)\n      0x20\n      dup2\n      dup4\n      sub\n      sub\n      dup2\n      mstore\n      swap1\n      0x40\n      mstore\n      swap1\n      not(0xffffffffffffffffffffffffffffffffffffffffffffffffffffffff)\n      and\n      0x20\n      dup3\n      add\n      dup1\n      mload\n      0xffffffffffffffffffffffffffffffffffffffffffffffffffffffff\n      dup4\n      dup2\n      dup4\n      and\n      or\n      dup4\n      mstore\n      pop\n      pop\n      pop\n      pop\n        /* \"contracts/SafeBEP20.sol\":373:392  _callOptionalReturn */\n      tag_299\n        /* \"contracts/SafeBEP20.sol\":373:459  _callOptionalReturn(token, abi.encodeWithSelector(token.transfer.selector, to, value)) */\n      jump\t// in\n    tag_297:\n        /* \"contracts/SafeBEP20.sol\":290:467  function safeTransfer(IBEP20 token, address to, uint256 value) internal {\r... */\n      pop\n      pop\n      pop\n      jump\t// out\n        /* \"@openzeppelin/contracts/utils/Context.sol\":640:736  function _msgSender() internal view virtual returns (address) {... */\n    tag_168:\n        /* \"@openzeppelin/contracts/utils/Context.sol\":693:700  address */\n      0x00\n        /* \"@openzeppelin/contracts/utils/Context.sol\":719:729  msg.sender */\n      caller\n        /* \"@openzeppelin/contracts/utils/Context.sol\":712:729  return msg.sender */\n      swap1\n      pop\n        /* \"@openzeppelin/contracts/utils/Context.sol\":640:736  function _msgSender() internal view virtual returns (address) {... */\n      swap1\n      jump\t// out\n        /* \"@openzeppelin/contracts/access/Ownable.sol\":2270:2457  function _transferOwnership(address newOwner) internal virtual {... */\n    tag_213:\n        /* \"@openzeppelin/contracts/access/Ownable.sol\":2343:2359  address oldOwner */\n      0x00\n        /* \"@openzeppelin/contracts/access/Ownable.sol\":2362:2368  _owner */\n      dup1\n      0x00\n      swap1\n      sload\n      swap1\n      0x0100\n      exp\n      swap1\n      div\n      0xffffffffffffffffffffffffffffffffffffffff\n      and\n        /* \"@openzeppelin/contracts/access/Ownable.sol\":2343:2368  address oldOwner = _owner */\n      swap1\n      pop\n        /* \"@openzeppelin/contracts/access/Ownable.sol\":2387:2395  newOwner */\n      dup2\n        /* \"@openzeppelin/contracts/access/Ownable.sol\":2378:2384  _owner */\n      0x00\n      dup1\n        /* \"@openzeppelin/contracts/access/Ownable.sol\":2378:2395  _owner = newOwner */\n      0x0100\n      exp\n      dup2\n      sload\n      dup2\n      0xffffffffffffffffffffffffffffffffffffffff\n      mul\n      not\n      and\n      swap1\n      dup4\n      0xffffffffffffffffffffffffffffffffffffffff\n      and\n      mul\n      or\n      swap1\n      sstore\n      pop\n        /* \"@openzeppelin/contracts/access/Ownable.sol\":2441:2449  newOwner */\n      dup2\n        /* \"@openzeppelin/contracts/access/Ownable.sol\":2410:2450  OwnershipTransferred(oldOwner, newOwner) */\n      0xffffffffffffffffffffffffffffffffffffffff\n      and\n        /* \"@openzeppelin/contracts/access/Ownable.sol\":2431:2439  oldOwner */\n      dup2\n        /* \"@openzeppelin/contracts/access/Ownable.sol\":2410:2450  OwnershipTransferred(oldOwner, newOwner) */\n      0xffffffffffffffffffffffffffffffffffffffff\n      and\n      0x8be0079c531659141344cd1fd0a4f28419497f9722a3daafe3b4186f6b6457e0\n      mload(0x40)\n      mload(0x40)\n      dup1\n      swap2\n      sub\n      swap1\n      log3\n        /* \"@openzeppelin/contracts/access/Ownable.sol\":2333:2457  {... */\n      pop\n        /* \"@openzeppelin/contracts/access/Ownable.sol\":2270:2457  function _transferOwnership(address newOwner) internal virtual {... */\n      pop\n      jump\t// out\n        /* \"contracts/SafeBEP20.sol\":475:680  function safeTransferFrom(IBEP20 token, address from, address to, uint256 value) internal {\r... */\n    tag_261:\n        /* \"contracts/SafeBEP20.sol\":576:672  _callOptionalReturn(token, abi.encodeWithSelector(token.transferFrom.selector, from, to, value)) */\n      tag_303\n        /* \"contracts/SafeBEP20.sol\":596:601  token */\n      dup5\n        /* \"contracts/SafeBEP20.sol\":626:653  token.transferFrom.selector */\n      shl(0xe0, 0x23b872dd)\n        /* \"contracts/SafeBEP20.sol\":655:659  from */\n      dup6\n        /* \"contracts/SafeBEP20.sol\":661:663  to */\n      dup6\n        /* \"contracts/SafeBEP20.sol\":665:670  value */\n      dup6\n        /* \"contracts/SafeBEP20.sol\":603:671  abi.encodeWithSelector(token.transferFrom.selector, from, to, value) */\n      add(0x24, mload(0x40))\n      tag_304\n      swap4\n      swap3\n      swap2\n      swap1\n      tag_305\n      jump\t// in\n    tag_304:\n      mload(0x40)\n      0x20\n      dup2\n      dup4\n      sub\n      sub\n      dup2\n      mstore\n      swap1\n      0x40\n      mstore\n      swap1\n      not(0xffffffffffffffffffffffffffffffffffffffffffffffffffffffff)\n      and\n      0x20\n      dup3\n      add\n      dup1\n      mload\n      0xffffffffffffffffffffffffffffffffffffffffffffffffffffffff\n      dup4\n      dup2\n      dup4\n      and\n      or\n      dup4\n      mstore\n      pop\n      pop\n      pop\n      pop\n        /* \"contracts/SafeBEP20.sol\":576:595  _callOptionalReturn */\n      tag_299\n        /* \"contracts/SafeBEP20.sol\":576:672  _callOptionalReturn(token, abi.encodeWithSelector(token.transferFrom.selector, from, to, value)) */\n      jump\t// in\n    tag_303:\n        /* \"contracts/SafeBEP20.sol\":475:680  function safeTransferFrom(IBEP20 token, address from, address to, uint256 value) internal {\r... */\n      pop\n      pop\n      pop\n      pop\n      jump\t// out\n        /* \"contracts/SafeBEP20.sol\":2599:3368  function _callOptionalReturn(IBEP20 token, bytes memory data) private {\r... */\n    tag_299:\n        /* \"contracts/SafeBEP20.sol\":3031:3054  bytes memory returndata */\n      0x00\n        /* \"contracts/SafeBEP20.sol\":3057:3126  address(token).functionCall(data, \"SafeBEP20: low-level call failed\") */\n      tag_307\n        /* \"contracts/SafeBEP20.sol\":3085:3089  data */\n      dup3\n        /* \"contracts/SafeBEP20.sol\":3057:3126  address(token).functionCall(data, \"SafeBEP20: low-level call failed\") */\n      mload(0x40)\n      dup1\n      0x40\n      add\n      0x40\n      mstore\n      dup1\n      0x20\n      dup2\n      mstore\n      0x20\n      add\n      0x5361666542455032303a206c6f772d6c6576656c2063616c6c206661696c6564\n      dup2\n      mstore\n      pop\n        /* \"contracts/SafeBEP20.sol\":3065:3070  token */\n      dup6\n        /* \"contracts/SafeBEP20.sol\":3057:3084  address(token).functionCall */\n      0xffffffffffffffffffffffffffffffffffffffff\n      and\n      tag_308\n      swap1\n        /* \"contracts/SafeBEP20.sol\":3057:3126  address(token).functionCall(data, \"SafeBEP20: low-level call failed\") */\n      swap3\n      swap2\n      swap1\n      0xffffffff\n      and\n      jump\t// in\n    tag_307:\n        /* \"contracts/SafeBEP20.sol\":3031:3126  bytes memory returndata = address(token).functionCall(data, \"SafeBEP20: low-level call failed\") */\n      swap1\n      pop\n        /* \"contracts/SafeBEP20.sol\":3161:3162  0 */\n      0x00\n        /* \"contracts/SafeBEP20.sol\":3141:3151  returndata */\n      dup2\n        /* \"contracts/SafeBEP20.sol\":3141:3158  returndata.length */\n      mload\n        /* \"contracts/SafeBEP20.sol\":3141:3162  returndata.length > 0 */\n      gt\n        /* \"contracts/SafeBEP20.sol\":3137:3361  if (returndata.length > 0) { // Return data is optional\r... */\n      iszero\n      tag_309\n      jumpi\n        /* \"contracts/SafeBEP20.sol\":3283:3293  returndata */\n      dup1\n        /* \"contracts/SafeBEP20.sol\":3272:3302  abi.decode(returndata, (bool)) */\n      dup1\n      0x20\n      add\n      swap1\n      mload\n      dup2\n      add\n      swap1\n      tag_310\n      swap2\n      swap1\n      tag_311\n      jump\t// in\n    tag_310:\n        /* \"contracts/SafeBEP20.sol\":3264:3349  require(abi.decode(returndata, (bool)), \"SafeBEP20: BEP20 operation did not succeed\") */\n      tag_312\n      jumpi\n      mload(0x40)\n      0x08c379a000000000000000000000000000000000000000000000000000000000\n      dup2\n      mstore\n      0x04\n      add\n      tag_313\n      swap1\n      tag_314\n      jump\t// in\n    tag_313:\n      mload(0x40)\n      dup1\n      swap2\n      sub\n      swap1\n      revert\n    tag_312:\n        /* \"contracts/SafeBEP20.sol\":3137:3361  if (returndata.length > 0) { // Return data is optional\r... */\n    tag_309:\n        /* \"contracts/SafeBEP20.sol\":2669:3368  {\r... */\n      pop\n        /* \"contracts/SafeBEP20.sol\":2599:3368  function _callOptionalReturn(IBEP20 token, bytes memory data) private {\r... */\n      pop\n      pop\n      jump\t// out\n        /* \"@openzeppelin/contracts/utils/Address.sol\":3861:4084  function functionCall(... */\n    tag_308:\n        /* \"@openzeppelin/contracts/utils/Address.sol\":3994:4006  bytes memory */\n      0x60\n        /* \"@openzeppelin/contracts/utils/Address.sol\":4025:4077  functionCallWithValue(target, data, 0, errorMessage) */\n      tag_316\n        /* \"@openzeppelin/contracts/utils/Address.sol\":4047:4053  target */\n      dup5\n        /* \"@openzeppelin/contracts/utils/Address.sol\":4055:4059  data */\n      dup5\n        /* \"@openzeppelin/contracts/utils/Address.sol\":4061:4062  0 */\n      0x00\n        /* \"@openzeppelin/contracts/utils/Address.sol\":4064:4076  errorMessage */\n      dup6\n        /* \"@openzeppelin/contracts/utils/Address.sol\":4025:4046  functionCallWithValue */\n      tag_317\n        /* \"@openzeppelin/contracts/utils/Address.sol\":4025:4077  functionCallWithValue(target, data, 0, errorMessage) */\n      jump\t// in\n    tag_316:\n        /* \"@openzeppelin/contracts/utils/Address.sol\":4018:4077  return functionCallWithValue(target, data, 0, errorMessage) */\n      swap1\n      pop\n        /* \"@openzeppelin/contracts/utils/Address.sol\":3861:4084  function functionCall(... */\n      swap4\n      swap3\n      pop\n      pop\n      pop\n      jump\t// out\n        /* \"@openzeppelin/contracts/utils/Address.sol\":4948:5447  function functionCallWithValue(... */\n    tag_317:\n        /* \"@openzeppelin/contracts/utils/Address.sol\":5113:5125  bytes memory */\n      0x60\n        /* \"@openzeppelin/contracts/utils/Address.sol\":5170:5175  value */\n      dup3\n        /* \"@openzeppelin/contracts/utils/Address.sol\":5145:5166  address(this).balance */\n      selfbalance\n        /* \"@openzeppelin/contracts/utils/Address.sol\":5145:5175  address(this).balance >= value */\n      lt\n      iszero\n        /* \"@openzeppelin/contracts/utils/Address.sol\":5137:5218  require(address(this).balance >= value, \"Address: insufficient balance for call\") */\n      tag_319\n      jumpi\n      mload(0x40)\n      0x08c379a000000000000000000000000000000000000000000000000000000000\n      dup2\n      mstore\n      0x04\n      add\n      tag_320\n      swap1\n      tag_321\n      jump\t// in\n    tag_320:\n      mload(0x40)\n      dup1\n      swap2\n      sub\n      swap1\n      revert\n    tag_319:\n        /* \"@openzeppelin/contracts/utils/Address.sol\":5236:5254  isContract(target) */\n      tag_322\n        /* \"@openzeppelin/contracts/utils/Address.sol\":5247:5253  target */\n      dup6\n        /* \"@openzeppelin/contracts/utils/Address.sol\":5236:5246  isContract */\n      tag_323\n        /* \"@openzeppelin/contracts/utils/Address.sol\":5236:5254  isContract(target) */\n      jump\t// in\n    tag_322:\n        /* \"@openzeppelin/contracts/utils/Address.sol\":5228:5288  require(isContract(target), \"Address: call to non-contract\") */\n      tag_324\n      jumpi\n      mload(0x40)\n      0x08c379a000000000000000000000000000000000000000000000000000000000\n      dup2\n      mstore\n      0x04\n      add\n      tag_325\n      swap1\n      tag_326\n      jump\t// in\n    tag_325:\n      mload(0x40)\n      dup1\n      swap2\n      sub\n      swap1\n      revert\n    tag_324:\n        /* \"@openzeppelin/contracts/utils/Address.sol\":5300:5312  bool success */\n      0x00\n        /* \"@openzeppelin/contracts/utils/Address.sol\":5314:5337  bytes memory returndata */\n      dup1\n        /* \"@openzeppelin/contracts/utils/Address.sol\":5341:5347  target */\n      dup7\n        /* \"@openzeppelin/contracts/utils/Address.sol\":5341:5352  target.call */\n      0xffffffffffffffffffffffffffffffffffffffff\n      and\n        /* \"@openzeppelin/contracts/utils/Address.sol\":5360:5365  value */\n      dup6\n        /* \"@openzeppelin/contracts/utils/Address.sol\":5367:5371  data */\n      dup8\n        /* \"@openzeppelin/contracts/utils/Address.sol\":5341:5372  target.call{value: value}(data) */\n      mload(0x40)\n      tag_327\n      swap2\n      swap1\n      tag_328\n      jump\t// in\n    tag_327:\n      0x00\n      mload(0x40)\n      dup1\n      dup4\n      sub\n      dup2\n      dup6\n      dup8\n      gas\n      call\n      swap3\n      pop\n      pop\n      pop\n      returndatasize\n      dup1\n      0x00\n      dup2\n      eq\n      tag_331\n      jumpi\n      mload(0x40)\n      swap2\n      pop\n      and(add(returndatasize, 0x3f), not(0x1f))\n      dup3\n      add\n      0x40\n      mstore\n      returndatasize\n      dup3\n      mstore\n      returndatasize\n      0x00\n      0x20\n      dup5\n      add\n      returndatacopy\n      jump(tag_330)\n    tag_331:\n      0x60\n      swap2\n      pop\n    tag_330:\n      pop\n        /* \"@openzeppelin/contracts/utils/Address.sol\":5299:5372  (bool success, bytes memory returndata) = target.call{value: value}(data) */\n      swap2\n      pop\n      swap2\n      pop\n        /* \"@openzeppelin/contracts/utils/Address.sol\":5389:5440  verifyCallResult(success, returndata, errorMessage) */\n      tag_332\n        /* \"@openzeppelin/contracts/utils/Address.sol\":5406:5413  success */\n      dup3\n        /* \"@openzeppelin/contracts/utils/Address.sol\":5415:5425  returndata */\n      dup3\n        /* \"@openzeppelin/contracts/utils/Address.sol\":5427:5439  errorMessage */\n      dup7\n        /* \"@openzeppelin/contracts/utils/Address.sol\":5389:5405  verifyCallResult */\n      tag_333\n        /* \"@openzeppelin/contracts/utils/Address.sol\":5389:5440  verifyCallResult(success, returndata, errorMessage) */\n      jump\t// in\n    tag_332:\n        /* \"@openzeppelin/contracts/utils/Address.sol\":5382:5440  return verifyCallResult(success, returndata, errorMessage) */\n      swap3\n      pop\n      pop\n      pop\n        /* \"@openzeppelin/contracts/utils/Address.sol\":4948:5447  function functionCallWithValue(... */\n      swap5\n      swap4\n      pop\n      pop\n      pop\n      pop\n      jump\t// out\n        /* \"@openzeppelin/contracts/utils/Address.sol\":1175:1495  function isContract(address account) internal view returns (bool) {... */\n    tag_323:\n        /* \"@openzeppelin/contracts/utils/Address.sol\":1235:1239  bool */\n      0x00\n        /* \"@openzeppelin/contracts/utils/Address.sol\":1487:1488  0 */\n      dup1\n        /* \"@openzeppelin/contracts/utils/Address.sol\":1465:1472  account */\n      dup3\n        /* \"@openzeppelin/contracts/utils/Address.sol\":1465:1484  account.code.length */\n      0xffffffffffffffffffffffffffffffffffffffff\n      and\n      extcodesize\n        /* \"@openzeppelin/contracts/utils/Address.sol\":1465:1488  account.code.length > 0 */\n      gt\n        /* \"@openzeppelin/contracts/utils/Address.sol\":1458:1488  return account.code.length > 0 */\n      swap1\n      pop\n        /* \"@openzeppelin/contracts/utils/Address.sol\":1175:1495  function isContract(address account) internal view returns (bool) {... */\n      swap2\n      swap1\n      pop\n      jump\t// out\n        /* \"@openzeppelin/contracts/utils/Address.sol\":7561:8253  function verifyCallResult(... */\n    tag_333:\n        /* \"@openzeppelin/contracts/utils/Address.sol\":7707:7719  bytes memory */\n      0x60\n        /* \"@openzeppelin/contracts/utils/Address.sol\":7735:7742  success */\n      dup4\n        /* \"@openzeppelin/contracts/utils/Address.sol\":7731:8247  if (success) {... */\n      iszero\n      tag_336\n      jumpi\n        /* \"@openzeppelin/contracts/utils/Address.sol\":7765:7775  returndata */\n      dup3\n        /* \"@openzeppelin/contracts/utils/Address.sol\":7758:7775  return returndata */\n      swap1\n      pop\n      jump(tag_335)\n        /* \"@openzeppelin/contracts/utils/Address.sol\":7731:8247  if (success) {... */\n    tag_336:\n        /* \"@openzeppelin/contracts/utils/Address.sol\":7896:7897  0 */\n      0x00\n        /* \"@openzeppelin/contracts/utils/Address.sol\":7876:7886  returndata */\n      dup4\n        /* \"@openzeppelin/contracts/utils/Address.sol\":7876:7893  returndata.length */\n      mload\n        /* \"@openzeppelin/contracts/utils/Address.sol\":7876:7897  returndata.length > 0 */\n      gt\n        /* \"@openzeppelin/contracts/utils/Address.sol\":7872:8237  if (returndata.length > 0) {... */\n      iszero\n      tag_338\n      jumpi\n        /* \"@openzeppelin/contracts/utils/Address.sol\":8070:8080  returndata */\n      dup3\n        /* \"@openzeppelin/contracts/utils/Address.sol\":8064:8081  mload(returndata) */\n      mload\n        /* \"@openzeppelin/contracts/utils/Address.sol\":8130:8145  returndata_size */\n      dup1\n        /* \"@openzeppelin/contracts/utils/Address.sol\":8117:8127  returndata */\n      dup5\n        /* \"@openzeppelin/contracts/utils/Address.sol\":8113:8115  32 */\n      0x20\n        /* \"@openzeppelin/contracts/utils/Address.sol\":8109:8128  add(32, returndata) */\n      add\n        /* \"@openzeppelin/contracts/utils/Address.sol\":8102:8146  revert(add(32, returndata), returndata_size) */\n      revert\n        /* \"@openzeppelin/contracts/utils/Address.sol\":7872:8237  if (returndata.length > 0) {... */\n    tag_338:\n        /* \"@openzeppelin/contracts/utils/Address.sol\":8209:8221  errorMessage */\n      dup2\n        /* \"@openzeppelin/contracts/utils/Address.sol\":8202:8222  revert(errorMessage) */\n      mload(0x40)\n      0x08c379a000000000000000000000000000000000000000000000000000000000\n      dup2\n      mstore\n      0x04\n      add\n      tag_340\n      swap2\n      swap1\n      tag_341\n      jump\t// in\n    tag_340:\n      mload(0x40)\n      dup1\n      swap2\n      sub\n      swap1\n      revert\n        /* \"@openzeppelin/contracts/utils/Address.sol\":7561:8253  function verifyCallResult(... */\n    tag_335:\n      swap4\n      swap3\n      pop\n      pop\n      pop\n      jump\t// out\n        /* \"#utility.yul\":7:146   */\n    tag_343:\n        /* \"#utility.yul\":53:58   */\n      0x00\n        /* \"#utility.yul\":91:97   */\n      dup2\n        /* \"#utility.yul\":78:98   */\n      calldataload\n        /* \"#utility.yul\":69:98   */\n      swap1\n      pop\n        /* \"#utility.yul\":107:140   */\n      tag_345\n        /* \"#utility.yul\":134:139   */\n      dup2\n        /* \"#utility.yul\":107:140   */\n      tag_346\n      jump\t// in\n    tag_345:\n        /* \"#utility.yul\":7:146   */\n      swap3\n      swap2\n      pop\n      pop\n      jump\t// out\n        /* \"#utility.yul\":152:289   */\n    tag_347:\n        /* \"#utility.yul\":206:211   */\n      0x00\n        /* \"#utility.yul\":237:243   */\n      dup2\n        /* \"#utility.yul\":231:244   */\n      mload\n        /* \"#utility.yul\":222:244   */\n      swap1\n      pop\n        /* \"#utility.yul\":253:283   */\n      tag_349\n        /* \"#utility.yul\":277:282   */\n      dup2\n        /* \"#utility.yul\":253:283   */\n      tag_350\n      jump\t// in\n    tag_349:\n        /* \"#utility.yul\":152:289   */\n      swap3\n      swap2\n      pop\n      pop\n      jump\t// out\n        /* \"#utility.yul\":295:434   */\n    tag_351:\n        /* \"#utility.yul\":341:346   */\n      0x00\n        /* \"#utility.yul\":379:385   */\n      dup2\n        /* \"#utility.yul\":366:386   */\n      calldataload\n        /* \"#utility.yul\":357:386   */\n      swap1\n      pop\n        /* \"#utility.yul\":395:428   */\n      tag_353\n        /* \"#utility.yul\":422:427   */\n      dup2\n        /* \"#utility.yul\":395:428   */\n      tag_354\n      jump\t// in\n    tag_353:\n        /* \"#utility.yul\":295:434   */\n      swap3\n      swap2\n      pop\n      pop\n      jump\t// out\n        /* \"#utility.yul\":440:583   */\n    tag_355:\n        /* \"#utility.yul\":497:502   */\n      0x00\n        /* \"#utility.yul\":528:534   */\n      dup2\n        /* \"#utility.yul\":522:535   */\n      mload\n        /* \"#utility.yul\":513:535   */\n      swap1\n      pop\n        /* \"#utility.yul\":544:577   */\n      tag_357\n        /* \"#utility.yul\":571:576   */\n      dup2\n        /* \"#utility.yul\":544:577   */\n      tag_354\n      jump\t// in\n    tag_357:\n        /* \"#utility.yul\":440:583   */\n      swap3\n      swap2\n      pop\n      pop\n      jump\t// out\n        /* \"#utility.yul\":589:918   */\n    tag_86:\n        /* \"#utility.yul\":648:654   */\n      0x00\n        /* \"#utility.yul\":697:699   */\n      0x20\n        /* \"#utility.yul\":685:694   */\n      dup3\n        /* \"#utility.yul\":676:683   */\n      dup5\n        /* \"#utility.yul\":672:695   */\n      sub\n        /* \"#utility.yul\":668:700   */\n      slt\n        /* \"#utility.yul\":665:784   */\n      iszero\n      tag_359\n      jumpi\n        /* \"#utility.yul\":703:782   */\n      tag_360\n      tag_361\n      jump\t// in\n    tag_360:\n        /* \"#utility.yul\":665:784   */\n    tag_359:\n        /* \"#utility.yul\":823:824   */\n      0x00\n        /* \"#utility.yul\":848:901   */\n      tag_362\n        /* \"#utility.yul\":893:900   */\n      dup5\n        /* \"#utility.yul\":884:890   */\n      dup3\n        /* \"#utility.yul\":873:882   */\n      dup6\n        /* \"#utility.yul\":869:891   */\n      add\n        /* \"#utility.yul\":848:901   */\n      tag_343\n      jump\t// in\n    tag_362:\n        /* \"#utility.yul\":838:901   */\n      swap2\n      pop\n        /* \"#utility.yul\":794:911   */\n      pop\n        /* \"#utility.yul\":589:918   */\n      swap3\n      swap2\n      pop\n      pop\n      jump\t// out\n        /* \"#utility.yul\":924:1269   */\n    tag_311:\n        /* \"#utility.yul\":991:997   */\n      0x00\n        /* \"#utility.yul\":1040:1042   */\n      0x20\n        /* \"#utility.yul\":1028:1037   */\n      dup3\n        /* \"#utility.yul\":1019:1026   */\n      dup5\n        /* \"#utility.yul\":1015:1038   */\n      sub\n        /* \"#utility.yul\":1011:1043   */\n      slt\n        /* \"#utility.yul\":1008:1127   */\n      iszero\n      tag_364\n      jumpi\n        /* \"#utility.yul\":1046:1125   */\n      tag_365\n      tag_361\n      jump\t// in\n    tag_365:\n        /* \"#utility.yul\":1008:1127   */\n    tag_364:\n        /* \"#utility.yul\":1166:1167   */\n      0x00\n        /* \"#utility.yul\":1191:1252   */\n      tag_366\n        /* \"#utility.yul\":1244:1251   */\n      dup5\n        /* \"#utility.yul\":1235:1241   */\n      dup3\n        /* \"#utility.yul\":1224:1233   */\n      dup6\n        /* \"#utility.yul\":1220:1242   */\n      add\n        /* \"#utility.yul\":1191:1252   */\n      tag_347\n      jump\t// in\n    tag_366:\n        /* \"#utility.yul\":1181:1252   */\n      swap2\n      pop\n        /* \"#utility.yul\":1137:1262   */\n      pop\n        /* \"#utility.yul\":924:1269   */\n      swap3\n      swap2\n      pop\n      pop\n      jump\t// out\n        /* \"#utility.yul\":1275:1604   */\n    tag_37:\n        /* \"#utility.yul\":1334:1340   */\n      0x00\n        /* \"#utility.yul\":1383:1385   */\n      0x20\n        /* \"#utility.yul\":1371:1380   */\n      dup3\n        /* \"#utility.yul\":1362:1369   */\n      dup5\n        /* \"#utility.yul\":1358:1381   */\n      sub\n        /* \"#utility.yul\":1354:1386   */\n      slt\n        /* \"#utility.yul\":1351:1470   */\n      iszero\n      tag_368\n      jumpi\n        /* \"#utility.yul\":1389:1468   */\n      tag_369\n      tag_361\n      jump\t// in\n    tag_369:\n        /* \"#utility.yul\":1351:1470   */\n    tag_368:\n        /* \"#utility.yul\":1509:1510   */\n      0x00\n        /* \"#utility.yul\":1534:1587   */\n      tag_370\n        /* \"#utility.yul\":1579:1586   */\n      dup5\n        /* \"#utility.yul\":1570:1576   */\n      dup3\n        /* \"#utility.yul\":1559:1568   */\n      dup6\n        /* \"#utility.yul\":1555:1577   */\n      add\n        /* \"#utility.yul\":1534:1587   */\n      tag_351\n      jump\t// in\n    tag_370:\n        /* \"#utility.yul\":1524:1587   */\n      swap2\n      pop\n        /* \"#utility.yul\":1480:1597   */\n      pop\n        /* \"#utility.yul\":1275:1604   */\n      swap3\n      swap2\n      pop\n      pop\n      jump\t// out\n        /* \"#utility.yul\":1610:1961   */\n    tag_115:\n        /* \"#utility.yul\":1680:1686   */\n      0x00\n        /* \"#utility.yul\":1729:1731   */\n      0x20\n        /* \"#utility.yul\":1717:1726   */\n      dup3\n        /* \"#utility.yul\":1708:1715   */\n      dup5\n        /* \"#utility.yul\":1704:1727   */\n      sub\n        /* \"#utility.yul\":1700:1732   */\n      slt\n        /* \"#utility.yul\":1697:1816   */\n      iszero\n      tag_372\n      jumpi\n        /* \"#utility.yul\":1735:1814   */\n      tag_373\n      tag_361\n      jump\t// in\n    tag_373:\n        /* \"#utility.yul\":1697:1816   */\n    tag_372:\n        /* \"#utility.yul\":1855:1856   */\n      0x00\n        /* \"#utility.yul\":1880:1944   */\n      tag_374\n        /* \"#utility.yul\":1936:1943   */\n      dup5\n        /* \"#utility.yul\":1927:1933   */\n      dup3\n        /* \"#utility.yul\":1916:1925   */\n      dup6\n        /* \"#utility.yul\":1912:1934   */\n      add\n        /* \"#utility.yul\":1880:1944   */\n      tag_355\n      jump\t// in\n    tag_374:\n        /* \"#utility.yul\":1870:1944   */\n      swap2\n      pop\n        /* \"#utility.yul\":1826:1954   */\n      pop\n        /* \"#utility.yul\":1610:1961   */\n      swap3\n      swap2\n      pop\n      pop\n      jump\t// out\n        /* \"#utility.yul\":1967:2441   */\n    tag_46:\n        /* \"#utility.yul\":2035:2041   */\n      0x00\n        /* \"#utility.yul\":2043:2049   */\n      dup1\n        /* \"#utility.yul\":2092:2094   */\n      0x40\n        /* \"#utility.yul\":2080:2089   */\n      dup4\n        /* \"#utility.yul\":2071:2078   */\n      dup6\n        /* \"#utility.yul\":2067:2090   */\n      sub\n        /* \"#utility.yul\":2063:2095   */\n      slt\n        /* \"#utility.yul\":2060:2179   */\n      iszero\n      tag_376\n      jumpi\n        /* \"#utility.yul\":2098:2177   */\n      tag_377\n      tag_361\n      jump\t// in\n    tag_377:\n        /* \"#utility.yul\":2060:2179   */\n    tag_376:\n        /* \"#utility.yul\":2218:2219   */\n      0x00\n        /* \"#utility.yul\":2243:2296   */\n      tag_378\n        /* \"#utility.yul\":2288:2295   */\n      dup6\n        /* \"#utility.yul\":2279:2285   */\n      dup3\n        /* \"#utility.yul\":2268:2277   */\n      dup7\n        /* \"#utility.yul\":2264:2286   */\n      add\n        /* \"#utility.yul\":2243:2296   */\n      tag_351\n      jump\t// in\n    tag_378:\n        /* \"#utility.yul\":2233:2296   */\n      swap3\n      pop\n        /* \"#utility.yul\":2189:2306   */\n      pop\n        /* \"#utility.yul\":2345:2347   */\n      0x20\n        /* \"#utility.yul\":2371:2424   */\n      tag_379\n        /* \"#utility.yul\":2416:2423   */\n      dup6\n        /* \"#utility.yul\":2407:2413   */\n      dup3\n        /* \"#utility.yul\":2396:2405   */\n      dup7\n        /* \"#utility.yul\":2392:2414   */\n      add\n        /* \"#utility.yul\":2371:2424   */\n      tag_351\n      jump\t// in\n    tag_379:\n        /* \"#utility.yul\":2361:2424   */\n      swap2\n      pop\n        /* \"#utility.yul\":2316:2434   */\n      pop\n        /* \"#utility.yul\":1967:2441   */\n      swap3\n      pop\n      swap3\n      swap1\n      pop\n      jump\t// out\n        /* \"#utility.yul\":2447:2565   */\n    tag_380:\n        /* \"#utility.yul\":2534:2558   */\n      tag_382\n        /* \"#utility.yul\":2552:2557   */\n      dup2\n        /* \"#utility.yul\":2534:2558   */\n      tag_383\n      jump\t// in\n    tag_382:\n        /* \"#utility.yul\":2529:2532   */\n      dup3\n        /* \"#utility.yul\":2522:2559   */\n      mstore\n        /* \"#utility.yul\":2447:2565   */\n      pop\n      pop\n      jump\t// out\n        /* \"#utility.yul\":2571:2944   */\n    tag_384:\n        /* \"#utility.yul\":2675:2678   */\n      0x00\n        /* \"#utility.yul\":2703:2741   */\n      tag_386\n        /* \"#utility.yul\":2735:2740   */\n      dup3\n        /* \"#utility.yul\":2703:2741   */\n      tag_387\n      jump\t// in\n    tag_386:\n        /* \"#utility.yul\":2757:2845   */\n      tag_388\n        /* \"#utility.yul\":2838:2844   */\n      dup2\n        /* \"#utility.yul\":2833:2836   */\n      dup6\n        /* \"#utility.yul\":2757:2845   */\n      tag_389\n      jump\t// in\n    tag_388:\n        /* \"#utility.yul\":2750:2845   */\n      swap4\n      pop\n        /* \"#utility.yul\":2854:2906   */\n      tag_390\n        /* \"#utility.yul\":2899:2905   */\n      dup2\n        /* \"#utility.yul\":2894:2897   */\n      dup6\n        /* \"#utility.yul\":2887:2891   */\n      0x20\n        /* \"#utility.yul\":2880:2885   */\n      dup7\n        /* \"#utility.yul\":2876:2892   */\n      add\n        /* \"#utility.yul\":2854:2906   */\n      tag_391\n      jump\t// in\n    tag_390:\n        /* \"#utility.yul\":2931:2937   */\n      dup1\n        /* \"#utility.yul\":2926:2929   */\n      dup5\n        /* \"#utility.yul\":2922:2938   */\n      add\n        /* \"#utility.yul\":2915:2938   */\n      swap2\n      pop\n        /* \"#utility.yul\":2679:2944   */\n      pop\n        /* \"#utility.yul\":2571:2944   */\n      swap3\n      swap2\n      pop\n      pop\n      jump\t// out\n        /* \"#utility.yul\":2950:3109   */\n    tag_392:\n        /* \"#utility.yul\":3051:3102   */\n      tag_394\n        /* \"#utility.yul\":3096:3101   */\n      dup2\n        /* \"#utility.yul\":3051:3102   */\n      tag_395\n      jump\t// in\n    tag_394:\n        /* \"#utility.yul\":3046:3049   */\n      dup3\n        /* \"#utility.yul\":3039:3103   */\n      mstore\n        /* \"#utility.yul\":2950:3109   */\n      pop\n      pop\n      jump\t// out\n        /* \"#utility.yul\":3115:3479   */\n    tag_396:\n        /* \"#utility.yul\":3203:3206   */\n      0x00\n        /* \"#utility.yul\":3231:3270   */\n      tag_398\n        /* \"#utility.yul\":3264:3269   */\n      dup3\n        /* \"#utility.yul\":3231:3270   */\n      tag_399\n      jump\t// in\n    tag_398:\n        /* \"#utility.yul\":3286:3357   */\n      tag_400\n        /* \"#utility.yul\":3350:3356   */\n      dup2\n        /* \"#utility.yul\":3345:3348   */\n      dup6\n        /* \"#utility.yul\":3286:3357   */\n      tag_401\n      jump\t// in\n    tag_400:\n        /* \"#utility.yul\":3279:3357   */\n      swap4\n      pop\n        /* \"#utility.yul\":3366:3418   */\n      tag_402\n        /* \"#utility.yul\":3411:3417   */\n      dup2\n        /* \"#utility.yul\":3406:3409   */\n      dup6\n        /* \"#utility.yul\":3399:3403   */\n      0x20\n        /* \"#utility.yul\":3392:3397   */\n      dup7\n        /* \"#utility.yul\":3388:3404   */\n      add\n        /* \"#utility.yul\":3366:3418   */\n      tag_391\n      jump\t// in\n    tag_402:\n        /* \"#utility.yul\":3443:3472   */\n      tag_403\n        /* \"#utility.yul\":3465:3471   */\n      dup2\n        /* \"#utility.yul\":3443:3472   */\n      tag_404\n      jump\t// in\n    tag_403:\n        /* \"#utility.yul\":3438:3441   */\n      dup5\n        /* \"#utility.yul\":3434:3473   */\n      add\n        /* \"#utility.yul\":3427:3473   */\n      swap2\n      pop\n        /* \"#utility.yul\":3207:3479   */\n      pop\n        /* \"#utility.yul\":3115:3479   */\n      swap3\n      swap2\n      pop\n      pop\n      jump\t// out\n        /* \"#utility.yul\":3485:3851   */\n    tag_405:\n        /* \"#utility.yul\":3627:3630   */\n      0x00\n        /* \"#utility.yul\":3648:3715   */\n      tag_407\n        /* \"#utility.yul\":3712:3714   */\n      0x10\n        /* \"#utility.yul\":3707:3710   */\n      dup4\n        /* \"#utility.yul\":3648:3715   */\n      tag_401\n      jump\t// in\n    tag_407:\n        /* \"#utility.yul\":3641:3715   */\n      swap2\n      pop\n        /* \"#utility.yul\":3724:3817   */\n      tag_408\n        /* \"#utility.yul\":3813:3816   */\n      dup3\n        /* \"#utility.yul\":3724:3817   */\n      tag_409\n      jump\t// in\n    tag_408:\n        /* \"#utility.yul\":3842:3844   */\n      0x20\n        /* \"#utility.yul\":3837:3840   */\n      dup3\n        /* \"#utility.yul\":3833:3845   */\n      add\n        /* \"#utility.yul\":3826:3845   */\n      swap1\n      pop\n        /* \"#utility.yul\":3485:3851   */\n      swap2\n      swap1\n      pop\n      jump\t// out\n        /* \"#utility.yul\":3857:4223   */\n    tag_410:\n        /* \"#utility.yul\":3999:4002   */\n      0x00\n        /* \"#utility.yul\":4020:4087   */\n      tag_412\n        /* \"#utility.yul\":4084:4086   */\n      0x15\n        /* \"#utility.yul\":4079:4082   */\n      dup4\n        /* \"#utility.yul\":4020:4087   */\n      tag_401\n      jump\t// in\n    tag_412:\n        /* \"#utility.yul\":4013:4087   */\n      swap2\n      pop\n        /* \"#utility.yul\":4096:4189   */\n      tag_413\n        /* \"#utility.yul\":4185:4188   */\n      dup3\n        /* \"#utility.yul\":4096:4189   */\n      tag_414\n      jump\t// in\n    tag_413:\n        /* \"#utility.yul\":4214:4216   */\n      0x20\n        /* \"#utility.yul\":4209:4212   */\n      dup3\n        /* \"#utility.yul\":4205:4217   */\n      add\n        /* \"#utility.yul\":4198:4217   */\n      swap1\n      pop\n        /* \"#utility.yul\":3857:4223   */\n      swap2\n      swap1\n      pop\n      jump\t// out\n        /* \"#utility.yul\":4229:4595   */\n    tag_415:\n        /* \"#utility.yul\":4371:4374   */\n      0x00\n        /* \"#utility.yul\":4392:4459   */\n      tag_417\n        /* \"#utility.yul\":4456:4458   */\n      0x2a\n        /* \"#utility.yul\":4451:4454   */\n      dup4\n        /* \"#utility.yul\":4392:4459   */\n      tag_401\n      jump\t// in\n    tag_417:\n        /* \"#utility.yul\":4385:4459   */\n      swap2\n      pop\n        /* \"#utility.yul\":4468:4561   */\n      tag_418\n        /* \"#utility.yul\":4557:4560   */\n      dup3\n        /* \"#utility.yul\":4468:4561   */\n      tag_419\n      jump\t// in\n    tag_418:\n        /* \"#utility.yul\":4586:4588   */\n      0x40\n        /* \"#utility.yul\":4581:4584   */\n      dup3\n        /* \"#utility.yul\":4577:4589   */\n      add\n        /* \"#utility.yul\":4570:4589   */\n      swap1\n      pop\n        /* \"#utility.yul\":4229:4595   */\n      swap2\n      swap1\n      pop\n      jump\t// out\n        /* \"#utility.yul\":4601:4967   */\n    tag_420:\n        /* \"#utility.yul\":4743:4746   */\n      0x00\n        /* \"#utility.yul\":4764:4831   */\n      tag_422\n        /* \"#utility.yul\":4828:4830   */\n      0x26\n        /* \"#utility.yul\":4823:4826   */\n      dup4\n        /* \"#utility.yul\":4764:4831   */\n      tag_401\n      jump\t// in\n    tag_422:\n        /* \"#utility.yul\":4757:4831   */\n      swap2\n      pop\n        /* \"#utility.yul\":4840:4933   */\n      tag_423\n        /* \"#utility.yul\":4929:4932   */\n      dup3\n        /* \"#utility.yul\":4840:4933   */\n      tag_424\n      jump\t// in\n    tag_423:\n        /* \"#utility.yul\":4958:4960   */\n      0x40\n        /* \"#utility.yul\":4953:4956   */\n      dup3\n        /* \"#utility.yul\":4949:4961   */\n      add\n        /* \"#utility.yul\":4942:4961   */\n      swap1\n      pop\n        /* \"#utility.yul\":4601:4967   */\n      swap2\n      swap1\n      pop\n      jump\t// out\n        /* \"#utility.yul\":4973:5339   */\n    tag_425:\n        /* \"#utility.yul\":5115:5118   */\n      0x00\n        /* \"#utility.yul\":5136:5203   */\n      tag_427\n        /* \"#utility.yul\":5200:5202   */\n      0x0e\n        /* \"#utility.yul\":5195:5198   */\n      dup4\n        /* \"#utility.yul\":5136:5203   */\n      tag_401\n      jump\t// in\n    tag_427:\n        /* \"#utility.yul\":5129:5203   */\n      swap2\n      pop\n        /* \"#utility.yul\":5212:5305   */\n      tag_428\n        /* \"#utility.yul\":5301:5304   */\n      dup3\n        /* \"#utility.yul\":5212:5305   */\n      tag_429\n      jump\t// in\n    tag_428:\n        /* \"#utility.yul\":5330:5332   */\n      0x20\n        /* \"#utility.yul\":5325:5328   */\n      dup3\n        /* \"#utility.yul\":5321:5333   */\n      add\n        /* \"#utility.yul\":5314:5333   */\n      swap1\n      pop\n        /* \"#utility.yul\":4973:5339   */\n      swap2\n      swap1\n      pop\n      jump\t// out\n        /* \"#utility.yul\":5345:5711   */\n    tag_430:\n        /* \"#utility.yul\":5487:5490   */\n      0x00\n        /* \"#utility.yul\":5508:5575   */\n      tag_432\n        /* \"#utility.yul\":5572:5574   */\n      0x0f\n        /* \"#utility.yul\":5567:5570   */\n      dup4\n        /* \"#utility.yul\":5508:5575   */\n      tag_401\n      jump\t// in\n    tag_432:\n        /* \"#utility.yul\":5501:5575   */\n      swap2\n      pop\n        /* \"#utility.yul\":5584:5677   */\n      tag_433\n        /* \"#utility.yul\":5673:5676   */\n      dup3\n        /* \"#utility.yul\":5584:5677   */\n      tag_434\n      jump\t// in\n    tag_433:\n        /* \"#utility.yul\":5702:5704   */\n      0x20\n        /* \"#utility.yul\":5697:5700   */\n      dup3\n        /* \"#utility.yul\":5693:5705   */\n      add\n        /* \"#utility.yul\":5686:5705   */\n      swap1\n      pop\n        /* \"#utility.yul\":5345:5711   */\n      swap2\n      swap1\n      pop\n      jump\t// out\n        /* \"#utility.yul\":5717:6083   */\n    tag_435:\n        /* \"#utility.yul\":5859:5862   */\n      0x00\n        /* \"#utility.yul\":5880:5947   */\n      tag_437\n        /* \"#utility.yul\":5944:5946   */\n      0x26\n        /* \"#utility.yul\":5939:5942   */\n      dup4\n        /* \"#utility.yul\":5880:5947   */\n      tag_401\n      jump\t// in\n    tag_437:\n        /* \"#utility.yul\":5873:5947   */\n      swap2\n      pop\n        /* \"#utility.yul\":5956:6049   */\n      tag_438\n        /* \"#utility.yul\":6045:6048   */\n      dup3\n        /* \"#utility.yul\":5956:6049   */\n      tag_439\n      jump\t// in\n    tag_438:\n        /* \"#utility.yul\":6074:6076   */\n      0x40\n        /* \"#utility.yul\":6069:6072   */\n      dup3\n        /* \"#utility.yul\":6065:6077   */\n      add\n        /* \"#utility.yul\":6058:6077   */\n      swap1\n      pop\n        /* \"#utility.yul\":5717:6083   */\n      swap2\n      swap1\n      pop\n      jump\t// out\n        /* \"#utility.yul\":6089:6455   */\n    tag_440:\n        /* \"#utility.yul\":6231:6234   */\n      0x00\n        /* \"#utility.yul\":6252:6319   */\n      tag_442\n        /* \"#utility.yul\":6316:6318   */\n      0x1f\n        /* \"#utility.yul\":6311:6314   */\n      dup4\n        /* \"#utility.yul\":6252:6319   */\n      tag_401\n      jump\t// in\n    tag_442:\n        /* \"#utility.yul\":6245:6319   */\n      swap2\n      pop\n        /* \"#utility.yul\":6328:6421   */\n      tag_443\n        /* \"#utility.yul\":6417:6420   */\n      dup3\n        /* \"#utility.yul\":6328:6421   */\n      tag_444\n      jump\t// in\n    tag_443:\n        /* \"#utility.yul\":6446:6448   */\n      0x20\n        /* \"#utility.yul\":6441:6444   */\n      dup3\n        /* \"#utility.yul\":6437:6449   */\n      add\n        /* \"#utility.yul\":6430:6449   */\n      swap1\n      pop\n        /* \"#utility.yul\":6089:6455   */\n      swap2\n      swap1\n      pop\n      jump\t// out\n        /* \"#utility.yul\":6461:6827   */\n    tag_445:\n        /* \"#utility.yul\":6603:6606   */\n      0x00\n        /* \"#utility.yul\":6624:6691   */\n      tag_447\n        /* \"#utility.yul\":6688:6690   */\n      0x20\n        /* \"#utility.yul\":6683:6686   */\n      dup4\n        /* \"#utility.yul\":6624:6691   */\n      tag_401\n      jump\t// in\n    tag_447:\n        /* \"#utility.yul\":6617:6691   */\n      swap2\n      pop\n        /* \"#utility.yul\":6700:6793   */\n      tag_448\n        /* \"#utility.yul\":6789:6792   */\n      dup3\n        /* \"#utility.yul\":6700:6793   */\n      tag_449\n      jump\t// in\n    tag_448:\n        /* \"#utility.yul\":6818:6820   */\n      0x20\n        /* \"#utility.yul\":6813:6816   */\n      dup3\n        /* \"#utility.yul\":6809:6821   */\n      add\n        /* \"#utility.yul\":6802:6821   */\n      swap1\n      pop\n        /* \"#utility.yul\":6461:6827   */\n      swap2\n      swap1\n      pop\n      jump\t// out\n        /* \"#utility.yul\":6833:7199   */\n    tag_450:\n        /* \"#utility.yul\":6975:6978   */\n      0x00\n        /* \"#utility.yul\":6996:7063   */\n      tag_452\n        /* \"#utility.yul\":7060:7062   */\n      0x0d\n        /* \"#utility.yul\":7055:7058   */\n      dup4\n        /* \"#utility.yul\":6996:7063   */\n      tag_401\n      jump\t// in\n    tag_452:\n        /* \"#utility.yul\":6989:7063   */\n      swap2\n      pop\n        /* \"#utility.yul\":7072:7165   */\n      tag_453\n        /* \"#utility.yul\":7161:7164   */\n      dup3\n        /* \"#utility.yul\":7072:7165   */\n      tag_454\n      jump\t// in\n    tag_453:\n        /* \"#utility.yul\":7190:7192   */\n      0x20\n        /* \"#utility.yul\":7185:7188   */\n      dup3\n        /* \"#utility.yul\":7181:7193   */\n      add\n        /* \"#utility.yul\":7174:7193   */\n      swap1\n      pop\n        /* \"#utility.yul\":6833:7199   */\n      swap2\n      swap1\n      pop\n      jump\t// out\n        /* \"#utility.yul\":7205:7571   */\n    tag_455:\n        /* \"#utility.yul\":7347:7350   */\n      0x00\n        /* \"#utility.yul\":7368:7435   */\n      tag_457\n        /* \"#utility.yul\":7432:7434   */\n      0x1d\n        /* \"#utility.yul\":7427:7430   */\n      dup4\n        /* \"#utility.yul\":7368:7435   */\n      tag_401\n      jump\t// in\n    tag_457:\n        /* \"#utility.yul\":7361:7435   */\n      swap2\n      pop\n        /* \"#utility.yul\":7444:7537   */\n      tag_458\n        /* \"#utility.yul\":7533:7536   */\n      dup3\n        /* \"#utility.yul\":7444:7537   */\n      tag_459\n      jump\t// in\n    tag_458:\n        /* \"#utility.yul\":7562:7564   */\n      0x20\n        /* \"#utility.yul\":7557:7560   */\n      dup3\n        /* \"#utility.yul\":7553:7565   */\n      add\n        /* \"#utility.yul\":7546:7565   */\n      swap1\n      pop\n        /* \"#utility.yul\":7205:7571   */\n      swap2\n      swap1\n      pop\n      jump\t// out\n        /* \"#utility.yul\":7577:7943   */\n    tag_460:\n        /* \"#utility.yul\":7719:7722   */\n      0x00\n        /* \"#utility.yul\":7740:7807   */\n      tag_462\n        /* \"#utility.yul\":7804:7806   */\n      0x1a\n        /* \"#utility.yul\":7799:7802   */\n      dup4\n        /* \"#utility.yul\":7740:7807   */\n      tag_401\n      jump\t// in\n    tag_462:\n        /* \"#utility.yul\":7733:7807   */\n      swap2\n      pop\n        /* \"#utility.yul\":7816:7909   */\n      tag_463\n        /* \"#utility.yul\":7905:7908   */\n      dup3\n        /* \"#utility.yul\":7816:7909   */\n      tag_464\n      jump\t// in\n    tag_463:\n        /* \"#utility.yul\":7934:7936   */\n      0x20\n        /* \"#utility.yul\":7929:7932   */\n      dup3\n        /* \"#utility.yul\":7925:7937   */\n      add\n        /* \"#utility.yul\":7918:7937   */\n      swap1\n      pop\n        /* \"#utility.yul\":7577:7943   */\n      swap2\n      swap1\n      pop\n      jump\t// out\n        /* \"#utility.yul\":7949:8315   */\n    tag_465:\n        /* \"#utility.yul\":8091:8094   */\n      0x00\n        /* \"#utility.yul\":8112:8179   */\n      tag_467\n        /* \"#utility.yul\":8176:8178   */\n      0x17\n        /* \"#utility.yul\":8171:8174   */\n      dup4\n        /* \"#utility.yul\":8112:8179   */\n      tag_401\n      jump\t// in\n    tag_467:\n        /* \"#utility.yul\":8105:8179   */\n      swap2\n      pop\n        /* \"#utility.yul\":8188:8281   */\n      tag_468\n        /* \"#utility.yul\":8277:8280   */\n      dup3\n        /* \"#utility.yul\":8188:8281   */\n      tag_469\n      jump\t// in\n    tag_468:\n        /* \"#utility.yul\":8306:8308   */\n      0x20\n        /* \"#utility.yul\":8301:8304   */\n      dup3\n        /* \"#utility.yul\":8297:8309   */\n      add\n        /* \"#utility.yul\":8290:8309   */\n      swap1\n      pop\n        /* \"#utility.yul\":7949:8315   */\n      swap2\n      swap1\n      pop\n      jump\t// out\n        /* \"#utility.yul\":8321:8687   */\n    tag_470:\n        /* \"#utility.yul\":8463:8466   */\n      0x00\n        /* \"#utility.yul\":8484:8551   */\n      tag_472\n        /* \"#utility.yul\":8548:8550   */\n      0x0d\n        /* \"#utility.yul\":8543:8546   */\n      dup4\n        /* \"#utility.yul\":8484:8551   */\n      tag_401\n      jump\t// in\n    tag_472:\n        /* \"#utility.yul\":8477:8551   */\n      swap2\n      pop\n        /* \"#utility.yul\":8560:8653   */\n      tag_473\n        /* \"#utility.yul\":8649:8652   */\n      dup3\n        /* \"#utility.yul\":8560:8653   */\n      tag_474\n      jump\t// in\n    tag_473:\n        /* \"#utility.yul\":8678:8680   */\n      0x20\n        /* \"#utility.yul\":8673:8676   */\n      dup3\n        /* \"#utility.yul\":8669:8681   */\n      add\n        /* \"#utility.yul\":8662:8681   */\n      swap1\n      pop\n        /* \"#utility.yul\":8321:8687   */\n      swap2\n      swap1\n      pop\n      jump\t// out\n        /* \"#utility.yul\":8693:9059   */\n    tag_475:\n        /* \"#utility.yul\":8835:8838   */\n      0x00\n        /* \"#utility.yul\":8856:8923   */\n      tag_477\n        /* \"#utility.yul\":8920:8922   */\n      0x0d\n        /* \"#utility.yul\":8915:8918   */\n      dup4\n        /* \"#utility.yul\":8856:8923   */\n      tag_401\n      jump\t// in\n    tag_477:\n        /* \"#utility.yul\":8849:8923   */\n      swap2\n      pop\n        /* \"#utility.yul\":8932:9025   */\n      tag_478\n        /* \"#utility.yul\":9021:9024   */\n      dup3\n        /* \"#utility.yul\":8932:9025   */\n      tag_479\n      jump\t// in\n    tag_478:\n        /* \"#utility.yul\":9050:9052   */\n      0x20\n        /* \"#utility.yul\":9045:9048   */\n      dup3\n        /* \"#utility.yul\":9041:9053   */\n      add\n        /* \"#utility.yul\":9034:9053   */\n      swap1\n      pop\n        /* \"#utility.yul\":8693:9059   */\n      swap2\n      swap1\n      pop\n      jump\t// out\n        /* \"#utility.yul\":9065:9183   */\n    tag_480:\n        /* \"#utility.yul\":9152:9176   */\n      tag_482\n        /* \"#utility.yul\":9170:9175   */\n      dup2\n        /* \"#utility.yul\":9152:9176   */\n      tag_483\n      jump\t// in\n    tag_482:\n        /* \"#utility.yul\":9147:9150   */\n      dup3\n        /* \"#utility.yul\":9140:9177   */\n      mstore\n        /* \"#utility.yul\":9065:9183   */\n      pop\n      pop\n      jump\t// out\n        /* \"#utility.yul\":9189:9460   */\n    tag_328:\n        /* \"#utility.yul\":9319:9322   */\n      0x00\n        /* \"#utility.yul\":9341:9434   */\n      tag_485\n        /* \"#utility.yul\":9430:9433   */\n      dup3\n        /* \"#utility.yul\":9421:9427   */\n      dup5\n        /* \"#utility.yul\":9341:9434   */\n      tag_384\n      jump\t// in\n    tag_485:\n        /* \"#utility.yul\":9334:9434   */\n      swap2\n      pop\n        /* \"#utility.yul\":9451:9454   */\n      dup2\n        /* \"#utility.yul\":9444:9454   */\n      swap1\n      pop\n        /* \"#utility.yul\":9189:9460   */\n      swap3\n      swap2\n      pop\n      pop\n      jump\t// out\n        /* \"#utility.yul\":9466:9688   */\n    tag_71:\n        /* \"#utility.yul\":9559:9563   */\n      0x00\n        /* \"#utility.yul\":9597:9599   */\n      0x20\n        /* \"#utility.yul\":9586:9595   */\n      dup3\n        /* \"#utility.yul\":9582:9600   */\n      add\n        /* \"#utility.yul\":9574:9600   */\n      swap1\n      pop\n        /* \"#utility.yul\":9610:9681   */\n      tag_487\n        /* \"#utility.yul\":9678:9679   */\n      0x00\n        /* \"#utility.yul\":9667:9676   */\n      dup4\n        /* \"#utility.yul\":9663:9680   */\n      add\n        /* \"#utility.yul\":9654:9660   */\n      dup5\n        /* \"#utility.yul\":9610:9681   */\n      tag_380\n      jump\t// in\n    tag_487:\n        /* \"#utility.yul\":9466:9688   */\n      swap3\n      swap2\n      pop\n      pop\n      jump\t// out\n        /* \"#utility.yul\":9694:10136   */\n    tag_305:\n        /* \"#utility.yul\":9843:9847   */\n      0x00\n        /* \"#utility.yul\":9881:9883   */\n      0x60\n        /* \"#utility.yul\":9870:9879   */\n      dup3\n        /* \"#utility.yul\":9866:9884   */\n      add\n        /* \"#utility.yul\":9858:9884   */\n      swap1\n      pop\n        /* \"#utility.yul\":9894:9965   */\n      tag_489\n        /* \"#utility.yul\":9962:9963   */\n      0x00\n        /* \"#utility.yul\":9951:9960   */\n      dup4\n        /* \"#utility.yul\":9947:9964   */\n      add\n        /* \"#utility.yul\":9938:9944   */\n      dup7\n        /* \"#utility.yul\":9894:9965   */\n      tag_380\n      jump\t// in\n    tag_489:\n        /* \"#utility.yul\":9975:10047   */\n      tag_490\n        /* \"#utility.yul\":10043:10045   */\n      0x20\n        /* \"#utility.yul\":10032:10041   */\n      dup4\n        /* \"#utility.yul\":10028:10046   */\n      add\n        /* \"#utility.yul\":10019:10025   */\n      dup6\n        /* \"#utility.yul\":9975:10047   */\n      tag_380\n      jump\t// in\n    tag_490:\n        /* \"#utility.yul\":10057:10129   */\n      tag_491\n        /* \"#utility.yul\":10125:10127   */\n      0x40\n        /* \"#utility.yul\":10114:10123   */\n      dup4\n        /* \"#utility.yul\":10110:10128   */\n      add\n        /* \"#utility.yul\":10101:10107   */\n      dup5\n        /* \"#utility.yul\":10057:10129   */\n      tag_480\n      jump\t// in\n    tag_491:\n        /* \"#utility.yul\":9694:10136   */\n      swap5\n      swap4\n      pop\n      pop\n      pop\n      pop\n      jump\t// out\n        /* \"#utility.yul\":10142:10474   */\n    tag_144:\n        /* \"#utility.yul\":10263:10267   */\n      0x00\n        /* \"#utility.yul\":10301:10303   */\n      0x40\n        /* \"#utility.yul\":10290:10299   */\n      dup3\n        /* \"#utility.yul\":10286:10304   */\n      add\n        /* \"#utility.yul\":10278:10304   */\n      swap1\n      pop\n        /* \"#utility.yul\":10314:10385   */\n      tag_493\n        /* \"#utility.yul\":10382:10383   */\n      0x00\n        /* \"#utility.yul\":10371:10380   */\n      dup4\n        /* \"#utility.yul\":10367:10384   */\n      add\n        /* \"#utility.yul\":10358:10364   */\n      dup6\n        /* \"#utility.yul\":10314:10385   */\n      tag_380\n      jump\t// in\n    tag_493:\n        /* \"#utility.yul\":10395:10467   */\n      tag_494\n        /* \"#utility.yul\":10463:10465   */\n      0x20\n        /* \"#utility.yul\":10452:10461   */\n      dup4\n        /* \"#utility.yul\":10448:10466   */\n      add\n        /* \"#utility.yul\":10439:10445   */\n      dup5\n        /* \"#utility.yul\":10395:10467   */\n      tag_480\n      jump\t// in\n    tag_494:\n        /* \"#utility.yul\":10142:10474   */\n      swap4\n      swap3\n      pop\n      pop\n      pop\n      jump\t// out\n        /* \"#utility.yul\":10480:10730   */\n    tag_98:\n        /* \"#utility.yul\":10587:10591   */\n      0x00\n        /* \"#utility.yul\":10625:10627   */\n      0x20\n        /* \"#utility.yul\":10614:10623   */\n      dup3\n        /* \"#utility.yul\":10610:10628   */\n      add\n        /* \"#utility.yul\":10602:10628   */\n      swap1\n      pop\n        /* \"#utility.yul\":10638:10723   */\n      tag_496\n        /* \"#utility.yul\":10720:10721   */\n      0x00\n        /* \"#utility.yul\":10709:10718   */\n      dup4\n        /* \"#utility.yul\":10705:10722   */\n      add\n        /* \"#utility.yul\":10696:10702   */\n      dup5\n        /* \"#utility.yul\":10638:10723   */\n      tag_392\n      jump\t// in\n    tag_496:\n        /* \"#utility.yul\":10480:10730   */\n      swap3\n      swap2\n      pop\n      pop\n      jump\t// out\n        /* \"#utility.yul\":10736:11049   */\n    tag_341:\n        /* \"#utility.yul\":10849:10853   */\n      0x00\n        /* \"#utility.yul\":10887:10889   */\n      0x20\n        /* \"#utility.yul\":10876:10885   */\n      dup3\n        /* \"#utility.yul\":10872:10890   */\n      add\n        /* \"#utility.yul\":10864:10890   */\n      swap1\n      pop\n        /* \"#utility.yul\":10936:10945   */\n      dup2\n        /* \"#utility.yul\":10930:10934   */\n      dup2\n        /* \"#utility.yul\":10926:10946   */\n      sub\n        /* \"#utility.yul\":10922:10923   */\n      0x00\n        /* \"#utility.yul\":10911:10920   */\n      dup4\n        /* \"#utility.yul\":10907:10924   */\n      add\n        /* \"#utility.yul\":10900:10947   */\n      mstore\n        /* \"#utility.yul\":10964:11042   */\n      tag_498\n        /* \"#utility.yul\":11037:11041   */\n      dup2\n        /* \"#utility.yul\":11028:11034   */\n      dup5\n        /* \"#utility.yul\":10964:11042   */\n      tag_396\n      jump\t// in\n    tag_498:\n        /* \"#utility.yul\":10956:11042   */\n      swap1\n      pop\n        /* \"#utility.yul\":10736:11049   */\n      swap3\n      swap2\n      pop\n      pop\n      jump\t// out\n        /* \"#utility.yul\":11055:11474   */\n    tag_152:\n        /* \"#utility.yul\":11221:11225   */\n      0x00\n        /* \"#utility.yul\":11259:11261   */\n      0x20\n        /* \"#utility.yul\":11248:11257   */\n      dup3\n        /* \"#utility.yul\":11244:11262   */\n      add\n        /* \"#utility.yul\":11236:11262   */\n      swap1\n      pop\n        /* \"#utility.yul\":11308:11317   */\n      dup2\n        /* \"#utility.yul\":11302:11306   */\n      dup2\n        /* \"#utility.yul\":11298:11318   */\n      sub\n        /* \"#utility.yul\":11294:11295   */\n      0x00\n        /* \"#utility.yul\":11283:11292   */\n      dup4\n        /* \"#utility.yul\":11279:11296   */\n      add\n        /* \"#utility.yul\":11272:11319   */\n      mstore\n        /* \"#utility.yul\":11336:11467   */\n      tag_500\n        /* \"#utility.yul\":11462:11466   */\n      dup2\n        /* \"#utility.yul\":11336:11467   */\n      tag_405\n      jump\t// in\n    tag_500:\n        /* \"#utility.yul\":11328:11467   */\n      swap1\n      pop\n        /* \"#utility.yul\":11055:11474   */\n      swap2\n      swap1\n      pop\n      jump\t// out\n        /* \"#utility.yul\":11480:11899   */\n    tag_258:\n        /* \"#utility.yul\":11646:11650   */\n      0x00\n        /* \"#utility.yul\":11684:11686   */\n      0x20\n        /* \"#utility.yul\":11673:11682   */\n      dup3\n        /* \"#utility.yul\":11669:11687   */\n      add\n        /* \"#utility.yul\":11661:11687   */\n      swap1\n      pop\n        /* \"#utility.yul\":11733:11742   */\n      dup2\n        /* \"#utility.yul\":11727:11731   */\n      dup2\n        /* \"#utility.yul\":11723:11743   */\n      sub\n        /* \"#utility.yul\":11719:11720   */\n      0x00\n        /* \"#utility.yul\":11708:11717   */\n      dup4\n        /* \"#utility.yul\":11704:11721   */\n      add\n        /* \"#utility.yul\":11697:11744   */\n      mstore\n        /* \"#utility.yul\":11761:11892   */\n      tag_502\n        /* \"#utility.yul\":11887:11891   */\n      dup2\n        /* \"#utility.yul\":11761:11892   */\n      tag_410\n      jump\t// in\n    tag_502:\n        /* \"#utility.yul\":11753:11892   */\n      swap1\n      pop\n        /* \"#utility.yul\":11480:11899   */\n      swap2\n      swap1\n      pop\n      jump\t// out\n        /* \"#utility.yul\":11905:12324   */\n    tag_314:\n        /* \"#utility.yul\":12071:12075   */\n      0x00\n        /* \"#utility.yul\":12109:12111   */\n      0x20\n        /* \"#utility.yul\":12098:12107   */\n      dup3\n        /* \"#utility.yul\":12094:12112   */\n      add\n        /* \"#utility.yul\":12086:12112   */\n      swap1\n      pop\n        /* \"#utility.yul\":12158:12167   */\n      dup2\n        /* \"#utility.yul\":12152:12156   */\n      dup2\n        /* \"#utility.yul\":12148:12168   */\n      sub\n        /* \"#utility.yul\":12144:12145   */\n      0x00\n        /* \"#utility.yul\":12133:12142   */\n      dup4\n        /* \"#utility.yul\":12129:12146   */\n      add\n        /* \"#utility.yul\":12122:12169   */\n      mstore\n        /* \"#utility.yul\":12186:12317   */\n      tag_504\n        /* \"#utility.yul\":12312:12316   */\n      dup2\n        /* \"#utility.yul\":12186:12317   */\n      tag_415\n      jump\t// in\n    tag_504:\n        /* \"#utility.yul\":12178:12317   */\n      swap1\n      pop\n        /* \"#utility.yul\":11905:12324   */\n      swap2\n      swap1\n      pop\n      jump\t// out\n        /* \"#utility.yul\":12330:12749   */\n    tag_273:\n        /* \"#utility.yul\":12496:12500   */\n      0x00\n        /* \"#utility.yul\":12534:12536   */\n      0x20\n        /* \"#utility.yul\":12523:12532   */\n      dup3\n        /* \"#utility.yul\":12519:12537   */\n      add\n        /* \"#utility.yul\":12511:12537   */\n      swap1\n      pop\n        /* \"#utility.yul\":12583:12592   */\n      dup2\n        /* \"#utility.yul\":12577:12581   */\n      dup2\n        /* \"#utility.yul\":12573:12593   */\n      sub\n        /* \"#utility.yul\":12569:12570   */\n      0x00\n        /* \"#utility.yul\":12558:12567   */\n      dup4\n        /* \"#utility.yul\":12554:12571   */\n      add\n        /* \"#utility.yul\":12547:12594   */\n      mstore\n        /* \"#utility.yul\":12611:12742   */\n      tag_506\n        /* \"#utility.yul\":12737:12741   */\n      dup2\n        /* \"#utility.yul\":12611:12742   */\n      tag_420\n      jump\t// in\n    tag_506:\n        /* \"#utility.yul\":12603:12742   */\n      swap1\n      pop\n        /* \"#utility.yul\":12330:12749   */\n      swap2\n      swap1\n      pop\n      jump\t// out\n        /* \"#utility.yul\":12755:13174   */\n    tag_107:\n        /* \"#utility.yul\":12921:12925   */\n      0x00\n        /* \"#utility.yul\":12959:12961   */\n      0x20\n        /* \"#utility.yul\":12948:12957   */\n      dup3\n        /* \"#utility.yul\":12944:12962   */\n      add\n        /* \"#utility.yul\":12936:12962   */\n      swap1\n      pop\n        /* \"#utility.yul\":13008:13017   */\n      dup2\n        /* \"#utility.yul\":13002:13006   */\n      dup2\n        /* \"#utility.yul\":12998:13018   */\n      sub\n        /* \"#utility.yul\":12994:12995   */\n      0x00\n        /* \"#utility.yul\":12983:12992   */\n      dup4\n        /* \"#utility.yul\":12979:12996   */\n      add\n        /* \"#utility.yul\":12972:13019   */\n      mstore\n        /* \"#utility.yul\":13036:13167   */\n      tag_508\n        /* \"#utility.yul\":13162:13166   */\n      dup2\n        /* \"#utility.yul\":13036:13167   */\n      tag_425\n      jump\t// in\n    tag_508:\n        /* \"#utility.yul\":13028:13167   */\n      swap1\n      pop\n        /* \"#utility.yul\":12755:13174   */\n      swap2\n      swap1\n      pop\n      jump\t// out\n        /* \"#utility.yul\":13180:13599   */\n    tag_190:\n        /* \"#utility.yul\":13346:13350   */\n      0x00\n        /* \"#utility.yul\":13384:13386   */\n      0x20\n        /* \"#utility.yul\":13373:13382   */\n      dup3\n        /* \"#utility.yul\":13369:13387   */\n      add\n        /* \"#utility.yul\":13361:13387   */\n      swap1\n      pop\n        /* \"#utility.yul\":13433:13442   */\n      dup2\n        /* \"#utility.yul\":13427:13431   */\n      dup2\n        /* \"#utility.yul\":13423:13443   */\n      sub\n        /* \"#utility.yul\":13419:13420   */\n      0x00\n        /* \"#utility.yul\":13408:13417   */\n      dup4\n        /* \"#utility.yul\":13404:13421   */\n      add\n        /* \"#utility.yul\":13397:13444   */\n      mstore\n        /* \"#utility.yul\":13461:13592   */\n      tag_510\n        /* \"#utility.yul\":13587:13591   */\n      dup2\n        /* \"#utility.yul\":13461:13592   */\n      tag_430\n      jump\t// in\n    tag_510:\n        /* \"#utility.yul\":13453:13592   */\n      swap1\n      pop\n        /* \"#utility.yul\":13180:13599   */\n      swap2\n      swap1\n      pop\n      jump\t// out\n        /* \"#utility.yul\":13605:14024   */\n    tag_321:\n        /* \"#utility.yul\":13771:13775   */\n      0x00\n        /* \"#utility.yul\":13809:13811   */\n      0x20\n        /* \"#utility.yul\":13798:13807   */\n      dup3\n        /* \"#utility.yul\":13794:13812   */\n      add\n        /* \"#utility.yul\":13786:13812   */\n      swap1\n      pop\n        /* \"#utility.yul\":13858:13867   */\n      dup2\n        /* \"#utility.yul\":13852:13856   */\n      dup2\n        /* \"#utility.yul\":13848:13868   */\n      sub\n        /* \"#utility.yul\":13844:13845   */\n      0x00\n        /* \"#utility.yul\":13833:13842   */\n      dup4\n        /* \"#utility.yul\":13829:13846   */\n      add\n        /* \"#utility.yul\":13822:13869   */\n      mstore\n        /* \"#utility.yul\":13886:14017   */\n      tag_512\n        /* \"#utility.yul\":14012:14016   */\n      dup2\n        /* \"#utility.yul\":13886:14017   */\n      tag_435\n      jump\t// in\n    tag_512:\n        /* \"#utility.yul\":13878:14017   */\n      swap1\n      pop\n        /* \"#utility.yul\":13605:14024   */\n      swap2\n      swap1\n      pop\n      jump\t// out\n        /* \"#utility.yul\":14030:14449   */\n    tag_104:\n        /* \"#utility.yul\":14196:14200   */\n      0x00\n        /* \"#utility.yul\":14234:14236   */\n      0x20\n        /* \"#utility.yul\":14223:14232   */\n      dup3\n        /* \"#utility.yul\":14219:14237   */\n      add\n        /* \"#utility.yul\":14211:14237   */\n      swap1\n      pop\n        /* \"#utility.yul\":14283:14292   */\n      dup2\n        /* \"#utility.yul\":14277:14281   */\n      dup2\n        /* \"#utility.yul\":14273:14293   */\n      sub\n        /* \"#utility.yul\":14269:14270   */\n      0x00\n        /* \"#utility.yul\":14258:14267   */\n      dup4\n        /* \"#utility.yul\":14254:14271   */\n      add\n        /* \"#utility.yul\":14247:14294   */\n      mstore\n        /* \"#utility.yul\":14311:14442   */\n      tag_514\n        /* \"#utility.yul\":14437:14441   */\n      dup2\n        /* \"#utility.yul\":14311:14442   */\n      tag_440\n      jump\t// in\n    tag_514:\n        /* \"#utility.yul\":14303:14442   */\n      swap1\n      pop\n        /* \"#utility.yul\":14030:14449   */\n      swap2\n      swap1\n      pop\n      jump\t// out\n        /* \"#utility.yul\":14455:14874   */\n    tag_172:\n        /* \"#utility.yul\":14621:14625   */\n      0x00\n        /* \"#utility.yul\":14659:14661   */\n      0x20\n        /* \"#utility.yul\":14648:14657   */\n      dup3\n        /* \"#utility.yul\":14644:14662   */\n      add\n        /* \"#utility.yul\":14636:14662   */\n      swap1\n      pop\n        /* \"#utility.yul\":14708:14717   */\n      dup2\n        /* \"#utility.yul\":14702:14706   */\n      dup2\n        /* \"#utility.yul\":14698:14718   */\n      sub\n        /* \"#utility.yul\":14694:14695   */\n      0x00\n        /* \"#utility.yul\":14683:14692   */\n      dup4\n        /* \"#utility.yul\":14679:14696   */\n      add\n        /* \"#utility.yul\":14672:14719   */\n      mstore\n        /* \"#utility.yul\":14736:14867   */\n      tag_516\n        /* \"#utility.yul\":14862:14866   */\n      dup2\n        /* \"#utility.yul\":14736:14867   */\n      tag_445\n      jump\t// in\n    tag_516:\n        /* \"#utility.yul\":14728:14867   */\n      swap1\n      pop\n        /* \"#utility.yul\":14455:14874   */\n      swap2\n      swap1\n      pop\n      jump\t// out\n        /* \"#utility.yul\":14880:15299   */\n    tag_235:\n        /* \"#utility.yul\":15046:15050   */\n      0x00\n        /* \"#utility.yul\":15084:15086   */\n      0x20\n        /* \"#utility.yul\":15073:15082   */\n      dup3\n        /* \"#utility.yul\":15069:15087   */\n      add\n        /* \"#utility.yul\":15061:15087   */\n      swap1\n      pop\n        /* \"#utility.yul\":15133:15142   */\n      dup2\n        /* \"#utility.yul\":15127:15131   */\n      dup2\n        /* \"#utility.yul\":15123:15143   */\n      sub\n        /* \"#utility.yul\":15119:15120   */\n      0x00\n        /* \"#utility.yul\":15108:15117   */\n      dup4\n        /* \"#utility.yul\":15104:15121   */\n      add\n        /* \"#utility.yul\":15097:15144   */\n      mstore\n        /* \"#utility.yul\":15161:15292   */\n      tag_518\n        /* \"#utility.yul\":15287:15291   */\n      dup2\n        /* \"#utility.yul\":15161:15292   */\n      tag_450\n      jump\t// in\n    tag_518:\n        /* \"#utility.yul\":15153:15292   */\n      swap1\n      pop\n        /* \"#utility.yul\":14880:15299   */\n      swap2\n      swap1\n      pop\n      jump\t// out\n        /* \"#utility.yul\":15305:15724   */\n    tag_326:\n        /* \"#utility.yul\":15471:15475   */\n      0x00\n        /* \"#utility.yul\":15509:15511   */\n      0x20\n        /* \"#utility.yul\":15498:15507   */\n      dup3\n        /* \"#utility.yul\":15494:15512   */\n      add\n        /* \"#utility.yul\":15486:15512   */\n      swap1\n      pop\n        /* \"#utility.yul\":15558:15567   */\n      dup2\n        /* \"#utility.yul\":15552:15556   */\n      dup2\n        /* \"#utility.yul\":15548:15568   */\n      sub\n        /* \"#utility.yul\":15544:15545   */\n      0x00\n        /* \"#utility.yul\":15533:15542   */\n      dup4\n        /* \"#utility.yul\":15529:15546   */\n      add\n        /* \"#utility.yul\":15522:15569   */\n      mstore\n        /* \"#utility.yul\":15586:15717   */\n      tag_520\n        /* \"#utility.yul\":15712:15716   */\n      dup2\n        /* \"#utility.yul\":15586:15717   */\n      tag_455\n      jump\t// in\n    tag_520:\n        /* \"#utility.yul\":15578:15717   */\n      swap1\n      pop\n        /* \"#utility.yul\":15305:15724   */\n      swap2\n      swap1\n      pop\n      jump\t// out\n        /* \"#utility.yul\":15730:16149   */\n    tag_225:\n        /* \"#utility.yul\":15896:15900   */\n      0x00\n        /* \"#utility.yul\":15934:15936   */\n      0x20\n        /* \"#utility.yul\":15923:15932   */\n      dup3\n        /* \"#utility.yul\":15919:15937   */\n      add\n        /* \"#utility.yul\":15911:15937   */\n      swap1\n      pop\n        /* \"#utility.yul\":15983:15992   */\n      dup2\n        /* \"#utility.yul\":15977:15981   */\n      dup2\n        /* \"#utility.yul\":15973:15993   */\n      sub\n        /* \"#utility.yul\":15969:15970   */\n      0x00\n        /* \"#utility.yul\":15958:15967   */\n      dup4\n        /* \"#utility.yul\":15954:15971   */\n      add\n        /* \"#utility.yul\":15947:15994   */\n      mstore\n        /* \"#utility.yul\":16011:16142   */\n      tag_522\n        /* \"#utility.yul\":16137:16141   */\n      dup2\n        /* \"#utility.yul\":16011:16142   */\n      tag_460\n      jump\t// in\n    tag_522:\n        /* \"#utility.yul\":16003:16142   */\n      swap1\n      pop\n        /* \"#utility.yul\":15730:16149   */\n      swap2\n      swap1\n      pop\n      jump\t// out\n        /* \"#utility.yul\":16155:16574   */\n    tag_203:\n        /* \"#utility.yul\":16321:16325   */\n      0x00\n        /* \"#utility.yul\":16359:16361   */\n      0x20\n        /* \"#utility.yul\":16348:16357   */\n      dup3\n        /* \"#utility.yul\":16344:16362   */\n      add\n        /* \"#utility.yul\":16336:16362   */\n      swap1\n      pop\n        /* \"#utility.yul\":16408:16417   */\n      dup2\n        /* \"#utility.yul\":16402:16406   */\n      dup2\n        /* \"#utility.yul\":16398:16418   */\n      sub\n        /* \"#utility.yul\":16394:16395   */\n      0x00\n        /* \"#utility.yul\":16383:16392   */\n      dup4\n        /* \"#utility.yul\":16379:16396   */\n      add\n        /* \"#utility.yul\":16372:16419   */\n      mstore\n        /* \"#utility.yul\":16436:16567   */\n      tag_524\n        /* \"#utility.yul\":16562:16566   */\n      dup2\n        /* \"#utility.yul\":16436:16567   */\n      tag_465\n      jump\t// in\n    tag_524:\n        /* \"#utility.yul\":16428:16567   */\n      swap1\n      pop\n        /* \"#utility.yul\":16155:16574   */\n      swap2\n      swap1\n      pop\n      jump\t// out\n        /* \"#utility.yul\":16580:16999   */\n    tag_176:\n        /* \"#utility.yul\":16746:16750   */\n      0x00\n        /* \"#utility.yul\":16784:16786   */\n      0x20\n        /* \"#utility.yul\":16773:16782   */\n      dup3\n        /* \"#utility.yul\":16769:16787   */\n      add\n        /* \"#utility.yul\":16761:16787   */\n      swap1\n      pop\n        /* \"#utility.yul\":16833:16842   */\n      dup2\n        /* \"#utility.yul\":16827:16831   */\n      dup2\n        /* \"#utility.yul\":16823:16843   */\n      sub\n        /* \"#utility.yul\":16819:16820   */\n      0x00\n        /* \"#utility.yul\":16808:16817   */\n      dup4\n        /* \"#utility.yul\":16804:16821   */\n      add\n        /* \"#utility.yul\":16797:16844   */\n      mstore\n        /* \"#utility.yul\":16861:16992   */\n      tag_526\n        /* \"#utility.yul\":16987:16991   */\n      dup2\n        /* \"#utility.yul\":16861:16992   */\n      tag_470\n      jump\t// in\n    tag_526:\n        /* \"#utility.yul\":16853:16992   */\n      swap1\n      pop\n        /* \"#utility.yul\":16580:16999   */\n      swap2\n      swap1\n      pop\n      jump\t// out\n        /* \"#utility.yul\":17005:17424   */\n    tag_187:\n        /* \"#utility.yul\":17171:17175   */\n      0x00\n        /* \"#utility.yul\":17209:17211   */\n      0x20\n        /* \"#utility.yul\":17198:17207   */\n      dup3\n        /* \"#utility.yul\":17194:17212   */\n      add\n        /* \"#utility.yul\":17186:17212   */\n      swap1\n      pop\n        /* \"#utility.yul\":17258:17267   */\n      dup2\n        /* \"#utility.yul\":17252:17256   */\n      dup2\n        /* \"#utility.yul\":17248:17268   */\n      sub\n        /* \"#utility.yul\":17244:17245   */\n      0x00\n        /* \"#utility.yul\":17233:17242   */\n      dup4\n        /* \"#utility.yul\":17229:17246   */\n      add\n        /* \"#utility.yul\":17222:17269   */\n      mstore\n        /* \"#utility.yul\":17286:17417   */\n      tag_528\n        /* \"#utility.yul\":17412:17416   */\n      dup2\n        /* \"#utility.yul\":17286:17417   */\n      tag_475\n      jump\t// in\n    tag_528:\n        /* \"#utility.yul\":17278:17417   */\n      swap1\n      pop\n        /* \"#utility.yul\":17005:17424   */\n      swap2\n      swap1\n      pop\n      jump\t// out\n        /* \"#utility.yul\":17430:17652   */\n    tag_31:\n        /* \"#utility.yul\":17523:17527   */\n      0x00\n        /* \"#utility.yul\":17561:17563   */\n      0x20\n        /* \"#utility.yul\":17550:17559   */\n      dup3\n        /* \"#utility.yul\":17546:17564   */\n      add\n        /* \"#utility.yul\":17538:17564   */\n      swap1\n      pop\n        /* \"#utility.yul\":17574:17645   */\n      tag_530\n        /* \"#utility.yul\":17642:17643   */\n      0x00\n        /* \"#utility.yul\":17631:17640   */\n      dup4\n        /* \"#utility.yul\":17627:17644   */\n      add\n        /* \"#utility.yul\":17618:17624   */\n      dup5\n        /* \"#utility.yul\":17574:17645   */\n      tag_480\n      jump\t// in\n    tag_530:\n        /* \"#utility.yul\":17430:17652   */\n      swap3\n      swap2\n      pop\n      pop\n      jump\t// out\n        /* \"#utility.yul\":17739:17837   */\n    tag_387:\n        /* \"#utility.yul\":17790:17796   */\n      0x00\n        /* \"#utility.yul\":17824:17829   */\n      dup2\n        /* \"#utility.yul\":17818:17830   */\n      mload\n        /* \"#utility.yul\":17808:17830   */\n      swap1\n      pop\n        /* \"#utility.yul\":17739:17837   */\n      swap2\n      swap1\n      pop\n      jump\t// out\n        /* \"#utility.yul\":17843:17942   */\n    tag_399:\n        /* \"#utility.yul\":17895:17901   */\n      0x00\n        /* \"#utility.yul\":17929:17934   */\n      dup2\n        /* \"#utility.yul\":17923:17935   */\n      mload\n        /* \"#utility.yul\":17913:17935   */\n      swap1\n      pop\n        /* \"#utility.yul\":17843:17942   */\n      swap2\n      swap1\n      pop\n      jump\t// out\n        /* \"#utility.yul\":17948:18095   */\n    tag_389:\n        /* \"#utility.yul\":18049:18060   */\n      0x00\n        /* \"#utility.yul\":18086:18089   */\n      dup2\n        /* \"#utility.yul\":18071:18089   */\n      swap1\n      pop\n        /* \"#utility.yul\":17948:18095   */\n      swap3\n      swap2\n      pop\n      pop\n      jump\t// out\n        /* \"#utility.yul\":18101:18270   */\n    tag_401:\n        /* \"#utility.yul\":18185:18196   */\n      0x00\n        /* \"#utility.yul\":18219:18225   */\n      dup3\n        /* \"#utility.yul\":18214:18217   */\n      dup3\n        /* \"#utility.yul\":18207:18226   */\n      mstore\n        /* \"#utility.yul\":18259:18263   */\n      0x20\n        /* \"#utility.yul\":18254:18257   */\n      dup3\n        /* \"#utility.yul\":18250:18264   */\n      add\n        /* \"#utility.yul\":18235:18264   */\n      swap1\n      pop\n        /* \"#utility.yul\":18101:18270   */\n      swap3\n      swap2\n      pop\n      pop\n      jump\t// out\n        /* \"#utility.yul\":18276:18581   */\n    tag_292:\n        /* \"#utility.yul\":18316:18319   */\n      0x00\n        /* \"#utility.yul\":18335:18355   */\n      tag_538\n        /* \"#utility.yul\":18353:18354   */\n      dup3\n        /* \"#utility.yul\":18335:18355   */\n      tag_483\n      jump\t// in\n    tag_538:\n        /* \"#utility.yul\":18330:18355   */\n      swap2\n      pop\n        /* \"#utility.yul\":18369:18389   */\n      tag_539\n        /* \"#utility.yul\":18387:18388   */\n      dup4\n        /* \"#utility.yul\":18369:18389   */\n      tag_483\n      jump\t// in\n    tag_539:\n        /* \"#utility.yul\":18364:18389   */\n      swap3\n      pop\n        /* \"#utility.yul\":18523:18524   */\n      dup3\n        /* \"#utility.yul\":18455:18521   */\n      0xffffffffffffffffffffffffffffffffffffffffffffffffffffffffffffffff\n        /* \"#utility.yul\":18451:18525   */\n      sub\n        /* \"#utility.yul\":18448:18449   */\n      dup3\n        /* \"#utility.yul\":18445:18526   */\n      gt\n        /* \"#utility.yul\":18442:18549   */\n      iszero\n      tag_540\n      jumpi\n        /* \"#utility.yul\":18529:18547   */\n      tag_541\n      tag_542\n      jump\t// in\n    tag_541:\n        /* \"#utility.yul\":18442:18549   */\n    tag_540:\n        /* \"#utility.yul\":18573:18574   */\n      dup3\n        /* \"#utility.yul\":18570:18571   */\n      dup3\n        /* \"#utility.yul\":18566:18575   */\n      add\n        /* \"#utility.yul\":18559:18575   */\n      swap1\n      pop\n        /* \"#utility.yul\":18276:18581   */\n      swap3\n      swap2\n      pop\n      pop\n      jump\t// out\n        /* \"#utility.yul\":18587:18772   */\n    tag_289:\n        /* \"#utility.yul\":18627:18628   */\n      0x00\n        /* \"#utility.yul\":18644:18664   */\n      tag_544\n        /* \"#utility.yul\":18662:18663   */\n      dup3\n        /* \"#utility.yul\":18644:18664   */\n      tag_483\n      jump\t// in\n    tag_544:\n        /* \"#utility.yul\":18639:18664   */\n      swap2\n      pop\n        /* \"#utility.yul\":18678:18698   */\n      tag_545\n        /* \"#utility.yul\":18696:18697   */\n      dup4\n        /* \"#utility.yul\":18678:18698   */\n      tag_483\n      jump\t// in\n    tag_545:\n        /* \"#utility.yul\":18673:18698   */\n      swap3\n      pop\n        /* \"#utility.yul\":18717:18718   */\n      dup3\n        /* \"#utility.yul\":18707:18742   */\n      tag_546\n      jumpi\n        /* \"#utility.yul\":18722:18740   */\n      tag_547\n      tag_548\n      jump\t// in\n    tag_547:\n        /* \"#utility.yul\":18707:18742   */\n    tag_546:\n        /* \"#utility.yul\":18764:18765   */\n      dup3\n        /* \"#utility.yul\":18761:18762   */\n      dup3\n        /* \"#utility.yul\":18757:18766   */\n      div\n        /* \"#utility.yul\":18752:18766   */\n      swap1\n      pop\n        /* \"#utility.yul\":18587:18772   */\n      swap3\n      swap2\n      pop\n      pop\n      jump\t// out\n        /* \"#utility.yul\":18778:19126   */\n    tag_295:\n        /* \"#utility.yul\":18818:18825   */\n      0x00\n        /* \"#utility.yul\":18841:18861   */\n      tag_550\n        /* \"#utility.yul\":18859:18860   */\n      dup3\n        /* \"#utility.yul\":18841:18861   */\n      tag_483\n      jump\t// in\n    tag_550:\n        /* \"#utility.yul\":18836:18861   */\n      swap2\n      pop\n        /* \"#utility.yul\":18875:18895   */\n      tag_551\n        /* \"#utility.yul\":18893:18894   */\n      dup4\n        /* \"#utility.yul\":18875:18895   */\n      tag_483\n      jump\t// in\n    tag_551:\n        /* \"#utility.yul\":18870:18895   */\n      swap3\n      pop\n        /* \"#utility.yul\":19063:19064   */\n      dup2\n        /* \"#utility.yul\":18995:19061   */\n      0xffffffffffffffffffffffffffffffffffffffffffffffffffffffffffffffff\n        /* \"#utility.yul\":18991:19065   */\n      div\n        /* \"#utility.yul\":18988:18989   */\n      dup4\n        /* \"#utility.yul\":18985:19066   */\n      gt\n        /* \"#utility.yul\":18980:18981   */\n      dup3\n        /* \"#utility.yul\":18973:18982   */\n      iszero\n        /* \"#utility.yul\":18966:18983   */\n      iszero\n        /* \"#utility.yul\":18962:19067   */\n      and\n        /* \"#utility.yul\":18959:19090   */\n      iszero\n      tag_552\n      jumpi\n        /* \"#utility.yul\":19070:19088   */\n      tag_553\n      tag_542\n      jump\t// in\n    tag_553:\n        /* \"#utility.yul\":18959:19090   */\n    tag_552:\n        /* \"#utility.yul\":19118:19119   */\n      dup3\n        /* \"#utility.yul\":19115:19116   */\n      dup3\n        /* \"#utility.yul\":19111:19120   */\n      mul\n        /* \"#utility.yul\":19100:19120   */\n      swap1\n      pop\n        /* \"#utility.yul\":18778:19126   */\n      swap3\n      swap2\n      pop\n      pop\n      jump\t// out\n        /* \"#utility.yul\":19132:19323   */\n    tag_286:\n        /* \"#utility.yul\":19172:19176   */\n      0x00\n        /* \"#utility.yul\":19192:19212   */\n      tag_555\n        /* \"#utility.yul\":19210:19211   */\n      dup3\n        /* \"#utility.yul\":19192:19212   */\n      tag_483\n      jump\t// in\n    tag_555:\n        /* \"#utility.yul\":19187:19212   */\n      swap2\n      pop\n        /* \"#utility.yul\":19226:19246   */\n      tag_556\n        /* \"#utility.yul\":19244:19245   */\n      dup4\n        /* \"#utility.yul\":19226:19246   */\n      tag_483\n      jump\t// in\n    tag_556:\n        /* \"#utility.yul\":19221:19246   */\n      swap3\n      pop\n        /* \"#utility.yul\":19265:19266   */\n      dup3\n        /* \"#utility.yul\":19262:19263   */\n      dup3\n        /* \"#utility.yul\":19259:19267   */\n      lt\n        /* \"#utility.yul\":19256:19290   */\n      iszero\n      tag_557\n      jumpi\n        /* \"#utility.yul\":19270:19288   */\n      tag_558\n      tag_542\n      jump\t// in\n    tag_558:\n        /* \"#utility.yul\":19256:19290   */\n    tag_557:\n        /* \"#utility.yul\":19315:19316   */\n      dup3\n        /* \"#utility.yul\":19312:19313   */\n      dup3\n        /* \"#utility.yul\":19308:19317   */\n      sub\n        /* \"#utility.yul\":19300:19317   */\n      swap1\n      pop\n        /* \"#utility.yul\":19132:19323   */\n      swap3\n      swap2\n      pop\n      pop\n      jump\t// out\n        /* \"#utility.yul\":19329:19425   */\n    tag_383:\n        /* \"#utility.yul\":19366:19373   */\n      0x00\n        /* \"#utility.yul\":19395:19419   */\n      tag_560\n        /* \"#utility.yul\":19413:19418   */\n      dup3\n        /* \"#utility.yul\":19395:19419   */\n      tag_561\n      jump\t// in\n    tag_560:\n        /* \"#utility.yul\":19384:19419   */\n      swap1\n      pop\n        /* \"#utility.yul\":19329:19425   */\n      swap2\n      swap1\n      pop\n      jump\t// out\n        /* \"#utility.yul\":19431:19521   */\n    tag_562:\n        /* \"#utility.yul\":19465:19472   */\n      0x00\n        /* \"#utility.yul\":19508:19513   */\n      dup2\n        /* \"#utility.yul\":19501:19514   */\n      iszero\n        /* \"#utility.yul\":19494:19515   */\n      iszero\n        /* \"#utility.yul\":19483:19515   */\n      swap1\n      pop\n        /* \"#utility.yul\":19431:19521   */\n      swap2\n      swap1\n      pop\n      jump\t// out\n        /* \"#utility.yul\":19527:19653   */\n    tag_561:\n        /* \"#utility.yul\":19564:19571   */\n      0x00\n        /* \"#utility.yul\":19604:19646   */\n      0xffffffffffffffffffffffffffffffffffffffff\n        /* \"#utility.yul\":19597:19602   */\n      dup3\n        /* \"#utility.yul\":19593:19647   */\n      and\n        /* \"#utility.yul\":19582:19647   */\n      swap1\n      pop\n        /* \"#utility.yul\":19527:19653   */\n      swap2\n      swap1\n      pop\n      jump\t// out\n        /* \"#utility.yul\":19659:19736   */\n    tag_483:\n        /* \"#utility.yul\":19696:19703   */\n      0x00\n        /* \"#utility.yul\":19725:19730   */\n      dup2\n        /* \"#utility.yul\":19714:19730   */\n      swap1\n      pop\n        /* \"#utility.yul\":19659:19736   */\n      swap2\n      swap1\n      pop\n      jump\t// out\n        /* \"#utility.yul\":19742:19882   */\n    tag_395:\n        /* \"#utility.yul\":19806:19815   */\n      0x00\n        /* \"#utility.yul\":19839:19876   */\n      tag_567\n        /* \"#utility.yul\":19870:19875   */\n      dup3\n        /* \"#utility.yul\":19839:19876   */\n      tag_568\n      jump\t// in\n    tag_567:\n        /* \"#utility.yul\":19826:19876   */\n      swap1\n      pop\n        /* \"#utility.yul\":19742:19882   */\n      swap2\n      swap1\n      pop\n      jump\t// out\n        /* \"#utility.yul\":19888:20014   */\n    tag_568:\n        /* \"#utility.yul\":19938:19947   */\n      0x00\n        /* \"#utility.yul\":19971:20008   */\n      tag_570\n        /* \"#utility.yul\":20002:20007   */\n      dup3\n        /* \"#utility.yul\":19971:20008   */\n      tag_571\n      jump\t// in\n    tag_570:\n        /* \"#utility.yul\":19958:20008   */\n      swap1\n      pop\n        /* \"#utility.yul\":19888:20014   */\n      swap2\n      swap1\n      pop\n      jump\t// out\n        /* \"#utility.yul\":20020:20133   */\n    tag_571:\n        /* \"#utility.yul\":20070:20079   */\n      0x00\n        /* \"#utility.yul\":20103:20127   */\n      tag_573\n        /* \"#utility.yul\":20121:20126   */\n      dup3\n        /* \"#utility.yul\":20103:20127   */\n      tag_561\n      jump\t// in\n    tag_573:\n        /* \"#utility.yul\":20090:20127   */\n      swap1\n      pop\n        /* \"#utility.yul\":20020:20133   */\n      swap2\n      swap1\n      pop\n      jump\t// out\n        /* \"#utility.yul\":20139:20446   */\n    tag_391:\n        /* \"#utility.yul\":20207:20208   */\n      0x00\n        /* \"#utility.yul\":20217:20330   */\n    tag_575:\n        /* \"#utility.yul\":20231:20237   */\n      dup4\n        /* \"#utility.yul\":20228:20229   */\n      dup2\n        /* \"#utility.yul\":20225:20238   */\n      lt\n        /* \"#utility.yul\":20217:20330   */\n      iszero\n      tag_577\n      jumpi\n        /* \"#utility.yul\":20316:20317   */\n      dup1\n        /* \"#utility.yul\":20311:20314   */\n      dup3\n        /* \"#utility.yul\":20307:20318   */\n      add\n        /* \"#utility.yul\":20301:20319   */\n      mload\n        /* \"#utility.yul\":20297:20298   */\n      dup2\n        /* \"#utility.yul\":20292:20295   */\n      dup5\n        /* \"#utility.yul\":20288:20299   */\n      add\n        /* \"#utility.yul\":20281:20320   */\n      mstore\n        /* \"#utility.yul\":20253:20255   */\n      0x20\n        /* \"#utility.yul\":20250:20251   */\n      dup2\n        /* \"#utility.yul\":20246:20256   */\n      add\n        /* \"#utility.yul\":20241:20256   */\n      swap1\n      pop\n        /* \"#utility.yul\":20217:20330   */\n      jump(tag_575)\n    tag_577:\n        /* \"#utility.yul\":20348:20354   */\n      dup4\n        /* \"#utility.yul\":20345:20346   */\n      dup2\n        /* \"#utility.yul\":20342:20355   */\n      gt\n        /* \"#utility.yul\":20339:20440   */\n      iszero\n      tag_578\n      jumpi\n        /* \"#utility.yul\":20428:20429   */\n      0x00\n        /* \"#utility.yul\":20419:20425   */\n      dup5\n        /* \"#utility.yul\":20414:20417   */\n      dup5\n        /* \"#utility.yul\":20410:20426   */\n      add\n        /* \"#utility.yul\":20403:20430   */\n      mstore\n        /* \"#utility.yul\":20339:20440   */\n    tag_578:\n        /* \"#utility.yul\":20188:20446   */\n      pop\n        /* \"#utility.yul\":20139:20446   */\n      pop\n      pop\n      pop\n      jump\t// out\n        /* \"#utility.yul\":20452:20628   */\n    tag_132:\n        /* \"#utility.yul\":20484:20485   */\n      0x00\n        /* \"#utility.yul\":20501:20521   */\n      tag_580\n        /* \"#utility.yul\":20519:20520   */\n      dup3\n        /* \"#utility.yul\":20501:20521   */\n      tag_483\n      jump\t// in\n    tag_580:\n        /* \"#utility.yul\":20496:20521   */\n      swap2\n      pop\n        /* \"#utility.yul\":20535:20555   */\n      tag_581\n        /* \"#utility.yul\":20553:20554   */\n      dup4\n        /* \"#utility.yul\":20535:20555   */\n      tag_483\n      jump\t// in\n    tag_581:\n        /* \"#utility.yul\":20530:20555   */\n      swap3\n      pop\n        /* \"#utility.yul\":20574:20575   */\n      dup3\n        /* \"#utility.yul\":20564:20599   */\n      tag_582\n      jumpi\n        /* \"#utility.yul\":20579:20597   */\n      tag_583\n      tag_548\n      jump\t// in\n    tag_583:\n        /* \"#utility.yul\":20564:20599   */\n    tag_582:\n        /* \"#utility.yul\":20620:20621   */\n      dup3\n        /* \"#utility.yul\":20617:20618   */\n      dup3\n        /* \"#utility.yul\":20613:20622   */\n      mod\n        /* \"#utility.yul\":20608:20622   */\n      swap1\n      pop\n        /* \"#utility.yul\":20452:20628   */\n      swap3\n      swap2\n      pop\n      pop\n      jump\t// out\n        /* \"#utility.yul\":20634:20814   */\n    tag_542:\n        /* \"#utility.yul\":20682:20759   */\n      0x4e487b7100000000000000000000000000000000000000000000000000000000\n        /* \"#utility.yul\":20679:20680   */\n      0x00\n        /* \"#utility.yul\":20672:20760   */\n      mstore\n        /* \"#utility.yul\":20779:20783   */\n      0x11\n        /* \"#utility.yul\":20776:20777   */\n      0x04\n        /* \"#utility.yul\":20769:20784   */\n      mstore\n        /* \"#utility.yul\":20803:20807   */\n      0x24\n        /* \"#utility.yul\":20800:20801   */\n      0x00\n        /* \"#utility.yul\":20793:20808   */\n      revert\n        /* \"#utility.yul\":20820:21000   */\n    tag_548:\n        /* \"#utility.yul\":20868:20945   */\n      0x4e487b7100000000000000000000000000000000000000000000000000000000\n        /* \"#utility.yul\":20865:20866   */\n      0x00\n        /* \"#utility.yul\":20858:20946   */\n      mstore\n        /* \"#utility.yul\":20965:20969   */\n      0x12\n        /* \"#utility.yul\":20962:20963   */\n      0x04\n        /* \"#utility.yul\":20955:20970   */\n      mstore\n        /* \"#utility.yul\":20989:20993   */\n      0x24\n        /* \"#utility.yul\":20986:20987   */\n      0x00\n        /* \"#utility.yul\":20979:20994   */\n      revert\n        /* \"#utility.yul\":21129:21246   */\n    tag_361:\n        /* \"#utility.yul\":21238:21239   */\n      0x00\n        /* \"#utility.yul\":21235:21236   */\n      dup1\n        /* \"#utility.yul\":21228:21240   */\n      revert\n        /* \"#utility.yul\":21252:21354   */\n    tag_404:\n        /* \"#utility.yul\":21293:21299   */\n      0x00\n        /* \"#utility.yul\":21344:21346   */\n      0x1f\n        /* \"#utility.yul\":21340:21347   */\n      not\n        /* \"#utility.yul\":21335:21337   */\n      0x1f\n        /* \"#utility.yul\":21328:21333   */\n      dup4\n        /* \"#utility.yul\":21324:21338   */\n      add\n        /* \"#utility.yul\":21320:21348   */\n      and\n        /* \"#utility.yul\":21310:21348   */\n      swap1\n      pop\n        /* \"#utility.yul\":21252:21354   */\n      swap2\n      swap1\n      pop\n      jump\t// out\n        /* \"#utility.yul\":21360:21526   */\n    tag_409:\n        /* \"#utility.yul\":21500:21518   */\n      0x4e6f7468696e6720746f20636c61696d00000000000000000000000000000000\n        /* \"#utility.yul\":21496:21497   */\n      0x00\n        /* \"#utility.yul\":21488:21494   */\n      dup3\n        /* \"#utility.yul\":21484:21498   */\n      add\n        /* \"#utility.yul\":21477:21519   */\n      mstore\n        /* \"#utility.yul\":21360:21526   */\n      pop\n      jump\t// out\n        /* \"#utility.yul\":21532:21703   */\n    tag_414:\n        /* \"#utility.yul\":21672:21695   */\n      0x4572726f723a20696e76616c6964207374616b65720000000000000000000000\n        /* \"#utility.yul\":21668:21669   */\n      0x00\n        /* \"#utility.yul\":21660:21666   */\n      dup3\n        /* \"#utility.yul\":21656:21670   */\n      add\n        /* \"#utility.yul\":21649:21696   */\n      mstore\n        /* \"#utility.yul\":21532:21703   */\n      pop\n      jump\t// out\n        /* \"#utility.yul\":21709:21938   */\n    tag_419:\n        /* \"#utility.yul\":21849:21883   */\n      0x5361666542455032303a204245503230206f7065726174696f6e20646964206e\n        /* \"#utility.yul\":21845:21846   */\n      0x00\n        /* \"#utility.yul\":21837:21843   */\n      dup3\n        /* \"#utility.yul\":21833:21847   */\n      add\n        /* \"#utility.yul\":21826:21884   */\n      mstore\n        /* \"#utility.yul\":21918:21930   */\n      0x6f74207375636365656400000000000000000000000000000000000000000000\n        /* \"#utility.yul\":21913:21915   */\n      0x20\n        /* \"#utility.yul\":21905:21911   */\n      dup3\n        /* \"#utility.yul\":21901:21916   */\n      add\n        /* \"#utility.yul\":21894:21931   */\n      mstore\n        /* \"#utility.yul\":21709:21938   */\n      pop\n      jump\t// out\n        /* \"#utility.yul\":21944:22169   */\n    tag_424:\n        /* \"#utility.yul\":22084:22118   */\n      0x4f776e61626c653a206e6577206f776e657220697320746865207a65726f2061\n        /* \"#utility.yul\":22080:22081   */\n      0x00\n        /* \"#utility.yul\":22072:22078   */\n      dup3\n        /* \"#utility.yul\":22068:22082   */\n      add\n        /* \"#utility.yul\":22061:22119   */\n      mstore\n        /* \"#utility.yul\":22153:22161   */\n      0x6464726573730000000000000000000000000000000000000000000000000000\n        /* \"#utility.yul\":22148:22150   */\n      0x20\n        /* \"#utility.yul\":22140:22146   */\n      dup3\n        /* \"#utility.yul\":22136:22151   */\n      add\n        /* \"#utility.yul\":22129:22162   */\n      mstore\n        /* \"#utility.yul\":21944:22169   */\n      pop\n      jump\t// out\n        /* \"#utility.yul\":22175:22339   */\n    tag_429:\n        /* \"#utility.yul\":22315:22331   */\n      0x496e76616c696420616d6f756e74000000000000000000000000000000000000\n        /* \"#utility.yul\":22311:22312   */\n      0x00\n        /* \"#utility.yul\":22303:22309   */\n      dup3\n        /* \"#utility.yul\":22299:22313   */\n      add\n        /* \"#utility.yul\":22292:22332   */\n      mstore\n        /* \"#utility.yul\":22175:22339   */\n      pop\n      jump\t// out\n        /* \"#utility.yul\":22345:22510   */\n    tag_434:\n        /* \"#utility.yul\":22485:22502   */\n      0x416c726561647920737461727465640000000000000000000000000000000000\n        /* \"#utility.yul\":22481:22482   */\n      0x00\n        /* \"#utility.yul\":22473:22479   */\n      dup3\n        /* \"#utility.yul\":22469:22483   */\n      add\n        /* \"#utility.yul\":22462:22503   */\n      mstore\n        /* \"#utility.yul\":22345:22510   */\n      pop\n      jump\t// out\n        /* \"#utility.yul\":22516:22741   */\n    tag_439:\n        /* \"#utility.yul\":22656:22690   */\n      0x416464726573733a20696e73756666696369656e742062616c616e636520666f\n        /* \"#utility.yul\":22652:22653   */\n      0x00\n        /* \"#utility.yul\":22644:22650   */\n      dup3\n        /* \"#utility.yul\":22640:22654   */\n      add\n        /* \"#utility.yul\":22633:22691   */\n      mstore\n        /* \"#utility.yul\":22725:22733   */\n      0x722063616c6c0000000000000000000000000000000000000000000000000000\n        /* \"#utility.yul\":22720:22722   */\n      0x20\n        /* \"#utility.yul\":22712:22718   */\n      dup3\n        /* \"#utility.yul\":22708:22723   */\n      add\n        /* \"#utility.yul\":22701:22734   */\n      mstore\n        /* \"#utility.yul\":22516:22741   */\n      pop\n      jump\t// out\n        /* \"#utility.yul\":22747:22928   */\n    tag_444:\n        /* \"#utility.yul\":22887:22920   */\n      0x416d6f756e742073686f756c642062652067726561746572207468616e203000\n        /* \"#utility.yul\":22883:22884   */\n      0x00\n        /* \"#utility.yul\":22875:22881   */\n      dup3\n        /* \"#utility.yul\":22871:22885   */\n      add\n        /* \"#utility.yul\":22864:22921   */\n      mstore\n        /* \"#utility.yul\":22747:22928   */\n      pop\n      jump\t// out\n        /* \"#utility.yul\":22934:23116   */\n    tag_449:\n        /* \"#utility.yul\":23074:23108   */\n      0x4f776e61626c653a2063616c6c6572206973206e6f7420746865206f776e6572\n        /* \"#utility.yul\":23070:23071   */\n      0x00\n        /* \"#utility.yul\":23062:23068   */\n      dup3\n        /* \"#utility.yul\":23058:23072   */\n      add\n        /* \"#utility.yul\":23051:23109   */\n      mstore\n        /* \"#utility.yul\":22934:23116   */\n      pop\n      jump\t// out\n        /* \"#utility.yul\":23122:23285   */\n    tag_454:\n        /* \"#utility.yul\":23262:23277   */\n      0x496e76616c69642076616c756500000000000000000000000000000000000000\n        /* \"#utility.yul\":23258:23259   */\n      0x00\n        /* \"#utility.yul\":23250:23256   */\n      dup3\n        /* \"#utility.yul\":23246:23260   */\n      add\n        /* \"#utility.yul\":23239:23278   */\n      mstore\n        /* \"#utility.yul\":23122:23285   */\n      pop\n      jump\t// out\n        /* \"#utility.yul\":23291:23470   */\n    tag_459:\n        /* \"#utility.yul\":23431:23462   */\n      0x416464726573733a2063616c6c20746f206e6f6e2d636f6e7472616374000000\n        /* \"#utility.yul\":23427:23428   */\n      0x00\n        /* \"#utility.yul\":23419:23425   */\n      dup3\n        /* \"#utility.yul\":23415:23429   */\n      add\n        /* \"#utility.yul\":23408:23463   */\n      mstore\n        /* \"#utility.yul\":23291:23470   */\n      pop\n      jump\t// out\n        /* \"#utility.yul\":23476:23652   */\n    tag_464:\n        /* \"#utility.yul\":23616:23644   */\n      0x496e76616c696420556e7374616b696e67204665652052617465000000000000\n        /* \"#utility.yul\":23612:23613   */\n      0x00\n        /* \"#utility.yul\":23604:23610   */\n      dup3\n        /* \"#utility.yul\":23600:23614   */\n      add\n        /* \"#utility.yul\":23593:23645   */\n      mstore\n        /* \"#utility.yul\":23476:23652   */\n      pop\n      jump\t// out\n        /* \"#utility.yul\":23658:23831   */\n    tag_469:\n        /* \"#utility.yul\":23798:23823   */\n      0x496e76616c6964204c6f636b7570204475726174696f6e000000000000000000\n        /* \"#utility.yul\":23794:23795   */\n      0x00\n        /* \"#utility.yul\":23786:23792   */\n      dup3\n        /* \"#utility.yul\":23782:23796   */\n      add\n        /* \"#utility.yul\":23775:23824   */\n      mstore\n        /* \"#utility.yul\":23658:23831   */\n      pop\n      jump\t// out\n        /* \"#utility.yul\":23837:24000   */\n    tag_474:\n        /* \"#utility.yul\":23977:23992   */\n      0x43616e2774206265207a65726f00000000000000000000000000000000000000\n        /* \"#utility.yul\":23973:23974   */\n      0x00\n        /* \"#utility.yul\":23965:23971   */\n      dup3\n        /* \"#utility.yul\":23961:23975   */\n      add\n        /* \"#utility.yul\":23954:23993   */\n      mstore\n        /* \"#utility.yul\":23837:24000   */\n      pop\n      jump\t// out\n        /* \"#utility.yul\":24006:24169   */\n    tag_479:\n        /* \"#utility.yul\":24146:24161   */\n      0x496e73756666696369656e742100000000000000000000000000000000000000\n        /* \"#utility.yul\":24142:24143   */\n      0x00\n        /* \"#utility.yul\":24134:24140   */\n      dup3\n        /* \"#utility.yul\":24130:24144   */\n      add\n        /* \"#utility.yul\":24123:24162   */\n      mstore\n        /* \"#utility.yul\":24006:24169   */\n      pop\n      jump\t// out\n        /* \"#utility.yul\":24175:24297   */\n    tag_346:\n        /* \"#utility.yul\":24248:24272   */\n      tag_606\n        /* \"#utility.yul\":24266:24271   */\n      dup2\n        /* \"#utility.yul\":24248:24272   */\n      tag_383\n      jump\t// in\n    tag_606:\n        /* \"#utility.yul\":24241:24246   */\n      dup2\n        /* \"#utility.yul\":24238:24273   */\n      eq\n        /* \"#utility.yul\":24228:24291   */\n      tag_607\n      jumpi\n        /* \"#utility.yul\":24287:24288   */\n      0x00\n        /* \"#utility.yul\":24284:24285   */\n      dup1\n        /* \"#utility.yul\":24277:24289   */\n      revert\n        /* \"#utility.yul\":24228:24291   */\n    tag_607:\n        /* \"#utility.yul\":24175:24297   */\n      pop\n      jump\t// out\n        /* \"#utility.yul\":24303:24419   */\n    tag_350:\n        /* \"#utility.yul\":24373:24394   */\n      tag_609\n        /* \"#utility.yul\":24388:24393   */\n      dup2\n        /* \"#utility.yul\":24373:24394   */\n      tag_562\n      jump\t// in\n    tag_609:\n        /* \"#utility.yul\":24366:24371   */\n      dup2\n        /* \"#utility.yul\":24363:24395   */\n      eq\n        /* \"#utility.yul\":24353:24413   */\n      tag_610\n      jumpi\n        /* \"#utility.yul\":24409:24410   */\n      0x00\n        /* \"#utility.yul\":24406:24407   */\n      dup1\n        /* \"#utility.yul\":24399:24411   */\n      revert\n        /* \"#utility.yul\":24353:24413   */\n    tag_610:\n        /* \"#utility.yul\":24303:24419   */\n      pop\n      jump\t// out\n        /* \"#utility.yul\":24425:24547   */\n    tag_354:\n        /* \"#utility.yul\":24498:24522   */\n      tag_612\n        /* \"#utility.yul\":24516:24521   */\n      dup2\n        /* \"#utility.yul\":24498:24522   */\n      tag_483\n      jump\t// in\n    tag_612:\n        /* \"#utility.yul\":24491:24496   */\n      dup2\n        /* \"#utility.yul\":24488:24523   */\n      eq\n        /* \"#utility.yul\":24478:24541   */\n      tag_613\n      jumpi\n        /* \"#utility.yul\":24537:24538   */\n      0x00\n        /* \"#utility.yul\":24534:24535   */\n      dup1\n        /* \"#utility.yul\":24527:24539   */\n      revert\n        /* \"#utility.yul\":24478:24541   */\n    tag_613:\n        /* \"#utility.yul\":24425:24547   */\n      pop\n      jump\t// out\n\n    auxdata: 0xa2646970667358221220a43978a8b28d23996eee28edfd08d0451b37554b69ba8f655b1a47e3eba5778264736f6c63430008070033\n}\n",
				"bytecode": {
					"linkReferences": {},
					"object": "60806040523480156200001157600080fd5b5060405162002d1938038062002d198339818101604052810190620000379190620001c1565b620000576200004b620000af60201b60201c565b620000b760201b60201c565b620000676200017b60201b60201c565b80600960006101000a81548173ffffffffffffffffffffffffffffffffffffffff021916908373ffffffffffffffffffffffffffffffffffffffff1602179055505062000246565b600033905090565b60008060009054906101000a900473ffffffffffffffffffffffffffffffffffffffff169050816000806101000a81548173ffffffffffffffffffffffffffffffffffffffff021916908373ffffffffffffffffffffffffffffffffffffffff1602179055508173ffffffffffffffffffffffffffffffffffffffff168173ffffffffffffffffffffffffffffffffffffffff167f8be0079c531659141344cd1fd0a4f28419497f9722a3daafe3b4186f6b6457e060405160405180910390a35050565b60c86003819055506105dc600181905550606460048190555062093a806002819055506276a700600581905550565b600081519050620001bb816200022c565b92915050565b600060208284031215620001da57620001d962000227565b5b6000620001ea84828501620001aa565b91505092915050565b6000620002008262000207565b9050919050565b600073ffffffffffffffffffffffffffffffffffffffff82169050919050565b600080fd5b6200023781620001f3565b81146200024357600080fd5b50565b612ac380620002566000396000f3fe608060405234801561001057600080fd5b50600436106101425760003560e01c8063817b1cd2116100b8578063a4e2d6341161007c578063a4e2d634146102f3578063a694fc3a14610311578063f2fde38b1461032d578063f7b2a7be14610349578063f993185514610367578063fc0c546a1461039757610142565b8063817b1cd214610261578063861870821461027f5780638da5cb5b1461029d57806391e07e7a146102bb5780639e447fc6146102d757610142565b80634b77dd9e1161010a5780634b77dd9e146101c55780635715ec11146101e15780635d2ec65d146101ff578063692642e71461021d578063715018a6146102395780637e1a37861461024357610142565b80630917e77614610147578063129488d3146101655780632e1a7d4d146101835780634641257d1461019f5780634b62b70b146101a9575b600080fd5b61014f6103b5565b60405161015c91906124b7565b60405180910390f35b61016d6103bf565b60405161017a91906124b7565b60405180910390f35b61019d60048036038101906101989190611eca565b610409565b005b6101a76107d8565b005b6101c360048036038101906101be9190611eca565b610aa1565b005b6101df60048036038101906101da9190611f24565b610b6a565b005b6101e9610e65565b6040516101f691906124b7565b60405180910390f35b610207610e72565b60405161021491906124b7565b60405180910390f35b61023760048036038101906102329190611eca565b610ebc565b005b610241610fd1565b005b61024b611059565b60405161025891906124b7565b60405180910390f35b610269611063565b60405161027691906124b7565b60405180910390f35b610287611069565b60405161029491906124b7565b60405180910390f35b6102a56110b3565b6040516102b2919061221f565b60405180910390f35b6102d560048036038101906102d09190611eca565b6110dc565b005b6102f160048036038101906102ec9190611eca565b6111dc565b005b6102fb6112dc565b60405161030891906124b7565b60405180910390f35b61032b60048036038101906103269190611eca565b611417565b005b61034760048036038101906103429190611e70565b6116dc565b005b6103516117d4565b60405161035e91906124b7565b60405180910390f35b610381600480360381019061037c9190611e70565b61181e565b60405161038e91906124b7565b60405180910390f35b61039f61186a565b6040516103ac919061229a565b60405180910390f35b6000600854905090565b6000600760003373ffffffffffffffffffffffffffffffffffffffff1673ffffffffffffffffffffffffffffffffffffffff16815260200190815260200160002060020154905090565b6000600760003373ffffffffffffffffffffffffffffffffffffffff1673ffffffffffffffffffffffffffffffffffffffff16815260200190815260200160002090506000821161048f576040517f08c379a0000000000000000000000000000000000000000000000000000000008152600401610486906123b7565b60405180910390fd5b80600101548211156104d6576040517f08c379a00000000000000000000000000000000000000000000000000000000081526004016104cd90612357565b60405180910390fd5b6104de611890565b6000600960009054906101000a900473ffffffffffffffffffffffffffffffffffffffff1673ffffffffffffffffffffffffffffffffffffffff166370a08231306040518263ffffffff1660e01b815260040161053b919061221f565b60206040518083038186803b15801561055357600080fd5b505afa158015610567573d6000803e3d6000fd5b505050506040513d601f19601f8201168201806040525081019061058b9190611ef7565b831061064157600960009054906101000a900473ffffffffffffffffffffffffffffffffffffffff1673ffffffffffffffffffffffffffffffffffffffff166370a08231306040518263ffffffff1660e01b81526004016105ec919061221f565b60206040518083038186803b15801561060457600080fd5b505afa158015610618573d6000803e3d6000fd5b505050506040513d601f19601f8201168201806040525081019061063c9190611ef7565b610643565b825b905060006106736201518061066585600301544261196c90919063ffffffff16565b61198290919063ffffffff16565b9050600060649050600060018560020154146106aa576106a2600554866003015461199890919063ffffffff16565b4210156106c8565b6000600254846106ba91906126ca565b1480156106c75750600083115b5b9050806106d55760015491505b61070e6106ff6127106106f185886119ae90919063ffffffff16565b61198290919063ffffffff16565b8561196c90919063ffffffff16565b93506107258460085461196c90919063ffffffff16565b60088190555061074284866001015461196c90919063ffffffff16565b85600101819055506107973385600960009054906101000a900473ffffffffffffffffffffffffffffffffffffffff1673ffffffffffffffffffffffffffffffffffffffff166119c49092919063ffffffff16565b7f884edad9ce6fa2440d8a54cc123490eb96d2768479d49ff9c7366125a942436433856040516107c8929190612271565b60405180910390a1505050505050565b6107e0611890565b6000600760003373ffffffffffffffffffffffffffffffffffffffff1673ffffffffffffffffffffffffffffffffffffffff1681526020019081526020016000209050600061086861085561271061084760045486600001546119ae90919063ffffffff16565b61198290919063ffffffff16565b836000015461196c90919063ffffffff16565b9050600081116108ad576040517f08c379a00000000000000000000000000000000000000000000000000000000081526004016108a4906122d7565b60405180910390fd5b600960009054906101000a900473ffffffffffffffffffffffffffffffffffffffff1673ffffffffffffffffffffffffffffffffffffffff166370a08231306040518263ffffffff1660e01b8152600401610908919061221f565b60206040518083038186803b15801561092057600080fd5b505afa158015610934573d6000803e3d6000fd5b505050506040513d601f19601f820116820180604052508101906109589190611ef7565b811115610a0d57600960009054906101000a900473ffffffffffffffffffffffffffffffffffffffff1673ffffffffffffffffffffffffffffffffffffffff166370a08231306040518263ffffffff1660e01b81526004016109ba919061221f565b60206040518083038186803b1580156109d257600080fd5b505afa1580156109e6573d6000803e3d6000fd5b505050506040513d601f19601f82011682018060405250810190610a0a9190611ef7565b90505b610a5a3382600960009054906101000a900473ffffffffffffffffffffffffffffffffffffffff1673ffffffffffffffffffffffffffffffffffffffff166119c49092919063ffffffff16565b600082600001819055507fc9695243a805adb74c91f28311176c65b417e842d5699893cef56d18bfa48cba3382604051610a95929190612271565b60405180910390a15050565b610aa9611a4a565b73ffffffffffffffffffffffffffffffffffffffff16610ac76110b3565b73ffffffffffffffffffffffffffffffffffffffff1614610b1d576040517f08c379a0000000000000000000000000000000000000000000000000000000008152600401610b14906123d7565b60405180910390fd5b60008111610b60576040517f08c379a0000000000000000000000000000000000000000000000000000000008152600401610b5790612477565b60405180910390fd5b8060058190555050565b60008211610bad576040517f08c379a0000000000000000000000000000000000000000000000000000000008152600401610ba4906123b7565b60405180910390fd5b81600960009054906101000a900473ffffffffffffffffffffffffffffffffffffffff1673ffffffffffffffffffffffffffffffffffffffff166370a08231336040518263ffffffff1660e01b8152600401610c09919061221f565b60206040518083038186803b158015610c2157600080fd5b505afa158015610c35573d6000803e3d6000fd5b505050506040513d601f19601f82011682018060405250810190610c599190611ef7565b11610c99576040517f08c379a0000000000000000000000000000000000000000000000000000000008152600401610c9090612497565b60405180910390fd5b6055600760003373ffffffffffffffffffffffffffffffffffffffff1673ffffffffffffffffffffffffffffffffffffffff168152602001908152602001600020600501541415610d1f576040517f08c379a0000000000000000000000000000000000000000000000000000000008152600401610d1690612377565b60405180910390fd5b80600760003373ffffffffffffffffffffffffffffffffffffffff1673ffffffffffffffffffffffffffffffffffffffff1681526020019081526020016000206002018190555042600760003373ffffffffffffffffffffffffffffffffffffffff1673ffffffffffffffffffffffffffffffffffffffff168152602001908152602001600020600301819055506055600760003373ffffffffffffffffffffffffffffffffffffffff1673ffffffffffffffffffffffffffffffffffffffff168152602001908152602001600020600501819055506006339080600181540180825580915050600190039060005260206000200160009091909190916101000a81548173ffffffffffffffffffffffffffffffffffffffff021916908373ffffffffffffffffffffffffffffffffffffffff160217905550610e6182611417565b5050565b6000600680549050905090565b6000600760003373ffffffffffffffffffffffffffffffffffffffff1673ffffffffffffffffffffffffffffffffffffffff16815260200190815260200160002060000154905090565b610ec4611a4a565b73ffffffffffffffffffffffffffffffffffffffff16610ee26110b3565b73ffffffffffffffffffffffffffffffffffffffff1614610f38576040517f08c379a0000000000000000000000000000000000000000000000000000000008152600401610f2f906123d7565b60405180910390fd5b60008111610f7b576040517f08c379a0000000000000000000000000000000000000000000000000000000008152600401610f7290612457565b60405180910390fd5b610f9162015180826119ae90919063ffffffff16565b6002819055507f189bda9782663c67a3f95c0aa5455924c711210b00281c60ead2f0dd8dbc924c81604051610fc691906124b7565b60405180910390a150565b610fd9611a4a565b73ffffffffffffffffffffffffffffffffffffffff16610ff76110b3565b73ffffffffffffffffffffffffffffffffffffffff161461104d576040517f08c379a0000000000000000000000000000000000000000000000000000000008152600401611044906123d7565b60405180910390fd5b6110576000611a52565b565b6000600354905090565b60085481565b6000600760003373ffffffffffffffffffffffffffffffffffffffff1673ffffffffffffffffffffffffffffffffffffffff16815260200190815260200160002060050154905090565b60008060009054906101000a900473ffffffffffffffffffffffffffffffffffffffff16905090565b6110e4611a4a565b73ffffffffffffffffffffffffffffffffffffffff166111026110b3565b73ffffffffffffffffffffffffffffffffffffffff1614611158576040517f08c379a000000000000000000000000000000000000000000000000000000000815260040161114f906123d7565b60405180910390fd5b6000811161119b576040517f08c379a000000000000000000000000000000000000000000000000000000000815260040161119290612437565b60405180910390fd5b806001819055507f150c688dd7595bf7862b8ab1fe46756450eb7d731037942b3bbc46f3f0e21b81816040516111d191906124b7565b60405180910390a150565b6111e4611a4a565b73ffffffffffffffffffffffffffffffffffffffff166112026110b3565b73ffffffffffffffffffffffffffffffffffffffff1614611258576040517f08c379a000000000000000000000000000000000000000000000000000000000815260040161124f906123d7565b60405180910390fd5b6000811161129b576040517f08c379a0000000000000000000000000000000000000000000000000000000008152600401611292906123f7565b60405180910390fd5b806003819055507f1946fb78c7ca778b54d82cabaac5ba67cf446f58d0ff1f8ceaebb6150e54e44f816040516112d191906124b7565b60405180910390a150565b60006055600760003373ffffffffffffffffffffffffffffffffffffffff1673ffffffffffffffffffffffffffffffffffffffff16815260200190815260200160002060050154146113315760019050611414565b6001600760003373ffffffffffffffffffffffffffffffffffffffff1673ffffffffffffffffffffffffffffffffffffffff16815260200190815260200160002060020154141561140f57600062093a806113ec620151806113de600760003373ffffffffffffffffffffffffffffffffffffffff1673ffffffffffffffffffffffffffffffffffffffff168152602001908152602001600020600301544261196c90919063ffffffff16565b61198290919063ffffffff16565b6113f691906126ca565b14611402576001611405565b60005b60ff169050611414565b600090505b90565b6000811161145a576040517f08c379a0000000000000000000000000000000000000000000000000000000008152600401611451906123b7565b60405180910390fd5b80600960009054906101000a900473ffffffffffffffffffffffffffffffffffffffff1673ffffffffffffffffffffffffffffffffffffffff166370a08231336040518263ffffffff1660e01b81526004016114b6919061221f565b60206040518083038186803b1580156114ce57600080fd5b505afa1580156114e2573d6000803e3d6000fd5b505050506040513d601f19601f820116820180604052508101906115069190611ef7565b11611546576040517f08c379a000000000000000000000000000000000000000000000000000000000815260040161153d90612497565b60405180910390fd5b6055600760003373ffffffffffffffffffffffffffffffffffffffff1673ffffffffffffffffffffffffffffffffffffffff16815260200190815260200160002060050154146115cb576040517f08c379a00000000000000000000000000000000000000000000000000000000081526004016115c2906122f7565b60405180910390fd5b6115d3611890565b6000600760003373ffffffffffffffffffffffffffffffffffffffff1673ffffffffffffffffffffffffffffffffffffffff1681526020019081526020016000209050611665333084600960009054906101000a900473ffffffffffffffffffffffffffffffffffffffff1673ffffffffffffffffffffffffffffffffffffffff16611b16909392919063ffffffff16565b61167c82826001015461199890919063ffffffff16565b81600101819055506116998260085461199890919063ffffffff16565b6008819055507f9e71bc8eea02a63969f509818f2dafb9254532904319f9dbda79b67bd34a5f3d33836040516116d0929190612271565b60405180910390a15050565b6116e4611a4a565b73ffffffffffffffffffffffffffffffffffffffff166117026110b3565b73ffffffffffffffffffffffffffffffffffffffff1614611758576040517f08c379a000000000000000000000000000000000000000000000000000000000815260040161174f906123d7565b60405180910390fd5b600073ffffffffffffffffffffffffffffffffffffffff168173ffffffffffffffffffffffffffffffffffffffff1614156117c8576040517f08c379a00000000000000000000000000000000000000000000000000000000081526004016117bf90612337565b60405180910390fd5b6117d181611a52565b50565b6000600760003373ffffffffffffffffffffffffffffffffffffffff1673ffffffffffffffffffffffffffffffffffffffff16815260200190815260200160002060000154905090565b6000600760008373ffffffffffffffffffffffffffffffffffffffff1673ffffffffffffffffffffffffffffffffffffffff168152602001908152602001600020600101549050919050565b600960009054906101000a900473ffffffffffffffffffffffffffffffffffffffff1681565b6000600760003373ffffffffffffffffffffffffffffffffffffffff1673ffffffffffffffffffffffffffffffffffffffff1681526020019081526020016000209050600061193e61271061193060035461192261190f6121c061190189600401544361196c90919063ffffffff16565b61198290919063ffffffff16565b87600101546119ae90919063ffffffff16565b6119ae90919063ffffffff16565b61198290919063ffffffff16565b905061195781836000015461199890919063ffffffff16565b82600001819055504382600401819055505050565b6000818361197a91906125e5565b905092915050565b60008183611990919061255a565b905092915050565b600081836119a69190612504565b905092915050565b600081836119bc919061258b565b905092915050565b611a458363a9059cbb60e01b84846040516024016119e3929190612271565b604051602081830303815290604052907bffffffffffffffffffffffffffffffffffffffffffffffffffffffff19166020820180517bffffffffffffffffffffffffffffffffffffffffffffffffffffffff8381831617835250505050611b9f565b505050565b600033905090565b60008060009054906101000a900473ffffffffffffffffffffffffffffffffffffffff169050816000806101000a81548173ffffffffffffffffffffffffffffffffffffffff021916908373ffffffffffffffffffffffffffffffffffffffff1602179055508173ffffffffffffffffffffffffffffffffffffffff168173ffffffffffffffffffffffffffffffffffffffff167f8be0079c531659141344cd1fd0a4f28419497f9722a3daafe3b4186f6b6457e060405160405180910390a35050565b611b99846323b872dd60e01b858585604051602401611b379392919061223a565b604051602081830303815290604052907bffffffffffffffffffffffffffffffffffffffffffffffffffffffff19166020820180517bffffffffffffffffffffffffffffffffffffffffffffffffffffffff8381831617835250505050611b9f565b50505050565b6000611c01826040518060400160405280602081526020017f5361666542455032303a206c6f772d6c6576656c2063616c6c206661696c65648152508573ffffffffffffffffffffffffffffffffffffffff16611c669092919063ffffffff16565b9050600081511115611c615780806020019051810190611c219190611e9d565b611c60576040517f08c379a0000000000000000000000000000000000000000000000000000000008152600401611c5790612317565b60405180910390fd5b5b505050565b6060611c758484600085611c7e565b90509392505050565b606082471015611cc3576040517f08c379a0000000000000000000000000000000000000000000000000000000008152600401611cba90612397565b60405180910390fd5b611ccc85611d92565b611d0b576040517f08c379a0000000000000000000000000000000000000000000000000000000008152600401611d0290612417565b60405180910390fd5b6000808673ffffffffffffffffffffffffffffffffffffffff168587604051611d349190612208565b60006040518083038185875af1925050503d8060008114611d71576040519150601f19603f3d011682016040523d82523d6000602084013e611d76565b606091505b5091509150611d86828286611db5565b92505050949350505050565b6000808273ffffffffffffffffffffffffffffffffffffffff163b119050919050565b60608315611dc557829050611e15565b600083511115611dd85782518084602001fd5b816040517f08c379a0000000000000000000000000000000000000000000000000000000008152600401611e0c91906122b5565b60405180910390fd5b9392505050565b600081359050611e2b81612a48565b92915050565b600081519050611e4081612a5f565b92915050565b600081359050611e5581612a76565b92915050565b600081519050611e6a81612a76565b92915050565b600060208284031215611e8657611e85612759565b5b6000611e9484828501611e1c565b91505092915050565b600060208284031215611eb357611eb2612759565b5b6000611ec184828501611e31565b91505092915050565b600060208284031215611ee057611edf612759565b5b6000611eee84828501611e46565b91505092915050565b600060208284031215611f0d57611f0c612759565b5b6000611f1b84828501611e5b565b91505092915050565b60008060408385031215611f3b57611f3a612759565b5b6000611f4985828601611e46565b9250506020611f5a85828601611e46565b9150509250929050565b611f6d81612619565b82525050565b6000611f7e826124d2565b611f8881856124e8565b9350611f98818560208601612697565b80840191505092915050565b611fad81612661565b82525050565b6000611fbe826124dd565b611fc881856124f3565b9350611fd8818560208601612697565b611fe18161275e565b840191505092915050565b6000611ff96010836124f3565b91506120048261276f565b602082019050919050565b600061201c6015836124f3565b915061202782612798565b602082019050919050565b600061203f602a836124f3565b915061204a826127c1565b604082019050919050565b60006120626026836124f3565b915061206d82612810565b604082019050919050565b6000612085600e836124f3565b91506120908261285f565b602082019050919050565b60006120a8600f836124f3565b91506120b382612888565b602082019050919050565b60006120cb6026836124f3565b91506120d6826128b1565b604082019050919050565b60006120ee601f836124f3565b91506120f982612900565b602082019050919050565b60006121116020836124f3565b915061211c82612929565b602082019050919050565b6000612134600d836124f3565b915061213f82612952565b602082019050919050565b6000612157601d836124f3565b91506121628261297b565b602082019050919050565b600061217a601a836124f3565b9150612185826129a4565b602082019050919050565b600061219d6017836124f3565b91506121a8826129cd565b602082019050919050565b60006121c0600d836124f3565b91506121cb826129f6565b602082019050919050565b60006121e3600d836124f3565b91506121ee82612a1f565b602082019050919050565b61220281612657565b82525050565b60006122148284611f73565b915081905092915050565b60006020820190506122346000830184611f64565b92915050565b600060608201905061224f6000830186611f64565b61225c6020830185611f64565b61226960408301846121f9565b949350505050565b60006040820190506122866000830185611f64565b61229360208301846121f9565b9392505050565b60006020820190506122af6000830184611fa4565b92915050565b600060208201905081810360008301526122cf8184611fb3565b905092915050565b600060208201905081810360008301526122f081611fec565b9050919050565b600060208201905081810360008301526123108161200f565b9050919050565b6000602082019050818103600083015261233081612032565b9050919050565b6000602082019050818103600083015261235081612055565b9050919050565b6000602082019050818103600083015261237081612078565b9050919050565b600060208201905081810360008301526123908161209b565b9050919050565b600060208201905081810360008301526123b0816120be565b9050919050565b600060208201905081810360008301526123d0816120e1565b9050919050565b600060208201905081810360008301526123f081612104565b9050919050565b6000602082019050818103600083015261241081612127565b9050919050565b600060208201905081810360008301526124308161214a565b9050919050565b600060208201905081810360008301526124508161216d565b9050919050565b6000602082019050818103600083015261247081612190565b9050919050565b60006020820190508181036000830152612490816121b3565b9050919050565b600060208201905081810360008301526124b0816121d6565b9050919050565b60006020820190506124cc60008301846121f9565b92915050565b600081519050919050565b600081519050919050565b600081905092915050565b600082825260208201905092915050565b600061250f82612657565b915061251a83612657565b9250827fffffffffffffffffffffffffffffffffffffffffffffffffffffffffffffffff0382111561254f5761254e6126fb565b5b828201905092915050565b600061256582612657565b915061257083612657565b9250826125805761257f61272a565b5b828204905092915050565b600061259682612657565b91506125a183612657565b9250817fffffffffffffffffffffffffffffffffffffffffffffffffffffffffffffffff04831182151516156125da576125d96126fb565b5b828202905092915050565b60006125f082612657565b91506125fb83612657565b92508282101561260e5761260d6126fb565b5b828203905092915050565b600061262482612637565b9050919050565b60008115159050919050565b600073ffffffffffffffffffffffffffffffffffffffff82169050919050565b6000819050919050565b600061266c82612673565b9050919050565b600061267e82612685565b9050919050565b600061269082612637565b9050919050565b60005b838110156126b557808201518184015260208101905061269a565b838111156126c4576000848401525b50505050565b60006126d582612657565b91506126e083612657565b9250826126f0576126ef61272a565b5b828206905092915050565b7f4e487b7100000000000000000000000000000000000000000000000000000000600052601160045260246000fd5b7f4e487b7100000000000000000000000000000000000000000000000000000000600052601260045260246000fd5b600080fd5b6000601f19601f8301169050919050565b7f4e6f7468696e6720746f20636c61696d00000000000000000000000000000000600082015250565b7f4572726f723a20696e76616c6964207374616b65720000000000000000000000600082015250565b7f5361666542455032303a204245503230206f7065726174696f6e20646964206e60008201527f6f74207375636365656400000000000000000000000000000000000000000000602082015250565b7f4f776e61626c653a206e6577206f776e657220697320746865207a65726f206160008201527f6464726573730000000000000000000000000000000000000000000000000000602082015250565b7f496e76616c696420616d6f756e74000000000000000000000000000000000000600082015250565b7f416c726561647920737461727465640000000000000000000000000000000000600082015250565b7f416464726573733a20696e73756666696369656e742062616c616e636520666f60008201527f722063616c6c0000000000000000000000000000000000000000000000000000602082015250565b7f416d6f756e742073686f756c642062652067726561746572207468616e203000600082015250565b7f4f776e61626c653a2063616c6c6572206973206e6f7420746865206f776e6572600082015250565b7f496e76616c69642076616c756500000000000000000000000000000000000000600082015250565b7f416464726573733a2063616c6c20746f206e6f6e2d636f6e7472616374000000600082015250565b7f496e76616c696420556e7374616b696e67204665652052617465000000000000600082015250565b7f496e76616c6964204c6f636b7570204475726174696f6e000000000000000000600082015250565b7f43616e2774206265207a65726f00000000000000000000000000000000000000600082015250565b7f496e73756666696369656e742100000000000000000000000000000000000000600082015250565b612a5181612619565b8114612a5c57600080fd5b50565b612a688161262b565b8114612a7357600080fd5b50565b612a7f81612657565b8114612a8a57600080fd5b5056fea2646970667358221220a43978a8b28d23996eee28edfd08d0451b37554b69ba8f655b1a47e3eba5778264736f6c63430008070033",
					"opcodes": "PUSH1 0x80 PUSH1 0x40 MSTORE CALLVALUE DUP1 ISZERO PUSH3 0x11 JUMPI PUSH1 0x0 DUP1 REVERT JUMPDEST POP PUSH1 0x40 MLOAD PUSH3 0x2D19 CODESIZE SUB DUP1 PUSH3 0x2D19 DUP4 CODECOPY DUP2 DUP2 ADD PUSH1 0x40 MSTORE DUP2 ADD SWAP1 PUSH3 0x37 SWAP2 SWAP1 PUSH3 0x1C1 JUMP JUMPDEST PUSH3 0x57 PUSH3 0x4B PUSH3 0xAF PUSH1 0x20 SHL PUSH1 0x20 SHR JUMP JUMPDEST PUSH3 0xB7 PUSH1 0x20 SHL PUSH1 0x20 SHR JUMP JUMPDEST PUSH3 0x67 PUSH3 0x17B PUSH1 0x20 SHL PUSH1 0x20 SHR JUMP JUMPDEST DUP1 PUSH1 0x9 PUSH1 0x0 PUSH2 0x100 EXP DUP2 SLOAD DUP2 PUSH20 0xFFFFFFFFFFFFFFFFFFFFFFFFFFFFFFFFFFFFFFFF MUL NOT AND SWAP1 DUP4 PUSH20 0xFFFFFFFFFFFFFFFFFFFFFFFFFFFFFFFFFFFFFFFF AND MUL OR SWAP1 SSTORE POP POP PUSH3 0x246 JUMP JUMPDEST PUSH1 0x0 CALLER SWAP1 POP SWAP1 JUMP JUMPDEST PUSH1 0x0 DUP1 PUSH1 0x0 SWAP1 SLOAD SWAP1 PUSH2 0x100 EXP SWAP1 DIV PUSH20 0xFFFFFFFFFFFFFFFFFFFFFFFFFFFFFFFFFFFFFFFF AND SWAP1 POP DUP2 PUSH1 0x0 DUP1 PUSH2 0x100 EXP DUP2 SLOAD DUP2 PUSH20 0xFFFFFFFFFFFFFFFFFFFFFFFFFFFFFFFFFFFFFFFF MUL NOT AND SWAP1 DUP4 PUSH20 0xFFFFFFFFFFFFFFFFFFFFFFFFFFFFFFFFFFFFFFFF AND MUL OR SWAP1 SSTORE POP DUP2 PUSH20 0xFFFFFFFFFFFFFFFFFFFFFFFFFFFFFFFFFFFFFFFF AND DUP2 PUSH20 0xFFFFFFFFFFFFFFFFFFFFFFFFFFFFFFFFFFFFFFFF AND PUSH32 0x8BE0079C531659141344CD1FD0A4F28419497F9722A3DAAFE3B4186F6B6457E0 PUSH1 0x40 MLOAD PUSH1 0x40 MLOAD DUP1 SWAP2 SUB SWAP1 LOG3 POP POP JUMP JUMPDEST PUSH1 0xC8 PUSH1 0x3 DUP2 SWAP1 SSTORE POP PUSH2 0x5DC PUSH1 0x1 DUP2 SWAP1 SSTORE POP PUSH1 0x64 PUSH1 0x4 DUP2 SWAP1 SSTORE POP PUSH3 0x93A80 PUSH1 0x2 DUP2 SWAP1 SSTORE POP PUSH3 0x76A700 PUSH1 0x5 DUP2 SWAP1 SSTORE POP JUMP JUMPDEST PUSH1 0x0 DUP2 MLOAD SWAP1 POP PUSH3 0x1BB DUP2 PUSH3 0x22C JUMP JUMPDEST SWAP3 SWAP2 POP POP JUMP JUMPDEST PUSH1 0x0 PUSH1 0x20 DUP3 DUP5 SUB SLT ISZERO PUSH3 0x1DA JUMPI PUSH3 0x1D9 PUSH3 0x227 JUMP JUMPDEST JUMPDEST PUSH1 0x0 PUSH3 0x1EA DUP5 DUP3 DUP6 ADD PUSH3 0x1AA JUMP JUMPDEST SWAP2 POP POP SWAP3 SWAP2 POP POP JUMP JUMPDEST PUSH1 0x0 PUSH3 0x200 DUP3 PUSH3 0x207 JUMP JUMPDEST SWAP1 POP SWAP2 SWAP1 POP JUMP JUMPDEST PUSH1 0x0 PUSH20 0xFFFFFFFFFFFFFFFFFFFFFFFFFFFFFFFFFFFFFFFF DUP3 AND SWAP1 POP SWAP2 SWAP1 POP JUMP JUMPDEST PUSH1 0x0 DUP1 REVERT JUMPDEST PUSH3 0x237 DUP2 PUSH3 0x1F3 JUMP JUMPDEST DUP2 EQ PUSH3 0x243 JUMPI PUSH1 0x0 DUP1 REVERT JUMPDEST POP JUMP JUMPDEST PUSH2 0x2AC3 DUP1 PUSH3 0x256 PUSH1 0x0 CODECOPY PUSH1 0x0 RETURN INVALID PUSH1 0x80 PUSH1 0x40 MSTORE CALLVALUE DUP1 ISZERO PUSH2 0x10 JUMPI PUSH1 0x0 DUP1 REVERT JUMPDEST POP PUSH1 0x4 CALLDATASIZE LT PUSH2 0x142 JUMPI PUSH1 0x0 CALLDATALOAD PUSH1 0xE0 SHR DUP1 PUSH4 0x817B1CD2 GT PUSH2 0xB8 JUMPI DUP1 PUSH4 0xA4E2D634 GT PUSH2 0x7C JUMPI DUP1 PUSH4 0xA4E2D634 EQ PUSH2 0x2F3 JUMPI DUP1 PUSH4 0xA694FC3A EQ PUSH2 0x311 JUMPI DUP1 PUSH4 0xF2FDE38B EQ PUSH2 0x32D JUMPI DUP1 PUSH4 0xF7B2A7BE EQ PUSH2 0x349 JUMPI DUP1 PUSH4 0xF9931855 EQ PUSH2 0x367 JUMPI DUP1 PUSH4 0xFC0C546A EQ PUSH2 0x397 JUMPI PUSH2 0x142 JUMP JUMPDEST DUP1 PUSH4 0x817B1CD2 EQ PUSH2 0x261 JUMPI DUP1 PUSH4 0x86187082 EQ PUSH2 0x27F JUMPI DUP1 PUSH4 0x8DA5CB5B EQ PUSH2 0x29D JUMPI DUP1 PUSH4 0x91E07E7A EQ PUSH2 0x2BB JUMPI DUP1 PUSH4 0x9E447FC6 EQ PUSH2 0x2D7 JUMPI PUSH2 0x142 JUMP JUMPDEST DUP1 PUSH4 0x4B77DD9E GT PUSH2 0x10A JUMPI DUP1 PUSH4 0x4B77DD9E EQ PUSH2 0x1C5 JUMPI DUP1 PUSH4 0x5715EC11 EQ PUSH2 0x1E1 JUMPI DUP1 PUSH4 0x5D2EC65D EQ PUSH2 0x1FF JUMPI DUP1 PUSH4 0x692642E7 EQ PUSH2 0x21D JUMPI DUP1 PUSH4 0x715018A6 EQ PUSH2 0x239 JUMPI DUP1 PUSH4 0x7E1A3786 EQ PUSH2 0x243 JUMPI PUSH2 0x142 JUMP JUMPDEST DUP1 PUSH4 0x917E776 EQ PUSH2 0x147 JUMPI DUP1 PUSH4 0x129488D3 EQ PUSH2 0x165 JUMPI DUP1 PUSH4 0x2E1A7D4D EQ PUSH2 0x183 JUMPI DUP1 PUSH4 0x4641257D EQ PUSH2 0x19F JUMPI DUP1 PUSH4 0x4B62B70B EQ PUSH2 0x1A9 JUMPI JUMPDEST PUSH1 0x0 DUP1 REVERT JUMPDEST PUSH2 0x14F PUSH2 0x3B5 JUMP JUMPDEST PUSH1 0x40 MLOAD PUSH2 0x15C SWAP2 SWAP1 PUSH2 0x24B7 JUMP JUMPDEST PUSH1 0x40 MLOAD DUP1 SWAP2 SUB SWAP1 RETURN JUMPDEST PUSH2 0x16D PUSH2 0x3BF JUMP JUMPDEST PUSH1 0x40 MLOAD PUSH2 0x17A SWAP2 SWAP1 PUSH2 0x24B7 JUMP JUMPDEST PUSH1 0x40 MLOAD DUP1 SWAP2 SUB SWAP1 RETURN JUMPDEST PUSH2 0x19D PUSH1 0x4 DUP1 CALLDATASIZE SUB DUP2 ADD SWAP1 PUSH2 0x198 SWAP2 SWAP1 PUSH2 0x1ECA JUMP JUMPDEST PUSH2 0x409 JUMP JUMPDEST STOP JUMPDEST PUSH2 0x1A7 PUSH2 0x7D8 JUMP JUMPDEST STOP JUMPDEST PUSH2 0x1C3 PUSH1 0x4 DUP1 CALLDATASIZE SUB DUP2 ADD SWAP1 PUSH2 0x1BE SWAP2 SWAP1 PUSH2 0x1ECA JUMP JUMPDEST PUSH2 0xAA1 JUMP JUMPDEST STOP JUMPDEST PUSH2 0x1DF PUSH1 0x4 DUP1 CALLDATASIZE SUB DUP2 ADD SWAP1 PUSH2 0x1DA SWAP2 SWAP1 PUSH2 0x1F24 JUMP JUMPDEST PUSH2 0xB6A JUMP JUMPDEST STOP JUMPDEST PUSH2 0x1E9 PUSH2 0xE65 JUMP JUMPDEST PUSH1 0x40 MLOAD PUSH2 0x1F6 SWAP2 SWAP1 PUSH2 0x24B7 JUMP JUMPDEST PUSH1 0x40 MLOAD DUP1 SWAP2 SUB SWAP1 RETURN JUMPDEST PUSH2 0x207 PUSH2 0xE72 JUMP JUMPDEST PUSH1 0x40 MLOAD PUSH2 0x214 SWAP2 SWAP1 PUSH2 0x24B7 JUMP JUMPDEST PUSH1 0x40 MLOAD DUP1 SWAP2 SUB SWAP1 RETURN JUMPDEST PUSH2 0x237 PUSH1 0x4 DUP1 CALLDATASIZE SUB DUP2 ADD SWAP1 PUSH2 0x232 SWAP2 SWAP1 PUSH2 0x1ECA JUMP JUMPDEST PUSH2 0xEBC JUMP JUMPDEST STOP JUMPDEST PUSH2 0x241 PUSH2 0xFD1 JUMP JUMPDEST STOP JUMPDEST PUSH2 0x24B PUSH2 0x1059 JUMP JUMPDEST PUSH1 0x40 MLOAD PUSH2 0x258 SWAP2 SWAP1 PUSH2 0x24B7 JUMP JUMPDEST PUSH1 0x40 MLOAD DUP1 SWAP2 SUB SWAP1 RETURN JUMPDEST PUSH2 0x269 PUSH2 0x1063 JUMP JUMPDEST PUSH1 0x40 MLOAD PUSH2 0x276 SWAP2 SWAP1 PUSH2 0x24B7 JUMP JUMPDEST PUSH1 0x40 MLOAD DUP1 SWAP2 SUB SWAP1 RETURN JUMPDEST PUSH2 0x287 PUSH2 0x1069 JUMP JUMPDEST PUSH1 0x40 MLOAD PUSH2 0x294 SWAP2 SWAP1 PUSH2 0x24B7 JUMP JUMPDEST PUSH1 0x40 MLOAD DUP1 SWAP2 SUB SWAP1 RETURN JUMPDEST PUSH2 0x2A5 PUSH2 0x10B3 JUMP JUMPDEST PUSH1 0x40 MLOAD PUSH2 0x2B2 SWAP2 SWAP1 PUSH2 0x221F JUMP JUMPDEST PUSH1 0x40 MLOAD DUP1 SWAP2 SUB SWAP1 RETURN JUMPDEST PUSH2 0x2D5 PUSH1 0x4 DUP1 CALLDATASIZE SUB DUP2 ADD SWAP1 PUSH2 0x2D0 SWAP2 SWAP1 PUSH2 0x1ECA JUMP JUMPDEST PUSH2 0x10DC JUMP JUMPDEST STOP JUMPDEST PUSH2 0x2F1 PUSH1 0x4 DUP1 CALLDATASIZE SUB DUP2 ADD SWAP1 PUSH2 0x2EC SWAP2 SWAP1 PUSH2 0x1ECA JUMP JUMPDEST PUSH2 0x11DC JUMP JUMPDEST STOP JUMPDEST PUSH2 0x2FB PUSH2 0x12DC JUMP JUMPDEST PUSH1 0x40 MLOAD PUSH2 0x308 SWAP2 SWAP1 PUSH2 0x24B7 JUMP JUMPDEST PUSH1 0x40 MLOAD DUP1 SWAP2 SUB SWAP1 RETURN JUMPDEST PUSH2 0x32B PUSH1 0x4 DUP1 CALLDATASIZE SUB DUP2 ADD SWAP1 PUSH2 0x326 SWAP2 SWAP1 PUSH2 0x1ECA JUMP JUMPDEST PUSH2 0x1417 JUMP JUMPDEST STOP JUMPDEST PUSH2 0x347 PUSH1 0x4 DUP1 CALLDATASIZE SUB DUP2 ADD SWAP1 PUSH2 0x342 SWAP2 SWAP1 PUSH2 0x1E70 JUMP JUMPDEST PUSH2 0x16DC JUMP JUMPDEST STOP JUMPDEST PUSH2 0x351 PUSH2 0x17D4 JUMP JUMPDEST PUSH1 0x40 MLOAD PUSH2 0x35E SWAP2 SWAP1 PUSH2 0x24B7 JUMP JUMPDEST PUSH1 0x40 MLOAD DUP1 SWAP2 SUB SWAP1 RETURN JUMPDEST PUSH2 0x381 PUSH1 0x4 DUP1 CALLDATASIZE SUB DUP2 ADD SWAP1 PUSH2 0x37C SWAP2 SWAP1 PUSH2 0x1E70 JUMP JUMPDEST PUSH2 0x181E JUMP JUMPDEST PUSH1 0x40 MLOAD PUSH2 0x38E SWAP2 SWAP1 PUSH2 0x24B7 JUMP JUMPDEST PUSH1 0x40 MLOAD DUP1 SWAP2 SUB SWAP1 RETURN JUMPDEST PUSH2 0x39F PUSH2 0x186A JUMP JUMPDEST PUSH1 0x40 MLOAD PUSH2 0x3AC SWAP2 SWAP1 PUSH2 0x229A JUMP JUMPDEST PUSH1 0x40 MLOAD DUP1 SWAP2 SUB SWAP1 RETURN JUMPDEST PUSH1 0x0 PUSH1 0x8 SLOAD SWAP1 POP SWAP1 JUMP JUMPDEST PUSH1 0x0 PUSH1 0x7 PUSH1 0x0 CALLER PUSH20 0xFFFFFFFFFFFFFFFFFFFFFFFFFFFFFFFFFFFFFFFF AND PUSH20 0xFFFFFFFFFFFFFFFFFFFFFFFFFFFFFFFFFFFFFFFF AND DUP2 MSTORE PUSH1 0x20 ADD SWAP1 DUP2 MSTORE PUSH1 0x20 ADD PUSH1 0x0 KECCAK256 PUSH1 0x2 ADD SLOAD SWAP1 POP SWAP1 JUMP JUMPDEST PUSH1 0x0 PUSH1 0x7 PUSH1 0x0 CALLER PUSH20 0xFFFFFFFFFFFFFFFFFFFFFFFFFFFFFFFFFFFFFFFF AND PUSH20 0xFFFFFFFFFFFFFFFFFFFFFFFFFFFFFFFFFFFFFFFF AND DUP2 MSTORE PUSH1 0x20 ADD SWAP1 DUP2 MSTORE PUSH1 0x20 ADD PUSH1 0x0 KECCAK256 SWAP1 POP PUSH1 0x0 DUP3 GT PUSH2 0x48F JUMPI PUSH1 0x40 MLOAD PUSH32 0x8C379A000000000000000000000000000000000000000000000000000000000 DUP2 MSTORE PUSH1 0x4 ADD PUSH2 0x486 SWAP1 PUSH2 0x23B7 JUMP JUMPDEST PUSH1 0x40 MLOAD DUP1 SWAP2 SUB SWAP1 REVERT JUMPDEST DUP1 PUSH1 0x1 ADD SLOAD DUP3 GT ISZERO PUSH2 0x4D6 JUMPI PUSH1 0x40 MLOAD PUSH32 0x8C379A000000000000000000000000000000000000000000000000000000000 DUP2 MSTORE PUSH1 0x4 ADD PUSH2 0x4CD SWAP1 PUSH2 0x2357 JUMP JUMPDEST PUSH1 0x40 MLOAD DUP1 SWAP2 SUB SWAP1 REVERT JUMPDEST PUSH2 0x4DE PUSH2 0x1890 JUMP JUMPDEST PUSH1 0x0 PUSH1 0x9 PUSH1 0x0 SWAP1 SLOAD SWAP1 PUSH2 0x100 EXP SWAP1 DIV PUSH20 0xFFFFFFFFFFFFFFFFFFFFFFFFFFFFFFFFFFFFFFFF AND PUSH20 0xFFFFFFFFFFFFFFFFFFFFFFFFFFFFFFFFFFFFFFFF AND PUSH4 0x70A08231 ADDRESS PUSH1 0x40 MLOAD DUP3 PUSH4 0xFFFFFFFF AND PUSH1 0xE0 SHL DUP2 MSTORE PUSH1 0x4 ADD PUSH2 0x53B SWAP2 SWAP1 PUSH2 0x221F JUMP JUMPDEST PUSH1 0x20 PUSH1 0x40 MLOAD DUP1 DUP4 SUB DUP2 DUP7 DUP1 EXTCODESIZE ISZERO DUP1 ISZERO PUSH2 0x553 JUMPI PUSH1 0x0 DUP1 REVERT JUMPDEST POP GAS STATICCALL ISZERO DUP1 ISZERO PUSH2 0x567 JUMPI RETURNDATASIZE PUSH1 0x0 DUP1 RETURNDATACOPY RETURNDATASIZE PUSH1 0x0 REVERT JUMPDEST POP POP POP POP PUSH1 0x40 MLOAD RETURNDATASIZE PUSH1 0x1F NOT PUSH1 0x1F DUP3 ADD AND DUP3 ADD DUP1 PUSH1 0x40 MSTORE POP DUP2 ADD SWAP1 PUSH2 0x58B SWAP2 SWAP1 PUSH2 0x1EF7 JUMP JUMPDEST DUP4 LT PUSH2 0x641 JUMPI PUSH1 0x9 PUSH1 0x0 SWAP1 SLOAD SWAP1 PUSH2 0x100 EXP SWAP1 DIV PUSH20 0xFFFFFFFFFFFFFFFFFFFFFFFFFFFFFFFFFFFFFFFF AND PUSH20 0xFFFFFFFFFFFFFFFFFFFFFFFFFFFFFFFFFFFFFFFF AND PUSH4 0x70A08231 ADDRESS PUSH1 0x40 MLOAD DUP3 PUSH4 0xFFFFFFFF AND PUSH1 0xE0 SHL DUP2 MSTORE PUSH1 0x4 ADD PUSH2 0x5EC SWAP2 SWAP1 PUSH2 0x221F JUMP JUMPDEST PUSH1 0x20 PUSH1 0x40 MLOAD DUP1 DUP4 SUB DUP2 DUP7 DUP1 EXTCODESIZE ISZERO DUP1 ISZERO PUSH2 0x604 JUMPI PUSH1 0x0 DUP1 REVERT JUMPDEST POP GAS STATICCALL ISZERO DUP1 ISZERO PUSH2 0x618 JUMPI RETURNDATASIZE PUSH1 0x0 DUP1 RETURNDATACOPY RETURNDATASIZE PUSH1 0x0 REVERT JUMPDEST POP POP POP POP PUSH1 0x40 MLOAD RETURNDATASIZE PUSH1 0x1F NOT PUSH1 0x1F DUP3 ADD AND DUP3 ADD DUP1 PUSH1 0x40 MSTORE POP DUP2 ADD SWAP1 PUSH2 0x63C SWAP2 SWAP1 PUSH2 0x1EF7 JUMP JUMPDEST PUSH2 0x643 JUMP JUMPDEST DUP3 JUMPDEST SWAP1 POP PUSH1 0x0 PUSH2 0x673 PUSH3 0x15180 PUSH2 0x665 DUP6 PUSH1 0x3 ADD SLOAD TIMESTAMP PUSH2 0x196C SWAP1 SWAP2 SWAP1 PUSH4 0xFFFFFFFF AND JUMP JUMPDEST PUSH2 0x1982 SWAP1 SWAP2 SWAP1 PUSH4 0xFFFFFFFF AND JUMP JUMPDEST SWAP1 POP PUSH1 0x0 PUSH1 0x64 SWAP1 POP PUSH1 0x0 PUSH1 0x1 DUP6 PUSH1 0x2 ADD SLOAD EQ PUSH2 0x6AA JUMPI PUSH2 0x6A2 PUSH1 0x5 SLOAD DUP7 PUSH1 0x3 ADD SLOAD PUSH2 0x1998 SWAP1 SWAP2 SWAP1 PUSH4 0xFFFFFFFF AND JUMP JUMPDEST TIMESTAMP LT ISZERO PUSH2 0x6C8 JUMP JUMPDEST PUSH1 0x0 PUSH1 0x2 SLOAD DUP5 PUSH2 0x6BA SWAP2 SWAP1 PUSH2 0x26CA JUMP JUMPDEST EQ DUP1 ISZERO PUSH2 0x6C7 JUMPI POP PUSH1 0x0 DUP4 GT JUMPDEST JUMPDEST SWAP1 POP DUP1 PUSH2 0x6D5 JUMPI PUSH1 0x1 SLOAD SWAP2 POP JUMPDEST PUSH2 0x70E PUSH2 0x6FF PUSH2 0x2710 PUSH2 0x6F1 DUP6 DUP9 PUSH2 0x19AE SWAP1 SWAP2 SWAP1 PUSH4 0xFFFFFFFF AND JUMP JUMPDEST PUSH2 0x1982 SWAP1 SWAP2 SWAP1 PUSH4 0xFFFFFFFF AND JUMP JUMPDEST DUP6 PUSH2 0x196C SWAP1 SWAP2 SWAP1 PUSH4 0xFFFFFFFF AND JUMP JUMPDEST SWAP4 POP PUSH2 0x725 DUP5 PUSH1 0x8 SLOAD PUSH2 0x196C SWAP1 SWAP2 SWAP1 PUSH4 0xFFFFFFFF AND JUMP JUMPDEST PUSH1 0x8 DUP2 SWAP1 SSTORE POP PUSH2 0x742 DUP5 DUP7 PUSH1 0x1 ADD SLOAD PUSH2 0x196C SWAP1 SWAP2 SWAP1 PUSH4 0xFFFFFFFF AND JUMP JUMPDEST DUP6 PUSH1 0x1 ADD DUP2 SWAP1 SSTORE POP PUSH2 0x797 CALLER DUP6 PUSH1 0x9 PUSH1 0x0 SWAP1 SLOAD SWAP1 PUSH2 0x100 EXP SWAP1 DIV PUSH20 0xFFFFFFFFFFFFFFFFFFFFFFFFFFFFFFFFFFFFFFFF AND PUSH20 0xFFFFFFFFFFFFFFFFFFFFFFFFFFFFFFFFFFFFFFFF AND PUSH2 0x19C4 SWAP1 SWAP3 SWAP2 SWAP1 PUSH4 0xFFFFFFFF AND JUMP JUMPDEST PUSH32 0x884EDAD9CE6FA2440D8A54CC123490EB96D2768479D49FF9C7366125A9424364 CALLER DUP6 PUSH1 0x40 MLOAD PUSH2 0x7C8 SWAP3 SWAP2 SWAP1 PUSH2 0x2271 JUMP JUMPDEST PUSH1 0x40 MLOAD DUP1 SWAP2 SUB SWAP1 LOG1 POP POP POP POP POP POP JUMP JUMPDEST PUSH2 0x7E0 PUSH2 0x1890 JUMP JUMPDEST PUSH1 0x0 PUSH1 0x7 PUSH1 0x0 CALLER PUSH20 0xFFFFFFFFFFFFFFFFFFFFFFFFFFFFFFFFFFFFFFFF AND PUSH20 0xFFFFFFFFFFFFFFFFFFFFFFFFFFFFFFFFFFFFFFFF AND DUP2 MSTORE PUSH1 0x20 ADD SWAP1 DUP2 MSTORE PUSH1 0x20 ADD PUSH1 0x0 KECCAK256 SWAP1 POP PUSH1 0x0 PUSH2 0x868 PUSH2 0x855 PUSH2 0x2710 PUSH2 0x847 PUSH1 0x4 SLOAD DUP7 PUSH1 0x0 ADD SLOAD PUSH2 0x19AE SWAP1 SWAP2 SWAP1 PUSH4 0xFFFFFFFF AND JUMP JUMPDEST PUSH2 0x1982 SWAP1 SWAP2 SWAP1 PUSH4 0xFFFFFFFF AND JUMP JUMPDEST DUP4 PUSH1 0x0 ADD SLOAD PUSH2 0x196C SWAP1 SWAP2 SWAP1 PUSH4 0xFFFFFFFF AND JUMP JUMPDEST SWAP1 POP PUSH1 0x0 DUP2 GT PUSH2 0x8AD JUMPI PUSH1 0x40 MLOAD PUSH32 0x8C379A000000000000000000000000000000000000000000000000000000000 DUP2 MSTORE PUSH1 0x4 ADD PUSH2 0x8A4 SWAP1 PUSH2 0x22D7 JUMP JUMPDEST PUSH1 0x40 MLOAD DUP1 SWAP2 SUB SWAP1 REVERT JUMPDEST PUSH1 0x9 PUSH1 0x0 SWAP1 SLOAD SWAP1 PUSH2 0x100 EXP SWAP1 DIV PUSH20 0xFFFFFFFFFFFFFFFFFFFFFFFFFFFFFFFFFFFFFFFF AND PUSH20 0xFFFFFFFFFFFFFFFFFFFFFFFFFFFFFFFFFFFFFFFF AND PUSH4 0x70A08231 ADDRESS PUSH1 0x40 MLOAD DUP3 PUSH4 0xFFFFFFFF AND PUSH1 0xE0 SHL DUP2 MSTORE PUSH1 0x4 ADD PUSH2 0x908 SWAP2 SWAP1 PUSH2 0x221F JUMP JUMPDEST PUSH1 0x20 PUSH1 0x40 MLOAD DUP1 DUP4 SUB DUP2 DUP7 DUP1 EXTCODESIZE ISZERO DUP1 ISZERO PUSH2 0x920 JUMPI PUSH1 0x0 DUP1 REVERT JUMPDEST POP GAS STATICCALL ISZERO DUP1 ISZERO PUSH2 0x934 JUMPI RETURNDATASIZE PUSH1 0x0 DUP1 RETURNDATACOPY RETURNDATASIZE PUSH1 0x0 REVERT JUMPDEST POP POP POP POP PUSH1 0x40 MLOAD RETURNDATASIZE PUSH1 0x1F NOT PUSH1 0x1F DUP3 ADD AND DUP3 ADD DUP1 PUSH1 0x40 MSTORE POP DUP2 ADD SWAP1 PUSH2 0x958 SWAP2 SWAP1 PUSH2 0x1EF7 JUMP JUMPDEST DUP2 GT ISZERO PUSH2 0xA0D JUMPI PUSH1 0x9 PUSH1 0x0 SWAP1 SLOAD SWAP1 PUSH2 0x100 EXP SWAP1 DIV PUSH20 0xFFFFFFFFFFFFFFFFFFFFFFFFFFFFFFFFFFFFFFFF AND PUSH20 0xFFFFFFFFFFFFFFFFFFFFFFFFFFFFFFFFFFFFFFFF AND PUSH4 0x70A08231 ADDRESS PUSH1 0x40 MLOAD DUP3 PUSH4 0xFFFFFFFF AND PUSH1 0xE0 SHL DUP2 MSTORE PUSH1 0x4 ADD PUSH2 0x9BA SWAP2 SWAP1 PUSH2 0x221F JUMP JUMPDEST PUSH1 0x20 PUSH1 0x40 MLOAD DUP1 DUP4 SUB DUP2 DUP7 DUP1 EXTCODESIZE ISZERO DUP1 ISZERO PUSH2 0x9D2 JUMPI PUSH1 0x0 DUP1 REVERT JUMPDEST POP GAS STATICCALL ISZERO DUP1 ISZERO PUSH2 0x9E6 JUMPI RETURNDATASIZE PUSH1 0x0 DUP1 RETURNDATACOPY RETURNDATASIZE PUSH1 0x0 REVERT JUMPDEST POP POP POP POP PUSH1 0x40 MLOAD RETURNDATASIZE PUSH1 0x1F NOT PUSH1 0x1F DUP3 ADD AND DUP3 ADD DUP1 PUSH1 0x40 MSTORE POP DUP2 ADD SWAP1 PUSH2 0xA0A SWAP2 SWAP1 PUSH2 0x1EF7 JUMP JUMPDEST SWAP1 POP JUMPDEST PUSH2 0xA5A CALLER DUP3 PUSH1 0x9 PUSH1 0x0 SWAP1 SLOAD SWAP1 PUSH2 0x100 EXP SWAP1 DIV PUSH20 0xFFFFFFFFFFFFFFFFFFFFFFFFFFFFFFFFFFFFFFFF AND PUSH20 0xFFFFFFFFFFFFFFFFFFFFFFFFFFFFFFFFFFFFFFFF AND PUSH2 0x19C4 SWAP1 SWAP3 SWAP2 SWAP1 PUSH4 0xFFFFFFFF AND JUMP JUMPDEST PUSH1 0x0 DUP3 PUSH1 0x0 ADD DUP2 SWAP1 SSTORE POP PUSH32 0xC9695243A805ADB74C91F28311176C65B417E842D5699893CEF56D18BFA48CBA CALLER DUP3 PUSH1 0x40 MLOAD PUSH2 0xA95 SWAP3 SWAP2 SWAP1 PUSH2 0x2271 JUMP JUMPDEST PUSH1 0x40 MLOAD DUP1 SWAP2 SUB SWAP1 LOG1 POP POP JUMP JUMPDEST PUSH2 0xAA9 PUSH2 0x1A4A JUMP JUMPDEST PUSH20 0xFFFFFFFFFFFFFFFFFFFFFFFFFFFFFFFFFFFFFFFF AND PUSH2 0xAC7 PUSH2 0x10B3 JUMP JUMPDEST PUSH20 0xFFFFFFFFFFFFFFFFFFFFFFFFFFFFFFFFFFFFFFFF AND EQ PUSH2 0xB1D JUMPI PUSH1 0x40 MLOAD PUSH32 0x8C379A000000000000000000000000000000000000000000000000000000000 DUP2 MSTORE PUSH1 0x4 ADD PUSH2 0xB14 SWAP1 PUSH2 0x23D7 JUMP JUMPDEST PUSH1 0x40 MLOAD DUP1 SWAP2 SUB SWAP1 REVERT JUMPDEST PUSH1 0x0 DUP2 GT PUSH2 0xB60 JUMPI PUSH1 0x40 MLOAD PUSH32 0x8C379A000000000000000000000000000000000000000000000000000000000 DUP2 MSTORE PUSH1 0x4 ADD PUSH2 0xB57 SWAP1 PUSH2 0x2477 JUMP JUMPDEST PUSH1 0x40 MLOAD DUP1 SWAP2 SUB SWAP1 REVERT JUMPDEST DUP1 PUSH1 0x5 DUP2 SWAP1 SSTORE POP POP JUMP JUMPDEST PUSH1 0x0 DUP3 GT PUSH2 0xBAD JUMPI PUSH1 0x40 MLOAD PUSH32 0x8C379A000000000000000000000000000000000000000000000000000000000 DUP2 MSTORE PUSH1 0x4 ADD PUSH2 0xBA4 SWAP1 PUSH2 0x23B7 JUMP JUMPDEST PUSH1 0x40 MLOAD DUP1 SWAP2 SUB SWAP1 REVERT JUMPDEST DUP2 PUSH1 0x9 PUSH1 0x0 SWAP1 SLOAD SWAP1 PUSH2 0x100 EXP SWAP1 DIV PUSH20 0xFFFFFFFFFFFFFFFFFFFFFFFFFFFFFFFFFFFFFFFF AND PUSH20 0xFFFFFFFFFFFFFFFFFFFFFFFFFFFFFFFFFFFFFFFF AND PUSH4 0x70A08231 CALLER PUSH1 0x40 MLOAD DUP3 PUSH4 0xFFFFFFFF AND PUSH1 0xE0 SHL DUP2 MSTORE PUSH1 0x4 ADD PUSH2 0xC09 SWAP2 SWAP1 PUSH2 0x221F JUMP JUMPDEST PUSH1 0x20 PUSH1 0x40 MLOAD DUP1 DUP4 SUB DUP2 DUP7 DUP1 EXTCODESIZE ISZERO DUP1 ISZERO PUSH2 0xC21 JUMPI PUSH1 0x0 DUP1 REVERT JUMPDEST POP GAS STATICCALL ISZERO DUP1 ISZERO PUSH2 0xC35 JUMPI RETURNDATASIZE PUSH1 0x0 DUP1 RETURNDATACOPY RETURNDATASIZE PUSH1 0x0 REVERT JUMPDEST POP POP POP POP PUSH1 0x40 MLOAD RETURNDATASIZE PUSH1 0x1F NOT PUSH1 0x1F DUP3 ADD AND DUP3 ADD DUP1 PUSH1 0x40 MSTORE POP DUP2 ADD SWAP1 PUSH2 0xC59 SWAP2 SWAP1 PUSH2 0x1EF7 JUMP JUMPDEST GT PUSH2 0xC99 JUMPI PUSH1 0x40 MLOAD PUSH32 0x8C379A000000000000000000000000000000000000000000000000000000000 DUP2 MSTORE PUSH1 0x4 ADD PUSH2 0xC90 SWAP1 PUSH2 0x2497 JUMP JUMPDEST PUSH1 0x40 MLOAD DUP1 SWAP2 SUB SWAP1 REVERT JUMPDEST PUSH1 0x55 PUSH1 0x7 PUSH1 0x0 CALLER PUSH20 0xFFFFFFFFFFFFFFFFFFFFFFFFFFFFFFFFFFFFFFFF AND PUSH20 0xFFFFFFFFFFFFFFFFFFFFFFFFFFFFFFFFFFFFFFFF AND DUP2 MSTORE PUSH1 0x20 ADD SWAP1 DUP2 MSTORE PUSH1 0x20 ADD PUSH1 0x0 KECCAK256 PUSH1 0x5 ADD SLOAD EQ ISZERO PUSH2 0xD1F JUMPI PUSH1 0x40 MLOAD PUSH32 0x8C379A000000000000000000000000000000000000000000000000000000000 DUP2 MSTORE PUSH1 0x4 ADD PUSH2 0xD16 SWAP1 PUSH2 0x2377 JUMP JUMPDEST PUSH1 0x40 MLOAD DUP1 SWAP2 SUB SWAP1 REVERT JUMPDEST DUP1 PUSH1 0x7 PUSH1 0x0 CALLER PUSH20 0xFFFFFFFFFFFFFFFFFFFFFFFFFFFFFFFFFFFFFFFF AND PUSH20 0xFFFFFFFFFFFFFFFFFFFFFFFFFFFFFFFFFFFFFFFF AND DUP2 MSTORE PUSH1 0x20 ADD SWAP1 DUP2 MSTORE PUSH1 0x20 ADD PUSH1 0x0 KECCAK256 PUSH1 0x2 ADD DUP2 SWAP1 SSTORE POP TIMESTAMP PUSH1 0x7 PUSH1 0x0 CALLER PUSH20 0xFFFFFFFFFFFFFFFFFFFFFFFFFFFFFFFFFFFFFFFF AND PUSH20 0xFFFFFFFFFFFFFFFFFFFFFFFFFFFFFFFFFFFFFFFF AND DUP2 MSTORE PUSH1 0x20 ADD SWAP1 DUP2 MSTORE PUSH1 0x20 ADD PUSH1 0x0 KECCAK256 PUSH1 0x3 ADD DUP2 SWAP1 SSTORE POP PUSH1 0x55 PUSH1 0x7 PUSH1 0x0 CALLER PUSH20 0xFFFFFFFFFFFFFFFFFFFFFFFFFFFFFFFFFFFFFFFF AND PUSH20 0xFFFFFFFFFFFFFFFFFFFFFFFFFFFFFFFFFFFFFFFF AND DUP2 MSTORE PUSH1 0x20 ADD SWAP1 DUP2 MSTORE PUSH1 0x20 ADD PUSH1 0x0 KECCAK256 PUSH1 0x5 ADD DUP2 SWAP1 SSTORE POP PUSH1 0x6 CALLER SWAP1 DUP1 PUSH1 0x1 DUP2 SLOAD ADD DUP1 DUP3 SSTORE DUP1 SWAP2 POP POP PUSH1 0x1 SWAP1 SUB SWAP1 PUSH1 0x0 MSTORE PUSH1 0x20 PUSH1 0x0 KECCAK256 ADD PUSH1 0x0 SWAP1 SWAP2 SWAP1 SWAP2 SWAP1 SWAP2 PUSH2 0x100 EXP DUP2 SLOAD DUP2 PUSH20 0xFFFFFFFFFFFFFFFFFFFFFFFFFFFFFFFFFFFFFFFF MUL NOT AND SWAP1 DUP4 PUSH20 0xFFFFFFFFFFFFFFFFFFFFFFFFFFFFFFFFFFFFFFFF AND MUL OR SWAP1 SSTORE POP PUSH2 0xE61 DUP3 PUSH2 0x1417 JUMP JUMPDEST POP POP JUMP JUMPDEST PUSH1 0x0 PUSH1 0x6 DUP1 SLOAD SWAP1 POP SWAP1 POP SWAP1 JUMP JUMPDEST PUSH1 0x0 PUSH1 0x7 PUSH1 0x0 CALLER PUSH20 0xFFFFFFFFFFFFFFFFFFFFFFFFFFFFFFFFFFFFFFFF AND PUSH20 0xFFFFFFFFFFFFFFFFFFFFFFFFFFFFFFFFFFFFFFFF AND DUP2 MSTORE PUSH1 0x20 ADD SWAP1 DUP2 MSTORE PUSH1 0x20 ADD PUSH1 0x0 KECCAK256 PUSH1 0x0 ADD SLOAD SWAP1 POP SWAP1 JUMP JUMPDEST PUSH2 0xEC4 PUSH2 0x1A4A JUMP JUMPDEST PUSH20 0xFFFFFFFFFFFFFFFFFFFFFFFFFFFFFFFFFFFFFFFF AND PUSH2 0xEE2 PUSH2 0x10B3 JUMP JUMPDEST PUSH20 0xFFFFFFFFFFFFFFFFFFFFFFFFFFFFFFFFFFFFFFFF AND EQ PUSH2 0xF38 JUMPI PUSH1 0x40 MLOAD PUSH32 0x8C379A000000000000000000000000000000000000000000000000000000000 DUP2 MSTORE PUSH1 0x4 ADD PUSH2 0xF2F SWAP1 PUSH2 0x23D7 JUMP JUMPDEST PUSH1 0x40 MLOAD DUP1 SWAP2 SUB SWAP1 REVERT JUMPDEST PUSH1 0x0 DUP2 GT PUSH2 0xF7B JUMPI PUSH1 0x40 MLOAD PUSH32 0x8C379A000000000000000000000000000000000000000000000000000000000 DUP2 MSTORE PUSH1 0x4 ADD PUSH2 0xF72 SWAP1 PUSH2 0x2457 JUMP JUMPDEST PUSH1 0x40 MLOAD DUP1 SWAP2 SUB SWAP1 REVERT JUMPDEST PUSH2 0xF91 PUSH3 0x15180 DUP3 PUSH2 0x19AE SWAP1 SWAP2 SWAP1 PUSH4 0xFFFFFFFF AND JUMP JUMPDEST PUSH1 0x2 DUP2 SWAP1 SSTORE POP PUSH32 0x189BDA9782663C67A3F95C0AA5455924C711210B00281C60EAD2F0DD8DBC924C DUP2 PUSH1 0x40 MLOAD PUSH2 0xFC6 SWAP2 SWAP1 PUSH2 0x24B7 JUMP JUMPDEST PUSH1 0x40 MLOAD DUP1 SWAP2 SUB SWAP1 LOG1 POP JUMP JUMPDEST PUSH2 0xFD9 PUSH2 0x1A4A JUMP JUMPDEST PUSH20 0xFFFFFFFFFFFFFFFFFFFFFFFFFFFFFFFFFFFFFFFF AND PUSH2 0xFF7 PUSH2 0x10B3 JUMP JUMPDEST PUSH20 0xFFFFFFFFFFFFFFFFFFFFFFFFFFFFFFFFFFFFFFFF AND EQ PUSH2 0x104D JUMPI PUSH1 0x40 MLOAD PUSH32 0x8C379A000000000000000000000000000000000000000000000000000000000 DUP2 MSTORE PUSH1 0x4 ADD PUSH2 0x1044 SWAP1 PUSH2 0x23D7 JUMP JUMPDEST PUSH1 0x40 MLOAD DUP1 SWAP2 SUB SWAP1 REVERT JUMPDEST PUSH2 0x1057 PUSH1 0x0 PUSH2 0x1A52 JUMP JUMPDEST JUMP JUMPDEST PUSH1 0x0 PUSH1 0x3 SLOAD SWAP1 POP SWAP1 JUMP JUMPDEST PUSH1 0x8 SLOAD DUP2 JUMP JUMPDEST PUSH1 0x0 PUSH1 0x7 PUSH1 0x0 CALLER PUSH20 0xFFFFFFFFFFFFFFFFFFFFFFFFFFFFFFFFFFFFFFFF AND PUSH20 0xFFFFFFFFFFFFFFFFFFFFFFFFFFFFFFFFFFFFFFFF AND DUP2 MSTORE PUSH1 0x20 ADD SWAP1 DUP2 MSTORE PUSH1 0x20 ADD PUSH1 0x0 KECCAK256 PUSH1 0x5 ADD SLOAD SWAP1 POP SWAP1 JUMP JUMPDEST PUSH1 0x0 DUP1 PUSH1 0x0 SWAP1 SLOAD SWAP1 PUSH2 0x100 EXP SWAP1 DIV PUSH20 0xFFFFFFFFFFFFFFFFFFFFFFFFFFFFFFFFFFFFFFFF AND SWAP1 POP SWAP1 JUMP JUMPDEST PUSH2 0x10E4 PUSH2 0x1A4A JUMP JUMPDEST PUSH20 0xFFFFFFFFFFFFFFFFFFFFFFFFFFFFFFFFFFFFFFFF AND PUSH2 0x1102 PUSH2 0x10B3 JUMP JUMPDEST PUSH20 0xFFFFFFFFFFFFFFFFFFFFFFFFFFFFFFFFFFFFFFFF AND EQ PUSH2 0x1158 JUMPI PUSH1 0x40 MLOAD PUSH32 0x8C379A000000000000000000000000000000000000000000000000000000000 DUP2 MSTORE PUSH1 0x4 ADD PUSH2 0x114F SWAP1 PUSH2 0x23D7 JUMP JUMPDEST PUSH1 0x40 MLOAD DUP1 SWAP2 SUB SWAP1 REVERT JUMPDEST PUSH1 0x0 DUP2 GT PUSH2 0x119B JUMPI PUSH1 0x40 MLOAD PUSH32 0x8C379A000000000000000000000000000000000000000000000000000000000 DUP2 MSTORE PUSH1 0x4 ADD PUSH2 0x1192 SWAP1 PUSH2 0x2437 JUMP JUMPDEST PUSH1 0x40 MLOAD DUP1 SWAP2 SUB SWAP1 REVERT JUMPDEST DUP1 PUSH1 0x1 DUP2 SWAP1 SSTORE POP PUSH32 0x150C688DD7595BF7862B8AB1FE46756450EB7D731037942B3BBC46F3F0E21B81 DUP2 PUSH1 0x40 MLOAD PUSH2 0x11D1 SWAP2 SWAP1 PUSH2 0x24B7 JUMP JUMPDEST PUSH1 0x40 MLOAD DUP1 SWAP2 SUB SWAP1 LOG1 POP JUMP JUMPDEST PUSH2 0x11E4 PUSH2 0x1A4A JUMP JUMPDEST PUSH20 0xFFFFFFFFFFFFFFFFFFFFFFFFFFFFFFFFFFFFFFFF AND PUSH2 0x1202 PUSH2 0x10B3 JUMP JUMPDEST PUSH20 0xFFFFFFFFFFFFFFFFFFFFFFFFFFFFFFFFFFFFFFFF AND EQ PUSH2 0x1258 JUMPI PUSH1 0x40 MLOAD PUSH32 0x8C379A000000000000000000000000000000000000000000000000000000000 DUP2 MSTORE PUSH1 0x4 ADD PUSH2 0x124F SWAP1 PUSH2 0x23D7 JUMP JUMPDEST PUSH1 0x40 MLOAD DUP1 SWAP2 SUB SWAP1 REVERT JUMPDEST PUSH1 0x0 DUP2 GT PUSH2 0x129B JUMPI PUSH1 0x40 MLOAD PUSH32 0x8C379A000000000000000000000000000000000000000000000000000000000 DUP2 MSTORE PUSH1 0x4 ADD PUSH2 0x1292 SWAP1 PUSH2 0x23F7 JUMP JUMPDEST PUSH1 0x40 MLOAD DUP1 SWAP2 SUB SWAP1 REVERT JUMPDEST DUP1 PUSH1 0x3 DUP2 SWAP1 SSTORE POP PUSH32 0x1946FB78C7CA778B54D82CABAAC5BA67CF446F58D0FF1F8CEAEBB6150E54E44F DUP2 PUSH1 0x40 MLOAD PUSH2 0x12D1 SWAP2 SWAP1 PUSH2 0x24B7 JUMP JUMPDEST PUSH1 0x40 MLOAD DUP1 SWAP2 SUB SWAP1 LOG1 POP JUMP JUMPDEST PUSH1 0x0 PUSH1 0x55 PUSH1 0x7 PUSH1 0x0 CALLER PUSH20 0xFFFFFFFFFFFFFFFFFFFFFFFFFFFFFFFFFFFFFFFF AND PUSH20 0xFFFFFFFFFFFFFFFFFFFFFFFFFFFFFFFFFFFFFFFF AND DUP2 MSTORE PUSH1 0x20 ADD SWAP1 DUP2 MSTORE PUSH1 0x20 ADD PUSH1 0x0 KECCAK256 PUSH1 0x5 ADD SLOAD EQ PUSH2 0x1331 JUMPI PUSH1 0x1 SWAP1 POP PUSH2 0x1414 JUMP JUMPDEST PUSH1 0x1 PUSH1 0x7 PUSH1 0x0 CALLER PUSH20 0xFFFFFFFFFFFFFFFFFFFFFFFFFFFFFFFFFFFFFFFF AND PUSH20 0xFFFFFFFFFFFFFFFFFFFFFFFFFFFFFFFFFFFFFFFF AND DUP2 MSTORE PUSH1 0x20 ADD SWAP1 DUP2 MSTORE PUSH1 0x20 ADD PUSH1 0x0 KECCAK256 PUSH1 0x2 ADD SLOAD EQ ISZERO PUSH2 0x140F JUMPI PUSH1 0x0 PUSH3 0x93A80 PUSH2 0x13EC PUSH3 0x15180 PUSH2 0x13DE PUSH1 0x7 PUSH1 0x0 CALLER PUSH20 0xFFFFFFFFFFFFFFFFFFFFFFFFFFFFFFFFFFFFFFFF AND PUSH20 0xFFFFFFFFFFFFFFFFFFFFFFFFFFFFFFFFFFFFFFFF AND DUP2 MSTORE PUSH1 0x20 ADD SWAP1 DUP2 MSTORE PUSH1 0x20 ADD PUSH1 0x0 KECCAK256 PUSH1 0x3 ADD SLOAD TIMESTAMP PUSH2 0x196C SWAP1 SWAP2 SWAP1 PUSH4 0xFFFFFFFF AND JUMP JUMPDEST PUSH2 0x1982 SWAP1 SWAP2 SWAP1 PUSH4 0xFFFFFFFF AND JUMP JUMPDEST PUSH2 0x13F6 SWAP2 SWAP1 PUSH2 0x26CA JUMP JUMPDEST EQ PUSH2 0x1402 JUMPI PUSH1 0x1 PUSH2 0x1405 JUMP JUMPDEST PUSH1 0x0 JUMPDEST PUSH1 0xFF AND SWAP1 POP PUSH2 0x1414 JUMP JUMPDEST PUSH1 0x0 SWAP1 POP JUMPDEST SWAP1 JUMP JUMPDEST PUSH1 0x0 DUP2 GT PUSH2 0x145A JUMPI PUSH1 0x40 MLOAD PUSH32 0x8C379A000000000000000000000000000000000000000000000000000000000 DUP2 MSTORE PUSH1 0x4 ADD PUSH2 0x1451 SWAP1 PUSH2 0x23B7 JUMP JUMPDEST PUSH1 0x40 MLOAD DUP1 SWAP2 SUB SWAP1 REVERT JUMPDEST DUP1 PUSH1 0x9 PUSH1 0x0 SWAP1 SLOAD SWAP1 PUSH2 0x100 EXP SWAP1 DIV PUSH20 0xFFFFFFFFFFFFFFFFFFFFFFFFFFFFFFFFFFFFFFFF AND PUSH20 0xFFFFFFFFFFFFFFFFFFFFFFFFFFFFFFFFFFFFFFFF AND PUSH4 0x70A08231 CALLER PUSH1 0x40 MLOAD DUP3 PUSH4 0xFFFFFFFF AND PUSH1 0xE0 SHL DUP2 MSTORE PUSH1 0x4 ADD PUSH2 0x14B6 SWAP2 SWAP1 PUSH2 0x221F JUMP JUMPDEST PUSH1 0x20 PUSH1 0x40 MLOAD DUP1 DUP4 SUB DUP2 DUP7 DUP1 EXTCODESIZE ISZERO DUP1 ISZERO PUSH2 0x14CE JUMPI PUSH1 0x0 DUP1 REVERT JUMPDEST POP GAS STATICCALL ISZERO DUP1 ISZERO PUSH2 0x14E2 JUMPI RETURNDATASIZE PUSH1 0x0 DUP1 RETURNDATACOPY RETURNDATASIZE PUSH1 0x0 REVERT JUMPDEST POP POP POP POP PUSH1 0x40 MLOAD RETURNDATASIZE PUSH1 0x1F NOT PUSH1 0x1F DUP3 ADD AND DUP3 ADD DUP1 PUSH1 0x40 MSTORE POP DUP2 ADD SWAP1 PUSH2 0x1506 SWAP2 SWAP1 PUSH2 0x1EF7 JUMP JUMPDEST GT PUSH2 0x1546 JUMPI PUSH1 0x40 MLOAD PUSH32 0x8C379A000000000000000000000000000000000000000000000000000000000 DUP2 MSTORE PUSH1 0x4 ADD PUSH2 0x153D SWAP1 PUSH2 0x2497 JUMP JUMPDEST PUSH1 0x40 MLOAD DUP1 SWAP2 SUB SWAP1 REVERT JUMPDEST PUSH1 0x55 PUSH1 0x7 PUSH1 0x0 CALLER PUSH20 0xFFFFFFFFFFFFFFFFFFFFFFFFFFFFFFFFFFFFFFFF AND PUSH20 0xFFFFFFFFFFFFFFFFFFFFFFFFFFFFFFFFFFFFFFFF AND DUP2 MSTORE PUSH1 0x20 ADD SWAP1 DUP2 MSTORE PUSH1 0x20 ADD PUSH1 0x0 KECCAK256 PUSH1 0x5 ADD SLOAD EQ PUSH2 0x15CB JUMPI PUSH1 0x40 MLOAD PUSH32 0x8C379A000000000000000000000000000000000000000000000000000000000 DUP2 MSTORE PUSH1 0x4 ADD PUSH2 0x15C2 SWAP1 PUSH2 0x22F7 JUMP JUMPDEST PUSH1 0x40 MLOAD DUP1 SWAP2 SUB SWAP1 REVERT JUMPDEST PUSH2 0x15D3 PUSH2 0x1890 JUMP JUMPDEST PUSH1 0x0 PUSH1 0x7 PUSH1 0x0 CALLER PUSH20 0xFFFFFFFFFFFFFFFFFFFFFFFFFFFFFFFFFFFFFFFF AND PUSH20 0xFFFFFFFFFFFFFFFFFFFFFFFFFFFFFFFFFFFFFFFF AND DUP2 MSTORE PUSH1 0x20 ADD SWAP1 DUP2 MSTORE PUSH1 0x20 ADD PUSH1 0x0 KECCAK256 SWAP1 POP PUSH2 0x1665 CALLER ADDRESS DUP5 PUSH1 0x9 PUSH1 0x0 SWAP1 SLOAD SWAP1 PUSH2 0x100 EXP SWAP1 DIV PUSH20 0xFFFFFFFFFFFFFFFFFFFFFFFFFFFFFFFFFFFFFFFF AND PUSH20 0xFFFFFFFFFFFFFFFFFFFFFFFFFFFFFFFFFFFFFFFF AND PUSH2 0x1B16 SWAP1 SWAP4 SWAP3 SWAP2 SWAP1 PUSH4 0xFFFFFFFF AND JUMP JUMPDEST PUSH2 0x167C DUP3 DUP3 PUSH1 0x1 ADD SLOAD PUSH2 0x1998 SWAP1 SWAP2 SWAP1 PUSH4 0xFFFFFFFF AND JUMP JUMPDEST DUP2 PUSH1 0x1 ADD DUP2 SWAP1 SSTORE POP PUSH2 0x1699 DUP3 PUSH1 0x8 SLOAD PUSH2 0x1998 SWAP1 SWAP2 SWAP1 PUSH4 0xFFFFFFFF AND JUMP JUMPDEST PUSH1 0x8 DUP2 SWAP1 SSTORE POP PUSH32 0x9E71BC8EEA02A63969F509818F2DAFB9254532904319F9DBDA79B67BD34A5F3D CALLER DUP4 PUSH1 0x40 MLOAD PUSH2 0x16D0 SWAP3 SWAP2 SWAP1 PUSH2 0x2271 JUMP JUMPDEST PUSH1 0x40 MLOAD DUP1 SWAP2 SUB SWAP1 LOG1 POP POP JUMP JUMPDEST PUSH2 0x16E4 PUSH2 0x1A4A JUMP JUMPDEST PUSH20 0xFFFFFFFFFFFFFFFFFFFFFFFFFFFFFFFFFFFFFFFF AND PUSH2 0x1702 PUSH2 0x10B3 JUMP JUMPDEST PUSH20 0xFFFFFFFFFFFFFFFFFFFFFFFFFFFFFFFFFFFFFFFF AND EQ PUSH2 0x1758 JUMPI PUSH1 0x40 MLOAD PUSH32 0x8C379A000000000000000000000000000000000000000000000000000000000 DUP2 MSTORE PUSH1 0x4 ADD PUSH2 0x174F SWAP1 PUSH2 0x23D7 JUMP JUMPDEST PUSH1 0x40 MLOAD DUP1 SWAP2 SUB SWAP1 REVERT JUMPDEST PUSH1 0x0 PUSH20 0xFFFFFFFFFFFFFFFFFFFFFFFFFFFFFFFFFFFFFFFF AND DUP2 PUSH20 0xFFFFFFFFFFFFFFFFFFFFFFFFFFFFFFFFFFFFFFFF AND EQ ISZERO PUSH2 0x17C8 JUMPI PUSH1 0x40 MLOAD PUSH32 0x8C379A000000000000000000000000000000000000000000000000000000000 DUP2 MSTORE PUSH1 0x4 ADD PUSH2 0x17BF SWAP1 PUSH2 0x2337 JUMP JUMPDEST PUSH1 0x40 MLOAD DUP1 SWAP2 SUB SWAP1 REVERT JUMPDEST PUSH2 0x17D1 DUP2 PUSH2 0x1A52 JUMP JUMPDEST POP JUMP JUMPDEST PUSH1 0x0 PUSH1 0x7 PUSH1 0x0 CALLER PUSH20 0xFFFFFFFFFFFFFFFFFFFFFFFFFFFFFFFFFFFFFFFF AND PUSH20 0xFFFFFFFFFFFFFFFFFFFFFFFFFFFFFFFFFFFFFFFF AND DUP2 MSTORE PUSH1 0x20 ADD SWAP1 DUP2 MSTORE PUSH1 0x20 ADD PUSH1 0x0 KECCAK256 PUSH1 0x0 ADD SLOAD SWAP1 POP SWAP1 JUMP JUMPDEST PUSH1 0x0 PUSH1 0x7 PUSH1 0x0 DUP4 PUSH20 0xFFFFFFFFFFFFFFFFFFFFFFFFFFFFFFFFFFFFFFFF AND PUSH20 0xFFFFFFFFFFFFFFFFFFFFFFFFFFFFFFFFFFFFFFFF AND DUP2 MSTORE PUSH1 0x20 ADD SWAP1 DUP2 MSTORE PUSH1 0x20 ADD PUSH1 0x0 KECCAK256 PUSH1 0x1 ADD SLOAD SWAP1 POP SWAP2 SWAP1 POP JUMP JUMPDEST PUSH1 0x9 PUSH1 0x0 SWAP1 SLOAD SWAP1 PUSH2 0x100 EXP SWAP1 DIV PUSH20 0xFFFFFFFFFFFFFFFFFFFFFFFFFFFFFFFFFFFFFFFF AND DUP2 JUMP JUMPDEST PUSH1 0x0 PUSH1 0x7 PUSH1 0x0 CALLER PUSH20 0xFFFFFFFFFFFFFFFFFFFFFFFFFFFFFFFFFFFFFFFF AND PUSH20 0xFFFFFFFFFFFFFFFFFFFFFFFFFFFFFFFFFFFFFFFF AND DUP2 MSTORE PUSH1 0x20 ADD SWAP1 DUP2 MSTORE PUSH1 0x20 ADD PUSH1 0x0 KECCAK256 SWAP1 POP PUSH1 0x0 PUSH2 0x193E PUSH2 0x2710 PUSH2 0x1930 PUSH1 0x3 SLOAD PUSH2 0x1922 PUSH2 0x190F PUSH2 0x21C0 PUSH2 0x1901 DUP10 PUSH1 0x4 ADD SLOAD NUMBER PUSH2 0x196C SWAP1 SWAP2 SWAP1 PUSH4 0xFFFFFFFF AND JUMP JUMPDEST PUSH2 0x1982 SWAP1 SWAP2 SWAP1 PUSH4 0xFFFFFFFF AND JUMP JUMPDEST DUP8 PUSH1 0x1 ADD SLOAD PUSH2 0x19AE SWAP1 SWAP2 SWAP1 PUSH4 0xFFFFFFFF AND JUMP JUMPDEST PUSH2 0x19AE SWAP1 SWAP2 SWAP1 PUSH4 0xFFFFFFFF AND JUMP JUMPDEST PUSH2 0x1982 SWAP1 SWAP2 SWAP1 PUSH4 0xFFFFFFFF AND JUMP JUMPDEST SWAP1 POP PUSH2 0x1957 DUP2 DUP4 PUSH1 0x0 ADD SLOAD PUSH2 0x1998 SWAP1 SWAP2 SWAP1 PUSH4 0xFFFFFFFF AND JUMP JUMPDEST DUP3 PUSH1 0x0 ADD DUP2 SWAP1 SSTORE POP NUMBER DUP3 PUSH1 0x4 ADD DUP2 SWAP1 SSTORE POP POP POP JUMP JUMPDEST PUSH1 0x0 DUP2 DUP4 PUSH2 0x197A SWAP2 SWAP1 PUSH2 0x25E5 JUMP JUMPDEST SWAP1 POP SWAP3 SWAP2 POP POP JUMP JUMPDEST PUSH1 0x0 DUP2 DUP4 PUSH2 0x1990 SWAP2 SWAP1 PUSH2 0x255A JUMP JUMPDEST SWAP1 POP SWAP3 SWAP2 POP POP JUMP JUMPDEST PUSH1 0x0 DUP2 DUP4 PUSH2 0x19A6 SWAP2 SWAP1 PUSH2 0x2504 JUMP JUMPDEST SWAP1 POP SWAP3 SWAP2 POP POP JUMP JUMPDEST PUSH1 0x0 DUP2 DUP4 PUSH2 0x19BC SWAP2 SWAP1 PUSH2 0x258B JUMP JUMPDEST SWAP1 POP SWAP3 SWAP2 POP POP JUMP JUMPDEST PUSH2 0x1A45 DUP4 PUSH4 0xA9059CBB PUSH1 0xE0 SHL DUP5 DUP5 PUSH1 0x40 MLOAD PUSH1 0x24 ADD PUSH2 0x19E3 SWAP3 SWAP2 SWAP1 PUSH2 0x2271 JUMP JUMPDEST PUSH1 0x40 MLOAD PUSH1 0x20 DUP2 DUP4 SUB SUB DUP2 MSTORE SWAP1 PUSH1 0x40 MSTORE SWAP1 PUSH28 0xFFFFFFFFFFFFFFFFFFFFFFFFFFFFFFFFFFFFFFFFFFFFFFFFFFFFFFFF NOT AND PUSH1 0x20 DUP3 ADD DUP1 MLOAD PUSH28 0xFFFFFFFFFFFFFFFFFFFFFFFFFFFFFFFFFFFFFFFFFFFFFFFFFFFFFFFF DUP4 DUP2 DUP4 AND OR DUP4 MSTORE POP POP POP POP PUSH2 0x1B9F JUMP JUMPDEST POP POP POP JUMP JUMPDEST PUSH1 0x0 CALLER SWAP1 POP SWAP1 JUMP JUMPDEST PUSH1 0x0 DUP1 PUSH1 0x0 SWAP1 SLOAD SWAP1 PUSH2 0x100 EXP SWAP1 DIV PUSH20 0xFFFFFFFFFFFFFFFFFFFFFFFFFFFFFFFFFFFFFFFF AND SWAP1 POP DUP2 PUSH1 0x0 DUP1 PUSH2 0x100 EXP DUP2 SLOAD DUP2 PUSH20 0xFFFFFFFFFFFFFFFFFFFFFFFFFFFFFFFFFFFFFFFF MUL NOT AND SWAP1 DUP4 PUSH20 0xFFFFFFFFFFFFFFFFFFFFFFFFFFFFFFFFFFFFFFFF AND MUL OR SWAP1 SSTORE POP DUP2 PUSH20 0xFFFFFFFFFFFFFFFFFFFFFFFFFFFFFFFFFFFFFFFF AND DUP2 PUSH20 0xFFFFFFFFFFFFFFFFFFFFFFFFFFFFFFFFFFFFFFFF AND PUSH32 0x8BE0079C531659141344CD1FD0A4F28419497F9722A3DAAFE3B4186F6B6457E0 PUSH1 0x40 MLOAD PUSH1 0x40 MLOAD DUP1 SWAP2 SUB SWAP1 LOG3 POP POP JUMP JUMPDEST PUSH2 0x1B99 DUP5 PUSH4 0x23B872DD PUSH1 0xE0 SHL DUP6 DUP6 DUP6 PUSH1 0x40 MLOAD PUSH1 0x24 ADD PUSH2 0x1B37 SWAP4 SWAP3 SWAP2 SWAP1 PUSH2 0x223A JUMP JUMPDEST PUSH1 0x40 MLOAD PUSH1 0x20 DUP2 DUP4 SUB SUB DUP2 MSTORE SWAP1 PUSH1 0x40 MSTORE SWAP1 PUSH28 0xFFFFFFFFFFFFFFFFFFFFFFFFFFFFFFFFFFFFFFFFFFFFFFFFFFFFFFFF NOT AND PUSH1 0x20 DUP3 ADD DUP1 MLOAD PUSH28 0xFFFFFFFFFFFFFFFFFFFFFFFFFFFFFFFFFFFFFFFFFFFFFFFFFFFFFFFF DUP4 DUP2 DUP4 AND OR DUP4 MSTORE POP POP POP POP PUSH2 0x1B9F JUMP JUMPDEST POP POP POP POP JUMP JUMPDEST PUSH1 0x0 PUSH2 0x1C01 DUP3 PUSH1 0x40 MLOAD DUP1 PUSH1 0x40 ADD PUSH1 0x40 MSTORE DUP1 PUSH1 0x20 DUP2 MSTORE PUSH1 0x20 ADD PUSH32 0x5361666542455032303A206C6F772D6C6576656C2063616C6C206661696C6564 DUP2 MSTORE POP DUP6 PUSH20 0xFFFFFFFFFFFFFFFFFFFFFFFFFFFFFFFFFFFFFFFF AND PUSH2 0x1C66 SWAP1 SWAP3 SWAP2 SWAP1 PUSH4 0xFFFFFFFF AND JUMP JUMPDEST SWAP1 POP PUSH1 0x0 DUP2 MLOAD GT ISZERO PUSH2 0x1C61 JUMPI DUP1 DUP1 PUSH1 0x20 ADD SWAP1 MLOAD DUP2 ADD SWAP1 PUSH2 0x1C21 SWAP2 SWAP1 PUSH2 0x1E9D JUMP JUMPDEST PUSH2 0x1C60 JUMPI PUSH1 0x40 MLOAD PUSH32 0x8C379A000000000000000000000000000000000000000000000000000000000 DUP2 MSTORE PUSH1 0x4 ADD PUSH2 0x1C57 SWAP1 PUSH2 0x2317 JUMP JUMPDEST PUSH1 0x40 MLOAD DUP1 SWAP2 SUB SWAP1 REVERT JUMPDEST JUMPDEST POP POP POP JUMP JUMPDEST PUSH1 0x60 PUSH2 0x1C75 DUP5 DUP5 PUSH1 0x0 DUP6 PUSH2 0x1C7E JUMP JUMPDEST SWAP1 POP SWAP4 SWAP3 POP POP POP JUMP JUMPDEST PUSH1 0x60 DUP3 SELFBALANCE LT ISZERO PUSH2 0x1CC3 JUMPI PUSH1 0x40 MLOAD PUSH32 0x8C379A000000000000000000000000000000000000000000000000000000000 DUP2 MSTORE PUSH1 0x4 ADD PUSH2 0x1CBA SWAP1 PUSH2 0x2397 JUMP JUMPDEST PUSH1 0x40 MLOAD DUP1 SWAP2 SUB SWAP1 REVERT JUMPDEST PUSH2 0x1CCC DUP6 PUSH2 0x1D92 JUMP JUMPDEST PUSH2 0x1D0B JUMPI PUSH1 0x40 MLOAD PUSH32 0x8C379A000000000000000000000000000000000000000000000000000000000 DUP2 MSTORE PUSH1 0x4 ADD PUSH2 0x1D02 SWAP1 PUSH2 0x2417 JUMP JUMPDEST PUSH1 0x40 MLOAD DUP1 SWAP2 SUB SWAP1 REVERT JUMPDEST PUSH1 0x0 DUP1 DUP7 PUSH20 0xFFFFFFFFFFFFFFFFFFFFFFFFFFFFFFFFFFFFFFFF AND DUP6 DUP8 PUSH1 0x40 MLOAD PUSH2 0x1D34 SWAP2 SWAP1 PUSH2 0x2208 JUMP JUMPDEST PUSH1 0x0 PUSH1 0x40 MLOAD DUP1 DUP4 SUB DUP2 DUP6 DUP8 GAS CALL SWAP3 POP POP POP RETURNDATASIZE DUP1 PUSH1 0x0 DUP2 EQ PUSH2 0x1D71 JUMPI PUSH1 0x40 MLOAD SWAP2 POP PUSH1 0x1F NOT PUSH1 0x3F RETURNDATASIZE ADD AND DUP3 ADD PUSH1 0x40 MSTORE RETURNDATASIZE DUP3 MSTORE RETURNDATASIZE PUSH1 0x0 PUSH1 0x20 DUP5 ADD RETURNDATACOPY PUSH2 0x1D76 JUMP JUMPDEST PUSH1 0x60 SWAP2 POP JUMPDEST POP SWAP2 POP SWAP2 POP PUSH2 0x1D86 DUP3 DUP3 DUP7 PUSH2 0x1DB5 JUMP JUMPDEST SWAP3 POP POP POP SWAP5 SWAP4 POP POP POP POP JUMP JUMPDEST PUSH1 0x0 DUP1 DUP3 PUSH20 0xFFFFFFFFFFFFFFFFFFFFFFFFFFFFFFFFFFFFFFFF AND EXTCODESIZE GT SWAP1 POP SWAP2 SWAP1 POP JUMP JUMPDEST PUSH1 0x60 DUP4 ISZERO PUSH2 0x1DC5 JUMPI DUP3 SWAP1 POP PUSH2 0x1E15 JUMP JUMPDEST PUSH1 0x0 DUP4 MLOAD GT ISZERO PUSH2 0x1DD8 JUMPI DUP3 MLOAD DUP1 DUP5 PUSH1 0x20 ADD REVERT JUMPDEST DUP2 PUSH1 0x40 MLOAD PUSH32 0x8C379A000000000000000000000000000000000000000000000000000000000 DUP2 MSTORE PUSH1 0x4 ADD PUSH2 0x1E0C SWAP2 SWAP1 PUSH2 0x22B5 JUMP JUMPDEST PUSH1 0x40 MLOAD DUP1 SWAP2 SUB SWAP1 REVERT JUMPDEST SWAP4 SWAP3 POP POP POP JUMP JUMPDEST PUSH1 0x0 DUP2 CALLDATALOAD SWAP1 POP PUSH2 0x1E2B DUP2 PUSH2 0x2A48 JUMP JUMPDEST SWAP3 SWAP2 POP POP JUMP JUMPDEST PUSH1 0x0 DUP2 MLOAD SWAP1 POP PUSH2 0x1E40 DUP2 PUSH2 0x2A5F JUMP JUMPDEST SWAP3 SWAP2 POP POP JUMP JUMPDEST PUSH1 0x0 DUP2 CALLDATALOAD SWAP1 POP PUSH2 0x1E55 DUP2 PUSH2 0x2A76 JUMP JUMPDEST SWAP3 SWAP2 POP POP JUMP JUMPDEST PUSH1 0x0 DUP2 MLOAD SWAP1 POP PUSH2 0x1E6A DUP2 PUSH2 0x2A76 JUMP JUMPDEST SWAP3 SWAP2 POP POP JUMP JUMPDEST PUSH1 0x0 PUSH1 0x20 DUP3 DUP5 SUB SLT ISZERO PUSH2 0x1E86 JUMPI PUSH2 0x1E85 PUSH2 0x2759 JUMP JUMPDEST JUMPDEST PUSH1 0x0 PUSH2 0x1E94 DUP5 DUP3 DUP6 ADD PUSH2 0x1E1C JUMP JUMPDEST SWAP2 POP POP SWAP3 SWAP2 POP POP JUMP JUMPDEST PUSH1 0x0 PUSH1 0x20 DUP3 DUP5 SUB SLT ISZERO PUSH2 0x1EB3 JUMPI PUSH2 0x1EB2 PUSH2 0x2759 JUMP JUMPDEST JUMPDEST PUSH1 0x0 PUSH2 0x1EC1 DUP5 DUP3 DUP6 ADD PUSH2 0x1E31 JUMP JUMPDEST SWAP2 POP POP SWAP3 SWAP2 POP POP JUMP JUMPDEST PUSH1 0x0 PUSH1 0x20 DUP3 DUP5 SUB SLT ISZERO PUSH2 0x1EE0 JUMPI PUSH2 0x1EDF PUSH2 0x2759 JUMP JUMPDEST JUMPDEST PUSH1 0x0 PUSH2 0x1EEE DUP5 DUP3 DUP6 ADD PUSH2 0x1E46 JUMP JUMPDEST SWAP2 POP POP SWAP3 SWAP2 POP POP JUMP JUMPDEST PUSH1 0x0 PUSH1 0x20 DUP3 DUP5 SUB SLT ISZERO PUSH2 0x1F0D JUMPI PUSH2 0x1F0C PUSH2 0x2759 JUMP JUMPDEST JUMPDEST PUSH1 0x0 PUSH2 0x1F1B DUP5 DUP3 DUP6 ADD PUSH2 0x1E5B JUMP JUMPDEST SWAP2 POP POP SWAP3 SWAP2 POP POP JUMP JUMPDEST PUSH1 0x0 DUP1 PUSH1 0x40 DUP4 DUP6 SUB SLT ISZERO PUSH2 0x1F3B JUMPI PUSH2 0x1F3A PUSH2 0x2759 JUMP JUMPDEST JUMPDEST PUSH1 0x0 PUSH2 0x1F49 DUP6 DUP3 DUP7 ADD PUSH2 0x1E46 JUMP JUMPDEST SWAP3 POP POP PUSH1 0x20 PUSH2 0x1F5A DUP6 DUP3 DUP7 ADD PUSH2 0x1E46 JUMP JUMPDEST SWAP2 POP POP SWAP3 POP SWAP3 SWAP1 POP JUMP JUMPDEST PUSH2 0x1F6D DUP2 PUSH2 0x2619 JUMP JUMPDEST DUP3 MSTORE POP POP JUMP JUMPDEST PUSH1 0x0 PUSH2 0x1F7E DUP3 PUSH2 0x24D2 JUMP JUMPDEST PUSH2 0x1F88 DUP2 DUP6 PUSH2 0x24E8 JUMP JUMPDEST SWAP4 POP PUSH2 0x1F98 DUP2 DUP6 PUSH1 0x20 DUP7 ADD PUSH2 0x2697 JUMP JUMPDEST DUP1 DUP5 ADD SWAP2 POP POP SWAP3 SWAP2 POP POP JUMP JUMPDEST PUSH2 0x1FAD DUP2 PUSH2 0x2661 JUMP JUMPDEST DUP3 MSTORE POP POP JUMP JUMPDEST PUSH1 0x0 PUSH2 0x1FBE DUP3 PUSH2 0x24DD JUMP JUMPDEST PUSH2 0x1FC8 DUP2 DUP6 PUSH2 0x24F3 JUMP JUMPDEST SWAP4 POP PUSH2 0x1FD8 DUP2 DUP6 PUSH1 0x20 DUP7 ADD PUSH2 0x2697 JUMP JUMPDEST PUSH2 0x1FE1 DUP2 PUSH2 0x275E JUMP JUMPDEST DUP5 ADD SWAP2 POP POP SWAP3 SWAP2 POP POP JUMP JUMPDEST PUSH1 0x0 PUSH2 0x1FF9 PUSH1 0x10 DUP4 PUSH2 0x24F3 JUMP JUMPDEST SWAP2 POP PUSH2 0x2004 DUP3 PUSH2 0x276F JUMP JUMPDEST PUSH1 0x20 DUP3 ADD SWAP1 POP SWAP2 SWAP1 POP JUMP JUMPDEST PUSH1 0x0 PUSH2 0x201C PUSH1 0x15 DUP4 PUSH2 0x24F3 JUMP JUMPDEST SWAP2 POP PUSH2 0x2027 DUP3 PUSH2 0x2798 JUMP JUMPDEST PUSH1 0x20 DUP3 ADD SWAP1 POP SWAP2 SWAP1 POP JUMP JUMPDEST PUSH1 0x0 PUSH2 0x203F PUSH1 0x2A DUP4 PUSH2 0x24F3 JUMP JUMPDEST SWAP2 POP PUSH2 0x204A DUP3 PUSH2 0x27C1 JUMP JUMPDEST PUSH1 0x40 DUP3 ADD SWAP1 POP SWAP2 SWAP1 POP JUMP JUMPDEST PUSH1 0x0 PUSH2 0x2062 PUSH1 0x26 DUP4 PUSH2 0x24F3 JUMP JUMPDEST SWAP2 POP PUSH2 0x206D DUP3 PUSH2 0x2810 JUMP JUMPDEST PUSH1 0x40 DUP3 ADD SWAP1 POP SWAP2 SWAP1 POP JUMP JUMPDEST PUSH1 0x0 PUSH2 0x2085 PUSH1 0xE DUP4 PUSH2 0x24F3 JUMP JUMPDEST SWAP2 POP PUSH2 0x2090 DUP3 PUSH2 0x285F JUMP JUMPDEST PUSH1 0x20 DUP3 ADD SWAP1 POP SWAP2 SWAP1 POP JUMP JUMPDEST PUSH1 0x0 PUSH2 0x20A8 PUSH1 0xF DUP4 PUSH2 0x24F3 JUMP JUMPDEST SWAP2 POP PUSH2 0x20B3 DUP3 PUSH2 0x2888 JUMP JUMPDEST PUSH1 0x20 DUP3 ADD SWAP1 POP SWAP2 SWAP1 POP JUMP JUMPDEST PUSH1 0x0 PUSH2 0x20CB PUSH1 0x26 DUP4 PUSH2 0x24F3 JUMP JUMPDEST SWAP2 POP PUSH2 0x20D6 DUP3 PUSH2 0x28B1 JUMP JUMPDEST PUSH1 0x40 DUP3 ADD SWAP1 POP SWAP2 SWAP1 POP JUMP JUMPDEST PUSH1 0x0 PUSH2 0x20EE PUSH1 0x1F DUP4 PUSH2 0x24F3 JUMP JUMPDEST SWAP2 POP PUSH2 0x20F9 DUP3 PUSH2 0x2900 JUMP JUMPDEST PUSH1 0x20 DUP3 ADD SWAP1 POP SWAP2 SWAP1 POP JUMP JUMPDEST PUSH1 0x0 PUSH2 0x2111 PUSH1 0x20 DUP4 PUSH2 0x24F3 JUMP JUMPDEST SWAP2 POP PUSH2 0x211C DUP3 PUSH2 0x2929 JUMP JUMPDEST PUSH1 0x20 DUP3 ADD SWAP1 POP SWAP2 SWAP1 POP JUMP JUMPDEST PUSH1 0x0 PUSH2 0x2134 PUSH1 0xD DUP4 PUSH2 0x24F3 JUMP JUMPDEST SWAP2 POP PUSH2 0x213F DUP3 PUSH2 0x2952 JUMP JUMPDEST PUSH1 0x20 DUP3 ADD SWAP1 POP SWAP2 SWAP1 POP JUMP JUMPDEST PUSH1 0x0 PUSH2 0x2157 PUSH1 0x1D DUP4 PUSH2 0x24F3 JUMP JUMPDEST SWAP2 POP PUSH2 0x2162 DUP3 PUSH2 0x297B JUMP JUMPDEST PUSH1 0x20 DUP3 ADD SWAP1 POP SWAP2 SWAP1 POP JUMP JUMPDEST PUSH1 0x0 PUSH2 0x217A PUSH1 0x1A DUP4 PUSH2 0x24F3 JUMP JUMPDEST SWAP2 POP PUSH2 0x2185 DUP3 PUSH2 0x29A4 JUMP JUMPDEST PUSH1 0x20 DUP3 ADD SWAP1 POP SWAP2 SWAP1 POP JUMP JUMPDEST PUSH1 0x0 PUSH2 0x219D PUSH1 0x17 DUP4 PUSH2 0x24F3 JUMP JUMPDEST SWAP2 POP PUSH2 0x21A8 DUP3 PUSH2 0x29CD JUMP JUMPDEST PUSH1 0x20 DUP3 ADD SWAP1 POP SWAP2 SWAP1 POP JUMP JUMPDEST PUSH1 0x0 PUSH2 0x21C0 PUSH1 0xD DUP4 PUSH2 0x24F3 JUMP JUMPDEST SWAP2 POP PUSH2 0x21CB DUP3 PUSH2 0x29F6 JUMP JUMPDEST PUSH1 0x20 DUP3 ADD SWAP1 POP SWAP2 SWAP1 POP JUMP JUMPDEST PUSH1 0x0 PUSH2 0x21E3 PUSH1 0xD DUP4 PUSH2 0x24F3 JUMP JUMPDEST SWAP2 POP PUSH2 0x21EE DUP3 PUSH2 0x2A1F JUMP JUMPDEST PUSH1 0x20 DUP3 ADD SWAP1 POP SWAP2 SWAP1 POP JUMP JUMPDEST PUSH2 0x2202 DUP2 PUSH2 0x2657 JUMP JUMPDEST DUP3 MSTORE POP POP JUMP JUMPDEST PUSH1 0x0 PUSH2 0x2214 DUP3 DUP5 PUSH2 0x1F73 JUMP JUMPDEST SWAP2 POP DUP2 SWAP1 POP SWAP3 SWAP2 POP POP JUMP JUMPDEST PUSH1 0x0 PUSH1 0x20 DUP3 ADD SWAP1 POP PUSH2 0x2234 PUSH1 0x0 DUP4 ADD DUP5 PUSH2 0x1F64 JUMP JUMPDEST SWAP3 SWAP2 POP POP JUMP JUMPDEST PUSH1 0x0 PUSH1 0x60 DUP3 ADD SWAP1 POP PUSH2 0x224F PUSH1 0x0 DUP4 ADD DUP7 PUSH2 0x1F64 JUMP JUMPDEST PUSH2 0x225C PUSH1 0x20 DUP4 ADD DUP6 PUSH2 0x1F64 JUMP JUMPDEST PUSH2 0x2269 PUSH1 0x40 DUP4 ADD DUP5 PUSH2 0x21F9 JUMP JUMPDEST SWAP5 SWAP4 POP POP POP POP JUMP JUMPDEST PUSH1 0x0 PUSH1 0x40 DUP3 ADD SWAP1 POP PUSH2 0x2286 PUSH1 0x0 DUP4 ADD DUP6 PUSH2 0x1F64 JUMP JUMPDEST PUSH2 0x2293 PUSH1 0x20 DUP4 ADD DUP5 PUSH2 0x21F9 JUMP JUMPDEST SWAP4 SWAP3 POP POP POP JUMP JUMPDEST PUSH1 0x0 PUSH1 0x20 DUP3 ADD SWAP1 POP PUSH2 0x22AF PUSH1 0x0 DUP4 ADD DUP5 PUSH2 0x1FA4 JUMP JUMPDEST SWAP3 SWAP2 POP POP JUMP JUMPDEST PUSH1 0x0 PUSH1 0x20 DUP3 ADD SWAP1 POP DUP2 DUP2 SUB PUSH1 0x0 DUP4 ADD MSTORE PUSH2 0x22CF DUP2 DUP5 PUSH2 0x1FB3 JUMP JUMPDEST SWAP1 POP SWAP3 SWAP2 POP POP JUMP JUMPDEST PUSH1 0x0 PUSH1 0x20 DUP3 ADD SWAP1 POP DUP2 DUP2 SUB PUSH1 0x0 DUP4 ADD MSTORE PUSH2 0x22F0 DUP2 PUSH2 0x1FEC JUMP JUMPDEST SWAP1 POP SWAP2 SWAP1 POP JUMP JUMPDEST PUSH1 0x0 PUSH1 0x20 DUP3 ADD SWAP1 POP DUP2 DUP2 SUB PUSH1 0x0 DUP4 ADD MSTORE PUSH2 0x2310 DUP2 PUSH2 0x200F JUMP JUMPDEST SWAP1 POP SWAP2 SWAP1 POP JUMP JUMPDEST PUSH1 0x0 PUSH1 0x20 DUP3 ADD SWAP1 POP DUP2 DUP2 SUB PUSH1 0x0 DUP4 ADD MSTORE PUSH2 0x2330 DUP2 PUSH2 0x2032 JUMP JUMPDEST SWAP1 POP SWAP2 SWAP1 POP JUMP JUMPDEST PUSH1 0x0 PUSH1 0x20 DUP3 ADD SWAP1 POP DUP2 DUP2 SUB PUSH1 0x0 DUP4 ADD MSTORE PUSH2 0x2350 DUP2 PUSH2 0x2055 JUMP JUMPDEST SWAP1 POP SWAP2 SWAP1 POP JUMP JUMPDEST PUSH1 0x0 PUSH1 0x20 DUP3 ADD SWAP1 POP DUP2 DUP2 SUB PUSH1 0x0 DUP4 ADD MSTORE PUSH2 0x2370 DUP2 PUSH2 0x2078 JUMP JUMPDEST SWAP1 POP SWAP2 SWAP1 POP JUMP JUMPDEST PUSH1 0x0 PUSH1 0x20 DUP3 ADD SWAP1 POP DUP2 DUP2 SUB PUSH1 0x0 DUP4 ADD MSTORE PUSH2 0x2390 DUP2 PUSH2 0x209B JUMP JUMPDEST SWAP1 POP SWAP2 SWAP1 POP JUMP JUMPDEST PUSH1 0x0 PUSH1 0x20 DUP3 ADD SWAP1 POP DUP2 DUP2 SUB PUSH1 0x0 DUP4 ADD MSTORE PUSH2 0x23B0 DUP2 PUSH2 0x20BE JUMP JUMPDEST SWAP1 POP SWAP2 SWAP1 POP JUMP JUMPDEST PUSH1 0x0 PUSH1 0x20 DUP3 ADD SWAP1 POP DUP2 DUP2 SUB PUSH1 0x0 DUP4 ADD MSTORE PUSH2 0x23D0 DUP2 PUSH2 0x20E1 JUMP JUMPDEST SWAP1 POP SWAP2 SWAP1 POP JUMP JUMPDEST PUSH1 0x0 PUSH1 0x20 DUP3 ADD SWAP1 POP DUP2 DUP2 SUB PUSH1 0x0 DUP4 ADD MSTORE PUSH2 0x23F0 DUP2 PUSH2 0x2104 JUMP JUMPDEST SWAP1 POP SWAP2 SWAP1 POP JUMP JUMPDEST PUSH1 0x0 PUSH1 0x20 DUP3 ADD SWAP1 POP DUP2 DUP2 SUB PUSH1 0x0 DUP4 ADD MSTORE PUSH2 0x2410 DUP2 PUSH2 0x2127 JUMP JUMPDEST SWAP1 POP SWAP2 SWAP1 POP JUMP JUMPDEST PUSH1 0x0 PUSH1 0x20 DUP3 ADD SWAP1 POP DUP2 DUP2 SUB PUSH1 0x0 DUP4 ADD MSTORE PUSH2 0x2430 DUP2 PUSH2 0x214A JUMP JUMPDEST SWAP1 POP SWAP2 SWAP1 POP JUMP JUMPDEST PUSH1 0x0 PUSH1 0x20 DUP3 ADD SWAP1 POP DUP2 DUP2 SUB PUSH1 0x0 DUP4 ADD MSTORE PUSH2 0x2450 DUP2 PUSH2 0x216D JUMP JUMPDEST SWAP1 POP SWAP2 SWAP1 POP JUMP JUMPDEST PUSH1 0x0 PUSH1 0x20 DUP3 ADD SWAP1 POP DUP2 DUP2 SUB PUSH1 0x0 DUP4 ADD MSTORE PUSH2 0x2470 DUP2 PUSH2 0x2190 JUMP JUMPDEST SWAP1 POP SWAP2 SWAP1 POP JUMP JUMPDEST PUSH1 0x0 PUSH1 0x20 DUP3 ADD SWAP1 POP DUP2 DUP2 SUB PUSH1 0x0 DUP4 ADD MSTORE PUSH2 0x2490 DUP2 PUSH2 0x21B3 JUMP JUMPDEST SWAP1 POP SWAP2 SWAP1 POP JUMP JUMPDEST PUSH1 0x0 PUSH1 0x20 DUP3 ADD SWAP1 POP DUP2 DUP2 SUB PUSH1 0x0 DUP4 ADD MSTORE PUSH2 0x24B0 DUP2 PUSH2 0x21D6 JUMP JUMPDEST SWAP1 POP SWAP2 SWAP1 POP JUMP JUMPDEST PUSH1 0x0 PUSH1 0x20 DUP3 ADD SWAP1 POP PUSH2 0x24CC PUSH1 0x0 DUP4 ADD DUP5 PUSH2 0x21F9 JUMP JUMPDEST SWAP3 SWAP2 POP POP JUMP JUMPDEST PUSH1 0x0 DUP2 MLOAD SWAP1 POP SWAP2 SWAP1 POP JUMP JUMPDEST PUSH1 0x0 DUP2 MLOAD SWAP1 POP SWAP2 SWAP1 POP JUMP JUMPDEST PUSH1 0x0 DUP2 SWAP1 POP SWAP3 SWAP2 POP POP JUMP JUMPDEST PUSH1 0x0 DUP3 DUP3 MSTORE PUSH1 0x20 DUP3 ADD SWAP1 POP SWAP3 SWAP2 POP POP JUMP JUMPDEST PUSH1 0x0 PUSH2 0x250F DUP3 PUSH2 0x2657 JUMP JUMPDEST SWAP2 POP PUSH2 0x251A DUP4 PUSH2 0x2657 JUMP JUMPDEST SWAP3 POP DUP3 PUSH32 0xFFFFFFFFFFFFFFFFFFFFFFFFFFFFFFFFFFFFFFFFFFFFFFFFFFFFFFFFFFFFFFFF SUB DUP3 GT ISZERO PUSH2 0x254F JUMPI PUSH2 0x254E PUSH2 0x26FB JUMP JUMPDEST JUMPDEST DUP3 DUP3 ADD SWAP1 POP SWAP3 SWAP2 POP POP JUMP JUMPDEST PUSH1 0x0 PUSH2 0x2565 DUP3 PUSH2 0x2657 JUMP JUMPDEST SWAP2 POP PUSH2 0x2570 DUP4 PUSH2 0x2657 JUMP JUMPDEST SWAP3 POP DUP3 PUSH2 0x2580 JUMPI PUSH2 0x257F PUSH2 0x272A JUMP JUMPDEST JUMPDEST DUP3 DUP3 DIV SWAP1 POP SWAP3 SWAP2 POP POP JUMP JUMPDEST PUSH1 0x0 PUSH2 0x2596 DUP3 PUSH2 0x2657 JUMP JUMPDEST SWAP2 POP PUSH2 0x25A1 DUP4 PUSH2 0x2657 JUMP JUMPDEST SWAP3 POP DUP2 PUSH32 0xFFFFFFFFFFFFFFFFFFFFFFFFFFFFFFFFFFFFFFFFFFFFFFFFFFFFFFFFFFFFFFFF DIV DUP4 GT DUP3 ISZERO ISZERO AND ISZERO PUSH2 0x25DA JUMPI PUSH2 0x25D9 PUSH2 0x26FB JUMP JUMPDEST JUMPDEST DUP3 DUP3 MUL SWAP1 POP SWAP3 SWAP2 POP POP JUMP JUMPDEST PUSH1 0x0 PUSH2 0x25F0 DUP3 PUSH2 0x2657 JUMP JUMPDEST SWAP2 POP PUSH2 0x25FB DUP4 PUSH2 0x2657 JUMP JUMPDEST SWAP3 POP DUP3 DUP3 LT ISZERO PUSH2 0x260E JUMPI PUSH2 0x260D PUSH2 0x26FB JUMP JUMPDEST JUMPDEST DUP3 DUP3 SUB SWAP1 POP SWAP3 SWAP2 POP POP JUMP JUMPDEST PUSH1 0x0 PUSH2 0x2624 DUP3 PUSH2 0x2637 JUMP JUMPDEST SWAP1 POP SWAP2 SWAP1 POP JUMP JUMPDEST PUSH1 0x0 DUP2 ISZERO ISZERO SWAP1 POP SWAP2 SWAP1 POP JUMP JUMPDEST PUSH1 0x0 PUSH20 0xFFFFFFFFFFFFFFFFFFFFFFFFFFFFFFFFFFFFFFFF DUP3 AND SWAP1 POP SWAP2 SWAP1 POP JUMP JUMPDEST PUSH1 0x0 DUP2 SWAP1 POP SWAP2 SWAP1 POP JUMP JUMPDEST PUSH1 0x0 PUSH2 0x266C DUP3 PUSH2 0x2673 JUMP JUMPDEST SWAP1 POP SWAP2 SWAP1 POP JUMP JUMPDEST PUSH1 0x0 PUSH2 0x267E DUP3 PUSH2 0x2685 JUMP JUMPDEST SWAP1 POP SWAP2 SWAP1 POP JUMP JUMPDEST PUSH1 0x0 PUSH2 0x2690 DUP3 PUSH2 0x2637 JUMP JUMPDEST SWAP1 POP SWAP2 SWAP1 POP JUMP JUMPDEST PUSH1 0x0 JUMPDEST DUP4 DUP2 LT ISZERO PUSH2 0x26B5 JUMPI DUP1 DUP3 ADD MLOAD DUP2 DUP5 ADD MSTORE PUSH1 0x20 DUP2 ADD SWAP1 POP PUSH2 0x269A JUMP JUMPDEST DUP4 DUP2 GT ISZERO PUSH2 0x26C4 JUMPI PUSH1 0x0 DUP5 DUP5 ADD MSTORE JUMPDEST POP POP POP POP JUMP JUMPDEST PUSH1 0x0 PUSH2 0x26D5 DUP3 PUSH2 0x2657 JUMP JUMPDEST SWAP2 POP PUSH2 0x26E0 DUP4 PUSH2 0x2657 JUMP JUMPDEST SWAP3 POP DUP3 PUSH2 0x26F0 JUMPI PUSH2 0x26EF PUSH2 0x272A JUMP JUMPDEST JUMPDEST DUP3 DUP3 MOD SWAP1 POP SWAP3 SWAP2 POP POP JUMP JUMPDEST PUSH32 0x4E487B7100000000000000000000000000000000000000000000000000000000 PUSH1 0x0 MSTORE PUSH1 0x11 PUSH1 0x4 MSTORE PUSH1 0x24 PUSH1 0x0 REVERT JUMPDEST PUSH32 0x4E487B7100000000000000000000000000000000000000000000000000000000 PUSH1 0x0 MSTORE PUSH1 0x12 PUSH1 0x4 MSTORE PUSH1 0x24 PUSH1 0x0 REVERT JUMPDEST PUSH1 0x0 DUP1 REVERT JUMPDEST PUSH1 0x0 PUSH1 0x1F NOT PUSH1 0x1F DUP4 ADD AND SWAP1 POP SWAP2 SWAP1 POP JUMP JUMPDEST PUSH32 0x4E6F7468696E6720746F20636C61696D00000000000000000000000000000000 PUSH1 0x0 DUP3 ADD MSTORE POP JUMP JUMPDEST PUSH32 0x4572726F723A20696E76616C6964207374616B65720000000000000000000000 PUSH1 0x0 DUP3 ADD MSTORE POP JUMP JUMPDEST PUSH32 0x5361666542455032303A204245503230206F7065726174696F6E20646964206E PUSH1 0x0 DUP3 ADD MSTORE PUSH32 0x6F74207375636365656400000000000000000000000000000000000000000000 PUSH1 0x20 DUP3 ADD MSTORE POP JUMP JUMPDEST PUSH32 0x4F776E61626C653A206E6577206F776E657220697320746865207A65726F2061 PUSH1 0x0 DUP3 ADD MSTORE PUSH32 0x6464726573730000000000000000000000000000000000000000000000000000 PUSH1 0x20 DUP3 ADD MSTORE POP JUMP JUMPDEST PUSH32 0x496E76616C696420616D6F756E74000000000000000000000000000000000000 PUSH1 0x0 DUP3 ADD MSTORE POP JUMP JUMPDEST PUSH32 0x416C726561647920737461727465640000000000000000000000000000000000 PUSH1 0x0 DUP3 ADD MSTORE POP JUMP JUMPDEST PUSH32 0x416464726573733A20696E73756666696369656E742062616C616E636520666F PUSH1 0x0 DUP3 ADD MSTORE PUSH32 0x722063616C6C0000000000000000000000000000000000000000000000000000 PUSH1 0x20 DUP3 ADD MSTORE POP JUMP JUMPDEST PUSH32 0x416D6F756E742073686F756C642062652067726561746572207468616E203000 PUSH1 0x0 DUP3 ADD MSTORE POP JUMP JUMPDEST PUSH32 0x4F776E61626C653A2063616C6C6572206973206E6F7420746865206F776E6572 PUSH1 0x0 DUP3 ADD MSTORE POP JUMP JUMPDEST PUSH32 0x496E76616C69642076616C756500000000000000000000000000000000000000 PUSH1 0x0 DUP3 ADD MSTORE POP JUMP JUMPDEST PUSH32 0x416464726573733A2063616C6C20746F206E6F6E2D636F6E7472616374000000 PUSH1 0x0 DUP3 ADD MSTORE POP JUMP JUMPDEST PUSH32 0x496E76616C696420556E7374616B696E67204665652052617465000000000000 PUSH1 0x0 DUP3 ADD MSTORE POP JUMP JUMPDEST PUSH32 0x496E76616C6964204C6F636B7570204475726174696F6E000000000000000000 PUSH1 0x0 DUP3 ADD MSTORE POP JUMP JUMPDEST PUSH32 0x43616E2774206265207A65726F00000000000000000000000000000000000000 PUSH1 0x0 DUP3 ADD MSTORE POP JUMP JUMPDEST PUSH32 0x496E73756666696369656E742100000000000000000000000000000000000000 PUSH1 0x0 DUP3 ADD MSTORE POP JUMP JUMPDEST PUSH2 0x2A51 DUP2 PUSH2 0x2619 JUMP JUMPDEST DUP2 EQ PUSH2 0x2A5C JUMPI PUSH1 0x0 DUP1 REVERT JUMPDEST POP JUMP JUMPDEST PUSH2 0x2A68 DUP2 PUSH2 0x262B JUMP JUMPDEST DUP2 EQ PUSH2 0x2A73 JUMPI PUSH1 0x0 DUP1 REVERT JUMPDEST POP JUMP JUMPDEST PUSH2 0x2A7F DUP2 PUSH2 0x2657 JUMP JUMPDEST DUP2 EQ PUSH2 0x2A8A JUMPI PUSH1 0x0 DUP1 REVERT JUMPDEST POP JUMP INVALID LOG2 PUSH5 0x6970667358 0x22 SLT KECCAK256 LOG4 CODECOPY PUSH25 0xA8B28D23996EEE28EDFD08D0451B37554B69BA8F655B1A47E3 0xEB 0xA5 PUSH24 0x8264736F6C63430008070033000000000000000000000000 "
				},
				"gasEstimates": {
					"creation": {
						"codeDepositCost": "2189400",
						"executionCost": "infinite",
						"totalCost": "infinite"
					},
					"external": {
						"getNumberofStakers()": "2490",
						"getRewardRate()": "2570",
						"getStakerMode()": "2578",
						"getTotalStaked()": "2461",
						"harvest()": "infinite",
						"isLocked()": "infinite",
						"isStartStaking()": "2577",
						"owner()": "2589",
						"renounceOwnership()": "30485",
						"rewardAmount()": "2620",
						"rewardToHarvest()": "2599",
						"setEventPeriod(uint256)": "infinite",
						"setLockupTime(uint256)": "24895",
						"setRewardRate(uint256)": "infinite",
						"setUnstakingFeeRate(uint256)": "infinite",
						"stake(uint256)": "infinite",
						"stakedAmount(address)": "2957",
						"startStaking(uint256,uint256)": "infinite",
						"token()": "2732",
						"totalStaked()": "2452",
						"transferOwnership(address)": "30789",
						"withdraw(uint256)": "infinite"
					},
					"internal": {
						"Init()": "infinite",
						"calDaysFromTimestamp(uint256)": "infinite",
						"updateReward()": "infinite"
					}
				},
				"methodIdentifiers": {
					"getNumberofStakers()": "5715ec11",
					"getRewardRate()": "7e1a3786",
					"getStakerMode()": "129488d3",
					"getTotalStaked()": "0917e776",
					"harvest()": "4641257d",
					"isLocked()": "a4e2d634",
					"isStartStaking()": "86187082",
					"owner()": "8da5cb5b",
					"renounceOwnership()": "715018a6",
					"rewardAmount()": "f7b2a7be",
					"rewardToHarvest()": "5d2ec65d",
					"setEventPeriod(uint256)": "692642e7",
					"setLockupTime(uint256)": "4b62b70b",
					"setRewardRate(uint256)": "9e447fc6",
					"setUnstakingFeeRate(uint256)": "91e07e7a",
					"stake(uint256)": "a694fc3a",
					"stakedAmount(address)": "f9931855",
					"startStaking(uint256,uint256)": "4b77dd9e",
					"token()": "fc0c546a",
					"totalStaked()": "817b1cd2",
					"transferOwnership(address)": "f2fde38b",
					"withdraw(uint256)": "2e1a7d4d"
				}
			},
			"userdoc": {
				"kind": "user",
				"methods": {},
				"version": 1
			}
		}
	}
}