{
	"contracts/Topbot.sol": {
		"Topbot": {
			"abi": [
				{
					"inputs": [
						{
							"internalType": "string",
							"name": "_name",
							"type": "string"
						},
						{
							"internalType": "string",
							"name": "_symbol",
							"type": "string"
						},
						{
							"internalType": "uint256",
							"name": "_initialSupply",
							"type": "uint256"
						}
					],
					"stateMutability": "nonpayable",
					"type": "constructor"
				},
				{
					"anonymous": false,
					"inputs": [
						{
							"indexed": true,
							"internalType": "address",
							"name": "owner",
							"type": "address"
						},
						{
							"indexed": true,
							"internalType": "address",
							"name": "spender",
							"type": "address"
						},
						{
							"indexed": false,
							"internalType": "uint256",
							"name": "value",
							"type": "uint256"
						}
					],
					"name": "Approval",
					"type": "event"
				},
				{
					"anonymous": false,
					"inputs": [
						{
							"indexed": true,
							"internalType": "address",
							"name": "from",
							"type": "address"
						},
						{
							"indexed": true,
							"internalType": "address",
							"name": "to",
							"type": "address"
						},
						{
							"indexed": false,
							"internalType": "uint256",
							"name": "value",
							"type": "uint256"
						}
					],
					"name": "Transfer",
					"type": "event"
				},
				{
					"inputs": [
						{
							"internalType": "address",
							"name": "_owner",
							"type": "address"
						},
						{
							"internalType": "address",
							"name": "spender",
							"type": "address"
						}
					],
					"name": "allowance",
					"outputs": [
						{
							"internalType": "uint256",
							"name": "",
							"type": "uint256"
						}
					],
					"stateMutability": "view",
					"type": "function"
				},
				{
					"inputs": [
						{
							"internalType": "address",
							"name": "_spender",
							"type": "address"
						},
						{
							"internalType": "uint256",
							"name": "_amount",
							"type": "uint256"
						}
					],
					"name": "approve",
					"outputs": [
						{
							"internalType": "bool",
							"name": "",
							"type": "bool"
						}
					],
					"stateMutability": "nonpayable",
					"type": "function"
				},
				{
					"inputs": [
						{
							"internalType": "address",
							"name": "_owner",
							"type": "address"
						}
					],
					"name": "balanceOf",
					"outputs": [
						{
							"internalType": "uint256",
							"name": "",
							"type": "uint256"
						}
					],
					"stateMutability": "view",
					"type": "function"
				},
				{
					"inputs": [],
					"name": "decimals",
					"outputs": [
						{
							"internalType": "uint8",
							"name": "",
							"type": "uint8"
						}
					],
					"stateMutability": "view",
					"type": "function"
				},
				{
					"inputs": [],
					"name": "getOwner",
					"outputs": [
						{
							"internalType": "address",
							"name": "",
							"type": "address"
						}
					],
					"stateMutability": "view",
					"type": "function"
				},
				{
					"inputs": [],
					"name": "name",
					"outputs": [
						{
							"internalType": "string",
							"name": "",
							"type": "string"
						}
					],
					"stateMutability": "view",
					"type": "function"
				},
				{
					"inputs": [],
					"name": "owner",
					"outputs": [
						{
							"internalType": "address",
							"name": "",
							"type": "address"
						}
					],
					"stateMutability": "view",
					"type": "function"
				},
				{
					"inputs": [],
					"name": "symbol",
					"outputs": [
						{
							"internalType": "string",
							"name": "",
							"type": "string"
						}
					],
					"stateMutability": "view",
					"type": "function"
				},
				{
					"inputs": [],
					"name": "totalSupply",
					"outputs": [
						{
							"internalType": "uint256",
							"name": "",
							"type": "uint256"
						}
					],
					"stateMutability": "view",
					"type": "function"
				},
				{
					"inputs": [
						{
							"internalType": "address",
							"name": "_to",
							"type": "address"
						},
						{
							"internalType": "uint256",
							"name": "_amount",
							"type": "uint256"
						}
					],
					"name": "transfer",
					"outputs": [
						{
							"internalType": "bool",
							"name": "",
							"type": "bool"
						}
					],
					"stateMutability": "nonpayable",
					"type": "function"
				},
				{
					"inputs": [
						{
							"internalType": "address",
							"name": "_owner",
							"type": "address"
						},
						{
							"internalType": "address",
							"name": "_spender",
							"type": "address"
						},
						{
							"internalType": "uint256",
							"name": "_amount",
							"type": "uint256"
						}
					],
					"name": "transferFrom",
					"outputs": [
						{
							"internalType": "bool",
							"name": "",
							"type": "bool"
						}
					],
					"stateMutability": "nonpayable",
					"type": "function"
				},
				{
					"inputs": [
						{
							"internalType": "address",
							"name": "_to",
							"type": "address"
						}
					],
					"name": "transferOwnership",
					"outputs": [],
					"stateMutability": "nonpayable",
					"type": "function"
				}
			],
			"devdoc": {
				"kind": "dev",
				"methods": {
					"allowance(address,address)": {
						"details": "Returns the remaining number of tokens that `spender` will be allowed to spend on behalf of `owner` through {transferFrom}. This is zero by default. This value changes when {approve} or {transferFrom} are called."
					},
					"getOwner()": {
						"details": "Returns the bep token owner."
					}
				},
				"stateVariables": {
					"decimals": {
						"details": "Returns the token decimals."
					},
					"name": {
						"details": "Returns the token name."
					},
					"symbol": {
						"details": "Returns the token symbol."
					},
					"totalSupply": {
						"details": "Returns the amount of tokens in existence."
					}
				},
				"version": 1
			},
			"evm": {
				"assembly": "    /* \"contracts/Topbot.sol\":95:2597  contract Topbot is IBEP20 {\r... */\n  mstore(0x40, 0x80)\n    /* \"contracts/Topbot.sol\":425:695  constructor(string memory _name, string memory _symbol, uint256 _initialSupply) {\r... */\n  callvalue\n  dup1\n  iszero\n  tag_1\n  jumpi\n  0x00\n  dup1\n  revert\ntag_1:\n  pop\n  mload(0x40)\n  sub(codesize, bytecodeSize)\n  dup1\n  bytecodeSize\n  dup4\n  codecopy\n  dup2\n  dup2\n  add\n  0x40\n  mstore\n  dup2\n  add\n  swap1\n  tag_2\n  swap2\n  swap1\n  tag_3\n  jump\t// in\ntag_2:\n    /* \"contracts/Topbot.sol\":524:534  msg.sender */\n  caller\n    /* \"contracts/Topbot.sol\":516:521  owner */\n  0x00\n  dup1\n    /* \"contracts/Topbot.sol\":516:534  owner = msg.sender */\n  0x0100\n  exp\n  dup2\n  sload\n  dup2\n  0xffffffffffffffffffffffffffffffffffffffff\n  mul\n  not\n  and\n  swap1\n  dup4\n  0xffffffffffffffffffffffffffffffffffffffff\n  and\n  mul\n  or\n  swap1\n  sstore\n  pop\n    /* \"contracts/Topbot.sol\":552:557  _name */\n  dup3\n    /* \"contracts/Topbot.sol\":545:549  name */\n  0x01\n    /* \"contracts/Topbot.sol\":545:557  name = _name */\n  swap1\n  dup1\n  mload\n  swap1\n  0x20\n  add\n  swap1\n  tag_6\n  swap3\n  swap2\n  swap1\n  tag_7\n  jump\t// in\ntag_6:\n  pop\n    /* \"contracts/Topbot.sol\":577:584  _symbol */\n  dup2\n    /* \"contracts/Topbot.sol\":568:574  symbol */\n  0x02\n    /* \"contracts/Topbot.sol\":568:584  symbol = _symbol */\n  swap1\n  dup1\n  mload\n  swap1\n  0x20\n  add\n  swap1\n  tag_8\n  swap3\n  swap2\n  swap1\n  tag_7\n  jump\t// in\ntag_8:\n  pop\n    /* \"contracts/Topbot.sol\":311:313  18 */\n  0x12\n    /* \"contracts/Topbot.sol\":627:629  10 */\n  0x0a\n    /* \"contracts/Topbot.sol\":627:641  10 ** decimals */\n  tag_9\n  swap2\n  swap1\n  tag_10\n  jump\t// in\ntag_9:\n    /* \"contracts/Topbot.sol\":609:623  _initialSupply */\n  dup2\n    /* \"contracts/Topbot.sol\":609:642  _initialSupply * (10 ** decimals) */\n  tag_11\n  swap2\n  swap1\n  tag_12\n  jump\t// in\ntag_11:\n    /* \"contracts/Topbot.sol\":595:606  totalSupply */\n  0x03\n    /* \"contracts/Topbot.sol\":595:642  totalSupply = _initialSupply * (10 ** decimals) */\n  dup2\n  swap1\n  sstore\n  pop\n    /* \"contracts/Topbot.sol\":676:687  totalSupply */\n  sload(0x03)\n    /* \"contracts/Topbot.sol\":653:661  balances */\n  0x04\n    /* \"contracts/Topbot.sol\":653:673  balances[msg.sender] */\n  0x00\n    /* \"contracts/Topbot.sol\":662:672  msg.sender */\n  caller\n    /* \"contracts/Topbot.sol\":653:673  balances[msg.sender] */\n  0xffffffffffffffffffffffffffffffffffffffff\n  and\n  0xffffffffffffffffffffffffffffffffffffffff\n  and\n  dup2\n  mstore\n  0x20\n  add\n  swap1\n  dup2\n  mstore\n  0x20\n  add\n  0x00\n  keccak256\n    /* \"contracts/Topbot.sol\":653:687  balances[msg.sender] = totalSupply */\n  dup2\n  swap1\n  sstore\n  pop\n    /* \"contracts/Topbot.sol\":425:695  constructor(string memory _name, string memory _symbol, uint256 _initialSupply) {\r... */\n  pop\n  pop\n  pop\n    /* \"contracts/Topbot.sol\":95:2597  contract Topbot is IBEP20 {\r... */\n  jump(tag_13)\ntag_7:\n  dup3\n  dup1\n  sload\n  tag_14\n  swap1\n  tag_15\n  jump\t// in\ntag_14:\n  swap1\n  0x00\n  mstore\n  keccak256(0x00, 0x20)\n  swap1\n  0x1f\n  add\n  0x20\n  swap1\n  div\n  dup2\n  add\n  swap3\n  dup3\n  tag_17\n  jumpi\n  0x00\n  dup6\n  sstore\n  jump(tag_16)\ntag_17:\n  dup3\n  0x1f\n  lt\n  tag_18\n  jumpi\n  dup1\n  mload\n  not(0xff)\n  and\n  dup4\n  dup1\n  add\n  or\n  dup6\n  sstore\n  jump(tag_16)\ntag_18:\n  dup3\n  dup1\n  add\n  0x01\n  add\n  dup6\n  sstore\n  dup3\n  iszero\n  tag_16\n  jumpi\n  swap2\n  dup3\n  add\ntag_19:\n  dup3\n  dup2\n  gt\n  iszero\n  tag_20\n  jumpi\n  dup3\n  mload\n  dup3\n  sstore\n  swap2\n  0x20\n  add\n  swap2\n  swap1\n  0x01\n  add\n  swap1\n  jump(tag_19)\ntag_20:\ntag_16:\n  pop\n  swap1\n  pop\n  tag_21\n  swap2\n  swap1\n  tag_22\n  jump\t// in\ntag_21:\n  pop\n  swap1\n  jump\t// out\ntag_22:\ntag_23:\n  dup1\n  dup3\n  gt\n  iszero\n  tag_24\n  jumpi\n  0x00\n  dup2\n  0x00\n  swap1\n  sstore\n  pop\n  0x01\n  add\n  jump(tag_23)\ntag_24:\n  pop\n  swap1\n  jump\t// out\n    /* \"#utility.yul\":7:428   */\ntag_26:\n    /* \"#utility.yul\":96:101   */\n  0x00\n    /* \"#utility.yul\":121:187   */\n  tag_28\n    /* \"#utility.yul\":137:186   */\n  tag_29\n    /* \"#utility.yul\":179:185   */\n  dup5\n    /* \"#utility.yul\":137:186   */\n  tag_30\n  jump\t// in\ntag_29:\n    /* \"#utility.yul\":121:187   */\n  tag_31\n  jump\t// in\ntag_28:\n    /* \"#utility.yul\":112:187   */\n  swap1\n  pop\n    /* \"#utility.yul\":210:216   */\n  dup3\n    /* \"#utility.yul\":203:208   */\n  dup2\n    /* \"#utility.yul\":196:217   */\n  mstore\n    /* \"#utility.yul\":248:252   */\n  0x20\n    /* \"#utility.yul\":241:246   */\n  dup2\n    /* \"#utility.yul\":237:253   */\n  add\n    /* \"#utility.yul\":286:289   */\n  dup5\n    /* \"#utility.yul\":277:283   */\n  dup5\n    /* \"#utility.yul\":272:275   */\n  dup5\n    /* \"#utility.yul\":268:284   */\n  add\n    /* \"#utility.yul\":265:290   */\n  gt\n    /* \"#utility.yul\":262:374   */\n  iszero\n  tag_32\n  jumpi\n    /* \"#utility.yul\":293:372   */\n  tag_33\n  tag_34\n  jump\t// in\ntag_33:\n    /* \"#utility.yul\":262:374   */\ntag_32:\n    /* \"#utility.yul\":383:422   */\n  tag_35\n    /* \"#utility.yul\":415:421   */\n  dup5\n    /* \"#utility.yul\":410:413   */\n  dup3\n    /* \"#utility.yul\":405:408   */\n  dup6\n    /* \"#utility.yul\":383:422   */\n  tag_36\n  jump\t// in\ntag_35:\n    /* \"#utility.yul\":102:428   */\n  pop\n    /* \"#utility.yul\":7:428   */\n  swap4\n  swap3\n  pop\n  pop\n  pop\n  jump\t// out\n    /* \"#utility.yul\":448:803   */\ntag_37:\n    /* \"#utility.yul\":515:520   */\n  0x00\n    /* \"#utility.yul\":564:567   */\n  dup3\n    /* \"#utility.yul\":557:561   */\n  0x1f\n    /* \"#utility.yul\":549:555   */\n  dup4\n    /* \"#utility.yul\":545:562   */\n  add\n    /* \"#utility.yul\":541:568   */\n  slt\n    /* \"#utility.yul\":531:653   */\n  tag_39\n  jumpi\n    /* \"#utility.yul\":572:651   */\n  tag_40\n  tag_41\n  jump\t// in\ntag_40:\n    /* \"#utility.yul\":531:653   */\ntag_39:\n    /* \"#utility.yul\":682:688   */\n  dup2\n    /* \"#utility.yul\":676:689   */\n  mload\n    /* \"#utility.yul\":707:797   */\n  tag_42\n    /* \"#utility.yul\":793:796   */\n  dup5\n    /* \"#utility.yul\":785:791   */\n  dup3\n    /* \"#utility.yul\":778:782   */\n  0x20\n    /* \"#utility.yul\":770:776   */\n  dup7\n    /* \"#utility.yul\":766:783   */\n  add\n    /* \"#utility.yul\":707:797   */\n  tag_26\n  jump\t// in\ntag_42:\n    /* \"#utility.yul\":698:797   */\n  swap2\n  pop\n    /* \"#utility.yul\":521:803   */\n  pop\n    /* \"#utility.yul\":448:803   */\n  swap3\n  swap2\n  pop\n  pop\n  jump\t// out\n    /* \"#utility.yul\":809:952   */\ntag_43:\n    /* \"#utility.yul\":866:871   */\n  0x00\n    /* \"#utility.yul\":897:903   */\n  dup2\n    /* \"#utility.yul\":891:904   */\n  mload\n    /* \"#utility.yul\":882:904   */\n  swap1\n  pop\n    /* \"#utility.yul\":913:946   */\n  tag_45\n    /* \"#utility.yul\":940:945   */\n  dup2\n    /* \"#utility.yul\":913:946   */\n  tag_46\n  jump\t// in\ntag_45:\n    /* \"#utility.yul\":809:952   */\n  swap3\n  swap2\n  pop\n  pop\n  jump\t// out\n    /* \"#utility.yul\":958:1967   */\ntag_3:\n    /* \"#utility.yul\":1066:1072   */\n  0x00\n    /* \"#utility.yul\":1074:1080   */\n  dup1\n    /* \"#utility.yul\":1082:1088   */\n  0x00\n    /* \"#utility.yul\":1131:1133   */\n  0x60\n    /* \"#utility.yul\":1119:1128   */\n  dup5\n    /* \"#utility.yul\":1110:1117   */\n  dup7\n    /* \"#utility.yul\":1106:1129   */\n  sub\n    /* \"#utility.yul\":1102:1134   */\n  slt\n    /* \"#utility.yul\":1099:1218   */\n  iszero\n  tag_48\n  jumpi\n    /* \"#utility.yul\":1137:1216   */\n  tag_49\n  tag_50\n  jump\t// in\ntag_49:\n    /* \"#utility.yul\":1099:1218   */\ntag_48:\n    /* \"#utility.yul\":1278:1279   */\n  0x00\n    /* \"#utility.yul\":1267:1276   */\n  dup5\n    /* \"#utility.yul\":1263:1280   */\n  add\n    /* \"#utility.yul\":1257:1281   */\n  mload\n    /* \"#utility.yul\":1308:1326   */\n  0xffffffffffffffff\n    /* \"#utility.yul\":1300:1306   */\n  dup2\n    /* \"#utility.yul\":1297:1327   */\n  gt\n    /* \"#utility.yul\":1294:1411   */\n  iszero\n  tag_51\n  jumpi\n    /* \"#utility.yul\":1330:1409   */\n  tag_52\n  tag_53\n  jump\t// in\ntag_52:\n    /* \"#utility.yul\":1294:1411   */\ntag_51:\n    /* \"#utility.yul\":1435:1509   */\n  tag_54\n    /* \"#utility.yul\":1501:1508   */\n  dup7\n    /* \"#utility.yul\":1492:1498   */\n  dup3\n    /* \"#utility.yul\":1481:1490   */\n  dup8\n    /* \"#utility.yul\":1477:1499   */\n  add\n    /* \"#utility.yul\":1435:1509   */\n  tag_37\n  jump\t// in\ntag_54:\n    /* \"#utility.yul\":1425:1509   */\n  swap4\n  pop\n    /* \"#utility.yul\":1228:1519   */\n  pop\n    /* \"#utility.yul\":1579:1581   */\n  0x20\n    /* \"#utility.yul\":1568:1577   */\n  dup5\n    /* \"#utility.yul\":1564:1582   */\n  add\n    /* \"#utility.yul\":1558:1583   */\n  mload\n    /* \"#utility.yul\":1610:1628   */\n  0xffffffffffffffff\n    /* \"#utility.yul\":1602:1608   */\n  dup2\n    /* \"#utility.yul\":1599:1629   */\n  gt\n    /* \"#utility.yul\":1596:1713   */\n  iszero\n  tag_55\n  jumpi\n    /* \"#utility.yul\":1632:1711   */\n  tag_56\n  tag_53\n  jump\t// in\ntag_56:\n    /* \"#utility.yul\":1596:1713   */\ntag_55:\n    /* \"#utility.yul\":1737:1811   */\n  tag_57\n    /* \"#utility.yul\":1803:1810   */\n  dup7\n    /* \"#utility.yul\":1794:1800   */\n  dup3\n    /* \"#utility.yul\":1783:1792   */\n  dup8\n    /* \"#utility.yul\":1779:1801   */\n  add\n    /* \"#utility.yul\":1737:1811   */\n  tag_37\n  jump\t// in\ntag_57:\n    /* \"#utility.yul\":1727:1811   */\n  swap3\n  pop\n    /* \"#utility.yul\":1529:1821   */\n  pop\n    /* \"#utility.yul\":1860:1862   */\n  0x40\n    /* \"#utility.yul\":1886:1950   */\n  tag_58\n    /* \"#utility.yul\":1942:1949   */\n  dup7\n    /* \"#utility.yul\":1933:1939   */\n  dup3\n    /* \"#utility.yul\":1922:1931   */\n  dup8\n    /* \"#utility.yul\":1918:1940   */\n  add\n    /* \"#utility.yul\":1886:1950   */\n  tag_43\n  jump\t// in\ntag_58:\n    /* \"#utility.yul\":1876:1950   */\n  swap2\n  pop\n    /* \"#utility.yul\":1831:1960   */\n  pop\n    /* \"#utility.yul\":958:1967   */\n  swap3\n  pop\n  swap3\n  pop\n  swap3\n  jump\t// out\n    /* \"#utility.yul\":1973:2102   */\ntag_31:\n    /* \"#utility.yul\":2007:2013   */\n  0x00\n    /* \"#utility.yul\":2034:2054   */\n  tag_60\n  tag_61\n  jump\t// in\ntag_60:\n    /* \"#utility.yul\":2024:2054   */\n  swap1\n  pop\n    /* \"#utility.yul\":2063:2096   */\n  tag_62\n    /* \"#utility.yul\":2091:2095   */\n  dup3\n    /* \"#utility.yul\":2083:2089   */\n  dup3\n    /* \"#utility.yul\":2063:2096   */\n  tag_63\n  jump\t// in\ntag_62:\n    /* \"#utility.yul\":1973:2102   */\n  swap2\n  swap1\n  pop\n  jump\t// out\n    /* \"#utility.yul\":2108:2183   */\ntag_61:\n    /* \"#utility.yul\":2141:2147   */\n  0x00\n    /* \"#utility.yul\":2174:2176   */\n  0x40\n    /* \"#utility.yul\":2168:2177   */\n  mload\n    /* \"#utility.yul\":2158:2177   */\n  swap1\n  pop\n    /* \"#utility.yul\":2108:2183   */\n  swap1\n  jump\t// out\n    /* \"#utility.yul\":2189:2497   */\ntag_30:\n    /* \"#utility.yul\":2251:2255   */\n  0x00\n    /* \"#utility.yul\":2341:2359   */\n  0xffffffffffffffff\n    /* \"#utility.yul\":2333:2339   */\n  dup3\n    /* \"#utility.yul\":2330:2360   */\n  gt\n    /* \"#utility.yul\":2327:2383   */\n  iszero\n  tag_66\n  jumpi\n    /* \"#utility.yul\":2363:2381   */\n  tag_67\n  tag_68\n  jump\t// in\ntag_67:\n    /* \"#utility.yul\":2327:2383   */\ntag_66:\n    /* \"#utility.yul\":2401:2430   */\n  tag_69\n    /* \"#utility.yul\":2423:2429   */\n  dup3\n    /* \"#utility.yul\":2401:2430   */\n  tag_70\n  jump\t// in\ntag_69:\n    /* \"#utility.yul\":2393:2430   */\n  swap1\n  pop\n    /* \"#utility.yul\":2485:2489   */\n  0x20\n    /* \"#utility.yul\":2479:2483   */\n  dup2\n    /* \"#utility.yul\":2475:2490   */\n  add\n    /* \"#utility.yul\":2467:2490   */\n  swap1\n  pop\n    /* \"#utility.yul\":2189:2497   */\n  swap2\n  swap1\n  pop\n  jump\t// out\n    /* \"#utility.yul\":2503:3351   */\ntag_71:\n    /* \"#utility.yul\":2564:2569   */\n  0x00\n    /* \"#utility.yul\":2571:2575   */\n  dup1\n    /* \"#utility.yul\":2595:2601   */\n  dup3\n    /* \"#utility.yul\":2586:2601   */\n  swap2\n  pop\n    /* \"#utility.yul\":2619:2624   */\n  dup4\n    /* \"#utility.yul\":2610:2624   */\n  swap1\n  pop\n    /* \"#utility.yul\":2633:3345   */\ntag_73:\n    /* \"#utility.yul\":2654:2655   */\n  0x01\n    /* \"#utility.yul\":2644:2652   */\n  dup6\n    /* \"#utility.yul\":2641:2656   */\n  gt\n    /* \"#utility.yul\":2633:3345   */\n  iszero\n  tag_75\n  jumpi\n    /* \"#utility.yul\":2749:2753   */\n  dup1\n    /* \"#utility.yul\":2744:2747   */\n  dup7\n    /* \"#utility.yul\":2740:2754   */\n  div\n    /* \"#utility.yul\":2734:2738   */\n  dup2\n    /* \"#utility.yul\":2731:2755   */\n  gt\n    /* \"#utility.yul\":2728:2778   */\n  iszero\n  tag_76\n  jumpi\n    /* \"#utility.yul\":2758:2776   */\n  tag_77\n  tag_78\n  jump\t// in\ntag_77:\n    /* \"#utility.yul\":2728:2778   */\ntag_76:\n    /* \"#utility.yul\":2808:2809   */\n  0x01\n    /* \"#utility.yul\":2798:2806   */\n  dup6\n    /* \"#utility.yul\":2794:2810   */\n  and\n    /* \"#utility.yul\":2791:3242   */\n  iszero\n  tag_79\n  jumpi\n    /* \"#utility.yul\":3223:3227   */\n  dup1\n    /* \"#utility.yul\":3216:3221   */\n  dup3\n    /* \"#utility.yul\":3212:3228   */\n  mul\n    /* \"#utility.yul\":3203:3228   */\n  swap2\n  pop\n    /* \"#utility.yul\":2791:3242   */\ntag_79:\n    /* \"#utility.yul\":3273:3277   */\n  dup1\n    /* \"#utility.yul\":3267:3271   */\n  dup2\n    /* \"#utility.yul\":3263:3278   */\n  mul\n    /* \"#utility.yul\":3255:3278   */\n  swap1\n  pop\n    /* \"#utility.yul\":3303:3335   */\n  tag_80\n    /* \"#utility.yul\":3326:3334   */\n  dup6\n    /* \"#utility.yul\":3303:3335   */\n  tag_81\n  jump\t// in\ntag_80:\n    /* \"#utility.yul\":3291:3335   */\n  swap5\n  pop\n    /* \"#utility.yul\":2633:3345   */\n  jump(tag_73)\ntag_75:\n    /* \"#utility.yul\":2503:3351   */\n  swap5\n  pop\n  swap5\n  swap3\n  pop\n  pop\n  pop\n  jump\t// out\n    /* \"#utility.yul\":3357:3638   */\ntag_10:\n    /* \"#utility.yul\":3415:3420   */\n  0x00\n    /* \"#utility.yul\":3439:3462   */\n  tag_83\n    /* \"#utility.yul\":3457:3461   */\n  dup3\n    /* \"#utility.yul\":3439:3462   */\n  tag_84\n  jump\t// in\ntag_83:\n    /* \"#utility.yul\":3431:3462   */\n  swap2\n  pop\n    /* \"#utility.yul\":3483:3508   */\n  tag_85\n    /* \"#utility.yul\":3499:3507   */\n  dup4\n    /* \"#utility.yul\":3483:3508   */\n  tag_86\n  jump\t// in\ntag_85:\n    /* \"#utility.yul\":3471:3508   */\n  swap3\n  pop\n    /* \"#utility.yul\":3527:3631   */\n  tag_87\n    /* \"#utility.yul\":3564:3630   */\n  0xffffffffffffffffffffffffffffffffffffffffffffffffffffffffffffffff\n    /* \"#utility.yul\":3554:3562   */\n  dup5\n    /* \"#utility.yul\":3548:3552   */\n  dup5\n    /* \"#utility.yul\":3527:3631   */\n  tag_88\n  jump\t// in\ntag_87:\n    /* \"#utility.yul\":3518:3631   */\n  swap1\n  pop\n    /* \"#utility.yul\":3357:3638   */\n  swap3\n  swap2\n  pop\n  pop\n  jump\t// out\n    /* \"#utility.yul\":3644:4717   */\ntag_88:\n    /* \"#utility.yul\":3698:3703   */\n  0x00\n    /* \"#utility.yul\":3889:3897   */\n  dup3\n    /* \"#utility.yul\":3879:3919   */\n  tag_90\n  jumpi\n    /* \"#utility.yul\":3910:3911   */\n  0x01\n    /* \"#utility.yul\":3901:3911   */\n  swap1\n  pop\n    /* \"#utility.yul\":3912:3917   */\n  jump(tag_89)\n    /* \"#utility.yul\":3879:3919   */\ntag_90:\n    /* \"#utility.yul\":3938:3942   */\n  dup2\n    /* \"#utility.yul\":3928:3964   */\n  tag_91\n  jumpi\n    /* \"#utility.yul\":3955:3956   */\n  0x00\n    /* \"#utility.yul\":3946:3956   */\n  swap1\n  pop\n    /* \"#utility.yul\":3957:3962   */\n  jump(tag_89)\n    /* \"#utility.yul\":3928:3964   */\ntag_91:\n    /* \"#utility.yul\":4024:4028   */\n  dup2\n    /* \"#utility.yul\":4072:4073   */\n  0x01\n    /* \"#utility.yul\":4067:4094   */\n  dup2\n  eq\n  tag_93\n  jumpi\n    /* \"#utility.yul\":4108:4109   */\n  0x02\n    /* \"#utility.yul\":4103:4294   */\n  dup2\n  eq\n  tag_94\n  jumpi\n    /* \"#utility.yul\":4017:4294   */\n  jump(tag_92)\n    /* \"#utility.yul\":4067:4094   */\ntag_93:\n    /* \"#utility.yul\":4085:4086   */\n  0x01\n    /* \"#utility.yul\":4076:4086   */\n  swap2\n  pop\n    /* \"#utility.yul\":4087:4092   */\n  pop\n  jump(tag_89)\n    /* \"#utility.yul\":4103:4294   */\ntag_94:\n    /* \"#utility.yul\":4148:4151   */\n  0xff\n    /* \"#utility.yul\":4138:4146   */\n  dup5\n    /* \"#utility.yul\":4135:4152   */\n  gt\n    /* \"#utility.yul\":4132:4175   */\n  iszero\n  tag_95\n  jumpi\n    /* \"#utility.yul\":4155:4173   */\n  tag_96\n  tag_78\n  jump\t// in\ntag_96:\n    /* \"#utility.yul\":4132:4175   */\ntag_95:\n    /* \"#utility.yul\":4204:4212   */\n  dup4\n    /* \"#utility.yul\":4201:4202   */\n  0x02\n    /* \"#utility.yul\":4197:4213   */\n  exp\n    /* \"#utility.yul\":4188:4213   */\n  swap2\n  pop\n    /* \"#utility.yul\":4239:4242   */\n  dup5\n    /* \"#utility.yul\":4232:4237   */\n  dup3\n    /* \"#utility.yul\":4229:4243   */\n  gt\n    /* \"#utility.yul\":4226:4266   */\n  iszero\n  tag_97\n  jumpi\n    /* \"#utility.yul\":4246:4264   */\n  tag_98\n  tag_78\n  jump\t// in\ntag_98:\n    /* \"#utility.yul\":4226:4266   */\ntag_97:\n    /* \"#utility.yul\":4279:4284   */\n  pop\n  jump(tag_89)\n    /* \"#utility.yul\":4017:4294   */\ntag_92:\n  pop\n    /* \"#utility.yul\":4403:4405   */\n  0x20\n    /* \"#utility.yul\":4393:4401   */\n  dup4\n    /* \"#utility.yul\":4390:4406   */\n  lt\n    /* \"#utility.yul\":4384:4387   */\n  0x0133\n    /* \"#utility.yul\":4378:4382   */\n  dup4\n    /* \"#utility.yul\":4375:4388   */\n  lt\n    /* \"#utility.yul\":4371:4407   */\n  and\n    /* \"#utility.yul\":4353:4355   */\n  0x4e\n    /* \"#utility.yul\":4343:4351   */\n  dup5\n    /* \"#utility.yul\":4340:4356   */\n  lt\n    /* \"#utility.yul\":4335:4337   */\n  0x0b\n    /* \"#utility.yul\":4329:4333   */\n  dup5\n    /* \"#utility.yul\":4326:4338   */\n  lt\n    /* \"#utility.yul\":4322:4357   */\n  and\n    /* \"#utility.yul\":4306:4417   */\n  or\n    /* \"#utility.yul\":4303:4549   */\n  iszero\n  tag_99\n  jumpi\n    /* \"#utility.yul\":4459:4467   */\n  dup3\n    /* \"#utility.yul\":4453:4457   */\n  dup3\n    /* \"#utility.yul\":4449:4468   */\n  exp\n    /* \"#utility.yul\":4440:4468   */\n  swap1\n  pop\n    /* \"#utility.yul\":4494:4497   */\n  dup4\n    /* \"#utility.yul\":4487:4492   */\n  dup2\n    /* \"#utility.yul\":4484:4498   */\n  gt\n    /* \"#utility.yul\":4481:4521   */\n  iszero\n  tag_100\n  jumpi\n    /* \"#utility.yul\":4501:4519   */\n  tag_101\n  tag_78\n  jump\t// in\ntag_101:\n    /* \"#utility.yul\":4481:4521   */\ntag_100:\n    /* \"#utility.yul\":4534:4539   */\n  jump(tag_89)\n    /* \"#utility.yul\":4303:4549   */\ntag_99:\n    /* \"#utility.yul\":4574:4616   */\n  tag_102\n    /* \"#utility.yul\":4612:4615   */\n  dup5\n    /* \"#utility.yul\":4602:4610   */\n  dup5\n    /* \"#utility.yul\":4596:4600   */\n  dup5\n    /* \"#utility.yul\":4593:4594   */\n  0x01\n    /* \"#utility.yul\":4574:4616   */\n  tag_71\n  jump\t// in\ntag_102:\n    /* \"#utility.yul\":4559:4616   */\n  swap3\n  pop\n  swap1\n  pop\n    /* \"#utility.yul\":4648:4652   */\n  dup2\n    /* \"#utility.yul\":4643:4646   */\n  dup5\n    /* \"#utility.yul\":4639:4653   */\n  div\n    /* \"#utility.yul\":4632:4637   */\n  dup2\n    /* \"#utility.yul\":4629:4654   */\n  gt\n    /* \"#utility.yul\":4626:4677   */\n  iszero\n  tag_103\n  jumpi\n    /* \"#utility.yul\":4657:4675   */\n  tag_104\n  tag_78\n  jump\t// in\ntag_104:\n    /* \"#utility.yul\":4626:4677   */\ntag_103:\n    /* \"#utility.yul\":4706:4710   */\n  dup2\n    /* \"#utility.yul\":4699:4704   */\n  dup2\n    /* \"#utility.yul\":4695:4711   */\n  mul\n    /* \"#utility.yul\":4686:4711   */\n  swap1\n  pop\n    /* \"#utility.yul\":3644:4717   */\ntag_89:\n  swap4\n  swap3\n  pop\n  pop\n  pop\n  jump\t// out\n    /* \"#utility.yul\":4723:5071   */\ntag_12:\n    /* \"#utility.yul\":4763:4770   */\n  0x00\n    /* \"#utility.yul\":4786:4806   */\n  tag_106\n    /* \"#utility.yul\":4804:4805   */\n  dup3\n    /* \"#utility.yul\":4786:4806   */\n  tag_84\n  jump\t// in\ntag_106:\n    /* \"#utility.yul\":4781:4806   */\n  swap2\n  pop\n    /* \"#utility.yul\":4820:4840   */\n  tag_107\n    /* \"#utility.yul\":4838:4839   */\n  dup4\n    /* \"#utility.yul\":4820:4840   */\n  tag_84\n  jump\t// in\ntag_107:\n    /* \"#utility.yul\":4815:4840   */\n  swap3\n  pop\n    /* \"#utility.yul\":5008:5009   */\n  dup2\n    /* \"#utility.yul\":4940:5006   */\n  0xffffffffffffffffffffffffffffffffffffffffffffffffffffffffffffffff\n    /* \"#utility.yul\":4936:5010   */\n  div\n    /* \"#utility.yul\":4933:4934   */\n  dup4\n    /* \"#utility.yul\":4930:5011   */\n  gt\n    /* \"#utility.yul\":4925:4926   */\n  dup3\n    /* \"#utility.yul\":4918:4927   */\n  iszero\n    /* \"#utility.yul\":4911:4928   */\n  iszero\n    /* \"#utility.yul\":4907:5012   */\n  and\n    /* \"#utility.yul\":4904:5035   */\n  iszero\n  tag_108\n  jumpi\n    /* \"#utility.yul\":5015:5033   */\n  tag_109\n  tag_78\n  jump\t// in\ntag_109:\n    /* \"#utility.yul\":4904:5035   */\ntag_108:\n    /* \"#utility.yul\":5063:5064   */\n  dup3\n    /* \"#utility.yul\":5060:5061   */\n  dup3\n    /* \"#utility.yul\":5056:5065   */\n  mul\n    /* \"#utility.yul\":5045:5065   */\n  swap1\n  pop\n    /* \"#utility.yul\":4723:5071   */\n  swap3\n  swap2\n  pop\n  pop\n  jump\t// out\n    /* \"#utility.yul\":5077:5154   */\ntag_84:\n    /* \"#utility.yul\":5114:5121   */\n  0x00\n    /* \"#utility.yul\":5143:5148   */\n  dup2\n    /* \"#utility.yul\":5132:5148   */\n  swap1\n  pop\n    /* \"#utility.yul\":5077:5154   */\n  swap2\n  swap1\n  pop\n  jump\t// out\n    /* \"#utility.yul\":5160:5246   */\ntag_86:\n    /* \"#utility.yul\":5195:5202   */\n  0x00\n    /* \"#utility.yul\":5235:5239   */\n  0xff\n    /* \"#utility.yul\":5228:5233   */\n  dup3\n    /* \"#utility.yul\":5224:5240   */\n  and\n    /* \"#utility.yul\":5213:5240   */\n  swap1\n  pop\n    /* \"#utility.yul\":5160:5246   */\n  swap2\n  swap1\n  pop\n  jump\t// out\n    /* \"#utility.yul\":5252:5559   */\ntag_36:\n    /* \"#utility.yul\":5320:5321   */\n  0x00\n    /* \"#utility.yul\":5330:5443   */\ntag_113:\n    /* \"#utility.yul\":5344:5350   */\n  dup4\n    /* \"#utility.yul\":5341:5342   */\n  dup2\n    /* \"#utility.yul\":5338:5351   */\n  lt\n    /* \"#utility.yul\":5330:5443   */\n  iszero\n  tag_115\n  jumpi\n    /* \"#utility.yul\":5429:5430   */\n  dup1\n    /* \"#utility.yul\":5424:5427   */\n  dup3\n    /* \"#utility.yul\":5420:5431   */\n  add\n    /* \"#utility.yul\":5414:5432   */\n  mload\n    /* \"#utility.yul\":5410:5411   */\n  dup2\n    /* \"#utility.yul\":5405:5408   */\n  dup5\n    /* \"#utility.yul\":5401:5412   */\n  add\n    /* \"#utility.yul\":5394:5433   */\n  mstore\n    /* \"#utility.yul\":5366:5368   */\n  0x20\n    /* \"#utility.yul\":5363:5364   */\n  dup2\n    /* \"#utility.yul\":5359:5369   */\n  add\n    /* \"#utility.yul\":5354:5369   */\n  swap1\n  pop\n    /* \"#utility.yul\":5330:5443   */\n  jump(tag_113)\ntag_115:\n    /* \"#utility.yul\":5461:5467   */\n  dup4\n    /* \"#utility.yul\":5458:5459   */\n  dup2\n    /* \"#utility.yul\":5455:5468   */\n  gt\n    /* \"#utility.yul\":5452:5553   */\n  iszero\n  tag_116\n  jumpi\n    /* \"#utility.yul\":5541:5542   */\n  0x00\n    /* \"#utility.yul\":5532:5538   */\n  dup5\n    /* \"#utility.yul\":5527:5530   */\n  dup5\n    /* \"#utility.yul\":5523:5539   */\n  add\n    /* \"#utility.yul\":5516:5543   */\n  mstore\n    /* \"#utility.yul\":5452:5553   */\ntag_116:\n    /* \"#utility.yul\":5301:5559   */\n  pop\n    /* \"#utility.yul\":5252:5559   */\n  pop\n  pop\n  pop\n  jump\t// out\n    /* \"#utility.yul\":5565:5885   */\ntag_15:\n    /* \"#utility.yul\":5609:5615   */\n  0x00\n    /* \"#utility.yul\":5646:5647   */\n  0x02\n    /* \"#utility.yul\":5640:5644   */\n  dup3\n    /* \"#utility.yul\":5636:5648   */\n  div\n    /* \"#utility.yul\":5626:5648   */\n  swap1\n  pop\n    /* \"#utility.yul\":5693:5694   */\n  0x01\n    /* \"#utility.yul\":5687:5691   */\n  dup3\n    /* \"#utility.yul\":5683:5695   */\n  and\n    /* \"#utility.yul\":5714:5732   */\n  dup1\n    /* \"#utility.yul\":5704:5785   */\n  tag_118\n  jumpi\n    /* \"#utility.yul\":5770:5774   */\n  0x7f\n    /* \"#utility.yul\":5762:5768   */\n  dup3\n    /* \"#utility.yul\":5758:5775   */\n  and\n    /* \"#utility.yul\":5748:5775   */\n  swap2\n  pop\n    /* \"#utility.yul\":5704:5785   */\ntag_118:\n    /* \"#utility.yul\":5832:5834   */\n  0x20\n    /* \"#utility.yul\":5824:5830   */\n  dup3\n    /* \"#utility.yul\":5821:5835   */\n  lt\n    /* \"#utility.yul\":5801:5819   */\n  dup2\n    /* \"#utility.yul\":5798:5836   */\n  eq\n    /* \"#utility.yul\":5795:5879   */\n  iszero\n  tag_119\n  jumpi\n    /* \"#utility.yul\":5851:5869   */\n  tag_120\n  tag_121\n  jump\t// in\ntag_120:\n    /* \"#utility.yul\":5795:5879   */\ntag_119:\n    /* \"#utility.yul\":5616:5885   */\n  pop\n    /* \"#utility.yul\":5565:5885   */\n  swap2\n  swap1\n  pop\n  jump\t// out\n    /* \"#utility.yul\":5891:6172   */\ntag_63:\n    /* \"#utility.yul\":5974:6001   */\n  tag_123\n    /* \"#utility.yul\":5996:6000   */\n  dup3\n    /* \"#utility.yul\":5974:6001   */\n  tag_70\n  jump\t// in\ntag_123:\n    /* \"#utility.yul\":5966:5972   */\n  dup2\n    /* \"#utility.yul\":5962:6002   */\n  add\n    /* \"#utility.yul\":6104:6110   */\n  dup2\n    /* \"#utility.yul\":6092:6102   */\n  dup2\n    /* \"#utility.yul\":6089:6111   */\n  lt\n    /* \"#utility.yul\":6068:6086   */\n  0xffffffffffffffff\n    /* \"#utility.yul\":6056:6066   */\n  dup3\n    /* \"#utility.yul\":6053:6087   */\n  gt\n    /* \"#utility.yul\":6050:6112   */\n  or\n    /* \"#utility.yul\":6047:6135   */\n  iszero\n  tag_124\n  jumpi\n    /* \"#utility.yul\":6115:6133   */\n  tag_125\n  tag_68\n  jump\t// in\ntag_125:\n    /* \"#utility.yul\":6047:6135   */\ntag_124:\n    /* \"#utility.yul\":6155:6165   */\n  dup1\n    /* \"#utility.yul\":6151:6153   */\n  0x40\n    /* \"#utility.yul\":6144:6166   */\n  mstore\n    /* \"#utility.yul\":5934:6172   */\n  pop\n    /* \"#utility.yul\":5891:6172   */\n  pop\n  pop\n  jump\t// out\n    /* \"#utility.yul\":6178:6358   */\ntag_78:\n    /* \"#utility.yul\":6226:6303   */\n  0x4e487b7100000000000000000000000000000000000000000000000000000000\n    /* \"#utility.yul\":6223:6224   */\n  0x00\n    /* \"#utility.yul\":6216:6304   */\n  mstore\n    /* \"#utility.yul\":6323:6327   */\n  0x11\n    /* \"#utility.yul\":6320:6321   */\n  0x04\n    /* \"#utility.yul\":6313:6328   */\n  mstore\n    /* \"#utility.yul\":6347:6351   */\n  0x24\n    /* \"#utility.yul\":6344:6345   */\n  0x00\n    /* \"#utility.yul\":6337:6352   */\n  revert\n    /* \"#utility.yul\":6364:6544   */\ntag_121:\n    /* \"#utility.yul\":6412:6489   */\n  0x4e487b7100000000000000000000000000000000000000000000000000000000\n    /* \"#utility.yul\":6409:6410   */\n  0x00\n    /* \"#utility.yul\":6402:6490   */\n  mstore\n    /* \"#utility.yul\":6509:6513   */\n  0x22\n    /* \"#utility.yul\":6506:6507   */\n  0x04\n    /* \"#utility.yul\":6499:6514   */\n  mstore\n    /* \"#utility.yul\":6533:6537   */\n  0x24\n    /* \"#utility.yul\":6530:6531   */\n  0x00\n    /* \"#utility.yul\":6523:6538   */\n  revert\n    /* \"#utility.yul\":6550:6730   */\ntag_68:\n    /* \"#utility.yul\":6598:6675   */\n  0x4e487b7100000000000000000000000000000000000000000000000000000000\n    /* \"#utility.yul\":6595:6596   */\n  0x00\n    /* \"#utility.yul\":6588:6676   */\n  mstore\n    /* \"#utility.yul\":6695:6699   */\n  0x41\n    /* \"#utility.yul\":6692:6693   */\n  0x04\n    /* \"#utility.yul\":6685:6700   */\n  mstore\n    /* \"#utility.yul\":6719:6723   */\n  0x24\n    /* \"#utility.yul\":6716:6717   */\n  0x00\n    /* \"#utility.yul\":6709:6724   */\n  revert\n    /* \"#utility.yul\":6736:6853   */\ntag_41:\n    /* \"#utility.yul\":6845:6846   */\n  0x00\n    /* \"#utility.yul\":6842:6843   */\n  dup1\n    /* \"#utility.yul\":6835:6847   */\n  revert\n    /* \"#utility.yul\":6859:6976   */\ntag_34:\n    /* \"#utility.yul\":6968:6969   */\n  0x00\n    /* \"#utility.yul\":6965:6966   */\n  dup1\n    /* \"#utility.yul\":6958:6970   */\n  revert\n    /* \"#utility.yul\":6982:7099   */\ntag_53:\n    /* \"#utility.yul\":7091:7092   */\n  0x00\n    /* \"#utility.yul\":7088:7089   */\n  dup1\n    /* \"#utility.yul\":7081:7093   */\n  revert\n    /* \"#utility.yul\":7105:7222   */\ntag_50:\n    /* \"#utility.yul\":7214:7215   */\n  0x00\n    /* \"#utility.yul\":7211:7212   */\n  dup1\n    /* \"#utility.yul\":7204:7216   */\n  revert\n    /* \"#utility.yul\":7228:7330   */\ntag_70:\n    /* \"#utility.yul\":7269:7275   */\n  0x00\n    /* \"#utility.yul\":7320:7322   */\n  0x1f\n    /* \"#utility.yul\":7316:7323   */\n  not\n    /* \"#utility.yul\":7311:7313   */\n  0x1f\n    /* \"#utility.yul\":7304:7309   */\n  dup4\n    /* \"#utility.yul\":7300:7314   */\n  add\n    /* \"#utility.yul\":7296:7324   */\n  and\n    /* \"#utility.yul\":7286:7324   */\n  swap1\n  pop\n    /* \"#utility.yul\":7228:7330   */\n  swap2\n  swap1\n  pop\n  jump\t// out\n    /* \"#utility.yul\":7336:7438   */\ntag_81:\n    /* \"#utility.yul\":7378:7386   */\n  0x00\n    /* \"#utility.yul\":7425:7430   */\n  dup2\n    /* \"#utility.yul\":7422:7423   */\n  0x01\n    /* \"#utility.yul\":7418:7431   */\n  shr\n    /* \"#utility.yul\":7397:7431   */\n  swap1\n  pop\n    /* \"#utility.yul\":7336:7438   */\n  swap2\n  swap1\n  pop\n  jump\t// out\n    /* \"#utility.yul\":7444:7566   */\ntag_46:\n    /* \"#utility.yul\":7517:7541   */\n  tag_136\n    /* \"#utility.yul\":7535:7540   */\n  dup2\n    /* \"#utility.yul\":7517:7541   */\n  tag_84\n  jump\t// in\ntag_136:\n    /* \"#utility.yul\":7510:7515   */\n  dup2\n    /* \"#utility.yul\":7507:7542   */\n  eq\n    /* \"#utility.yul\":7497:7560   */\n  tag_137\n  jumpi\n    /* \"#utility.yul\":7556:7557   */\n  0x00\n    /* \"#utility.yul\":7553:7554   */\n  dup1\n    /* \"#utility.yul\":7546:7558   */\n  revert\n    /* \"#utility.yul\":7497:7560   */\ntag_137:\n    /* \"#utility.yul\":7444:7566   */\n  pop\n  jump\t// out\n    /* \"contracts/Topbot.sol\":95:2597  contract Topbot is IBEP20 {\r... */\ntag_13:\n  dataSize(sub_0)\n  dup1\n  dataOffset(sub_0)\n  0x00\n  codecopy\n  0x00\n  return\nstop\n\nsub_0: assembly {\n        /* \"contracts/Topbot.sol\":95:2597  contract Topbot is IBEP20 {\r... */\n      mstore(0x40, 0x80)\n      callvalue\n      dup1\n      iszero\n      tag_1\n      jumpi\n      0x00\n      dup1\n      revert\n    tag_1:\n      pop\n      jumpi(tag_2, lt(calldatasize, 0x04))\n      shr(0xe0, calldataload(0x00))\n      dup1\n      0x893d20e8\n      gt\n      tag_15\n      jumpi\n      dup1\n      0x893d20e8\n      eq\n      tag_9\n      jumpi\n      dup1\n      0x8da5cb5b\n      eq\n      tag_10\n      jumpi\n      dup1\n      0x95d89b41\n      eq\n      tag_11\n      jumpi\n      dup1\n      0xa9059cbb\n      eq\n      tag_12\n      jumpi\n      dup1\n      0xdd62ed3e\n      eq\n      tag_13\n      jumpi\n      dup1\n      0xf2fde38b\n      eq\n      tag_14\n      jumpi\n      jump(tag_2)\n    tag_15:\n      dup1\n      0x06fdde03\n      eq\n      tag_3\n      jumpi\n      dup1\n      0x095ea7b3\n      eq\n      tag_4\n      jumpi\n      dup1\n      0x18160ddd\n      eq\n      tag_5\n      jumpi\n      dup1\n      0x23b872dd\n      eq\n      tag_6\n      jumpi\n      dup1\n      0x313ce567\n      eq\n      tag_7\n      jumpi\n      dup1\n      0x70a08231\n      eq\n      tag_8\n      jumpi\n    tag_2:\n      0x00\n      dup1\n      revert\n        /* \"contracts/Topbot.sol\":157:184  string override public name */\n    tag_3:\n      tag_16\n      tag_17\n      jump\t// in\n    tag_16:\n      mload(0x40)\n      tag_18\n      swap2\n      swap1\n      tag_19\n      jump\t// in\n    tag_18:\n      mload(0x40)\n      dup1\n      swap2\n      sub\n      swap1\n      return\n        /* \"contracts/Topbot.sol\":1077:1427  function approve(address _spender, uint256 _amount) public override returns (bool) {\r... */\n    tag_4:\n      tag_20\n      0x04\n      dup1\n      calldatasize\n      sub\n      dup2\n      add\n      swap1\n      tag_21\n      swap2\n      swap1\n      tag_22\n      jump\t// in\n    tag_21:\n      tag_23\n      jump\t// in\n    tag_20:\n      mload(0x40)\n      tag_24\n      swap2\n      swap1\n      tag_25\n      jump\t// in\n    tag_24:\n      mload(0x40)\n      dup1\n      swap2\n      sub\n      swap1\n      return\n        /* \"contracts/Topbot.sol\":227:262  uint256 override public totalSupply */\n    tag_5:\n      tag_26\n      tag_27\n      jump\t// in\n    tag_26:\n      mload(0x40)\n      tag_28\n      swap2\n      swap1\n      tag_29\n      jump\t// in\n    tag_28:\n      mload(0x40)\n      dup1\n      swap2\n      sub\n      swap1\n      return\n        /* \"contracts/Topbot.sol\":1833:2352  function transferFrom(address _owner, address _spender, uint256 _amount) public override returns (bool) {\r... */\n    tag_6:\n      tag_30\n      0x04\n      dup1\n      calldatasize\n      sub\n      dup2\n      add\n      swap1\n      tag_31\n      swap2\n      swap1\n      tag_32\n      jump\t// in\n    tag_31:\n      tag_33\n      jump\t// in\n    tag_30:\n      mload(0x40)\n      tag_34\n      swap2\n      swap1\n      tag_25\n      jump\t// in\n    tag_34:\n      mload(0x40)\n      dup1\n      swap2\n      sub\n      swap1\n      return\n        /* \"contracts/Topbot.sol\":269:313  uint8 constant override public decimals = 18 */\n    tag_7:\n      tag_35\n      tag_36\n      jump\t// in\n    tag_35:\n      mload(0x40)\n      tag_37\n      swap2\n      swap1\n      tag_38\n      jump\t// in\n    tag_37:\n      mload(0x40)\n      dup1\n      swap2\n      sub\n      swap1\n      return\n        /* \"contracts/Topbot.sol\":853:969  function balanceOf(address _owner) public view override returns (uint256) {\r... */\n    tag_8:\n      tag_39\n      0x04\n      dup1\n      calldatasize\n      sub\n      dup2\n      add\n      swap1\n      tag_40\n      swap2\n      swap1\n      tag_41\n      jump\t// in\n    tag_40:\n      tag_42\n      jump\t// in\n    tag_39:\n      mload(0x40)\n      tag_43\n      swap2\n      swap1\n      tag_29\n      jump\t// in\n    tag_43:\n      mload(0x40)\n      dup1\n      swap2\n      sub\n      swap1\n      return\n        /* \"contracts/Topbot.sol\":979:1071  function getOwner() external view override returns (address) {\r... */\n    tag_9:\n      tag_44\n      tag_45\n      jump\t// in\n    tag_44:\n      mload(0x40)\n      tag_46\n      swap2\n      swap1\n      tag_47\n      jump\t// in\n    tag_46:\n      mload(0x40)\n      dup1\n      swap2\n      sub\n      swap1\n      return\n        /* \"contracts/Topbot.sol\":130:150  address public owner */\n    tag_10:\n      tag_48\n      tag_49\n      jump\t// in\n    tag_48:\n      mload(0x40)\n      tag_50\n      swap2\n      swap1\n      tag_47\n      jump\t// in\n    tag_50:\n      mload(0x40)\n      dup1\n      swap2\n      sub\n      swap1\n      return\n        /* \"contracts/Topbot.sol\":191:220  string override public symbol */\n    tag_11:\n      tag_51\n      tag_52\n      jump\t// in\n    tag_51:\n      mload(0x40)\n      tag_53\n      swap2\n      swap1\n      tag_19\n      jump\t// in\n    tag_53:\n      mload(0x40)\n      dup1\n      swap2\n      sub\n      swap1\n      return\n        /* \"contracts/Topbot.sol\":1435:1825  function transfer(address _to, uint256 _amount) public override returns (bool) {\r... */\n    tag_12:\n      tag_54\n      0x04\n      dup1\n      calldatasize\n      sub\n      dup2\n      add\n      swap1\n      tag_55\n      swap2\n      swap1\n      tag_22\n      jump\t// in\n    tag_55:\n      tag_56\n      jump\t// in\n    tag_54:\n      mload(0x40)\n      tag_57\n      swap2\n      swap1\n      tag_25\n      jump\t// in\n    tag_57:\n      mload(0x40)\n      dup1\n      swap2\n      sub\n      swap1\n      return\n        /* \"contracts/Topbot.sol\":703:845  function allowance(address _owner, address spender) external view override returns (uint256){\r... */\n    tag_13:\n      tag_58\n      0x04\n      dup1\n      calldatasize\n      sub\n      dup2\n      add\n      swap1\n      tag_59\n      swap2\n      swap1\n      tag_60\n      jump\t// in\n    tag_59:\n      tag_61\n      jump\t// in\n    tag_58:\n      mload(0x40)\n      tag_62\n      swap2\n      swap1\n      tag_29\n      jump\t// in\n    tag_62:\n      mload(0x40)\n      dup1\n      swap2\n      sub\n      swap1\n      return\n        /* \"contracts/Topbot.sol\":2360:2502  function transferOwnership(address _to) external onlyOwner {\r... */\n    tag_14:\n      tag_63\n      0x04\n      dup1\n      calldatasize\n      sub\n      dup2\n      add\n      swap1\n      tag_64\n      swap2\n      swap1\n      tag_41\n      jump\t// in\n    tag_64:\n      tag_65\n      jump\t// in\n    tag_63:\n      stop\n        /* \"contracts/Topbot.sol\":157:184  string override public name */\n    tag_17:\n      0x01\n      dup1\n      sload\n      tag_66\n      swap1\n      tag_67\n      jump\t// in\n    tag_66:\n      dup1\n      0x1f\n      add\n      0x20\n      dup1\n      swap2\n      div\n      mul\n      0x20\n      add\n      mload(0x40)\n      swap1\n      dup2\n      add\n      0x40\n      mstore\n      dup1\n      swap3\n      swap2\n      swap1\n      dup2\n      dup2\n      mstore\n      0x20\n      add\n      dup3\n      dup1\n      sload\n      tag_68\n      swap1\n      tag_67\n      jump\t// in\n    tag_68:\n      dup1\n      iszero\n      tag_69\n      jumpi\n      dup1\n      0x1f\n      lt\n      tag_70\n      jumpi\n      0x0100\n      dup1\n      dup4\n      sload\n      div\n      mul\n      dup4\n      mstore\n      swap2\n      0x20\n      add\n      swap2\n      jump(tag_69)\n    tag_70:\n      dup3\n      add\n      swap2\n      swap1\n      0x00\n      mstore\n      keccak256(0x00, 0x20)\n      swap1\n    tag_71:\n      dup2\n      sload\n      dup2\n      mstore\n      swap1\n      0x01\n      add\n      swap1\n      0x20\n      add\n      dup1\n      dup4\n      gt\n      tag_71\n      jumpi\n      dup3\n      swap1\n      sub\n      0x1f\n      and\n      dup3\n      add\n      swap2\n    tag_69:\n      pop\n      pop\n      pop\n      pop\n      pop\n      dup2\n      jump\t// out\n        /* \"contracts/Topbot.sol\":1077:1427  function approve(address _spender, uint256 _amount) public override returns (bool) {\r... */\n    tag_23:\n        /* \"contracts/Topbot.sol\":1154:1158  bool */\n      0x00\n        /* \"contracts/Topbot.sol\":1199:1200  0 */\n      dup1\n        /* \"contracts/Topbot.sol\":1179:1201  _spender != address(0) */\n      0xffffffffffffffffffffffffffffffffffffffff\n      and\n        /* \"contracts/Topbot.sol\":1179:1187  _spender */\n      dup4\n        /* \"contracts/Topbot.sol\":1179:1201  _spender != address(0) */\n      0xffffffffffffffffffffffffffffffffffffffff\n      and\n      eq\n      iszero\n        /* \"contracts/Topbot.sol\":1171:1218  require(_spender != address(0), \"zero address\") */\n      tag_73\n      jumpi\n      mload(0x40)\n      0x08c379a000000000000000000000000000000000000000000000000000000000\n      dup2\n      mstore\n      0x04\n      add\n      tag_74\n      swap1\n      tag_75\n      jump\t// in\n    tag_74:\n      mload(0x40)\n      dup1\n      swap2\n      sub\n      swap1\n      revert\n    tag_73:\n        /* \"contracts/Topbot.sol\":1261:1268  _amount */\n      dup2\n        /* \"contracts/Topbot.sol\":1237:1245  balances */\n      0x04\n        /* \"contracts/Topbot.sol\":1237:1257  balances[msg.sender] */\n      0x00\n        /* \"contracts/Topbot.sol\":1246:1256  msg.sender */\n      caller\n        /* \"contracts/Topbot.sol\":1237:1257  balances[msg.sender] */\n      0xffffffffffffffffffffffffffffffffffffffff\n      and\n      0xffffffffffffffffffffffffffffffffffffffff\n      and\n      dup2\n      mstore\n      0x20\n      add\n      swap1\n      dup2\n      mstore\n      0x20\n      add\n      0x00\n      keccak256\n      sload\n        /* \"contracts/Topbot.sol\":1237:1268  balances[msg.sender] >= _amount */\n      lt\n      iszero\n        /* \"contracts/Topbot.sol\":1229:1284  require(balances[msg.sender] >= _amount, \"low balance\") */\n      tag_76\n      jumpi\n      mload(0x40)\n      0x08c379a000000000000000000000000000000000000000000000000000000000\n      dup2\n      mstore\n      0x04\n      add\n      tag_77\n      swap1\n      tag_78\n      jump\t// in\n    tag_77:\n      mload(0x40)\n      dup1\n      swap2\n      sub\n      swap1\n      revert\n    tag_76:\n        /* \"contracts/Topbot.sol\":1335:1342  _amount */\n      dup2\n        /* \"contracts/Topbot.sol\":1303:1310  allowed */\n      0x05\n        /* \"contracts/Topbot.sol\":1303:1322  allowed[msg.sender] */\n      0x00\n        /* \"contracts/Topbot.sol\":1311:1321  msg.sender */\n      caller\n        /* \"contracts/Topbot.sol\":1303:1322  allowed[msg.sender] */\n      0xffffffffffffffffffffffffffffffffffffffff\n      and\n      0xffffffffffffffffffffffffffffffffffffffff\n      and\n      dup2\n      mstore\n      0x20\n      add\n      swap1\n      dup2\n      mstore\n      0x20\n      add\n      0x00\n      keccak256\n        /* \"contracts/Topbot.sol\":1303:1332  allowed[msg.sender][_spender] */\n      0x00\n        /* \"contracts/Topbot.sol\":1323:1331  _spender */\n      dup6\n        /* \"contracts/Topbot.sol\":1303:1332  allowed[msg.sender][_spender] */\n      0xffffffffffffffffffffffffffffffffffffffff\n      and\n      0xffffffffffffffffffffffffffffffffffffffff\n      and\n      dup2\n      mstore\n      0x20\n      add\n      swap1\n      dup2\n      mstore\n      0x20\n      add\n      0x00\n      keccak256\n        /* \"contracts/Topbot.sol\":1303:1342  allowed[msg.sender][_spender] = _amount */\n      dup2\n      swap1\n      sstore\n      pop\n        /* \"contracts/Topbot.sol\":1379:1387  _spender */\n      dup3\n        /* \"contracts/Topbot.sol\":1358:1397  Approval(msg.sender, _spender, _amount) */\n      0xffffffffffffffffffffffffffffffffffffffff\n      and\n        /* \"contracts/Topbot.sol\":1367:1377  msg.sender */\n      caller\n        /* \"contracts/Topbot.sol\":1358:1397  Approval(msg.sender, _spender, _amount) */\n      0xffffffffffffffffffffffffffffffffffffffff\n      and\n      0x8c5be1e5ebec7d5bd14f71427d1e84f3dd0314c0f7b2291e5b200ac8c7c3b925\n        /* \"contracts/Topbot.sol\":1389:1396  _amount */\n      dup5\n        /* \"contracts/Topbot.sol\":1358:1397  Approval(msg.sender, _spender, _amount) */\n      mload(0x40)\n      tag_79\n      swap2\n      swap1\n      tag_29\n      jump\t// in\n    tag_79:\n      mload(0x40)\n      dup1\n      swap2\n      sub\n      swap1\n      log3\n        /* \"contracts/Topbot.sol\":1415:1419  true */\n      0x01\n        /* \"contracts/Topbot.sol\":1408:1419  return true */\n      swap1\n      pop\n        /* \"contracts/Topbot.sol\":1077:1427  function approve(address _spender, uint256 _amount) public override returns (bool) {\r... */\n      swap3\n      swap2\n      pop\n      pop\n      jump\t// out\n        /* \"contracts/Topbot.sol\":227:262  uint256 override public totalSupply */\n    tag_27:\n      sload(0x03)\n      dup2\n      jump\t// out\n        /* \"contracts/Topbot.sol\":1833:2352  function transferFrom(address _owner, address _spender, uint256 _amount) public override returns (bool) {\r... */\n    tag_33:\n        /* \"contracts/Topbot.sol\":1931:1935  bool */\n      0x00\n        /* \"contracts/Topbot.sol\":1976:1977  0 */\n      dup1\n        /* \"contracts/Topbot.sol\":1956:1978  _spender != address(0) */\n      0xffffffffffffffffffffffffffffffffffffffff\n      and\n        /* \"contracts/Topbot.sol\":1956:1964  _spender */\n      dup4\n        /* \"contracts/Topbot.sol\":1956:1978  _spender != address(0) */\n      0xffffffffffffffffffffffffffffffffffffffff\n      and\n      eq\n      iszero\n        /* \"contracts/Topbot.sol\":1948:1995  require(_spender != address(0), \"zero address\") */\n      tag_81\n      jumpi\n      mload(0x40)\n      0x08c379a000000000000000000000000000000000000000000000000000000000\n      dup2\n      mstore\n      0x04\n      add\n      tag_82\n      swap1\n      tag_75\n      jump\t// in\n    tag_82:\n      mload(0x40)\n      dup1\n      swap2\n      sub\n      swap1\n      revert\n    tag_81:\n        /* \"contracts/Topbot.sol\":2043:2044  0 */\n      0x00\n        /* \"contracts/Topbot.sol\":2014:2021  allowed */\n      0x05\n        /* \"contracts/Topbot.sol\":2014:2029  allowed[_owner] */\n      0x00\n        /* \"contracts/Topbot.sol\":2022:2028  _owner */\n      dup7\n        /* \"contracts/Topbot.sol\":2014:2029  allowed[_owner] */\n      0xffffffffffffffffffffffffffffffffffffffff\n      and\n      0xffffffffffffffffffffffffffffffffffffffff\n      and\n      dup2\n      mstore\n      0x20\n      add\n      swap1\n      dup2\n      mstore\n      0x20\n      add\n      0x00\n      keccak256\n        /* \"contracts/Topbot.sol\":2014:2039  allowed[_owner][_spender] */\n      0x00\n        /* \"contracts/Topbot.sol\":2030:2038  _spender */\n      dup6\n        /* \"contracts/Topbot.sol\":2014:2039  allowed[_owner][_spender] */\n      0xffffffffffffffffffffffffffffffffffffffff\n      and\n      0xffffffffffffffffffffffffffffffffffffffff\n      and\n      dup2\n      mstore\n      0x20\n      add\n      swap1\n      dup2\n      mstore\n      0x20\n      add\n      0x00\n      keccak256\n      sload\n        /* \"contracts/Topbot.sol\":2014:2044  allowed[_owner][_spender] >= 0 */\n      lt\n      iszero\n        /* \"contracts/Topbot.sol\":2006:2061  require(allowed[_owner][_spender] >= 0, \"zero address\") */\n      tag_83\n      jumpi\n      mload(0x40)\n      0x08c379a000000000000000000000000000000000000000000000000000000000\n      dup2\n      mstore\n      0x04\n      add\n      tag_84\n      swap1\n      tag_75\n      jump\t// in\n    tag_84:\n      mload(0x40)\n      dup1\n      swap2\n      sub\n      swap1\n      revert\n    tag_83:\n        /* \"contracts/Topbot.sol\":2100:2107  _amount */\n      dup2\n        /* \"contracts/Topbot.sol\":2080:2088  balances */\n      0x04\n        /* \"contracts/Topbot.sol\":2080:2096  balances[_owner] */\n      0x00\n        /* \"contracts/Topbot.sol\":2089:2095  _owner */\n      dup7\n        /* \"contracts/Topbot.sol\":2080:2096  balances[_owner] */\n      0xffffffffffffffffffffffffffffffffffffffff\n      and\n      0xffffffffffffffffffffffffffffffffffffffff\n      and\n      dup2\n      mstore\n      0x20\n      add\n      swap1\n      dup2\n      mstore\n      0x20\n      add\n      0x00\n      keccak256\n      sload\n        /* \"contracts/Topbot.sol\":2080:2107  balances[_owner] >= _amount */\n      lt\n      iszero\n        /* \"contracts/Topbot.sol\":2072:2144  require(balances[_owner] >= _amount, \"balance is lower than the amount\") */\n      tag_85\n      jumpi\n      mload(0x40)\n      0x08c379a000000000000000000000000000000000000000000000000000000000\n      dup2\n      mstore\n      0x04\n      add\n      tag_86\n      swap1\n      tag_87\n      jump\t// in\n    tag_86:\n      mload(0x40)\n      dup1\n      swap2\n      sub\n      swap1\n      revert\n    tag_85:\n        /* \"contracts/Topbot.sol\":2175:2182  _amount */\n      dup2\n        /* \"contracts/Topbot.sol\":2155:2163  balances */\n      0x04\n        /* \"contracts/Topbot.sol\":2155:2171  balances[_owner] */\n      0x00\n        /* \"contracts/Topbot.sol\":2164:2170  _owner */\n      dup7\n        /* \"contracts/Topbot.sol\":2155:2171  balances[_owner] */\n      0xffffffffffffffffffffffffffffffffffffffff\n      and\n      0xffffffffffffffffffffffffffffffffffffffff\n      and\n      dup2\n      mstore\n      0x20\n      add\n      swap1\n      dup2\n      mstore\n      0x20\n      add\n      0x00\n      keccak256\n      0x00\n        /* \"contracts/Topbot.sol\":2155:2182  balances[_owner] -= _amount */\n      dup3\n      dup3\n      sload\n      tag_88\n      swap2\n      swap1\n      tag_89\n      jump\t// in\n    tag_88:\n      swap3\n      pop\n      pop\n      dup2\n      swap1\n      sstore\n      pop\n        /* \"contracts/Topbot.sol\":2215:2222  _amount */\n      dup2\n        /* \"contracts/Topbot.sol\":2193:2201  balances */\n      0x04\n        /* \"contracts/Topbot.sol\":2193:2211  balances[_spender] */\n      0x00\n        /* \"contracts/Topbot.sol\":2202:2210  _spender */\n      dup6\n        /* \"contracts/Topbot.sol\":2193:2211  balances[_spender] */\n      0xffffffffffffffffffffffffffffffffffffffff\n      and\n      0xffffffffffffffffffffffffffffffffffffffff\n      and\n      dup2\n      mstore\n      0x20\n      add\n      swap1\n      dup2\n      mstore\n      0x20\n      add\n      0x00\n      keccak256\n      0x00\n        /* \"contracts/Topbot.sol\":2193:2222  balances[_spender] += _amount */\n      dup3\n      dup3\n      sload\n      tag_90\n      swap2\n      swap1\n      tag_91\n      jump\t// in\n    tag_90:\n      swap3\n      pop\n      pop\n      dup2\n      swap1\n      sstore\n      pop\n        /* \"contracts/Topbot.sol\":2264:2271  _amount */\n      dup2\n        /* \"contracts/Topbot.sol\":2235:2242  allowed */\n      0x05\n        /* \"contracts/Topbot.sol\":2235:2250  allowed[_owner] */\n      0x00\n        /* \"contracts/Topbot.sol\":2243:2249  _owner */\n      dup7\n        /* \"contracts/Topbot.sol\":2235:2250  allowed[_owner] */\n      0xffffffffffffffffffffffffffffffffffffffff\n      and\n      0xffffffffffffffffffffffffffffffffffffffff\n      and\n      dup2\n      mstore\n      0x20\n      add\n      swap1\n      dup2\n      mstore\n      0x20\n      add\n      0x00\n      keccak256\n        /* \"contracts/Topbot.sol\":2235:2260  allowed[_owner][_spender] */\n      0x00\n        /* \"contracts/Topbot.sol\":2251:2259  _spender */\n      dup6\n        /* \"contracts/Topbot.sol\":2235:2260  allowed[_owner][_spender] */\n      0xffffffffffffffffffffffffffffffffffffffff\n      and\n      0xffffffffffffffffffffffffffffffffffffffff\n      and\n      dup2\n      mstore\n      0x20\n      add\n      swap1\n      dup2\n      mstore\n      0x20\n      add\n      0x00\n      keccak256\n      0x00\n        /* \"contracts/Topbot.sol\":2235:2271  allowed[_owner][_spender] -= _amount */\n      dup3\n      dup3\n      sload\n      tag_92\n      swap2\n      swap1\n      tag_89\n      jump\t// in\n    tag_92:\n      swap3\n      pop\n      pop\n      dup2\n      swap1\n      sstore\n      pop\n        /* \"contracts/Topbot.sol\":2304:2312  _spender */\n      dup3\n        /* \"contracts/Topbot.sol\":2287:2322  Transfer(_owner, _spender, _amount) */\n      0xffffffffffffffffffffffffffffffffffffffff\n      and\n        /* \"contracts/Topbot.sol\":2296:2302  _owner */\n      dup5\n        /* \"contracts/Topbot.sol\":2287:2322  Transfer(_owner, _spender, _amount) */\n      0xffffffffffffffffffffffffffffffffffffffff\n      and\n      0xddf252ad1be2c89b69c2b068fc378daa952ba7f163c4a11628f55a4df523b3ef\n        /* \"contracts/Topbot.sol\":2314:2321  _amount */\n      dup5\n        /* \"contracts/Topbot.sol\":2287:2322  Transfer(_owner, _spender, _amount) */\n      mload(0x40)\n      tag_93\n      swap2\n      swap1\n      tag_29\n      jump\t// in\n    tag_93:\n      mload(0x40)\n      dup1\n      swap2\n      sub\n      swap1\n      log3\n        /* \"contracts/Topbot.sol\":2340:2344  true */\n      0x01\n        /* \"contracts/Topbot.sol\":2333:2344  return true */\n      swap1\n      pop\n        /* \"contracts/Topbot.sol\":1833:2352  function transferFrom(address _owner, address _spender, uint256 _amount) public override returns (bool) {\r... */\n      swap4\n      swap3\n      pop\n      pop\n      pop\n      jump\t// out\n        /* \"contracts/Topbot.sol\":269:313  uint8 constant override public decimals = 18 */\n    tag_36:\n        /* \"contracts/Topbot.sol\":311:313  18 */\n      0x12\n        /* \"contracts/Topbot.sol\":269:313  uint8 constant override public decimals = 18 */\n      dup2\n      jump\t// out\n        /* \"contracts/Topbot.sol\":853:969  function balanceOf(address _owner) public view override returns (uint256) {\r... */\n    tag_42:\n        /* \"contracts/Topbot.sol\":918:925  uint256 */\n      0x00\n        /* \"contracts/Topbot.sol\":945:953  balances */\n      0x04\n        /* \"contracts/Topbot.sol\":945:961  balances[_owner] */\n      0x00\n        /* \"contracts/Topbot.sol\":954:960  _owner */\n      dup4\n        /* \"contracts/Topbot.sol\":945:961  balances[_owner] */\n      0xffffffffffffffffffffffffffffffffffffffff\n      and\n      0xffffffffffffffffffffffffffffffffffffffff\n      and\n      dup2\n      mstore\n      0x20\n      add\n      swap1\n      dup2\n      mstore\n      0x20\n      add\n      0x00\n      keccak256\n      sload\n        /* \"contracts/Topbot.sol\":938:961  return balances[_owner] */\n      swap1\n      pop\n        /* \"contracts/Topbot.sol\":853:969  function balanceOf(address _owner) public view override returns (uint256) {\r... */\n      swap2\n      swap1\n      pop\n      jump\t// out\n        /* \"contracts/Topbot.sol\":979:1071  function getOwner() external view override returns (address) {\r... */\n    tag_45:\n        /* \"contracts/Topbot.sol\":1031:1038  address */\n      0x00\n        /* \"contracts/Topbot.sol\":1058:1063  owner */\n      dup1\n      0x00\n      swap1\n      sload\n      swap1\n      0x0100\n      exp\n      swap1\n      div\n      0xffffffffffffffffffffffffffffffffffffffff\n      and\n        /* \"contracts/Topbot.sol\":1051:1063  return owner */\n      swap1\n      pop\n        /* \"contracts/Topbot.sol\":979:1071  function getOwner() external view override returns (address) {\r... */\n      swap1\n      jump\t// out\n        /* \"contracts/Topbot.sol\":130:150  address public owner */\n    tag_49:\n      0x00\n      dup1\n      sload\n      swap1\n      0x0100\n      exp\n      swap1\n      div\n      0xffffffffffffffffffffffffffffffffffffffff\n      and\n      dup2\n      jump\t// out\n        /* \"contracts/Topbot.sol\":191:220  string override public symbol */\n    tag_52:\n      0x02\n      dup1\n      sload\n      tag_96\n      swap1\n      tag_67\n      jump\t// in\n    tag_96:\n      dup1\n      0x1f\n      add\n      0x20\n      dup1\n      swap2\n      div\n      mul\n      0x20\n      add\n      mload(0x40)\n      swap1\n      dup2\n      add\n      0x40\n      mstore\n      dup1\n      swap3\n      swap2\n      swap1\n      dup2\n      dup2\n      mstore\n      0x20\n      add\n      dup3\n      dup1\n      sload\n      tag_97\n      swap1\n      tag_67\n      jump\t// in\n    tag_97:\n      dup1\n      iszero\n      tag_98\n      jumpi\n      dup1\n      0x1f\n      lt\n      tag_99\n      jumpi\n      0x0100\n      dup1\n      dup4\n      sload\n      div\n      mul\n      dup4\n      mstore\n      swap2\n      0x20\n      add\n      swap2\n      jump(tag_98)\n    tag_99:\n      dup3\n      add\n      swap2\n      swap1\n      0x00\n      mstore\n      keccak256(0x00, 0x20)\n      swap1\n    tag_100:\n      dup2\n      sload\n      dup2\n      mstore\n      swap1\n      0x01\n      add\n      swap1\n      0x20\n      add\n      dup1\n      dup4\n      gt\n      tag_100\n      jumpi\n      dup3\n      swap1\n      sub\n      0x1f\n      and\n      dup3\n      add\n      swap2\n    tag_98:\n      pop\n      pop\n      pop\n      pop\n      pop\n      dup2\n      jump\t// out\n        /* \"contracts/Topbot.sol\":1435:1825  function transfer(address _to, uint256 _amount) public override returns (bool) {\r... */\n    tag_56:\n        /* \"contracts/Topbot.sol\":1508:1512  bool */\n      0x00\n        /* \"contracts/Topbot.sol\":1547:1548  0 */\n      dup1\n        /* \"contracts/Topbot.sol\":1533:1549  _to!= address(0) */\n      0xffffffffffffffffffffffffffffffffffffffff\n      and\n        /* \"contracts/Topbot.sol\":1533:1536  _to */\n      dup4\n        /* \"contracts/Topbot.sol\":1533:1549  _to!= address(0) */\n      0xffffffffffffffffffffffffffffffffffffffff\n      and\n      eq\n      iszero\n        /* \"contracts/Topbot.sol\":1525:1566  require(_to!= address(0), \"zero address\") */\n      tag_102\n      jumpi\n      mload(0x40)\n      0x08c379a000000000000000000000000000000000000000000000000000000000\n      dup2\n      mstore\n      0x04\n      add\n      tag_103\n      swap1\n      tag_75\n      jump\t// in\n    tag_103:\n      mload(0x40)\n      dup1\n      swap2\n      sub\n      swap1\n      revert\n    tag_102:\n        /* \"contracts/Topbot.sol\":1609:1616  _amount */\n      dup2\n        /* \"contracts/Topbot.sol\":1585:1593  balances */\n      0x04\n        /* \"contracts/Topbot.sol\":1585:1605  balances[msg.sender] */\n      0x00\n        /* \"contracts/Topbot.sol\":1594:1604  msg.sender */\n      caller\n        /* \"contracts/Topbot.sol\":1585:1605  balances[msg.sender] */\n      0xffffffffffffffffffffffffffffffffffffffff\n      and\n      0xffffffffffffffffffffffffffffffffffffffff\n      and\n      dup2\n      mstore\n      0x20\n      add\n      swap1\n      dup2\n      mstore\n      0x20\n      add\n      0x00\n      keccak256\n      sload\n        /* \"contracts/Topbot.sol\":1585:1616  balances[msg.sender] >= _amount */\n      lt\n      iszero\n        /* \"contracts/Topbot.sol\":1577:1668  require(balances[msg.sender] >= _amount, \"required balance is greater than sending amount\") */\n      tag_104\n      jumpi\n      mload(0x40)\n      0x08c379a000000000000000000000000000000000000000000000000000000000\n      dup2\n      mstore\n      0x04\n      add\n      tag_105\n      swap1\n      tag_106\n      jump\t// in\n    tag_105:\n      mload(0x40)\n      dup1\n      swap2\n      sub\n      swap1\n      revert\n    tag_104:\n        /* \"contracts/Topbot.sol\":1703:1710  _amount */\n      dup2\n        /* \"contracts/Topbot.sol\":1679:1687  balances */\n      0x04\n        /* \"contracts/Topbot.sol\":1679:1699  balances[msg.sender] */\n      0x00\n        /* \"contracts/Topbot.sol\":1688:1698  msg.sender */\n      caller\n        /* \"contracts/Topbot.sol\":1679:1699  balances[msg.sender] */\n      0xffffffffffffffffffffffffffffffffffffffff\n      and\n      0xffffffffffffffffffffffffffffffffffffffff\n      and\n      dup2\n      mstore\n      0x20\n      add\n      swap1\n      dup2\n      mstore\n      0x20\n      add\n      0x00\n      keccak256\n      0x00\n        /* \"contracts/Topbot.sol\":1679:1710  balances[msg.sender] -= _amount */\n      dup3\n      dup3\n      sload\n      tag_107\n      swap2\n      swap1\n      tag_89\n      jump\t// in\n    tag_107:\n      swap3\n      pop\n      pop\n      dup2\n      swap1\n      sstore\n      pop\n        /* \"contracts/Topbot.sol\":1738:1745  _amount */\n      dup2\n        /* \"contracts/Topbot.sol\":1721:1729  balances */\n      0x04\n        /* \"contracts/Topbot.sol\":1721:1734  balances[_to] */\n      0x00\n        /* \"contracts/Topbot.sol\":1730:1733  _to */\n      dup6\n        /* \"contracts/Topbot.sol\":1721:1734  balances[_to] */\n      0xffffffffffffffffffffffffffffffffffffffff\n      and\n      0xffffffffffffffffffffffffffffffffffffffff\n      and\n      dup2\n      mstore\n      0x20\n      add\n      swap1\n      dup2\n      mstore\n      0x20\n      add\n      0x00\n      keccak256\n      0x00\n        /* \"contracts/Topbot.sol\":1721:1745  balances[_to] += _amount */\n      dup3\n      dup3\n      sload\n      tag_108\n      swap2\n      swap1\n      tag_91\n      jump\t// in\n    tag_108:\n      swap3\n      pop\n      pop\n      dup2\n      swap1\n      sstore\n      pop\n        /* \"contracts/Topbot.sol\":1782:1785  _to */\n      dup3\n        /* \"contracts/Topbot.sol\":1761:1795  Transfer(msg.sender, _to, _amount) */\n      0xffffffffffffffffffffffffffffffffffffffff\n      and\n        /* \"contracts/Topbot.sol\":1770:1780  msg.sender */\n      caller\n        /* \"contracts/Topbot.sol\":1761:1795  Transfer(msg.sender, _to, _amount) */\n      0xffffffffffffffffffffffffffffffffffffffff\n      and\n      0xddf252ad1be2c89b69c2b068fc378daa952ba7f163c4a11628f55a4df523b3ef\n        /* \"contracts/Topbot.sol\":1787:1794  _amount */\n      dup5\n        /* \"contracts/Topbot.sol\":1761:1795  Transfer(msg.sender, _to, _amount) */\n      mload(0x40)\n      tag_109\n      swap2\n      swap1\n      tag_29\n      jump\t// in\n    tag_109:\n      mload(0x40)\n      dup1\n      swap2\n      sub\n      swap1\n      log3\n        /* \"contracts/Topbot.sol\":1813:1817  true */\n      0x01\n        /* \"contracts/Topbot.sol\":1806:1817  return true */\n      swap1\n      pop\n        /* \"contracts/Topbot.sol\":1435:1825  function transfer(address _to, uint256 _amount) public override returns (bool) {\r... */\n      swap3\n      swap2\n      pop\n      pop\n      jump\t// out\n        /* \"contracts/Topbot.sol\":703:845  function allowance(address _owner, address spender) external view override returns (uint256){\r... */\n    tag_61:\n        /* \"contracts/Topbot.sol\":787:794  uint256 */\n      0x00\n        /* \"contracts/Topbot.sol\":813:820  allowed */\n      0x05\n        /* \"contracts/Topbot.sol\":813:828  allowed[_owner] */\n      0x00\n        /* \"contracts/Topbot.sol\":821:827  _owner */\n      dup5\n        /* \"contracts/Topbot.sol\":813:828  allowed[_owner] */\n      0xffffffffffffffffffffffffffffffffffffffff\n      and\n      0xffffffffffffffffffffffffffffffffffffffff\n      and\n      dup2\n      mstore\n      0x20\n      add\n      swap1\n      dup2\n      mstore\n      0x20\n      add\n      0x00\n      keccak256\n        /* \"contracts/Topbot.sol\":813:837  allowed[_owner][spender] */\n      0x00\n        /* \"contracts/Topbot.sol\":829:836  spender */\n      dup4\n        /* \"contracts/Topbot.sol\":813:837  allowed[_owner][spender] */\n      0xffffffffffffffffffffffffffffffffffffffff\n      and\n      0xffffffffffffffffffffffffffffffffffffffff\n      and\n      dup2\n      mstore\n      0x20\n      add\n      swap1\n      dup2\n      mstore\n      0x20\n      add\n      0x00\n      keccak256\n      sload\n        /* \"contracts/Topbot.sol\":806:837  return allowed[_owner][spender] */\n      swap1\n      pop\n        /* \"contracts/Topbot.sol\":703:845  function allowance(address _owner, address spender) external view override returns (uint256){\r... */\n      swap3\n      swap2\n      pop\n      pop\n      jump\t// out\n        /* \"contracts/Topbot.sol\":2360:2502  function transferOwnership(address _to) external onlyOwner {\r... */\n    tag_65:\n        /* \"contracts/Topbot.sol\":2562:2567  owner */\n      0x00\n      dup1\n      sload\n      swap1\n      0x0100\n      exp\n      swap1\n      div\n      0xffffffffffffffffffffffffffffffffffffffff\n      and\n        /* \"contracts/Topbot.sol\":2548:2567  msg.sender == owner */\n      0xffffffffffffffffffffffffffffffffffffffff\n      and\n        /* \"contracts/Topbot.sol\":2548:2558  msg.sender */\n      caller\n        /* \"contracts/Topbot.sol\":2548:2567  msg.sender == owner */\n      0xffffffffffffffffffffffffffffffffffffffff\n      and\n      eq\n        /* \"contracts/Topbot.sol\":2540:2568  require(msg.sender == owner) */\n      tag_112\n      jumpi\n      0x00\n      dup1\n      revert\n    tag_112:\n        /* \"contracts/Topbot.sol\":2453:2454  0 */\n      0x00\n        /* \"contracts/Topbot.sol\":2438:2455  _to != address(0) */\n      0xffffffffffffffffffffffffffffffffffffffff\n      and\n        /* \"contracts/Topbot.sol\":2438:2441  _to */\n      dup2\n        /* \"contracts/Topbot.sol\":2438:2455  _to != address(0) */\n      0xffffffffffffffffffffffffffffffffffffffff\n      and\n      eq\n      iszero\n        /* \"contracts/Topbot.sol\":2430:2472  require(_to != address(0), \"zero address\") */\n      tag_114\n      jumpi\n      mload(0x40)\n      0x08c379a000000000000000000000000000000000000000000000000000000000\n      dup2\n      mstore\n      0x04\n      add\n      tag_115\n      swap1\n      tag_75\n      jump\t// in\n    tag_115:\n      mload(0x40)\n      dup1\n      swap2\n      sub\n      swap1\n      revert\n    tag_114:\n        /* \"contracts/Topbot.sol\":2491:2494  _to */\n      dup1\n        /* \"contracts/Topbot.sol\":2483:2488  owner */\n      0x00\n      dup1\n        /* \"contracts/Topbot.sol\":2483:2494  owner = _to */\n      0x0100\n      exp\n      dup2\n      sload\n      dup2\n      0xffffffffffffffffffffffffffffffffffffffff\n      mul\n      not\n      and\n      swap1\n      dup4\n      0xffffffffffffffffffffffffffffffffffffffff\n      and\n      mul\n      or\n      swap1\n      sstore\n      pop\n        /* \"contracts/Topbot.sol\":2360:2502  function transferOwnership(address _to) external onlyOwner {\r... */\n      pop\n      jump\t// out\n        /* \"#utility.yul\":7:146   */\n    tag_117:\n        /* \"#utility.yul\":53:58   */\n      0x00\n        /* \"#utility.yul\":91:97   */\n      dup2\n        /* \"#utility.yul\":78:98   */\n      calldataload\n        /* \"#utility.yul\":69:98   */\n      swap1\n      pop\n        /* \"#utility.yul\":107:140   */\n      tag_119\n        /* \"#utility.yul\":134:139   */\n      dup2\n        /* \"#utility.yul\":107:140   */\n      tag_120\n      jump\t// in\n    tag_119:\n        /* \"#utility.yul\":7:146   */\n      swap3\n      swap2\n      pop\n      pop\n      jump\t// out\n        /* \"#utility.yul\":152:291   */\n    tag_121:\n        /* \"#utility.yul\":198:203   */\n      0x00\n        /* \"#utility.yul\":236:242   */\n      dup2\n        /* \"#utility.yul\":223:243   */\n      calldataload\n        /* \"#utility.yul\":214:243   */\n      swap1\n      pop\n        /* \"#utility.yul\":252:285   */\n      tag_123\n        /* \"#utility.yul\":279:284   */\n      dup2\n        /* \"#utility.yul\":252:285   */\n      tag_124\n      jump\t// in\n    tag_123:\n        /* \"#utility.yul\":152:291   */\n      swap3\n      swap2\n      pop\n      pop\n      jump\t// out\n        /* \"#utility.yul\":297:626   */\n    tag_41:\n        /* \"#utility.yul\":356:362   */\n      0x00\n        /* \"#utility.yul\":405:407   */\n      0x20\n        /* \"#utility.yul\":393:402   */\n      dup3\n        /* \"#utility.yul\":384:391   */\n      dup5\n        /* \"#utility.yul\":380:403   */\n      sub\n        /* \"#utility.yul\":376:408   */\n      slt\n        /* \"#utility.yul\":373:492   */\n      iszero\n      tag_126\n      jumpi\n        /* \"#utility.yul\":411:490   */\n      tag_127\n      tag_128\n      jump\t// in\n    tag_127:\n        /* \"#utility.yul\":373:492   */\n    tag_126:\n        /* \"#utility.yul\":531:532   */\n      0x00\n        /* \"#utility.yul\":556:609   */\n      tag_129\n        /* \"#utility.yul\":601:608   */\n      dup5\n        /* \"#utility.yul\":592:598   */\n      dup3\n        /* \"#utility.yul\":581:590   */\n      dup6\n        /* \"#utility.yul\":577:599   */\n      add\n        /* \"#utility.yul\":556:609   */\n      tag_117\n      jump\t// in\n    tag_129:\n        /* \"#utility.yul\":546:609   */\n      swap2\n      pop\n        /* \"#utility.yul\":502:619   */\n      pop\n        /* \"#utility.yul\":297:626   */\n      swap3\n      swap2\n      pop\n      pop\n      jump\t// out\n        /* \"#utility.yul\":632:1106   */\n    tag_60:\n        /* \"#utility.yul\":700:706   */\n      0x00\n        /* \"#utility.yul\":708:714   */\n      dup1\n        /* \"#utility.yul\":757:759   */\n      0x40\n        /* \"#utility.yul\":745:754   */\n      dup4\n        /* \"#utility.yul\":736:743   */\n      dup6\n        /* \"#utility.yul\":732:755   */\n      sub\n        /* \"#utility.yul\":728:760   */\n      slt\n        /* \"#utility.yul\":725:844   */\n      iszero\n      tag_131\n      jumpi\n        /* \"#utility.yul\":763:842   */\n      tag_132\n      tag_128\n      jump\t// in\n    tag_132:\n        /* \"#utility.yul\":725:844   */\n    tag_131:\n        /* \"#utility.yul\":883:884   */\n      0x00\n        /* \"#utility.yul\":908:961   */\n      tag_133\n        /* \"#utility.yul\":953:960   */\n      dup6\n        /* \"#utility.yul\":944:950   */\n      dup3\n        /* \"#utility.yul\":933:942   */\n      dup7\n        /* \"#utility.yul\":929:951   */\n      add\n        /* \"#utility.yul\":908:961   */\n      tag_117\n      jump\t// in\n    tag_133:\n        /* \"#utility.yul\":898:961   */\n      swap3\n      pop\n        /* \"#utility.yul\":854:971   */\n      pop\n        /* \"#utility.yul\":1010:1012   */\n      0x20\n        /* \"#utility.yul\":1036:1089   */\n      tag_134\n        /* \"#utility.yul\":1081:1088   */\n      dup6\n        /* \"#utility.yul\":1072:1078   */\n      dup3\n        /* \"#utility.yul\":1061:1070   */\n      dup7\n        /* \"#utility.yul\":1057:1079   */\n      add\n        /* \"#utility.yul\":1036:1089   */\n      tag_117\n      jump\t// in\n    tag_134:\n        /* \"#utility.yul\":1026:1089   */\n      swap2\n      pop\n        /* \"#utility.yul\":981:1099   */\n      pop\n        /* \"#utility.yul\":632:1106   */\n      swap3\n      pop\n      swap3\n      swap1\n      pop\n      jump\t// out\n        /* \"#utility.yul\":1112:1731   */\n    tag_32:\n        /* \"#utility.yul\":1189:1195   */\n      0x00\n        /* \"#utility.yul\":1197:1203   */\n      dup1\n        /* \"#utility.yul\":1205:1211   */\n      0x00\n        /* \"#utility.yul\":1254:1256   */\n      0x60\n        /* \"#utility.yul\":1242:1251   */\n      dup5\n        /* \"#utility.yul\":1233:1240   */\n      dup7\n        /* \"#utility.yul\":1229:1252   */\n      sub\n        /* \"#utility.yul\":1225:1257   */\n      slt\n        /* \"#utility.yul\":1222:1341   */\n      iszero\n      tag_136\n      jumpi\n        /* \"#utility.yul\":1260:1339   */\n      tag_137\n      tag_128\n      jump\t// in\n    tag_137:\n        /* \"#utility.yul\":1222:1341   */\n    tag_136:\n        /* \"#utility.yul\":1380:1381   */\n      0x00\n        /* \"#utility.yul\":1405:1458   */\n      tag_138\n        /* \"#utility.yul\":1450:1457   */\n      dup7\n        /* \"#utility.yul\":1441:1447   */\n      dup3\n        /* \"#utility.yul\":1430:1439   */\n      dup8\n        /* \"#utility.yul\":1426:1448   */\n      add\n        /* \"#utility.yul\":1405:1458   */\n      tag_117\n      jump\t// in\n    tag_138:\n        /* \"#utility.yul\":1395:1458   */\n      swap4\n      pop\n        /* \"#utility.yul\":1351:1468   */\n      pop\n        /* \"#utility.yul\":1507:1509   */\n      0x20\n        /* \"#utility.yul\":1533:1586   */\n      tag_139\n        /* \"#utility.yul\":1578:1585   */\n      dup7\n        /* \"#utility.yul\":1569:1575   */\n      dup3\n        /* \"#utility.yul\":1558:1567   */\n      dup8\n        /* \"#utility.yul\":1554:1576   */\n      add\n        /* \"#utility.yul\":1533:1586   */\n      tag_117\n      jump\t// in\n    tag_139:\n        /* \"#utility.yul\":1523:1586   */\n      swap3\n      pop\n        /* \"#utility.yul\":1478:1596   */\n      pop\n        /* \"#utility.yul\":1635:1637   */\n      0x40\n        /* \"#utility.yul\":1661:1714   */\n      tag_140\n        /* \"#utility.yul\":1706:1713   */\n      dup7\n        /* \"#utility.yul\":1697:1703   */\n      dup3\n        /* \"#utility.yul\":1686:1695   */\n      dup8\n        /* \"#utility.yul\":1682:1704   */\n      add\n        /* \"#utility.yul\":1661:1714   */\n      tag_121\n      jump\t// in\n    tag_140:\n        /* \"#utility.yul\":1651:1714   */\n      swap2\n      pop\n        /* \"#utility.yul\":1606:1724   */\n      pop\n        /* \"#utility.yul\":1112:1731   */\n      swap3\n      pop\n      swap3\n      pop\n      swap3\n      jump\t// out\n        /* \"#utility.yul\":1737:2211   */\n    tag_22:\n        /* \"#utility.yul\":1805:1811   */\n      0x00\n        /* \"#utility.yul\":1813:1819   */\n      dup1\n        /* \"#utility.yul\":1862:1864   */\n      0x40\n        /* \"#utility.yul\":1850:1859   */\n      dup4\n        /* \"#utility.yul\":1841:1848   */\n      dup6\n        /* \"#utility.yul\":1837:1860   */\n      sub\n        /* \"#utility.yul\":1833:1865   */\n      slt\n        /* \"#utility.yul\":1830:1949   */\n      iszero\n      tag_142\n      jumpi\n        /* \"#utility.yul\":1868:1947   */\n      tag_143\n      tag_128\n      jump\t// in\n    tag_143:\n        /* \"#utility.yul\":1830:1949   */\n    tag_142:\n        /* \"#utility.yul\":1988:1989   */\n      0x00\n        /* \"#utility.yul\":2013:2066   */\n      tag_144\n        /* \"#utility.yul\":2058:2065   */\n      dup6\n        /* \"#utility.yul\":2049:2055   */\n      dup3\n        /* \"#utility.yul\":2038:2047   */\n      dup7\n        /* \"#utility.yul\":2034:2056   */\n      add\n        /* \"#utility.yul\":2013:2066   */\n      tag_117\n      jump\t// in\n    tag_144:\n        /* \"#utility.yul\":2003:2066   */\n      swap3\n      pop\n        /* \"#utility.yul\":1959:2076   */\n      pop\n        /* \"#utility.yul\":2115:2117   */\n      0x20\n        /* \"#utility.yul\":2141:2194   */\n      tag_145\n        /* \"#utility.yul\":2186:2193   */\n      dup6\n        /* \"#utility.yul\":2177:2183   */\n      dup3\n        /* \"#utility.yul\":2166:2175   */\n      dup7\n        /* \"#utility.yul\":2162:2184   */\n      add\n        /* \"#utility.yul\":2141:2194   */\n      tag_121\n      jump\t// in\n    tag_145:\n        /* \"#utility.yul\":2131:2194   */\n      swap2\n      pop\n        /* \"#utility.yul\":2086:2204   */\n      pop\n        /* \"#utility.yul\":1737:2211   */\n      swap3\n      pop\n      swap3\n      swap1\n      pop\n      jump\t// out\n        /* \"#utility.yul\":2217:2335   */\n    tag_146:\n        /* \"#utility.yul\":2304:2328   */\n      tag_148\n        /* \"#utility.yul\":2322:2327   */\n      dup2\n        /* \"#utility.yul\":2304:2328   */\n      tag_149\n      jump\t// in\n    tag_148:\n        /* \"#utility.yul\":2299:2302   */\n      dup3\n        /* \"#utility.yul\":2292:2329   */\n      mstore\n        /* \"#utility.yul\":2217:2335   */\n      pop\n      pop\n      jump\t// out\n        /* \"#utility.yul\":2341:2450   */\n    tag_150:\n        /* \"#utility.yul\":2422:2443   */\n      tag_152\n        /* \"#utility.yul\":2437:2442   */\n      dup2\n        /* \"#utility.yul\":2422:2443   */\n      tag_153\n      jump\t// in\n    tag_152:\n        /* \"#utility.yul\":2417:2420   */\n      dup3\n        /* \"#utility.yul\":2410:2444   */\n      mstore\n        /* \"#utility.yul\":2341:2450   */\n      pop\n      pop\n      jump\t// out\n        /* \"#utility.yul\":2456:2820   */\n    tag_154:\n        /* \"#utility.yul\":2544:2547   */\n      0x00\n        /* \"#utility.yul\":2572:2611   */\n      tag_156\n        /* \"#utility.yul\":2605:2610   */\n      dup3\n        /* \"#utility.yul\":2572:2611   */\n      tag_157\n      jump\t// in\n    tag_156:\n        /* \"#utility.yul\":2627:2698   */\n      tag_158\n        /* \"#utility.yul\":2691:2697   */\n      dup2\n        /* \"#utility.yul\":2686:2689   */\n      dup6\n        /* \"#utility.yul\":2627:2698   */\n      tag_159\n      jump\t// in\n    tag_158:\n        /* \"#utility.yul\":2620:2698   */\n      swap4\n      pop\n        /* \"#utility.yul\":2707:2759   */\n      tag_160\n        /* \"#utility.yul\":2752:2758   */\n      dup2\n        /* \"#utility.yul\":2747:2750   */\n      dup6\n        /* \"#utility.yul\":2740:2744   */\n      0x20\n        /* \"#utility.yul\":2733:2738   */\n      dup7\n        /* \"#utility.yul\":2729:2745   */\n      add\n        /* \"#utility.yul\":2707:2759   */\n      tag_161\n      jump\t// in\n    tag_160:\n        /* \"#utility.yul\":2784:2813   */\n      tag_162\n        /* \"#utility.yul\":2806:2812   */\n      dup2\n        /* \"#utility.yul\":2784:2813   */\n      tag_163\n      jump\t// in\n    tag_162:\n        /* \"#utility.yul\":2779:2782   */\n      dup5\n        /* \"#utility.yul\":2775:2814   */\n      add\n        /* \"#utility.yul\":2768:2814   */\n      swap2\n      pop\n        /* \"#utility.yul\":2548:2820   */\n      pop\n        /* \"#utility.yul\":2456:2820   */\n      swap3\n      swap2\n      pop\n      pop\n      jump\t// out\n        /* \"#utility.yul\":2826:3192   */\n    tag_164:\n        /* \"#utility.yul\":2968:2971   */\n      0x00\n        /* \"#utility.yul\":2989:3056   */\n      tag_166\n        /* \"#utility.yul\":3053:3055   */\n      0x20\n        /* \"#utility.yul\":3048:3051   */\n      dup4\n        /* \"#utility.yul\":2989:3056   */\n      tag_159\n      jump\t// in\n    tag_166:\n        /* \"#utility.yul\":2982:3056   */\n      swap2\n      pop\n        /* \"#utility.yul\":3065:3158   */\n      tag_167\n        /* \"#utility.yul\":3154:3157   */\n      dup3\n        /* \"#utility.yul\":3065:3158   */\n      tag_168\n      jump\t// in\n    tag_167:\n        /* \"#utility.yul\":3183:3185   */\n      0x20\n        /* \"#utility.yul\":3178:3181   */\n      dup3\n        /* \"#utility.yul\":3174:3186   */\n      add\n        /* \"#utility.yul\":3167:3186   */\n      swap1\n      pop\n        /* \"#utility.yul\":2826:3192   */\n      swap2\n      swap1\n      pop\n      jump\t// out\n        /* \"#utility.yul\":3198:3564   */\n    tag_169:\n        /* \"#utility.yul\":3340:3343   */\n      0x00\n        /* \"#utility.yul\":3361:3428   */\n      tag_171\n        /* \"#utility.yul\":3425:3427   */\n      0x0b\n        /* \"#utility.yul\":3420:3423   */\n      dup4\n        /* \"#utility.yul\":3361:3428   */\n      tag_159\n      jump\t// in\n    tag_171:\n        /* \"#utility.yul\":3354:3428   */\n      swap2\n      pop\n        /* \"#utility.yul\":3437:3530   */\n      tag_172\n        /* \"#utility.yul\":3526:3529   */\n      dup3\n        /* \"#utility.yul\":3437:3530   */\n      tag_173\n      jump\t// in\n    tag_172:\n        /* \"#utility.yul\":3555:3557   */\n      0x20\n        /* \"#utility.yul\":3550:3553   */\n      dup3\n        /* \"#utility.yul\":3546:3558   */\n      add\n        /* \"#utility.yul\":3539:3558   */\n      swap1\n      pop\n        /* \"#utility.yul\":3198:3564   */\n      swap2\n      swap1\n      pop\n      jump\t// out\n        /* \"#utility.yul\":3570:3936   */\n    tag_174:\n        /* \"#utility.yul\":3712:3715   */\n      0x00\n        /* \"#utility.yul\":3733:3800   */\n      tag_176\n        /* \"#utility.yul\":3797:3799   */\n      0x0c\n        /* \"#utility.yul\":3792:3795   */\n      dup4\n        /* \"#utility.yul\":3733:3800   */\n      tag_159\n      jump\t// in\n    tag_176:\n        /* \"#utility.yul\":3726:3800   */\n      swap2\n      pop\n        /* \"#utility.yul\":3809:3902   */\n      tag_177\n        /* \"#utility.yul\":3898:3901   */\n      dup3\n        /* \"#utility.yul\":3809:3902   */\n      tag_178\n      jump\t// in\n    tag_177:\n        /* \"#utility.yul\":3927:3929   */\n      0x20\n        /* \"#utility.yul\":3922:3925   */\n      dup3\n        /* \"#utility.yul\":3918:3930   */\n      add\n        /* \"#utility.yul\":3911:3930   */\n      swap1\n      pop\n        /* \"#utility.yul\":3570:3936   */\n      swap2\n      swap1\n      pop\n      jump\t// out\n        /* \"#utility.yul\":3942:4308   */\n    tag_179:\n        /* \"#utility.yul\":4084:4087   */\n      0x00\n        /* \"#utility.yul\":4105:4172   */\n      tag_181\n        /* \"#utility.yul\":4169:4171   */\n      0x2f\n        /* \"#utility.yul\":4164:4167   */\n      dup4\n        /* \"#utility.yul\":4105:4172   */\n      tag_159\n      jump\t// in\n    tag_181:\n        /* \"#utility.yul\":4098:4172   */\n      swap2\n      pop\n        /* \"#utility.yul\":4181:4274   */\n      tag_182\n        /* \"#utility.yul\":4270:4273   */\n      dup3\n        /* \"#utility.yul\":4181:4274   */\n      tag_183\n      jump\t// in\n    tag_182:\n        /* \"#utility.yul\":4299:4301   */\n      0x40\n        /* \"#utility.yul\":4294:4297   */\n      dup3\n        /* \"#utility.yul\":4290:4302   */\n      add\n        /* \"#utility.yul\":4283:4302   */\n      swap1\n      pop\n        /* \"#utility.yul\":3942:4308   */\n      swap2\n      swap1\n      pop\n      jump\t// out\n        /* \"#utility.yul\":4314:4432   */\n    tag_184:\n        /* \"#utility.yul\":4401:4425   */\n      tag_186\n        /* \"#utility.yul\":4419:4424   */\n      dup2\n        /* \"#utility.yul\":4401:4425   */\n      tag_187\n      jump\t// in\n    tag_186:\n        /* \"#utility.yul\":4396:4399   */\n      dup3\n        /* \"#utility.yul\":4389:4426   */\n      mstore\n        /* \"#utility.yul\":4314:4432   */\n      pop\n      pop\n      jump\t// out\n        /* \"#utility.yul\":4438:4550   */\n    tag_188:\n        /* \"#utility.yul\":4521:4543   */\n      tag_190\n        /* \"#utility.yul\":4537:4542   */\n      dup2\n        /* \"#utility.yul\":4521:4543   */\n      tag_191\n      jump\t// in\n    tag_190:\n        /* \"#utility.yul\":4516:4519   */\n      dup3\n        /* \"#utility.yul\":4509:4544   */\n      mstore\n        /* \"#utility.yul\":4438:4550   */\n      pop\n      pop\n      jump\t// out\n        /* \"#utility.yul\":4556:4778   */\n    tag_47:\n        /* \"#utility.yul\":4649:4653   */\n      0x00\n        /* \"#utility.yul\":4687:4689   */\n      0x20\n        /* \"#utility.yul\":4676:4685   */\n      dup3\n        /* \"#utility.yul\":4672:4690   */\n      add\n        /* \"#utility.yul\":4664:4690   */\n      swap1\n      pop\n        /* \"#utility.yul\":4700:4771   */\n      tag_193\n        /* \"#utility.yul\":4768:4769   */\n      0x00\n        /* \"#utility.yul\":4757:4766   */\n      dup4\n        /* \"#utility.yul\":4753:4770   */\n      add\n        /* \"#utility.yul\":4744:4750   */\n      dup5\n        /* \"#utility.yul\":4700:4771   */\n      tag_146\n      jump\t// in\n    tag_193:\n        /* \"#utility.yul\":4556:4778   */\n      swap3\n      swap2\n      pop\n      pop\n      jump\t// out\n        /* \"#utility.yul\":4784:4994   */\n    tag_25:\n        /* \"#utility.yul\":4871:4875   */\n      0x00\n        /* \"#utility.yul\":4909:4911   */\n      0x20\n        /* \"#utility.yul\":4898:4907   */\n      dup3\n        /* \"#utility.yul\":4894:4912   */\n      add\n        /* \"#utility.yul\":4886:4912   */\n      swap1\n      pop\n        /* \"#utility.yul\":4922:4987   */\n      tag_195\n        /* \"#utility.yul\":4984:4985   */\n      0x00\n        /* \"#utility.yul\":4973:4982   */\n      dup4\n        /* \"#utility.yul\":4969:4986   */\n      add\n        /* \"#utility.yul\":4960:4966   */\n      dup5\n        /* \"#utility.yul\":4922:4987   */\n      tag_150\n      jump\t// in\n    tag_195:\n        /* \"#utility.yul\":4784:4994   */\n      swap3\n      swap2\n      pop\n      pop\n      jump\t// out\n        /* \"#utility.yul\":5000:5313   */\n    tag_19:\n        /* \"#utility.yul\":5113:5117   */\n      0x00\n        /* \"#utility.yul\":5151:5153   */\n      0x20\n        /* \"#utility.yul\":5140:5149   */\n      dup3\n        /* \"#utility.yul\":5136:5154   */\n      add\n        /* \"#utility.yul\":5128:5154   */\n      swap1\n      pop\n        /* \"#utility.yul\":5200:5209   */\n      dup2\n        /* \"#utility.yul\":5194:5198   */\n      dup2\n        /* \"#utility.yul\":5190:5210   */\n      sub\n        /* \"#utility.yul\":5186:5187   */\n      0x00\n        /* \"#utility.yul\":5175:5184   */\n      dup4\n        /* \"#utility.yul\":5171:5188   */\n      add\n        /* \"#utility.yul\":5164:5211   */\n      mstore\n        /* \"#utility.yul\":5228:5306   */\n      tag_197\n        /* \"#utility.yul\":5301:5305   */\n      dup2\n        /* \"#utility.yul\":5292:5298   */\n      dup5\n        /* \"#utility.yul\":5228:5306   */\n      tag_154\n      jump\t// in\n    tag_197:\n        /* \"#utility.yul\":5220:5306   */\n      swap1\n      pop\n        /* \"#utility.yul\":5000:5313   */\n      swap3\n      swap2\n      pop\n      pop\n      jump\t// out\n        /* \"#utility.yul\":5319:5738   */\n    tag_87:\n        /* \"#utility.yul\":5485:5489   */\n      0x00\n        /* \"#utility.yul\":5523:5525   */\n      0x20\n        /* \"#utility.yul\":5512:5521   */\n      dup3\n        /* \"#utility.yul\":5508:5526   */\n      add\n        /* \"#utility.yul\":5500:5526   */\n      swap1\n      pop\n        /* \"#utility.yul\":5572:5581   */\n      dup2\n        /* \"#utility.yul\":5566:5570   */\n      dup2\n        /* \"#utility.yul\":5562:5582   */\n      sub\n        /* \"#utility.yul\":5558:5559   */\n      0x00\n        /* \"#utility.yul\":5547:5556   */\n      dup4\n        /* \"#utility.yul\":5543:5560   */\n      add\n        /* \"#utility.yul\":5536:5583   */\n      mstore\n        /* \"#utility.yul\":5600:5731   */\n      tag_199\n        /* \"#utility.yul\":5726:5730   */\n      dup2\n        /* \"#utility.yul\":5600:5731   */\n      tag_164\n      jump\t// in\n    tag_199:\n        /* \"#utility.yul\":5592:5731   */\n      swap1\n      pop\n        /* \"#utility.yul\":5319:5738   */\n      swap2\n      swap1\n      pop\n      jump\t// out\n        /* \"#utility.yul\":5744:6163   */\n    tag_78:\n        /* \"#utility.yul\":5910:5914   */\n      0x00\n        /* \"#utility.yul\":5948:5950   */\n      0x20\n        /* \"#utility.yul\":5937:5946   */\n      dup3\n        /* \"#utility.yul\":5933:5951   */\n      add\n        /* \"#utility.yul\":5925:5951   */\n      swap1\n      pop\n        /* \"#utility.yul\":5997:6006   */\n      dup2\n        /* \"#utility.yul\":5991:5995   */\n      dup2\n        /* \"#utility.yul\":5987:6007   */\n      sub\n        /* \"#utility.yul\":5983:5984   */\n      0x00\n        /* \"#utility.yul\":5972:5981   */\n      dup4\n        /* \"#utility.yul\":5968:5985   */\n      add\n        /* \"#utility.yul\":5961:6008   */\n      mstore\n        /* \"#utility.yul\":6025:6156   */\n      tag_201\n        /* \"#utility.yul\":6151:6155   */\n      dup2\n        /* \"#utility.yul\":6025:6156   */\n      tag_169\n      jump\t// in\n    tag_201:\n        /* \"#utility.yul\":6017:6156   */\n      swap1\n      pop\n        /* \"#utility.yul\":5744:6163   */\n      swap2\n      swap1\n      pop\n      jump\t// out\n        /* \"#utility.yul\":6169:6588   */\n    tag_75:\n        /* \"#utility.yul\":6335:6339   */\n      0x00\n        /* \"#utility.yul\":6373:6375   */\n      0x20\n        /* \"#utility.yul\":6362:6371   */\n      dup3\n        /* \"#utility.yul\":6358:6376   */\n      add\n        /* \"#utility.yul\":6350:6376   */\n      swap1\n      pop\n        /* \"#utility.yul\":6422:6431   */\n      dup2\n        /* \"#utility.yul\":6416:6420   */\n      dup2\n        /* \"#utility.yul\":6412:6432   */\n      sub\n        /* \"#utility.yul\":6408:6409   */\n      0x00\n        /* \"#utility.yul\":6397:6406   */\n      dup4\n        /* \"#utility.yul\":6393:6410   */\n      add\n        /* \"#utility.yul\":6386:6433   */\n      mstore\n        /* \"#utility.yul\":6450:6581   */\n      tag_203\n        /* \"#utility.yul\":6576:6580   */\n      dup2\n        /* \"#utility.yul\":6450:6581   */\n      tag_174\n      jump\t// in\n    tag_203:\n        /* \"#utility.yul\":6442:6581   */\n      swap1\n      pop\n        /* \"#utility.yul\":6169:6588   */\n      swap2\n      swap1\n      pop\n      jump\t// out\n        /* \"#utility.yul\":6594:7013   */\n    tag_106:\n        /* \"#utility.yul\":6760:6764   */\n      0x00\n        /* \"#utility.yul\":6798:6800   */\n      0x20\n        /* \"#utility.yul\":6787:6796   */\n      dup3\n        /* \"#utility.yul\":6783:6801   */\n      add\n        /* \"#utility.yul\":6775:6801   */\n      swap1\n      pop\n        /* \"#utility.yul\":6847:6856   */\n      dup2\n        /* \"#utility.yul\":6841:6845   */\n      dup2\n        /* \"#utility.yul\":6837:6857   */\n      sub\n        /* \"#utility.yul\":6833:6834   */\n      0x00\n        /* \"#utility.yul\":6822:6831   */\n      dup4\n        /* \"#utility.yul\":6818:6835   */\n      add\n        /* \"#utility.yul\":6811:6858   */\n      mstore\n        /* \"#utility.yul\":6875:7006   */\n      tag_205\n        /* \"#utility.yul\":7001:7005   */\n      dup2\n        /* \"#utility.yul\":6875:7006   */\n      tag_179\n      jump\t// in\n    tag_205:\n        /* \"#utility.yul\":6867:7006   */\n      swap1\n      pop\n        /* \"#utility.yul\":6594:7013   */\n      swap2\n      swap1\n      pop\n      jump\t// out\n        /* \"#utility.yul\":7019:7241   */\n    tag_29:\n        /* \"#utility.yul\":7112:7116   */\n      0x00\n        /* \"#utility.yul\":7150:7152   */\n      0x20\n        /* \"#utility.yul\":7139:7148   */\n      dup3\n        /* \"#utility.yul\":7135:7153   */\n      add\n        /* \"#utility.yul\":7127:7153   */\n      swap1\n      pop\n        /* \"#utility.yul\":7163:7234   */\n      tag_207\n        /* \"#utility.yul\":7231:7232   */\n      0x00\n        /* \"#utility.yul\":7220:7229   */\n      dup4\n        /* \"#utility.yul\":7216:7233   */\n      add\n        /* \"#utility.yul\":7207:7213   */\n      dup5\n        /* \"#utility.yul\":7163:7234   */\n      tag_184\n      jump\t// in\n    tag_207:\n        /* \"#utility.yul\":7019:7241   */\n      swap3\n      swap2\n      pop\n      pop\n      jump\t// out\n        /* \"#utility.yul\":7247:7461   */\n    tag_38:\n        /* \"#utility.yul\":7336:7340   */\n      0x00\n        /* \"#utility.yul\":7374:7376   */\n      0x20\n        /* \"#utility.yul\":7363:7372   */\n      dup3\n        /* \"#utility.yul\":7359:7377   */\n      add\n        /* \"#utility.yul\":7351:7377   */\n      swap1\n      pop\n        /* \"#utility.yul\":7387:7454   */\n      tag_209\n        /* \"#utility.yul\":7451:7452   */\n      0x00\n        /* \"#utility.yul\":7440:7449   */\n      dup4\n        /* \"#utility.yul\":7436:7453   */\n      add\n        /* \"#utility.yul\":7427:7433   */\n      dup5\n        /* \"#utility.yul\":7387:7454   */\n      tag_188\n      jump\t// in\n    tag_209:\n        /* \"#utility.yul\":7247:7461   */\n      swap3\n      swap2\n      pop\n      pop\n      jump\t// out\n        /* \"#utility.yul\":7548:7647   */\n    tag_157:\n        /* \"#utility.yul\":7600:7606   */\n      0x00\n        /* \"#utility.yul\":7634:7639   */\n      dup2\n        /* \"#utility.yul\":7628:7640   */\n      mload\n        /* \"#utility.yul\":7618:7640   */\n      swap1\n      pop\n        /* \"#utility.yul\":7548:7647   */\n      swap2\n      swap1\n      pop\n      jump\t// out\n        /* \"#utility.yul\":7653:7822   */\n    tag_159:\n        /* \"#utility.yul\":7737:7748   */\n      0x00\n        /* \"#utility.yul\":7771:7777   */\n      dup3\n        /* \"#utility.yul\":7766:7769   */\n      dup3\n        /* \"#utility.yul\":7759:7778   */\n      mstore\n        /* \"#utility.yul\":7811:7815   */\n      0x20\n        /* \"#utility.yul\":7806:7809   */\n      dup3\n        /* \"#utility.yul\":7802:7816   */\n      add\n        /* \"#utility.yul\":7787:7816   */\n      swap1\n      pop\n        /* \"#utility.yul\":7653:7822   */\n      swap3\n      swap2\n      pop\n      pop\n      jump\t// out\n        /* \"#utility.yul\":7828:8133   */\n    tag_91:\n        /* \"#utility.yul\":7868:7871   */\n      0x00\n        /* \"#utility.yul\":7887:7907   */\n      tag_215\n        /* \"#utility.yul\":7905:7906   */\n      dup3\n        /* \"#utility.yul\":7887:7907   */\n      tag_187\n      jump\t// in\n    tag_215:\n        /* \"#utility.yul\":7882:7907   */\n      swap2\n      pop\n        /* \"#utility.yul\":7921:7941   */\n      tag_216\n        /* \"#utility.yul\":7939:7940   */\n      dup4\n        /* \"#utility.yul\":7921:7941   */\n      tag_187\n      jump\t// in\n    tag_216:\n        /* \"#utility.yul\":7916:7941   */\n      swap3\n      pop\n        /* \"#utility.yul\":8075:8076   */\n      dup3\n        /* \"#utility.yul\":8007:8073   */\n      0xffffffffffffffffffffffffffffffffffffffffffffffffffffffffffffffff\n        /* \"#utility.yul\":8003:8077   */\n      sub\n        /* \"#utility.yul\":8000:8001   */\n      dup3\n        /* \"#utility.yul\":7997:8078   */\n      gt\n        /* \"#utility.yul\":7994:8101   */\n      iszero\n      tag_217\n      jumpi\n        /* \"#utility.yul\":8081:8099   */\n      tag_218\n      tag_219\n      jump\t// in\n    tag_218:\n        /* \"#utility.yul\":7994:8101   */\n    tag_217:\n        /* \"#utility.yul\":8125:8126   */\n      dup3\n        /* \"#utility.yul\":8122:8123   */\n      dup3\n        /* \"#utility.yul\":8118:8127   */\n      add\n        /* \"#utility.yul\":8111:8127   */\n      swap1\n      pop\n        /* \"#utility.yul\":7828:8133   */\n      swap3\n      swap2\n      pop\n      pop\n      jump\t// out\n        /* \"#utility.yul\":8139:8330   */\n    tag_89:\n        /* \"#utility.yul\":8179:8183   */\n      0x00\n        /* \"#utility.yul\":8199:8219   */\n      tag_221\n        /* \"#utility.yul\":8217:8218   */\n      dup3\n        /* \"#utility.yul\":8199:8219   */\n      tag_187\n      jump\t// in\n    tag_221:\n        /* \"#utility.yul\":8194:8219   */\n      swap2\n      pop\n        /* \"#utility.yul\":8233:8253   */\n      tag_222\n        /* \"#utility.yul\":8251:8252   */\n      dup4\n        /* \"#utility.yul\":8233:8253   */\n      tag_187\n      jump\t// in\n    tag_222:\n        /* \"#utility.yul\":8228:8253   */\n      swap3\n      pop\n        /* \"#utility.yul\":8272:8273   */\n      dup3\n        /* \"#utility.yul\":8269:8270   */\n      dup3\n        /* \"#utility.yul\":8266:8274   */\n      lt\n        /* \"#utility.yul\":8263:8297   */\n      iszero\n      tag_223\n      jumpi\n        /* \"#utility.yul\":8277:8295   */\n      tag_224\n      tag_219\n      jump\t// in\n    tag_224:\n        /* \"#utility.yul\":8263:8297   */\n    tag_223:\n        /* \"#utility.yul\":8322:8323   */\n      dup3\n        /* \"#utility.yul\":8319:8320   */\n      dup3\n        /* \"#utility.yul\":8315:8324   */\n      sub\n        /* \"#utility.yul\":8307:8324   */\n      swap1\n      pop\n        /* \"#utility.yul\":8139:8330   */\n      swap3\n      swap2\n      pop\n      pop\n      jump\t// out\n        /* \"#utility.yul\":8336:8432   */\n    tag_149:\n        /* \"#utility.yul\":8373:8380   */\n      0x00\n        /* \"#utility.yul\":8402:8426   */\n      tag_226\n        /* \"#utility.yul\":8420:8425   */\n      dup3\n        /* \"#utility.yul\":8402:8426   */\n      tag_227\n      jump\t// in\n    tag_226:\n        /* \"#utility.yul\":8391:8426   */\n      swap1\n      pop\n        /* \"#utility.yul\":8336:8432   */\n      swap2\n      swap1\n      pop\n      jump\t// out\n        /* \"#utility.yul\":8438:8528   */\n    tag_153:\n        /* \"#utility.yul\":8472:8479   */\n      0x00\n        /* \"#utility.yul\":8515:8520   */\n      dup2\n        /* \"#utility.yul\":8508:8521   */\n      iszero\n        /* \"#utility.yul\":8501:8522   */\n      iszero\n        /* \"#utility.yul\":8490:8522   */\n      swap1\n      pop\n        /* \"#utility.yul\":8438:8528   */\n      swap2\n      swap1\n      pop\n      jump\t// out\n        /* \"#utility.yul\":8534:8660   */\n    tag_227:\n        /* \"#utility.yul\":8571:8578   */\n      0x00\n        /* \"#utility.yul\":8611:8653   */\n      0xffffffffffffffffffffffffffffffffffffffff\n        /* \"#utility.yul\":8604:8609   */\n      dup3\n        /* \"#utility.yul\":8600:8654   */\n      and\n        /* \"#utility.yul\":8589:8654   */\n      swap1\n      pop\n        /* \"#utility.yul\":8534:8660   */\n      swap2\n      swap1\n      pop\n      jump\t// out\n        /* \"#utility.yul\":8666:8743   */\n    tag_187:\n        /* \"#utility.yul\":8703:8710   */\n      0x00\n        /* \"#utility.yul\":8732:8737   */\n      dup2\n        /* \"#utility.yul\":8721:8737   */\n      swap1\n      pop\n        /* \"#utility.yul\":8666:8743   */\n      swap2\n      swap1\n      pop\n      jump\t// out\n        /* \"#utility.yul\":8749:8835   */\n    tag_191:\n        /* \"#utility.yul\":8784:8791   */\n      0x00\n        /* \"#utility.yul\":8824:8828   */\n      0xff\n        /* \"#utility.yul\":8817:8822   */\n      dup3\n        /* \"#utility.yul\":8813:8829   */\n      and\n        /* \"#utility.yul\":8802:8829   */\n      swap1\n      pop\n        /* \"#utility.yul\":8749:8835   */\n      swap2\n      swap1\n      pop\n      jump\t// out\n        /* \"#utility.yul\":8841:9148   */\n    tag_161:\n        /* \"#utility.yul\":8909:8910   */\n      0x00\n        /* \"#utility.yul\":8919:9032   */\n    tag_233:\n        /* \"#utility.yul\":8933:8939   */\n      dup4\n        /* \"#utility.yul\":8930:8931   */\n      dup2\n        /* \"#utility.yul\":8927:8940   */\n      lt\n        /* \"#utility.yul\":8919:9032   */\n      iszero\n      tag_235\n      jumpi\n        /* \"#utility.yul\":9018:9019   */\n      dup1\n        /* \"#utility.yul\":9013:9016   */\n      dup3\n        /* \"#utility.yul\":9009:9020   */\n      add\n        /* \"#utility.yul\":9003:9021   */\n      mload\n        /* \"#utility.yul\":8999:9000   */\n      dup2\n        /* \"#utility.yul\":8994:8997   */\n      dup5\n        /* \"#utility.yul\":8990:9001   */\n      add\n        /* \"#utility.yul\":8983:9022   */\n      mstore\n        /* \"#utility.yul\":8955:8957   */\n      0x20\n        /* \"#utility.yul\":8952:8953   */\n      dup2\n        /* \"#utility.yul\":8948:8958   */\n      add\n        /* \"#utility.yul\":8943:8958   */\n      swap1\n      pop\n        /* \"#utility.yul\":8919:9032   */\n      jump(tag_233)\n    tag_235:\n        /* \"#utility.yul\":9050:9056   */\n      dup4\n        /* \"#utility.yul\":9047:9048   */\n      dup2\n        /* \"#utility.yul\":9044:9057   */\n      gt\n        /* \"#utility.yul\":9041:9142   */\n      iszero\n      tag_236\n      jumpi\n        /* \"#utility.yul\":9130:9131   */\n      0x00\n        /* \"#utility.yul\":9121:9127   */\n      dup5\n        /* \"#utility.yul\":9116:9119   */\n      dup5\n        /* \"#utility.yul\":9112:9128   */\n      add\n        /* \"#utility.yul\":9105:9132   */\n      mstore\n        /* \"#utility.yul\":9041:9142   */\n    tag_236:\n        /* \"#utility.yul\":8890:9148   */\n      pop\n        /* \"#utility.yul\":8841:9148   */\n      pop\n      pop\n      pop\n      jump\t// out\n        /* \"#utility.yul\":9154:9474   */\n    tag_67:\n        /* \"#utility.yul\":9198:9204   */\n      0x00\n        /* \"#utility.yul\":9235:9236   */\n      0x02\n        /* \"#utility.yul\":9229:9233   */\n      dup3\n        /* \"#utility.yul\":9225:9237   */\n      div\n        /* \"#utility.yul\":9215:9237   */\n      swap1\n      pop\n        /* \"#utility.yul\":9282:9283   */\n      0x01\n        /* \"#utility.yul\":9276:9280   */\n      dup3\n        /* \"#utility.yul\":9272:9284   */\n      and\n        /* \"#utility.yul\":9303:9321   */\n      dup1\n        /* \"#utility.yul\":9293:9374   */\n      tag_238\n      jumpi\n        /* \"#utility.yul\":9359:9363   */\n      0x7f\n        /* \"#utility.yul\":9351:9357   */\n      dup3\n        /* \"#utility.yul\":9347:9364   */\n      and\n        /* \"#utility.yul\":9337:9364   */\n      swap2\n      pop\n        /* \"#utility.yul\":9293:9374   */\n    tag_238:\n        /* \"#utility.yul\":9421:9423   */\n      0x20\n        /* \"#utility.yul\":9413:9419   */\n      dup3\n        /* \"#utility.yul\":9410:9424   */\n      lt\n        /* \"#utility.yul\":9390:9408   */\n      dup2\n        /* \"#utility.yul\":9387:9425   */\n      eq\n        /* \"#utility.yul\":9384:9468   */\n      iszero\n      tag_239\n      jumpi\n        /* \"#utility.yul\":9440:9458   */\n      tag_240\n      tag_241\n      jump\t// in\n    tag_240:\n        /* \"#utility.yul\":9384:9468   */\n    tag_239:\n        /* \"#utility.yul\":9205:9474   */\n      pop\n        /* \"#utility.yul\":9154:9474   */\n      swap2\n      swap1\n      pop\n      jump\t// out\n        /* \"#utility.yul\":9480:9660   */\n    tag_219:\n        /* \"#utility.yul\":9528:9605   */\n      0x4e487b7100000000000000000000000000000000000000000000000000000000\n        /* \"#utility.yul\":9525:9526   */\n      0x00\n        /* \"#utility.yul\":9518:9606   */\n      mstore\n        /* \"#utility.yul\":9625:9629   */\n      0x11\n        /* \"#utility.yul\":9622:9623   */\n      0x04\n        /* \"#utility.yul\":9615:9630   */\n      mstore\n        /* \"#utility.yul\":9649:9653   */\n      0x24\n        /* \"#utility.yul\":9646:9647   */\n      0x00\n        /* \"#utility.yul\":9639:9654   */\n      revert\n        /* \"#utility.yul\":9666:9846   */\n    tag_241:\n        /* \"#utility.yul\":9714:9791   */\n      0x4e487b7100000000000000000000000000000000000000000000000000000000\n        /* \"#utility.yul\":9711:9712   */\n      0x00\n        /* \"#utility.yul\":9704:9792   */\n      mstore\n        /* \"#utility.yul\":9811:9815   */\n      0x22\n        /* \"#utility.yul\":9808:9809   */\n      0x04\n        /* \"#utility.yul\":9801:9816   */\n      mstore\n        /* \"#utility.yul\":9835:9839   */\n      0x24\n        /* \"#utility.yul\":9832:9833   */\n      0x00\n        /* \"#utility.yul\":9825:9840   */\n      revert\n        /* \"#utility.yul\":9975:10092   */\n    tag_128:\n        /* \"#utility.yul\":10084:10085   */\n      0x00\n        /* \"#utility.yul\":10081:10082   */\n      dup1\n        /* \"#utility.yul\":10074:10086   */\n      revert\n        /* \"#utility.yul\":10098:10200   */\n    tag_163:\n        /* \"#utility.yul\":10139:10145   */\n      0x00\n        /* \"#utility.yul\":10190:10192   */\n      0x1f\n        /* \"#utility.yul\":10186:10193   */\n      not\n        /* \"#utility.yul\":10181:10183   */\n      0x1f\n        /* \"#utility.yul\":10174:10179   */\n      dup4\n        /* \"#utility.yul\":10170:10184   */\n      add\n        /* \"#utility.yul\":10166:10194   */\n      and\n        /* \"#utility.yul\":10156:10194   */\n      swap1\n      pop\n        /* \"#utility.yul\":10098:10200   */\n      swap2\n      swap1\n      pop\n      jump\t// out\n        /* \"#utility.yul\":10206:10388   */\n    tag_168:\n        /* \"#utility.yul\":10346:10380   */\n      0x62616c616e6365206973206c6f776572207468616e2074686520616d6f756e74\n        /* \"#utility.yul\":10342:10343   */\n      0x00\n        /* \"#utility.yul\":10334:10340   */\n      dup3\n        /* \"#utility.yul\":10330:10344   */\n      add\n        /* \"#utility.yul\":10323:10381   */\n      mstore\n        /* \"#utility.yul\":10206:10388   */\n      pop\n      jump\t// out\n        /* \"#utility.yul\":10394:10555   */\n    tag_173:\n        /* \"#utility.yul\":10534:10547   */\n      0x6c6f772062616c616e6365000000000000000000000000000000000000000000\n        /* \"#utility.yul\":10530:10531   */\n      0x00\n        /* \"#utility.yul\":10522:10528   */\n      dup3\n        /* \"#utility.yul\":10518:10532   */\n      add\n        /* \"#utility.yul\":10511:10548   */\n      mstore\n        /* \"#utility.yul\":10394:10555   */\n      pop\n      jump\t// out\n        /* \"#utility.yul\":10561:10723   */\n    tag_178:\n        /* \"#utility.yul\":10701:10715   */\n      0x7a65726f20616464726573730000000000000000000000000000000000000000\n        /* \"#utility.yul\":10697:10698   */\n      0x00\n        /* \"#utility.yul\":10689:10695   */\n      dup3\n        /* \"#utility.yul\":10685:10699   */\n      add\n        /* \"#utility.yul\":10678:10716   */\n      mstore\n        /* \"#utility.yul\":10561:10723   */\n      pop\n      jump\t// out\n        /* \"#utility.yul\":10729:10963   */\n    tag_183:\n        /* \"#utility.yul\":10869:10903   */\n      0x72657175697265642062616c616e63652069732067726561746572207468616e\n        /* \"#utility.yul\":10865:10866   */\n      0x00\n        /* \"#utility.yul\":10857:10863   */\n      dup3\n        /* \"#utility.yul\":10853:10867   */\n      add\n        /* \"#utility.yul\":10846:10904   */\n      mstore\n        /* \"#utility.yul\":10938:10955   */\n      0x2073656e64696e6720616d6f756e740000000000000000000000000000000000\n        /* \"#utility.yul\":10933:10935   */\n      0x20\n        /* \"#utility.yul\":10925:10931   */\n      dup3\n        /* \"#utility.yul\":10921:10936   */\n      add\n        /* \"#utility.yul\":10914:10956   */\n      mstore\n        /* \"#utility.yul\":10729:10963   */\n      pop\n      jump\t// out\n        /* \"#utility.yul\":10969:11091   */\n    tag_120:\n        /* \"#utility.yul\":11042:11066   */\n      tag_253\n        /* \"#utility.yul\":11060:11065   */\n      dup2\n        /* \"#utility.yul\":11042:11066   */\n      tag_149\n      jump\t// in\n    tag_253:\n        /* \"#utility.yul\":11035:11040   */\n      dup2\n        /* \"#utility.yul\":11032:11067   */\n      eq\n        /* \"#utility.yul\":11022:11085   */\n      tag_254\n      jumpi\n        /* \"#utility.yul\":11081:11082   */\n      0x00\n        /* \"#utility.yul\":11078:11079   */\n      dup1\n        /* \"#utility.yul\":11071:11083   */\n      revert\n        /* \"#utility.yul\":11022:11085   */\n    tag_254:\n        /* \"#utility.yul\":10969:11091   */\n      pop\n      jump\t// out\n        /* \"#utility.yul\":11097:11219   */\n    tag_124:\n        /* \"#utility.yul\":11170:11194   */\n      tag_256\n        /* \"#utility.yul\":11188:11193   */\n      dup2\n        /* \"#utility.yul\":11170:11194   */\n      tag_187\n      jump\t// in\n    tag_256:\n        /* \"#utility.yul\":11163:11168   */\n      dup2\n        /* \"#utility.yul\":11160:11195   */\n      eq\n        /* \"#utility.yul\":11150:11213   */\n      tag_257\n      jumpi\n        /* \"#utility.yul\":11209:11210   */\n      0x00\n        /* \"#utility.yul\":11206:11207   */\n      dup1\n        /* \"#utility.yul\":11199:11211   */\n      revert\n        /* \"#utility.yul\":11150:11213   */\n    tag_257:\n        /* \"#utility.yul\":11097:11219   */\n      pop\n      jump\t// out\n\n    auxdata: 0xa264697066735822122000b215aacf85784596adf747f4cf37733736f24953061ac4619965eda7b575cc64736f6c63430008070033\n}\n",
				"bytecode": {
					"linkReferences": {},
					"object": "60806040523480156200001157600080fd5b5060405162001a4a38038062001a4a833981810160405281019062000037919062000260565b336000806101000a81548173ffffffffffffffffffffffffffffffffffffffff021916908373ffffffffffffffffffffffffffffffffffffffff16021790555082600190805190602001906200008f9291906200011b565b508160029080519060200190620000a89291906200011b565b506012600a620000b99190620003b4565b81620000c69190620004f1565b600381905550600354600460003373ffffffffffffffffffffffffffffffffffffffff1673ffffffffffffffffffffffffffffffffffffffff16815260200190815260200160002081905550505050620006e4565b82805462000129906200059f565b90600052602060002090601f0160209004810192826200014d576000855562000199565b82601f106200016857805160ff191683800117855562000199565b8280016001018555821562000199579182015b82811115620001985782518255916020019190600101906200017b565b5b509050620001a89190620001ac565b5090565b5b80821115620001c7576000816000905550600101620001ad565b5090565b6000620001e2620001dc8462000323565b620002fa565b9050828152602081018484840111156200020157620002006200069d565b5b6200020e84828562000569565b509392505050565b600082601f8301126200022e576200022d62000698565b5b815162000240848260208601620001cb565b91505092915050565b6000815190506200025a81620006ca565b92915050565b6000806000606084860312156200027c576200027b620006a7565b5b600084015167ffffffffffffffff8111156200029d576200029c620006a2565b5b620002ab8682870162000216565b935050602084015167ffffffffffffffff811115620002cf57620002ce620006a2565b5b620002dd8682870162000216565b9250506040620002f08682870162000249565b9150509250925092565b60006200030662000319565b9050620003148282620005d5565b919050565b6000604051905090565b600067ffffffffffffffff82111562000341576200034062000669565b5b6200034c82620006ac565b9050602081019050919050565b6000808291508390505b6001851115620003ab578086048111156200038357620003826200060b565b5b6001851615620003935780820291505b8081029050620003a385620006bd565b945062000363565b94509492505050565b6000620003c18262000552565b9150620003ce836200055c565b9250620003fd7fffffffffffffffffffffffffffffffffffffffffffffffffffffffffffffffff848462000405565b905092915050565b600082620004175760019050620004ea565b81620004275760009050620004ea565b81600181146200044057600281146200044b5762000481565b6001915050620004ea565b60ff84111562000460576200045f6200060b565b5b8360020a9150848211156200047a57620004796200060b565b5b50620004ea565b5060208310610133831016604e8410600b8410161715620004bb5782820a905083811115620004b557620004b46200060b565b5b620004ea565b620004ca848484600162000359565b92509050818404811115620004e457620004e36200060b565b5b81810290505b9392505050565b6000620004fe8262000552565b91506200050b8362000552565b9250817fffffffffffffffffffffffffffffffffffffffffffffffffffffffffffffffff04831182151516156200054757620005466200060b565b5b828202905092915050565b6000819050919050565b600060ff82169050919050565b60005b83811015620005895780820151818401526020810190506200056c565b8381111562000599576000848401525b50505050565b60006002820490506001821680620005b857607f821691505b60208210811415620005cf57620005ce6200063a565b5b50919050565b620005e082620006ac565b810181811067ffffffffffffffff8211171562000602576200060162000669565b5b80604052505050565b7f4e487b7100000000000000000000000000000000000000000000000000000000600052601160045260246000fd5b7f4e487b7100000000000000000000000000000000000000000000000000000000600052602260045260246000fd5b7f4e487b7100000000000000000000000000000000000000000000000000000000600052604160045260246000fd5b600080fd5b600080fd5b600080fd5b600080fd5b6000601f19601f8301169050919050565b60008160011c9050919050565b620006d58162000552565b8114620006e157600080fd5b50565b61135680620006f46000396000f3fe608060405234801561001057600080fd5b50600436106100b45760003560e01c8063893d20e811610071578063893d20e8146101a35780638da5cb5b146101c157806395d89b41146101df578063a9059cbb146101fd578063dd62ed3e1461022d578063f2fde38b1461025d576100b4565b806306fdde03146100b9578063095ea7b3146100d757806318160ddd1461010757806323b872dd14610125578063313ce5671461015557806370a0823114610173575b600080fd5b6100c1610279565b6040516100ce9190610f7c565b60405180910390f35b6100f160048036038101906100ec9190610e05565b610307565b6040516100fe9190610f61565b60405180910390f35b61010f6104ea565b60405161011c919061101e565b60405180910390f35b61013f600480360381019061013a9190610db2565b6104f0565b60405161014c9190610f61565b60405180910390f35b61015d610852565b60405161016a9190611039565b60405180910390f35b61018d60048036038101906101889190610d45565b610857565b60405161019a919061101e565b60405180910390f35b6101ab6108a0565b6040516101b89190610f46565b60405180910390f35b6101c96108c9565b6040516101d69190610f46565b60405180910390f35b6101e76108ed565b6040516101f49190610f7c565b60405180910390f35b61021760048036038101906102129190610e05565b61097b565b6040516102249190610f61565b60405180910390f35b61024760048036038101906102429190610d72565b610b89565b604051610254919061101e565b60405180910390f35b61027760048036038101906102729190610d45565b610c10565b005b6001805461028690611182565b80601f01602080910402602001604051908101604052809291908181526020018280546102b290611182565b80156102ff5780601f106102d4576101008083540402835291602001916102ff565b820191906000526020600020905b8154815290600101906020018083116102e257829003601f168201915b505050505081565b60008073ffffffffffffffffffffffffffffffffffffffff168373ffffffffffffffffffffffffffffffffffffffff161415610378576040517f08c379a000000000000000000000000000000000000000000000000000000000815260040161036f90610fde565b60405180910390fd5b81600460003373ffffffffffffffffffffffffffffffffffffffff1673ffffffffffffffffffffffffffffffffffffffff1681526020019081526020016000205410156103fa576040517f08c379a00000000000000000000000000000000000000000000000000000000081526004016103f190610fbe565b60405180910390fd5b81600560003373ffffffffffffffffffffffffffffffffffffffff1673ffffffffffffffffffffffffffffffffffffffff16815260200190815260200160002060008573ffffffffffffffffffffffffffffffffffffffff1673ffffffffffffffffffffffffffffffffffffffff168152602001908152602001600020819055508273ffffffffffffffffffffffffffffffffffffffff163373ffffffffffffffffffffffffffffffffffffffff167f8c5be1e5ebec7d5bd14f71427d1e84f3dd0314c0f7b2291e5b200ac8c7c3b925846040516104d8919061101e565b60405180910390a36001905092915050565b60035481565b60008073ffffffffffffffffffffffffffffffffffffffff168373ffffffffffffffffffffffffffffffffffffffff161415610561576040517f08c379a000000000000000000000000000000000000000000000000000000000815260040161055890610fde565b60405180910390fd5b6000600560008673ffffffffffffffffffffffffffffffffffffffff1673ffffffffffffffffffffffffffffffffffffffff16815260200190815260200160002060008573ffffffffffffffffffffffffffffffffffffffff1673ffffffffffffffffffffffffffffffffffffffff168152602001908152602001600020541015610621576040517f08c379a000000000000000000000000000000000000000000000000000000000815260040161061890610fde565b60405180910390fd5b81600460008673ffffffffffffffffffffffffffffffffffffffff1673ffffffffffffffffffffffffffffffffffffffff1681526020019081526020016000205410156106a3576040517f08c379a000000000000000000000000000000000000000000000000000000000815260040161069a90610f9e565b60405180910390fd5b81600460008673ffffffffffffffffffffffffffffffffffffffff1673ffffffffffffffffffffffffffffffffffffffff16815260200190815260200160002060008282546106f291906110c6565b9250508190555081600460008573ffffffffffffffffffffffffffffffffffffffff1673ffffffffffffffffffffffffffffffffffffffff16815260200190815260200160002060008282546107489190611070565b9250508190555081600560008673ffffffffffffffffffffffffffffffffffffffff1673ffffffffffffffffffffffffffffffffffffffff16815260200190815260200160002060008573ffffffffffffffffffffffffffffffffffffffff1673ffffffffffffffffffffffffffffffffffffffff16815260200190815260200160002060008282546107db91906110c6565b925050819055508273ffffffffffffffffffffffffffffffffffffffff168473ffffffffffffffffffffffffffffffffffffffff167fddf252ad1be2c89b69c2b068fc378daa952ba7f163c4a11628f55a4df523b3ef8460405161083f919061101e565b60405180910390a3600190509392505050565b601281565b6000600460008373ffffffffffffffffffffffffffffffffffffffff1673ffffffffffffffffffffffffffffffffffffffff168152602001908152602001600020549050919050565b60008060009054906101000a900473ffffffffffffffffffffffffffffffffffffffff16905090565b60008054906101000a900473ffffffffffffffffffffffffffffffffffffffff1681565b600280546108fa90611182565b80601f016020809104026020016040519081016040528092919081815260200182805461092690611182565b80156109735780601f1061094857610100808354040283529160200191610973565b820191906000526020600020905b81548152906001019060200180831161095657829003601f168201915b505050505081565b60008073ffffffffffffffffffffffffffffffffffffffff168373ffffffffffffffffffffffffffffffffffffffff1614156109ec576040517f08c379a00000000000000000000000000000000000000000000000000000000081526004016109e390610fde565b60405180910390fd5b81600460003373ffffffffffffffffffffffffffffffffffffffff1673ffffffffffffffffffffffffffffffffffffffff168152602001908152602001600020541015610a6e576040517f08c379a0000000000000000000000000000000000000000000000000000000008152600401610a6590610ffe565b60405180910390fd5b81600460003373ffffffffffffffffffffffffffffffffffffffff1673ffffffffffffffffffffffffffffffffffffffff1681526020019081526020016000206000828254610abd91906110c6565b9250508190555081600460008573ffffffffffffffffffffffffffffffffffffffff1673ffffffffffffffffffffffffffffffffffffffff1681526020019081526020016000206000828254610b139190611070565b925050819055508273ffffffffffffffffffffffffffffffffffffffff163373ffffffffffffffffffffffffffffffffffffffff167fddf252ad1be2c89b69c2b068fc378daa952ba7f163c4a11628f55a4df523b3ef84604051610b77919061101e565b60405180910390a36001905092915050565b6000600560008473ffffffffffffffffffffffffffffffffffffffff1673ffffffffffffffffffffffffffffffffffffffff16815260200190815260200160002060008373ffffffffffffffffffffffffffffffffffffffff1673ffffffffffffffffffffffffffffffffffffffff16815260200190815260200160002054905092915050565b60008054906101000a900473ffffffffffffffffffffffffffffffffffffffff1673ffffffffffffffffffffffffffffffffffffffff163373ffffffffffffffffffffffffffffffffffffffff1614610c6857600080fd5b600073ffffffffffffffffffffffffffffffffffffffff168173ffffffffffffffffffffffffffffffffffffffff161415610cd8576040517f08c379a0000000000000000000000000000000000000000000000000000000008152600401610ccf90610fde565b60405180910390fd5b806000806101000a81548173ffffffffffffffffffffffffffffffffffffffff021916908373ffffffffffffffffffffffffffffffffffffffff16021790555050565b600081359050610d2a816112f2565b92915050565b600081359050610d3f81611309565b92915050565b600060208284031215610d5b57610d5a611212565b5b6000610d6984828501610d1b565b91505092915050565b60008060408385031215610d8957610d88611212565b5b6000610d9785828601610d1b565b9250506020610da885828601610d1b565b9150509250929050565b600080600060608486031215610dcb57610dca611212565b5b6000610dd986828701610d1b565b9350506020610dea86828701610d1b565b9250506040610dfb86828701610d30565b9150509250925092565b60008060408385031215610e1c57610e1b611212565b5b6000610e2a85828601610d1b565b9250506020610e3b85828601610d30565b9150509250929050565b610e4e816110fa565b82525050565b610e5d8161110c565b82525050565b6000610e6e82611054565b610e78818561105f565b9350610e8881856020860161114f565b610e9181611217565b840191505092915050565b6000610ea960208361105f565b9150610eb482611228565b602082019050919050565b6000610ecc600b8361105f565b9150610ed782611251565b602082019050919050565b6000610eef600c8361105f565b9150610efa8261127a565b602082019050919050565b6000610f12602f8361105f565b9150610f1d826112a3565b604082019050919050565b610f3181611138565b82525050565b610f4081611142565b82525050565b6000602082019050610f5b6000830184610e45565b92915050565b6000602082019050610f766000830184610e54565b92915050565b60006020820190508181036000830152610f968184610e63565b905092915050565b60006020820190508181036000830152610fb781610e9c565b9050919050565b60006020820190508181036000830152610fd781610ebf565b9050919050565b60006020820190508181036000830152610ff781610ee2565b9050919050565b6000602082019050818103600083015261101781610f05565b9050919050565b60006020820190506110336000830184610f28565b92915050565b600060208201905061104e6000830184610f37565b92915050565b600081519050919050565b600082825260208201905092915050565b600061107b82611138565b915061108683611138565b9250827fffffffffffffffffffffffffffffffffffffffffffffffffffffffffffffffff038211156110bb576110ba6111b4565b5b828201905092915050565b60006110d182611138565b91506110dc83611138565b9250828210156110ef576110ee6111b4565b5b828203905092915050565b600061110582611118565b9050919050565b60008115159050919050565b600073ffffffffffffffffffffffffffffffffffffffff82169050919050565b6000819050919050565b600060ff82169050919050565b60005b8381101561116d578082015181840152602081019050611152565b8381111561117c576000848401525b50505050565b6000600282049050600182168061119a57607f821691505b602082108114156111ae576111ad6111e3565b5b50919050565b7f4e487b7100000000000000000000000000000000000000000000000000000000600052601160045260246000fd5b7f4e487b7100000000000000000000000000000000000000000000000000000000600052602260045260246000fd5b600080fd5b6000601f19601f8301169050919050565b7f62616c616e6365206973206c6f776572207468616e2074686520616d6f756e74600082015250565b7f6c6f772062616c616e6365000000000000000000000000000000000000000000600082015250565b7f7a65726f20616464726573730000000000000000000000000000000000000000600082015250565b7f72657175697265642062616c616e63652069732067726561746572207468616e60008201527f2073656e64696e6720616d6f756e740000000000000000000000000000000000602082015250565b6112fb816110fa565b811461130657600080fd5b50565b61131281611138565b811461131d57600080fd5b5056fea264697066735822122000b215aacf85784596adf747f4cf37733736f24953061ac4619965eda7b575cc64736f6c63430008070033",
					"opcodes": "PUSH1 0x80 PUSH1 0x40 MSTORE CALLVALUE DUP1 ISZERO PUSH3 0x11 JUMPI PUSH1 0x0 DUP1 REVERT JUMPDEST POP PUSH1 0x40 MLOAD PUSH3 0x1A4A CODESIZE SUB DUP1 PUSH3 0x1A4A DUP4 CODECOPY DUP2 DUP2 ADD PUSH1 0x40 MSTORE DUP2 ADD SWAP1 PUSH3 0x37 SWAP2 SWAP1 PUSH3 0x260 JUMP JUMPDEST CALLER PUSH1 0x0 DUP1 PUSH2 0x100 EXP DUP2 SLOAD DUP2 PUSH20 0xFFFFFFFFFFFFFFFFFFFFFFFFFFFFFFFFFFFFFFFF MUL NOT AND SWAP1 DUP4 PUSH20 0xFFFFFFFFFFFFFFFFFFFFFFFFFFFFFFFFFFFFFFFF AND MUL OR SWAP1 SSTORE POP DUP3 PUSH1 0x1 SWAP1 DUP1 MLOAD SWAP1 PUSH1 0x20 ADD SWAP1 PUSH3 0x8F SWAP3 SWAP2 SWAP1 PUSH3 0x11B JUMP JUMPDEST POP DUP2 PUSH1 0x2 SWAP1 DUP1 MLOAD SWAP1 PUSH1 0x20 ADD SWAP1 PUSH3 0xA8 SWAP3 SWAP2 SWAP1 PUSH3 0x11B JUMP JUMPDEST POP PUSH1 0x12 PUSH1 0xA PUSH3 0xB9 SWAP2 SWAP1 PUSH3 0x3B4 JUMP JUMPDEST DUP2 PUSH3 0xC6 SWAP2 SWAP1 PUSH3 0x4F1 JUMP JUMPDEST PUSH1 0x3 DUP2 SWAP1 SSTORE POP PUSH1 0x3 SLOAD PUSH1 0x4 PUSH1 0x0 CALLER PUSH20 0xFFFFFFFFFFFFFFFFFFFFFFFFFFFFFFFFFFFFFFFF AND PUSH20 0xFFFFFFFFFFFFFFFFFFFFFFFFFFFFFFFFFFFFFFFF AND DUP2 MSTORE PUSH1 0x20 ADD SWAP1 DUP2 MSTORE PUSH1 0x20 ADD PUSH1 0x0 KECCAK256 DUP2 SWAP1 SSTORE POP POP POP POP PUSH3 0x6E4 JUMP JUMPDEST DUP3 DUP1 SLOAD PUSH3 0x129 SWAP1 PUSH3 0x59F JUMP JUMPDEST SWAP1 PUSH1 0x0 MSTORE PUSH1 0x20 PUSH1 0x0 KECCAK256 SWAP1 PUSH1 0x1F ADD PUSH1 0x20 SWAP1 DIV DUP2 ADD SWAP3 DUP3 PUSH3 0x14D JUMPI PUSH1 0x0 DUP6 SSTORE PUSH3 0x199 JUMP JUMPDEST DUP3 PUSH1 0x1F LT PUSH3 0x168 JUMPI DUP1 MLOAD PUSH1 0xFF NOT AND DUP4 DUP1 ADD OR DUP6 SSTORE PUSH3 0x199 JUMP JUMPDEST DUP3 DUP1 ADD PUSH1 0x1 ADD DUP6 SSTORE DUP3 ISZERO PUSH3 0x199 JUMPI SWAP2 DUP3 ADD JUMPDEST DUP3 DUP2 GT ISZERO PUSH3 0x198 JUMPI DUP3 MLOAD DUP3 SSTORE SWAP2 PUSH1 0x20 ADD SWAP2 SWAP1 PUSH1 0x1 ADD SWAP1 PUSH3 0x17B JUMP JUMPDEST JUMPDEST POP SWAP1 POP PUSH3 0x1A8 SWAP2 SWAP1 PUSH3 0x1AC JUMP JUMPDEST POP SWAP1 JUMP JUMPDEST JUMPDEST DUP1 DUP3 GT ISZERO PUSH3 0x1C7 JUMPI PUSH1 0x0 DUP2 PUSH1 0x0 SWAP1 SSTORE POP PUSH1 0x1 ADD PUSH3 0x1AD JUMP JUMPDEST POP SWAP1 JUMP JUMPDEST PUSH1 0x0 PUSH3 0x1E2 PUSH3 0x1DC DUP5 PUSH3 0x323 JUMP JUMPDEST PUSH3 0x2FA JUMP JUMPDEST SWAP1 POP DUP3 DUP2 MSTORE PUSH1 0x20 DUP2 ADD DUP5 DUP5 DUP5 ADD GT ISZERO PUSH3 0x201 JUMPI PUSH3 0x200 PUSH3 0x69D JUMP JUMPDEST JUMPDEST PUSH3 0x20E DUP5 DUP3 DUP6 PUSH3 0x569 JUMP JUMPDEST POP SWAP4 SWAP3 POP POP POP JUMP JUMPDEST PUSH1 0x0 DUP3 PUSH1 0x1F DUP4 ADD SLT PUSH3 0x22E JUMPI PUSH3 0x22D PUSH3 0x698 JUMP JUMPDEST JUMPDEST DUP2 MLOAD PUSH3 0x240 DUP5 DUP3 PUSH1 0x20 DUP7 ADD PUSH3 0x1CB JUMP JUMPDEST SWAP2 POP POP SWAP3 SWAP2 POP POP JUMP JUMPDEST PUSH1 0x0 DUP2 MLOAD SWAP1 POP PUSH3 0x25A DUP2 PUSH3 0x6CA JUMP JUMPDEST SWAP3 SWAP2 POP POP JUMP JUMPDEST PUSH1 0x0 DUP1 PUSH1 0x0 PUSH1 0x60 DUP5 DUP7 SUB SLT ISZERO PUSH3 0x27C JUMPI PUSH3 0x27B PUSH3 0x6A7 JUMP JUMPDEST JUMPDEST PUSH1 0x0 DUP5 ADD MLOAD PUSH8 0xFFFFFFFFFFFFFFFF DUP2 GT ISZERO PUSH3 0x29D JUMPI PUSH3 0x29C PUSH3 0x6A2 JUMP JUMPDEST JUMPDEST PUSH3 0x2AB DUP7 DUP3 DUP8 ADD PUSH3 0x216 JUMP JUMPDEST SWAP4 POP POP PUSH1 0x20 DUP5 ADD MLOAD PUSH8 0xFFFFFFFFFFFFFFFF DUP2 GT ISZERO PUSH3 0x2CF JUMPI PUSH3 0x2CE PUSH3 0x6A2 JUMP JUMPDEST JUMPDEST PUSH3 0x2DD DUP7 DUP3 DUP8 ADD PUSH3 0x216 JUMP JUMPDEST SWAP3 POP POP PUSH1 0x40 PUSH3 0x2F0 DUP7 DUP3 DUP8 ADD PUSH3 0x249 JUMP JUMPDEST SWAP2 POP POP SWAP3 POP SWAP3 POP SWAP3 JUMP JUMPDEST PUSH1 0x0 PUSH3 0x306 PUSH3 0x319 JUMP JUMPDEST SWAP1 POP PUSH3 0x314 DUP3 DUP3 PUSH3 0x5D5 JUMP JUMPDEST SWAP2 SWAP1 POP JUMP JUMPDEST PUSH1 0x0 PUSH1 0x40 MLOAD SWAP1 POP SWAP1 JUMP JUMPDEST PUSH1 0x0 PUSH8 0xFFFFFFFFFFFFFFFF DUP3 GT ISZERO PUSH3 0x341 JUMPI PUSH3 0x340 PUSH3 0x669 JUMP JUMPDEST JUMPDEST PUSH3 0x34C DUP3 PUSH3 0x6AC JUMP JUMPDEST SWAP1 POP PUSH1 0x20 DUP2 ADD SWAP1 POP SWAP2 SWAP1 POP JUMP JUMPDEST PUSH1 0x0 DUP1 DUP3 SWAP2 POP DUP4 SWAP1 POP JUMPDEST PUSH1 0x1 DUP6 GT ISZERO PUSH3 0x3AB JUMPI DUP1 DUP7 DIV DUP2 GT ISZERO PUSH3 0x383 JUMPI PUSH3 0x382 PUSH3 0x60B JUMP JUMPDEST JUMPDEST PUSH1 0x1 DUP6 AND ISZERO PUSH3 0x393 JUMPI DUP1 DUP3 MUL SWAP2 POP JUMPDEST DUP1 DUP2 MUL SWAP1 POP PUSH3 0x3A3 DUP6 PUSH3 0x6BD JUMP JUMPDEST SWAP5 POP PUSH3 0x363 JUMP JUMPDEST SWAP5 POP SWAP5 SWAP3 POP POP POP JUMP JUMPDEST PUSH1 0x0 PUSH3 0x3C1 DUP3 PUSH3 0x552 JUMP JUMPDEST SWAP2 POP PUSH3 0x3CE DUP4 PUSH3 0x55C JUMP JUMPDEST SWAP3 POP PUSH3 0x3FD PUSH32 0xFFFFFFFFFFFFFFFFFFFFFFFFFFFFFFFFFFFFFFFFFFFFFFFFFFFFFFFFFFFFFFFF DUP5 DUP5 PUSH3 0x405 JUMP JUMPDEST SWAP1 POP SWAP3 SWAP2 POP POP JUMP JUMPDEST PUSH1 0x0 DUP3 PUSH3 0x417 JUMPI PUSH1 0x1 SWAP1 POP PUSH3 0x4EA JUMP JUMPDEST DUP2 PUSH3 0x427 JUMPI PUSH1 0x0 SWAP1 POP PUSH3 0x4EA JUMP JUMPDEST DUP2 PUSH1 0x1 DUP2 EQ PUSH3 0x440 JUMPI PUSH1 0x2 DUP2 EQ PUSH3 0x44B JUMPI PUSH3 0x481 JUMP JUMPDEST PUSH1 0x1 SWAP2 POP POP PUSH3 0x4EA JUMP JUMPDEST PUSH1 0xFF DUP5 GT ISZERO PUSH3 0x460 JUMPI PUSH3 0x45F PUSH3 0x60B JUMP JUMPDEST JUMPDEST DUP4 PUSH1 0x2 EXP SWAP2 POP DUP5 DUP3 GT ISZERO PUSH3 0x47A JUMPI PUSH3 0x479 PUSH3 0x60B JUMP JUMPDEST JUMPDEST POP PUSH3 0x4EA JUMP JUMPDEST POP PUSH1 0x20 DUP4 LT PUSH2 0x133 DUP4 LT AND PUSH1 0x4E DUP5 LT PUSH1 0xB DUP5 LT AND OR ISZERO PUSH3 0x4BB JUMPI DUP3 DUP3 EXP SWAP1 POP DUP4 DUP2 GT ISZERO PUSH3 0x4B5 JUMPI PUSH3 0x4B4 PUSH3 0x60B JUMP JUMPDEST JUMPDEST PUSH3 0x4EA JUMP JUMPDEST PUSH3 0x4CA DUP5 DUP5 DUP5 PUSH1 0x1 PUSH3 0x359 JUMP JUMPDEST SWAP3 POP SWAP1 POP DUP2 DUP5 DIV DUP2 GT ISZERO PUSH3 0x4E4 JUMPI PUSH3 0x4E3 PUSH3 0x60B JUMP JUMPDEST JUMPDEST DUP2 DUP2 MUL SWAP1 POP JUMPDEST SWAP4 SWAP3 POP POP POP JUMP JUMPDEST PUSH1 0x0 PUSH3 0x4FE DUP3 PUSH3 0x552 JUMP JUMPDEST SWAP2 POP PUSH3 0x50B DUP4 PUSH3 0x552 JUMP JUMPDEST SWAP3 POP DUP2 PUSH32 0xFFFFFFFFFFFFFFFFFFFFFFFFFFFFFFFFFFFFFFFFFFFFFFFFFFFFFFFFFFFFFFFF DIV DUP4 GT DUP3 ISZERO ISZERO AND ISZERO PUSH3 0x547 JUMPI PUSH3 0x546 PUSH3 0x60B JUMP JUMPDEST JUMPDEST DUP3 DUP3 MUL SWAP1 POP SWAP3 SWAP2 POP POP JUMP JUMPDEST PUSH1 0x0 DUP2 SWAP1 POP SWAP2 SWAP1 POP JUMP JUMPDEST PUSH1 0x0 PUSH1 0xFF DUP3 AND SWAP1 POP SWAP2 SWAP1 POP JUMP JUMPDEST PUSH1 0x0 JUMPDEST DUP4 DUP2 LT ISZERO PUSH3 0x589 JUMPI DUP1 DUP3 ADD MLOAD DUP2 DUP5 ADD MSTORE PUSH1 0x20 DUP2 ADD SWAP1 POP PUSH3 0x56C JUMP JUMPDEST DUP4 DUP2 GT ISZERO PUSH3 0x599 JUMPI PUSH1 0x0 DUP5 DUP5 ADD MSTORE JUMPDEST POP POP POP POP JUMP JUMPDEST PUSH1 0x0 PUSH1 0x2 DUP3 DIV SWAP1 POP PUSH1 0x1 DUP3 AND DUP1 PUSH3 0x5B8 JUMPI PUSH1 0x7F DUP3 AND SWAP2 POP JUMPDEST PUSH1 0x20 DUP3 LT DUP2 EQ ISZERO PUSH3 0x5CF JUMPI PUSH3 0x5CE PUSH3 0x63A JUMP JUMPDEST JUMPDEST POP SWAP2 SWAP1 POP JUMP JUMPDEST PUSH3 0x5E0 DUP3 PUSH3 0x6AC JUMP JUMPDEST DUP2 ADD DUP2 DUP2 LT PUSH8 0xFFFFFFFFFFFFFFFF DUP3 GT OR ISZERO PUSH3 0x602 JUMPI PUSH3 0x601 PUSH3 0x669 JUMP JUMPDEST JUMPDEST DUP1 PUSH1 0x40 MSTORE POP POP POP JUMP JUMPDEST PUSH32 0x4E487B7100000000000000000000000000000000000000000000000000000000 PUSH1 0x0 MSTORE PUSH1 0x11 PUSH1 0x4 MSTORE PUSH1 0x24 PUSH1 0x0 REVERT JUMPDEST PUSH32 0x4E487B7100000000000000000000000000000000000000000000000000000000 PUSH1 0x0 MSTORE PUSH1 0x22 PUSH1 0x4 MSTORE PUSH1 0x24 PUSH1 0x0 REVERT JUMPDEST PUSH32 0x4E487B7100000000000000000000000000000000000000000000000000000000 PUSH1 0x0 MSTORE PUSH1 0x41 PUSH1 0x4 MSTORE PUSH1 0x24 PUSH1 0x0 REVERT JUMPDEST PUSH1 0x0 DUP1 REVERT JUMPDEST PUSH1 0x0 DUP1 REVERT JUMPDEST PUSH1 0x0 DUP1 REVERT JUMPDEST PUSH1 0x0 DUP1 REVERT JUMPDEST PUSH1 0x0 PUSH1 0x1F NOT PUSH1 0x1F DUP4 ADD AND SWAP1 POP SWAP2 SWAP1 POP JUMP JUMPDEST PUSH1 0x0 DUP2 PUSH1 0x1 SHR SWAP1 POP SWAP2 SWAP1 POP JUMP JUMPDEST PUSH3 0x6D5 DUP2 PUSH3 0x552 JUMP JUMPDEST DUP2 EQ PUSH3 0x6E1 JUMPI PUSH1 0x0 DUP1 REVERT JUMPDEST POP JUMP JUMPDEST PUSH2 0x1356 DUP1 PUSH3 0x6F4 PUSH1 0x0 CODECOPY PUSH1 0x0 RETURN INVALID PUSH1 0x80 PUSH1 0x40 MSTORE CALLVALUE DUP1 ISZERO PUSH2 0x10 JUMPI PUSH1 0x0 DUP1 REVERT JUMPDEST POP PUSH1 0x4 CALLDATASIZE LT PUSH2 0xB4 JUMPI PUSH1 0x0 CALLDATALOAD PUSH1 0xE0 SHR DUP1 PUSH4 0x893D20E8 GT PUSH2 0x71 JUMPI DUP1 PUSH4 0x893D20E8 EQ PUSH2 0x1A3 JUMPI DUP1 PUSH4 0x8DA5CB5B EQ PUSH2 0x1C1 JUMPI DUP1 PUSH4 0x95D89B41 EQ PUSH2 0x1DF JUMPI DUP1 PUSH4 0xA9059CBB EQ PUSH2 0x1FD JUMPI DUP1 PUSH4 0xDD62ED3E EQ PUSH2 0x22D JUMPI DUP1 PUSH4 0xF2FDE38B EQ PUSH2 0x25D JUMPI PUSH2 0xB4 JUMP JUMPDEST DUP1 PUSH4 0x6FDDE03 EQ PUSH2 0xB9 JUMPI DUP1 PUSH4 0x95EA7B3 EQ PUSH2 0xD7 JUMPI DUP1 PUSH4 0x18160DDD EQ PUSH2 0x107 JUMPI DUP1 PUSH4 0x23B872DD EQ PUSH2 0x125 JUMPI DUP1 PUSH4 0x313CE567 EQ PUSH2 0x155 JUMPI DUP1 PUSH4 0x70A08231 EQ PUSH2 0x173 JUMPI JUMPDEST PUSH1 0x0 DUP1 REVERT JUMPDEST PUSH2 0xC1 PUSH2 0x279 JUMP JUMPDEST PUSH1 0x40 MLOAD PUSH2 0xCE SWAP2 SWAP1 PUSH2 0xF7C JUMP JUMPDEST PUSH1 0x40 MLOAD DUP1 SWAP2 SUB SWAP1 RETURN JUMPDEST PUSH2 0xF1 PUSH1 0x4 DUP1 CALLDATASIZE SUB DUP2 ADD SWAP1 PUSH2 0xEC SWAP2 SWAP1 PUSH2 0xE05 JUMP JUMPDEST PUSH2 0x307 JUMP JUMPDEST PUSH1 0x40 MLOAD PUSH2 0xFE SWAP2 SWAP1 PUSH2 0xF61 JUMP JUMPDEST PUSH1 0x40 MLOAD DUP1 SWAP2 SUB SWAP1 RETURN JUMPDEST PUSH2 0x10F PUSH2 0x4EA JUMP JUMPDEST PUSH1 0x40 MLOAD PUSH2 0x11C SWAP2 SWAP1 PUSH2 0x101E JUMP JUMPDEST PUSH1 0x40 MLOAD DUP1 SWAP2 SUB SWAP1 RETURN JUMPDEST PUSH2 0x13F PUSH1 0x4 DUP1 CALLDATASIZE SUB DUP2 ADD SWAP1 PUSH2 0x13A SWAP2 SWAP1 PUSH2 0xDB2 JUMP JUMPDEST PUSH2 0x4F0 JUMP JUMPDEST PUSH1 0x40 MLOAD PUSH2 0x14C SWAP2 SWAP1 PUSH2 0xF61 JUMP JUMPDEST PUSH1 0x40 MLOAD DUP1 SWAP2 SUB SWAP1 RETURN JUMPDEST PUSH2 0x15D PUSH2 0x852 JUMP JUMPDEST PUSH1 0x40 MLOAD PUSH2 0x16A SWAP2 SWAP1 PUSH2 0x1039 JUMP JUMPDEST PUSH1 0x40 MLOAD DUP1 SWAP2 SUB SWAP1 RETURN JUMPDEST PUSH2 0x18D PUSH1 0x4 DUP1 CALLDATASIZE SUB DUP2 ADD SWAP1 PUSH2 0x188 SWAP2 SWAP1 PUSH2 0xD45 JUMP JUMPDEST PUSH2 0x857 JUMP JUMPDEST PUSH1 0x40 MLOAD PUSH2 0x19A SWAP2 SWAP1 PUSH2 0x101E JUMP JUMPDEST PUSH1 0x40 MLOAD DUP1 SWAP2 SUB SWAP1 RETURN JUMPDEST PUSH2 0x1AB PUSH2 0x8A0 JUMP JUMPDEST PUSH1 0x40 MLOAD PUSH2 0x1B8 SWAP2 SWAP1 PUSH2 0xF46 JUMP JUMPDEST PUSH1 0x40 MLOAD DUP1 SWAP2 SUB SWAP1 RETURN JUMPDEST PUSH2 0x1C9 PUSH2 0x8C9 JUMP JUMPDEST PUSH1 0x40 MLOAD PUSH2 0x1D6 SWAP2 SWAP1 PUSH2 0xF46 JUMP JUMPDEST PUSH1 0x40 MLOAD DUP1 SWAP2 SUB SWAP1 RETURN JUMPDEST PUSH2 0x1E7 PUSH2 0x8ED JUMP JUMPDEST PUSH1 0x40 MLOAD PUSH2 0x1F4 SWAP2 SWAP1 PUSH2 0xF7C JUMP JUMPDEST PUSH1 0x40 MLOAD DUP1 SWAP2 SUB SWAP1 RETURN JUMPDEST PUSH2 0x217 PUSH1 0x4 DUP1 CALLDATASIZE SUB DUP2 ADD SWAP1 PUSH2 0x212 SWAP2 SWAP1 PUSH2 0xE05 JUMP JUMPDEST PUSH2 0x97B JUMP JUMPDEST PUSH1 0x40 MLOAD PUSH2 0x224 SWAP2 SWAP1 PUSH2 0xF61 JUMP JUMPDEST PUSH1 0x40 MLOAD DUP1 SWAP2 SUB SWAP1 RETURN JUMPDEST PUSH2 0x247 PUSH1 0x4 DUP1 CALLDATASIZE SUB DUP2 ADD SWAP1 PUSH2 0x242 SWAP2 SWAP1 PUSH2 0xD72 JUMP JUMPDEST PUSH2 0xB89 JUMP JUMPDEST PUSH1 0x40 MLOAD PUSH2 0x254 SWAP2 SWAP1 PUSH2 0x101E JUMP JUMPDEST PUSH1 0x40 MLOAD DUP1 SWAP2 SUB SWAP1 RETURN JUMPDEST PUSH2 0x277 PUSH1 0x4 DUP1 CALLDATASIZE SUB DUP2 ADD SWAP1 PUSH2 0x272 SWAP2 SWAP1 PUSH2 0xD45 JUMP JUMPDEST PUSH2 0xC10 JUMP JUMPDEST STOP JUMPDEST PUSH1 0x1 DUP1 SLOAD PUSH2 0x286 SWAP1 PUSH2 0x1182 JUMP JUMPDEST DUP1 PUSH1 0x1F ADD PUSH1 0x20 DUP1 SWAP2 DIV MUL PUSH1 0x20 ADD PUSH1 0x40 MLOAD SWAP1 DUP2 ADD PUSH1 0x40 MSTORE DUP1 SWAP3 SWAP2 SWAP1 DUP2 DUP2 MSTORE PUSH1 0x20 ADD DUP3 DUP1 SLOAD PUSH2 0x2B2 SWAP1 PUSH2 0x1182 JUMP JUMPDEST DUP1 ISZERO PUSH2 0x2FF JUMPI DUP1 PUSH1 0x1F LT PUSH2 0x2D4 JUMPI PUSH2 0x100 DUP1 DUP4 SLOAD DIV MUL DUP4 MSTORE SWAP2 PUSH1 0x20 ADD SWAP2 PUSH2 0x2FF JUMP JUMPDEST DUP3 ADD SWAP2 SWAP1 PUSH1 0x0 MSTORE PUSH1 0x20 PUSH1 0x0 KECCAK256 SWAP1 JUMPDEST DUP2 SLOAD DUP2 MSTORE SWAP1 PUSH1 0x1 ADD SWAP1 PUSH1 0x20 ADD DUP1 DUP4 GT PUSH2 0x2E2 JUMPI DUP3 SWAP1 SUB PUSH1 0x1F AND DUP3 ADD SWAP2 JUMPDEST POP POP POP POP POP DUP2 JUMP JUMPDEST PUSH1 0x0 DUP1 PUSH20 0xFFFFFFFFFFFFFFFFFFFFFFFFFFFFFFFFFFFFFFFF AND DUP4 PUSH20 0xFFFFFFFFFFFFFFFFFFFFFFFFFFFFFFFFFFFFFFFF AND EQ ISZERO PUSH2 0x378 JUMPI PUSH1 0x40 MLOAD PUSH32 0x8C379A000000000000000000000000000000000000000000000000000000000 DUP2 MSTORE PUSH1 0x4 ADD PUSH2 0x36F SWAP1 PUSH2 0xFDE JUMP JUMPDEST PUSH1 0x40 MLOAD DUP1 SWAP2 SUB SWAP1 REVERT JUMPDEST DUP2 PUSH1 0x4 PUSH1 0x0 CALLER PUSH20 0xFFFFFFFFFFFFFFFFFFFFFFFFFFFFFFFFFFFFFFFF AND PUSH20 0xFFFFFFFFFFFFFFFFFFFFFFFFFFFFFFFFFFFFFFFF AND DUP2 MSTORE PUSH1 0x20 ADD SWAP1 DUP2 MSTORE PUSH1 0x20 ADD PUSH1 0x0 KECCAK256 SLOAD LT ISZERO PUSH2 0x3FA JUMPI PUSH1 0x40 MLOAD PUSH32 0x8C379A000000000000000000000000000000000000000000000000000000000 DUP2 MSTORE PUSH1 0x4 ADD PUSH2 0x3F1 SWAP1 PUSH2 0xFBE JUMP JUMPDEST PUSH1 0x40 MLOAD DUP1 SWAP2 SUB SWAP1 REVERT JUMPDEST DUP2 PUSH1 0x5 PUSH1 0x0 CALLER PUSH20 0xFFFFFFFFFFFFFFFFFFFFFFFFFFFFFFFFFFFFFFFF AND PUSH20 0xFFFFFFFFFFFFFFFFFFFFFFFFFFFFFFFFFFFFFFFF AND DUP2 MSTORE PUSH1 0x20 ADD SWAP1 DUP2 MSTORE PUSH1 0x20 ADD PUSH1 0x0 KECCAK256 PUSH1 0x0 DUP6 PUSH20 0xFFFFFFFFFFFFFFFFFFFFFFFFFFFFFFFFFFFFFFFF AND PUSH20 0xFFFFFFFFFFFFFFFFFFFFFFFFFFFFFFFFFFFFFFFF AND DUP2 MSTORE PUSH1 0x20 ADD SWAP1 DUP2 MSTORE PUSH1 0x20 ADD PUSH1 0x0 KECCAK256 DUP2 SWAP1 SSTORE POP DUP3 PUSH20 0xFFFFFFFFFFFFFFFFFFFFFFFFFFFFFFFFFFFFFFFF AND CALLER PUSH20 0xFFFFFFFFFFFFFFFFFFFFFFFFFFFFFFFFFFFFFFFF AND PUSH32 0x8C5BE1E5EBEC7D5BD14F71427D1E84F3DD0314C0F7B2291E5B200AC8C7C3B925 DUP5 PUSH1 0x40 MLOAD PUSH2 0x4D8 SWAP2 SWAP1 PUSH2 0x101E JUMP JUMPDEST PUSH1 0x40 MLOAD DUP1 SWAP2 SUB SWAP1 LOG3 PUSH1 0x1 SWAP1 POP SWAP3 SWAP2 POP POP JUMP JUMPDEST PUSH1 0x3 SLOAD DUP2 JUMP JUMPDEST PUSH1 0x0 DUP1 PUSH20 0xFFFFFFFFFFFFFFFFFFFFFFFFFFFFFFFFFFFFFFFF AND DUP4 PUSH20 0xFFFFFFFFFFFFFFFFFFFFFFFFFFFFFFFFFFFFFFFF AND EQ ISZERO PUSH2 0x561 JUMPI PUSH1 0x40 MLOAD PUSH32 0x8C379A000000000000000000000000000000000000000000000000000000000 DUP2 MSTORE PUSH1 0x4 ADD PUSH2 0x558 SWAP1 PUSH2 0xFDE JUMP JUMPDEST PUSH1 0x40 MLOAD DUP1 SWAP2 SUB SWAP1 REVERT JUMPDEST PUSH1 0x0 PUSH1 0x5 PUSH1 0x0 DUP7 PUSH20 0xFFFFFFFFFFFFFFFFFFFFFFFFFFFFFFFFFFFFFFFF AND PUSH20 0xFFFFFFFFFFFFFFFFFFFFFFFFFFFFFFFFFFFFFFFF AND DUP2 MSTORE PUSH1 0x20 ADD SWAP1 DUP2 MSTORE PUSH1 0x20 ADD PUSH1 0x0 KECCAK256 PUSH1 0x0 DUP6 PUSH20 0xFFFFFFFFFFFFFFFFFFFFFFFFFFFFFFFFFFFFFFFF AND PUSH20 0xFFFFFFFFFFFFFFFFFFFFFFFFFFFFFFFFFFFFFFFF AND DUP2 MSTORE PUSH1 0x20 ADD SWAP1 DUP2 MSTORE PUSH1 0x20 ADD PUSH1 0x0 KECCAK256 SLOAD LT ISZERO PUSH2 0x621 JUMPI PUSH1 0x40 MLOAD PUSH32 0x8C379A000000000000000000000000000000000000000000000000000000000 DUP2 MSTORE PUSH1 0x4 ADD PUSH2 0x618 SWAP1 PUSH2 0xFDE JUMP JUMPDEST PUSH1 0x40 MLOAD DUP1 SWAP2 SUB SWAP1 REVERT JUMPDEST DUP2 PUSH1 0x4 PUSH1 0x0 DUP7 PUSH20 0xFFFFFFFFFFFFFFFFFFFFFFFFFFFFFFFFFFFFFFFF AND PUSH20 0xFFFFFFFFFFFFFFFFFFFFFFFFFFFFFFFFFFFFFFFF AND DUP2 MSTORE PUSH1 0x20 ADD SWAP1 DUP2 MSTORE PUSH1 0x20 ADD PUSH1 0x0 KECCAK256 SLOAD LT ISZERO PUSH2 0x6A3 JUMPI PUSH1 0x40 MLOAD PUSH32 0x8C379A000000000000000000000000000000000000000000000000000000000 DUP2 MSTORE PUSH1 0x4 ADD PUSH2 0x69A SWAP1 PUSH2 0xF9E JUMP JUMPDEST PUSH1 0x40 MLOAD DUP1 SWAP2 SUB SWAP1 REVERT JUMPDEST DUP2 PUSH1 0x4 PUSH1 0x0 DUP7 PUSH20 0xFFFFFFFFFFFFFFFFFFFFFFFFFFFFFFFFFFFFFFFF AND PUSH20 0xFFFFFFFFFFFFFFFFFFFFFFFFFFFFFFFFFFFFFFFF AND DUP2 MSTORE PUSH1 0x20 ADD SWAP1 DUP2 MSTORE PUSH1 0x20 ADD PUSH1 0x0 KECCAK256 PUSH1 0x0 DUP3 DUP3 SLOAD PUSH2 0x6F2 SWAP2 SWAP1 PUSH2 0x10C6 JUMP JUMPDEST SWAP3 POP POP DUP2 SWAP1 SSTORE POP DUP2 PUSH1 0x4 PUSH1 0x0 DUP6 PUSH20 0xFFFFFFFFFFFFFFFFFFFFFFFFFFFFFFFFFFFFFFFF AND PUSH20 0xFFFFFFFFFFFFFFFFFFFFFFFFFFFFFFFFFFFFFFFF AND DUP2 MSTORE PUSH1 0x20 ADD SWAP1 DUP2 MSTORE PUSH1 0x20 ADD PUSH1 0x0 KECCAK256 PUSH1 0x0 DUP3 DUP3 SLOAD PUSH2 0x748 SWAP2 SWAP1 PUSH2 0x1070 JUMP JUMPDEST SWAP3 POP POP DUP2 SWAP1 SSTORE POP DUP2 PUSH1 0x5 PUSH1 0x0 DUP7 PUSH20 0xFFFFFFFFFFFFFFFFFFFFFFFFFFFFFFFFFFFFFFFF AND PUSH20 0xFFFFFFFFFFFFFFFFFFFFFFFFFFFFFFFFFFFFFFFF AND DUP2 MSTORE PUSH1 0x20 ADD SWAP1 DUP2 MSTORE PUSH1 0x20 ADD PUSH1 0x0 KECCAK256 PUSH1 0x0 DUP6 PUSH20 0xFFFFFFFFFFFFFFFFFFFFFFFFFFFFFFFFFFFFFFFF AND PUSH20 0xFFFFFFFFFFFFFFFFFFFFFFFFFFFFFFFFFFFFFFFF AND DUP2 MSTORE PUSH1 0x20 ADD SWAP1 DUP2 MSTORE PUSH1 0x20 ADD PUSH1 0x0 KECCAK256 PUSH1 0x0 DUP3 DUP3 SLOAD PUSH2 0x7DB SWAP2 SWAP1 PUSH2 0x10C6 JUMP JUMPDEST SWAP3 POP POP DUP2 SWAP1 SSTORE POP DUP3 PUSH20 0xFFFFFFFFFFFFFFFFFFFFFFFFFFFFFFFFFFFFFFFF AND DUP5 PUSH20 0xFFFFFFFFFFFFFFFFFFFFFFFFFFFFFFFFFFFFFFFF AND PUSH32 0xDDF252AD1BE2C89B69C2B068FC378DAA952BA7F163C4A11628F55A4DF523B3EF DUP5 PUSH1 0x40 MLOAD PUSH2 0x83F SWAP2 SWAP1 PUSH2 0x101E JUMP JUMPDEST PUSH1 0x40 MLOAD DUP1 SWAP2 SUB SWAP1 LOG3 PUSH1 0x1 SWAP1 POP SWAP4 SWAP3 POP POP POP JUMP JUMPDEST PUSH1 0x12 DUP2 JUMP JUMPDEST PUSH1 0x0 PUSH1 0x4 PUSH1 0x0 DUP4 PUSH20 0xFFFFFFFFFFFFFFFFFFFFFFFFFFFFFFFFFFFFFFFF AND PUSH20 0xFFFFFFFFFFFFFFFFFFFFFFFFFFFFFFFFFFFFFFFF AND DUP2 MSTORE PUSH1 0x20 ADD SWAP1 DUP2 MSTORE PUSH1 0x20 ADD PUSH1 0x0 KECCAK256 SLOAD SWAP1 POP SWAP2 SWAP1 POP JUMP JUMPDEST PUSH1 0x0 DUP1 PUSH1 0x0 SWAP1 SLOAD SWAP1 PUSH2 0x100 EXP SWAP1 DIV PUSH20 0xFFFFFFFFFFFFFFFFFFFFFFFFFFFFFFFFFFFFFFFF AND SWAP1 POP SWAP1 JUMP JUMPDEST PUSH1 0x0 DUP1 SLOAD SWAP1 PUSH2 0x100 EXP SWAP1 DIV PUSH20 0xFFFFFFFFFFFFFFFFFFFFFFFFFFFFFFFFFFFFFFFF AND DUP2 JUMP JUMPDEST PUSH1 0x2 DUP1 SLOAD PUSH2 0x8FA SWAP1 PUSH2 0x1182 JUMP JUMPDEST DUP1 PUSH1 0x1F ADD PUSH1 0x20 DUP1 SWAP2 DIV MUL PUSH1 0x20 ADD PUSH1 0x40 MLOAD SWAP1 DUP2 ADD PUSH1 0x40 MSTORE DUP1 SWAP3 SWAP2 SWAP1 DUP2 DUP2 MSTORE PUSH1 0x20 ADD DUP3 DUP1 SLOAD PUSH2 0x926 SWAP1 PUSH2 0x1182 JUMP JUMPDEST DUP1 ISZERO PUSH2 0x973 JUMPI DUP1 PUSH1 0x1F LT PUSH2 0x948 JUMPI PUSH2 0x100 DUP1 DUP4 SLOAD DIV MUL DUP4 MSTORE SWAP2 PUSH1 0x20 ADD SWAP2 PUSH2 0x973 JUMP JUMPDEST DUP3 ADD SWAP2 SWAP1 PUSH1 0x0 MSTORE PUSH1 0x20 PUSH1 0x0 KECCAK256 SWAP1 JUMPDEST DUP2 SLOAD DUP2 MSTORE SWAP1 PUSH1 0x1 ADD SWAP1 PUSH1 0x20 ADD DUP1 DUP4 GT PUSH2 0x956 JUMPI DUP3 SWAP1 SUB PUSH1 0x1F AND DUP3 ADD SWAP2 JUMPDEST POP POP POP POP POP DUP2 JUMP JUMPDEST PUSH1 0x0 DUP1 PUSH20 0xFFFFFFFFFFFFFFFFFFFFFFFFFFFFFFFFFFFFFFFF AND DUP4 PUSH20 0xFFFFFFFFFFFFFFFFFFFFFFFFFFFFFFFFFFFFFFFF AND EQ ISZERO PUSH2 0x9EC JUMPI PUSH1 0x40 MLOAD PUSH32 0x8C379A000000000000000000000000000000000000000000000000000000000 DUP2 MSTORE PUSH1 0x4 ADD PUSH2 0x9E3 SWAP1 PUSH2 0xFDE JUMP JUMPDEST PUSH1 0x40 MLOAD DUP1 SWAP2 SUB SWAP1 REVERT JUMPDEST DUP2 PUSH1 0x4 PUSH1 0x0 CALLER PUSH20 0xFFFFFFFFFFFFFFFFFFFFFFFFFFFFFFFFFFFFFFFF AND PUSH20 0xFFFFFFFFFFFFFFFFFFFFFFFFFFFFFFFFFFFFFFFF AND DUP2 MSTORE PUSH1 0x20 ADD SWAP1 DUP2 MSTORE PUSH1 0x20 ADD PUSH1 0x0 KECCAK256 SLOAD LT ISZERO PUSH2 0xA6E JUMPI PUSH1 0x40 MLOAD PUSH32 0x8C379A000000000000000000000000000000000000000000000000000000000 DUP2 MSTORE PUSH1 0x4 ADD PUSH2 0xA65 SWAP1 PUSH2 0xFFE JUMP JUMPDEST PUSH1 0x40 MLOAD DUP1 SWAP2 SUB SWAP1 REVERT JUMPDEST DUP2 PUSH1 0x4 PUSH1 0x0 CALLER PUSH20 0xFFFFFFFFFFFFFFFFFFFFFFFFFFFFFFFFFFFFFFFF AND PUSH20 0xFFFFFFFFFFFFFFFFFFFFFFFFFFFFFFFFFFFFFFFF AND DUP2 MSTORE PUSH1 0x20 ADD SWAP1 DUP2 MSTORE PUSH1 0x20 ADD PUSH1 0x0 KECCAK256 PUSH1 0x0 DUP3 DUP3 SLOAD PUSH2 0xABD SWAP2 SWAP1 PUSH2 0x10C6 JUMP JUMPDEST SWAP3 POP POP DUP2 SWAP1 SSTORE POP DUP2 PUSH1 0x4 PUSH1 0x0 DUP6 PUSH20 0xFFFFFFFFFFFFFFFFFFFFFFFFFFFFFFFFFFFFFFFF AND PUSH20 0xFFFFFFFFFFFFFFFFFFFFFFFFFFFFFFFFFFFFFFFF AND DUP2 MSTORE PUSH1 0x20 ADD SWAP1 DUP2 MSTORE PUSH1 0x20 ADD PUSH1 0x0 KECCAK256 PUSH1 0x0 DUP3 DUP3 SLOAD PUSH2 0xB13 SWAP2 SWAP1 PUSH2 0x1070 JUMP JUMPDEST SWAP3 POP POP DUP2 SWAP1 SSTORE POP DUP3 PUSH20 0xFFFFFFFFFFFFFFFFFFFFFFFFFFFFFFFFFFFFFFFF AND CALLER PUSH20 0xFFFFFFFFFFFFFFFFFFFFFFFFFFFFFFFFFFFFFFFF AND PUSH32 0xDDF252AD1BE2C89B69C2B068FC378DAA952BA7F163C4A11628F55A4DF523B3EF DUP5 PUSH1 0x40 MLOAD PUSH2 0xB77 SWAP2 SWAP1 PUSH2 0x101E JUMP JUMPDEST PUSH1 0x40 MLOAD DUP1 SWAP2 SUB SWAP1 LOG3 PUSH1 0x1 SWAP1 POP SWAP3 SWAP2 POP POP JUMP JUMPDEST PUSH1 0x0 PUSH1 0x5 PUSH1 0x0 DUP5 PUSH20 0xFFFFFFFFFFFFFFFFFFFFFFFFFFFFFFFFFFFFFFFF AND PUSH20 0xFFFFFFFFFFFFFFFFFFFFFFFFFFFFFFFFFFFFFFFF AND DUP2 MSTORE PUSH1 0x20 ADD SWAP1 DUP2 MSTORE PUSH1 0x20 ADD PUSH1 0x0 KECCAK256 PUSH1 0x0 DUP4 PUSH20 0xFFFFFFFFFFFFFFFFFFFFFFFFFFFFFFFFFFFFFFFF AND PUSH20 0xFFFFFFFFFFFFFFFFFFFFFFFFFFFFFFFFFFFFFFFF AND DUP2 MSTORE PUSH1 0x20 ADD SWAP1 DUP2 MSTORE PUSH1 0x20 ADD PUSH1 0x0 KECCAK256 SLOAD SWAP1 POP SWAP3 SWAP2 POP POP JUMP JUMPDEST PUSH1 0x0 DUP1 SLOAD SWAP1 PUSH2 0x100 EXP SWAP1 DIV PUSH20 0xFFFFFFFFFFFFFFFFFFFFFFFFFFFFFFFFFFFFFFFF AND PUSH20 0xFFFFFFFFFFFFFFFFFFFFFFFFFFFFFFFFFFFFFFFF AND CALLER PUSH20 0xFFFFFFFFFFFFFFFFFFFFFFFFFFFFFFFFFFFFFFFF AND EQ PUSH2 0xC68 JUMPI PUSH1 0x0 DUP1 REVERT JUMPDEST PUSH1 0x0 PUSH20 0xFFFFFFFFFFFFFFFFFFFFFFFFFFFFFFFFFFFFFFFF AND DUP2 PUSH20 0xFFFFFFFFFFFFFFFFFFFFFFFFFFFFFFFFFFFFFFFF AND EQ ISZERO PUSH2 0xCD8 JUMPI PUSH1 0x40 MLOAD PUSH32 0x8C379A000000000000000000000000000000000000000000000000000000000 DUP2 MSTORE PUSH1 0x4 ADD PUSH2 0xCCF SWAP1 PUSH2 0xFDE JUMP JUMPDEST PUSH1 0x40 MLOAD DUP1 SWAP2 SUB SWAP1 REVERT JUMPDEST DUP1 PUSH1 0x0 DUP1 PUSH2 0x100 EXP DUP2 SLOAD DUP2 PUSH20 0xFFFFFFFFFFFFFFFFFFFFFFFFFFFFFFFFFFFFFFFF MUL NOT AND SWAP1 DUP4 PUSH20 0xFFFFFFFFFFFFFFFFFFFFFFFFFFFFFFFFFFFFFFFF AND MUL OR SWAP1 SSTORE POP POP JUMP JUMPDEST PUSH1 0x0 DUP2 CALLDATALOAD SWAP1 POP PUSH2 0xD2A DUP2 PUSH2 0x12F2 JUMP JUMPDEST SWAP3 SWAP2 POP POP JUMP JUMPDEST PUSH1 0x0 DUP2 CALLDATALOAD SWAP1 POP PUSH2 0xD3F DUP2 PUSH2 0x1309 JUMP JUMPDEST SWAP3 SWAP2 POP POP JUMP JUMPDEST PUSH1 0x0 PUSH1 0x20 DUP3 DUP5 SUB SLT ISZERO PUSH2 0xD5B JUMPI PUSH2 0xD5A PUSH2 0x1212 JUMP JUMPDEST JUMPDEST PUSH1 0x0 PUSH2 0xD69 DUP5 DUP3 DUP6 ADD PUSH2 0xD1B JUMP JUMPDEST SWAP2 POP POP SWAP3 SWAP2 POP POP JUMP JUMPDEST PUSH1 0x0 DUP1 PUSH1 0x40 DUP4 DUP6 SUB SLT ISZERO PUSH2 0xD89 JUMPI PUSH2 0xD88 PUSH2 0x1212 JUMP JUMPDEST JUMPDEST PUSH1 0x0 PUSH2 0xD97 DUP6 DUP3 DUP7 ADD PUSH2 0xD1B JUMP JUMPDEST SWAP3 POP POP PUSH1 0x20 PUSH2 0xDA8 DUP6 DUP3 DUP7 ADD PUSH2 0xD1B JUMP JUMPDEST SWAP2 POP POP SWAP3 POP SWAP3 SWAP1 POP JUMP JUMPDEST PUSH1 0x0 DUP1 PUSH1 0x0 PUSH1 0x60 DUP5 DUP7 SUB SLT ISZERO PUSH2 0xDCB JUMPI PUSH2 0xDCA PUSH2 0x1212 JUMP JUMPDEST JUMPDEST PUSH1 0x0 PUSH2 0xDD9 DUP7 DUP3 DUP8 ADD PUSH2 0xD1B JUMP JUMPDEST SWAP4 POP POP PUSH1 0x20 PUSH2 0xDEA DUP7 DUP3 DUP8 ADD PUSH2 0xD1B JUMP JUMPDEST SWAP3 POP POP PUSH1 0x40 PUSH2 0xDFB DUP7 DUP3 DUP8 ADD PUSH2 0xD30 JUMP JUMPDEST SWAP2 POP POP SWAP3 POP SWAP3 POP SWAP3 JUMP JUMPDEST PUSH1 0x0 DUP1 PUSH1 0x40 DUP4 DUP6 SUB SLT ISZERO PUSH2 0xE1C JUMPI PUSH2 0xE1B PUSH2 0x1212 JUMP JUMPDEST JUMPDEST PUSH1 0x0 PUSH2 0xE2A DUP6 DUP3 DUP7 ADD PUSH2 0xD1B JUMP JUMPDEST SWAP3 POP POP PUSH1 0x20 PUSH2 0xE3B DUP6 DUP3 DUP7 ADD PUSH2 0xD30 JUMP JUMPDEST SWAP2 POP POP SWAP3 POP SWAP3 SWAP1 POP JUMP JUMPDEST PUSH2 0xE4E DUP2 PUSH2 0x10FA JUMP JUMPDEST DUP3 MSTORE POP POP JUMP JUMPDEST PUSH2 0xE5D DUP2 PUSH2 0x110C JUMP JUMPDEST DUP3 MSTORE POP POP JUMP JUMPDEST PUSH1 0x0 PUSH2 0xE6E DUP3 PUSH2 0x1054 JUMP JUMPDEST PUSH2 0xE78 DUP2 DUP6 PUSH2 0x105F JUMP JUMPDEST SWAP4 POP PUSH2 0xE88 DUP2 DUP6 PUSH1 0x20 DUP7 ADD PUSH2 0x114F JUMP JUMPDEST PUSH2 0xE91 DUP2 PUSH2 0x1217 JUMP JUMPDEST DUP5 ADD SWAP2 POP POP SWAP3 SWAP2 POP POP JUMP JUMPDEST PUSH1 0x0 PUSH2 0xEA9 PUSH1 0x20 DUP4 PUSH2 0x105F JUMP JUMPDEST SWAP2 POP PUSH2 0xEB4 DUP3 PUSH2 0x1228 JUMP JUMPDEST PUSH1 0x20 DUP3 ADD SWAP1 POP SWAP2 SWAP1 POP JUMP JUMPDEST PUSH1 0x0 PUSH2 0xECC PUSH1 0xB DUP4 PUSH2 0x105F JUMP JUMPDEST SWAP2 POP PUSH2 0xED7 DUP3 PUSH2 0x1251 JUMP JUMPDEST PUSH1 0x20 DUP3 ADD SWAP1 POP SWAP2 SWAP1 POP JUMP JUMPDEST PUSH1 0x0 PUSH2 0xEEF PUSH1 0xC DUP4 PUSH2 0x105F JUMP JUMPDEST SWAP2 POP PUSH2 0xEFA DUP3 PUSH2 0x127A JUMP JUMPDEST PUSH1 0x20 DUP3 ADD SWAP1 POP SWAP2 SWAP1 POP JUMP JUMPDEST PUSH1 0x0 PUSH2 0xF12 PUSH1 0x2F DUP4 PUSH2 0x105F JUMP JUMPDEST SWAP2 POP PUSH2 0xF1D DUP3 PUSH2 0x12A3 JUMP JUMPDEST PUSH1 0x40 DUP3 ADD SWAP1 POP SWAP2 SWAP1 POP JUMP JUMPDEST PUSH2 0xF31 DUP2 PUSH2 0x1138 JUMP JUMPDEST DUP3 MSTORE POP POP JUMP JUMPDEST PUSH2 0xF40 DUP2 PUSH2 0x1142 JUMP JUMPDEST DUP3 MSTORE POP POP JUMP JUMPDEST PUSH1 0x0 PUSH1 0x20 DUP3 ADD SWAP1 POP PUSH2 0xF5B PUSH1 0x0 DUP4 ADD DUP5 PUSH2 0xE45 JUMP JUMPDEST SWAP3 SWAP2 POP POP JUMP JUMPDEST PUSH1 0x0 PUSH1 0x20 DUP3 ADD SWAP1 POP PUSH2 0xF76 PUSH1 0x0 DUP4 ADD DUP5 PUSH2 0xE54 JUMP JUMPDEST SWAP3 SWAP2 POP POP JUMP JUMPDEST PUSH1 0x0 PUSH1 0x20 DUP3 ADD SWAP1 POP DUP2 DUP2 SUB PUSH1 0x0 DUP4 ADD MSTORE PUSH2 0xF96 DUP2 DUP5 PUSH2 0xE63 JUMP JUMPDEST SWAP1 POP SWAP3 SWAP2 POP POP JUMP JUMPDEST PUSH1 0x0 PUSH1 0x20 DUP3 ADD SWAP1 POP DUP2 DUP2 SUB PUSH1 0x0 DUP4 ADD MSTORE PUSH2 0xFB7 DUP2 PUSH2 0xE9C JUMP JUMPDEST SWAP1 POP SWAP2 SWAP1 POP JUMP JUMPDEST PUSH1 0x0 PUSH1 0x20 DUP3 ADD SWAP1 POP DUP2 DUP2 SUB PUSH1 0x0 DUP4 ADD MSTORE PUSH2 0xFD7 DUP2 PUSH2 0xEBF JUMP JUMPDEST SWAP1 POP SWAP2 SWAP1 POP JUMP JUMPDEST PUSH1 0x0 PUSH1 0x20 DUP3 ADD SWAP1 POP DUP2 DUP2 SUB PUSH1 0x0 DUP4 ADD MSTORE PUSH2 0xFF7 DUP2 PUSH2 0xEE2 JUMP JUMPDEST SWAP1 POP SWAP2 SWAP1 POP JUMP JUMPDEST PUSH1 0x0 PUSH1 0x20 DUP3 ADD SWAP1 POP DUP2 DUP2 SUB PUSH1 0x0 DUP4 ADD MSTORE PUSH2 0x1017 DUP2 PUSH2 0xF05 JUMP JUMPDEST SWAP1 POP SWAP2 SWAP1 POP JUMP JUMPDEST PUSH1 0x0 PUSH1 0x20 DUP3 ADD SWAP1 POP PUSH2 0x1033 PUSH1 0x0 DUP4 ADD DUP5 PUSH2 0xF28 JUMP JUMPDEST SWAP3 SWAP2 POP POP JUMP JUMPDEST PUSH1 0x0 PUSH1 0x20 DUP3 ADD SWAP1 POP PUSH2 0x104E PUSH1 0x0 DUP4 ADD DUP5 PUSH2 0xF37 JUMP JUMPDEST SWAP3 SWAP2 POP POP JUMP JUMPDEST PUSH1 0x0 DUP2 MLOAD SWAP1 POP SWAP2 SWAP1 POP JUMP JUMPDEST PUSH1 0x0 DUP3 DUP3 MSTORE PUSH1 0x20 DUP3 ADD SWAP1 POP SWAP3 SWAP2 POP POP JUMP JUMPDEST PUSH1 0x0 PUSH2 0x107B DUP3 PUSH2 0x1138 JUMP JUMPDEST SWAP2 POP PUSH2 0x1086 DUP4 PUSH2 0x1138 JUMP JUMPDEST SWAP3 POP DUP3 PUSH32 0xFFFFFFFFFFFFFFFFFFFFFFFFFFFFFFFFFFFFFFFFFFFFFFFFFFFFFFFFFFFFFFFF SUB DUP3 GT ISZERO PUSH2 0x10BB JUMPI PUSH2 0x10BA PUSH2 0x11B4 JUMP JUMPDEST JUMPDEST DUP3 DUP3 ADD SWAP1 POP SWAP3 SWAP2 POP POP JUMP JUMPDEST PUSH1 0x0 PUSH2 0x10D1 DUP3 PUSH2 0x1138 JUMP JUMPDEST SWAP2 POP PUSH2 0x10DC DUP4 PUSH2 0x1138 JUMP JUMPDEST SWAP3 POP DUP3 DUP3 LT ISZERO PUSH2 0x10EF JUMPI PUSH2 0x10EE PUSH2 0x11B4 JUMP JUMPDEST JUMPDEST DUP3 DUP3 SUB SWAP1 POP SWAP3 SWAP2 POP POP JUMP JUMPDEST PUSH1 0x0 PUSH2 0x1105 DUP3 PUSH2 0x1118 JUMP JUMPDEST SWAP1 POP SWAP2 SWAP1 POP JUMP JUMPDEST PUSH1 0x0 DUP2 ISZERO ISZERO SWAP1 POP SWAP2 SWAP1 POP JUMP JUMPDEST PUSH1 0x0 PUSH20 0xFFFFFFFFFFFFFFFFFFFFFFFFFFFFFFFFFFFFFFFF DUP3 AND SWAP1 POP SWAP2 SWAP1 POP JUMP JUMPDEST PUSH1 0x0 DUP2 SWAP1 POP SWAP2 SWAP1 POP JUMP JUMPDEST PUSH1 0x0 PUSH1 0xFF DUP3 AND SWAP1 POP SWAP2 SWAP1 POP JUMP JUMPDEST PUSH1 0x0 JUMPDEST DUP4 DUP2 LT ISZERO PUSH2 0x116D JUMPI DUP1 DUP3 ADD MLOAD DUP2 DUP5 ADD MSTORE PUSH1 0x20 DUP2 ADD SWAP1 POP PUSH2 0x1152 JUMP JUMPDEST DUP4 DUP2 GT ISZERO PUSH2 0x117C JUMPI PUSH1 0x0 DUP5 DUP5 ADD MSTORE JUMPDEST POP POP POP POP JUMP JUMPDEST PUSH1 0x0 PUSH1 0x2 DUP3 DIV SWAP1 POP PUSH1 0x1 DUP3 AND DUP1 PUSH2 0x119A JUMPI PUSH1 0x7F DUP3 AND SWAP2 POP JUMPDEST PUSH1 0x20 DUP3 LT DUP2 EQ ISZERO PUSH2 0x11AE JUMPI PUSH2 0x11AD PUSH2 0x11E3 JUMP JUMPDEST JUMPDEST POP SWAP2 SWAP1 POP JUMP JUMPDEST PUSH32 0x4E487B7100000000000000000000000000000000000000000000000000000000 PUSH1 0x0 MSTORE PUSH1 0x11 PUSH1 0x4 MSTORE PUSH1 0x24 PUSH1 0x0 REVERT JUMPDEST PUSH32 0x4E487B7100000000000000000000000000000000000000000000000000000000 PUSH1 0x0 MSTORE PUSH1 0x22 PUSH1 0x4 MSTORE PUSH1 0x24 PUSH1 0x0 REVERT JUMPDEST PUSH1 0x0 DUP1 REVERT JUMPDEST PUSH1 0x0 PUSH1 0x1F NOT PUSH1 0x1F DUP4 ADD AND SWAP1 POP SWAP2 SWAP1 POP JUMP JUMPDEST PUSH32 0x62616C616E6365206973206C6F776572207468616E2074686520616D6F756E74 PUSH1 0x0 DUP3 ADD MSTORE POP JUMP JUMPDEST PUSH32 0x6C6F772062616C616E6365000000000000000000000000000000000000000000 PUSH1 0x0 DUP3 ADD MSTORE POP JUMP JUMPDEST PUSH32 0x7A65726F20616464726573730000000000000000000000000000000000000000 PUSH1 0x0 DUP3 ADD MSTORE POP JUMP JUMPDEST PUSH32 0x72657175697265642062616C616E63652069732067726561746572207468616E PUSH1 0x0 DUP3 ADD MSTORE PUSH32 0x2073656E64696E6720616D6F756E740000000000000000000000000000000000 PUSH1 0x20 DUP3 ADD MSTORE POP JUMP JUMPDEST PUSH2 0x12FB DUP2 PUSH2 0x10FA JUMP JUMPDEST DUP2 EQ PUSH2 0x1306 JUMPI PUSH1 0x0 DUP1 REVERT JUMPDEST POP JUMP JUMPDEST PUSH2 0x1312 DUP2 PUSH2 0x1138 JUMP JUMPDEST DUP2 EQ PUSH2 0x131D JUMPI PUSH1 0x0 DUP1 REVERT JUMPDEST POP JUMP INVALID LOG2 PUSH5 0x6970667358 0x22 SLT KECCAK256 STOP 0xB2 ISZERO 0xAA 0xCF DUP6 PUSH25 0x4596ADF747F4CF37733736F24953061AC4619965EDA7B575CC PUSH5 0x736F6C6343 STOP ADDMOD SMOD STOP CALLER "
				},
				"gasEstimates": {
					"creation": {
						"codeDepositCost": "990000",
						"executionCost": "infinite",
						"totalCost": "infinite"
					},
					"external": {
						"allowance(address,address)": "infinite",
						"approve(address,uint256)": "infinite",
						"balanceOf(address)": "2952",
						"decimals()": "424",
						"getOwner()": "2522",
						"name()": "infinite",
						"owner()": "2533",
						"symbol()": "infinite",
						"totalSupply()": "2474",
						"transfer(address,uint256)": "infinite",
						"transferFrom(address,address,uint256)": "infinite",
						"transferOwnership(address)": "27037"
					}
				},
				"methodIdentifiers": {
					"allowance(address,address)": "dd62ed3e",
					"approve(address,uint256)": "095ea7b3",
					"balanceOf(address)": "70a08231",
					"decimals()": "313ce567",
					"getOwner()": "893d20e8",
					"name()": "06fdde03",
					"owner()": "8da5cb5b",
					"symbol()": "95d89b41",
					"totalSupply()": "18160ddd",
					"transfer(address,uint256)": "a9059cbb",
					"transferFrom(address,address,uint256)": "23b872dd",
					"transferOwnership(address)": "f2fde38b"
				}
			},
			"userdoc": {
				"kind": "user",
				"methods": {},
				"version": 1
			}
		}
	}
}