{
	"contracts/Staking.sol": {
		"StakingPlatform": {
			"abi": [
				{
					"inputs": [
						{
							"internalType": "address",
							"name": "_token",
							"type": "address"
						},
						{
							"internalType": "address",
							"name": "__bountyWallet",
							"type": "address"
						}
					],
					"stateMutability": "nonpayable",
					"type": "constructor"
				},
				{
					"anonymous": false,
					"inputs": [
						{
							"indexed": false,
							"internalType": "address",
							"name": "staker",
							"type": "address"
						},
						{
							"indexed": false,
							"internalType": "uint256",
							"name": "rewardToClaim",
							"type": "uint256"
						}
					],
					"name": "Harvest",
					"type": "event"
				},
				{
					"anonymous": false,
					"inputs": [
						{
							"indexed": true,
							"internalType": "address",
							"name": "previousOwner",
							"type": "address"
						},
						{
							"indexed": true,
							"internalType": "address",
							"name": "newOwner",
							"type": "address"
						}
					],
					"name": "OwnershipTransferred",
					"type": "event"
				},
				{
					"anonymous": false,
					"inputs": [
						{
							"indexed": false,
							"internalType": "address",
							"name": "bountyWallet",
							"type": "address"
						}
					],
					"name": "SetBountyWallet",
					"type": "event"
				},
				{
					"anonymous": false,
					"inputs": [
						{
							"indexed": false,
							"internalType": "uint256",
							"name": "lockupDuration",
							"type": "uint256"
						}
					],
					"name": "SetEventPeriod",
					"type": "event"
				},
				{
					"anonymous": false,
					"inputs": [
						{
							"indexed": false,
							"internalType": "uint256",
							"name": "rewardRate",
							"type": "uint256"
						}
					],
					"name": "SetRewardRate",
					"type": "event"
				},
				{
					"anonymous": false,
					"inputs": [
						{
							"indexed": false,
							"internalType": "uint256",
							"name": "unstakingFeeRate",
							"type": "uint256"
						}
					],
					"name": "SetUnstakingFeeRate",
					"type": "event"
				},
				{
					"anonymous": false,
					"inputs": [
						{
							"indexed": false,
							"internalType": "address",
							"name": "staker",
							"type": "address"
						},
						{
							"indexed": false,
							"internalType": "uint256",
							"name": "amount",
							"type": "uint256"
						}
					],
					"name": "Staked",
					"type": "event"
				},
				{
					"anonymous": false,
					"inputs": [
						{
							"indexed": false,
							"internalType": "address",
							"name": "staker",
							"type": "address"
						},
						{
							"indexed": false,
							"internalType": "uint256",
							"name": "amount",
							"type": "uint256"
						}
					],
					"name": "Withdraw",
					"type": "event"
				},
				{
					"inputs": [],
					"name": "harvest",
					"outputs": [],
					"stateMutability": "nonpayable",
					"type": "function"
				},
				{
					"inputs": [],
					"name": "owner",
					"outputs": [
						{
							"internalType": "address",
							"name": "",
							"type": "address"
						}
					],
					"stateMutability": "view",
					"type": "function"
				},
				{
					"inputs": [],
					"name": "renounceOwnership",
					"outputs": [],
					"stateMutability": "nonpayable",
					"type": "function"
				},
				{
					"inputs": [],
					"name": "rewardAmount",
					"outputs": [
						{
							"internalType": "uint256",
							"name": "",
							"type": "uint256"
						}
					],
					"stateMutability": "view",
					"type": "function"
				},
				{
					"inputs": [],
					"name": "rewardToHarvest",
					"outputs": [
						{
							"internalType": "uint256",
							"name": "",
							"type": "uint256"
						}
					],
					"stateMutability": "view",
					"type": "function"
				},
				{
					"inputs": [
						{
							"internalType": "address",
							"name": "__bountyWallet",
							"type": "address"
						}
					],
					"name": "setBountyWallet",
					"outputs": [],
					"stateMutability": "nonpayable",
					"type": "function"
				},
				{
					"inputs": [
						{
							"internalType": "uint256",
							"name": "__eventPeriod",
							"type": "uint256"
						}
					],
					"name": "setEventPeriod",
					"outputs": [],
					"stateMutability": "nonpayable",
					"type": "function"
				},
				{
					"inputs": [
						{
							"internalType": "uint256",
							"name": "lockupTime",
							"type": "uint256"
						}
					],
					"name": "setLockupTime",
					"outputs": [],
					"stateMutability": "nonpayable",
					"type": "function"
				},
				{
					"inputs": [
						{
							"internalType": "uint256",
							"name": "__rewardRate",
							"type": "uint256"
						}
					],
					"name": "setRewardRate",
					"outputs": [],
					"stateMutability": "nonpayable",
					"type": "function"
				},
				{
					"inputs": [
						{
							"internalType": "uint256",
							"name": "__unstakingFeeRate",
							"type": "uint256"
						}
					],
					"name": "setUnstakingFeeRate",
					"outputs": [],
					"stateMutability": "nonpayable",
					"type": "function"
				},
				{
					"inputs": [
						{
							"internalType": "uint256",
							"name": "_amount",
							"type": "uint256"
						}
					],
					"name": "stake",
					"outputs": [],
					"stateMutability": "nonpayable",
					"type": "function"
				},
				{
					"inputs": [],
					"name": "stakedAmount",
					"outputs": [
						{
							"internalType": "uint256",
							"name": "",
							"type": "uint256"
						}
					],
					"stateMutability": "view",
					"type": "function"
				},
				{
					"inputs": [
						{
							"internalType": "uint256",
							"name": "_amount",
							"type": "uint256"
						},
						{
							"internalType": "uint256",
							"name": "_mode",
							"type": "uint256"
						}
					],
					"name": "startStaking",
					"outputs": [],
					"stateMutability": "nonpayable",
					"type": "function"
				},
				{
					"inputs": [],
					"name": "token",
					"outputs": [
						{
							"internalType": "contract IBEP20",
							"name": "",
							"type": "address"
						}
					],
					"stateMutability": "view",
					"type": "function"
				},
				{
					"inputs": [],
					"name": "totalStaked",
					"outputs": [
						{
							"internalType": "uint256",
							"name": "",
							"type": "uint256"
						}
					],
					"stateMutability": "view",
					"type": "function"
				},
				{
					"inputs": [
						{
							"internalType": "address",
							"name": "newOwner",
							"type": "address"
						}
					],
					"name": "transferOwnership",
					"outputs": [],
					"stateMutability": "nonpayable",
					"type": "function"
				},
				{
					"inputs": [
						{
							"internalType": "uint256",
							"name": "amount",
							"type": "uint256"
						}
					],
					"name": "withdraw",
					"outputs": [],
					"stateMutability": "nonpayable",
					"type": "function"
				}
			],
			"devdoc": {
				"kind": "dev",
				"methods": {
					"owner()": {
						"details": "Returns the address of the current owner."
					},
					"renounceOwnership()": {
						"details": "Leaves the contract without owner. It will not be possible to call `onlyOwner` functions anymore. Can only be called by the current owner. NOTE: Renouncing ownership will leave the contract without an owner, thereby removing any functionality that is only available to the owner."
					},
					"transferOwnership(address)": {
						"details": "Transfers ownership of the contract to a new account (`newOwner`). Can only be called by the current owner."
					}
				},
				"version": 1
			},
			"evm": {
				"assembly": "    /* \"contracts/Staking.sol\":260:7296  contract StakingPlatform is Ownable {\r... */\n  mstore(0x40, 0x80)\n    /* \"contracts/Staking.sol\":1552:1713  constructor(address _token, address __bountyWallet) {\r... */\n  callvalue\n  dup1\n  iszero\n  tag_1\n  jumpi\n  0x00\n  dup1\n  revert\ntag_1:\n  pop\n  mload(0x40)\n  sub(codesize, bytecodeSize)\n  dup1\n  bytecodeSize\n  dup4\n  codecopy\n  dup2\n  dup2\n  add\n  0x40\n  mstore\n  dup2\n  add\n  swap1\n  tag_2\n  swap2\n  swap1\n  tag_3\n  jump\t// in\ntag_2:\n    /* \"@openzeppelin/contracts/access/Ownable.sol\":921:953  _transferOwnership(_msgSender()) */\n  tag_7\n    /* \"@openzeppelin/contracts/access/Ownable.sol\":940:952  _msgSender() */\n  tag_8\n    /* \"@openzeppelin/contracts/access/Ownable.sol\":940:950  _msgSender */\n  shl(0x20, tag_9)\n    /* \"@openzeppelin/contracts/access/Ownable.sol\":940:952  _msgSender() */\n  0x20\n  shr\n  jump\t// in\ntag_8:\n    /* \"@openzeppelin/contracts/access/Ownable.sol\":921:939  _transferOwnership */\n  shl(0x20, tag_10)\n    /* \"@openzeppelin/contracts/access/Ownable.sol\":921:953  _transferOwnership(_msgSender()) */\n  0x20\n  shr\n  jump\t// in\ntag_7:\n    /* \"contracts/Staking.sol\":1625:1631  Init() */\n  tag_12\n    /* \"contracts/Staking.sol\":1625:1629  Init */\n  shl(0x20, tag_13)\n    /* \"contracts/Staking.sol\":1625:1631  Init() */\n  0x20\n  shr\n  jump\t// in\ntag_12:\n    /* \"contracts/Staking.sol\":1658:1672  __bountyWallet */\n  dup1\n    /* \"contracts/Staking.sol\":1642:1655  _bountyWallet */\n  0x05\n  0x00\n    /* \"contracts/Staking.sol\":1642:1672  _bountyWallet = __bountyWallet */\n  0x0100\n  exp\n  dup2\n  sload\n  dup2\n  0xffffffffffffffffffffffffffffffffffffffff\n  mul\n  not\n  and\n  swap1\n  dup4\n  0xffffffffffffffffffffffffffffffffffffffff\n  and\n  mul\n  or\n  swap1\n  sstore\n  pop\n    /* \"contracts/Staking.sol\":1698:1704  _token */\n  dup2\n    /* \"contracts/Staking.sol\":1683:1688  token */\n  0x09\n  0x00\n    /* \"contracts/Staking.sol\":1683:1705  token = IBEP20(_token) */\n  0x0100\n  exp\n  dup2\n  sload\n  dup2\n  0xffffffffffffffffffffffffffffffffffffffff\n  mul\n  not\n  and\n  swap1\n  dup4\n  0xffffffffffffffffffffffffffffffffffffffff\n  and\n  mul\n  or\n  swap1\n  sstore\n  pop\n    /* \"contracts/Staking.sol\":1552:1713  constructor(address _token, address __bountyWallet) {\r... */\n  pop\n  pop\n    /* \"contracts/Staking.sol\":260:7296  contract StakingPlatform is Ownable {\r... */\n  jump(tag_14)\n    /* \"@openzeppelin/contracts/utils/Context.sol\":640:736  function _msgSender() internal view virtual returns (address) {... */\ntag_9:\n    /* \"@openzeppelin/contracts/utils/Context.sol\":693:700  address */\n  0x00\n    /* \"@openzeppelin/contracts/utils/Context.sol\":719:729  msg.sender */\n  caller\n    /* \"@openzeppelin/contracts/utils/Context.sol\":712:729  return msg.sender */\n  swap1\n  pop\n    /* \"@openzeppelin/contracts/utils/Context.sol\":640:736  function _msgSender() internal view virtual returns (address) {... */\n  swap1\n  jump\t// out\n    /* \"@openzeppelin/contracts/access/Ownable.sol\":2270:2457  function _transferOwnership(address newOwner) internal virtual {... */\ntag_10:\n    /* \"@openzeppelin/contracts/access/Ownable.sol\":2343:2359  address oldOwner */\n  0x00\n    /* \"@openzeppelin/contracts/access/Ownable.sol\":2362:2368  _owner */\n  dup1\n  0x00\n  swap1\n  sload\n  swap1\n  0x0100\n  exp\n  swap1\n  div\n  0xffffffffffffffffffffffffffffffffffffffff\n  and\n    /* \"@openzeppelin/contracts/access/Ownable.sol\":2343:2368  address oldOwner = _owner */\n  swap1\n  pop\n    /* \"@openzeppelin/contracts/access/Ownable.sol\":2387:2395  newOwner */\n  dup2\n    /* \"@openzeppelin/contracts/access/Ownable.sol\":2378:2384  _owner */\n  0x00\n  dup1\n    /* \"@openzeppelin/contracts/access/Ownable.sol\":2378:2395  _owner = newOwner */\n  0x0100\n  exp\n  dup2\n  sload\n  dup2\n  0xffffffffffffffffffffffffffffffffffffffff\n  mul\n  not\n  and\n  swap1\n  dup4\n  0xffffffffffffffffffffffffffffffffffffffff\n  and\n  mul\n  or\n  swap1\n  sstore\n  pop\n    /* \"@openzeppelin/contracts/access/Ownable.sol\":2441:2449  newOwner */\n  dup2\n    /* \"@openzeppelin/contracts/access/Ownable.sol\":2410:2450  OwnershipTransferred(oldOwner, newOwner) */\n  0xffffffffffffffffffffffffffffffffffffffff\n  and\n    /* \"@openzeppelin/contracts/access/Ownable.sol\":2431:2439  oldOwner */\n  dup2\n    /* \"@openzeppelin/contracts/access/Ownable.sol\":2410:2450  OwnershipTransferred(oldOwner, newOwner) */\n  0xffffffffffffffffffffffffffffffffffffffff\n  and\n  0x8be0079c531659141344cd1fd0a4f28419497f9722a3daafe3b4186f6b6457e0\n  mload(0x40)\n  mload(0x40)\n  dup1\n  swap2\n  sub\n  swap1\n  log3\n    /* \"@openzeppelin/contracts/access/Ownable.sol\":2333:2457  {... */\n  pop\n    /* \"@openzeppelin/contracts/access/Ownable.sol\":2270:2457  function _transferOwnership(address newOwner) internal virtual {... */\n  pop\n  jump\t// out\n    /* \"contracts/Staking.sol\":1721:1935  function Init() internal {\r... */\ntag_13:\n    /* \"contracts/Staking.sol\":1781:1784  200 */\n  0xc8\n    /* \"contracts/Staking.sol\":1767:1778  _rewardRate */\n  0x03\n    /* \"contracts/Staking.sol\":1767:1784  _rewardRate = 200 */\n  dup2\n  swap1\n  sstore\n  pop\n    /* \"contracts/Staking.sol\":1826:1830  1500 */\n  0x05dc\n    /* \"contracts/Staking.sol\":1806:1823  _unstakingFeeRate */\n  0x01\n    /* \"contracts/Staking.sol\":1806:1830  _unstakingFeeRate = 1500 */\n  dup2\n  swap1\n  sstore\n  pop\n    /* \"contracts/Staking.sol\":1858:1861  100 */\n  0x64\n    /* \"contracts/Staking.sol\":1841:1855  _rewardFeeRate */\n  0x04\n    /* \"contracts/Staking.sol\":1841:1861  _rewardFeeRate = 100 */\n  dup2\n  swap1\n  sstore\n  pop\n    /* \"contracts/Staking.sol\":1887:1893  7 days */\n  0x093a80\n    /* \"contracts/Staking.sol\":1872:1884  _eventPeriod */\n  0x02\n    /* \"contracts/Staking.sol\":1872:1893  _eventPeriod = 7 days */\n  dup2\n  swap1\n  sstore\n  pop\n    /* \"contracts/Staking.sol\":1920:1927  90 days */\n  0x76a700\n    /* \"contracts/Staking.sol\":1904:1917  _lockupPeriod */\n  0x06\n    /* \"contracts/Staking.sol\":1904:1927  _lockupPeriod = 90 days */\n  dup2\n  swap1\n  sstore\n  pop\n    /* \"contracts/Staking.sol\":1721:1935  function Init() internal {\r... */\n  jump\t// out\n    /* \"#utility.yul\":7:150   */\ntag_19:\n    /* \"#utility.yul\":64:69   */\n  0x00\n    /* \"#utility.yul\":95:101   */\n  dup2\n    /* \"#utility.yul\":89:102   */\n  mload\n    /* \"#utility.yul\":80:102   */\n  swap1\n  pop\n    /* \"#utility.yul\":111:144   */\n  tag_21\n    /* \"#utility.yul\":138:143   */\n  dup2\n    /* \"#utility.yul\":111:144   */\n  tag_22\n  jump\t// in\ntag_21:\n    /* \"#utility.yul\":7:150   */\n  swap3\n  swap2\n  pop\n  pop\n  jump\t// out\n    /* \"#utility.yul\":156:663   */\ntag_3:\n    /* \"#utility.yul\":235:241   */\n  0x00\n    /* \"#utility.yul\":243:249   */\n  dup1\n    /* \"#utility.yul\":292:294   */\n  0x40\n    /* \"#utility.yul\":280:289   */\n  dup4\n    /* \"#utility.yul\":271:278   */\n  dup6\n    /* \"#utility.yul\":267:290   */\n  sub\n    /* \"#utility.yul\":263:295   */\n  slt\n    /* \"#utility.yul\":260:379   */\n  iszero\n  tag_24\n  jumpi\n    /* \"#utility.yul\":298:377   */\n  tag_25\n  tag_26\n  jump\t// in\ntag_25:\n    /* \"#utility.yul\":260:379   */\ntag_24:\n    /* \"#utility.yul\":418:419   */\n  0x00\n    /* \"#utility.yul\":443:507   */\n  tag_27\n    /* \"#utility.yul\":499:506   */\n  dup6\n    /* \"#utility.yul\":490:496   */\n  dup3\n    /* \"#utility.yul\":479:488   */\n  dup7\n    /* \"#utility.yul\":475:497   */\n  add\n    /* \"#utility.yul\":443:507   */\n  tag_19\n  jump\t// in\ntag_27:\n    /* \"#utility.yul\":433:507   */\n  swap3\n  pop\n    /* \"#utility.yul\":389:517   */\n  pop\n    /* \"#utility.yul\":556:558   */\n  0x20\n    /* \"#utility.yul\":582:646   */\n  tag_28\n    /* \"#utility.yul\":638:645   */\n  dup6\n    /* \"#utility.yul\":629:635   */\n  dup3\n    /* \"#utility.yul\":618:627   */\n  dup7\n    /* \"#utility.yul\":614:636   */\n  add\n    /* \"#utility.yul\":582:646   */\n  tag_19\n  jump\t// in\ntag_28:\n    /* \"#utility.yul\":572:646   */\n  swap2\n  pop\n    /* \"#utility.yul\":527:656   */\n  pop\n    /* \"#utility.yul\":156:663   */\n  swap3\n  pop\n  swap3\n  swap1\n  pop\n  jump\t// out\n    /* \"#utility.yul\":750:846   */\ntag_31:\n    /* \"#utility.yul\":787:794   */\n  0x00\n    /* \"#utility.yul\":816:840   */\n  tag_33\n    /* \"#utility.yul\":834:839   */\n  dup3\n    /* \"#utility.yul\":816:840   */\n  tag_34\n  jump\t// in\ntag_33:\n    /* \"#utility.yul\":805:840   */\n  swap1\n  pop\n    /* \"#utility.yul\":750:846   */\n  swap2\n  swap1\n  pop\n  jump\t// out\n    /* \"#utility.yul\":852:978   */\ntag_34:\n    /* \"#utility.yul\":889:896   */\n  0x00\n    /* \"#utility.yul\":929:971   */\n  0xffffffffffffffffffffffffffffffffffffffff\n    /* \"#utility.yul\":922:927   */\n  dup3\n    /* \"#utility.yul\":918:972   */\n  and\n    /* \"#utility.yul\":907:972   */\n  swap1\n  pop\n    /* \"#utility.yul\":852:978   */\n  swap2\n  swap1\n  pop\n  jump\t// out\n    /* \"#utility.yul\":1107:1224   */\ntag_26:\n    /* \"#utility.yul\":1216:1217   */\n  0x00\n    /* \"#utility.yul\":1213:1214   */\n  dup1\n    /* \"#utility.yul\":1206:1218   */\n  revert\n    /* \"#utility.yul\":1230:1352   */\ntag_22:\n    /* \"#utility.yul\":1303:1327   */\n  tag_40\n    /* \"#utility.yul\":1321:1326   */\n  dup2\n    /* \"#utility.yul\":1303:1327   */\n  tag_31\n  jump\t// in\ntag_40:\n    /* \"#utility.yul\":1296:1301   */\n  dup2\n    /* \"#utility.yul\":1293:1328   */\n  eq\n    /* \"#utility.yul\":1283:1346   */\n  tag_41\n  jumpi\n    /* \"#utility.yul\":1342:1343   */\n  0x00\n    /* \"#utility.yul\":1339:1340   */\n  dup1\n    /* \"#utility.yul\":1332:1344   */\n  revert\n    /* \"#utility.yul\":1283:1346   */\ntag_41:\n    /* \"#utility.yul\":1230:1352   */\n  pop\n  jump\t// out\n    /* \"contracts/Staking.sol\":260:7296  contract StakingPlatform is Ownable {\r... */\ntag_14:\n  dataSize(sub_0)\n  dup1\n  dataOffset(sub_0)\n  0x00\n  codecopy\n  0x00\n  return\nstop\n\nsub_0: assembly {\n        /* \"contracts/Staking.sol\":260:7296  contract StakingPlatform is Ownable {\r... */\n      mstore(0x40, 0x80)\n      callvalue\n      dup1\n      iszero\n      tag_1\n      jumpi\n      0x00\n      dup1\n      revert\n    tag_1:\n      pop\n      jumpi(tag_2, lt(calldatasize, 0x04))\n      shr(0xe0, calldataload(0x00))\n      dup1\n      0x817b1cd2\n      gt\n      tag_20\n      jumpi\n      dup1\n      0x9e447fc6\n      gt\n      tag_21\n      jumpi\n      dup1\n      0x9e447fc6\n      eq\n      tag_15\n      jumpi\n      dup1\n      0xa694fc3a\n      eq\n      tag_16\n      jumpi\n      dup1\n      0xf2fde38b\n      eq\n      tag_17\n      jumpi\n      dup1\n      0xf7b2a7be\n      eq\n      tag_18\n      jumpi\n      dup1\n      0xfc0c546a\n      eq\n      tag_19\n      jumpi\n      jump(tag_2)\n    tag_21:\n      dup1\n      0x817b1cd2\n      eq\n      tag_11\n      jumpi\n      dup1\n      0x8a9d3839\n      eq\n      tag_12\n      jumpi\n      dup1\n      0x8da5cb5b\n      eq\n      tag_13\n      jumpi\n      dup1\n      0x91e07e7a\n      eq\n      tag_14\n      jumpi\n      jump(tag_2)\n    tag_20:\n      dup1\n      0x4b77dd9e\n      gt\n      tag_22\n      jumpi\n      dup1\n      0x4b77dd9e\n      eq\n      tag_7\n      jumpi\n      dup1\n      0x5d2ec65d\n      eq\n      tag_8\n      jumpi\n      dup1\n      0x692642e7\n      eq\n      tag_9\n      jumpi\n      dup1\n      0x715018a6\n      eq\n      tag_10\n      jumpi\n      jump(tag_2)\n    tag_22:\n      dup1\n      0x2e1a7d4d\n      eq\n      tag_3\n      jumpi\n      dup1\n      0x373d6132\n      eq\n      tag_4\n      jumpi\n      dup1\n      0x4641257d\n      eq\n      tag_5\n      jumpi\n      dup1\n      0x4b62b70b\n      eq\n      tag_6\n      jumpi\n    tag_2:\n      0x00\n      dup1\n      revert\n        /* \"contracts/Staking.sol\":3724:4900  function withdraw(uint256 amount) external{\r... */\n    tag_3:\n      tag_23\n      0x04\n      dup1\n      calldatasize\n      sub\n      dup2\n      add\n      swap1\n      tag_24\n      swap2\n      swap1\n      tag_25\n      jump\t// in\n    tag_24:\n      tag_26\n      jump\t// in\n    tag_23:\n      stop\n        /* \"contracts/Staking.sol\":7040:7162  function stakedAmount() public view returns (uint256) {\r... */\n    tag_4:\n      tag_27\n      tag_28\n      jump\t// in\n    tag_27:\n      mload(0x40)\n      tag_29\n      swap2\n      swap1\n      tag_30\n      jump\t// in\n    tag_29:\n      mload(0x40)\n      dup1\n      swap2\n      sub\n      swap1\n      return\n        /* \"contracts/Staking.sol\":6381:6984  function harvest() public{\r... */\n    tag_5:\n      tag_31\n      tag_32\n      jump\t// in\n    tag_31:\n      stop\n        /* \"contracts/Staking.sol\":5960:6122  function setLockupTime(uint256 lockupTime) external onlyOwner {\r... */\n    tag_6:\n      tag_33\n      0x04\n      dup1\n      calldatasize\n      sub\n      dup2\n      add\n      swap1\n      tag_34\n      swap2\n      swap1\n      tag_25\n      jump\t// in\n    tag_34:\n      tag_35\n      jump\t// in\n    tag_33:\n      stop\n        /* \"contracts/Staking.sol\":2542:3013  function startStaking(uint256 _amount, uint256 _mode) external {\r... */\n    tag_7:\n      tag_36\n      0x04\n      dup1\n      calldatasize\n      sub\n      dup2\n      add\n      swap1\n      tag_37\n      swap2\n      swap1\n      tag_38\n      jump\t// in\n    tag_37:\n      tag_39\n      jump\t// in\n    tag_36:\n      stop\n        /* \"contracts/Staking.sol\":6181:6340  function rewardToHarvest() public view returns (uint256){\r... */\n    tag_8:\n      tag_40\n      tag_41\n      jump\t// in\n    tag_40:\n      mload(0x40)\n      tag_42\n      swap2\n      swap1\n      tag_30\n      jump\t// in\n    tag_42:\n      mload(0x40)\n      dup1\n      swap2\n      sub\n      swap1\n      return\n        /* \"contracts/Staking.sol\":5147:5395  function setEventPeriod(uint256 __eventPeriod) external onlyOwner {\r... */\n    tag_9:\n      tag_43\n      0x04\n      dup1\n      calldatasize\n      sub\n      dup2\n      add\n      swap1\n      tag_44\n      swap2\n      swap1\n      tag_25\n      jump\t// in\n    tag_44:\n      tag_45\n      jump\t// in\n    tag_43:\n      stop\n        /* \"@openzeppelin/contracts/access/Ownable.sol\":1668:1769  function renounceOwnership() public virtual onlyOwner {... */\n    tag_10:\n      tag_46\n      tag_47\n      jump\t// in\n    tag_46:\n      stop\n        /* \"contracts/Staking.sol\":1042:1068  uint256 public totalStaked */\n    tag_11:\n      tag_48\n      tag_49\n      jump\t// in\n    tag_48:\n      mload(0x40)\n      tag_50\n      swap2\n      swap1\n      tag_30\n      jump\t// in\n    tag_50:\n      mload(0x40)\n      dup1\n      swap2\n      sub\n      swap1\n      return\n        /* \"contracts/Staking.sol\":5685:5952  function setBountyWallet(address __bountyWallet) external onlyOwner {\r... */\n    tag_12:\n      tag_51\n      0x04\n      dup1\n      calldatasize\n      sub\n      dup2\n      add\n      swap1\n      tag_52\n      swap2\n      swap1\n      tag_53\n      jump\t// in\n    tag_52:\n      tag_54\n      jump\t// in\n    tag_51:\n      stop\n        /* \"@openzeppelin/contracts/access/Ownable.sol\":1036:1121  function owner() public view virtual returns (address) {... */\n    tag_13:\n      tag_55\n      tag_56\n      jump\t// in\n    tag_55:\n      mload(0x40)\n      tag_57\n      swap2\n      swap1\n      tag_58\n      jump\t// in\n    tag_57:\n      mload(0x40)\n      dup1\n      swap2\n      sub\n      swap1\n      return\n        /* \"contracts/Staking.sol\":5403:5677  function setUnstakingFeeRate(uint256 __unstakingFeeRate) external onlyOwner {\r... */\n    tag_14:\n      tag_59\n      0x04\n      dup1\n      calldatasize\n      sub\n      dup2\n      add\n      swap1\n      tag_60\n      swap2\n      swap1\n      tag_25\n      jump\t// in\n    tag_60:\n      tag_61\n      jump\t// in\n    tag_59:\n      stop\n        /* \"contracts/Staking.sol\":4912:5139  function setRewardRate(uint256 __rewardRate) external onlyOwner {\r... */\n    tag_15:\n      tag_62\n      0x04\n      dup1\n      calldatasize\n      sub\n      dup2\n      add\n      swap1\n      tag_63\n      swap2\n      swap1\n      tag_25\n      jump\t// in\n    tag_63:\n      tag_64\n      jump\t// in\n    tag_62:\n      stop\n        /* \"contracts/Staking.sol\":3077:3677  function stake(uint256 _amount) public{\r... */\n    tag_16:\n      tag_65\n      0x04\n      dup1\n      calldatasize\n      sub\n      dup2\n      add\n      swap1\n      tag_66\n      swap2\n      swap1\n      tag_25\n      jump\t// in\n    tag_66:\n      tag_67\n      jump\t// in\n    tag_65:\n      stop\n        /* \"@openzeppelin/contracts/access/Ownable.sol\":1918:2116  function transferOwnership(address newOwner) public virtual onlyOwner {... */\n    tag_17:\n      tag_68\n      0x04\n      dup1\n      calldatasize\n      sub\n      dup2\n      add\n      swap1\n      tag_69\n      swap2\n      swap1\n      tag_53\n      jump\t// in\n    tag_69:\n      tag_70\n      jump\t// in\n    tag_68:\n      stop\n        /* \"contracts/Staking.sol\":7174:7293  function rewardAmount() public view returns (uint256) {\r... */\n    tag_18:\n      tag_71\n      tag_72\n      jump\t// in\n    tag_71:\n      mload(0x40)\n      tag_73\n      swap2\n      swap1\n      tag_30\n      jump\t// in\n    tag_73:\n      mload(0x40)\n      dup1\n      swap2\n      sub\n      swap1\n      return\n        /* \"contracts/Staking.sol\":1075:1094  IBEP20 public token */\n    tag_19:\n      tag_74\n      tag_75\n      jump\t// in\n    tag_74:\n      mload(0x40)\n      tag_76\n      swap2\n      swap1\n      tag_77\n      jump\t// in\n    tag_76:\n      mload(0x40)\n      dup1\n      swap2\n      sub\n      swap1\n      return\n        /* \"contracts/Staking.sol\":3724:4900  function withdraw(uint256 amount) external{\r... */\n    tag_26:\n        /* \"contracts/Staking.sol\":3787:3808  Staker storage staker */\n      0x00\n        /* \"contracts/Staking.sol\":3811:3818  _staker */\n      0x07\n        /* \"contracts/Staking.sol\":3811:3830  _staker[msg.sender] */\n      0x00\n        /* \"contracts/Staking.sol\":3819:3829  msg.sender */\n      caller\n        /* \"contracts/Staking.sol\":3811:3830  _staker[msg.sender] */\n      0xffffffffffffffffffffffffffffffffffffffff\n      and\n      0xffffffffffffffffffffffffffffffffffffffff\n      and\n      dup2\n      mstore\n      0x20\n      add\n      swap1\n      dup2\n      mstore\n      0x20\n      add\n      0x00\n      keccak256\n        /* \"contracts/Staking.sol\":3787:3830  Staker storage staker = _staker[msg.sender] */\n      swap1\n      pop\n        /* \"contracts/Staking.sol\":3860:3861  0 */\n      0x00\n        /* \"contracts/Staking.sol\":3851:3857  amount */\n      dup3\n        /* \"contracts/Staking.sol\":3851:3861  amount > 0 */\n      gt\n        /* \"contracts/Staking.sol\":3843:3897  require(amount > 0, \"Amount should be greater than 0\") */\n      tag_79\n      jumpi\n      mload(0x40)\n      0x08c379a000000000000000000000000000000000000000000000000000000000\n      dup2\n      mstore\n      0x04\n      add\n      tag_80\n      swap1\n      tag_81\n      jump\t// in\n    tag_80:\n      mload(0x40)\n      dup1\n      swap2\n      sub\n      swap1\n      revert\n    tag_79:\n        /* \"contracts/Staking.sol\":3926:3932  staker */\n      dup1\n        /* \"contracts/Staking.sol\":3926:3945  staker.stakedAmount */\n      0x01\n      add\n      sload\n        /* \"contracts/Staking.sol\":3916:3922  amount */\n      dup3\n        /* \"contracts/Staking.sol\":3916:3945  amount <= staker.stakedAmount */\n      gt\n      iszero\n        /* \"contracts/Staking.sol\":3908:3964  require(amount <= staker.stakedAmount, \"Invalid amount\") */\n      tag_82\n      jumpi\n      mload(0x40)\n      0x08c379a000000000000000000000000000000000000000000000000000000000\n      dup2\n      mstore\n      0x04\n      add\n      tag_83\n      swap1\n      tag_84\n      jump\t// in\n    tag_83:\n      mload(0x40)\n      dup1\n      swap2\n      sub\n      swap1\n      revert\n    tag_82:\n        /* \"contracts/Staking.sol\":3977:3991  updateReward() */\n      tag_85\n        /* \"contracts/Staking.sol\":3977:3989  updateReward */\n      tag_86\n        /* \"contracts/Staking.sol\":3977:3991  updateReward() */\n      jump\t// in\n    tag_85:\n        /* \"contracts/Staking.sol\":4002:4029  uint256 amountTobeWithdrawn */\n      0x00\n        /* \"contracts/Staking.sol\":4041:4046  token */\n      0x09\n      0x00\n      swap1\n      sload\n      swap1\n      0x0100\n      exp\n      swap1\n      div\n      0xffffffffffffffffffffffffffffffffffffffff\n      and\n        /* \"contracts/Staking.sol\":4041:4056  token.balanceOf */\n      0xffffffffffffffffffffffffffffffffffffffff\n      and\n      0x70a08231\n        /* \"contracts/Staking.sol\":4065:4069  this */\n      address\n        /* \"contracts/Staking.sol\":4041:4071  token.balanceOf(address(this)) */\n      mload(0x40)\n      dup3\n      0xffffffff\n      and\n      0xe0\n      shl\n      dup2\n      mstore\n      0x04\n      add\n      tag_87\n      swap2\n      swap1\n      tag_58\n      jump\t// in\n    tag_87:\n      0x20\n      mload(0x40)\n      dup1\n      dup4\n      sub\n      dup2\n      dup7\n      dup1\n      extcodesize\n      iszero\n      dup1\n      iszero\n      tag_88\n      jumpi\n      0x00\n      dup1\n      revert\n    tag_88:\n      pop\n      gas\n      staticcall\n      iszero\n      dup1\n      iszero\n      tag_90\n      jumpi\n      returndatasize\n      0x00\n      dup1\n      returndatacopy\n      revert(0x00, returndatasize)\n    tag_90:\n      pop\n      pop\n      pop\n      pop\n      mload(0x40)\n      returndatasize\n      not(0x1f)\n      0x1f\n      dup3\n      add\n      and\n      dup3\n      add\n      dup1\n      0x40\n      mstore\n      pop\n      dup2\n      add\n      swap1\n      tag_91\n      swap2\n      swap1\n      tag_92\n      jump\t// in\n    tag_91:\n        /* \"contracts/Staking.sol\":4032:4038  amount */\n      dup4\n        /* \"contracts/Staking.sol\":4032:4071  amount < token.balanceOf(address(this)) */\n      lt\n        /* \"contracts/Staking.sol\":4032:4113  amount < token.balanceOf(address(this)) ? amount : token.balanceOf(address(this)) */\n      tag_93\n      jumpi\n        /* \"contracts/Staking.sol\":4083:4088  token */\n      0x09\n      0x00\n      swap1\n      sload\n      swap1\n      0x0100\n      exp\n      swap1\n      div\n      0xffffffffffffffffffffffffffffffffffffffff\n      and\n        /* \"contracts/Staking.sol\":4083:4098  token.balanceOf */\n      0xffffffffffffffffffffffffffffffffffffffff\n      and\n      0x70a08231\n        /* \"contracts/Staking.sol\":4107:4111  this */\n      address\n        /* \"contracts/Staking.sol\":4083:4113  token.balanceOf(address(this)) */\n      mload(0x40)\n      dup3\n      0xffffffff\n      and\n      0xe0\n      shl\n      dup2\n      mstore\n      0x04\n      add\n      tag_94\n      swap2\n      swap1\n      tag_58\n      jump\t// in\n    tag_94:\n      0x20\n      mload(0x40)\n      dup1\n      dup4\n      sub\n      dup2\n      dup7\n      dup1\n      extcodesize\n      iszero\n      dup1\n      iszero\n      tag_95\n      jumpi\n      0x00\n      dup1\n      revert\n    tag_95:\n      pop\n      gas\n      staticcall\n      iszero\n      dup1\n      iszero\n      tag_97\n      jumpi\n      returndatasize\n      0x00\n      dup1\n      returndatacopy\n      revert(0x00, returndatasize)\n    tag_97:\n      pop\n      pop\n      pop\n      pop\n      mload(0x40)\n      returndatasize\n      not(0x1f)\n      0x1f\n      dup3\n      add\n      and\n      dup3\n      add\n      dup1\n      0x40\n      mstore\n      pop\n      dup2\n      add\n      swap1\n      tag_98\n      swap2\n      swap1\n      tag_92\n      jump\t// in\n    tag_98:\n        /* \"contracts/Staking.sol\":4032:4113  amount < token.balanceOf(address(this)) ? amount : token.balanceOf(address(this)) */\n      jump(tag_99)\n    tag_93:\n        /* \"contracts/Staking.sol\":4074:4080  amount */\n      dup3\n        /* \"contracts/Staking.sol\":4032:4113  amount < token.balanceOf(address(this)) ? amount : token.balanceOf(address(this)) */\n    tag_99:\n        /* \"contracts/Staking.sol\":4002:4113  uint256 amountTobeWithdrawn = amount < token.balanceOf(address(this)) ? amount : token.balanceOf(address(this)) */\n      swap1\n      pop\n        /* \"contracts/Staking.sol\":4124:4138  uint256 during */\n      0x00\n        /* \"contracts/Staking.sol\":4141:4195  block.timestamp.sub(staker.stakeStartTime).div(1 days) */\n      tag_100\n        /* \"contracts/Staking.sol\":4188:4194  1 days */\n      0x015180\n        /* \"contracts/Staking.sol\":4141:4183  block.timestamp.sub(staker.stakeStartTime) */\n      tag_101\n        /* \"contracts/Staking.sol\":4161:4167  staker */\n      dup6\n        /* \"contracts/Staking.sol\":4161:4182  staker.stakeStartTime */\n      0x03\n      add\n      sload\n        /* \"contracts/Staking.sol\":4141:4156  block.timestamp */\n      timestamp\n        /* \"contracts/Staking.sol\":4141:4160  block.timestamp.sub */\n      tag_102\n      swap1\n        /* \"contracts/Staking.sol\":4141:4183  block.timestamp.sub(staker.stakeStartTime) */\n      swap2\n      swap1\n      0xffffffff\n      and\n      jump\t// in\n    tag_101:\n        /* \"contracts/Staking.sol\":4141:4187  block.timestamp.sub(staker.stakeStartTime).div */\n      tag_103\n      swap1\n        /* \"contracts/Staking.sol\":4141:4195  block.timestamp.sub(staker.stakeStartTime).div(1 days) */\n      swap2\n      swap1\n      0xffffffff\n      and\n      jump\t// in\n    tag_100:\n        /* \"contracts/Staking.sol\":4124:4195  uint256 during = block.timestamp.sub(staker.stakeStartTime).div(1 days) */\n      swap1\n      pop\n        /* \"contracts/Staking.sol\":4206:4217  uint256 fee */\n      0x00\n        /* \"contracts/Staking.sol\":4220:4223  100 */\n      0x64\n        /* \"contracts/Staking.sol\":4206:4223  uint256 fee = 100 */\n      swap1\n      pop\n        /* \"contracts/Staking.sol\":4234:4255  bool isLockupTimeOver */\n      0x00\n        /* \"contracts/Staking.sol\":4273:4274  1 */\n      0x01\n        /* \"contracts/Staking.sol\":4258:4264  staker */\n      dup6\n        /* \"contracts/Staking.sol\":4258:4269  staker.mode */\n      0x02\n      add\n      sload\n        /* \"contracts/Staking.sol\":4258:4274  staker.mode == 1 */\n      eq\n        /* \"contracts/Staking.sol\":4258:4392  staker.mode == 1 ? during % _eventPeriod == 0 && during > 0 :\r... */\n      tag_104\n      jumpi\n        /* \"contracts/Staking.sol\":4352:4392  staker.stakeStartTime.add(_lockupPeriod) */\n      tag_105\n        /* \"contracts/Staking.sol\":4378:4391  _lockupPeriod */\n      sload(0x06)\n        /* \"contracts/Staking.sol\":4352:4358  staker */\n      dup7\n        /* \"contracts/Staking.sol\":4352:4373  staker.stakeStartTime */\n      0x03\n      add\n      sload\n        /* \"contracts/Staking.sol\":4352:4377  staker.stakeStartTime.add */\n      tag_106\n      swap1\n        /* \"contracts/Staking.sol\":4352:4392  staker.stakeStartTime.add(_lockupPeriod) */\n      swap2\n      swap1\n      0xffffffff\n      and\n      jump\t// in\n    tag_105:\n        /* \"contracts/Staking.sol\":4333:4348  block.timestamp */\n      timestamp\n        /* \"contracts/Staking.sol\":4333:4392  block.timestamp >= staker.stakeStartTime.add(_lockupPeriod) */\n      lt\n      iszero\n        /* \"contracts/Staking.sol\":4258:4392  staker.mode == 1 ? during % _eventPeriod == 0 && during > 0 :\r... */\n      jump(tag_107)\n    tag_104:\n        /* \"contracts/Staking.sol\":4302:4303  0 */\n      0x00\n        /* \"contracts/Staking.sol\":4286:4298  _eventPeriod */\n      sload(0x02)\n        /* \"contracts/Staking.sol\":4277:4283  during */\n      dup5\n        /* \"contracts/Staking.sol\":4277:4298  during % _eventPeriod */\n      tag_108\n      swap2\n      swap1\n      tag_109\n      jump\t// in\n    tag_108:\n        /* \"contracts/Staking.sol\":4277:4303  during % _eventPeriod == 0 */\n      eq\n        /* \"contracts/Staking.sol\":4277:4317  during % _eventPeriod == 0 && during > 0 */\n      dup1\n      iszero\n      tag_110\n      jumpi\n      pop\n        /* \"contracts/Staking.sol\":4316:4317  0 */\n      0x00\n        /* \"contracts/Staking.sol\":4307:4313  during */\n      dup4\n        /* \"contracts/Staking.sol\":4307:4317  during > 0 */\n      gt\n        /* \"contracts/Staking.sol\":4277:4317  during % _eventPeriod == 0 && during > 0 */\n    tag_110:\n        /* \"contracts/Staking.sol\":4258:4392  staker.mode == 1 ? during % _eventPeriod == 0 && during > 0 :\r... */\n    tag_107:\n        /* \"contracts/Staking.sol\":4234:4392  bool isLockupTimeOver = staker.mode == 1 ? during % _eventPeriod == 0 && during > 0 :\r... */\n      swap1\n      pop\n        /* \"contracts/Staking.sol\":4408:4424  isLockupTimeOver */\n      dup1\n        /* \"contracts/Staking.sol\":4403:4476  if (!isLockupTimeOver) {\r... */\n      tag_111\n      jumpi\n        /* \"contracts/Staking.sol\":4447:4464  _unstakingFeeRate */\n      sload(0x01)\n        /* \"contracts/Staking.sol\":4441:4464  fee = _unstakingFeeRate */\n      swap2\n      pop\n        /* \"contracts/Staking.sol\":4403:4476  if (!isLockupTimeOver) {\r... */\n    tag_111:\n        /* \"contracts/Staking.sol\":4508:4570  amountTobeWithdrawn.sub(amountTobeWithdrawn.mul(fee).div(1e4)) */\n      tag_112\n        /* \"contracts/Staking.sol\":4532:4569  amountTobeWithdrawn.mul(fee).div(1e4) */\n      tag_113\n        /* \"contracts/Staking.sol\":4565:4568  1e4 */\n      0x2710\n        /* \"contracts/Staking.sol\":4532:4560  amountTobeWithdrawn.mul(fee) */\n      tag_114\n        /* \"contracts/Staking.sol\":4556:4559  fee */\n      dup6\n        /* \"contracts/Staking.sol\":4532:4551  amountTobeWithdrawn */\n      dup9\n        /* \"contracts/Staking.sol\":4532:4555  amountTobeWithdrawn.mul */\n      tag_115\n      swap1\n        /* \"contracts/Staking.sol\":4532:4560  amountTobeWithdrawn.mul(fee) */\n      swap2\n      swap1\n      0xffffffff\n      and\n      jump\t// in\n    tag_114:\n        /* \"contracts/Staking.sol\":4532:4564  amountTobeWithdrawn.mul(fee).div */\n      tag_103\n      swap1\n        /* \"contracts/Staking.sol\":4532:4569  amountTobeWithdrawn.mul(fee).div(1e4) */\n      swap2\n      swap1\n      0xffffffff\n      and\n      jump\t// in\n    tag_113:\n        /* \"contracts/Staking.sol\":4508:4527  amountTobeWithdrawn */\n      dup6\n        /* \"contracts/Staking.sol\":4508:4531  amountTobeWithdrawn.sub */\n      tag_102\n      swap1\n        /* \"contracts/Staking.sol\":4508:4570  amountTobeWithdrawn.sub(amountTobeWithdrawn.mul(fee).div(1e4)) */\n      swap2\n      swap1\n      0xffffffff\n      and\n      jump\t// in\n    tag_112:\n        /* \"contracts/Staking.sol\":4486:4570  amountTobeWithdrawn = amountTobeWithdrawn.sub(amountTobeWithdrawn.mul(fee).div(1e4)) */\n      swap4\n      pop\n        /* \"contracts/Staking.sol\":4595:4631  totalStaked.sub(amountTobeWithdrawn) */\n      tag_116\n        /* \"contracts/Staking.sol\":4611:4630  amountTobeWithdrawn */\n      dup5\n        /* \"contracts/Staking.sol\":4595:4606  totalStaked */\n      sload(0x08)\n        /* \"contracts/Staking.sol\":4595:4610  totalStaked.sub */\n      tag_102\n      swap1\n        /* \"contracts/Staking.sol\":4595:4631  totalStaked.sub(amountTobeWithdrawn) */\n      swap2\n      swap1\n      0xffffffff\n      and\n      jump\t// in\n    tag_116:\n        /* \"contracts/Staking.sol\":4581:4592  totalStaked */\n      0x08\n        /* \"contracts/Staking.sol\":4581:4631  totalStaked = totalStaked.sub(amountTobeWithdrawn) */\n      dup2\n      swap1\n      sstore\n      pop\n        /* \"contracts/Staking.sol\":4664:4708  staker.stakedAmount.sub(amountTobeWithdrawn) */\n      tag_117\n        /* \"contracts/Staking.sol\":4688:4707  amountTobeWithdrawn */\n      dup5\n        /* \"contracts/Staking.sol\":4664:4670  staker */\n      dup7\n        /* \"contracts/Staking.sol\":4664:4683  staker.stakedAmount */\n      0x01\n      add\n      sload\n        /* \"contracts/Staking.sol\":4664:4687  staker.stakedAmount.sub */\n      tag_102\n      swap1\n        /* \"contracts/Staking.sol\":4664:4708  staker.stakedAmount.sub(amountTobeWithdrawn) */\n      swap2\n      swap1\n      0xffffffff\n      and\n      jump\t// in\n    tag_117:\n        /* \"contracts/Staking.sol\":4642:4648  staker */\n      dup6\n        /* \"contracts/Staking.sol\":4642:4661  staker.stakedAmount */\n      0x01\n      add\n        /* \"contracts/Staking.sol\":4642:4708  staker.stakedAmount = staker.stakedAmount.sub(amountTobeWithdrawn) */\n      dup2\n      swap1\n      sstore\n      pop\n        /* \"contracts/Staking.sol\":4719:4770  token.safeTransfer(msg.sender, amountTobeWithdrawn) */\n      tag_118\n        /* \"contracts/Staking.sol\":4738:4748  msg.sender */\n      caller\n        /* \"contracts/Staking.sol\":4750:4769  amountTobeWithdrawn */\n      dup6\n        /* \"contracts/Staking.sol\":4719:4724  token */\n      0x09\n      0x00\n      swap1\n      sload\n      swap1\n      0x0100\n      exp\n      swap1\n      div\n      0xffffffffffffffffffffffffffffffffffffffff\n      and\n        /* \"contracts/Staking.sol\":4719:4737  token.safeTransfer */\n      0xffffffffffffffffffffffffffffffffffffffff\n      and\n      tag_119\n      swap1\n        /* \"contracts/Staking.sol\":4719:4770  token.safeTransfer(msg.sender, amountTobeWithdrawn) */\n      swap3\n      swap2\n      swap1\n      0xffffffff\n      and\n      jump\t// in\n    tag_118:\n        /* \"contracts/Staking.sol\":4788:4829  Withdraw(msg.sender, amountTobeWithdrawn) */\n      0x884edad9ce6fa2440d8a54cc123490eb96d2768479d49ff9c7366125a9424364\n        /* \"contracts/Staking.sol\":4797:4807  msg.sender */\n      caller\n        /* \"contracts/Staking.sol\":4809:4828  amountTobeWithdrawn */\n      dup6\n        /* \"contracts/Staking.sol\":4788:4829  Withdraw(msg.sender, amountTobeWithdrawn) */\n      mload(0x40)\n      tag_120\n      swap3\n      swap2\n      swap1\n      tag_121\n      jump\t// in\n    tag_120:\n      mload(0x40)\n      dup1\n      swap2\n      sub\n      swap1\n      log1\n        /* \"contracts/Staking.sol\":3766:4900  {\r... */\n      pop\n      pop\n      pop\n      pop\n      pop\n        /* \"contracts/Staking.sol\":3724:4900  function withdraw(uint256 amount) external{\r... */\n      pop\n      jump\t// out\n        /* \"contracts/Staking.sol\":7040:7162  function stakedAmount() public view returns (uint256) {\r... */\n    tag_28:\n        /* \"contracts/Staking.sol\":7085:7092  uint256 */\n      0x00\n        /* \"contracts/Staking.sol\":7122:7129  _staker */\n      0x07\n        /* \"contracts/Staking.sol\":7122:7141  _staker[msg.sender] */\n      0x00\n        /* \"contracts/Staking.sol\":7130:7140  msg.sender */\n      caller\n        /* \"contracts/Staking.sol\":7122:7141  _staker[msg.sender] */\n      0xffffffffffffffffffffffffffffffffffffffff\n      and\n      0xffffffffffffffffffffffffffffffffffffffff\n      and\n      dup2\n      mstore\n      0x20\n      add\n      swap1\n      dup2\n      mstore\n      0x20\n      add\n      0x00\n      keccak256\n        /* \"contracts/Staking.sol\":7122:7154  _staker[msg.sender].stakedAmount */\n      0x01\n      add\n      sload\n        /* \"contracts/Staking.sol\":7115:7154  return _staker[msg.sender].stakedAmount */\n      swap1\n      pop\n        /* \"contracts/Staking.sol\":7040:7162  function stakedAmount() public view returns (uint256) {\r... */\n      swap1\n      jump\t// out\n        /* \"contracts/Staking.sol\":6381:6984  function harvest() public{\r... */\n    tag_32:\n        /* \"contracts/Staking.sol\":6427:6441  updateReward() */\n      tag_124\n        /* \"contracts/Staking.sol\":6427:6439  updateReward */\n      tag_86\n        /* \"contracts/Staking.sol\":6427:6441  updateReward() */\n      jump\t// in\n    tag_124:\n        /* \"contracts/Staking.sol\":6452:6473  Staker storage staker */\n      0x00\n        /* \"contracts/Staking.sol\":6476:6483  _staker */\n      0x07\n        /* \"contracts/Staking.sol\":6476:6495  _staker[msg.sender] */\n      0x00\n        /* \"contracts/Staking.sol\":6484:6494  msg.sender */\n      caller\n        /* \"contracts/Staking.sol\":6476:6495  _staker[msg.sender] */\n      0xffffffffffffffffffffffffffffffffffffffff\n      and\n      0xffffffffffffffffffffffffffffffffffffffff\n      and\n      dup2\n      mstore\n      0x20\n      add\n      swap1\n      dup2\n      mstore\n      0x20\n      add\n      0x00\n      keccak256\n        /* \"contracts/Staking.sol\":6452:6495  Staker storage staker = _staker[msg.sender] */\n      swap1\n      pop\n        /* \"contracts/Staking.sol\":6506:6527  uint256 rewardToClaim */\n      0x00\n        /* \"contracts/Staking.sol\":6530:6619  staker.stakerCurrentReward.sub(staker.stakerCurrentReward.mul(_rewardFeeRate).div(10**4)) */\n      tag_125\n        /* \"contracts/Staking.sol\":6561:6618  staker.stakerCurrentReward.mul(_rewardFeeRate).div(10**4) */\n      tag_126\n        /* \"contracts/Staking.sol\":6612:6617  10**4 */\n      0x2710\n        /* \"contracts/Staking.sol\":6561:6607  staker.stakerCurrentReward.mul(_rewardFeeRate) */\n      tag_127\n        /* \"contracts/Staking.sol\":6592:6606  _rewardFeeRate */\n      sload(0x04)\n        /* \"contracts/Staking.sol\":6561:6567  staker */\n      dup7\n        /* \"contracts/Staking.sol\":6561:6587  staker.stakerCurrentReward */\n      0x00\n      add\n      sload\n        /* \"contracts/Staking.sol\":6561:6591  staker.stakerCurrentReward.mul */\n      tag_115\n      swap1\n        /* \"contracts/Staking.sol\":6561:6607  staker.stakerCurrentReward.mul(_rewardFeeRate) */\n      swap2\n      swap1\n      0xffffffff\n      and\n      jump\t// in\n    tag_127:\n        /* \"contracts/Staking.sol\":6561:6611  staker.stakerCurrentReward.mul(_rewardFeeRate).div */\n      tag_103\n      swap1\n        /* \"contracts/Staking.sol\":6561:6618  staker.stakerCurrentReward.mul(_rewardFeeRate).div(10**4) */\n      swap2\n      swap1\n      0xffffffff\n      and\n      jump\t// in\n    tag_126:\n        /* \"contracts/Staking.sol\":6530:6536  staker */\n      dup4\n        /* \"contracts/Staking.sol\":6530:6556  staker.stakerCurrentReward */\n      0x00\n      add\n      sload\n        /* \"contracts/Staking.sol\":6530:6560  staker.stakerCurrentReward.sub */\n      tag_102\n      swap1\n        /* \"contracts/Staking.sol\":6530:6619  staker.stakerCurrentReward.sub(staker.stakerCurrentReward.mul(_rewardFeeRate).div(10**4)) */\n      swap2\n      swap1\n      0xffffffff\n      and\n      jump\t// in\n    tag_125:\n        /* \"contracts/Staking.sol\":6506:6619  uint256 rewardToClaim = staker.stakerCurrentReward.sub(staker.stakerCurrentReward.mul(_rewardFeeRate).div(10**4)) */\n      swap1\n      pop\n        /* \"contracts/Staking.sol\":6664:6665  0 */\n      0x00\n        /* \"contracts/Staking.sol\":6648:6661  rewardToClaim */\n      dup2\n        /* \"contracts/Staking.sol\":6648:6665  rewardToClaim > 0 */\n      gt\n        /* \"contracts/Staking.sol\":6640:6686  require(rewardToClaim > 0, \"Nothing to claim\") */\n      tag_128\n      jumpi\n      mload(0x40)\n      0x08c379a000000000000000000000000000000000000000000000000000000000\n      dup2\n      mstore\n      0x04\n      add\n      tag_129\n      swap1\n      tag_130\n      jump\t// in\n    tag_129:\n      mload(0x40)\n      dup1\n      swap2\n      sub\n      swap1\n      revert\n    tag_128:\n        /* \"contracts/Staking.sol\":6717:6722  token */\n      0x09\n      0x00\n      swap1\n      sload\n      swap1\n      0x0100\n      exp\n      swap1\n      div\n      0xffffffffffffffffffffffffffffffffffffffff\n      and\n        /* \"contracts/Staking.sol\":6717:6732  token.balanceOf */\n      0xffffffffffffffffffffffffffffffffffffffff\n      and\n      0x70a08231\n        /* \"contracts/Staking.sol\":6733:6746  _bountyWallet */\n      0x05\n      0x00\n      swap1\n      sload\n      swap1\n      0x0100\n      exp\n      swap1\n      div\n      0xffffffffffffffffffffffffffffffffffffffff\n      and\n        /* \"contracts/Staking.sol\":6717:6747  token.balanceOf(_bountyWallet) */\n      mload(0x40)\n      dup3\n      0xffffffff\n      and\n      0xe0\n      shl\n      dup2\n      mstore\n      0x04\n      add\n      tag_131\n      swap2\n      swap1\n      tag_58\n      jump\t// in\n    tag_131:\n      0x20\n      mload(0x40)\n      dup1\n      dup4\n      sub\n      dup2\n      dup7\n      dup1\n      extcodesize\n      iszero\n      dup1\n      iszero\n      tag_132\n      jumpi\n      0x00\n      dup1\n      revert\n    tag_132:\n      pop\n      gas\n      staticcall\n      iszero\n      dup1\n      iszero\n      tag_134\n      jumpi\n      returndatasize\n      0x00\n      dup1\n      returndatacopy\n      revert(0x00, returndatasize)\n    tag_134:\n      pop\n      pop\n      pop\n      pop\n      mload(0x40)\n      returndatasize\n      not(0x1f)\n      0x1f\n      dup3\n      add\n      and\n      dup3\n      add\n      dup1\n      0x40\n      mstore\n      pop\n      dup2\n      add\n      swap1\n      tag_135\n      swap2\n      swap1\n      tag_92\n      jump\t// in\n    tag_135:\n        /* \"contracts/Staking.sol\":6701:6714  rewardToClaim */\n      dup2\n        /* \"contracts/Staking.sol\":6701:6747  rewardToClaim > token.balanceOf(_bountyWallet) */\n      gt\n        /* \"contracts/Staking.sol\":6697:6808  if (rewardToClaim > token.balanceOf(_bountyWallet))\r... */\n      iszero\n      tag_136\n      jumpi\n        /* \"contracts/Staking.sol\":6778:6783  token */\n      0x09\n      0x00\n      swap1\n      sload\n      swap1\n      0x0100\n      exp\n      swap1\n      div\n      0xffffffffffffffffffffffffffffffffffffffff\n      and\n        /* \"contracts/Staking.sol\":6778:6793  token.balanceOf */\n      0xffffffffffffffffffffffffffffffffffffffff\n      and\n      0x70a08231\n        /* \"contracts/Staking.sol\":6794:6807  _bountyWallet */\n      0x05\n      0x00\n      swap1\n      sload\n      swap1\n      0x0100\n      exp\n      swap1\n      div\n      0xffffffffffffffffffffffffffffffffffffffff\n      and\n        /* \"contracts/Staking.sol\":6778:6808  token.balanceOf(_bountyWallet) */\n      mload(0x40)\n      dup3\n      0xffffffff\n      and\n      0xe0\n      shl\n      dup2\n      mstore\n      0x04\n      add\n      tag_137\n      swap2\n      swap1\n      tag_58\n      jump\t// in\n    tag_137:\n      0x20\n      mload(0x40)\n      dup1\n      dup4\n      sub\n      dup2\n      dup7\n      dup1\n      extcodesize\n      iszero\n      dup1\n      iszero\n      tag_138\n      jumpi\n      0x00\n      dup1\n      revert\n    tag_138:\n      pop\n      gas\n      staticcall\n      iszero\n      dup1\n      iszero\n      tag_140\n      jumpi\n      returndatasize\n      0x00\n      dup1\n      returndatacopy\n      revert(0x00, returndatasize)\n    tag_140:\n      pop\n      pop\n      pop\n      pop\n      mload(0x40)\n      returndatasize\n      not(0x1f)\n      0x1f\n      dup3\n      add\n      and\n      dup3\n      add\n      dup1\n      0x40\n      mstore\n      pop\n      dup2\n      add\n      swap1\n      tag_141\n      swap2\n      swap1\n      tag_92\n      jump\t// in\n    tag_141:\n        /* \"contracts/Staking.sol\":6762:6808  rewardToClaim = token.balanceOf(_bountyWallet) */\n      swap1\n      pop\n        /* \"contracts/Staking.sol\":6697:6808  if (rewardToClaim > token.balanceOf(_bountyWallet))\r... */\n    tag_136:\n        /* \"contracts/Staking.sol\":6819:6883  token.safeTransferFrom(_bountyWallet, msg.sender, rewardToClaim) */\n      tag_142\n        /* \"contracts/Staking.sol\":6842:6855  _bountyWallet */\n      0x05\n      0x00\n      swap1\n      sload\n      swap1\n      0x0100\n      exp\n      swap1\n      div\n      0xffffffffffffffffffffffffffffffffffffffff\n      and\n        /* \"contracts/Staking.sol\":6857:6867  msg.sender */\n      caller\n        /* \"contracts/Staking.sol\":6869:6882  rewardToClaim */\n      dup4\n        /* \"contracts/Staking.sol\":6819:6824  token */\n      0x09\n      0x00\n      swap1\n      sload\n      swap1\n      0x0100\n      exp\n      swap1\n      div\n      0xffffffffffffffffffffffffffffffffffffffff\n      and\n        /* \"contracts/Staking.sol\":6819:6841  token.safeTransferFrom */\n      0xffffffffffffffffffffffffffffffffffffffff\n      and\n      tag_143\n      swap1\n        /* \"contracts/Staking.sol\":6819:6883  token.safeTransferFrom(_bountyWallet, msg.sender, rewardToClaim) */\n      swap4\n      swap3\n      swap2\n      swap1\n      0xffffffff\n      and\n      jump\t// in\n    tag_142:\n        /* \"contracts/Staking.sol\":6923:6924  0 */\n      0x00\n        /* \"contracts/Staking.sol\":6894:6900  staker */\n      dup3\n        /* \"contracts/Staking.sol\":6894:6920  staker.stakerCurrentReward */\n      0x00\n      add\n        /* \"contracts/Staking.sol\":6894:6924  staker.stakerCurrentReward = 0 */\n      dup2\n      swap1\n      sstore\n      pop\n        /* \"contracts/Staking.sol\":6942:6976  Harvest(msg.sender, rewardToClaim) */\n      0xc9695243a805adb74c91f28311176c65b417e842d5699893cef56d18bfa48cba\n        /* \"contracts/Staking.sol\":6950:6960  msg.sender */\n      caller\n        /* \"contracts/Staking.sol\":6962:6975  rewardToClaim */\n      dup3\n        /* \"contracts/Staking.sol\":6942:6976  Harvest(msg.sender, rewardToClaim) */\n      mload(0x40)\n      tag_144\n      swap3\n      swap2\n      swap1\n      tag_121\n      jump\t// in\n    tag_144:\n      mload(0x40)\n      dup1\n      swap2\n      sub\n      swap1\n      log1\n        /* \"contracts/Staking.sol\":6406:6984  {\r... */\n      pop\n      pop\n        /* \"contracts/Staking.sol\":6381:6984  function harvest() public{\r... */\n      jump\t// out\n        /* \"contracts/Staking.sol\":5960:6122  function setLockupTime(uint256 lockupTime) external onlyOwner {\r... */\n    tag_35:\n        /* \"@openzeppelin/contracts/access/Ownable.sol\":1259:1271  _msgSender() */\n      tag_146\n        /* \"@openzeppelin/contracts/access/Ownable.sol\":1259:1269  _msgSender */\n      tag_147\n        /* \"@openzeppelin/contracts/access/Ownable.sol\":1259:1271  _msgSender() */\n      jump\t// in\n    tag_146:\n        /* \"@openzeppelin/contracts/access/Ownable.sol\":1248:1271  owner() == _msgSender() */\n      0xffffffffffffffffffffffffffffffffffffffff\n      and\n        /* \"@openzeppelin/contracts/access/Ownable.sol\":1248:1255  owner() */\n      tag_148\n        /* \"@openzeppelin/contracts/access/Ownable.sol\":1248:1253  owner */\n      tag_56\n        /* \"@openzeppelin/contracts/access/Ownable.sol\":1248:1255  owner() */\n      jump\t// in\n    tag_148:\n        /* \"@openzeppelin/contracts/access/Ownable.sol\":1248:1271  owner() == _msgSender() */\n      0xffffffffffffffffffffffffffffffffffffffff\n      and\n      eq\n        /* \"@openzeppelin/contracts/access/Ownable.sol\":1240:1308  require(owner() == _msgSender(), \"Ownable: caller is not the owner\") */\n      tag_149\n      jumpi\n      mload(0x40)\n      0x08c379a000000000000000000000000000000000000000000000000000000000\n      dup2\n      mstore\n      0x04\n      add\n      tag_150\n      swap1\n      tag_151\n      jump\t// in\n    tag_150:\n      mload(0x40)\n      dup1\n      swap2\n      sub\n      swap1\n      revert\n    tag_149:\n        /* \"contracts/Staking.sol\":6056:6057  0 */\n      0x00\n        /* \"contracts/Staking.sol\":6043:6053  lockupTime */\n      dup2\n        /* \"contracts/Staking.sol\":6043:6057  lockupTime > 0 */\n      gt\n        /* \"contracts/Staking.sol\":6035:6075  require(lockupTime > 0, \"Can't be zero\") */\n      tag_153\n      jumpi\n      mload(0x40)\n      0x08c379a000000000000000000000000000000000000000000000000000000000\n      dup2\n      mstore\n      0x04\n      add\n      tag_154\n      swap1\n      tag_155\n      jump\t// in\n    tag_154:\n      mload(0x40)\n      dup1\n      swap2\n      sub\n      swap1\n      revert\n    tag_153:\n        /* \"contracts/Staking.sol\":6104:6114  lockupTime */\n      dup1\n        /* \"contracts/Staking.sol\":6088:6101  _lockupPeriod */\n      0x06\n        /* \"contracts/Staking.sol\":6088:6114  _lockupPeriod = lockupTime */\n      dup2\n      swap1\n      sstore\n      pop\n        /* \"contracts/Staking.sol\":5960:6122  function setLockupTime(uint256 lockupTime) external onlyOwner {\r... */\n      pop\n      jump\t// out\n        /* \"contracts/Staking.sol\":2542:3013  function startStaking(uint256 _amount, uint256 _mode) external {\r... */\n    tag_39:\n        /* \"contracts/Staking.sol\":2644:2645  0 */\n      0x00\n        /* \"contracts/Staking.sol\":2634:2641  _amount */\n      dup3\n        /* \"contracts/Staking.sol\":2634:2645  _amount > 0 */\n      gt\n        /* \"contracts/Staking.sol\":2626:2681  require(_amount > 0, \"Amount should be greater than 0\") */\n      tag_157\n      jumpi\n      mload(0x40)\n      0x08c379a000000000000000000000000000000000000000000000000000000000\n      dup2\n      mstore\n      0x04\n      add\n      tag_158\n      swap1\n      tag_81\n      jump\t// in\n    tag_158:\n      mload(0x40)\n      dup1\n      swap2\n      sub\n      swap1\n      revert\n    tag_157:\n        /* \"contracts/Staking.sol\":2730:2737  _amount */\n      dup2\n        /* \"contracts/Staking.sol\":2700:2705  token */\n      0x09\n      0x00\n      swap1\n      sload\n      swap1\n      0x0100\n      exp\n      swap1\n      div\n      0xffffffffffffffffffffffffffffffffffffffff\n      and\n        /* \"contracts/Staking.sol\":2700:2715  token.balanceOf */\n      0xffffffffffffffffffffffffffffffffffffffff\n      and\n      0x70a08231\n        /* \"contracts/Staking.sol\":2716:2726  msg.sender */\n      caller\n        /* \"contracts/Staking.sol\":2700:2727  token.balanceOf(msg.sender) */\n      mload(0x40)\n      dup3\n      0xffffffff\n      and\n      0xe0\n      shl\n      dup2\n      mstore\n      0x04\n      add\n      tag_159\n      swap2\n      swap1\n      tag_58\n      jump\t// in\n    tag_159:\n      0x20\n      mload(0x40)\n      dup1\n      dup4\n      sub\n      dup2\n      dup7\n      dup1\n      extcodesize\n      iszero\n      dup1\n      iszero\n      tag_160\n      jumpi\n      0x00\n      dup1\n      revert\n    tag_160:\n      pop\n      gas\n      staticcall\n      iszero\n      dup1\n      iszero\n      tag_162\n      jumpi\n      returndatasize\n      0x00\n      dup1\n      returndatacopy\n      revert(0x00, returndatasize)\n    tag_162:\n      pop\n      pop\n      pop\n      pop\n      mload(0x40)\n      returndatasize\n      not(0x1f)\n      0x1f\n      dup3\n      add\n      and\n      dup3\n      add\n      dup1\n      0x40\n      mstore\n      pop\n      dup2\n      add\n      swap1\n      tag_163\n      swap2\n      swap1\n      tag_92\n      jump\t// in\n    tag_163:\n        /* \"contracts/Staking.sol\":2700:2737  token.balanceOf(msg.sender) > _amount */\n      gt\n        /* \"contracts/Staking.sol\":2692:2755  require(token.balanceOf(msg.sender) > _amount, \"Insufficient!\") */\n      tag_164\n      jumpi\n      mload(0x40)\n      0x08c379a000000000000000000000000000000000000000000000000000000000\n      dup2\n      mstore\n      0x04\n      add\n      tag_165\n      swap1\n      tag_166\n      jump\t// in\n    tag_165:\n      mload(0x40)\n      dup1\n      swap2\n      sub\n      swap1\n      revert\n    tag_164:\n        /* \"contracts/Staking.sol\":2804:2808  0x55 */\n      0x55\n        /* \"contracts/Staking.sol\":2774:2781  _staker */\n      0x07\n        /* \"contracts/Staking.sol\":2774:2793  _staker[msg.sender] */\n      0x00\n        /* \"contracts/Staking.sol\":2782:2792  msg.sender */\n      caller\n        /* \"contracts/Staking.sol\":2774:2793  _staker[msg.sender] */\n      0xffffffffffffffffffffffffffffffffffffffff\n      and\n      0xffffffffffffffffffffffffffffffffffffffff\n      and\n      dup2\n      mstore\n      0x20\n      add\n      swap1\n      dup2\n      mstore\n      0x20\n      add\n      0x00\n      keccak256\n        /* \"contracts/Staking.sol\":2774:2800  _staker[msg.sender].staked */\n      0x05\n      add\n      sload\n        /* \"contracts/Staking.sol\":2774:2808  _staker[msg.sender].staked != 0x55 */\n      eq\n      iszero\n        /* \"contracts/Staking.sol\":2766:2828  require(_staker[msg.sender].staked != 0x55, \"Already started\") */\n      tag_167\n      jumpi\n      mload(0x40)\n      0x08c379a000000000000000000000000000000000000000000000000000000000\n      dup2\n      mstore\n      0x04\n      add\n      tag_168\n      swap1\n      tag_169\n      jump\t// in\n    tag_168:\n      mload(0x40)\n      dup1\n      swap2\n      sub\n      swap1\n      revert\n    tag_167:\n        /* \"contracts/Staking.sol\":2868:2873  _mode */\n      dup1\n        /* \"contracts/Staking.sol\":2841:2848  _staker */\n      0x07\n        /* \"contracts/Staking.sol\":2841:2860  _staker[msg.sender] */\n      0x00\n        /* \"contracts/Staking.sol\":2849:2859  msg.sender */\n      caller\n        /* \"contracts/Staking.sol\":2841:2860  _staker[msg.sender] */\n      0xffffffffffffffffffffffffffffffffffffffff\n      and\n      0xffffffffffffffffffffffffffffffffffffffff\n      and\n      dup2\n      mstore\n      0x20\n      add\n      swap1\n      dup2\n      mstore\n      0x20\n      add\n      0x00\n      keccak256\n        /* \"contracts/Staking.sol\":2841:2865  _staker[msg.sender].mode */\n      0x02\n      add\n        /* \"contracts/Staking.sol\":2841:2873  _staker[msg.sender].mode = _mode */\n      dup2\n      swap1\n      sstore\n      pop\n        /* \"contracts/Staking.sol\":2921:2936  block.timestamp */\n      timestamp\n        /* \"contracts/Staking.sol\":2884:2891  _staker */\n      0x07\n        /* \"contracts/Staking.sol\":2884:2903  _staker[msg.sender] */\n      0x00\n        /* \"contracts/Staking.sol\":2892:2902  msg.sender */\n      caller\n        /* \"contracts/Staking.sol\":2884:2903  _staker[msg.sender] */\n      0xffffffffffffffffffffffffffffffffffffffff\n      and\n      0xffffffffffffffffffffffffffffffffffffffff\n      and\n      dup2\n      mstore\n      0x20\n      add\n      swap1\n      dup2\n      mstore\n      0x20\n      add\n      0x00\n      keccak256\n        /* \"contracts/Staking.sol\":2884:2918  _staker[msg.sender].stakeStartTime */\n      0x03\n      add\n        /* \"contracts/Staking.sol\":2884:2936  _staker[msg.sender].stakeStartTime = block.timestamp */\n      dup2\n      swap1\n      sstore\n      pop\n        /* \"contracts/Staking.sol\":2976:2980  0x55 */\n      0x55\n        /* \"contracts/Staking.sol\":2947:2954  _staker */\n      0x07\n        /* \"contracts/Staking.sol\":2947:2966  _staker[msg.sender] */\n      0x00\n        /* \"contracts/Staking.sol\":2955:2965  msg.sender */\n      caller\n        /* \"contracts/Staking.sol\":2947:2966  _staker[msg.sender] */\n      0xffffffffffffffffffffffffffffffffffffffff\n      and\n      0xffffffffffffffffffffffffffffffffffffffff\n      and\n      dup2\n      mstore\n      0x20\n      add\n      swap1\n      dup2\n      mstore\n      0x20\n      add\n      0x00\n      keccak256\n        /* \"contracts/Staking.sol\":2947:2973  _staker[msg.sender].staked */\n      0x05\n      add\n        /* \"contracts/Staking.sol\":2947:2980  _staker[msg.sender].staked = 0x55 */\n      dup2\n      swap1\n      sstore\n      pop\n        /* \"contracts/Staking.sol\":2991:3005  stake(_amount) */\n      tag_170\n        /* \"contracts/Staking.sol\":2997:3004  _amount */\n      dup3\n        /* \"contracts/Staking.sol\":2991:2996  stake */\n      tag_67\n        /* \"contracts/Staking.sol\":2991:3005  stake(_amount) */\n      jump\t// in\n    tag_170:\n        /* \"contracts/Staking.sol\":2542:3013  function startStaking(uint256 _amount, uint256 _mode) external {\r... */\n      pop\n      pop\n      jump\t// out\n        /* \"contracts/Staking.sol\":6181:6340  function rewardToHarvest() public view returns (uint256){\r... */\n    tag_41:\n        /* \"contracts/Staking.sol\":6229:6236  uint256 */\n      0x00\n        /* \"contracts/Staking.sol\":6293:6300  _staker */\n      0x07\n        /* \"contracts/Staking.sol\":6293:6312  _staker[msg.sender] */\n      0x00\n        /* \"contracts/Staking.sol\":6301:6311  msg.sender */\n      caller\n        /* \"contracts/Staking.sol\":6293:6312  _staker[msg.sender] */\n      0xffffffffffffffffffffffffffffffffffffffff\n      and\n      0xffffffffffffffffffffffffffffffffffffffff\n      and\n      dup2\n      mstore\n      0x20\n      add\n      swap1\n      dup2\n      mstore\n      0x20\n      add\n      0x00\n      keccak256\n        /* \"contracts/Staking.sol\":6293:6332  _staker[msg.sender].stakerCurrentReward */\n      0x00\n      add\n      sload\n        /* \"contracts/Staking.sol\":6286:6332  return _staker[msg.sender].stakerCurrentReward */\n      swap1\n      pop\n        /* \"contracts/Staking.sol\":6181:6340  function rewardToHarvest() public view returns (uint256){\r... */\n      swap1\n      jump\t// out\n        /* \"contracts/Staking.sol\":5147:5395  function setEventPeriod(uint256 __eventPeriod) external onlyOwner {\r... */\n    tag_45:\n        /* \"@openzeppelin/contracts/access/Ownable.sol\":1259:1271  _msgSender() */\n      tag_173\n        /* \"@openzeppelin/contracts/access/Ownable.sol\":1259:1269  _msgSender */\n      tag_147\n        /* \"@openzeppelin/contracts/access/Ownable.sol\":1259:1271  _msgSender() */\n      jump\t// in\n    tag_173:\n        /* \"@openzeppelin/contracts/access/Ownable.sol\":1248:1271  owner() == _msgSender() */\n      0xffffffffffffffffffffffffffffffffffffffff\n      and\n        /* \"@openzeppelin/contracts/access/Ownable.sol\":1248:1255  owner() */\n      tag_174\n        /* \"@openzeppelin/contracts/access/Ownable.sol\":1248:1253  owner */\n      tag_56\n        /* \"@openzeppelin/contracts/access/Ownable.sol\":1248:1255  owner() */\n      jump\t// in\n    tag_174:\n        /* \"@openzeppelin/contracts/access/Ownable.sol\":1248:1271  owner() == _msgSender() */\n      0xffffffffffffffffffffffffffffffffffffffff\n      and\n      eq\n        /* \"@openzeppelin/contracts/access/Ownable.sol\":1240:1308  require(owner() == _msgSender(), \"Ownable: caller is not the owner\") */\n      tag_175\n      jumpi\n      mload(0x40)\n      0x08c379a000000000000000000000000000000000000000000000000000000000\n      dup2\n      mstore\n      0x04\n      add\n      tag_176\n      swap1\n      tag_151\n      jump\t// in\n    tag_176:\n      mload(0x40)\n      dup1\n      swap2\n      sub\n      swap1\n      revert\n    tag_175:\n        /* \"contracts/Staking.sol\":5258:5259  0 */\n      0x00\n        /* \"contracts/Staking.sol\":5242:5255  __eventPeriod */\n      dup2\n        /* \"contracts/Staking.sol\":5242:5259  __eventPeriod > 0 */\n      gt\n        /* \"contracts/Staking.sol\":5234:5287  require(__eventPeriod > 0, \"Invalid Lockup Duration\") */\n      tag_178\n      jumpi\n      mload(0x40)\n      0x08c379a000000000000000000000000000000000000000000000000000000000\n      dup2\n      mstore\n      0x04\n      add\n      tag_179\n      swap1\n      tag_180\n      jump\t// in\n    tag_179:\n      mload(0x40)\n      dup1\n      swap2\n      sub\n      swap1\n      revert\n    tag_178:\n        /* \"contracts/Staking.sol\":5315:5340  __eventPeriod.mul(1 days) */\n      tag_181\n        /* \"contracts/Staking.sol\":5333:5339  1 days */\n      0x015180\n        /* \"contracts/Staking.sol\":5315:5328  __eventPeriod */\n      dup3\n        /* \"contracts/Staking.sol\":5315:5332  __eventPeriod.mul */\n      tag_115\n      swap1\n        /* \"contracts/Staking.sol\":5315:5340  __eventPeriod.mul(1 days) */\n      swap2\n      swap1\n      0xffffffff\n      and\n      jump\t// in\n    tag_181:\n        /* \"contracts/Staking.sol\":5300:5312  _eventPeriod */\n      0x02\n        /* \"contracts/Staking.sol\":5300:5340  _eventPeriod = __eventPeriod.mul(1 days) */\n      dup2\n      swap1\n      sstore\n      pop\n        /* \"contracts/Staking.sol\":5358:5387  SetEventPeriod(__eventPeriod) */\n      0x189bda9782663c67a3f95c0aa5455924c711210b00281c60ead2f0dd8dbc924c\n        /* \"contracts/Staking.sol\":5373:5386  __eventPeriod */\n      dup2\n        /* \"contracts/Staking.sol\":5358:5387  SetEventPeriod(__eventPeriod) */\n      mload(0x40)\n      tag_182\n      swap2\n      swap1\n      tag_30\n      jump\t// in\n    tag_182:\n      mload(0x40)\n      dup1\n      swap2\n      sub\n      swap1\n      log1\n        /* \"contracts/Staking.sol\":5147:5395  function setEventPeriod(uint256 __eventPeriod) external onlyOwner {\r... */\n      pop\n      jump\t// out\n        /* \"@openzeppelin/contracts/access/Ownable.sol\":1668:1769  function renounceOwnership() public virtual onlyOwner {... */\n    tag_47:\n        /* \"@openzeppelin/contracts/access/Ownable.sol\":1259:1271  _msgSender() */\n      tag_184\n        /* \"@openzeppelin/contracts/access/Ownable.sol\":1259:1269  _msgSender */\n      tag_147\n        /* \"@openzeppelin/contracts/access/Ownable.sol\":1259:1271  _msgSender() */\n      jump\t// in\n    tag_184:\n        /* \"@openzeppelin/contracts/access/Ownable.sol\":1248:1271  owner() == _msgSender() */\n      0xffffffffffffffffffffffffffffffffffffffff\n      and\n        /* \"@openzeppelin/contracts/access/Ownable.sol\":1248:1255  owner() */\n      tag_185\n        /* \"@openzeppelin/contracts/access/Ownable.sol\":1248:1253  owner */\n      tag_56\n        /* \"@openzeppelin/contracts/access/Ownable.sol\":1248:1255  owner() */\n      jump\t// in\n    tag_185:\n        /* \"@openzeppelin/contracts/access/Ownable.sol\":1248:1271  owner() == _msgSender() */\n      0xffffffffffffffffffffffffffffffffffffffff\n      and\n      eq\n        /* \"@openzeppelin/contracts/access/Ownable.sol\":1240:1308  require(owner() == _msgSender(), \"Ownable: caller is not the owner\") */\n      tag_186\n      jumpi\n      mload(0x40)\n      0x08c379a000000000000000000000000000000000000000000000000000000000\n      dup2\n      mstore\n      0x04\n      add\n      tag_187\n      swap1\n      tag_151\n      jump\t// in\n    tag_187:\n      mload(0x40)\n      dup1\n      swap2\n      sub\n      swap1\n      revert\n    tag_186:\n        /* \"@openzeppelin/contracts/access/Ownable.sol\":1732:1762  _transferOwnership(address(0)) */\n      tag_189\n        /* \"@openzeppelin/contracts/access/Ownable.sol\":1759:1760  0 */\n      0x00\n        /* \"@openzeppelin/contracts/access/Ownable.sol\":1732:1750  _transferOwnership */\n      tag_190\n        /* \"@openzeppelin/contracts/access/Ownable.sol\":1732:1762  _transferOwnership(address(0)) */\n      jump\t// in\n    tag_189:\n        /* \"@openzeppelin/contracts/access/Ownable.sol\":1668:1769  function renounceOwnership() public virtual onlyOwner {... */\n      jump\t// out\n        /* \"contracts/Staking.sol\":1042:1068  uint256 public totalStaked */\n    tag_49:\n      sload(0x08)\n      dup2\n      jump\t// out\n        /* \"contracts/Staking.sol\":5685:5952  function setBountyWallet(address __bountyWallet) external onlyOwner {\r... */\n    tag_54:\n        /* \"@openzeppelin/contracts/access/Ownable.sol\":1259:1271  _msgSender() */\n      tag_192\n        /* \"@openzeppelin/contracts/access/Ownable.sol\":1259:1269  _msgSender */\n      tag_147\n        /* \"@openzeppelin/contracts/access/Ownable.sol\":1259:1271  _msgSender() */\n      jump\t// in\n    tag_192:\n        /* \"@openzeppelin/contracts/access/Ownable.sol\":1248:1271  owner() == _msgSender() */\n      0xffffffffffffffffffffffffffffffffffffffff\n      and\n        /* \"@openzeppelin/contracts/access/Ownable.sol\":1248:1255  owner() */\n      tag_193\n        /* \"@openzeppelin/contracts/access/Ownable.sol\":1248:1253  owner */\n      tag_56\n        /* \"@openzeppelin/contracts/access/Ownable.sol\":1248:1255  owner() */\n      jump\t// in\n    tag_193:\n        /* \"@openzeppelin/contracts/access/Ownable.sol\":1248:1271  owner() == _msgSender() */\n      0xffffffffffffffffffffffffffffffffffffffff\n      and\n      eq\n        /* \"@openzeppelin/contracts/access/Ownable.sol\":1240:1308  require(owner() == _msgSender(), \"Ownable: caller is not the owner\") */\n      tag_194\n      jumpi\n      mload(0x40)\n      0x08c379a000000000000000000000000000000000000000000000000000000000\n      dup2\n      mstore\n      0x04\n      add\n      tag_195\n      swap1\n      tag_151\n      jump\t// in\n    tag_195:\n      mload(0x40)\n      dup1\n      swap2\n      sub\n      swap1\n      revert\n    tag_194:\n        /* \"contracts/Staking.sol\":5807:5808  0 */\n      0x00\n        /* \"contracts/Staking.sol\":5782:5809  __bountyWallet > address(0) */\n      0xffffffffffffffffffffffffffffffffffffffff\n      and\n        /* \"contracts/Staking.sol\":5782:5796  __bountyWallet */\n      dup2\n        /* \"contracts/Staking.sol\":5782:5809  __bountyWallet > address(0) */\n      0xffffffffffffffffffffffffffffffffffffffff\n      and\n      gt\n        /* \"contracts/Staking.sol\":5774:5852  require(__bountyWallet > address(0), \"Invalid Address. Address can't be zero\") */\n      tag_197\n      jumpi\n      mload(0x40)\n      0x08c379a000000000000000000000000000000000000000000000000000000000\n      dup2\n      mstore\n      0x04\n      add\n      tag_198\n      swap1\n      tag_199\n      jump\t// in\n    tag_198:\n      mload(0x40)\n      dup1\n      swap2\n      sub\n      swap1\n      revert\n    tag_197:\n        /* \"contracts/Staking.sol\":5881:5895  __bountyWallet */\n      dup1\n        /* \"contracts/Staking.sol\":5865:5878  _bountyWallet */\n      0x05\n      0x00\n        /* \"contracts/Staking.sol\":5865:5895  _bountyWallet = __bountyWallet */\n      0x0100\n      exp\n      dup2\n      sload\n      dup2\n      0xffffffffffffffffffffffffffffffffffffffff\n      mul\n      not\n      and\n      swap1\n      dup4\n      0xffffffffffffffffffffffffffffffffffffffff\n      and\n      mul\n      or\n      swap1\n      sstore\n      pop\n        /* \"contracts/Staking.sol\":5913:5944  SetBountyWallet(__bountyWallet) */\n      0xeda87051e2996c46ee8d576509ffc1826e6df46eef99072f838fecbb88992a87\n        /* \"contracts/Staking.sol\":5929:5943  __bountyWallet */\n      dup2\n        /* \"contracts/Staking.sol\":5913:5944  SetBountyWallet(__bountyWallet) */\n      mload(0x40)\n      tag_200\n      swap2\n      swap1\n      tag_58\n      jump\t// in\n    tag_200:\n      mload(0x40)\n      dup1\n      swap2\n      sub\n      swap1\n      log1\n        /* \"contracts/Staking.sol\":5685:5952  function setBountyWallet(address __bountyWallet) external onlyOwner {\r... */\n      pop\n      jump\t// out\n        /* \"@openzeppelin/contracts/access/Ownable.sol\":1036:1121  function owner() public view virtual returns (address) {... */\n    tag_56:\n        /* \"@openzeppelin/contracts/access/Ownable.sol\":1082:1089  address */\n      0x00\n        /* \"@openzeppelin/contracts/access/Ownable.sol\":1108:1114  _owner */\n      dup1\n      0x00\n      swap1\n      sload\n      swap1\n      0x0100\n      exp\n      swap1\n      div\n      0xffffffffffffffffffffffffffffffffffffffff\n      and\n        /* \"@openzeppelin/contracts/access/Ownable.sol\":1101:1114  return _owner */\n      swap1\n      pop\n        /* \"@openzeppelin/contracts/access/Ownable.sol\":1036:1121  function owner() public view virtual returns (address) {... */\n      swap1\n      jump\t// out\n        /* \"contracts/Staking.sol\":5403:5677  function setUnstakingFeeRate(uint256 __unstakingFeeRate) external onlyOwner {\r... */\n    tag_61:\n        /* \"@openzeppelin/contracts/access/Ownable.sol\":1259:1271  _msgSender() */\n      tag_203\n        /* \"@openzeppelin/contracts/access/Ownable.sol\":1259:1269  _msgSender */\n      tag_147\n        /* \"@openzeppelin/contracts/access/Ownable.sol\":1259:1271  _msgSender() */\n      jump\t// in\n    tag_203:\n        /* \"@openzeppelin/contracts/access/Ownable.sol\":1248:1271  owner() == _msgSender() */\n      0xffffffffffffffffffffffffffffffffffffffff\n      and\n        /* \"@openzeppelin/contracts/access/Ownable.sol\":1248:1255  owner() */\n      tag_204\n        /* \"@openzeppelin/contracts/access/Ownable.sol\":1248:1253  owner */\n      tag_56\n        /* \"@openzeppelin/contracts/access/Ownable.sol\":1248:1255  owner() */\n      jump\t// in\n    tag_204:\n        /* \"@openzeppelin/contracts/access/Ownable.sol\":1248:1271  owner() == _msgSender() */\n      0xffffffffffffffffffffffffffffffffffffffff\n      and\n      eq\n        /* \"@openzeppelin/contracts/access/Ownable.sol\":1240:1308  require(owner() == _msgSender(), \"Ownable: caller is not the owner\") */\n      tag_205\n      jumpi\n      mload(0x40)\n      0x08c379a000000000000000000000000000000000000000000000000000000000\n      dup2\n      mstore\n      0x04\n      add\n      tag_206\n      swap1\n      tag_151\n      jump\t// in\n    tag_206:\n      mload(0x40)\n      dup1\n      swap2\n      sub\n      swap1\n      revert\n    tag_205:\n        /* \"contracts/Staking.sol\":5529:5530  0 */\n      0x00\n        /* \"contracts/Staking.sol\":5508:5526  __unstakingFeeRate */\n      dup2\n        /* \"contracts/Staking.sol\":5508:5530  __unstakingFeeRate > 0 */\n      gt\n        /* \"contracts/Staking.sol\":5500:5561  require(__unstakingFeeRate > 0, \"Invalid Unstaking Fee Rate\") */\n      tag_208\n      jumpi\n      mload(0x40)\n      0x08c379a000000000000000000000000000000000000000000000000000000000\n      dup2\n      mstore\n      0x04\n      add\n      tag_209\n      swap1\n      tag_210\n      jump\t// in\n    tag_209:\n      mload(0x40)\n      dup1\n      swap2\n      sub\n      swap1\n      revert\n    tag_208:\n        /* \"contracts/Staking.sol\":5594:5612  __unstakingFeeRate */\n      dup1\n        /* \"contracts/Staking.sol\":5574:5591  _unstakingFeeRate */\n      0x01\n        /* \"contracts/Staking.sol\":5574:5612  _unstakingFeeRate = __unstakingFeeRate */\n      dup2\n      swap1\n      sstore\n      pop\n        /* \"contracts/Staking.sol\":5630:5669  SetUnstakingFeeRate(__unstakingFeeRate) */\n      0x150c688dd7595bf7862b8ab1fe46756450eb7d731037942b3bbc46f3f0e21b81\n        /* \"contracts/Staking.sol\":5650:5668  __unstakingFeeRate */\n      dup2\n        /* \"contracts/Staking.sol\":5630:5669  SetUnstakingFeeRate(__unstakingFeeRate) */\n      mload(0x40)\n      tag_211\n      swap2\n      swap1\n      tag_30\n      jump\t// in\n    tag_211:\n      mload(0x40)\n      dup1\n      swap2\n      sub\n      swap1\n      log1\n        /* \"contracts/Staking.sol\":5403:5677  function setUnstakingFeeRate(uint256 __unstakingFeeRate) external onlyOwner {\r... */\n      pop\n      jump\t// out\n        /* \"contracts/Staking.sol\":4912:5139  function setRewardRate(uint256 __rewardRate) external onlyOwner {\r... */\n    tag_64:\n        /* \"@openzeppelin/contracts/access/Ownable.sol\":1259:1271  _msgSender() */\n      tag_213\n        /* \"@openzeppelin/contracts/access/Ownable.sol\":1259:1269  _msgSender */\n      tag_147\n        /* \"@openzeppelin/contracts/access/Ownable.sol\":1259:1271  _msgSender() */\n      jump\t// in\n    tag_213:\n        /* \"@openzeppelin/contracts/access/Ownable.sol\":1248:1271  owner() == _msgSender() */\n      0xffffffffffffffffffffffffffffffffffffffff\n      and\n        /* \"@openzeppelin/contracts/access/Ownable.sol\":1248:1255  owner() */\n      tag_214\n        /* \"@openzeppelin/contracts/access/Ownable.sol\":1248:1253  owner */\n      tag_56\n        /* \"@openzeppelin/contracts/access/Ownable.sol\":1248:1255  owner() */\n      jump\t// in\n    tag_214:\n        /* \"@openzeppelin/contracts/access/Ownable.sol\":1248:1271  owner() == _msgSender() */\n      0xffffffffffffffffffffffffffffffffffffffff\n      and\n      eq\n        /* \"@openzeppelin/contracts/access/Ownable.sol\":1240:1308  require(owner() == _msgSender(), \"Ownable: caller is not the owner\") */\n      tag_215\n      jumpi\n      mload(0x40)\n      0x08c379a000000000000000000000000000000000000000000000000000000000\n      dup2\n      mstore\n      0x04\n      add\n      tag_216\n      swap1\n      tag_151\n      jump\t// in\n    tag_216:\n      mload(0x40)\n      dup1\n      swap2\n      sub\n      swap1\n      revert\n    tag_215:\n        /* \"contracts/Staking.sol\":5020:5021  0 */\n      0x00\n        /* \"contracts/Staking.sol\":5005:5017  __rewardRate */\n      dup2\n        /* \"contracts/Staking.sol\":5005:5021  __rewardRate > 0 */\n      gt\n        /* \"contracts/Staking.sol\":4997:5039  require(__rewardRate > 0, \"Invalid value\") */\n      tag_218\n      jumpi\n      mload(0x40)\n      0x08c379a000000000000000000000000000000000000000000000000000000000\n      dup2\n      mstore\n      0x04\n      add\n      tag_219\n      swap1\n      tag_220\n      jump\t// in\n    tag_219:\n      mload(0x40)\n      dup1\n      swap2\n      sub\n      swap1\n      revert\n    tag_218:\n        /* \"contracts/Staking.sol\":5074:5086  __rewardRate */\n      dup1\n        /* \"contracts/Staking.sol\":5060:5071  _rewardRate */\n      0x03\n        /* \"contracts/Staking.sol\":5060:5086  _rewardRate = __rewardRate */\n      dup2\n      swap1\n      sstore\n      pop\n        /* \"contracts/Staking.sol\":5104:5131  SetRewardRate(__rewardRate) */\n      0x1946fb78c7ca778b54d82cabaac5ba67cf446f58d0ff1f8ceaebb6150e54e44f\n        /* \"contracts/Staking.sol\":5118:5130  __rewardRate */\n      dup2\n        /* \"contracts/Staking.sol\":5104:5131  SetRewardRate(__rewardRate) */\n      mload(0x40)\n      tag_221\n      swap2\n      swap1\n      tag_30\n      jump\t// in\n    tag_221:\n      mload(0x40)\n      dup1\n      swap2\n      sub\n      swap1\n      log1\n        /* \"contracts/Staking.sol\":4912:5139  function setRewardRate(uint256 __rewardRate) external onlyOwner {\r... */\n      pop\n      jump\t// out\n        /* \"contracts/Staking.sol\":3077:3677  function stake(uint256 _amount) public{\r... */\n    tag_67:\n        /* \"contracts/Staking.sol\":3154:3155  0 */\n      0x00\n        /* \"contracts/Staking.sol\":3144:3151  _amount */\n      dup2\n        /* \"contracts/Staking.sol\":3144:3155  _amount > 0 */\n      gt\n        /* \"contracts/Staking.sol\":3136:3191  require(_amount > 0, \"Amount should be greater than 0\") */\n      tag_223\n      jumpi\n      mload(0x40)\n      0x08c379a000000000000000000000000000000000000000000000000000000000\n      dup2\n      mstore\n      0x04\n      add\n      tag_224\n      swap1\n      tag_81\n      jump\t// in\n    tag_224:\n      mload(0x40)\n      dup1\n      swap2\n      sub\n      swap1\n      revert\n    tag_223:\n        /* \"contracts/Staking.sol\":3240:3247  _amount */\n      dup1\n        /* \"contracts/Staking.sol\":3210:3215  token */\n      0x09\n      0x00\n      swap1\n      sload\n      swap1\n      0x0100\n      exp\n      swap1\n      div\n      0xffffffffffffffffffffffffffffffffffffffff\n      and\n        /* \"contracts/Staking.sol\":3210:3225  token.balanceOf */\n      0xffffffffffffffffffffffffffffffffffffffff\n      and\n      0x70a08231\n        /* \"contracts/Staking.sol\":3226:3236  msg.sender */\n      caller\n        /* \"contracts/Staking.sol\":3210:3237  token.balanceOf(msg.sender) */\n      mload(0x40)\n      dup3\n      0xffffffff\n      and\n      0xe0\n      shl\n      dup2\n      mstore\n      0x04\n      add\n      tag_225\n      swap2\n      swap1\n      tag_58\n      jump\t// in\n    tag_225:\n      0x20\n      mload(0x40)\n      dup1\n      dup4\n      sub\n      dup2\n      dup7\n      dup1\n      extcodesize\n      iszero\n      dup1\n      iszero\n      tag_226\n      jumpi\n      0x00\n      dup1\n      revert\n    tag_226:\n      pop\n      gas\n      staticcall\n      iszero\n      dup1\n      iszero\n      tag_228\n      jumpi\n      returndatasize\n      0x00\n      dup1\n      returndatacopy\n      revert(0x00, returndatasize)\n    tag_228:\n      pop\n      pop\n      pop\n      pop\n      mload(0x40)\n      returndatasize\n      not(0x1f)\n      0x1f\n      dup3\n      add\n      and\n      dup3\n      add\n      dup1\n      0x40\n      mstore\n      pop\n      dup2\n      add\n      swap1\n      tag_229\n      swap2\n      swap1\n      tag_92\n      jump\t// in\n    tag_229:\n        /* \"contracts/Staking.sol\":3210:3247  token.balanceOf(msg.sender) > _amount */\n      gt\n        /* \"contracts/Staking.sol\":3202:3265  require(token.balanceOf(msg.sender) > _amount, \"Insufficient!\") */\n      tag_230\n      jumpi\n      mload(0x40)\n      0x08c379a000000000000000000000000000000000000000000000000000000000\n      dup2\n      mstore\n      0x04\n      add\n      tag_231\n      swap1\n      tag_166\n      jump\t// in\n    tag_231:\n      mload(0x40)\n      dup1\n      swap2\n      sub\n      swap1\n      revert\n    tag_230:\n        /* \"contracts/Staking.sol\":3314:3318  0x55 */\n      0x55\n        /* \"contracts/Staking.sol\":3284:3291  _staker */\n      0x07\n        /* \"contracts/Staking.sol\":3284:3303  _staker[msg.sender] */\n      0x00\n        /* \"contracts/Staking.sol\":3292:3302  msg.sender */\n      caller\n        /* \"contracts/Staking.sol\":3284:3303  _staker[msg.sender] */\n      0xffffffffffffffffffffffffffffffffffffffff\n      and\n      0xffffffffffffffffffffffffffffffffffffffff\n      and\n      dup2\n      mstore\n      0x20\n      add\n      swap1\n      dup2\n      mstore\n      0x20\n      add\n      0x00\n      keccak256\n        /* \"contracts/Staking.sol\":3284:3310  _staker[msg.sender].staked */\n      0x05\n      add\n      sload\n        /* \"contracts/Staking.sol\":3284:3318  _staker[msg.sender].staked == 0x55 */\n      eq\n        /* \"contracts/Staking.sol\":3276:3344  require(_staker[msg.sender].staked == 0x55, \"Error: invalid staker\") */\n      tag_232\n      jumpi\n      mload(0x40)\n      0x08c379a000000000000000000000000000000000000000000000000000000000\n      dup2\n      mstore\n      0x04\n      add\n      tag_233\n      swap1\n      tag_234\n      jump\t// in\n    tag_233:\n      mload(0x40)\n      dup1\n      swap2\n      sub\n      swap1\n      revert\n    tag_232:\n        /* \"contracts/Staking.sol\":3365:3379  updateReward() */\n      tag_235\n        /* \"contracts/Staking.sol\":3365:3377  updateReward */\n      tag_86\n        /* \"contracts/Staking.sol\":3365:3379  updateReward() */\n      jump\t// in\n    tag_235:\n        /* \"contracts/Staking.sol\":3390:3411  Staker storage staker */\n      0x00\n        /* \"contracts/Staking.sol\":3414:3421  _staker */\n      0x07\n        /* \"contracts/Staking.sol\":3414:3433  _staker[msg.sender] */\n      0x00\n        /* \"contracts/Staking.sol\":3422:3432  msg.sender */\n      caller\n        /* \"contracts/Staking.sol\":3414:3433  _staker[msg.sender] */\n      0xffffffffffffffffffffffffffffffffffffffff\n      and\n      0xffffffffffffffffffffffffffffffffffffffff\n      and\n      dup2\n      mstore\n      0x20\n      add\n      swap1\n      dup2\n      mstore\n      0x20\n      add\n      0x00\n      keccak256\n        /* \"contracts/Staking.sol\":3390:3433  Staker storage staker = _staker[msg.sender] */\n      swap1\n      pop\n        /* \"contracts/Staking.sol\":3444:3502  token.safeTransferFrom(msg.sender, address(this), _amount) */\n      tag_236\n        /* \"contracts/Staking.sol\":3467:3477  msg.sender */\n      caller\n        /* \"contracts/Staking.sol\":3487:3491  this */\n      address\n        /* \"contracts/Staking.sol\":3494:3501  _amount */\n      dup5\n        /* \"contracts/Staking.sol\":3444:3449  token */\n      0x09\n      0x00\n      swap1\n      sload\n      swap1\n      0x0100\n      exp\n      swap1\n      div\n      0xffffffffffffffffffffffffffffffffffffffff\n      and\n        /* \"contracts/Staking.sol\":3444:3466  token.safeTransferFrom */\n      0xffffffffffffffffffffffffffffffffffffffff\n      and\n      tag_143\n      swap1\n        /* \"contracts/Staking.sol\":3444:3502  token.safeTransferFrom(msg.sender, address(this), _amount) */\n      swap4\n      swap3\n      swap2\n      swap1\n      0xffffffff\n      and\n      jump\t// in\n    tag_236:\n        /* \"contracts/Staking.sol\":3535:3567  staker.stakedAmount.add(_amount) */\n      tag_237\n        /* \"contracts/Staking.sol\":3559:3566  _amount */\n      dup3\n        /* \"contracts/Staking.sol\":3535:3541  staker */\n      dup3\n        /* \"contracts/Staking.sol\":3535:3554  staker.stakedAmount */\n      0x01\n      add\n      sload\n        /* \"contracts/Staking.sol\":3535:3558  staker.stakedAmount.add */\n      tag_106\n      swap1\n        /* \"contracts/Staking.sol\":3535:3567  staker.stakedAmount.add(_amount) */\n      swap2\n      swap1\n      0xffffffff\n      and\n      jump\t// in\n    tag_237:\n        /* \"contracts/Staking.sol\":3513:3519  staker */\n      dup2\n        /* \"contracts/Staking.sol\":3513:3532  staker.stakedAmount */\n      0x01\n      add\n        /* \"contracts/Staking.sol\":3513:3567  staker.stakedAmount = staker.stakedAmount.add(_amount) */\n      dup2\n      swap1\n      sstore\n      pop\n        /* \"contracts/Staking.sol\":3592:3616  totalStaked.add(_amount) */\n      tag_238\n        /* \"contracts/Staking.sol\":3608:3615  _amount */\n      dup3\n        /* \"contracts/Staking.sol\":3592:3603  totalStaked */\n      sload(0x08)\n        /* \"contracts/Staking.sol\":3592:3607  totalStaked.add */\n      tag_106\n      swap1\n        /* \"contracts/Staking.sol\":3592:3616  totalStaked.add(_amount) */\n      swap2\n      swap1\n      0xffffffff\n      and\n      jump\t// in\n    tag_238:\n        /* \"contracts/Staking.sol\":3578:3589  totalStaked */\n      0x08\n        /* \"contracts/Staking.sol\":3578:3616  totalStaked = totalStaked.add(_amount) */\n      dup2\n      swap1\n      sstore\n      pop\n        /* \"contracts/Staking.sol\":3642:3669  Staked(msg.sender, _amount) */\n      0x9e71bc8eea02a63969f509818f2dafb9254532904319f9dbda79b67bd34a5f3d\n        /* \"contracts/Staking.sol\":3649:3659  msg.sender */\n      caller\n        /* \"contracts/Staking.sol\":3661:3668  _amount */\n      dup4\n        /* \"contracts/Staking.sol\":3642:3669  Staked(msg.sender, _amount) */\n      mload(0x40)\n      tag_239\n      swap3\n      swap2\n      swap1\n      tag_121\n      jump\t// in\n    tag_239:\n      mload(0x40)\n      dup1\n      swap2\n      sub\n      swap1\n      log1\n        /* \"contracts/Staking.sol\":3115:3677  {\r... */\n      pop\n        /* \"contracts/Staking.sol\":3077:3677  function stake(uint256 _amount) public{\r... */\n      pop\n      jump\t// out\n        /* \"@openzeppelin/contracts/access/Ownable.sol\":1918:2116  function transferOwnership(address newOwner) public virtual onlyOwner {... */\n    tag_70:\n        /* \"@openzeppelin/contracts/access/Ownable.sol\":1259:1271  _msgSender() */\n      tag_241\n        /* \"@openzeppelin/contracts/access/Ownable.sol\":1259:1269  _msgSender */\n      tag_147\n        /* \"@openzeppelin/contracts/access/Ownable.sol\":1259:1271  _msgSender() */\n      jump\t// in\n    tag_241:\n        /* \"@openzeppelin/contracts/access/Ownable.sol\":1248:1271  owner() == _msgSender() */\n      0xffffffffffffffffffffffffffffffffffffffff\n      and\n        /* \"@openzeppelin/contracts/access/Ownable.sol\":1248:1255  owner() */\n      tag_242\n        /* \"@openzeppelin/contracts/access/Ownable.sol\":1248:1253  owner */\n      tag_56\n        /* \"@openzeppelin/contracts/access/Ownable.sol\":1248:1255  owner() */\n      jump\t// in\n    tag_242:\n        /* \"@openzeppelin/contracts/access/Ownable.sol\":1248:1271  owner() == _msgSender() */\n      0xffffffffffffffffffffffffffffffffffffffff\n      and\n      eq\n        /* \"@openzeppelin/contracts/access/Ownable.sol\":1240:1308  require(owner() == _msgSender(), \"Ownable: caller is not the owner\") */\n      tag_243\n      jumpi\n      mload(0x40)\n      0x08c379a000000000000000000000000000000000000000000000000000000000\n      dup2\n      mstore\n      0x04\n      add\n      tag_244\n      swap1\n      tag_151\n      jump\t// in\n    tag_244:\n      mload(0x40)\n      dup1\n      swap2\n      sub\n      swap1\n      revert\n    tag_243:\n        /* \"@openzeppelin/contracts/access/Ownable.sol\":2026:2027  0 */\n      0x00\n        /* \"@openzeppelin/contracts/access/Ownable.sol\":2006:2028  newOwner != address(0) */\n      0xffffffffffffffffffffffffffffffffffffffff\n      and\n        /* \"@openzeppelin/contracts/access/Ownable.sol\":2006:2014  newOwner */\n      dup2\n        /* \"@openzeppelin/contracts/access/Ownable.sol\":2006:2028  newOwner != address(0) */\n      0xffffffffffffffffffffffffffffffffffffffff\n      and\n      eq\n      iszero\n        /* \"@openzeppelin/contracts/access/Ownable.sol\":1998:2071  require(newOwner != address(0), \"Ownable: new owner is the zero address\") */\n      tag_246\n      jumpi\n      mload(0x40)\n      0x08c379a000000000000000000000000000000000000000000000000000000000\n      dup2\n      mstore\n      0x04\n      add\n      tag_247\n      swap1\n      tag_248\n      jump\t// in\n    tag_247:\n      mload(0x40)\n      dup1\n      swap2\n      sub\n      swap1\n      revert\n    tag_246:\n        /* \"@openzeppelin/contracts/access/Ownable.sol\":2081:2109  _transferOwnership(newOwner) */\n      tag_249\n        /* \"@openzeppelin/contracts/access/Ownable.sol\":2100:2108  newOwner */\n      dup2\n        /* \"@openzeppelin/contracts/access/Ownable.sol\":2081:2099  _transferOwnership */\n      tag_190\n        /* \"@openzeppelin/contracts/access/Ownable.sol\":2081:2109  _transferOwnership(newOwner) */\n      jump\t// in\n    tag_249:\n        /* \"@openzeppelin/contracts/access/Ownable.sol\":1918:2116  function transferOwnership(address newOwner) public virtual onlyOwner {... */\n      pop\n      jump\t// out\n        /* \"contracts/Staking.sol\":7174:7293  function rewardAmount() public view returns (uint256) {\r... */\n    tag_72:\n        /* \"contracts/Staking.sol\":7219:7226  uint256 */\n      0x00\n        /* \"contracts/Staking.sol\":7246:7253  _staker */\n      0x07\n        /* \"contracts/Staking.sol\":7246:7265  _staker[msg.sender] */\n      0x00\n        /* \"contracts/Staking.sol\":7254:7264  msg.sender */\n      caller\n        /* \"contracts/Staking.sol\":7246:7265  _staker[msg.sender] */\n      0xffffffffffffffffffffffffffffffffffffffff\n      and\n      0xffffffffffffffffffffffffffffffffffffffff\n      and\n      dup2\n      mstore\n      0x20\n      add\n      swap1\n      dup2\n      mstore\n      0x20\n      add\n      0x00\n      keccak256\n        /* \"contracts/Staking.sol\":7246:7285  _staker[msg.sender].stakerCurrentReward */\n      0x00\n      add\n      sload\n        /* \"contracts/Staking.sol\":7239:7285  return _staker[msg.sender].stakerCurrentReward */\n      swap1\n      pop\n        /* \"contracts/Staking.sol\":7174:7293  function rewardAmount() public view returns (uint256) {\r... */\n      swap1\n      jump\t// out\n        /* \"contracts/Staking.sol\":1075:1094  IBEP20 public token */\n    tag_75:\n      0x09\n      0x00\n      swap1\n      sload\n      swap1\n      0x0100\n      exp\n      swap1\n      div\n      0xffffffffffffffffffffffffffffffffffffffff\n      and\n      dup2\n      jump\t// out\n        /* \"contracts/Staking.sol\":2152:2530  function updateReward() private{\r... */\n    tag_86:\n        /* \"contracts/Staking.sol\":2204:2225  Staker storage staker */\n      0x00\n        /* \"contracts/Staking.sol\":2228:2235  _staker */\n      0x07\n        /* \"contracts/Staking.sol\":2228:2247  _staker[msg.sender] */\n      0x00\n        /* \"contracts/Staking.sol\":2236:2246  msg.sender */\n      caller\n        /* \"contracts/Staking.sol\":2228:2247  _staker[msg.sender] */\n      0xffffffffffffffffffffffffffffffffffffffff\n      and\n      0xffffffffffffffffffffffffffffffffffffffff\n      and\n      dup2\n      mstore\n      0x20\n      add\n      swap1\n      dup2\n      mstore\n      0x20\n      add\n      0x00\n      keccak256\n        /* \"contracts/Staking.sol\":2204:2247  Staker storage staker = _staker[msg.sender] */\n      swap1\n      pop\n        /* \"contracts/Staking.sol\":2258:2275  uint256 newReward */\n      0x00\n        /* \"contracts/Staking.sol\":2278:2386  staker.stakedAmount.mul(block.number.sub(staker.lastUpdatedBlockNumber).div(8640)).mul(_rewardRate).div(1e4) */\n      tag_252\n        /* \"contracts/Staking.sol\":2382:2385  1e4 */\n      0x2710\n        /* \"contracts/Staking.sol\":2278:2377  staker.stakedAmount.mul(block.number.sub(staker.lastUpdatedBlockNumber).div(8640)).mul(_rewardRate) */\n      tag_253\n        /* \"contracts/Staking.sol\":2365:2376  _rewardRate */\n      sload(0x03)\n        /* \"contracts/Staking.sol\":2278:2360  staker.stakedAmount.mul(block.number.sub(staker.lastUpdatedBlockNumber).div(8640)) */\n      tag_254\n        /* \"contracts/Staking.sol\":2302:2359  block.number.sub(staker.lastUpdatedBlockNumber).div(8640) */\n      tag_255\n        /* \"contracts/Staking.sol\":2354:2358  8640 */\n      0x21c0\n        /* \"contracts/Staking.sol\":2302:2349  block.number.sub(staker.lastUpdatedBlockNumber) */\n      tag_256\n        /* \"contracts/Staking.sol\":2319:2325  staker */\n      dup10\n        /* \"contracts/Staking.sol\":2319:2348  staker.lastUpdatedBlockNumber */\n      0x04\n      add\n      sload\n        /* \"contracts/Staking.sol\":2302:2314  block.number */\n      number\n        /* \"contracts/Staking.sol\":2302:2318  block.number.sub */\n      tag_102\n      swap1\n        /* \"contracts/Staking.sol\":2302:2349  block.number.sub(staker.lastUpdatedBlockNumber) */\n      swap2\n      swap1\n      0xffffffff\n      and\n      jump\t// in\n    tag_256:\n        /* \"contracts/Staking.sol\":2302:2353  block.number.sub(staker.lastUpdatedBlockNumber).div */\n      tag_103\n      swap1\n        /* \"contracts/Staking.sol\":2302:2359  block.number.sub(staker.lastUpdatedBlockNumber).div(8640) */\n      swap2\n      swap1\n      0xffffffff\n      and\n      jump\t// in\n    tag_255:\n        /* \"contracts/Staking.sol\":2278:2284  staker */\n      dup8\n        /* \"contracts/Staking.sol\":2278:2297  staker.stakedAmount */\n      0x01\n      add\n      sload\n        /* \"contracts/Staking.sol\":2278:2301  staker.stakedAmount.mul */\n      tag_115\n      swap1\n        /* \"contracts/Staking.sol\":2278:2360  staker.stakedAmount.mul(block.number.sub(staker.lastUpdatedBlockNumber).div(8640)) */\n      swap2\n      swap1\n      0xffffffff\n      and\n      jump\t// in\n    tag_254:\n        /* \"contracts/Staking.sol\":2278:2364  staker.stakedAmount.mul(block.number.sub(staker.lastUpdatedBlockNumber).div(8640)).mul */\n      tag_115\n      swap1\n        /* \"contracts/Staking.sol\":2278:2377  staker.stakedAmount.mul(block.number.sub(staker.lastUpdatedBlockNumber).div(8640)).mul(_rewardRate) */\n      swap2\n      swap1\n      0xffffffff\n      and\n      jump\t// in\n    tag_253:\n        /* \"contracts/Staking.sol\":2278:2381  staker.stakedAmount.mul(block.number.sub(staker.lastUpdatedBlockNumber).div(8640)).mul(_rewardRate).div */\n      tag_103\n      swap1\n        /* \"contracts/Staking.sol\":2278:2386  staker.stakedAmount.mul(block.number.sub(staker.lastUpdatedBlockNumber).div(8640)).mul(_rewardRate).div(1e4) */\n      swap2\n      swap1\n      0xffffffff\n      and\n      jump\t// in\n    tag_252:\n        /* \"contracts/Staking.sol\":2258:2386  uint256 newReward = staker.stakedAmount.mul(block.number.sub(staker.lastUpdatedBlockNumber).div(8640)).mul(_rewardRate).div(1e4) */\n      swap1\n      pop\n        /* \"contracts/Staking.sol\":2426:2467  staker.stakerCurrentReward.add(newReward) */\n      tag_257\n        /* \"contracts/Staking.sol\":2457:2466  newReward */\n      dup2\n        /* \"contracts/Staking.sol\":2426:2432  staker */\n      dup4\n        /* \"contracts/Staking.sol\":2426:2452  staker.stakerCurrentReward */\n      0x00\n      add\n      sload\n        /* \"contracts/Staking.sol\":2426:2456  staker.stakerCurrentReward.add */\n      tag_106\n      swap1\n        /* \"contracts/Staking.sol\":2426:2467  staker.stakerCurrentReward.add(newReward) */\n      swap2\n      swap1\n      0xffffffff\n      and\n      jump\t// in\n    tag_257:\n        /* \"contracts/Staking.sol\":2397:2403  staker */\n      dup3\n        /* \"contracts/Staking.sol\":2397:2423  staker.stakerCurrentReward */\n      0x00\n      add\n        /* \"contracts/Staking.sol\":2397:2467  staker.stakerCurrentReward = staker.stakerCurrentReward.add(newReward) */\n      dup2\n      swap1\n      sstore\n      pop\n        /* \"contracts/Staking.sol\":2510:2522  block.number */\n      number\n        /* \"contracts/Staking.sol\":2478:2484  staker */\n      dup3\n        /* \"contracts/Staking.sol\":2478:2507  staker.lastUpdatedBlockNumber */\n      0x04\n      add\n        /* \"contracts/Staking.sol\":2478:2522  staker.lastUpdatedBlockNumber = block.number */\n      dup2\n      swap1\n      sstore\n      pop\n        /* \"contracts/Staking.sol\":2183:2530  {\r... */\n      pop\n      pop\n        /* \"contracts/Staking.sol\":2152:2530  function updateReward() private{\r... */\n      jump\t// out\n        /* \"@openzeppelin/contracts/utils/math/SafeMath.sol\":3108:3204  function sub(uint256 a, uint256 b) internal pure returns (uint256) {... */\n    tag_102:\n        /* \"@openzeppelin/contracts/utils/math/SafeMath.sol\":3166:3173  uint256 */\n      0x00\n        /* \"@openzeppelin/contracts/utils/math/SafeMath.sol\":3196:3197  b */\n      dup2\n        /* \"@openzeppelin/contracts/utils/math/SafeMath.sol\":3192:3193  a */\n      dup4\n        /* \"@openzeppelin/contracts/utils/math/SafeMath.sol\":3192:3197  a - b */\n      tag_259\n      swap2\n      swap1\n      tag_260\n      jump\t// in\n    tag_259:\n        /* \"@openzeppelin/contracts/utils/math/SafeMath.sol\":3185:3197  return a - b */\n      swap1\n      pop\n        /* \"@openzeppelin/contracts/utils/math/SafeMath.sol\":3108:3204  function sub(uint256 a, uint256 b) internal pure returns (uint256) {... */\n      swap3\n      swap2\n      pop\n      pop\n      jump\t// out\n        /* \"@openzeppelin/contracts/utils/math/SafeMath.sol\":3836:3932  function div(uint256 a, uint256 b) internal pure returns (uint256) {... */\n    tag_103:\n        /* \"@openzeppelin/contracts/utils/math/SafeMath.sol\":3894:3901  uint256 */\n      0x00\n        /* \"@openzeppelin/contracts/utils/math/SafeMath.sol\":3924:3925  b */\n      dup2\n        /* \"@openzeppelin/contracts/utils/math/SafeMath.sol\":3920:3921  a */\n      dup4\n        /* \"@openzeppelin/contracts/utils/math/SafeMath.sol\":3920:3925  a / b */\n      tag_262\n      swap2\n      swap1\n      tag_263\n      jump\t// in\n    tag_262:\n        /* \"@openzeppelin/contracts/utils/math/SafeMath.sol\":3913:3925  return a / b */\n      swap1\n      pop\n        /* \"@openzeppelin/contracts/utils/math/SafeMath.sol\":3836:3932  function div(uint256 a, uint256 b) internal pure returns (uint256) {... */\n      swap3\n      swap2\n      pop\n      pop\n      jump\t// out\n        /* \"@openzeppelin/contracts/utils/math/SafeMath.sol\":2741:2837  function add(uint256 a, uint256 b) internal pure returns (uint256) {... */\n    tag_106:\n        /* \"@openzeppelin/contracts/utils/math/SafeMath.sol\":2799:2806  uint256 */\n      0x00\n        /* \"@openzeppelin/contracts/utils/math/SafeMath.sol\":2829:2830  b */\n      dup2\n        /* \"@openzeppelin/contracts/utils/math/SafeMath.sol\":2825:2826  a */\n      dup4\n        /* \"@openzeppelin/contracts/utils/math/SafeMath.sol\":2825:2830  a + b */\n      tag_265\n      swap2\n      swap1\n      tag_266\n      jump\t// in\n    tag_265:\n        /* \"@openzeppelin/contracts/utils/math/SafeMath.sol\":2818:2830  return a + b */\n      swap1\n      pop\n        /* \"@openzeppelin/contracts/utils/math/SafeMath.sol\":2741:2837  function add(uint256 a, uint256 b) internal pure returns (uint256) {... */\n      swap3\n      swap2\n      pop\n      pop\n      jump\t// out\n        /* \"@openzeppelin/contracts/utils/math/SafeMath.sol\":3451:3547  function mul(uint256 a, uint256 b) internal pure returns (uint256) {... */\n    tag_115:\n        /* \"@openzeppelin/contracts/utils/math/SafeMath.sol\":3509:3516  uint256 */\n      0x00\n        /* \"@openzeppelin/contracts/utils/math/SafeMath.sol\":3539:3540  b */\n      dup2\n        /* \"@openzeppelin/contracts/utils/math/SafeMath.sol\":3535:3536  a */\n      dup4\n        /* \"@openzeppelin/contracts/utils/math/SafeMath.sol\":3535:3540  a * b */\n      tag_268\n      swap2\n      swap1\n      tag_269\n      jump\t// in\n    tag_268:\n        /* \"@openzeppelin/contracts/utils/math/SafeMath.sol\":3528:3540  return a * b */\n      swap1\n      pop\n        /* \"@openzeppelin/contracts/utils/math/SafeMath.sol\":3451:3547  function mul(uint256 a, uint256 b) internal pure returns (uint256) {... */\n      swap3\n      swap2\n      pop\n      pop\n      jump\t// out\n        /* \"contracts/SafeBEP20.sol\":290:467  function safeTransfer(IBEP20 token, address to, uint256 value) internal {\r... */\n    tag_119:\n        /* \"contracts/SafeBEP20.sol\":373:459  _callOptionalReturn(token, abi.encodeWithSelector(token.transfer.selector, to, value)) */\n      tag_271\n        /* \"contracts/SafeBEP20.sol\":393:398  token */\n      dup4\n        /* \"contracts/SafeBEP20.sol\":423:446  token.transfer.selector */\n      shl(0xe0, 0xa9059cbb)\n        /* \"contracts/SafeBEP20.sol\":448:450  to */\n      dup5\n        /* \"contracts/SafeBEP20.sol\":452:457  value */\n      dup5\n        /* \"contracts/SafeBEP20.sol\":400:458  abi.encodeWithSelector(token.transfer.selector, to, value) */\n      add(0x24, mload(0x40))\n      tag_272\n      swap3\n      swap2\n      swap1\n      tag_121\n      jump\t// in\n    tag_272:\n      mload(0x40)\n      0x20\n      dup2\n      dup4\n      sub\n      sub\n      dup2\n      mstore\n      swap1\n      0x40\n      mstore\n      swap1\n      not(0xffffffffffffffffffffffffffffffffffffffffffffffffffffffff)\n      and\n      0x20\n      dup3\n      add\n      dup1\n      mload\n      0xffffffffffffffffffffffffffffffffffffffffffffffffffffffff\n      dup4\n      dup2\n      dup4\n      and\n      or\n      dup4\n      mstore\n      pop\n      pop\n      pop\n      pop\n        /* \"contracts/SafeBEP20.sol\":373:392  _callOptionalReturn */\n      tag_273\n        /* \"contracts/SafeBEP20.sol\":373:459  _callOptionalReturn(token, abi.encodeWithSelector(token.transfer.selector, to, value)) */\n      jump\t// in\n    tag_271:\n        /* \"contracts/SafeBEP20.sol\":290:467  function safeTransfer(IBEP20 token, address to, uint256 value) internal {\r... */\n      pop\n      pop\n      pop\n      jump\t// out\n        /* \"contracts/SafeBEP20.sol\":475:680  function safeTransferFrom(IBEP20 token, address from, address to, uint256 value) internal {\r... */\n    tag_143:\n        /* \"contracts/SafeBEP20.sol\":576:672  _callOptionalReturn(token, abi.encodeWithSelector(token.transferFrom.selector, from, to, value)) */\n      tag_275\n        /* \"contracts/SafeBEP20.sol\":596:601  token */\n      dup5\n        /* \"contracts/SafeBEP20.sol\":626:653  token.transferFrom.selector */\n      shl(0xe0, 0x23b872dd)\n        /* \"contracts/SafeBEP20.sol\":655:659  from */\n      dup6\n        /* \"contracts/SafeBEP20.sol\":661:663  to */\n      dup6\n        /* \"contracts/SafeBEP20.sol\":665:670  value */\n      dup6\n        /* \"contracts/SafeBEP20.sol\":603:671  abi.encodeWithSelector(token.transferFrom.selector, from, to, value) */\n      add(0x24, mload(0x40))\n      tag_276\n      swap4\n      swap3\n      swap2\n      swap1\n      tag_277\n      jump\t// in\n    tag_276:\n      mload(0x40)\n      0x20\n      dup2\n      dup4\n      sub\n      sub\n      dup2\n      mstore\n      swap1\n      0x40\n      mstore\n      swap1\n      not(0xffffffffffffffffffffffffffffffffffffffffffffffffffffffff)\n      and\n      0x20\n      dup3\n      add\n      dup1\n      mload\n      0xffffffffffffffffffffffffffffffffffffffffffffffffffffffff\n      dup4\n      dup2\n      dup4\n      and\n      or\n      dup4\n      mstore\n      pop\n      pop\n      pop\n      pop\n        /* \"contracts/SafeBEP20.sol\":576:595  _callOptionalReturn */\n      tag_273\n        /* \"contracts/SafeBEP20.sol\":576:672  _callOptionalReturn(token, abi.encodeWithSelector(token.transferFrom.selector, from, to, value)) */\n      jump\t// in\n    tag_275:\n        /* \"contracts/SafeBEP20.sol\":475:680  function safeTransferFrom(IBEP20 token, address from, address to, uint256 value) internal {\r... */\n      pop\n      pop\n      pop\n      pop\n      jump\t// out\n        /* \"@openzeppelin/contracts/utils/Context.sol\":640:736  function _msgSender() internal view virtual returns (address) {... */\n    tag_147:\n        /* \"@openzeppelin/contracts/utils/Context.sol\":693:700  address */\n      0x00\n        /* \"@openzeppelin/contracts/utils/Context.sol\":719:729  msg.sender */\n      caller\n        /* \"@openzeppelin/contracts/utils/Context.sol\":712:729  return msg.sender */\n      swap1\n      pop\n        /* \"@openzeppelin/contracts/utils/Context.sol\":640:736  function _msgSender() internal view virtual returns (address) {... */\n      swap1\n      jump\t// out\n        /* \"@openzeppelin/contracts/access/Ownable.sol\":2270:2457  function _transferOwnership(address newOwner) internal virtual {... */\n    tag_190:\n        /* \"@openzeppelin/contracts/access/Ownable.sol\":2343:2359  address oldOwner */\n      0x00\n        /* \"@openzeppelin/contracts/access/Ownable.sol\":2362:2368  _owner */\n      dup1\n      0x00\n      swap1\n      sload\n      swap1\n      0x0100\n      exp\n      swap1\n      div\n      0xffffffffffffffffffffffffffffffffffffffff\n      and\n        /* \"@openzeppelin/contracts/access/Ownable.sol\":2343:2368  address oldOwner = _owner */\n      swap1\n      pop\n        /* \"@openzeppelin/contracts/access/Ownable.sol\":2387:2395  newOwner */\n      dup2\n        /* \"@openzeppelin/contracts/access/Ownable.sol\":2378:2384  _owner */\n      0x00\n      dup1\n        /* \"@openzeppelin/contracts/access/Ownable.sol\":2378:2395  _owner = newOwner */\n      0x0100\n      exp\n      dup2\n      sload\n      dup2\n      0xffffffffffffffffffffffffffffffffffffffff\n      mul\n      not\n      and\n      swap1\n      dup4\n      0xffffffffffffffffffffffffffffffffffffffff\n      and\n      mul\n      or\n      swap1\n      sstore\n      pop\n        /* \"@openzeppelin/contracts/access/Ownable.sol\":2441:2449  newOwner */\n      dup2\n        /* \"@openzeppelin/contracts/access/Ownable.sol\":2410:2450  OwnershipTransferred(oldOwner, newOwner) */\n      0xffffffffffffffffffffffffffffffffffffffff\n      and\n        /* \"@openzeppelin/contracts/access/Ownable.sol\":2431:2439  oldOwner */\n      dup2\n        /* \"@openzeppelin/contracts/access/Ownable.sol\":2410:2450  OwnershipTransferred(oldOwner, newOwner) */\n      0xffffffffffffffffffffffffffffffffffffffff\n      and\n      0x8be0079c531659141344cd1fd0a4f28419497f9722a3daafe3b4186f6b6457e0\n      mload(0x40)\n      mload(0x40)\n      dup1\n      swap2\n      sub\n      swap1\n      log3\n        /* \"@openzeppelin/contracts/access/Ownable.sol\":2333:2457  {... */\n      pop\n        /* \"@openzeppelin/contracts/access/Ownable.sol\":2270:2457  function _transferOwnership(address newOwner) internal virtual {... */\n      pop\n      jump\t// out\n        /* \"contracts/SafeBEP20.sol\":2599:3368  function _callOptionalReturn(IBEP20 token, bytes memory data) private {\r... */\n    tag_273:\n        /* \"contracts/SafeBEP20.sol\":3031:3054  bytes memory returndata */\n      0x00\n        /* \"contracts/SafeBEP20.sol\":3057:3126  address(token).functionCall(data, \"SafeBEP20: low-level call failed\") */\n      tag_281\n        /* \"contracts/SafeBEP20.sol\":3085:3089  data */\n      dup3\n        /* \"contracts/SafeBEP20.sol\":3057:3126  address(token).functionCall(data, \"SafeBEP20: low-level call failed\") */\n      mload(0x40)\n      dup1\n      0x40\n      add\n      0x40\n      mstore\n      dup1\n      0x20\n      dup2\n      mstore\n      0x20\n      add\n      0x5361666542455032303a206c6f772d6c6576656c2063616c6c206661696c6564\n      dup2\n      mstore\n      pop\n        /* \"contracts/SafeBEP20.sol\":3065:3070  token */\n      dup6\n        /* \"contracts/SafeBEP20.sol\":3057:3084  address(token).functionCall */\n      0xffffffffffffffffffffffffffffffffffffffff\n      and\n      tag_282\n      swap1\n        /* \"contracts/SafeBEP20.sol\":3057:3126  address(token).functionCall(data, \"SafeBEP20: low-level call failed\") */\n      swap3\n      swap2\n      swap1\n      0xffffffff\n      and\n      jump\t// in\n    tag_281:\n        /* \"contracts/SafeBEP20.sol\":3031:3126  bytes memory returndata = address(token).functionCall(data, \"SafeBEP20: low-level call failed\") */\n      swap1\n      pop\n        /* \"contracts/SafeBEP20.sol\":3161:3162  0 */\n      0x00\n        /* \"contracts/SafeBEP20.sol\":3141:3151  returndata */\n      dup2\n        /* \"contracts/SafeBEP20.sol\":3141:3158  returndata.length */\n      mload\n        /* \"contracts/SafeBEP20.sol\":3141:3162  returndata.length > 0 */\n      gt\n        /* \"contracts/SafeBEP20.sol\":3137:3361  if (returndata.length > 0) { // Return data is optional\r... */\n      iszero\n      tag_283\n      jumpi\n        /* \"contracts/SafeBEP20.sol\":3283:3293  returndata */\n      dup1\n        /* \"contracts/SafeBEP20.sol\":3272:3302  abi.decode(returndata, (bool)) */\n      dup1\n      0x20\n      add\n      swap1\n      mload\n      dup2\n      add\n      swap1\n      tag_284\n      swap2\n      swap1\n      tag_285\n      jump\t// in\n    tag_284:\n        /* \"contracts/SafeBEP20.sol\":3264:3349  require(abi.decode(returndata, (bool)), \"SafeBEP20: BEP20 operation did not succeed\") */\n      tag_286\n      jumpi\n      mload(0x40)\n      0x08c379a000000000000000000000000000000000000000000000000000000000\n      dup2\n      mstore\n      0x04\n      add\n      tag_287\n      swap1\n      tag_288\n      jump\t// in\n    tag_287:\n      mload(0x40)\n      dup1\n      swap2\n      sub\n      swap1\n      revert\n    tag_286:\n        /* \"contracts/SafeBEP20.sol\":3137:3361  if (returndata.length > 0) { // Return data is optional\r... */\n    tag_283:\n        /* \"contracts/SafeBEP20.sol\":2669:3368  {\r... */\n      pop\n        /* \"contracts/SafeBEP20.sol\":2599:3368  function _callOptionalReturn(IBEP20 token, bytes memory data) private {\r... */\n      pop\n      pop\n      jump\t// out\n        /* \"@openzeppelin/contracts/utils/Address.sol\":3861:4084  function functionCall(... */\n    tag_282:\n        /* \"@openzeppelin/contracts/utils/Address.sol\":3994:4006  bytes memory */\n      0x60\n        /* \"@openzeppelin/contracts/utils/Address.sol\":4025:4077  functionCallWithValue(target, data, 0, errorMessage) */\n      tag_290\n        /* \"@openzeppelin/contracts/utils/Address.sol\":4047:4053  target */\n      dup5\n        /* \"@openzeppelin/contracts/utils/Address.sol\":4055:4059  data */\n      dup5\n        /* \"@openzeppelin/contracts/utils/Address.sol\":4061:4062  0 */\n      0x00\n        /* \"@openzeppelin/contracts/utils/Address.sol\":4064:4076  errorMessage */\n      dup6\n        /* \"@openzeppelin/contracts/utils/Address.sol\":4025:4046  functionCallWithValue */\n      tag_291\n        /* \"@openzeppelin/contracts/utils/Address.sol\":4025:4077  functionCallWithValue(target, data, 0, errorMessage) */\n      jump\t// in\n    tag_290:\n        /* \"@openzeppelin/contracts/utils/Address.sol\":4018:4077  return functionCallWithValue(target, data, 0, errorMessage) */\n      swap1\n      pop\n        /* \"@openzeppelin/contracts/utils/Address.sol\":3861:4084  function functionCall(... */\n      swap4\n      swap3\n      pop\n      pop\n      pop\n      jump\t// out\n        /* \"@openzeppelin/contracts/utils/Address.sol\":4948:5447  function functionCallWithValue(... */\n    tag_291:\n        /* \"@openzeppelin/contracts/utils/Address.sol\":5113:5125  bytes memory */\n      0x60\n        /* \"@openzeppelin/contracts/utils/Address.sol\":5170:5175  value */\n      dup3\n        /* \"@openzeppelin/contracts/utils/Address.sol\":5145:5166  address(this).balance */\n      selfbalance\n        /* \"@openzeppelin/contracts/utils/Address.sol\":5145:5175  address(this).balance >= value */\n      lt\n      iszero\n        /* \"@openzeppelin/contracts/utils/Address.sol\":5137:5218  require(address(this).balance >= value, \"Address: insufficient balance for call\") */\n      tag_293\n      jumpi\n      mload(0x40)\n      0x08c379a000000000000000000000000000000000000000000000000000000000\n      dup2\n      mstore\n      0x04\n      add\n      tag_294\n      swap1\n      tag_295\n      jump\t// in\n    tag_294:\n      mload(0x40)\n      dup1\n      swap2\n      sub\n      swap1\n      revert\n    tag_293:\n        /* \"@openzeppelin/contracts/utils/Address.sol\":5236:5254  isContract(target) */\n      tag_296\n        /* \"@openzeppelin/contracts/utils/Address.sol\":5247:5253  target */\n      dup6\n        /* \"@openzeppelin/contracts/utils/Address.sol\":5236:5246  isContract */\n      tag_297\n        /* \"@openzeppelin/contracts/utils/Address.sol\":5236:5254  isContract(target) */\n      jump\t// in\n    tag_296:\n        /* \"@openzeppelin/contracts/utils/Address.sol\":5228:5288  require(isContract(target), \"Address: call to non-contract\") */\n      tag_298\n      jumpi\n      mload(0x40)\n      0x08c379a000000000000000000000000000000000000000000000000000000000\n      dup2\n      mstore\n      0x04\n      add\n      tag_299\n      swap1\n      tag_300\n      jump\t// in\n    tag_299:\n      mload(0x40)\n      dup1\n      swap2\n      sub\n      swap1\n      revert\n    tag_298:\n        /* \"@openzeppelin/contracts/utils/Address.sol\":5300:5312  bool success */\n      0x00\n        /* \"@openzeppelin/contracts/utils/Address.sol\":5314:5337  bytes memory returndata */\n      dup1\n        /* \"@openzeppelin/contracts/utils/Address.sol\":5341:5347  target */\n      dup7\n        /* \"@openzeppelin/contracts/utils/Address.sol\":5341:5352  target.call */\n      0xffffffffffffffffffffffffffffffffffffffff\n      and\n        /* \"@openzeppelin/contracts/utils/Address.sol\":5360:5365  value */\n      dup6\n        /* \"@openzeppelin/contracts/utils/Address.sol\":5367:5371  data */\n      dup8\n        /* \"@openzeppelin/contracts/utils/Address.sol\":5341:5372  target.call{value: value}(data) */\n      mload(0x40)\n      tag_301\n      swap2\n      swap1\n      tag_302\n      jump\t// in\n    tag_301:\n      0x00\n      mload(0x40)\n      dup1\n      dup4\n      sub\n      dup2\n      dup6\n      dup8\n      gas\n      call\n      swap3\n      pop\n      pop\n      pop\n      returndatasize\n      dup1\n      0x00\n      dup2\n      eq\n      tag_305\n      jumpi\n      mload(0x40)\n      swap2\n      pop\n      and(add(returndatasize, 0x3f), not(0x1f))\n      dup3\n      add\n      0x40\n      mstore\n      returndatasize\n      dup3\n      mstore\n      returndatasize\n      0x00\n      0x20\n      dup5\n      add\n      returndatacopy\n      jump(tag_304)\n    tag_305:\n      0x60\n      swap2\n      pop\n    tag_304:\n      pop\n        /* \"@openzeppelin/contracts/utils/Address.sol\":5299:5372  (bool success, bytes memory returndata) = target.call{value: value}(data) */\n      swap2\n      pop\n      swap2\n      pop\n        /* \"@openzeppelin/contracts/utils/Address.sol\":5389:5440  verifyCallResult(success, returndata, errorMessage) */\n      tag_306\n        /* \"@openzeppelin/contracts/utils/Address.sol\":5406:5413  success */\n      dup3\n        /* \"@openzeppelin/contracts/utils/Address.sol\":5415:5425  returndata */\n      dup3\n        /* \"@openzeppelin/contracts/utils/Address.sol\":5427:5439  errorMessage */\n      dup7\n        /* \"@openzeppelin/contracts/utils/Address.sol\":5389:5405  verifyCallResult */\n      tag_307\n        /* \"@openzeppelin/contracts/utils/Address.sol\":5389:5440  verifyCallResult(success, returndata, errorMessage) */\n      jump\t// in\n    tag_306:\n        /* \"@openzeppelin/contracts/utils/Address.sol\":5382:5440  return verifyCallResult(success, returndata, errorMessage) */\n      swap3\n      pop\n      pop\n      pop\n        /* \"@openzeppelin/contracts/utils/Address.sol\":4948:5447  function functionCallWithValue(... */\n      swap5\n      swap4\n      pop\n      pop\n      pop\n      pop\n      jump\t// out\n        /* \"@openzeppelin/contracts/utils/Address.sol\":1175:1495  function isContract(address account) internal view returns (bool) {... */\n    tag_297:\n        /* \"@openzeppelin/contracts/utils/Address.sol\":1235:1239  bool */\n      0x00\n        /* \"@openzeppelin/contracts/utils/Address.sol\":1487:1488  0 */\n      dup1\n        /* \"@openzeppelin/contracts/utils/Address.sol\":1465:1472  account */\n      dup3\n        /* \"@openzeppelin/contracts/utils/Address.sol\":1465:1484  account.code.length */\n      0xffffffffffffffffffffffffffffffffffffffff\n      and\n      extcodesize\n        /* \"@openzeppelin/contracts/utils/Address.sol\":1465:1488  account.code.length > 0 */\n      gt\n        /* \"@openzeppelin/contracts/utils/Address.sol\":1458:1488  return account.code.length > 0 */\n      swap1\n      pop\n        /* \"@openzeppelin/contracts/utils/Address.sol\":1175:1495  function isContract(address account) internal view returns (bool) {... */\n      swap2\n      swap1\n      pop\n      jump\t// out\n        /* \"@openzeppelin/contracts/utils/Address.sol\":7561:8253  function verifyCallResult(... */\n    tag_307:\n        /* \"@openzeppelin/contracts/utils/Address.sol\":7707:7719  bytes memory */\n      0x60\n        /* \"@openzeppelin/contracts/utils/Address.sol\":7735:7742  success */\n      dup4\n        /* \"@openzeppelin/contracts/utils/Address.sol\":7731:8247  if (success) {... */\n      iszero\n      tag_310\n      jumpi\n        /* \"@openzeppelin/contracts/utils/Address.sol\":7765:7775  returndata */\n      dup3\n        /* \"@openzeppelin/contracts/utils/Address.sol\":7758:7775  return returndata */\n      swap1\n      pop\n      jump(tag_309)\n        /* \"@openzeppelin/contracts/utils/Address.sol\":7731:8247  if (success) {... */\n    tag_310:\n        /* \"@openzeppelin/contracts/utils/Address.sol\":7896:7897  0 */\n      0x00\n        /* \"@openzeppelin/contracts/utils/Address.sol\":7876:7886  returndata */\n      dup4\n        /* \"@openzeppelin/contracts/utils/Address.sol\":7876:7893  returndata.length */\n      mload\n        /* \"@openzeppelin/contracts/utils/Address.sol\":7876:7897  returndata.length > 0 */\n      gt\n        /* \"@openzeppelin/contracts/utils/Address.sol\":7872:8237  if (returndata.length > 0) {... */\n      iszero\n      tag_312\n      jumpi\n        /* \"@openzeppelin/contracts/utils/Address.sol\":8070:8080  returndata */\n      dup3\n        /* \"@openzeppelin/contracts/utils/Address.sol\":8064:8081  mload(returndata) */\n      mload\n        /* \"@openzeppelin/contracts/utils/Address.sol\":8130:8145  returndata_size */\n      dup1\n        /* \"@openzeppelin/contracts/utils/Address.sol\":8117:8127  returndata */\n      dup5\n        /* \"@openzeppelin/contracts/utils/Address.sol\":8113:8115  32 */\n      0x20\n        /* \"@openzeppelin/contracts/utils/Address.sol\":8109:8128  add(32, returndata) */\n      add\n        /* \"@openzeppelin/contracts/utils/Address.sol\":8102:8146  revert(add(32, returndata), returndata_size) */\n      revert\n        /* \"@openzeppelin/contracts/utils/Address.sol\":7872:8237  if (returndata.length > 0) {... */\n    tag_312:\n        /* \"@openzeppelin/contracts/utils/Address.sol\":8209:8221  errorMessage */\n      dup2\n        /* \"@openzeppelin/contracts/utils/Address.sol\":8202:8222  revert(errorMessage) */\n      mload(0x40)\n      0x08c379a000000000000000000000000000000000000000000000000000000000\n      dup2\n      mstore\n      0x04\n      add\n      tag_314\n      swap2\n      swap1\n      tag_315\n      jump\t// in\n    tag_314:\n      mload(0x40)\n      dup1\n      swap2\n      sub\n      swap1\n      revert\n        /* \"@openzeppelin/contracts/utils/Address.sol\":7561:8253  function verifyCallResult(... */\n    tag_309:\n      swap4\n      swap3\n      pop\n      pop\n      pop\n      jump\t// out\n        /* \"#utility.yul\":7:146   */\n    tag_317:\n        /* \"#utility.yul\":53:58   */\n      0x00\n        /* \"#utility.yul\":91:97   */\n      dup2\n        /* \"#utility.yul\":78:98   */\n      calldataload\n        /* \"#utility.yul\":69:98   */\n      swap1\n      pop\n        /* \"#utility.yul\":107:140   */\n      tag_319\n        /* \"#utility.yul\":134:139   */\n      dup2\n        /* \"#utility.yul\":107:140   */\n      tag_320\n      jump\t// in\n    tag_319:\n        /* \"#utility.yul\":7:146   */\n      swap3\n      swap2\n      pop\n      pop\n      jump\t// out\n        /* \"#utility.yul\":152:289   */\n    tag_321:\n        /* \"#utility.yul\":206:211   */\n      0x00\n        /* \"#utility.yul\":237:243   */\n      dup2\n        /* \"#utility.yul\":231:244   */\n      mload\n        /* \"#utility.yul\":222:244   */\n      swap1\n      pop\n        /* \"#utility.yul\":253:283   */\n      tag_323\n        /* \"#utility.yul\":277:282   */\n      dup2\n        /* \"#utility.yul\":253:283   */\n      tag_324\n      jump\t// in\n    tag_323:\n        /* \"#utility.yul\":152:289   */\n      swap3\n      swap2\n      pop\n      pop\n      jump\t// out\n        /* \"#utility.yul\":295:434   */\n    tag_325:\n        /* \"#utility.yul\":341:346   */\n      0x00\n        /* \"#utility.yul\":379:385   */\n      dup2\n        /* \"#utility.yul\":366:386   */\n      calldataload\n        /* \"#utility.yul\":357:386   */\n      swap1\n      pop\n        /* \"#utility.yul\":395:428   */\n      tag_327\n        /* \"#utility.yul\":422:427   */\n      dup2\n        /* \"#utility.yul\":395:428   */\n      tag_328\n      jump\t// in\n    tag_327:\n        /* \"#utility.yul\":295:434   */\n      swap3\n      swap2\n      pop\n      pop\n      jump\t// out\n        /* \"#utility.yul\":440:583   */\n    tag_329:\n        /* \"#utility.yul\":497:502   */\n      0x00\n        /* \"#utility.yul\":528:534   */\n      dup2\n        /* \"#utility.yul\":522:535   */\n      mload\n        /* \"#utility.yul\":513:535   */\n      swap1\n      pop\n        /* \"#utility.yul\":544:577   */\n      tag_331\n        /* \"#utility.yul\":571:576   */\n      dup2\n        /* \"#utility.yul\":544:577   */\n      tag_328\n      jump\t// in\n    tag_331:\n        /* \"#utility.yul\":440:583   */\n      swap3\n      swap2\n      pop\n      pop\n      jump\t// out\n        /* \"#utility.yul\":589:918   */\n    tag_53:\n        /* \"#utility.yul\":648:654   */\n      0x00\n        /* \"#utility.yul\":697:699   */\n      0x20\n        /* \"#utility.yul\":685:694   */\n      dup3\n        /* \"#utility.yul\":676:683   */\n      dup5\n        /* \"#utility.yul\":672:695   */\n      sub\n        /* \"#utility.yul\":668:700   */\n      slt\n        /* \"#utility.yul\":665:784   */\n      iszero\n      tag_333\n      jumpi\n        /* \"#utility.yul\":703:782   */\n      tag_334\n      tag_335\n      jump\t// in\n    tag_334:\n        /* \"#utility.yul\":665:784   */\n    tag_333:\n        /* \"#utility.yul\":823:824   */\n      0x00\n        /* \"#utility.yul\":848:901   */\n      tag_336\n        /* \"#utility.yul\":893:900   */\n      dup5\n        /* \"#utility.yul\":884:890   */\n      dup3\n        /* \"#utility.yul\":873:882   */\n      dup6\n        /* \"#utility.yul\":869:891   */\n      add\n        /* \"#utility.yul\":848:901   */\n      tag_317\n      jump\t// in\n    tag_336:\n        /* \"#utility.yul\":838:901   */\n      swap2\n      pop\n        /* \"#utility.yul\":794:911   */\n      pop\n        /* \"#utility.yul\":589:918   */\n      swap3\n      swap2\n      pop\n      pop\n      jump\t// out\n        /* \"#utility.yul\":924:1269   */\n    tag_285:\n        /* \"#utility.yul\":991:997   */\n      0x00\n        /* \"#utility.yul\":1040:1042   */\n      0x20\n        /* \"#utility.yul\":1028:1037   */\n      dup3\n        /* \"#utility.yul\":1019:1026   */\n      dup5\n        /* \"#utility.yul\":1015:1038   */\n      sub\n        /* \"#utility.yul\":1011:1043   */\n      slt\n        /* \"#utility.yul\":1008:1127   */\n      iszero\n      tag_338\n      jumpi\n        /* \"#utility.yul\":1046:1125   */\n      tag_339\n      tag_335\n      jump\t// in\n    tag_339:\n        /* \"#utility.yul\":1008:1127   */\n    tag_338:\n        /* \"#utility.yul\":1166:1167   */\n      0x00\n        /* \"#utility.yul\":1191:1252   */\n      tag_340\n        /* \"#utility.yul\":1244:1251   */\n      dup5\n        /* \"#utility.yul\":1235:1241   */\n      dup3\n        /* \"#utility.yul\":1224:1233   */\n      dup6\n        /* \"#utility.yul\":1220:1242   */\n      add\n        /* \"#utility.yul\":1191:1252   */\n      tag_321\n      jump\t// in\n    tag_340:\n        /* \"#utility.yul\":1181:1252   */\n      swap2\n      pop\n        /* \"#utility.yul\":1137:1262   */\n      pop\n        /* \"#utility.yul\":924:1269   */\n      swap3\n      swap2\n      pop\n      pop\n      jump\t// out\n        /* \"#utility.yul\":1275:1604   */\n    tag_25:\n        /* \"#utility.yul\":1334:1340   */\n      0x00\n        /* \"#utility.yul\":1383:1385   */\n      0x20\n        /* \"#utility.yul\":1371:1380   */\n      dup3\n        /* \"#utility.yul\":1362:1369   */\n      dup5\n        /* \"#utility.yul\":1358:1381   */\n      sub\n        /* \"#utility.yul\":1354:1386   */\n      slt\n        /* \"#utility.yul\":1351:1470   */\n      iszero\n      tag_342\n      jumpi\n        /* \"#utility.yul\":1389:1468   */\n      tag_343\n      tag_335\n      jump\t// in\n    tag_343:\n        /* \"#utility.yul\":1351:1470   */\n    tag_342:\n        /* \"#utility.yul\":1509:1510   */\n      0x00\n        /* \"#utility.yul\":1534:1587   */\n      tag_344\n        /* \"#utility.yul\":1579:1586   */\n      dup5\n        /* \"#utility.yul\":1570:1576   */\n      dup3\n        /* \"#utility.yul\":1559:1568   */\n      dup6\n        /* \"#utility.yul\":1555:1577   */\n      add\n        /* \"#utility.yul\":1534:1587   */\n      tag_325\n      jump\t// in\n    tag_344:\n        /* \"#utility.yul\":1524:1587   */\n      swap2\n      pop\n        /* \"#utility.yul\":1480:1597   */\n      pop\n        /* \"#utility.yul\":1275:1604   */\n      swap3\n      swap2\n      pop\n      pop\n      jump\t// out\n        /* \"#utility.yul\":1610:1961   */\n    tag_92:\n        /* \"#utility.yul\":1680:1686   */\n      0x00\n        /* \"#utility.yul\":1729:1731   */\n      0x20\n        /* \"#utility.yul\":1717:1726   */\n      dup3\n        /* \"#utility.yul\":1708:1715   */\n      dup5\n        /* \"#utility.yul\":1704:1727   */\n      sub\n        /* \"#utility.yul\":1700:1732   */\n      slt\n        /* \"#utility.yul\":1697:1816   */\n      iszero\n      tag_346\n      jumpi\n        /* \"#utility.yul\":1735:1814   */\n      tag_347\n      tag_335\n      jump\t// in\n    tag_347:\n        /* \"#utility.yul\":1697:1816   */\n    tag_346:\n        /* \"#utility.yul\":1855:1856   */\n      0x00\n        /* \"#utility.yul\":1880:1944   */\n      tag_348\n        /* \"#utility.yul\":1936:1943   */\n      dup5\n        /* \"#utility.yul\":1927:1933   */\n      dup3\n        /* \"#utility.yul\":1916:1925   */\n      dup6\n        /* \"#utility.yul\":1912:1934   */\n      add\n        /* \"#utility.yul\":1880:1944   */\n      tag_329\n      jump\t// in\n    tag_348:\n        /* \"#utility.yul\":1870:1944   */\n      swap2\n      pop\n        /* \"#utility.yul\":1826:1954   */\n      pop\n        /* \"#utility.yul\":1610:1961   */\n      swap3\n      swap2\n      pop\n      pop\n      jump\t// out\n        /* \"#utility.yul\":1967:2441   */\n    tag_38:\n        /* \"#utility.yul\":2035:2041   */\n      0x00\n        /* \"#utility.yul\":2043:2049   */\n      dup1\n        /* \"#utility.yul\":2092:2094   */\n      0x40\n        /* \"#utility.yul\":2080:2089   */\n      dup4\n        /* \"#utility.yul\":2071:2078   */\n      dup6\n        /* \"#utility.yul\":2067:2090   */\n      sub\n        /* \"#utility.yul\":2063:2095   */\n      slt\n        /* \"#utility.yul\":2060:2179   */\n      iszero\n      tag_350\n      jumpi\n        /* \"#utility.yul\":2098:2177   */\n      tag_351\n      tag_335\n      jump\t// in\n    tag_351:\n        /* \"#utility.yul\":2060:2179   */\n    tag_350:\n        /* \"#utility.yul\":2218:2219   */\n      0x00\n        /* \"#utility.yul\":2243:2296   */\n      tag_352\n        /* \"#utility.yul\":2288:2295   */\n      dup6\n        /* \"#utility.yul\":2279:2285   */\n      dup3\n        /* \"#utility.yul\":2268:2277   */\n      dup7\n        /* \"#utility.yul\":2264:2286   */\n      add\n        /* \"#utility.yul\":2243:2296   */\n      tag_325\n      jump\t// in\n    tag_352:\n        /* \"#utility.yul\":2233:2296   */\n      swap3\n      pop\n        /* \"#utility.yul\":2189:2306   */\n      pop\n        /* \"#utility.yul\":2345:2347   */\n      0x20\n        /* \"#utility.yul\":2371:2424   */\n      tag_353\n        /* \"#utility.yul\":2416:2423   */\n      dup6\n        /* \"#utility.yul\":2407:2413   */\n      dup3\n        /* \"#utility.yul\":2396:2405   */\n      dup7\n        /* \"#utility.yul\":2392:2414   */\n      add\n        /* \"#utility.yul\":2371:2424   */\n      tag_325\n      jump\t// in\n    tag_353:\n        /* \"#utility.yul\":2361:2424   */\n      swap2\n      pop\n        /* \"#utility.yul\":2316:2434   */\n      pop\n        /* \"#utility.yul\":1967:2441   */\n      swap3\n      pop\n      swap3\n      swap1\n      pop\n      jump\t// out\n        /* \"#utility.yul\":2447:2565   */\n    tag_354:\n        /* \"#utility.yul\":2534:2558   */\n      tag_356\n        /* \"#utility.yul\":2552:2557   */\n      dup2\n        /* \"#utility.yul\":2534:2558   */\n      tag_357\n      jump\t// in\n    tag_356:\n        /* \"#utility.yul\":2529:2532   */\n      dup3\n        /* \"#utility.yul\":2522:2559   */\n      mstore\n        /* \"#utility.yul\":2447:2565   */\n      pop\n      pop\n      jump\t// out\n        /* \"#utility.yul\":2571:2944   */\n    tag_358:\n        /* \"#utility.yul\":2675:2678   */\n      0x00\n        /* \"#utility.yul\":2703:2741   */\n      tag_360\n        /* \"#utility.yul\":2735:2740   */\n      dup3\n        /* \"#utility.yul\":2703:2741   */\n      tag_361\n      jump\t// in\n    tag_360:\n        /* \"#utility.yul\":2757:2845   */\n      tag_362\n        /* \"#utility.yul\":2838:2844   */\n      dup2\n        /* \"#utility.yul\":2833:2836   */\n      dup6\n        /* \"#utility.yul\":2757:2845   */\n      tag_363\n      jump\t// in\n    tag_362:\n        /* \"#utility.yul\":2750:2845   */\n      swap4\n      pop\n        /* \"#utility.yul\":2854:2906   */\n      tag_364\n        /* \"#utility.yul\":2899:2905   */\n      dup2\n        /* \"#utility.yul\":2894:2897   */\n      dup6\n        /* \"#utility.yul\":2887:2891   */\n      0x20\n        /* \"#utility.yul\":2880:2885   */\n      dup7\n        /* \"#utility.yul\":2876:2892   */\n      add\n        /* \"#utility.yul\":2854:2906   */\n      tag_365\n      jump\t// in\n    tag_364:\n        /* \"#utility.yul\":2931:2937   */\n      dup1\n        /* \"#utility.yul\":2926:2929   */\n      dup5\n        /* \"#utility.yul\":2922:2938   */\n      add\n        /* \"#utility.yul\":2915:2938   */\n      swap2\n      pop\n        /* \"#utility.yul\":2679:2944   */\n      pop\n        /* \"#utility.yul\":2571:2944   */\n      swap3\n      swap2\n      pop\n      pop\n      jump\t// out\n        /* \"#utility.yul\":2950:3109   */\n    tag_366:\n        /* \"#utility.yul\":3051:3102   */\n      tag_368\n        /* \"#utility.yul\":3096:3101   */\n      dup2\n        /* \"#utility.yul\":3051:3102   */\n      tag_369\n      jump\t// in\n    tag_368:\n        /* \"#utility.yul\":3046:3049   */\n      dup3\n        /* \"#utility.yul\":3039:3103   */\n      mstore\n        /* \"#utility.yul\":2950:3109   */\n      pop\n      pop\n      jump\t// out\n        /* \"#utility.yul\":3115:3479   */\n    tag_370:\n        /* \"#utility.yul\":3203:3206   */\n      0x00\n        /* \"#utility.yul\":3231:3270   */\n      tag_372\n        /* \"#utility.yul\":3264:3269   */\n      dup3\n        /* \"#utility.yul\":3231:3270   */\n      tag_373\n      jump\t// in\n    tag_372:\n        /* \"#utility.yul\":3286:3357   */\n      tag_374\n        /* \"#utility.yul\":3350:3356   */\n      dup2\n        /* \"#utility.yul\":3345:3348   */\n      dup6\n        /* \"#utility.yul\":3286:3357   */\n      tag_375\n      jump\t// in\n    tag_374:\n        /* \"#utility.yul\":3279:3357   */\n      swap4\n      pop\n        /* \"#utility.yul\":3366:3418   */\n      tag_376\n        /* \"#utility.yul\":3411:3417   */\n      dup2\n        /* \"#utility.yul\":3406:3409   */\n      dup6\n        /* \"#utility.yul\":3399:3403   */\n      0x20\n        /* \"#utility.yul\":3392:3397   */\n      dup7\n        /* \"#utility.yul\":3388:3404   */\n      add\n        /* \"#utility.yul\":3366:3418   */\n      tag_365\n      jump\t// in\n    tag_376:\n        /* \"#utility.yul\":3443:3472   */\n      tag_377\n        /* \"#utility.yul\":3465:3471   */\n      dup2\n        /* \"#utility.yul\":3443:3472   */\n      tag_378\n      jump\t// in\n    tag_377:\n        /* \"#utility.yul\":3438:3441   */\n      dup5\n        /* \"#utility.yul\":3434:3473   */\n      add\n        /* \"#utility.yul\":3427:3473   */\n      swap2\n      pop\n        /* \"#utility.yul\":3207:3479   */\n      pop\n        /* \"#utility.yul\":3115:3479   */\n      swap3\n      swap2\n      pop\n      pop\n      jump\t// out\n        /* \"#utility.yul\":3485:3851   */\n    tag_379:\n        /* \"#utility.yul\":3627:3630   */\n      0x00\n        /* \"#utility.yul\":3648:3715   */\n      tag_381\n        /* \"#utility.yul\":3712:3714   */\n      0x10\n        /* \"#utility.yul\":3707:3710   */\n      dup4\n        /* \"#utility.yul\":3648:3715   */\n      tag_375\n      jump\t// in\n    tag_381:\n        /* \"#utility.yul\":3641:3715   */\n      swap2\n      pop\n        /* \"#utility.yul\":3724:3817   */\n      tag_382\n        /* \"#utility.yul\":3813:3816   */\n      dup3\n        /* \"#utility.yul\":3724:3817   */\n      tag_383\n      jump\t// in\n    tag_382:\n        /* \"#utility.yul\":3842:3844   */\n      0x20\n        /* \"#utility.yul\":3837:3840   */\n      dup3\n        /* \"#utility.yul\":3833:3845   */\n      add\n        /* \"#utility.yul\":3826:3845   */\n      swap1\n      pop\n        /* \"#utility.yul\":3485:3851   */\n      swap2\n      swap1\n      pop\n      jump\t// out\n        /* \"#utility.yul\":3857:4223   */\n    tag_384:\n        /* \"#utility.yul\":3999:4002   */\n      0x00\n        /* \"#utility.yul\":4020:4087   */\n      tag_386\n        /* \"#utility.yul\":4084:4086   */\n      0x15\n        /* \"#utility.yul\":4079:4082   */\n      dup4\n        /* \"#utility.yul\":4020:4087   */\n      tag_375\n      jump\t// in\n    tag_386:\n        /* \"#utility.yul\":4013:4087   */\n      swap2\n      pop\n        /* \"#utility.yul\":4096:4189   */\n      tag_387\n        /* \"#utility.yul\":4185:4188   */\n      dup3\n        /* \"#utility.yul\":4096:4189   */\n      tag_388\n      jump\t// in\n    tag_387:\n        /* \"#utility.yul\":4214:4216   */\n      0x20\n        /* \"#utility.yul\":4209:4212   */\n      dup3\n        /* \"#utility.yul\":4205:4217   */\n      add\n        /* \"#utility.yul\":4198:4217   */\n      swap1\n      pop\n        /* \"#utility.yul\":3857:4223   */\n      swap2\n      swap1\n      pop\n      jump\t// out\n        /* \"#utility.yul\":4229:4595   */\n    tag_389:\n        /* \"#utility.yul\":4371:4374   */\n      0x00\n        /* \"#utility.yul\":4392:4459   */\n      tag_391\n        /* \"#utility.yul\":4456:4458   */\n      0x2a\n        /* \"#utility.yul\":4451:4454   */\n      dup4\n        /* \"#utility.yul\":4392:4459   */\n      tag_375\n      jump\t// in\n    tag_391:\n        /* \"#utility.yul\":4385:4459   */\n      swap2\n      pop\n        /* \"#utility.yul\":4468:4561   */\n      tag_392\n        /* \"#utility.yul\":4557:4560   */\n      dup3\n        /* \"#utility.yul\":4468:4561   */\n      tag_393\n      jump\t// in\n    tag_392:\n        /* \"#utility.yul\":4586:4588   */\n      0x40\n        /* \"#utility.yul\":4581:4584   */\n      dup3\n        /* \"#utility.yul\":4577:4589   */\n      add\n        /* \"#utility.yul\":4570:4589   */\n      swap1\n      pop\n        /* \"#utility.yul\":4229:4595   */\n      swap2\n      swap1\n      pop\n      jump\t// out\n        /* \"#utility.yul\":4601:4967   */\n    tag_394:\n        /* \"#utility.yul\":4743:4746   */\n      0x00\n        /* \"#utility.yul\":4764:4831   */\n      tag_396\n        /* \"#utility.yul\":4828:4830   */\n      0x26\n        /* \"#utility.yul\":4823:4826   */\n      dup4\n        /* \"#utility.yul\":4764:4831   */\n      tag_375\n      jump\t// in\n    tag_396:\n        /* \"#utility.yul\":4757:4831   */\n      swap2\n      pop\n        /* \"#utility.yul\":4840:4933   */\n      tag_397\n        /* \"#utility.yul\":4929:4932   */\n      dup3\n        /* \"#utility.yul\":4840:4933   */\n      tag_398\n      jump\t// in\n    tag_397:\n        /* \"#utility.yul\":4958:4960   */\n      0x40\n        /* \"#utility.yul\":4953:4956   */\n      dup3\n        /* \"#utility.yul\":4949:4961   */\n      add\n        /* \"#utility.yul\":4942:4961   */\n      swap1\n      pop\n        /* \"#utility.yul\":4601:4967   */\n      swap2\n      swap1\n      pop\n      jump\t// out\n        /* \"#utility.yul\":4973:5339   */\n    tag_399:\n        /* \"#utility.yul\":5115:5118   */\n      0x00\n        /* \"#utility.yul\":5136:5203   */\n      tag_401\n        /* \"#utility.yul\":5200:5202   */\n      0x0e\n        /* \"#utility.yul\":5195:5198   */\n      dup4\n        /* \"#utility.yul\":5136:5203   */\n      tag_375\n      jump\t// in\n    tag_401:\n        /* \"#utility.yul\":5129:5203   */\n      swap2\n      pop\n        /* \"#utility.yul\":5212:5305   */\n      tag_402\n        /* \"#utility.yul\":5301:5304   */\n      dup3\n        /* \"#utility.yul\":5212:5305   */\n      tag_403\n      jump\t// in\n    tag_402:\n        /* \"#utility.yul\":5330:5332   */\n      0x20\n        /* \"#utility.yul\":5325:5328   */\n      dup3\n        /* \"#utility.yul\":5321:5333   */\n      add\n        /* \"#utility.yul\":5314:5333   */\n      swap1\n      pop\n        /* \"#utility.yul\":4973:5339   */\n      swap2\n      swap1\n      pop\n      jump\t// out\n        /* \"#utility.yul\":5345:5711   */\n    tag_404:\n        /* \"#utility.yul\":5487:5490   */\n      0x00\n        /* \"#utility.yul\":5508:5575   */\n      tag_406\n        /* \"#utility.yul\":5572:5574   */\n      0x0f\n        /* \"#utility.yul\":5567:5570   */\n      dup4\n        /* \"#utility.yul\":5508:5575   */\n      tag_375\n      jump\t// in\n    tag_406:\n        /* \"#utility.yul\":5501:5575   */\n      swap2\n      pop\n        /* \"#utility.yul\":5584:5677   */\n      tag_407\n        /* \"#utility.yul\":5673:5676   */\n      dup3\n        /* \"#utility.yul\":5584:5677   */\n      tag_408\n      jump\t// in\n    tag_407:\n        /* \"#utility.yul\":5702:5704   */\n      0x20\n        /* \"#utility.yul\":5697:5700   */\n      dup3\n        /* \"#utility.yul\":5693:5705   */\n      add\n        /* \"#utility.yul\":5686:5705   */\n      swap1\n      pop\n        /* \"#utility.yul\":5345:5711   */\n      swap2\n      swap1\n      pop\n      jump\t// out\n        /* \"#utility.yul\":5717:6083   */\n    tag_409:\n        /* \"#utility.yul\":5859:5862   */\n      0x00\n        /* \"#utility.yul\":5880:5947   */\n      tag_411\n        /* \"#utility.yul\":5944:5946   */\n      0x26\n        /* \"#utility.yul\":5939:5942   */\n      dup4\n        /* \"#utility.yul\":5880:5947   */\n      tag_375\n      jump\t// in\n    tag_411:\n        /* \"#utility.yul\":5873:5947   */\n      swap2\n      pop\n        /* \"#utility.yul\":5956:6049   */\n      tag_412\n        /* \"#utility.yul\":6045:6048   */\n      dup3\n        /* \"#utility.yul\":5956:6049   */\n      tag_413\n      jump\t// in\n    tag_412:\n        /* \"#utility.yul\":6074:6076   */\n      0x40\n        /* \"#utility.yul\":6069:6072   */\n      dup3\n        /* \"#utility.yul\":6065:6077   */\n      add\n        /* \"#utility.yul\":6058:6077   */\n      swap1\n      pop\n        /* \"#utility.yul\":5717:6083   */\n      swap2\n      swap1\n      pop\n      jump\t// out\n        /* \"#utility.yul\":6089:6455   */\n    tag_414:\n        /* \"#utility.yul\":6231:6234   */\n      0x00\n        /* \"#utility.yul\":6252:6319   */\n      tag_416\n        /* \"#utility.yul\":6316:6318   */\n      0x26\n        /* \"#utility.yul\":6311:6314   */\n      dup4\n        /* \"#utility.yul\":6252:6319   */\n      tag_375\n      jump\t// in\n    tag_416:\n        /* \"#utility.yul\":6245:6319   */\n      swap2\n      pop\n        /* \"#utility.yul\":6328:6421   */\n      tag_417\n        /* \"#utility.yul\":6417:6420   */\n      dup3\n        /* \"#utility.yul\":6328:6421   */\n      tag_418\n      jump\t// in\n    tag_417:\n        /* \"#utility.yul\":6446:6448   */\n      0x40\n        /* \"#utility.yul\":6441:6444   */\n      dup3\n        /* \"#utility.yul\":6437:6449   */\n      add\n        /* \"#utility.yul\":6430:6449   */\n      swap1\n      pop\n        /* \"#utility.yul\":6089:6455   */\n      swap2\n      swap1\n      pop\n      jump\t// out\n        /* \"#utility.yul\":6461:6827   */\n    tag_419:\n        /* \"#utility.yul\":6603:6606   */\n      0x00\n        /* \"#utility.yul\":6624:6691   */\n      tag_421\n        /* \"#utility.yul\":6688:6690   */\n      0x1f\n        /* \"#utility.yul\":6683:6686   */\n      dup4\n        /* \"#utility.yul\":6624:6691   */\n      tag_375\n      jump\t// in\n    tag_421:\n        /* \"#utility.yul\":6617:6691   */\n      swap2\n      pop\n        /* \"#utility.yul\":6700:6793   */\n      tag_422\n        /* \"#utility.yul\":6789:6792   */\n      dup3\n        /* \"#utility.yul\":6700:6793   */\n      tag_423\n      jump\t// in\n    tag_422:\n        /* \"#utility.yul\":6818:6820   */\n      0x20\n        /* \"#utility.yul\":6813:6816   */\n      dup3\n        /* \"#utility.yul\":6809:6821   */\n      add\n        /* \"#utility.yul\":6802:6821   */\n      swap1\n      pop\n        /* \"#utility.yul\":6461:6827   */\n      swap2\n      swap1\n      pop\n      jump\t// out\n        /* \"#utility.yul\":6833:7199   */\n    tag_424:\n        /* \"#utility.yul\":6975:6978   */\n      0x00\n        /* \"#utility.yul\":6996:7063   */\n      tag_426\n        /* \"#utility.yul\":7060:7062   */\n      0x20\n        /* \"#utility.yul\":7055:7058   */\n      dup4\n        /* \"#utility.yul\":6996:7063   */\n      tag_375\n      jump\t// in\n    tag_426:\n        /* \"#utility.yul\":6989:7063   */\n      swap2\n      pop\n        /* \"#utility.yul\":7072:7165   */\n      tag_427\n        /* \"#utility.yul\":7161:7164   */\n      dup3\n        /* \"#utility.yul\":7072:7165   */\n      tag_428\n      jump\t// in\n    tag_427:\n        /* \"#utility.yul\":7190:7192   */\n      0x20\n        /* \"#utility.yul\":7185:7188   */\n      dup3\n        /* \"#utility.yul\":7181:7193   */\n      add\n        /* \"#utility.yul\":7174:7193   */\n      swap1\n      pop\n        /* \"#utility.yul\":6833:7199   */\n      swap2\n      swap1\n      pop\n      jump\t// out\n        /* \"#utility.yul\":7205:7571   */\n    tag_429:\n        /* \"#utility.yul\":7347:7350   */\n      0x00\n        /* \"#utility.yul\":7368:7435   */\n      tag_431\n        /* \"#utility.yul\":7432:7434   */\n      0x0d\n        /* \"#utility.yul\":7427:7430   */\n      dup4\n        /* \"#utility.yul\":7368:7435   */\n      tag_375\n      jump\t// in\n    tag_431:\n        /* \"#utility.yul\":7361:7435   */\n      swap2\n      pop\n        /* \"#utility.yul\":7444:7537   */\n      tag_432\n        /* \"#utility.yul\":7533:7536   */\n      dup3\n        /* \"#utility.yul\":7444:7537   */\n      tag_433\n      jump\t// in\n    tag_432:\n        /* \"#utility.yul\":7562:7564   */\n      0x20\n        /* \"#utility.yul\":7557:7560   */\n      dup3\n        /* \"#utility.yul\":7553:7565   */\n      add\n        /* \"#utility.yul\":7546:7565   */\n      swap1\n      pop\n        /* \"#utility.yul\":7205:7571   */\n      swap2\n      swap1\n      pop\n      jump\t// out\n        /* \"#utility.yul\":7577:7943   */\n    tag_434:\n        /* \"#utility.yul\":7719:7722   */\n      0x00\n        /* \"#utility.yul\":7740:7807   */\n      tag_436\n        /* \"#utility.yul\":7804:7806   */\n      0x1d\n        /* \"#utility.yul\":7799:7802   */\n      dup4\n        /* \"#utility.yul\":7740:7807   */\n      tag_375\n      jump\t// in\n    tag_436:\n        /* \"#utility.yul\":7733:7807   */\n      swap2\n      pop\n        /* \"#utility.yul\":7816:7909   */\n      tag_437\n        /* \"#utility.yul\":7905:7908   */\n      dup3\n        /* \"#utility.yul\":7816:7909   */\n      tag_438\n      jump\t// in\n    tag_437:\n        /* \"#utility.yul\":7934:7936   */\n      0x20\n        /* \"#utility.yul\":7929:7932   */\n      dup3\n        /* \"#utility.yul\":7925:7937   */\n      add\n        /* \"#utility.yul\":7918:7937   */\n      swap1\n      pop\n        /* \"#utility.yul\":7577:7943   */\n      swap2\n      swap1\n      pop\n      jump\t// out\n        /* \"#utility.yul\":7949:8315   */\n    tag_439:\n        /* \"#utility.yul\":8091:8094   */\n      0x00\n        /* \"#utility.yul\":8112:8179   */\n      tag_441\n        /* \"#utility.yul\":8176:8178   */\n      0x1a\n        /* \"#utility.yul\":8171:8174   */\n      dup4\n        /* \"#utility.yul\":8112:8179   */\n      tag_375\n      jump\t// in\n    tag_441:\n        /* \"#utility.yul\":8105:8179   */\n      swap2\n      pop\n        /* \"#utility.yul\":8188:8281   */\n      tag_442\n        /* \"#utility.yul\":8277:8280   */\n      dup3\n        /* \"#utility.yul\":8188:8281   */\n      tag_443\n      jump\t// in\n    tag_442:\n        /* \"#utility.yul\":8306:8308   */\n      0x20\n        /* \"#utility.yul\":8301:8304   */\n      dup3\n        /* \"#utility.yul\":8297:8309   */\n      add\n        /* \"#utility.yul\":8290:8309   */\n      swap1\n      pop\n        /* \"#utility.yul\":7949:8315   */\n      swap2\n      swap1\n      pop\n      jump\t// out\n        /* \"#utility.yul\":8321:8687   */\n    tag_444:\n        /* \"#utility.yul\":8463:8466   */\n      0x00\n        /* \"#utility.yul\":8484:8551   */\n      tag_446\n        /* \"#utility.yul\":8548:8550   */\n      0x17\n        /* \"#utility.yul\":8543:8546   */\n      dup4\n        /* \"#utility.yul\":8484:8551   */\n      tag_375\n      jump\t// in\n    tag_446:\n        /* \"#utility.yul\":8477:8551   */\n      swap2\n      pop\n        /* \"#utility.yul\":8560:8653   */\n      tag_447\n        /* \"#utility.yul\":8649:8652   */\n      dup3\n        /* \"#utility.yul\":8560:8653   */\n      tag_448\n      jump\t// in\n    tag_447:\n        /* \"#utility.yul\":8678:8680   */\n      0x20\n        /* \"#utility.yul\":8673:8676   */\n      dup3\n        /* \"#utility.yul\":8669:8681   */\n      add\n        /* \"#utility.yul\":8662:8681   */\n      swap1\n      pop\n        /* \"#utility.yul\":8321:8687   */\n      swap2\n      swap1\n      pop\n      jump\t// out\n        /* \"#utility.yul\":8693:9059   */\n    tag_449:\n        /* \"#utility.yul\":8835:8838   */\n      0x00\n        /* \"#utility.yul\":8856:8923   */\n      tag_451\n        /* \"#utility.yul\":8920:8922   */\n      0x0d\n        /* \"#utility.yul\":8915:8918   */\n      dup4\n        /* \"#utility.yul\":8856:8923   */\n      tag_375\n      jump\t// in\n    tag_451:\n        /* \"#utility.yul\":8849:8923   */\n      swap2\n      pop\n        /* \"#utility.yul\":8932:9025   */\n      tag_452\n        /* \"#utility.yul\":9021:9024   */\n      dup3\n        /* \"#utility.yul\":8932:9025   */\n      tag_453\n      jump\t// in\n    tag_452:\n        /* \"#utility.yul\":9050:9052   */\n      0x20\n        /* \"#utility.yul\":9045:9048   */\n      dup3\n        /* \"#utility.yul\":9041:9053   */\n      add\n        /* \"#utility.yul\":9034:9053   */\n      swap1\n      pop\n        /* \"#utility.yul\":8693:9059   */\n      swap2\n      swap1\n      pop\n      jump\t// out\n        /* \"#utility.yul\":9065:9431   */\n    tag_454:\n        /* \"#utility.yul\":9207:9210   */\n      0x00\n        /* \"#utility.yul\":9228:9295   */\n      tag_456\n        /* \"#utility.yul\":9292:9294   */\n      0x0d\n        /* \"#utility.yul\":9287:9290   */\n      dup4\n        /* \"#utility.yul\":9228:9295   */\n      tag_375\n      jump\t// in\n    tag_456:\n        /* \"#utility.yul\":9221:9295   */\n      swap2\n      pop\n        /* \"#utility.yul\":9304:9397   */\n      tag_457\n        /* \"#utility.yul\":9393:9396   */\n      dup3\n        /* \"#utility.yul\":9304:9397   */\n      tag_458\n      jump\t// in\n    tag_457:\n        /* \"#utility.yul\":9422:9424   */\n      0x20\n        /* \"#utility.yul\":9417:9420   */\n      dup3\n        /* \"#utility.yul\":9413:9425   */\n      add\n        /* \"#utility.yul\":9406:9425   */\n      swap1\n      pop\n        /* \"#utility.yul\":9065:9431   */\n      swap2\n      swap1\n      pop\n      jump\t// out\n        /* \"#utility.yul\":9437:9555   */\n    tag_459:\n        /* \"#utility.yul\":9524:9548   */\n      tag_461\n        /* \"#utility.yul\":9542:9547   */\n      dup2\n        /* \"#utility.yul\":9524:9548   */\n      tag_462\n      jump\t// in\n    tag_461:\n        /* \"#utility.yul\":9519:9522   */\n      dup3\n        /* \"#utility.yul\":9512:9549   */\n      mstore\n        /* \"#utility.yul\":9437:9555   */\n      pop\n      pop\n      jump\t// out\n        /* \"#utility.yul\":9561:9832   */\n    tag_302:\n        /* \"#utility.yul\":9691:9694   */\n      0x00\n        /* \"#utility.yul\":9713:9806   */\n      tag_464\n        /* \"#utility.yul\":9802:9805   */\n      dup3\n        /* \"#utility.yul\":9793:9799   */\n      dup5\n        /* \"#utility.yul\":9713:9806   */\n      tag_358\n      jump\t// in\n    tag_464:\n        /* \"#utility.yul\":9706:9806   */\n      swap2\n      pop\n        /* \"#utility.yul\":9823:9826   */\n      dup2\n        /* \"#utility.yul\":9816:9826   */\n      swap1\n      pop\n        /* \"#utility.yul\":9561:9832   */\n      swap3\n      swap2\n      pop\n      pop\n      jump\t// out\n        /* \"#utility.yul\":9838:10060   */\n    tag_58:\n        /* \"#utility.yul\":9931:9935   */\n      0x00\n        /* \"#utility.yul\":9969:9971   */\n      0x20\n        /* \"#utility.yul\":9958:9967   */\n      dup3\n        /* \"#utility.yul\":9954:9972   */\n      add\n        /* \"#utility.yul\":9946:9972   */\n      swap1\n      pop\n        /* \"#utility.yul\":9982:10053   */\n      tag_466\n        /* \"#utility.yul\":10050:10051   */\n      0x00\n        /* \"#utility.yul\":10039:10048   */\n      dup4\n        /* \"#utility.yul\":10035:10052   */\n      add\n        /* \"#utility.yul\":10026:10032   */\n      dup5\n        /* \"#utility.yul\":9982:10053   */\n      tag_354\n      jump\t// in\n    tag_466:\n        /* \"#utility.yul\":9838:10060   */\n      swap3\n      swap2\n      pop\n      pop\n      jump\t// out\n        /* \"#utility.yul\":10066:10508   */\n    tag_277:\n        /* \"#utility.yul\":10215:10219   */\n      0x00\n        /* \"#utility.yul\":10253:10255   */\n      0x60\n        /* \"#utility.yul\":10242:10251   */\n      dup3\n        /* \"#utility.yul\":10238:10256   */\n      add\n        /* \"#utility.yul\":10230:10256   */\n      swap1\n      pop\n        /* \"#utility.yul\":10266:10337   */\n      tag_468\n        /* \"#utility.yul\":10334:10335   */\n      0x00\n        /* \"#utility.yul\":10323:10332   */\n      dup4\n        /* \"#utility.yul\":10319:10336   */\n      add\n        /* \"#utility.yul\":10310:10316   */\n      dup7\n        /* \"#utility.yul\":10266:10337   */\n      tag_354\n      jump\t// in\n    tag_468:\n        /* \"#utility.yul\":10347:10419   */\n      tag_469\n        /* \"#utility.yul\":10415:10417   */\n      0x20\n        /* \"#utility.yul\":10404:10413   */\n      dup4\n        /* \"#utility.yul\":10400:10418   */\n      add\n        /* \"#utility.yul\":10391:10397   */\n      dup6\n        /* \"#utility.yul\":10347:10419   */\n      tag_354\n      jump\t// in\n    tag_469:\n        /* \"#utility.yul\":10429:10501   */\n      tag_470\n        /* \"#utility.yul\":10497:10499   */\n      0x40\n        /* \"#utility.yul\":10486:10495   */\n      dup4\n        /* \"#utility.yul\":10482:10500   */\n      add\n        /* \"#utility.yul\":10473:10479   */\n      dup5\n        /* \"#utility.yul\":10429:10501   */\n      tag_459\n      jump\t// in\n    tag_470:\n        /* \"#utility.yul\":10066:10508   */\n      swap5\n      swap4\n      pop\n      pop\n      pop\n      pop\n      jump\t// out\n        /* \"#utility.yul\":10514:10846   */\n    tag_121:\n        /* \"#utility.yul\":10635:10639   */\n      0x00\n        /* \"#utility.yul\":10673:10675   */\n      0x40\n        /* \"#utility.yul\":10662:10671   */\n      dup3\n        /* \"#utility.yul\":10658:10676   */\n      add\n        /* \"#utility.yul\":10650:10676   */\n      swap1\n      pop\n        /* \"#utility.yul\":10686:10757   */\n      tag_472\n        /* \"#utility.yul\":10754:10755   */\n      0x00\n        /* \"#utility.yul\":10743:10752   */\n      dup4\n        /* \"#utility.yul\":10739:10756   */\n      add\n        /* \"#utility.yul\":10730:10736   */\n      dup6\n        /* \"#utility.yul\":10686:10757   */\n      tag_354\n      jump\t// in\n    tag_472:\n        /* \"#utility.yul\":10767:10839   */\n      tag_473\n        /* \"#utility.yul\":10835:10837   */\n      0x20\n        /* \"#utility.yul\":10824:10833   */\n      dup4\n        /* \"#utility.yul\":10820:10838   */\n      add\n        /* \"#utility.yul\":10811:10817   */\n      dup5\n        /* \"#utility.yul\":10767:10839   */\n      tag_459\n      jump\t// in\n    tag_473:\n        /* \"#utility.yul\":10514:10846   */\n      swap4\n      swap3\n      pop\n      pop\n      pop\n      jump\t// out\n        /* \"#utility.yul\":10852:11102   */\n    tag_77:\n        /* \"#utility.yul\":10959:10963   */\n      0x00\n        /* \"#utility.yul\":10997:10999   */\n      0x20\n        /* \"#utility.yul\":10986:10995   */\n      dup3\n        /* \"#utility.yul\":10982:11000   */\n      add\n        /* \"#utility.yul\":10974:11000   */\n      swap1\n      pop\n        /* \"#utility.yul\":11010:11095   */\n      tag_475\n        /* \"#utility.yul\":11092:11093   */\n      0x00\n        /* \"#utility.yul\":11081:11090   */\n      dup4\n        /* \"#utility.yul\":11077:11094   */\n      add\n        /* \"#utility.yul\":11068:11074   */\n      dup5\n        /* \"#utility.yul\":11010:11095   */\n      tag_366\n      jump\t// in\n    tag_475:\n        /* \"#utility.yul\":10852:11102   */\n      swap3\n      swap2\n      pop\n      pop\n      jump\t// out\n        /* \"#utility.yul\":11108:11421   */\n    tag_315:\n        /* \"#utility.yul\":11221:11225   */\n      0x00\n        /* \"#utility.yul\":11259:11261   */\n      0x20\n        /* \"#utility.yul\":11248:11257   */\n      dup3\n        /* \"#utility.yul\":11244:11262   */\n      add\n        /* \"#utility.yul\":11236:11262   */\n      swap1\n      pop\n        /* \"#utility.yul\":11308:11317   */\n      dup2\n        /* \"#utility.yul\":11302:11306   */\n      dup2\n        /* \"#utility.yul\":11298:11318   */\n      sub\n        /* \"#utility.yul\":11294:11295   */\n      0x00\n        /* \"#utility.yul\":11283:11292   */\n      dup4\n        /* \"#utility.yul\":11279:11296   */\n      add\n        /* \"#utility.yul\":11272:11319   */\n      mstore\n        /* \"#utility.yul\":11336:11414   */\n      tag_477\n        /* \"#utility.yul\":11409:11413   */\n      dup2\n        /* \"#utility.yul\":11400:11406   */\n      dup5\n        /* \"#utility.yul\":11336:11414   */\n      tag_370\n      jump\t// in\n    tag_477:\n        /* \"#utility.yul\":11328:11414   */\n      swap1\n      pop\n        /* \"#utility.yul\":11108:11421   */\n      swap3\n      swap2\n      pop\n      pop\n      jump\t// out\n        /* \"#utility.yul\":11427:11846   */\n    tag_130:\n        /* \"#utility.yul\":11593:11597   */\n      0x00\n        /* \"#utility.yul\":11631:11633   */\n      0x20\n        /* \"#utility.yul\":11620:11629   */\n      dup3\n        /* \"#utility.yul\":11616:11634   */\n      add\n        /* \"#utility.yul\":11608:11634   */\n      swap1\n      pop\n        /* \"#utility.yul\":11680:11689   */\n      dup2\n        /* \"#utility.yul\":11674:11678   */\n      dup2\n        /* \"#utility.yul\":11670:11690   */\n      sub\n        /* \"#utility.yul\":11666:11667   */\n      0x00\n        /* \"#utility.yul\":11655:11664   */\n      dup4\n        /* \"#utility.yul\":11651:11668   */\n      add\n        /* \"#utility.yul\":11644:11691   */\n      mstore\n        /* \"#utility.yul\":11708:11839   */\n      tag_479\n        /* \"#utility.yul\":11834:11838   */\n      dup2\n        /* \"#utility.yul\":11708:11839   */\n      tag_379\n      jump\t// in\n    tag_479:\n        /* \"#utility.yul\":11700:11839   */\n      swap1\n      pop\n        /* \"#utility.yul\":11427:11846   */\n      swap2\n      swap1\n      pop\n      jump\t// out\n        /* \"#utility.yul\":11852:12271   */\n    tag_234:\n        /* \"#utility.yul\":12018:12022   */\n      0x00\n        /* \"#utility.yul\":12056:12058   */\n      0x20\n        /* \"#utility.yul\":12045:12054   */\n      dup3\n        /* \"#utility.yul\":12041:12059   */\n      add\n        /* \"#utility.yul\":12033:12059   */\n      swap1\n      pop\n        /* \"#utility.yul\":12105:12114   */\n      dup2\n        /* \"#utility.yul\":12099:12103   */\n      dup2\n        /* \"#utility.yul\":12095:12115   */\n      sub\n        /* \"#utility.yul\":12091:12092   */\n      0x00\n        /* \"#utility.yul\":12080:12089   */\n      dup4\n        /* \"#utility.yul\":12076:12093   */\n      add\n        /* \"#utility.yul\":12069:12116   */\n      mstore\n        /* \"#utility.yul\":12133:12264   */\n      tag_481\n        /* \"#utility.yul\":12259:12263   */\n      dup2\n        /* \"#utility.yul\":12133:12264   */\n      tag_384\n      jump\t// in\n    tag_481:\n        /* \"#utility.yul\":12125:12264   */\n      swap1\n      pop\n        /* \"#utility.yul\":11852:12271   */\n      swap2\n      swap1\n      pop\n      jump\t// out\n        /* \"#utility.yul\":12277:12696   */\n    tag_288:\n        /* \"#utility.yul\":12443:12447   */\n      0x00\n        /* \"#utility.yul\":12481:12483   */\n      0x20\n        /* \"#utility.yul\":12470:12479   */\n      dup3\n        /* \"#utility.yul\":12466:12484   */\n      add\n        /* \"#utility.yul\":12458:12484   */\n      swap1\n      pop\n        /* \"#utility.yul\":12530:12539   */\n      dup2\n        /* \"#utility.yul\":12524:12528   */\n      dup2\n        /* \"#utility.yul\":12520:12540   */\n      sub\n        /* \"#utility.yul\":12516:12517   */\n      0x00\n        /* \"#utility.yul\":12505:12514   */\n      dup4\n        /* \"#utility.yul\":12501:12518   */\n      add\n        /* \"#utility.yul\":12494:12541   */\n      mstore\n        /* \"#utility.yul\":12558:12689   */\n      tag_483\n        /* \"#utility.yul\":12684:12688   */\n      dup2\n        /* \"#utility.yul\":12558:12689   */\n      tag_389\n      jump\t// in\n    tag_483:\n        /* \"#utility.yul\":12550:12689   */\n      swap1\n      pop\n        /* \"#utility.yul\":12277:12696   */\n      swap2\n      swap1\n      pop\n      jump\t// out\n        /* \"#utility.yul\":12702:13121   */\n    tag_248:\n        /* \"#utility.yul\":12868:12872   */\n      0x00\n        /* \"#utility.yul\":12906:12908   */\n      0x20\n        /* \"#utility.yul\":12895:12904   */\n      dup3\n        /* \"#utility.yul\":12891:12909   */\n      add\n        /* \"#utility.yul\":12883:12909   */\n      swap1\n      pop\n        /* \"#utility.yul\":12955:12964   */\n      dup2\n        /* \"#utility.yul\":12949:12953   */\n      dup2\n        /* \"#utility.yul\":12945:12965   */\n      sub\n        /* \"#utility.yul\":12941:12942   */\n      0x00\n        /* \"#utility.yul\":12930:12939   */\n      dup4\n        /* \"#utility.yul\":12926:12943   */\n      add\n        /* \"#utility.yul\":12919:12966   */\n      mstore\n        /* \"#utility.yul\":12983:13114   */\n      tag_485\n        /* \"#utility.yul\":13109:13113   */\n      dup2\n        /* \"#utility.yul\":12983:13114   */\n      tag_394\n      jump\t// in\n    tag_485:\n        /* \"#utility.yul\":12975:13114   */\n      swap1\n      pop\n        /* \"#utility.yul\":12702:13121   */\n      swap2\n      swap1\n      pop\n      jump\t// out\n        /* \"#utility.yul\":13127:13546   */\n    tag_84:\n        /* \"#utility.yul\":13293:13297   */\n      0x00\n        /* \"#utility.yul\":13331:13333   */\n      0x20\n        /* \"#utility.yul\":13320:13329   */\n      dup3\n        /* \"#utility.yul\":13316:13334   */\n      add\n        /* \"#utility.yul\":13308:13334   */\n      swap1\n      pop\n        /* \"#utility.yul\":13380:13389   */\n      dup2\n        /* \"#utility.yul\":13374:13378   */\n      dup2\n        /* \"#utility.yul\":13370:13390   */\n      sub\n        /* \"#utility.yul\":13366:13367   */\n      0x00\n        /* \"#utility.yul\":13355:13364   */\n      dup4\n        /* \"#utility.yul\":13351:13368   */\n      add\n        /* \"#utility.yul\":13344:13391   */\n      mstore\n        /* \"#utility.yul\":13408:13539   */\n      tag_487\n        /* \"#utility.yul\":13534:13538   */\n      dup2\n        /* \"#utility.yul\":13408:13539   */\n      tag_399\n      jump\t// in\n    tag_487:\n        /* \"#utility.yul\":13400:13539   */\n      swap1\n      pop\n        /* \"#utility.yul\":13127:13546   */\n      swap2\n      swap1\n      pop\n      jump\t// out\n        /* \"#utility.yul\":13552:13971   */\n    tag_169:\n        /* \"#utility.yul\":13718:13722   */\n      0x00\n        /* \"#utility.yul\":13756:13758   */\n      0x20\n        /* \"#utility.yul\":13745:13754   */\n      dup3\n        /* \"#utility.yul\":13741:13759   */\n      add\n        /* \"#utility.yul\":13733:13759   */\n      swap1\n      pop\n        /* \"#utility.yul\":13805:13814   */\n      dup2\n        /* \"#utility.yul\":13799:13803   */\n      dup2\n        /* \"#utility.yul\":13795:13815   */\n      sub\n        /* \"#utility.yul\":13791:13792   */\n      0x00\n        /* \"#utility.yul\":13780:13789   */\n      dup4\n        /* \"#utility.yul\":13776:13793   */\n      add\n        /* \"#utility.yul\":13769:13816   */\n      mstore\n        /* \"#utility.yul\":13833:13964   */\n      tag_489\n        /* \"#utility.yul\":13959:13963   */\n      dup2\n        /* \"#utility.yul\":13833:13964   */\n      tag_404\n      jump\t// in\n    tag_489:\n        /* \"#utility.yul\":13825:13964   */\n      swap1\n      pop\n        /* \"#utility.yul\":13552:13971   */\n      swap2\n      swap1\n      pop\n      jump\t// out\n        /* \"#utility.yul\":13977:14396   */\n    tag_295:\n        /* \"#utility.yul\":14143:14147   */\n      0x00\n        /* \"#utility.yul\":14181:14183   */\n      0x20\n        /* \"#utility.yul\":14170:14179   */\n      dup3\n        /* \"#utility.yul\":14166:14184   */\n      add\n        /* \"#utility.yul\":14158:14184   */\n      swap1\n      pop\n        /* \"#utility.yul\":14230:14239   */\n      dup2\n        /* \"#utility.yul\":14224:14228   */\n      dup2\n        /* \"#utility.yul\":14220:14240   */\n      sub\n        /* \"#utility.yul\":14216:14217   */\n      0x00\n        /* \"#utility.yul\":14205:14214   */\n      dup4\n        /* \"#utility.yul\":14201:14218   */\n      add\n        /* \"#utility.yul\":14194:14241   */\n      mstore\n        /* \"#utility.yul\":14258:14389   */\n      tag_491\n        /* \"#utility.yul\":14384:14388   */\n      dup2\n        /* \"#utility.yul\":14258:14389   */\n      tag_409\n      jump\t// in\n    tag_491:\n        /* \"#utility.yul\":14250:14389   */\n      swap1\n      pop\n        /* \"#utility.yul\":13977:14396   */\n      swap2\n      swap1\n      pop\n      jump\t// out\n        /* \"#utility.yul\":14402:14821   */\n    tag_199:\n        /* \"#utility.yul\":14568:14572   */\n      0x00\n        /* \"#utility.yul\":14606:14608   */\n      0x20\n        /* \"#utility.yul\":14595:14604   */\n      dup3\n        /* \"#utility.yul\":14591:14609   */\n      add\n        /* \"#utility.yul\":14583:14609   */\n      swap1\n      pop\n        /* \"#utility.yul\":14655:14664   */\n      dup2\n        /* \"#utility.yul\":14649:14653   */\n      dup2\n        /* \"#utility.yul\":14645:14665   */\n      sub\n        /* \"#utility.yul\":14641:14642   */\n      0x00\n        /* \"#utility.yul\":14630:14639   */\n      dup4\n        /* \"#utility.yul\":14626:14643   */\n      add\n        /* \"#utility.yul\":14619:14666   */\n      mstore\n        /* \"#utility.yul\":14683:14814   */\n      tag_493\n        /* \"#utility.yul\":14809:14813   */\n      dup2\n        /* \"#utility.yul\":14683:14814   */\n      tag_414\n      jump\t// in\n    tag_493:\n        /* \"#utility.yul\":14675:14814   */\n      swap1\n      pop\n        /* \"#utility.yul\":14402:14821   */\n      swap2\n      swap1\n      pop\n      jump\t// out\n        /* \"#utility.yul\":14827:15246   */\n    tag_81:\n        /* \"#utility.yul\":14993:14997   */\n      0x00\n        /* \"#utility.yul\":15031:15033   */\n      0x20\n        /* \"#utility.yul\":15020:15029   */\n      dup3\n        /* \"#utility.yul\":15016:15034   */\n      add\n        /* \"#utility.yul\":15008:15034   */\n      swap1\n      pop\n        /* \"#utility.yul\":15080:15089   */\n      dup2\n        /* \"#utility.yul\":15074:15078   */\n      dup2\n        /* \"#utility.yul\":15070:15090   */\n      sub\n        /* \"#utility.yul\":15066:15067   */\n      0x00\n        /* \"#utility.yul\":15055:15064   */\n      dup4\n        /* \"#utility.yul\":15051:15068   */\n      add\n        /* \"#utility.yul\":15044:15091   */\n      mstore\n        /* \"#utility.yul\":15108:15239   */\n      tag_495\n        /* \"#utility.yul\":15234:15238   */\n      dup2\n        /* \"#utility.yul\":15108:15239   */\n      tag_419\n      jump\t// in\n    tag_495:\n        /* \"#utility.yul\":15100:15239   */\n      swap1\n      pop\n        /* \"#utility.yul\":14827:15246   */\n      swap2\n      swap1\n      pop\n      jump\t// out\n        /* \"#utility.yul\":15252:15671   */\n    tag_151:\n        /* \"#utility.yul\":15418:15422   */\n      0x00\n        /* \"#utility.yul\":15456:15458   */\n      0x20\n        /* \"#utility.yul\":15445:15454   */\n      dup3\n        /* \"#utility.yul\":15441:15459   */\n      add\n        /* \"#utility.yul\":15433:15459   */\n      swap1\n      pop\n        /* \"#utility.yul\":15505:15514   */\n      dup2\n        /* \"#utility.yul\":15499:15503   */\n      dup2\n        /* \"#utility.yul\":15495:15515   */\n      sub\n        /* \"#utility.yul\":15491:15492   */\n      0x00\n        /* \"#utility.yul\":15480:15489   */\n      dup4\n        /* \"#utility.yul\":15476:15493   */\n      add\n        /* \"#utility.yul\":15469:15516   */\n      mstore\n        /* \"#utility.yul\":15533:15664   */\n      tag_497\n        /* \"#utility.yul\":15659:15663   */\n      dup2\n        /* \"#utility.yul\":15533:15664   */\n      tag_424\n      jump\t// in\n    tag_497:\n        /* \"#utility.yul\":15525:15664   */\n      swap1\n      pop\n        /* \"#utility.yul\":15252:15671   */\n      swap2\n      swap1\n      pop\n      jump\t// out\n        /* \"#utility.yul\":15677:16096   */\n    tag_220:\n        /* \"#utility.yul\":15843:15847   */\n      0x00\n        /* \"#utility.yul\":15881:15883   */\n      0x20\n        /* \"#utility.yul\":15870:15879   */\n      dup3\n        /* \"#utility.yul\":15866:15884   */\n      add\n        /* \"#utility.yul\":15858:15884   */\n      swap1\n      pop\n        /* \"#utility.yul\":15930:15939   */\n      dup2\n        /* \"#utility.yul\":15924:15928   */\n      dup2\n        /* \"#utility.yul\":15920:15940   */\n      sub\n        /* \"#utility.yul\":15916:15917   */\n      0x00\n        /* \"#utility.yul\":15905:15914   */\n      dup4\n        /* \"#utility.yul\":15901:15918   */\n      add\n        /* \"#utility.yul\":15894:15941   */\n      mstore\n        /* \"#utility.yul\":15958:16089   */\n      tag_499\n        /* \"#utility.yul\":16084:16088   */\n      dup2\n        /* \"#utility.yul\":15958:16089   */\n      tag_429\n      jump\t// in\n    tag_499:\n        /* \"#utility.yul\":15950:16089   */\n      swap1\n      pop\n        /* \"#utility.yul\":15677:16096   */\n      swap2\n      swap1\n      pop\n      jump\t// out\n        /* \"#utility.yul\":16102:16521   */\n    tag_300:\n        /* \"#utility.yul\":16268:16272   */\n      0x00\n        /* \"#utility.yul\":16306:16308   */\n      0x20\n        /* \"#utility.yul\":16295:16304   */\n      dup3\n        /* \"#utility.yul\":16291:16309   */\n      add\n        /* \"#utility.yul\":16283:16309   */\n      swap1\n      pop\n        /* \"#utility.yul\":16355:16364   */\n      dup2\n        /* \"#utility.yul\":16349:16353   */\n      dup2\n        /* \"#utility.yul\":16345:16365   */\n      sub\n        /* \"#utility.yul\":16341:16342   */\n      0x00\n        /* \"#utility.yul\":16330:16339   */\n      dup4\n        /* \"#utility.yul\":16326:16343   */\n      add\n        /* \"#utility.yul\":16319:16366   */\n      mstore\n        /* \"#utility.yul\":16383:16514   */\n      tag_501\n        /* \"#utility.yul\":16509:16513   */\n      dup2\n        /* \"#utility.yul\":16383:16514   */\n      tag_434\n      jump\t// in\n    tag_501:\n        /* \"#utility.yul\":16375:16514   */\n      swap1\n      pop\n        /* \"#utility.yul\":16102:16521   */\n      swap2\n      swap1\n      pop\n      jump\t// out\n        /* \"#utility.yul\":16527:16946   */\n    tag_210:\n        /* \"#utility.yul\":16693:16697   */\n      0x00\n        /* \"#utility.yul\":16731:16733   */\n      0x20\n        /* \"#utility.yul\":16720:16729   */\n      dup3\n        /* \"#utility.yul\":16716:16734   */\n      add\n        /* \"#utility.yul\":16708:16734   */\n      swap1\n      pop\n        /* \"#utility.yul\":16780:16789   */\n      dup2\n        /* \"#utility.yul\":16774:16778   */\n      dup2\n        /* \"#utility.yul\":16770:16790   */\n      sub\n        /* \"#utility.yul\":16766:16767   */\n      0x00\n        /* \"#utility.yul\":16755:16764   */\n      dup4\n        /* \"#utility.yul\":16751:16768   */\n      add\n        /* \"#utility.yul\":16744:16791   */\n      mstore\n        /* \"#utility.yul\":16808:16939   */\n      tag_503\n        /* \"#utility.yul\":16934:16938   */\n      dup2\n        /* \"#utility.yul\":16808:16939   */\n      tag_439\n      jump\t// in\n    tag_503:\n        /* \"#utility.yul\":16800:16939   */\n      swap1\n      pop\n        /* \"#utility.yul\":16527:16946   */\n      swap2\n      swap1\n      pop\n      jump\t// out\n        /* \"#utility.yul\":16952:17371   */\n    tag_180:\n        /* \"#utility.yul\":17118:17122   */\n      0x00\n        /* \"#utility.yul\":17156:17158   */\n      0x20\n        /* \"#utility.yul\":17145:17154   */\n      dup3\n        /* \"#utility.yul\":17141:17159   */\n      add\n        /* \"#utility.yul\":17133:17159   */\n      swap1\n      pop\n        /* \"#utility.yul\":17205:17214   */\n      dup2\n        /* \"#utility.yul\":17199:17203   */\n      dup2\n        /* \"#utility.yul\":17195:17215   */\n      sub\n        /* \"#utility.yul\":17191:17192   */\n      0x00\n        /* \"#utility.yul\":17180:17189   */\n      dup4\n        /* \"#utility.yul\":17176:17193   */\n      add\n        /* \"#utility.yul\":17169:17216   */\n      mstore\n        /* \"#utility.yul\":17233:17364   */\n      tag_505\n        /* \"#utility.yul\":17359:17363   */\n      dup2\n        /* \"#utility.yul\":17233:17364   */\n      tag_444\n      jump\t// in\n    tag_505:\n        /* \"#utility.yul\":17225:17364   */\n      swap1\n      pop\n        /* \"#utility.yul\":16952:17371   */\n      swap2\n      swap1\n      pop\n      jump\t// out\n        /* \"#utility.yul\":17377:17796   */\n    tag_155:\n        /* \"#utility.yul\":17543:17547   */\n      0x00\n        /* \"#utility.yul\":17581:17583   */\n      0x20\n        /* \"#utility.yul\":17570:17579   */\n      dup3\n        /* \"#utility.yul\":17566:17584   */\n      add\n        /* \"#utility.yul\":17558:17584   */\n      swap1\n      pop\n        /* \"#utility.yul\":17630:17639   */\n      dup2\n        /* \"#utility.yul\":17624:17628   */\n      dup2\n        /* \"#utility.yul\":17620:17640   */\n      sub\n        /* \"#utility.yul\":17616:17617   */\n      0x00\n        /* \"#utility.yul\":17605:17614   */\n      dup4\n        /* \"#utility.yul\":17601:17618   */\n      add\n        /* \"#utility.yul\":17594:17641   */\n      mstore\n        /* \"#utility.yul\":17658:17789   */\n      tag_507\n        /* \"#utility.yul\":17784:17788   */\n      dup2\n        /* \"#utility.yul\":17658:17789   */\n      tag_449\n      jump\t// in\n    tag_507:\n        /* \"#utility.yul\":17650:17789   */\n      swap1\n      pop\n        /* \"#utility.yul\":17377:17796   */\n      swap2\n      swap1\n      pop\n      jump\t// out\n        /* \"#utility.yul\":17802:18221   */\n    tag_166:\n        /* \"#utility.yul\":17968:17972   */\n      0x00\n        /* \"#utility.yul\":18006:18008   */\n      0x20\n        /* \"#utility.yul\":17995:18004   */\n      dup3\n        /* \"#utility.yul\":17991:18009   */\n      add\n        /* \"#utility.yul\":17983:18009   */\n      swap1\n      pop\n        /* \"#utility.yul\":18055:18064   */\n      dup2\n        /* \"#utility.yul\":18049:18053   */\n      dup2\n        /* \"#utility.yul\":18045:18065   */\n      sub\n        /* \"#utility.yul\":18041:18042   */\n      0x00\n        /* \"#utility.yul\":18030:18039   */\n      dup4\n        /* \"#utility.yul\":18026:18043   */\n      add\n        /* \"#utility.yul\":18019:18066   */\n      mstore\n        /* \"#utility.yul\":18083:18214   */\n      tag_509\n        /* \"#utility.yul\":18209:18213   */\n      dup2\n        /* \"#utility.yul\":18083:18214   */\n      tag_454\n      jump\t// in\n    tag_509:\n        /* \"#utility.yul\":18075:18214   */\n      swap1\n      pop\n        /* \"#utility.yul\":17802:18221   */\n      swap2\n      swap1\n      pop\n      jump\t// out\n        /* \"#utility.yul\":18227:18449   */\n    tag_30:\n        /* \"#utility.yul\":18320:18324   */\n      0x00\n        /* \"#utility.yul\":18358:18360   */\n      0x20\n        /* \"#utility.yul\":18347:18356   */\n      dup3\n        /* \"#utility.yul\":18343:18361   */\n      add\n        /* \"#utility.yul\":18335:18361   */\n      swap1\n      pop\n        /* \"#utility.yul\":18371:18442   */\n      tag_511\n        /* \"#utility.yul\":18439:18440   */\n      0x00\n        /* \"#utility.yul\":18428:18437   */\n      dup4\n        /* \"#utility.yul\":18424:18441   */\n      add\n        /* \"#utility.yul\":18415:18421   */\n      dup5\n        /* \"#utility.yul\":18371:18442   */\n      tag_459\n      jump\t// in\n    tag_511:\n        /* \"#utility.yul\":18227:18449   */\n      swap3\n      swap2\n      pop\n      pop\n      jump\t// out\n        /* \"#utility.yul\":18536:18634   */\n    tag_361:\n        /* \"#utility.yul\":18587:18593   */\n      0x00\n        /* \"#utility.yul\":18621:18626   */\n      dup2\n        /* \"#utility.yul\":18615:18627   */\n      mload\n        /* \"#utility.yul\":18605:18627   */\n      swap1\n      pop\n        /* \"#utility.yul\":18536:18634   */\n      swap2\n      swap1\n      pop\n      jump\t// out\n        /* \"#utility.yul\":18640:18739   */\n    tag_373:\n        /* \"#utility.yul\":18692:18698   */\n      0x00\n        /* \"#utility.yul\":18726:18731   */\n      dup2\n        /* \"#utility.yul\":18720:18732   */\n      mload\n        /* \"#utility.yul\":18710:18732   */\n      swap1\n      pop\n        /* \"#utility.yul\":18640:18739   */\n      swap2\n      swap1\n      pop\n      jump\t// out\n        /* \"#utility.yul\":18745:18892   */\n    tag_363:\n        /* \"#utility.yul\":18846:18857   */\n      0x00\n        /* \"#utility.yul\":18883:18886   */\n      dup2\n        /* \"#utility.yul\":18868:18886   */\n      swap1\n      pop\n        /* \"#utility.yul\":18745:18892   */\n      swap3\n      swap2\n      pop\n      pop\n      jump\t// out\n        /* \"#utility.yul\":18898:19067   */\n    tag_375:\n        /* \"#utility.yul\":18982:18993   */\n      0x00\n        /* \"#utility.yul\":19016:19022   */\n      dup3\n        /* \"#utility.yul\":19011:19014   */\n      dup3\n        /* \"#utility.yul\":19004:19023   */\n      mstore\n        /* \"#utility.yul\":19056:19060   */\n      0x20\n        /* \"#utility.yul\":19051:19054   */\n      dup3\n        /* \"#utility.yul\":19047:19061   */\n      add\n        /* \"#utility.yul\":19032:19061   */\n      swap1\n      pop\n        /* \"#utility.yul\":18898:19067   */\n      swap3\n      swap2\n      pop\n      pop\n      jump\t// out\n        /* \"#utility.yul\":19073:19378   */\n    tag_266:\n        /* \"#utility.yul\":19113:19116   */\n      0x00\n        /* \"#utility.yul\":19132:19152   */\n      tag_519\n        /* \"#utility.yul\":19150:19151   */\n      dup3\n        /* \"#utility.yul\":19132:19152   */\n      tag_462\n      jump\t// in\n    tag_519:\n        /* \"#utility.yul\":19127:19152   */\n      swap2\n      pop\n        /* \"#utility.yul\":19166:19186   */\n      tag_520\n        /* \"#utility.yul\":19184:19185   */\n      dup4\n        /* \"#utility.yul\":19166:19186   */\n      tag_462\n      jump\t// in\n    tag_520:\n        /* \"#utility.yul\":19161:19186   */\n      swap3\n      pop\n        /* \"#utility.yul\":19320:19321   */\n      dup3\n        /* \"#utility.yul\":19252:19318   */\n      0xffffffffffffffffffffffffffffffffffffffffffffffffffffffffffffffff\n        /* \"#utility.yul\":19248:19322   */\n      sub\n        /* \"#utility.yul\":19245:19246   */\n      dup3\n        /* \"#utility.yul\":19242:19323   */\n      gt\n        /* \"#utility.yul\":19239:19346   */\n      iszero\n      tag_521\n      jumpi\n        /* \"#utility.yul\":19326:19344   */\n      tag_522\n      tag_523\n      jump\t// in\n    tag_522:\n        /* \"#utility.yul\":19239:19346   */\n    tag_521:\n        /* \"#utility.yul\":19370:19371   */\n      dup3\n        /* \"#utility.yul\":19367:19368   */\n      dup3\n        /* \"#utility.yul\":19363:19372   */\n      add\n        /* \"#utility.yul\":19356:19372   */\n      swap1\n      pop\n        /* \"#utility.yul\":19073:19378   */\n      swap3\n      swap2\n      pop\n      pop\n      jump\t// out\n        /* \"#utility.yul\":19384:19569   */\n    tag_263:\n        /* \"#utility.yul\":19424:19425   */\n      0x00\n        /* \"#utility.yul\":19441:19461   */\n      tag_525\n        /* \"#utility.yul\":19459:19460   */\n      dup3\n        /* \"#utility.yul\":19441:19461   */\n      tag_462\n      jump\t// in\n    tag_525:\n        /* \"#utility.yul\":19436:19461   */\n      swap2\n      pop\n        /* \"#utility.yul\":19475:19495   */\n      tag_526\n        /* \"#utility.yul\":19493:19494   */\n      dup4\n        /* \"#utility.yul\":19475:19495   */\n      tag_462\n      jump\t// in\n    tag_526:\n        /* \"#utility.yul\":19470:19495   */\n      swap3\n      pop\n        /* \"#utility.yul\":19514:19515   */\n      dup3\n        /* \"#utility.yul\":19504:19539   */\n      tag_527\n      jumpi\n        /* \"#utility.yul\":19519:19537   */\n      tag_528\n      tag_529\n      jump\t// in\n    tag_528:\n        /* \"#utility.yul\":19504:19539   */\n    tag_527:\n        /* \"#utility.yul\":19561:19562   */\n      dup3\n        /* \"#utility.yul\":19558:19559   */\n      dup3\n        /* \"#utility.yul\":19554:19563   */\n      div\n        /* \"#utility.yul\":19549:19563   */\n      swap1\n      pop\n        /* \"#utility.yul\":19384:19569   */\n      swap3\n      swap2\n      pop\n      pop\n      jump\t// out\n        /* \"#utility.yul\":19575:19923   */\n    tag_269:\n        /* \"#utility.yul\":19615:19622   */\n      0x00\n        /* \"#utility.yul\":19638:19658   */\n      tag_531\n        /* \"#utility.yul\":19656:19657   */\n      dup3\n        /* \"#utility.yul\":19638:19658   */\n      tag_462\n      jump\t// in\n    tag_531:\n        /* \"#utility.yul\":19633:19658   */\n      swap2\n      pop\n        /* \"#utility.yul\":19672:19692   */\n      tag_532\n        /* \"#utility.yul\":19690:19691   */\n      dup4\n        /* \"#utility.yul\":19672:19692   */\n      tag_462\n      jump\t// in\n    tag_532:\n        /* \"#utility.yul\":19667:19692   */\n      swap3\n      pop\n        /* \"#utility.yul\":19860:19861   */\n      dup2\n        /* \"#utility.yul\":19792:19858   */\n      0xffffffffffffffffffffffffffffffffffffffffffffffffffffffffffffffff\n        /* \"#utility.yul\":19788:19862   */\n      div\n        /* \"#utility.yul\":19785:19786   */\n      dup4\n        /* \"#utility.yul\":19782:19863   */\n      gt\n        /* \"#utility.yul\":19777:19778   */\n      dup3\n        /* \"#utility.yul\":19770:19779   */\n      iszero\n        /* \"#utility.yul\":19763:19780   */\n      iszero\n        /* \"#utility.yul\":19759:19864   */\n      and\n        /* \"#utility.yul\":19756:19887   */\n      iszero\n      tag_533\n      jumpi\n        /* \"#utility.yul\":19867:19885   */\n      tag_534\n      tag_523\n      jump\t// in\n    tag_534:\n        /* \"#utility.yul\":19756:19887   */\n    tag_533:\n        /* \"#utility.yul\":19915:19916   */\n      dup3\n        /* \"#utility.yul\":19912:19913   */\n      dup3\n        /* \"#utility.yul\":19908:19917   */\n      mul\n        /* \"#utility.yul\":19897:19917   */\n      swap1\n      pop\n        /* \"#utility.yul\":19575:19923   */\n      swap3\n      swap2\n      pop\n      pop\n      jump\t// out\n        /* \"#utility.yul\":19929:20120   */\n    tag_260:\n        /* \"#utility.yul\":19969:19973   */\n      0x00\n        /* \"#utility.yul\":19989:20009   */\n      tag_536\n        /* \"#utility.yul\":20007:20008   */\n      dup3\n        /* \"#utility.yul\":19989:20009   */\n      tag_462\n      jump\t// in\n    tag_536:\n        /* \"#utility.yul\":19984:20009   */\n      swap2\n      pop\n        /* \"#utility.yul\":20023:20043   */\n      tag_537\n        /* \"#utility.yul\":20041:20042   */\n      dup4\n        /* \"#utility.yul\":20023:20043   */\n      tag_462\n      jump\t// in\n    tag_537:\n        /* \"#utility.yul\":20018:20043   */\n      swap3\n      pop\n        /* \"#utility.yul\":20062:20063   */\n      dup3\n        /* \"#utility.yul\":20059:20060   */\n      dup3\n        /* \"#utility.yul\":20056:20064   */\n      lt\n        /* \"#utility.yul\":20053:20087   */\n      iszero\n      tag_538\n      jumpi\n        /* \"#utility.yul\":20067:20085   */\n      tag_539\n      tag_523\n      jump\t// in\n    tag_539:\n        /* \"#utility.yul\":20053:20087   */\n    tag_538:\n        /* \"#utility.yul\":20112:20113   */\n      dup3\n        /* \"#utility.yul\":20109:20110   */\n      dup3\n        /* \"#utility.yul\":20105:20114   */\n      sub\n        /* \"#utility.yul\":20097:20114   */\n      swap1\n      pop\n        /* \"#utility.yul\":19929:20120   */\n      swap3\n      swap2\n      pop\n      pop\n      jump\t// out\n        /* \"#utility.yul\":20126:20222   */\n    tag_357:\n        /* \"#utility.yul\":20163:20170   */\n      0x00\n        /* \"#utility.yul\":20192:20216   */\n      tag_541\n        /* \"#utility.yul\":20210:20215   */\n      dup3\n        /* \"#utility.yul\":20192:20216   */\n      tag_542\n      jump\t// in\n    tag_541:\n        /* \"#utility.yul\":20181:20216   */\n      swap1\n      pop\n        /* \"#utility.yul\":20126:20222   */\n      swap2\n      swap1\n      pop\n      jump\t// out\n        /* \"#utility.yul\":20228:20318   */\n    tag_543:\n        /* \"#utility.yul\":20262:20269   */\n      0x00\n        /* \"#utility.yul\":20305:20310   */\n      dup2\n        /* \"#utility.yul\":20298:20311   */\n      iszero\n        /* \"#utility.yul\":20291:20312   */\n      iszero\n        /* \"#utility.yul\":20280:20312   */\n      swap1\n      pop\n        /* \"#utility.yul\":20228:20318   */\n      swap2\n      swap1\n      pop\n      jump\t// out\n        /* \"#utility.yul\":20324:20450   */\n    tag_542:\n        /* \"#utility.yul\":20361:20368   */\n      0x00\n        /* \"#utility.yul\":20401:20443   */\n      0xffffffffffffffffffffffffffffffffffffffff\n        /* \"#utility.yul\":20394:20399   */\n      dup3\n        /* \"#utility.yul\":20390:20444   */\n      and\n        /* \"#utility.yul\":20379:20444   */\n      swap1\n      pop\n        /* \"#utility.yul\":20324:20450   */\n      swap2\n      swap1\n      pop\n      jump\t// out\n        /* \"#utility.yul\":20456:20533   */\n    tag_462:\n        /* \"#utility.yul\":20493:20500   */\n      0x00\n        /* \"#utility.yul\":20522:20527   */\n      dup2\n        /* \"#utility.yul\":20511:20527   */\n      swap1\n      pop\n        /* \"#utility.yul\":20456:20533   */\n      swap2\n      swap1\n      pop\n      jump\t// out\n        /* \"#utility.yul\":20539:20679   */\n    tag_369:\n        /* \"#utility.yul\":20603:20612   */\n      0x00\n        /* \"#utility.yul\":20636:20673   */\n      tag_548\n        /* \"#utility.yul\":20667:20672   */\n      dup3\n        /* \"#utility.yul\":20636:20673   */\n      tag_549\n      jump\t// in\n    tag_548:\n        /* \"#utility.yul\":20623:20673   */\n      swap1\n      pop\n        /* \"#utility.yul\":20539:20679   */\n      swap2\n      swap1\n      pop\n      jump\t// out\n        /* \"#utility.yul\":20685:20811   */\n    tag_549:\n        /* \"#utility.yul\":20735:20744   */\n      0x00\n        /* \"#utility.yul\":20768:20805   */\n      tag_551\n        /* \"#utility.yul\":20799:20804   */\n      dup3\n        /* \"#utility.yul\":20768:20805   */\n      tag_552\n      jump\t// in\n    tag_551:\n        /* \"#utility.yul\":20755:20805   */\n      swap1\n      pop\n        /* \"#utility.yul\":20685:20811   */\n      swap2\n      swap1\n      pop\n      jump\t// out\n        /* \"#utility.yul\":20817:20930   */\n    tag_552:\n        /* \"#utility.yul\":20867:20876   */\n      0x00\n        /* \"#utility.yul\":20900:20924   */\n      tag_554\n        /* \"#utility.yul\":20918:20923   */\n      dup3\n        /* \"#utility.yul\":20900:20924   */\n      tag_542\n      jump\t// in\n    tag_554:\n        /* \"#utility.yul\":20887:20924   */\n      swap1\n      pop\n        /* \"#utility.yul\":20817:20930   */\n      swap2\n      swap1\n      pop\n      jump\t// out\n        /* \"#utility.yul\":20936:21243   */\n    tag_365:\n        /* \"#utility.yul\":21004:21005   */\n      0x00\n        /* \"#utility.yul\":21014:21127   */\n    tag_556:\n        /* \"#utility.yul\":21028:21034   */\n      dup4\n        /* \"#utility.yul\":21025:21026   */\n      dup2\n        /* \"#utility.yul\":21022:21035   */\n      lt\n        /* \"#utility.yul\":21014:21127   */\n      iszero\n      tag_558\n      jumpi\n        /* \"#utility.yul\":21113:21114   */\n      dup1\n        /* \"#utility.yul\":21108:21111   */\n      dup3\n        /* \"#utility.yul\":21104:21115   */\n      add\n        /* \"#utility.yul\":21098:21116   */\n      mload\n        /* \"#utility.yul\":21094:21095   */\n      dup2\n        /* \"#utility.yul\":21089:21092   */\n      dup5\n        /* \"#utility.yul\":21085:21096   */\n      add\n        /* \"#utility.yul\":21078:21117   */\n      mstore\n        /* \"#utility.yul\":21050:21052   */\n      0x20\n        /* \"#utility.yul\":21047:21048   */\n      dup2\n        /* \"#utility.yul\":21043:21053   */\n      add\n        /* \"#utility.yul\":21038:21053   */\n      swap1\n      pop\n        /* \"#utility.yul\":21014:21127   */\n      jump(tag_556)\n    tag_558:\n        /* \"#utility.yul\":21145:21151   */\n      dup4\n        /* \"#utility.yul\":21142:21143   */\n      dup2\n        /* \"#utility.yul\":21139:21152   */\n      gt\n        /* \"#utility.yul\":21136:21237   */\n      iszero\n      tag_559\n      jumpi\n        /* \"#utility.yul\":21225:21226   */\n      0x00\n        /* \"#utility.yul\":21216:21222   */\n      dup5\n        /* \"#utility.yul\":21211:21214   */\n      dup5\n        /* \"#utility.yul\":21207:21223   */\n      add\n        /* \"#utility.yul\":21200:21227   */\n      mstore\n        /* \"#utility.yul\":21136:21237   */\n    tag_559:\n        /* \"#utility.yul\":20985:21243   */\n      pop\n        /* \"#utility.yul\":20936:21243   */\n      pop\n      pop\n      pop\n      jump\t// out\n        /* \"#utility.yul\":21249:21425   */\n    tag_109:\n        /* \"#utility.yul\":21281:21282   */\n      0x00\n        /* \"#utility.yul\":21298:21318   */\n      tag_561\n        /* \"#utility.yul\":21316:21317   */\n      dup3\n        /* \"#utility.yul\":21298:21318   */\n      tag_462\n      jump\t// in\n    tag_561:\n        /* \"#utility.yul\":21293:21318   */\n      swap2\n      pop\n        /* \"#utility.yul\":21332:21352   */\n      tag_562\n        /* \"#utility.yul\":21350:21351   */\n      dup4\n        /* \"#utility.yul\":21332:21352   */\n      tag_462\n      jump\t// in\n    tag_562:\n        /* \"#utility.yul\":21327:21352   */\n      swap3\n      pop\n        /* \"#utility.yul\":21371:21372   */\n      dup3\n        /* \"#utility.yul\":21361:21396   */\n      tag_563\n      jumpi\n        /* \"#utility.yul\":21376:21394   */\n      tag_564\n      tag_529\n      jump\t// in\n    tag_564:\n        /* \"#utility.yul\":21361:21396   */\n    tag_563:\n        /* \"#utility.yul\":21417:21418   */\n      dup3\n        /* \"#utility.yul\":21414:21415   */\n      dup3\n        /* \"#utility.yul\":21410:21419   */\n      mod\n        /* \"#utility.yul\":21405:21419   */\n      swap1\n      pop\n        /* \"#utility.yul\":21249:21425   */\n      swap3\n      swap2\n      pop\n      pop\n      jump\t// out\n        /* \"#utility.yul\":21431:21611   */\n    tag_523:\n        /* \"#utility.yul\":21479:21556   */\n      0x4e487b7100000000000000000000000000000000000000000000000000000000\n        /* \"#utility.yul\":21476:21477   */\n      0x00\n        /* \"#utility.yul\":21469:21557   */\n      mstore\n        /* \"#utility.yul\":21576:21580   */\n      0x11\n        /* \"#utility.yul\":21573:21574   */\n      0x04\n        /* \"#utility.yul\":21566:21581   */\n      mstore\n        /* \"#utility.yul\":21600:21604   */\n      0x24\n        /* \"#utility.yul\":21597:21598   */\n      0x00\n        /* \"#utility.yul\":21590:21605   */\n      revert\n        /* \"#utility.yul\":21617:21797   */\n    tag_529:\n        /* \"#utility.yul\":21665:21742   */\n      0x4e487b7100000000000000000000000000000000000000000000000000000000\n        /* \"#utility.yul\":21662:21663   */\n      0x00\n        /* \"#utility.yul\":21655:21743   */\n      mstore\n        /* \"#utility.yul\":21762:21766   */\n      0x12\n        /* \"#utility.yul\":21759:21760   */\n      0x04\n        /* \"#utility.yul\":21752:21767   */\n      mstore\n        /* \"#utility.yul\":21786:21790   */\n      0x24\n        /* \"#utility.yul\":21783:21784   */\n      0x00\n        /* \"#utility.yul\":21776:21791   */\n      revert\n        /* \"#utility.yul\":21926:22043   */\n    tag_335:\n        /* \"#utility.yul\":22035:22036   */\n      0x00\n        /* \"#utility.yul\":22032:22033   */\n      dup1\n        /* \"#utility.yul\":22025:22037   */\n      revert\n        /* \"#utility.yul\":22049:22151   */\n    tag_378:\n        /* \"#utility.yul\":22090:22096   */\n      0x00\n        /* \"#utility.yul\":22141:22143   */\n      0x1f\n        /* \"#utility.yul\":22137:22144   */\n      not\n        /* \"#utility.yul\":22132:22134   */\n      0x1f\n        /* \"#utility.yul\":22125:22130   */\n      dup4\n        /* \"#utility.yul\":22121:22135   */\n      add\n        /* \"#utility.yul\":22117:22145   */\n      and\n        /* \"#utility.yul\":22107:22145   */\n      swap1\n      pop\n        /* \"#utility.yul\":22049:22151   */\n      swap2\n      swap1\n      pop\n      jump\t// out\n        /* \"#utility.yul\":22157:22323   */\n    tag_383:\n        /* \"#utility.yul\":22297:22315   */\n      0x4e6f7468696e6720746f20636c61696d00000000000000000000000000000000\n        /* \"#utility.yul\":22293:22294   */\n      0x00\n        /* \"#utility.yul\":22285:22291   */\n      dup3\n        /* \"#utility.yul\":22281:22295   */\n      add\n        /* \"#utility.yul\":22274:22316   */\n      mstore\n        /* \"#utility.yul\":22157:22323   */\n      pop\n      jump\t// out\n        /* \"#utility.yul\":22329:22500   */\n    tag_388:\n        /* \"#utility.yul\":22469:22492   */\n      0x4572726f723a20696e76616c6964207374616b65720000000000000000000000\n        /* \"#utility.yul\":22465:22466   */\n      0x00\n        /* \"#utility.yul\":22457:22463   */\n      dup3\n        /* \"#utility.yul\":22453:22467   */\n      add\n        /* \"#utility.yul\":22446:22493   */\n      mstore\n        /* \"#utility.yul\":22329:22500   */\n      pop\n      jump\t// out\n        /* \"#utility.yul\":22506:22735   */\n    tag_393:\n        /* \"#utility.yul\":22646:22680   */\n      0x5361666542455032303a204245503230206f7065726174696f6e20646964206e\n        /* \"#utility.yul\":22642:22643   */\n      0x00\n        /* \"#utility.yul\":22634:22640   */\n      dup3\n        /* \"#utility.yul\":22630:22644   */\n      add\n        /* \"#utility.yul\":22623:22681   */\n      mstore\n        /* \"#utility.yul\":22715:22727   */\n      0x6f74207375636365656400000000000000000000000000000000000000000000\n        /* \"#utility.yul\":22710:22712   */\n      0x20\n        /* \"#utility.yul\":22702:22708   */\n      dup3\n        /* \"#utility.yul\":22698:22713   */\n      add\n        /* \"#utility.yul\":22691:22728   */\n      mstore\n        /* \"#utility.yul\":22506:22735   */\n      pop\n      jump\t// out\n        /* \"#utility.yul\":22741:22966   */\n    tag_398:\n        /* \"#utility.yul\":22881:22915   */\n      0x4f776e61626c653a206e6577206f776e657220697320746865207a65726f2061\n        /* \"#utility.yul\":22877:22878   */\n      0x00\n        /* \"#utility.yul\":22869:22875   */\n      dup3\n        /* \"#utility.yul\":22865:22879   */\n      add\n        /* \"#utility.yul\":22858:22916   */\n      mstore\n        /* \"#utility.yul\":22950:22958   */\n      0x6464726573730000000000000000000000000000000000000000000000000000\n        /* \"#utility.yul\":22945:22947   */\n      0x20\n        /* \"#utility.yul\":22937:22943   */\n      dup3\n        /* \"#utility.yul\":22933:22948   */\n      add\n        /* \"#utility.yul\":22926:22959   */\n      mstore\n        /* \"#utility.yul\":22741:22966   */\n      pop\n      jump\t// out\n        /* \"#utility.yul\":22972:23136   */\n    tag_403:\n        /* \"#utility.yul\":23112:23128   */\n      0x496e76616c696420616d6f756e74000000000000000000000000000000000000\n        /* \"#utility.yul\":23108:23109   */\n      0x00\n        /* \"#utility.yul\":23100:23106   */\n      dup3\n        /* \"#utility.yul\":23096:23110   */\n      add\n        /* \"#utility.yul\":23089:23129   */\n      mstore\n        /* \"#utility.yul\":22972:23136   */\n      pop\n      jump\t// out\n        /* \"#utility.yul\":23142:23307   */\n    tag_408:\n        /* \"#utility.yul\":23282:23299   */\n      0x416c726561647920737461727465640000000000000000000000000000000000\n        /* \"#utility.yul\":23278:23279   */\n      0x00\n        /* \"#utility.yul\":23270:23276   */\n      dup3\n        /* \"#utility.yul\":23266:23280   */\n      add\n        /* \"#utility.yul\":23259:23300   */\n      mstore\n        /* \"#utility.yul\":23142:23307   */\n      pop\n      jump\t// out\n        /* \"#utility.yul\":23313:23538   */\n    tag_413:\n        /* \"#utility.yul\":23453:23487   */\n      0x416464726573733a20696e73756666696369656e742062616c616e636520666f\n        /* \"#utility.yul\":23449:23450   */\n      0x00\n        /* \"#utility.yul\":23441:23447   */\n      dup3\n        /* \"#utility.yul\":23437:23451   */\n      add\n        /* \"#utility.yul\":23430:23488   */\n      mstore\n        /* \"#utility.yul\":23522:23530   */\n      0x722063616c6c0000000000000000000000000000000000000000000000000000\n        /* \"#utility.yul\":23517:23519   */\n      0x20\n        /* \"#utility.yul\":23509:23515   */\n      dup3\n        /* \"#utility.yul\":23505:23520   */\n      add\n        /* \"#utility.yul\":23498:23531   */\n      mstore\n        /* \"#utility.yul\":23313:23538   */\n      pop\n      jump\t// out\n        /* \"#utility.yul\":23544:23769   */\n    tag_418:\n        /* \"#utility.yul\":23684:23718   */\n      0x496e76616c696420416464726573732e20416464726573732063616e27742062\n        /* \"#utility.yul\":23680:23681   */\n      0x00\n        /* \"#utility.yul\":23672:23678   */\n      dup3\n        /* \"#utility.yul\":23668:23682   */\n      add\n        /* \"#utility.yul\":23661:23719   */\n      mstore\n        /* \"#utility.yul\":23753:23761   */\n      0x65207a65726f0000000000000000000000000000000000000000000000000000\n        /* \"#utility.yul\":23748:23750   */\n      0x20\n        /* \"#utility.yul\":23740:23746   */\n      dup3\n        /* \"#utility.yul\":23736:23751   */\n      add\n        /* \"#utility.yul\":23729:23762   */\n      mstore\n        /* \"#utility.yul\":23544:23769   */\n      pop\n      jump\t// out\n        /* \"#utility.yul\":23775:23956   */\n    tag_423:\n        /* \"#utility.yul\":23915:23948   */\n      0x416d6f756e742073686f756c642062652067726561746572207468616e203000\n        /* \"#utility.yul\":23911:23912   */\n      0x00\n        /* \"#utility.yul\":23903:23909   */\n      dup3\n        /* \"#utility.yul\":23899:23913   */\n      add\n        /* \"#utility.yul\":23892:23949   */\n      mstore\n        /* \"#utility.yul\":23775:23956   */\n      pop\n      jump\t// out\n        /* \"#utility.yul\":23962:24144   */\n    tag_428:\n        /* \"#utility.yul\":24102:24136   */\n      0x4f776e61626c653a2063616c6c6572206973206e6f7420746865206f776e6572\n        /* \"#utility.yul\":24098:24099   */\n      0x00\n        /* \"#utility.yul\":24090:24096   */\n      dup3\n        /* \"#utility.yul\":24086:24100   */\n      add\n        /* \"#utility.yul\":24079:24137   */\n      mstore\n        /* \"#utility.yul\":23962:24144   */\n      pop\n      jump\t// out\n        /* \"#utility.yul\":24150:24313   */\n    tag_433:\n        /* \"#utility.yul\":24290:24305   */\n      0x496e76616c69642076616c756500000000000000000000000000000000000000\n        /* \"#utility.yul\":24286:24287   */\n      0x00\n        /* \"#utility.yul\":24278:24284   */\n      dup3\n        /* \"#utility.yul\":24274:24288   */\n      add\n        /* \"#utility.yul\":24267:24306   */\n      mstore\n        /* \"#utility.yul\":24150:24313   */\n      pop\n      jump\t// out\n        /* \"#utility.yul\":24319:24498   */\n    tag_438:\n        /* \"#utility.yul\":24459:24490   */\n      0x416464726573733a2063616c6c20746f206e6f6e2d636f6e7472616374000000\n        /* \"#utility.yul\":24455:24456   */\n      0x00\n        /* \"#utility.yul\":24447:24453   */\n      dup3\n        /* \"#utility.yul\":24443:24457   */\n      add\n        /* \"#utility.yul\":24436:24491   */\n      mstore\n        /* \"#utility.yul\":24319:24498   */\n      pop\n      jump\t// out\n        /* \"#utility.yul\":24504:24680   */\n    tag_443:\n        /* \"#utility.yul\":24644:24672   */\n      0x496e76616c696420556e7374616b696e67204665652052617465000000000000\n        /* \"#utility.yul\":24640:24641   */\n      0x00\n        /* \"#utility.yul\":24632:24638   */\n      dup3\n        /* \"#utility.yul\":24628:24642   */\n      add\n        /* \"#utility.yul\":24621:24673   */\n      mstore\n        /* \"#utility.yul\":24504:24680   */\n      pop\n      jump\t// out\n        /* \"#utility.yul\":24686:24859   */\n    tag_448:\n        /* \"#utility.yul\":24826:24851   */\n      0x496e76616c6964204c6f636b7570204475726174696f6e000000000000000000\n        /* \"#utility.yul\":24822:24823   */\n      0x00\n        /* \"#utility.yul\":24814:24820   */\n      dup3\n        /* \"#utility.yul\":24810:24824   */\n      add\n        /* \"#utility.yul\":24803:24852   */\n      mstore\n        /* \"#utility.yul\":24686:24859   */\n      pop\n      jump\t// out\n        /* \"#utility.yul\":24865:25028   */\n    tag_453:\n        /* \"#utility.yul\":25005:25020   */\n      0x43616e2774206265207a65726f00000000000000000000000000000000000000\n        /* \"#utility.yul\":25001:25002   */\n      0x00\n        /* \"#utility.yul\":24993:24999   */\n      dup3\n        /* \"#utility.yul\":24989:25003   */\n      add\n        /* \"#utility.yul\":24982:25021   */\n      mstore\n        /* \"#utility.yul\":24865:25028   */\n      pop\n      jump\t// out\n        /* \"#utility.yul\":25034:25197   */\n    tag_458:\n        /* \"#utility.yul\":25174:25189   */\n      0x496e73756666696369656e742100000000000000000000000000000000000000\n        /* \"#utility.yul\":25170:25171   */\n      0x00\n        /* \"#utility.yul\":25162:25168   */\n      dup3\n        /* \"#utility.yul\":25158:25172   */\n      add\n        /* \"#utility.yul\":25151:25190   */\n      mstore\n        /* \"#utility.yul\":25034:25197   */\n      pop\n      jump\t// out\n        /* \"#utility.yul\":25203:25325   */\n    tag_320:\n        /* \"#utility.yul\":25276:25300   */\n      tag_588\n        /* \"#utility.yul\":25294:25299   */\n      dup2\n        /* \"#utility.yul\":25276:25300   */\n      tag_357\n      jump\t// in\n    tag_588:\n        /* \"#utility.yul\":25269:25274   */\n      dup2\n        /* \"#utility.yul\":25266:25301   */\n      eq\n        /* \"#utility.yul\":25256:25319   */\n      tag_589\n      jumpi\n        /* \"#utility.yul\":25315:25316   */\n      0x00\n        /* \"#utility.yul\":25312:25313   */\n      dup1\n        /* \"#utility.yul\":25305:25317   */\n      revert\n        /* \"#utility.yul\":25256:25319   */\n    tag_589:\n        /* \"#utility.yul\":25203:25325   */\n      pop\n      jump\t// out\n        /* \"#utility.yul\":25331:25447   */\n    tag_324:\n        /* \"#utility.yul\":25401:25422   */\n      tag_591\n        /* \"#utility.yul\":25416:25421   */\n      dup2\n        /* \"#utility.yul\":25401:25422   */\n      tag_543\n      jump\t// in\n    tag_591:\n        /* \"#utility.yul\":25394:25399   */\n      dup2\n        /* \"#utility.yul\":25391:25423   */\n      eq\n        /* \"#utility.yul\":25381:25441   */\n      tag_592\n      jumpi\n        /* \"#utility.yul\":25437:25438   */\n      0x00\n        /* \"#utility.yul\":25434:25435   */\n      dup1\n        /* \"#utility.yul\":25427:25439   */\n      revert\n        /* \"#utility.yul\":25381:25441   */\n    tag_592:\n        /* \"#utility.yul\":25331:25447   */\n      pop\n      jump\t// out\n        /* \"#utility.yul\":25453:25575   */\n    tag_328:\n        /* \"#utility.yul\":25526:25550   */\n      tag_594\n        /* \"#utility.yul\":25544:25549   */\n      dup2\n        /* \"#utility.yul\":25526:25550   */\n      tag_462\n      jump\t// in\n    tag_594:\n        /* \"#utility.yul\":25519:25524   */\n      dup2\n        /* \"#utility.yul\":25516:25551   */\n      eq\n        /* \"#utility.yul\":25506:25569   */\n      tag_595\n      jumpi\n        /* \"#utility.yul\":25565:25566   */\n      0x00\n        /* \"#utility.yul\":25562:25563   */\n      dup1\n        /* \"#utility.yul\":25555:25567   */\n      revert\n        /* \"#utility.yul\":25506:25569   */\n    tag_595:\n        /* \"#utility.yul\":25453:25575   */\n      pop\n      jump\t// out\n\n    auxdata: 0xa264697066735822122073ed29fae3c6e0506dc22901fec8f83dad4fa487c61a793c5aee3f934f4c452564736f6c63430008070033\n}\n",
				"bytecode": {
					"linkReferences": {},
					"object": "60806040523480156200001157600080fd5b5060405162002c9a38038062002c9a833981810160405281019062000037919062000203565b620000576200004b620000f160201b60201c565b620000f960201b60201c565b62000067620001bd60201b60201c565b80600560006101000a81548173ffffffffffffffffffffffffffffffffffffffff021916908373ffffffffffffffffffffffffffffffffffffffff16021790555081600960006101000a81548173ffffffffffffffffffffffffffffffffffffffff021916908373ffffffffffffffffffffffffffffffffffffffff16021790555050506200029d565b600033905090565b60008060009054906101000a900473ffffffffffffffffffffffffffffffffffffffff169050816000806101000a81548173ffffffffffffffffffffffffffffffffffffffff021916908373ffffffffffffffffffffffffffffffffffffffff1602179055508173ffffffffffffffffffffffffffffffffffffffff168173ffffffffffffffffffffffffffffffffffffffff167f8be0079c531659141344cd1fd0a4f28419497f9722a3daafe3b4186f6b6457e060405160405180910390a35050565b60c86003819055506105dc600181905550606460048190555062093a806002819055506276a700600681905550565b600081519050620001fd8162000283565b92915050565b600080604083850312156200021d576200021c6200027e565b5b60006200022d85828601620001ec565b92505060206200024085828601620001ec565b9150509250929050565b600062000257826200025e565b9050919050565b600073ffffffffffffffffffffffffffffffffffffffff82169050919050565b600080fd5b6200028e816200024a565b81146200029a57600080fd5b50565b6129ed80620002ad6000396000f3fe608060405234801561001057600080fd5b506004361061010b5760003560e01c8063817b1cd2116100a25780639e447fc6116100715780639e447fc614610244578063a694fc3a14610260578063f2fde38b1461027c578063f7b2a7be14610298578063fc0c546a146102b65761010b565b8063817b1cd2146101d05780638a9d3839146101ee5780638da5cb5b1461020a57806391e07e7a146102285761010b565b80634b77dd9e116100de5780634b77dd9e146101705780635d2ec65d1461018c578063692642e7146101aa578063715018a6146101c65761010b565b80632e1a7d4d14610110578063373d61321461012c5780634641257d1461014a5780634b62b70b14610154575b600080fd5b61012a60048036038101906101259190611d62565b6102d4565b005b6101346106a3565b6040516101419190612392565b60405180910390f35b6101526106ed565b005b61016e60048036038101906101699190611d62565b610a1e565b005b61018a60048036038101906101859190611dbc565b610ae7565b005b610194610d7f565b6040516101a19190612392565b60405180910390f35b6101c460048036038101906101bf9190611d62565b610dc9565b005b6101ce610ede565b005b6101d8610f66565b6040516101e59190612392565b60405180910390f35b61020860048036038101906102039190611d08565b610f6c565b005b6102126110d2565b60405161021f91906120da565b60405180910390f35b610242600480360381019061023d9190611d62565b6110fb565b005b61025e60048036038101906102599190611d62565b6111fb565b005b61027a60048036038101906102759190611d62565b6112fb565b005b61029660048036038101906102919190611d08565b6115c0565b005b6102a06116b8565b6040516102ad9190612392565b60405180910390f35b6102be611702565b6040516102cb9190612155565b60405180910390f35b6000600760003373ffffffffffffffffffffffffffffffffffffffff1673ffffffffffffffffffffffffffffffffffffffff16815260200190815260200160002090506000821161035a576040517f08c379a000000000000000000000000000000000000000000000000000000000815260040161035190612292565b60405180910390fd5b80600101548211156103a1576040517f08c379a000000000000000000000000000000000000000000000000000000000815260040161039890612212565b60405180910390fd5b6103a9611728565b6000600960009054906101000a900473ffffffffffffffffffffffffffffffffffffffff1673ffffffffffffffffffffffffffffffffffffffff166370a08231306040518263ffffffff1660e01b815260040161040691906120da565b60206040518083038186803b15801561041e57600080fd5b505afa158015610432573d6000803e3d6000fd5b505050506040513d601f19601f820116820180604052508101906104569190611d8f565b831061050c57600960009054906101000a900473ffffffffffffffffffffffffffffffffffffffff1673ffffffffffffffffffffffffffffffffffffffff166370a08231306040518263ffffffff1660e01b81526004016104b791906120da565b60206040518083038186803b1580156104cf57600080fd5b505afa1580156104e3573d6000803e3d6000fd5b505050506040513d601f19601f820116820180604052508101906105079190611d8f565b61050e565b825b9050600061053e6201518061053085600301544261180490919063ffffffff16565b61181a90919063ffffffff16565b9050600060649050600060018560020154146105755761056d600654866003015461183090919063ffffffff16565b421015610593565b60006002548461058591906125a5565b1480156105925750600083115b5b9050806105a05760015491505b6105d96105ca6127106105bc858861184690919063ffffffff16565b61181a90919063ffffffff16565b8561180490919063ffffffff16565b93506105f08460085461180490919063ffffffff16565b60088190555061060d84866001015461180490919063ffffffff16565b85600101819055506106623385600960009054906101000a900473ffffffffffffffffffffffffffffffffffffffff1673ffffffffffffffffffffffffffffffffffffffff1661185c9092919063ffffffff16565b7f884edad9ce6fa2440d8a54cc123490eb96d2768479d49ff9c7366125a9424364338560405161069392919061212c565b60405180910390a1505050505050565b6000600760003373ffffffffffffffffffffffffffffffffffffffff1673ffffffffffffffffffffffffffffffffffffffff16815260200190815260200160002060010154905090565b6106f5611728565b6000600760003373ffffffffffffffffffffffffffffffffffffffff1673ffffffffffffffffffffffffffffffffffffffff1681526020019081526020016000209050600061077d61076a61271061075c600454866000015461184690919063ffffffff16565b61181a90919063ffffffff16565b836000015461180490919063ffffffff16565b9050600081116107c2576040517f08c379a00000000000000000000000000000000000000000000000000000000081526004016107b990612192565b60405180910390fd5b600960009054906101000a900473ffffffffffffffffffffffffffffffffffffffff1673ffffffffffffffffffffffffffffffffffffffff166370a08231600560009054906101000a900473ffffffffffffffffffffffffffffffffffffffff166040518263ffffffff1660e01b815260040161083f91906120da565b60206040518083038186803b15801561085757600080fd5b505afa15801561086b573d6000803e3d6000fd5b505050506040513d601f19601f8201168201806040525081019061088f9190611d8f565b81111561096657600960009054906101000a900473ffffffffffffffffffffffffffffffffffffffff1673ffffffffffffffffffffffffffffffffffffffff166370a08231600560009054906101000a900473ffffffffffffffffffffffffffffffffffffffff166040518263ffffffff1660e01b815260040161091391906120da565b60206040518083038186803b15801561092b57600080fd5b505afa15801561093f573d6000803e3d6000fd5b505050506040513d601f19601f820116820180604052508101906109639190611d8f565b90505b6109d7600560009054906101000a900473ffffffffffffffffffffffffffffffffffffffff163383600960009054906101000a900473ffffffffffffffffffffffffffffffffffffffff1673ffffffffffffffffffffffffffffffffffffffff166118e2909392919063ffffffff16565b600082600001819055507fc9695243a805adb74c91f28311176c65b417e842d5699893cef56d18bfa48cba3382604051610a1292919061212c565b60405180910390a15050565b610a2661196b565b73ffffffffffffffffffffffffffffffffffffffff16610a446110d2565b73ffffffffffffffffffffffffffffffffffffffff1614610a9a576040517f08c379a0000000000000000000000000000000000000000000000000000000008152600401610a91906122b2565b60405180910390fd5b60008111610add576040517f08c379a0000000000000000000000000000000000000000000000000000000008152600401610ad490612352565b60405180910390fd5b8060068190555050565b60008211610b2a576040517f08c379a0000000000000000000000000000000000000000000000000000000008152600401610b2190612292565b60405180910390fd5b81600960009054906101000a900473ffffffffffffffffffffffffffffffffffffffff1673ffffffffffffffffffffffffffffffffffffffff166370a08231336040518263ffffffff1660e01b8152600401610b8691906120da565b60206040518083038186803b158015610b9e57600080fd5b505afa158015610bb2573d6000803e3d6000fd5b505050506040513d601f19601f82011682018060405250810190610bd69190611d8f565b11610c16576040517f08c379a0000000000000000000000000000000000000000000000000000000008152600401610c0d90612372565b60405180910390fd5b6055600760003373ffffffffffffffffffffffffffffffffffffffff1673ffffffffffffffffffffffffffffffffffffffff168152602001908152602001600020600501541415610c9c576040517f08c379a0000000000000000000000000000000000000000000000000000000008152600401610c9390612232565b60405180910390fd5b80600760003373ffffffffffffffffffffffffffffffffffffffff1673ffffffffffffffffffffffffffffffffffffffff1681526020019081526020016000206002018190555042600760003373ffffffffffffffffffffffffffffffffffffffff1673ffffffffffffffffffffffffffffffffffffffff168152602001908152602001600020600301819055506055600760003373ffffffffffffffffffffffffffffffffffffffff1673ffffffffffffffffffffffffffffffffffffffff16815260200190815260200160002060050181905550610d7b826112fb565b5050565b6000600760003373ffffffffffffffffffffffffffffffffffffffff1673ffffffffffffffffffffffffffffffffffffffff16815260200190815260200160002060000154905090565b610dd161196b565b73ffffffffffffffffffffffffffffffffffffffff16610def6110d2565b73ffffffffffffffffffffffffffffffffffffffff1614610e45576040517f08c379a0000000000000000000000000000000000000000000000000000000008152600401610e3c906122b2565b60405180910390fd5b60008111610e88576040517f08c379a0000000000000000000000000000000000000000000000000000000008152600401610e7f90612332565b60405180910390fd5b610e9e620151808261184690919063ffffffff16565b6002819055507f189bda9782663c67a3f95c0aa5455924c711210b00281c60ead2f0dd8dbc924c81604051610ed39190612392565b60405180910390a150565b610ee661196b565b73ffffffffffffffffffffffffffffffffffffffff16610f046110d2565b73ffffffffffffffffffffffffffffffffffffffff1614610f5a576040517f08c379a0000000000000000000000000000000000000000000000000000000008152600401610f51906122b2565b60405180910390fd5b610f646000611973565b565b60085481565b610f7461196b565b73ffffffffffffffffffffffffffffffffffffffff16610f926110d2565b73ffffffffffffffffffffffffffffffffffffffff1614610fe8576040517f08c379a0000000000000000000000000000000000000000000000000000000008152600401610fdf906122b2565b60405180910390fd5b600073ffffffffffffffffffffffffffffffffffffffff168173ffffffffffffffffffffffffffffffffffffffff1611611057576040517f08c379a000000000000000000000000000000000000000000000000000000000815260040161104e90612272565b60405180910390fd5b80600560006101000a81548173ffffffffffffffffffffffffffffffffffffffff021916908373ffffffffffffffffffffffffffffffffffffffff1602179055507feda87051e2996c46ee8d576509ffc1826e6df46eef99072f838fecbb88992a87816040516110c791906120da565b60405180910390a150565b60008060009054906101000a900473ffffffffffffffffffffffffffffffffffffffff16905090565b61110361196b565b73ffffffffffffffffffffffffffffffffffffffff166111216110d2565b73ffffffffffffffffffffffffffffffffffffffff1614611177576040517f08c379a000000000000000000000000000000000000000000000000000000000815260040161116e906122b2565b60405180910390fd5b600081116111ba576040517f08c379a00000000000000000000000000000000000000000000000000000000081526004016111b190612312565b60405180910390fd5b806001819055507f150c688dd7595bf7862b8ab1fe46756450eb7d731037942b3bbc46f3f0e21b81816040516111f09190612392565b60405180910390a150565b61120361196b565b73ffffffffffffffffffffffffffffffffffffffff166112216110d2565b73ffffffffffffffffffffffffffffffffffffffff1614611277576040517f08c379a000000000000000000000000000000000000000000000000000000000815260040161126e906122b2565b60405180910390fd5b600081116112ba576040517f08c379a00000000000000000000000000000000000000000000000000000000081526004016112b1906122d2565b60405180910390fd5b806003819055507f1946fb78c7ca778b54d82cabaac5ba67cf446f58d0ff1f8ceaebb6150e54e44f816040516112f09190612392565b60405180910390a150565b6000811161133e576040517f08c379a000000000000000000000000000000000000000000000000000000000815260040161133590612292565b60405180910390fd5b80600960009054906101000a900473ffffffffffffffffffffffffffffffffffffffff1673ffffffffffffffffffffffffffffffffffffffff166370a08231336040518263ffffffff1660e01b815260040161139a91906120da565b60206040518083038186803b1580156113b257600080fd5b505afa1580156113c6573d6000803e3d6000fd5b505050506040513d601f19601f820116820180604052508101906113ea9190611d8f565b1161142a576040517f08c379a000000000000000000000000000000000000000000000000000000000815260040161142190612372565b60405180910390fd5b6055600760003373ffffffffffffffffffffffffffffffffffffffff1673ffffffffffffffffffffffffffffffffffffffff16815260200190815260200160002060050154146114af576040517f08c379a00000000000000000000000000000000000000000000000000000000081526004016114a6906121b2565b60405180910390fd5b6114b7611728565b6000600760003373ffffffffffffffffffffffffffffffffffffffff1673ffffffffffffffffffffffffffffffffffffffff1681526020019081526020016000209050611549333084600960009054906101000a900473ffffffffffffffffffffffffffffffffffffffff1673ffffffffffffffffffffffffffffffffffffffff166118e2909392919063ffffffff16565b61156082826001015461183090919063ffffffff16565b816001018190555061157d8260085461183090919063ffffffff16565b6008819055507f9e71bc8eea02a63969f509818f2dafb9254532904319f9dbda79b67bd34a5f3d33836040516115b492919061212c565b60405180910390a15050565b6115c861196b565b73ffffffffffffffffffffffffffffffffffffffff166115e66110d2565b73ffffffffffffffffffffffffffffffffffffffff161461163c576040517f08c379a0000000000000000000000000000000000000000000000000000000008152600401611633906122b2565b60405180910390fd5b600073ffffffffffffffffffffffffffffffffffffffff168173ffffffffffffffffffffffffffffffffffffffff1614156116ac576040517f08c379a00000000000000000000000000000000000000000000000000000000081526004016116a3906121f2565b60405180910390fd5b6116b581611973565b50565b6000600760003373ffffffffffffffffffffffffffffffffffffffff1673ffffffffffffffffffffffffffffffffffffffff16815260200190815260200160002060000154905090565b600960009054906101000a900473ffffffffffffffffffffffffffffffffffffffff1681565b6000600760003373ffffffffffffffffffffffffffffffffffffffff1673ffffffffffffffffffffffffffffffffffffffff168152602001908152602001600020905060006117d66127106117c86003546117ba6117a76121c061179989600401544361180490919063ffffffff16565b61181a90919063ffffffff16565b876001015461184690919063ffffffff16565b61184690919063ffffffff16565b61181a90919063ffffffff16565b90506117ef81836000015461183090919063ffffffff16565b82600001819055504382600401819055505050565b6000818361181291906124c0565b905092915050565b600081836118289190612435565b905092915050565b6000818361183e91906123df565b905092915050565b600081836118549190612466565b905092915050565b6118dd8363a9059cbb60e01b848460405160240161187b92919061212c565b604051602081830303815290604052907bffffffffffffffffffffffffffffffffffffffffffffffffffffffff19166020820180517bffffffffffffffffffffffffffffffffffffffffffffffffffffffff8381831617835250505050611a37565b505050565b611965846323b872dd60e01b858585604051602401611903939291906120f5565b604051602081830303815290604052907bffffffffffffffffffffffffffffffffffffffffffffffffffffffff19166020820180517bffffffffffffffffffffffffffffffffffffffffffffffffffffffff8381831617835250505050611a37565b50505050565b600033905090565b60008060009054906101000a900473ffffffffffffffffffffffffffffffffffffffff169050816000806101000a81548173ffffffffffffffffffffffffffffffffffffffff021916908373ffffffffffffffffffffffffffffffffffffffff1602179055508173ffffffffffffffffffffffffffffffffffffffff168173ffffffffffffffffffffffffffffffffffffffff167f8be0079c531659141344cd1fd0a4f28419497f9722a3daafe3b4186f6b6457e060405160405180910390a35050565b6000611a99826040518060400160405280602081526020017f5361666542455032303a206c6f772d6c6576656c2063616c6c206661696c65648152508573ffffffffffffffffffffffffffffffffffffffff16611afe9092919063ffffffff16565b9050600081511115611af95780806020019051810190611ab99190611d35565b611af8576040517f08c379a0000000000000000000000000000000000000000000000000000000008152600401611aef906121d2565b60405180910390fd5b5b505050565b6060611b0d8484600085611b16565b90509392505050565b606082471015611b5b576040517f08c379a0000000000000000000000000000000000000000000000000000000008152600401611b5290612252565b60405180910390fd5b611b6485611c2a565b611ba3576040517f08c379a0000000000000000000000000000000000000000000000000000000008152600401611b9a906122f2565b60405180910390fd5b6000808673ffffffffffffffffffffffffffffffffffffffff168587604051611bcc91906120c3565b60006040518083038185875af1925050503d8060008114611c09576040519150601f19603f3d011682016040523d82523d6000602084013e611c0e565b606091505b5091509150611c1e828286611c4d565b92505050949350505050565b6000808273ffffffffffffffffffffffffffffffffffffffff163b119050919050565b60608315611c5d57829050611cad565b600083511115611c705782518084602001fd5b816040517f08c379a0000000000000000000000000000000000000000000000000000000008152600401611ca49190612170565b60405180910390fd5b9392505050565b600081359050611cc381612972565b92915050565b600081519050611cd881612989565b92915050565b600081359050611ced816129a0565b92915050565b600081519050611d02816129a0565b92915050565b600060208284031215611d1e57611d1d612634565b5b6000611d2c84828501611cb4565b91505092915050565b600060208284031215611d4b57611d4a612634565b5b6000611d5984828501611cc9565b91505092915050565b600060208284031215611d7857611d77612634565b5b6000611d8684828501611cde565b91505092915050565b600060208284031215611da557611da4612634565b5b6000611db384828501611cf3565b91505092915050565b60008060408385031215611dd357611dd2612634565b5b6000611de185828601611cde565b9250506020611df285828601611cde565b9150509250929050565b611e05816124f4565b82525050565b6000611e16826123ad565b611e2081856123c3565b9350611e30818560208601612572565b80840191505092915050565b611e458161253c565b82525050565b6000611e56826123b8565b611e6081856123ce565b9350611e70818560208601612572565b611e7981612639565b840191505092915050565b6000611e916010836123ce565b9150611e9c8261264a565b602082019050919050565b6000611eb46015836123ce565b9150611ebf82612673565b602082019050919050565b6000611ed7602a836123ce565b9150611ee28261269c565b604082019050919050565b6000611efa6026836123ce565b9150611f05826126eb565b604082019050919050565b6000611f1d600e836123ce565b9150611f288261273a565b602082019050919050565b6000611f40600f836123ce565b9150611f4b82612763565b602082019050919050565b6000611f636026836123ce565b9150611f6e8261278c565b604082019050919050565b6000611f866026836123ce565b9150611f91826127db565b604082019050919050565b6000611fa9601f836123ce565b9150611fb48261282a565b602082019050919050565b6000611fcc6020836123ce565b9150611fd782612853565b602082019050919050565b6000611fef600d836123ce565b9150611ffa8261287c565b602082019050919050565b6000612012601d836123ce565b915061201d826128a5565b602082019050919050565b6000612035601a836123ce565b9150612040826128ce565b602082019050919050565b60006120586017836123ce565b9150612063826128f7565b602082019050919050565b600061207b600d836123ce565b915061208682612920565b602082019050919050565b600061209e600d836123ce565b91506120a982612949565b602082019050919050565b6120bd81612532565b82525050565b60006120cf8284611e0b565b915081905092915050565b60006020820190506120ef6000830184611dfc565b92915050565b600060608201905061210a6000830186611dfc565b6121176020830185611dfc565b61212460408301846120b4565b949350505050565b60006040820190506121416000830185611dfc565b61214e60208301846120b4565b9392505050565b600060208201905061216a6000830184611e3c565b92915050565b6000602082019050818103600083015261218a8184611e4b565b905092915050565b600060208201905081810360008301526121ab81611e84565b9050919050565b600060208201905081810360008301526121cb81611ea7565b9050919050565b600060208201905081810360008301526121eb81611eca565b9050919050565b6000602082019050818103600083015261220b81611eed565b9050919050565b6000602082019050818103600083015261222b81611f10565b9050919050565b6000602082019050818103600083015261224b81611f33565b9050919050565b6000602082019050818103600083015261226b81611f56565b9050919050565b6000602082019050818103600083015261228b81611f79565b9050919050565b600060208201905081810360008301526122ab81611f9c565b9050919050565b600060208201905081810360008301526122cb81611fbf565b9050919050565b600060208201905081810360008301526122eb81611fe2565b9050919050565b6000602082019050818103600083015261230b81612005565b9050919050565b6000602082019050818103600083015261232b81612028565b9050919050565b6000602082019050818103600083015261234b8161204b565b9050919050565b6000602082019050818103600083015261236b8161206e565b9050919050565b6000602082019050818103600083015261238b81612091565b9050919050565b60006020820190506123a760008301846120b4565b92915050565b600081519050919050565b600081519050919050565b600081905092915050565b600082825260208201905092915050565b60006123ea82612532565b91506123f583612532565b9250827fffffffffffffffffffffffffffffffffffffffffffffffffffffffffffffffff0382111561242a576124296125d6565b5b828201905092915050565b600061244082612532565b915061244b83612532565b92508261245b5761245a612605565b5b828204905092915050565b600061247182612532565b915061247c83612532565b9250817fffffffffffffffffffffffffffffffffffffffffffffffffffffffffffffffff04831182151516156124b5576124b46125d6565b5b828202905092915050565b60006124cb82612532565b91506124d683612532565b9250828210156124e9576124e86125d6565b5b828203905092915050565b60006124ff82612512565b9050919050565b60008115159050919050565b600073ffffffffffffffffffffffffffffffffffffffff82169050919050565b6000819050919050565b60006125478261254e565b9050919050565b600061255982612560565b9050919050565b600061256b82612512565b9050919050565b60005b83811015612590578082015181840152602081019050612575565b8381111561259f576000848401525b50505050565b60006125b082612532565b91506125bb83612532565b9250826125cb576125ca612605565b5b828206905092915050565b7f4e487b7100000000000000000000000000000000000000000000000000000000600052601160045260246000fd5b7f4e487b7100000000000000000000000000000000000000000000000000000000600052601260045260246000fd5b600080fd5b6000601f19601f8301169050919050565b7f4e6f7468696e6720746f20636c61696d00000000000000000000000000000000600082015250565b7f4572726f723a20696e76616c6964207374616b65720000000000000000000000600082015250565b7f5361666542455032303a204245503230206f7065726174696f6e20646964206e60008201527f6f74207375636365656400000000000000000000000000000000000000000000602082015250565b7f4f776e61626c653a206e6577206f776e657220697320746865207a65726f206160008201527f6464726573730000000000000000000000000000000000000000000000000000602082015250565b7f496e76616c696420616d6f756e74000000000000000000000000000000000000600082015250565b7f416c726561647920737461727465640000000000000000000000000000000000600082015250565b7f416464726573733a20696e73756666696369656e742062616c616e636520666f60008201527f722063616c6c0000000000000000000000000000000000000000000000000000602082015250565b7f496e76616c696420416464726573732e20416464726573732063616e2774206260008201527f65207a65726f0000000000000000000000000000000000000000000000000000602082015250565b7f416d6f756e742073686f756c642062652067726561746572207468616e203000600082015250565b7f4f776e61626c653a2063616c6c6572206973206e6f7420746865206f776e6572600082015250565b7f496e76616c69642076616c756500000000000000000000000000000000000000600082015250565b7f416464726573733a2063616c6c20746f206e6f6e2d636f6e7472616374000000600082015250565b7f496e76616c696420556e7374616b696e67204665652052617465000000000000600082015250565b7f496e76616c6964204c6f636b7570204475726174696f6e000000000000000000600082015250565b7f43616e2774206265207a65726f00000000000000000000000000000000000000600082015250565b7f496e73756666696369656e742100000000000000000000000000000000000000600082015250565b61297b816124f4565b811461298657600080fd5b50565b61299281612506565b811461299d57600080fd5b50565b6129a981612532565b81146129b457600080fd5b5056fea264697066735822122073ed29fae3c6e0506dc22901fec8f83dad4fa487c61a793c5aee3f934f4c452564736f6c63430008070033",
					"opcodes": "PUSH1 0x80 PUSH1 0x40 MSTORE CALLVALUE DUP1 ISZERO PUSH3 0x11 JUMPI PUSH1 0x0 DUP1 REVERT JUMPDEST POP PUSH1 0x40 MLOAD PUSH3 0x2C9A CODESIZE SUB DUP1 PUSH3 0x2C9A DUP4 CODECOPY DUP2 DUP2 ADD PUSH1 0x40 MSTORE DUP2 ADD SWAP1 PUSH3 0x37 SWAP2 SWAP1 PUSH3 0x203 JUMP JUMPDEST PUSH3 0x57 PUSH3 0x4B PUSH3 0xF1 PUSH1 0x20 SHL PUSH1 0x20 SHR JUMP JUMPDEST PUSH3 0xF9 PUSH1 0x20 SHL PUSH1 0x20 SHR JUMP JUMPDEST PUSH3 0x67 PUSH3 0x1BD PUSH1 0x20 SHL PUSH1 0x20 SHR JUMP JUMPDEST DUP1 PUSH1 0x5 PUSH1 0x0 PUSH2 0x100 EXP DUP2 SLOAD DUP2 PUSH20 0xFFFFFFFFFFFFFFFFFFFFFFFFFFFFFFFFFFFFFFFF MUL NOT AND SWAP1 DUP4 PUSH20 0xFFFFFFFFFFFFFFFFFFFFFFFFFFFFFFFFFFFFFFFF AND MUL OR SWAP1 SSTORE POP DUP2 PUSH1 0x9 PUSH1 0x0 PUSH2 0x100 EXP DUP2 SLOAD DUP2 PUSH20 0xFFFFFFFFFFFFFFFFFFFFFFFFFFFFFFFFFFFFFFFF MUL NOT AND SWAP1 DUP4 PUSH20 0xFFFFFFFFFFFFFFFFFFFFFFFFFFFFFFFFFFFFFFFF AND MUL OR SWAP1 SSTORE POP POP POP PUSH3 0x29D JUMP JUMPDEST PUSH1 0x0 CALLER SWAP1 POP SWAP1 JUMP JUMPDEST PUSH1 0x0 DUP1 PUSH1 0x0 SWAP1 SLOAD SWAP1 PUSH2 0x100 EXP SWAP1 DIV PUSH20 0xFFFFFFFFFFFFFFFFFFFFFFFFFFFFFFFFFFFFFFFF AND SWAP1 POP DUP2 PUSH1 0x0 DUP1 PUSH2 0x100 EXP DUP2 SLOAD DUP2 PUSH20 0xFFFFFFFFFFFFFFFFFFFFFFFFFFFFFFFFFFFFFFFF MUL NOT AND SWAP1 DUP4 PUSH20 0xFFFFFFFFFFFFFFFFFFFFFFFFFFFFFFFFFFFFFFFF AND MUL OR SWAP1 SSTORE POP DUP2 PUSH20 0xFFFFFFFFFFFFFFFFFFFFFFFFFFFFFFFFFFFFFFFF AND DUP2 PUSH20 0xFFFFFFFFFFFFFFFFFFFFFFFFFFFFFFFFFFFFFFFF AND PUSH32 0x8BE0079C531659141344CD1FD0A4F28419497F9722A3DAAFE3B4186F6B6457E0 PUSH1 0x40 MLOAD PUSH1 0x40 MLOAD DUP1 SWAP2 SUB SWAP1 LOG3 POP POP JUMP JUMPDEST PUSH1 0xC8 PUSH1 0x3 DUP2 SWAP1 SSTORE POP PUSH2 0x5DC PUSH1 0x1 DUP2 SWAP1 SSTORE POP PUSH1 0x64 PUSH1 0x4 DUP2 SWAP1 SSTORE POP PUSH3 0x93A80 PUSH1 0x2 DUP2 SWAP1 SSTORE POP PUSH3 0x76A700 PUSH1 0x6 DUP2 SWAP1 SSTORE POP JUMP JUMPDEST PUSH1 0x0 DUP2 MLOAD SWAP1 POP PUSH3 0x1FD DUP2 PUSH3 0x283 JUMP JUMPDEST SWAP3 SWAP2 POP POP JUMP JUMPDEST PUSH1 0x0 DUP1 PUSH1 0x40 DUP4 DUP6 SUB SLT ISZERO PUSH3 0x21D JUMPI PUSH3 0x21C PUSH3 0x27E JUMP JUMPDEST JUMPDEST PUSH1 0x0 PUSH3 0x22D DUP6 DUP3 DUP7 ADD PUSH3 0x1EC JUMP JUMPDEST SWAP3 POP POP PUSH1 0x20 PUSH3 0x240 DUP6 DUP3 DUP7 ADD PUSH3 0x1EC JUMP JUMPDEST SWAP2 POP POP SWAP3 POP SWAP3 SWAP1 POP JUMP JUMPDEST PUSH1 0x0 PUSH3 0x257 DUP3 PUSH3 0x25E JUMP JUMPDEST SWAP1 POP SWAP2 SWAP1 POP JUMP JUMPDEST PUSH1 0x0 PUSH20 0xFFFFFFFFFFFFFFFFFFFFFFFFFFFFFFFFFFFFFFFF DUP3 AND SWAP1 POP SWAP2 SWAP1 POP JUMP JUMPDEST PUSH1 0x0 DUP1 REVERT JUMPDEST PUSH3 0x28E DUP2 PUSH3 0x24A JUMP JUMPDEST DUP2 EQ PUSH3 0x29A JUMPI PUSH1 0x0 DUP1 REVERT JUMPDEST POP JUMP JUMPDEST PUSH2 0x29ED DUP1 PUSH3 0x2AD PUSH1 0x0 CODECOPY PUSH1 0x0 RETURN INVALID PUSH1 0x80 PUSH1 0x40 MSTORE CALLVALUE DUP1 ISZERO PUSH2 0x10 JUMPI PUSH1 0x0 DUP1 REVERT JUMPDEST POP PUSH1 0x4 CALLDATASIZE LT PUSH2 0x10B JUMPI PUSH1 0x0 CALLDATALOAD PUSH1 0xE0 SHR DUP1 PUSH4 0x817B1CD2 GT PUSH2 0xA2 JUMPI DUP1 PUSH4 0x9E447FC6 GT PUSH2 0x71 JUMPI DUP1 PUSH4 0x9E447FC6 EQ PUSH2 0x244 JUMPI DUP1 PUSH4 0xA694FC3A EQ PUSH2 0x260 JUMPI DUP1 PUSH4 0xF2FDE38B EQ PUSH2 0x27C JUMPI DUP1 PUSH4 0xF7B2A7BE EQ PUSH2 0x298 JUMPI DUP1 PUSH4 0xFC0C546A EQ PUSH2 0x2B6 JUMPI PUSH2 0x10B JUMP JUMPDEST DUP1 PUSH4 0x817B1CD2 EQ PUSH2 0x1D0 JUMPI DUP1 PUSH4 0x8A9D3839 EQ PUSH2 0x1EE JUMPI DUP1 PUSH4 0x8DA5CB5B EQ PUSH2 0x20A JUMPI DUP1 PUSH4 0x91E07E7A EQ PUSH2 0x228 JUMPI PUSH2 0x10B JUMP JUMPDEST DUP1 PUSH4 0x4B77DD9E GT PUSH2 0xDE JUMPI DUP1 PUSH4 0x4B77DD9E EQ PUSH2 0x170 JUMPI DUP1 PUSH4 0x5D2EC65D EQ PUSH2 0x18C JUMPI DUP1 PUSH4 0x692642E7 EQ PUSH2 0x1AA JUMPI DUP1 PUSH4 0x715018A6 EQ PUSH2 0x1C6 JUMPI PUSH2 0x10B JUMP JUMPDEST DUP1 PUSH4 0x2E1A7D4D EQ PUSH2 0x110 JUMPI DUP1 PUSH4 0x373D6132 EQ PUSH2 0x12C JUMPI DUP1 PUSH4 0x4641257D EQ PUSH2 0x14A JUMPI DUP1 PUSH4 0x4B62B70B EQ PUSH2 0x154 JUMPI JUMPDEST PUSH1 0x0 DUP1 REVERT JUMPDEST PUSH2 0x12A PUSH1 0x4 DUP1 CALLDATASIZE SUB DUP2 ADD SWAP1 PUSH2 0x125 SWAP2 SWAP1 PUSH2 0x1D62 JUMP JUMPDEST PUSH2 0x2D4 JUMP JUMPDEST STOP JUMPDEST PUSH2 0x134 PUSH2 0x6A3 JUMP JUMPDEST PUSH1 0x40 MLOAD PUSH2 0x141 SWAP2 SWAP1 PUSH2 0x2392 JUMP JUMPDEST PUSH1 0x40 MLOAD DUP1 SWAP2 SUB SWAP1 RETURN JUMPDEST PUSH2 0x152 PUSH2 0x6ED JUMP JUMPDEST STOP JUMPDEST PUSH2 0x16E PUSH1 0x4 DUP1 CALLDATASIZE SUB DUP2 ADD SWAP1 PUSH2 0x169 SWAP2 SWAP1 PUSH2 0x1D62 JUMP JUMPDEST PUSH2 0xA1E JUMP JUMPDEST STOP JUMPDEST PUSH2 0x18A PUSH1 0x4 DUP1 CALLDATASIZE SUB DUP2 ADD SWAP1 PUSH2 0x185 SWAP2 SWAP1 PUSH2 0x1DBC JUMP JUMPDEST PUSH2 0xAE7 JUMP JUMPDEST STOP JUMPDEST PUSH2 0x194 PUSH2 0xD7F JUMP JUMPDEST PUSH1 0x40 MLOAD PUSH2 0x1A1 SWAP2 SWAP1 PUSH2 0x2392 JUMP JUMPDEST PUSH1 0x40 MLOAD DUP1 SWAP2 SUB SWAP1 RETURN JUMPDEST PUSH2 0x1C4 PUSH1 0x4 DUP1 CALLDATASIZE SUB DUP2 ADD SWAP1 PUSH2 0x1BF SWAP2 SWAP1 PUSH2 0x1D62 JUMP JUMPDEST PUSH2 0xDC9 JUMP JUMPDEST STOP JUMPDEST PUSH2 0x1CE PUSH2 0xEDE JUMP JUMPDEST STOP JUMPDEST PUSH2 0x1D8 PUSH2 0xF66 JUMP JUMPDEST PUSH1 0x40 MLOAD PUSH2 0x1E5 SWAP2 SWAP1 PUSH2 0x2392 JUMP JUMPDEST PUSH1 0x40 MLOAD DUP1 SWAP2 SUB SWAP1 RETURN JUMPDEST PUSH2 0x208 PUSH1 0x4 DUP1 CALLDATASIZE SUB DUP2 ADD SWAP1 PUSH2 0x203 SWAP2 SWAP1 PUSH2 0x1D08 JUMP JUMPDEST PUSH2 0xF6C JUMP JUMPDEST STOP JUMPDEST PUSH2 0x212 PUSH2 0x10D2 JUMP JUMPDEST PUSH1 0x40 MLOAD PUSH2 0x21F SWAP2 SWAP1 PUSH2 0x20DA JUMP JUMPDEST PUSH1 0x40 MLOAD DUP1 SWAP2 SUB SWAP1 RETURN JUMPDEST PUSH2 0x242 PUSH1 0x4 DUP1 CALLDATASIZE SUB DUP2 ADD SWAP1 PUSH2 0x23D SWAP2 SWAP1 PUSH2 0x1D62 JUMP JUMPDEST PUSH2 0x10FB JUMP JUMPDEST STOP JUMPDEST PUSH2 0x25E PUSH1 0x4 DUP1 CALLDATASIZE SUB DUP2 ADD SWAP1 PUSH2 0x259 SWAP2 SWAP1 PUSH2 0x1D62 JUMP JUMPDEST PUSH2 0x11FB JUMP JUMPDEST STOP JUMPDEST PUSH2 0x27A PUSH1 0x4 DUP1 CALLDATASIZE SUB DUP2 ADD SWAP1 PUSH2 0x275 SWAP2 SWAP1 PUSH2 0x1D62 JUMP JUMPDEST PUSH2 0x12FB JUMP JUMPDEST STOP JUMPDEST PUSH2 0x296 PUSH1 0x4 DUP1 CALLDATASIZE SUB DUP2 ADD SWAP1 PUSH2 0x291 SWAP2 SWAP1 PUSH2 0x1D08 JUMP JUMPDEST PUSH2 0x15C0 JUMP JUMPDEST STOP JUMPDEST PUSH2 0x2A0 PUSH2 0x16B8 JUMP JUMPDEST PUSH1 0x40 MLOAD PUSH2 0x2AD SWAP2 SWAP1 PUSH2 0x2392 JUMP JUMPDEST PUSH1 0x40 MLOAD DUP1 SWAP2 SUB SWAP1 RETURN JUMPDEST PUSH2 0x2BE PUSH2 0x1702 JUMP JUMPDEST PUSH1 0x40 MLOAD PUSH2 0x2CB SWAP2 SWAP1 PUSH2 0x2155 JUMP JUMPDEST PUSH1 0x40 MLOAD DUP1 SWAP2 SUB SWAP1 RETURN JUMPDEST PUSH1 0x0 PUSH1 0x7 PUSH1 0x0 CALLER PUSH20 0xFFFFFFFFFFFFFFFFFFFFFFFFFFFFFFFFFFFFFFFF AND PUSH20 0xFFFFFFFFFFFFFFFFFFFFFFFFFFFFFFFFFFFFFFFF AND DUP2 MSTORE PUSH1 0x20 ADD SWAP1 DUP2 MSTORE PUSH1 0x20 ADD PUSH1 0x0 KECCAK256 SWAP1 POP PUSH1 0x0 DUP3 GT PUSH2 0x35A JUMPI PUSH1 0x40 MLOAD PUSH32 0x8C379A000000000000000000000000000000000000000000000000000000000 DUP2 MSTORE PUSH1 0x4 ADD PUSH2 0x351 SWAP1 PUSH2 0x2292 JUMP JUMPDEST PUSH1 0x40 MLOAD DUP1 SWAP2 SUB SWAP1 REVERT JUMPDEST DUP1 PUSH1 0x1 ADD SLOAD DUP3 GT ISZERO PUSH2 0x3A1 JUMPI PUSH1 0x40 MLOAD PUSH32 0x8C379A000000000000000000000000000000000000000000000000000000000 DUP2 MSTORE PUSH1 0x4 ADD PUSH2 0x398 SWAP1 PUSH2 0x2212 JUMP JUMPDEST PUSH1 0x40 MLOAD DUP1 SWAP2 SUB SWAP1 REVERT JUMPDEST PUSH2 0x3A9 PUSH2 0x1728 JUMP JUMPDEST PUSH1 0x0 PUSH1 0x9 PUSH1 0x0 SWAP1 SLOAD SWAP1 PUSH2 0x100 EXP SWAP1 DIV PUSH20 0xFFFFFFFFFFFFFFFFFFFFFFFFFFFFFFFFFFFFFFFF AND PUSH20 0xFFFFFFFFFFFFFFFFFFFFFFFFFFFFFFFFFFFFFFFF AND PUSH4 0x70A08231 ADDRESS PUSH1 0x40 MLOAD DUP3 PUSH4 0xFFFFFFFF AND PUSH1 0xE0 SHL DUP2 MSTORE PUSH1 0x4 ADD PUSH2 0x406 SWAP2 SWAP1 PUSH2 0x20DA JUMP JUMPDEST PUSH1 0x20 PUSH1 0x40 MLOAD DUP1 DUP4 SUB DUP2 DUP7 DUP1 EXTCODESIZE ISZERO DUP1 ISZERO PUSH2 0x41E JUMPI PUSH1 0x0 DUP1 REVERT JUMPDEST POP GAS STATICCALL ISZERO DUP1 ISZERO PUSH2 0x432 JUMPI RETURNDATASIZE PUSH1 0x0 DUP1 RETURNDATACOPY RETURNDATASIZE PUSH1 0x0 REVERT JUMPDEST POP POP POP POP PUSH1 0x40 MLOAD RETURNDATASIZE PUSH1 0x1F NOT PUSH1 0x1F DUP3 ADD AND DUP3 ADD DUP1 PUSH1 0x40 MSTORE POP DUP2 ADD SWAP1 PUSH2 0x456 SWAP2 SWAP1 PUSH2 0x1D8F JUMP JUMPDEST DUP4 LT PUSH2 0x50C JUMPI PUSH1 0x9 PUSH1 0x0 SWAP1 SLOAD SWAP1 PUSH2 0x100 EXP SWAP1 DIV PUSH20 0xFFFFFFFFFFFFFFFFFFFFFFFFFFFFFFFFFFFFFFFF AND PUSH20 0xFFFFFFFFFFFFFFFFFFFFFFFFFFFFFFFFFFFFFFFF AND PUSH4 0x70A08231 ADDRESS PUSH1 0x40 MLOAD DUP3 PUSH4 0xFFFFFFFF AND PUSH1 0xE0 SHL DUP2 MSTORE PUSH1 0x4 ADD PUSH2 0x4B7 SWAP2 SWAP1 PUSH2 0x20DA JUMP JUMPDEST PUSH1 0x20 PUSH1 0x40 MLOAD DUP1 DUP4 SUB DUP2 DUP7 DUP1 EXTCODESIZE ISZERO DUP1 ISZERO PUSH2 0x4CF JUMPI PUSH1 0x0 DUP1 REVERT JUMPDEST POP GAS STATICCALL ISZERO DUP1 ISZERO PUSH2 0x4E3 JUMPI RETURNDATASIZE PUSH1 0x0 DUP1 RETURNDATACOPY RETURNDATASIZE PUSH1 0x0 REVERT JUMPDEST POP POP POP POP PUSH1 0x40 MLOAD RETURNDATASIZE PUSH1 0x1F NOT PUSH1 0x1F DUP3 ADD AND DUP3 ADD DUP1 PUSH1 0x40 MSTORE POP DUP2 ADD SWAP1 PUSH2 0x507 SWAP2 SWAP1 PUSH2 0x1D8F JUMP JUMPDEST PUSH2 0x50E JUMP JUMPDEST DUP3 JUMPDEST SWAP1 POP PUSH1 0x0 PUSH2 0x53E PUSH3 0x15180 PUSH2 0x530 DUP6 PUSH1 0x3 ADD SLOAD TIMESTAMP PUSH2 0x1804 SWAP1 SWAP2 SWAP1 PUSH4 0xFFFFFFFF AND JUMP JUMPDEST PUSH2 0x181A SWAP1 SWAP2 SWAP1 PUSH4 0xFFFFFFFF AND JUMP JUMPDEST SWAP1 POP PUSH1 0x0 PUSH1 0x64 SWAP1 POP PUSH1 0x0 PUSH1 0x1 DUP6 PUSH1 0x2 ADD SLOAD EQ PUSH2 0x575 JUMPI PUSH2 0x56D PUSH1 0x6 SLOAD DUP7 PUSH1 0x3 ADD SLOAD PUSH2 0x1830 SWAP1 SWAP2 SWAP1 PUSH4 0xFFFFFFFF AND JUMP JUMPDEST TIMESTAMP LT ISZERO PUSH2 0x593 JUMP JUMPDEST PUSH1 0x0 PUSH1 0x2 SLOAD DUP5 PUSH2 0x585 SWAP2 SWAP1 PUSH2 0x25A5 JUMP JUMPDEST EQ DUP1 ISZERO PUSH2 0x592 JUMPI POP PUSH1 0x0 DUP4 GT JUMPDEST JUMPDEST SWAP1 POP DUP1 PUSH2 0x5A0 JUMPI PUSH1 0x1 SLOAD SWAP2 POP JUMPDEST PUSH2 0x5D9 PUSH2 0x5CA PUSH2 0x2710 PUSH2 0x5BC DUP6 DUP9 PUSH2 0x1846 SWAP1 SWAP2 SWAP1 PUSH4 0xFFFFFFFF AND JUMP JUMPDEST PUSH2 0x181A SWAP1 SWAP2 SWAP1 PUSH4 0xFFFFFFFF AND JUMP JUMPDEST DUP6 PUSH2 0x1804 SWAP1 SWAP2 SWAP1 PUSH4 0xFFFFFFFF AND JUMP JUMPDEST SWAP4 POP PUSH2 0x5F0 DUP5 PUSH1 0x8 SLOAD PUSH2 0x1804 SWAP1 SWAP2 SWAP1 PUSH4 0xFFFFFFFF AND JUMP JUMPDEST PUSH1 0x8 DUP2 SWAP1 SSTORE POP PUSH2 0x60D DUP5 DUP7 PUSH1 0x1 ADD SLOAD PUSH2 0x1804 SWAP1 SWAP2 SWAP1 PUSH4 0xFFFFFFFF AND JUMP JUMPDEST DUP6 PUSH1 0x1 ADD DUP2 SWAP1 SSTORE POP PUSH2 0x662 CALLER DUP6 PUSH1 0x9 PUSH1 0x0 SWAP1 SLOAD SWAP1 PUSH2 0x100 EXP SWAP1 DIV PUSH20 0xFFFFFFFFFFFFFFFFFFFFFFFFFFFFFFFFFFFFFFFF AND PUSH20 0xFFFFFFFFFFFFFFFFFFFFFFFFFFFFFFFFFFFFFFFF AND PUSH2 0x185C SWAP1 SWAP3 SWAP2 SWAP1 PUSH4 0xFFFFFFFF AND JUMP JUMPDEST PUSH32 0x884EDAD9CE6FA2440D8A54CC123490EB96D2768479D49FF9C7366125A9424364 CALLER DUP6 PUSH1 0x40 MLOAD PUSH2 0x693 SWAP3 SWAP2 SWAP1 PUSH2 0x212C JUMP JUMPDEST PUSH1 0x40 MLOAD DUP1 SWAP2 SUB SWAP1 LOG1 POP POP POP POP POP POP JUMP JUMPDEST PUSH1 0x0 PUSH1 0x7 PUSH1 0x0 CALLER PUSH20 0xFFFFFFFFFFFFFFFFFFFFFFFFFFFFFFFFFFFFFFFF AND PUSH20 0xFFFFFFFFFFFFFFFFFFFFFFFFFFFFFFFFFFFFFFFF AND DUP2 MSTORE PUSH1 0x20 ADD SWAP1 DUP2 MSTORE PUSH1 0x20 ADD PUSH1 0x0 KECCAK256 PUSH1 0x1 ADD SLOAD SWAP1 POP SWAP1 JUMP JUMPDEST PUSH2 0x6F5 PUSH2 0x1728 JUMP JUMPDEST PUSH1 0x0 PUSH1 0x7 PUSH1 0x0 CALLER PUSH20 0xFFFFFFFFFFFFFFFFFFFFFFFFFFFFFFFFFFFFFFFF AND PUSH20 0xFFFFFFFFFFFFFFFFFFFFFFFFFFFFFFFFFFFFFFFF AND DUP2 MSTORE PUSH1 0x20 ADD SWAP1 DUP2 MSTORE PUSH1 0x20 ADD PUSH1 0x0 KECCAK256 SWAP1 POP PUSH1 0x0 PUSH2 0x77D PUSH2 0x76A PUSH2 0x2710 PUSH2 0x75C PUSH1 0x4 SLOAD DUP7 PUSH1 0x0 ADD SLOAD PUSH2 0x1846 SWAP1 SWAP2 SWAP1 PUSH4 0xFFFFFFFF AND JUMP JUMPDEST PUSH2 0x181A SWAP1 SWAP2 SWAP1 PUSH4 0xFFFFFFFF AND JUMP JUMPDEST DUP4 PUSH1 0x0 ADD SLOAD PUSH2 0x1804 SWAP1 SWAP2 SWAP1 PUSH4 0xFFFFFFFF AND JUMP JUMPDEST SWAP1 POP PUSH1 0x0 DUP2 GT PUSH2 0x7C2 JUMPI PUSH1 0x40 MLOAD PUSH32 0x8C379A000000000000000000000000000000000000000000000000000000000 DUP2 MSTORE PUSH1 0x4 ADD PUSH2 0x7B9 SWAP1 PUSH2 0x2192 JUMP JUMPDEST PUSH1 0x40 MLOAD DUP1 SWAP2 SUB SWAP1 REVERT JUMPDEST PUSH1 0x9 PUSH1 0x0 SWAP1 SLOAD SWAP1 PUSH2 0x100 EXP SWAP1 DIV PUSH20 0xFFFFFFFFFFFFFFFFFFFFFFFFFFFFFFFFFFFFFFFF AND PUSH20 0xFFFFFFFFFFFFFFFFFFFFFFFFFFFFFFFFFFFFFFFF AND PUSH4 0x70A08231 PUSH1 0x5 PUSH1 0x0 SWAP1 SLOAD SWAP1 PUSH2 0x100 EXP SWAP1 DIV PUSH20 0xFFFFFFFFFFFFFFFFFFFFFFFFFFFFFFFFFFFFFFFF AND PUSH1 0x40 MLOAD DUP3 PUSH4 0xFFFFFFFF AND PUSH1 0xE0 SHL DUP2 MSTORE PUSH1 0x4 ADD PUSH2 0x83F SWAP2 SWAP1 PUSH2 0x20DA JUMP JUMPDEST PUSH1 0x20 PUSH1 0x40 MLOAD DUP1 DUP4 SUB DUP2 DUP7 DUP1 EXTCODESIZE ISZERO DUP1 ISZERO PUSH2 0x857 JUMPI PUSH1 0x0 DUP1 REVERT JUMPDEST POP GAS STATICCALL ISZERO DUP1 ISZERO PUSH2 0x86B JUMPI RETURNDATASIZE PUSH1 0x0 DUP1 RETURNDATACOPY RETURNDATASIZE PUSH1 0x0 REVERT JUMPDEST POP POP POP POP PUSH1 0x40 MLOAD RETURNDATASIZE PUSH1 0x1F NOT PUSH1 0x1F DUP3 ADD AND DUP3 ADD DUP1 PUSH1 0x40 MSTORE POP DUP2 ADD SWAP1 PUSH2 0x88F SWAP2 SWAP1 PUSH2 0x1D8F JUMP JUMPDEST DUP2 GT ISZERO PUSH2 0x966 JUMPI PUSH1 0x9 PUSH1 0x0 SWAP1 SLOAD SWAP1 PUSH2 0x100 EXP SWAP1 DIV PUSH20 0xFFFFFFFFFFFFFFFFFFFFFFFFFFFFFFFFFFFFFFFF AND PUSH20 0xFFFFFFFFFFFFFFFFFFFFFFFFFFFFFFFFFFFFFFFF AND PUSH4 0x70A08231 PUSH1 0x5 PUSH1 0x0 SWAP1 SLOAD SWAP1 PUSH2 0x100 EXP SWAP1 DIV PUSH20 0xFFFFFFFFFFFFFFFFFFFFFFFFFFFFFFFFFFFFFFFF AND PUSH1 0x40 MLOAD DUP3 PUSH4 0xFFFFFFFF AND PUSH1 0xE0 SHL DUP2 MSTORE PUSH1 0x4 ADD PUSH2 0x913 SWAP2 SWAP1 PUSH2 0x20DA JUMP JUMPDEST PUSH1 0x20 PUSH1 0x40 MLOAD DUP1 DUP4 SUB DUP2 DUP7 DUP1 EXTCODESIZE ISZERO DUP1 ISZERO PUSH2 0x92B JUMPI PUSH1 0x0 DUP1 REVERT JUMPDEST POP GAS STATICCALL ISZERO DUP1 ISZERO PUSH2 0x93F JUMPI RETURNDATASIZE PUSH1 0x0 DUP1 RETURNDATACOPY RETURNDATASIZE PUSH1 0x0 REVERT JUMPDEST POP POP POP POP PUSH1 0x40 MLOAD RETURNDATASIZE PUSH1 0x1F NOT PUSH1 0x1F DUP3 ADD AND DUP3 ADD DUP1 PUSH1 0x40 MSTORE POP DUP2 ADD SWAP1 PUSH2 0x963 SWAP2 SWAP1 PUSH2 0x1D8F JUMP JUMPDEST SWAP1 POP JUMPDEST PUSH2 0x9D7 PUSH1 0x5 PUSH1 0x0 SWAP1 SLOAD SWAP1 PUSH2 0x100 EXP SWAP1 DIV PUSH20 0xFFFFFFFFFFFFFFFFFFFFFFFFFFFFFFFFFFFFFFFF AND CALLER DUP4 PUSH1 0x9 PUSH1 0x0 SWAP1 SLOAD SWAP1 PUSH2 0x100 EXP SWAP1 DIV PUSH20 0xFFFFFFFFFFFFFFFFFFFFFFFFFFFFFFFFFFFFFFFF AND PUSH20 0xFFFFFFFFFFFFFFFFFFFFFFFFFFFFFFFFFFFFFFFF AND PUSH2 0x18E2 SWAP1 SWAP4 SWAP3 SWAP2 SWAP1 PUSH4 0xFFFFFFFF AND JUMP JUMPDEST PUSH1 0x0 DUP3 PUSH1 0x0 ADD DUP2 SWAP1 SSTORE POP PUSH32 0xC9695243A805ADB74C91F28311176C65B417E842D5699893CEF56D18BFA48CBA CALLER DUP3 PUSH1 0x40 MLOAD PUSH2 0xA12 SWAP3 SWAP2 SWAP1 PUSH2 0x212C JUMP JUMPDEST PUSH1 0x40 MLOAD DUP1 SWAP2 SUB SWAP1 LOG1 POP POP JUMP JUMPDEST PUSH2 0xA26 PUSH2 0x196B JUMP JUMPDEST PUSH20 0xFFFFFFFFFFFFFFFFFFFFFFFFFFFFFFFFFFFFFFFF AND PUSH2 0xA44 PUSH2 0x10D2 JUMP JUMPDEST PUSH20 0xFFFFFFFFFFFFFFFFFFFFFFFFFFFFFFFFFFFFFFFF AND EQ PUSH2 0xA9A JUMPI PUSH1 0x40 MLOAD PUSH32 0x8C379A000000000000000000000000000000000000000000000000000000000 DUP2 MSTORE PUSH1 0x4 ADD PUSH2 0xA91 SWAP1 PUSH2 0x22B2 JUMP JUMPDEST PUSH1 0x40 MLOAD DUP1 SWAP2 SUB SWAP1 REVERT JUMPDEST PUSH1 0x0 DUP2 GT PUSH2 0xADD JUMPI PUSH1 0x40 MLOAD PUSH32 0x8C379A000000000000000000000000000000000000000000000000000000000 DUP2 MSTORE PUSH1 0x4 ADD PUSH2 0xAD4 SWAP1 PUSH2 0x2352 JUMP JUMPDEST PUSH1 0x40 MLOAD DUP1 SWAP2 SUB SWAP1 REVERT JUMPDEST DUP1 PUSH1 0x6 DUP2 SWAP1 SSTORE POP POP JUMP JUMPDEST PUSH1 0x0 DUP3 GT PUSH2 0xB2A JUMPI PUSH1 0x40 MLOAD PUSH32 0x8C379A000000000000000000000000000000000000000000000000000000000 DUP2 MSTORE PUSH1 0x4 ADD PUSH2 0xB21 SWAP1 PUSH2 0x2292 JUMP JUMPDEST PUSH1 0x40 MLOAD DUP1 SWAP2 SUB SWAP1 REVERT JUMPDEST DUP2 PUSH1 0x9 PUSH1 0x0 SWAP1 SLOAD SWAP1 PUSH2 0x100 EXP SWAP1 DIV PUSH20 0xFFFFFFFFFFFFFFFFFFFFFFFFFFFFFFFFFFFFFFFF AND PUSH20 0xFFFFFFFFFFFFFFFFFFFFFFFFFFFFFFFFFFFFFFFF AND PUSH4 0x70A08231 CALLER PUSH1 0x40 MLOAD DUP3 PUSH4 0xFFFFFFFF AND PUSH1 0xE0 SHL DUP2 MSTORE PUSH1 0x4 ADD PUSH2 0xB86 SWAP2 SWAP1 PUSH2 0x20DA JUMP JUMPDEST PUSH1 0x20 PUSH1 0x40 MLOAD DUP1 DUP4 SUB DUP2 DUP7 DUP1 EXTCODESIZE ISZERO DUP1 ISZERO PUSH2 0xB9E JUMPI PUSH1 0x0 DUP1 REVERT JUMPDEST POP GAS STATICCALL ISZERO DUP1 ISZERO PUSH2 0xBB2 JUMPI RETURNDATASIZE PUSH1 0x0 DUP1 RETURNDATACOPY RETURNDATASIZE PUSH1 0x0 REVERT JUMPDEST POP POP POP POP PUSH1 0x40 MLOAD RETURNDATASIZE PUSH1 0x1F NOT PUSH1 0x1F DUP3 ADD AND DUP3 ADD DUP1 PUSH1 0x40 MSTORE POP DUP2 ADD SWAP1 PUSH2 0xBD6 SWAP2 SWAP1 PUSH2 0x1D8F JUMP JUMPDEST GT PUSH2 0xC16 JUMPI PUSH1 0x40 MLOAD PUSH32 0x8C379A000000000000000000000000000000000000000000000000000000000 DUP2 MSTORE PUSH1 0x4 ADD PUSH2 0xC0D SWAP1 PUSH2 0x2372 JUMP JUMPDEST PUSH1 0x40 MLOAD DUP1 SWAP2 SUB SWAP1 REVERT JUMPDEST PUSH1 0x55 PUSH1 0x7 PUSH1 0x0 CALLER PUSH20 0xFFFFFFFFFFFFFFFFFFFFFFFFFFFFFFFFFFFFFFFF AND PUSH20 0xFFFFFFFFFFFFFFFFFFFFFFFFFFFFFFFFFFFFFFFF AND DUP2 MSTORE PUSH1 0x20 ADD SWAP1 DUP2 MSTORE PUSH1 0x20 ADD PUSH1 0x0 KECCAK256 PUSH1 0x5 ADD SLOAD EQ ISZERO PUSH2 0xC9C JUMPI PUSH1 0x40 MLOAD PUSH32 0x8C379A000000000000000000000000000000000000000000000000000000000 DUP2 MSTORE PUSH1 0x4 ADD PUSH2 0xC93 SWAP1 PUSH2 0x2232 JUMP JUMPDEST PUSH1 0x40 MLOAD DUP1 SWAP2 SUB SWAP1 REVERT JUMPDEST DUP1 PUSH1 0x7 PUSH1 0x0 CALLER PUSH20 0xFFFFFFFFFFFFFFFFFFFFFFFFFFFFFFFFFFFFFFFF AND PUSH20 0xFFFFFFFFFFFFFFFFFFFFFFFFFFFFFFFFFFFFFFFF AND DUP2 MSTORE PUSH1 0x20 ADD SWAP1 DUP2 MSTORE PUSH1 0x20 ADD PUSH1 0x0 KECCAK256 PUSH1 0x2 ADD DUP2 SWAP1 SSTORE POP TIMESTAMP PUSH1 0x7 PUSH1 0x0 CALLER PUSH20 0xFFFFFFFFFFFFFFFFFFFFFFFFFFFFFFFFFFFFFFFF AND PUSH20 0xFFFFFFFFFFFFFFFFFFFFFFFFFFFFFFFFFFFFFFFF AND DUP2 MSTORE PUSH1 0x20 ADD SWAP1 DUP2 MSTORE PUSH1 0x20 ADD PUSH1 0x0 KECCAK256 PUSH1 0x3 ADD DUP2 SWAP1 SSTORE POP PUSH1 0x55 PUSH1 0x7 PUSH1 0x0 CALLER PUSH20 0xFFFFFFFFFFFFFFFFFFFFFFFFFFFFFFFFFFFFFFFF AND PUSH20 0xFFFFFFFFFFFFFFFFFFFFFFFFFFFFFFFFFFFFFFFF AND DUP2 MSTORE PUSH1 0x20 ADD SWAP1 DUP2 MSTORE PUSH1 0x20 ADD PUSH1 0x0 KECCAK256 PUSH1 0x5 ADD DUP2 SWAP1 SSTORE POP PUSH2 0xD7B DUP3 PUSH2 0x12FB JUMP JUMPDEST POP POP JUMP JUMPDEST PUSH1 0x0 PUSH1 0x7 PUSH1 0x0 CALLER PUSH20 0xFFFFFFFFFFFFFFFFFFFFFFFFFFFFFFFFFFFFFFFF AND PUSH20 0xFFFFFFFFFFFFFFFFFFFFFFFFFFFFFFFFFFFFFFFF AND DUP2 MSTORE PUSH1 0x20 ADD SWAP1 DUP2 MSTORE PUSH1 0x20 ADD PUSH1 0x0 KECCAK256 PUSH1 0x0 ADD SLOAD SWAP1 POP SWAP1 JUMP JUMPDEST PUSH2 0xDD1 PUSH2 0x196B JUMP JUMPDEST PUSH20 0xFFFFFFFFFFFFFFFFFFFFFFFFFFFFFFFFFFFFFFFF AND PUSH2 0xDEF PUSH2 0x10D2 JUMP JUMPDEST PUSH20 0xFFFFFFFFFFFFFFFFFFFFFFFFFFFFFFFFFFFFFFFF AND EQ PUSH2 0xE45 JUMPI PUSH1 0x40 MLOAD PUSH32 0x8C379A000000000000000000000000000000000000000000000000000000000 DUP2 MSTORE PUSH1 0x4 ADD PUSH2 0xE3C SWAP1 PUSH2 0x22B2 JUMP JUMPDEST PUSH1 0x40 MLOAD DUP1 SWAP2 SUB SWAP1 REVERT JUMPDEST PUSH1 0x0 DUP2 GT PUSH2 0xE88 JUMPI PUSH1 0x40 MLOAD PUSH32 0x8C379A000000000000000000000000000000000000000000000000000000000 DUP2 MSTORE PUSH1 0x4 ADD PUSH2 0xE7F SWAP1 PUSH2 0x2332 JUMP JUMPDEST PUSH1 0x40 MLOAD DUP1 SWAP2 SUB SWAP1 REVERT JUMPDEST PUSH2 0xE9E PUSH3 0x15180 DUP3 PUSH2 0x1846 SWAP1 SWAP2 SWAP1 PUSH4 0xFFFFFFFF AND JUMP JUMPDEST PUSH1 0x2 DUP2 SWAP1 SSTORE POP PUSH32 0x189BDA9782663C67A3F95C0AA5455924C711210B00281C60EAD2F0DD8DBC924C DUP2 PUSH1 0x40 MLOAD PUSH2 0xED3 SWAP2 SWAP1 PUSH2 0x2392 JUMP JUMPDEST PUSH1 0x40 MLOAD DUP1 SWAP2 SUB SWAP1 LOG1 POP JUMP JUMPDEST PUSH2 0xEE6 PUSH2 0x196B JUMP JUMPDEST PUSH20 0xFFFFFFFFFFFFFFFFFFFFFFFFFFFFFFFFFFFFFFFF AND PUSH2 0xF04 PUSH2 0x10D2 JUMP JUMPDEST PUSH20 0xFFFFFFFFFFFFFFFFFFFFFFFFFFFFFFFFFFFFFFFF AND EQ PUSH2 0xF5A JUMPI PUSH1 0x40 MLOAD PUSH32 0x8C379A000000000000000000000000000000000000000000000000000000000 DUP2 MSTORE PUSH1 0x4 ADD PUSH2 0xF51 SWAP1 PUSH2 0x22B2 JUMP JUMPDEST PUSH1 0x40 MLOAD DUP1 SWAP2 SUB SWAP1 REVERT JUMPDEST PUSH2 0xF64 PUSH1 0x0 PUSH2 0x1973 JUMP JUMPDEST JUMP JUMPDEST PUSH1 0x8 SLOAD DUP2 JUMP JUMPDEST PUSH2 0xF74 PUSH2 0x196B JUMP JUMPDEST PUSH20 0xFFFFFFFFFFFFFFFFFFFFFFFFFFFFFFFFFFFFFFFF AND PUSH2 0xF92 PUSH2 0x10D2 JUMP JUMPDEST PUSH20 0xFFFFFFFFFFFFFFFFFFFFFFFFFFFFFFFFFFFFFFFF AND EQ PUSH2 0xFE8 JUMPI PUSH1 0x40 MLOAD PUSH32 0x8C379A000000000000000000000000000000000000000000000000000000000 DUP2 MSTORE PUSH1 0x4 ADD PUSH2 0xFDF SWAP1 PUSH2 0x22B2 JUMP JUMPDEST PUSH1 0x40 MLOAD DUP1 SWAP2 SUB SWAP1 REVERT JUMPDEST PUSH1 0x0 PUSH20 0xFFFFFFFFFFFFFFFFFFFFFFFFFFFFFFFFFFFFFFFF AND DUP2 PUSH20 0xFFFFFFFFFFFFFFFFFFFFFFFFFFFFFFFFFFFFFFFF AND GT PUSH2 0x1057 JUMPI PUSH1 0x40 MLOAD PUSH32 0x8C379A000000000000000000000000000000000000000000000000000000000 DUP2 MSTORE PUSH1 0x4 ADD PUSH2 0x104E SWAP1 PUSH2 0x2272 JUMP JUMPDEST PUSH1 0x40 MLOAD DUP1 SWAP2 SUB SWAP1 REVERT JUMPDEST DUP1 PUSH1 0x5 PUSH1 0x0 PUSH2 0x100 EXP DUP2 SLOAD DUP2 PUSH20 0xFFFFFFFFFFFFFFFFFFFFFFFFFFFFFFFFFFFFFFFF MUL NOT AND SWAP1 DUP4 PUSH20 0xFFFFFFFFFFFFFFFFFFFFFFFFFFFFFFFFFFFFFFFF AND MUL OR SWAP1 SSTORE POP PUSH32 0xEDA87051E2996C46EE8D576509FFC1826E6DF46EEF99072F838FECBB88992A87 DUP2 PUSH1 0x40 MLOAD PUSH2 0x10C7 SWAP2 SWAP1 PUSH2 0x20DA JUMP JUMPDEST PUSH1 0x40 MLOAD DUP1 SWAP2 SUB SWAP1 LOG1 POP JUMP JUMPDEST PUSH1 0x0 DUP1 PUSH1 0x0 SWAP1 SLOAD SWAP1 PUSH2 0x100 EXP SWAP1 DIV PUSH20 0xFFFFFFFFFFFFFFFFFFFFFFFFFFFFFFFFFFFFFFFF AND SWAP1 POP SWAP1 JUMP JUMPDEST PUSH2 0x1103 PUSH2 0x196B JUMP JUMPDEST PUSH20 0xFFFFFFFFFFFFFFFFFFFFFFFFFFFFFFFFFFFFFFFF AND PUSH2 0x1121 PUSH2 0x10D2 JUMP JUMPDEST PUSH20 0xFFFFFFFFFFFFFFFFFFFFFFFFFFFFFFFFFFFFFFFF AND EQ PUSH2 0x1177 JUMPI PUSH1 0x40 MLOAD PUSH32 0x8C379A000000000000000000000000000000000000000000000000000000000 DUP2 MSTORE PUSH1 0x4 ADD PUSH2 0x116E SWAP1 PUSH2 0x22B2 JUMP JUMPDEST PUSH1 0x40 MLOAD DUP1 SWAP2 SUB SWAP1 REVERT JUMPDEST PUSH1 0x0 DUP2 GT PUSH2 0x11BA JUMPI PUSH1 0x40 MLOAD PUSH32 0x8C379A000000000000000000000000000000000000000000000000000000000 DUP2 MSTORE PUSH1 0x4 ADD PUSH2 0x11B1 SWAP1 PUSH2 0x2312 JUMP JUMPDEST PUSH1 0x40 MLOAD DUP1 SWAP2 SUB SWAP1 REVERT JUMPDEST DUP1 PUSH1 0x1 DUP2 SWAP1 SSTORE POP PUSH32 0x150C688DD7595BF7862B8AB1FE46756450EB7D731037942B3BBC46F3F0E21B81 DUP2 PUSH1 0x40 MLOAD PUSH2 0x11F0 SWAP2 SWAP1 PUSH2 0x2392 JUMP JUMPDEST PUSH1 0x40 MLOAD DUP1 SWAP2 SUB SWAP1 LOG1 POP JUMP JUMPDEST PUSH2 0x1203 PUSH2 0x196B JUMP JUMPDEST PUSH20 0xFFFFFFFFFFFFFFFFFFFFFFFFFFFFFFFFFFFFFFFF AND PUSH2 0x1221 PUSH2 0x10D2 JUMP JUMPDEST PUSH20 0xFFFFFFFFFFFFFFFFFFFFFFFFFFFFFFFFFFFFFFFF AND EQ PUSH2 0x1277 JUMPI PUSH1 0x40 MLOAD PUSH32 0x8C379A000000000000000000000000000000000000000000000000000000000 DUP2 MSTORE PUSH1 0x4 ADD PUSH2 0x126E SWAP1 PUSH2 0x22B2 JUMP JUMPDEST PUSH1 0x40 MLOAD DUP1 SWAP2 SUB SWAP1 REVERT JUMPDEST PUSH1 0x0 DUP2 GT PUSH2 0x12BA JUMPI PUSH1 0x40 MLOAD PUSH32 0x8C379A000000000000000000000000000000000000000000000000000000000 DUP2 MSTORE PUSH1 0x4 ADD PUSH2 0x12B1 SWAP1 PUSH2 0x22D2 JUMP JUMPDEST PUSH1 0x40 MLOAD DUP1 SWAP2 SUB SWAP1 REVERT JUMPDEST DUP1 PUSH1 0x3 DUP2 SWAP1 SSTORE POP PUSH32 0x1946FB78C7CA778B54D82CABAAC5BA67CF446F58D0FF1F8CEAEBB6150E54E44F DUP2 PUSH1 0x40 MLOAD PUSH2 0x12F0 SWAP2 SWAP1 PUSH2 0x2392 JUMP JUMPDEST PUSH1 0x40 MLOAD DUP1 SWAP2 SUB SWAP1 LOG1 POP JUMP JUMPDEST PUSH1 0x0 DUP2 GT PUSH2 0x133E JUMPI PUSH1 0x40 MLOAD PUSH32 0x8C379A000000000000000000000000000000000000000000000000000000000 DUP2 MSTORE PUSH1 0x4 ADD PUSH2 0x1335 SWAP1 PUSH2 0x2292 JUMP JUMPDEST PUSH1 0x40 MLOAD DUP1 SWAP2 SUB SWAP1 REVERT JUMPDEST DUP1 PUSH1 0x9 PUSH1 0x0 SWAP1 SLOAD SWAP1 PUSH2 0x100 EXP SWAP1 DIV PUSH20 0xFFFFFFFFFFFFFFFFFFFFFFFFFFFFFFFFFFFFFFFF AND PUSH20 0xFFFFFFFFFFFFFFFFFFFFFFFFFFFFFFFFFFFFFFFF AND PUSH4 0x70A08231 CALLER PUSH1 0x40 MLOAD DUP3 PUSH4 0xFFFFFFFF AND PUSH1 0xE0 SHL DUP2 MSTORE PUSH1 0x4 ADD PUSH2 0x139A SWAP2 SWAP1 PUSH2 0x20DA JUMP JUMPDEST PUSH1 0x20 PUSH1 0x40 MLOAD DUP1 DUP4 SUB DUP2 DUP7 DUP1 EXTCODESIZE ISZERO DUP1 ISZERO PUSH2 0x13B2 JUMPI PUSH1 0x0 DUP1 REVERT JUMPDEST POP GAS STATICCALL ISZERO DUP1 ISZERO PUSH2 0x13C6 JUMPI RETURNDATASIZE PUSH1 0x0 DUP1 RETURNDATACOPY RETURNDATASIZE PUSH1 0x0 REVERT JUMPDEST POP POP POP POP PUSH1 0x40 MLOAD RETURNDATASIZE PUSH1 0x1F NOT PUSH1 0x1F DUP3 ADD AND DUP3 ADD DUP1 PUSH1 0x40 MSTORE POP DUP2 ADD SWAP1 PUSH2 0x13EA SWAP2 SWAP1 PUSH2 0x1D8F JUMP JUMPDEST GT PUSH2 0x142A JUMPI PUSH1 0x40 MLOAD PUSH32 0x8C379A000000000000000000000000000000000000000000000000000000000 DUP2 MSTORE PUSH1 0x4 ADD PUSH2 0x1421 SWAP1 PUSH2 0x2372 JUMP JUMPDEST PUSH1 0x40 MLOAD DUP1 SWAP2 SUB SWAP1 REVERT JUMPDEST PUSH1 0x55 PUSH1 0x7 PUSH1 0x0 CALLER PUSH20 0xFFFFFFFFFFFFFFFFFFFFFFFFFFFFFFFFFFFFFFFF AND PUSH20 0xFFFFFFFFFFFFFFFFFFFFFFFFFFFFFFFFFFFFFFFF AND DUP2 MSTORE PUSH1 0x20 ADD SWAP1 DUP2 MSTORE PUSH1 0x20 ADD PUSH1 0x0 KECCAK256 PUSH1 0x5 ADD SLOAD EQ PUSH2 0x14AF JUMPI PUSH1 0x40 MLOAD PUSH32 0x8C379A000000000000000000000000000000000000000000000000000000000 DUP2 MSTORE PUSH1 0x4 ADD PUSH2 0x14A6 SWAP1 PUSH2 0x21B2 JUMP JUMPDEST PUSH1 0x40 MLOAD DUP1 SWAP2 SUB SWAP1 REVERT JUMPDEST PUSH2 0x14B7 PUSH2 0x1728 JUMP JUMPDEST PUSH1 0x0 PUSH1 0x7 PUSH1 0x0 CALLER PUSH20 0xFFFFFFFFFFFFFFFFFFFFFFFFFFFFFFFFFFFFFFFF AND PUSH20 0xFFFFFFFFFFFFFFFFFFFFFFFFFFFFFFFFFFFFFFFF AND DUP2 MSTORE PUSH1 0x20 ADD SWAP1 DUP2 MSTORE PUSH1 0x20 ADD PUSH1 0x0 KECCAK256 SWAP1 POP PUSH2 0x1549 CALLER ADDRESS DUP5 PUSH1 0x9 PUSH1 0x0 SWAP1 SLOAD SWAP1 PUSH2 0x100 EXP SWAP1 DIV PUSH20 0xFFFFFFFFFFFFFFFFFFFFFFFFFFFFFFFFFFFFFFFF AND PUSH20 0xFFFFFFFFFFFFFFFFFFFFFFFFFFFFFFFFFFFFFFFF AND PUSH2 0x18E2 SWAP1 SWAP4 SWAP3 SWAP2 SWAP1 PUSH4 0xFFFFFFFF AND JUMP JUMPDEST PUSH2 0x1560 DUP3 DUP3 PUSH1 0x1 ADD SLOAD PUSH2 0x1830 SWAP1 SWAP2 SWAP1 PUSH4 0xFFFFFFFF AND JUMP JUMPDEST DUP2 PUSH1 0x1 ADD DUP2 SWAP1 SSTORE POP PUSH2 0x157D DUP3 PUSH1 0x8 SLOAD PUSH2 0x1830 SWAP1 SWAP2 SWAP1 PUSH4 0xFFFFFFFF AND JUMP JUMPDEST PUSH1 0x8 DUP2 SWAP1 SSTORE POP PUSH32 0x9E71BC8EEA02A63969F509818F2DAFB9254532904319F9DBDA79B67BD34A5F3D CALLER DUP4 PUSH1 0x40 MLOAD PUSH2 0x15B4 SWAP3 SWAP2 SWAP1 PUSH2 0x212C JUMP JUMPDEST PUSH1 0x40 MLOAD DUP1 SWAP2 SUB SWAP1 LOG1 POP POP JUMP JUMPDEST PUSH2 0x15C8 PUSH2 0x196B JUMP JUMPDEST PUSH20 0xFFFFFFFFFFFFFFFFFFFFFFFFFFFFFFFFFFFFFFFF AND PUSH2 0x15E6 PUSH2 0x10D2 JUMP JUMPDEST PUSH20 0xFFFFFFFFFFFFFFFFFFFFFFFFFFFFFFFFFFFFFFFF AND EQ PUSH2 0x163C JUMPI PUSH1 0x40 MLOAD PUSH32 0x8C379A000000000000000000000000000000000000000000000000000000000 DUP2 MSTORE PUSH1 0x4 ADD PUSH2 0x1633 SWAP1 PUSH2 0x22B2 JUMP JUMPDEST PUSH1 0x40 MLOAD DUP1 SWAP2 SUB SWAP1 REVERT JUMPDEST PUSH1 0x0 PUSH20 0xFFFFFFFFFFFFFFFFFFFFFFFFFFFFFFFFFFFFFFFF AND DUP2 PUSH20 0xFFFFFFFFFFFFFFFFFFFFFFFFFFFFFFFFFFFFFFFF AND EQ ISZERO PUSH2 0x16AC JUMPI PUSH1 0x40 MLOAD PUSH32 0x8C379A000000000000000000000000000000000000000000000000000000000 DUP2 MSTORE PUSH1 0x4 ADD PUSH2 0x16A3 SWAP1 PUSH2 0x21F2 JUMP JUMPDEST PUSH1 0x40 MLOAD DUP1 SWAP2 SUB SWAP1 REVERT JUMPDEST PUSH2 0x16B5 DUP2 PUSH2 0x1973 JUMP JUMPDEST POP JUMP JUMPDEST PUSH1 0x0 PUSH1 0x7 PUSH1 0x0 CALLER PUSH20 0xFFFFFFFFFFFFFFFFFFFFFFFFFFFFFFFFFFFFFFFF AND PUSH20 0xFFFFFFFFFFFFFFFFFFFFFFFFFFFFFFFFFFFFFFFF AND DUP2 MSTORE PUSH1 0x20 ADD SWAP1 DUP2 MSTORE PUSH1 0x20 ADD PUSH1 0x0 KECCAK256 PUSH1 0x0 ADD SLOAD SWAP1 POP SWAP1 JUMP JUMPDEST PUSH1 0x9 PUSH1 0x0 SWAP1 SLOAD SWAP1 PUSH2 0x100 EXP SWAP1 DIV PUSH20 0xFFFFFFFFFFFFFFFFFFFFFFFFFFFFFFFFFFFFFFFF AND DUP2 JUMP JUMPDEST PUSH1 0x0 PUSH1 0x7 PUSH1 0x0 CALLER PUSH20 0xFFFFFFFFFFFFFFFFFFFFFFFFFFFFFFFFFFFFFFFF AND PUSH20 0xFFFFFFFFFFFFFFFFFFFFFFFFFFFFFFFFFFFFFFFF AND DUP2 MSTORE PUSH1 0x20 ADD SWAP1 DUP2 MSTORE PUSH1 0x20 ADD PUSH1 0x0 KECCAK256 SWAP1 POP PUSH1 0x0 PUSH2 0x17D6 PUSH2 0x2710 PUSH2 0x17C8 PUSH1 0x3 SLOAD PUSH2 0x17BA PUSH2 0x17A7 PUSH2 0x21C0 PUSH2 0x1799 DUP10 PUSH1 0x4 ADD SLOAD NUMBER PUSH2 0x1804 SWAP1 SWAP2 SWAP1 PUSH4 0xFFFFFFFF AND JUMP JUMPDEST PUSH2 0x181A SWAP1 SWAP2 SWAP1 PUSH4 0xFFFFFFFF AND JUMP JUMPDEST DUP8 PUSH1 0x1 ADD SLOAD PUSH2 0x1846 SWAP1 SWAP2 SWAP1 PUSH4 0xFFFFFFFF AND JUMP JUMPDEST PUSH2 0x1846 SWAP1 SWAP2 SWAP1 PUSH4 0xFFFFFFFF AND JUMP JUMPDEST PUSH2 0x181A SWAP1 SWAP2 SWAP1 PUSH4 0xFFFFFFFF AND JUMP JUMPDEST SWAP1 POP PUSH2 0x17EF DUP2 DUP4 PUSH1 0x0 ADD SLOAD PUSH2 0x1830 SWAP1 SWAP2 SWAP1 PUSH4 0xFFFFFFFF AND JUMP JUMPDEST DUP3 PUSH1 0x0 ADD DUP2 SWAP1 SSTORE POP NUMBER DUP3 PUSH1 0x4 ADD DUP2 SWAP1 SSTORE POP POP POP JUMP JUMPDEST PUSH1 0x0 DUP2 DUP4 PUSH2 0x1812 SWAP2 SWAP1 PUSH2 0x24C0 JUMP JUMPDEST SWAP1 POP SWAP3 SWAP2 POP POP JUMP JUMPDEST PUSH1 0x0 DUP2 DUP4 PUSH2 0x1828 SWAP2 SWAP1 PUSH2 0x2435 JUMP JUMPDEST SWAP1 POP SWAP3 SWAP2 POP POP JUMP JUMPDEST PUSH1 0x0 DUP2 DUP4 PUSH2 0x183E SWAP2 SWAP1 PUSH2 0x23DF JUMP JUMPDEST SWAP1 POP SWAP3 SWAP2 POP POP JUMP JUMPDEST PUSH1 0x0 DUP2 DUP4 PUSH2 0x1854 SWAP2 SWAP1 PUSH2 0x2466 JUMP JUMPDEST SWAP1 POP SWAP3 SWAP2 POP POP JUMP JUMPDEST PUSH2 0x18DD DUP4 PUSH4 0xA9059CBB PUSH1 0xE0 SHL DUP5 DUP5 PUSH1 0x40 MLOAD PUSH1 0x24 ADD PUSH2 0x187B SWAP3 SWAP2 SWAP1 PUSH2 0x212C JUMP JUMPDEST PUSH1 0x40 MLOAD PUSH1 0x20 DUP2 DUP4 SUB SUB DUP2 MSTORE SWAP1 PUSH1 0x40 MSTORE SWAP1 PUSH28 0xFFFFFFFFFFFFFFFFFFFFFFFFFFFFFFFFFFFFFFFFFFFFFFFFFFFFFFFF NOT AND PUSH1 0x20 DUP3 ADD DUP1 MLOAD PUSH28 0xFFFFFFFFFFFFFFFFFFFFFFFFFFFFFFFFFFFFFFFFFFFFFFFFFFFFFFFF DUP4 DUP2 DUP4 AND OR DUP4 MSTORE POP POP POP POP PUSH2 0x1A37 JUMP JUMPDEST POP POP POP JUMP JUMPDEST PUSH2 0x1965 DUP5 PUSH4 0x23B872DD PUSH1 0xE0 SHL DUP6 DUP6 DUP6 PUSH1 0x40 MLOAD PUSH1 0x24 ADD PUSH2 0x1903 SWAP4 SWAP3 SWAP2 SWAP1 PUSH2 0x20F5 JUMP JUMPDEST PUSH1 0x40 MLOAD PUSH1 0x20 DUP2 DUP4 SUB SUB DUP2 MSTORE SWAP1 PUSH1 0x40 MSTORE SWAP1 PUSH28 0xFFFFFFFFFFFFFFFFFFFFFFFFFFFFFFFFFFFFFFFFFFFFFFFFFFFFFFFF NOT AND PUSH1 0x20 DUP3 ADD DUP1 MLOAD PUSH28 0xFFFFFFFFFFFFFFFFFFFFFFFFFFFFFFFFFFFFFFFFFFFFFFFFFFFFFFFF DUP4 DUP2 DUP4 AND OR DUP4 MSTORE POP POP POP POP PUSH2 0x1A37 JUMP JUMPDEST POP POP POP POP JUMP JUMPDEST PUSH1 0x0 CALLER SWAP1 POP SWAP1 JUMP JUMPDEST PUSH1 0x0 DUP1 PUSH1 0x0 SWAP1 SLOAD SWAP1 PUSH2 0x100 EXP SWAP1 DIV PUSH20 0xFFFFFFFFFFFFFFFFFFFFFFFFFFFFFFFFFFFFFFFF AND SWAP1 POP DUP2 PUSH1 0x0 DUP1 PUSH2 0x100 EXP DUP2 SLOAD DUP2 PUSH20 0xFFFFFFFFFFFFFFFFFFFFFFFFFFFFFFFFFFFFFFFF MUL NOT AND SWAP1 DUP4 PUSH20 0xFFFFFFFFFFFFFFFFFFFFFFFFFFFFFFFFFFFFFFFF AND MUL OR SWAP1 SSTORE POP DUP2 PUSH20 0xFFFFFFFFFFFFFFFFFFFFFFFFFFFFFFFFFFFFFFFF AND DUP2 PUSH20 0xFFFFFFFFFFFFFFFFFFFFFFFFFFFFFFFFFFFFFFFF AND PUSH32 0x8BE0079C531659141344CD1FD0A4F28419497F9722A3DAAFE3B4186F6B6457E0 PUSH1 0x40 MLOAD PUSH1 0x40 MLOAD DUP1 SWAP2 SUB SWAP1 LOG3 POP POP JUMP JUMPDEST PUSH1 0x0 PUSH2 0x1A99 DUP3 PUSH1 0x40 MLOAD DUP1 PUSH1 0x40 ADD PUSH1 0x40 MSTORE DUP1 PUSH1 0x20 DUP2 MSTORE PUSH1 0x20 ADD PUSH32 0x5361666542455032303A206C6F772D6C6576656C2063616C6C206661696C6564 DUP2 MSTORE POP DUP6 PUSH20 0xFFFFFFFFFFFFFFFFFFFFFFFFFFFFFFFFFFFFFFFF AND PUSH2 0x1AFE SWAP1 SWAP3 SWAP2 SWAP1 PUSH4 0xFFFFFFFF AND JUMP JUMPDEST SWAP1 POP PUSH1 0x0 DUP2 MLOAD GT ISZERO PUSH2 0x1AF9 JUMPI DUP1 DUP1 PUSH1 0x20 ADD SWAP1 MLOAD DUP2 ADD SWAP1 PUSH2 0x1AB9 SWAP2 SWAP1 PUSH2 0x1D35 JUMP JUMPDEST PUSH2 0x1AF8 JUMPI PUSH1 0x40 MLOAD PUSH32 0x8C379A000000000000000000000000000000000000000000000000000000000 DUP2 MSTORE PUSH1 0x4 ADD PUSH2 0x1AEF SWAP1 PUSH2 0x21D2 JUMP JUMPDEST PUSH1 0x40 MLOAD DUP1 SWAP2 SUB SWAP1 REVERT JUMPDEST JUMPDEST POP POP POP JUMP JUMPDEST PUSH1 0x60 PUSH2 0x1B0D DUP5 DUP5 PUSH1 0x0 DUP6 PUSH2 0x1B16 JUMP JUMPDEST SWAP1 POP SWAP4 SWAP3 POP POP POP JUMP JUMPDEST PUSH1 0x60 DUP3 SELFBALANCE LT ISZERO PUSH2 0x1B5B JUMPI PUSH1 0x40 MLOAD PUSH32 0x8C379A000000000000000000000000000000000000000000000000000000000 DUP2 MSTORE PUSH1 0x4 ADD PUSH2 0x1B52 SWAP1 PUSH2 0x2252 JUMP JUMPDEST PUSH1 0x40 MLOAD DUP1 SWAP2 SUB SWAP1 REVERT JUMPDEST PUSH2 0x1B64 DUP6 PUSH2 0x1C2A JUMP JUMPDEST PUSH2 0x1BA3 JUMPI PUSH1 0x40 MLOAD PUSH32 0x8C379A000000000000000000000000000000000000000000000000000000000 DUP2 MSTORE PUSH1 0x4 ADD PUSH2 0x1B9A SWAP1 PUSH2 0x22F2 JUMP JUMPDEST PUSH1 0x40 MLOAD DUP1 SWAP2 SUB SWAP1 REVERT JUMPDEST PUSH1 0x0 DUP1 DUP7 PUSH20 0xFFFFFFFFFFFFFFFFFFFFFFFFFFFFFFFFFFFFFFFF AND DUP6 DUP8 PUSH1 0x40 MLOAD PUSH2 0x1BCC SWAP2 SWAP1 PUSH2 0x20C3 JUMP JUMPDEST PUSH1 0x0 PUSH1 0x40 MLOAD DUP1 DUP4 SUB DUP2 DUP6 DUP8 GAS CALL SWAP3 POP POP POP RETURNDATASIZE DUP1 PUSH1 0x0 DUP2 EQ PUSH2 0x1C09 JUMPI PUSH1 0x40 MLOAD SWAP2 POP PUSH1 0x1F NOT PUSH1 0x3F RETURNDATASIZE ADD AND DUP3 ADD PUSH1 0x40 MSTORE RETURNDATASIZE DUP3 MSTORE RETURNDATASIZE PUSH1 0x0 PUSH1 0x20 DUP5 ADD RETURNDATACOPY PUSH2 0x1C0E JUMP JUMPDEST PUSH1 0x60 SWAP2 POP JUMPDEST POP SWAP2 POP SWAP2 POP PUSH2 0x1C1E DUP3 DUP3 DUP7 PUSH2 0x1C4D JUMP JUMPDEST SWAP3 POP POP POP SWAP5 SWAP4 POP POP POP POP JUMP JUMPDEST PUSH1 0x0 DUP1 DUP3 PUSH20 0xFFFFFFFFFFFFFFFFFFFFFFFFFFFFFFFFFFFFFFFF AND EXTCODESIZE GT SWAP1 POP SWAP2 SWAP1 POP JUMP JUMPDEST PUSH1 0x60 DUP4 ISZERO PUSH2 0x1C5D JUMPI DUP3 SWAP1 POP PUSH2 0x1CAD JUMP JUMPDEST PUSH1 0x0 DUP4 MLOAD GT ISZERO PUSH2 0x1C70 JUMPI DUP3 MLOAD DUP1 DUP5 PUSH1 0x20 ADD REVERT JUMPDEST DUP2 PUSH1 0x40 MLOAD PUSH32 0x8C379A000000000000000000000000000000000000000000000000000000000 DUP2 MSTORE PUSH1 0x4 ADD PUSH2 0x1CA4 SWAP2 SWAP1 PUSH2 0x2170 JUMP JUMPDEST PUSH1 0x40 MLOAD DUP1 SWAP2 SUB SWAP1 REVERT JUMPDEST SWAP4 SWAP3 POP POP POP JUMP JUMPDEST PUSH1 0x0 DUP2 CALLDATALOAD SWAP1 POP PUSH2 0x1CC3 DUP2 PUSH2 0x2972 JUMP JUMPDEST SWAP3 SWAP2 POP POP JUMP JUMPDEST PUSH1 0x0 DUP2 MLOAD SWAP1 POP PUSH2 0x1CD8 DUP2 PUSH2 0x2989 JUMP JUMPDEST SWAP3 SWAP2 POP POP JUMP JUMPDEST PUSH1 0x0 DUP2 CALLDATALOAD SWAP1 POP PUSH2 0x1CED DUP2 PUSH2 0x29A0 JUMP JUMPDEST SWAP3 SWAP2 POP POP JUMP JUMPDEST PUSH1 0x0 DUP2 MLOAD SWAP1 POP PUSH2 0x1D02 DUP2 PUSH2 0x29A0 JUMP JUMPDEST SWAP3 SWAP2 POP POP JUMP JUMPDEST PUSH1 0x0 PUSH1 0x20 DUP3 DUP5 SUB SLT ISZERO PUSH2 0x1D1E JUMPI PUSH2 0x1D1D PUSH2 0x2634 JUMP JUMPDEST JUMPDEST PUSH1 0x0 PUSH2 0x1D2C DUP5 DUP3 DUP6 ADD PUSH2 0x1CB4 JUMP JUMPDEST SWAP2 POP POP SWAP3 SWAP2 POP POP JUMP JUMPDEST PUSH1 0x0 PUSH1 0x20 DUP3 DUP5 SUB SLT ISZERO PUSH2 0x1D4B JUMPI PUSH2 0x1D4A PUSH2 0x2634 JUMP JUMPDEST JUMPDEST PUSH1 0x0 PUSH2 0x1D59 DUP5 DUP3 DUP6 ADD PUSH2 0x1CC9 JUMP JUMPDEST SWAP2 POP POP SWAP3 SWAP2 POP POP JUMP JUMPDEST PUSH1 0x0 PUSH1 0x20 DUP3 DUP5 SUB SLT ISZERO PUSH2 0x1D78 JUMPI PUSH2 0x1D77 PUSH2 0x2634 JUMP JUMPDEST JUMPDEST PUSH1 0x0 PUSH2 0x1D86 DUP5 DUP3 DUP6 ADD PUSH2 0x1CDE JUMP JUMPDEST SWAP2 POP POP SWAP3 SWAP2 POP POP JUMP JUMPDEST PUSH1 0x0 PUSH1 0x20 DUP3 DUP5 SUB SLT ISZERO PUSH2 0x1DA5 JUMPI PUSH2 0x1DA4 PUSH2 0x2634 JUMP JUMPDEST JUMPDEST PUSH1 0x0 PUSH2 0x1DB3 DUP5 DUP3 DUP6 ADD PUSH2 0x1CF3 JUMP JUMPDEST SWAP2 POP POP SWAP3 SWAP2 POP POP JUMP JUMPDEST PUSH1 0x0 DUP1 PUSH1 0x40 DUP4 DUP6 SUB SLT ISZERO PUSH2 0x1DD3 JUMPI PUSH2 0x1DD2 PUSH2 0x2634 JUMP JUMPDEST JUMPDEST PUSH1 0x0 PUSH2 0x1DE1 DUP6 DUP3 DUP7 ADD PUSH2 0x1CDE JUMP JUMPDEST SWAP3 POP POP PUSH1 0x20 PUSH2 0x1DF2 DUP6 DUP3 DUP7 ADD PUSH2 0x1CDE JUMP JUMPDEST SWAP2 POP POP SWAP3 POP SWAP3 SWAP1 POP JUMP JUMPDEST PUSH2 0x1E05 DUP2 PUSH2 0x24F4 JUMP JUMPDEST DUP3 MSTORE POP POP JUMP JUMPDEST PUSH1 0x0 PUSH2 0x1E16 DUP3 PUSH2 0x23AD JUMP JUMPDEST PUSH2 0x1E20 DUP2 DUP6 PUSH2 0x23C3 JUMP JUMPDEST SWAP4 POP PUSH2 0x1E30 DUP2 DUP6 PUSH1 0x20 DUP7 ADD PUSH2 0x2572 JUMP JUMPDEST DUP1 DUP5 ADD SWAP2 POP POP SWAP3 SWAP2 POP POP JUMP JUMPDEST PUSH2 0x1E45 DUP2 PUSH2 0x253C JUMP JUMPDEST DUP3 MSTORE POP POP JUMP JUMPDEST PUSH1 0x0 PUSH2 0x1E56 DUP3 PUSH2 0x23B8 JUMP JUMPDEST PUSH2 0x1E60 DUP2 DUP6 PUSH2 0x23CE JUMP JUMPDEST SWAP4 POP PUSH2 0x1E70 DUP2 DUP6 PUSH1 0x20 DUP7 ADD PUSH2 0x2572 JUMP JUMPDEST PUSH2 0x1E79 DUP2 PUSH2 0x2639 JUMP JUMPDEST DUP5 ADD SWAP2 POP POP SWAP3 SWAP2 POP POP JUMP JUMPDEST PUSH1 0x0 PUSH2 0x1E91 PUSH1 0x10 DUP4 PUSH2 0x23CE JUMP JUMPDEST SWAP2 POP PUSH2 0x1E9C DUP3 PUSH2 0x264A JUMP JUMPDEST PUSH1 0x20 DUP3 ADD SWAP1 POP SWAP2 SWAP1 POP JUMP JUMPDEST PUSH1 0x0 PUSH2 0x1EB4 PUSH1 0x15 DUP4 PUSH2 0x23CE JUMP JUMPDEST SWAP2 POP PUSH2 0x1EBF DUP3 PUSH2 0x2673 JUMP JUMPDEST PUSH1 0x20 DUP3 ADD SWAP1 POP SWAP2 SWAP1 POP JUMP JUMPDEST PUSH1 0x0 PUSH2 0x1ED7 PUSH1 0x2A DUP4 PUSH2 0x23CE JUMP JUMPDEST SWAP2 POP PUSH2 0x1EE2 DUP3 PUSH2 0x269C JUMP JUMPDEST PUSH1 0x40 DUP3 ADD SWAP1 POP SWAP2 SWAP1 POP JUMP JUMPDEST PUSH1 0x0 PUSH2 0x1EFA PUSH1 0x26 DUP4 PUSH2 0x23CE JUMP JUMPDEST SWAP2 POP PUSH2 0x1F05 DUP3 PUSH2 0x26EB JUMP JUMPDEST PUSH1 0x40 DUP3 ADD SWAP1 POP SWAP2 SWAP1 POP JUMP JUMPDEST PUSH1 0x0 PUSH2 0x1F1D PUSH1 0xE DUP4 PUSH2 0x23CE JUMP JUMPDEST SWAP2 POP PUSH2 0x1F28 DUP3 PUSH2 0x273A JUMP JUMPDEST PUSH1 0x20 DUP3 ADD SWAP1 POP SWAP2 SWAP1 POP JUMP JUMPDEST PUSH1 0x0 PUSH2 0x1F40 PUSH1 0xF DUP4 PUSH2 0x23CE JUMP JUMPDEST SWAP2 POP PUSH2 0x1F4B DUP3 PUSH2 0x2763 JUMP JUMPDEST PUSH1 0x20 DUP3 ADD SWAP1 POP SWAP2 SWAP1 POP JUMP JUMPDEST PUSH1 0x0 PUSH2 0x1F63 PUSH1 0x26 DUP4 PUSH2 0x23CE JUMP JUMPDEST SWAP2 POP PUSH2 0x1F6E DUP3 PUSH2 0x278C JUMP JUMPDEST PUSH1 0x40 DUP3 ADD SWAP1 POP SWAP2 SWAP1 POP JUMP JUMPDEST PUSH1 0x0 PUSH2 0x1F86 PUSH1 0x26 DUP4 PUSH2 0x23CE JUMP JUMPDEST SWAP2 POP PUSH2 0x1F91 DUP3 PUSH2 0x27DB JUMP JUMPDEST PUSH1 0x40 DUP3 ADD SWAP1 POP SWAP2 SWAP1 POP JUMP JUMPDEST PUSH1 0x0 PUSH2 0x1FA9 PUSH1 0x1F DUP4 PUSH2 0x23CE JUMP JUMPDEST SWAP2 POP PUSH2 0x1FB4 DUP3 PUSH2 0x282A JUMP JUMPDEST PUSH1 0x20 DUP3 ADD SWAP1 POP SWAP2 SWAP1 POP JUMP JUMPDEST PUSH1 0x0 PUSH2 0x1FCC PUSH1 0x20 DUP4 PUSH2 0x23CE JUMP JUMPDEST SWAP2 POP PUSH2 0x1FD7 DUP3 PUSH2 0x2853 JUMP JUMPDEST PUSH1 0x20 DUP3 ADD SWAP1 POP SWAP2 SWAP1 POP JUMP JUMPDEST PUSH1 0x0 PUSH2 0x1FEF PUSH1 0xD DUP4 PUSH2 0x23CE JUMP JUMPDEST SWAP2 POP PUSH2 0x1FFA DUP3 PUSH2 0x287C JUMP JUMPDEST PUSH1 0x20 DUP3 ADD SWAP1 POP SWAP2 SWAP1 POP JUMP JUMPDEST PUSH1 0x0 PUSH2 0x2012 PUSH1 0x1D DUP4 PUSH2 0x23CE JUMP JUMPDEST SWAP2 POP PUSH2 0x201D DUP3 PUSH2 0x28A5 JUMP JUMPDEST PUSH1 0x20 DUP3 ADD SWAP1 POP SWAP2 SWAP1 POP JUMP JUMPDEST PUSH1 0x0 PUSH2 0x2035 PUSH1 0x1A DUP4 PUSH2 0x23CE JUMP JUMPDEST SWAP2 POP PUSH2 0x2040 DUP3 PUSH2 0x28CE JUMP JUMPDEST PUSH1 0x20 DUP3 ADD SWAP1 POP SWAP2 SWAP1 POP JUMP JUMPDEST PUSH1 0x0 PUSH2 0x2058 PUSH1 0x17 DUP4 PUSH2 0x23CE JUMP JUMPDEST SWAP2 POP PUSH2 0x2063 DUP3 PUSH2 0x28F7 JUMP JUMPDEST PUSH1 0x20 DUP3 ADD SWAP1 POP SWAP2 SWAP1 POP JUMP JUMPDEST PUSH1 0x0 PUSH2 0x207B PUSH1 0xD DUP4 PUSH2 0x23CE JUMP JUMPDEST SWAP2 POP PUSH2 0x2086 DUP3 PUSH2 0x2920 JUMP JUMPDEST PUSH1 0x20 DUP3 ADD SWAP1 POP SWAP2 SWAP1 POP JUMP JUMPDEST PUSH1 0x0 PUSH2 0x209E PUSH1 0xD DUP4 PUSH2 0x23CE JUMP JUMPDEST SWAP2 POP PUSH2 0x20A9 DUP3 PUSH2 0x2949 JUMP JUMPDEST PUSH1 0x20 DUP3 ADD SWAP1 POP SWAP2 SWAP1 POP JUMP JUMPDEST PUSH2 0x20BD DUP2 PUSH2 0x2532 JUMP JUMPDEST DUP3 MSTORE POP POP JUMP JUMPDEST PUSH1 0x0 PUSH2 0x20CF DUP3 DUP5 PUSH2 0x1E0B JUMP JUMPDEST SWAP2 POP DUP2 SWAP1 POP SWAP3 SWAP2 POP POP JUMP JUMPDEST PUSH1 0x0 PUSH1 0x20 DUP3 ADD SWAP1 POP PUSH2 0x20EF PUSH1 0x0 DUP4 ADD DUP5 PUSH2 0x1DFC JUMP JUMPDEST SWAP3 SWAP2 POP POP JUMP JUMPDEST PUSH1 0x0 PUSH1 0x60 DUP3 ADD SWAP1 POP PUSH2 0x210A PUSH1 0x0 DUP4 ADD DUP7 PUSH2 0x1DFC JUMP JUMPDEST PUSH2 0x2117 PUSH1 0x20 DUP4 ADD DUP6 PUSH2 0x1DFC JUMP JUMPDEST PUSH2 0x2124 PUSH1 0x40 DUP4 ADD DUP5 PUSH2 0x20B4 JUMP JUMPDEST SWAP5 SWAP4 POP POP POP POP JUMP JUMPDEST PUSH1 0x0 PUSH1 0x40 DUP3 ADD SWAP1 POP PUSH2 0x2141 PUSH1 0x0 DUP4 ADD DUP6 PUSH2 0x1DFC JUMP JUMPDEST PUSH2 0x214E PUSH1 0x20 DUP4 ADD DUP5 PUSH2 0x20B4 JUMP JUMPDEST SWAP4 SWAP3 POP POP POP JUMP JUMPDEST PUSH1 0x0 PUSH1 0x20 DUP3 ADD SWAP1 POP PUSH2 0x216A PUSH1 0x0 DUP4 ADD DUP5 PUSH2 0x1E3C JUMP JUMPDEST SWAP3 SWAP2 POP POP JUMP JUMPDEST PUSH1 0x0 PUSH1 0x20 DUP3 ADD SWAP1 POP DUP2 DUP2 SUB PUSH1 0x0 DUP4 ADD MSTORE PUSH2 0x218A DUP2 DUP5 PUSH2 0x1E4B JUMP JUMPDEST SWAP1 POP SWAP3 SWAP2 POP POP JUMP JUMPDEST PUSH1 0x0 PUSH1 0x20 DUP3 ADD SWAP1 POP DUP2 DUP2 SUB PUSH1 0x0 DUP4 ADD MSTORE PUSH2 0x21AB DUP2 PUSH2 0x1E84 JUMP JUMPDEST SWAP1 POP SWAP2 SWAP1 POP JUMP JUMPDEST PUSH1 0x0 PUSH1 0x20 DUP3 ADD SWAP1 POP DUP2 DUP2 SUB PUSH1 0x0 DUP4 ADD MSTORE PUSH2 0x21CB DUP2 PUSH2 0x1EA7 JUMP JUMPDEST SWAP1 POP SWAP2 SWAP1 POP JUMP JUMPDEST PUSH1 0x0 PUSH1 0x20 DUP3 ADD SWAP1 POP DUP2 DUP2 SUB PUSH1 0x0 DUP4 ADD MSTORE PUSH2 0x21EB DUP2 PUSH2 0x1ECA JUMP JUMPDEST SWAP1 POP SWAP2 SWAP1 POP JUMP JUMPDEST PUSH1 0x0 PUSH1 0x20 DUP3 ADD SWAP1 POP DUP2 DUP2 SUB PUSH1 0x0 DUP4 ADD MSTORE PUSH2 0x220B DUP2 PUSH2 0x1EED JUMP JUMPDEST SWAP1 POP SWAP2 SWAP1 POP JUMP JUMPDEST PUSH1 0x0 PUSH1 0x20 DUP3 ADD SWAP1 POP DUP2 DUP2 SUB PUSH1 0x0 DUP4 ADD MSTORE PUSH2 0x222B DUP2 PUSH2 0x1F10 JUMP JUMPDEST SWAP1 POP SWAP2 SWAP1 POP JUMP JUMPDEST PUSH1 0x0 PUSH1 0x20 DUP3 ADD SWAP1 POP DUP2 DUP2 SUB PUSH1 0x0 DUP4 ADD MSTORE PUSH2 0x224B DUP2 PUSH2 0x1F33 JUMP JUMPDEST SWAP1 POP SWAP2 SWAP1 POP JUMP JUMPDEST PUSH1 0x0 PUSH1 0x20 DUP3 ADD SWAP1 POP DUP2 DUP2 SUB PUSH1 0x0 DUP4 ADD MSTORE PUSH2 0x226B DUP2 PUSH2 0x1F56 JUMP JUMPDEST SWAP1 POP SWAP2 SWAP1 POP JUMP JUMPDEST PUSH1 0x0 PUSH1 0x20 DUP3 ADD SWAP1 POP DUP2 DUP2 SUB PUSH1 0x0 DUP4 ADD MSTORE PUSH2 0x228B DUP2 PUSH2 0x1F79 JUMP JUMPDEST SWAP1 POP SWAP2 SWAP1 POP JUMP JUMPDEST PUSH1 0x0 PUSH1 0x20 DUP3 ADD SWAP1 POP DUP2 DUP2 SUB PUSH1 0x0 DUP4 ADD MSTORE PUSH2 0x22AB DUP2 PUSH2 0x1F9C JUMP JUMPDEST SWAP1 POP SWAP2 SWAP1 POP JUMP JUMPDEST PUSH1 0x0 PUSH1 0x20 DUP3 ADD SWAP1 POP DUP2 DUP2 SUB PUSH1 0x0 DUP4 ADD MSTORE PUSH2 0x22CB DUP2 PUSH2 0x1FBF JUMP JUMPDEST SWAP1 POP SWAP2 SWAP1 POP JUMP JUMPDEST PUSH1 0x0 PUSH1 0x20 DUP3 ADD SWAP1 POP DUP2 DUP2 SUB PUSH1 0x0 DUP4 ADD MSTORE PUSH2 0x22EB DUP2 PUSH2 0x1FE2 JUMP JUMPDEST SWAP1 POP SWAP2 SWAP1 POP JUMP JUMPDEST PUSH1 0x0 PUSH1 0x20 DUP3 ADD SWAP1 POP DUP2 DUP2 SUB PUSH1 0x0 DUP4 ADD MSTORE PUSH2 0x230B DUP2 PUSH2 0x2005 JUMP JUMPDEST SWAP1 POP SWAP2 SWAP1 POP JUMP JUMPDEST PUSH1 0x0 PUSH1 0x20 DUP3 ADD SWAP1 POP DUP2 DUP2 SUB PUSH1 0x0 DUP4 ADD MSTORE PUSH2 0x232B DUP2 PUSH2 0x2028 JUMP JUMPDEST SWAP1 POP SWAP2 SWAP1 POP JUMP JUMPDEST PUSH1 0x0 PUSH1 0x20 DUP3 ADD SWAP1 POP DUP2 DUP2 SUB PUSH1 0x0 DUP4 ADD MSTORE PUSH2 0x234B DUP2 PUSH2 0x204B JUMP JUMPDEST SWAP1 POP SWAP2 SWAP1 POP JUMP JUMPDEST PUSH1 0x0 PUSH1 0x20 DUP3 ADD SWAP1 POP DUP2 DUP2 SUB PUSH1 0x0 DUP4 ADD MSTORE PUSH2 0x236B DUP2 PUSH2 0x206E JUMP JUMPDEST SWAP1 POP SWAP2 SWAP1 POP JUMP JUMPDEST PUSH1 0x0 PUSH1 0x20 DUP3 ADD SWAP1 POP DUP2 DUP2 SUB PUSH1 0x0 DUP4 ADD MSTORE PUSH2 0x238B DUP2 PUSH2 0x2091 JUMP JUMPDEST SWAP1 POP SWAP2 SWAP1 POP JUMP JUMPDEST PUSH1 0x0 PUSH1 0x20 DUP3 ADD SWAP1 POP PUSH2 0x23A7 PUSH1 0x0 DUP4 ADD DUP5 PUSH2 0x20B4 JUMP JUMPDEST SWAP3 SWAP2 POP POP JUMP JUMPDEST PUSH1 0x0 DUP2 MLOAD SWAP1 POP SWAP2 SWAP1 POP JUMP JUMPDEST PUSH1 0x0 DUP2 MLOAD SWAP1 POP SWAP2 SWAP1 POP JUMP JUMPDEST PUSH1 0x0 DUP2 SWAP1 POP SWAP3 SWAP2 POP POP JUMP JUMPDEST PUSH1 0x0 DUP3 DUP3 MSTORE PUSH1 0x20 DUP3 ADD SWAP1 POP SWAP3 SWAP2 POP POP JUMP JUMPDEST PUSH1 0x0 PUSH2 0x23EA DUP3 PUSH2 0x2532 JUMP JUMPDEST SWAP2 POP PUSH2 0x23F5 DUP4 PUSH2 0x2532 JUMP JUMPDEST SWAP3 POP DUP3 PUSH32 0xFFFFFFFFFFFFFFFFFFFFFFFFFFFFFFFFFFFFFFFFFFFFFFFFFFFFFFFFFFFFFFFF SUB DUP3 GT ISZERO PUSH2 0x242A JUMPI PUSH2 0x2429 PUSH2 0x25D6 JUMP JUMPDEST JUMPDEST DUP3 DUP3 ADD SWAP1 POP SWAP3 SWAP2 POP POP JUMP JUMPDEST PUSH1 0x0 PUSH2 0x2440 DUP3 PUSH2 0x2532 JUMP JUMPDEST SWAP2 POP PUSH2 0x244B DUP4 PUSH2 0x2532 JUMP JUMPDEST SWAP3 POP DUP3 PUSH2 0x245B JUMPI PUSH2 0x245A PUSH2 0x2605 JUMP JUMPDEST JUMPDEST DUP3 DUP3 DIV SWAP1 POP SWAP3 SWAP2 POP POP JUMP JUMPDEST PUSH1 0x0 PUSH2 0x2471 DUP3 PUSH2 0x2532 JUMP JUMPDEST SWAP2 POP PUSH2 0x247C DUP4 PUSH2 0x2532 JUMP JUMPDEST SWAP3 POP DUP2 PUSH32 0xFFFFFFFFFFFFFFFFFFFFFFFFFFFFFFFFFFFFFFFFFFFFFFFFFFFFFFFFFFFFFFFF DIV DUP4 GT DUP3 ISZERO ISZERO AND ISZERO PUSH2 0x24B5 JUMPI PUSH2 0x24B4 PUSH2 0x25D6 JUMP JUMPDEST JUMPDEST DUP3 DUP3 MUL SWAP1 POP SWAP3 SWAP2 POP POP JUMP JUMPDEST PUSH1 0x0 PUSH2 0x24CB DUP3 PUSH2 0x2532 JUMP JUMPDEST SWAP2 POP PUSH2 0x24D6 DUP4 PUSH2 0x2532 JUMP JUMPDEST SWAP3 POP DUP3 DUP3 LT ISZERO PUSH2 0x24E9 JUMPI PUSH2 0x24E8 PUSH2 0x25D6 JUMP JUMPDEST JUMPDEST DUP3 DUP3 SUB SWAP1 POP SWAP3 SWAP2 POP POP JUMP JUMPDEST PUSH1 0x0 PUSH2 0x24FF DUP3 PUSH2 0x2512 JUMP JUMPDEST SWAP1 POP SWAP2 SWAP1 POP JUMP JUMPDEST PUSH1 0x0 DUP2 ISZERO ISZERO SWAP1 POP SWAP2 SWAP1 POP JUMP JUMPDEST PUSH1 0x0 PUSH20 0xFFFFFFFFFFFFFFFFFFFFFFFFFFFFFFFFFFFFFFFF DUP3 AND SWAP1 POP SWAP2 SWAP1 POP JUMP JUMPDEST PUSH1 0x0 DUP2 SWAP1 POP SWAP2 SWAP1 POP JUMP JUMPDEST PUSH1 0x0 PUSH2 0x2547 DUP3 PUSH2 0x254E JUMP JUMPDEST SWAP1 POP SWAP2 SWAP1 POP JUMP JUMPDEST PUSH1 0x0 PUSH2 0x2559 DUP3 PUSH2 0x2560 JUMP JUMPDEST SWAP1 POP SWAP2 SWAP1 POP JUMP JUMPDEST PUSH1 0x0 PUSH2 0x256B DUP3 PUSH2 0x2512 JUMP JUMPDEST SWAP1 POP SWAP2 SWAP1 POP JUMP JUMPDEST PUSH1 0x0 JUMPDEST DUP4 DUP2 LT ISZERO PUSH2 0x2590 JUMPI DUP1 DUP3 ADD MLOAD DUP2 DUP5 ADD MSTORE PUSH1 0x20 DUP2 ADD SWAP1 POP PUSH2 0x2575 JUMP JUMPDEST DUP4 DUP2 GT ISZERO PUSH2 0x259F JUMPI PUSH1 0x0 DUP5 DUP5 ADD MSTORE JUMPDEST POP POP POP POP JUMP JUMPDEST PUSH1 0x0 PUSH2 0x25B0 DUP3 PUSH2 0x2532 JUMP JUMPDEST SWAP2 POP PUSH2 0x25BB DUP4 PUSH2 0x2532 JUMP JUMPDEST SWAP3 POP DUP3 PUSH2 0x25CB JUMPI PUSH2 0x25CA PUSH2 0x2605 JUMP JUMPDEST JUMPDEST DUP3 DUP3 MOD SWAP1 POP SWAP3 SWAP2 POP POP JUMP JUMPDEST PUSH32 0x4E487B7100000000000000000000000000000000000000000000000000000000 PUSH1 0x0 MSTORE PUSH1 0x11 PUSH1 0x4 MSTORE PUSH1 0x24 PUSH1 0x0 REVERT JUMPDEST PUSH32 0x4E487B7100000000000000000000000000000000000000000000000000000000 PUSH1 0x0 MSTORE PUSH1 0x12 PUSH1 0x4 MSTORE PUSH1 0x24 PUSH1 0x0 REVERT JUMPDEST PUSH1 0x0 DUP1 REVERT JUMPDEST PUSH1 0x0 PUSH1 0x1F NOT PUSH1 0x1F DUP4 ADD AND SWAP1 POP SWAP2 SWAP1 POP JUMP JUMPDEST PUSH32 0x4E6F7468696E6720746F20636C61696D00000000000000000000000000000000 PUSH1 0x0 DUP3 ADD MSTORE POP JUMP JUMPDEST PUSH32 0x4572726F723A20696E76616C6964207374616B65720000000000000000000000 PUSH1 0x0 DUP3 ADD MSTORE POP JUMP JUMPDEST PUSH32 0x5361666542455032303A204245503230206F7065726174696F6E20646964206E PUSH1 0x0 DUP3 ADD MSTORE PUSH32 0x6F74207375636365656400000000000000000000000000000000000000000000 PUSH1 0x20 DUP3 ADD MSTORE POP JUMP JUMPDEST PUSH32 0x4F776E61626C653A206E6577206F776E657220697320746865207A65726F2061 PUSH1 0x0 DUP3 ADD MSTORE PUSH32 0x6464726573730000000000000000000000000000000000000000000000000000 PUSH1 0x20 DUP3 ADD MSTORE POP JUMP JUMPDEST PUSH32 0x496E76616C696420616D6F756E74000000000000000000000000000000000000 PUSH1 0x0 DUP3 ADD MSTORE POP JUMP JUMPDEST PUSH32 0x416C726561647920737461727465640000000000000000000000000000000000 PUSH1 0x0 DUP3 ADD MSTORE POP JUMP JUMPDEST PUSH32 0x416464726573733A20696E73756666696369656E742062616C616E636520666F PUSH1 0x0 DUP3 ADD MSTORE PUSH32 0x722063616C6C0000000000000000000000000000000000000000000000000000 PUSH1 0x20 DUP3 ADD MSTORE POP JUMP JUMPDEST PUSH32 0x496E76616C696420416464726573732E20416464726573732063616E27742062 PUSH1 0x0 DUP3 ADD MSTORE PUSH32 0x65207A65726F0000000000000000000000000000000000000000000000000000 PUSH1 0x20 DUP3 ADD MSTORE POP JUMP JUMPDEST PUSH32 0x416D6F756E742073686F756C642062652067726561746572207468616E203000 PUSH1 0x0 DUP3 ADD MSTORE POP JUMP JUMPDEST PUSH32 0x4F776E61626C653A2063616C6C6572206973206E6F7420746865206F776E6572 PUSH1 0x0 DUP3 ADD MSTORE POP JUMP JUMPDEST PUSH32 0x496E76616C69642076616C756500000000000000000000000000000000000000 PUSH1 0x0 DUP3 ADD MSTORE POP JUMP JUMPDEST PUSH32 0x416464726573733A2063616C6C20746F206E6F6E2D636F6E7472616374000000 PUSH1 0x0 DUP3 ADD MSTORE POP JUMP JUMPDEST PUSH32 0x496E76616C696420556E7374616B696E67204665652052617465000000000000 PUSH1 0x0 DUP3 ADD MSTORE POP JUMP JUMPDEST PUSH32 0x496E76616C6964204C6F636B7570204475726174696F6E000000000000000000 PUSH1 0x0 DUP3 ADD MSTORE POP JUMP JUMPDEST PUSH32 0x43616E2774206265207A65726F00000000000000000000000000000000000000 PUSH1 0x0 DUP3 ADD MSTORE POP JUMP JUMPDEST PUSH32 0x496E73756666696369656E742100000000000000000000000000000000000000 PUSH1 0x0 DUP3 ADD MSTORE POP JUMP JUMPDEST PUSH2 0x297B DUP2 PUSH2 0x24F4 JUMP JUMPDEST DUP2 EQ PUSH2 0x2986 JUMPI PUSH1 0x0 DUP1 REVERT JUMPDEST POP JUMP JUMPDEST PUSH2 0x2992 DUP2 PUSH2 0x2506 JUMP JUMPDEST DUP2 EQ PUSH2 0x299D JUMPI PUSH1 0x0 DUP1 REVERT JUMPDEST POP JUMP JUMPDEST PUSH2 0x29A9 DUP2 PUSH2 0x2532 JUMP JUMPDEST DUP2 EQ PUSH2 0x29B4 JUMPI PUSH1 0x0 DUP1 REVERT JUMPDEST POP JUMP INVALID LOG2 PUSH5 0x6970667358 0x22 SLT KECCAK256 PUSH20 0xED29FAE3C6E0506DC22901FEC8F83DAD4FA487C6 BYTE PUSH26 0x3C5AEE3F934F4C452564736F6C63430008070033000000000000 "
				},
				"gasEstimates": {
					"creation": {
						"codeDepositCost": "2146600",
						"executionCost": "infinite",
						"totalCost": "infinite"
					},
					"external": {
						"harvest()": "infinite",
						"owner()": "2589",
						"renounceOwnership()": "30463",
						"rewardAmount()": "2620",
						"rewardToHarvest()": "2577",
						"setBountyWallet(address)": "infinite",
						"setEventPeriod(uint256)": "infinite",
						"setLockupTime(uint256)": "24873",
						"setRewardRate(uint256)": "infinite",
						"setUnstakingFeeRate(uint256)": "infinite",
						"stake(uint256)": "infinite",
						"stakedAmount()": "2578",
						"startStaking(uint256,uint256)": "infinite",
						"token()": "2710",
						"totalStaked()": "2452",
						"transferOwnership(address)": "30789",
						"withdraw(uint256)": "infinite"
					},
					"internal": {
						"Init()": "infinite",
						"calDaysFromTimestamp(uint256)": "infinite",
						"updateReward()": "infinite"
					}
				},
				"methodIdentifiers": {
					"harvest()": "4641257d",
					"owner()": "8da5cb5b",
					"renounceOwnership()": "715018a6",
					"rewardAmount()": "f7b2a7be",
					"rewardToHarvest()": "5d2ec65d",
					"setBountyWallet(address)": "8a9d3839",
					"setEventPeriod(uint256)": "692642e7",
					"setLockupTime(uint256)": "4b62b70b",
					"setRewardRate(uint256)": "9e447fc6",
					"setUnstakingFeeRate(uint256)": "91e07e7a",
					"stake(uint256)": "a694fc3a",
					"stakedAmount()": "373d6132",
					"startStaking(uint256,uint256)": "4b77dd9e",
					"token()": "fc0c546a",
					"totalStaked()": "817b1cd2",
					"transferOwnership(address)": "f2fde38b",
					"withdraw(uint256)": "2e1a7d4d"
				}
			},
			"userdoc": {
				"kind": "user",
				"methods": {},
				"version": 1
			}
		}
	}
}