{
	"Staking_flat.sol": {
		"StakingPlatform": {
			"abi": [
				{
					"inputs": [
						{
							"internalType": "address",
							"name": "_token",
							"type": "address"
						}
					],
					"stateMutability": "nonpayable",
					"type": "constructor"
				},
				{
					"anonymous": false,
					"inputs": [
						{
							"indexed": false,
							"internalType": "address",
							"name": "staker",
							"type": "address"
						},
						{
							"indexed": false,
							"internalType": "uint256",
							"name": "rewardToClaim",
							"type": "uint256"
						}
					],
					"name": "Harvest",
					"type": "event"
				},
				{
					"anonymous": false,
					"inputs": [
						{
							"indexed": true,
							"internalType": "address",
							"name": "previousOwner",
							"type": "address"
						},
						{
							"indexed": true,
							"internalType": "address",
							"name": "newOwner",
							"type": "address"
						}
					],
					"name": "OwnershipTransferred",
					"type": "event"
				},
				{
					"anonymous": false,
					"inputs": [
						{
							"indexed": false,
							"internalType": "uint256",
							"name": "lockupDuration",
							"type": "uint256"
						}
					],
					"name": "SetEventPeriod",
					"type": "event"
				},
				{
					"anonymous": false,
					"inputs": [
						{
							"indexed": false,
							"internalType": "uint256",
							"name": "rewardRate",
							"type": "uint256"
						}
					],
					"name": "SetRewardRate",
					"type": "event"
				},
				{
					"anonymous": false,
					"inputs": [
						{
							"indexed": false,
							"internalType": "uint256",
							"name": "unstakingFeeRate",
							"type": "uint256"
						}
					],
					"name": "SetUnstakingFeeRate",
					"type": "event"
				},
				{
					"anonymous": false,
					"inputs": [
						{
							"indexed": false,
							"internalType": "address",
							"name": "staker",
							"type": "address"
						},
						{
							"indexed": false,
							"internalType": "uint256",
							"name": "amount",
							"type": "uint256"
						}
					],
					"name": "Staked",
					"type": "event"
				},
				{
					"anonymous": false,
					"inputs": [
						{
							"indexed": false,
							"internalType": "address",
							"name": "staker",
							"type": "address"
						},
						{
							"indexed": false,
							"internalType": "uint256",
							"name": "amount",
							"type": "uint256"
						}
					],
					"name": "Withdraw",
					"type": "event"
				},
				{
					"inputs": [],
					"name": "getNumberofStakers",
					"outputs": [
						{
							"internalType": "uint256",
							"name": "",
							"type": "uint256"
						}
					],
					"stateMutability": "view",
					"type": "function"
				},
				{
					"inputs": [],
					"name": "getRewardRate",
					"outputs": [
						{
							"internalType": "uint256",
							"name": "",
							"type": "uint256"
						}
					],
					"stateMutability": "view",
					"type": "function"
				},
				{
					"inputs": [
						{
							"internalType": "address",
							"name": "_address",
							"type": "address"
						}
					],
					"name": "getStakerMode",
					"outputs": [
						{
							"internalType": "uint256",
							"name": "",
							"type": "uint256"
						}
					],
					"stateMutability": "view",
					"type": "function"
				},
				{
					"inputs": [],
					"name": "getTotalStaked",
					"outputs": [
						{
							"internalType": "uint256",
							"name": "",
							"type": "uint256"
						}
					],
					"stateMutability": "view",
					"type": "function"
				},
				{
					"inputs": [],
					"name": "harvest",
					"outputs": [],
					"stateMutability": "nonpayable",
					"type": "function"
				},
				{
					"inputs": [
						{
							"internalType": "address",
							"name": "_address",
							"type": "address"
						}
					],
					"name": "isLocked",
					"outputs": [
						{
							"internalType": "uint256",
							"name": "",
							"type": "uint256"
						}
					],
					"stateMutability": "view",
					"type": "function"
				},
				{
					"inputs": [
						{
							"internalType": "address",
							"name": "_address",
							"type": "address"
						}
					],
					"name": "isStartStaking",
					"outputs": [
						{
							"internalType": "uint256",
							"name": "",
							"type": "uint256"
						}
					],
					"stateMutability": "view",
					"type": "function"
				},
				{
					"inputs": [],
					"name": "owner",
					"outputs": [
						{
							"internalType": "address",
							"name": "",
							"type": "address"
						}
					],
					"stateMutability": "view",
					"type": "function"
				},
				{
					"inputs": [],
					"name": "renounceOwnership",
					"outputs": [],
					"stateMutability": "nonpayable",
					"type": "function"
				},
				{
					"inputs": [
						{
							"internalType": "address",
							"name": "_address",
							"type": "address"
						}
					],
					"name": "rewardAmount",
					"outputs": [
						{
							"internalType": "uint256",
							"name": "",
							"type": "uint256"
						}
					],
					"stateMutability": "view",
					"type": "function"
				},
				{
					"inputs": [],
					"name": "rewardToHarvest",
					"outputs": [
						{
							"internalType": "uint256",
							"name": "",
							"type": "uint256"
						}
					],
					"stateMutability": "view",
					"type": "function"
				},
				{
					"inputs": [
						{
							"internalType": "uint256",
							"name": "__eventPeriod",
							"type": "uint256"
						}
					],
					"name": "setEventPeriod",
					"outputs": [],
					"stateMutability": "nonpayable",
					"type": "function"
				},
				{
					"inputs": [
						{
							"internalType": "uint256",
							"name": "lockupTime",
							"type": "uint256"
						}
					],
					"name": "setLockupTime",
					"outputs": [],
					"stateMutability": "nonpayable",
					"type": "function"
				},
				{
					"inputs": [
						{
							"internalType": "uint256",
							"name": "__rewardRate",
							"type": "uint256"
						}
					],
					"name": "setRewardRate",
					"outputs": [],
					"stateMutability": "nonpayable",
					"type": "function"
				},
				{
					"inputs": [
						{
							"internalType": "uint256",
							"name": "__unstakingFeeRate",
							"type": "uint256"
						}
					],
					"name": "setUnstakingFeeRate",
					"outputs": [],
					"stateMutability": "nonpayable",
					"type": "function"
				},
				{
					"inputs": [
						{
							"internalType": "uint256",
							"name": "_amount",
							"type": "uint256"
						}
					],
					"name": "stake",
					"outputs": [],
					"stateMutability": "nonpayable",
					"type": "function"
				},
				{
					"inputs": [
						{
							"internalType": "address",
							"name": "_address",
							"type": "address"
						}
					],
					"name": "stakedAmount",
					"outputs": [
						{
							"internalType": "uint256",
							"name": "",
							"type": "uint256"
						}
					],
					"stateMutability": "view",
					"type": "function"
				},
				{
					"inputs": [
						{
							"internalType": "uint256",
							"name": "_amount",
							"type": "uint256"
						},
						{
							"internalType": "uint256",
							"name": "_mode",
							"type": "uint256"
						}
					],
					"name": "startStaking",
					"outputs": [],
					"stateMutability": "nonpayable",
					"type": "function"
				},
				{
					"inputs": [],
					"name": "token",
					"outputs": [
						{
							"internalType": "contract IBEP20",
							"name": "",
							"type": "address"
						}
					],
					"stateMutability": "view",
					"type": "function"
				},
				{
					"inputs": [],
					"name": "totalStaked",
					"outputs": [
						{
							"internalType": "uint256",
							"name": "",
							"type": "uint256"
						}
					],
					"stateMutability": "view",
					"type": "function"
				},
				{
					"inputs": [
						{
							"internalType": "address",
							"name": "newOwner",
							"type": "address"
						}
					],
					"name": "transferOwnership",
					"outputs": [],
					"stateMutability": "nonpayable",
					"type": "function"
				},
				{
					"inputs": [
						{
							"internalType": "uint256",
							"name": "amount",
							"type": "uint256"
						}
					],
					"name": "withdraw",
					"outputs": [],
					"stateMutability": "nonpayable",
					"type": "function"
				}
			],
			"devdoc": {
				"kind": "dev",
				"methods": {
					"owner()": {
						"details": "Returns the address of the current owner."
					},
					"renounceOwnership()": {
						"details": "Leaves the contract without owner. It will not be possible to call `onlyOwner` functions anymore. Can only be called by the current owner. NOTE: Renouncing ownership will leave the contract without an owner, thereby removing any functionality that is only available to the owner."
					},
					"transferOwnership(address)": {
						"details": "Transfers ownership of the contract to a new account (`newOwner`). Can only be called by the current owner."
					}
				},
				"version": 1
			},
			"evm": {
				"assembly": "    /* \"Staking_flat.sol\":27294:35336  contract StakingPlatform is Ownable {... */\n  mstore(0x40, 0x80)\n    /* \"Staking_flat.sol\":28625:28717  constructor(address _token) {... */\n  callvalue\n  dup1\n  iszero\n  tag_1\n  jumpi\n  0x00\n  dup1\n  revert\ntag_1:\n  pop\n  mload(0x40)\n  sub(codesize, bytecodeSize)\n  dup1\n  bytecodeSize\n  dup4\n  codecopy\n  dup2\n  dup2\n  add\n  0x40\n  mstore\n  dup2\n  add\n  swap1\n  tag_2\n  swap2\n  swap1\n  tag_3\n  jump\t// in\ntag_2:\n    /* \"Staking_flat.sol\":25721:25753  _transferOwnership(_msgSender()) */\n  tag_7\n    /* \"Staking_flat.sol\":25740:25752  _msgSender() */\n  tag_8\n    /* \"Staking_flat.sol\":25740:25750  _msgSender */\n  shl(0x20, tag_9)\n    /* \"Staking_flat.sol\":25740:25752  _msgSender() */\n  0x20\n  shr\n  jump\t// in\ntag_8:\n    /* \"Staking_flat.sol\":25721:25739  _transferOwnership */\n  shl(0x20, tag_10)\n    /* \"Staking_flat.sol\":25721:25753  _transferOwnership(_msgSender()) */\n  0x20\n  shr\n  jump\t// in\ntag_7:\n    /* \"Staking_flat.sol\":28672:28678  Init() */\n  tag_12\n    /* \"Staking_flat.sol\":28672:28676  Init */\n  shl(0x20, tag_13)\n    /* \"Staking_flat.sol\":28672:28678  Init() */\n  0x20\n  shr\n  jump\t// in\ntag_12:\n    /* \"Staking_flat.sol\":28703:28709  _token */\n  dup1\n    /* \"Staking_flat.sol\":28688:28693  token */\n  0x0c\n  0x00\n    /* \"Staking_flat.sol\":28688:28710  token = IBEP20(_token) */\n  0x0100\n  exp\n  dup2\n  sload\n  dup2\n  0xffffffffffffffffffffffffffffffffffffffff\n  mul\n  not\n  and\n  swap1\n  dup4\n  0xffffffffffffffffffffffffffffffffffffffff\n  and\n  mul\n  or\n  swap1\n  sstore\n  pop\n    /* \"Staking_flat.sol\":28625:28717  constructor(address _token) {... */\n  pop\n    /* \"Staking_flat.sol\":27294:35336  contract StakingPlatform is Ownable {... */\n  jump(tag_14)\n    /* \"Staking_flat.sol\":24629:24725  function _msgSender() internal view virtual returns (address) {... */\ntag_9:\n    /* \"Staking_flat.sol\":24682:24689  address */\n  0x00\n    /* \"Staking_flat.sol\":24708:24718  msg.sender */\n  caller\n    /* \"Staking_flat.sol\":24701:24718  return msg.sender */\n  swap1\n  pop\n    /* \"Staking_flat.sol\":24629:24725  function _msgSender() internal view virtual returns (address) {... */\n  swap1\n  jump\t// out\n    /* \"Staking_flat.sol\":27070:27257  function _transferOwnership(address newOwner) internal virtual {... */\ntag_10:\n    /* \"Staking_flat.sol\":27143:27159  address oldOwner */\n  0x00\n    /* \"Staking_flat.sol\":27162:27168  _owner */\n  dup1\n  0x00\n  swap1\n  sload\n  swap1\n  0x0100\n  exp\n  swap1\n  div\n  0xffffffffffffffffffffffffffffffffffffffff\n  and\n    /* \"Staking_flat.sol\":27143:27168  address oldOwner = _owner */\n  swap1\n  pop\n    /* \"Staking_flat.sol\":27187:27195  newOwner */\n  dup2\n    /* \"Staking_flat.sol\":27178:27184  _owner */\n  0x00\n  dup1\n    /* \"Staking_flat.sol\":27178:27195  _owner = newOwner */\n  0x0100\n  exp\n  dup2\n  sload\n  dup2\n  0xffffffffffffffffffffffffffffffffffffffff\n  mul\n  not\n  and\n  swap1\n  dup4\n  0xffffffffffffffffffffffffffffffffffffffff\n  and\n  mul\n  or\n  swap1\n  sstore\n  pop\n    /* \"Staking_flat.sol\":27241:27249  newOwner */\n  dup2\n    /* \"Staking_flat.sol\":27210:27250  OwnershipTransferred(oldOwner, newOwner) */\n  0xffffffffffffffffffffffffffffffffffffffff\n  and\n    /* \"Staking_flat.sol\":27231:27239  oldOwner */\n  dup2\n    /* \"Staking_flat.sol\":27210:27250  OwnershipTransferred(oldOwner, newOwner) */\n  0xffffffffffffffffffffffffffffffffffffffff\n  and\n  0x8be0079c531659141344cd1fd0a4f28419497f9722a3daafe3b4186f6b6457e0\n  mload(0x40)\n  mload(0x40)\n  dup1\n  swap2\n  sub\n  swap1\n  log3\n    /* \"Staking_flat.sol\":27133:27257  {... */\n  pop\n    /* \"Staking_flat.sol\":27070:27257  function _transferOwnership(address newOwner) internal virtual {... */\n  pop\n  jump\t// out\n    /* \"Staking_flat.sol\":28723:29036  function Init() internal {... */\ntag_13:\n    /* \"Staking_flat.sol\":28781:28784  200 */\n  0xc8\n    /* \"Staking_flat.sol\":28767:28778  _rewardRate */\n  0x03\n    /* \"Staking_flat.sol\":28767:28784  _rewardRate = 200 */\n  dup2\n  swap1\n  sstore\n  pop\n    /* \"Staking_flat.sol\":28825:28829  1500 */\n  0x05dc\n    /* \"Staking_flat.sol\":28805:28822  _unstakingFeeRate */\n  0x01\n    /* \"Staking_flat.sol\":28805:28829  _unstakingFeeRate = 1500 */\n  dup2\n  swap1\n  sstore\n  pop\n    /* \"Staking_flat.sol\":28856:28859  100 */\n  0x64\n    /* \"Staking_flat.sol\":28839:28853  _rewardFeeRate */\n  0x04\n    /* \"Staking_flat.sol\":28839:28859  _rewardFeeRate = 100 */\n  dup2\n  swap1\n  sstore\n  pop\n    /* \"Staking_flat.sol\":28884:28890  7 days */\n  0x093a80\n    /* \"Staking_flat.sol\":28869:28881  _eventPeriod */\n  0x02\n    /* \"Staking_flat.sol\":28869:28890  _eventPeriod = 7 days */\n  dup2\n  swap1\n  sstore\n  pop\n    /* \"Staking_flat.sol\":28916:28923  90 days */\n  0x76a700\n    /* \"Staking_flat.sol\":28900:28913  _lockupPeriod */\n  0x05\n    /* \"Staking_flat.sol\":28900:28923  _lockupPeriod = 90 days */\n  dup2\n  swap1\n  sstore\n  pop\n    /* \"Staking_flat.sol\":28953:28957  1e24 */\n  0xd3c21bcecceda1000000\n    /* \"Staking_flat.sol\":28933:28950  _minStakeAmount_c */\n  0x08\n    /* \"Staking_flat.sol\":28933:28957  _minStakeAmount_c = 1e24 */\n  dup2\n  swap1\n  sstore\n  pop\n    /* \"Staking_flat.sol\":28987:28993  3*1e24 */\n  0x027b46536c66c8e3000000\n    /* \"Staking_flat.sol\":28967:28984  _minStakeAmount_s */\n  0x07\n    /* \"Staking_flat.sol\":28967:28993  _minStakeAmount_s = 3*1e24 */\n  dup2\n  swap1\n  sstore\n  pop\n    /* \"Staking_flat.sol\":29023:29029  7*1e24 */\n  0x05ca4ec2a79a7f67000000\n    /* \"Staking_flat.sol\":29003:29020  _minStakeAmount_g */\n  0x06\n    /* \"Staking_flat.sol\":29003:29029  _minStakeAmount_g = 7*1e24 */\n  dup2\n  swap1\n  sstore\n  pop\n    /* \"Staking_flat.sol\":28723:29036  function Init() internal {... */\n  jump\t// out\n    /* \"#utility.yul\":88:205   */\ntag_19:\n    /* \"#utility.yul\":197:198   */\n  0x00\n    /* \"#utility.yul\":194:195   */\n  dup1\n    /* \"#utility.yul\":187:199   */\n  revert\n    /* \"#utility.yul\":334:460   */\ntag_21:\n    /* \"#utility.yul\":371:378   */\n  0x00\n    /* \"#utility.yul\":411:453   */\n  0xffffffffffffffffffffffffffffffffffffffff\n    /* \"#utility.yul\":404:409   */\n  dup3\n    /* \"#utility.yul\":400:454   */\n  and\n    /* \"#utility.yul\":389:454   */\n  swap1\n  pop\n    /* \"#utility.yul\":334:460   */\n  swap2\n  swap1\n  pop\n  jump\t// out\n    /* \"#utility.yul\":466:562   */\ntag_22:\n    /* \"#utility.yul\":503:510   */\n  0x00\n    /* \"#utility.yul\":532:556   */\n  tag_31\n    /* \"#utility.yul\":550:555   */\n  dup3\n    /* \"#utility.yul\":532:556   */\n  tag_21\n  jump\t// in\ntag_31:\n    /* \"#utility.yul\":521:556   */\n  swap1\n  pop\n    /* \"#utility.yul\":466:562   */\n  swap2\n  swap1\n  pop\n  jump\t// out\n    /* \"#utility.yul\":568:690   */\ntag_23:\n    /* \"#utility.yul\":641:665   */\n  tag_33\n    /* \"#utility.yul\":659:664   */\n  dup2\n    /* \"#utility.yul\":641:665   */\n  tag_22\n  jump\t// in\ntag_33:\n    /* \"#utility.yul\":634:639   */\n  dup2\n    /* \"#utility.yul\":631:666   */\n  eq\n    /* \"#utility.yul\":621:684   */\n  tag_34\n  jumpi\n    /* \"#utility.yul\":680:681   */\n  0x00\n    /* \"#utility.yul\":677:678   */\n  dup1\n    /* \"#utility.yul\":670:682   */\n  revert\n    /* \"#utility.yul\":621:684   */\ntag_34:\n    /* \"#utility.yul\":568:690   */\n  pop\n  jump\t// out\n    /* \"#utility.yul\":696:839   */\ntag_24:\n    /* \"#utility.yul\":753:758   */\n  0x00\n    /* \"#utility.yul\":784:790   */\n  dup2\n    /* \"#utility.yul\":778:791   */\n  mload\n    /* \"#utility.yul\":769:791   */\n  swap1\n  pop\n    /* \"#utility.yul\":800:833   */\n  tag_36\n    /* \"#utility.yul\":827:832   */\n  dup2\n    /* \"#utility.yul\":800:833   */\n  tag_23\n  jump\t// in\ntag_36:\n    /* \"#utility.yul\":696:839   */\n  swap3\n  swap2\n  pop\n  pop\n  jump\t// out\n    /* \"#utility.yul\":845:1196   */\ntag_3:\n    /* \"#utility.yul\":915:921   */\n  0x00\n    /* \"#utility.yul\":964:966   */\n  0x20\n    /* \"#utility.yul\":952:961   */\n  dup3\n    /* \"#utility.yul\":943:950   */\n  dup5\n    /* \"#utility.yul\":939:962   */\n  sub\n    /* \"#utility.yul\":935:967   */\n  slt\n    /* \"#utility.yul\":932:1051   */\n  iszero\n  tag_38\n  jumpi\n    /* \"#utility.yul\":970:1049   */\n  tag_39\n  tag_19\n  jump\t// in\ntag_39:\n    /* \"#utility.yul\":932:1051   */\ntag_38:\n    /* \"#utility.yul\":1090:1091   */\n  0x00\n    /* \"#utility.yul\":1115:1179   */\n  tag_40\n    /* \"#utility.yul\":1171:1178   */\n  dup5\n    /* \"#utility.yul\":1162:1168   */\n  dup3\n    /* \"#utility.yul\":1151:1160   */\n  dup6\n    /* \"#utility.yul\":1147:1169   */\n  add\n    /* \"#utility.yul\":1115:1179   */\n  tag_24\n  jump\t// in\ntag_40:\n    /* \"#utility.yul\":1105:1179   */\n  swap2\n  pop\n    /* \"#utility.yul\":1061:1189   */\n  pop\n    /* \"#utility.yul\":845:1196   */\n  swap3\n  swap2\n  pop\n  pop\n  jump\t// out\n    /* \"Staking_flat.sol\":27294:35336  contract StakingPlatform is Ownable {... */\ntag_14:\n  dataSize(sub_0)\n  dup1\n  dataOffset(sub_0)\n  0x00\n  codecopy\n  0x00\n  return\nstop\n\nsub_0: assembly {\n        /* \"Staking_flat.sol\":27294:35336  contract StakingPlatform is Ownable {... */\n      mstore(0x40, 0x80)\n      callvalue\n      dup1\n      iszero\n      tag_1\n      jumpi\n      0x00\n      dup1\n      revert\n    tag_1:\n      pop\n      jumpi(tag_2, lt(calldatasize, 0x04))\n      shr(0xe0, calldataload(0x00))\n      dup1\n      0x7e1a3786\n      gt\n      tag_25\n      jumpi\n      dup1\n      0xa694fc3a\n      gt\n      tag_26\n      jumpi\n      dup1\n      0xa694fc3a\n      eq\n      tag_19\n      jumpi\n      dup1\n      0xaedf562b\n      eq\n      tag_20\n      jumpi\n      dup1\n      0xf2fde38b\n      eq\n      tag_21\n      jumpi\n      dup1\n      0xf9931855\n      eq\n      tag_22\n      jumpi\n      dup1\n      0xfc0c546a\n      eq\n      tag_23\n      jumpi\n      dup1\n      0xfe600f84\n      eq\n      tag_24\n      jumpi\n      jump(tag_2)\n    tag_26:\n      dup1\n      0x7e1a3786\n      eq\n      tag_14\n      jumpi\n      dup1\n      0x817b1cd2\n      eq\n      tag_15\n      jumpi\n      dup1\n      0x8da5cb5b\n      eq\n      tag_16\n      jumpi\n      dup1\n      0x91e07e7a\n      eq\n      tag_17\n      jumpi\n      dup1\n      0x9e447fc6\n      eq\n      tag_18\n      jumpi\n      jump(tag_2)\n    tag_25:\n      dup1\n      0x4b77dd9e\n      gt\n      tag_27\n      jumpi\n      dup1\n      0x4b77dd9e\n      eq\n      tag_8\n      jumpi\n      dup1\n      0x5715ec11\n      eq\n      tag_9\n      jumpi\n      dup1\n      0x5d2ec65d\n      eq\n      tag_10\n      jumpi\n      dup1\n      0x645a8a56\n      eq\n      tag_11\n      jumpi\n      dup1\n      0x692642e7\n      eq\n      tag_12\n      jumpi\n      dup1\n      0x715018a6\n      eq\n      tag_13\n      jumpi\n      jump(tag_2)\n    tag_27:\n      dup1\n      0x0917e776\n      eq\n      tag_3\n      jumpi\n      dup1\n      0x2e1a7d4d\n      eq\n      tag_4\n      jumpi\n      dup1\n      0x4641257d\n      eq\n      tag_5\n      jumpi\n      dup1\n      0x4a4fbeec\n      eq\n      tag_6\n      jumpi\n      dup1\n      0x4b62b70b\n      eq\n      tag_7\n      jumpi\n    tag_2:\n      0x00\n      dup1\n      revert\n        /* \"Staking_flat.sol\":31207:31299  function getTotalStaked() public view returns (uint256) {... */\n    tag_3:\n      tag_28\n      tag_29\n      jump\t// in\n    tag_28:\n      mload(0x40)\n      tag_30\n      swap2\n      swap1\n      tag_31\n      jump\t// in\n    tag_30:\n      mload(0x40)\n      dup1\n      swap2\n      sub\n      swap1\n      return\n        /* \"Staking_flat.sol\":32495:33597  function withdraw(uint256 amount) external{... */\n    tag_4:\n      tag_32\n      0x04\n      dup1\n      calldatasize\n      sub\n      dup2\n      add\n      swap1\n      tag_33\n      swap2\n      swap1\n      tag_34\n      jump\t// in\n    tag_33:\n      tag_35\n      jump\t// in\n    tag_32:\n      stop\n        /* \"Staking_flat.sol\":34771:35334  function harvest() public{... */\n    tag_5:\n      tag_36\n      tag_37\n      jump\t// in\n    tag_36:\n      stop\n        /* \"Staking_flat.sol\":31675:32069  function isLocked(address _address) public view returns (uint256) {... */\n    tag_6:\n      tag_38\n      0x04\n      dup1\n      calldatasize\n      sub\n      dup2\n      add\n      swap1\n      tag_39\n      swap2\n      swap1\n      tag_40\n      jump\t// in\n    tag_39:\n      tag_41\n      jump\t// in\n    tag_38:\n      mload(0x40)\n      tag_42\n      swap2\n      swap1\n      tag_31\n      jump\t// in\n    tag_42:\n      mload(0x40)\n      dup1\n      swap2\n      sub\n      swap1\n      return\n        /* \"Staking_flat.sol\":34353:34518  function setLockupTime(uint256 lockupTime) external onlyOwner {... */\n    tag_7:\n      tag_43\n      0x04\n      dup1\n      calldatasize\n      sub\n      dup2\n      add\n      swap1\n      tag_44\n      swap2\n      swap1\n      tag_34\n      jump\t// in\n    tag_44:\n      tag_45\n      jump\t// in\n    tag_43:\n      stop\n        /* \"Staking_flat.sol\":29705:30567  function startStaking(uint256 _amount, uint256 _mode) external {... */\n    tag_8:\n      tag_46\n      0x04\n      dup1\n      calldatasize\n      sub\n      dup2\n      add\n      swap1\n      tag_47\n      swap2\n      swap1\n      tag_48\n      jump\t// in\n    tag_47:\n      tag_49\n      jump\t// in\n    tag_46:\n      stop\n        /* \"Staking_flat.sol\":31305:31405  function getNumberofStakers() public view returns (uint256) {... */\n    tag_9:\n      tag_50\n      tag_51\n      jump\t// in\n    tag_50:\n      mload(0x40)\n      tag_52\n      swap2\n      swap1\n      tag_31\n      jump\t// in\n    tag_52:\n      mload(0x40)\n      dup1\n      swap2\n      sub\n      swap1\n      return\n        /* \"Staking_flat.sol\":34578:34733  function rewardToHarvest() public view returns (uint256){... */\n    tag_10:\n      tag_53\n      tag_54\n      jump\t// in\n    tag_53:\n      mload(0x40)\n      tag_55\n      swap2\n      swap1\n      tag_31\n      jump\t// in\n    tag_55:\n      mload(0x40)\n      dup1\n      swap2\n      sub\n      swap1\n      return\n        /* \"Staking_flat.sol\":32222:32354  function rewardAmount(address _address) public view returns (uint256) {... */\n    tag_11:\n      tag_56\n      0x04\n      dup1\n      calldatasize\n      sub\n      dup2\n      add\n      swap1\n      tag_57\n      swap2\n      swap1\n      tag_40\n      jump\t// in\n    tag_57:\n      tag_58\n      jump\t// in\n    tag_56:\n      mload(0x40)\n      tag_59\n      swap2\n      swap1\n      tag_31\n      jump\t// in\n    tag_59:\n      mload(0x40)\n      dup1\n      swap2\n      sub\n      swap1\n      return\n        /* \"Staking_flat.sol\":33833:34074  function setEventPeriod(uint256 __eventPeriod) external onlyOwner {... */\n    tag_12:\n      tag_60\n      0x04\n      dup1\n      calldatasize\n      sub\n      dup2\n      add\n      swap1\n      tag_61\n      swap2\n      swap1\n      tag_34\n      jump\t// in\n    tag_61:\n      tag_62\n      jump\t// in\n    tag_60:\n      stop\n        /* \"Staking_flat.sol\":26468:26569  function renounceOwnership() public virtual onlyOwner {... */\n    tag_13:\n      tag_63\n      tag_64\n      jump\t// in\n    tag_63:\n      stop\n        /* \"Staking_flat.sol\":32360:32451  function getRewardRate() public view returns (uint256) {... */\n    tag_14:\n      tag_65\n      tag_66\n      jump\t// in\n    tag_65:\n      mload(0x40)\n      tag_67\n      swap2\n      swap1\n      tag_31\n      jump\t// in\n    tag_67:\n      mload(0x40)\n      dup1\n      swap2\n      sub\n      swap1\n      return\n        /* \"Staking_flat.sol\":28176:28202  uint256 public totalStaked */\n    tag_15:\n      tag_68\n      tag_69\n      jump\t// in\n    tag_68:\n      mload(0x40)\n      tag_70\n      swap2\n      swap1\n      tag_31\n      jump\t// in\n    tag_70:\n      mload(0x40)\n      dup1\n      swap2\n      sub\n      swap1\n      return\n        /* \"Staking_flat.sol\":25836:25921  function owner() public view virtual returns (address) {... */\n    tag_16:\n      tag_71\n      tag_72\n      jump\t// in\n    tag_71:\n      mload(0x40)\n      tag_73\n      swap2\n      swap1\n      tag_74\n      jump\t// in\n    tag_73:\n      mload(0x40)\n      dup1\n      swap2\n      sub\n      swap1\n      return\n        /* \"Staking_flat.sol\":34080:34347  function setUnstakingFeeRate(uint256 __unstakingFeeRate) external onlyOwner {... */\n    tag_17:\n      tag_75\n      0x04\n      dup1\n      calldatasize\n      sub\n      dup2\n      add\n      swap1\n      tag_76\n      swap2\n      swap1\n      tag_34\n      jump\t// in\n    tag_76:\n      tag_77\n      jump\t// in\n    tag_75:\n      stop\n        /* \"Staking_flat.sol\":33607:33827  function setRewardRate(uint256 __rewardRate) external onlyOwner {... */\n    tag_18:\n      tag_78\n      0x04\n      dup1\n      calldatasize\n      sub\n      dup2\n      add\n      swap1\n      tag_79\n      swap2\n      swap1\n      tag_34\n      jump\t// in\n    tag_79:\n      tag_80\n      jump\t// in\n    tag_78:\n      stop\n        /* \"Staking_flat.sol\":30632:31201  function stake(uint256 _amount) public{... */\n    tag_19:\n      tag_81\n      0x04\n      dup1\n      calldatasize\n      sub\n      dup2\n      add\n      swap1\n      tag_82\n      swap2\n      swap1\n      tag_34\n      jump\t// in\n    tag_82:\n      tag_83\n      jump\t// in\n    tag_81:\n      stop\n        /* \"Staking_flat.sol\":31411:31542  function getStakerMode(address _address) public view returns (uint256) {... */\n    tag_20:\n      tag_84\n      0x04\n      dup1\n      calldatasize\n      sub\n      dup2\n      add\n      swap1\n      tag_85\n      swap2\n      swap1\n      tag_40\n      jump\t// in\n    tag_85:\n      tag_86\n      jump\t// in\n    tag_84:\n      mload(0x40)\n      tag_87\n      swap2\n      swap1\n      tag_31\n      jump\t// in\n    tag_87:\n      mload(0x40)\n      dup1\n      swap2\n      sub\n      swap1\n      return\n        /* \"Staking_flat.sol\":26718:26916  function transferOwnership(address newOwner) public virtual onlyOwner {... */\n    tag_21:\n      tag_88\n      0x04\n      dup1\n      calldatasize\n      sub\n      dup2\n      add\n      swap1\n      tag_89\n      swap2\n      swap1\n      tag_40\n      jump\t// in\n    tag_89:\n      tag_90\n      jump\t// in\n    tag_88:\n      stop\n        /* \"Staking_flat.sol\":32079:32212  function stakedAmount(address _address) public view returns (uint256) {... */\n    tag_22:\n      tag_91\n      0x04\n      dup1\n      calldatasize\n      sub\n      dup2\n      add\n      swap1\n      tag_92\n      swap2\n      swap1\n      tag_40\n      jump\t// in\n    tag_92:\n      tag_93\n      jump\t// in\n    tag_91:\n      mload(0x40)\n      tag_94\n      swap2\n      swap1\n      tag_31\n      jump\t// in\n    tag_94:\n      mload(0x40)\n      dup1\n      swap2\n      sub\n      swap1\n      return\n        /* \"Staking_flat.sol\":28208:28227  IBEP20 public token */\n    tag_23:\n      tag_95\n      tag_96\n      jump\t// in\n    tag_95:\n      mload(0x40)\n      tag_97\n      swap2\n      swap1\n      tag_98\n      jump\t// in\n    tag_97:\n      mload(0x40)\n      dup1\n      swap2\n      sub\n      swap1\n      return\n        /* \"Staking_flat.sol\":31548:31669  function isStartStaking(address _address) public view returns (uint256) {... */\n    tag_24:\n      tag_99\n      0x04\n      dup1\n      calldatasize\n      sub\n      dup2\n      add\n      swap1\n      tag_100\n      swap2\n      swap1\n      tag_40\n      jump\t// in\n    tag_100:\n      tag_101\n      jump\t// in\n    tag_99:\n      mload(0x40)\n      tag_102\n      swap2\n      swap1\n      tag_31\n      jump\t// in\n    tag_102:\n      mload(0x40)\n      dup1\n      swap2\n      sub\n      swap1\n      return\n        /* \"Staking_flat.sol\":31207:31299  function getTotalStaked() public view returns (uint256) {... */\n    tag_29:\n        /* \"Staking_flat.sol\":31254:31261  uint256 */\n      0x00\n        /* \"Staking_flat.sol\":31281:31292  totalStaked */\n      sload(0x0b)\n        /* \"Staking_flat.sol\":31274:31292  return totalStaked */\n      swap1\n      pop\n        /* \"Staking_flat.sol\":31207:31299  function getTotalStaked() public view returns (uint256) {... */\n      swap1\n      jump\t// out\n        /* \"Staking_flat.sol\":32495:33597  function withdraw(uint256 amount) external{... */\n    tag_35:\n        /* \"Staking_flat.sol\":32573:32574  0 */\n      0x00\n        /* \"Staking_flat.sol\":32564:32570  amount */\n      dup2\n        /* \"Staking_flat.sol\":32564:32574  amount > 0 */\n      gt\n        /* \"Staking_flat.sol\":32556:32610  require(amount > 0, \"Amount should be greater than 0\") */\n      tag_105\n      jumpi\n      mload(0x40)\n      0x08c379a000000000000000000000000000000000000000000000000000000000\n      dup2\n      mstore\n      0x04\n      add\n      tag_106\n      swap1\n      tag_107\n      jump\t// in\n    tag_106:\n      mload(0x40)\n      dup1\n      swap2\n      sub\n      swap1\n      revert\n    tag_105:\n        /* \"Staking_flat.sol\":32638:32645  _staker */\n      0x0a\n        /* \"Staking_flat.sol\":32638:32657  _staker[msg.sender] */\n      0x00\n        /* \"Staking_flat.sol\":32646:32656  msg.sender */\n      caller\n        /* \"Staking_flat.sol\":32638:32657  _staker[msg.sender] */\n      0xffffffffffffffffffffffffffffffffffffffff\n      and\n      0xffffffffffffffffffffffffffffffffffffffff\n      and\n      dup2\n      mstore\n      0x20\n      add\n      swap1\n      dup2\n      mstore\n      0x20\n      add\n      0x00\n      keccak256\n        /* \"Staking_flat.sol\":32638:32670  _staker[msg.sender].stakedAmount */\n      0x01\n      add\n      sload\n        /* \"Staking_flat.sol\":32628:32634  amount */\n      dup2\n        /* \"Staking_flat.sol\":32628:32670  amount <= _staker[msg.sender].stakedAmount */\n      gt\n      iszero\n        /* \"Staking_flat.sol\":32620:32689  require(amount <= _staker[msg.sender].stakedAmount, \"Invalid amount\") */\n      tag_108\n      jumpi\n      mload(0x40)\n      0x08c379a000000000000000000000000000000000000000000000000000000000\n      dup2\n      mstore\n      0x04\n      add\n      tag_109\n      swap1\n      tag_110\n      jump\t// in\n    tag_109:\n      mload(0x40)\n      dup1\n      swap2\n      sub\n      swap1\n      revert\n    tag_108:\n        /* \"Staking_flat.sol\":32700:32714  updateReward() */\n      tag_111\n        /* \"Staking_flat.sol\":32700:32712  updateReward */\n      tag_112\n        /* \"Staking_flat.sol\":32700:32714  updateReward() */\n      jump\t// in\n    tag_111:\n        /* \"Staking_flat.sol\":32724:32751  uint256 amountTobeWithdrawn */\n      0x00\n        /* \"Staking_flat.sol\":32754:32760  amount */\n      dup2\n        /* \"Staking_flat.sol\":32724:32760  uint256 amountTobeWithdrawn = amount */\n      swap1\n      pop\n        /* \"Staking_flat.sol\":32770:32784  uint256 during */\n      0x00\n        /* \"Staking_flat.sol\":32787:32854  block.timestamp.sub(_staker[msg.sender].stakeStartTime).div(1 days) */\n      tag_113\n        /* \"Staking_flat.sol\":32847:32853  1 days */\n      0x015180\n        /* \"Staking_flat.sol\":32787:32842  block.timestamp.sub(_staker[msg.sender].stakeStartTime) */\n      tag_114\n        /* \"Staking_flat.sol\":32807:32814  _staker */\n      0x0a\n        /* \"Staking_flat.sol\":32807:32826  _staker[msg.sender] */\n      0x00\n        /* \"Staking_flat.sol\":32815:32825  msg.sender */\n      caller\n        /* \"Staking_flat.sol\":32807:32826  _staker[msg.sender] */\n      0xffffffffffffffffffffffffffffffffffffffff\n      and\n      0xffffffffffffffffffffffffffffffffffffffff\n      and\n      dup2\n      mstore\n      0x20\n      add\n      swap1\n      dup2\n      mstore\n      0x20\n      add\n      0x00\n      keccak256\n        /* \"Staking_flat.sol\":32807:32841  _staker[msg.sender].stakeStartTime */\n      0x03\n      add\n      sload\n        /* \"Staking_flat.sol\":32787:32802  block.timestamp */\n      timestamp\n        /* \"Staking_flat.sol\":32787:32806  block.timestamp.sub */\n      tag_115\n      swap1\n        /* \"Staking_flat.sol\":32787:32842  block.timestamp.sub(_staker[msg.sender].stakeStartTime) */\n      swap2\n      swap1\n      0xffffffff\n      and\n      jump\t// in\n    tag_114:\n        /* \"Staking_flat.sol\":32787:32846  block.timestamp.sub(_staker[msg.sender].stakeStartTime).div */\n      tag_116\n      swap1\n        /* \"Staking_flat.sol\":32787:32854  block.timestamp.sub(_staker[msg.sender].stakeStartTime).div(1 days) */\n      swap2\n      swap1\n      0xffffffff\n      and\n      jump\t// in\n    tag_113:\n        /* \"Staking_flat.sol\":32770:32854  uint256 during = block.timestamp.sub(_staker[msg.sender].stakeStartTime).div(1 days) */\n      swap1\n      pop\n        /* \"Staking_flat.sol\":32864:32875  uint256 fee */\n      0x00\n        /* \"Staking_flat.sol\":32878:32881  100 */\n      0x64\n        /* \"Staking_flat.sol\":32864:32881  uint256 fee = 100 */\n      swap1\n      pop\n        /* \"Staking_flat.sol\":32891:32912  bool isLockupTimeOver */\n      0x00\n        /* \"Staking_flat.sol\":32943:32944  0 */\n      dup1\n        /* \"Staking_flat.sol\":32915:32922  _staker */\n      0x0a\n        /* \"Staking_flat.sol\":32915:32934  _staker[msg.sender] */\n      0x00\n        /* \"Staking_flat.sol\":32923:32933  msg.sender */\n      caller\n        /* \"Staking_flat.sol\":32915:32934  _staker[msg.sender] */\n      0xffffffffffffffffffffffffffffffffffffffff\n      and\n      0xffffffffffffffffffffffffffffffffffffffff\n      and\n      dup2\n      mstore\n      0x20\n      add\n      swap1\n      dup2\n      mstore\n      0x20\n      add\n      0x00\n      keccak256\n        /* \"Staking_flat.sol\":32915:32939  _staker[msg.sender].mode */\n      0x02\n      add\n      sload\n        /* \"Staking_flat.sol\":32915:32944  _staker[msg.sender].mode != 0 */\n      eq\n      iszero\n        /* \"Staking_flat.sol\":32915:33074  _staker[msg.sender].mode != 0 ? during % _eventPeriod == 0 && during > 0 :... */\n      tag_117\n      jumpi\n        /* \"Staking_flat.sol\":33021:33074  _staker[msg.sender].stakeStartTime.add(_lockupPeriod) */\n      tag_118\n        /* \"Staking_flat.sol\":33060:33073  _lockupPeriod */\n      sload(0x05)\n        /* \"Staking_flat.sol\":33021:33028  _staker */\n      0x0a\n        /* \"Staking_flat.sol\":33021:33040  _staker[msg.sender] */\n      0x00\n        /* \"Staking_flat.sol\":33029:33039  msg.sender */\n      caller\n        /* \"Staking_flat.sol\":33021:33040  _staker[msg.sender] */\n      0xffffffffffffffffffffffffffffffffffffffff\n      and\n      0xffffffffffffffffffffffffffffffffffffffff\n      and\n      dup2\n      mstore\n      0x20\n      add\n      swap1\n      dup2\n      mstore\n      0x20\n      add\n      0x00\n      keccak256\n        /* \"Staking_flat.sol\":33021:33055  _staker[msg.sender].stakeStartTime */\n      0x03\n      add\n      sload\n        /* \"Staking_flat.sol\":33021:33059  _staker[msg.sender].stakeStartTime.add */\n      tag_119\n      swap1\n        /* \"Staking_flat.sol\":33021:33074  _staker[msg.sender].stakeStartTime.add(_lockupPeriod) */\n      swap2\n      swap1\n      0xffffffff\n      and\n      jump\t// in\n    tag_118:\n        /* \"Staking_flat.sol\":33002:33017  block.timestamp */\n      timestamp\n        /* \"Staking_flat.sol\":33002:33074  block.timestamp >= _staker[msg.sender].stakeStartTime.add(_lockupPeriod) */\n      lt\n      iszero\n        /* \"Staking_flat.sol\":32915:33074  _staker[msg.sender].mode != 0 ? during % _eventPeriod == 0 && during > 0 :... */\n      jump(tag_120)\n    tag_117:\n        /* \"Staking_flat.sol\":32972:32973  0 */\n      0x00\n        /* \"Staking_flat.sol\":32956:32968  _eventPeriod */\n      sload(0x02)\n        /* \"Staking_flat.sol\":32947:32953  during */\n      dup5\n        /* \"Staking_flat.sol\":32947:32968  during % _eventPeriod */\n      tag_121\n      swap2\n      swap1\n      tag_122\n      jump\t// in\n    tag_121:\n        /* \"Staking_flat.sol\":32947:32973  during % _eventPeriod == 0 */\n      eq\n        /* \"Staking_flat.sol\":32947:32987  during % _eventPeriod == 0 && during > 0 */\n      dup1\n      iszero\n      tag_123\n      jumpi\n      pop\n        /* \"Staking_flat.sol\":32986:32987  0 */\n      0x00\n        /* \"Staking_flat.sol\":32977:32983  during */\n      dup4\n        /* \"Staking_flat.sol\":32977:32987  during > 0 */\n      gt\n        /* \"Staking_flat.sol\":32947:32987  during % _eventPeriod == 0 && during > 0 */\n    tag_123:\n        /* \"Staking_flat.sol\":32915:33074  _staker[msg.sender].mode != 0 ? during % _eventPeriod == 0 && during > 0 :... */\n    tag_120:\n        /* \"Staking_flat.sol\":32891:33074  bool isLockupTimeOver = _staker[msg.sender].mode != 0 ? during % _eventPeriod == 0 && during > 0 :... */\n      swap1\n      pop\n        /* \"Staking_flat.sol\":33089:33105  isLockupTimeOver */\n      dup1\n        /* \"Staking_flat.sol\":33084:33155  if (!isLockupTimeOver) {... */\n      tag_124\n      jumpi\n        /* \"Staking_flat.sol\":33127:33144  _unstakingFeeRate */\n      sload(0x01)\n        /* \"Staking_flat.sol\":33121:33144  fee = _unstakingFeeRate */\n      swap2\n      pop\n        /* \"Staking_flat.sol\":33084:33155  if (!isLockupTimeOver) {... */\n    tag_124:\n        /* \"Staking_flat.sol\":33186:33248  amountTobeWithdrawn.sub(amountTobeWithdrawn.mul(fee).div(1e4)) */\n      tag_125\n        /* \"Staking_flat.sol\":33210:33247  amountTobeWithdrawn.mul(fee).div(1e4) */\n      tag_126\n        /* \"Staking_flat.sol\":33243:33246  1e4 */\n      0x2710\n        /* \"Staking_flat.sol\":33210:33238  amountTobeWithdrawn.mul(fee) */\n      tag_127\n        /* \"Staking_flat.sol\":33234:33237  fee */\n      dup6\n        /* \"Staking_flat.sol\":33210:33229  amountTobeWithdrawn */\n      dup9\n        /* \"Staking_flat.sol\":33210:33233  amountTobeWithdrawn.mul */\n      tag_128\n      swap1\n        /* \"Staking_flat.sol\":33210:33238  amountTobeWithdrawn.mul(fee) */\n      swap2\n      swap1\n      0xffffffff\n      and\n      jump\t// in\n    tag_127:\n        /* \"Staking_flat.sol\":33210:33242  amountTobeWithdrawn.mul(fee).div */\n      tag_116\n      swap1\n        /* \"Staking_flat.sol\":33210:33247  amountTobeWithdrawn.mul(fee).div(1e4) */\n      swap2\n      swap1\n      0xffffffff\n      and\n      jump\t// in\n    tag_126:\n        /* \"Staking_flat.sol\":33186:33205  amountTobeWithdrawn */\n      dup6\n        /* \"Staking_flat.sol\":33186:33209  amountTobeWithdrawn.sub */\n      tag_115\n      swap1\n        /* \"Staking_flat.sol\":33186:33248  amountTobeWithdrawn.sub(amountTobeWithdrawn.mul(fee).div(1e4)) */\n      swap2\n      swap1\n      0xffffffff\n      and\n      jump\t// in\n    tag_125:\n        /* \"Staking_flat.sol\":33164:33248  amountTobeWithdrawn = amountTobeWithdrawn.sub(amountTobeWithdrawn.mul(fee).div(1e4)) */\n      swap4\n      pop\n        /* \"Staking_flat.sol\":33272:33308  totalStaked.sub(amountTobeWithdrawn) */\n      tag_129\n        /* \"Staking_flat.sol\":33288:33307  amountTobeWithdrawn */\n      dup5\n        /* \"Staking_flat.sol\":33272:33283  totalStaked */\n      sload(0x0b)\n        /* \"Staking_flat.sol\":33272:33287  totalStaked.sub */\n      tag_115\n      swap1\n        /* \"Staking_flat.sol\":33272:33308  totalStaked.sub(amountTobeWithdrawn) */\n      swap2\n      swap1\n      0xffffffff\n      and\n      jump\t// in\n    tag_129:\n        /* \"Staking_flat.sol\":33258:33269  totalStaked */\n      0x0b\n        /* \"Staking_flat.sol\":33258:33308  totalStaked = totalStaked.sub(amountTobeWithdrawn) */\n      dup2\n      swap1\n      sstore\n      pop\n        /* \"Staking_flat.sol\":33353:33410  _staker[msg.sender].stakedAmount.sub(amountTobeWithdrawn) */\n      tag_130\n        /* \"Staking_flat.sol\":33390:33409  amountTobeWithdrawn */\n      dup5\n        /* \"Staking_flat.sol\":33353:33360  _staker */\n      0x0a\n        /* \"Staking_flat.sol\":33353:33372  _staker[msg.sender] */\n      0x00\n        /* \"Staking_flat.sol\":33361:33371  msg.sender */\n      caller\n        /* \"Staking_flat.sol\":33353:33372  _staker[msg.sender] */\n      0xffffffffffffffffffffffffffffffffffffffff\n      and\n      0xffffffffffffffffffffffffffffffffffffffff\n      and\n      dup2\n      mstore\n      0x20\n      add\n      swap1\n      dup2\n      mstore\n      0x20\n      add\n      0x00\n      keccak256\n        /* \"Staking_flat.sol\":33353:33385  _staker[msg.sender].stakedAmount */\n      0x01\n      add\n      sload\n        /* \"Staking_flat.sol\":33353:33389  _staker[msg.sender].stakedAmount.sub */\n      tag_115\n      swap1\n        /* \"Staking_flat.sol\":33353:33410  _staker[msg.sender].stakedAmount.sub(amountTobeWithdrawn) */\n      swap2\n      swap1\n      0xffffffff\n      and\n      jump\t// in\n    tag_130:\n        /* \"Staking_flat.sol\":33318:33325  _staker */\n      0x0a\n        /* \"Staking_flat.sol\":33318:33337  _staker[msg.sender] */\n      0x00\n        /* \"Staking_flat.sol\":33326:33336  msg.sender */\n      caller\n        /* \"Staking_flat.sol\":33318:33337  _staker[msg.sender] */\n      0xffffffffffffffffffffffffffffffffffffffff\n      and\n      0xffffffffffffffffffffffffffffffffffffffff\n      and\n      dup2\n      mstore\n      0x20\n      add\n      swap1\n      dup2\n      mstore\n      0x20\n      add\n      0x00\n      keccak256\n        /* \"Staking_flat.sol\":33318:33350  _staker[msg.sender].stakedAmount */\n      0x01\n      add\n        /* \"Staking_flat.sol\":33318:33410  _staker[msg.sender].stakedAmount = _staker[msg.sender].stakedAmount.sub(amountTobeWithdrawn) */\n      dup2\n      swap1\n      sstore\n      pop\n        /* \"Staking_flat.sol\":33420:33471  token.safeTransfer(msg.sender, amountTobeWithdrawn) */\n      tag_131\n        /* \"Staking_flat.sol\":33439:33449  msg.sender */\n      caller\n        /* \"Staking_flat.sol\":33451:33470  amountTobeWithdrawn */\n      dup6\n        /* \"Staking_flat.sol\":33420:33425  token */\n      0x0c\n      0x00\n      swap1\n      sload\n      swap1\n      0x0100\n      exp\n      swap1\n      div\n      0xffffffffffffffffffffffffffffffffffffffff\n      and\n        /* \"Staking_flat.sol\":33420:33438  token.safeTransfer */\n      0xffffffffffffffffffffffffffffffffffffffff\n      and\n      tag_132\n      swap1\n        /* \"Staking_flat.sol\":33420:33471  token.safeTransfer(msg.sender, amountTobeWithdrawn) */\n      swap3\n      swap2\n      swap1\n      0xffffffff\n      and\n      jump\t// in\n    tag_131:\n        /* \"Staking_flat.sol\":33487:33528  Withdraw(msg.sender, amountTobeWithdrawn) */\n      0x884edad9ce6fa2440d8a54cc123490eb96d2768479d49ff9c7366125a9424364\n        /* \"Staking_flat.sol\":33496:33506  msg.sender */\n      caller\n        /* \"Staking_flat.sol\":33508:33527  amountTobeWithdrawn */\n      dup6\n        /* \"Staking_flat.sol\":33487:33528  Withdraw(msg.sender, amountTobeWithdrawn) */\n      mload(0x40)\n      tag_133\n      swap3\n      swap2\n      swap1\n      tag_134\n      jump\t// in\n    tag_133:\n      mload(0x40)\n      dup1\n      swap2\n      sub\n      swap1\n      log1\n        /* \"Staking_flat.sol\":32537:33597  {... */\n      pop\n      pop\n      pop\n      pop\n        /* \"Staking_flat.sol\":32495:33597  function withdraw(uint256 amount) external{... */\n      pop\n      jump\t// out\n        /* \"Staking_flat.sol\":34771:35334  function harvest() public{... */\n    tag_37:\n        /* \"Staking_flat.sol\":34815:34829  updateReward() */\n      tag_136\n        /* \"Staking_flat.sol\":34815:34827  updateReward */\n      tag_112\n        /* \"Staking_flat.sol\":34815:34829  updateReward() */\n      jump\t// in\n    tag_136:\n        /* \"Staking_flat.sol\":34839:34860  uint256 rewardToClaim */\n      0x00\n        /* \"Staking_flat.sol\":34863:34976  _staker[msg.sender].stakerCurrentReward.sub(_staker[msg.sender].stakerCurrentReward.mul(_rewardFeeRate).div(1e4)) */\n      tag_137\n        /* \"Staking_flat.sol\":34907:34975  _staker[msg.sender].stakerCurrentReward.mul(_rewardFeeRate).div(1e4) */\n      tag_138\n        /* \"Staking_flat.sol\":34971:34974  1e4 */\n      0x2710\n        /* \"Staking_flat.sol\":34907:34966  _staker[msg.sender].stakerCurrentReward.mul(_rewardFeeRate) */\n      tag_139\n        /* \"Staking_flat.sol\":34951:34965  _rewardFeeRate */\n      sload(0x04)\n        /* \"Staking_flat.sol\":34907:34914  _staker */\n      0x0a\n        /* \"Staking_flat.sol\":34907:34926  _staker[msg.sender] */\n      0x00\n        /* \"Staking_flat.sol\":34915:34925  msg.sender */\n      caller\n        /* \"Staking_flat.sol\":34907:34926  _staker[msg.sender] */\n      0xffffffffffffffffffffffffffffffffffffffff\n      and\n      0xffffffffffffffffffffffffffffffffffffffff\n      and\n      dup2\n      mstore\n      0x20\n      add\n      swap1\n      dup2\n      mstore\n      0x20\n      add\n      0x00\n      keccak256\n        /* \"Staking_flat.sol\":34907:34946  _staker[msg.sender].stakerCurrentReward */\n      0x00\n      add\n      sload\n        /* \"Staking_flat.sol\":34907:34950  _staker[msg.sender].stakerCurrentReward.mul */\n      tag_128\n      swap1\n        /* \"Staking_flat.sol\":34907:34966  _staker[msg.sender].stakerCurrentReward.mul(_rewardFeeRate) */\n      swap2\n      swap1\n      0xffffffff\n      and\n      jump\t// in\n    tag_139:\n        /* \"Staking_flat.sol\":34907:34970  _staker[msg.sender].stakerCurrentReward.mul(_rewardFeeRate).div */\n      tag_116\n      swap1\n        /* \"Staking_flat.sol\":34907:34975  _staker[msg.sender].stakerCurrentReward.mul(_rewardFeeRate).div(1e4) */\n      swap2\n      swap1\n      0xffffffff\n      and\n      jump\t// in\n    tag_138:\n        /* \"Staking_flat.sol\":34863:34870  _staker */\n      0x0a\n        /* \"Staking_flat.sol\":34863:34882  _staker[msg.sender] */\n      0x00\n        /* \"Staking_flat.sol\":34871:34881  msg.sender */\n      caller\n        /* \"Staking_flat.sol\":34863:34882  _staker[msg.sender] */\n      0xffffffffffffffffffffffffffffffffffffffff\n      and\n      0xffffffffffffffffffffffffffffffffffffffff\n      and\n      dup2\n      mstore\n      0x20\n      add\n      swap1\n      dup2\n      mstore\n      0x20\n      add\n      0x00\n      keccak256\n        /* \"Staking_flat.sol\":34863:34902  _staker[msg.sender].stakerCurrentReward */\n      0x00\n      add\n      sload\n        /* \"Staking_flat.sol\":34863:34906  _staker[msg.sender].stakerCurrentReward.sub */\n      tag_115\n      swap1\n        /* \"Staking_flat.sol\":34863:34976  _staker[msg.sender].stakerCurrentReward.sub(_staker[msg.sender].stakerCurrentReward.mul(_rewardFeeRate).div(1e4)) */\n      swap2\n      swap1\n      0xffffffff\n      and\n      jump\t// in\n    tag_137:\n        /* \"Staking_flat.sol\":34839:34976  uint256 rewardToClaim = _staker[msg.sender].stakerCurrentReward.sub(_staker[msg.sender].stakerCurrentReward.mul(_rewardFeeRate).div(1e4)) */\n      swap1\n      pop\n        /* \"Staking_flat.sol\":35019:35020  0 */\n      0x00\n        /* \"Staking_flat.sol\":35003:35016  rewardToClaim */\n      dup2\n        /* \"Staking_flat.sol\":35003:35020  rewardToClaim > 0 */\n      gt\n        /* \"Staking_flat.sol\":34995:35041  require(rewardToClaim > 0, \"Nothing to claim\") */\n      tag_140\n      jumpi\n      mload(0x40)\n      0x08c379a000000000000000000000000000000000000000000000000000000000\n      dup2\n      mstore\n      0x04\n      add\n      tag_141\n      swap1\n      tag_142\n      jump\t// in\n    tag_141:\n      mload(0x40)\n      dup1\n      swap2\n      sub\n      swap1\n      revert\n    tag_140:\n        /* \"Staking_flat.sol\":35071:35076  token */\n      0x0c\n      0x00\n      swap1\n      sload\n      swap1\n      0x0100\n      exp\n      swap1\n      div\n      0xffffffffffffffffffffffffffffffffffffffff\n      and\n        /* \"Staking_flat.sol\":35071:35086  token.balanceOf */\n      0xffffffffffffffffffffffffffffffffffffffff\n      and\n      0x70a08231\n        /* \"Staking_flat.sol\":35095:35099  this */\n      address\n        /* \"Staking_flat.sol\":35071:35101  token.balanceOf(address(this)) */\n      mload(0x40)\n      dup3\n      0xffffffff\n      and\n      0xe0\n      shl\n      dup2\n      mstore\n      0x04\n      add\n      tag_143\n      swap2\n      swap1\n      tag_74\n      jump\t// in\n    tag_143:\n      0x20\n      mload(0x40)\n      dup1\n      dup4\n      sub\n      dup2\n      dup7\n      gas\n      staticcall\n      iszero\n      dup1\n      iszero\n      tag_145\n      jumpi\n      returndatasize\n      0x00\n      dup1\n      returndatacopy\n      revert(0x00, returndatasize)\n    tag_145:\n      pop\n      pop\n      pop\n      pop\n      mload(0x40)\n      returndatasize\n      not(0x1f)\n      0x1f\n      dup3\n      add\n      and\n      dup3\n      add\n      dup1\n      0x40\n      mstore\n      pop\n      dup2\n      add\n      swap1\n      tag_146\n      swap2\n      swap1\n      tag_147\n      jump\t// in\n    tag_146:\n        /* \"Staking_flat.sol\":35055:35068  rewardToClaim */\n      dup2\n        /* \"Staking_flat.sol\":35055:35101  rewardToClaim > token.balanceOf(address(this)) */\n      gt\n        /* \"Staking_flat.sol\":35051:35161  if (rewardToClaim > token.balanceOf(address(this)))... */\n      iszero\n      tag_148\n      jumpi\n        /* \"Staking_flat.sol\":35131:35136  token */\n      0x0c\n      0x00\n      swap1\n      sload\n      swap1\n      0x0100\n      exp\n      swap1\n      div\n      0xffffffffffffffffffffffffffffffffffffffff\n      and\n        /* \"Staking_flat.sol\":35131:35146  token.balanceOf */\n      0xffffffffffffffffffffffffffffffffffffffff\n      and\n      0x70a08231\n        /* \"Staking_flat.sol\":35155:35159  this */\n      address\n        /* \"Staking_flat.sol\":35131:35161  token.balanceOf(address(this)) */\n      mload(0x40)\n      dup3\n      0xffffffff\n      and\n      0xe0\n      shl\n      dup2\n      mstore\n      0x04\n      add\n      tag_149\n      swap2\n      swap1\n      tag_74\n      jump\t// in\n    tag_149:\n      0x20\n      mload(0x40)\n      dup1\n      dup4\n      sub\n      dup2\n      dup7\n      gas\n      staticcall\n      iszero\n      dup1\n      iszero\n      tag_151\n      jumpi\n      returndatasize\n      0x00\n      dup1\n      returndatacopy\n      revert(0x00, returndatasize)\n    tag_151:\n      pop\n      pop\n      pop\n      pop\n      mload(0x40)\n      returndatasize\n      not(0x1f)\n      0x1f\n      dup3\n      add\n      and\n      dup3\n      add\n      dup1\n      0x40\n      mstore\n      pop\n      dup2\n      add\n      swap1\n      tag_152\n      swap2\n      swap1\n      tag_147\n      jump\t// in\n    tag_152:\n        /* \"Staking_flat.sol\":35115:35161  rewardToClaim = token.balanceOf(address(this)) */\n      swap1\n      pop\n        /* \"Staking_flat.sol\":35051:35161  if (rewardToClaim > token.balanceOf(address(this)))... */\n    tag_148:\n        /* \"Staking_flat.sol\":35171:35216  token.safeTransfer(msg.sender, rewardToClaim) */\n      tag_153\n        /* \"Staking_flat.sol\":35190:35200  msg.sender */\n      caller\n        /* \"Staking_flat.sol\":35202:35215  rewardToClaim */\n      dup3\n        /* \"Staking_flat.sol\":35171:35176  token */\n      0x0c\n      0x00\n      swap1\n      sload\n      swap1\n      0x0100\n      exp\n      swap1\n      div\n      0xffffffffffffffffffffffffffffffffffffffff\n      and\n        /* \"Staking_flat.sol\":35171:35189  token.safeTransfer */\n      0xffffffffffffffffffffffffffffffffffffffff\n      and\n      tag_132\n      swap1\n        /* \"Staking_flat.sol\":35171:35216  token.safeTransfer(msg.sender, rewardToClaim) */\n      swap3\n      swap2\n      swap1\n      0xffffffff\n      and\n      jump\t// in\n    tag_153:\n        /* \"Staking_flat.sol\":35268:35269  0 */\n      0x00\n        /* \"Staking_flat.sol\":35226:35233  _staker */\n      0x0a\n        /* \"Staking_flat.sol\":35226:35245  _staker[msg.sender] */\n      0x00\n        /* \"Staking_flat.sol\":35234:35244  msg.sender */\n      caller\n        /* \"Staking_flat.sol\":35226:35245  _staker[msg.sender] */\n      0xffffffffffffffffffffffffffffffffffffffff\n      and\n      0xffffffffffffffffffffffffffffffffffffffff\n      and\n      dup2\n      mstore\n      0x20\n      add\n      swap1\n      dup2\n      mstore\n      0x20\n      add\n      0x00\n      keccak256\n        /* \"Staking_flat.sol\":35226:35265  _staker[msg.sender].stakerCurrentReward */\n      0x00\n      add\n        /* \"Staking_flat.sol\":35226:35269  _staker[msg.sender].stakerCurrentReward = 0 */\n      dup2\n      swap1\n      sstore\n      pop\n        /* \"Staking_flat.sol\":35293:35327  Harvest(msg.sender, rewardToClaim) */\n      0xc9695243a805adb74c91f28311176c65b417e842d5699893cef56d18bfa48cba\n        /* \"Staking_flat.sol\":35301:35311  msg.sender */\n      caller\n        /* \"Staking_flat.sol\":35313:35326  rewardToClaim */\n      dup3\n        /* \"Staking_flat.sol\":35293:35327  Harvest(msg.sender, rewardToClaim) */\n      mload(0x40)\n      tag_154\n      swap3\n      swap2\n      swap1\n      tag_134\n      jump\t// in\n    tag_154:\n      mload(0x40)\n      dup1\n      swap2\n      sub\n      swap1\n      log1\n        /* \"Staking_flat.sol\":34796:35334  {... */\n      pop\n        /* \"Staking_flat.sol\":34771:35334  function harvest() public{... */\n      jump\t// out\n        /* \"Staking_flat.sol\":31675:32069  function isLocked(address _address) public view returns (uint256) {... */\n    tag_41:\n        /* \"Staking_flat.sol\":31732:31739  uint256 */\n      0x00\n        /* \"Staking_flat.sol\":31784:31788  0x55 */\n      0x55\n        /* \"Staking_flat.sol\":31756:31763  _staker */\n      0x0a\n        /* \"Staking_flat.sol\":31756:31773  _staker[_address] */\n      0x00\n        /* \"Staking_flat.sol\":31764:31772  _address */\n      dup5\n        /* \"Staking_flat.sol\":31756:31773  _staker[_address] */\n      0xffffffffffffffffffffffffffffffffffffffff\n      and\n      0xffffffffffffffffffffffffffffffffffffffff\n      and\n      dup2\n      mstore\n      0x20\n      add\n      swap1\n      dup2\n      mstore\n      0x20\n      add\n      0x00\n      keccak256\n        /* \"Staking_flat.sol\":31756:31780  _staker[_address].staked */\n      0x05\n      add\n      sload\n        /* \"Staking_flat.sol\":31756:31788  _staker[_address].staked != 0x55 */\n      eq\n        /* \"Staking_flat.sol\":31752:31810  if (_staker[_address].staked != 0x55)... */\n      tag_156\n      jumpi\n        /* \"Staking_flat.sol\":31809:31810  1 */\n      0x01\n        /* \"Staking_flat.sol\":31802:31810  return 1 */\n      swap1\n      pop\n      jump(tag_155)\n        /* \"Staking_flat.sol\":31752:31810  if (_staker[_address].staked != 0x55)... */\n    tag_156:\n        /* \"Staking_flat.sol\":31850:31851  0 */\n      0x00\n        /* \"Staking_flat.sol\":31824:31831  _staker */\n      0x0a\n        /* \"Staking_flat.sol\":31824:31841  _staker[_address] */\n      0x00\n        /* \"Staking_flat.sol\":31832:31840  _address */\n      dup5\n        /* \"Staking_flat.sol\":31824:31841  _staker[_address] */\n      0xffffffffffffffffffffffffffffffffffffffff\n      and\n      0xffffffffffffffffffffffffffffffffffffffff\n      and\n      dup2\n      mstore\n      0x20\n      add\n      swap1\n      dup2\n      mstore\n      0x20\n      add\n      0x00\n      keccak256\n        /* \"Staking_flat.sol\":31824:31846  _staker[_address].mode */\n      0x02\n      add\n      sload\n        /* \"Staking_flat.sol\":31824:31851  _staker[_address].mode != 0 */\n      eq\n        /* \"Staking_flat.sol\":31820:32062  if (_staker[_address].mode != 0)... */\n      tag_157\n      jumpi\n        /* \"Staking_flat.sol\":31940:31941  0 */\n      0x00\n        /* \"Staking_flat.sol\":31929:31935  7 days */\n      0x093a80\n        /* \"Staking_flat.sol\":31872:31925  block.timestamp.sub(_staker[_address].stakeStartTime) */\n      tag_158\n        /* \"Staking_flat.sol\":31892:31899  _staker */\n      0x0a\n        /* \"Staking_flat.sol\":31892:31909  _staker[_address] */\n      0x00\n        /* \"Staking_flat.sol\":31900:31908  _address */\n      dup7\n        /* \"Staking_flat.sol\":31892:31909  _staker[_address] */\n      0xffffffffffffffffffffffffffffffffffffffff\n      and\n      0xffffffffffffffffffffffffffffffffffffffff\n      and\n      dup2\n      mstore\n      0x20\n      add\n      swap1\n      dup2\n      mstore\n      0x20\n      add\n      0x00\n      keccak256\n        /* \"Staking_flat.sol\":31892:31924  _staker[_address].stakeStartTime */\n      0x03\n      add\n      sload\n        /* \"Staking_flat.sol\":31872:31887  block.timestamp */\n      timestamp\n        /* \"Staking_flat.sol\":31872:31891  block.timestamp.sub */\n      tag_115\n      swap1\n        /* \"Staking_flat.sol\":31872:31925  block.timestamp.sub(_staker[_address].stakeStartTime) */\n      swap2\n      swap1\n      0xffffffff\n      and\n      jump\t// in\n    tag_158:\n        /* \"Staking_flat.sol\":31872:31936  block.timestamp.sub(_staker[_address].stakeStartTime) % (7 days) */\n      tag_159\n      swap2\n      swap1\n      tag_122\n      jump\t// in\n    tag_159:\n        /* \"Staking_flat.sol\":31872:31941  block.timestamp.sub(_staker[_address].stakeStartTime) % (7 days) == 0 */\n      eq\n        /* \"Staking_flat.sol\":31872:31949  block.timestamp.sub(_staker[_address].stakeStartTime) % (7 days) == 0 ? 0 : 1 */\n      tag_160\n      jumpi\n        /* \"Staking_flat.sol\":31948:31949  1 */\n      0x01\n        /* \"Staking_flat.sol\":31872:31949  block.timestamp.sub(_staker[_address].stakeStartTime) % (7 days) == 0 ? 0 : 1 */\n      jump(tag_161)\n    tag_160:\n        /* \"Staking_flat.sol\":31944:31945  0 */\n      0x00\n        /* \"Staking_flat.sol\":31872:31949  block.timestamp.sub(_staker[_address].stakeStartTime) % (7 days) == 0 ? 0 : 1 */\n    tag_161:\n        /* \"Staking_flat.sol\":31865:31949  return block.timestamp.sub(_staker[_address].stakeStartTime) % (7 days) == 0 ? 0 : 1 */\n      0xff\n      and\n      swap1\n      pop\n      jump(tag_155)\n        /* \"Staking_flat.sol\":31820:32062  if (_staker[_address].mode != 0)... */\n    tag_157:\n        /* \"Staking_flat.sol\":32041:32054  _lockupPeriod */\n      sload(0x05)\n        /* \"Staking_flat.sol\":31984:32037  block.timestamp.sub(_staker[_address].stakeStartTime) */\n      tag_163\n        /* \"Staking_flat.sol\":32004:32011  _staker */\n      0x0a\n        /* \"Staking_flat.sol\":32004:32021  _staker[_address] */\n      0x00\n        /* \"Staking_flat.sol\":32012:32020  _address */\n      dup6\n        /* \"Staking_flat.sol\":32004:32021  _staker[_address] */\n      0xffffffffffffffffffffffffffffffffffffffff\n      and\n      0xffffffffffffffffffffffffffffffffffffffff\n      and\n      dup2\n      mstore\n      0x20\n      add\n      swap1\n      dup2\n      mstore\n      0x20\n      add\n      0x00\n      keccak256\n        /* \"Staking_flat.sol\":32004:32036  _staker[_address].stakeStartTime */\n      0x03\n      add\n      sload\n        /* \"Staking_flat.sol\":31984:31999  block.timestamp */\n      timestamp\n        /* \"Staking_flat.sol\":31984:32003  block.timestamp.sub */\n      tag_115\n      swap1\n        /* \"Staking_flat.sol\":31984:32037  block.timestamp.sub(_staker[_address].stakeStartTime) */\n      swap2\n      swap1\n      0xffffffff\n      and\n      jump\t// in\n    tag_163:\n        /* \"Staking_flat.sol\":31984:32054  block.timestamp.sub(_staker[_address].stakeStartTime) >= _lockupPeriod */\n      lt\n      iszero\n        /* \"Staking_flat.sol\":31984:32062  block.timestamp.sub(_staker[_address].stakeStartTime) >= _lockupPeriod ? 0 : 1 */\n      tag_164\n      jumpi\n        /* \"Staking_flat.sol\":32061:32062  1 */\n      0x01\n        /* \"Staking_flat.sol\":31984:32062  block.timestamp.sub(_staker[_address].stakeStartTime) >= _lockupPeriod ? 0 : 1 */\n      jump(tag_165)\n    tag_164:\n        /* \"Staking_flat.sol\":32057:32058  0 */\n      0x00\n        /* \"Staking_flat.sol\":31984:32062  block.timestamp.sub(_staker[_address].stakeStartTime) >= _lockupPeriod ? 0 : 1 */\n    tag_165:\n        /* \"Staking_flat.sol\":31977:32062  return block.timestamp.sub(_staker[_address].stakeStartTime) >= _lockupPeriod ? 0 : 1 */\n      0xff\n      and\n      swap1\n      pop\n        /* \"Staking_flat.sol\":31675:32069  function isLocked(address _address) public view returns (uint256) {... */\n    tag_155:\n      swap2\n      swap1\n      pop\n      jump\t// out\n        /* \"Staking_flat.sol\":34353:34518  function setLockupTime(uint256 lockupTime) external onlyOwner {... */\n    tag_45:\n        /* \"Staking_flat.sol\":26059:26071  _msgSender() */\n      tag_167\n        /* \"Staking_flat.sol\":26059:26069  _msgSender */\n      tag_168\n        /* \"Staking_flat.sol\":26059:26071  _msgSender() */\n      jump\t// in\n    tag_167:\n        /* \"Staking_flat.sol\":26048:26071  owner() == _msgSender() */\n      0xffffffffffffffffffffffffffffffffffffffff\n      and\n        /* \"Staking_flat.sol\":26048:26055  owner() */\n      tag_169\n        /* \"Staking_flat.sol\":26048:26053  owner */\n      tag_72\n        /* \"Staking_flat.sol\":26048:26055  owner() */\n      jump\t// in\n    tag_169:\n        /* \"Staking_flat.sol\":26048:26071  owner() == _msgSender() */\n      0xffffffffffffffffffffffffffffffffffffffff\n      and\n      eq\n        /* \"Staking_flat.sol\":26040:26108  require(owner() == _msgSender(), \"Ownable: caller is not the owner\") */\n      tag_170\n      jumpi\n      mload(0x40)\n      0x08c379a000000000000000000000000000000000000000000000000000000000\n      dup2\n      mstore\n      0x04\n      add\n      tag_171\n      swap1\n      tag_172\n      jump\t// in\n    tag_171:\n      mload(0x40)\n      dup1\n      swap2\n      sub\n      swap1\n      revert\n    tag_170:\n        /* \"Staking_flat.sol\":34447:34448  0 */\n      0x00\n        /* \"Staking_flat.sol\":34434:34444  lockupTime */\n      dup2\n        /* \"Staking_flat.sol\":34434:34448  lockupTime > 0 */\n      gt\n        /* \"Staking_flat.sol\":34426:34466  require(lockupTime > 0, \"Can't be zero\") */\n      tag_174\n      jumpi\n      mload(0x40)\n      0x08c379a000000000000000000000000000000000000000000000000000000000\n      dup2\n      mstore\n      0x04\n      add\n      tag_175\n      swap1\n      tag_176\n      jump\t// in\n    tag_175:\n      mload(0x40)\n      dup1\n      swap2\n      sub\n      swap1\n      revert\n    tag_174:\n        /* \"Staking_flat.sol\":34501:34511  lockupTime */\n      dup1\n        /* \"Staking_flat.sol\":34485:34498  _lockupPeriod */\n      0x05\n        /* \"Staking_flat.sol\":34485:34511  _lockupPeriod = lockupTime */\n      dup2\n      swap1\n      sstore\n      pop\n        /* \"Staking_flat.sol\":34353:34518  function setLockupTime(uint256 lockupTime) external onlyOwner {... */\n      pop\n      jump\t// out\n        /* \"Staking_flat.sol\":29705:30567  function startStaking(uint256 _amount, uint256 _mode) external {... */\n    tag_49:\n        /* \"Staking_flat.sol\":29805:29806  0 */\n      0x00\n        /* \"Staking_flat.sol\":29795:29802  _amount */\n      dup3\n        /* \"Staking_flat.sol\":29795:29806  _amount > 0 */\n      gt\n        /* \"Staking_flat.sol\":29787:29842  require(_amount > 0, \"Amount should be greater than 0\") */\n      tag_178\n      jumpi\n      mload(0x40)\n      0x08c379a000000000000000000000000000000000000000000000000000000000\n      dup2\n      mstore\n      0x04\n      add\n      tag_179\n      swap1\n      tag_107\n      jump\t// in\n    tag_179:\n      mload(0x40)\n      dup1\n      swap2\n      sub\n      swap1\n      revert\n    tag_178:\n        /* \"Staking_flat.sol\":29890:29897  _amount */\n      dup2\n        /* \"Staking_flat.sol\":29860:29865  token */\n      0x0c\n      0x00\n      swap1\n      sload\n      swap1\n      0x0100\n      exp\n      swap1\n      div\n      0xffffffffffffffffffffffffffffffffffffffff\n      and\n        /* \"Staking_flat.sol\":29860:29875  token.balanceOf */\n      0xffffffffffffffffffffffffffffffffffffffff\n      and\n      0x70a08231\n        /* \"Staking_flat.sol\":29876:29886  msg.sender */\n      caller\n        /* \"Staking_flat.sol\":29860:29887  token.balanceOf(msg.sender) */\n      mload(0x40)\n      dup3\n      0xffffffff\n      and\n      0xe0\n      shl\n      dup2\n      mstore\n      0x04\n      add\n      tag_180\n      swap2\n      swap1\n      tag_74\n      jump\t// in\n    tag_180:\n      0x20\n      mload(0x40)\n      dup1\n      dup4\n      sub\n      dup2\n      dup7\n      gas\n      staticcall\n      iszero\n      dup1\n      iszero\n      tag_182\n      jumpi\n      returndatasize\n      0x00\n      dup1\n      returndatacopy\n      revert(0x00, returndatasize)\n    tag_182:\n      pop\n      pop\n      pop\n      pop\n      mload(0x40)\n      returndatasize\n      not(0x1f)\n      0x1f\n      dup3\n      add\n      and\n      dup3\n      add\n      dup1\n      0x40\n      mstore\n      pop\n      dup2\n      add\n      swap1\n      tag_183\n      swap2\n      swap1\n      tag_147\n      jump\t// in\n    tag_183:\n        /* \"Staking_flat.sol\":29860:29897  token.balanceOf(msg.sender) > _amount */\n      gt\n        /* \"Staking_flat.sol\":29852:29915  require(token.balanceOf(msg.sender) > _amount, \"Insufficient!\") */\n      tag_184\n      jumpi\n      mload(0x40)\n      0x08c379a000000000000000000000000000000000000000000000000000000000\n      dup2\n      mstore\n      0x04\n      add\n      tag_185\n      swap1\n      tag_186\n      jump\t// in\n    tag_185:\n      mload(0x40)\n      dup1\n      swap2\n      sub\n      swap1\n      revert\n    tag_184:\n        /* \"Staking_flat.sol\":29963:29967  0x55 */\n      0x55\n        /* \"Staking_flat.sol\":29933:29940  _staker */\n      0x0a\n        /* \"Staking_flat.sol\":29933:29952  _staker[msg.sender] */\n      0x00\n        /* \"Staking_flat.sol\":29941:29951  msg.sender */\n      caller\n        /* \"Staking_flat.sol\":29933:29952  _staker[msg.sender] */\n      0xffffffffffffffffffffffffffffffffffffffff\n      and\n      0xffffffffffffffffffffffffffffffffffffffff\n      and\n      dup2\n      mstore\n      0x20\n      add\n      swap1\n      dup2\n      mstore\n      0x20\n      add\n      0x00\n      keccak256\n        /* \"Staking_flat.sol\":29933:29959  _staker[msg.sender].staked */\n      0x05\n      add\n      sload\n        /* \"Staking_flat.sol\":29933:29967  _staker[msg.sender].staked != 0x55 */\n      eq\n      iszero\n        /* \"Staking_flat.sol\":29925:29987  require(_staker[msg.sender].staked != 0x55, \"Already started\") */\n      tag_187\n      jumpi\n      mload(0x40)\n      0x08c379a000000000000000000000000000000000000000000000000000000000\n      dup2\n      mstore\n      0x04\n      add\n      tag_188\n      swap1\n      tag_189\n      jump\t// in\n    tag_188:\n      mload(0x40)\n      dup1\n      swap2\n      sub\n      swap1\n      revert\n    tag_187:\n        /* \"Staking_flat.sol\":30019:30020  0 */\n      0x00\n        /* \"Staking_flat.sol\":30010:30015  _mode */\n      dup2\n        /* \"Staking_flat.sol\":30010:30020  _mode == 0 */\n      eq\n        /* \"Staking_flat.sol\":30006:30345  if (_mode == 0) require(_amount > 0);... */\n      iszero\n      tag_190\n      jumpi\n        /* \"Staking_flat.sol\":30040:30041  0 */\n      0x00\n        /* \"Staking_flat.sol\":30030:30037  _amount */\n      dup3\n        /* \"Staking_flat.sol\":30030:30041  _amount > 0 */\n      gt\n        /* \"Staking_flat.sol\":30022:30042  require(_amount > 0) */\n      tag_191\n      jumpi\n      0x00\n      dup1\n      revert\n    tag_191:\n        /* \"Staking_flat.sol\":30006:30345  if (_mode == 0) require(_amount > 0);... */\n      jump(tag_192)\n    tag_190:\n        /* \"Staking_flat.sol\":30070:30071  1 */\n      0x01\n        /* \"Staking_flat.sol\":30061:30066  _mode */\n      dup2\n        /* \"Staking_flat.sol\":30061:30071  _mode == 1 */\n      eq\n        /* \"Staking_flat.sol\":30057:30345  if (_mode == 1) require(_amount >= _minStakeAmount_c, \"Insufficient\");... */\n      iszero\n      tag_193\n      jumpi\n        /* \"Staking_flat.sol\":30092:30109  _minStakeAmount_c */\n      sload(0x08)\n        /* \"Staking_flat.sol\":30081:30088  _amount */\n      dup3\n        /* \"Staking_flat.sol\":30081:30109  _amount >= _minStakeAmount_c */\n      lt\n      iszero\n        /* \"Staking_flat.sol\":30073:30126  require(_amount >= _minStakeAmount_c, \"Insufficient\") */\n      tag_194\n      jumpi\n      mload(0x40)\n      0x08c379a000000000000000000000000000000000000000000000000000000000\n      dup2\n      mstore\n      0x04\n      add\n      tag_195\n      swap1\n      tag_196\n      jump\t// in\n    tag_195:\n      mload(0x40)\n      dup1\n      swap2\n      sub\n      swap1\n      revert\n    tag_194:\n        /* \"Staking_flat.sol\":30057:30345  if (_mode == 1) require(_amount >= _minStakeAmount_c, \"Insufficient\");... */\n      jump(tag_197)\n    tag_193:\n        /* \"Staking_flat.sol\":30154:30155  2 */\n      0x02\n        /* \"Staking_flat.sol\":30145:30150  _mode */\n      dup2\n        /* \"Staking_flat.sol\":30145:30155  _mode == 2 */\n      eq\n        /* \"Staking_flat.sol\":30141:30345  if (_mode == 2) require(_amount >= _minStakeAmount_s, \"Insufficient\");... */\n      iszero\n      tag_198\n      jumpi\n        /* \"Staking_flat.sol\":30176:30193  _minStakeAmount_s */\n      sload(0x07)\n        /* \"Staking_flat.sol\":30165:30172  _amount */\n      dup3\n        /* \"Staking_flat.sol\":30165:30193  _amount >= _minStakeAmount_s */\n      lt\n      iszero\n        /* \"Staking_flat.sol\":30157:30210  require(_amount >= _minStakeAmount_s, \"Insufficient\") */\n      tag_199\n      jumpi\n      mload(0x40)\n      0x08c379a000000000000000000000000000000000000000000000000000000000\n      dup2\n      mstore\n      0x04\n      add\n      tag_200\n      swap1\n      tag_196\n      jump\t// in\n    tag_200:\n      mload(0x40)\n      dup1\n      swap2\n      sub\n      swap1\n      revert\n    tag_199:\n        /* \"Staking_flat.sol\":30141:30345  if (_mode == 2) require(_amount >= _minStakeAmount_s, \"Insufficient\");... */\n      jump(tag_201)\n    tag_198:\n        /* \"Staking_flat.sol\":30238:30239  3 */\n      0x03\n        /* \"Staking_flat.sol\":30229:30234  _mode */\n      dup2\n        /* \"Staking_flat.sol\":30229:30239  _mode == 3 */\n      eq\n        /* \"Staking_flat.sol\":30225:30345  if (_mode == 3) require(_amount >= _minStakeAmount_g, \"Insufficient\");... */\n      iszero\n      tag_202\n      jumpi\n        /* \"Staking_flat.sol\":30260:30277  _minStakeAmount_g */\n      sload(0x06)\n        /* \"Staking_flat.sol\":30249:30256  _amount */\n      dup3\n        /* \"Staking_flat.sol\":30249:30277  _amount >= _minStakeAmount_g */\n      lt\n      iszero\n        /* \"Staking_flat.sol\":30241:30294  require(_amount >= _minStakeAmount_g, \"Insufficient\") */\n      tag_203\n      jumpi\n      mload(0x40)\n      0x08c379a000000000000000000000000000000000000000000000000000000000\n      dup2\n      mstore\n      0x04\n      add\n      tag_204\n      swap1\n      tag_196\n      jump\t// in\n    tag_204:\n      mload(0x40)\n      dup1\n      swap2\n      sub\n      swap1\n      revert\n    tag_203:\n        /* \"Staking_flat.sol\":30225:30345  if (_mode == 3) require(_amount >= _minStakeAmount_g, \"Insufficient\");... */\n      jump(tag_205)\n    tag_202:\n        /* \"Staking_flat.sol\":30327:30328  0 */\n      0x00\n        /* \"Staking_flat.sol\":30317:30324  _amount */\n      dup3\n        /* \"Staking_flat.sol\":30317:30328  _amount < 0 */\n      lt\n        /* \"Staking_flat.sol\":30309:30345  require(_amount < 0, \"Invalid Mode\") */\n      tag_206\n      jumpi\n      mload(0x40)\n      0x08c379a000000000000000000000000000000000000000000000000000000000\n      dup2\n      mstore\n      0x04\n      add\n      tag_207\n      swap1\n      tag_208\n      jump\t// in\n    tag_207:\n      mload(0x40)\n      dup1\n      swap2\n      sub\n      swap1\n      revert\n    tag_206:\n        /* \"Staking_flat.sol\":30225:30345  if (_mode == 3) require(_amount >= _minStakeAmount_g, \"Insufficient\");... */\n    tag_205:\n        /* \"Staking_flat.sol\":30141:30345  if (_mode == 2) require(_amount >= _minStakeAmount_s, \"Insufficient\");... */\n    tag_201:\n        /* \"Staking_flat.sol\":30057:30345  if (_mode == 1) require(_amount >= _minStakeAmount_c, \"Insufficient\");... */\n    tag_197:\n        /* \"Staking_flat.sol\":30006:30345  if (_mode == 0) require(_amount > 0);... */\n    tag_192:\n        /* \"Staking_flat.sol\":30391:30396  _mode */\n      dup1\n        /* \"Staking_flat.sol\":30364:30371  _staker */\n      0x0a\n        /* \"Staking_flat.sol\":30364:30383  _staker[msg.sender] */\n      0x00\n        /* \"Staking_flat.sol\":30372:30382  msg.sender */\n      caller\n        /* \"Staking_flat.sol\":30364:30383  _staker[msg.sender] */\n      0xffffffffffffffffffffffffffffffffffffffff\n      and\n      0xffffffffffffffffffffffffffffffffffffffff\n      and\n      dup2\n      mstore\n      0x20\n      add\n      swap1\n      dup2\n      mstore\n      0x20\n      add\n      0x00\n      keccak256\n        /* \"Staking_flat.sol\":30364:30388  _staker[msg.sender].mode */\n      0x02\n      add\n        /* \"Staking_flat.sol\":30364:30396  _staker[msg.sender].mode = _mode */\n      dup2\n      swap1\n      sstore\n      pop\n        /* \"Staking_flat.sol\":30443:30458  block.timestamp */\n      timestamp\n        /* \"Staking_flat.sol\":30406:30413  _staker */\n      0x0a\n        /* \"Staking_flat.sol\":30406:30425  _staker[msg.sender] */\n      0x00\n        /* \"Staking_flat.sol\":30414:30424  msg.sender */\n      caller\n        /* \"Staking_flat.sol\":30406:30425  _staker[msg.sender] */\n      0xffffffffffffffffffffffffffffffffffffffff\n      and\n      0xffffffffffffffffffffffffffffffffffffffff\n      and\n      dup2\n      mstore\n      0x20\n      add\n      swap1\n      dup2\n      mstore\n      0x20\n      add\n      0x00\n      keccak256\n        /* \"Staking_flat.sol\":30406:30440  _staker[msg.sender].stakeStartTime */\n      0x03\n      add\n        /* \"Staking_flat.sol\":30406:30458  _staker[msg.sender].stakeStartTime = block.timestamp */\n      dup2\n      swap1\n      sstore\n      pop\n        /* \"Staking_flat.sol\":30497:30501  0x55 */\n      0x55\n        /* \"Staking_flat.sol\":30468:30475  _staker */\n      0x0a\n        /* \"Staking_flat.sol\":30468:30487  _staker[msg.sender] */\n      0x00\n        /* \"Staking_flat.sol\":30476:30486  msg.sender */\n      caller\n        /* \"Staking_flat.sol\":30468:30487  _staker[msg.sender] */\n      0xffffffffffffffffffffffffffffffffffffffff\n      and\n      0xffffffffffffffffffffffffffffffffffffffff\n      and\n      dup2\n      mstore\n      0x20\n      add\n      swap1\n      dup2\n      mstore\n      0x20\n      add\n      0x00\n      keccak256\n        /* \"Staking_flat.sol\":30468:30494  _staker[msg.sender].staked */\n      0x05\n      add\n        /* \"Staking_flat.sol\":30468:30501  _staker[msg.sender].staked = 0x55 */\n      dup2\n      swap1\n      sstore\n      pop\n        /* \"Staking_flat.sol\":30511:30519  _stakers */\n      0x09\n        /* \"Staking_flat.sol\":30525:30535  msg.sender */\n      caller\n        /* \"Staking_flat.sol\":30511:30536  _stakers.push(msg.sender) */\n      swap1\n      dup1\n      0x01\n      dup2\n      sload\n      add\n      dup1\n      dup3\n      sstore\n      dup1\n      swap2\n      pop\n      pop\n      0x01\n      swap1\n      sub\n      swap1\n      0x00\n      mstore\n      keccak256(0x00, 0x20)\n      add\n      0x00\n      swap1\n      swap2\n      swap1\n      swap2\n      swap1\n      swap2\n      0x0100\n      exp\n      dup2\n      sload\n      dup2\n      0xffffffffffffffffffffffffffffffffffffffff\n      mul\n      not\n      and\n      swap1\n      dup4\n      0xffffffffffffffffffffffffffffffffffffffff\n      and\n      mul\n      or\n      swap1\n      sstore\n      pop\n        /* \"Staking_flat.sol\":30546:30560  stake(_amount) */\n      tag_210\n        /* \"Staking_flat.sol\":30552:30559  _amount */\n      dup3\n        /* \"Staking_flat.sol\":30546:30551  stake */\n      tag_83\n        /* \"Staking_flat.sol\":30546:30560  stake(_amount) */\n      jump\t// in\n    tag_210:\n        /* \"Staking_flat.sol\":29705:30567  function startStaking(uint256 _amount, uint256 _mode) external {... */\n      pop\n      pop\n      jump\t// out\n        /* \"Staking_flat.sol\":31305:31405  function getNumberofStakers() public view returns (uint256) {... */\n    tag_51:\n        /* \"Staking_flat.sol\":31356:31363  uint256 */\n      0x00\n        /* \"Staking_flat.sol\":31383:31391  _stakers */\n      0x09\n        /* \"Staking_flat.sol\":31383:31398  _stakers.length */\n      dup1\n      sload\n      swap1\n      pop\n        /* \"Staking_flat.sol\":31376:31398  return _stakers.length */\n      swap1\n      pop\n        /* \"Staking_flat.sol\":31305:31405  function getNumberofStakers() public view returns (uint256) {... */\n      swap1\n      jump\t// out\n        /* \"Staking_flat.sol\":34578:34733  function rewardToHarvest() public view returns (uint256){... */\n    tag_54:\n        /* \"Staking_flat.sol\":34626:34633  uint256 */\n      0x00\n        /* \"Staking_flat.sol\":34687:34694  _staker */\n      0x0a\n        /* \"Staking_flat.sol\":34687:34706  _staker[msg.sender] */\n      0x00\n        /* \"Staking_flat.sol\":34695:34705  msg.sender */\n      caller\n        /* \"Staking_flat.sol\":34687:34706  _staker[msg.sender] */\n      0xffffffffffffffffffffffffffffffffffffffff\n      and\n      0xffffffffffffffffffffffffffffffffffffffff\n      and\n      dup2\n      mstore\n      0x20\n      add\n      swap1\n      dup2\n      mstore\n      0x20\n      add\n      0x00\n      keccak256\n        /* \"Staking_flat.sol\":34687:34726  _staker[msg.sender].stakerCurrentReward */\n      0x00\n      add\n      sload\n        /* \"Staking_flat.sol\":34680:34726  return _staker[msg.sender].stakerCurrentReward */\n      swap1\n      pop\n        /* \"Staking_flat.sol\":34578:34733  function rewardToHarvest() public view returns (uint256){... */\n      swap1\n      jump\t// out\n        /* \"Staking_flat.sol\":32222:32354  function rewardAmount(address _address) public view returns (uint256) {... */\n    tag_58:\n        /* \"Staking_flat.sol\":32283:32290  uint256 */\n      0x00\n        /* \"Staking_flat.sol\":32310:32317  _staker */\n      0x0a\n        /* \"Staking_flat.sol\":32310:32327  _staker[_address] */\n      0x00\n        /* \"Staking_flat.sol\":32318:32326  _address */\n      dup4\n        /* \"Staking_flat.sol\":32310:32327  _staker[_address] */\n      0xffffffffffffffffffffffffffffffffffffffff\n      and\n      0xffffffffffffffffffffffffffffffffffffffff\n      and\n      dup2\n      mstore\n      0x20\n      add\n      swap1\n      dup2\n      mstore\n      0x20\n      add\n      0x00\n      keccak256\n        /* \"Staking_flat.sol\":32310:32347  _staker[_address].stakerCurrentReward */\n      0x00\n      add\n      sload\n        /* \"Staking_flat.sol\":32303:32347  return _staker[_address].stakerCurrentReward */\n      swap1\n      pop\n        /* \"Staking_flat.sol\":32222:32354  function rewardAmount(address _address) public view returns (uint256) {... */\n      swap2\n      swap1\n      pop\n      jump\t// out\n        /* \"Staking_flat.sol\":33833:34074  function setEventPeriod(uint256 __eventPeriod) external onlyOwner {... */\n    tag_62:\n        /* \"Staking_flat.sol\":26059:26071  _msgSender() */\n      tag_215\n        /* \"Staking_flat.sol\":26059:26069  _msgSender */\n      tag_168\n        /* \"Staking_flat.sol\":26059:26071  _msgSender() */\n      jump\t// in\n    tag_215:\n        /* \"Staking_flat.sol\":26048:26071  owner() == _msgSender() */\n      0xffffffffffffffffffffffffffffffffffffffff\n      and\n        /* \"Staking_flat.sol\":26048:26055  owner() */\n      tag_216\n        /* \"Staking_flat.sol\":26048:26053  owner */\n      tag_72\n        /* \"Staking_flat.sol\":26048:26055  owner() */\n      jump\t// in\n    tag_216:\n        /* \"Staking_flat.sol\":26048:26071  owner() == _msgSender() */\n      0xffffffffffffffffffffffffffffffffffffffff\n      and\n      eq\n        /* \"Staking_flat.sol\":26040:26108  require(owner() == _msgSender(), \"Ownable: caller is not the owner\") */\n      tag_217\n      jumpi\n      mload(0x40)\n      0x08c379a000000000000000000000000000000000000000000000000000000000\n      dup2\n      mstore\n      0x04\n      add\n      tag_218\n      swap1\n      tag_172\n      jump\t// in\n    tag_218:\n      mload(0x40)\n      dup1\n      swap2\n      sub\n      swap1\n      revert\n    tag_217:\n        /* \"Staking_flat.sol\":33942:33943  0 */\n      0x00\n        /* \"Staking_flat.sol\":33926:33939  __eventPeriod */\n      dup2\n        /* \"Staking_flat.sol\":33926:33943  __eventPeriod > 0 */\n      gt\n        /* \"Staking_flat.sol\":33918:33971  require(__eventPeriod > 0, \"Invalid Lockup Duration\") */\n      tag_220\n      jumpi\n      mload(0x40)\n      0x08c379a000000000000000000000000000000000000000000000000000000000\n      dup2\n      mstore\n      0x04\n      add\n      tag_221\n      swap1\n      tag_222\n      jump\t// in\n    tag_221:\n      mload(0x40)\n      dup1\n      swap2\n      sub\n      swap1\n      revert\n    tag_220:\n        /* \"Staking_flat.sol\":33997:34022  __eventPeriod.mul(1 days) */\n      tag_223\n        /* \"Staking_flat.sol\":34015:34021  1 days */\n      0x015180\n        /* \"Staking_flat.sol\":33997:34010  __eventPeriod */\n      dup3\n        /* \"Staking_flat.sol\":33997:34014  __eventPeriod.mul */\n      tag_128\n      swap1\n        /* \"Staking_flat.sol\":33997:34022  __eventPeriod.mul(1 days) */\n      swap2\n      swap1\n      0xffffffff\n      and\n      jump\t// in\n    tag_223:\n        /* \"Staking_flat.sol\":33982:33994  _eventPeriod */\n      0x02\n        /* \"Staking_flat.sol\":33982:34022  _eventPeriod = __eventPeriod.mul(1 days) */\n      dup2\n      swap1\n      sstore\n      pop\n        /* \"Staking_flat.sol\":34038:34067  SetEventPeriod(__eventPeriod) */\n      0x189bda9782663c67a3f95c0aa5455924c711210b00281c60ead2f0dd8dbc924c\n        /* \"Staking_flat.sol\":34053:34066  __eventPeriod */\n      dup2\n        /* \"Staking_flat.sol\":34038:34067  SetEventPeriod(__eventPeriod) */\n      mload(0x40)\n      tag_224\n      swap2\n      swap1\n      tag_31\n      jump\t// in\n    tag_224:\n      mload(0x40)\n      dup1\n      swap2\n      sub\n      swap1\n      log1\n        /* \"Staking_flat.sol\":33833:34074  function setEventPeriod(uint256 __eventPeriod) external onlyOwner {... */\n      pop\n      jump\t// out\n        /* \"Staking_flat.sol\":26468:26569  function renounceOwnership() public virtual onlyOwner {... */\n    tag_64:\n        /* \"Staking_flat.sol\":26059:26071  _msgSender() */\n      tag_226\n        /* \"Staking_flat.sol\":26059:26069  _msgSender */\n      tag_168\n        /* \"Staking_flat.sol\":26059:26071  _msgSender() */\n      jump\t// in\n    tag_226:\n        /* \"Staking_flat.sol\":26048:26071  owner() == _msgSender() */\n      0xffffffffffffffffffffffffffffffffffffffff\n      and\n        /* \"Staking_flat.sol\":26048:26055  owner() */\n      tag_227\n        /* \"Staking_flat.sol\":26048:26053  owner */\n      tag_72\n        /* \"Staking_flat.sol\":26048:26055  owner() */\n      jump\t// in\n    tag_227:\n        /* \"Staking_flat.sol\":26048:26071  owner() == _msgSender() */\n      0xffffffffffffffffffffffffffffffffffffffff\n      and\n      eq\n        /* \"Staking_flat.sol\":26040:26108  require(owner() == _msgSender(), \"Ownable: caller is not the owner\") */\n      tag_228\n      jumpi\n      mload(0x40)\n      0x08c379a000000000000000000000000000000000000000000000000000000000\n      dup2\n      mstore\n      0x04\n      add\n      tag_229\n      swap1\n      tag_172\n      jump\t// in\n    tag_229:\n      mload(0x40)\n      dup1\n      swap2\n      sub\n      swap1\n      revert\n    tag_228:\n        /* \"Staking_flat.sol\":26532:26562  _transferOwnership(address(0)) */\n      tag_231\n        /* \"Staking_flat.sol\":26559:26560  0 */\n      0x00\n        /* \"Staking_flat.sol\":26532:26550  _transferOwnership */\n      tag_232\n        /* \"Staking_flat.sol\":26532:26562  _transferOwnership(address(0)) */\n      jump\t// in\n    tag_231:\n        /* \"Staking_flat.sol\":26468:26569  function renounceOwnership() public virtual onlyOwner {... */\n      jump\t// out\n        /* \"Staking_flat.sol\":32360:32451  function getRewardRate() public view returns (uint256) {... */\n    tag_66:\n        /* \"Staking_flat.sol\":32406:32413  uint256 */\n      0x00\n        /* \"Staking_flat.sol\":32433:32444  _rewardRate */\n      sload(0x03)\n        /* \"Staking_flat.sol\":32426:32444  return _rewardRate */\n      swap1\n      pop\n        /* \"Staking_flat.sol\":32360:32451  function getRewardRate() public view returns (uint256) {... */\n      swap1\n      jump\t// out\n        /* \"Staking_flat.sol\":28176:28202  uint256 public totalStaked */\n    tag_69:\n      sload(0x0b)\n      dup2\n      jump\t// out\n        /* \"Staking_flat.sol\":25836:25921  function owner() public view virtual returns (address) {... */\n    tag_72:\n        /* \"Staking_flat.sol\":25882:25889  address */\n      0x00\n        /* \"Staking_flat.sol\":25908:25914  _owner */\n      dup1\n      0x00\n      swap1\n      sload\n      swap1\n      0x0100\n      exp\n      swap1\n      div\n      0xffffffffffffffffffffffffffffffffffffffff\n      and\n        /* \"Staking_flat.sol\":25901:25914  return _owner */\n      swap1\n      pop\n        /* \"Staking_flat.sol\":25836:25921  function owner() public view virtual returns (address) {... */\n      swap1\n      jump\t// out\n        /* \"Staking_flat.sol\":34080:34347  function setUnstakingFeeRate(uint256 __unstakingFeeRate) external onlyOwner {... */\n    tag_77:\n        /* \"Staking_flat.sol\":26059:26071  _msgSender() */\n      tag_236\n        /* \"Staking_flat.sol\":26059:26069  _msgSender */\n      tag_168\n        /* \"Staking_flat.sol\":26059:26071  _msgSender() */\n      jump\t// in\n    tag_236:\n        /* \"Staking_flat.sol\":26048:26071  owner() == _msgSender() */\n      0xffffffffffffffffffffffffffffffffffffffff\n      and\n        /* \"Staking_flat.sol\":26048:26055  owner() */\n      tag_237\n        /* \"Staking_flat.sol\":26048:26053  owner */\n      tag_72\n        /* \"Staking_flat.sol\":26048:26055  owner() */\n      jump\t// in\n    tag_237:\n        /* \"Staking_flat.sol\":26048:26071  owner() == _msgSender() */\n      0xffffffffffffffffffffffffffffffffffffffff\n      and\n      eq\n        /* \"Staking_flat.sol\":26040:26108  require(owner() == _msgSender(), \"Ownable: caller is not the owner\") */\n      tag_238\n      jumpi\n      mload(0x40)\n      0x08c379a000000000000000000000000000000000000000000000000000000000\n      dup2\n      mstore\n      0x04\n      add\n      tag_239\n      swap1\n      tag_172\n      jump\t// in\n    tag_239:\n      mload(0x40)\n      dup1\n      swap2\n      sub\n      swap1\n      revert\n    tag_238:\n        /* \"Staking_flat.sol\":34204:34205  0 */\n      0x00\n        /* \"Staking_flat.sol\":34183:34201  __unstakingFeeRate */\n      dup2\n        /* \"Staking_flat.sol\":34183:34205  __unstakingFeeRate > 0 */\n      gt\n        /* \"Staking_flat.sol\":34175:34236  require(__unstakingFeeRate > 0, \"Invalid Unstaking Fee Rate\") */\n      tag_241\n      jumpi\n      mload(0x40)\n      0x08c379a000000000000000000000000000000000000000000000000000000000\n      dup2\n      mstore\n      0x04\n      add\n      tag_242\n      swap1\n      tag_243\n      jump\t// in\n    tag_242:\n      mload(0x40)\n      dup1\n      swap2\n      sub\n      swap1\n      revert\n    tag_241:\n        /* \"Staking_flat.sol\":34267:34285  __unstakingFeeRate */\n      dup1\n        /* \"Staking_flat.sol\":34247:34264  _unstakingFeeRate */\n      0x01\n        /* \"Staking_flat.sol\":34247:34285  _unstakingFeeRate = __unstakingFeeRate */\n      dup2\n      swap1\n      sstore\n      pop\n        /* \"Staking_flat.sol\":34301:34340  SetUnstakingFeeRate(__unstakingFeeRate) */\n      0x150c688dd7595bf7862b8ab1fe46756450eb7d731037942b3bbc46f3f0e21b81\n        /* \"Staking_flat.sol\":34321:34339  __unstakingFeeRate */\n      dup2\n        /* \"Staking_flat.sol\":34301:34340  SetUnstakingFeeRate(__unstakingFeeRate) */\n      mload(0x40)\n      tag_244\n      swap2\n      swap1\n      tag_31\n      jump\t// in\n    tag_244:\n      mload(0x40)\n      dup1\n      swap2\n      sub\n      swap1\n      log1\n        /* \"Staking_flat.sol\":34080:34347  function setUnstakingFeeRate(uint256 __unstakingFeeRate) external onlyOwner {... */\n      pop\n      jump\t// out\n        /* \"Staking_flat.sol\":33607:33827  function setRewardRate(uint256 __rewardRate) external onlyOwner {... */\n    tag_80:\n        /* \"Staking_flat.sol\":26059:26071  _msgSender() */\n      tag_246\n        /* \"Staking_flat.sol\":26059:26069  _msgSender */\n      tag_168\n        /* \"Staking_flat.sol\":26059:26071  _msgSender() */\n      jump\t// in\n    tag_246:\n        /* \"Staking_flat.sol\":26048:26071  owner() == _msgSender() */\n      0xffffffffffffffffffffffffffffffffffffffff\n      and\n        /* \"Staking_flat.sol\":26048:26055  owner() */\n      tag_247\n        /* \"Staking_flat.sol\":26048:26053  owner */\n      tag_72\n        /* \"Staking_flat.sol\":26048:26055  owner() */\n      jump\t// in\n    tag_247:\n        /* \"Staking_flat.sol\":26048:26071  owner() == _msgSender() */\n      0xffffffffffffffffffffffffffffffffffffffff\n      and\n      eq\n        /* \"Staking_flat.sol\":26040:26108  require(owner() == _msgSender(), \"Ownable: caller is not the owner\") */\n      tag_248\n      jumpi\n      mload(0x40)\n      0x08c379a000000000000000000000000000000000000000000000000000000000\n      dup2\n      mstore\n      0x04\n      add\n      tag_249\n      swap1\n      tag_172\n      jump\t// in\n    tag_249:\n      mload(0x40)\n      dup1\n      swap2\n      sub\n      swap1\n      revert\n    tag_248:\n        /* \"Staking_flat.sol\":33713:33714  0 */\n      0x00\n        /* \"Staking_flat.sol\":33698:33710  __rewardRate */\n      dup2\n        /* \"Staking_flat.sol\":33698:33714  __rewardRate > 0 */\n      gt\n        /* \"Staking_flat.sol\":33690:33732  require(__rewardRate > 0, \"Invalid value\") */\n      tag_251\n      jumpi\n      mload(0x40)\n      0x08c379a000000000000000000000000000000000000000000000000000000000\n      dup2\n      mstore\n      0x04\n      add\n      tag_252\n      swap1\n      tag_253\n      jump\t// in\n    tag_252:\n      mload(0x40)\n      dup1\n      swap2\n      sub\n      swap1\n      revert\n    tag_251:\n        /* \"Staking_flat.sol\":33765:33777  __rewardRate */\n      dup1\n        /* \"Staking_flat.sol\":33751:33762  _rewardRate */\n      0x03\n        /* \"Staking_flat.sol\":33751:33777  _rewardRate = __rewardRate */\n      dup2\n      swap1\n      sstore\n      pop\n        /* \"Staking_flat.sol\":33793:33820  SetRewardRate(__rewardRate) */\n      0x1946fb78c7ca778b54d82cabaac5ba67cf446f58d0ff1f8ceaebb6150e54e44f\n        /* \"Staking_flat.sol\":33807:33819  __rewardRate */\n      dup2\n        /* \"Staking_flat.sol\":33793:33820  SetRewardRate(__rewardRate) */\n      mload(0x40)\n      tag_254\n      swap2\n      swap1\n      tag_31\n      jump\t// in\n    tag_254:\n      mload(0x40)\n      dup1\n      swap2\n      sub\n      swap1\n      log1\n        /* \"Staking_flat.sol\":33607:33827  function setRewardRate(uint256 __rewardRate) external onlyOwner {... */\n      pop\n      jump\t// out\n        /* \"Staking_flat.sol\":30632:31201  function stake(uint256 _amount) public{... */\n    tag_83:\n        /* \"Staking_flat.sol\":30707:30708  0 */\n      0x00\n        /* \"Staking_flat.sol\":30697:30704  _amount */\n      dup2\n        /* \"Staking_flat.sol\":30697:30708  _amount > 0 */\n      gt\n        /* \"Staking_flat.sol\":30689:30744  require(_amount > 0, \"Amount should be greater than 0\") */\n      tag_256\n      jumpi\n      mload(0x40)\n      0x08c379a000000000000000000000000000000000000000000000000000000000\n      dup2\n      mstore\n      0x04\n      add\n      tag_257\n      swap1\n      tag_107\n      jump\t// in\n    tag_257:\n      mload(0x40)\n      dup1\n      swap2\n      sub\n      swap1\n      revert\n    tag_256:\n        /* \"Staking_flat.sol\":30792:30799  _amount */\n      dup1\n        /* \"Staking_flat.sol\":30762:30767  token */\n      0x0c\n      0x00\n      swap1\n      sload\n      swap1\n      0x0100\n      exp\n      swap1\n      div\n      0xffffffffffffffffffffffffffffffffffffffff\n      and\n        /* \"Staking_flat.sol\":30762:30777  token.balanceOf */\n      0xffffffffffffffffffffffffffffffffffffffff\n      and\n      0x70a08231\n        /* \"Staking_flat.sol\":30778:30788  msg.sender */\n      caller\n        /* \"Staking_flat.sol\":30762:30789  token.balanceOf(msg.sender) */\n      mload(0x40)\n      dup3\n      0xffffffff\n      and\n      0xe0\n      shl\n      dup2\n      mstore\n      0x04\n      add\n      tag_258\n      swap2\n      swap1\n      tag_74\n      jump\t// in\n    tag_258:\n      0x20\n      mload(0x40)\n      dup1\n      dup4\n      sub\n      dup2\n      dup7\n      gas\n      staticcall\n      iszero\n      dup1\n      iszero\n      tag_260\n      jumpi\n      returndatasize\n      0x00\n      dup1\n      returndatacopy\n      revert(0x00, returndatasize)\n    tag_260:\n      pop\n      pop\n      pop\n      pop\n      mload(0x40)\n      returndatasize\n      not(0x1f)\n      0x1f\n      dup3\n      add\n      and\n      dup3\n      add\n      dup1\n      0x40\n      mstore\n      pop\n      dup2\n      add\n      swap1\n      tag_261\n      swap2\n      swap1\n      tag_147\n      jump\t// in\n    tag_261:\n        /* \"Staking_flat.sol\":30762:30799  token.balanceOf(msg.sender) > _amount */\n      gt\n        /* \"Staking_flat.sol\":30754:30817  require(token.balanceOf(msg.sender) > _amount, \"Insufficient!\") */\n      tag_262\n      jumpi\n      mload(0x40)\n      0x08c379a000000000000000000000000000000000000000000000000000000000\n      dup2\n      mstore\n      0x04\n      add\n      tag_263\n      swap1\n      tag_186\n      jump\t// in\n    tag_263:\n      mload(0x40)\n      dup1\n      swap2\n      sub\n      swap1\n      revert\n    tag_262:\n        /* \"Staking_flat.sol\":30865:30869  0x55 */\n      0x55\n        /* \"Staking_flat.sol\":30835:30842  _staker */\n      0x0a\n        /* \"Staking_flat.sol\":30835:30854  _staker[msg.sender] */\n      0x00\n        /* \"Staking_flat.sol\":30843:30853  msg.sender */\n      caller\n        /* \"Staking_flat.sol\":30835:30854  _staker[msg.sender] */\n      0xffffffffffffffffffffffffffffffffffffffff\n      and\n      0xffffffffffffffffffffffffffffffffffffffff\n      and\n      dup2\n      mstore\n      0x20\n      add\n      swap1\n      dup2\n      mstore\n      0x20\n      add\n      0x00\n      keccak256\n        /* \"Staking_flat.sol\":30835:30861  _staker[msg.sender].staked */\n      0x05\n      add\n      sload\n        /* \"Staking_flat.sol\":30835:30869  _staker[msg.sender].staked == 0x55 */\n      eq\n        /* \"Staking_flat.sol\":30827:30895  require(_staker[msg.sender].staked == 0x55, \"Error: invalid staker\") */\n      tag_264\n      jumpi\n      mload(0x40)\n      0x08c379a000000000000000000000000000000000000000000000000000000000\n      dup2\n      mstore\n      0x04\n      add\n      tag_265\n      swap1\n      tag_266\n      jump\t// in\n    tag_265:\n      mload(0x40)\n      dup1\n      swap2\n      sub\n      swap1\n      revert\n    tag_264:\n        /* \"Staking_flat.sol\":30914:30928  updateReward() */\n      tag_267\n        /* \"Staking_flat.sol\":30914:30926  updateReward */\n      tag_112\n        /* \"Staking_flat.sol\":30914:30928  updateReward() */\n      jump\t// in\n    tag_267:\n        /* \"Staking_flat.sol\":30947:31005  token.safeTransferFrom(msg.sender, address(this), _amount) */\n      tag_268\n        /* \"Staking_flat.sol\":30970:30980  msg.sender */\n      caller\n        /* \"Staking_flat.sol\":30990:30994  this */\n      address\n        /* \"Staking_flat.sol\":30997:31004  _amount */\n      dup4\n        /* \"Staking_flat.sol\":30947:30952  token */\n      0x0c\n      0x00\n      swap1\n      sload\n      swap1\n      0x0100\n      exp\n      swap1\n      div\n      0xffffffffffffffffffffffffffffffffffffffff\n      and\n        /* \"Staking_flat.sol\":30947:30969  token.safeTransferFrom */\n      0xffffffffffffffffffffffffffffffffffffffff\n      and\n      tag_269\n      swap1\n        /* \"Staking_flat.sol\":30947:31005  token.safeTransferFrom(msg.sender, address(this), _amount) */\n      swap4\n      swap3\n      swap2\n      swap1\n      0xffffffff\n      and\n      jump\t// in\n    tag_268:\n        /* \"Staking_flat.sol\":31050:31095  _staker[msg.sender].stakedAmount.add(_amount) */\n      tag_270\n        /* \"Staking_flat.sol\":31087:31094  _amount */\n      dup2\n        /* \"Staking_flat.sol\":31050:31057  _staker */\n      0x0a\n        /* \"Staking_flat.sol\":31050:31069  _staker[msg.sender] */\n      0x00\n        /* \"Staking_flat.sol\":31058:31068  msg.sender */\n      caller\n        /* \"Staking_flat.sol\":31050:31069  _staker[msg.sender] */\n      0xffffffffffffffffffffffffffffffffffffffff\n      and\n      0xffffffffffffffffffffffffffffffffffffffff\n      and\n      dup2\n      mstore\n      0x20\n      add\n      swap1\n      dup2\n      mstore\n      0x20\n      add\n      0x00\n      keccak256\n        /* \"Staking_flat.sol\":31050:31082  _staker[msg.sender].stakedAmount */\n      0x01\n      add\n      sload\n        /* \"Staking_flat.sol\":31050:31086  _staker[msg.sender].stakedAmount.add */\n      tag_119\n      swap1\n        /* \"Staking_flat.sol\":31050:31095  _staker[msg.sender].stakedAmount.add(_amount) */\n      swap2\n      swap1\n      0xffffffff\n      and\n      jump\t// in\n    tag_270:\n        /* \"Staking_flat.sol\":31015:31022  _staker */\n      0x0a\n        /* \"Staking_flat.sol\":31015:31034  _staker[msg.sender] */\n      0x00\n        /* \"Staking_flat.sol\":31023:31033  msg.sender */\n      caller\n        /* \"Staking_flat.sol\":31015:31034  _staker[msg.sender] */\n      0xffffffffffffffffffffffffffffffffffffffff\n      and\n      0xffffffffffffffffffffffffffffffffffffffff\n      and\n      dup2\n      mstore\n      0x20\n      add\n      swap1\n      dup2\n      mstore\n      0x20\n      add\n      0x00\n      keccak256\n        /* \"Staking_flat.sol\":31015:31047  _staker[msg.sender].stakedAmount */\n      0x01\n      add\n        /* \"Staking_flat.sol\":31015:31095  _staker[msg.sender].stakedAmount = _staker[msg.sender].stakedAmount.add(_amount) */\n      dup2\n      swap1\n      sstore\n      pop\n        /* \"Staking_flat.sol\":31119:31143  totalStaked.add(_amount) */\n      tag_271\n        /* \"Staking_flat.sol\":31135:31142  _amount */\n      dup2\n        /* \"Staking_flat.sol\":31119:31130  totalStaked */\n      sload(0x0b)\n        /* \"Staking_flat.sol\":31119:31134  totalStaked.add */\n      tag_119\n      swap1\n        /* \"Staking_flat.sol\":31119:31143  totalStaked.add(_amount) */\n      swap2\n      swap1\n      0xffffffff\n      and\n      jump\t// in\n    tag_271:\n        /* \"Staking_flat.sol\":31105:31116  totalStaked */\n      0x0b\n        /* \"Staking_flat.sol\":31105:31143  totalStaked = totalStaked.add(_amount) */\n      dup2\n      swap1\n      sstore\n      pop\n        /* \"Staking_flat.sol\":31167:31194  Staked(msg.sender, _amount) */\n      0x9e71bc8eea02a63969f509818f2dafb9254532904319f9dbda79b67bd34a5f3d\n        /* \"Staking_flat.sol\":31174:31184  msg.sender */\n      caller\n        /* \"Staking_flat.sol\":31186:31193  _amount */\n      dup3\n        /* \"Staking_flat.sol\":31167:31194  Staked(msg.sender, _amount) */\n      mload(0x40)\n      tag_272\n      swap3\n      swap2\n      swap1\n      tag_134\n      jump\t// in\n    tag_272:\n      mload(0x40)\n      dup1\n      swap2\n      sub\n      swap1\n      log1\n        /* \"Staking_flat.sol\":30632:31201  function stake(uint256 _amount) public{... */\n      pop\n      jump\t// out\n        /* \"Staking_flat.sol\":31411:31542  function getStakerMode(address _address) public view returns (uint256) {... */\n    tag_86:\n        /* \"Staking_flat.sol\":31473:31480  uint256 */\n      0x00\n        /* \"Staking_flat.sol\":31526:31527  0 */\n      dup1\n        /* \"Staking_flat.sol\":31500:31507  _staker */\n      0x0a\n        /* \"Staking_flat.sol\":31500:31517  _staker[_address] */\n      0x00\n        /* \"Staking_flat.sol\":31508:31516  _address */\n      dup5\n        /* \"Staking_flat.sol\":31500:31517  _staker[_address] */\n      0xffffffffffffffffffffffffffffffffffffffff\n      and\n      0xffffffffffffffffffffffffffffffffffffffff\n      and\n      dup2\n      mstore\n      0x20\n      add\n      swap1\n      dup2\n      mstore\n      0x20\n      add\n      0x00\n      keccak256\n        /* \"Staking_flat.sol\":31500:31522  _staker[_address].mode */\n      0x02\n      add\n      sload\n        /* \"Staking_flat.sol\":31500:31527  _staker[_address].mode == 0 */\n      eq\n        /* \"Staking_flat.sol\":31500:31535  _staker[_address].mode == 0 ? 0 : 1 */\n      tag_274\n      jumpi\n        /* \"Staking_flat.sol\":31534:31535  1 */\n      0x01\n        /* \"Staking_flat.sol\":31500:31535  _staker[_address].mode == 0 ? 0 : 1 */\n      jump(tag_275)\n    tag_274:\n        /* \"Staking_flat.sol\":31530:31531  0 */\n      0x00\n        /* \"Staking_flat.sol\":31500:31535  _staker[_address].mode == 0 ? 0 : 1 */\n    tag_275:\n        /* \"Staking_flat.sol\":31493:31535  return _staker[_address].mode == 0 ? 0 : 1 */\n      0xff\n      and\n      swap1\n      pop\n        /* \"Staking_flat.sol\":31411:31542  function getStakerMode(address _address) public view returns (uint256) {... */\n      swap2\n      swap1\n      pop\n      jump\t// out\n        /* \"Staking_flat.sol\":26718:26916  function transferOwnership(address newOwner) public virtual onlyOwner {... */\n    tag_90:\n        /* \"Staking_flat.sol\":26059:26071  _msgSender() */\n      tag_277\n        /* \"Staking_flat.sol\":26059:26069  _msgSender */\n      tag_168\n        /* \"Staking_flat.sol\":26059:26071  _msgSender() */\n      jump\t// in\n    tag_277:\n        /* \"Staking_flat.sol\":26048:26071  owner() == _msgSender() */\n      0xffffffffffffffffffffffffffffffffffffffff\n      and\n        /* \"Staking_flat.sol\":26048:26055  owner() */\n      tag_278\n        /* \"Staking_flat.sol\":26048:26053  owner */\n      tag_72\n        /* \"Staking_flat.sol\":26048:26055  owner() */\n      jump\t// in\n    tag_278:\n        /* \"Staking_flat.sol\":26048:26071  owner() == _msgSender() */\n      0xffffffffffffffffffffffffffffffffffffffff\n      and\n      eq\n        /* \"Staking_flat.sol\":26040:26108  require(owner() == _msgSender(), \"Ownable: caller is not the owner\") */\n      tag_279\n      jumpi\n      mload(0x40)\n      0x08c379a000000000000000000000000000000000000000000000000000000000\n      dup2\n      mstore\n      0x04\n      add\n      tag_280\n      swap1\n      tag_172\n      jump\t// in\n    tag_280:\n      mload(0x40)\n      dup1\n      swap2\n      sub\n      swap1\n      revert\n    tag_279:\n        /* \"Staking_flat.sol\":26826:26827  0 */\n      0x00\n        /* \"Staking_flat.sol\":26806:26828  newOwner != address(0) */\n      0xffffffffffffffffffffffffffffffffffffffff\n      and\n        /* \"Staking_flat.sol\":26806:26814  newOwner */\n      dup2\n        /* \"Staking_flat.sol\":26806:26828  newOwner != address(0) */\n      0xffffffffffffffffffffffffffffffffffffffff\n      and\n      eq\n      iszero\n        /* \"Staking_flat.sol\":26798:26871  require(newOwner != address(0), \"Ownable: new owner is the zero address\") */\n      tag_282\n      jumpi\n      mload(0x40)\n      0x08c379a000000000000000000000000000000000000000000000000000000000\n      dup2\n      mstore\n      0x04\n      add\n      tag_283\n      swap1\n      tag_284\n      jump\t// in\n    tag_283:\n      mload(0x40)\n      dup1\n      swap2\n      sub\n      swap1\n      revert\n    tag_282:\n        /* \"Staking_flat.sol\":26881:26909  _transferOwnership(newOwner) */\n      tag_285\n        /* \"Staking_flat.sol\":26900:26908  newOwner */\n      dup2\n        /* \"Staking_flat.sol\":26881:26899  _transferOwnership */\n      tag_232\n        /* \"Staking_flat.sol\":26881:26909  _transferOwnership(newOwner) */\n      jump\t// in\n    tag_285:\n        /* \"Staking_flat.sol\":26718:26916  function transferOwnership(address newOwner) public virtual onlyOwner {... */\n      pop\n      jump\t// out\n        /* \"Staking_flat.sol\":32079:32212  function stakedAmount(address _address) public view returns (uint256) {... */\n    tag_93:\n        /* \"Staking_flat.sol\":32140:32147  uint256 */\n      0x00\n        /* \"Staking_flat.sol\":32175:32182  _staker */\n      0x0a\n        /* \"Staking_flat.sol\":32175:32192  _staker[_address] */\n      0x00\n        /* \"Staking_flat.sol\":32183:32191  _address */\n      dup4\n        /* \"Staking_flat.sol\":32175:32192  _staker[_address] */\n      0xffffffffffffffffffffffffffffffffffffffff\n      and\n      0xffffffffffffffffffffffffffffffffffffffff\n      and\n      dup2\n      mstore\n      0x20\n      add\n      swap1\n      dup2\n      mstore\n      0x20\n      add\n      0x00\n      keccak256\n        /* \"Staking_flat.sol\":32175:32205  _staker[_address].stakedAmount */\n      0x01\n      add\n      sload\n        /* \"Staking_flat.sol\":32168:32205  return _staker[_address].stakedAmount */\n      swap1\n      pop\n        /* \"Staking_flat.sol\":32079:32212  function stakedAmount(address _address) public view returns (uint256) {... */\n      swap2\n      swap1\n      pop\n      jump\t// out\n        /* \"Staking_flat.sol\":28208:28227  IBEP20 public token */\n    tag_96:\n      0x0c\n      0x00\n      swap1\n      sload\n      swap1\n      0x0100\n      exp\n      swap1\n      div\n      0xffffffffffffffffffffffffffffffffffffffff\n      and\n      dup2\n      jump\t// out\n        /* \"Staking_flat.sol\":31548:31669  function isStartStaking(address _address) public view returns (uint256) {... */\n    tag_101:\n        /* \"Staking_flat.sol\":31611:31618  uint256 */\n      0x00\n        /* \"Staking_flat.sol\":31638:31645  _staker */\n      0x0a\n        /* \"Staking_flat.sol\":31638:31655  _staker[_address] */\n      0x00\n        /* \"Staking_flat.sol\":31646:31654  _address */\n      dup4\n        /* \"Staking_flat.sol\":31638:31655  _staker[_address] */\n      0xffffffffffffffffffffffffffffffffffffffff\n      and\n      0xffffffffffffffffffffffffffffffffffffffff\n      and\n      dup2\n      mstore\n      0x20\n      add\n      swap1\n      dup2\n      mstore\n      0x20\n      add\n      0x00\n      keccak256\n        /* \"Staking_flat.sol\":31638:31662  _staker[_address].staked */\n      0x05\n      add\n      sload\n        /* \"Staking_flat.sol\":31631:31662  return _staker[_address].staked */\n      swap1\n      pop\n        /* \"Staking_flat.sol\":31548:31669  function isStartStaking(address _address) public view returns (uint256) {... */\n      swap2\n      swap1\n      pop\n      jump\t// out\n        /* \"Staking_flat.sol\":29245:29695  function updateReward() private{... */\n    tag_112:\n        /* \"Staking_flat.sol\":29295:29321  uint256 stakerStakedAmount */\n      0x00\n        /* \"Staking_flat.sol\":29324:29331  _staker */\n      0x0a\n        /* \"Staking_flat.sol\":29324:29343  _staker[msg.sender] */\n      0x00\n        /* \"Staking_flat.sol\":29332:29342  msg.sender */\n      caller\n        /* \"Staking_flat.sol\":29324:29343  _staker[msg.sender] */\n      0xffffffffffffffffffffffffffffffffffffffff\n      and\n      0xffffffffffffffffffffffffffffffffffffffff\n      and\n      dup2\n      mstore\n      0x20\n      add\n      swap1\n      dup2\n      mstore\n      0x20\n      add\n      0x00\n      keccak256\n        /* \"Staking_flat.sol\":29324:29356  _staker[msg.sender].stakedAmount */\n      0x01\n      add\n      sload\n        /* \"Staking_flat.sol\":29295:29356  uint256 stakerStakedAmount = _staker[msg.sender].stakedAmount */\n      swap1\n      pop\n        /* \"Staking_flat.sol\":29375:29392  uint256 newReward */\n      0x00\n        /* \"Staking_flat.sol\":29395:29515  stakerStakedAmount.mul(block.number.sub(_staker[msg.sender].lastUpdatedBlockNumber).div(8640)).mul(_rewardRate).div(1e4) */\n      tag_289\n        /* \"Staking_flat.sol\":29511:29514  1e4 */\n      0x2710\n        /* \"Staking_flat.sol\":29395:29506  stakerStakedAmount.mul(block.number.sub(_staker[msg.sender].lastUpdatedBlockNumber).div(8640)).mul(_rewardRate) */\n      tag_290\n        /* \"Staking_flat.sol\":29494:29505  _rewardRate */\n      sload(0x03)\n        /* \"Staking_flat.sol\":29395:29489  stakerStakedAmount.mul(block.number.sub(_staker[msg.sender].lastUpdatedBlockNumber).div(8640)) */\n      tag_291\n        /* \"Staking_flat.sol\":29418:29488  block.number.sub(_staker[msg.sender].lastUpdatedBlockNumber).div(8640) */\n      tag_292\n        /* \"Staking_flat.sol\":29483:29487  8640 */\n      0x21c0\n        /* \"Staking_flat.sol\":29418:29478  block.number.sub(_staker[msg.sender].lastUpdatedBlockNumber) */\n      tag_293\n        /* \"Staking_flat.sol\":29435:29442  _staker */\n      0x0a\n        /* \"Staking_flat.sol\":29435:29454  _staker[msg.sender] */\n      0x00\n        /* \"Staking_flat.sol\":29443:29453  msg.sender */\n      caller\n        /* \"Staking_flat.sol\":29435:29454  _staker[msg.sender] */\n      0xffffffffffffffffffffffffffffffffffffffff\n      and\n      0xffffffffffffffffffffffffffffffffffffffff\n      and\n      dup2\n      mstore\n      0x20\n      add\n      swap1\n      dup2\n      mstore\n      0x20\n      add\n      0x00\n      keccak256\n        /* \"Staking_flat.sol\":29435:29477  _staker[msg.sender].lastUpdatedBlockNumber */\n      0x04\n      add\n      sload\n        /* \"Staking_flat.sol\":29418:29430  block.number */\n      number\n        /* \"Staking_flat.sol\":29418:29434  block.number.sub */\n      tag_115\n      swap1\n        /* \"Staking_flat.sol\":29418:29478  block.number.sub(_staker[msg.sender].lastUpdatedBlockNumber) */\n      swap2\n      swap1\n      0xffffffff\n      and\n      jump\t// in\n    tag_293:\n        /* \"Staking_flat.sol\":29418:29482  block.number.sub(_staker[msg.sender].lastUpdatedBlockNumber).div */\n      tag_116\n      swap1\n        /* \"Staking_flat.sol\":29418:29488  block.number.sub(_staker[msg.sender].lastUpdatedBlockNumber).div(8640) */\n      swap2\n      swap1\n      0xffffffff\n      and\n      jump\t// in\n    tag_292:\n        /* \"Staking_flat.sol\":29395:29413  stakerStakedAmount */\n      dup8\n        /* \"Staking_flat.sol\":29395:29417  stakerStakedAmount.mul */\n      tag_128\n      swap1\n        /* \"Staking_flat.sol\":29395:29489  stakerStakedAmount.mul(block.number.sub(_staker[msg.sender].lastUpdatedBlockNumber).div(8640)) */\n      swap2\n      swap1\n      0xffffffff\n      and\n      jump\t// in\n    tag_291:\n        /* \"Staking_flat.sol\":29395:29493  stakerStakedAmount.mul(block.number.sub(_staker[msg.sender].lastUpdatedBlockNumber).div(8640)).mul */\n      tag_128\n      swap1\n        /* \"Staking_flat.sol\":29395:29506  stakerStakedAmount.mul(block.number.sub(_staker[msg.sender].lastUpdatedBlockNumber).div(8640)).mul(_rewardRate) */\n      swap2\n      swap1\n      0xffffffff\n      and\n      jump\t// in\n    tag_290:\n        /* \"Staking_flat.sol\":29395:29510  stakerStakedAmount.mul(block.number.sub(_staker[msg.sender].lastUpdatedBlockNumber).div(8640)).mul(_rewardRate).div */\n      tag_116\n      swap1\n        /* \"Staking_flat.sol\":29395:29515  stakerStakedAmount.mul(block.number.sub(_staker[msg.sender].lastUpdatedBlockNumber).div(8640)).mul(_rewardRate).div(1e4) */\n      swap2\n      swap1\n      0xffffffff\n      and\n      jump\t// in\n    tag_289:\n        /* \"Staking_flat.sol\":29375:29515  uint256 newReward = stakerStakedAmount.mul(block.number.sub(_staker[msg.sender].lastUpdatedBlockNumber).div(8640)).mul(_rewardRate).div(1e4) */\n      swap1\n      pop\n        /* \"Staking_flat.sol\":29567:29621  _staker[msg.sender].stakerCurrentReward.add(newReward) */\n      tag_294\n        /* \"Staking_flat.sol\":29611:29620  newReward */\n      dup2\n        /* \"Staking_flat.sol\":29567:29574  _staker */\n      0x0a\n        /* \"Staking_flat.sol\":29567:29586  _staker[msg.sender] */\n      0x00\n        /* \"Staking_flat.sol\":29575:29585  msg.sender */\n      caller\n        /* \"Staking_flat.sol\":29567:29586  _staker[msg.sender] */\n      0xffffffffffffffffffffffffffffffffffffffff\n      and\n      0xffffffffffffffffffffffffffffffffffffffff\n      and\n      dup2\n      mstore\n      0x20\n      add\n      swap1\n      dup2\n      mstore\n      0x20\n      add\n      0x00\n      keccak256\n        /* \"Staking_flat.sol\":29567:29606  _staker[msg.sender].stakerCurrentReward */\n      0x00\n      add\n      sload\n        /* \"Staking_flat.sol\":29567:29610  _staker[msg.sender].stakerCurrentReward.add */\n      tag_119\n      swap1\n        /* \"Staking_flat.sol\":29567:29621  _staker[msg.sender].stakerCurrentReward.add(newReward) */\n      swap2\n      swap1\n      0xffffffff\n      and\n      jump\t// in\n    tag_294:\n        /* \"Staking_flat.sol\":29525:29532  _staker */\n      0x0a\n        /* \"Staking_flat.sol\":29525:29544  _staker[msg.sender] */\n      0x00\n        /* \"Staking_flat.sol\":29533:29543  msg.sender */\n      caller\n        /* \"Staking_flat.sol\":29525:29544  _staker[msg.sender] */\n      0xffffffffffffffffffffffffffffffffffffffff\n      and\n      0xffffffffffffffffffffffffffffffffffffffff\n      and\n      dup2\n      mstore\n      0x20\n      add\n      swap1\n      dup2\n      mstore\n      0x20\n      add\n      0x00\n      keccak256\n        /* \"Staking_flat.sol\":29525:29564  _staker[msg.sender].stakerCurrentReward */\n      0x00\n      add\n        /* \"Staking_flat.sol\":29525:29621  _staker[msg.sender].stakerCurrentReward = _staker[msg.sender].stakerCurrentReward.add(newReward) */\n      dup2\n      swap1\n      sstore\n      pop\n        /* \"Staking_flat.sol\":29676:29688  block.number */\n      number\n        /* \"Staking_flat.sol\":29631:29638  _staker */\n      0x0a\n        /* \"Staking_flat.sol\":29631:29650  _staker[msg.sender] */\n      0x00\n        /* \"Staking_flat.sol\":29639:29649  msg.sender */\n      caller\n        /* \"Staking_flat.sol\":29631:29650  _staker[msg.sender] */\n      0xffffffffffffffffffffffffffffffffffffffff\n      and\n      0xffffffffffffffffffffffffffffffffffffffff\n      and\n      dup2\n      mstore\n      0x20\n      add\n      swap1\n      dup2\n      mstore\n      0x20\n      add\n      0x00\n      keccak256\n        /* \"Staking_flat.sol\":29631:29673  _staker[msg.sender].lastUpdatedBlockNumber */\n      0x04\n      add\n        /* \"Staking_flat.sol\":29631:29688  _staker[msg.sender].lastUpdatedBlockNumber = block.number */\n      dup2\n      swap1\n      sstore\n      pop\n        /* \"Staking_flat.sol\":29276:29695  {... */\n      pop\n      pop\n        /* \"Staking_flat.sol\":29245:29695  function updateReward() private{... */\n      jump\t// out\n        /* \"Staking_flat.sol\":14444:14540  function sub(uint256 a, uint256 b) internal pure returns (uint256) {... */\n    tag_115:\n        /* \"Staking_flat.sol\":14502:14509  uint256 */\n      0x00\n        /* \"Staking_flat.sol\":14532:14533  b */\n      dup2\n        /* \"Staking_flat.sol\":14528:14529  a */\n      dup4\n        /* \"Staking_flat.sol\":14528:14533  a - b */\n      tag_296\n      swap2\n      swap1\n      tag_297\n      jump\t// in\n    tag_296:\n        /* \"Staking_flat.sol\":14521:14533  return a - b */\n      swap1\n      pop\n        /* \"Staking_flat.sol\":14444:14540  function sub(uint256 a, uint256 b) internal pure returns (uint256) {... */\n      swap3\n      swap2\n      pop\n      pop\n      jump\t// out\n        /* \"Staking_flat.sol\":15172:15268  function div(uint256 a, uint256 b) internal pure returns (uint256) {... */\n    tag_116:\n        /* \"Staking_flat.sol\":15230:15237  uint256 */\n      0x00\n        /* \"Staking_flat.sol\":15260:15261  b */\n      dup2\n        /* \"Staking_flat.sol\":15256:15257  a */\n      dup4\n        /* \"Staking_flat.sol\":15256:15261  a / b */\n      tag_299\n      swap2\n      swap1\n      tag_300\n      jump\t// in\n    tag_299:\n        /* \"Staking_flat.sol\":15249:15261  return a / b */\n      swap1\n      pop\n        /* \"Staking_flat.sol\":15172:15268  function div(uint256 a, uint256 b) internal pure returns (uint256) {... */\n      swap3\n      swap2\n      pop\n      pop\n      jump\t// out\n        /* \"Staking_flat.sol\":14077:14173  function add(uint256 a, uint256 b) internal pure returns (uint256) {... */\n    tag_119:\n        /* \"Staking_flat.sol\":14135:14142  uint256 */\n      0x00\n        /* \"Staking_flat.sol\":14165:14166  b */\n      dup2\n        /* \"Staking_flat.sol\":14161:14162  a */\n      dup4\n        /* \"Staking_flat.sol\":14161:14166  a + b */\n      tag_302\n      swap2\n      swap1\n      tag_303\n      jump\t// in\n    tag_302:\n        /* \"Staking_flat.sol\":14154:14166  return a + b */\n      swap1\n      pop\n        /* \"Staking_flat.sol\":14077:14173  function add(uint256 a, uint256 b) internal pure returns (uint256) {... */\n      swap3\n      swap2\n      pop\n      pop\n      jump\t// out\n        /* \"Staking_flat.sol\":14787:14883  function mul(uint256 a, uint256 b) internal pure returns (uint256) {... */\n    tag_128:\n        /* \"Staking_flat.sol\":14845:14852  uint256 */\n      0x00\n        /* \"Staking_flat.sol\":14875:14876  b */\n      dup2\n        /* \"Staking_flat.sol\":14871:14872  a */\n      dup4\n        /* \"Staking_flat.sol\":14871:14876  a * b */\n      tag_305\n      swap2\n      swap1\n      tag_306\n      jump\t// in\n    tag_305:\n        /* \"Staking_flat.sol\":14864:14876  return a * b */\n      swap1\n      pop\n        /* \"Staking_flat.sol\":14787:14883  function mul(uint256 a, uint256 b) internal pure returns (uint256) {... */\n      swap3\n      swap2\n      pop\n      pop\n      jump\t// out\n        /* \"Staking_flat.sol\":18195:18370  function safeTransfer(IBEP20 token, address to, uint256 value) internal {... */\n    tag_132:\n        /* \"Staking_flat.sol\":18277:18363  _callOptionalReturn(token, abi.encodeWithSelector(token.transfer.selector, to, value)) */\n      tag_308\n        /* \"Staking_flat.sol\":18297:18302  token */\n      dup4\n        /* \"Staking_flat.sol\":18327:18350  token.transfer.selector */\n      shl(0xe0, 0xa9059cbb)\n        /* \"Staking_flat.sol\":18352:18354  to */\n      dup5\n        /* \"Staking_flat.sol\":18356:18361  value */\n      dup5\n        /* \"Staking_flat.sol\":18304:18362  abi.encodeWithSelector(token.transfer.selector, to, value) */\n      add(0x24, mload(0x40))\n      tag_309\n      swap3\n      swap2\n      swap1\n      tag_134\n      jump\t// in\n    tag_309:\n      mload(0x40)\n      0x20\n      dup2\n      dup4\n      sub\n      sub\n      dup2\n      mstore\n      swap1\n      0x40\n      mstore\n      swap1\n      not(0xffffffffffffffffffffffffffffffffffffffffffffffffffffffff)\n      and\n      0x20\n      dup3\n      add\n      dup1\n      mload\n      0xffffffffffffffffffffffffffffffffffffffffffffffffffffffff\n      dup4\n      dup2\n      dup4\n      and\n      or\n      dup4\n      mstore\n      pop\n      pop\n      pop\n      pop\n        /* \"Staking_flat.sol\":18277:18296  _callOptionalReturn */\n      tag_310\n        /* \"Staking_flat.sol\":18277:18363  _callOptionalReturn(token, abi.encodeWithSelector(token.transfer.selector, to, value)) */\n      jump\t// in\n    tag_308:\n        /* \"Staking_flat.sol\":18195:18370  function safeTransfer(IBEP20 token, address to, uint256 value) internal {... */\n      pop\n      pop\n      pop\n      jump\t// out\n        /* \"Staking_flat.sol\":24629:24725  function _msgSender() internal view virtual returns (address) {... */\n    tag_168:\n        /* \"Staking_flat.sol\":24682:24689  address */\n      0x00\n        /* \"Staking_flat.sol\":24708:24718  msg.sender */\n      caller\n        /* \"Staking_flat.sol\":24701:24718  return msg.sender */\n      swap1\n      pop\n        /* \"Staking_flat.sol\":24629:24725  function _msgSender() internal view virtual returns (address) {... */\n      swap1\n      jump\t// out\n        /* \"Staking_flat.sol\":27070:27257  function _transferOwnership(address newOwner) internal virtual {... */\n    tag_232:\n        /* \"Staking_flat.sol\":27143:27159  address oldOwner */\n      0x00\n        /* \"Staking_flat.sol\":27162:27168  _owner */\n      dup1\n      0x00\n      swap1\n      sload\n      swap1\n      0x0100\n      exp\n      swap1\n      div\n      0xffffffffffffffffffffffffffffffffffffffff\n      and\n        /* \"Staking_flat.sol\":27143:27168  address oldOwner = _owner */\n      swap1\n      pop\n        /* \"Staking_flat.sol\":27187:27195  newOwner */\n      dup2\n        /* \"Staking_flat.sol\":27178:27184  _owner */\n      0x00\n      dup1\n        /* \"Staking_flat.sol\":27178:27195  _owner = newOwner */\n      0x0100\n      exp\n      dup2\n      sload\n      dup2\n      0xffffffffffffffffffffffffffffffffffffffff\n      mul\n      not\n      and\n      swap1\n      dup4\n      0xffffffffffffffffffffffffffffffffffffffff\n      and\n      mul\n      or\n      swap1\n      sstore\n      pop\n        /* \"Staking_flat.sol\":27241:27249  newOwner */\n      dup2\n        /* \"Staking_flat.sol\":27210:27250  OwnershipTransferred(oldOwner, newOwner) */\n      0xffffffffffffffffffffffffffffffffffffffff\n      and\n        /* \"Staking_flat.sol\":27231:27239  oldOwner */\n      dup2\n        /* \"Staking_flat.sol\":27210:27250  OwnershipTransferred(oldOwner, newOwner) */\n      0xffffffffffffffffffffffffffffffffffffffff\n      and\n      0x8be0079c531659141344cd1fd0a4f28419497f9722a3daafe3b4186f6b6457e0\n      mload(0x40)\n      mload(0x40)\n      dup1\n      swap2\n      sub\n      swap1\n      log3\n        /* \"Staking_flat.sol\":27133:27257  {... */\n      pop\n        /* \"Staking_flat.sol\":27070:27257  function _transferOwnership(address newOwner) internal virtual {... */\n      pop\n      jump\t// out\n        /* \"Staking_flat.sol\":18376:18579  function safeTransferFrom(IBEP20 token, address from, address to, uint256 value) internal {... */\n    tag_269:\n        /* \"Staking_flat.sol\":18476:18572  _callOptionalReturn(token, abi.encodeWithSelector(token.transferFrom.selector, from, to, value)) */\n      tag_314\n        /* \"Staking_flat.sol\":18496:18501  token */\n      dup5\n        /* \"Staking_flat.sol\":18526:18553  token.transferFrom.selector */\n      shl(0xe0, 0x23b872dd)\n        /* \"Staking_flat.sol\":18555:18559  from */\n      dup6\n        /* \"Staking_flat.sol\":18561:18563  to */\n      dup6\n        /* \"Staking_flat.sol\":18565:18570  value */\n      dup6\n        /* \"Staking_flat.sol\":18503:18571  abi.encodeWithSelector(token.transferFrom.selector, from, to, value) */\n      add(0x24, mload(0x40))\n      tag_315\n      swap4\n      swap3\n      swap2\n      swap1\n      tag_316\n      jump\t// in\n    tag_315:\n      mload(0x40)\n      0x20\n      dup2\n      dup4\n      sub\n      sub\n      dup2\n      mstore\n      swap1\n      0x40\n      mstore\n      swap1\n      not(0xffffffffffffffffffffffffffffffffffffffffffffffffffffffff)\n      and\n      0x20\n      dup3\n      add\n      dup1\n      mload\n      0xffffffffffffffffffffffffffffffffffffffffffffffffffffffff\n      dup4\n      dup2\n      dup4\n      and\n      or\n      dup4\n      mstore\n      pop\n      pop\n      pop\n      pop\n        /* \"Staking_flat.sol\":18476:18495  _callOptionalReturn */\n      tag_310\n        /* \"Staking_flat.sol\":18476:18572  _callOptionalReturn(token, abi.encodeWithSelector(token.transferFrom.selector, from, to, value)) */\n      jump\t// in\n    tag_314:\n        /* \"Staking_flat.sol\":18376:18579  function safeTransferFrom(IBEP20 token, address from, address to, uint256 value) internal {... */\n      pop\n      pop\n      pop\n      pop\n      jump\t// out\n        /* \"Staking_flat.sol\":20462:21221  function _callOptionalReturn(IBEP20 token, bytes memory data) private {... */\n    tag_310:\n        /* \"Staking_flat.sol\":20889:20912  bytes memory returndata */\n      0x00\n        /* \"Staking_flat.sol\":20915:20984  address(token).functionCall(data, \"SafeBEP20: low-level call failed\") */\n      tag_318\n        /* \"Staking_flat.sol\":20943:20947  data */\n      dup3\n        /* \"Staking_flat.sol\":20915:20984  address(token).functionCall(data, \"SafeBEP20: low-level call failed\") */\n      mload(0x40)\n      dup1\n      0x40\n      add\n      0x40\n      mstore\n      dup1\n      0x20\n      dup2\n      mstore\n      0x20\n      add\n      0x5361666542455032303a206c6f772d6c6576656c2063616c6c206661696c6564\n      dup2\n      mstore\n      pop\n        /* \"Staking_flat.sol\":20923:20928  token */\n      dup6\n        /* \"Staking_flat.sol\":20915:20942  address(token).functionCall */\n      0xffffffffffffffffffffffffffffffffffffffff\n      and\n      tag_319\n      swap1\n        /* \"Staking_flat.sol\":20915:20984  address(token).functionCall(data, \"SafeBEP20: low-level call failed\") */\n      swap3\n      swap2\n      swap1\n      0xffffffff\n      and\n      jump\t// in\n    tag_318:\n        /* \"Staking_flat.sol\":20889:20984  bytes memory returndata = address(token).functionCall(data, \"SafeBEP20: low-level call failed\") */\n      swap1\n      pop\n        /* \"Staking_flat.sol\":21018:21019  0 */\n      0x00\n        /* \"Staking_flat.sol\":20998:21008  returndata */\n      dup2\n        /* \"Staking_flat.sol\":20998:21015  returndata.length */\n      mload\n        /* \"Staking_flat.sol\":20998:21019  returndata.length > 0 */\n      gt\n        /* \"Staking_flat.sol\":20994:21215  if (returndata.length > 0) { // Return data is optional... */\n      iszero\n      tag_320\n      jumpi\n        /* \"Staking_flat.sol\":21138:21148  returndata */\n      dup1\n        /* \"Staking_flat.sol\":21127:21157  abi.decode(returndata, (bool)) */\n      dup1\n      0x20\n      add\n      swap1\n      mload\n      dup2\n      add\n      swap1\n      tag_321\n      swap2\n      swap1\n      tag_322\n      jump\t// in\n    tag_321:\n        /* \"Staking_flat.sol\":21119:21204  require(abi.decode(returndata, (bool)), \"SafeBEP20: BEP20 operation did not succeed\") */\n      tag_323\n      jumpi\n      mload(0x40)\n      0x08c379a000000000000000000000000000000000000000000000000000000000\n      dup2\n      mstore\n      0x04\n      add\n      tag_324\n      swap1\n      tag_325\n      jump\t// in\n    tag_324:\n      mload(0x40)\n      dup1\n      swap2\n      sub\n      swap1\n      revert\n    tag_323:\n        /* \"Staking_flat.sol\":20994:21215  if (returndata.length > 0) { // Return data is optional... */\n    tag_320:\n        /* \"Staking_flat.sol\":20532:21221  {... */\n      pop\n        /* \"Staking_flat.sol\":20462:21221  function _callOptionalReturn(IBEP20 token, bytes memory data) private {... */\n      pop\n      pop\n      jump\t// out\n        /* \"Staking_flat.sol\":6937:7160  function functionCall(... */\n    tag_319:\n        /* \"Staking_flat.sol\":7070:7082  bytes memory */\n      0x60\n        /* \"Staking_flat.sol\":7101:7153  functionCallWithValue(target, data, 0, errorMessage) */\n      tag_327\n        /* \"Staking_flat.sol\":7123:7129  target */\n      dup5\n        /* \"Staking_flat.sol\":7131:7135  data */\n      dup5\n        /* \"Staking_flat.sol\":7137:7138  0 */\n      0x00\n        /* \"Staking_flat.sol\":7140:7152  errorMessage */\n      dup6\n        /* \"Staking_flat.sol\":7101:7122  functionCallWithValue */\n      tag_328\n        /* \"Staking_flat.sol\":7101:7153  functionCallWithValue(target, data, 0, errorMessage) */\n      jump\t// in\n    tag_327:\n        /* \"Staking_flat.sol\":7094:7153  return functionCallWithValue(target, data, 0, errorMessage) */\n      swap1\n      pop\n        /* \"Staking_flat.sol\":6937:7160  function functionCall(... */\n      swap4\n      swap3\n      pop\n      pop\n      pop\n      jump\t// out\n        /* \"Staking_flat.sol\":8024:8523  function functionCallWithValue(... */\n    tag_328:\n        /* \"Staking_flat.sol\":8189:8201  bytes memory */\n      0x60\n        /* \"Staking_flat.sol\":8246:8251  value */\n      dup3\n        /* \"Staking_flat.sol\":8221:8242  address(this).balance */\n      selfbalance\n        /* \"Staking_flat.sol\":8221:8251  address(this).balance >= value */\n      lt\n      iszero\n        /* \"Staking_flat.sol\":8213:8294  require(address(this).balance >= value, \"Address: insufficient balance for call\") */\n      tag_330\n      jumpi\n      mload(0x40)\n      0x08c379a000000000000000000000000000000000000000000000000000000000\n      dup2\n      mstore\n      0x04\n      add\n      tag_331\n      swap1\n      tag_332\n      jump\t// in\n    tag_331:\n      mload(0x40)\n      dup1\n      swap2\n      sub\n      swap1\n      revert\n    tag_330:\n        /* \"Staking_flat.sol\":8312:8330  isContract(target) */\n      tag_333\n        /* \"Staking_flat.sol\":8323:8329  target */\n      dup6\n        /* \"Staking_flat.sol\":8312:8322  isContract */\n      tag_334\n        /* \"Staking_flat.sol\":8312:8330  isContract(target) */\n      jump\t// in\n    tag_333:\n        /* \"Staking_flat.sol\":8304:8364  require(isContract(target), \"Address: call to non-contract\") */\n      tag_335\n      jumpi\n      mload(0x40)\n      0x08c379a000000000000000000000000000000000000000000000000000000000\n      dup2\n      mstore\n      0x04\n      add\n      tag_336\n      swap1\n      tag_337\n      jump\t// in\n    tag_336:\n      mload(0x40)\n      dup1\n      swap2\n      sub\n      swap1\n      revert\n    tag_335:\n        /* \"Staking_flat.sol\":8376:8388  bool success */\n      0x00\n        /* \"Staking_flat.sol\":8390:8413  bytes memory returndata */\n      dup1\n        /* \"Staking_flat.sol\":8417:8423  target */\n      dup7\n        /* \"Staking_flat.sol\":8417:8428  target.call */\n      0xffffffffffffffffffffffffffffffffffffffff\n      and\n        /* \"Staking_flat.sol\":8436:8441  value */\n      dup6\n        /* \"Staking_flat.sol\":8443:8447  data */\n      dup8\n        /* \"Staking_flat.sol\":8417:8448  target.call{value: value}(data) */\n      mload(0x40)\n      tag_338\n      swap2\n      swap1\n      tag_339\n      jump\t// in\n    tag_338:\n      0x00\n      mload(0x40)\n      dup1\n      dup4\n      sub\n      dup2\n      dup6\n      dup8\n      gas\n      call\n      swap3\n      pop\n      pop\n      pop\n      returndatasize\n      dup1\n      0x00\n      dup2\n      eq\n      tag_342\n      jumpi\n      mload(0x40)\n      swap2\n      pop\n      and(add(returndatasize, 0x3f), not(0x1f))\n      dup3\n      add\n      0x40\n      mstore\n      returndatasize\n      dup3\n      mstore\n      returndatasize\n      0x00\n      0x20\n      dup5\n      add\n      returndatacopy\n      jump(tag_341)\n    tag_342:\n      0x60\n      swap2\n      pop\n    tag_341:\n      pop\n        /* \"Staking_flat.sol\":8375:8448  (bool success, bytes memory returndata) = target.call{value: value}(data) */\n      swap2\n      pop\n      swap2\n      pop\n        /* \"Staking_flat.sol\":8465:8516  verifyCallResult(success, returndata, errorMessage) */\n      tag_343\n        /* \"Staking_flat.sol\":8482:8489  success */\n      dup3\n        /* \"Staking_flat.sol\":8491:8501  returndata */\n      dup3\n        /* \"Staking_flat.sol\":8503:8515  errorMessage */\n      dup7\n        /* \"Staking_flat.sol\":8465:8481  verifyCallResult */\n      tag_344\n        /* \"Staking_flat.sol\":8465:8516  verifyCallResult(success, returndata, errorMessage) */\n      jump\t// in\n    tag_343:\n        /* \"Staking_flat.sol\":8458:8516  return verifyCallResult(success, returndata, errorMessage) */\n      swap3\n      pop\n      pop\n      pop\n        /* \"Staking_flat.sol\":8024:8523  function functionCallWithValue(... */\n      swap5\n      swap4\n      pop\n      pop\n      pop\n      pop\n      jump\t// out\n        /* \"Staking_flat.sol\":4251:4571  function isContract(address account) internal view returns (bool) {... */\n    tag_334:\n        /* \"Staking_flat.sol\":4311:4315  bool */\n      0x00\n        /* \"Staking_flat.sol\":4563:4564  0 */\n      dup1\n        /* \"Staking_flat.sol\":4541:4548  account */\n      dup3\n        /* \"Staking_flat.sol\":4541:4560  account.code.length */\n      0xffffffffffffffffffffffffffffffffffffffff\n      and\n      extcodesize\n        /* \"Staking_flat.sol\":4541:4564  account.code.length > 0 */\n      gt\n        /* \"Staking_flat.sol\":4534:4564  return account.code.length > 0 */\n      swap1\n      pop\n        /* \"Staking_flat.sol\":4251:4571  function isContract(address account) internal view returns (bool) {... */\n      swap2\n      swap1\n      pop\n      jump\t// out\n        /* \"Staking_flat.sol\":10637:11329  function verifyCallResult(... */\n    tag_344:\n        /* \"Staking_flat.sol\":10783:10795  bytes memory */\n      0x60\n        /* \"Staking_flat.sol\":10811:10818  success */\n      dup4\n        /* \"Staking_flat.sol\":10807:11323  if (success) {... */\n      iszero\n      tag_347\n      jumpi\n        /* \"Staking_flat.sol\":10841:10851  returndata */\n      dup3\n        /* \"Staking_flat.sol\":10834:10851  return returndata */\n      swap1\n      pop\n      jump(tag_346)\n        /* \"Staking_flat.sol\":10807:11323  if (success) {... */\n    tag_347:\n        /* \"Staking_flat.sol\":10972:10973  0 */\n      0x00\n        /* \"Staking_flat.sol\":10952:10962  returndata */\n      dup4\n        /* \"Staking_flat.sol\":10952:10969  returndata.length */\n      mload\n        /* \"Staking_flat.sol\":10952:10973  returndata.length > 0 */\n      gt\n        /* \"Staking_flat.sol\":10948:11313  if (returndata.length > 0) {... */\n      iszero\n      tag_349\n      jumpi\n        /* \"Staking_flat.sol\":11146:11156  returndata */\n      dup3\n        /* \"Staking_flat.sol\":11140:11157  mload(returndata) */\n      mload\n        /* \"Staking_flat.sol\":11206:11221  returndata_size */\n      dup1\n        /* \"Staking_flat.sol\":11193:11203  returndata */\n      dup5\n        /* \"Staking_flat.sol\":11189:11191  32 */\n      0x20\n        /* \"Staking_flat.sol\":11185:11204  add(32, returndata) */\n      add\n        /* \"Staking_flat.sol\":11178:11222  revert(add(32, returndata), returndata_size) */\n      revert\n        /* \"Staking_flat.sol\":10948:11313  if (returndata.length > 0) {... */\n    tag_349:\n        /* \"Staking_flat.sol\":11285:11297  errorMessage */\n      dup2\n        /* \"Staking_flat.sol\":11278:11298  revert(errorMessage) */\n      mload(0x40)\n      0x08c379a000000000000000000000000000000000000000000000000000000000\n      dup2\n      mstore\n      0x04\n      add\n      tag_351\n      swap2\n      swap1\n      tag_352\n      jump\t// in\n    tag_351:\n      mload(0x40)\n      dup1\n      swap2\n      sub\n      swap1\n      revert\n        /* \"Staking_flat.sol\":10637:11329  function verifyCallResult(... */\n    tag_346:\n      swap4\n      swap3\n      pop\n      pop\n      pop\n      jump\t// out\n        /* \"#utility.yul\":7:84   */\n    tag_353:\n        /* \"#utility.yul\":44:51   */\n      0x00\n        /* \"#utility.yul\":73:78   */\n      dup2\n        /* \"#utility.yul\":62:78   */\n      swap1\n      pop\n        /* \"#utility.yul\":7:84   */\n      swap2\n      swap1\n      pop\n      jump\t// out\n        /* \"#utility.yul\":90:208   */\n    tag_354:\n        /* \"#utility.yul\":177:201   */\n      tag_421\n        /* \"#utility.yul\":195:200   */\n      dup2\n        /* \"#utility.yul\":177:201   */\n      tag_353\n      jump\t// in\n    tag_421:\n        /* \"#utility.yul\":172:175   */\n      dup3\n        /* \"#utility.yul\":165:202   */\n      mstore\n        /* \"#utility.yul\":90:208   */\n      pop\n      pop\n      jump\t// out\n        /* \"#utility.yul\":214:436   */\n    tag_31:\n        /* \"#utility.yul\":307:311   */\n      0x00\n        /* \"#utility.yul\":345:347   */\n      0x20\n        /* \"#utility.yul\":334:343   */\n      dup3\n        /* \"#utility.yul\":330:348   */\n      add\n        /* \"#utility.yul\":322:348   */\n      swap1\n      pop\n        /* \"#utility.yul\":358:429   */\n      tag_423\n        /* \"#utility.yul\":426:427   */\n      0x00\n        /* \"#utility.yul\":415:424   */\n      dup4\n        /* \"#utility.yul\":411:428   */\n      add\n        /* \"#utility.yul\":402:408   */\n      dup5\n        /* \"#utility.yul\":358:429   */\n      tag_354\n      jump\t// in\n    tag_423:\n        /* \"#utility.yul\":214:436   */\n      swap3\n      swap2\n      pop\n      pop\n      jump\t// out\n        /* \"#utility.yul\":523:640   */\n    tag_356:\n        /* \"#utility.yul\":632:633   */\n      0x00\n        /* \"#utility.yul\":629:630   */\n      dup1\n        /* \"#utility.yul\":622:634   */\n      revert\n        /* \"#utility.yul\":769:891   */\n    tag_358:\n        /* \"#utility.yul\":842:866   */\n      tag_428\n        /* \"#utility.yul\":860:865   */\n      dup2\n        /* \"#utility.yul\":842:866   */\n      tag_353\n      jump\t// in\n    tag_428:\n        /* \"#utility.yul\":835:840   */\n      dup2\n        /* \"#utility.yul\":832:867   */\n      eq\n        /* \"#utility.yul\":822:885   */\n      tag_429\n      jumpi\n        /* \"#utility.yul\":881:882   */\n      0x00\n        /* \"#utility.yul\":878:879   */\n      dup1\n        /* \"#utility.yul\":871:883   */\n      revert\n        /* \"#utility.yul\":822:885   */\n    tag_429:\n        /* \"#utility.yul\":769:891   */\n      pop\n      jump\t// out\n        /* \"#utility.yul\":897:1036   */\n    tag_359:\n        /* \"#utility.yul\":943:948   */\n      0x00\n        /* \"#utility.yul\":981:987   */\n      dup2\n        /* \"#utility.yul\":968:988   */\n      calldataload\n        /* \"#utility.yul\":959:988   */\n      swap1\n      pop\n        /* \"#utility.yul\":997:1030   */\n      tag_431\n        /* \"#utility.yul\":1024:1029   */\n      dup2\n        /* \"#utility.yul\":997:1030   */\n      tag_358\n      jump\t// in\n    tag_431:\n        /* \"#utility.yul\":897:1036   */\n      swap3\n      swap2\n      pop\n      pop\n      jump\t// out\n        /* \"#utility.yul\":1042:1371   */\n    tag_34:\n        /* \"#utility.yul\":1101:1107   */\n      0x00\n        /* \"#utility.yul\":1150:1152   */\n      0x20\n        /* \"#utility.yul\":1138:1147   */\n      dup3\n        /* \"#utility.yul\":1129:1136   */\n      dup5\n        /* \"#utility.yul\":1125:1148   */\n      sub\n        /* \"#utility.yul\":1121:1153   */\n      slt\n        /* \"#utility.yul\":1118:1237   */\n      iszero\n      tag_433\n      jumpi\n        /* \"#utility.yul\":1156:1235   */\n      tag_434\n      tag_356\n      jump\t// in\n    tag_434:\n        /* \"#utility.yul\":1118:1237   */\n    tag_433:\n        /* \"#utility.yul\":1276:1277   */\n      0x00\n        /* \"#utility.yul\":1301:1354   */\n      tag_435\n        /* \"#utility.yul\":1346:1353   */\n      dup5\n        /* \"#utility.yul\":1337:1343   */\n      dup3\n        /* \"#utility.yul\":1326:1335   */\n      dup6\n        /* \"#utility.yul\":1322:1344   */\n      add\n        /* \"#utility.yul\":1301:1354   */\n      tag_359\n      jump\t// in\n    tag_435:\n        /* \"#utility.yul\":1291:1354   */\n      swap2\n      pop\n        /* \"#utility.yul\":1247:1364   */\n      pop\n        /* \"#utility.yul\":1042:1371   */\n      swap3\n      swap2\n      pop\n      pop\n      jump\t// out\n        /* \"#utility.yul\":1377:1503   */\n    tag_360:\n        /* \"#utility.yul\":1414:1421   */\n      0x00\n        /* \"#utility.yul\":1454:1496   */\n      0xffffffffffffffffffffffffffffffffffffffff\n        /* \"#utility.yul\":1447:1452   */\n      dup3\n        /* \"#utility.yul\":1443:1497   */\n      and\n        /* \"#utility.yul\":1432:1497   */\n      swap1\n      pop\n        /* \"#utility.yul\":1377:1503   */\n      swap2\n      swap1\n      pop\n      jump\t// out\n        /* \"#utility.yul\":1509:1605   */\n    tag_361:\n        /* \"#utility.yul\":1546:1553   */\n      0x00\n        /* \"#utility.yul\":1575:1599   */\n      tag_438\n        /* \"#utility.yul\":1593:1598   */\n      dup3\n        /* \"#utility.yul\":1575:1599   */\n      tag_360\n      jump\t// in\n    tag_438:\n        /* \"#utility.yul\":1564:1599   */\n      swap1\n      pop\n        /* \"#utility.yul\":1509:1605   */\n      swap2\n      swap1\n      pop\n      jump\t// out\n        /* \"#utility.yul\":1611:1733   */\n    tag_362:\n        /* \"#utility.yul\":1684:1708   */\n      tag_440\n        /* \"#utility.yul\":1702:1707   */\n      dup2\n        /* \"#utility.yul\":1684:1708   */\n      tag_361\n      jump\t// in\n    tag_440:\n        /* \"#utility.yul\":1677:1682   */\n      dup2\n        /* \"#utility.yul\":1674:1709   */\n      eq\n        /* \"#utility.yul\":1664:1727   */\n      tag_441\n      jumpi\n        /* \"#utility.yul\":1723:1724   */\n      0x00\n        /* \"#utility.yul\":1720:1721   */\n      dup1\n        /* \"#utility.yul\":1713:1725   */\n      revert\n        /* \"#utility.yul\":1664:1727   */\n    tag_441:\n        /* \"#utility.yul\":1611:1733   */\n      pop\n      jump\t// out\n        /* \"#utility.yul\":1739:1878   */\n    tag_363:\n        /* \"#utility.yul\":1785:1790   */\n      0x00\n        /* \"#utility.yul\":1823:1829   */\n      dup2\n        /* \"#utility.yul\":1810:1830   */\n      calldataload\n        /* \"#utility.yul\":1801:1830   */\n      swap1\n      pop\n        /* \"#utility.yul\":1839:1872   */\n      tag_443\n        /* \"#utility.yul\":1866:1871   */\n      dup2\n        /* \"#utility.yul\":1839:1872   */\n      tag_362\n      jump\t// in\n    tag_443:\n        /* \"#utility.yul\":1739:1878   */\n      swap3\n      swap2\n      pop\n      pop\n      jump\t// out\n        /* \"#utility.yul\":1884:2213   */\n    tag_40:\n        /* \"#utility.yul\":1943:1949   */\n      0x00\n        /* \"#utility.yul\":1992:1994   */\n      0x20\n        /* \"#utility.yul\":1980:1989   */\n      dup3\n        /* \"#utility.yul\":1971:1978   */\n      dup5\n        /* \"#utility.yul\":1967:1990   */\n      sub\n        /* \"#utility.yul\":1963:1995   */\n      slt\n        /* \"#utility.yul\":1960:2079   */\n      iszero\n      tag_445\n      jumpi\n        /* \"#utility.yul\":1998:2077   */\n      tag_446\n      tag_356\n      jump\t// in\n    tag_446:\n        /* \"#utility.yul\":1960:2079   */\n    tag_445:\n        /* \"#utility.yul\":2118:2119   */\n      0x00\n        /* \"#utility.yul\":2143:2196   */\n      tag_447\n        /* \"#utility.yul\":2188:2195   */\n      dup5\n        /* \"#utility.yul\":2179:2185   */\n      dup3\n        /* \"#utility.yul\":2168:2177   */\n      dup6\n        /* \"#utility.yul\":2164:2186   */\n      add\n        /* \"#utility.yul\":2143:2196   */\n      tag_363\n      jump\t// in\n    tag_447:\n        /* \"#utility.yul\":2133:2196   */\n      swap2\n      pop\n        /* \"#utility.yul\":2089:2206   */\n      pop\n        /* \"#utility.yul\":1884:2213   */\n      swap3\n      swap2\n      pop\n      pop\n      jump\t// out\n        /* \"#utility.yul\":2219:2693   */\n    tag_48:\n        /* \"#utility.yul\":2287:2293   */\n      0x00\n        /* \"#utility.yul\":2295:2301   */\n      dup1\n        /* \"#utility.yul\":2344:2346   */\n      0x40\n        /* \"#utility.yul\":2332:2341   */\n      dup4\n        /* \"#utility.yul\":2323:2330   */\n      dup6\n        /* \"#utility.yul\":2319:2342   */\n      sub\n        /* \"#utility.yul\":2315:2347   */\n      slt\n        /* \"#utility.yul\":2312:2431   */\n      iszero\n      tag_449\n      jumpi\n        /* \"#utility.yul\":2350:2429   */\n      tag_450\n      tag_356\n      jump\t// in\n    tag_450:\n        /* \"#utility.yul\":2312:2431   */\n    tag_449:\n        /* \"#utility.yul\":2470:2471   */\n      0x00\n        /* \"#utility.yul\":2495:2548   */\n      tag_451\n        /* \"#utility.yul\":2540:2547   */\n      dup6\n        /* \"#utility.yul\":2531:2537   */\n      dup3\n        /* \"#utility.yul\":2520:2529   */\n      dup7\n        /* \"#utility.yul\":2516:2538   */\n      add\n        /* \"#utility.yul\":2495:2548   */\n      tag_359\n      jump\t// in\n    tag_451:\n        /* \"#utility.yul\":2485:2548   */\n      swap3\n      pop\n        /* \"#utility.yul\":2441:2558   */\n      pop\n        /* \"#utility.yul\":2597:2599   */\n      0x20\n        /* \"#utility.yul\":2623:2676   */\n      tag_452\n        /* \"#utility.yul\":2668:2675   */\n      dup6\n        /* \"#utility.yul\":2659:2665   */\n      dup3\n        /* \"#utility.yul\":2648:2657   */\n      dup7\n        /* \"#utility.yul\":2644:2666   */\n      add\n        /* \"#utility.yul\":2623:2676   */\n      tag_359\n      jump\t// in\n    tag_452:\n        /* \"#utility.yul\":2613:2676   */\n      swap2\n      pop\n        /* \"#utility.yul\":2568:2686   */\n      pop\n        /* \"#utility.yul\":2219:2693   */\n      swap3\n      pop\n      swap3\n      swap1\n      pop\n      jump\t// out\n        /* \"#utility.yul\":2699:2817   */\n    tag_364:\n        /* \"#utility.yul\":2786:2810   */\n      tag_454\n        /* \"#utility.yul\":2804:2809   */\n      dup2\n        /* \"#utility.yul\":2786:2810   */\n      tag_361\n      jump\t// in\n    tag_454:\n        /* \"#utility.yul\":2781:2784   */\n      dup3\n        /* \"#utility.yul\":2774:2811   */\n      mstore\n        /* \"#utility.yul\":2699:2817   */\n      pop\n      pop\n      jump\t// out\n        /* \"#utility.yul\":2823:3045   */\n    tag_74:\n        /* \"#utility.yul\":2916:2920   */\n      0x00\n        /* \"#utility.yul\":2954:2956   */\n      0x20\n        /* \"#utility.yul\":2943:2952   */\n      dup3\n        /* \"#utility.yul\":2939:2957   */\n      add\n        /* \"#utility.yul\":2931:2957   */\n      swap1\n      pop\n        /* \"#utility.yul\":2967:3038   */\n      tag_456\n        /* \"#utility.yul\":3035:3036   */\n      0x00\n        /* \"#utility.yul\":3024:3033   */\n      dup4\n        /* \"#utility.yul\":3020:3037   */\n      add\n        /* \"#utility.yul\":3011:3017   */\n      dup5\n        /* \"#utility.yul\":2967:3038   */\n      tag_364\n      jump\t// in\n    tag_456:\n        /* \"#utility.yul\":2823:3045   */\n      swap3\n      swap2\n      pop\n      pop\n      jump\t// out\n        /* \"#utility.yul\":3051:3111   */\n    tag_365:\n        /* \"#utility.yul\":3079:3082   */\n      0x00\n        /* \"#utility.yul\":3100:3105   */\n      dup2\n        /* \"#utility.yul\":3093:3105   */\n      swap1\n      pop\n        /* \"#utility.yul\":3051:3111   */\n      swap2\n      swap1\n      pop\n      jump\t// out\n        /* \"#utility.yul\":3117:3259   */\n    tag_366:\n        /* \"#utility.yul\":3167:3176   */\n      0x00\n        /* \"#utility.yul\":3200:3253   */\n      tag_459\n        /* \"#utility.yul\":3218:3252   */\n      tag_460\n        /* \"#utility.yul\":3227:3251   */\n      tag_461\n        /* \"#utility.yul\":3245:3250   */\n      dup5\n        /* \"#utility.yul\":3227:3251   */\n      tag_360\n      jump\t// in\n    tag_461:\n        /* \"#utility.yul\":3218:3252   */\n      tag_365\n      jump\t// in\n    tag_460:\n        /* \"#utility.yul\":3200:3253   */\n      tag_360\n      jump\t// in\n    tag_459:\n        /* \"#utility.yul\":3187:3253   */\n      swap1\n      pop\n        /* \"#utility.yul\":3117:3259   */\n      swap2\n      swap1\n      pop\n      jump\t// out\n        /* \"#utility.yul\":3265:3391   */\n    tag_367:\n        /* \"#utility.yul\":3315:3324   */\n      0x00\n        /* \"#utility.yul\":3348:3385   */\n      tag_463\n        /* \"#utility.yul\":3379:3384   */\n      dup3\n        /* \"#utility.yul\":3348:3385   */\n      tag_366\n      jump\t// in\n    tag_463:\n        /* \"#utility.yul\":3335:3385   */\n      swap1\n      pop\n        /* \"#utility.yul\":3265:3391   */\n      swap2\n      swap1\n      pop\n      jump\t// out\n        /* \"#utility.yul\":3397:3537   */\n    tag_368:\n        /* \"#utility.yul\":3461:3470   */\n      0x00\n        /* \"#utility.yul\":3494:3531   */\n      tag_465\n        /* \"#utility.yul\":3525:3530   */\n      dup3\n        /* \"#utility.yul\":3494:3531   */\n      tag_367\n      jump\t// in\n    tag_465:\n        /* \"#utility.yul\":3481:3531   */\n      swap1\n      pop\n        /* \"#utility.yul\":3397:3537   */\n      swap2\n      swap1\n      pop\n      jump\t// out\n        /* \"#utility.yul\":3543:3702   */\n    tag_369:\n        /* \"#utility.yul\":3644:3695   */\n      tag_467\n        /* \"#utility.yul\":3689:3694   */\n      dup2\n        /* \"#utility.yul\":3644:3695   */\n      tag_368\n      jump\t// in\n    tag_467:\n        /* \"#utility.yul\":3639:3642   */\n      dup3\n        /* \"#utility.yul\":3632:3696   */\n      mstore\n        /* \"#utility.yul\":3543:3702   */\n      pop\n      pop\n      jump\t// out\n        /* \"#utility.yul\":3708:3958   */\n    tag_98:\n        /* \"#utility.yul\":3815:3819   */\n      0x00\n        /* \"#utility.yul\":3853:3855   */\n      0x20\n        /* \"#utility.yul\":3842:3851   */\n      dup3\n        /* \"#utility.yul\":3838:3856   */\n      add\n        /* \"#utility.yul\":3830:3856   */\n      swap1\n      pop\n        /* \"#utility.yul\":3866:3951   */\n      tag_469\n        /* \"#utility.yul\":3948:3949   */\n      0x00\n        /* \"#utility.yul\":3937:3946   */\n      dup4\n        /* \"#utility.yul\":3933:3950   */\n      add\n        /* \"#utility.yul\":3924:3930   */\n      dup5\n        /* \"#utility.yul\":3866:3951   */\n      tag_369\n      jump\t// in\n    tag_469:\n        /* \"#utility.yul\":3708:3958   */\n      swap3\n      swap2\n      pop\n      pop\n      jump\t// out\n        /* \"#utility.yul\":3964:4133   */\n    tag_370:\n        /* \"#utility.yul\":4048:4059   */\n      0x00\n        /* \"#utility.yul\":4082:4088   */\n      dup3\n        /* \"#utility.yul\":4077:4080   */\n      dup3\n        /* \"#utility.yul\":4070:4089   */\n      mstore\n        /* \"#utility.yul\":4122:4126   */\n      0x20\n        /* \"#utility.yul\":4117:4120   */\n      dup3\n        /* \"#utility.yul\":4113:4127   */\n      add\n        /* \"#utility.yul\":4098:4127   */\n      swap1\n      pop\n        /* \"#utility.yul\":3964:4133   */\n      swap3\n      swap2\n      pop\n      pop\n      jump\t// out\n        /* \"#utility.yul\":4139:4320   */\n    tag_371:\n        /* \"#utility.yul\":4279:4312   */\n      0x416d6f756e742073686f756c642062652067726561746572207468616e203000\n        /* \"#utility.yul\":4275:4276   */\n      0x00\n        /* \"#utility.yul\":4267:4273   */\n      dup3\n        /* \"#utility.yul\":4263:4277   */\n      add\n        /* \"#utility.yul\":4256:4313   */\n      mstore\n        /* \"#utility.yul\":4139:4320   */\n      pop\n      jump\t// out\n        /* \"#utility.yul\":4326:4692   */\n    tag_372:\n        /* \"#utility.yul\":4468:4471   */\n      0x00\n        /* \"#utility.yul\":4489:4556   */\n      tag_473\n        /* \"#utility.yul\":4553:4555   */\n      0x1f\n        /* \"#utility.yul\":4548:4551   */\n      dup4\n        /* \"#utility.yul\":4489:4556   */\n      tag_370\n      jump\t// in\n    tag_473:\n        /* \"#utility.yul\":4482:4556   */\n      swap2\n      pop\n        /* \"#utility.yul\":4565:4658   */\n      tag_474\n        /* \"#utility.yul\":4654:4657   */\n      dup3\n        /* \"#utility.yul\":4565:4658   */\n      tag_371\n      jump\t// in\n    tag_474:\n        /* \"#utility.yul\":4683:4685   */\n      0x20\n        /* \"#utility.yul\":4678:4681   */\n      dup3\n        /* \"#utility.yul\":4674:4686   */\n      add\n        /* \"#utility.yul\":4667:4686   */\n      swap1\n      pop\n        /* \"#utility.yul\":4326:4692   */\n      swap2\n      swap1\n      pop\n      jump\t// out\n        /* \"#utility.yul\":4698:5117   */\n    tag_107:\n        /* \"#utility.yul\":4864:4868   */\n      0x00\n        /* \"#utility.yul\":4902:4904   */\n      0x20\n        /* \"#utility.yul\":4891:4900   */\n      dup3\n        /* \"#utility.yul\":4887:4905   */\n      add\n        /* \"#utility.yul\":4879:4905   */\n      swap1\n      pop\n        /* \"#utility.yul\":4951:4960   */\n      dup2\n        /* \"#utility.yul\":4945:4949   */\n      dup2\n        /* \"#utility.yul\":4941:4961   */\n      sub\n        /* \"#utility.yul\":4937:4938   */\n      0x00\n        /* \"#utility.yul\":4926:4935   */\n      dup4\n        /* \"#utility.yul\":4922:4939   */\n      add\n        /* \"#utility.yul\":4915:4962   */\n      mstore\n        /* \"#utility.yul\":4979:5110   */\n      tag_476\n        /* \"#utility.yul\":5105:5109   */\n      dup2\n        /* \"#utility.yul\":4979:5110   */\n      tag_372\n      jump\t// in\n    tag_476:\n        /* \"#utility.yul\":4971:5110   */\n      swap1\n      pop\n        /* \"#utility.yul\":4698:5117   */\n      swap2\n      swap1\n      pop\n      jump\t// out\n        /* \"#utility.yul\":5123:5287   */\n    tag_373:\n        /* \"#utility.yul\":5263:5279   */\n      0x496e76616c696420616d6f756e74000000000000000000000000000000000000\n        /* \"#utility.yul\":5259:5260   */\n      0x00\n        /* \"#utility.yul\":5251:5257   */\n      dup3\n        /* \"#utility.yul\":5247:5261   */\n      add\n        /* \"#utility.yul\":5240:5280   */\n      mstore\n        /* \"#utility.yul\":5123:5287   */\n      pop\n      jump\t// out\n        /* \"#utility.yul\":5293:5659   */\n    tag_374:\n        /* \"#utility.yul\":5435:5438   */\n      0x00\n        /* \"#utility.yul\":5456:5523   */\n      tag_479\n        /* \"#utility.yul\":5520:5522   */\n      0x0e\n        /* \"#utility.yul\":5515:5518   */\n      dup4\n        /* \"#utility.yul\":5456:5523   */\n      tag_370\n      jump\t// in\n    tag_479:\n        /* \"#utility.yul\":5449:5523   */\n      swap2\n      pop\n        /* \"#utility.yul\":5532:5625   */\n      tag_480\n        /* \"#utility.yul\":5621:5624   */\n      dup3\n        /* \"#utility.yul\":5532:5625   */\n      tag_373\n      jump\t// in\n    tag_480:\n        /* \"#utility.yul\":5650:5652   */\n      0x20\n        /* \"#utility.yul\":5645:5648   */\n      dup3\n        /* \"#utility.yul\":5641:5653   */\n      add\n        /* \"#utility.yul\":5634:5653   */\n      swap1\n      pop\n        /* \"#utility.yul\":5293:5659   */\n      swap2\n      swap1\n      pop\n      jump\t// out\n        /* \"#utility.yul\":5665:6084   */\n    tag_110:\n        /* \"#utility.yul\":5831:5835   */\n      0x00\n        /* \"#utility.yul\":5869:5871   */\n      0x20\n        /* \"#utility.yul\":5858:5867   */\n      dup3\n        /* \"#utility.yul\":5854:5872   */\n      add\n        /* \"#utility.yul\":5846:5872   */\n      swap1\n      pop\n        /* \"#utility.yul\":5918:5927   */\n      dup2\n        /* \"#utility.yul\":5912:5916   */\n      dup2\n        /* \"#utility.yul\":5908:5928   */\n      sub\n        /* \"#utility.yul\":5904:5905   */\n      0x00\n        /* \"#utility.yul\":5893:5902   */\n      dup4\n        /* \"#utility.yul\":5889:5906   */\n      add\n        /* \"#utility.yul\":5882:5929   */\n      mstore\n        /* \"#utility.yul\":5946:6077   */\n      tag_482\n        /* \"#utility.yul\":6072:6076   */\n      dup2\n        /* \"#utility.yul\":5946:6077   */\n      tag_374\n      jump\t// in\n    tag_482:\n        /* \"#utility.yul\":5938:6077   */\n      swap1\n      pop\n        /* \"#utility.yul\":5665:6084   */\n      swap2\n      swap1\n      pop\n      jump\t// out\n        /* \"#utility.yul\":6090:6270   */\n    tag_375:\n        /* \"#utility.yul\":6138:6215   */\n      0x4e487b7100000000000000000000000000000000000000000000000000000000\n        /* \"#utility.yul\":6135:6136   */\n      0x00\n        /* \"#utility.yul\":6128:6216   */\n      mstore\n        /* \"#utility.yul\":6235:6239   */\n      0x12\n        /* \"#utility.yul\":6232:6233   */\n      0x04\n        /* \"#utility.yul\":6225:6240   */\n      mstore\n        /* \"#utility.yul\":6259:6263   */\n      0x24\n        /* \"#utility.yul\":6256:6257   */\n      0x00\n        /* \"#utility.yul\":6249:6264   */\n      revert\n        /* \"#utility.yul\":6276:6452   */\n    tag_122:\n        /* \"#utility.yul\":6308:6309   */\n      0x00\n        /* \"#utility.yul\":6325:6345   */\n      tag_485\n        /* \"#utility.yul\":6343:6344   */\n      dup3\n        /* \"#utility.yul\":6325:6345   */\n      tag_353\n      jump\t// in\n    tag_485:\n        /* \"#utility.yul\":6320:6345   */\n      swap2\n      pop\n        /* \"#utility.yul\":6359:6379   */\n      tag_486\n        /* \"#utility.yul\":6377:6378   */\n      dup4\n        /* \"#utility.yul\":6359:6379   */\n      tag_353\n      jump\t// in\n    tag_486:\n        /* \"#utility.yul\":6354:6379   */\n      swap3\n      pop\n        /* \"#utility.yul\":6398:6399   */\n      dup3\n        /* \"#utility.yul\":6388:6423   */\n      tag_487\n      jumpi\n        /* \"#utility.yul\":6403:6421   */\n      tag_488\n      tag_375\n      jump\t// in\n    tag_488:\n        /* \"#utility.yul\":6388:6423   */\n    tag_487:\n        /* \"#utility.yul\":6444:6445   */\n      dup3\n        /* \"#utility.yul\":6441:6442   */\n      dup3\n        /* \"#utility.yul\":6437:6446   */\n      mod\n        /* \"#utility.yul\":6432:6446   */\n      swap1\n      pop\n        /* \"#utility.yul\":6276:6452   */\n      swap3\n      swap2\n      pop\n      pop\n      jump\t// out\n        /* \"#utility.yul\":6458:6790   */\n    tag_134:\n        /* \"#utility.yul\":6579:6583   */\n      0x00\n        /* \"#utility.yul\":6617:6619   */\n      0x40\n        /* \"#utility.yul\":6606:6615   */\n      dup3\n        /* \"#utility.yul\":6602:6620   */\n      add\n        /* \"#utility.yul\":6594:6620   */\n      swap1\n      pop\n        /* \"#utility.yul\":6630:6701   */\n      tag_490\n        /* \"#utility.yul\":6698:6699   */\n      0x00\n        /* \"#utility.yul\":6687:6696   */\n      dup4\n        /* \"#utility.yul\":6683:6700   */\n      add\n        /* \"#utility.yul\":6674:6680   */\n      dup6\n        /* \"#utility.yul\":6630:6701   */\n      tag_364\n      jump\t// in\n    tag_490:\n        /* \"#utility.yul\":6711:6783   */\n      tag_491\n        /* \"#utility.yul\":6779:6781   */\n      0x20\n        /* \"#utility.yul\":6768:6777   */\n      dup4\n        /* \"#utility.yul\":6764:6782   */\n      add\n        /* \"#utility.yul\":6755:6761   */\n      dup5\n        /* \"#utility.yul\":6711:6783   */\n      tag_354\n      jump\t// in\n    tag_491:\n        /* \"#utility.yul\":6458:6790   */\n      swap4\n      swap3\n      pop\n      pop\n      pop\n      jump\t// out\n        /* \"#utility.yul\":6796:6962   */\n    tag_376:\n        /* \"#utility.yul\":6936:6954   */\n      0x4e6f7468696e6720746f20636c61696d00000000000000000000000000000000\n        /* \"#utility.yul\":6932:6933   */\n      0x00\n        /* \"#utility.yul\":6924:6930   */\n      dup3\n        /* \"#utility.yul\":6920:6934   */\n      add\n        /* \"#utility.yul\":6913:6955   */\n      mstore\n        /* \"#utility.yul\":6796:6962   */\n      pop\n      jump\t// out\n        /* \"#utility.yul\":6968:7334   */\n    tag_377:\n        /* \"#utility.yul\":7110:7113   */\n      0x00\n        /* \"#utility.yul\":7131:7198   */\n      tag_494\n        /* \"#utility.yul\":7195:7197   */\n      0x10\n        /* \"#utility.yul\":7190:7193   */\n      dup4\n        /* \"#utility.yul\":7131:7198   */\n      tag_370\n      jump\t// in\n    tag_494:\n        /* \"#utility.yul\":7124:7198   */\n      swap2\n      pop\n        /* \"#utility.yul\":7207:7300   */\n      tag_495\n        /* \"#utility.yul\":7296:7299   */\n      dup3\n        /* \"#utility.yul\":7207:7300   */\n      tag_376\n      jump\t// in\n    tag_495:\n        /* \"#utility.yul\":7325:7327   */\n      0x20\n        /* \"#utility.yul\":7320:7323   */\n      dup3\n        /* \"#utility.yul\":7316:7328   */\n      add\n        /* \"#utility.yul\":7309:7328   */\n      swap1\n      pop\n        /* \"#utility.yul\":6968:7334   */\n      swap2\n      swap1\n      pop\n      jump\t// out\n        /* \"#utility.yul\":7340:7759   */\n    tag_142:\n        /* \"#utility.yul\":7506:7510   */\n      0x00\n        /* \"#utility.yul\":7544:7546   */\n      0x20\n        /* \"#utility.yul\":7533:7542   */\n      dup3\n        /* \"#utility.yul\":7529:7547   */\n      add\n        /* \"#utility.yul\":7521:7547   */\n      swap1\n      pop\n        /* \"#utility.yul\":7593:7602   */\n      dup2\n        /* \"#utility.yul\":7587:7591   */\n      dup2\n        /* \"#utility.yul\":7583:7603   */\n      sub\n        /* \"#utility.yul\":7579:7580   */\n      0x00\n        /* \"#utility.yul\":7568:7577   */\n      dup4\n        /* \"#utility.yul\":7564:7581   */\n      add\n        /* \"#utility.yul\":7557:7604   */\n      mstore\n        /* \"#utility.yul\":7621:7752   */\n      tag_497\n        /* \"#utility.yul\":7747:7751   */\n      dup2\n        /* \"#utility.yul\":7621:7752   */\n      tag_377\n      jump\t// in\n    tag_497:\n        /* \"#utility.yul\":7613:7752   */\n      swap1\n      pop\n        /* \"#utility.yul\":7340:7759   */\n      swap2\n      swap1\n      pop\n      jump\t// out\n        /* \"#utility.yul\":7765:7908   */\n    tag_378:\n        /* \"#utility.yul\":7822:7827   */\n      0x00\n        /* \"#utility.yul\":7853:7859   */\n      dup2\n        /* \"#utility.yul\":7847:7860   */\n      mload\n        /* \"#utility.yul\":7838:7860   */\n      swap1\n      pop\n        /* \"#utility.yul\":7869:7902   */\n      tag_499\n        /* \"#utility.yul\":7896:7901   */\n      dup2\n        /* \"#utility.yul\":7869:7902   */\n      tag_358\n      jump\t// in\n    tag_499:\n        /* \"#utility.yul\":7765:7908   */\n      swap3\n      swap2\n      pop\n      pop\n      jump\t// out\n        /* \"#utility.yul\":7914:8265   */\n    tag_147:\n        /* \"#utility.yul\":7984:7990   */\n      0x00\n        /* \"#utility.yul\":8033:8035   */\n      0x20\n        /* \"#utility.yul\":8021:8030   */\n      dup3\n        /* \"#utility.yul\":8012:8019   */\n      dup5\n        /* \"#utility.yul\":8008:8031   */\n      sub\n        /* \"#utility.yul\":8004:8036   */\n      slt\n        /* \"#utility.yul\":8001:8120   */\n      iszero\n      tag_501\n      jumpi\n        /* \"#utility.yul\":8039:8118   */\n      tag_502\n      tag_356\n      jump\t// in\n    tag_502:\n        /* \"#utility.yul\":8001:8120   */\n    tag_501:\n        /* \"#utility.yul\":8159:8160   */\n      0x00\n        /* \"#utility.yul\":8184:8248   */\n      tag_503\n        /* \"#utility.yul\":8240:8247   */\n      dup5\n        /* \"#utility.yul\":8231:8237   */\n      dup3\n        /* \"#utility.yul\":8220:8229   */\n      dup6\n        /* \"#utility.yul\":8216:8238   */\n      add\n        /* \"#utility.yul\":8184:8248   */\n      tag_378\n      jump\t// in\n    tag_503:\n        /* \"#utility.yul\":8174:8248   */\n      swap2\n      pop\n        /* \"#utility.yul\":8130:8258   */\n      pop\n        /* \"#utility.yul\":7914:8265   */\n      swap3\n      swap2\n      pop\n      pop\n      jump\t// out\n        /* \"#utility.yul\":8271:8453   */\n    tag_379:\n        /* \"#utility.yul\":8411:8445   */\n      0x4f776e61626c653a2063616c6c6572206973206e6f7420746865206f776e6572\n        /* \"#utility.yul\":8407:8408   */\n      0x00\n        /* \"#utility.yul\":8399:8405   */\n      dup3\n        /* \"#utility.yul\":8395:8409   */\n      add\n        /* \"#utility.yul\":8388:8446   */\n      mstore\n        /* \"#utility.yul\":8271:8453   */\n      pop\n      jump\t// out\n        /* \"#utility.yul\":8459:8825   */\n    tag_380:\n        /* \"#utility.yul\":8601:8604   */\n      0x00\n        /* \"#utility.yul\":8622:8689   */\n      tag_506\n        /* \"#utility.yul\":8686:8688   */\n      0x20\n        /* \"#utility.yul\":8681:8684   */\n      dup4\n        /* \"#utility.yul\":8622:8689   */\n      tag_370\n      jump\t// in\n    tag_506:\n        /* \"#utility.yul\":8615:8689   */\n      swap2\n      pop\n        /* \"#utility.yul\":8698:8791   */\n      tag_507\n        /* \"#utility.yul\":8787:8790   */\n      dup3\n        /* \"#utility.yul\":8698:8791   */\n      tag_379\n      jump\t// in\n    tag_507:\n        /* \"#utility.yul\":8816:8818   */\n      0x20\n        /* \"#utility.yul\":8811:8814   */\n      dup3\n        /* \"#utility.yul\":8807:8819   */\n      add\n        /* \"#utility.yul\":8800:8819   */\n      swap1\n      pop\n        /* \"#utility.yul\":8459:8825   */\n      swap2\n      swap1\n      pop\n      jump\t// out\n        /* \"#utility.yul\":8831:9250   */\n    tag_172:\n        /* \"#utility.yul\":8997:9001   */\n      0x00\n        /* \"#utility.yul\":9035:9037   */\n      0x20\n        /* \"#utility.yul\":9024:9033   */\n      dup3\n        /* \"#utility.yul\":9020:9038   */\n      add\n        /* \"#utility.yul\":9012:9038   */\n      swap1\n      pop\n        /* \"#utility.yul\":9084:9093   */\n      dup2\n        /* \"#utility.yul\":9078:9082   */\n      dup2\n        /* \"#utility.yul\":9074:9094   */\n      sub\n        /* \"#utility.yul\":9070:9071   */\n      0x00\n        /* \"#utility.yul\":9059:9068   */\n      dup4\n        /* \"#utility.yul\":9055:9072   */\n      add\n        /* \"#utility.yul\":9048:9095   */\n      mstore\n        /* \"#utility.yul\":9112:9243   */\n      tag_509\n        /* \"#utility.yul\":9238:9242   */\n      dup2\n        /* \"#utility.yul\":9112:9243   */\n      tag_380\n      jump\t// in\n    tag_509:\n        /* \"#utility.yul\":9104:9243   */\n      swap1\n      pop\n        /* \"#utility.yul\":8831:9250   */\n      swap2\n      swap1\n      pop\n      jump\t// out\n        /* \"#utility.yul\":9256:9419   */\n    tag_381:\n        /* \"#utility.yul\":9396:9411   */\n      0x43616e2774206265207a65726f00000000000000000000000000000000000000\n        /* \"#utility.yul\":9392:9393   */\n      0x00\n        /* \"#utility.yul\":9384:9390   */\n      dup3\n        /* \"#utility.yul\":9380:9394   */\n      add\n        /* \"#utility.yul\":9373:9412   */\n      mstore\n        /* \"#utility.yul\":9256:9419   */\n      pop\n      jump\t// out\n        /* \"#utility.yul\":9425:9791   */\n    tag_382:\n        /* \"#utility.yul\":9567:9570   */\n      0x00\n        /* \"#utility.yul\":9588:9655   */\n      tag_512\n        /* \"#utility.yul\":9652:9654   */\n      0x0d\n        /* \"#utility.yul\":9647:9650   */\n      dup4\n        /* \"#utility.yul\":9588:9655   */\n      tag_370\n      jump\t// in\n    tag_512:\n        /* \"#utility.yul\":9581:9655   */\n      swap2\n      pop\n        /* \"#utility.yul\":9664:9757   */\n      tag_513\n        /* \"#utility.yul\":9753:9756   */\n      dup3\n        /* \"#utility.yul\":9664:9757   */\n      tag_381\n      jump\t// in\n    tag_513:\n        /* \"#utility.yul\":9782:9784   */\n      0x20\n        /* \"#utility.yul\":9777:9780   */\n      dup3\n        /* \"#utility.yul\":9773:9785   */\n      add\n        /* \"#utility.yul\":9766:9785   */\n      swap1\n      pop\n        /* \"#utility.yul\":9425:9791   */\n      swap2\n      swap1\n      pop\n      jump\t// out\n        /* \"#utility.yul\":9797:10216   */\n    tag_176:\n        /* \"#utility.yul\":9963:9967   */\n      0x00\n        /* \"#utility.yul\":10001:10003   */\n      0x20\n        /* \"#utility.yul\":9990:9999   */\n      dup3\n        /* \"#utility.yul\":9986:10004   */\n      add\n        /* \"#utility.yul\":9978:10004   */\n      swap1\n      pop\n        /* \"#utility.yul\":10050:10059   */\n      dup2\n        /* \"#utility.yul\":10044:10048   */\n      dup2\n        /* \"#utility.yul\":10040:10060   */\n      sub\n        /* \"#utility.yul\":10036:10037   */\n      0x00\n        /* \"#utility.yul\":10025:10034   */\n      dup4\n        /* \"#utility.yul\":10021:10038   */\n      add\n        /* \"#utility.yul\":10014:10061   */\n      mstore\n        /* \"#utility.yul\":10078:10209   */\n      tag_515\n        /* \"#utility.yul\":10204:10208   */\n      dup2\n        /* \"#utility.yul\":10078:10209   */\n      tag_382\n      jump\t// in\n    tag_515:\n        /* \"#utility.yul\":10070:10209   */\n      swap1\n      pop\n        /* \"#utility.yul\":9797:10216   */\n      swap2\n      swap1\n      pop\n      jump\t// out\n        /* \"#utility.yul\":10222:10385   */\n    tag_383:\n        /* \"#utility.yul\":10362:10377   */\n      0x496e73756666696369656e742100000000000000000000000000000000000000\n        /* \"#utility.yul\":10358:10359   */\n      0x00\n        /* \"#utility.yul\":10350:10356   */\n      dup3\n        /* \"#utility.yul\":10346:10360   */\n      add\n        /* \"#utility.yul\":10339:10378   */\n      mstore\n        /* \"#utility.yul\":10222:10385   */\n      pop\n      jump\t// out\n        /* \"#utility.yul\":10391:10757   */\n    tag_384:\n        /* \"#utility.yul\":10533:10536   */\n      0x00\n        /* \"#utility.yul\":10554:10621   */\n      tag_518\n        /* \"#utility.yul\":10618:10620   */\n      0x0d\n        /* \"#utility.yul\":10613:10616   */\n      dup4\n        /* \"#utility.yul\":10554:10621   */\n      tag_370\n      jump\t// in\n    tag_518:\n        /* \"#utility.yul\":10547:10621   */\n      swap2\n      pop\n        /* \"#utility.yul\":10630:10723   */\n      tag_519\n        /* \"#utility.yul\":10719:10722   */\n      dup3\n        /* \"#utility.yul\":10630:10723   */\n      tag_383\n      jump\t// in\n    tag_519:\n        /* \"#utility.yul\":10748:10750   */\n      0x20\n        /* \"#utility.yul\":10743:10746   */\n      dup3\n        /* \"#utility.yul\":10739:10751   */\n      add\n        /* \"#utility.yul\":10732:10751   */\n      swap1\n      pop\n        /* \"#utility.yul\":10391:10757   */\n      swap2\n      swap1\n      pop\n      jump\t// out\n        /* \"#utility.yul\":10763:11182   */\n    tag_186:\n        /* \"#utility.yul\":10929:10933   */\n      0x00\n        /* \"#utility.yul\":10967:10969   */\n      0x20\n        /* \"#utility.yul\":10956:10965   */\n      dup3\n        /* \"#utility.yul\":10952:10970   */\n      add\n        /* \"#utility.yul\":10944:10970   */\n      swap1\n      pop\n        /* \"#utility.yul\":11016:11025   */\n      dup2\n        /* \"#utility.yul\":11010:11014   */\n      dup2\n        /* \"#utility.yul\":11006:11026   */\n      sub\n        /* \"#utility.yul\":11002:11003   */\n      0x00\n        /* \"#utility.yul\":10991:11000   */\n      dup4\n        /* \"#utility.yul\":10987:11004   */\n      add\n        /* \"#utility.yul\":10980:11027   */\n      mstore\n        /* \"#utility.yul\":11044:11175   */\n      tag_521\n        /* \"#utility.yul\":11170:11174   */\n      dup2\n        /* \"#utility.yul\":11044:11175   */\n      tag_384\n      jump\t// in\n    tag_521:\n        /* \"#utility.yul\":11036:11175   */\n      swap1\n      pop\n        /* \"#utility.yul\":10763:11182   */\n      swap2\n      swap1\n      pop\n      jump\t// out\n        /* \"#utility.yul\":11188:11353   */\n    tag_385:\n        /* \"#utility.yul\":11328:11345   */\n      0x416c726561647920737461727465640000000000000000000000000000000000\n        /* \"#utility.yul\":11324:11325   */\n      0x00\n        /* \"#utility.yul\":11316:11322   */\n      dup3\n        /* \"#utility.yul\":11312:11326   */\n      add\n        /* \"#utility.yul\":11305:11346   */\n      mstore\n        /* \"#utility.yul\":11188:11353   */\n      pop\n      jump\t// out\n        /* \"#utility.yul\":11359:11725   */\n    tag_386:\n        /* \"#utility.yul\":11501:11504   */\n      0x00\n        /* \"#utility.yul\":11522:11589   */\n      tag_524\n        /* \"#utility.yul\":11586:11588   */\n      0x0f\n        /* \"#utility.yul\":11581:11584   */\n      dup4\n        /* \"#utility.yul\":11522:11589   */\n      tag_370\n      jump\t// in\n    tag_524:\n        /* \"#utility.yul\":11515:11589   */\n      swap2\n      pop\n        /* \"#utility.yul\":11598:11691   */\n      tag_525\n        /* \"#utility.yul\":11687:11690   */\n      dup3\n        /* \"#utility.yul\":11598:11691   */\n      tag_385\n      jump\t// in\n    tag_525:\n        /* \"#utility.yul\":11716:11718   */\n      0x20\n        /* \"#utility.yul\":11711:11714   */\n      dup3\n        /* \"#utility.yul\":11707:11719   */\n      add\n        /* \"#utility.yul\":11700:11719   */\n      swap1\n      pop\n        /* \"#utility.yul\":11359:11725   */\n      swap2\n      swap1\n      pop\n      jump\t// out\n        /* \"#utility.yul\":11731:12150   */\n    tag_189:\n        /* \"#utility.yul\":11897:11901   */\n      0x00\n        /* \"#utility.yul\":11935:11937   */\n      0x20\n        /* \"#utility.yul\":11924:11933   */\n      dup3\n        /* \"#utility.yul\":11920:11938   */\n      add\n        /* \"#utility.yul\":11912:11938   */\n      swap1\n      pop\n        /* \"#utility.yul\":11984:11993   */\n      dup2\n        /* \"#utility.yul\":11978:11982   */\n      dup2\n        /* \"#utility.yul\":11974:11994   */\n      sub\n        /* \"#utility.yul\":11970:11971   */\n      0x00\n        /* \"#utility.yul\":11959:11968   */\n      dup4\n        /* \"#utility.yul\":11955:11972   */\n      add\n        /* \"#utility.yul\":11948:11995   */\n      mstore\n        /* \"#utility.yul\":12012:12143   */\n      tag_527\n        /* \"#utility.yul\":12138:12142   */\n      dup2\n        /* \"#utility.yul\":12012:12143   */\n      tag_386\n      jump\t// in\n    tag_527:\n        /* \"#utility.yul\":12004:12143   */\n      swap1\n      pop\n        /* \"#utility.yul\":11731:12150   */\n      swap2\n      swap1\n      pop\n      jump\t// out\n        /* \"#utility.yul\":12156:12318   */\n    tag_387:\n        /* \"#utility.yul\":12296:12310   */\n      0x496e73756666696369656e740000000000000000000000000000000000000000\n        /* \"#utility.yul\":12292:12293   */\n      0x00\n        /* \"#utility.yul\":12284:12290   */\n      dup3\n        /* \"#utility.yul\":12280:12294   */\n      add\n        /* \"#utility.yul\":12273:12311   */\n      mstore\n        /* \"#utility.yul\":12156:12318   */\n      pop\n      jump\t// out\n        /* \"#utility.yul\":12324:12690   */\n    tag_388:\n        /* \"#utility.yul\":12466:12469   */\n      0x00\n        /* \"#utility.yul\":12487:12554   */\n      tag_530\n        /* \"#utility.yul\":12551:12553   */\n      0x0c\n        /* \"#utility.yul\":12546:12549   */\n      dup4\n        /* \"#utility.yul\":12487:12554   */\n      tag_370\n      jump\t// in\n    tag_530:\n        /* \"#utility.yul\":12480:12554   */\n      swap2\n      pop\n        /* \"#utility.yul\":12563:12656   */\n      tag_531\n        /* \"#utility.yul\":12652:12655   */\n      dup3\n        /* \"#utility.yul\":12563:12656   */\n      tag_387\n      jump\t// in\n    tag_531:\n        /* \"#utility.yul\":12681:12683   */\n      0x20\n        /* \"#utility.yul\":12676:12679   */\n      dup3\n        /* \"#utility.yul\":12672:12684   */\n      add\n        /* \"#utility.yul\":12665:12684   */\n      swap1\n      pop\n        /* \"#utility.yul\":12324:12690   */\n      swap2\n      swap1\n      pop\n      jump\t// out\n        /* \"#utility.yul\":12696:13115   */\n    tag_196:\n        /* \"#utility.yul\":12862:12866   */\n      0x00\n        /* \"#utility.yul\":12900:12902   */\n      0x20\n        /* \"#utility.yul\":12889:12898   */\n      dup3\n        /* \"#utility.yul\":12885:12903   */\n      add\n        /* \"#utility.yul\":12877:12903   */\n      swap1\n      pop\n        /* \"#utility.yul\":12949:12958   */\n      dup2\n        /* \"#utility.yul\":12943:12947   */\n      dup2\n        /* \"#utility.yul\":12939:12959   */\n      sub\n        /* \"#utility.yul\":12935:12936   */\n      0x00\n        /* \"#utility.yul\":12924:12933   */\n      dup4\n        /* \"#utility.yul\":12920:12937   */\n      add\n        /* \"#utility.yul\":12913:12960   */\n      mstore\n        /* \"#utility.yul\":12977:13108   */\n      tag_533\n        /* \"#utility.yul\":13103:13107   */\n      dup2\n        /* \"#utility.yul\":12977:13108   */\n      tag_388\n      jump\t// in\n    tag_533:\n        /* \"#utility.yul\":12969:13108   */\n      swap1\n      pop\n        /* \"#utility.yul\":12696:13115   */\n      swap2\n      swap1\n      pop\n      jump\t// out\n        /* \"#utility.yul\":13121:13283   */\n    tag_389:\n        /* \"#utility.yul\":13261:13275   */\n      0x496e76616c6964204d6f64650000000000000000000000000000000000000000\n        /* \"#utility.yul\":13257:13258   */\n      0x00\n        /* \"#utility.yul\":13249:13255   */\n      dup3\n        /* \"#utility.yul\":13245:13259   */\n      add\n        /* \"#utility.yul\":13238:13276   */\n      mstore\n        /* \"#utility.yul\":13121:13283   */\n      pop\n      jump\t// out\n        /* \"#utility.yul\":13289:13655   */\n    tag_390:\n        /* \"#utility.yul\":13431:13434   */\n      0x00\n        /* \"#utility.yul\":13452:13519   */\n      tag_536\n        /* \"#utility.yul\":13516:13518   */\n      0x0c\n        /* \"#utility.yul\":13511:13514   */\n      dup4\n        /* \"#utility.yul\":13452:13519   */\n      tag_370\n      jump\t// in\n    tag_536:\n        /* \"#utility.yul\":13445:13519   */\n      swap2\n      pop\n        /* \"#utility.yul\":13528:13621   */\n      tag_537\n        /* \"#utility.yul\":13617:13620   */\n      dup3\n        /* \"#utility.yul\":13528:13621   */\n      tag_389\n      jump\t// in\n    tag_537:\n        /* \"#utility.yul\":13646:13648   */\n      0x20\n        /* \"#utility.yul\":13641:13644   */\n      dup3\n        /* \"#utility.yul\":13637:13649   */\n      add\n        /* \"#utility.yul\":13630:13649   */\n      swap1\n      pop\n        /* \"#utility.yul\":13289:13655   */\n      swap2\n      swap1\n      pop\n      jump\t// out\n        /* \"#utility.yul\":13661:14080   */\n    tag_208:\n        /* \"#utility.yul\":13827:13831   */\n      0x00\n        /* \"#utility.yul\":13865:13867   */\n      0x20\n        /* \"#utility.yul\":13854:13863   */\n      dup3\n        /* \"#utility.yul\":13850:13868   */\n      add\n        /* \"#utility.yul\":13842:13868   */\n      swap1\n      pop\n        /* \"#utility.yul\":13914:13923   */\n      dup2\n        /* \"#utility.yul\":13908:13912   */\n      dup2\n        /* \"#utility.yul\":13904:13924   */\n      sub\n        /* \"#utility.yul\":13900:13901   */\n      0x00\n        /* \"#utility.yul\":13889:13898   */\n      dup4\n        /* \"#utility.yul\":13885:13902   */\n      add\n        /* \"#utility.yul\":13878:13925   */\n      mstore\n        /* \"#utility.yul\":13942:14073   */\n      tag_539\n        /* \"#utility.yul\":14068:14072   */\n      dup2\n        /* \"#utility.yul\":13942:14073   */\n      tag_390\n      jump\t// in\n    tag_539:\n        /* \"#utility.yul\":13934:14073   */\n      swap1\n      pop\n        /* \"#utility.yul\":13661:14080   */\n      swap2\n      swap1\n      pop\n      jump\t// out\n        /* \"#utility.yul\":14086:14259   */\n    tag_391:\n        /* \"#utility.yul\":14226:14251   */\n      0x496e76616c6964204c6f636b7570204475726174696f6e000000000000000000\n        /* \"#utility.yul\":14222:14223   */\n      0x00\n        /* \"#utility.yul\":14214:14220   */\n      dup3\n        /* \"#utility.yul\":14210:14224   */\n      add\n        /* \"#utility.yul\":14203:14252   */\n      mstore\n        /* \"#utility.yul\":14086:14259   */\n      pop\n      jump\t// out\n        /* \"#utility.yul\":14265:14631   */\n    tag_392:\n        /* \"#utility.yul\":14407:14410   */\n      0x00\n        /* \"#utility.yul\":14428:14495   */\n      tag_542\n        /* \"#utility.yul\":14492:14494   */\n      0x17\n        /* \"#utility.yul\":14487:14490   */\n      dup4\n        /* \"#utility.yul\":14428:14495   */\n      tag_370\n      jump\t// in\n    tag_542:\n        /* \"#utility.yul\":14421:14495   */\n      swap2\n      pop\n        /* \"#utility.yul\":14504:14597   */\n      tag_543\n        /* \"#utility.yul\":14593:14596   */\n      dup3\n        /* \"#utility.yul\":14504:14597   */\n      tag_391\n      jump\t// in\n    tag_543:\n        /* \"#utility.yul\":14622:14624   */\n      0x20\n        /* \"#utility.yul\":14617:14620   */\n      dup3\n        /* \"#utility.yul\":14613:14625   */\n      add\n        /* \"#utility.yul\":14606:14625   */\n      swap1\n      pop\n        /* \"#utility.yul\":14265:14631   */\n      swap2\n      swap1\n      pop\n      jump\t// out\n        /* \"#utility.yul\":14637:15056   */\n    tag_222:\n        /* \"#utility.yul\":14803:14807   */\n      0x00\n        /* \"#utility.yul\":14841:14843   */\n      0x20\n        /* \"#utility.yul\":14830:14839   */\n      dup3\n        /* \"#utility.yul\":14826:14844   */\n      add\n        /* \"#utility.yul\":14818:14844   */\n      swap1\n      pop\n        /* \"#utility.yul\":14890:14899   */\n      dup2\n        /* \"#utility.yul\":14884:14888   */\n      dup2\n        /* \"#utility.yul\":14880:14900   */\n      sub\n        /* \"#utility.yul\":14876:14877   */\n      0x00\n        /* \"#utility.yul\":14865:14874   */\n      dup4\n        /* \"#utility.yul\":14861:14878   */\n      add\n        /* \"#utility.yul\":14854:14901   */\n      mstore\n        /* \"#utility.yul\":14918:15049   */\n      tag_545\n        /* \"#utility.yul\":15044:15048   */\n      dup2\n        /* \"#utility.yul\":14918:15049   */\n      tag_392\n      jump\t// in\n    tag_545:\n        /* \"#utility.yul\":14910:15049   */\n      swap1\n      pop\n        /* \"#utility.yul\":14637:15056   */\n      swap2\n      swap1\n      pop\n      jump\t// out\n        /* \"#utility.yul\":15062:15238   */\n    tag_393:\n        /* \"#utility.yul\":15202:15230   */\n      0x496e76616c696420556e7374616b696e67204665652052617465000000000000\n        /* \"#utility.yul\":15198:15199   */\n      0x00\n        /* \"#utility.yul\":15190:15196   */\n      dup3\n        /* \"#utility.yul\":15186:15200   */\n      add\n        /* \"#utility.yul\":15179:15231   */\n      mstore\n        /* \"#utility.yul\":15062:15238   */\n      pop\n      jump\t// out\n        /* \"#utility.yul\":15244:15610   */\n    tag_394:\n        /* \"#utility.yul\":15386:15389   */\n      0x00\n        /* \"#utility.yul\":15407:15474   */\n      tag_548\n        /* \"#utility.yul\":15471:15473   */\n      0x1a\n        /* \"#utility.yul\":15466:15469   */\n      dup4\n        /* \"#utility.yul\":15407:15474   */\n      tag_370\n      jump\t// in\n    tag_548:\n        /* \"#utility.yul\":15400:15474   */\n      swap2\n      pop\n        /* \"#utility.yul\":15483:15576   */\n      tag_549\n        /* \"#utility.yul\":15572:15575   */\n      dup3\n        /* \"#utility.yul\":15483:15576   */\n      tag_393\n      jump\t// in\n    tag_549:\n        /* \"#utility.yul\":15601:15603   */\n      0x20\n        /* \"#utility.yul\":15596:15599   */\n      dup3\n        /* \"#utility.yul\":15592:15604   */\n      add\n        /* \"#utility.yul\":15585:15604   */\n      swap1\n      pop\n        /* \"#utility.yul\":15244:15610   */\n      swap2\n      swap1\n      pop\n      jump\t// out\n        /* \"#utility.yul\":15616:16035   */\n    tag_243:\n        /* \"#utility.yul\":15782:15786   */\n      0x00\n        /* \"#utility.yul\":15820:15822   */\n      0x20\n        /* \"#utility.yul\":15809:15818   */\n      dup3\n        /* \"#utility.yul\":15805:15823   */\n      add\n        /* \"#utility.yul\":15797:15823   */\n      swap1\n      pop\n        /* \"#utility.yul\":15869:15878   */\n      dup2\n        /* \"#utility.yul\":15863:15867   */\n      dup2\n        /* \"#utility.yul\":15859:15879   */\n      sub\n        /* \"#utility.yul\":15855:15856   */\n      0x00\n        /* \"#utility.yul\":15844:15853   */\n      dup4\n        /* \"#utility.yul\":15840:15857   */\n      add\n        /* \"#utility.yul\":15833:15880   */\n      mstore\n        /* \"#utility.yul\":15897:16028   */\n      tag_551\n        /* \"#utility.yul\":16023:16027   */\n      dup2\n        /* \"#utility.yul\":15897:16028   */\n      tag_394\n      jump\t// in\n    tag_551:\n        /* \"#utility.yul\":15889:16028   */\n      swap1\n      pop\n        /* \"#utility.yul\":15616:16035   */\n      swap2\n      swap1\n      pop\n      jump\t// out\n        /* \"#utility.yul\":16041:16204   */\n    tag_395:\n        /* \"#utility.yul\":16181:16196   */\n      0x496e76616c69642076616c756500000000000000000000000000000000000000\n        /* \"#utility.yul\":16177:16178   */\n      0x00\n        /* \"#utility.yul\":16169:16175   */\n      dup3\n        /* \"#utility.yul\":16165:16179   */\n      add\n        /* \"#utility.yul\":16158:16197   */\n      mstore\n        /* \"#utility.yul\":16041:16204   */\n      pop\n      jump\t// out\n        /* \"#utility.yul\":16210:16576   */\n    tag_396:\n        /* \"#utility.yul\":16352:16355   */\n      0x00\n        /* \"#utility.yul\":16373:16440   */\n      tag_554\n        /* \"#utility.yul\":16437:16439   */\n      0x0d\n        /* \"#utility.yul\":16432:16435   */\n      dup4\n        /* \"#utility.yul\":16373:16440   */\n      tag_370\n      jump\t// in\n    tag_554:\n        /* \"#utility.yul\":16366:16440   */\n      swap2\n      pop\n        /* \"#utility.yul\":16449:16542   */\n      tag_555\n        /* \"#utility.yul\":16538:16541   */\n      dup3\n        /* \"#utility.yul\":16449:16542   */\n      tag_395\n      jump\t// in\n    tag_555:\n        /* \"#utility.yul\":16567:16569   */\n      0x20\n        /* \"#utility.yul\":16562:16565   */\n      dup3\n        /* \"#utility.yul\":16558:16570   */\n      add\n        /* \"#utility.yul\":16551:16570   */\n      swap1\n      pop\n        /* \"#utility.yul\":16210:16576   */\n      swap2\n      swap1\n      pop\n      jump\t// out\n        /* \"#utility.yul\":16582:17001   */\n    tag_253:\n        /* \"#utility.yul\":16748:16752   */\n      0x00\n        /* \"#utility.yul\":16786:16788   */\n      0x20\n        /* \"#utility.yul\":16775:16784   */\n      dup3\n        /* \"#utility.yul\":16771:16789   */\n      add\n        /* \"#utility.yul\":16763:16789   */\n      swap1\n      pop\n        /* \"#utility.yul\":16835:16844   */\n      dup2\n        /* \"#utility.yul\":16829:16833   */\n      dup2\n        /* \"#utility.yul\":16825:16845   */\n      sub\n        /* \"#utility.yul\":16821:16822   */\n      0x00\n        /* \"#utility.yul\":16810:16819   */\n      dup4\n        /* \"#utility.yul\":16806:16823   */\n      add\n        /* \"#utility.yul\":16799:16846   */\n      mstore\n        /* \"#utility.yul\":16863:16994   */\n      tag_557\n        /* \"#utility.yul\":16989:16993   */\n      dup2\n        /* \"#utility.yul\":16863:16994   */\n      tag_396\n      jump\t// in\n    tag_557:\n        /* \"#utility.yul\":16855:16994   */\n      swap1\n      pop\n        /* \"#utility.yul\":16582:17001   */\n      swap2\n      swap1\n      pop\n      jump\t// out\n        /* \"#utility.yul\":17007:17178   */\n    tag_397:\n        /* \"#utility.yul\":17147:17170   */\n      0x4572726f723a20696e76616c6964207374616b65720000000000000000000000\n        /* \"#utility.yul\":17143:17144   */\n      0x00\n        /* \"#utility.yul\":17135:17141   */\n      dup3\n        /* \"#utility.yul\":17131:17145   */\n      add\n        /* \"#utility.yul\":17124:17171   */\n      mstore\n        /* \"#utility.yul\":17007:17178   */\n      pop\n      jump\t// out\n        /* \"#utility.yul\":17184:17550   */\n    tag_398:\n        /* \"#utility.yul\":17326:17329   */\n      0x00\n        /* \"#utility.yul\":17347:17414   */\n      tag_560\n        /* \"#utility.yul\":17411:17413   */\n      0x15\n        /* \"#utility.yul\":17406:17409   */\n      dup4\n        /* \"#utility.yul\":17347:17414   */\n      tag_370\n      jump\t// in\n    tag_560:\n        /* \"#utility.yul\":17340:17414   */\n      swap2\n      pop\n        /* \"#utility.yul\":17423:17516   */\n      tag_561\n        /* \"#utility.yul\":17512:17515   */\n      dup3\n        /* \"#utility.yul\":17423:17516   */\n      tag_397\n      jump\t// in\n    tag_561:\n        /* \"#utility.yul\":17541:17543   */\n      0x20\n        /* \"#utility.yul\":17536:17539   */\n      dup3\n        /* \"#utility.yul\":17532:17544   */\n      add\n        /* \"#utility.yul\":17525:17544   */\n      swap1\n      pop\n        /* \"#utility.yul\":17184:17550   */\n      swap2\n      swap1\n      pop\n      jump\t// out\n        /* \"#utility.yul\":17556:17975   */\n    tag_266:\n        /* \"#utility.yul\":17722:17726   */\n      0x00\n        /* \"#utility.yul\":17760:17762   */\n      0x20\n        /* \"#utility.yul\":17749:17758   */\n      dup3\n        /* \"#utility.yul\":17745:17763   */\n      add\n        /* \"#utility.yul\":17737:17763   */\n      swap1\n      pop\n        /* \"#utility.yul\":17809:17818   */\n      dup2\n        /* \"#utility.yul\":17803:17807   */\n      dup2\n        /* \"#utility.yul\":17799:17819   */\n      sub\n        /* \"#utility.yul\":17795:17796   */\n      0x00\n        /* \"#utility.yul\":17784:17793   */\n      dup4\n        /* \"#utility.yul\":17780:17797   */\n      add\n        /* \"#utility.yul\":17773:17820   */\n      mstore\n        /* \"#utility.yul\":17837:17968   */\n      tag_563\n        /* \"#utility.yul\":17963:17967   */\n      dup2\n        /* \"#utility.yul\":17837:17968   */\n      tag_398\n      jump\t// in\n    tag_563:\n        /* \"#utility.yul\":17829:17968   */\n      swap1\n      pop\n        /* \"#utility.yul\":17556:17975   */\n      swap2\n      swap1\n      pop\n      jump\t// out\n        /* \"#utility.yul\":17981:18206   */\n    tag_399:\n        /* \"#utility.yul\":18121:18155   */\n      0x4f776e61626c653a206e6577206f776e657220697320746865207a65726f2061\n        /* \"#utility.yul\":18117:18118   */\n      0x00\n        /* \"#utility.yul\":18109:18115   */\n      dup3\n        /* \"#utility.yul\":18105:18119   */\n      add\n        /* \"#utility.yul\":18098:18156   */\n      mstore\n        /* \"#utility.yul\":18190:18198   */\n      0x6464726573730000000000000000000000000000000000000000000000000000\n        /* \"#utility.yul\":18185:18187   */\n      0x20\n        /* \"#utility.yul\":18177:18183   */\n      dup3\n        /* \"#utility.yul\":18173:18188   */\n      add\n        /* \"#utility.yul\":18166:18199   */\n      mstore\n        /* \"#utility.yul\":17981:18206   */\n      pop\n      jump\t// out\n        /* \"#utility.yul\":18212:18578   */\n    tag_400:\n        /* \"#utility.yul\":18354:18357   */\n      0x00\n        /* \"#utility.yul\":18375:18442   */\n      tag_566\n        /* \"#utility.yul\":18439:18441   */\n      0x26\n        /* \"#utility.yul\":18434:18437   */\n      dup4\n        /* \"#utility.yul\":18375:18442   */\n      tag_370\n      jump\t// in\n    tag_566:\n        /* \"#utility.yul\":18368:18442   */\n      swap2\n      pop\n        /* \"#utility.yul\":18451:18544   */\n      tag_567\n        /* \"#utility.yul\":18540:18543   */\n      dup3\n        /* \"#utility.yul\":18451:18544   */\n      tag_399\n      jump\t// in\n    tag_567:\n        /* \"#utility.yul\":18569:18571   */\n      0x40\n        /* \"#utility.yul\":18564:18567   */\n      dup3\n        /* \"#utility.yul\":18560:18572   */\n      add\n        /* \"#utility.yul\":18553:18572   */\n      swap1\n      pop\n        /* \"#utility.yul\":18212:18578   */\n      swap2\n      swap1\n      pop\n      jump\t// out\n        /* \"#utility.yul\":18584:19003   */\n    tag_284:\n        /* \"#utility.yul\":18750:18754   */\n      0x00\n        /* \"#utility.yul\":18788:18790   */\n      0x20\n        /* \"#utility.yul\":18777:18786   */\n      dup3\n        /* \"#utility.yul\":18773:18791   */\n      add\n        /* \"#utility.yul\":18765:18791   */\n      swap1\n      pop\n        /* \"#utility.yul\":18837:18846   */\n      dup2\n        /* \"#utility.yul\":18831:18835   */\n      dup2\n        /* \"#utility.yul\":18827:18847   */\n      sub\n        /* \"#utility.yul\":18823:18824   */\n      0x00\n        /* \"#utility.yul\":18812:18821   */\n      dup4\n        /* \"#utility.yul\":18808:18825   */\n      add\n        /* \"#utility.yul\":18801:18848   */\n      mstore\n        /* \"#utility.yul\":18865:18996   */\n      tag_569\n        /* \"#utility.yul\":18991:18995   */\n      dup2\n        /* \"#utility.yul\":18865:18996   */\n      tag_400\n      jump\t// in\n    tag_569:\n        /* \"#utility.yul\":18857:18996   */\n      swap1\n      pop\n        /* \"#utility.yul\":18584:19003   */\n      swap2\n      swap1\n      pop\n      jump\t// out\n        /* \"#utility.yul\":19009:19189   */\n    tag_401:\n        /* \"#utility.yul\":19057:19134   */\n      0x4e487b7100000000000000000000000000000000000000000000000000000000\n        /* \"#utility.yul\":19054:19055   */\n      0x00\n        /* \"#utility.yul\":19047:19135   */\n      mstore\n        /* \"#utility.yul\":19154:19158   */\n      0x11\n        /* \"#utility.yul\":19151:19152   */\n      0x04\n        /* \"#utility.yul\":19144:19159   */\n      mstore\n        /* \"#utility.yul\":19178:19182   */\n      0x24\n        /* \"#utility.yul\":19175:19176   */\n      0x00\n        /* \"#utility.yul\":19168:19183   */\n      revert\n        /* \"#utility.yul\":19195:19386   */\n    tag_297:\n        /* \"#utility.yul\":19235:19239   */\n      0x00\n        /* \"#utility.yul\":19255:19275   */\n      tag_572\n        /* \"#utility.yul\":19273:19274   */\n      dup3\n        /* \"#utility.yul\":19255:19275   */\n      tag_353\n      jump\t// in\n    tag_572:\n        /* \"#utility.yul\":19250:19275   */\n      swap2\n      pop\n        /* \"#utility.yul\":19289:19309   */\n      tag_573\n        /* \"#utility.yul\":19307:19308   */\n      dup4\n        /* \"#utility.yul\":19289:19309   */\n      tag_353\n      jump\t// in\n    tag_573:\n        /* \"#utility.yul\":19284:19309   */\n      swap3\n      pop\n        /* \"#utility.yul\":19328:19329   */\n      dup3\n        /* \"#utility.yul\":19325:19326   */\n      dup3\n        /* \"#utility.yul\":19322:19330   */\n      lt\n        /* \"#utility.yul\":19319:19353   */\n      iszero\n      tag_574\n      jumpi\n        /* \"#utility.yul\":19333:19351   */\n      tag_575\n      tag_401\n      jump\t// in\n    tag_575:\n        /* \"#utility.yul\":19319:19353   */\n    tag_574:\n        /* \"#utility.yul\":19378:19379   */\n      dup3\n        /* \"#utility.yul\":19375:19376   */\n      dup3\n        /* \"#utility.yul\":19371:19380   */\n      sub\n        /* \"#utility.yul\":19363:19380   */\n      swap1\n      pop\n        /* \"#utility.yul\":19195:19386   */\n      swap3\n      swap2\n      pop\n      pop\n      jump\t// out\n        /* \"#utility.yul\":19392:19577   */\n    tag_300:\n        /* \"#utility.yul\":19432:19433   */\n      0x00\n        /* \"#utility.yul\":19449:19469   */\n      tag_577\n        /* \"#utility.yul\":19467:19468   */\n      dup3\n        /* \"#utility.yul\":19449:19469   */\n      tag_353\n      jump\t// in\n    tag_577:\n        /* \"#utility.yul\":19444:19469   */\n      swap2\n      pop\n        /* \"#utility.yul\":19483:19503   */\n      tag_578\n        /* \"#utility.yul\":19501:19502   */\n      dup4\n        /* \"#utility.yul\":19483:19503   */\n      tag_353\n      jump\t// in\n    tag_578:\n        /* \"#utility.yul\":19478:19503   */\n      swap3\n      pop\n        /* \"#utility.yul\":19522:19523   */\n      dup3\n        /* \"#utility.yul\":19512:19547   */\n      tag_579\n      jumpi\n        /* \"#utility.yul\":19527:19545   */\n      tag_580\n      tag_375\n      jump\t// in\n    tag_580:\n        /* \"#utility.yul\":19512:19547   */\n    tag_579:\n        /* \"#utility.yul\":19569:19570   */\n      dup3\n        /* \"#utility.yul\":19566:19567   */\n      dup3\n        /* \"#utility.yul\":19562:19571   */\n      div\n        /* \"#utility.yul\":19557:19571   */\n      swap1\n      pop\n        /* \"#utility.yul\":19392:19577   */\n      swap3\n      swap2\n      pop\n      pop\n      jump\t// out\n        /* \"#utility.yul\":19583:19888   */\n    tag_303:\n        /* \"#utility.yul\":19623:19626   */\n      0x00\n        /* \"#utility.yul\":19642:19662   */\n      tag_582\n        /* \"#utility.yul\":19660:19661   */\n      dup3\n        /* \"#utility.yul\":19642:19662   */\n      tag_353\n      jump\t// in\n    tag_582:\n        /* \"#utility.yul\":19637:19662   */\n      swap2\n      pop\n        /* \"#utility.yul\":19676:19696   */\n      tag_583\n        /* \"#utility.yul\":19694:19695   */\n      dup4\n        /* \"#utility.yul\":19676:19696   */\n      tag_353\n      jump\t// in\n    tag_583:\n        /* \"#utility.yul\":19671:19696   */\n      swap3\n      pop\n        /* \"#utility.yul\":19830:19831   */\n      dup3\n        /* \"#utility.yul\":19762:19828   */\n      0xffffffffffffffffffffffffffffffffffffffffffffffffffffffffffffffff\n        /* \"#utility.yul\":19758:19832   */\n      sub\n        /* \"#utility.yul\":19755:19756   */\n      dup3\n        /* \"#utility.yul\":19752:19833   */\n      gt\n        /* \"#utility.yul\":19749:19856   */\n      iszero\n      tag_584\n      jumpi\n        /* \"#utility.yul\":19836:19854   */\n      tag_585\n      tag_401\n      jump\t// in\n    tag_585:\n        /* \"#utility.yul\":19749:19856   */\n    tag_584:\n        /* \"#utility.yul\":19880:19881   */\n      dup3\n        /* \"#utility.yul\":19877:19878   */\n      dup3\n        /* \"#utility.yul\":19873:19882   */\n      add\n        /* \"#utility.yul\":19866:19882   */\n      swap1\n      pop\n        /* \"#utility.yul\":19583:19888   */\n      swap3\n      swap2\n      pop\n      pop\n      jump\t// out\n        /* \"#utility.yul\":19894:20242   */\n    tag_306:\n        /* \"#utility.yul\":19934:19941   */\n      0x00\n        /* \"#utility.yul\":19957:19977   */\n      tag_587\n        /* \"#utility.yul\":19975:19976   */\n      dup3\n        /* \"#utility.yul\":19957:19977   */\n      tag_353\n      jump\t// in\n    tag_587:\n        /* \"#utility.yul\":19952:19977   */\n      swap2\n      pop\n        /* \"#utility.yul\":19991:20011   */\n      tag_588\n        /* \"#utility.yul\":20009:20010   */\n      dup4\n        /* \"#utility.yul\":19991:20011   */\n      tag_353\n      jump\t// in\n    tag_588:\n        /* \"#utility.yul\":19986:20011   */\n      swap3\n      pop\n        /* \"#utility.yul\":20179:20180   */\n      dup2\n        /* \"#utility.yul\":20111:20177   */\n      0xffffffffffffffffffffffffffffffffffffffffffffffffffffffffffffffff\n        /* \"#utility.yul\":20107:20181   */\n      div\n        /* \"#utility.yul\":20104:20105   */\n      dup4\n        /* \"#utility.yul\":20101:20182   */\n      gt\n        /* \"#utility.yul\":20096:20097   */\n      dup3\n        /* \"#utility.yul\":20089:20098   */\n      iszero\n        /* \"#utility.yul\":20082:20099   */\n      iszero\n        /* \"#utility.yul\":20078:20183   */\n      and\n        /* \"#utility.yul\":20075:20206   */\n      iszero\n      tag_589\n      jumpi\n        /* \"#utility.yul\":20186:20204   */\n      tag_590\n      tag_401\n      jump\t// in\n    tag_590:\n        /* \"#utility.yul\":20075:20206   */\n    tag_589:\n        /* \"#utility.yul\":20234:20235   */\n      dup3\n        /* \"#utility.yul\":20231:20232   */\n      dup3\n        /* \"#utility.yul\":20227:20236   */\n      mul\n        /* \"#utility.yul\":20216:20236   */\n      swap1\n      pop\n        /* \"#utility.yul\":19894:20242   */\n      swap3\n      swap2\n      pop\n      pop\n      jump\t// out\n        /* \"#utility.yul\":20248:20690   */\n    tag_316:\n        /* \"#utility.yul\":20397:20401   */\n      0x00\n        /* \"#utility.yul\":20435:20437   */\n      0x60\n        /* \"#utility.yul\":20424:20433   */\n      dup3\n        /* \"#utility.yul\":20420:20438   */\n      add\n        /* \"#utility.yul\":20412:20438   */\n      swap1\n      pop\n        /* \"#utility.yul\":20448:20519   */\n      tag_592\n        /* \"#utility.yul\":20516:20517   */\n      0x00\n        /* \"#utility.yul\":20505:20514   */\n      dup4\n        /* \"#utility.yul\":20501:20518   */\n      add\n        /* \"#utility.yul\":20492:20498   */\n      dup7\n        /* \"#utility.yul\":20448:20519   */\n      tag_364\n      jump\t// in\n    tag_592:\n        /* \"#utility.yul\":20529:20601   */\n      tag_593\n        /* \"#utility.yul\":20597:20599   */\n      0x20\n        /* \"#utility.yul\":20586:20595   */\n      dup4\n        /* \"#utility.yul\":20582:20600   */\n      add\n        /* \"#utility.yul\":20573:20579   */\n      dup6\n        /* \"#utility.yul\":20529:20601   */\n      tag_364\n      jump\t// in\n    tag_593:\n        /* \"#utility.yul\":20611:20683   */\n      tag_594\n        /* \"#utility.yul\":20679:20681   */\n      0x40\n        /* \"#utility.yul\":20668:20677   */\n      dup4\n        /* \"#utility.yul\":20664:20682   */\n      add\n        /* \"#utility.yul\":20655:20661   */\n      dup5\n        /* \"#utility.yul\":20611:20683   */\n      tag_354\n      jump\t// in\n    tag_594:\n        /* \"#utility.yul\":20248:20690   */\n      swap5\n      swap4\n      pop\n      pop\n      pop\n      pop\n      jump\t// out\n        /* \"#utility.yul\":20696:20786   */\n    tag_402:\n        /* \"#utility.yul\":20730:20737   */\n      0x00\n        /* \"#utility.yul\":20773:20778   */\n      dup2\n        /* \"#utility.yul\":20766:20779   */\n      iszero\n        /* \"#utility.yul\":20759:20780   */\n      iszero\n        /* \"#utility.yul\":20748:20780   */\n      swap1\n      pop\n        /* \"#utility.yul\":20696:20786   */\n      swap2\n      swap1\n      pop\n      jump\t// out\n        /* \"#utility.yul\":20792:20908   */\n    tag_403:\n        /* \"#utility.yul\":20862:20883   */\n      tag_597\n        /* \"#utility.yul\":20877:20882   */\n      dup2\n        /* \"#utility.yul\":20862:20883   */\n      tag_402\n      jump\t// in\n    tag_597:\n        /* \"#utility.yul\":20855:20860   */\n      dup2\n        /* \"#utility.yul\":20852:20884   */\n      eq\n        /* \"#utility.yul\":20842:20902   */\n      tag_598\n      jumpi\n        /* \"#utility.yul\":20898:20899   */\n      0x00\n        /* \"#utility.yul\":20895:20896   */\n      dup1\n        /* \"#utility.yul\":20888:20900   */\n      revert\n        /* \"#utility.yul\":20842:20902   */\n    tag_598:\n        /* \"#utility.yul\":20792:20908   */\n      pop\n      jump\t// out\n        /* \"#utility.yul\":20914:21051   */\n    tag_404:\n        /* \"#utility.yul\":20968:20973   */\n      0x00\n        /* \"#utility.yul\":20999:21005   */\n      dup2\n        /* \"#utility.yul\":20993:21006   */\n      mload\n        /* \"#utility.yul\":20984:21006   */\n      swap1\n      pop\n        /* \"#utility.yul\":21015:21045   */\n      tag_600\n        /* \"#utility.yul\":21039:21044   */\n      dup2\n        /* \"#utility.yul\":21015:21045   */\n      tag_403\n      jump\t// in\n    tag_600:\n        /* \"#utility.yul\":20914:21051   */\n      swap3\n      swap2\n      pop\n      pop\n      jump\t// out\n        /* \"#utility.yul\":21057:21402   */\n    tag_322:\n        /* \"#utility.yul\":21124:21130   */\n      0x00\n        /* \"#utility.yul\":21173:21175   */\n      0x20\n        /* \"#utility.yul\":21161:21170   */\n      dup3\n        /* \"#utility.yul\":21152:21159   */\n      dup5\n        /* \"#utility.yul\":21148:21171   */\n      sub\n        /* \"#utility.yul\":21144:21176   */\n      slt\n        /* \"#utility.yul\":21141:21260   */\n      iszero\n      tag_602\n      jumpi\n        /* \"#utility.yul\":21179:21258   */\n      tag_603\n      tag_356\n      jump\t// in\n    tag_603:\n        /* \"#utility.yul\":21141:21260   */\n    tag_602:\n        /* \"#utility.yul\":21299:21300   */\n      0x00\n        /* \"#utility.yul\":21324:21385   */\n      tag_604\n        /* \"#utility.yul\":21377:21384   */\n      dup5\n        /* \"#utility.yul\":21368:21374   */\n      dup3\n        /* \"#utility.yul\":21357:21366   */\n      dup6\n        /* \"#utility.yul\":21353:21375   */\n      add\n        /* \"#utility.yul\":21324:21385   */\n      tag_404\n      jump\t// in\n    tag_604:\n        /* \"#utility.yul\":21314:21385   */\n      swap2\n      pop\n        /* \"#utility.yul\":21270:21395   */\n      pop\n        /* \"#utility.yul\":21057:21402   */\n      swap3\n      swap2\n      pop\n      pop\n      jump\t// out\n        /* \"#utility.yul\":21408:21637   */\n    tag_405:\n        /* \"#utility.yul\":21548:21582   */\n      0x5361666542455032303a204245503230206f7065726174696f6e20646964206e\n        /* \"#utility.yul\":21544:21545   */\n      0x00\n        /* \"#utility.yul\":21536:21542   */\n      dup3\n        /* \"#utility.yul\":21532:21546   */\n      add\n        /* \"#utility.yul\":21525:21583   */\n      mstore\n        /* \"#utility.yul\":21617:21629   */\n      0x6f74207375636365656400000000000000000000000000000000000000000000\n        /* \"#utility.yul\":21612:21614   */\n      0x20\n        /* \"#utility.yul\":21604:21610   */\n      dup3\n        /* \"#utility.yul\":21600:21615   */\n      add\n        /* \"#utility.yul\":21593:21630   */\n      mstore\n        /* \"#utility.yul\":21408:21637   */\n      pop\n      jump\t// out\n        /* \"#utility.yul\":21643:22009   */\n    tag_406:\n        /* \"#utility.yul\":21785:21788   */\n      0x00\n        /* \"#utility.yul\":21806:21873   */\n      tag_607\n        /* \"#utility.yul\":21870:21872   */\n      0x2a\n        /* \"#utility.yul\":21865:21868   */\n      dup4\n        /* \"#utility.yul\":21806:21873   */\n      tag_370\n      jump\t// in\n    tag_607:\n        /* \"#utility.yul\":21799:21873   */\n      swap2\n      pop\n        /* \"#utility.yul\":21882:21975   */\n      tag_608\n        /* \"#utility.yul\":21971:21974   */\n      dup3\n        /* \"#utility.yul\":21882:21975   */\n      tag_405\n      jump\t// in\n    tag_608:\n        /* \"#utility.yul\":22000:22002   */\n      0x40\n        /* \"#utility.yul\":21995:21998   */\n      dup3\n        /* \"#utility.yul\":21991:22003   */\n      add\n        /* \"#utility.yul\":21984:22003   */\n      swap1\n      pop\n        /* \"#utility.yul\":21643:22009   */\n      swap2\n      swap1\n      pop\n      jump\t// out\n        /* \"#utility.yul\":22015:22434   */\n    tag_325:\n        /* \"#utility.yul\":22181:22185   */\n      0x00\n        /* \"#utility.yul\":22219:22221   */\n      0x20\n        /* \"#utility.yul\":22208:22217   */\n      dup3\n        /* \"#utility.yul\":22204:22222   */\n      add\n        /* \"#utility.yul\":22196:22222   */\n      swap1\n      pop\n        /* \"#utility.yul\":22268:22277   */\n      dup2\n        /* \"#utility.yul\":22262:22266   */\n      dup2\n        /* \"#utility.yul\":22258:22278   */\n      sub\n        /* \"#utility.yul\":22254:22255   */\n      0x00\n        /* \"#utility.yul\":22243:22252   */\n      dup4\n        /* \"#utility.yul\":22239:22256   */\n      add\n        /* \"#utility.yul\":22232:22279   */\n      mstore\n        /* \"#utility.yul\":22296:22427   */\n      tag_610\n        /* \"#utility.yul\":22422:22426   */\n      dup2\n        /* \"#utility.yul\":22296:22427   */\n      tag_406\n      jump\t// in\n    tag_610:\n        /* \"#utility.yul\":22288:22427   */\n      swap1\n      pop\n        /* \"#utility.yul\":22015:22434   */\n      swap2\n      swap1\n      pop\n      jump\t// out\n        /* \"#utility.yul\":22440:22665   */\n    tag_407:\n        /* \"#utility.yul\":22580:22614   */\n      0x416464726573733a20696e73756666696369656e742062616c616e636520666f\n        /* \"#utility.yul\":22576:22577   */\n      0x00\n        /* \"#utility.yul\":22568:22574   */\n      dup3\n        /* \"#utility.yul\":22564:22578   */\n      add\n        /* \"#utility.yul\":22557:22615   */\n      mstore\n        /* \"#utility.yul\":22649:22657   */\n      0x722063616c6c0000000000000000000000000000000000000000000000000000\n        /* \"#utility.yul\":22644:22646   */\n      0x20\n        /* \"#utility.yul\":22636:22642   */\n      dup3\n        /* \"#utility.yul\":22632:22647   */\n      add\n        /* \"#utility.yul\":22625:22658   */\n      mstore\n        /* \"#utility.yul\":22440:22665   */\n      pop\n      jump\t// out\n        /* \"#utility.yul\":22671:23037   */\n    tag_408:\n        /* \"#utility.yul\":22813:22816   */\n      0x00\n        /* \"#utility.yul\":22834:22901   */\n      tag_613\n        /* \"#utility.yul\":22898:22900   */\n      0x26\n        /* \"#utility.yul\":22893:22896   */\n      dup4\n        /* \"#utility.yul\":22834:22901   */\n      tag_370\n      jump\t// in\n    tag_613:\n        /* \"#utility.yul\":22827:22901   */\n      swap2\n      pop\n        /* \"#utility.yul\":22910:23003   */\n      tag_614\n        /* \"#utility.yul\":22999:23002   */\n      dup3\n        /* \"#utility.yul\":22910:23003   */\n      tag_407\n      jump\t// in\n    tag_614:\n        /* \"#utility.yul\":23028:23030   */\n      0x40\n        /* \"#utility.yul\":23023:23026   */\n      dup3\n        /* \"#utility.yul\":23019:23031   */\n      add\n        /* \"#utility.yul\":23012:23031   */\n      swap1\n      pop\n        /* \"#utility.yul\":22671:23037   */\n      swap2\n      swap1\n      pop\n      jump\t// out\n        /* \"#utility.yul\":23043:23462   */\n    tag_332:\n        /* \"#utility.yul\":23209:23213   */\n      0x00\n        /* \"#utility.yul\":23247:23249   */\n      0x20\n        /* \"#utility.yul\":23236:23245   */\n      dup3\n        /* \"#utility.yul\":23232:23250   */\n      add\n        /* \"#utility.yul\":23224:23250   */\n      swap1\n      pop\n        /* \"#utility.yul\":23296:23305   */\n      dup2\n        /* \"#utility.yul\":23290:23294   */\n      dup2\n        /* \"#utility.yul\":23286:23306   */\n      sub\n        /* \"#utility.yul\":23282:23283   */\n      0x00\n        /* \"#utility.yul\":23271:23280   */\n      dup4\n        /* \"#utility.yul\":23267:23284   */\n      add\n        /* \"#utility.yul\":23260:23307   */\n      mstore\n        /* \"#utility.yul\":23324:23455   */\n      tag_616\n        /* \"#utility.yul\":23450:23454   */\n      dup2\n        /* \"#utility.yul\":23324:23455   */\n      tag_408\n      jump\t// in\n    tag_616:\n        /* \"#utility.yul\":23316:23455   */\n      swap1\n      pop\n        /* \"#utility.yul\":23043:23462   */\n      swap2\n      swap1\n      pop\n      jump\t// out\n        /* \"#utility.yul\":23468:23647   */\n    tag_409:\n        /* \"#utility.yul\":23608:23639   */\n      0x416464726573733a2063616c6c20746f206e6f6e2d636f6e7472616374000000\n        /* \"#utility.yul\":23604:23605   */\n      0x00\n        /* \"#utility.yul\":23596:23602   */\n      dup3\n        /* \"#utility.yul\":23592:23606   */\n      add\n        /* \"#utility.yul\":23585:23640   */\n      mstore\n        /* \"#utility.yul\":23468:23647   */\n      pop\n      jump\t// out\n        /* \"#utility.yul\":23653:24019   */\n    tag_410:\n        /* \"#utility.yul\":23795:23798   */\n      0x00\n        /* \"#utility.yul\":23816:23883   */\n      tag_619\n        /* \"#utility.yul\":23880:23882   */\n      0x1d\n        /* \"#utility.yul\":23875:23878   */\n      dup4\n        /* \"#utility.yul\":23816:23883   */\n      tag_370\n      jump\t// in\n    tag_619:\n        /* \"#utility.yul\":23809:23883   */\n      swap2\n      pop\n        /* \"#utility.yul\":23892:23985   */\n      tag_620\n        /* \"#utility.yul\":23981:23984   */\n      dup3\n        /* \"#utility.yul\":23892:23985   */\n      tag_409\n      jump\t// in\n    tag_620:\n        /* \"#utility.yul\":24010:24012   */\n      0x20\n        /* \"#utility.yul\":24005:24008   */\n      dup3\n        /* \"#utility.yul\":24001:24013   */\n      add\n        /* \"#utility.yul\":23994:24013   */\n      swap1\n      pop\n        /* \"#utility.yul\":23653:24019   */\n      swap2\n      swap1\n      pop\n      jump\t// out\n        /* \"#utility.yul\":24025:24444   */\n    tag_337:\n        /* \"#utility.yul\":24191:24195   */\n      0x00\n        /* \"#utility.yul\":24229:24231   */\n      0x20\n        /* \"#utility.yul\":24218:24227   */\n      dup3\n        /* \"#utility.yul\":24214:24232   */\n      add\n        /* \"#utility.yul\":24206:24232   */\n      swap1\n      pop\n        /* \"#utility.yul\":24278:24287   */\n      dup2\n        /* \"#utility.yul\":24272:24276   */\n      dup2\n        /* \"#utility.yul\":24268:24288   */\n      sub\n        /* \"#utility.yul\":24264:24265   */\n      0x00\n        /* \"#utility.yul\":24253:24262   */\n      dup4\n        /* \"#utility.yul\":24249:24266   */\n      add\n        /* \"#utility.yul\":24242:24289   */\n      mstore\n        /* \"#utility.yul\":24306:24437   */\n      tag_622\n        /* \"#utility.yul\":24432:24436   */\n      dup2\n        /* \"#utility.yul\":24306:24437   */\n      tag_410\n      jump\t// in\n    tag_622:\n        /* \"#utility.yul\":24298:24437   */\n      swap1\n      pop\n        /* \"#utility.yul\":24025:24444   */\n      swap2\n      swap1\n      pop\n      jump\t// out\n        /* \"#utility.yul\":24450:24548   */\n    tag_411:\n        /* \"#utility.yul\":24501:24507   */\n      0x00\n        /* \"#utility.yul\":24535:24540   */\n      dup2\n        /* \"#utility.yul\":24529:24541   */\n      mload\n        /* \"#utility.yul\":24519:24541   */\n      swap1\n      pop\n        /* \"#utility.yul\":24450:24548   */\n      swap2\n      swap1\n      pop\n      jump\t// out\n        /* \"#utility.yul\":24554:24701   */\n    tag_412:\n        /* \"#utility.yul\":24655:24666   */\n      0x00\n        /* \"#utility.yul\":24692:24695   */\n      dup2\n        /* \"#utility.yul\":24677:24695   */\n      swap1\n      pop\n        /* \"#utility.yul\":24554:24701   */\n      swap3\n      swap2\n      pop\n      pop\n      jump\t// out\n        /* \"#utility.yul\":24707:25014   */\n    tag_413:\n        /* \"#utility.yul\":24775:24776   */\n      0x00\n        /* \"#utility.yul\":24785:24898   */\n    tag_626:\n        /* \"#utility.yul\":24799:24805   */\n      dup4\n        /* \"#utility.yul\":24796:24797   */\n      dup2\n        /* \"#utility.yul\":24793:24806   */\n      lt\n        /* \"#utility.yul\":24785:24898   */\n      iszero\n      tag_628\n      jumpi\n        /* \"#utility.yul\":24884:24885   */\n      dup1\n        /* \"#utility.yul\":24879:24882   */\n      dup3\n        /* \"#utility.yul\":24875:24886   */\n      add\n        /* \"#utility.yul\":24869:24887   */\n      mload\n        /* \"#utility.yul\":24865:24866   */\n      dup2\n        /* \"#utility.yul\":24860:24863   */\n      dup5\n        /* \"#utility.yul\":24856:24867   */\n      add\n        /* \"#utility.yul\":24849:24888   */\n      mstore\n        /* \"#utility.yul\":24821:24823   */\n      0x20\n        /* \"#utility.yul\":24818:24819   */\n      dup2\n        /* \"#utility.yul\":24814:24824   */\n      add\n        /* \"#utility.yul\":24809:24824   */\n      swap1\n      pop\n        /* \"#utility.yul\":24785:24898   */\n      jump(tag_626)\n    tag_628:\n        /* \"#utility.yul\":24916:24922   */\n      dup4\n        /* \"#utility.yul\":24913:24914   */\n      dup2\n        /* \"#utility.yul\":24910:24923   */\n      gt\n        /* \"#utility.yul\":24907:25008   */\n      iszero\n      tag_629\n      jumpi\n        /* \"#utility.yul\":24996:24997   */\n      0x00\n        /* \"#utility.yul\":24987:24993   */\n      dup5\n        /* \"#utility.yul\":24982:24985   */\n      dup5\n        /* \"#utility.yul\":24978:24994   */\n      add\n        /* \"#utility.yul\":24971:24998   */\n      mstore\n        /* \"#utility.yul\":24907:25008   */\n    tag_629:\n        /* \"#utility.yul\":24756:25014   */\n      pop\n        /* \"#utility.yul\":24707:25014   */\n      pop\n      pop\n      pop\n      jump\t// out\n        /* \"#utility.yul\":25020:25393   */\n    tag_414:\n        /* \"#utility.yul\":25124:25127   */\n      0x00\n        /* \"#utility.yul\":25152:25190   */\n      tag_631\n        /* \"#utility.yul\":25184:25189   */\n      dup3\n        /* \"#utility.yul\":25152:25190   */\n      tag_411\n      jump\t// in\n    tag_631:\n        /* \"#utility.yul\":25206:25294   */\n      tag_632\n        /* \"#utility.yul\":25287:25293   */\n      dup2\n        /* \"#utility.yul\":25282:25285   */\n      dup6\n        /* \"#utility.yul\":25206:25294   */\n      tag_412\n      jump\t// in\n    tag_632:\n        /* \"#utility.yul\":25199:25294   */\n      swap4\n      pop\n        /* \"#utility.yul\":25303:25355   */\n      tag_633\n        /* \"#utility.yul\":25348:25354   */\n      dup2\n        /* \"#utility.yul\":25343:25346   */\n      dup6\n        /* \"#utility.yul\":25336:25340   */\n      0x20\n        /* \"#utility.yul\":25329:25334   */\n      dup7\n        /* \"#utility.yul\":25325:25341   */\n      add\n        /* \"#utility.yul\":25303:25355   */\n      tag_413\n      jump\t// in\n    tag_633:\n        /* \"#utility.yul\":25380:25386   */\n      dup1\n        /* \"#utility.yul\":25375:25378   */\n      dup5\n        /* \"#utility.yul\":25371:25387   */\n      add\n        /* \"#utility.yul\":25364:25387   */\n      swap2\n      pop\n        /* \"#utility.yul\":25128:25393   */\n      pop\n        /* \"#utility.yul\":25020:25393   */\n      swap3\n      swap2\n      pop\n      pop\n      jump\t// out\n        /* \"#utility.yul\":25399:25670   */\n    tag_339:\n        /* \"#utility.yul\":25529:25532   */\n      0x00\n        /* \"#utility.yul\":25551:25644   */\n      tag_635\n        /* \"#utility.yul\":25640:25643   */\n      dup3\n        /* \"#utility.yul\":25631:25637   */\n      dup5\n        /* \"#utility.yul\":25551:25644   */\n      tag_414\n      jump\t// in\n    tag_635:\n        /* \"#utility.yul\":25544:25644   */\n      swap2\n      pop\n        /* \"#utility.yul\":25661:25664   */\n      dup2\n        /* \"#utility.yul\":25654:25664   */\n      swap1\n      pop\n        /* \"#utility.yul\":25399:25670   */\n      swap3\n      swap2\n      pop\n      pop\n      jump\t// out\n        /* \"#utility.yul\":25676:25775   */\n    tag_415:\n        /* \"#utility.yul\":25728:25734   */\n      0x00\n        /* \"#utility.yul\":25762:25767   */\n      dup2\n        /* \"#utility.yul\":25756:25768   */\n      mload\n        /* \"#utility.yul\":25746:25768   */\n      swap1\n      pop\n        /* \"#utility.yul\":25676:25775   */\n      swap2\n      swap1\n      pop\n      jump\t// out\n        /* \"#utility.yul\":25781:25883   */\n    tag_416:\n        /* \"#utility.yul\":25822:25828   */\n      0x00\n        /* \"#utility.yul\":25873:25875   */\n      0x1f\n        /* \"#utility.yul\":25869:25876   */\n      not\n        /* \"#utility.yul\":25864:25866   */\n      0x1f\n        /* \"#utility.yul\":25857:25862   */\n      dup4\n        /* \"#utility.yul\":25853:25867   */\n      add\n        /* \"#utility.yul\":25849:25877   */\n      and\n        /* \"#utility.yul\":25839:25877   */\n      swap1\n      pop\n        /* \"#utility.yul\":25781:25883   */\n      swap2\n      swap1\n      pop\n      jump\t// out\n        /* \"#utility.yul\":25889:26253   */\n    tag_417:\n        /* \"#utility.yul\":25977:25980   */\n      0x00\n        /* \"#utility.yul\":26005:26044   */\n      tag_639\n        /* \"#utility.yul\":26038:26043   */\n      dup3\n        /* \"#utility.yul\":26005:26044   */\n      tag_415\n      jump\t// in\n    tag_639:\n        /* \"#utility.yul\":26060:26131   */\n      tag_640\n        /* \"#utility.yul\":26124:26130   */\n      dup2\n        /* \"#utility.yul\":26119:26122   */\n      dup6\n        /* \"#utility.yul\":26060:26131   */\n      tag_370\n      jump\t// in\n    tag_640:\n        /* \"#utility.yul\":26053:26131   */\n      swap4\n      pop\n        /* \"#utility.yul\":26140:26192   */\n      tag_641\n        /* \"#utility.yul\":26185:26191   */\n      dup2\n        /* \"#utility.yul\":26180:26183   */\n      dup6\n        /* \"#utility.yul\":26173:26177   */\n      0x20\n        /* \"#utility.yul\":26166:26171   */\n      dup7\n        /* \"#utility.yul\":26162:26178   */\n      add\n        /* \"#utility.yul\":26140:26192   */\n      tag_413\n      jump\t// in\n    tag_641:\n        /* \"#utility.yul\":26217:26246   */\n      tag_642\n        /* \"#utility.yul\":26239:26245   */\n      dup2\n        /* \"#utility.yul\":26217:26246   */\n      tag_416\n      jump\t// in\n    tag_642:\n        /* \"#utility.yul\":26212:26215   */\n      dup5\n        /* \"#utility.yul\":26208:26247   */\n      add\n        /* \"#utility.yul\":26201:26247   */\n      swap2\n      pop\n        /* \"#utility.yul\":25981:26253   */\n      pop\n        /* \"#utility.yul\":25889:26253   */\n      swap3\n      swap2\n      pop\n      pop\n      jump\t// out\n        /* \"#utility.yul\":26259:26572   */\n    tag_352:\n        /* \"#utility.yul\":26372:26376   */\n      0x00\n        /* \"#utility.yul\":26410:26412   */\n      0x20\n        /* \"#utility.yul\":26399:26408   */\n      dup3\n        /* \"#utility.yul\":26395:26413   */\n      add\n        /* \"#utility.yul\":26387:26413   */\n      swap1\n      pop\n        /* \"#utility.yul\":26459:26468   */\n      dup2\n        /* \"#utility.yul\":26453:26457   */\n      dup2\n        /* \"#utility.yul\":26449:26469   */\n      sub\n        /* \"#utility.yul\":26445:26446   */\n      0x00\n        /* \"#utility.yul\":26434:26443   */\n      dup4\n        /* \"#utility.yul\":26430:26447   */\n      add\n        /* \"#utility.yul\":26423:26470   */\n      mstore\n        /* \"#utility.yul\":26487:26565   */\n      tag_644\n        /* \"#utility.yul\":26560:26564   */\n      dup2\n        /* \"#utility.yul\":26551:26557   */\n      dup5\n        /* \"#utility.yul\":26487:26565   */\n      tag_417\n      jump\t// in\n    tag_644:\n        /* \"#utility.yul\":26479:26565   */\n      swap1\n      pop\n        /* \"#utility.yul\":26259:26572   */\n      swap3\n      swap2\n      pop\n      pop\n      jump\t// out\n\n    auxdata: 0xa26469706673582212202131065633a6899d958691183dfc5affd2cc71e69ce8dcda985426add82c469364736f6c634300080a0033\n}\n",
				"bytecode": {
					"linkReferences": {},
					"object": "60806040523480156200001157600080fd5b506040516200318938038062003189833981810160405281019062000037919062000249565b620000576200004b620000af60201b60201c565b620000b760201b60201c565b620000676200017b60201b60201c565b80600c60006101000a81548173ffffffffffffffffffffffffffffffffffffffff021916908373ffffffffffffffffffffffffffffffffffffffff160217905550506200027b565b600033905090565b60008060009054906101000a900473ffffffffffffffffffffffffffffffffffffffff169050816000806101000a81548173ffffffffffffffffffffffffffffffffffffffff021916908373ffffffffffffffffffffffffffffffffffffffff1602179055508173ffffffffffffffffffffffffffffffffffffffff168173ffffffffffffffffffffffffffffffffffffffff167f8be0079c531659141344cd1fd0a4f28419497f9722a3daafe3b4186f6b6457e060405160405180910390a35050565b60c86003819055506105dc600181905550606460048190555062093a806002819055506276a70060058190555069d3c21bcecceda10000006008819055506a027b46536c66c8e30000006007819055506a05ca4ec2a79a7f67000000600681905550565b600080fd5b600073ffffffffffffffffffffffffffffffffffffffff82169050919050565b60006200021182620001e4565b9050919050565b620002238162000204565b81146200022f57600080fd5b50565b600081519050620002438162000218565b92915050565b600060208284031215620002625762000261620001df565b5b6000620002728482850162000232565b91505092915050565b612efe806200028b6000396000f3fe608060405234801561001057600080fd5b50600436106101425760003560e01c80637e1a3786116100b8578063a694fc3a1161007c578063a694fc3a14610317578063aedf562b14610333578063f2fde38b14610363578063f99318551461037f578063fc0c546a146103af578063fe600f84146103cd57610142565b80637e1a378614610285578063817b1cd2146102a35780638da5cb5b146102c157806391e07e7a146102df5780639e447fc6146102fb57610142565b80634b77dd9e1161010a5780634b77dd9e146101d75780635715ec11146101f35780635d2ec65d14610211578063645a8a561461022f578063692642e71461025f578063715018a61461027b57610142565b80630917e776146101475780632e1a7d4d146101655780634641257d146101815780634a4fbeec1461018b5780634b62b70b146101bb575b600080fd5b61014f6103fd565b60405161015c919061217e565b60405180910390f35b61017f600480360381019061017a91906121ca565b610407565b005b6101896107a4565b005b6101a560048036038101906101a09190612255565b610ac5565b6040516101b2919061217e565b60405180910390f35b6101d560048036038101906101d091906121ca565b610c55565b005b6101f160048036038101906101ec9190612282565b610d1e565b005b6101fb611165565b604051610208919061217e565b60405180910390f35b610219611172565b604051610226919061217e565b60405180910390f35b61024960048036038101906102449190612255565b6111bc565b604051610256919061217e565b60405180910390f35b610279600480360381019061027491906121ca565b611208565b005b61028361131d565b005b61028d6113a5565b60405161029a919061217e565b60405180910390f35b6102ab6113af565b6040516102b8919061217e565b60405180910390f35b6102c96113b5565b6040516102d691906122d1565b60405180910390f35b6102f960048036038101906102f491906121ca565b6113de565b005b610315600480360381019061031091906121ca565b6114de565b005b610331600480360381019061032c91906121ca565b6115de565b005b61034d60048036038101906103489190612255565b6118cc565b60405161035a919061217e565b60405180910390f35b61037d60048036038101906103789190612255565b61192b565b005b61039960048036038101906103949190612255565b611a23565b6040516103a6919061217e565b60405180910390f35b6103b7611a6f565b6040516103c4919061234b565b60405180910390f35b6103e760048036038101906103e29190612255565b611a95565b6040516103f4919061217e565b60405180910390f35b6000600b54905090565b6000811161044a576040517f08c379a0000000000000000000000000000000000000000000000000000000008152600401610441906123c3565b60405180910390fd5b600a60003373ffffffffffffffffffffffffffffffffffffffff1673ffffffffffffffffffffffffffffffffffffffff168152602001908152602001600020600101548111156104cf576040517f08c379a00000000000000000000000000000000000000000000000000000000081526004016104c69061242f565b60405180910390fd5b6104d7611ae1565b600081905060006105486201518061053a600a60003373ffffffffffffffffffffffffffffffffffffffff1673ffffffffffffffffffffffffffffffffffffffff1681526020019081526020016000206003015442611cb590919063ffffffff16565b611ccb90919063ffffffff16565b9050600060649050600080600a60003373ffffffffffffffffffffffffffffffffffffffff1673ffffffffffffffffffffffffffffffffffffffff1681526020019081526020016000206002015414156105fb576105f3600554600a60003373ffffffffffffffffffffffffffffffffffffffff1673ffffffffffffffffffffffffffffffffffffffff16815260200190815260200160002060030154611ce190919063ffffffff16565b421015610619565b60006002548461060b919061247e565b1480156106185750600083115b5b9050806106265760015491505b61065f6106506127106106428588611cf790919063ffffffff16565b611ccb90919063ffffffff16565b85611cb590919063ffffffff16565b935061067684600b54611cb590919063ffffffff16565b600b819055506106d184600a60003373ffffffffffffffffffffffffffffffffffffffff1673ffffffffffffffffffffffffffffffffffffffff16815260200190815260200160002060010154611cb590919063ffffffff16565b600a60003373ffffffffffffffffffffffffffffffffffffffff1673ffffffffffffffffffffffffffffffffffffffff168152602001908152602001600020600101819055506107643385600c60009054906101000a900473ffffffffffffffffffffffffffffffffffffffff1673ffffffffffffffffffffffffffffffffffffffff16611d0d9092919063ffffffff16565b7f884edad9ce6fa2440d8a54cc123490eb96d2768479d49ff9c7366125a942436433856040516107959291906124af565b60405180910390a15050505050565b6107ac611ae1565b600061086d61081c61271061080e600454600a60003373ffffffffffffffffffffffffffffffffffffffff1673ffffffffffffffffffffffffffffffffffffffff16815260200190815260200160002060000154611cf790919063ffffffff16565b611ccb90919063ffffffff16565b600a60003373ffffffffffffffffffffffffffffffffffffffff1673ffffffffffffffffffffffffffffffffffffffff16815260200190815260200160002060000154611cb590919063ffffffff16565b9050600081116108b2576040517f08c379a00000000000000000000000000000000000000000000000000000000081526004016108a990612524565b60405180910390fd5b600c60009054906101000a900473ffffffffffffffffffffffffffffffffffffffff1673ffffffffffffffffffffffffffffffffffffffff166370a08231306040518263ffffffff1660e01b815260040161090d91906122d1565b602060405180830381865afa15801561092a573d6000803e3d6000fd5b505050506040513d601f19601f8201168201806040525081019061094e9190612559565b8111156109f457600c60009054906101000a900473ffffffffffffffffffffffffffffffffffffffff1673ffffffffffffffffffffffffffffffffffffffff166370a08231306040518263ffffffff1660e01b81526004016109b091906122d1565b602060405180830381865afa1580156109cd573d6000803e3d6000fd5b505050506040513d601f19601f820116820180604052508101906109f19190612559565b90505b610a413382600c60009054906101000a900473ffffffffffffffffffffffffffffffffffffffff1673ffffffffffffffffffffffffffffffffffffffff16611d0d9092919063ffffffff16565b6000600a60003373ffffffffffffffffffffffffffffffffffffffff1673ffffffffffffffffffffffffffffffffffffffff168152602001908152602001600020600001819055507fc9695243a805adb74c91f28311176c65b417e842d5699893cef56d18bfa48cba3382604051610aba9291906124af565b60405180910390a150565b60006055600a60008473ffffffffffffffffffffffffffffffffffffffff1673ffffffffffffffffffffffffffffffffffffffff1681526020019081526020016000206005015414610b1a5760019050610c50565b6000600a60008473ffffffffffffffffffffffffffffffffffffffff1673ffffffffffffffffffffffffffffffffffffffff1681526020019081526020016000206002015414610be257600062093a80610bbf600a60008673ffffffffffffffffffffffffffffffffffffffff1673ffffffffffffffffffffffffffffffffffffffff1681526020019081526020016000206003015442611cb590919063ffffffff16565b610bc9919061247e565b14610bd5576001610bd8565b60005b60ff169050610c50565b600554610c3a600a60008573ffffffffffffffffffffffffffffffffffffffff1673ffffffffffffffffffffffffffffffffffffffff1681526020019081526020016000206003015442611cb590919063ffffffff16565b1015610c47576001610c4a565b60005b60ff1690505b919050565b610c5d611d93565b73ffffffffffffffffffffffffffffffffffffffff16610c7b6113b5565b73ffffffffffffffffffffffffffffffffffffffff1614610cd1576040517f08c379a0000000000000000000000000000000000000000000000000000000008152600401610cc8906125d2565b60405180910390fd5b60008111610d14576040517f08c379a0000000000000000000000000000000000000000000000000000000008152600401610d0b9061263e565b60405180910390fd5b8060058190555050565b60008211610d61576040517f08c379a0000000000000000000000000000000000000000000000000000000008152600401610d58906123c3565b60405180910390fd5b81600c60009054906101000a900473ffffffffffffffffffffffffffffffffffffffff1673ffffffffffffffffffffffffffffffffffffffff166370a08231336040518263ffffffff1660e01b8152600401610dbd91906122d1565b602060405180830381865afa158015610dda573d6000803e3d6000fd5b505050506040513d601f19601f82011682018060405250810190610dfe9190612559565b11610e3e576040517f08c379a0000000000000000000000000000000000000000000000000000000008152600401610e35906126aa565b60405180910390fd5b6055600a60003373ffffffffffffffffffffffffffffffffffffffff1673ffffffffffffffffffffffffffffffffffffffff168152602001908152602001600020600501541415610ec4576040517f08c379a0000000000000000000000000000000000000000000000000000000008152600401610ebb90612716565b60405180910390fd5b6000811415610edf5760008211610eda57600080fd5b61101f565b6001811415610f3257600854821015610f2d576040517f08c379a0000000000000000000000000000000000000000000000000000000008152600401610f2490612782565b60405180910390fd5b61101e565b6002811415610f8557600754821015610f80576040517f08c379a0000000000000000000000000000000000000000000000000000000008152600401610f7790612782565b60405180910390fd5b61101d565b6003811415610fd857600654821015610fd3576040517f08c379a0000000000000000000000000000000000000000000000000000000008152600401610fca90612782565b60405180910390fd5b61101c565b6000821061101b576040517f08c379a0000000000000000000000000000000000000000000000000000000008152600401611012906127ee565b60405180910390fd5b5b5b5b5b80600a60003373ffffffffffffffffffffffffffffffffffffffff1673ffffffffffffffffffffffffffffffffffffffff1681526020019081526020016000206002018190555042600a60003373ffffffffffffffffffffffffffffffffffffffff1673ffffffffffffffffffffffffffffffffffffffff168152602001908152602001600020600301819055506055600a60003373ffffffffffffffffffffffffffffffffffffffff1673ffffffffffffffffffffffffffffffffffffffff168152602001908152602001600020600501819055506009339080600181540180825580915050600190039060005260206000200160009091909190916101000a81548173ffffffffffffffffffffffffffffffffffffffff021916908373ffffffffffffffffffffffffffffffffffffffff160217905550611161826115de565b5050565b6000600980549050905090565b6000600a60003373ffffffffffffffffffffffffffffffffffffffff1673ffffffffffffffffffffffffffffffffffffffff16815260200190815260200160002060000154905090565b6000600a60008373ffffffffffffffffffffffffffffffffffffffff1673ffffffffffffffffffffffffffffffffffffffff168152602001908152602001600020600001549050919050565b611210611d93565b73ffffffffffffffffffffffffffffffffffffffff1661122e6113b5565b73ffffffffffffffffffffffffffffffffffffffff1614611284576040517f08c379a000000000000000000000000000000000000000000000000000000000815260040161127b906125d2565b60405180910390fd5b600081116112c7576040517f08c379a00000000000000000000000000000000000000000000000000000000081526004016112be9061285a565b60405180910390fd5b6112dd6201518082611cf790919063ffffffff16565b6002819055507f189bda9782663c67a3f95c0aa5455924c711210b00281c60ead2f0dd8dbc924c81604051611312919061217e565b60405180910390a150565b611325611d93565b73ffffffffffffffffffffffffffffffffffffffff166113436113b5565b73ffffffffffffffffffffffffffffffffffffffff1614611399576040517f08c379a0000000000000000000000000000000000000000000000000000000008152600401611390906125d2565b60405180910390fd5b6113a36000611d9b565b565b6000600354905090565b600b5481565b60008060009054906101000a900473ffffffffffffffffffffffffffffffffffffffff16905090565b6113e6611d93565b73ffffffffffffffffffffffffffffffffffffffff166114046113b5565b73ffffffffffffffffffffffffffffffffffffffff161461145a576040517f08c379a0000000000000000000000000000000000000000000000000000000008152600401611451906125d2565b60405180910390fd5b6000811161149d576040517f08c379a0000000000000000000000000000000000000000000000000000000008152600401611494906128c6565b60405180910390fd5b806001819055507f150c688dd7595bf7862b8ab1fe46756450eb7d731037942b3bbc46f3f0e21b81816040516114d3919061217e565b60405180910390a150565b6114e6611d93565b73ffffffffffffffffffffffffffffffffffffffff166115046113b5565b73ffffffffffffffffffffffffffffffffffffffff161461155a576040517f08c379a0000000000000000000000000000000000000000000000000000000008152600401611551906125d2565b60405180910390fd5b6000811161159d576040517f08c379a000000000000000000000000000000000000000000000000000000000815260040161159490612932565b60405180910390fd5b806003819055507f1946fb78c7ca778b54d82cabaac5ba67cf446f58d0ff1f8ceaebb6150e54e44f816040516115d3919061217e565b60405180910390a150565b60008111611621576040517f08c379a0000000000000000000000000000000000000000000000000000000008152600401611618906123c3565b60405180910390fd5b80600c60009054906101000a900473ffffffffffffffffffffffffffffffffffffffff1673ffffffffffffffffffffffffffffffffffffffff166370a08231336040518263ffffffff1660e01b815260040161167d91906122d1565b602060405180830381865afa15801561169a573d6000803e3d6000fd5b505050506040513d601f19601f820116820180604052508101906116be9190612559565b116116fe576040517f08c379a00000000000000000000000000000000000000000000000000000000081526004016116f5906126aa565b60405180910390fd5b6055600a60003373ffffffffffffffffffffffffffffffffffffffff1673ffffffffffffffffffffffffffffffffffffffff1681526020019081526020016000206005015414611783576040517f08c379a000000000000000000000000000000000000000000000000000000000815260040161177a9061299e565b60405180910390fd5b61178b611ae1565b6117da333083600c60009054906101000a900473ffffffffffffffffffffffffffffffffffffffff1673ffffffffffffffffffffffffffffffffffffffff16611e5f909392919063ffffffff16565b61182f81600a60003373ffffffffffffffffffffffffffffffffffffffff1673ffffffffffffffffffffffffffffffffffffffff16815260200190815260200160002060010154611ce190919063ffffffff16565b600a60003373ffffffffffffffffffffffffffffffffffffffff1673ffffffffffffffffffffffffffffffffffffffff1681526020019081526020016000206001018190555061188a81600b54611ce190919063ffffffff16565b600b819055507f9e71bc8eea02a63969f509818f2dafb9254532904319f9dbda79b67bd34a5f3d33826040516118c19291906124af565b60405180910390a150565b600080600a60008473ffffffffffffffffffffffffffffffffffffffff1673ffffffffffffffffffffffffffffffffffffffff168152602001908152602001600020600201541461191e576001611921565b60005b60ff169050919050565b611933611d93565b73ffffffffffffffffffffffffffffffffffffffff166119516113b5565b73ffffffffffffffffffffffffffffffffffffffff16146119a7576040517f08c379a000000000000000000000000000000000000000000000000000000000815260040161199e906125d2565b60405180910390fd5b600073ffffffffffffffffffffffffffffffffffffffff168173ffffffffffffffffffffffffffffffffffffffff161415611a17576040517f08c379a0000000000000000000000000000000000000000000000000000000008152600401611a0e90612a30565b60405180910390fd5b611a2081611d9b565b50565b6000600a60008373ffffffffffffffffffffffffffffffffffffffff1673ffffffffffffffffffffffffffffffffffffffff168152602001908152602001600020600101549050919050565b600c60009054906101000a900473ffffffffffffffffffffffffffffffffffffffff1681565b6000600a60008373ffffffffffffffffffffffffffffffffffffffff1673ffffffffffffffffffffffffffffffffffffffff168152602001908152602001600020600501549050919050565b6000600a60003373ffffffffffffffffffffffffffffffffffffffff1673ffffffffffffffffffffffffffffffffffffffff1681526020019081526020016000206001015490506000611bcd612710611bbf600354611bb1611ba26121c0611b94600a60003373ffffffffffffffffffffffffffffffffffffffff1673ffffffffffffffffffffffffffffffffffffffff1681526020019081526020016000206004015443611cb590919063ffffffff16565b611ccb90919063ffffffff16565b87611cf790919063ffffffff16565b611cf790919063ffffffff16565b611ccb90919063ffffffff16565b9050611c2481600a60003373ffffffffffffffffffffffffffffffffffffffff1673ffffffffffffffffffffffffffffffffffffffff16815260200190815260200160002060000154611ce190919063ffffffff16565b600a60003373ffffffffffffffffffffffffffffffffffffffff1673ffffffffffffffffffffffffffffffffffffffff1681526020019081526020016000206000018190555043600a60003373ffffffffffffffffffffffffffffffffffffffff1673ffffffffffffffffffffffffffffffffffffffff168152602001908152602001600020600401819055505050565b60008183611cc39190612a7f565b905092915050565b60008183611cd99190612ab3565b905092915050565b60008183611cef9190612ae4565b905092915050565b60008183611d059190612b3a565b905092915050565b611d8e8363a9059cbb60e01b8484604051602401611d2c9291906124af565b604051602081830303815290604052907bffffffffffffffffffffffffffffffffffffffffffffffffffffffff19166020820180517bffffffffffffffffffffffffffffffffffffffffffffffffffffffff8381831617835250505050611ee8565b505050565b600033905090565b60008060009054906101000a900473ffffffffffffffffffffffffffffffffffffffff169050816000806101000a81548173ffffffffffffffffffffffffffffffffffffffff021916908373ffffffffffffffffffffffffffffffffffffffff1602179055508173ffffffffffffffffffffffffffffffffffffffff168173ffffffffffffffffffffffffffffffffffffffff167f8be0079c531659141344cd1fd0a4f28419497f9722a3daafe3b4186f6b6457e060405160405180910390a35050565b611ee2846323b872dd60e01b858585604051602401611e8093929190612b94565b604051602081830303815290604052907bffffffffffffffffffffffffffffffffffffffffffffffffffffffff19166020820180517bffffffffffffffffffffffffffffffffffffffffffffffffffffffff8381831617835250505050611ee8565b50505050565b6000611f4a826040518060400160405280602081526020017f5361666542455032303a206c6f772d6c6576656c2063616c6c206661696c65648152508573ffffffffffffffffffffffffffffffffffffffff16611faf9092919063ffffffff16565b9050600081511115611faa5780806020019051810190611f6a9190612c03565b611fa9576040517f08c379a0000000000000000000000000000000000000000000000000000000008152600401611fa090612ca2565b60405180910390fd5b5b505050565b6060611fbe8484600085611fc7565b90509392505050565b60608247101561200c576040517f08c379a000000000000000000000000000000000000000000000000000000000815260040161200390612d34565b60405180910390fd5b612015856120db565b612054576040517f08c379a000000000000000000000000000000000000000000000000000000000815260040161204b90612da0565b60405180910390fd5b6000808673ffffffffffffffffffffffffffffffffffffffff16858760405161207d9190612e3a565b60006040518083038185875af1925050503d80600081146120ba576040519150601f19603f3d011682016040523d82523d6000602084013e6120bf565b606091505b50915091506120cf8282866120fe565b92505050949350505050565b6000808273ffffffffffffffffffffffffffffffffffffffff163b119050919050565b6060831561210e5782905061215e565b6000835111156121215782518084602001fd5b816040517f08c379a00000000000000000000000000000000000000000000000000000000081526004016121559190612ea6565b60405180910390fd5b9392505050565b6000819050919050565b61217881612165565b82525050565b6000602082019050612193600083018461216f565b92915050565b600080fd5b6121a781612165565b81146121b257600080fd5b50565b6000813590506121c48161219e565b92915050565b6000602082840312156121e0576121df612199565b5b60006121ee848285016121b5565b91505092915050565b600073ffffffffffffffffffffffffffffffffffffffff82169050919050565b6000612222826121f7565b9050919050565b61223281612217565b811461223d57600080fd5b50565b60008135905061224f81612229565b92915050565b60006020828403121561226b5761226a612199565b5b600061227984828501612240565b91505092915050565b6000806040838503121561229957612298612199565b5b60006122a7858286016121b5565b92505060206122b8858286016121b5565b9150509250929050565b6122cb81612217565b82525050565b60006020820190506122e660008301846122c2565b92915050565b6000819050919050565b600061231161230c612307846121f7565b6122ec565b6121f7565b9050919050565b6000612323826122f6565b9050919050565b600061233582612318565b9050919050565b6123458161232a565b82525050565b6000602082019050612360600083018461233c565b92915050565b600082825260208201905092915050565b7f416d6f756e742073686f756c642062652067726561746572207468616e203000600082015250565b60006123ad601f83612366565b91506123b882612377565b602082019050919050565b600060208201905081810360008301526123dc816123a0565b9050919050565b7f496e76616c696420616d6f756e74000000000000000000000000000000000000600082015250565b6000612419600e83612366565b9150612424826123e3565b602082019050919050565b600060208201905081810360008301526124488161240c565b9050919050565b7f4e487b7100000000000000000000000000000000000000000000000000000000600052601260045260246000fd5b600061248982612165565b915061249483612165565b9250826124a4576124a361244f565b5b828206905092915050565b60006040820190506124c460008301856122c2565b6124d1602083018461216f565b9392505050565b7f4e6f7468696e6720746f20636c61696d00000000000000000000000000000000600082015250565b600061250e601083612366565b9150612519826124d8565b602082019050919050565b6000602082019050818103600083015261253d81612501565b9050919050565b6000815190506125538161219e565b92915050565b60006020828403121561256f5761256e612199565b5b600061257d84828501612544565b91505092915050565b7f4f776e61626c653a2063616c6c6572206973206e6f7420746865206f776e6572600082015250565b60006125bc602083612366565b91506125c782612586565b602082019050919050565b600060208201905081810360008301526125eb816125af565b9050919050565b7f43616e2774206265207a65726f00000000000000000000000000000000000000600082015250565b6000612628600d83612366565b9150612633826125f2565b602082019050919050565b600060208201905081810360008301526126578161261b565b9050919050565b7f496e73756666696369656e742100000000000000000000000000000000000000600082015250565b6000612694600d83612366565b915061269f8261265e565b602082019050919050565b600060208201905081810360008301526126c381612687565b9050919050565b7f416c726561647920737461727465640000000000000000000000000000000000600082015250565b6000612700600f83612366565b915061270b826126ca565b602082019050919050565b6000602082019050818103600083015261272f816126f3565b9050919050565b7f496e73756666696369656e740000000000000000000000000000000000000000600082015250565b600061276c600c83612366565b915061277782612736565b602082019050919050565b6000602082019050818103600083015261279b8161275f565b9050919050565b7f496e76616c6964204d6f64650000000000000000000000000000000000000000600082015250565b60006127d8600c83612366565b91506127e3826127a2565b602082019050919050565b60006020820190508181036000830152612807816127cb565b9050919050565b7f496e76616c6964204c6f636b7570204475726174696f6e000000000000000000600082015250565b6000612844601783612366565b915061284f8261280e565b602082019050919050565b6000602082019050818103600083015261287381612837565b9050919050565b7f496e76616c696420556e7374616b696e67204665652052617465000000000000600082015250565b60006128b0601a83612366565b91506128bb8261287a565b602082019050919050565b600060208201905081810360008301526128df816128a3565b9050919050565b7f496e76616c69642076616c756500000000000000000000000000000000000000600082015250565b600061291c600d83612366565b9150612927826128e6565b602082019050919050565b6000602082019050818103600083015261294b8161290f565b9050919050565b7f4572726f723a20696e76616c6964207374616b65720000000000000000000000600082015250565b6000612988601583612366565b915061299382612952565b602082019050919050565b600060208201905081810360008301526129b78161297b565b9050919050565b7f4f776e61626c653a206e6577206f776e657220697320746865207a65726f206160008201527f6464726573730000000000000000000000000000000000000000000000000000602082015250565b6000612a1a602683612366565b9150612a25826129be565b604082019050919050565b60006020820190508181036000830152612a4981612a0d565b9050919050565b7f4e487b7100000000000000000000000000000000000000000000000000000000600052601160045260246000fd5b6000612a8a82612165565b9150612a9583612165565b925082821015612aa857612aa7612a50565b5b828203905092915050565b6000612abe82612165565b9150612ac983612165565b925082612ad957612ad861244f565b5b828204905092915050565b6000612aef82612165565b9150612afa83612165565b9250827fffffffffffffffffffffffffffffffffffffffffffffffffffffffffffffffff03821115612b2f57612b2e612a50565b5b828201905092915050565b6000612b4582612165565b9150612b5083612165565b9250817fffffffffffffffffffffffffffffffffffffffffffffffffffffffffffffffff0483118215151615612b8957612b88612a50565b5b828202905092915050565b6000606082019050612ba960008301866122c2565b612bb660208301856122c2565b612bc3604083018461216f565b949350505050565b60008115159050919050565b612be081612bcb565b8114612beb57600080fd5b50565b600081519050612bfd81612bd7565b92915050565b600060208284031215612c1957612c18612199565b5b6000612c2784828501612bee565b91505092915050565b7f5361666542455032303a204245503230206f7065726174696f6e20646964206e60008201527f6f74207375636365656400000000000000000000000000000000000000000000602082015250565b6000612c8c602a83612366565b9150612c9782612c30565b604082019050919050565b60006020820190508181036000830152612cbb81612c7f565b9050919050565b7f416464726573733a20696e73756666696369656e742062616c616e636520666f60008201527f722063616c6c0000000000000000000000000000000000000000000000000000602082015250565b6000612d1e602683612366565b9150612d2982612cc2565b604082019050919050565b60006020820190508181036000830152612d4d81612d11565b9050919050565b7f416464726573733a2063616c6c20746f206e6f6e2d636f6e7472616374000000600082015250565b6000612d8a601d83612366565b9150612d9582612d54565b602082019050919050565b60006020820190508181036000830152612db981612d7d565b9050919050565b600081519050919050565b600081905092915050565b60005b83811015612df4578082015181840152602081019050612dd9565b83811115612e03576000848401525b50505050565b6000612e1482612dc0565b612e1e8185612dcb565b9350612e2e818560208601612dd6565b80840191505092915050565b6000612e468284612e09565b915081905092915050565b600081519050919050565b6000601f19601f8301169050919050565b6000612e7882612e51565b612e828185612366565b9350612e92818560208601612dd6565b612e9b81612e5c565b840191505092915050565b60006020820190508181036000830152612ec08184612e6d565b90509291505056fea26469706673582212202131065633a6899d958691183dfc5affd2cc71e69ce8dcda985426add82c469364736f6c634300080a0033",
					"opcodes": "PUSH1 0x80 PUSH1 0x40 MSTORE CALLVALUE DUP1 ISZERO PUSH3 0x11 JUMPI PUSH1 0x0 DUP1 REVERT JUMPDEST POP PUSH1 0x40 MLOAD PUSH3 0x3189 CODESIZE SUB DUP1 PUSH3 0x3189 DUP4 CODECOPY DUP2 DUP2 ADD PUSH1 0x40 MSTORE DUP2 ADD SWAP1 PUSH3 0x37 SWAP2 SWAP1 PUSH3 0x249 JUMP JUMPDEST PUSH3 0x57 PUSH3 0x4B PUSH3 0xAF PUSH1 0x20 SHL PUSH1 0x20 SHR JUMP JUMPDEST PUSH3 0xB7 PUSH1 0x20 SHL PUSH1 0x20 SHR JUMP JUMPDEST PUSH3 0x67 PUSH3 0x17B PUSH1 0x20 SHL PUSH1 0x20 SHR JUMP JUMPDEST DUP1 PUSH1 0xC PUSH1 0x0 PUSH2 0x100 EXP DUP2 SLOAD DUP2 PUSH20 0xFFFFFFFFFFFFFFFFFFFFFFFFFFFFFFFFFFFFFFFF MUL NOT AND SWAP1 DUP4 PUSH20 0xFFFFFFFFFFFFFFFFFFFFFFFFFFFFFFFFFFFFFFFF AND MUL OR SWAP1 SSTORE POP POP PUSH3 0x27B JUMP JUMPDEST PUSH1 0x0 CALLER SWAP1 POP SWAP1 JUMP JUMPDEST PUSH1 0x0 DUP1 PUSH1 0x0 SWAP1 SLOAD SWAP1 PUSH2 0x100 EXP SWAP1 DIV PUSH20 0xFFFFFFFFFFFFFFFFFFFFFFFFFFFFFFFFFFFFFFFF AND SWAP1 POP DUP2 PUSH1 0x0 DUP1 PUSH2 0x100 EXP DUP2 SLOAD DUP2 PUSH20 0xFFFFFFFFFFFFFFFFFFFFFFFFFFFFFFFFFFFFFFFF MUL NOT AND SWAP1 DUP4 PUSH20 0xFFFFFFFFFFFFFFFFFFFFFFFFFFFFFFFFFFFFFFFF AND MUL OR SWAP1 SSTORE POP DUP2 PUSH20 0xFFFFFFFFFFFFFFFFFFFFFFFFFFFFFFFFFFFFFFFF AND DUP2 PUSH20 0xFFFFFFFFFFFFFFFFFFFFFFFFFFFFFFFFFFFFFFFF AND PUSH32 0x8BE0079C531659141344CD1FD0A4F28419497F9722A3DAAFE3B4186F6B6457E0 PUSH1 0x40 MLOAD PUSH1 0x40 MLOAD DUP1 SWAP2 SUB SWAP1 LOG3 POP POP JUMP JUMPDEST PUSH1 0xC8 PUSH1 0x3 DUP2 SWAP1 SSTORE POP PUSH2 0x5DC PUSH1 0x1 DUP2 SWAP1 SSTORE POP PUSH1 0x64 PUSH1 0x4 DUP2 SWAP1 SSTORE POP PUSH3 0x93A80 PUSH1 0x2 DUP2 SWAP1 SSTORE POP PUSH3 0x76A700 PUSH1 0x5 DUP2 SWAP1 SSTORE POP PUSH10 0xD3C21BCECCEDA1000000 PUSH1 0x8 DUP2 SWAP1 SSTORE POP PUSH11 0x27B46536C66C8E3000000 PUSH1 0x7 DUP2 SWAP1 SSTORE POP PUSH11 0x5CA4EC2A79A7F67000000 PUSH1 0x6 DUP2 SWAP1 SSTORE POP JUMP JUMPDEST PUSH1 0x0 DUP1 REVERT JUMPDEST PUSH1 0x0 PUSH20 0xFFFFFFFFFFFFFFFFFFFFFFFFFFFFFFFFFFFFFFFF DUP3 AND SWAP1 POP SWAP2 SWAP1 POP JUMP JUMPDEST PUSH1 0x0 PUSH3 0x211 DUP3 PUSH3 0x1E4 JUMP JUMPDEST SWAP1 POP SWAP2 SWAP1 POP JUMP JUMPDEST PUSH3 0x223 DUP2 PUSH3 0x204 JUMP JUMPDEST DUP2 EQ PUSH3 0x22F JUMPI PUSH1 0x0 DUP1 REVERT JUMPDEST POP JUMP JUMPDEST PUSH1 0x0 DUP2 MLOAD SWAP1 POP PUSH3 0x243 DUP2 PUSH3 0x218 JUMP JUMPDEST SWAP3 SWAP2 POP POP JUMP JUMPDEST PUSH1 0x0 PUSH1 0x20 DUP3 DUP5 SUB SLT ISZERO PUSH3 0x262 JUMPI PUSH3 0x261 PUSH3 0x1DF JUMP JUMPDEST JUMPDEST PUSH1 0x0 PUSH3 0x272 DUP5 DUP3 DUP6 ADD PUSH3 0x232 JUMP JUMPDEST SWAP2 POP POP SWAP3 SWAP2 POP POP JUMP JUMPDEST PUSH2 0x2EFE DUP1 PUSH3 0x28B PUSH1 0x0 CODECOPY PUSH1 0x0 RETURN INVALID PUSH1 0x80 PUSH1 0x40 MSTORE CALLVALUE DUP1 ISZERO PUSH2 0x10 JUMPI PUSH1 0x0 DUP1 REVERT JUMPDEST POP PUSH1 0x4 CALLDATASIZE LT PUSH2 0x142 JUMPI PUSH1 0x0 CALLDATALOAD PUSH1 0xE0 SHR DUP1 PUSH4 0x7E1A3786 GT PUSH2 0xB8 JUMPI DUP1 PUSH4 0xA694FC3A GT PUSH2 0x7C JUMPI DUP1 PUSH4 0xA694FC3A EQ PUSH2 0x317 JUMPI DUP1 PUSH4 0xAEDF562B EQ PUSH2 0x333 JUMPI DUP1 PUSH4 0xF2FDE38B EQ PUSH2 0x363 JUMPI DUP1 PUSH4 0xF9931855 EQ PUSH2 0x37F JUMPI DUP1 PUSH4 0xFC0C546A EQ PUSH2 0x3AF JUMPI DUP1 PUSH4 0xFE600F84 EQ PUSH2 0x3CD JUMPI PUSH2 0x142 JUMP JUMPDEST DUP1 PUSH4 0x7E1A3786 EQ PUSH2 0x285 JUMPI DUP1 PUSH4 0x817B1CD2 EQ PUSH2 0x2A3 JUMPI DUP1 PUSH4 0x8DA5CB5B EQ PUSH2 0x2C1 JUMPI DUP1 PUSH4 0x91E07E7A EQ PUSH2 0x2DF JUMPI DUP1 PUSH4 0x9E447FC6 EQ PUSH2 0x2FB JUMPI PUSH2 0x142 JUMP JUMPDEST DUP1 PUSH4 0x4B77DD9E GT PUSH2 0x10A JUMPI DUP1 PUSH4 0x4B77DD9E EQ PUSH2 0x1D7 JUMPI DUP1 PUSH4 0x5715EC11 EQ PUSH2 0x1F3 JUMPI DUP1 PUSH4 0x5D2EC65D EQ PUSH2 0x211 JUMPI DUP1 PUSH4 0x645A8A56 EQ PUSH2 0x22F JUMPI DUP1 PUSH4 0x692642E7 EQ PUSH2 0x25F JUMPI DUP1 PUSH4 0x715018A6 EQ PUSH2 0x27B JUMPI PUSH2 0x142 JUMP JUMPDEST DUP1 PUSH4 0x917E776 EQ PUSH2 0x147 JUMPI DUP1 PUSH4 0x2E1A7D4D EQ PUSH2 0x165 JUMPI DUP1 PUSH4 0x4641257D EQ PUSH2 0x181 JUMPI DUP1 PUSH4 0x4A4FBEEC EQ PUSH2 0x18B JUMPI DUP1 PUSH4 0x4B62B70B EQ PUSH2 0x1BB JUMPI JUMPDEST PUSH1 0x0 DUP1 REVERT JUMPDEST PUSH2 0x14F PUSH2 0x3FD JUMP JUMPDEST PUSH1 0x40 MLOAD PUSH2 0x15C SWAP2 SWAP1 PUSH2 0x217E JUMP JUMPDEST PUSH1 0x40 MLOAD DUP1 SWAP2 SUB SWAP1 RETURN JUMPDEST PUSH2 0x17F PUSH1 0x4 DUP1 CALLDATASIZE SUB DUP2 ADD SWAP1 PUSH2 0x17A SWAP2 SWAP1 PUSH2 0x21CA JUMP JUMPDEST PUSH2 0x407 JUMP JUMPDEST STOP JUMPDEST PUSH2 0x189 PUSH2 0x7A4 JUMP JUMPDEST STOP JUMPDEST PUSH2 0x1A5 PUSH1 0x4 DUP1 CALLDATASIZE SUB DUP2 ADD SWAP1 PUSH2 0x1A0 SWAP2 SWAP1 PUSH2 0x2255 JUMP JUMPDEST PUSH2 0xAC5 JUMP JUMPDEST PUSH1 0x40 MLOAD PUSH2 0x1B2 SWAP2 SWAP1 PUSH2 0x217E JUMP JUMPDEST PUSH1 0x40 MLOAD DUP1 SWAP2 SUB SWAP1 RETURN JUMPDEST PUSH2 0x1D5 PUSH1 0x4 DUP1 CALLDATASIZE SUB DUP2 ADD SWAP1 PUSH2 0x1D0 SWAP2 SWAP1 PUSH2 0x21CA JUMP JUMPDEST PUSH2 0xC55 JUMP JUMPDEST STOP JUMPDEST PUSH2 0x1F1 PUSH1 0x4 DUP1 CALLDATASIZE SUB DUP2 ADD SWAP1 PUSH2 0x1EC SWAP2 SWAP1 PUSH2 0x2282 JUMP JUMPDEST PUSH2 0xD1E JUMP JUMPDEST STOP JUMPDEST PUSH2 0x1FB PUSH2 0x1165 JUMP JUMPDEST PUSH1 0x40 MLOAD PUSH2 0x208 SWAP2 SWAP1 PUSH2 0x217E JUMP JUMPDEST PUSH1 0x40 MLOAD DUP1 SWAP2 SUB SWAP1 RETURN JUMPDEST PUSH2 0x219 PUSH2 0x1172 JUMP JUMPDEST PUSH1 0x40 MLOAD PUSH2 0x226 SWAP2 SWAP1 PUSH2 0x217E JUMP JUMPDEST PUSH1 0x40 MLOAD DUP1 SWAP2 SUB SWAP1 RETURN JUMPDEST PUSH2 0x249 PUSH1 0x4 DUP1 CALLDATASIZE SUB DUP2 ADD SWAP1 PUSH2 0x244 SWAP2 SWAP1 PUSH2 0x2255 JUMP JUMPDEST PUSH2 0x11BC JUMP JUMPDEST PUSH1 0x40 MLOAD PUSH2 0x256 SWAP2 SWAP1 PUSH2 0x217E JUMP JUMPDEST PUSH1 0x40 MLOAD DUP1 SWAP2 SUB SWAP1 RETURN JUMPDEST PUSH2 0x279 PUSH1 0x4 DUP1 CALLDATASIZE SUB DUP2 ADD SWAP1 PUSH2 0x274 SWAP2 SWAP1 PUSH2 0x21CA JUMP JUMPDEST PUSH2 0x1208 JUMP JUMPDEST STOP JUMPDEST PUSH2 0x283 PUSH2 0x131D JUMP JUMPDEST STOP JUMPDEST PUSH2 0x28D PUSH2 0x13A5 JUMP JUMPDEST PUSH1 0x40 MLOAD PUSH2 0x29A SWAP2 SWAP1 PUSH2 0x217E JUMP JUMPDEST PUSH1 0x40 MLOAD DUP1 SWAP2 SUB SWAP1 RETURN JUMPDEST PUSH2 0x2AB PUSH2 0x13AF JUMP JUMPDEST PUSH1 0x40 MLOAD PUSH2 0x2B8 SWAP2 SWAP1 PUSH2 0x217E JUMP JUMPDEST PUSH1 0x40 MLOAD DUP1 SWAP2 SUB SWAP1 RETURN JUMPDEST PUSH2 0x2C9 PUSH2 0x13B5 JUMP JUMPDEST PUSH1 0x40 MLOAD PUSH2 0x2D6 SWAP2 SWAP1 PUSH2 0x22D1 JUMP JUMPDEST PUSH1 0x40 MLOAD DUP1 SWAP2 SUB SWAP1 RETURN JUMPDEST PUSH2 0x2F9 PUSH1 0x4 DUP1 CALLDATASIZE SUB DUP2 ADD SWAP1 PUSH2 0x2F4 SWAP2 SWAP1 PUSH2 0x21CA JUMP JUMPDEST PUSH2 0x13DE JUMP JUMPDEST STOP JUMPDEST PUSH2 0x315 PUSH1 0x4 DUP1 CALLDATASIZE SUB DUP2 ADD SWAP1 PUSH2 0x310 SWAP2 SWAP1 PUSH2 0x21CA JUMP JUMPDEST PUSH2 0x14DE JUMP JUMPDEST STOP JUMPDEST PUSH2 0x331 PUSH1 0x4 DUP1 CALLDATASIZE SUB DUP2 ADD SWAP1 PUSH2 0x32C SWAP2 SWAP1 PUSH2 0x21CA JUMP JUMPDEST PUSH2 0x15DE JUMP JUMPDEST STOP JUMPDEST PUSH2 0x34D PUSH1 0x4 DUP1 CALLDATASIZE SUB DUP2 ADD SWAP1 PUSH2 0x348 SWAP2 SWAP1 PUSH2 0x2255 JUMP JUMPDEST PUSH2 0x18CC JUMP JUMPDEST PUSH1 0x40 MLOAD PUSH2 0x35A SWAP2 SWAP1 PUSH2 0x217E JUMP JUMPDEST PUSH1 0x40 MLOAD DUP1 SWAP2 SUB SWAP1 RETURN JUMPDEST PUSH2 0x37D PUSH1 0x4 DUP1 CALLDATASIZE SUB DUP2 ADD SWAP1 PUSH2 0x378 SWAP2 SWAP1 PUSH2 0x2255 JUMP JUMPDEST PUSH2 0x192B JUMP JUMPDEST STOP JUMPDEST PUSH2 0x399 PUSH1 0x4 DUP1 CALLDATASIZE SUB DUP2 ADD SWAP1 PUSH2 0x394 SWAP2 SWAP1 PUSH2 0x2255 JUMP JUMPDEST PUSH2 0x1A23 JUMP JUMPDEST PUSH1 0x40 MLOAD PUSH2 0x3A6 SWAP2 SWAP1 PUSH2 0x217E JUMP JUMPDEST PUSH1 0x40 MLOAD DUP1 SWAP2 SUB SWAP1 RETURN JUMPDEST PUSH2 0x3B7 PUSH2 0x1A6F JUMP JUMPDEST PUSH1 0x40 MLOAD PUSH2 0x3C4 SWAP2 SWAP1 PUSH2 0x234B JUMP JUMPDEST PUSH1 0x40 MLOAD DUP1 SWAP2 SUB SWAP1 RETURN JUMPDEST PUSH2 0x3E7 PUSH1 0x4 DUP1 CALLDATASIZE SUB DUP2 ADD SWAP1 PUSH2 0x3E2 SWAP2 SWAP1 PUSH2 0x2255 JUMP JUMPDEST PUSH2 0x1A95 JUMP JUMPDEST PUSH1 0x40 MLOAD PUSH2 0x3F4 SWAP2 SWAP1 PUSH2 0x217E JUMP JUMPDEST PUSH1 0x40 MLOAD DUP1 SWAP2 SUB SWAP1 RETURN JUMPDEST PUSH1 0x0 PUSH1 0xB SLOAD SWAP1 POP SWAP1 JUMP JUMPDEST PUSH1 0x0 DUP2 GT PUSH2 0x44A JUMPI PUSH1 0x40 MLOAD PUSH32 0x8C379A000000000000000000000000000000000000000000000000000000000 DUP2 MSTORE PUSH1 0x4 ADD PUSH2 0x441 SWAP1 PUSH2 0x23C3 JUMP JUMPDEST PUSH1 0x40 MLOAD DUP1 SWAP2 SUB SWAP1 REVERT JUMPDEST PUSH1 0xA PUSH1 0x0 CALLER PUSH20 0xFFFFFFFFFFFFFFFFFFFFFFFFFFFFFFFFFFFFFFFF AND PUSH20 0xFFFFFFFFFFFFFFFFFFFFFFFFFFFFFFFFFFFFFFFF AND DUP2 MSTORE PUSH1 0x20 ADD SWAP1 DUP2 MSTORE PUSH1 0x20 ADD PUSH1 0x0 KECCAK256 PUSH1 0x1 ADD SLOAD DUP2 GT ISZERO PUSH2 0x4CF JUMPI PUSH1 0x40 MLOAD PUSH32 0x8C379A000000000000000000000000000000000000000000000000000000000 DUP2 MSTORE PUSH1 0x4 ADD PUSH2 0x4C6 SWAP1 PUSH2 0x242F JUMP JUMPDEST PUSH1 0x40 MLOAD DUP1 SWAP2 SUB SWAP1 REVERT JUMPDEST PUSH2 0x4D7 PUSH2 0x1AE1 JUMP JUMPDEST PUSH1 0x0 DUP2 SWAP1 POP PUSH1 0x0 PUSH2 0x548 PUSH3 0x15180 PUSH2 0x53A PUSH1 0xA PUSH1 0x0 CALLER PUSH20 0xFFFFFFFFFFFFFFFFFFFFFFFFFFFFFFFFFFFFFFFF AND PUSH20 0xFFFFFFFFFFFFFFFFFFFFFFFFFFFFFFFFFFFFFFFF AND DUP2 MSTORE PUSH1 0x20 ADD SWAP1 DUP2 MSTORE PUSH1 0x20 ADD PUSH1 0x0 KECCAK256 PUSH1 0x3 ADD SLOAD TIMESTAMP PUSH2 0x1CB5 SWAP1 SWAP2 SWAP1 PUSH4 0xFFFFFFFF AND JUMP JUMPDEST PUSH2 0x1CCB SWAP1 SWAP2 SWAP1 PUSH4 0xFFFFFFFF AND JUMP JUMPDEST SWAP1 POP PUSH1 0x0 PUSH1 0x64 SWAP1 POP PUSH1 0x0 DUP1 PUSH1 0xA PUSH1 0x0 CALLER PUSH20 0xFFFFFFFFFFFFFFFFFFFFFFFFFFFFFFFFFFFFFFFF AND PUSH20 0xFFFFFFFFFFFFFFFFFFFFFFFFFFFFFFFFFFFFFFFF AND DUP2 MSTORE PUSH1 0x20 ADD SWAP1 DUP2 MSTORE PUSH1 0x20 ADD PUSH1 0x0 KECCAK256 PUSH1 0x2 ADD SLOAD EQ ISZERO PUSH2 0x5FB JUMPI PUSH2 0x5F3 PUSH1 0x5 SLOAD PUSH1 0xA PUSH1 0x0 CALLER PUSH20 0xFFFFFFFFFFFFFFFFFFFFFFFFFFFFFFFFFFFFFFFF AND PUSH20 0xFFFFFFFFFFFFFFFFFFFFFFFFFFFFFFFFFFFFFFFF AND DUP2 MSTORE PUSH1 0x20 ADD SWAP1 DUP2 MSTORE PUSH1 0x20 ADD PUSH1 0x0 KECCAK256 PUSH1 0x3 ADD SLOAD PUSH2 0x1CE1 SWAP1 SWAP2 SWAP1 PUSH4 0xFFFFFFFF AND JUMP JUMPDEST TIMESTAMP LT ISZERO PUSH2 0x619 JUMP JUMPDEST PUSH1 0x0 PUSH1 0x2 SLOAD DUP5 PUSH2 0x60B SWAP2 SWAP1 PUSH2 0x247E JUMP JUMPDEST EQ DUP1 ISZERO PUSH2 0x618 JUMPI POP PUSH1 0x0 DUP4 GT JUMPDEST JUMPDEST SWAP1 POP DUP1 PUSH2 0x626 JUMPI PUSH1 0x1 SLOAD SWAP2 POP JUMPDEST PUSH2 0x65F PUSH2 0x650 PUSH2 0x2710 PUSH2 0x642 DUP6 DUP9 PUSH2 0x1CF7 SWAP1 SWAP2 SWAP1 PUSH4 0xFFFFFFFF AND JUMP JUMPDEST PUSH2 0x1CCB SWAP1 SWAP2 SWAP1 PUSH4 0xFFFFFFFF AND JUMP JUMPDEST DUP6 PUSH2 0x1CB5 SWAP1 SWAP2 SWAP1 PUSH4 0xFFFFFFFF AND JUMP JUMPDEST SWAP4 POP PUSH2 0x676 DUP5 PUSH1 0xB SLOAD PUSH2 0x1CB5 SWAP1 SWAP2 SWAP1 PUSH4 0xFFFFFFFF AND JUMP JUMPDEST PUSH1 0xB DUP2 SWAP1 SSTORE POP PUSH2 0x6D1 DUP5 PUSH1 0xA PUSH1 0x0 CALLER PUSH20 0xFFFFFFFFFFFFFFFFFFFFFFFFFFFFFFFFFFFFFFFF AND PUSH20 0xFFFFFFFFFFFFFFFFFFFFFFFFFFFFFFFFFFFFFFFF AND DUP2 MSTORE PUSH1 0x20 ADD SWAP1 DUP2 MSTORE PUSH1 0x20 ADD PUSH1 0x0 KECCAK256 PUSH1 0x1 ADD SLOAD PUSH2 0x1CB5 SWAP1 SWAP2 SWAP1 PUSH4 0xFFFFFFFF AND JUMP JUMPDEST PUSH1 0xA PUSH1 0x0 CALLER PUSH20 0xFFFFFFFFFFFFFFFFFFFFFFFFFFFFFFFFFFFFFFFF AND PUSH20 0xFFFFFFFFFFFFFFFFFFFFFFFFFFFFFFFFFFFFFFFF AND DUP2 MSTORE PUSH1 0x20 ADD SWAP1 DUP2 MSTORE PUSH1 0x20 ADD PUSH1 0x0 KECCAK256 PUSH1 0x1 ADD DUP2 SWAP1 SSTORE POP PUSH2 0x764 CALLER DUP6 PUSH1 0xC PUSH1 0x0 SWAP1 SLOAD SWAP1 PUSH2 0x100 EXP SWAP1 DIV PUSH20 0xFFFFFFFFFFFFFFFFFFFFFFFFFFFFFFFFFFFFFFFF AND PUSH20 0xFFFFFFFFFFFFFFFFFFFFFFFFFFFFFFFFFFFFFFFF AND PUSH2 0x1D0D SWAP1 SWAP3 SWAP2 SWAP1 PUSH4 0xFFFFFFFF AND JUMP JUMPDEST PUSH32 0x884EDAD9CE6FA2440D8A54CC123490EB96D2768479D49FF9C7366125A9424364 CALLER DUP6 PUSH1 0x40 MLOAD PUSH2 0x795 SWAP3 SWAP2 SWAP1 PUSH2 0x24AF JUMP JUMPDEST PUSH1 0x40 MLOAD DUP1 SWAP2 SUB SWAP1 LOG1 POP POP POP POP POP JUMP JUMPDEST PUSH2 0x7AC PUSH2 0x1AE1 JUMP JUMPDEST PUSH1 0x0 PUSH2 0x86D PUSH2 0x81C PUSH2 0x2710 PUSH2 0x80E PUSH1 0x4 SLOAD PUSH1 0xA PUSH1 0x0 CALLER PUSH20 0xFFFFFFFFFFFFFFFFFFFFFFFFFFFFFFFFFFFFFFFF AND PUSH20 0xFFFFFFFFFFFFFFFFFFFFFFFFFFFFFFFFFFFFFFFF AND DUP2 MSTORE PUSH1 0x20 ADD SWAP1 DUP2 MSTORE PUSH1 0x20 ADD PUSH1 0x0 KECCAK256 PUSH1 0x0 ADD SLOAD PUSH2 0x1CF7 SWAP1 SWAP2 SWAP1 PUSH4 0xFFFFFFFF AND JUMP JUMPDEST PUSH2 0x1CCB SWAP1 SWAP2 SWAP1 PUSH4 0xFFFFFFFF AND JUMP JUMPDEST PUSH1 0xA PUSH1 0x0 CALLER PUSH20 0xFFFFFFFFFFFFFFFFFFFFFFFFFFFFFFFFFFFFFFFF AND PUSH20 0xFFFFFFFFFFFFFFFFFFFFFFFFFFFFFFFFFFFFFFFF AND DUP2 MSTORE PUSH1 0x20 ADD SWAP1 DUP2 MSTORE PUSH1 0x20 ADD PUSH1 0x0 KECCAK256 PUSH1 0x0 ADD SLOAD PUSH2 0x1CB5 SWAP1 SWAP2 SWAP1 PUSH4 0xFFFFFFFF AND JUMP JUMPDEST SWAP1 POP PUSH1 0x0 DUP2 GT PUSH2 0x8B2 JUMPI PUSH1 0x40 MLOAD PUSH32 0x8C379A000000000000000000000000000000000000000000000000000000000 DUP2 MSTORE PUSH1 0x4 ADD PUSH2 0x8A9 SWAP1 PUSH2 0x2524 JUMP JUMPDEST PUSH1 0x40 MLOAD DUP1 SWAP2 SUB SWAP1 REVERT JUMPDEST PUSH1 0xC PUSH1 0x0 SWAP1 SLOAD SWAP1 PUSH2 0x100 EXP SWAP1 DIV PUSH20 0xFFFFFFFFFFFFFFFFFFFFFFFFFFFFFFFFFFFFFFFF AND PUSH20 0xFFFFFFFFFFFFFFFFFFFFFFFFFFFFFFFFFFFFFFFF AND PUSH4 0x70A08231 ADDRESS PUSH1 0x40 MLOAD DUP3 PUSH4 0xFFFFFFFF AND PUSH1 0xE0 SHL DUP2 MSTORE PUSH1 0x4 ADD PUSH2 0x90D SWAP2 SWAP1 PUSH2 0x22D1 JUMP JUMPDEST PUSH1 0x20 PUSH1 0x40 MLOAD DUP1 DUP4 SUB DUP2 DUP7 GAS STATICCALL ISZERO DUP1 ISZERO PUSH2 0x92A JUMPI RETURNDATASIZE PUSH1 0x0 DUP1 RETURNDATACOPY RETURNDATASIZE PUSH1 0x0 REVERT JUMPDEST POP POP POP POP PUSH1 0x40 MLOAD RETURNDATASIZE PUSH1 0x1F NOT PUSH1 0x1F DUP3 ADD AND DUP3 ADD DUP1 PUSH1 0x40 MSTORE POP DUP2 ADD SWAP1 PUSH2 0x94E SWAP2 SWAP1 PUSH2 0x2559 JUMP JUMPDEST DUP2 GT ISZERO PUSH2 0x9F4 JUMPI PUSH1 0xC PUSH1 0x0 SWAP1 SLOAD SWAP1 PUSH2 0x100 EXP SWAP1 DIV PUSH20 0xFFFFFFFFFFFFFFFFFFFFFFFFFFFFFFFFFFFFFFFF AND PUSH20 0xFFFFFFFFFFFFFFFFFFFFFFFFFFFFFFFFFFFFFFFF AND PUSH4 0x70A08231 ADDRESS PUSH1 0x40 MLOAD DUP3 PUSH4 0xFFFFFFFF AND PUSH1 0xE0 SHL DUP2 MSTORE PUSH1 0x4 ADD PUSH2 0x9B0 SWAP2 SWAP1 PUSH2 0x22D1 JUMP JUMPDEST PUSH1 0x20 PUSH1 0x40 MLOAD DUP1 DUP4 SUB DUP2 DUP7 GAS STATICCALL ISZERO DUP1 ISZERO PUSH2 0x9CD JUMPI RETURNDATASIZE PUSH1 0x0 DUP1 RETURNDATACOPY RETURNDATASIZE PUSH1 0x0 REVERT JUMPDEST POP POP POP POP PUSH1 0x40 MLOAD RETURNDATASIZE PUSH1 0x1F NOT PUSH1 0x1F DUP3 ADD AND DUP3 ADD DUP1 PUSH1 0x40 MSTORE POP DUP2 ADD SWAP1 PUSH2 0x9F1 SWAP2 SWAP1 PUSH2 0x2559 JUMP JUMPDEST SWAP1 POP JUMPDEST PUSH2 0xA41 CALLER DUP3 PUSH1 0xC PUSH1 0x0 SWAP1 SLOAD SWAP1 PUSH2 0x100 EXP SWAP1 DIV PUSH20 0xFFFFFFFFFFFFFFFFFFFFFFFFFFFFFFFFFFFFFFFF AND PUSH20 0xFFFFFFFFFFFFFFFFFFFFFFFFFFFFFFFFFFFFFFFF AND PUSH2 0x1D0D SWAP1 SWAP3 SWAP2 SWAP1 PUSH4 0xFFFFFFFF AND JUMP JUMPDEST PUSH1 0x0 PUSH1 0xA PUSH1 0x0 CALLER PUSH20 0xFFFFFFFFFFFFFFFFFFFFFFFFFFFFFFFFFFFFFFFF AND PUSH20 0xFFFFFFFFFFFFFFFFFFFFFFFFFFFFFFFFFFFFFFFF AND DUP2 MSTORE PUSH1 0x20 ADD SWAP1 DUP2 MSTORE PUSH1 0x20 ADD PUSH1 0x0 KECCAK256 PUSH1 0x0 ADD DUP2 SWAP1 SSTORE POP PUSH32 0xC9695243A805ADB74C91F28311176C65B417E842D5699893CEF56D18BFA48CBA CALLER DUP3 PUSH1 0x40 MLOAD PUSH2 0xABA SWAP3 SWAP2 SWAP1 PUSH2 0x24AF JUMP JUMPDEST PUSH1 0x40 MLOAD DUP1 SWAP2 SUB SWAP1 LOG1 POP JUMP JUMPDEST PUSH1 0x0 PUSH1 0x55 PUSH1 0xA PUSH1 0x0 DUP5 PUSH20 0xFFFFFFFFFFFFFFFFFFFFFFFFFFFFFFFFFFFFFFFF AND PUSH20 0xFFFFFFFFFFFFFFFFFFFFFFFFFFFFFFFFFFFFFFFF AND DUP2 MSTORE PUSH1 0x20 ADD SWAP1 DUP2 MSTORE PUSH1 0x20 ADD PUSH1 0x0 KECCAK256 PUSH1 0x5 ADD SLOAD EQ PUSH2 0xB1A JUMPI PUSH1 0x1 SWAP1 POP PUSH2 0xC50 JUMP JUMPDEST PUSH1 0x0 PUSH1 0xA PUSH1 0x0 DUP5 PUSH20 0xFFFFFFFFFFFFFFFFFFFFFFFFFFFFFFFFFFFFFFFF AND PUSH20 0xFFFFFFFFFFFFFFFFFFFFFFFFFFFFFFFFFFFFFFFF AND DUP2 MSTORE PUSH1 0x20 ADD SWAP1 DUP2 MSTORE PUSH1 0x20 ADD PUSH1 0x0 KECCAK256 PUSH1 0x2 ADD SLOAD EQ PUSH2 0xBE2 JUMPI PUSH1 0x0 PUSH3 0x93A80 PUSH2 0xBBF PUSH1 0xA PUSH1 0x0 DUP7 PUSH20 0xFFFFFFFFFFFFFFFFFFFFFFFFFFFFFFFFFFFFFFFF AND PUSH20 0xFFFFFFFFFFFFFFFFFFFFFFFFFFFFFFFFFFFFFFFF AND DUP2 MSTORE PUSH1 0x20 ADD SWAP1 DUP2 MSTORE PUSH1 0x20 ADD PUSH1 0x0 KECCAK256 PUSH1 0x3 ADD SLOAD TIMESTAMP PUSH2 0x1CB5 SWAP1 SWAP2 SWAP1 PUSH4 0xFFFFFFFF AND JUMP JUMPDEST PUSH2 0xBC9 SWAP2 SWAP1 PUSH2 0x247E JUMP JUMPDEST EQ PUSH2 0xBD5 JUMPI PUSH1 0x1 PUSH2 0xBD8 JUMP JUMPDEST PUSH1 0x0 JUMPDEST PUSH1 0xFF AND SWAP1 POP PUSH2 0xC50 JUMP JUMPDEST PUSH1 0x5 SLOAD PUSH2 0xC3A PUSH1 0xA PUSH1 0x0 DUP6 PUSH20 0xFFFFFFFFFFFFFFFFFFFFFFFFFFFFFFFFFFFFFFFF AND PUSH20 0xFFFFFFFFFFFFFFFFFFFFFFFFFFFFFFFFFFFFFFFF AND DUP2 MSTORE PUSH1 0x20 ADD SWAP1 DUP2 MSTORE PUSH1 0x20 ADD PUSH1 0x0 KECCAK256 PUSH1 0x3 ADD SLOAD TIMESTAMP PUSH2 0x1CB5 SWAP1 SWAP2 SWAP1 PUSH4 0xFFFFFFFF AND JUMP JUMPDEST LT ISZERO PUSH2 0xC47 JUMPI PUSH1 0x1 PUSH2 0xC4A JUMP JUMPDEST PUSH1 0x0 JUMPDEST PUSH1 0xFF AND SWAP1 POP JUMPDEST SWAP2 SWAP1 POP JUMP JUMPDEST PUSH2 0xC5D PUSH2 0x1D93 JUMP JUMPDEST PUSH20 0xFFFFFFFFFFFFFFFFFFFFFFFFFFFFFFFFFFFFFFFF AND PUSH2 0xC7B PUSH2 0x13B5 JUMP JUMPDEST PUSH20 0xFFFFFFFFFFFFFFFFFFFFFFFFFFFFFFFFFFFFFFFF AND EQ PUSH2 0xCD1 JUMPI PUSH1 0x40 MLOAD PUSH32 0x8C379A000000000000000000000000000000000000000000000000000000000 DUP2 MSTORE PUSH1 0x4 ADD PUSH2 0xCC8 SWAP1 PUSH2 0x25D2 JUMP JUMPDEST PUSH1 0x40 MLOAD DUP1 SWAP2 SUB SWAP1 REVERT JUMPDEST PUSH1 0x0 DUP2 GT PUSH2 0xD14 JUMPI PUSH1 0x40 MLOAD PUSH32 0x8C379A000000000000000000000000000000000000000000000000000000000 DUP2 MSTORE PUSH1 0x4 ADD PUSH2 0xD0B SWAP1 PUSH2 0x263E JUMP JUMPDEST PUSH1 0x40 MLOAD DUP1 SWAP2 SUB SWAP1 REVERT JUMPDEST DUP1 PUSH1 0x5 DUP2 SWAP1 SSTORE POP POP JUMP JUMPDEST PUSH1 0x0 DUP3 GT PUSH2 0xD61 JUMPI PUSH1 0x40 MLOAD PUSH32 0x8C379A000000000000000000000000000000000000000000000000000000000 DUP2 MSTORE PUSH1 0x4 ADD PUSH2 0xD58 SWAP1 PUSH2 0x23C3 JUMP JUMPDEST PUSH1 0x40 MLOAD DUP1 SWAP2 SUB SWAP1 REVERT JUMPDEST DUP2 PUSH1 0xC PUSH1 0x0 SWAP1 SLOAD SWAP1 PUSH2 0x100 EXP SWAP1 DIV PUSH20 0xFFFFFFFFFFFFFFFFFFFFFFFFFFFFFFFFFFFFFFFF AND PUSH20 0xFFFFFFFFFFFFFFFFFFFFFFFFFFFFFFFFFFFFFFFF AND PUSH4 0x70A08231 CALLER PUSH1 0x40 MLOAD DUP3 PUSH4 0xFFFFFFFF AND PUSH1 0xE0 SHL DUP2 MSTORE PUSH1 0x4 ADD PUSH2 0xDBD SWAP2 SWAP1 PUSH2 0x22D1 JUMP JUMPDEST PUSH1 0x20 PUSH1 0x40 MLOAD DUP1 DUP4 SUB DUP2 DUP7 GAS STATICCALL ISZERO DUP1 ISZERO PUSH2 0xDDA JUMPI RETURNDATASIZE PUSH1 0x0 DUP1 RETURNDATACOPY RETURNDATASIZE PUSH1 0x0 REVERT JUMPDEST POP POP POP POP PUSH1 0x40 MLOAD RETURNDATASIZE PUSH1 0x1F NOT PUSH1 0x1F DUP3 ADD AND DUP3 ADD DUP1 PUSH1 0x40 MSTORE POP DUP2 ADD SWAP1 PUSH2 0xDFE SWAP2 SWAP1 PUSH2 0x2559 JUMP JUMPDEST GT PUSH2 0xE3E JUMPI PUSH1 0x40 MLOAD PUSH32 0x8C379A000000000000000000000000000000000000000000000000000000000 DUP2 MSTORE PUSH1 0x4 ADD PUSH2 0xE35 SWAP1 PUSH2 0x26AA JUMP JUMPDEST PUSH1 0x40 MLOAD DUP1 SWAP2 SUB SWAP1 REVERT JUMPDEST PUSH1 0x55 PUSH1 0xA PUSH1 0x0 CALLER PUSH20 0xFFFFFFFFFFFFFFFFFFFFFFFFFFFFFFFFFFFFFFFF AND PUSH20 0xFFFFFFFFFFFFFFFFFFFFFFFFFFFFFFFFFFFFFFFF AND DUP2 MSTORE PUSH1 0x20 ADD SWAP1 DUP2 MSTORE PUSH1 0x20 ADD PUSH1 0x0 KECCAK256 PUSH1 0x5 ADD SLOAD EQ ISZERO PUSH2 0xEC4 JUMPI PUSH1 0x40 MLOAD PUSH32 0x8C379A000000000000000000000000000000000000000000000000000000000 DUP2 MSTORE PUSH1 0x4 ADD PUSH2 0xEBB SWAP1 PUSH2 0x2716 JUMP JUMPDEST PUSH1 0x40 MLOAD DUP1 SWAP2 SUB SWAP1 REVERT JUMPDEST PUSH1 0x0 DUP2 EQ ISZERO PUSH2 0xEDF JUMPI PUSH1 0x0 DUP3 GT PUSH2 0xEDA JUMPI PUSH1 0x0 DUP1 REVERT JUMPDEST PUSH2 0x101F JUMP JUMPDEST PUSH1 0x1 DUP2 EQ ISZERO PUSH2 0xF32 JUMPI PUSH1 0x8 SLOAD DUP3 LT ISZERO PUSH2 0xF2D JUMPI PUSH1 0x40 MLOAD PUSH32 0x8C379A000000000000000000000000000000000000000000000000000000000 DUP2 MSTORE PUSH1 0x4 ADD PUSH2 0xF24 SWAP1 PUSH2 0x2782 JUMP JUMPDEST PUSH1 0x40 MLOAD DUP1 SWAP2 SUB SWAP1 REVERT JUMPDEST PUSH2 0x101E JUMP JUMPDEST PUSH1 0x2 DUP2 EQ ISZERO PUSH2 0xF85 JUMPI PUSH1 0x7 SLOAD DUP3 LT ISZERO PUSH2 0xF80 JUMPI PUSH1 0x40 MLOAD PUSH32 0x8C379A000000000000000000000000000000000000000000000000000000000 DUP2 MSTORE PUSH1 0x4 ADD PUSH2 0xF77 SWAP1 PUSH2 0x2782 JUMP JUMPDEST PUSH1 0x40 MLOAD DUP1 SWAP2 SUB SWAP1 REVERT JUMPDEST PUSH2 0x101D JUMP JUMPDEST PUSH1 0x3 DUP2 EQ ISZERO PUSH2 0xFD8 JUMPI PUSH1 0x6 SLOAD DUP3 LT ISZERO PUSH2 0xFD3 JUMPI PUSH1 0x40 MLOAD PUSH32 0x8C379A000000000000000000000000000000000000000000000000000000000 DUP2 MSTORE PUSH1 0x4 ADD PUSH2 0xFCA SWAP1 PUSH2 0x2782 JUMP JUMPDEST PUSH1 0x40 MLOAD DUP1 SWAP2 SUB SWAP1 REVERT JUMPDEST PUSH2 0x101C JUMP JUMPDEST PUSH1 0x0 DUP3 LT PUSH2 0x101B JUMPI PUSH1 0x40 MLOAD PUSH32 0x8C379A000000000000000000000000000000000000000000000000000000000 DUP2 MSTORE PUSH1 0x4 ADD PUSH2 0x1012 SWAP1 PUSH2 0x27EE JUMP JUMPDEST PUSH1 0x40 MLOAD DUP1 SWAP2 SUB SWAP1 REVERT JUMPDEST JUMPDEST JUMPDEST JUMPDEST JUMPDEST DUP1 PUSH1 0xA PUSH1 0x0 CALLER PUSH20 0xFFFFFFFFFFFFFFFFFFFFFFFFFFFFFFFFFFFFFFFF AND PUSH20 0xFFFFFFFFFFFFFFFFFFFFFFFFFFFFFFFFFFFFFFFF AND DUP2 MSTORE PUSH1 0x20 ADD SWAP1 DUP2 MSTORE PUSH1 0x20 ADD PUSH1 0x0 KECCAK256 PUSH1 0x2 ADD DUP2 SWAP1 SSTORE POP TIMESTAMP PUSH1 0xA PUSH1 0x0 CALLER PUSH20 0xFFFFFFFFFFFFFFFFFFFFFFFFFFFFFFFFFFFFFFFF AND PUSH20 0xFFFFFFFFFFFFFFFFFFFFFFFFFFFFFFFFFFFFFFFF AND DUP2 MSTORE PUSH1 0x20 ADD SWAP1 DUP2 MSTORE PUSH1 0x20 ADD PUSH1 0x0 KECCAK256 PUSH1 0x3 ADD DUP2 SWAP1 SSTORE POP PUSH1 0x55 PUSH1 0xA PUSH1 0x0 CALLER PUSH20 0xFFFFFFFFFFFFFFFFFFFFFFFFFFFFFFFFFFFFFFFF AND PUSH20 0xFFFFFFFFFFFFFFFFFFFFFFFFFFFFFFFFFFFFFFFF AND DUP2 MSTORE PUSH1 0x20 ADD SWAP1 DUP2 MSTORE PUSH1 0x20 ADD PUSH1 0x0 KECCAK256 PUSH1 0x5 ADD DUP2 SWAP1 SSTORE POP PUSH1 0x9 CALLER SWAP1 DUP1 PUSH1 0x1 DUP2 SLOAD ADD DUP1 DUP3 SSTORE DUP1 SWAP2 POP POP PUSH1 0x1 SWAP1 SUB SWAP1 PUSH1 0x0 MSTORE PUSH1 0x20 PUSH1 0x0 KECCAK256 ADD PUSH1 0x0 SWAP1 SWAP2 SWAP1 SWAP2 SWAP1 SWAP2 PUSH2 0x100 EXP DUP2 SLOAD DUP2 PUSH20 0xFFFFFFFFFFFFFFFFFFFFFFFFFFFFFFFFFFFFFFFF MUL NOT AND SWAP1 DUP4 PUSH20 0xFFFFFFFFFFFFFFFFFFFFFFFFFFFFFFFFFFFFFFFF AND MUL OR SWAP1 SSTORE POP PUSH2 0x1161 DUP3 PUSH2 0x15DE JUMP JUMPDEST POP POP JUMP JUMPDEST PUSH1 0x0 PUSH1 0x9 DUP1 SLOAD SWAP1 POP SWAP1 POP SWAP1 JUMP JUMPDEST PUSH1 0x0 PUSH1 0xA PUSH1 0x0 CALLER PUSH20 0xFFFFFFFFFFFFFFFFFFFFFFFFFFFFFFFFFFFFFFFF AND PUSH20 0xFFFFFFFFFFFFFFFFFFFFFFFFFFFFFFFFFFFFFFFF AND DUP2 MSTORE PUSH1 0x20 ADD SWAP1 DUP2 MSTORE PUSH1 0x20 ADD PUSH1 0x0 KECCAK256 PUSH1 0x0 ADD SLOAD SWAP1 POP SWAP1 JUMP JUMPDEST PUSH1 0x0 PUSH1 0xA PUSH1 0x0 DUP4 PUSH20 0xFFFFFFFFFFFFFFFFFFFFFFFFFFFFFFFFFFFFFFFF AND PUSH20 0xFFFFFFFFFFFFFFFFFFFFFFFFFFFFFFFFFFFFFFFF AND DUP2 MSTORE PUSH1 0x20 ADD SWAP1 DUP2 MSTORE PUSH1 0x20 ADD PUSH1 0x0 KECCAK256 PUSH1 0x0 ADD SLOAD SWAP1 POP SWAP2 SWAP1 POP JUMP JUMPDEST PUSH2 0x1210 PUSH2 0x1D93 JUMP JUMPDEST PUSH20 0xFFFFFFFFFFFFFFFFFFFFFFFFFFFFFFFFFFFFFFFF AND PUSH2 0x122E PUSH2 0x13B5 JUMP JUMPDEST PUSH20 0xFFFFFFFFFFFFFFFFFFFFFFFFFFFFFFFFFFFFFFFF AND EQ PUSH2 0x1284 JUMPI PUSH1 0x40 MLOAD PUSH32 0x8C379A000000000000000000000000000000000000000000000000000000000 DUP2 MSTORE PUSH1 0x4 ADD PUSH2 0x127B SWAP1 PUSH2 0x25D2 JUMP JUMPDEST PUSH1 0x40 MLOAD DUP1 SWAP2 SUB SWAP1 REVERT JUMPDEST PUSH1 0x0 DUP2 GT PUSH2 0x12C7 JUMPI PUSH1 0x40 MLOAD PUSH32 0x8C379A000000000000000000000000000000000000000000000000000000000 DUP2 MSTORE PUSH1 0x4 ADD PUSH2 0x12BE SWAP1 PUSH2 0x285A JUMP JUMPDEST PUSH1 0x40 MLOAD DUP1 SWAP2 SUB SWAP1 REVERT JUMPDEST PUSH2 0x12DD PUSH3 0x15180 DUP3 PUSH2 0x1CF7 SWAP1 SWAP2 SWAP1 PUSH4 0xFFFFFFFF AND JUMP JUMPDEST PUSH1 0x2 DUP2 SWAP1 SSTORE POP PUSH32 0x189BDA9782663C67A3F95C0AA5455924C711210B00281C60EAD2F0DD8DBC924C DUP2 PUSH1 0x40 MLOAD PUSH2 0x1312 SWAP2 SWAP1 PUSH2 0x217E JUMP JUMPDEST PUSH1 0x40 MLOAD DUP1 SWAP2 SUB SWAP1 LOG1 POP JUMP JUMPDEST PUSH2 0x1325 PUSH2 0x1D93 JUMP JUMPDEST PUSH20 0xFFFFFFFFFFFFFFFFFFFFFFFFFFFFFFFFFFFFFFFF AND PUSH2 0x1343 PUSH2 0x13B5 JUMP JUMPDEST PUSH20 0xFFFFFFFFFFFFFFFFFFFFFFFFFFFFFFFFFFFFFFFF AND EQ PUSH2 0x1399 JUMPI PUSH1 0x40 MLOAD PUSH32 0x8C379A000000000000000000000000000000000000000000000000000000000 DUP2 MSTORE PUSH1 0x4 ADD PUSH2 0x1390 SWAP1 PUSH2 0x25D2 JUMP JUMPDEST PUSH1 0x40 MLOAD DUP1 SWAP2 SUB SWAP1 REVERT JUMPDEST PUSH2 0x13A3 PUSH1 0x0 PUSH2 0x1D9B JUMP JUMPDEST JUMP JUMPDEST PUSH1 0x0 PUSH1 0x3 SLOAD SWAP1 POP SWAP1 JUMP JUMPDEST PUSH1 0xB SLOAD DUP2 JUMP JUMPDEST PUSH1 0x0 DUP1 PUSH1 0x0 SWAP1 SLOAD SWAP1 PUSH2 0x100 EXP SWAP1 DIV PUSH20 0xFFFFFFFFFFFFFFFFFFFFFFFFFFFFFFFFFFFFFFFF AND SWAP1 POP SWAP1 JUMP JUMPDEST PUSH2 0x13E6 PUSH2 0x1D93 JUMP JUMPDEST PUSH20 0xFFFFFFFFFFFFFFFFFFFFFFFFFFFFFFFFFFFFFFFF AND PUSH2 0x1404 PUSH2 0x13B5 JUMP JUMPDEST PUSH20 0xFFFFFFFFFFFFFFFFFFFFFFFFFFFFFFFFFFFFFFFF AND EQ PUSH2 0x145A JUMPI PUSH1 0x40 MLOAD PUSH32 0x8C379A000000000000000000000000000000000000000000000000000000000 DUP2 MSTORE PUSH1 0x4 ADD PUSH2 0x1451 SWAP1 PUSH2 0x25D2 JUMP JUMPDEST PUSH1 0x40 MLOAD DUP1 SWAP2 SUB SWAP1 REVERT JUMPDEST PUSH1 0x0 DUP2 GT PUSH2 0x149D JUMPI PUSH1 0x40 MLOAD PUSH32 0x8C379A000000000000000000000000000000000000000000000000000000000 DUP2 MSTORE PUSH1 0x4 ADD PUSH2 0x1494 SWAP1 PUSH2 0x28C6 JUMP JUMPDEST PUSH1 0x40 MLOAD DUP1 SWAP2 SUB SWAP1 REVERT JUMPDEST DUP1 PUSH1 0x1 DUP2 SWAP1 SSTORE POP PUSH32 0x150C688DD7595BF7862B8AB1FE46756450EB7D731037942B3BBC46F3F0E21B81 DUP2 PUSH1 0x40 MLOAD PUSH2 0x14D3 SWAP2 SWAP1 PUSH2 0x217E JUMP JUMPDEST PUSH1 0x40 MLOAD DUP1 SWAP2 SUB SWAP1 LOG1 POP JUMP JUMPDEST PUSH2 0x14E6 PUSH2 0x1D93 JUMP JUMPDEST PUSH20 0xFFFFFFFFFFFFFFFFFFFFFFFFFFFFFFFFFFFFFFFF AND PUSH2 0x1504 PUSH2 0x13B5 JUMP JUMPDEST PUSH20 0xFFFFFFFFFFFFFFFFFFFFFFFFFFFFFFFFFFFFFFFF AND EQ PUSH2 0x155A JUMPI PUSH1 0x40 MLOAD PUSH32 0x8C379A000000000000000000000000000000000000000000000000000000000 DUP2 MSTORE PUSH1 0x4 ADD PUSH2 0x1551 SWAP1 PUSH2 0x25D2 JUMP JUMPDEST PUSH1 0x40 MLOAD DUP1 SWAP2 SUB SWAP1 REVERT JUMPDEST PUSH1 0x0 DUP2 GT PUSH2 0x159D JUMPI PUSH1 0x40 MLOAD PUSH32 0x8C379A000000000000000000000000000000000000000000000000000000000 DUP2 MSTORE PUSH1 0x4 ADD PUSH2 0x1594 SWAP1 PUSH2 0x2932 JUMP JUMPDEST PUSH1 0x40 MLOAD DUP1 SWAP2 SUB SWAP1 REVERT JUMPDEST DUP1 PUSH1 0x3 DUP2 SWAP1 SSTORE POP PUSH32 0x1946FB78C7CA778B54D82CABAAC5BA67CF446F58D0FF1F8CEAEBB6150E54E44F DUP2 PUSH1 0x40 MLOAD PUSH2 0x15D3 SWAP2 SWAP1 PUSH2 0x217E JUMP JUMPDEST PUSH1 0x40 MLOAD DUP1 SWAP2 SUB SWAP1 LOG1 POP JUMP JUMPDEST PUSH1 0x0 DUP2 GT PUSH2 0x1621 JUMPI PUSH1 0x40 MLOAD PUSH32 0x8C379A000000000000000000000000000000000000000000000000000000000 DUP2 MSTORE PUSH1 0x4 ADD PUSH2 0x1618 SWAP1 PUSH2 0x23C3 JUMP JUMPDEST PUSH1 0x40 MLOAD DUP1 SWAP2 SUB SWAP1 REVERT JUMPDEST DUP1 PUSH1 0xC PUSH1 0x0 SWAP1 SLOAD SWAP1 PUSH2 0x100 EXP SWAP1 DIV PUSH20 0xFFFFFFFFFFFFFFFFFFFFFFFFFFFFFFFFFFFFFFFF AND PUSH20 0xFFFFFFFFFFFFFFFFFFFFFFFFFFFFFFFFFFFFFFFF AND PUSH4 0x70A08231 CALLER PUSH1 0x40 MLOAD DUP3 PUSH4 0xFFFFFFFF AND PUSH1 0xE0 SHL DUP2 MSTORE PUSH1 0x4 ADD PUSH2 0x167D SWAP2 SWAP1 PUSH2 0x22D1 JUMP JUMPDEST PUSH1 0x20 PUSH1 0x40 MLOAD DUP1 DUP4 SUB DUP2 DUP7 GAS STATICCALL ISZERO DUP1 ISZERO PUSH2 0x169A JUMPI RETURNDATASIZE PUSH1 0x0 DUP1 RETURNDATACOPY RETURNDATASIZE PUSH1 0x0 REVERT JUMPDEST POP POP POP POP PUSH1 0x40 MLOAD RETURNDATASIZE PUSH1 0x1F NOT PUSH1 0x1F DUP3 ADD AND DUP3 ADD DUP1 PUSH1 0x40 MSTORE POP DUP2 ADD SWAP1 PUSH2 0x16BE SWAP2 SWAP1 PUSH2 0x2559 JUMP JUMPDEST GT PUSH2 0x16FE JUMPI PUSH1 0x40 MLOAD PUSH32 0x8C379A000000000000000000000000000000000000000000000000000000000 DUP2 MSTORE PUSH1 0x4 ADD PUSH2 0x16F5 SWAP1 PUSH2 0x26AA JUMP JUMPDEST PUSH1 0x40 MLOAD DUP1 SWAP2 SUB SWAP1 REVERT JUMPDEST PUSH1 0x55 PUSH1 0xA PUSH1 0x0 CALLER PUSH20 0xFFFFFFFFFFFFFFFFFFFFFFFFFFFFFFFFFFFFFFFF AND PUSH20 0xFFFFFFFFFFFFFFFFFFFFFFFFFFFFFFFFFFFFFFFF AND DUP2 MSTORE PUSH1 0x20 ADD SWAP1 DUP2 MSTORE PUSH1 0x20 ADD PUSH1 0x0 KECCAK256 PUSH1 0x5 ADD SLOAD EQ PUSH2 0x1783 JUMPI PUSH1 0x40 MLOAD PUSH32 0x8C379A000000000000000000000000000000000000000000000000000000000 DUP2 MSTORE PUSH1 0x4 ADD PUSH2 0x177A SWAP1 PUSH2 0x299E JUMP JUMPDEST PUSH1 0x40 MLOAD DUP1 SWAP2 SUB SWAP1 REVERT JUMPDEST PUSH2 0x178B PUSH2 0x1AE1 JUMP JUMPDEST PUSH2 0x17DA CALLER ADDRESS DUP4 PUSH1 0xC PUSH1 0x0 SWAP1 SLOAD SWAP1 PUSH2 0x100 EXP SWAP1 DIV PUSH20 0xFFFFFFFFFFFFFFFFFFFFFFFFFFFFFFFFFFFFFFFF AND PUSH20 0xFFFFFFFFFFFFFFFFFFFFFFFFFFFFFFFFFFFFFFFF AND PUSH2 0x1E5F SWAP1 SWAP4 SWAP3 SWAP2 SWAP1 PUSH4 0xFFFFFFFF AND JUMP JUMPDEST PUSH2 0x182F DUP2 PUSH1 0xA PUSH1 0x0 CALLER PUSH20 0xFFFFFFFFFFFFFFFFFFFFFFFFFFFFFFFFFFFFFFFF AND PUSH20 0xFFFFFFFFFFFFFFFFFFFFFFFFFFFFFFFFFFFFFFFF AND DUP2 MSTORE PUSH1 0x20 ADD SWAP1 DUP2 MSTORE PUSH1 0x20 ADD PUSH1 0x0 KECCAK256 PUSH1 0x1 ADD SLOAD PUSH2 0x1CE1 SWAP1 SWAP2 SWAP1 PUSH4 0xFFFFFFFF AND JUMP JUMPDEST PUSH1 0xA PUSH1 0x0 CALLER PUSH20 0xFFFFFFFFFFFFFFFFFFFFFFFFFFFFFFFFFFFFFFFF AND PUSH20 0xFFFFFFFFFFFFFFFFFFFFFFFFFFFFFFFFFFFFFFFF AND DUP2 MSTORE PUSH1 0x20 ADD SWAP1 DUP2 MSTORE PUSH1 0x20 ADD PUSH1 0x0 KECCAK256 PUSH1 0x1 ADD DUP2 SWAP1 SSTORE POP PUSH2 0x188A DUP2 PUSH1 0xB SLOAD PUSH2 0x1CE1 SWAP1 SWAP2 SWAP1 PUSH4 0xFFFFFFFF AND JUMP JUMPDEST PUSH1 0xB DUP2 SWAP1 SSTORE POP PUSH32 0x9E71BC8EEA02A63969F509818F2DAFB9254532904319F9DBDA79B67BD34A5F3D CALLER DUP3 PUSH1 0x40 MLOAD PUSH2 0x18C1 SWAP3 SWAP2 SWAP1 PUSH2 0x24AF JUMP JUMPDEST PUSH1 0x40 MLOAD DUP1 SWAP2 SUB SWAP1 LOG1 POP JUMP JUMPDEST PUSH1 0x0 DUP1 PUSH1 0xA PUSH1 0x0 DUP5 PUSH20 0xFFFFFFFFFFFFFFFFFFFFFFFFFFFFFFFFFFFFFFFF AND PUSH20 0xFFFFFFFFFFFFFFFFFFFFFFFFFFFFFFFFFFFFFFFF AND DUP2 MSTORE PUSH1 0x20 ADD SWAP1 DUP2 MSTORE PUSH1 0x20 ADD PUSH1 0x0 KECCAK256 PUSH1 0x2 ADD SLOAD EQ PUSH2 0x191E JUMPI PUSH1 0x1 PUSH2 0x1921 JUMP JUMPDEST PUSH1 0x0 JUMPDEST PUSH1 0xFF AND SWAP1 POP SWAP2 SWAP1 POP JUMP JUMPDEST PUSH2 0x1933 PUSH2 0x1D93 JUMP JUMPDEST PUSH20 0xFFFFFFFFFFFFFFFFFFFFFFFFFFFFFFFFFFFFFFFF AND PUSH2 0x1951 PUSH2 0x13B5 JUMP JUMPDEST PUSH20 0xFFFFFFFFFFFFFFFFFFFFFFFFFFFFFFFFFFFFFFFF AND EQ PUSH2 0x19A7 JUMPI PUSH1 0x40 MLOAD PUSH32 0x8C379A000000000000000000000000000000000000000000000000000000000 DUP2 MSTORE PUSH1 0x4 ADD PUSH2 0x199E SWAP1 PUSH2 0x25D2 JUMP JUMPDEST PUSH1 0x40 MLOAD DUP1 SWAP2 SUB SWAP1 REVERT JUMPDEST PUSH1 0x0 PUSH20 0xFFFFFFFFFFFFFFFFFFFFFFFFFFFFFFFFFFFFFFFF AND DUP2 PUSH20 0xFFFFFFFFFFFFFFFFFFFFFFFFFFFFFFFFFFFFFFFF AND EQ ISZERO PUSH2 0x1A17 JUMPI PUSH1 0x40 MLOAD PUSH32 0x8C379A000000000000000000000000000000000000000000000000000000000 DUP2 MSTORE PUSH1 0x4 ADD PUSH2 0x1A0E SWAP1 PUSH2 0x2A30 JUMP JUMPDEST PUSH1 0x40 MLOAD DUP1 SWAP2 SUB SWAP1 REVERT JUMPDEST PUSH2 0x1A20 DUP2 PUSH2 0x1D9B JUMP JUMPDEST POP JUMP JUMPDEST PUSH1 0x0 PUSH1 0xA PUSH1 0x0 DUP4 PUSH20 0xFFFFFFFFFFFFFFFFFFFFFFFFFFFFFFFFFFFFFFFF AND PUSH20 0xFFFFFFFFFFFFFFFFFFFFFFFFFFFFFFFFFFFFFFFF AND DUP2 MSTORE PUSH1 0x20 ADD SWAP1 DUP2 MSTORE PUSH1 0x20 ADD PUSH1 0x0 KECCAK256 PUSH1 0x1 ADD SLOAD SWAP1 POP SWAP2 SWAP1 POP JUMP JUMPDEST PUSH1 0xC PUSH1 0x0 SWAP1 SLOAD SWAP1 PUSH2 0x100 EXP SWAP1 DIV PUSH20 0xFFFFFFFFFFFFFFFFFFFFFFFFFFFFFFFFFFFFFFFF AND DUP2 JUMP JUMPDEST PUSH1 0x0 PUSH1 0xA PUSH1 0x0 DUP4 PUSH20 0xFFFFFFFFFFFFFFFFFFFFFFFFFFFFFFFFFFFFFFFF AND PUSH20 0xFFFFFFFFFFFFFFFFFFFFFFFFFFFFFFFFFFFFFFFF AND DUP2 MSTORE PUSH1 0x20 ADD SWAP1 DUP2 MSTORE PUSH1 0x20 ADD PUSH1 0x0 KECCAK256 PUSH1 0x5 ADD SLOAD SWAP1 POP SWAP2 SWAP1 POP JUMP JUMPDEST PUSH1 0x0 PUSH1 0xA PUSH1 0x0 CALLER PUSH20 0xFFFFFFFFFFFFFFFFFFFFFFFFFFFFFFFFFFFFFFFF AND PUSH20 0xFFFFFFFFFFFFFFFFFFFFFFFFFFFFFFFFFFFFFFFF AND DUP2 MSTORE PUSH1 0x20 ADD SWAP1 DUP2 MSTORE PUSH1 0x20 ADD PUSH1 0x0 KECCAK256 PUSH1 0x1 ADD SLOAD SWAP1 POP PUSH1 0x0 PUSH2 0x1BCD PUSH2 0x2710 PUSH2 0x1BBF PUSH1 0x3 SLOAD PUSH2 0x1BB1 PUSH2 0x1BA2 PUSH2 0x21C0 PUSH2 0x1B94 PUSH1 0xA PUSH1 0x0 CALLER PUSH20 0xFFFFFFFFFFFFFFFFFFFFFFFFFFFFFFFFFFFFFFFF AND PUSH20 0xFFFFFFFFFFFFFFFFFFFFFFFFFFFFFFFFFFFFFFFF AND DUP2 MSTORE PUSH1 0x20 ADD SWAP1 DUP2 MSTORE PUSH1 0x20 ADD PUSH1 0x0 KECCAK256 PUSH1 0x4 ADD SLOAD NUMBER PUSH2 0x1CB5 SWAP1 SWAP2 SWAP1 PUSH4 0xFFFFFFFF AND JUMP JUMPDEST PUSH2 0x1CCB SWAP1 SWAP2 SWAP1 PUSH4 0xFFFFFFFF AND JUMP JUMPDEST DUP8 PUSH2 0x1CF7 SWAP1 SWAP2 SWAP1 PUSH4 0xFFFFFFFF AND JUMP JUMPDEST PUSH2 0x1CF7 SWAP1 SWAP2 SWAP1 PUSH4 0xFFFFFFFF AND JUMP JUMPDEST PUSH2 0x1CCB SWAP1 SWAP2 SWAP1 PUSH4 0xFFFFFFFF AND JUMP JUMPDEST SWAP1 POP PUSH2 0x1C24 DUP2 PUSH1 0xA PUSH1 0x0 CALLER PUSH20 0xFFFFFFFFFFFFFFFFFFFFFFFFFFFFFFFFFFFFFFFF AND PUSH20 0xFFFFFFFFFFFFFFFFFFFFFFFFFFFFFFFFFFFFFFFF AND DUP2 MSTORE PUSH1 0x20 ADD SWAP1 DUP2 MSTORE PUSH1 0x20 ADD PUSH1 0x0 KECCAK256 PUSH1 0x0 ADD SLOAD PUSH2 0x1CE1 SWAP1 SWAP2 SWAP1 PUSH4 0xFFFFFFFF AND JUMP JUMPDEST PUSH1 0xA PUSH1 0x0 CALLER PUSH20 0xFFFFFFFFFFFFFFFFFFFFFFFFFFFFFFFFFFFFFFFF AND PUSH20 0xFFFFFFFFFFFFFFFFFFFFFFFFFFFFFFFFFFFFFFFF AND DUP2 MSTORE PUSH1 0x20 ADD SWAP1 DUP2 MSTORE PUSH1 0x20 ADD PUSH1 0x0 KECCAK256 PUSH1 0x0 ADD DUP2 SWAP1 SSTORE POP NUMBER PUSH1 0xA PUSH1 0x0 CALLER PUSH20 0xFFFFFFFFFFFFFFFFFFFFFFFFFFFFFFFFFFFFFFFF AND PUSH20 0xFFFFFFFFFFFFFFFFFFFFFFFFFFFFFFFFFFFFFFFF AND DUP2 MSTORE PUSH1 0x20 ADD SWAP1 DUP2 MSTORE PUSH1 0x20 ADD PUSH1 0x0 KECCAK256 PUSH1 0x4 ADD DUP2 SWAP1 SSTORE POP POP POP JUMP JUMPDEST PUSH1 0x0 DUP2 DUP4 PUSH2 0x1CC3 SWAP2 SWAP1 PUSH2 0x2A7F JUMP JUMPDEST SWAP1 POP SWAP3 SWAP2 POP POP JUMP JUMPDEST PUSH1 0x0 DUP2 DUP4 PUSH2 0x1CD9 SWAP2 SWAP1 PUSH2 0x2AB3 JUMP JUMPDEST SWAP1 POP SWAP3 SWAP2 POP POP JUMP JUMPDEST PUSH1 0x0 DUP2 DUP4 PUSH2 0x1CEF SWAP2 SWAP1 PUSH2 0x2AE4 JUMP JUMPDEST SWAP1 POP SWAP3 SWAP2 POP POP JUMP JUMPDEST PUSH1 0x0 DUP2 DUP4 PUSH2 0x1D05 SWAP2 SWAP1 PUSH2 0x2B3A JUMP JUMPDEST SWAP1 POP SWAP3 SWAP2 POP POP JUMP JUMPDEST PUSH2 0x1D8E DUP4 PUSH4 0xA9059CBB PUSH1 0xE0 SHL DUP5 DUP5 PUSH1 0x40 MLOAD PUSH1 0x24 ADD PUSH2 0x1D2C SWAP3 SWAP2 SWAP1 PUSH2 0x24AF JUMP JUMPDEST PUSH1 0x40 MLOAD PUSH1 0x20 DUP2 DUP4 SUB SUB DUP2 MSTORE SWAP1 PUSH1 0x40 MSTORE SWAP1 PUSH28 0xFFFFFFFFFFFFFFFFFFFFFFFFFFFFFFFFFFFFFFFFFFFFFFFFFFFFFFFF NOT AND PUSH1 0x20 DUP3 ADD DUP1 MLOAD PUSH28 0xFFFFFFFFFFFFFFFFFFFFFFFFFFFFFFFFFFFFFFFFFFFFFFFFFFFFFFFF DUP4 DUP2 DUP4 AND OR DUP4 MSTORE POP POP POP POP PUSH2 0x1EE8 JUMP JUMPDEST POP POP POP JUMP JUMPDEST PUSH1 0x0 CALLER SWAP1 POP SWAP1 JUMP JUMPDEST PUSH1 0x0 DUP1 PUSH1 0x0 SWAP1 SLOAD SWAP1 PUSH2 0x100 EXP SWAP1 DIV PUSH20 0xFFFFFFFFFFFFFFFFFFFFFFFFFFFFFFFFFFFFFFFF AND SWAP1 POP DUP2 PUSH1 0x0 DUP1 PUSH2 0x100 EXP DUP2 SLOAD DUP2 PUSH20 0xFFFFFFFFFFFFFFFFFFFFFFFFFFFFFFFFFFFFFFFF MUL NOT AND SWAP1 DUP4 PUSH20 0xFFFFFFFFFFFFFFFFFFFFFFFFFFFFFFFFFFFFFFFF AND MUL OR SWAP1 SSTORE POP DUP2 PUSH20 0xFFFFFFFFFFFFFFFFFFFFFFFFFFFFFFFFFFFFFFFF AND DUP2 PUSH20 0xFFFFFFFFFFFFFFFFFFFFFFFFFFFFFFFFFFFFFFFF AND PUSH32 0x8BE0079C531659141344CD1FD0A4F28419497F9722A3DAAFE3B4186F6B6457E0 PUSH1 0x40 MLOAD PUSH1 0x40 MLOAD DUP1 SWAP2 SUB SWAP1 LOG3 POP POP JUMP JUMPDEST PUSH2 0x1EE2 DUP5 PUSH4 0x23B872DD PUSH1 0xE0 SHL DUP6 DUP6 DUP6 PUSH1 0x40 MLOAD PUSH1 0x24 ADD PUSH2 0x1E80 SWAP4 SWAP3 SWAP2 SWAP1 PUSH2 0x2B94 JUMP JUMPDEST PUSH1 0x40 MLOAD PUSH1 0x20 DUP2 DUP4 SUB SUB DUP2 MSTORE SWAP1 PUSH1 0x40 MSTORE SWAP1 PUSH28 0xFFFFFFFFFFFFFFFFFFFFFFFFFFFFFFFFFFFFFFFFFFFFFFFFFFFFFFFF NOT AND PUSH1 0x20 DUP3 ADD DUP1 MLOAD PUSH28 0xFFFFFFFFFFFFFFFFFFFFFFFFFFFFFFFFFFFFFFFFFFFFFFFFFFFFFFFF DUP4 DUP2 DUP4 AND OR DUP4 MSTORE POP POP POP POP PUSH2 0x1EE8 JUMP JUMPDEST POP POP POP POP JUMP JUMPDEST PUSH1 0x0 PUSH2 0x1F4A DUP3 PUSH1 0x40 MLOAD DUP1 PUSH1 0x40 ADD PUSH1 0x40 MSTORE DUP1 PUSH1 0x20 DUP2 MSTORE PUSH1 0x20 ADD PUSH32 0x5361666542455032303A206C6F772D6C6576656C2063616C6C206661696C6564 DUP2 MSTORE POP DUP6 PUSH20 0xFFFFFFFFFFFFFFFFFFFFFFFFFFFFFFFFFFFFFFFF AND PUSH2 0x1FAF SWAP1 SWAP3 SWAP2 SWAP1 PUSH4 0xFFFFFFFF AND JUMP JUMPDEST SWAP1 POP PUSH1 0x0 DUP2 MLOAD GT ISZERO PUSH2 0x1FAA JUMPI DUP1 DUP1 PUSH1 0x20 ADD SWAP1 MLOAD DUP2 ADD SWAP1 PUSH2 0x1F6A SWAP2 SWAP1 PUSH2 0x2C03 JUMP JUMPDEST PUSH2 0x1FA9 JUMPI PUSH1 0x40 MLOAD PUSH32 0x8C379A000000000000000000000000000000000000000000000000000000000 DUP2 MSTORE PUSH1 0x4 ADD PUSH2 0x1FA0 SWAP1 PUSH2 0x2CA2 JUMP JUMPDEST PUSH1 0x40 MLOAD DUP1 SWAP2 SUB SWAP1 REVERT JUMPDEST JUMPDEST POP POP POP JUMP JUMPDEST PUSH1 0x60 PUSH2 0x1FBE DUP5 DUP5 PUSH1 0x0 DUP6 PUSH2 0x1FC7 JUMP JUMPDEST SWAP1 POP SWAP4 SWAP3 POP POP POP JUMP JUMPDEST PUSH1 0x60 DUP3 SELFBALANCE LT ISZERO PUSH2 0x200C JUMPI PUSH1 0x40 MLOAD PUSH32 0x8C379A000000000000000000000000000000000000000000000000000000000 DUP2 MSTORE PUSH1 0x4 ADD PUSH2 0x2003 SWAP1 PUSH2 0x2D34 JUMP JUMPDEST PUSH1 0x40 MLOAD DUP1 SWAP2 SUB SWAP1 REVERT JUMPDEST PUSH2 0x2015 DUP6 PUSH2 0x20DB JUMP JUMPDEST PUSH2 0x2054 JUMPI PUSH1 0x40 MLOAD PUSH32 0x8C379A000000000000000000000000000000000000000000000000000000000 DUP2 MSTORE PUSH1 0x4 ADD PUSH2 0x204B SWAP1 PUSH2 0x2DA0 JUMP JUMPDEST PUSH1 0x40 MLOAD DUP1 SWAP2 SUB SWAP1 REVERT JUMPDEST PUSH1 0x0 DUP1 DUP7 PUSH20 0xFFFFFFFFFFFFFFFFFFFFFFFFFFFFFFFFFFFFFFFF AND DUP6 DUP8 PUSH1 0x40 MLOAD PUSH2 0x207D SWAP2 SWAP1 PUSH2 0x2E3A JUMP JUMPDEST PUSH1 0x0 PUSH1 0x40 MLOAD DUP1 DUP4 SUB DUP2 DUP6 DUP8 GAS CALL SWAP3 POP POP POP RETURNDATASIZE DUP1 PUSH1 0x0 DUP2 EQ PUSH2 0x20BA JUMPI PUSH1 0x40 MLOAD SWAP2 POP PUSH1 0x1F NOT PUSH1 0x3F RETURNDATASIZE ADD AND DUP3 ADD PUSH1 0x40 MSTORE RETURNDATASIZE DUP3 MSTORE RETURNDATASIZE PUSH1 0x0 PUSH1 0x20 DUP5 ADD RETURNDATACOPY PUSH2 0x20BF JUMP JUMPDEST PUSH1 0x60 SWAP2 POP JUMPDEST POP SWAP2 POP SWAP2 POP PUSH2 0x20CF DUP3 DUP3 DUP7 PUSH2 0x20FE JUMP JUMPDEST SWAP3 POP POP POP SWAP5 SWAP4 POP POP POP POP JUMP JUMPDEST PUSH1 0x0 DUP1 DUP3 PUSH20 0xFFFFFFFFFFFFFFFFFFFFFFFFFFFFFFFFFFFFFFFF AND EXTCODESIZE GT SWAP1 POP SWAP2 SWAP1 POP JUMP JUMPDEST PUSH1 0x60 DUP4 ISZERO PUSH2 0x210E JUMPI DUP3 SWAP1 POP PUSH2 0x215E JUMP JUMPDEST PUSH1 0x0 DUP4 MLOAD GT ISZERO PUSH2 0x2121 JUMPI DUP3 MLOAD DUP1 DUP5 PUSH1 0x20 ADD REVERT JUMPDEST DUP2 PUSH1 0x40 MLOAD PUSH32 0x8C379A000000000000000000000000000000000000000000000000000000000 DUP2 MSTORE PUSH1 0x4 ADD PUSH2 0x2155 SWAP2 SWAP1 PUSH2 0x2EA6 JUMP JUMPDEST PUSH1 0x40 MLOAD DUP1 SWAP2 SUB SWAP1 REVERT JUMPDEST SWAP4 SWAP3 POP POP POP JUMP JUMPDEST PUSH1 0x0 DUP2 SWAP1 POP SWAP2 SWAP1 POP JUMP JUMPDEST PUSH2 0x2178 DUP2 PUSH2 0x2165 JUMP JUMPDEST DUP3 MSTORE POP POP JUMP JUMPDEST PUSH1 0x0 PUSH1 0x20 DUP3 ADD SWAP1 POP PUSH2 0x2193 PUSH1 0x0 DUP4 ADD DUP5 PUSH2 0x216F JUMP JUMPDEST SWAP3 SWAP2 POP POP JUMP JUMPDEST PUSH1 0x0 DUP1 REVERT JUMPDEST PUSH2 0x21A7 DUP2 PUSH2 0x2165 JUMP JUMPDEST DUP2 EQ PUSH2 0x21B2 JUMPI PUSH1 0x0 DUP1 REVERT JUMPDEST POP JUMP JUMPDEST PUSH1 0x0 DUP2 CALLDATALOAD SWAP1 POP PUSH2 0x21C4 DUP2 PUSH2 0x219E JUMP JUMPDEST SWAP3 SWAP2 POP POP JUMP JUMPDEST PUSH1 0x0 PUSH1 0x20 DUP3 DUP5 SUB SLT ISZERO PUSH2 0x21E0 JUMPI PUSH2 0x21DF PUSH2 0x2199 JUMP JUMPDEST JUMPDEST PUSH1 0x0 PUSH2 0x21EE DUP5 DUP3 DUP6 ADD PUSH2 0x21B5 JUMP JUMPDEST SWAP2 POP POP SWAP3 SWAP2 POP POP JUMP JUMPDEST PUSH1 0x0 PUSH20 0xFFFFFFFFFFFFFFFFFFFFFFFFFFFFFFFFFFFFFFFF DUP3 AND SWAP1 POP SWAP2 SWAP1 POP JUMP JUMPDEST PUSH1 0x0 PUSH2 0x2222 DUP3 PUSH2 0x21F7 JUMP JUMPDEST SWAP1 POP SWAP2 SWAP1 POP JUMP JUMPDEST PUSH2 0x2232 DUP2 PUSH2 0x2217 JUMP JUMPDEST DUP2 EQ PUSH2 0x223D JUMPI PUSH1 0x0 DUP1 REVERT JUMPDEST POP JUMP JUMPDEST PUSH1 0x0 DUP2 CALLDATALOAD SWAP1 POP PUSH2 0x224F DUP2 PUSH2 0x2229 JUMP JUMPDEST SWAP3 SWAP2 POP POP JUMP JUMPDEST PUSH1 0x0 PUSH1 0x20 DUP3 DUP5 SUB SLT ISZERO PUSH2 0x226B JUMPI PUSH2 0x226A PUSH2 0x2199 JUMP JUMPDEST JUMPDEST PUSH1 0x0 PUSH2 0x2279 DUP5 DUP3 DUP6 ADD PUSH2 0x2240 JUMP JUMPDEST SWAP2 POP POP SWAP3 SWAP2 POP POP JUMP JUMPDEST PUSH1 0x0 DUP1 PUSH1 0x40 DUP4 DUP6 SUB SLT ISZERO PUSH2 0x2299 JUMPI PUSH2 0x2298 PUSH2 0x2199 JUMP JUMPDEST JUMPDEST PUSH1 0x0 PUSH2 0x22A7 DUP6 DUP3 DUP7 ADD PUSH2 0x21B5 JUMP JUMPDEST SWAP3 POP POP PUSH1 0x20 PUSH2 0x22B8 DUP6 DUP3 DUP7 ADD PUSH2 0x21B5 JUMP JUMPDEST SWAP2 POP POP SWAP3 POP SWAP3 SWAP1 POP JUMP JUMPDEST PUSH2 0x22CB DUP2 PUSH2 0x2217 JUMP JUMPDEST DUP3 MSTORE POP POP JUMP JUMPDEST PUSH1 0x0 PUSH1 0x20 DUP3 ADD SWAP1 POP PUSH2 0x22E6 PUSH1 0x0 DUP4 ADD DUP5 PUSH2 0x22C2 JUMP JUMPDEST SWAP3 SWAP2 POP POP JUMP JUMPDEST PUSH1 0x0 DUP2 SWAP1 POP SWAP2 SWAP1 POP JUMP JUMPDEST PUSH1 0x0 PUSH2 0x2311 PUSH2 0x230C PUSH2 0x2307 DUP5 PUSH2 0x21F7 JUMP JUMPDEST PUSH2 0x22EC JUMP JUMPDEST PUSH2 0x21F7 JUMP JUMPDEST SWAP1 POP SWAP2 SWAP1 POP JUMP JUMPDEST PUSH1 0x0 PUSH2 0x2323 DUP3 PUSH2 0x22F6 JUMP JUMPDEST SWAP1 POP SWAP2 SWAP1 POP JUMP JUMPDEST PUSH1 0x0 PUSH2 0x2335 DUP3 PUSH2 0x2318 JUMP JUMPDEST SWAP1 POP SWAP2 SWAP1 POP JUMP JUMPDEST PUSH2 0x2345 DUP2 PUSH2 0x232A JUMP JUMPDEST DUP3 MSTORE POP POP JUMP JUMPDEST PUSH1 0x0 PUSH1 0x20 DUP3 ADD SWAP1 POP PUSH2 0x2360 PUSH1 0x0 DUP4 ADD DUP5 PUSH2 0x233C JUMP JUMPDEST SWAP3 SWAP2 POP POP JUMP JUMPDEST PUSH1 0x0 DUP3 DUP3 MSTORE PUSH1 0x20 DUP3 ADD SWAP1 POP SWAP3 SWAP2 POP POP JUMP JUMPDEST PUSH32 0x416D6F756E742073686F756C642062652067726561746572207468616E203000 PUSH1 0x0 DUP3 ADD MSTORE POP JUMP JUMPDEST PUSH1 0x0 PUSH2 0x23AD PUSH1 0x1F DUP4 PUSH2 0x2366 JUMP JUMPDEST SWAP2 POP PUSH2 0x23B8 DUP3 PUSH2 0x2377 JUMP JUMPDEST PUSH1 0x20 DUP3 ADD SWAP1 POP SWAP2 SWAP1 POP JUMP JUMPDEST PUSH1 0x0 PUSH1 0x20 DUP3 ADD SWAP1 POP DUP2 DUP2 SUB PUSH1 0x0 DUP4 ADD MSTORE PUSH2 0x23DC DUP2 PUSH2 0x23A0 JUMP JUMPDEST SWAP1 POP SWAP2 SWAP1 POP JUMP JUMPDEST PUSH32 0x496E76616C696420616D6F756E74000000000000000000000000000000000000 PUSH1 0x0 DUP3 ADD MSTORE POP JUMP JUMPDEST PUSH1 0x0 PUSH2 0x2419 PUSH1 0xE DUP4 PUSH2 0x2366 JUMP JUMPDEST SWAP2 POP PUSH2 0x2424 DUP3 PUSH2 0x23E3 JUMP JUMPDEST PUSH1 0x20 DUP3 ADD SWAP1 POP SWAP2 SWAP1 POP JUMP JUMPDEST PUSH1 0x0 PUSH1 0x20 DUP3 ADD SWAP1 POP DUP2 DUP2 SUB PUSH1 0x0 DUP4 ADD MSTORE PUSH2 0x2448 DUP2 PUSH2 0x240C JUMP JUMPDEST SWAP1 POP SWAP2 SWAP1 POP JUMP JUMPDEST PUSH32 0x4E487B7100000000000000000000000000000000000000000000000000000000 PUSH1 0x0 MSTORE PUSH1 0x12 PUSH1 0x4 MSTORE PUSH1 0x24 PUSH1 0x0 REVERT JUMPDEST PUSH1 0x0 PUSH2 0x2489 DUP3 PUSH2 0x2165 JUMP JUMPDEST SWAP2 POP PUSH2 0x2494 DUP4 PUSH2 0x2165 JUMP JUMPDEST SWAP3 POP DUP3 PUSH2 0x24A4 JUMPI PUSH2 0x24A3 PUSH2 0x244F JUMP JUMPDEST JUMPDEST DUP3 DUP3 MOD SWAP1 POP SWAP3 SWAP2 POP POP JUMP JUMPDEST PUSH1 0x0 PUSH1 0x40 DUP3 ADD SWAP1 POP PUSH2 0x24C4 PUSH1 0x0 DUP4 ADD DUP6 PUSH2 0x22C2 JUMP JUMPDEST PUSH2 0x24D1 PUSH1 0x20 DUP4 ADD DUP5 PUSH2 0x216F JUMP JUMPDEST SWAP4 SWAP3 POP POP POP JUMP JUMPDEST PUSH32 0x4E6F7468696E6720746F20636C61696D00000000000000000000000000000000 PUSH1 0x0 DUP3 ADD MSTORE POP JUMP JUMPDEST PUSH1 0x0 PUSH2 0x250E PUSH1 0x10 DUP4 PUSH2 0x2366 JUMP JUMPDEST SWAP2 POP PUSH2 0x2519 DUP3 PUSH2 0x24D8 JUMP JUMPDEST PUSH1 0x20 DUP3 ADD SWAP1 POP SWAP2 SWAP1 POP JUMP JUMPDEST PUSH1 0x0 PUSH1 0x20 DUP3 ADD SWAP1 POP DUP2 DUP2 SUB PUSH1 0x0 DUP4 ADD MSTORE PUSH2 0x253D DUP2 PUSH2 0x2501 JUMP JUMPDEST SWAP1 POP SWAP2 SWAP1 POP JUMP JUMPDEST PUSH1 0x0 DUP2 MLOAD SWAP1 POP PUSH2 0x2553 DUP2 PUSH2 0x219E JUMP JUMPDEST SWAP3 SWAP2 POP POP JUMP JUMPDEST PUSH1 0x0 PUSH1 0x20 DUP3 DUP5 SUB SLT ISZERO PUSH2 0x256F JUMPI PUSH2 0x256E PUSH2 0x2199 JUMP JUMPDEST JUMPDEST PUSH1 0x0 PUSH2 0x257D DUP5 DUP3 DUP6 ADD PUSH2 0x2544 JUMP JUMPDEST SWAP2 POP POP SWAP3 SWAP2 POP POP JUMP JUMPDEST PUSH32 0x4F776E61626C653A2063616C6C6572206973206E6F7420746865206F776E6572 PUSH1 0x0 DUP3 ADD MSTORE POP JUMP JUMPDEST PUSH1 0x0 PUSH2 0x25BC PUSH1 0x20 DUP4 PUSH2 0x2366 JUMP JUMPDEST SWAP2 POP PUSH2 0x25C7 DUP3 PUSH2 0x2586 JUMP JUMPDEST PUSH1 0x20 DUP3 ADD SWAP1 POP SWAP2 SWAP1 POP JUMP JUMPDEST PUSH1 0x0 PUSH1 0x20 DUP3 ADD SWAP1 POP DUP2 DUP2 SUB PUSH1 0x0 DUP4 ADD MSTORE PUSH2 0x25EB DUP2 PUSH2 0x25AF JUMP JUMPDEST SWAP1 POP SWAP2 SWAP1 POP JUMP JUMPDEST PUSH32 0x43616E2774206265207A65726F00000000000000000000000000000000000000 PUSH1 0x0 DUP3 ADD MSTORE POP JUMP JUMPDEST PUSH1 0x0 PUSH2 0x2628 PUSH1 0xD DUP4 PUSH2 0x2366 JUMP JUMPDEST SWAP2 POP PUSH2 0x2633 DUP3 PUSH2 0x25F2 JUMP JUMPDEST PUSH1 0x20 DUP3 ADD SWAP1 POP SWAP2 SWAP1 POP JUMP JUMPDEST PUSH1 0x0 PUSH1 0x20 DUP3 ADD SWAP1 POP DUP2 DUP2 SUB PUSH1 0x0 DUP4 ADD MSTORE PUSH2 0x2657 DUP2 PUSH2 0x261B JUMP JUMPDEST SWAP1 POP SWAP2 SWAP1 POP JUMP JUMPDEST PUSH32 0x496E73756666696369656E742100000000000000000000000000000000000000 PUSH1 0x0 DUP3 ADD MSTORE POP JUMP JUMPDEST PUSH1 0x0 PUSH2 0x2694 PUSH1 0xD DUP4 PUSH2 0x2366 JUMP JUMPDEST SWAP2 POP PUSH2 0x269F DUP3 PUSH2 0x265E JUMP JUMPDEST PUSH1 0x20 DUP3 ADD SWAP1 POP SWAP2 SWAP1 POP JUMP JUMPDEST PUSH1 0x0 PUSH1 0x20 DUP3 ADD SWAP1 POP DUP2 DUP2 SUB PUSH1 0x0 DUP4 ADD MSTORE PUSH2 0x26C3 DUP2 PUSH2 0x2687 JUMP JUMPDEST SWAP1 POP SWAP2 SWAP1 POP JUMP JUMPDEST PUSH32 0x416C726561647920737461727465640000000000000000000000000000000000 PUSH1 0x0 DUP3 ADD MSTORE POP JUMP JUMPDEST PUSH1 0x0 PUSH2 0x2700 PUSH1 0xF DUP4 PUSH2 0x2366 JUMP JUMPDEST SWAP2 POP PUSH2 0x270B DUP3 PUSH2 0x26CA JUMP JUMPDEST PUSH1 0x20 DUP3 ADD SWAP1 POP SWAP2 SWAP1 POP JUMP JUMPDEST PUSH1 0x0 PUSH1 0x20 DUP3 ADD SWAP1 POP DUP2 DUP2 SUB PUSH1 0x0 DUP4 ADD MSTORE PUSH2 0x272F DUP2 PUSH2 0x26F3 JUMP JUMPDEST SWAP1 POP SWAP2 SWAP1 POP JUMP JUMPDEST PUSH32 0x496E73756666696369656E740000000000000000000000000000000000000000 PUSH1 0x0 DUP3 ADD MSTORE POP JUMP JUMPDEST PUSH1 0x0 PUSH2 0x276C PUSH1 0xC DUP4 PUSH2 0x2366 JUMP JUMPDEST SWAP2 POP PUSH2 0x2777 DUP3 PUSH2 0x2736 JUMP JUMPDEST PUSH1 0x20 DUP3 ADD SWAP1 POP SWAP2 SWAP1 POP JUMP JUMPDEST PUSH1 0x0 PUSH1 0x20 DUP3 ADD SWAP1 POP DUP2 DUP2 SUB PUSH1 0x0 DUP4 ADD MSTORE PUSH2 0x279B DUP2 PUSH2 0x275F JUMP JUMPDEST SWAP1 POP SWAP2 SWAP1 POP JUMP JUMPDEST PUSH32 0x496E76616C6964204D6F64650000000000000000000000000000000000000000 PUSH1 0x0 DUP3 ADD MSTORE POP JUMP JUMPDEST PUSH1 0x0 PUSH2 0x27D8 PUSH1 0xC DUP4 PUSH2 0x2366 JUMP JUMPDEST SWAP2 POP PUSH2 0x27E3 DUP3 PUSH2 0x27A2 JUMP JUMPDEST PUSH1 0x20 DUP3 ADD SWAP1 POP SWAP2 SWAP1 POP JUMP JUMPDEST PUSH1 0x0 PUSH1 0x20 DUP3 ADD SWAP1 POP DUP2 DUP2 SUB PUSH1 0x0 DUP4 ADD MSTORE PUSH2 0x2807 DUP2 PUSH2 0x27CB JUMP JUMPDEST SWAP1 POP SWAP2 SWAP1 POP JUMP JUMPDEST PUSH32 0x496E76616C6964204C6F636B7570204475726174696F6E000000000000000000 PUSH1 0x0 DUP3 ADD MSTORE POP JUMP JUMPDEST PUSH1 0x0 PUSH2 0x2844 PUSH1 0x17 DUP4 PUSH2 0x2366 JUMP JUMPDEST SWAP2 POP PUSH2 0x284F DUP3 PUSH2 0x280E JUMP JUMPDEST PUSH1 0x20 DUP3 ADD SWAP1 POP SWAP2 SWAP1 POP JUMP JUMPDEST PUSH1 0x0 PUSH1 0x20 DUP3 ADD SWAP1 POP DUP2 DUP2 SUB PUSH1 0x0 DUP4 ADD MSTORE PUSH2 0x2873 DUP2 PUSH2 0x2837 JUMP JUMPDEST SWAP1 POP SWAP2 SWAP1 POP JUMP JUMPDEST PUSH32 0x496E76616C696420556E7374616B696E67204665652052617465000000000000 PUSH1 0x0 DUP3 ADD MSTORE POP JUMP JUMPDEST PUSH1 0x0 PUSH2 0x28B0 PUSH1 0x1A DUP4 PUSH2 0x2366 JUMP JUMPDEST SWAP2 POP PUSH2 0x28BB DUP3 PUSH2 0x287A JUMP JUMPDEST PUSH1 0x20 DUP3 ADD SWAP1 POP SWAP2 SWAP1 POP JUMP JUMPDEST PUSH1 0x0 PUSH1 0x20 DUP3 ADD SWAP1 POP DUP2 DUP2 SUB PUSH1 0x0 DUP4 ADD MSTORE PUSH2 0x28DF DUP2 PUSH2 0x28A3 JUMP JUMPDEST SWAP1 POP SWAP2 SWAP1 POP JUMP JUMPDEST PUSH32 0x496E76616C69642076616C756500000000000000000000000000000000000000 PUSH1 0x0 DUP3 ADD MSTORE POP JUMP JUMPDEST PUSH1 0x0 PUSH2 0x291C PUSH1 0xD DUP4 PUSH2 0x2366 JUMP JUMPDEST SWAP2 POP PUSH2 0x2927 DUP3 PUSH2 0x28E6 JUMP JUMPDEST PUSH1 0x20 DUP3 ADD SWAP1 POP SWAP2 SWAP1 POP JUMP JUMPDEST PUSH1 0x0 PUSH1 0x20 DUP3 ADD SWAP1 POP DUP2 DUP2 SUB PUSH1 0x0 DUP4 ADD MSTORE PUSH2 0x294B DUP2 PUSH2 0x290F JUMP JUMPDEST SWAP1 POP SWAP2 SWAP1 POP JUMP JUMPDEST PUSH32 0x4572726F723A20696E76616C6964207374616B65720000000000000000000000 PUSH1 0x0 DUP3 ADD MSTORE POP JUMP JUMPDEST PUSH1 0x0 PUSH2 0x2988 PUSH1 0x15 DUP4 PUSH2 0x2366 JUMP JUMPDEST SWAP2 POP PUSH2 0x2993 DUP3 PUSH2 0x2952 JUMP JUMPDEST PUSH1 0x20 DUP3 ADD SWAP1 POP SWAP2 SWAP1 POP JUMP JUMPDEST PUSH1 0x0 PUSH1 0x20 DUP3 ADD SWAP1 POP DUP2 DUP2 SUB PUSH1 0x0 DUP4 ADD MSTORE PUSH2 0x29B7 DUP2 PUSH2 0x297B JUMP JUMPDEST SWAP1 POP SWAP2 SWAP1 POP JUMP JUMPDEST PUSH32 0x4F776E61626C653A206E6577206F776E657220697320746865207A65726F2061 PUSH1 0x0 DUP3 ADD MSTORE PUSH32 0x6464726573730000000000000000000000000000000000000000000000000000 PUSH1 0x20 DUP3 ADD MSTORE POP JUMP JUMPDEST PUSH1 0x0 PUSH2 0x2A1A PUSH1 0x26 DUP4 PUSH2 0x2366 JUMP JUMPDEST SWAP2 POP PUSH2 0x2A25 DUP3 PUSH2 0x29BE JUMP JUMPDEST PUSH1 0x40 DUP3 ADD SWAP1 POP SWAP2 SWAP1 POP JUMP JUMPDEST PUSH1 0x0 PUSH1 0x20 DUP3 ADD SWAP1 POP DUP2 DUP2 SUB PUSH1 0x0 DUP4 ADD MSTORE PUSH2 0x2A49 DUP2 PUSH2 0x2A0D JUMP JUMPDEST SWAP1 POP SWAP2 SWAP1 POP JUMP JUMPDEST PUSH32 0x4E487B7100000000000000000000000000000000000000000000000000000000 PUSH1 0x0 MSTORE PUSH1 0x11 PUSH1 0x4 MSTORE PUSH1 0x24 PUSH1 0x0 REVERT JUMPDEST PUSH1 0x0 PUSH2 0x2A8A DUP3 PUSH2 0x2165 JUMP JUMPDEST SWAP2 POP PUSH2 0x2A95 DUP4 PUSH2 0x2165 JUMP JUMPDEST SWAP3 POP DUP3 DUP3 LT ISZERO PUSH2 0x2AA8 JUMPI PUSH2 0x2AA7 PUSH2 0x2A50 JUMP JUMPDEST JUMPDEST DUP3 DUP3 SUB SWAP1 POP SWAP3 SWAP2 POP POP JUMP JUMPDEST PUSH1 0x0 PUSH2 0x2ABE DUP3 PUSH2 0x2165 JUMP JUMPDEST SWAP2 POP PUSH2 0x2AC9 DUP4 PUSH2 0x2165 JUMP JUMPDEST SWAP3 POP DUP3 PUSH2 0x2AD9 JUMPI PUSH2 0x2AD8 PUSH2 0x244F JUMP JUMPDEST JUMPDEST DUP3 DUP3 DIV SWAP1 POP SWAP3 SWAP2 POP POP JUMP JUMPDEST PUSH1 0x0 PUSH2 0x2AEF DUP3 PUSH2 0x2165 JUMP JUMPDEST SWAP2 POP PUSH2 0x2AFA DUP4 PUSH2 0x2165 JUMP JUMPDEST SWAP3 POP DUP3 PUSH32 0xFFFFFFFFFFFFFFFFFFFFFFFFFFFFFFFFFFFFFFFFFFFFFFFFFFFFFFFFFFFFFFFF SUB DUP3 GT ISZERO PUSH2 0x2B2F JUMPI PUSH2 0x2B2E PUSH2 0x2A50 JUMP JUMPDEST JUMPDEST DUP3 DUP3 ADD SWAP1 POP SWAP3 SWAP2 POP POP JUMP JUMPDEST PUSH1 0x0 PUSH2 0x2B45 DUP3 PUSH2 0x2165 JUMP JUMPDEST SWAP2 POP PUSH2 0x2B50 DUP4 PUSH2 0x2165 JUMP JUMPDEST SWAP3 POP DUP2 PUSH32 0xFFFFFFFFFFFFFFFFFFFFFFFFFFFFFFFFFFFFFFFFFFFFFFFFFFFFFFFFFFFFFFFF DIV DUP4 GT DUP3 ISZERO ISZERO AND ISZERO PUSH2 0x2B89 JUMPI PUSH2 0x2B88 PUSH2 0x2A50 JUMP JUMPDEST JUMPDEST DUP3 DUP3 MUL SWAP1 POP SWAP3 SWAP2 POP POP JUMP JUMPDEST PUSH1 0x0 PUSH1 0x60 DUP3 ADD SWAP1 POP PUSH2 0x2BA9 PUSH1 0x0 DUP4 ADD DUP7 PUSH2 0x22C2 JUMP JUMPDEST PUSH2 0x2BB6 PUSH1 0x20 DUP4 ADD DUP6 PUSH2 0x22C2 JUMP JUMPDEST PUSH2 0x2BC3 PUSH1 0x40 DUP4 ADD DUP5 PUSH2 0x216F JUMP JUMPDEST SWAP5 SWAP4 POP POP POP POP JUMP JUMPDEST PUSH1 0x0 DUP2 ISZERO ISZERO SWAP1 POP SWAP2 SWAP1 POP JUMP JUMPDEST PUSH2 0x2BE0 DUP2 PUSH2 0x2BCB JUMP JUMPDEST DUP2 EQ PUSH2 0x2BEB JUMPI PUSH1 0x0 DUP1 REVERT JUMPDEST POP JUMP JUMPDEST PUSH1 0x0 DUP2 MLOAD SWAP1 POP PUSH2 0x2BFD DUP2 PUSH2 0x2BD7 JUMP JUMPDEST SWAP3 SWAP2 POP POP JUMP JUMPDEST PUSH1 0x0 PUSH1 0x20 DUP3 DUP5 SUB SLT ISZERO PUSH2 0x2C19 JUMPI PUSH2 0x2C18 PUSH2 0x2199 JUMP JUMPDEST JUMPDEST PUSH1 0x0 PUSH2 0x2C27 DUP5 DUP3 DUP6 ADD PUSH2 0x2BEE JUMP JUMPDEST SWAP2 POP POP SWAP3 SWAP2 POP POP JUMP JUMPDEST PUSH32 0x5361666542455032303A204245503230206F7065726174696F6E20646964206E PUSH1 0x0 DUP3 ADD MSTORE PUSH32 0x6F74207375636365656400000000000000000000000000000000000000000000 PUSH1 0x20 DUP3 ADD MSTORE POP JUMP JUMPDEST PUSH1 0x0 PUSH2 0x2C8C PUSH1 0x2A DUP4 PUSH2 0x2366 JUMP JUMPDEST SWAP2 POP PUSH2 0x2C97 DUP3 PUSH2 0x2C30 JUMP JUMPDEST PUSH1 0x40 DUP3 ADD SWAP1 POP SWAP2 SWAP1 POP JUMP JUMPDEST PUSH1 0x0 PUSH1 0x20 DUP3 ADD SWAP1 POP DUP2 DUP2 SUB PUSH1 0x0 DUP4 ADD MSTORE PUSH2 0x2CBB DUP2 PUSH2 0x2C7F JUMP JUMPDEST SWAP1 POP SWAP2 SWAP1 POP JUMP JUMPDEST PUSH32 0x416464726573733A20696E73756666696369656E742062616C616E636520666F PUSH1 0x0 DUP3 ADD MSTORE PUSH32 0x722063616C6C0000000000000000000000000000000000000000000000000000 PUSH1 0x20 DUP3 ADD MSTORE POP JUMP JUMPDEST PUSH1 0x0 PUSH2 0x2D1E PUSH1 0x26 DUP4 PUSH2 0x2366 JUMP JUMPDEST SWAP2 POP PUSH2 0x2D29 DUP3 PUSH2 0x2CC2 JUMP JUMPDEST PUSH1 0x40 DUP3 ADD SWAP1 POP SWAP2 SWAP1 POP JUMP JUMPDEST PUSH1 0x0 PUSH1 0x20 DUP3 ADD SWAP1 POP DUP2 DUP2 SUB PUSH1 0x0 DUP4 ADD MSTORE PUSH2 0x2D4D DUP2 PUSH2 0x2D11 JUMP JUMPDEST SWAP1 POP SWAP2 SWAP1 POP JUMP JUMPDEST PUSH32 0x416464726573733A2063616C6C20746F206E6F6E2D636F6E7472616374000000 PUSH1 0x0 DUP3 ADD MSTORE POP JUMP JUMPDEST PUSH1 0x0 PUSH2 0x2D8A PUSH1 0x1D DUP4 PUSH2 0x2366 JUMP JUMPDEST SWAP2 POP PUSH2 0x2D95 DUP3 PUSH2 0x2D54 JUMP JUMPDEST PUSH1 0x20 DUP3 ADD SWAP1 POP SWAP2 SWAP1 POP JUMP JUMPDEST PUSH1 0x0 PUSH1 0x20 DUP3 ADD SWAP1 POP DUP2 DUP2 SUB PUSH1 0x0 DUP4 ADD MSTORE PUSH2 0x2DB9 DUP2 PUSH2 0x2D7D JUMP JUMPDEST SWAP1 POP SWAP2 SWAP1 POP JUMP JUMPDEST PUSH1 0x0 DUP2 MLOAD SWAP1 POP SWAP2 SWAP1 POP JUMP JUMPDEST PUSH1 0x0 DUP2 SWAP1 POP SWAP3 SWAP2 POP POP JUMP JUMPDEST PUSH1 0x0 JUMPDEST DUP4 DUP2 LT ISZERO PUSH2 0x2DF4 JUMPI DUP1 DUP3 ADD MLOAD DUP2 DUP5 ADD MSTORE PUSH1 0x20 DUP2 ADD SWAP1 POP PUSH2 0x2DD9 JUMP JUMPDEST DUP4 DUP2 GT ISZERO PUSH2 0x2E03 JUMPI PUSH1 0x0 DUP5 DUP5 ADD MSTORE JUMPDEST POP POP POP POP JUMP JUMPDEST PUSH1 0x0 PUSH2 0x2E14 DUP3 PUSH2 0x2DC0 JUMP JUMPDEST PUSH2 0x2E1E DUP2 DUP6 PUSH2 0x2DCB JUMP JUMPDEST SWAP4 POP PUSH2 0x2E2E DUP2 DUP6 PUSH1 0x20 DUP7 ADD PUSH2 0x2DD6 JUMP JUMPDEST DUP1 DUP5 ADD SWAP2 POP POP SWAP3 SWAP2 POP POP JUMP JUMPDEST PUSH1 0x0 PUSH2 0x2E46 DUP3 DUP5 PUSH2 0x2E09 JUMP JUMPDEST SWAP2 POP DUP2 SWAP1 POP SWAP3 SWAP2 POP POP JUMP JUMPDEST PUSH1 0x0 DUP2 MLOAD SWAP1 POP SWAP2 SWAP1 POP JUMP JUMPDEST PUSH1 0x0 PUSH1 0x1F NOT PUSH1 0x1F DUP4 ADD AND SWAP1 POP SWAP2 SWAP1 POP JUMP JUMPDEST PUSH1 0x0 PUSH2 0x2E78 DUP3 PUSH2 0x2E51 JUMP JUMPDEST PUSH2 0x2E82 DUP2 DUP6 PUSH2 0x2366 JUMP JUMPDEST SWAP4 POP PUSH2 0x2E92 DUP2 DUP6 PUSH1 0x20 DUP7 ADD PUSH2 0x2DD6 JUMP JUMPDEST PUSH2 0x2E9B DUP2 PUSH2 0x2E5C JUMP JUMPDEST DUP5 ADD SWAP2 POP POP SWAP3 SWAP2 POP POP JUMP JUMPDEST PUSH1 0x0 PUSH1 0x20 DUP3 ADD SWAP1 POP DUP2 DUP2 SUB PUSH1 0x0 DUP4 ADD MSTORE PUSH2 0x2EC0 DUP2 DUP5 PUSH2 0x2E6D JUMP JUMPDEST SWAP1 POP SWAP3 SWAP2 POP POP JUMP INVALID LOG2 PUSH5 0x6970667358 0x22 SLT KECCAK256 0x21 BALANCE MOD JUMP CALLER 0xA6 DUP10 SWAP14 SWAP6 DUP7 SWAP2 XOR RETURNDATASIZE 0xFC GAS SELFDESTRUCT 0xD2 0xCC PUSH18 0xE69CE8DCDA985426ADD82C469364736F6C63 NUMBER STOP ADDMOD EXP STOP CALLER "
				},
				"gasEstimates": {
					"creation": {
						"codeDepositCost": "2406000",
						"executionCost": "infinite",
						"totalCost": "infinite"
					},
					"external": {
						"getNumberofStakers()": "2490",
						"getRewardRate()": "2460",
						"getStakerMode(address)": "2931",
						"getTotalStaked()": "2461",
						"harvest()": "infinite",
						"isLocked(address)": "infinite",
						"isStartStaking(address)": "2979",
						"owner()": "2589",
						"renounceOwnership()": "30507",
						"rewardAmount(address)": "2936",
						"rewardToHarvest()": "2599",
						"setEventPeriod(uint256)": "infinite",
						"setLockupTime(uint256)": "24895",
						"setRewardRate(uint256)": "infinite",
						"setUnstakingFeeRate(uint256)": "infinite",
						"stake(uint256)": "infinite",
						"stakedAmount(address)": "2935",
						"startStaking(uint256,uint256)": "infinite",
						"token()": "infinite",
						"totalStaked()": "2474",
						"transferOwnership(address)": "30789",
						"withdraw(uint256)": "infinite"
					},
					"internal": {
						"Init()": "infinite",
						"calDaysFromTimestamp(uint256)": "infinite",
						"updateReward()": "infinite"
					}
				},
				"methodIdentifiers": {
					"getNumberofStakers()": "5715ec11",
					"getRewardRate()": "7e1a3786",
					"getStakerMode(address)": "aedf562b",
					"getTotalStaked()": "0917e776",
					"harvest()": "4641257d",
					"isLocked(address)": "4a4fbeec",
					"isStartStaking(address)": "fe600f84",
					"owner()": "8da5cb5b",
					"renounceOwnership()": "715018a6",
					"rewardAmount(address)": "645a8a56",
					"rewardToHarvest()": "5d2ec65d",
					"setEventPeriod(uint256)": "692642e7",
					"setLockupTime(uint256)": "4b62b70b",
					"setRewardRate(uint256)": "9e447fc6",
					"setUnstakingFeeRate(uint256)": "91e07e7a",
					"stake(uint256)": "a694fc3a",
					"stakedAmount(address)": "f9931855",
					"startStaking(uint256,uint256)": "4b77dd9e",
					"token()": "fc0c546a",
					"totalStaked()": "817b1cd2",
					"transferOwnership(address)": "f2fde38b",
					"withdraw(uint256)": "2e1a7d4d"
				}
			},
			"storageLayout": {
				"storage": [
					{
						"astId": 1017,
						"contract": "Staking_flat.sol:StakingPlatform",
						"label": "_owner",
						"offset": 0,
						"slot": "0",
						"type": "t_address"
					},
					{
						"astId": 1138,
						"contract": "Staking_flat.sol:StakingPlatform",
						"label": "_unstakingFeeRate",
						"offset": 0,
						"slot": "1",
						"type": "t_uint256"
					},
					{
						"astId": 1140,
						"contract": "Staking_flat.sol:StakingPlatform",
						"label": "_eventPeriod",
						"offset": 0,
						"slot": "2",
						"type": "t_uint256"
					},
					{
						"astId": 1142,
						"contract": "Staking_flat.sol:StakingPlatform",
						"label": "_rewardRate",
						"offset": 0,
						"slot": "3",
						"type": "t_uint256"
					},
					{
						"astId": 1144,
						"contract": "Staking_flat.sol:StakingPlatform",
						"label": "_rewardFeeRate",
						"offset": 0,
						"slot": "4",
						"type": "t_uint256"
					},
					{
						"astId": 1146,
						"contract": "Staking_flat.sol:StakingPlatform",
						"label": "_lockupPeriod",
						"offset": 0,
						"slot": "5",
						"type": "t_uint256"
					},
					{
						"astId": 1148,
						"contract": "Staking_flat.sol:StakingPlatform",
						"label": "_minStakeAmount_g",
						"offset": 0,
						"slot": "6",
						"type": "t_uint256"
					},
					{
						"astId": 1150,
						"contract": "Staking_flat.sol:StakingPlatform",
						"label": "_minStakeAmount_s",
						"offset": 0,
						"slot": "7",
						"type": "t_uint256"
					},
					{
						"astId": 1152,
						"contract": "Staking_flat.sol:StakingPlatform",
						"label": "_minStakeAmount_c",
						"offset": 0,
						"slot": "8",
						"type": "t_uint256"
					},
					{
						"astId": 1155,
						"contract": "Staking_flat.sol:StakingPlatform",
						"label": "_stakers",
						"offset": 0,
						"slot": "9",
						"type": "t_array(t_address)dyn_storage"
					},
					{
						"astId": 1160,
						"contract": "Staking_flat.sol:StakingPlatform",
						"label": "_staker",
						"offset": 0,
						"slot": "10",
						"type": "t_mapping(t_address,t_struct(Staker)1136_storage)"
					},
					{
						"astId": 1162,
						"contract": "Staking_flat.sol:StakingPlatform",
						"label": "totalStaked",
						"offset": 0,
						"slot": "11",
						"type": "t_uint256"
					},
					{
						"astId": 1165,
						"contract": "Staking_flat.sol:StakingPlatform",
						"label": "token",
						"offset": 0,
						"slot": "12",
						"type": "t_contract(IBEP20)100"
					}
				],
				"types": {
					"t_address": {
						"encoding": "inplace",
						"label": "address",
						"numberOfBytes": "20"
					},
					"t_array(t_address)dyn_storage": {
						"base": "t_address",
						"encoding": "dynamic_array",
						"label": "address[]",
						"numberOfBytes": "32"
					},
					"t_contract(IBEP20)100": {
						"encoding": "inplace",
						"label": "contract IBEP20",
						"numberOfBytes": "20"
					},
					"t_mapping(t_address,t_struct(Staker)1136_storage)": {
						"encoding": "mapping",
						"key": "t_address",
						"label": "mapping(address => struct StakingPlatform.Staker)",
						"numberOfBytes": "32",
						"value": "t_struct(Staker)1136_storage"
					},
					"t_struct(Staker)1136_storage": {
						"encoding": "inplace",
						"label": "struct StakingPlatform.Staker",
						"members": [
							{
								"astId": 1125,
								"contract": "Staking_flat.sol:StakingPlatform",
								"label": "stakerCurrentReward",
								"offset": 0,
								"slot": "0",
								"type": "t_uint256"
							},
							{
								"astId": 1127,
								"contract": "Staking_flat.sol:StakingPlatform",
								"label": "stakedAmount",
								"offset": 0,
								"slot": "1",
								"type": "t_uint256"
							},
							{
								"astId": 1129,
								"contract": "Staking_flat.sol:StakingPlatform",
								"label": "mode",
								"offset": 0,
								"slot": "2",
								"type": "t_uint256"
							},
							{
								"astId": 1131,
								"contract": "Staking_flat.sol:StakingPlatform",
								"label": "stakeStartTime",
								"offset": 0,
								"slot": "3",
								"type": "t_uint256"
							},
							{
								"astId": 1133,
								"contract": "Staking_flat.sol:StakingPlatform",
								"label": "lastUpdatedBlockNumber",
								"offset": 0,
								"slot": "4",
								"type": "t_uint256"
							},
							{
								"astId": 1135,
								"contract": "Staking_flat.sol:StakingPlatform",
								"label": "staked",
								"offset": 0,
								"slot": "5",
								"type": "t_uint256"
							}
						],
						"numberOfBytes": "192"
					},
					"t_uint256": {
						"encoding": "inplace",
						"label": "uint256",
						"numberOfBytes": "32"
					}
				}
			},
			"userdoc": {
				"kind": "user",
				"methods": {},
				"version": 1
			}
		}
	}
}