{
	"contracts/Staking.sol": {
		"StakingPlatform": {
			"abi": [
				{
					"inputs": [
						{
							"internalType": "address",
							"name": "_token",
							"type": "address"
						}
					],
					"stateMutability": "nonpayable",
					"type": "constructor"
				},
				{
					"anonymous": false,
					"inputs": [
						{
							"indexed": false,
							"internalType": "address",
							"name": "staker",
							"type": "address"
						},
						{
							"indexed": false,
							"internalType": "uint256",
							"name": "rewardToClaim",
							"type": "uint256"
						}
					],
					"name": "Harvest",
					"type": "event"
				},
				{
					"anonymous": false,
					"inputs": [
						{
							"indexed": true,
							"internalType": "address",
							"name": "previousOwner",
							"type": "address"
						},
						{
							"indexed": true,
							"internalType": "address",
							"name": "newOwner",
							"type": "address"
						}
					],
					"name": "OwnershipTransferred",
					"type": "event"
				},
				{
					"anonymous": false,
					"inputs": [
						{
							"indexed": false,
							"internalType": "uint256",
							"name": "lockupDuration",
							"type": "uint256"
						}
					],
					"name": "SetEventPeriod",
					"type": "event"
				},
				{
					"anonymous": false,
					"inputs": [
						{
							"indexed": false,
							"internalType": "uint256",
							"name": "rewardRate",
							"type": "uint256"
						}
					],
					"name": "SetRewardRate",
					"type": "event"
				},
				{
					"anonymous": false,
					"inputs": [
						{
							"indexed": false,
							"internalType": "uint256",
							"name": "unstakingFeeRate",
							"type": "uint256"
						}
					],
					"name": "SetUnstakingFeeRate",
					"type": "event"
				},
				{
					"anonymous": false,
					"inputs": [
						{
							"indexed": false,
							"internalType": "address",
							"name": "staker",
							"type": "address"
						},
						{
							"indexed": false,
							"internalType": "uint256",
							"name": "amount",
							"type": "uint256"
						}
					],
					"name": "Staked",
					"type": "event"
				},
				{
					"anonymous": false,
					"inputs": [
						{
							"indexed": false,
							"internalType": "address",
							"name": "staker",
							"type": "address"
						},
						{
							"indexed": false,
							"internalType": "uint256",
							"name": "amount",
							"type": "uint256"
						}
					],
					"name": "Withdraw",
					"type": "event"
				},
				{
					"inputs": [],
					"name": "getNumberofStakers",
					"outputs": [
						{
							"internalType": "uint256",
							"name": "",
							"type": "uint256"
						}
					],
					"stateMutability": "view",
					"type": "function"
				},
				{
					"inputs": [],
					"name": "getRewardRate",
					"outputs": [
						{
							"internalType": "uint256",
							"name": "",
							"type": "uint256"
						}
					],
					"stateMutability": "view",
					"type": "function"
				},
				{
					"inputs": [
						{
							"internalType": "address",
							"name": "_address",
							"type": "address"
						}
					],
					"name": "getStakerMode",
					"outputs": [
						{
							"internalType": "uint256",
							"name": "",
							"type": "uint256"
						}
					],
					"stateMutability": "view",
					"type": "function"
				},
				{
					"inputs": [],
					"name": "getTotalStaked",
					"outputs": [
						{
							"internalType": "uint256",
							"name": "",
							"type": "uint256"
						}
					],
					"stateMutability": "view",
					"type": "function"
				},
				{
					"inputs": [],
					"name": "harvest",
					"outputs": [],
					"stateMutability": "nonpayable",
					"type": "function"
				},
				{
					"inputs": [
						{
							"internalType": "address",
							"name": "_address",
							"type": "address"
						}
					],
					"name": "isLocked",
					"outputs": [
						{
							"internalType": "uint256",
							"name": "",
							"type": "uint256"
						}
					],
					"stateMutability": "view",
					"type": "function"
				},
				{
					"inputs": [
						{
							"internalType": "address",
							"name": "_address",
							"type": "address"
						}
					],
					"name": "isStartStaking",
					"outputs": [
						{
							"internalType": "uint256",
							"name": "",
							"type": "uint256"
						}
					],
					"stateMutability": "view",
					"type": "function"
				},
				{
					"inputs": [],
					"name": "owner",
					"outputs": [
						{
							"internalType": "address",
							"name": "",
							"type": "address"
						}
					],
					"stateMutability": "view",
					"type": "function"
				},
				{
					"inputs": [],
					"name": "renounceOwnership",
					"outputs": [],
					"stateMutability": "nonpayable",
					"type": "function"
				},
				{
					"inputs": [
						{
							"internalType": "address",
							"name": "_address",
							"type": "address"
						}
					],
					"name": "rewardAmount",
					"outputs": [
						{
							"internalType": "uint256",
							"name": "",
							"type": "uint256"
						}
					],
					"stateMutability": "view",
					"type": "function"
				},
				{
					"inputs": [],
					"name": "rewardToHarvest",
					"outputs": [
						{
							"internalType": "uint256",
							"name": "",
							"type": "uint256"
						}
					],
					"stateMutability": "view",
					"type": "function"
				},
				{
					"inputs": [
						{
							"internalType": "uint256",
							"name": "__eventPeriod",
							"type": "uint256"
						}
					],
					"name": "setEventPeriod",
					"outputs": [],
					"stateMutability": "nonpayable",
					"type": "function"
				},
				{
					"inputs": [
						{
							"internalType": "uint256",
							"name": "lockupTime",
							"type": "uint256"
						}
					],
					"name": "setLockupTime",
					"outputs": [],
					"stateMutability": "nonpayable",
					"type": "function"
				},
				{
					"inputs": [
						{
							"internalType": "uint256",
							"name": "__rewardRate",
							"type": "uint256"
						}
					],
					"name": "setRewardRate",
					"outputs": [],
					"stateMutability": "nonpayable",
					"type": "function"
				},
				{
					"inputs": [
						{
							"internalType": "uint256",
							"name": "__unstakingFeeRate",
							"type": "uint256"
						}
					],
					"name": "setUnstakingFeeRate",
					"outputs": [],
					"stateMutability": "nonpayable",
					"type": "function"
				},
				{
					"inputs": [
						{
							"internalType": "uint256",
							"name": "_amount",
							"type": "uint256"
						}
					],
					"name": "stake",
					"outputs": [],
					"stateMutability": "nonpayable",
					"type": "function"
				},
				{
					"inputs": [
						{
							"internalType": "address",
							"name": "_address",
							"type": "address"
						}
					],
					"name": "stakedAmount",
					"outputs": [
						{
							"internalType": "uint256",
							"name": "",
							"type": "uint256"
						}
					],
					"stateMutability": "view",
					"type": "function"
				},
				{
					"inputs": [
						{
							"internalType": "uint256",
							"name": "_amount",
							"type": "uint256"
						},
						{
							"internalType": "uint256",
							"name": "_mode",
							"type": "uint256"
						}
					],
					"name": "startStaking",
					"outputs": [],
					"stateMutability": "nonpayable",
					"type": "function"
				},
				{
					"inputs": [],
					"name": "token",
					"outputs": [
						{
							"internalType": "contract IBEP20",
							"name": "",
							"type": "address"
						}
					],
					"stateMutability": "view",
					"type": "function"
				},
				{
					"inputs": [],
					"name": "totalStaked",
					"outputs": [
						{
							"internalType": "uint256",
							"name": "",
							"type": "uint256"
						}
					],
					"stateMutability": "view",
					"type": "function"
				},
				{
					"inputs": [
						{
							"internalType": "address",
							"name": "newOwner",
							"type": "address"
						}
					],
					"name": "transferOwnership",
					"outputs": [],
					"stateMutability": "nonpayable",
					"type": "function"
				},
				{
					"inputs": [
						{
							"internalType": "uint256",
							"name": "amount",
							"type": "uint256"
						}
					],
					"name": "withdraw",
					"outputs": [],
					"stateMutability": "nonpayable",
					"type": "function"
				}
			],
			"devdoc": {
				"kind": "dev",
				"methods": {
					"owner()": {
						"details": "Returns the address of the current owner."
					},
					"renounceOwnership()": {
						"details": "Leaves the contract without owner. It will not be possible to call `onlyOwner` functions anymore. Can only be called by the current owner. NOTE: Renouncing ownership will leave the contract without an owner, thereby removing any functionality that is only available to the owner."
					},
					"transferOwnership(address)": {
						"details": "Transfers ownership of the contract to a new account (`newOwner`). Can only be called by the current owner."
					}
				},
				"version": 1
			},
			"evm": {
				"assembly": "    /* \"contracts/Staking.sol\":260:8588  contract StakingPlatform is Ownable {\r... */\n  mstore(0x40, 0x80)\n    /* \"contracts/Staking.sol\":1629:1725  constructor(address _token) {\r... */\n  callvalue\n  dup1\n  iszero\n  tag_1\n  jumpi\n  0x00\n  dup1\n  revert\ntag_1:\n  pop\n  mload(0x40)\n  sub(codesize, bytecodeSize)\n  dup1\n  bytecodeSize\n  dup4\n  codecopy\n  dup2\n  dup2\n  add\n  0x40\n  mstore\n  dup2\n  add\n  swap1\n  tag_2\n  swap2\n  swap1\n  tag_3\n  jump\t// in\ntag_2:\n    /* \"@openzeppelin/contracts/access/Ownable.sol\":921:953  _transferOwnership(_msgSender()) */\n  tag_7\n    /* \"@openzeppelin/contracts/access/Ownable.sol\":940:952  _msgSender() */\n  tag_8\n    /* \"@openzeppelin/contracts/access/Ownable.sol\":940:950  _msgSender */\n  shl(0x20, tag_9)\n    /* \"@openzeppelin/contracts/access/Ownable.sol\":940:952  _msgSender() */\n  0x20\n  shr\n  jump\t// in\ntag_8:\n    /* \"@openzeppelin/contracts/access/Ownable.sol\":921:939  _transferOwnership */\n  shl(0x20, tag_10)\n    /* \"@openzeppelin/contracts/access/Ownable.sol\":921:953  _transferOwnership(_msgSender()) */\n  0x20\n  shr\n  jump\t// in\ntag_7:\n    /* \"contracts/Staking.sol\":1678:1684  Init() */\n  tag_12\n    /* \"contracts/Staking.sol\":1678:1682  Init */\n  shl(0x20, tag_13)\n    /* \"contracts/Staking.sol\":1678:1684  Init() */\n  0x20\n  shr\n  jump\t// in\ntag_12:\n    /* \"contracts/Staking.sol\":1710:1716  _token */\n  dup1\n    /* \"contracts/Staking.sol\":1695:1700  token */\n  0x0c\n  0x00\n    /* \"contracts/Staking.sol\":1695:1717  token = IBEP20(_token) */\n  0x0100\n  exp\n  dup2\n  sload\n  dup2\n  0xffffffffffffffffffffffffffffffffffffffff\n  mul\n  not\n  and\n  swap1\n  dup4\n  0xffffffffffffffffffffffffffffffffffffffff\n  and\n  mul\n  or\n  swap1\n  sstore\n  pop\n    /* \"contracts/Staking.sol\":1629:1725  constructor(address _token) {\r... */\n  pop\n    /* \"contracts/Staking.sol\":260:8588  contract StakingPlatform is Ownable {\r... */\n  jump(tag_14)\n    /* \"@openzeppelin/contracts/utils/Context.sol\":640:736  function _msgSender() internal view virtual returns (address) {... */\ntag_9:\n    /* \"@openzeppelin/contracts/utils/Context.sol\":693:700  address */\n  0x00\n    /* \"@openzeppelin/contracts/utils/Context.sol\":719:729  msg.sender */\n  caller\n    /* \"@openzeppelin/contracts/utils/Context.sol\":712:729  return msg.sender */\n  swap1\n  pop\n    /* \"@openzeppelin/contracts/utils/Context.sol\":640:736  function _msgSender() internal view virtual returns (address) {... */\n  swap1\n  jump\t// out\n    /* \"@openzeppelin/contracts/access/Ownable.sol\":2270:2457  function _transferOwnership(address newOwner) internal virtual {... */\ntag_10:\n    /* \"@openzeppelin/contracts/access/Ownable.sol\":2343:2359  address oldOwner */\n  0x00\n    /* \"@openzeppelin/contracts/access/Ownable.sol\":2362:2368  _owner */\n  dup1\n  0x00\n  swap1\n  sload\n  swap1\n  0x0100\n  exp\n  swap1\n  div\n  0xffffffffffffffffffffffffffffffffffffffff\n  and\n    /* \"@openzeppelin/contracts/access/Ownable.sol\":2343:2368  address oldOwner = _owner */\n  swap1\n  pop\n    /* \"@openzeppelin/contracts/access/Ownable.sol\":2387:2395  newOwner */\n  dup2\n    /* \"@openzeppelin/contracts/access/Ownable.sol\":2378:2384  _owner */\n  0x00\n  dup1\n    /* \"@openzeppelin/contracts/access/Ownable.sol\":2378:2395  _owner = newOwner */\n  0x0100\n  exp\n  dup2\n  sload\n  dup2\n  0xffffffffffffffffffffffffffffffffffffffff\n  mul\n  not\n  and\n  swap1\n  dup4\n  0xffffffffffffffffffffffffffffffffffffffff\n  and\n  mul\n  or\n  swap1\n  sstore\n  pop\n    /* \"@openzeppelin/contracts/access/Ownable.sol\":2441:2449  newOwner */\n  dup2\n    /* \"@openzeppelin/contracts/access/Ownable.sol\":2410:2450  OwnershipTransferred(oldOwner, newOwner) */\n  0xffffffffffffffffffffffffffffffffffffffff\n  and\n    /* \"@openzeppelin/contracts/access/Ownable.sol\":2431:2439  oldOwner */\n  dup2\n    /* \"@openzeppelin/contracts/access/Ownable.sol\":2410:2450  OwnershipTransferred(oldOwner, newOwner) */\n  0xffffffffffffffffffffffffffffffffffffffff\n  and\n  0x8be0079c531659141344cd1fd0a4f28419497f9722a3daafe3b4186f6b6457e0\n  mload(0x40)\n  mload(0x40)\n  dup1\n  swap2\n  sub\n  swap1\n  log3\n    /* \"@openzeppelin/contracts/access/Ownable.sol\":2333:2457  {... */\n  pop\n    /* \"@openzeppelin/contracts/access/Ownable.sol\":2270:2457  function _transferOwnership(address newOwner) internal virtual {... */\n  pop\n  jump\t// out\n    /* \"contracts/Staking.sol\":1733:2056  function Init() internal {\r... */\ntag_13:\n    /* \"contracts/Staking.sol\":1793:1796  200 */\n  0xc8\n    /* \"contracts/Staking.sol\":1779:1790  _rewardRate */\n  0x03\n    /* \"contracts/Staking.sol\":1779:1796  _rewardRate = 200 */\n  dup2\n  swap1\n  sstore\n  pop\n    /* \"contracts/Staking.sol\":1838:1842  1500 */\n  0x05dc\n    /* \"contracts/Staking.sol\":1818:1835  _unstakingFeeRate */\n  0x01\n    /* \"contracts/Staking.sol\":1818:1842  _unstakingFeeRate = 1500 */\n  dup2\n  swap1\n  sstore\n  pop\n    /* \"contracts/Staking.sol\":1870:1873  100 */\n  0x64\n    /* \"contracts/Staking.sol\":1853:1867  _rewardFeeRate */\n  0x04\n    /* \"contracts/Staking.sol\":1853:1873  _rewardFeeRate = 100 */\n  dup2\n  swap1\n  sstore\n  pop\n    /* \"contracts/Staking.sol\":1899:1905  7 days */\n  0x093a80\n    /* \"contracts/Staking.sol\":1884:1896  _eventPeriod */\n  0x02\n    /* \"contracts/Staking.sol\":1884:1905  _eventPeriod = 7 days */\n  dup2\n  swap1\n  sstore\n  pop\n    /* \"contracts/Staking.sol\":1932:1939  90 days */\n  0x76a700\n    /* \"contracts/Staking.sol\":1916:1929  _lockupPeriod */\n  0x05\n    /* \"contracts/Staking.sol\":1916:1939  _lockupPeriod = 90 days */\n  dup2\n  swap1\n  sstore\n  pop\n    /* \"contracts/Staking.sol\":1970:1974  1e24 */\n  0xd3c21bcecceda1000000\n    /* \"contracts/Staking.sol\":1950:1967  _minStakeAmount_c */\n  0x08\n    /* \"contracts/Staking.sol\":1950:1974  _minStakeAmount_c = 1e24 */\n  dup2\n  swap1\n  sstore\n  pop\n    /* \"contracts/Staking.sol\":2005:2011  3*1e24 */\n  0x027b46536c66c8e3000000\n    /* \"contracts/Staking.sol\":1985:2002  _minStakeAmount_s */\n  0x07\n    /* \"contracts/Staking.sol\":1985:2011  _minStakeAmount_s = 3*1e24 */\n  dup2\n  swap1\n  sstore\n  pop\n    /* \"contracts/Staking.sol\":2042:2048  7*1e24 */\n  0x05ca4ec2a79a7f67000000\n    /* \"contracts/Staking.sol\":2022:2039  _minStakeAmount_g */\n  0x06\n    /* \"contracts/Staking.sol\":2022:2048  _minStakeAmount_g = 7*1e24 */\n  dup2\n  swap1\n  sstore\n  pop\n    /* \"contracts/Staking.sol\":1733:2056  function Init() internal {\r... */\n  jump\t// out\n    /* \"#utility.yul\":7:150   */\ntag_19:\n    /* \"#utility.yul\":64:69   */\n  0x00\n    /* \"#utility.yul\":95:101   */\n  dup2\n    /* \"#utility.yul\":89:102   */\n  mload\n    /* \"#utility.yul\":80:102   */\n  swap1\n  pop\n    /* \"#utility.yul\":111:144   */\n  tag_21\n    /* \"#utility.yul\":138:143   */\n  dup2\n    /* \"#utility.yul\":111:144   */\n  tag_22\n  jump\t// in\ntag_21:\n    /* \"#utility.yul\":7:150   */\n  swap3\n  swap2\n  pop\n  pop\n  jump\t// out\n    /* \"#utility.yul\":156:507   */\ntag_3:\n    /* \"#utility.yul\":226:232   */\n  0x00\n    /* \"#utility.yul\":275:277   */\n  0x20\n    /* \"#utility.yul\":263:272   */\n  dup3\n    /* \"#utility.yul\":254:261   */\n  dup5\n    /* \"#utility.yul\":250:273   */\n  sub\n    /* \"#utility.yul\":246:278   */\n  slt\n    /* \"#utility.yul\":243:362   */\n  iszero\n  tag_24\n  jumpi\n    /* \"#utility.yul\":281:360   */\n  tag_25\n  tag_26\n  jump\t// in\ntag_25:\n    /* \"#utility.yul\":243:362   */\ntag_24:\n    /* \"#utility.yul\":401:402   */\n  0x00\n    /* \"#utility.yul\":426:490   */\n  tag_27\n    /* \"#utility.yul\":482:489   */\n  dup5\n    /* \"#utility.yul\":473:479   */\n  dup3\n    /* \"#utility.yul\":462:471   */\n  dup6\n    /* \"#utility.yul\":458:480   */\n  add\n    /* \"#utility.yul\":426:490   */\n  tag_19\n  jump\t// in\ntag_27:\n    /* \"#utility.yul\":416:490   */\n  swap2\n  pop\n    /* \"#utility.yul\":372:500   */\n  pop\n    /* \"#utility.yul\":156:507   */\n  swap3\n  swap2\n  pop\n  pop\n  jump\t// out\n    /* \"#utility.yul\":594:690   */\ntag_30:\n    /* \"#utility.yul\":631:638   */\n  0x00\n    /* \"#utility.yul\":660:684   */\n  tag_32\n    /* \"#utility.yul\":678:683   */\n  dup3\n    /* \"#utility.yul\":660:684   */\n  tag_33\n  jump\t// in\ntag_32:\n    /* \"#utility.yul\":649:684   */\n  swap1\n  pop\n    /* \"#utility.yul\":594:690   */\n  swap2\n  swap1\n  pop\n  jump\t// out\n    /* \"#utility.yul\":696:822   */\ntag_33:\n    /* \"#utility.yul\":733:740   */\n  0x00\n    /* \"#utility.yul\":773:815   */\n  0xffffffffffffffffffffffffffffffffffffffff\n    /* \"#utility.yul\":766:771   */\n  dup3\n    /* \"#utility.yul\":762:816   */\n  and\n    /* \"#utility.yul\":751:816   */\n  swap1\n  pop\n    /* \"#utility.yul\":696:822   */\n  swap2\n  swap1\n  pop\n  jump\t// out\n    /* \"#utility.yul\":951:1068   */\ntag_26:\n    /* \"#utility.yul\":1060:1061   */\n  0x00\n    /* \"#utility.yul\":1057:1058   */\n  dup1\n    /* \"#utility.yul\":1050:1062   */\n  revert\n    /* \"#utility.yul\":1074:1196   */\ntag_22:\n    /* \"#utility.yul\":1147:1171   */\n  tag_39\n    /* \"#utility.yul\":1165:1170   */\n  dup2\n    /* \"#utility.yul\":1147:1171   */\n  tag_30\n  jump\t// in\ntag_39:\n    /* \"#utility.yul\":1140:1145   */\n  dup2\n    /* \"#utility.yul\":1137:1172   */\n  eq\n    /* \"#utility.yul\":1127:1190   */\n  tag_40\n  jumpi\n    /* \"#utility.yul\":1186:1187   */\n  0x00\n    /* \"#utility.yul\":1183:1184   */\n  dup1\n    /* \"#utility.yul\":1176:1188   */\n  revert\n    /* \"#utility.yul\":1127:1190   */\ntag_40:\n    /* \"#utility.yul\":1074:1196   */\n  pop\n  jump\t// out\n    /* \"contracts/Staking.sol\":260:8588  contract StakingPlatform is Ownable {\r... */\ntag_14:\n  dataSize(sub_0)\n  dup1\n  dataOffset(sub_0)\n  0x00\n  codecopy\n  0x00\n  return\nstop\n\nsub_0: assembly {\n        /* \"contracts/Staking.sol\":260:8588  contract StakingPlatform is Ownable {\r... */\n      mstore(0x40, 0x80)\n      callvalue\n      dup1\n      iszero\n      tag_1\n      jumpi\n      0x00\n      dup1\n      revert\n    tag_1:\n      pop\n      jumpi(tag_2, lt(calldatasize, 0x04))\n      shr(0xe0, calldataload(0x00))\n      dup1\n      0x7e1a3786\n      gt\n      tag_25\n      jumpi\n      dup1\n      0xa694fc3a\n      gt\n      tag_26\n      jumpi\n      dup1\n      0xa694fc3a\n      eq\n      tag_19\n      jumpi\n      dup1\n      0xaedf562b\n      eq\n      tag_20\n      jumpi\n      dup1\n      0xf2fde38b\n      eq\n      tag_21\n      jumpi\n      dup1\n      0xf9931855\n      eq\n      tag_22\n      jumpi\n      dup1\n      0xfc0c546a\n      eq\n      tag_23\n      jumpi\n      dup1\n      0xfe600f84\n      eq\n      tag_24\n      jumpi\n      jump(tag_2)\n    tag_26:\n      dup1\n      0x7e1a3786\n      eq\n      tag_14\n      jumpi\n      dup1\n      0x817b1cd2\n      eq\n      tag_15\n      jumpi\n      dup1\n      0x8da5cb5b\n      eq\n      tag_16\n      jumpi\n      dup1\n      0x91e07e7a\n      eq\n      tag_17\n      jumpi\n      dup1\n      0x9e447fc6\n      eq\n      tag_18\n      jumpi\n      jump(tag_2)\n    tag_25:\n      dup1\n      0x4b77dd9e\n      gt\n      tag_27\n      jumpi\n      dup1\n      0x4b77dd9e\n      eq\n      tag_8\n      jumpi\n      dup1\n      0x5715ec11\n      eq\n      tag_9\n      jumpi\n      dup1\n      0x5d2ec65d\n      eq\n      tag_10\n      jumpi\n      dup1\n      0x645a8a56\n      eq\n      tag_11\n      jumpi\n      dup1\n      0x692642e7\n      eq\n      tag_12\n      jumpi\n      dup1\n      0x715018a6\n      eq\n      tag_13\n      jumpi\n      jump(tag_2)\n    tag_27:\n      dup1\n      0x0917e776\n      eq\n      tag_3\n      jumpi\n      dup1\n      0x2e1a7d4d\n      eq\n      tag_4\n      jumpi\n      dup1\n      0x4641257d\n      eq\n      tag_5\n      jumpi\n      dup1\n      0x4a4fbeec\n      eq\n      tag_6\n      jumpi\n      dup1\n      0x4b62b70b\n      eq\n      tag_7\n      jumpi\n    tag_2:\n      0x00\n      dup1\n      revert\n        /* \"contracts/Staking.sol\":4279:4374  function getTotalStaked() public view returns (uint256) {\r... */\n    tag_3:\n      tag_28\n      tag_29\n      jump\t// in\n    tag_28:\n      mload(0x40)\n      tag_30\n      swap2\n      swap1\n      tag_31\n      jump\t// in\n    tag_30:\n      mload(0x40)\n      dup1\n      swap2\n      sub\n      swap1\n      return\n        /* \"contracts/Staking.sol\":5613:6793  function withdraw(uint256 amount) external{\r... */\n    tag_4:\n      tag_32\n      0x04\n      dup1\n      calldatasize\n      sub\n      dup2\n      add\n      swap1\n      tag_33\n      swap2\n      swap1\n      tag_34\n      jump\t// in\n    tag_33:\n      tag_35\n      jump\t// in\n    tag_32:\n      stop\n        /* \"contracts/Staking.sol\":8003:8585  function harvest() public{\r... */\n    tag_5:\n      tag_36\n      tag_37\n      jump\t// in\n    tag_36:\n      stop\n        /* \"contracts/Staking.sol\":4767:5169  function isLocked(address _address) public view returns (uint256) {\r... */\n    tag_6:\n      tag_38\n      0x04\n      dup1\n      calldatasize\n      sub\n      dup2\n      add\n      swap1\n      tag_39\n      swap2\n      swap1\n      tag_40\n      jump\t// in\n    tag_39:\n      tag_41\n      jump\t// in\n    tag_38:\n      mload(0x40)\n      tag_42\n      swap2\n      swap1\n      tag_31\n      jump\t// in\n    tag_42:\n      mload(0x40)\n      dup1\n      swap2\n      sub\n      swap1\n      return\n        /* \"contracts/Staking.sol\":7578:7740  function setLockupTime(uint256 lockupTime) external onlyOwner {\r... */\n    tag_7:\n      tag_43\n      0x04\n      dup1\n      calldatasize\n      sub\n      dup2\n      add\n      swap1\n      tag_44\n      swap2\n      swap1\n      tag_34\n      jump\t// in\n    tag_44:\n      tag_45\n      jump\t// in\n    tag_43:\n      stop\n        /* \"contracts/Staking.sol\":2742:3621  function startStaking(uint256 _amount, uint256 _mode) external {\r... */\n    tag_8:\n      tag_46\n      0x04\n      dup1\n      calldatasize\n      sub\n      dup2\n      add\n      swap1\n      tag_47\n      swap2\n      swap1\n      tag_48\n      jump\t// in\n    tag_47:\n      tag_49\n      jump\t// in\n    tag_46:\n      stop\n        /* \"contracts/Staking.sol\":4382:4485  function getNumberofStakers() public view returns (uint256) {\r... */\n    tag_9:\n      tag_50\n      tag_51\n      jump\t// in\n    tag_50:\n      mload(0x40)\n      tag_52\n      swap2\n      swap1\n      tag_31\n      jump\t// in\n    tag_52:\n      mload(0x40)\n      dup1\n      swap2\n      sub\n      swap1\n      return\n        /* \"contracts/Staking.sol\":7803:7962  function rewardToHarvest() public view returns (uint256){\r... */\n    tag_10:\n      tag_53\n      tag_54\n      jump\t// in\n    tag_53:\n      mload(0x40)\n      tag_55\n      swap2\n      swap1\n      tag_31\n      jump\t// in\n    tag_55:\n      mload(0x40)\n      dup1\n      swap2\n      sub\n      swap1\n      return\n        /* \"contracts/Staking.sol\":5329:5464  function rewardAmount(address _address) public view returns (uint256) {\r... */\n    tag_11:\n      tag_56\n      0x04\n      dup1\n      calldatasize\n      sub\n      dup2\n      add\n      swap1\n      tag_57\n      swap2\n      swap1\n      tag_40\n      jump\t// in\n    tag_57:\n      tag_58\n      jump\t// in\n    tag_56:\n      mload(0x40)\n      tag_59\n      swap2\n      swap1\n      tag_31\n      jump\t// in\n    tag_59:\n      mload(0x40)\n      dup1\n      swap2\n      sub\n      swap1\n      return\n        /* \"contracts/Staking.sol\":7040:7288  function setEventPeriod(uint256 __eventPeriod) external onlyOwner {\r... */\n    tag_12:\n      tag_60\n      0x04\n      dup1\n      calldatasize\n      sub\n      dup2\n      add\n      swap1\n      tag_61\n      swap2\n      swap1\n      tag_34\n      jump\t// in\n    tag_61:\n      tag_62\n      jump\t// in\n    tag_60:\n      stop\n        /* \"@openzeppelin/contracts/access/Ownable.sol\":1668:1769  function renounceOwnership() public virtual onlyOwner {... */\n    tag_13:\n      tag_63\n      tag_64\n      jump\t// in\n    tag_63:\n      stop\n        /* \"contracts/Staking.sol\":5472:5566  function getRewardRate() public view returns (uint256) {\r... */\n    tag_14:\n      tag_65\n      tag_66\n      jump\t// in\n    tag_65:\n      mload(0x40)\n      tag_67\n      swap2\n      swap1\n      tag_31\n      jump\t// in\n    tag_67:\n      mload(0x40)\n      dup1\n      swap2\n      sub\n      swap1\n      return\n        /* \"contracts/Staking.sol\":1169:1195  uint256 public totalStaked */\n    tag_15:\n      tag_68\n      tag_69\n      jump\t// in\n    tag_68:\n      mload(0x40)\n      tag_70\n      swap2\n      swap1\n      tag_31\n      jump\t// in\n    tag_70:\n      mload(0x40)\n      dup1\n      swap2\n      sub\n      swap1\n      return\n        /* \"@openzeppelin/contracts/access/Ownable.sol\":1036:1121  function owner() public view virtual returns (address) {... */\n    tag_16:\n      tag_71\n      tag_72\n      jump\t// in\n    tag_71:\n      mload(0x40)\n      tag_73\n      swap2\n      swap1\n      tag_74\n      jump\t// in\n    tag_73:\n      mload(0x40)\n      dup1\n      swap2\n      sub\n      swap1\n      return\n        /* \"contracts/Staking.sol\":7296:7570  function setUnstakingFeeRate(uint256 __unstakingFeeRate) external onlyOwner {\r... */\n    tag_17:\n      tag_75\n      0x04\n      dup1\n      calldatasize\n      sub\n      dup2\n      add\n      swap1\n      tag_76\n      swap2\n      swap1\n      tag_34\n      jump\t// in\n    tag_76:\n      tag_77\n      jump\t// in\n    tag_75:\n      stop\n        /* \"contracts/Staking.sol\":6805:7032  function setRewardRate(uint256 __rewardRate) external onlyOwner {\r... */\n    tag_18:\n      tag_78\n      0x04\n      dup1\n      calldatasize\n      sub\n      dup2\n      add\n      swap1\n      tag_79\n      swap2\n      swap1\n      tag_34\n      jump\t// in\n    tag_79:\n      tag_80\n      jump\t// in\n    tag_78:\n      stop\n        /* \"contracts/Staking.sol\":3689:4271  function stake(uint256 _amount) public{\r... */\n    tag_19:\n      tag_81\n      0x04\n      dup1\n      calldatasize\n      sub\n      dup2\n      add\n      swap1\n      tag_82\n      swap2\n      swap1\n      tag_34\n      jump\t// in\n    tag_82:\n      tag_83\n      jump\t// in\n    tag_81:\n      stop\n        /* \"contracts/Staking.sol\":4493:4627  function getStakerMode(address _address) public view returns (uint256) {\r... */\n    tag_20:\n      tag_84\n      0x04\n      dup1\n      calldatasize\n      sub\n      dup2\n      add\n      swap1\n      tag_85\n      swap2\n      swap1\n      tag_40\n      jump\t// in\n    tag_85:\n      tag_86\n      jump\t// in\n    tag_84:\n      mload(0x40)\n      tag_87\n      swap2\n      swap1\n      tag_31\n      jump\t// in\n    tag_87:\n      mload(0x40)\n      dup1\n      swap2\n      sub\n      swap1\n      return\n        /* \"@openzeppelin/contracts/access/Ownable.sol\":1918:2116  function transferOwnership(address newOwner) public virtual onlyOwner {... */\n    tag_21:\n      tag_88\n      0x04\n      dup1\n      calldatasize\n      sub\n      dup2\n      add\n      swap1\n      tag_89\n      swap2\n      swap1\n      tag_40\n      jump\t// in\n    tag_89:\n      tag_90\n      jump\t// in\n    tag_88:\n      stop\n        /* \"contracts/Staking.sol\":5181:5317  function stakedAmount(address _address) public view returns (uint256) {\r... */\n    tag_22:\n      tag_91\n      0x04\n      dup1\n      calldatasize\n      sub\n      dup2\n      add\n      swap1\n      tag_92\n      swap2\n      swap1\n      tag_40\n      jump\t// in\n    tag_92:\n      tag_93\n      jump\t// in\n    tag_91:\n      mload(0x40)\n      tag_94\n      swap2\n      swap1\n      tag_31\n      jump\t// in\n    tag_94:\n      mload(0x40)\n      dup1\n      swap2\n      sub\n      swap1\n      return\n        /* \"contracts/Staking.sol\":1202:1221  IBEP20 public token */\n    tag_23:\n      tag_95\n      tag_96\n      jump\t// in\n    tag_95:\n      mload(0x40)\n      tag_97\n      swap2\n      swap1\n      tag_98\n      jump\t// in\n    tag_97:\n      mload(0x40)\n      dup1\n      swap2\n      sub\n      swap1\n      return\n        /* \"contracts/Staking.sol\":4635:4759  function isStartStaking(address _address) public view returns (uint256) {\r... */\n    tag_24:\n      tag_99\n      0x04\n      dup1\n      calldatasize\n      sub\n      dup2\n      add\n      swap1\n      tag_100\n      swap2\n      swap1\n      tag_40\n      jump\t// in\n    tag_100:\n      tag_101\n      jump\t// in\n    tag_99:\n      mload(0x40)\n      tag_102\n      swap2\n      swap1\n      tag_31\n      jump\t// in\n    tag_102:\n      mload(0x40)\n      dup1\n      swap2\n      sub\n      swap1\n      return\n        /* \"contracts/Staking.sol\":4279:4374  function getTotalStaked() public view returns (uint256) {\r... */\n    tag_29:\n        /* \"contracts/Staking.sol\":4326:4333  uint256 */\n      0x00\n        /* \"contracts/Staking.sol\":4355:4366  totalStaked */\n      sload(0x0b)\n        /* \"contracts/Staking.sol\":4348:4366  return totalStaked */\n      swap1\n      pop\n        /* \"contracts/Staking.sol\":4279:4374  function getTotalStaked() public view returns (uint256) {\r... */\n      swap1\n      jump\t// out\n        /* \"contracts/Staking.sol\":5613:6793  function withdraw(uint256 amount) external{\r... */\n    tag_35:\n        /* \"contracts/Staking.sol\":5676:5697  Staker storage staker */\n      0x00\n        /* \"contracts/Staking.sol\":5700:5707  _staker */\n      0x0a\n        /* \"contracts/Staking.sol\":5700:5719  _staker[msg.sender] */\n      0x00\n        /* \"contracts/Staking.sol\":5708:5718  msg.sender */\n      caller\n        /* \"contracts/Staking.sol\":5700:5719  _staker[msg.sender] */\n      0xffffffffffffffffffffffffffffffffffffffff\n      and\n      0xffffffffffffffffffffffffffffffffffffffff\n      and\n      dup2\n      mstore\n      0x20\n      add\n      swap1\n      dup2\n      mstore\n      0x20\n      add\n      0x00\n      keccak256\n        /* \"contracts/Staking.sol\":5676:5719  Staker storage staker = _staker[msg.sender] */\n      swap1\n      pop\n        /* \"contracts/Staking.sol\":5753:5754  0 */\n      0x00\n        /* \"contracts/Staking.sol\":5744:5750  amount */\n      dup3\n        /* \"contracts/Staking.sol\":5744:5754  amount > 0 */\n      gt\n        /* \"contracts/Staking.sol\":5736:5790  require(amount > 0, \"Amount should be greater than 0\") */\n      tag_105\n      jumpi\n      mload(0x40)\n      0x08c379a000000000000000000000000000000000000000000000000000000000\n      dup2\n      mstore\n      0x04\n      add\n      tag_106\n      swap1\n      tag_107\n      jump\t// in\n    tag_106:\n      mload(0x40)\n      dup1\n      swap2\n      sub\n      swap1\n      revert\n    tag_105:\n        /* \"contracts/Staking.sol\":5819:5825  staker */\n      dup1\n        /* \"contracts/Staking.sol\":5819:5838  staker.stakedAmount */\n      0x01\n      add\n      sload\n        /* \"contracts/Staking.sol\":5809:5815  amount */\n      dup3\n        /* \"contracts/Staking.sol\":5809:5838  amount <= staker.stakedAmount */\n      gt\n      iszero\n        /* \"contracts/Staking.sol\":5801:5857  require(amount <= staker.stakedAmount, \"Invalid amount\") */\n      tag_108\n      jumpi\n      mload(0x40)\n      0x08c379a000000000000000000000000000000000000000000000000000000000\n      dup2\n      mstore\n      0x04\n      add\n      tag_109\n      swap1\n      tag_110\n      jump\t// in\n    tag_109:\n      mload(0x40)\n      dup1\n      swap2\n      sub\n      swap1\n      revert\n    tag_108:\n        /* \"contracts/Staking.sol\":5870:5884  updateReward() */\n      tag_111\n        /* \"contracts/Staking.sol\":5870:5882  updateReward */\n      tag_112\n        /* \"contracts/Staking.sol\":5870:5884  updateReward() */\n      jump\t// in\n    tag_111:\n        /* \"contracts/Staking.sol\":5895:5922  uint256 amountTobeWithdrawn */\n      0x00\n        /* \"contracts/Staking.sol\":5934:5939  token */\n      0x0c\n      0x00\n      swap1\n      sload\n      swap1\n      0x0100\n      exp\n      swap1\n      div\n      0xffffffffffffffffffffffffffffffffffffffff\n      and\n        /* \"contracts/Staking.sol\":5934:5949  token.balanceOf */\n      0xffffffffffffffffffffffffffffffffffffffff\n      and\n      0x70a08231\n        /* \"contracts/Staking.sol\":5958:5962  this */\n      address\n        /* \"contracts/Staking.sol\":5934:5964  token.balanceOf(address(this)) */\n      mload(0x40)\n      dup3\n      0xffffffff\n      and\n      0xe0\n      shl\n      dup2\n      mstore\n      0x04\n      add\n      tag_113\n      swap2\n      swap1\n      tag_74\n      jump\t// in\n    tag_113:\n      0x20\n      mload(0x40)\n      dup1\n      dup4\n      sub\n      dup2\n      dup7\n      dup1\n      extcodesize\n      iszero\n      dup1\n      iszero\n      tag_114\n      jumpi\n      0x00\n      dup1\n      revert\n    tag_114:\n      pop\n      gas\n      staticcall\n      iszero\n      dup1\n      iszero\n      tag_116\n      jumpi\n      returndatasize\n      0x00\n      dup1\n      returndatacopy\n      revert(0x00, returndatasize)\n    tag_116:\n      pop\n      pop\n      pop\n      pop\n      mload(0x40)\n      returndatasize\n      not(0x1f)\n      0x1f\n      dup3\n      add\n      and\n      dup3\n      add\n      dup1\n      0x40\n      mstore\n      pop\n      dup2\n      add\n      swap1\n      tag_117\n      swap2\n      swap1\n      tag_118\n      jump\t// in\n    tag_117:\n        /* \"contracts/Staking.sol\":5925:5931  amount */\n      dup4\n        /* \"contracts/Staking.sol\":5925:5964  amount < token.balanceOf(address(this)) */\n      lt\n        /* \"contracts/Staking.sol\":5925:6006  amount < token.balanceOf(address(this)) ? amount : token.balanceOf(address(this)) */\n      tag_119\n      jumpi\n        /* \"contracts/Staking.sol\":5976:5981  token */\n      0x0c\n      0x00\n      swap1\n      sload\n      swap1\n      0x0100\n      exp\n      swap1\n      div\n      0xffffffffffffffffffffffffffffffffffffffff\n      and\n        /* \"contracts/Staking.sol\":5976:5991  token.balanceOf */\n      0xffffffffffffffffffffffffffffffffffffffff\n      and\n      0x70a08231\n        /* \"contracts/Staking.sol\":6000:6004  this */\n      address\n        /* \"contracts/Staking.sol\":5976:6006  token.balanceOf(address(this)) */\n      mload(0x40)\n      dup3\n      0xffffffff\n      and\n      0xe0\n      shl\n      dup2\n      mstore\n      0x04\n      add\n      tag_120\n      swap2\n      swap1\n      tag_74\n      jump\t// in\n    tag_120:\n      0x20\n      mload(0x40)\n      dup1\n      dup4\n      sub\n      dup2\n      dup7\n      dup1\n      extcodesize\n      iszero\n      dup1\n      iszero\n      tag_121\n      jumpi\n      0x00\n      dup1\n      revert\n    tag_121:\n      pop\n      gas\n      staticcall\n      iszero\n      dup1\n      iszero\n      tag_123\n      jumpi\n      returndatasize\n      0x00\n      dup1\n      returndatacopy\n      revert(0x00, returndatasize)\n    tag_123:\n      pop\n      pop\n      pop\n      pop\n      mload(0x40)\n      returndatasize\n      not(0x1f)\n      0x1f\n      dup3\n      add\n      and\n      dup3\n      add\n      dup1\n      0x40\n      mstore\n      pop\n      dup2\n      add\n      swap1\n      tag_124\n      swap2\n      swap1\n      tag_118\n      jump\t// in\n    tag_124:\n        /* \"contracts/Staking.sol\":5925:6006  amount < token.balanceOf(address(this)) ? amount : token.balanceOf(address(this)) */\n      jump(tag_125)\n    tag_119:\n        /* \"contracts/Staking.sol\":5967:5973  amount */\n      dup3\n        /* \"contracts/Staking.sol\":5925:6006  amount < token.balanceOf(address(this)) ? amount : token.balanceOf(address(this)) */\n    tag_125:\n        /* \"contracts/Staking.sol\":5895:6006  uint256 amountTobeWithdrawn = amount < token.balanceOf(address(this)) ? amount : token.balanceOf(address(this)) */\n      swap1\n      pop\n        /* \"contracts/Staking.sol\":6017:6031  uint256 during */\n      0x00\n        /* \"contracts/Staking.sol\":6034:6088  block.timestamp.sub(staker.stakeStartTime).div(1 days) */\n      tag_126\n        /* \"contracts/Staking.sol\":6081:6087  1 days */\n      0x015180\n        /* \"contracts/Staking.sol\":6034:6076  block.timestamp.sub(staker.stakeStartTime) */\n      tag_127\n        /* \"contracts/Staking.sol\":6054:6060  staker */\n      dup6\n        /* \"contracts/Staking.sol\":6054:6075  staker.stakeStartTime */\n      0x03\n      add\n      sload\n        /* \"contracts/Staking.sol\":6034:6049  block.timestamp */\n      timestamp\n        /* \"contracts/Staking.sol\":6034:6053  block.timestamp.sub */\n      tag_128\n      swap1\n        /* \"contracts/Staking.sol\":6034:6076  block.timestamp.sub(staker.stakeStartTime) */\n      swap2\n      swap1\n      0xffffffff\n      and\n      jump\t// in\n    tag_127:\n        /* \"contracts/Staking.sol\":6034:6080  block.timestamp.sub(staker.stakeStartTime).div */\n      tag_129\n      swap1\n        /* \"contracts/Staking.sol\":6034:6088  block.timestamp.sub(staker.stakeStartTime).div(1 days) */\n      swap2\n      swap1\n      0xffffffff\n      and\n      jump\t// in\n    tag_126:\n        /* \"contracts/Staking.sol\":6017:6088  uint256 during = block.timestamp.sub(staker.stakeStartTime).div(1 days) */\n      swap1\n      pop\n        /* \"contracts/Staking.sol\":6099:6110  uint256 fee */\n      0x00\n        /* \"contracts/Staking.sol\":6113:6116  100 */\n      0x64\n        /* \"contracts/Staking.sol\":6099:6116  uint256 fee = 100 */\n      swap1\n      pop\n        /* \"contracts/Staking.sol\":6127:6148  bool isLockupTimeOver */\n      0x00\n        /* \"contracts/Staking.sol\":6166:6167  0 */\n      dup1\n        /* \"contracts/Staking.sol\":6151:6157  staker */\n      dup6\n        /* \"contracts/Staking.sol\":6151:6162  staker.mode */\n      0x02\n      add\n      sload\n        /* \"contracts/Staking.sol\":6151:6167  staker.mode != 0 */\n      eq\n      iszero\n        /* \"contracts/Staking.sol\":6151:6285  staker.mode != 0 ? during % _eventPeriod == 0 && during > 0 :\r... */\n      tag_130\n      jumpi\n        /* \"contracts/Staking.sol\":6245:6285  staker.stakeStartTime.add(_lockupPeriod) */\n      tag_131\n        /* \"contracts/Staking.sol\":6271:6284  _lockupPeriod */\n      sload(0x05)\n        /* \"contracts/Staking.sol\":6245:6251  staker */\n      dup7\n        /* \"contracts/Staking.sol\":6245:6266  staker.stakeStartTime */\n      0x03\n      add\n      sload\n        /* \"contracts/Staking.sol\":6245:6270  staker.stakeStartTime.add */\n      tag_132\n      swap1\n        /* \"contracts/Staking.sol\":6245:6285  staker.stakeStartTime.add(_lockupPeriod) */\n      swap2\n      swap1\n      0xffffffff\n      and\n      jump\t// in\n    tag_131:\n        /* \"contracts/Staking.sol\":6226:6241  block.timestamp */\n      timestamp\n        /* \"contracts/Staking.sol\":6226:6285  block.timestamp >= staker.stakeStartTime.add(_lockupPeriod) */\n      lt\n      iszero\n        /* \"contracts/Staking.sol\":6151:6285  staker.mode != 0 ? during % _eventPeriod == 0 && during > 0 :\r... */\n      jump(tag_133)\n    tag_130:\n        /* \"contracts/Staking.sol\":6195:6196  0 */\n      0x00\n        /* \"contracts/Staking.sol\":6179:6191  _eventPeriod */\n      sload(0x02)\n        /* \"contracts/Staking.sol\":6170:6176  during */\n      dup5\n        /* \"contracts/Staking.sol\":6170:6191  during % _eventPeriod */\n      tag_134\n      swap2\n      swap1\n      tag_135\n      jump\t// in\n    tag_134:\n        /* \"contracts/Staking.sol\":6170:6196  during % _eventPeriod == 0 */\n      eq\n        /* \"contracts/Staking.sol\":6170:6210  during % _eventPeriod == 0 && during > 0 */\n      dup1\n      iszero\n      tag_136\n      jumpi\n      pop\n        /* \"contracts/Staking.sol\":6209:6210  0 */\n      0x00\n        /* \"contracts/Staking.sol\":6200:6206  during */\n      dup4\n        /* \"contracts/Staking.sol\":6200:6210  during > 0 */\n      gt\n        /* \"contracts/Staking.sol\":6170:6210  during % _eventPeriod == 0 && during > 0 */\n    tag_136:\n        /* \"contracts/Staking.sol\":6151:6285  staker.mode != 0 ? during % _eventPeriod == 0 && during > 0 :\r... */\n    tag_133:\n        /* \"contracts/Staking.sol\":6127:6285  bool isLockupTimeOver = staker.mode != 0 ? during % _eventPeriod == 0 && during > 0 :\r... */\n      swap1\n      pop\n        /* \"contracts/Staking.sol\":6301:6317  isLockupTimeOver */\n      dup1\n        /* \"contracts/Staking.sol\":6296:6369  if (!isLockupTimeOver) {\r... */\n      tag_137\n      jumpi\n        /* \"contracts/Staking.sol\":6340:6357  _unstakingFeeRate */\n      sload(0x01)\n        /* \"contracts/Staking.sol\":6334:6357  fee = _unstakingFeeRate */\n      swap2\n      pop\n        /* \"contracts/Staking.sol\":6296:6369  if (!isLockupTimeOver) {\r... */\n    tag_137:\n        /* \"contracts/Staking.sol\":6401:6463  amountTobeWithdrawn.sub(amountTobeWithdrawn.mul(fee).div(1e4)) */\n      tag_138\n        /* \"contracts/Staking.sol\":6425:6462  amountTobeWithdrawn.mul(fee).div(1e4) */\n      tag_139\n        /* \"contracts/Staking.sol\":6458:6461  1e4 */\n      0x2710\n        /* \"contracts/Staking.sol\":6425:6453  amountTobeWithdrawn.mul(fee) */\n      tag_140\n        /* \"contracts/Staking.sol\":6449:6452  fee */\n      dup6\n        /* \"contracts/Staking.sol\":6425:6444  amountTobeWithdrawn */\n      dup9\n        /* \"contracts/Staking.sol\":6425:6448  amountTobeWithdrawn.mul */\n      tag_141\n      swap1\n        /* \"contracts/Staking.sol\":6425:6453  amountTobeWithdrawn.mul(fee) */\n      swap2\n      swap1\n      0xffffffff\n      and\n      jump\t// in\n    tag_140:\n        /* \"contracts/Staking.sol\":6425:6457  amountTobeWithdrawn.mul(fee).div */\n      tag_129\n      swap1\n        /* \"contracts/Staking.sol\":6425:6462  amountTobeWithdrawn.mul(fee).div(1e4) */\n      swap2\n      swap1\n      0xffffffff\n      and\n      jump\t// in\n    tag_139:\n        /* \"contracts/Staking.sol\":6401:6420  amountTobeWithdrawn */\n      dup6\n        /* \"contracts/Staking.sol\":6401:6424  amountTobeWithdrawn.sub */\n      tag_128\n      swap1\n        /* \"contracts/Staking.sol\":6401:6463  amountTobeWithdrawn.sub(amountTobeWithdrawn.mul(fee).div(1e4)) */\n      swap2\n      swap1\n      0xffffffff\n      and\n      jump\t// in\n    tag_138:\n        /* \"contracts/Staking.sol\":6379:6463  amountTobeWithdrawn = amountTobeWithdrawn.sub(amountTobeWithdrawn.mul(fee).div(1e4)) */\n      swap4\n      pop\n        /* \"contracts/Staking.sol\":6488:6524  totalStaked.sub(amountTobeWithdrawn) */\n      tag_142\n        /* \"contracts/Staking.sol\":6504:6523  amountTobeWithdrawn */\n      dup5\n        /* \"contracts/Staking.sol\":6488:6499  totalStaked */\n      sload(0x0b)\n        /* \"contracts/Staking.sol\":6488:6503  totalStaked.sub */\n      tag_128\n      swap1\n        /* \"contracts/Staking.sol\":6488:6524  totalStaked.sub(amountTobeWithdrawn) */\n      swap2\n      swap1\n      0xffffffff\n      and\n      jump\t// in\n    tag_142:\n        /* \"contracts/Staking.sol\":6474:6485  totalStaked */\n      0x0b\n        /* \"contracts/Staking.sol\":6474:6524  totalStaked = totalStaked.sub(amountTobeWithdrawn) */\n      dup2\n      swap1\n      sstore\n      pop\n        /* \"contracts/Staking.sol\":6557:6601  staker.stakedAmount.sub(amountTobeWithdrawn) */\n      tag_143\n        /* \"contracts/Staking.sol\":6581:6600  amountTobeWithdrawn */\n      dup5\n        /* \"contracts/Staking.sol\":6557:6563  staker */\n      dup7\n        /* \"contracts/Staking.sol\":6557:6576  staker.stakedAmount */\n      0x01\n      add\n      sload\n        /* \"contracts/Staking.sol\":6557:6580  staker.stakedAmount.sub */\n      tag_128\n      swap1\n        /* \"contracts/Staking.sol\":6557:6601  staker.stakedAmount.sub(amountTobeWithdrawn) */\n      swap2\n      swap1\n      0xffffffff\n      and\n      jump\t// in\n    tag_143:\n        /* \"contracts/Staking.sol\":6535:6541  staker */\n      dup6\n        /* \"contracts/Staking.sol\":6535:6554  staker.stakedAmount */\n      0x01\n      add\n        /* \"contracts/Staking.sol\":6535:6601  staker.stakedAmount = staker.stakedAmount.sub(amountTobeWithdrawn) */\n      dup2\n      swap1\n      sstore\n      pop\n        /* \"contracts/Staking.sol\":6612:6663  token.safeTransfer(msg.sender, amountTobeWithdrawn) */\n      tag_144\n        /* \"contracts/Staking.sol\":6631:6641  msg.sender */\n      caller\n        /* \"contracts/Staking.sol\":6643:6662  amountTobeWithdrawn */\n      dup6\n        /* \"contracts/Staking.sol\":6612:6617  token */\n      0x0c\n      0x00\n      swap1\n      sload\n      swap1\n      0x0100\n      exp\n      swap1\n      div\n      0xffffffffffffffffffffffffffffffffffffffff\n      and\n        /* \"contracts/Staking.sol\":6612:6630  token.safeTransfer */\n      0xffffffffffffffffffffffffffffffffffffffff\n      and\n      tag_145\n      swap1\n        /* \"contracts/Staking.sol\":6612:6663  token.safeTransfer(msg.sender, amountTobeWithdrawn) */\n      swap3\n      swap2\n      swap1\n      0xffffffff\n      and\n      jump\t// in\n    tag_144:\n        /* \"contracts/Staking.sol\":6681:6722  Withdraw(msg.sender, amountTobeWithdrawn) */\n      0x884edad9ce6fa2440d8a54cc123490eb96d2768479d49ff9c7366125a9424364\n        /* \"contracts/Staking.sol\":6690:6700  msg.sender */\n      caller\n        /* \"contracts/Staking.sol\":6702:6721  amountTobeWithdrawn */\n      dup6\n        /* \"contracts/Staking.sol\":6681:6722  Withdraw(msg.sender, amountTobeWithdrawn) */\n      mload(0x40)\n      tag_146\n      swap3\n      swap2\n      swap1\n      tag_147\n      jump\t// in\n    tag_146:\n      mload(0x40)\n      dup1\n      swap2\n      sub\n      swap1\n      log1\n        /* \"contracts/Staking.sol\":5655:6793  {\r... */\n      pop\n      pop\n      pop\n      pop\n      pop\n        /* \"contracts/Staking.sol\":5613:6793  function withdraw(uint256 amount) external{\r... */\n      pop\n      jump\t// out\n        /* \"contracts/Staking.sol\":8003:8585  function harvest() public{\r... */\n    tag_37:\n        /* \"contracts/Staking.sol\":8049:8063  updateReward() */\n      tag_149\n        /* \"contracts/Staking.sol\":8049:8061  updateReward */\n      tag_112\n        /* \"contracts/Staking.sol\":8049:8063  updateReward() */\n      jump\t// in\n    tag_149:\n        /* \"contracts/Staking.sol\":8074:8095  Staker storage staker */\n      0x00\n        /* \"contracts/Staking.sol\":8098:8105  _staker */\n      0x0a\n        /* \"contracts/Staking.sol\":8098:8117  _staker[msg.sender] */\n      0x00\n        /* \"contracts/Staking.sol\":8106:8116  msg.sender */\n      caller\n        /* \"contracts/Staking.sol\":8098:8117  _staker[msg.sender] */\n      0xffffffffffffffffffffffffffffffffffffffff\n      and\n      0xffffffffffffffffffffffffffffffffffffffff\n      and\n      dup2\n      mstore\n      0x20\n      add\n      swap1\n      dup2\n      mstore\n      0x20\n      add\n      0x00\n      keccak256\n        /* \"contracts/Staking.sol\":8074:8117  Staker storage staker = _staker[msg.sender] */\n      swap1\n      pop\n        /* \"contracts/Staking.sol\":8128:8149  uint256 rewardToClaim */\n      0x00\n        /* \"contracts/Staking.sol\":8152:8239  staker.stakerCurrentReward.sub(staker.stakerCurrentReward.mul(_rewardFeeRate).div(1e4)) */\n      tag_150\n        /* \"contracts/Staking.sol\":8183:8238  staker.stakerCurrentReward.mul(_rewardFeeRate).div(1e4) */\n      tag_151\n        /* \"contracts/Staking.sol\":8234:8237  1e4 */\n      0x2710\n        /* \"contracts/Staking.sol\":8183:8229  staker.stakerCurrentReward.mul(_rewardFeeRate) */\n      tag_152\n        /* \"contracts/Staking.sol\":8214:8228  _rewardFeeRate */\n      sload(0x04)\n        /* \"contracts/Staking.sol\":8183:8189  staker */\n      dup7\n        /* \"contracts/Staking.sol\":8183:8209  staker.stakerCurrentReward */\n      0x00\n      add\n      sload\n        /* \"contracts/Staking.sol\":8183:8213  staker.stakerCurrentReward.mul */\n      tag_141\n      swap1\n        /* \"contracts/Staking.sol\":8183:8229  staker.stakerCurrentReward.mul(_rewardFeeRate) */\n      swap2\n      swap1\n      0xffffffff\n      and\n      jump\t// in\n    tag_152:\n        /* \"contracts/Staking.sol\":8183:8233  staker.stakerCurrentReward.mul(_rewardFeeRate).div */\n      tag_129\n      swap1\n        /* \"contracts/Staking.sol\":8183:8238  staker.stakerCurrentReward.mul(_rewardFeeRate).div(1e4) */\n      swap2\n      swap1\n      0xffffffff\n      and\n      jump\t// in\n    tag_151:\n        /* \"contracts/Staking.sol\":8152:8158  staker */\n      dup4\n        /* \"contracts/Staking.sol\":8152:8178  staker.stakerCurrentReward */\n      0x00\n      add\n      sload\n        /* \"contracts/Staking.sol\":8152:8182  staker.stakerCurrentReward.sub */\n      tag_128\n      swap1\n        /* \"contracts/Staking.sol\":8152:8239  staker.stakerCurrentReward.sub(staker.stakerCurrentReward.mul(_rewardFeeRate).div(1e4)) */\n      swap2\n      swap1\n      0xffffffff\n      and\n      jump\t// in\n    tag_150:\n        /* \"contracts/Staking.sol\":8128:8239  uint256 rewardToClaim = staker.stakerCurrentReward.sub(staker.stakerCurrentReward.mul(_rewardFeeRate).div(1e4)) */\n      swap1\n      pop\n        /* \"contracts/Staking.sol\":8284:8285  0 */\n      0x00\n        /* \"contracts/Staking.sol\":8268:8281  rewardToClaim */\n      dup2\n        /* \"contracts/Staking.sol\":8268:8285  rewardToClaim > 0 */\n      gt\n        /* \"contracts/Staking.sol\":8260:8306  require(rewardToClaim > 0, \"Nothing to claim\") */\n      tag_153\n      jumpi\n      mload(0x40)\n      0x08c379a000000000000000000000000000000000000000000000000000000000\n      dup2\n      mstore\n      0x04\n      add\n      tag_154\n      swap1\n      tag_155\n      jump\t// in\n    tag_154:\n      mload(0x40)\n      dup1\n      swap2\n      sub\n      swap1\n      revert\n    tag_153:\n        /* \"contracts/Staking.sol\":8337:8342  token */\n      0x0c\n      0x00\n      swap1\n      sload\n      swap1\n      0x0100\n      exp\n      swap1\n      div\n      0xffffffffffffffffffffffffffffffffffffffff\n      and\n        /* \"contracts/Staking.sol\":8337:8352  token.balanceOf */\n      0xffffffffffffffffffffffffffffffffffffffff\n      and\n      0x70a08231\n        /* \"contracts/Staking.sol\":8361:8365  this */\n      address\n        /* \"contracts/Staking.sol\":8337:8367  token.balanceOf(address(this)) */\n      mload(0x40)\n      dup3\n      0xffffffff\n      and\n      0xe0\n      shl\n      dup2\n      mstore\n      0x04\n      add\n      tag_156\n      swap2\n      swap1\n      tag_74\n      jump\t// in\n    tag_156:\n      0x20\n      mload(0x40)\n      dup1\n      dup4\n      sub\n      dup2\n      dup7\n      dup1\n      extcodesize\n      iszero\n      dup1\n      iszero\n      tag_157\n      jumpi\n      0x00\n      dup1\n      revert\n    tag_157:\n      pop\n      gas\n      staticcall\n      iszero\n      dup1\n      iszero\n      tag_159\n      jumpi\n      returndatasize\n      0x00\n      dup1\n      returndatacopy\n      revert(0x00, returndatasize)\n    tag_159:\n      pop\n      pop\n      pop\n      pop\n      mload(0x40)\n      returndatasize\n      not(0x1f)\n      0x1f\n      dup3\n      add\n      and\n      dup3\n      add\n      dup1\n      0x40\n      mstore\n      pop\n      dup2\n      add\n      swap1\n      tag_160\n      swap2\n      swap1\n      tag_118\n      jump\t// in\n    tag_160:\n        /* \"contracts/Staking.sol\":8321:8334  rewardToClaim */\n      dup2\n        /* \"contracts/Staking.sol\":8321:8367  rewardToClaim > token.balanceOf(address(this)) */\n      gt\n        /* \"contracts/Staking.sol\":8317:8428  if (rewardToClaim > token.balanceOf(address(this)))\r... */\n      iszero\n      tag_161\n      jumpi\n        /* \"contracts/Staking.sol\":8398:8403  token */\n      0x0c\n      0x00\n      swap1\n      sload\n      swap1\n      0x0100\n      exp\n      swap1\n      div\n      0xffffffffffffffffffffffffffffffffffffffff\n      and\n        /* \"contracts/Staking.sol\":8398:8413  token.balanceOf */\n      0xffffffffffffffffffffffffffffffffffffffff\n      and\n      0x70a08231\n        /* \"contracts/Staking.sol\":8422:8426  this */\n      address\n        /* \"contracts/Staking.sol\":8398:8428  token.balanceOf(address(this)) */\n      mload(0x40)\n      dup3\n      0xffffffff\n      and\n      0xe0\n      shl\n      dup2\n      mstore\n      0x04\n      add\n      tag_162\n      swap2\n      swap1\n      tag_74\n      jump\t// in\n    tag_162:\n      0x20\n      mload(0x40)\n      dup1\n      dup4\n      sub\n      dup2\n      dup7\n      dup1\n      extcodesize\n      iszero\n      dup1\n      iszero\n      tag_163\n      jumpi\n      0x00\n      dup1\n      revert\n    tag_163:\n      pop\n      gas\n      staticcall\n      iszero\n      dup1\n      iszero\n      tag_165\n      jumpi\n      returndatasize\n      0x00\n      dup1\n      returndatacopy\n      revert(0x00, returndatasize)\n    tag_165:\n      pop\n      pop\n      pop\n      pop\n      mload(0x40)\n      returndatasize\n      not(0x1f)\n      0x1f\n      dup3\n      add\n      and\n      dup3\n      add\n      dup1\n      0x40\n      mstore\n      pop\n      dup2\n      add\n      swap1\n      tag_166\n      swap2\n      swap1\n      tag_118\n      jump\t// in\n    tag_166:\n        /* \"contracts/Staking.sol\":8382:8428  rewardToClaim = token.balanceOf(address(this)) */\n      swap1\n      pop\n        /* \"contracts/Staking.sol\":8317:8428  if (rewardToClaim > token.balanceOf(address(this)))\r... */\n    tag_161:\n        /* \"contracts/Staking.sol\":8439:8484  token.safeTransfer(msg.sender, rewardToClaim) */\n      tag_167\n        /* \"contracts/Staking.sol\":8458:8468  msg.sender */\n      caller\n        /* \"contracts/Staking.sol\":8470:8483  rewardToClaim */\n      dup3\n        /* \"contracts/Staking.sol\":8439:8444  token */\n      0x0c\n      0x00\n      swap1\n      sload\n      swap1\n      0x0100\n      exp\n      swap1\n      div\n      0xffffffffffffffffffffffffffffffffffffffff\n      and\n        /* \"contracts/Staking.sol\":8439:8457  token.safeTransfer */\n      0xffffffffffffffffffffffffffffffffffffffff\n      and\n      tag_145\n      swap1\n        /* \"contracts/Staking.sol\":8439:8484  token.safeTransfer(msg.sender, rewardToClaim) */\n      swap3\n      swap2\n      swap1\n      0xffffffff\n      and\n      jump\t// in\n    tag_167:\n        /* \"contracts/Staking.sol\":8524:8525  0 */\n      0x00\n        /* \"contracts/Staking.sol\":8495:8501  staker */\n      dup3\n        /* \"contracts/Staking.sol\":8495:8521  staker.stakerCurrentReward */\n      0x00\n      add\n        /* \"contracts/Staking.sol\":8495:8525  staker.stakerCurrentReward = 0 */\n      dup2\n      swap1\n      sstore\n      pop\n        /* \"contracts/Staking.sol\":8543:8577  Harvest(msg.sender, rewardToClaim) */\n      0xc9695243a805adb74c91f28311176c65b417e842d5699893cef56d18bfa48cba\n        /* \"contracts/Staking.sol\":8551:8561  msg.sender */\n      caller\n        /* \"contracts/Staking.sol\":8563:8576  rewardToClaim */\n      dup3\n        /* \"contracts/Staking.sol\":8543:8577  Harvest(msg.sender, rewardToClaim) */\n      mload(0x40)\n      tag_168\n      swap3\n      swap2\n      swap1\n      tag_147\n      jump\t// in\n    tag_168:\n      mload(0x40)\n      dup1\n      swap2\n      sub\n      swap1\n      log1\n        /* \"contracts/Staking.sol\":8028:8585  {\r... */\n      pop\n      pop\n        /* \"contracts/Staking.sol\":8003:8585  function harvest() public{\r... */\n      jump\t// out\n        /* \"contracts/Staking.sol\":4767:5169  function isLocked(address _address) public view returns (uint256) {\r... */\n    tag_41:\n        /* \"contracts/Staking.sol\":4824:4831  uint256 */\n      0x00\n        /* \"contracts/Staking.sol\":4878:4882  0x55 */\n      0x55\n        /* \"contracts/Staking.sol\":4850:4857  _staker */\n      0x0a\n        /* \"contracts/Staking.sol\":4850:4867  _staker[_address] */\n      0x00\n        /* \"contracts/Staking.sol\":4858:4866  _address */\n      dup5\n        /* \"contracts/Staking.sol\":4850:4867  _staker[_address] */\n      0xffffffffffffffffffffffffffffffffffffffff\n      and\n      0xffffffffffffffffffffffffffffffffffffffff\n      and\n      dup2\n      mstore\n      0x20\n      add\n      swap1\n      dup2\n      mstore\n      0x20\n      add\n      0x00\n      keccak256\n        /* \"contracts/Staking.sol\":4850:4874  _staker[_address].staked */\n      0x05\n      add\n      sload\n        /* \"contracts/Staking.sol\":4850:4882  _staker[_address].staked != 0x55 */\n      eq\n        /* \"contracts/Staking.sol\":4846:4905  if (_staker[_address].staked != 0x55)\r... */\n      tag_170\n      jumpi\n        /* \"contracts/Staking.sol\":4904:4905  1 */\n      0x01\n        /* \"contracts/Staking.sol\":4897:4905  return 1 */\n      swap1\n      pop\n      jump(tag_169)\n        /* \"contracts/Staking.sol\":4846:4905  if (_staker[_address].staked != 0x55)\r... */\n    tag_170:\n        /* \"contracts/Staking.sol\":4946:4947  0 */\n      0x00\n        /* \"contracts/Staking.sol\":4920:4927  _staker */\n      0x0a\n        /* \"contracts/Staking.sol\":4920:4937  _staker[_address] */\n      0x00\n        /* \"contracts/Staking.sol\":4928:4936  _address */\n      dup5\n        /* \"contracts/Staking.sol\":4920:4937  _staker[_address] */\n      0xffffffffffffffffffffffffffffffffffffffff\n      and\n      0xffffffffffffffffffffffffffffffffffffffff\n      and\n      dup2\n      mstore\n      0x20\n      add\n      swap1\n      dup2\n      mstore\n      0x20\n      add\n      0x00\n      keccak256\n        /* \"contracts/Staking.sol\":4920:4942  _staker[_address].mode */\n      0x02\n      add\n      sload\n        /* \"contracts/Staking.sol\":4920:4947  _staker[_address].mode != 0 */\n      eq\n        /* \"contracts/Staking.sol\":4916:5161  if (_staker[_address].mode != 0)\r... */\n      tag_171\n      jumpi\n        /* \"contracts/Staking.sol\":5037:5038  0 */\n      0x00\n        /* \"contracts/Staking.sol\":5026:5032  7 days */\n      0x093a80\n        /* \"contracts/Staking.sol\":4969:5022  block.timestamp.sub(_staker[_address].stakeStartTime) */\n      tag_172\n        /* \"contracts/Staking.sol\":4989:4996  _staker */\n      0x0a\n        /* \"contracts/Staking.sol\":4989:5006  _staker[_address] */\n      0x00\n        /* \"contracts/Staking.sol\":4997:5005  _address */\n      dup7\n        /* \"contracts/Staking.sol\":4989:5006  _staker[_address] */\n      0xffffffffffffffffffffffffffffffffffffffff\n      and\n      0xffffffffffffffffffffffffffffffffffffffff\n      and\n      dup2\n      mstore\n      0x20\n      add\n      swap1\n      dup2\n      mstore\n      0x20\n      add\n      0x00\n      keccak256\n        /* \"contracts/Staking.sol\":4989:5021  _staker[_address].stakeStartTime */\n      0x03\n      add\n      sload\n        /* \"contracts/Staking.sol\":4969:4984  block.timestamp */\n      timestamp\n        /* \"contracts/Staking.sol\":4969:4988  block.timestamp.sub */\n      tag_128\n      swap1\n        /* \"contracts/Staking.sol\":4969:5022  block.timestamp.sub(_staker[_address].stakeStartTime) */\n      swap2\n      swap1\n      0xffffffff\n      and\n      jump\t// in\n    tag_172:\n        /* \"contracts/Staking.sol\":4969:5033  block.timestamp.sub(_staker[_address].stakeStartTime) % (7 days) */\n      tag_173\n      swap2\n      swap1\n      tag_135\n      jump\t// in\n    tag_173:\n        /* \"contracts/Staking.sol\":4969:5038  block.timestamp.sub(_staker[_address].stakeStartTime) % (7 days) == 0 */\n      eq\n        /* \"contracts/Staking.sol\":4969:5046  block.timestamp.sub(_staker[_address].stakeStartTime) % (7 days) == 0 ? 0 : 1 */\n      tag_174\n      jumpi\n        /* \"contracts/Staking.sol\":5045:5046  1 */\n      0x01\n        /* \"contracts/Staking.sol\":4969:5046  block.timestamp.sub(_staker[_address].stakeStartTime) % (7 days) == 0 ? 0 : 1 */\n      jump(tag_175)\n    tag_174:\n        /* \"contracts/Staking.sol\":5041:5042  0 */\n      0x00\n        /* \"contracts/Staking.sol\":4969:5046  block.timestamp.sub(_staker[_address].stakeStartTime) % (7 days) == 0 ? 0 : 1 */\n    tag_175:\n        /* \"contracts/Staking.sol\":4962:5046  return block.timestamp.sub(_staker[_address].stakeStartTime) % (7 days) == 0 ? 0 : 1 */\n      0xff\n      and\n      swap1\n      pop\n      jump(tag_169)\n        /* \"contracts/Staking.sol\":4916:5161  if (_staker[_address].mode != 0)\r... */\n    tag_171:\n        /* \"contracts/Staking.sol\":5140:5153  _lockupPeriod */\n      sload(0x05)\n        /* \"contracts/Staking.sol\":5083:5136  block.timestamp.sub(_staker[_address].stakeStartTime) */\n      tag_177\n        /* \"contracts/Staking.sol\":5103:5110  _staker */\n      0x0a\n        /* \"contracts/Staking.sol\":5103:5120  _staker[_address] */\n      0x00\n        /* \"contracts/Staking.sol\":5111:5119  _address */\n      dup6\n        /* \"contracts/Staking.sol\":5103:5120  _staker[_address] */\n      0xffffffffffffffffffffffffffffffffffffffff\n      and\n      0xffffffffffffffffffffffffffffffffffffffff\n      and\n      dup2\n      mstore\n      0x20\n      add\n      swap1\n      dup2\n      mstore\n      0x20\n      add\n      0x00\n      keccak256\n        /* \"contracts/Staking.sol\":5103:5135  _staker[_address].stakeStartTime */\n      0x03\n      add\n      sload\n        /* \"contracts/Staking.sol\":5083:5098  block.timestamp */\n      timestamp\n        /* \"contracts/Staking.sol\":5083:5102  block.timestamp.sub */\n      tag_128\n      swap1\n        /* \"contracts/Staking.sol\":5083:5136  block.timestamp.sub(_staker[_address].stakeStartTime) */\n      swap2\n      swap1\n      0xffffffff\n      and\n      jump\t// in\n    tag_177:\n        /* \"contracts/Staking.sol\":5083:5153  block.timestamp.sub(_staker[_address].stakeStartTime) >= _lockupPeriod */\n      lt\n      iszero\n        /* \"contracts/Staking.sol\":5083:5161  block.timestamp.sub(_staker[_address].stakeStartTime) >= _lockupPeriod ? 0 : 1 */\n      tag_178\n      jumpi\n        /* \"contracts/Staking.sol\":5160:5161  1 */\n      0x01\n        /* \"contracts/Staking.sol\":5083:5161  block.timestamp.sub(_staker[_address].stakeStartTime) >= _lockupPeriod ? 0 : 1 */\n      jump(tag_179)\n    tag_178:\n        /* \"contracts/Staking.sol\":5156:5157  0 */\n      0x00\n        /* \"contracts/Staking.sol\":5083:5161  block.timestamp.sub(_staker[_address].stakeStartTime) >= _lockupPeriod ? 0 : 1 */\n    tag_179:\n        /* \"contracts/Staking.sol\":5076:5161  return block.timestamp.sub(_staker[_address].stakeStartTime) >= _lockupPeriod ? 0 : 1 */\n      0xff\n      and\n      swap1\n      pop\n        /* \"contracts/Staking.sol\":4767:5169  function isLocked(address _address) public view returns (uint256) {\r... */\n    tag_169:\n      swap2\n      swap1\n      pop\n      jump\t// out\n        /* \"contracts/Staking.sol\":7578:7740  function setLockupTime(uint256 lockupTime) external onlyOwner {\r... */\n    tag_45:\n        /* \"@openzeppelin/contracts/access/Ownable.sol\":1259:1271  _msgSender() */\n      tag_181\n        /* \"@openzeppelin/contracts/access/Ownable.sol\":1259:1269  _msgSender */\n      tag_182\n        /* \"@openzeppelin/contracts/access/Ownable.sol\":1259:1271  _msgSender() */\n      jump\t// in\n    tag_181:\n        /* \"@openzeppelin/contracts/access/Ownable.sol\":1248:1271  owner() == _msgSender() */\n      0xffffffffffffffffffffffffffffffffffffffff\n      and\n        /* \"@openzeppelin/contracts/access/Ownable.sol\":1248:1255  owner() */\n      tag_183\n        /* \"@openzeppelin/contracts/access/Ownable.sol\":1248:1253  owner */\n      tag_72\n        /* \"@openzeppelin/contracts/access/Ownable.sol\":1248:1255  owner() */\n      jump\t// in\n    tag_183:\n        /* \"@openzeppelin/contracts/access/Ownable.sol\":1248:1271  owner() == _msgSender() */\n      0xffffffffffffffffffffffffffffffffffffffff\n      and\n      eq\n        /* \"@openzeppelin/contracts/access/Ownable.sol\":1240:1308  require(owner() == _msgSender(), \"Ownable: caller is not the owner\") */\n      tag_184\n      jumpi\n      mload(0x40)\n      0x08c379a000000000000000000000000000000000000000000000000000000000\n      dup2\n      mstore\n      0x04\n      add\n      tag_185\n      swap1\n      tag_186\n      jump\t// in\n    tag_185:\n      mload(0x40)\n      dup1\n      swap2\n      sub\n      swap1\n      revert\n    tag_184:\n        /* \"contracts/Staking.sol\":7674:7675  0 */\n      0x00\n        /* \"contracts/Staking.sol\":7661:7671  lockupTime */\n      dup2\n        /* \"contracts/Staking.sol\":7661:7675  lockupTime > 0 */\n      gt\n        /* \"contracts/Staking.sol\":7653:7693  require(lockupTime > 0, \"Can't be zero\") */\n      tag_188\n      jumpi\n      mload(0x40)\n      0x08c379a000000000000000000000000000000000000000000000000000000000\n      dup2\n      mstore\n      0x04\n      add\n      tag_189\n      swap1\n      tag_190\n      jump\t// in\n    tag_189:\n      mload(0x40)\n      dup1\n      swap2\n      sub\n      swap1\n      revert\n    tag_188:\n        /* \"contracts/Staking.sol\":7722:7732  lockupTime */\n      dup1\n        /* \"contracts/Staking.sol\":7706:7719  _lockupPeriod */\n      0x05\n        /* \"contracts/Staking.sol\":7706:7732  _lockupPeriod = lockupTime */\n      dup2\n      swap1\n      sstore\n      pop\n        /* \"contracts/Staking.sol\":7578:7740  function setLockupTime(uint256 lockupTime) external onlyOwner {\r... */\n      pop\n      jump\t// out\n        /* \"contracts/Staking.sol\":2742:3621  function startStaking(uint256 _amount, uint256 _mode) external {\r... */\n    tag_49:\n        /* \"contracts/Staking.sol\":2844:2845  0 */\n      0x00\n        /* \"contracts/Staking.sol\":2834:2841  _amount */\n      dup3\n        /* \"contracts/Staking.sol\":2834:2845  _amount > 0 */\n      gt\n        /* \"contracts/Staking.sol\":2826:2881  require(_amount > 0, \"Amount should be greater than 0\") */\n      tag_192\n      jumpi\n      mload(0x40)\n      0x08c379a000000000000000000000000000000000000000000000000000000000\n      dup2\n      mstore\n      0x04\n      add\n      tag_193\n      swap1\n      tag_107\n      jump\t// in\n    tag_193:\n      mload(0x40)\n      dup1\n      swap2\n      sub\n      swap1\n      revert\n    tag_192:\n        /* \"contracts/Staking.sol\":2930:2937  _amount */\n      dup2\n        /* \"contracts/Staking.sol\":2900:2905  token */\n      0x0c\n      0x00\n      swap1\n      sload\n      swap1\n      0x0100\n      exp\n      swap1\n      div\n      0xffffffffffffffffffffffffffffffffffffffff\n      and\n        /* \"contracts/Staking.sol\":2900:2915  token.balanceOf */\n      0xffffffffffffffffffffffffffffffffffffffff\n      and\n      0x70a08231\n        /* \"contracts/Staking.sol\":2916:2926  msg.sender */\n      caller\n        /* \"contracts/Staking.sol\":2900:2927  token.balanceOf(msg.sender) */\n      mload(0x40)\n      dup3\n      0xffffffff\n      and\n      0xe0\n      shl\n      dup2\n      mstore\n      0x04\n      add\n      tag_194\n      swap2\n      swap1\n      tag_74\n      jump\t// in\n    tag_194:\n      0x20\n      mload(0x40)\n      dup1\n      dup4\n      sub\n      dup2\n      dup7\n      dup1\n      extcodesize\n      iszero\n      dup1\n      iszero\n      tag_195\n      jumpi\n      0x00\n      dup1\n      revert\n    tag_195:\n      pop\n      gas\n      staticcall\n      iszero\n      dup1\n      iszero\n      tag_197\n      jumpi\n      returndatasize\n      0x00\n      dup1\n      returndatacopy\n      revert(0x00, returndatasize)\n    tag_197:\n      pop\n      pop\n      pop\n      pop\n      mload(0x40)\n      returndatasize\n      not(0x1f)\n      0x1f\n      dup3\n      add\n      and\n      dup3\n      add\n      dup1\n      0x40\n      mstore\n      pop\n      dup2\n      add\n      swap1\n      tag_198\n      swap2\n      swap1\n      tag_118\n      jump\t// in\n    tag_198:\n        /* \"contracts/Staking.sol\":2900:2937  token.balanceOf(msg.sender) > _amount */\n      gt\n        /* \"contracts/Staking.sol\":2892:2955  require(token.balanceOf(msg.sender) > _amount, \"Insufficient!\") */\n      tag_199\n      jumpi\n      mload(0x40)\n      0x08c379a000000000000000000000000000000000000000000000000000000000\n      dup2\n      mstore\n      0x04\n      add\n      tag_200\n      swap1\n      tag_201\n      jump\t// in\n    tag_200:\n      mload(0x40)\n      dup1\n      swap2\n      sub\n      swap1\n      revert\n    tag_199:\n        /* \"contracts/Staking.sol\":3004:3008  0x55 */\n      0x55\n        /* \"contracts/Staking.sol\":2974:2981  _staker */\n      0x0a\n        /* \"contracts/Staking.sol\":2974:2993  _staker[msg.sender] */\n      0x00\n        /* \"contracts/Staking.sol\":2982:2992  msg.sender */\n      caller\n        /* \"contracts/Staking.sol\":2974:2993  _staker[msg.sender] */\n      0xffffffffffffffffffffffffffffffffffffffff\n      and\n      0xffffffffffffffffffffffffffffffffffffffff\n      and\n      dup2\n      mstore\n      0x20\n      add\n      swap1\n      dup2\n      mstore\n      0x20\n      add\n      0x00\n      keccak256\n        /* \"contracts/Staking.sol\":2974:3000  _staker[msg.sender].staked */\n      0x05\n      add\n      sload\n        /* \"contracts/Staking.sol\":2974:3008  _staker[msg.sender].staked != 0x55 */\n      eq\n      iszero\n        /* \"contracts/Staking.sol\":2966:3028  require(_staker[msg.sender].staked != 0x55, \"Already started\") */\n      tag_202\n      jumpi\n      mload(0x40)\n      0x08c379a000000000000000000000000000000000000000000000000000000000\n      dup2\n      mstore\n      0x04\n      add\n      tag_203\n      swap1\n      tag_204\n      jump\t// in\n    tag_203:\n      mload(0x40)\n      dup1\n      swap2\n      sub\n      swap1\n      revert\n    tag_202:\n        /* \"contracts/Staking.sol\":3062:3063  0 */\n      0x00\n        /* \"contracts/Staking.sol\":3053:3058  _mode */\n      dup2\n        /* \"contracts/Staking.sol\":3053:3063  _mode == 0 */\n      eq\n        /* \"contracts/Staking.sol\":3049:3392  if (_mode == 0) require(_amount > 0);\r... */\n      iszero\n      tag_205\n      jumpi\n        /* \"contracts/Staking.sol\":3083:3084  0 */\n      0x00\n        /* \"contracts/Staking.sol\":3073:3080  _amount */\n      dup3\n        /* \"contracts/Staking.sol\":3073:3084  _amount > 0 */\n      gt\n        /* \"contracts/Staking.sol\":3065:3085  require(_amount > 0) */\n      tag_206\n      jumpi\n      0x00\n      dup1\n      revert\n    tag_206:\n        /* \"contracts/Staking.sol\":3049:3392  if (_mode == 0) require(_amount > 0);\r... */\n      jump(tag_207)\n    tag_205:\n        /* \"contracts/Staking.sol\":3114:3115  1 */\n      0x01\n        /* \"contracts/Staking.sol\":3105:3110  _mode */\n      dup2\n        /* \"contracts/Staking.sol\":3105:3115  _mode == 1 */\n      eq\n        /* \"contracts/Staking.sol\":3101:3392  if (_mode == 1) require(_amount >= _minStakeAmount_c, \"Insufficient\");\r... */\n      iszero\n      tag_208\n      jumpi\n        /* \"contracts/Staking.sol\":3136:3153  _minStakeAmount_c */\n      sload(0x08)\n        /* \"contracts/Staking.sol\":3125:3132  _amount */\n      dup3\n        /* \"contracts/Staking.sol\":3125:3153  _amount >= _minStakeAmount_c */\n      lt\n      iszero\n        /* \"contracts/Staking.sol\":3117:3170  require(_amount >= _minStakeAmount_c, \"Insufficient\") */\n      tag_209\n      jumpi\n      mload(0x40)\n      0x08c379a000000000000000000000000000000000000000000000000000000000\n      dup2\n      mstore\n      0x04\n      add\n      tag_210\n      swap1\n      tag_211\n      jump\t// in\n    tag_210:\n      mload(0x40)\n      dup1\n      swap2\n      sub\n      swap1\n      revert\n    tag_209:\n        /* \"contracts/Staking.sol\":3101:3392  if (_mode == 1) require(_amount >= _minStakeAmount_c, \"Insufficient\");\r... */\n      jump(tag_212)\n    tag_208:\n        /* \"contracts/Staking.sol\":3199:3200  2 */\n      0x02\n        /* \"contracts/Staking.sol\":3190:3195  _mode */\n      dup2\n        /* \"contracts/Staking.sol\":3190:3200  _mode == 2 */\n      eq\n        /* \"contracts/Staking.sol\":3186:3392  if (_mode == 2) require(_amount >= _minStakeAmount_s, \"Insufficient\");\r... */\n      iszero\n      tag_213\n      jumpi\n        /* \"contracts/Staking.sol\":3221:3238  _minStakeAmount_s */\n      sload(0x07)\n        /* \"contracts/Staking.sol\":3210:3217  _amount */\n      dup3\n        /* \"contracts/Staking.sol\":3210:3238  _amount >= _minStakeAmount_s */\n      lt\n      iszero\n        /* \"contracts/Staking.sol\":3202:3255  require(_amount >= _minStakeAmount_s, \"Insufficient\") */\n      tag_214\n      jumpi\n      mload(0x40)\n      0x08c379a000000000000000000000000000000000000000000000000000000000\n      dup2\n      mstore\n      0x04\n      add\n      tag_215\n      swap1\n      tag_211\n      jump\t// in\n    tag_215:\n      mload(0x40)\n      dup1\n      swap2\n      sub\n      swap1\n      revert\n    tag_214:\n        /* \"contracts/Staking.sol\":3186:3392  if (_mode == 2) require(_amount >= _minStakeAmount_s, \"Insufficient\");\r... */\n      jump(tag_216)\n    tag_213:\n        /* \"contracts/Staking.sol\":3284:3285  3 */\n      0x03\n        /* \"contracts/Staking.sol\":3275:3280  _mode */\n      dup2\n        /* \"contracts/Staking.sol\":3275:3285  _mode == 3 */\n      eq\n        /* \"contracts/Staking.sol\":3271:3392  if (_mode == 3) require(_amount >= _minStakeAmount_g, \"Insufficient\");\r... */\n      iszero\n      tag_217\n      jumpi\n        /* \"contracts/Staking.sol\":3306:3323  _minStakeAmount_g */\n      sload(0x06)\n        /* \"contracts/Staking.sol\":3295:3302  _amount */\n      dup3\n        /* \"contracts/Staking.sol\":3295:3323  _amount >= _minStakeAmount_g */\n      lt\n      iszero\n        /* \"contracts/Staking.sol\":3287:3340  require(_amount >= _minStakeAmount_g, \"Insufficient\") */\n      tag_218\n      jumpi\n      mload(0x40)\n      0x08c379a000000000000000000000000000000000000000000000000000000000\n      dup2\n      mstore\n      0x04\n      add\n      tag_219\n      swap1\n      tag_211\n      jump\t// in\n    tag_219:\n      mload(0x40)\n      dup1\n      swap2\n      sub\n      swap1\n      revert\n    tag_218:\n        /* \"contracts/Staking.sol\":3271:3392  if (_mode == 3) require(_amount >= _minStakeAmount_g, \"Insufficient\");\r... */\n      jump(tag_220)\n    tag_217:\n        /* \"contracts/Staking.sol\":3374:3375  0 */\n      0x00\n        /* \"contracts/Staking.sol\":3364:3371  _amount */\n      dup3\n        /* \"contracts/Staking.sol\":3364:3375  _amount < 0 */\n      lt\n        /* \"contracts/Staking.sol\":3356:3392  require(_amount < 0, \"Invalid Mode\") */\n      tag_221\n      jumpi\n      mload(0x40)\n      0x08c379a000000000000000000000000000000000000000000000000000000000\n      dup2\n      mstore\n      0x04\n      add\n      tag_222\n      swap1\n      tag_223\n      jump\t// in\n    tag_222:\n      mload(0x40)\n      dup1\n      swap2\n      sub\n      swap1\n      revert\n    tag_221:\n        /* \"contracts/Staking.sol\":3271:3392  if (_mode == 3) require(_amount >= _minStakeAmount_g, \"Insufficient\");\r... */\n    tag_220:\n        /* \"contracts/Staking.sol\":3186:3392  if (_mode == 2) require(_amount >= _minStakeAmount_s, \"Insufficient\");\r... */\n    tag_216:\n        /* \"contracts/Staking.sol\":3101:3392  if (_mode == 1) require(_amount >= _minStakeAmount_c, \"Insufficient\");\r... */\n    tag_212:\n        /* \"contracts/Staking.sol\":3049:3392  if (_mode == 0) require(_amount > 0);\r... */\n    tag_207:\n        /* \"contracts/Staking.sol\":3440:3445  _mode */\n      dup1\n        /* \"contracts/Staking.sol\":3413:3420  _staker */\n      0x0a\n        /* \"contracts/Staking.sol\":3413:3432  _staker[msg.sender] */\n      0x00\n        /* \"contracts/Staking.sol\":3421:3431  msg.sender */\n      caller\n        /* \"contracts/Staking.sol\":3413:3432  _staker[msg.sender] */\n      0xffffffffffffffffffffffffffffffffffffffff\n      and\n      0xffffffffffffffffffffffffffffffffffffffff\n      and\n      dup2\n      mstore\n      0x20\n      add\n      swap1\n      dup2\n      mstore\n      0x20\n      add\n      0x00\n      keccak256\n        /* \"contracts/Staking.sol\":3413:3437  _staker[msg.sender].mode */\n      0x02\n      add\n        /* \"contracts/Staking.sol\":3413:3445  _staker[msg.sender].mode = _mode */\n      dup2\n      swap1\n      sstore\n      pop\n        /* \"contracts/Staking.sol\":3493:3508  block.timestamp */\n      timestamp\n        /* \"contracts/Staking.sol\":3456:3463  _staker */\n      0x0a\n        /* \"contracts/Staking.sol\":3456:3475  _staker[msg.sender] */\n      0x00\n        /* \"contracts/Staking.sol\":3464:3474  msg.sender */\n      caller\n        /* \"contracts/Staking.sol\":3456:3475  _staker[msg.sender] */\n      0xffffffffffffffffffffffffffffffffffffffff\n      and\n      0xffffffffffffffffffffffffffffffffffffffff\n      and\n      dup2\n      mstore\n      0x20\n      add\n      swap1\n      dup2\n      mstore\n      0x20\n      add\n      0x00\n      keccak256\n        /* \"contracts/Staking.sol\":3456:3490  _staker[msg.sender].stakeStartTime */\n      0x03\n      add\n        /* \"contracts/Staking.sol\":3456:3508  _staker[msg.sender].stakeStartTime = block.timestamp */\n      dup2\n      swap1\n      sstore\n      pop\n        /* \"contracts/Staking.sol\":3548:3552  0x55 */\n      0x55\n        /* \"contracts/Staking.sol\":3519:3526  _staker */\n      0x0a\n        /* \"contracts/Staking.sol\":3519:3538  _staker[msg.sender] */\n      0x00\n        /* \"contracts/Staking.sol\":3527:3537  msg.sender */\n      caller\n        /* \"contracts/Staking.sol\":3519:3538  _staker[msg.sender] */\n      0xffffffffffffffffffffffffffffffffffffffff\n      and\n      0xffffffffffffffffffffffffffffffffffffffff\n      and\n      dup2\n      mstore\n      0x20\n      add\n      swap1\n      dup2\n      mstore\n      0x20\n      add\n      0x00\n      keccak256\n        /* \"contracts/Staking.sol\":3519:3545  _staker[msg.sender].staked */\n      0x05\n      add\n        /* \"contracts/Staking.sol\":3519:3552  _staker[msg.sender].staked = 0x55 */\n      dup2\n      swap1\n      sstore\n      pop\n        /* \"contracts/Staking.sol\":3563:3571  _stakers */\n      0x09\n        /* \"contracts/Staking.sol\":3577:3587  msg.sender */\n      caller\n        /* \"contracts/Staking.sol\":3563:3588  _stakers.push(msg.sender) */\n      swap1\n      dup1\n      0x01\n      dup2\n      sload\n      add\n      dup1\n      dup3\n      sstore\n      dup1\n      swap2\n      pop\n      pop\n      0x01\n      swap1\n      sub\n      swap1\n      0x00\n      mstore\n      keccak256(0x00, 0x20)\n      add\n      0x00\n      swap1\n      swap2\n      swap1\n      swap2\n      swap1\n      swap2\n      0x0100\n      exp\n      dup2\n      sload\n      dup2\n      0xffffffffffffffffffffffffffffffffffffffff\n      mul\n      not\n      and\n      swap1\n      dup4\n      0xffffffffffffffffffffffffffffffffffffffff\n      and\n      mul\n      or\n      swap1\n      sstore\n      pop\n        /* \"contracts/Staking.sol\":3599:3613  stake(_amount) */\n      tag_225\n        /* \"contracts/Staking.sol\":3605:3612  _amount */\n      dup3\n        /* \"contracts/Staking.sol\":3599:3604  stake */\n      tag_83\n        /* \"contracts/Staking.sol\":3599:3613  stake(_amount) */\n      jump\t// in\n    tag_225:\n        /* \"contracts/Staking.sol\":2742:3621  function startStaking(uint256 _amount, uint256 _mode) external {\r... */\n      pop\n      pop\n      jump\t// out\n        /* \"contracts/Staking.sol\":4382:4485  function getNumberofStakers() public view returns (uint256) {\r... */\n    tag_51:\n        /* \"contracts/Staking.sol\":4433:4440  uint256 */\n      0x00\n        /* \"contracts/Staking.sol\":4462:4470  _stakers */\n      0x09\n        /* \"contracts/Staking.sol\":4462:4477  _stakers.length */\n      dup1\n      sload\n      swap1\n      pop\n        /* \"contracts/Staking.sol\":4455:4477  return _stakers.length */\n      swap1\n      pop\n        /* \"contracts/Staking.sol\":4382:4485  function getNumberofStakers() public view returns (uint256) {\r... */\n      swap1\n      jump\t// out\n        /* \"contracts/Staking.sol\":7803:7962  function rewardToHarvest() public view returns (uint256){\r... */\n    tag_54:\n        /* \"contracts/Staking.sol\":7851:7858  uint256 */\n      0x00\n        /* \"contracts/Staking.sol\":7915:7922  _staker */\n      0x0a\n        /* \"contracts/Staking.sol\":7915:7934  _staker[msg.sender] */\n      0x00\n        /* \"contracts/Staking.sol\":7923:7933  msg.sender */\n      caller\n        /* \"contracts/Staking.sol\":7915:7934  _staker[msg.sender] */\n      0xffffffffffffffffffffffffffffffffffffffff\n      and\n      0xffffffffffffffffffffffffffffffffffffffff\n      and\n      dup2\n      mstore\n      0x20\n      add\n      swap1\n      dup2\n      mstore\n      0x20\n      add\n      0x00\n      keccak256\n        /* \"contracts/Staking.sol\":7915:7954  _staker[msg.sender].stakerCurrentReward */\n      0x00\n      add\n      sload\n        /* \"contracts/Staking.sol\":7908:7954  return _staker[msg.sender].stakerCurrentReward */\n      swap1\n      pop\n        /* \"contracts/Staking.sol\":7803:7962  function rewardToHarvest() public view returns (uint256){\r... */\n      swap1\n      jump\t// out\n        /* \"contracts/Staking.sol\":5329:5464  function rewardAmount(address _address) public view returns (uint256) {\r... */\n    tag_58:\n        /* \"contracts/Staking.sol\":5390:5397  uint256 */\n      0x00\n        /* \"contracts/Staking.sol\":5419:5426  _staker */\n      0x0a\n        /* \"contracts/Staking.sol\":5419:5436  _staker[_address] */\n      0x00\n        /* \"contracts/Staking.sol\":5427:5435  _address */\n      dup4\n        /* \"contracts/Staking.sol\":5419:5436  _staker[_address] */\n      0xffffffffffffffffffffffffffffffffffffffff\n      and\n      0xffffffffffffffffffffffffffffffffffffffff\n      and\n      dup2\n      mstore\n      0x20\n      add\n      swap1\n      dup2\n      mstore\n      0x20\n      add\n      0x00\n      keccak256\n        /* \"contracts/Staking.sol\":5419:5456  _staker[_address].stakerCurrentReward */\n      0x00\n      add\n      sload\n        /* \"contracts/Staking.sol\":5412:5456  return _staker[_address].stakerCurrentReward */\n      swap1\n      pop\n        /* \"contracts/Staking.sol\":5329:5464  function rewardAmount(address _address) public view returns (uint256) {\r... */\n      swap2\n      swap1\n      pop\n      jump\t// out\n        /* \"contracts/Staking.sol\":7040:7288  function setEventPeriod(uint256 __eventPeriod) external onlyOwner {\r... */\n    tag_62:\n        /* \"@openzeppelin/contracts/access/Ownable.sol\":1259:1271  _msgSender() */\n      tag_230\n        /* \"@openzeppelin/contracts/access/Ownable.sol\":1259:1269  _msgSender */\n      tag_182\n        /* \"@openzeppelin/contracts/access/Ownable.sol\":1259:1271  _msgSender() */\n      jump\t// in\n    tag_230:\n        /* \"@openzeppelin/contracts/access/Ownable.sol\":1248:1271  owner() == _msgSender() */\n      0xffffffffffffffffffffffffffffffffffffffff\n      and\n        /* \"@openzeppelin/contracts/access/Ownable.sol\":1248:1255  owner() */\n      tag_231\n        /* \"@openzeppelin/contracts/access/Ownable.sol\":1248:1253  owner */\n      tag_72\n        /* \"@openzeppelin/contracts/access/Ownable.sol\":1248:1255  owner() */\n      jump\t// in\n    tag_231:\n        /* \"@openzeppelin/contracts/access/Ownable.sol\":1248:1271  owner() == _msgSender() */\n      0xffffffffffffffffffffffffffffffffffffffff\n      and\n      eq\n        /* \"@openzeppelin/contracts/access/Ownable.sol\":1240:1308  require(owner() == _msgSender(), \"Ownable: caller is not the owner\") */\n      tag_232\n      jumpi\n      mload(0x40)\n      0x08c379a000000000000000000000000000000000000000000000000000000000\n      dup2\n      mstore\n      0x04\n      add\n      tag_233\n      swap1\n      tag_186\n      jump\t// in\n    tag_233:\n      mload(0x40)\n      dup1\n      swap2\n      sub\n      swap1\n      revert\n    tag_232:\n        /* \"contracts/Staking.sol\":7151:7152  0 */\n      0x00\n        /* \"contracts/Staking.sol\":7135:7148  __eventPeriod */\n      dup2\n        /* \"contracts/Staking.sol\":7135:7152  __eventPeriod > 0 */\n      gt\n        /* \"contracts/Staking.sol\":7127:7180  require(__eventPeriod > 0, \"Invalid Lockup Duration\") */\n      tag_235\n      jumpi\n      mload(0x40)\n      0x08c379a000000000000000000000000000000000000000000000000000000000\n      dup2\n      mstore\n      0x04\n      add\n      tag_236\n      swap1\n      tag_237\n      jump\t// in\n    tag_236:\n      mload(0x40)\n      dup1\n      swap2\n      sub\n      swap1\n      revert\n    tag_235:\n        /* \"contracts/Staking.sol\":7208:7233  __eventPeriod.mul(1 days) */\n      tag_238\n        /* \"contracts/Staking.sol\":7226:7232  1 days */\n      0x015180\n        /* \"contracts/Staking.sol\":7208:7221  __eventPeriod */\n      dup3\n        /* \"contracts/Staking.sol\":7208:7225  __eventPeriod.mul */\n      tag_141\n      swap1\n        /* \"contracts/Staking.sol\":7208:7233  __eventPeriod.mul(1 days) */\n      swap2\n      swap1\n      0xffffffff\n      and\n      jump\t// in\n    tag_238:\n        /* \"contracts/Staking.sol\":7193:7205  _eventPeriod */\n      0x02\n        /* \"contracts/Staking.sol\":7193:7233  _eventPeriod = __eventPeriod.mul(1 days) */\n      dup2\n      swap1\n      sstore\n      pop\n        /* \"contracts/Staking.sol\":7251:7280  SetEventPeriod(__eventPeriod) */\n      0x189bda9782663c67a3f95c0aa5455924c711210b00281c60ead2f0dd8dbc924c\n        /* \"contracts/Staking.sol\":7266:7279  __eventPeriod */\n      dup2\n        /* \"contracts/Staking.sol\":7251:7280  SetEventPeriod(__eventPeriod) */\n      mload(0x40)\n      tag_239\n      swap2\n      swap1\n      tag_31\n      jump\t// in\n    tag_239:\n      mload(0x40)\n      dup1\n      swap2\n      sub\n      swap1\n      log1\n        /* \"contracts/Staking.sol\":7040:7288  function setEventPeriod(uint256 __eventPeriod) external onlyOwner {\r... */\n      pop\n      jump\t// out\n        /* \"@openzeppelin/contracts/access/Ownable.sol\":1668:1769  function renounceOwnership() public virtual onlyOwner {... */\n    tag_64:\n        /* \"@openzeppelin/contracts/access/Ownable.sol\":1259:1271  _msgSender() */\n      tag_241\n        /* \"@openzeppelin/contracts/access/Ownable.sol\":1259:1269  _msgSender */\n      tag_182\n        /* \"@openzeppelin/contracts/access/Ownable.sol\":1259:1271  _msgSender() */\n      jump\t// in\n    tag_241:\n        /* \"@openzeppelin/contracts/access/Ownable.sol\":1248:1271  owner() == _msgSender() */\n      0xffffffffffffffffffffffffffffffffffffffff\n      and\n        /* \"@openzeppelin/contracts/access/Ownable.sol\":1248:1255  owner() */\n      tag_242\n        /* \"@openzeppelin/contracts/access/Ownable.sol\":1248:1253  owner */\n      tag_72\n        /* \"@openzeppelin/contracts/access/Ownable.sol\":1248:1255  owner() */\n      jump\t// in\n    tag_242:\n        /* \"@openzeppelin/contracts/access/Ownable.sol\":1248:1271  owner() == _msgSender() */\n      0xffffffffffffffffffffffffffffffffffffffff\n      and\n      eq\n        /* \"@openzeppelin/contracts/access/Ownable.sol\":1240:1308  require(owner() == _msgSender(), \"Ownable: caller is not the owner\") */\n      tag_243\n      jumpi\n      mload(0x40)\n      0x08c379a000000000000000000000000000000000000000000000000000000000\n      dup2\n      mstore\n      0x04\n      add\n      tag_244\n      swap1\n      tag_186\n      jump\t// in\n    tag_244:\n      mload(0x40)\n      dup1\n      swap2\n      sub\n      swap1\n      revert\n    tag_243:\n        /* \"@openzeppelin/contracts/access/Ownable.sol\":1732:1762  _transferOwnership(address(0)) */\n      tag_246\n        /* \"@openzeppelin/contracts/access/Ownable.sol\":1759:1760  0 */\n      0x00\n        /* \"@openzeppelin/contracts/access/Ownable.sol\":1732:1750  _transferOwnership */\n      tag_247\n        /* \"@openzeppelin/contracts/access/Ownable.sol\":1732:1762  _transferOwnership(address(0)) */\n      jump\t// in\n    tag_246:\n        /* \"@openzeppelin/contracts/access/Ownable.sol\":1668:1769  function renounceOwnership() public virtual onlyOwner {... */\n      jump\t// out\n        /* \"contracts/Staking.sol\":5472:5566  function getRewardRate() public view returns (uint256) {\r... */\n    tag_66:\n        /* \"contracts/Staking.sol\":5518:5525  uint256 */\n      0x00\n        /* \"contracts/Staking.sol\":5547:5558  _rewardRate */\n      sload(0x03)\n        /* \"contracts/Staking.sol\":5540:5558  return _rewardRate */\n      swap1\n      pop\n        /* \"contracts/Staking.sol\":5472:5566  function getRewardRate() public view returns (uint256) {\r... */\n      swap1\n      jump\t// out\n        /* \"contracts/Staking.sol\":1169:1195  uint256 public totalStaked */\n    tag_69:\n      sload(0x0b)\n      dup2\n      jump\t// out\n        /* \"@openzeppelin/contracts/access/Ownable.sol\":1036:1121  function owner() public view virtual returns (address) {... */\n    tag_72:\n        /* \"@openzeppelin/contracts/access/Ownable.sol\":1082:1089  address */\n      0x00\n        /* \"@openzeppelin/contracts/access/Ownable.sol\":1108:1114  _owner */\n      dup1\n      0x00\n      swap1\n      sload\n      swap1\n      0x0100\n      exp\n      swap1\n      div\n      0xffffffffffffffffffffffffffffffffffffffff\n      and\n        /* \"@openzeppelin/contracts/access/Ownable.sol\":1101:1114  return _owner */\n      swap1\n      pop\n        /* \"@openzeppelin/contracts/access/Ownable.sol\":1036:1121  function owner() public view virtual returns (address) {... */\n      swap1\n      jump\t// out\n        /* \"contracts/Staking.sol\":7296:7570  function setUnstakingFeeRate(uint256 __unstakingFeeRate) external onlyOwner {\r... */\n    tag_77:\n        /* \"@openzeppelin/contracts/access/Ownable.sol\":1259:1271  _msgSender() */\n      tag_251\n        /* \"@openzeppelin/contracts/access/Ownable.sol\":1259:1269  _msgSender */\n      tag_182\n        /* \"@openzeppelin/contracts/access/Ownable.sol\":1259:1271  _msgSender() */\n      jump\t// in\n    tag_251:\n        /* \"@openzeppelin/contracts/access/Ownable.sol\":1248:1271  owner() == _msgSender() */\n      0xffffffffffffffffffffffffffffffffffffffff\n      and\n        /* \"@openzeppelin/contracts/access/Ownable.sol\":1248:1255  owner() */\n      tag_252\n        /* \"@openzeppelin/contracts/access/Ownable.sol\":1248:1253  owner */\n      tag_72\n        /* \"@openzeppelin/contracts/access/Ownable.sol\":1248:1255  owner() */\n      jump\t// in\n    tag_252:\n        /* \"@openzeppelin/contracts/access/Ownable.sol\":1248:1271  owner() == _msgSender() */\n      0xffffffffffffffffffffffffffffffffffffffff\n      and\n      eq\n        /* \"@openzeppelin/contracts/access/Ownable.sol\":1240:1308  require(owner() == _msgSender(), \"Ownable: caller is not the owner\") */\n      tag_253\n      jumpi\n      mload(0x40)\n      0x08c379a000000000000000000000000000000000000000000000000000000000\n      dup2\n      mstore\n      0x04\n      add\n      tag_254\n      swap1\n      tag_186\n      jump\t// in\n    tag_254:\n      mload(0x40)\n      dup1\n      swap2\n      sub\n      swap1\n      revert\n    tag_253:\n        /* \"contracts/Staking.sol\":7422:7423  0 */\n      0x00\n        /* \"contracts/Staking.sol\":7401:7419  __unstakingFeeRate */\n      dup2\n        /* \"contracts/Staking.sol\":7401:7423  __unstakingFeeRate > 0 */\n      gt\n        /* \"contracts/Staking.sol\":7393:7454  require(__unstakingFeeRate > 0, \"Invalid Unstaking Fee Rate\") */\n      tag_256\n      jumpi\n      mload(0x40)\n      0x08c379a000000000000000000000000000000000000000000000000000000000\n      dup2\n      mstore\n      0x04\n      add\n      tag_257\n      swap1\n      tag_258\n      jump\t// in\n    tag_257:\n      mload(0x40)\n      dup1\n      swap2\n      sub\n      swap1\n      revert\n    tag_256:\n        /* \"contracts/Staking.sol\":7487:7505  __unstakingFeeRate */\n      dup1\n        /* \"contracts/Staking.sol\":7467:7484  _unstakingFeeRate */\n      0x01\n        /* \"contracts/Staking.sol\":7467:7505  _unstakingFeeRate = __unstakingFeeRate */\n      dup2\n      swap1\n      sstore\n      pop\n        /* \"contracts/Staking.sol\":7523:7562  SetUnstakingFeeRate(__unstakingFeeRate) */\n      0x150c688dd7595bf7862b8ab1fe46756450eb7d731037942b3bbc46f3f0e21b81\n        /* \"contracts/Staking.sol\":7543:7561  __unstakingFeeRate */\n      dup2\n        /* \"contracts/Staking.sol\":7523:7562  SetUnstakingFeeRate(__unstakingFeeRate) */\n      mload(0x40)\n      tag_259\n      swap2\n      swap1\n      tag_31\n      jump\t// in\n    tag_259:\n      mload(0x40)\n      dup1\n      swap2\n      sub\n      swap1\n      log1\n        /* \"contracts/Staking.sol\":7296:7570  function setUnstakingFeeRate(uint256 __unstakingFeeRate) external onlyOwner {\r... */\n      pop\n      jump\t// out\n        /* \"contracts/Staking.sol\":6805:7032  function setRewardRate(uint256 __rewardRate) external onlyOwner {\r... */\n    tag_80:\n        /* \"@openzeppelin/contracts/access/Ownable.sol\":1259:1271  _msgSender() */\n      tag_261\n        /* \"@openzeppelin/contracts/access/Ownable.sol\":1259:1269  _msgSender */\n      tag_182\n        /* \"@openzeppelin/contracts/access/Ownable.sol\":1259:1271  _msgSender() */\n      jump\t// in\n    tag_261:\n        /* \"@openzeppelin/contracts/access/Ownable.sol\":1248:1271  owner() == _msgSender() */\n      0xffffffffffffffffffffffffffffffffffffffff\n      and\n        /* \"@openzeppelin/contracts/access/Ownable.sol\":1248:1255  owner() */\n      tag_262\n        /* \"@openzeppelin/contracts/access/Ownable.sol\":1248:1253  owner */\n      tag_72\n        /* \"@openzeppelin/contracts/access/Ownable.sol\":1248:1255  owner() */\n      jump\t// in\n    tag_262:\n        /* \"@openzeppelin/contracts/access/Ownable.sol\":1248:1271  owner() == _msgSender() */\n      0xffffffffffffffffffffffffffffffffffffffff\n      and\n      eq\n        /* \"@openzeppelin/contracts/access/Ownable.sol\":1240:1308  require(owner() == _msgSender(), \"Ownable: caller is not the owner\") */\n      tag_263\n      jumpi\n      mload(0x40)\n      0x08c379a000000000000000000000000000000000000000000000000000000000\n      dup2\n      mstore\n      0x04\n      add\n      tag_264\n      swap1\n      tag_186\n      jump\t// in\n    tag_264:\n      mload(0x40)\n      dup1\n      swap2\n      sub\n      swap1\n      revert\n    tag_263:\n        /* \"contracts/Staking.sol\":6913:6914  0 */\n      0x00\n        /* \"contracts/Staking.sol\":6898:6910  __rewardRate */\n      dup2\n        /* \"contracts/Staking.sol\":6898:6914  __rewardRate > 0 */\n      gt\n        /* \"contracts/Staking.sol\":6890:6932  require(__rewardRate > 0, \"Invalid value\") */\n      tag_266\n      jumpi\n      mload(0x40)\n      0x08c379a000000000000000000000000000000000000000000000000000000000\n      dup2\n      mstore\n      0x04\n      add\n      tag_267\n      swap1\n      tag_268\n      jump\t// in\n    tag_267:\n      mload(0x40)\n      dup1\n      swap2\n      sub\n      swap1\n      revert\n    tag_266:\n        /* \"contracts/Staking.sol\":6967:6979  __rewardRate */\n      dup1\n        /* \"contracts/Staking.sol\":6953:6964  _rewardRate */\n      0x03\n        /* \"contracts/Staking.sol\":6953:6979  _rewardRate = __rewardRate */\n      dup2\n      swap1\n      sstore\n      pop\n        /* \"contracts/Staking.sol\":6997:7024  SetRewardRate(__rewardRate) */\n      0x1946fb78c7ca778b54d82cabaac5ba67cf446f58d0ff1f8ceaebb6150e54e44f\n        /* \"contracts/Staking.sol\":7011:7023  __rewardRate */\n      dup2\n        /* \"contracts/Staking.sol\":6997:7024  SetRewardRate(__rewardRate) */\n      mload(0x40)\n      tag_269\n      swap2\n      swap1\n      tag_31\n      jump\t// in\n    tag_269:\n      mload(0x40)\n      dup1\n      swap2\n      sub\n      swap1\n      log1\n        /* \"contracts/Staking.sol\":6805:7032  function setRewardRate(uint256 __rewardRate) external onlyOwner {\r... */\n      pop\n      jump\t// out\n        /* \"contracts/Staking.sol\":3689:4271  function stake(uint256 _amount) public{\r... */\n    tag_83:\n        /* \"contracts/Staking.sol\":3766:3767  0 */\n      0x00\n        /* \"contracts/Staking.sol\":3756:3763  _amount */\n      dup2\n        /* \"contracts/Staking.sol\":3756:3767  _amount > 0 */\n      gt\n        /* \"contracts/Staking.sol\":3748:3803  require(_amount > 0, \"Amount should be greater than 0\") */\n      tag_271\n      jumpi\n      mload(0x40)\n      0x08c379a000000000000000000000000000000000000000000000000000000000\n      dup2\n      mstore\n      0x04\n      add\n      tag_272\n      swap1\n      tag_107\n      jump\t// in\n    tag_272:\n      mload(0x40)\n      dup1\n      swap2\n      sub\n      swap1\n      revert\n    tag_271:\n        /* \"contracts/Staking.sol\":3852:3859  _amount */\n      dup1\n        /* \"contracts/Staking.sol\":3822:3827  token */\n      0x0c\n      0x00\n      swap1\n      sload\n      swap1\n      0x0100\n      exp\n      swap1\n      div\n      0xffffffffffffffffffffffffffffffffffffffff\n      and\n        /* \"contracts/Staking.sol\":3822:3837  token.balanceOf */\n      0xffffffffffffffffffffffffffffffffffffffff\n      and\n      0x70a08231\n        /* \"contracts/Staking.sol\":3838:3848  msg.sender */\n      caller\n        /* \"contracts/Staking.sol\":3822:3849  token.balanceOf(msg.sender) */\n      mload(0x40)\n      dup3\n      0xffffffff\n      and\n      0xe0\n      shl\n      dup2\n      mstore\n      0x04\n      add\n      tag_273\n      swap2\n      swap1\n      tag_74\n      jump\t// in\n    tag_273:\n      0x20\n      mload(0x40)\n      dup1\n      dup4\n      sub\n      dup2\n      dup7\n      dup1\n      extcodesize\n      iszero\n      dup1\n      iszero\n      tag_274\n      jumpi\n      0x00\n      dup1\n      revert\n    tag_274:\n      pop\n      gas\n      staticcall\n      iszero\n      dup1\n      iszero\n      tag_276\n      jumpi\n      returndatasize\n      0x00\n      dup1\n      returndatacopy\n      revert(0x00, returndatasize)\n    tag_276:\n      pop\n      pop\n      pop\n      pop\n      mload(0x40)\n      returndatasize\n      not(0x1f)\n      0x1f\n      dup3\n      add\n      and\n      dup3\n      add\n      dup1\n      0x40\n      mstore\n      pop\n      dup2\n      add\n      swap1\n      tag_277\n      swap2\n      swap1\n      tag_118\n      jump\t// in\n    tag_277:\n        /* \"contracts/Staking.sol\":3822:3859  token.balanceOf(msg.sender) > _amount */\n      gt\n        /* \"contracts/Staking.sol\":3814:3877  require(token.balanceOf(msg.sender) > _amount, \"Insufficient!\") */\n      tag_278\n      jumpi\n      mload(0x40)\n      0x08c379a000000000000000000000000000000000000000000000000000000000\n      dup2\n      mstore\n      0x04\n      add\n      tag_279\n      swap1\n      tag_201\n      jump\t// in\n    tag_279:\n      mload(0x40)\n      dup1\n      swap2\n      sub\n      swap1\n      revert\n    tag_278:\n        /* \"contracts/Staking.sol\":3926:3930  0x55 */\n      0x55\n        /* \"contracts/Staking.sol\":3896:3903  _staker */\n      0x0a\n        /* \"contracts/Staking.sol\":3896:3915  _staker[msg.sender] */\n      0x00\n        /* \"contracts/Staking.sol\":3904:3914  msg.sender */\n      caller\n        /* \"contracts/Staking.sol\":3896:3915  _staker[msg.sender] */\n      0xffffffffffffffffffffffffffffffffffffffff\n      and\n      0xffffffffffffffffffffffffffffffffffffffff\n      and\n      dup2\n      mstore\n      0x20\n      add\n      swap1\n      dup2\n      mstore\n      0x20\n      add\n      0x00\n      keccak256\n        /* \"contracts/Staking.sol\":3896:3922  _staker[msg.sender].staked */\n      0x05\n      add\n      sload\n        /* \"contracts/Staking.sol\":3896:3930  _staker[msg.sender].staked == 0x55 */\n      eq\n        /* \"contracts/Staking.sol\":3888:3956  require(_staker[msg.sender].staked == 0x55, \"Error: invalid staker\") */\n      tag_280\n      jumpi\n      mload(0x40)\n      0x08c379a000000000000000000000000000000000000000000000000000000000\n      dup2\n      mstore\n      0x04\n      add\n      tag_281\n      swap1\n      tag_282\n      jump\t// in\n    tag_281:\n      mload(0x40)\n      dup1\n      swap2\n      sub\n      swap1\n      revert\n    tag_280:\n        /* \"contracts/Staking.sol\":3977:3991  updateReward() */\n      tag_283\n        /* \"contracts/Staking.sol\":3977:3989  updateReward */\n      tag_112\n        /* \"contracts/Staking.sol\":3977:3991  updateReward() */\n      jump\t// in\n    tag_283:\n        /* \"contracts/Staking.sol\":4012:4070  token.safeTransferFrom(msg.sender, address(this), _amount) */\n      tag_284\n        /* \"contracts/Staking.sol\":4035:4045  msg.sender */\n      caller\n        /* \"contracts/Staking.sol\":4055:4059  this */\n      address\n        /* \"contracts/Staking.sol\":4062:4069  _amount */\n      dup4\n        /* \"contracts/Staking.sol\":4012:4017  token */\n      0x0c\n      0x00\n      swap1\n      sload\n      swap1\n      0x0100\n      exp\n      swap1\n      div\n      0xffffffffffffffffffffffffffffffffffffffff\n      and\n        /* \"contracts/Staking.sol\":4012:4034  token.safeTransferFrom */\n      0xffffffffffffffffffffffffffffffffffffffff\n      and\n      tag_285\n      swap1\n        /* \"contracts/Staking.sol\":4012:4070  token.safeTransferFrom(msg.sender, address(this), _amount) */\n      swap4\n      swap3\n      swap2\n      swap1\n      0xffffffff\n      and\n      jump\t// in\n    tag_284:\n        /* \"contracts/Staking.sol\":4116:4161  _staker[msg.sender].stakedAmount.add(_amount) */\n      tag_286\n        /* \"contracts/Staking.sol\":4153:4160  _amount */\n      dup2\n        /* \"contracts/Staking.sol\":4116:4123  _staker */\n      0x0a\n        /* \"contracts/Staking.sol\":4116:4135  _staker[msg.sender] */\n      0x00\n        /* \"contracts/Staking.sol\":4124:4134  msg.sender */\n      caller\n        /* \"contracts/Staking.sol\":4116:4135  _staker[msg.sender] */\n      0xffffffffffffffffffffffffffffffffffffffff\n      and\n      0xffffffffffffffffffffffffffffffffffffffff\n      and\n      dup2\n      mstore\n      0x20\n      add\n      swap1\n      dup2\n      mstore\n      0x20\n      add\n      0x00\n      keccak256\n        /* \"contracts/Staking.sol\":4116:4148  _staker[msg.sender].stakedAmount */\n      0x01\n      add\n      sload\n        /* \"contracts/Staking.sol\":4116:4152  _staker[msg.sender].stakedAmount.add */\n      tag_132\n      swap1\n        /* \"contracts/Staking.sol\":4116:4161  _staker[msg.sender].stakedAmount.add(_amount) */\n      swap2\n      swap1\n      0xffffffff\n      and\n      jump\t// in\n    tag_286:\n        /* \"contracts/Staking.sol\":4081:4088  _staker */\n      0x0a\n        /* \"contracts/Staking.sol\":4081:4100  _staker[msg.sender] */\n      0x00\n        /* \"contracts/Staking.sol\":4089:4099  msg.sender */\n      caller\n        /* \"contracts/Staking.sol\":4081:4100  _staker[msg.sender] */\n      0xffffffffffffffffffffffffffffffffffffffff\n      and\n      0xffffffffffffffffffffffffffffffffffffffff\n      and\n      dup2\n      mstore\n      0x20\n      add\n      swap1\n      dup2\n      mstore\n      0x20\n      add\n      0x00\n      keccak256\n        /* \"contracts/Staking.sol\":4081:4113  _staker[msg.sender].stakedAmount */\n      0x01\n      add\n        /* \"contracts/Staking.sol\":4081:4161  _staker[msg.sender].stakedAmount = _staker[msg.sender].stakedAmount.add(_amount) */\n      dup2\n      swap1\n      sstore\n      pop\n        /* \"contracts/Staking.sol\":4186:4210  totalStaked.add(_amount) */\n      tag_287\n        /* \"contracts/Staking.sol\":4202:4209  _amount */\n      dup2\n        /* \"contracts/Staking.sol\":4186:4197  totalStaked */\n      sload(0x0b)\n        /* \"contracts/Staking.sol\":4186:4201  totalStaked.add */\n      tag_132\n      swap1\n        /* \"contracts/Staking.sol\":4186:4210  totalStaked.add(_amount) */\n      swap2\n      swap1\n      0xffffffff\n      and\n      jump\t// in\n    tag_287:\n        /* \"contracts/Staking.sol\":4172:4183  totalStaked */\n      0x0b\n        /* \"contracts/Staking.sol\":4172:4210  totalStaked = totalStaked.add(_amount) */\n      dup2\n      swap1\n      sstore\n      pop\n        /* \"contracts/Staking.sol\":4236:4263  Staked(msg.sender, _amount) */\n      0x9e71bc8eea02a63969f509818f2dafb9254532904319f9dbda79b67bd34a5f3d\n        /* \"contracts/Staking.sol\":4243:4253  msg.sender */\n      caller\n        /* \"contracts/Staking.sol\":4255:4262  _amount */\n      dup3\n        /* \"contracts/Staking.sol\":4236:4263  Staked(msg.sender, _amount) */\n      mload(0x40)\n      tag_288\n      swap3\n      swap2\n      swap1\n      tag_147\n      jump\t// in\n    tag_288:\n      mload(0x40)\n      dup1\n      swap2\n      sub\n      swap1\n      log1\n        /* \"contracts/Staking.sol\":3689:4271  function stake(uint256 _amount) public{\r... */\n      pop\n      jump\t// out\n        /* \"contracts/Staking.sol\":4493:4627  function getStakerMode(address _address) public view returns (uint256) {\r... */\n    tag_86:\n        /* \"contracts/Staking.sol\":4555:4562  uint256 */\n      0x00\n        /* \"contracts/Staking.sol\":4610:4611  0 */\n      dup1\n        /* \"contracts/Staking.sol\":4584:4591  _staker */\n      0x0a\n        /* \"contracts/Staking.sol\":4584:4601  _staker[_address] */\n      0x00\n        /* \"contracts/Staking.sol\":4592:4600  _address */\n      dup5\n        /* \"contracts/Staking.sol\":4584:4601  _staker[_address] */\n      0xffffffffffffffffffffffffffffffffffffffff\n      and\n      0xffffffffffffffffffffffffffffffffffffffff\n      and\n      dup2\n      mstore\n      0x20\n      add\n      swap1\n      dup2\n      mstore\n      0x20\n      add\n      0x00\n      keccak256\n        /* \"contracts/Staking.sol\":4584:4606  _staker[_address].mode */\n      0x02\n      add\n      sload\n        /* \"contracts/Staking.sol\":4584:4611  _staker[_address].mode == 0 */\n      eq\n        /* \"contracts/Staking.sol\":4584:4619  _staker[_address].mode == 0 ? 0 : 1 */\n      tag_290\n      jumpi\n        /* \"contracts/Staking.sol\":4618:4619  1 */\n      0x01\n        /* \"contracts/Staking.sol\":4584:4619  _staker[_address].mode == 0 ? 0 : 1 */\n      jump(tag_291)\n    tag_290:\n        /* \"contracts/Staking.sol\":4614:4615  0 */\n      0x00\n        /* \"contracts/Staking.sol\":4584:4619  _staker[_address].mode == 0 ? 0 : 1 */\n    tag_291:\n        /* \"contracts/Staking.sol\":4577:4619  return _staker[_address].mode == 0 ? 0 : 1 */\n      0xff\n      and\n      swap1\n      pop\n        /* \"contracts/Staking.sol\":4493:4627  function getStakerMode(address _address) public view returns (uint256) {\r... */\n      swap2\n      swap1\n      pop\n      jump\t// out\n        /* \"@openzeppelin/contracts/access/Ownable.sol\":1918:2116  function transferOwnership(address newOwner) public virtual onlyOwner {... */\n    tag_90:\n        /* \"@openzeppelin/contracts/access/Ownable.sol\":1259:1271  _msgSender() */\n      tag_293\n        /* \"@openzeppelin/contracts/access/Ownable.sol\":1259:1269  _msgSender */\n      tag_182\n        /* \"@openzeppelin/contracts/access/Ownable.sol\":1259:1271  _msgSender() */\n      jump\t// in\n    tag_293:\n        /* \"@openzeppelin/contracts/access/Ownable.sol\":1248:1271  owner() == _msgSender() */\n      0xffffffffffffffffffffffffffffffffffffffff\n      and\n        /* \"@openzeppelin/contracts/access/Ownable.sol\":1248:1255  owner() */\n      tag_294\n        /* \"@openzeppelin/contracts/access/Ownable.sol\":1248:1253  owner */\n      tag_72\n        /* \"@openzeppelin/contracts/access/Ownable.sol\":1248:1255  owner() */\n      jump\t// in\n    tag_294:\n        /* \"@openzeppelin/contracts/access/Ownable.sol\":1248:1271  owner() == _msgSender() */\n      0xffffffffffffffffffffffffffffffffffffffff\n      and\n      eq\n        /* \"@openzeppelin/contracts/access/Ownable.sol\":1240:1308  require(owner() == _msgSender(), \"Ownable: caller is not the owner\") */\n      tag_295\n      jumpi\n      mload(0x40)\n      0x08c379a000000000000000000000000000000000000000000000000000000000\n      dup2\n      mstore\n      0x04\n      add\n      tag_296\n      swap1\n      tag_186\n      jump\t// in\n    tag_296:\n      mload(0x40)\n      dup1\n      swap2\n      sub\n      swap1\n      revert\n    tag_295:\n        /* \"@openzeppelin/contracts/access/Ownable.sol\":2026:2027  0 */\n      0x00\n        /* \"@openzeppelin/contracts/access/Ownable.sol\":2006:2028  newOwner != address(0) */\n      0xffffffffffffffffffffffffffffffffffffffff\n      and\n        /* \"@openzeppelin/contracts/access/Ownable.sol\":2006:2014  newOwner */\n      dup2\n        /* \"@openzeppelin/contracts/access/Ownable.sol\":2006:2028  newOwner != address(0) */\n      0xffffffffffffffffffffffffffffffffffffffff\n      and\n      eq\n      iszero\n        /* \"@openzeppelin/contracts/access/Ownable.sol\":1998:2071  require(newOwner != address(0), \"Ownable: new owner is the zero address\") */\n      tag_298\n      jumpi\n      mload(0x40)\n      0x08c379a000000000000000000000000000000000000000000000000000000000\n      dup2\n      mstore\n      0x04\n      add\n      tag_299\n      swap1\n      tag_300\n      jump\t// in\n    tag_299:\n      mload(0x40)\n      dup1\n      swap2\n      sub\n      swap1\n      revert\n    tag_298:\n        /* \"@openzeppelin/contracts/access/Ownable.sol\":2081:2109  _transferOwnership(newOwner) */\n      tag_301\n        /* \"@openzeppelin/contracts/access/Ownable.sol\":2100:2108  newOwner */\n      dup2\n        /* \"@openzeppelin/contracts/access/Ownable.sol\":2081:2099  _transferOwnership */\n      tag_247\n        /* \"@openzeppelin/contracts/access/Ownable.sol\":2081:2109  _transferOwnership(newOwner) */\n      jump\t// in\n    tag_301:\n        /* \"@openzeppelin/contracts/access/Ownable.sol\":1918:2116  function transferOwnership(address newOwner) public virtual onlyOwner {... */\n      pop\n      jump\t// out\n        /* \"contracts/Staking.sol\":5181:5317  function stakedAmount(address _address) public view returns (uint256) {\r... */\n    tag_93:\n        /* \"contracts/Staking.sol\":5242:5249  uint256 */\n      0x00\n        /* \"contracts/Staking.sol\":5279:5286  _staker */\n      0x0a\n        /* \"contracts/Staking.sol\":5279:5296  _staker[_address] */\n      0x00\n        /* \"contracts/Staking.sol\":5287:5295  _address */\n      dup4\n        /* \"contracts/Staking.sol\":5279:5296  _staker[_address] */\n      0xffffffffffffffffffffffffffffffffffffffff\n      and\n      0xffffffffffffffffffffffffffffffffffffffff\n      and\n      dup2\n      mstore\n      0x20\n      add\n      swap1\n      dup2\n      mstore\n      0x20\n      add\n      0x00\n      keccak256\n        /* \"contracts/Staking.sol\":5279:5309  _staker[_address].stakedAmount */\n      0x01\n      add\n      sload\n        /* \"contracts/Staking.sol\":5272:5309  return _staker[_address].stakedAmount */\n      swap1\n      pop\n        /* \"contracts/Staking.sol\":5181:5317  function stakedAmount(address _address) public view returns (uint256) {\r... */\n      swap2\n      swap1\n      pop\n      jump\t// out\n        /* \"contracts/Staking.sol\":1202:1221  IBEP20 public token */\n    tag_96:\n      0x0c\n      0x00\n      swap1\n      sload\n      swap1\n      0x0100\n      exp\n      swap1\n      div\n      0xffffffffffffffffffffffffffffffffffffffff\n      and\n      dup2\n      jump\t// out\n        /* \"contracts/Staking.sol\":4635:4759  function isStartStaking(address _address) public view returns (uint256) {\r... */\n    tag_101:\n        /* \"contracts/Staking.sol\":4698:4705  uint256 */\n      0x00\n        /* \"contracts/Staking.sol\":4727:4734  _staker */\n      0x0a\n        /* \"contracts/Staking.sol\":4727:4744  _staker[_address] */\n      0x00\n        /* \"contracts/Staking.sol\":4735:4743  _address */\n      dup4\n        /* \"contracts/Staking.sol\":4727:4744  _staker[_address] */\n      0xffffffffffffffffffffffffffffffffffffffff\n      and\n      0xffffffffffffffffffffffffffffffffffffffff\n      and\n      dup2\n      mstore\n      0x20\n      add\n      swap1\n      dup2\n      mstore\n      0x20\n      add\n      0x00\n      keccak256\n        /* \"contracts/Staking.sol\":4727:4751  _staker[_address].staked */\n      0x05\n      add\n      sload\n        /* \"contracts/Staking.sol\":4720:4751  return _staker[_address].staked */\n      swap1\n      pop\n        /* \"contracts/Staking.sol\":4635:4759  function isStartStaking(address _address) public view returns (uint256) {\r... */\n      swap2\n      swap1\n      pop\n      jump\t// out\n        /* \"contracts/Staking.sol\":2273:2730  function updateReward() private{\r... */\n    tag_112:\n        /* \"contracts/Staking.sol\":2325:2351  uint256 stakerStakedAmount */\n      0x00\n        /* \"contracts/Staking.sol\":2354:2361  _staker */\n      0x0a\n        /* \"contracts/Staking.sol\":2354:2373  _staker[msg.sender] */\n      0x00\n        /* \"contracts/Staking.sol\":2362:2372  msg.sender */\n      caller\n        /* \"contracts/Staking.sol\":2354:2373  _staker[msg.sender] */\n      0xffffffffffffffffffffffffffffffffffffffff\n      and\n      0xffffffffffffffffffffffffffffffffffffffff\n      and\n      dup2\n      mstore\n      0x20\n      add\n      swap1\n      dup2\n      mstore\n      0x20\n      add\n      0x00\n      keccak256\n        /* \"contracts/Staking.sol\":2354:2386  _staker[msg.sender].stakedAmount */\n      0x01\n      add\n      sload\n        /* \"contracts/Staking.sol\":2325:2386  uint256 stakerStakedAmount = _staker[msg.sender].stakedAmount */\n      swap1\n      pop\n        /* \"contracts/Staking.sol\":2407:2424  uint256 newReward */\n      0x00\n        /* \"contracts/Staking.sol\":2427:2547  stakerStakedAmount.mul(block.number.sub(_staker[msg.sender].lastUpdatedBlockNumber).div(8640)).mul(_rewardRate).div(1e4) */\n      tag_305\n        /* \"contracts/Staking.sol\":2543:2546  1e4 */\n      0x2710\n        /* \"contracts/Staking.sol\":2427:2538  stakerStakedAmount.mul(block.number.sub(_staker[msg.sender].lastUpdatedBlockNumber).div(8640)).mul(_rewardRate) */\n      tag_306\n        /* \"contracts/Staking.sol\":2526:2537  _rewardRate */\n      sload(0x03)\n        /* \"contracts/Staking.sol\":2427:2521  stakerStakedAmount.mul(block.number.sub(_staker[msg.sender].lastUpdatedBlockNumber).div(8640)) */\n      tag_307\n        /* \"contracts/Staking.sol\":2450:2520  block.number.sub(_staker[msg.sender].lastUpdatedBlockNumber).div(8640) */\n      tag_308\n        /* \"contracts/Staking.sol\":2515:2519  8640 */\n      0x21c0\n        /* \"contracts/Staking.sol\":2450:2510  block.number.sub(_staker[msg.sender].lastUpdatedBlockNumber) */\n      tag_309\n        /* \"contracts/Staking.sol\":2467:2474  _staker */\n      0x0a\n        /* \"contracts/Staking.sol\":2467:2486  _staker[msg.sender] */\n      0x00\n        /* \"contracts/Staking.sol\":2475:2485  msg.sender */\n      caller\n        /* \"contracts/Staking.sol\":2467:2486  _staker[msg.sender] */\n      0xffffffffffffffffffffffffffffffffffffffff\n      and\n      0xffffffffffffffffffffffffffffffffffffffff\n      and\n      dup2\n      mstore\n      0x20\n      add\n      swap1\n      dup2\n      mstore\n      0x20\n      add\n      0x00\n      keccak256\n        /* \"contracts/Staking.sol\":2467:2509  _staker[msg.sender].lastUpdatedBlockNumber */\n      0x04\n      add\n      sload\n        /* \"contracts/Staking.sol\":2450:2462  block.number */\n      number\n        /* \"contracts/Staking.sol\":2450:2466  block.number.sub */\n      tag_128\n      swap1\n        /* \"contracts/Staking.sol\":2450:2510  block.number.sub(_staker[msg.sender].lastUpdatedBlockNumber) */\n      swap2\n      swap1\n      0xffffffff\n      and\n      jump\t// in\n    tag_309:\n        /* \"contracts/Staking.sol\":2450:2514  block.number.sub(_staker[msg.sender].lastUpdatedBlockNumber).div */\n      tag_129\n      swap1\n        /* \"contracts/Staking.sol\":2450:2520  block.number.sub(_staker[msg.sender].lastUpdatedBlockNumber).div(8640) */\n      swap2\n      swap1\n      0xffffffff\n      and\n      jump\t// in\n    tag_308:\n        /* \"contracts/Staking.sol\":2427:2445  stakerStakedAmount */\n      dup8\n        /* \"contracts/Staking.sol\":2427:2449  stakerStakedAmount.mul */\n      tag_141\n      swap1\n        /* \"contracts/Staking.sol\":2427:2521  stakerStakedAmount.mul(block.number.sub(_staker[msg.sender].lastUpdatedBlockNumber).div(8640)) */\n      swap2\n      swap1\n      0xffffffff\n      and\n      jump\t// in\n    tag_307:\n        /* \"contracts/Staking.sol\":2427:2525  stakerStakedAmount.mul(block.number.sub(_staker[msg.sender].lastUpdatedBlockNumber).div(8640)).mul */\n      tag_141\n      swap1\n        /* \"contracts/Staking.sol\":2427:2538  stakerStakedAmount.mul(block.number.sub(_staker[msg.sender].lastUpdatedBlockNumber).div(8640)).mul(_rewardRate) */\n      swap2\n      swap1\n      0xffffffff\n      and\n      jump\t// in\n    tag_306:\n        /* \"contracts/Staking.sol\":2427:2542  stakerStakedAmount.mul(block.number.sub(_staker[msg.sender].lastUpdatedBlockNumber).div(8640)).mul(_rewardRate).div */\n      tag_129\n      swap1\n        /* \"contracts/Staking.sol\":2427:2547  stakerStakedAmount.mul(block.number.sub(_staker[msg.sender].lastUpdatedBlockNumber).div(8640)).mul(_rewardRate).div(1e4) */\n      swap2\n      swap1\n      0xffffffff\n      and\n      jump\t// in\n    tag_305:\n        /* \"contracts/Staking.sol\":2407:2547  uint256 newReward = stakerStakedAmount.mul(block.number.sub(_staker[msg.sender].lastUpdatedBlockNumber).div(8640)).mul(_rewardRate).div(1e4) */\n      swap1\n      pop\n        /* \"contracts/Staking.sol\":2600:2654  _staker[msg.sender].stakerCurrentReward.add(newReward) */\n      tag_310\n        /* \"contracts/Staking.sol\":2644:2653  newReward */\n      dup2\n        /* \"contracts/Staking.sol\":2600:2607  _staker */\n      0x0a\n        /* \"contracts/Staking.sol\":2600:2619  _staker[msg.sender] */\n      0x00\n        /* \"contracts/Staking.sol\":2608:2618  msg.sender */\n      caller\n        /* \"contracts/Staking.sol\":2600:2619  _staker[msg.sender] */\n      0xffffffffffffffffffffffffffffffffffffffff\n      and\n      0xffffffffffffffffffffffffffffffffffffffff\n      and\n      dup2\n      mstore\n      0x20\n      add\n      swap1\n      dup2\n      mstore\n      0x20\n      add\n      0x00\n      keccak256\n        /* \"contracts/Staking.sol\":2600:2639  _staker[msg.sender].stakerCurrentReward */\n      0x00\n      add\n      sload\n        /* \"contracts/Staking.sol\":2600:2643  _staker[msg.sender].stakerCurrentReward.add */\n      tag_132\n      swap1\n        /* \"contracts/Staking.sol\":2600:2654  _staker[msg.sender].stakerCurrentReward.add(newReward) */\n      swap2\n      swap1\n      0xffffffff\n      and\n      jump\t// in\n    tag_310:\n        /* \"contracts/Staking.sol\":2558:2565  _staker */\n      0x0a\n        /* \"contracts/Staking.sol\":2558:2577  _staker[msg.sender] */\n      0x00\n        /* \"contracts/Staking.sol\":2566:2576  msg.sender */\n      caller\n        /* \"contracts/Staking.sol\":2558:2577  _staker[msg.sender] */\n      0xffffffffffffffffffffffffffffffffffffffff\n      and\n      0xffffffffffffffffffffffffffffffffffffffff\n      and\n      dup2\n      mstore\n      0x20\n      add\n      swap1\n      dup2\n      mstore\n      0x20\n      add\n      0x00\n      keccak256\n        /* \"contracts/Staking.sol\":2558:2597  _staker[msg.sender].stakerCurrentReward */\n      0x00\n      add\n        /* \"contracts/Staking.sol\":2558:2654  _staker[msg.sender].stakerCurrentReward = _staker[msg.sender].stakerCurrentReward.add(newReward) */\n      dup2\n      swap1\n      sstore\n      pop\n        /* \"contracts/Staking.sol\":2710:2722  block.number */\n      number\n        /* \"contracts/Staking.sol\":2665:2672  _staker */\n      0x0a\n        /* \"contracts/Staking.sol\":2665:2684  _staker[msg.sender] */\n      0x00\n        /* \"contracts/Staking.sol\":2673:2683  msg.sender */\n      caller\n        /* \"contracts/Staking.sol\":2665:2684  _staker[msg.sender] */\n      0xffffffffffffffffffffffffffffffffffffffff\n      and\n      0xffffffffffffffffffffffffffffffffffffffff\n      and\n      dup2\n      mstore\n      0x20\n      add\n      swap1\n      dup2\n      mstore\n      0x20\n      add\n      0x00\n      keccak256\n        /* \"contracts/Staking.sol\":2665:2707  _staker[msg.sender].lastUpdatedBlockNumber */\n      0x04\n      add\n        /* \"contracts/Staking.sol\":2665:2722  _staker[msg.sender].lastUpdatedBlockNumber = block.number */\n      dup2\n      swap1\n      sstore\n      pop\n        /* \"contracts/Staking.sol\":2304:2730  {\r... */\n      pop\n      pop\n        /* \"contracts/Staking.sol\":2273:2730  function updateReward() private{\r... */\n      jump\t// out\n        /* \"@openzeppelin/contracts/utils/math/SafeMath.sol\":3108:3204  function sub(uint256 a, uint256 b) internal pure returns (uint256) {... */\n    tag_128:\n        /* \"@openzeppelin/contracts/utils/math/SafeMath.sol\":3166:3173  uint256 */\n      0x00\n        /* \"@openzeppelin/contracts/utils/math/SafeMath.sol\":3196:3197  b */\n      dup2\n        /* \"@openzeppelin/contracts/utils/math/SafeMath.sol\":3192:3193  a */\n      dup4\n        /* \"@openzeppelin/contracts/utils/math/SafeMath.sol\":3192:3197  a - b */\n      tag_312\n      swap2\n      swap1\n      tag_313\n      jump\t// in\n    tag_312:\n        /* \"@openzeppelin/contracts/utils/math/SafeMath.sol\":3185:3197  return a - b */\n      swap1\n      pop\n        /* \"@openzeppelin/contracts/utils/math/SafeMath.sol\":3108:3204  function sub(uint256 a, uint256 b) internal pure returns (uint256) {... */\n      swap3\n      swap2\n      pop\n      pop\n      jump\t// out\n        /* \"@openzeppelin/contracts/utils/math/SafeMath.sol\":3836:3932  function div(uint256 a, uint256 b) internal pure returns (uint256) {... */\n    tag_129:\n        /* \"@openzeppelin/contracts/utils/math/SafeMath.sol\":3894:3901  uint256 */\n      0x00\n        /* \"@openzeppelin/contracts/utils/math/SafeMath.sol\":3924:3925  b */\n      dup2\n        /* \"@openzeppelin/contracts/utils/math/SafeMath.sol\":3920:3921  a */\n      dup4\n        /* \"@openzeppelin/contracts/utils/math/SafeMath.sol\":3920:3925  a / b */\n      tag_315\n      swap2\n      swap1\n      tag_316\n      jump\t// in\n    tag_315:\n        /* \"@openzeppelin/contracts/utils/math/SafeMath.sol\":3913:3925  return a / b */\n      swap1\n      pop\n        /* \"@openzeppelin/contracts/utils/math/SafeMath.sol\":3836:3932  function div(uint256 a, uint256 b) internal pure returns (uint256) {... */\n      swap3\n      swap2\n      pop\n      pop\n      jump\t// out\n        /* \"@openzeppelin/contracts/utils/math/SafeMath.sol\":2741:2837  function add(uint256 a, uint256 b) internal pure returns (uint256) {... */\n    tag_132:\n        /* \"@openzeppelin/contracts/utils/math/SafeMath.sol\":2799:2806  uint256 */\n      0x00\n        /* \"@openzeppelin/contracts/utils/math/SafeMath.sol\":2829:2830  b */\n      dup2\n        /* \"@openzeppelin/contracts/utils/math/SafeMath.sol\":2825:2826  a */\n      dup4\n        /* \"@openzeppelin/contracts/utils/math/SafeMath.sol\":2825:2830  a + b */\n      tag_318\n      swap2\n      swap1\n      tag_319\n      jump\t// in\n    tag_318:\n        /* \"@openzeppelin/contracts/utils/math/SafeMath.sol\":2818:2830  return a + b */\n      swap1\n      pop\n        /* \"@openzeppelin/contracts/utils/math/SafeMath.sol\":2741:2837  function add(uint256 a, uint256 b) internal pure returns (uint256) {... */\n      swap3\n      swap2\n      pop\n      pop\n      jump\t// out\n        /* \"@openzeppelin/contracts/utils/math/SafeMath.sol\":3451:3547  function mul(uint256 a, uint256 b) internal pure returns (uint256) {... */\n    tag_141:\n        /* \"@openzeppelin/contracts/utils/math/SafeMath.sol\":3509:3516  uint256 */\n      0x00\n        /* \"@openzeppelin/contracts/utils/math/SafeMath.sol\":3539:3540  b */\n      dup2\n        /* \"@openzeppelin/contracts/utils/math/SafeMath.sol\":3535:3536  a */\n      dup4\n        /* \"@openzeppelin/contracts/utils/math/SafeMath.sol\":3535:3540  a * b */\n      tag_321\n      swap2\n      swap1\n      tag_322\n      jump\t// in\n    tag_321:\n        /* \"@openzeppelin/contracts/utils/math/SafeMath.sol\":3528:3540  return a * b */\n      swap1\n      pop\n        /* \"@openzeppelin/contracts/utils/math/SafeMath.sol\":3451:3547  function mul(uint256 a, uint256 b) internal pure returns (uint256) {... */\n      swap3\n      swap2\n      pop\n      pop\n      jump\t// out\n        /* \"contracts/SafeBEP20.sol\":290:467  function safeTransfer(IBEP20 token, address to, uint256 value) internal {\r... */\n    tag_145:\n        /* \"contracts/SafeBEP20.sol\":373:459  _callOptionalReturn(token, abi.encodeWithSelector(token.transfer.selector, to, value)) */\n      tag_324\n        /* \"contracts/SafeBEP20.sol\":393:398  token */\n      dup4\n        /* \"contracts/SafeBEP20.sol\":423:446  token.transfer.selector */\n      shl(0xe0, 0xa9059cbb)\n        /* \"contracts/SafeBEP20.sol\":448:450  to */\n      dup5\n        /* \"contracts/SafeBEP20.sol\":452:457  value */\n      dup5\n        /* \"contracts/SafeBEP20.sol\":400:458  abi.encodeWithSelector(token.transfer.selector, to, value) */\n      add(0x24, mload(0x40))\n      tag_325\n      swap3\n      swap2\n      swap1\n      tag_147\n      jump\t// in\n    tag_325:\n      mload(0x40)\n      0x20\n      dup2\n      dup4\n      sub\n      sub\n      dup2\n      mstore\n      swap1\n      0x40\n      mstore\n      swap1\n      not(0xffffffffffffffffffffffffffffffffffffffffffffffffffffffff)\n      and\n      0x20\n      dup3\n      add\n      dup1\n      mload\n      0xffffffffffffffffffffffffffffffffffffffffffffffffffffffff\n      dup4\n      dup2\n      dup4\n      and\n      or\n      dup4\n      mstore\n      pop\n      pop\n      pop\n      pop\n        /* \"contracts/SafeBEP20.sol\":373:392  _callOptionalReturn */\n      tag_326\n        /* \"contracts/SafeBEP20.sol\":373:459  _callOptionalReturn(token, abi.encodeWithSelector(token.transfer.selector, to, value)) */\n      jump\t// in\n    tag_324:\n        /* \"contracts/SafeBEP20.sol\":290:467  function safeTransfer(IBEP20 token, address to, uint256 value) internal {\r... */\n      pop\n      pop\n      pop\n      jump\t// out\n        /* \"@openzeppelin/contracts/utils/Context.sol\":640:736  function _msgSender() internal view virtual returns (address) {... */\n    tag_182:\n        /* \"@openzeppelin/contracts/utils/Context.sol\":693:700  address */\n      0x00\n        /* \"@openzeppelin/contracts/utils/Context.sol\":719:729  msg.sender */\n      caller\n        /* \"@openzeppelin/contracts/utils/Context.sol\":712:729  return msg.sender */\n      swap1\n      pop\n        /* \"@openzeppelin/contracts/utils/Context.sol\":640:736  function _msgSender() internal view virtual returns (address) {... */\n      swap1\n      jump\t// out\n        /* \"@openzeppelin/contracts/access/Ownable.sol\":2270:2457  function _transferOwnership(address newOwner) internal virtual {... */\n    tag_247:\n        /* \"@openzeppelin/contracts/access/Ownable.sol\":2343:2359  address oldOwner */\n      0x00\n        /* \"@openzeppelin/contracts/access/Ownable.sol\":2362:2368  _owner */\n      dup1\n      0x00\n      swap1\n      sload\n      swap1\n      0x0100\n      exp\n      swap1\n      div\n      0xffffffffffffffffffffffffffffffffffffffff\n      and\n        /* \"@openzeppelin/contracts/access/Ownable.sol\":2343:2368  address oldOwner = _owner */\n      swap1\n      pop\n        /* \"@openzeppelin/contracts/access/Ownable.sol\":2387:2395  newOwner */\n      dup2\n        /* \"@openzeppelin/contracts/access/Ownable.sol\":2378:2384  _owner */\n      0x00\n      dup1\n        /* \"@openzeppelin/contracts/access/Ownable.sol\":2378:2395  _owner = newOwner */\n      0x0100\n      exp\n      dup2\n      sload\n      dup2\n      0xffffffffffffffffffffffffffffffffffffffff\n      mul\n      not\n      and\n      swap1\n      dup4\n      0xffffffffffffffffffffffffffffffffffffffff\n      and\n      mul\n      or\n      swap1\n      sstore\n      pop\n        /* \"@openzeppelin/contracts/access/Ownable.sol\":2441:2449  newOwner */\n      dup2\n        /* \"@openzeppelin/contracts/access/Ownable.sol\":2410:2450  OwnershipTransferred(oldOwner, newOwner) */\n      0xffffffffffffffffffffffffffffffffffffffff\n      and\n        /* \"@openzeppelin/contracts/access/Ownable.sol\":2431:2439  oldOwner */\n      dup2\n        /* \"@openzeppelin/contracts/access/Ownable.sol\":2410:2450  OwnershipTransferred(oldOwner, newOwner) */\n      0xffffffffffffffffffffffffffffffffffffffff\n      and\n      0x8be0079c531659141344cd1fd0a4f28419497f9722a3daafe3b4186f6b6457e0\n      mload(0x40)\n      mload(0x40)\n      dup1\n      swap2\n      sub\n      swap1\n      log3\n        /* \"@openzeppelin/contracts/access/Ownable.sol\":2333:2457  {... */\n      pop\n        /* \"@openzeppelin/contracts/access/Ownable.sol\":2270:2457  function _transferOwnership(address newOwner) internal virtual {... */\n      pop\n      jump\t// out\n        /* \"contracts/SafeBEP20.sol\":475:680  function safeTransferFrom(IBEP20 token, address from, address to, uint256 value) internal {\r... */\n    tag_285:\n        /* \"contracts/SafeBEP20.sol\":576:672  _callOptionalReturn(token, abi.encodeWithSelector(token.transferFrom.selector, from, to, value)) */\n      tag_330\n        /* \"contracts/SafeBEP20.sol\":596:601  token */\n      dup5\n        /* \"contracts/SafeBEP20.sol\":626:653  token.transferFrom.selector */\n      shl(0xe0, 0x23b872dd)\n        /* \"contracts/SafeBEP20.sol\":655:659  from */\n      dup6\n        /* \"contracts/SafeBEP20.sol\":661:663  to */\n      dup6\n        /* \"contracts/SafeBEP20.sol\":665:670  value */\n      dup6\n        /* \"contracts/SafeBEP20.sol\":603:671  abi.encodeWithSelector(token.transferFrom.selector, from, to, value) */\n      add(0x24, mload(0x40))\n      tag_331\n      swap4\n      swap3\n      swap2\n      swap1\n      tag_332\n      jump\t// in\n    tag_331:\n      mload(0x40)\n      0x20\n      dup2\n      dup4\n      sub\n      sub\n      dup2\n      mstore\n      swap1\n      0x40\n      mstore\n      swap1\n      not(0xffffffffffffffffffffffffffffffffffffffffffffffffffffffff)\n      and\n      0x20\n      dup3\n      add\n      dup1\n      mload\n      0xffffffffffffffffffffffffffffffffffffffffffffffffffffffff\n      dup4\n      dup2\n      dup4\n      and\n      or\n      dup4\n      mstore\n      pop\n      pop\n      pop\n      pop\n        /* \"contracts/SafeBEP20.sol\":576:595  _callOptionalReturn */\n      tag_326\n        /* \"contracts/SafeBEP20.sol\":576:672  _callOptionalReturn(token, abi.encodeWithSelector(token.transferFrom.selector, from, to, value)) */\n      jump\t// in\n    tag_330:\n        /* \"contracts/SafeBEP20.sol\":475:680  function safeTransferFrom(IBEP20 token, address from, address to, uint256 value) internal {\r... */\n      pop\n      pop\n      pop\n      pop\n      jump\t// out\n        /* \"contracts/SafeBEP20.sol\":2599:3368  function _callOptionalReturn(IBEP20 token, bytes memory data) private {\r... */\n    tag_326:\n        /* \"contracts/SafeBEP20.sol\":3031:3054  bytes memory returndata */\n      0x00\n        /* \"contracts/SafeBEP20.sol\":3057:3126  address(token).functionCall(data, \"SafeBEP20: low-level call failed\") */\n      tag_334\n        /* \"contracts/SafeBEP20.sol\":3085:3089  data */\n      dup3\n        /* \"contracts/SafeBEP20.sol\":3057:3126  address(token).functionCall(data, \"SafeBEP20: low-level call failed\") */\n      mload(0x40)\n      dup1\n      0x40\n      add\n      0x40\n      mstore\n      dup1\n      0x20\n      dup2\n      mstore\n      0x20\n      add\n      0x5361666542455032303a206c6f772d6c6576656c2063616c6c206661696c6564\n      dup2\n      mstore\n      pop\n        /* \"contracts/SafeBEP20.sol\":3065:3070  token */\n      dup6\n        /* \"contracts/SafeBEP20.sol\":3057:3084  address(token).functionCall */\n      0xffffffffffffffffffffffffffffffffffffffff\n      and\n      tag_335\n      swap1\n        /* \"contracts/SafeBEP20.sol\":3057:3126  address(token).functionCall(data, \"SafeBEP20: low-level call failed\") */\n      swap3\n      swap2\n      swap1\n      0xffffffff\n      and\n      jump\t// in\n    tag_334:\n        /* \"contracts/SafeBEP20.sol\":3031:3126  bytes memory returndata = address(token).functionCall(data, \"SafeBEP20: low-level call failed\") */\n      swap1\n      pop\n        /* \"contracts/SafeBEP20.sol\":3161:3162  0 */\n      0x00\n        /* \"contracts/SafeBEP20.sol\":3141:3151  returndata */\n      dup2\n        /* \"contracts/SafeBEP20.sol\":3141:3158  returndata.length */\n      mload\n        /* \"contracts/SafeBEP20.sol\":3141:3162  returndata.length > 0 */\n      gt\n        /* \"contracts/SafeBEP20.sol\":3137:3361  if (returndata.length > 0) { // Return data is optional\r... */\n      iszero\n      tag_336\n      jumpi\n        /* \"contracts/SafeBEP20.sol\":3283:3293  returndata */\n      dup1\n        /* \"contracts/SafeBEP20.sol\":3272:3302  abi.decode(returndata, (bool)) */\n      dup1\n      0x20\n      add\n      swap1\n      mload\n      dup2\n      add\n      swap1\n      tag_337\n      swap2\n      swap1\n      tag_338\n      jump\t// in\n    tag_337:\n        /* \"contracts/SafeBEP20.sol\":3264:3349  require(abi.decode(returndata, (bool)), \"SafeBEP20: BEP20 operation did not succeed\") */\n      tag_339\n      jumpi\n      mload(0x40)\n      0x08c379a000000000000000000000000000000000000000000000000000000000\n      dup2\n      mstore\n      0x04\n      add\n      tag_340\n      swap1\n      tag_341\n      jump\t// in\n    tag_340:\n      mload(0x40)\n      dup1\n      swap2\n      sub\n      swap1\n      revert\n    tag_339:\n        /* \"contracts/SafeBEP20.sol\":3137:3361  if (returndata.length > 0) { // Return data is optional\r... */\n    tag_336:\n        /* \"contracts/SafeBEP20.sol\":2669:3368  {\r... */\n      pop\n        /* \"contracts/SafeBEP20.sol\":2599:3368  function _callOptionalReturn(IBEP20 token, bytes memory data) private {\r... */\n      pop\n      pop\n      jump\t// out\n        /* \"@openzeppelin/contracts/utils/Address.sol\":3861:4084  function functionCall(... */\n    tag_335:\n        /* \"@openzeppelin/contracts/utils/Address.sol\":3994:4006  bytes memory */\n      0x60\n        /* \"@openzeppelin/contracts/utils/Address.sol\":4025:4077  functionCallWithValue(target, data, 0, errorMessage) */\n      tag_343\n        /* \"@openzeppelin/contracts/utils/Address.sol\":4047:4053  target */\n      dup5\n        /* \"@openzeppelin/contracts/utils/Address.sol\":4055:4059  data */\n      dup5\n        /* \"@openzeppelin/contracts/utils/Address.sol\":4061:4062  0 */\n      0x00\n        /* \"@openzeppelin/contracts/utils/Address.sol\":4064:4076  errorMessage */\n      dup6\n        /* \"@openzeppelin/contracts/utils/Address.sol\":4025:4046  functionCallWithValue */\n      tag_344\n        /* \"@openzeppelin/contracts/utils/Address.sol\":4025:4077  functionCallWithValue(target, data, 0, errorMessage) */\n      jump\t// in\n    tag_343:\n        /* \"@openzeppelin/contracts/utils/Address.sol\":4018:4077  return functionCallWithValue(target, data, 0, errorMessage) */\n      swap1\n      pop\n        /* \"@openzeppelin/contracts/utils/Address.sol\":3861:4084  function functionCall(... */\n      swap4\n      swap3\n      pop\n      pop\n      pop\n      jump\t// out\n        /* \"@openzeppelin/contracts/utils/Address.sol\":4948:5447  function functionCallWithValue(... */\n    tag_344:\n        /* \"@openzeppelin/contracts/utils/Address.sol\":5113:5125  bytes memory */\n      0x60\n        /* \"@openzeppelin/contracts/utils/Address.sol\":5170:5175  value */\n      dup3\n        /* \"@openzeppelin/contracts/utils/Address.sol\":5145:5166  address(this).balance */\n      selfbalance\n        /* \"@openzeppelin/contracts/utils/Address.sol\":5145:5175  address(this).balance >= value */\n      lt\n      iszero\n        /* \"@openzeppelin/contracts/utils/Address.sol\":5137:5218  require(address(this).balance >= value, \"Address: insufficient balance for call\") */\n      tag_346\n      jumpi\n      mload(0x40)\n      0x08c379a000000000000000000000000000000000000000000000000000000000\n      dup2\n      mstore\n      0x04\n      add\n      tag_347\n      swap1\n      tag_348\n      jump\t// in\n    tag_347:\n      mload(0x40)\n      dup1\n      swap2\n      sub\n      swap1\n      revert\n    tag_346:\n        /* \"@openzeppelin/contracts/utils/Address.sol\":5236:5254  isContract(target) */\n      tag_349\n        /* \"@openzeppelin/contracts/utils/Address.sol\":5247:5253  target */\n      dup6\n        /* \"@openzeppelin/contracts/utils/Address.sol\":5236:5246  isContract */\n      tag_350\n        /* \"@openzeppelin/contracts/utils/Address.sol\":5236:5254  isContract(target) */\n      jump\t// in\n    tag_349:\n        /* \"@openzeppelin/contracts/utils/Address.sol\":5228:5288  require(isContract(target), \"Address: call to non-contract\") */\n      tag_351\n      jumpi\n      mload(0x40)\n      0x08c379a000000000000000000000000000000000000000000000000000000000\n      dup2\n      mstore\n      0x04\n      add\n      tag_352\n      swap1\n      tag_353\n      jump\t// in\n    tag_352:\n      mload(0x40)\n      dup1\n      swap2\n      sub\n      swap1\n      revert\n    tag_351:\n        /* \"@openzeppelin/contracts/utils/Address.sol\":5300:5312  bool success */\n      0x00\n        /* \"@openzeppelin/contracts/utils/Address.sol\":5314:5337  bytes memory returndata */\n      dup1\n        /* \"@openzeppelin/contracts/utils/Address.sol\":5341:5347  target */\n      dup7\n        /* \"@openzeppelin/contracts/utils/Address.sol\":5341:5352  target.call */\n      0xffffffffffffffffffffffffffffffffffffffff\n      and\n        /* \"@openzeppelin/contracts/utils/Address.sol\":5360:5365  value */\n      dup6\n        /* \"@openzeppelin/contracts/utils/Address.sol\":5367:5371  data */\n      dup8\n        /* \"@openzeppelin/contracts/utils/Address.sol\":5341:5372  target.call{value: value}(data) */\n      mload(0x40)\n      tag_354\n      swap2\n      swap1\n      tag_355\n      jump\t// in\n    tag_354:\n      0x00\n      mload(0x40)\n      dup1\n      dup4\n      sub\n      dup2\n      dup6\n      dup8\n      gas\n      call\n      swap3\n      pop\n      pop\n      pop\n      returndatasize\n      dup1\n      0x00\n      dup2\n      eq\n      tag_358\n      jumpi\n      mload(0x40)\n      swap2\n      pop\n      and(add(returndatasize, 0x3f), not(0x1f))\n      dup3\n      add\n      0x40\n      mstore\n      returndatasize\n      dup3\n      mstore\n      returndatasize\n      0x00\n      0x20\n      dup5\n      add\n      returndatacopy\n      jump(tag_357)\n    tag_358:\n      0x60\n      swap2\n      pop\n    tag_357:\n      pop\n        /* \"@openzeppelin/contracts/utils/Address.sol\":5299:5372  (bool success, bytes memory returndata) = target.call{value: value}(data) */\n      swap2\n      pop\n      swap2\n      pop\n        /* \"@openzeppelin/contracts/utils/Address.sol\":5389:5440  verifyCallResult(success, returndata, errorMessage) */\n      tag_359\n        /* \"@openzeppelin/contracts/utils/Address.sol\":5406:5413  success */\n      dup3\n        /* \"@openzeppelin/contracts/utils/Address.sol\":5415:5425  returndata */\n      dup3\n        /* \"@openzeppelin/contracts/utils/Address.sol\":5427:5439  errorMessage */\n      dup7\n        /* \"@openzeppelin/contracts/utils/Address.sol\":5389:5405  verifyCallResult */\n      tag_360\n        /* \"@openzeppelin/contracts/utils/Address.sol\":5389:5440  verifyCallResult(success, returndata, errorMessage) */\n      jump\t// in\n    tag_359:\n        /* \"@openzeppelin/contracts/utils/Address.sol\":5382:5440  return verifyCallResult(success, returndata, errorMessage) */\n      swap3\n      pop\n      pop\n      pop\n        /* \"@openzeppelin/contracts/utils/Address.sol\":4948:5447  function functionCallWithValue(... */\n      swap5\n      swap4\n      pop\n      pop\n      pop\n      pop\n      jump\t// out\n        /* \"@openzeppelin/contracts/utils/Address.sol\":1175:1495  function isContract(address account) internal view returns (bool) {... */\n    tag_350:\n        /* \"@openzeppelin/contracts/utils/Address.sol\":1235:1239  bool */\n      0x00\n        /* \"@openzeppelin/contracts/utils/Address.sol\":1487:1488  0 */\n      dup1\n        /* \"@openzeppelin/contracts/utils/Address.sol\":1465:1472  account */\n      dup3\n        /* \"@openzeppelin/contracts/utils/Address.sol\":1465:1484  account.code.length */\n      0xffffffffffffffffffffffffffffffffffffffff\n      and\n      extcodesize\n        /* \"@openzeppelin/contracts/utils/Address.sol\":1465:1488  account.code.length > 0 */\n      gt\n        /* \"@openzeppelin/contracts/utils/Address.sol\":1458:1488  return account.code.length > 0 */\n      swap1\n      pop\n        /* \"@openzeppelin/contracts/utils/Address.sol\":1175:1495  function isContract(address account) internal view returns (bool) {... */\n      swap2\n      swap1\n      pop\n      jump\t// out\n        /* \"@openzeppelin/contracts/utils/Address.sol\":7561:8253  function verifyCallResult(... */\n    tag_360:\n        /* \"@openzeppelin/contracts/utils/Address.sol\":7707:7719  bytes memory */\n      0x60\n        /* \"@openzeppelin/contracts/utils/Address.sol\":7735:7742  success */\n      dup4\n        /* \"@openzeppelin/contracts/utils/Address.sol\":7731:8247  if (success) {... */\n      iszero\n      tag_363\n      jumpi\n        /* \"@openzeppelin/contracts/utils/Address.sol\":7765:7775  returndata */\n      dup3\n        /* \"@openzeppelin/contracts/utils/Address.sol\":7758:7775  return returndata */\n      swap1\n      pop\n      jump(tag_362)\n        /* \"@openzeppelin/contracts/utils/Address.sol\":7731:8247  if (success) {... */\n    tag_363:\n        /* \"@openzeppelin/contracts/utils/Address.sol\":7896:7897  0 */\n      0x00\n        /* \"@openzeppelin/contracts/utils/Address.sol\":7876:7886  returndata */\n      dup4\n        /* \"@openzeppelin/contracts/utils/Address.sol\":7876:7893  returndata.length */\n      mload\n        /* \"@openzeppelin/contracts/utils/Address.sol\":7876:7897  returndata.length > 0 */\n      gt\n        /* \"@openzeppelin/contracts/utils/Address.sol\":7872:8237  if (returndata.length > 0) {... */\n      iszero\n      tag_365\n      jumpi\n        /* \"@openzeppelin/contracts/utils/Address.sol\":8070:8080  returndata */\n      dup3\n        /* \"@openzeppelin/contracts/utils/Address.sol\":8064:8081  mload(returndata) */\n      mload\n        /* \"@openzeppelin/contracts/utils/Address.sol\":8130:8145  returndata_size */\n      dup1\n        /* \"@openzeppelin/contracts/utils/Address.sol\":8117:8127  returndata */\n      dup5\n        /* \"@openzeppelin/contracts/utils/Address.sol\":8113:8115  32 */\n      0x20\n        /* \"@openzeppelin/contracts/utils/Address.sol\":8109:8128  add(32, returndata) */\n      add\n        /* \"@openzeppelin/contracts/utils/Address.sol\":8102:8146  revert(add(32, returndata), returndata_size) */\n      revert\n        /* \"@openzeppelin/contracts/utils/Address.sol\":7872:8237  if (returndata.length > 0) {... */\n    tag_365:\n        /* \"@openzeppelin/contracts/utils/Address.sol\":8209:8221  errorMessage */\n      dup2\n        /* \"@openzeppelin/contracts/utils/Address.sol\":8202:8222  revert(errorMessage) */\n      mload(0x40)\n      0x08c379a000000000000000000000000000000000000000000000000000000000\n      dup2\n      mstore\n      0x04\n      add\n      tag_367\n      swap2\n      swap1\n      tag_368\n      jump\t// in\n    tag_367:\n      mload(0x40)\n      dup1\n      swap2\n      sub\n      swap1\n      revert\n        /* \"@openzeppelin/contracts/utils/Address.sol\":7561:8253  function verifyCallResult(... */\n    tag_362:\n      swap4\n      swap3\n      pop\n      pop\n      pop\n      jump\t// out\n        /* \"#utility.yul\":7:146   */\n    tag_370:\n        /* \"#utility.yul\":53:58   */\n      0x00\n        /* \"#utility.yul\":91:97   */\n      dup2\n        /* \"#utility.yul\":78:98   */\n      calldataload\n        /* \"#utility.yul\":69:98   */\n      swap1\n      pop\n        /* \"#utility.yul\":107:140   */\n      tag_372\n        /* \"#utility.yul\":134:139   */\n      dup2\n        /* \"#utility.yul\":107:140   */\n      tag_373\n      jump\t// in\n    tag_372:\n        /* \"#utility.yul\":7:146   */\n      swap3\n      swap2\n      pop\n      pop\n      jump\t// out\n        /* \"#utility.yul\":152:289   */\n    tag_374:\n        /* \"#utility.yul\":206:211   */\n      0x00\n        /* \"#utility.yul\":237:243   */\n      dup2\n        /* \"#utility.yul\":231:244   */\n      mload\n        /* \"#utility.yul\":222:244   */\n      swap1\n      pop\n        /* \"#utility.yul\":253:283   */\n      tag_376\n        /* \"#utility.yul\":277:282   */\n      dup2\n        /* \"#utility.yul\":253:283   */\n      tag_377\n      jump\t// in\n    tag_376:\n        /* \"#utility.yul\":152:289   */\n      swap3\n      swap2\n      pop\n      pop\n      jump\t// out\n        /* \"#utility.yul\":295:434   */\n    tag_378:\n        /* \"#utility.yul\":341:346   */\n      0x00\n        /* \"#utility.yul\":379:385   */\n      dup2\n        /* \"#utility.yul\":366:386   */\n      calldataload\n        /* \"#utility.yul\":357:386   */\n      swap1\n      pop\n        /* \"#utility.yul\":395:428   */\n      tag_380\n        /* \"#utility.yul\":422:427   */\n      dup2\n        /* \"#utility.yul\":395:428   */\n      tag_381\n      jump\t// in\n    tag_380:\n        /* \"#utility.yul\":295:434   */\n      swap3\n      swap2\n      pop\n      pop\n      jump\t// out\n        /* \"#utility.yul\":440:583   */\n    tag_382:\n        /* \"#utility.yul\":497:502   */\n      0x00\n        /* \"#utility.yul\":528:534   */\n      dup2\n        /* \"#utility.yul\":522:535   */\n      mload\n        /* \"#utility.yul\":513:535   */\n      swap1\n      pop\n        /* \"#utility.yul\":544:577   */\n      tag_384\n        /* \"#utility.yul\":571:576   */\n      dup2\n        /* \"#utility.yul\":544:577   */\n      tag_381\n      jump\t// in\n    tag_384:\n        /* \"#utility.yul\":440:583   */\n      swap3\n      swap2\n      pop\n      pop\n      jump\t// out\n        /* \"#utility.yul\":589:918   */\n    tag_40:\n        /* \"#utility.yul\":648:654   */\n      0x00\n        /* \"#utility.yul\":697:699   */\n      0x20\n        /* \"#utility.yul\":685:694   */\n      dup3\n        /* \"#utility.yul\":676:683   */\n      dup5\n        /* \"#utility.yul\":672:695   */\n      sub\n        /* \"#utility.yul\":668:700   */\n      slt\n        /* \"#utility.yul\":665:784   */\n      iszero\n      tag_386\n      jumpi\n        /* \"#utility.yul\":703:782   */\n      tag_387\n      tag_388\n      jump\t// in\n    tag_387:\n        /* \"#utility.yul\":665:784   */\n    tag_386:\n        /* \"#utility.yul\":823:824   */\n      0x00\n        /* \"#utility.yul\":848:901   */\n      tag_389\n        /* \"#utility.yul\":893:900   */\n      dup5\n        /* \"#utility.yul\":884:890   */\n      dup3\n        /* \"#utility.yul\":873:882   */\n      dup6\n        /* \"#utility.yul\":869:891   */\n      add\n        /* \"#utility.yul\":848:901   */\n      tag_370\n      jump\t// in\n    tag_389:\n        /* \"#utility.yul\":838:901   */\n      swap2\n      pop\n        /* \"#utility.yul\":794:911   */\n      pop\n        /* \"#utility.yul\":589:918   */\n      swap3\n      swap2\n      pop\n      pop\n      jump\t// out\n        /* \"#utility.yul\":924:1269   */\n    tag_338:\n        /* \"#utility.yul\":991:997   */\n      0x00\n        /* \"#utility.yul\":1040:1042   */\n      0x20\n        /* \"#utility.yul\":1028:1037   */\n      dup3\n        /* \"#utility.yul\":1019:1026   */\n      dup5\n        /* \"#utility.yul\":1015:1038   */\n      sub\n        /* \"#utility.yul\":1011:1043   */\n      slt\n        /* \"#utility.yul\":1008:1127   */\n      iszero\n      tag_391\n      jumpi\n        /* \"#utility.yul\":1046:1125   */\n      tag_392\n      tag_388\n      jump\t// in\n    tag_392:\n        /* \"#utility.yul\":1008:1127   */\n    tag_391:\n        /* \"#utility.yul\":1166:1167   */\n      0x00\n        /* \"#utility.yul\":1191:1252   */\n      tag_393\n        /* \"#utility.yul\":1244:1251   */\n      dup5\n        /* \"#utility.yul\":1235:1241   */\n      dup3\n        /* \"#utility.yul\":1224:1233   */\n      dup6\n        /* \"#utility.yul\":1220:1242   */\n      add\n        /* \"#utility.yul\":1191:1252   */\n      tag_374\n      jump\t// in\n    tag_393:\n        /* \"#utility.yul\":1181:1252   */\n      swap2\n      pop\n        /* \"#utility.yul\":1137:1262   */\n      pop\n        /* \"#utility.yul\":924:1269   */\n      swap3\n      swap2\n      pop\n      pop\n      jump\t// out\n        /* \"#utility.yul\":1275:1604   */\n    tag_34:\n        /* \"#utility.yul\":1334:1340   */\n      0x00\n        /* \"#utility.yul\":1383:1385   */\n      0x20\n        /* \"#utility.yul\":1371:1380   */\n      dup3\n        /* \"#utility.yul\":1362:1369   */\n      dup5\n        /* \"#utility.yul\":1358:1381   */\n      sub\n        /* \"#utility.yul\":1354:1386   */\n      slt\n        /* \"#utility.yul\":1351:1470   */\n      iszero\n      tag_395\n      jumpi\n        /* \"#utility.yul\":1389:1468   */\n      tag_396\n      tag_388\n      jump\t// in\n    tag_396:\n        /* \"#utility.yul\":1351:1470   */\n    tag_395:\n        /* \"#utility.yul\":1509:1510   */\n      0x00\n        /* \"#utility.yul\":1534:1587   */\n      tag_397\n        /* \"#utility.yul\":1579:1586   */\n      dup5\n        /* \"#utility.yul\":1570:1576   */\n      dup3\n        /* \"#utility.yul\":1559:1568   */\n      dup6\n        /* \"#utility.yul\":1555:1577   */\n      add\n        /* \"#utility.yul\":1534:1587   */\n      tag_378\n      jump\t// in\n    tag_397:\n        /* \"#utility.yul\":1524:1587   */\n      swap2\n      pop\n        /* \"#utility.yul\":1480:1597   */\n      pop\n        /* \"#utility.yul\":1275:1604   */\n      swap3\n      swap2\n      pop\n      pop\n      jump\t// out\n        /* \"#utility.yul\":1610:1961   */\n    tag_118:\n        /* \"#utility.yul\":1680:1686   */\n      0x00\n        /* \"#utility.yul\":1729:1731   */\n      0x20\n        /* \"#utility.yul\":1717:1726   */\n      dup3\n        /* \"#utility.yul\":1708:1715   */\n      dup5\n        /* \"#utility.yul\":1704:1727   */\n      sub\n        /* \"#utility.yul\":1700:1732   */\n      slt\n        /* \"#utility.yul\":1697:1816   */\n      iszero\n      tag_399\n      jumpi\n        /* \"#utility.yul\":1735:1814   */\n      tag_400\n      tag_388\n      jump\t// in\n    tag_400:\n        /* \"#utility.yul\":1697:1816   */\n    tag_399:\n        /* \"#utility.yul\":1855:1856   */\n      0x00\n        /* \"#utility.yul\":1880:1944   */\n      tag_401\n        /* \"#utility.yul\":1936:1943   */\n      dup5\n        /* \"#utility.yul\":1927:1933   */\n      dup3\n        /* \"#utility.yul\":1916:1925   */\n      dup6\n        /* \"#utility.yul\":1912:1934   */\n      add\n        /* \"#utility.yul\":1880:1944   */\n      tag_382\n      jump\t// in\n    tag_401:\n        /* \"#utility.yul\":1870:1944   */\n      swap2\n      pop\n        /* \"#utility.yul\":1826:1954   */\n      pop\n        /* \"#utility.yul\":1610:1961   */\n      swap3\n      swap2\n      pop\n      pop\n      jump\t// out\n        /* \"#utility.yul\":1967:2441   */\n    tag_48:\n        /* \"#utility.yul\":2035:2041   */\n      0x00\n        /* \"#utility.yul\":2043:2049   */\n      dup1\n        /* \"#utility.yul\":2092:2094   */\n      0x40\n        /* \"#utility.yul\":2080:2089   */\n      dup4\n        /* \"#utility.yul\":2071:2078   */\n      dup6\n        /* \"#utility.yul\":2067:2090   */\n      sub\n        /* \"#utility.yul\":2063:2095   */\n      slt\n        /* \"#utility.yul\":2060:2179   */\n      iszero\n      tag_403\n      jumpi\n        /* \"#utility.yul\":2098:2177   */\n      tag_404\n      tag_388\n      jump\t// in\n    tag_404:\n        /* \"#utility.yul\":2060:2179   */\n    tag_403:\n        /* \"#utility.yul\":2218:2219   */\n      0x00\n        /* \"#utility.yul\":2243:2296   */\n      tag_405\n        /* \"#utility.yul\":2288:2295   */\n      dup6\n        /* \"#utility.yul\":2279:2285   */\n      dup3\n        /* \"#utility.yul\":2268:2277   */\n      dup7\n        /* \"#utility.yul\":2264:2286   */\n      add\n        /* \"#utility.yul\":2243:2296   */\n      tag_378\n      jump\t// in\n    tag_405:\n        /* \"#utility.yul\":2233:2296   */\n      swap3\n      pop\n        /* \"#utility.yul\":2189:2306   */\n      pop\n        /* \"#utility.yul\":2345:2347   */\n      0x20\n        /* \"#utility.yul\":2371:2424   */\n      tag_406\n        /* \"#utility.yul\":2416:2423   */\n      dup6\n        /* \"#utility.yul\":2407:2413   */\n      dup3\n        /* \"#utility.yul\":2396:2405   */\n      dup7\n        /* \"#utility.yul\":2392:2414   */\n      add\n        /* \"#utility.yul\":2371:2424   */\n      tag_378\n      jump\t// in\n    tag_406:\n        /* \"#utility.yul\":2361:2424   */\n      swap2\n      pop\n        /* \"#utility.yul\":2316:2434   */\n      pop\n        /* \"#utility.yul\":1967:2441   */\n      swap3\n      pop\n      swap3\n      swap1\n      pop\n      jump\t// out\n        /* \"#utility.yul\":2447:2565   */\n    tag_407:\n        /* \"#utility.yul\":2534:2558   */\n      tag_409\n        /* \"#utility.yul\":2552:2557   */\n      dup2\n        /* \"#utility.yul\":2534:2558   */\n      tag_410\n      jump\t// in\n    tag_409:\n        /* \"#utility.yul\":2529:2532   */\n      dup3\n        /* \"#utility.yul\":2522:2559   */\n      mstore\n        /* \"#utility.yul\":2447:2565   */\n      pop\n      pop\n      jump\t// out\n        /* \"#utility.yul\":2571:2944   */\n    tag_411:\n        /* \"#utility.yul\":2675:2678   */\n      0x00\n        /* \"#utility.yul\":2703:2741   */\n      tag_413\n        /* \"#utility.yul\":2735:2740   */\n      dup3\n        /* \"#utility.yul\":2703:2741   */\n      tag_414\n      jump\t// in\n    tag_413:\n        /* \"#utility.yul\":2757:2845   */\n      tag_415\n        /* \"#utility.yul\":2838:2844   */\n      dup2\n        /* \"#utility.yul\":2833:2836   */\n      dup6\n        /* \"#utility.yul\":2757:2845   */\n      tag_416\n      jump\t// in\n    tag_415:\n        /* \"#utility.yul\":2750:2845   */\n      swap4\n      pop\n        /* \"#utility.yul\":2854:2906   */\n      tag_417\n        /* \"#utility.yul\":2899:2905   */\n      dup2\n        /* \"#utility.yul\":2894:2897   */\n      dup6\n        /* \"#utility.yul\":2887:2891   */\n      0x20\n        /* \"#utility.yul\":2880:2885   */\n      dup7\n        /* \"#utility.yul\":2876:2892   */\n      add\n        /* \"#utility.yul\":2854:2906   */\n      tag_418\n      jump\t// in\n    tag_417:\n        /* \"#utility.yul\":2931:2937   */\n      dup1\n        /* \"#utility.yul\":2926:2929   */\n      dup5\n        /* \"#utility.yul\":2922:2938   */\n      add\n        /* \"#utility.yul\":2915:2938   */\n      swap2\n      pop\n        /* \"#utility.yul\":2679:2944   */\n      pop\n        /* \"#utility.yul\":2571:2944   */\n      swap3\n      swap2\n      pop\n      pop\n      jump\t// out\n        /* \"#utility.yul\":2950:3109   */\n    tag_419:\n        /* \"#utility.yul\":3051:3102   */\n      tag_421\n        /* \"#utility.yul\":3096:3101   */\n      dup2\n        /* \"#utility.yul\":3051:3102   */\n      tag_422\n      jump\t// in\n    tag_421:\n        /* \"#utility.yul\":3046:3049   */\n      dup3\n        /* \"#utility.yul\":3039:3103   */\n      mstore\n        /* \"#utility.yul\":2950:3109   */\n      pop\n      pop\n      jump\t// out\n        /* \"#utility.yul\":3115:3479   */\n    tag_423:\n        /* \"#utility.yul\":3203:3206   */\n      0x00\n        /* \"#utility.yul\":3231:3270   */\n      tag_425\n        /* \"#utility.yul\":3264:3269   */\n      dup3\n        /* \"#utility.yul\":3231:3270   */\n      tag_426\n      jump\t// in\n    tag_425:\n        /* \"#utility.yul\":3286:3357   */\n      tag_427\n        /* \"#utility.yul\":3350:3356   */\n      dup2\n        /* \"#utility.yul\":3345:3348   */\n      dup6\n        /* \"#utility.yul\":3286:3357   */\n      tag_428\n      jump\t// in\n    tag_427:\n        /* \"#utility.yul\":3279:3357   */\n      swap4\n      pop\n        /* \"#utility.yul\":3366:3418   */\n      tag_429\n        /* \"#utility.yul\":3411:3417   */\n      dup2\n        /* \"#utility.yul\":3406:3409   */\n      dup6\n        /* \"#utility.yul\":3399:3403   */\n      0x20\n        /* \"#utility.yul\":3392:3397   */\n      dup7\n        /* \"#utility.yul\":3388:3404   */\n      add\n        /* \"#utility.yul\":3366:3418   */\n      tag_418\n      jump\t// in\n    tag_429:\n        /* \"#utility.yul\":3443:3472   */\n      tag_430\n        /* \"#utility.yul\":3465:3471   */\n      dup2\n        /* \"#utility.yul\":3443:3472   */\n      tag_431\n      jump\t// in\n    tag_430:\n        /* \"#utility.yul\":3438:3441   */\n      dup5\n        /* \"#utility.yul\":3434:3473   */\n      add\n        /* \"#utility.yul\":3427:3473   */\n      swap2\n      pop\n        /* \"#utility.yul\":3207:3479   */\n      pop\n        /* \"#utility.yul\":3115:3479   */\n      swap3\n      swap2\n      pop\n      pop\n      jump\t// out\n        /* \"#utility.yul\":3485:3851   */\n    tag_432:\n        /* \"#utility.yul\":3627:3630   */\n      0x00\n        /* \"#utility.yul\":3648:3715   */\n      tag_434\n        /* \"#utility.yul\":3712:3714   */\n      0x0c\n        /* \"#utility.yul\":3707:3710   */\n      dup4\n        /* \"#utility.yul\":3648:3715   */\n      tag_428\n      jump\t// in\n    tag_434:\n        /* \"#utility.yul\":3641:3715   */\n      swap2\n      pop\n        /* \"#utility.yul\":3724:3817   */\n      tag_435\n        /* \"#utility.yul\":3813:3816   */\n      dup3\n        /* \"#utility.yul\":3724:3817   */\n      tag_436\n      jump\t// in\n    tag_435:\n        /* \"#utility.yul\":3842:3844   */\n      0x20\n        /* \"#utility.yul\":3837:3840   */\n      dup3\n        /* \"#utility.yul\":3833:3845   */\n      add\n        /* \"#utility.yul\":3826:3845   */\n      swap1\n      pop\n        /* \"#utility.yul\":3485:3851   */\n      swap2\n      swap1\n      pop\n      jump\t// out\n        /* \"#utility.yul\":3857:4223   */\n    tag_437:\n        /* \"#utility.yul\":3999:4002   */\n      0x00\n        /* \"#utility.yul\":4020:4087   */\n      tag_439\n        /* \"#utility.yul\":4084:4086   */\n      0x10\n        /* \"#utility.yul\":4079:4082   */\n      dup4\n        /* \"#utility.yul\":4020:4087   */\n      tag_428\n      jump\t// in\n    tag_439:\n        /* \"#utility.yul\":4013:4087   */\n      swap2\n      pop\n        /* \"#utility.yul\":4096:4189   */\n      tag_440\n        /* \"#utility.yul\":4185:4188   */\n      dup3\n        /* \"#utility.yul\":4096:4189   */\n      tag_441\n      jump\t// in\n    tag_440:\n        /* \"#utility.yul\":4214:4216   */\n      0x20\n        /* \"#utility.yul\":4209:4212   */\n      dup3\n        /* \"#utility.yul\":4205:4217   */\n      add\n        /* \"#utility.yul\":4198:4217   */\n      swap1\n      pop\n        /* \"#utility.yul\":3857:4223   */\n      swap2\n      swap1\n      pop\n      jump\t// out\n        /* \"#utility.yul\":4229:4595   */\n    tag_442:\n        /* \"#utility.yul\":4371:4374   */\n      0x00\n        /* \"#utility.yul\":4392:4459   */\n      tag_444\n        /* \"#utility.yul\":4456:4458   */\n      0x15\n        /* \"#utility.yul\":4451:4454   */\n      dup4\n        /* \"#utility.yul\":4392:4459   */\n      tag_428\n      jump\t// in\n    tag_444:\n        /* \"#utility.yul\":4385:4459   */\n      swap2\n      pop\n        /* \"#utility.yul\":4468:4561   */\n      tag_445\n        /* \"#utility.yul\":4557:4560   */\n      dup3\n        /* \"#utility.yul\":4468:4561   */\n      tag_446\n      jump\t// in\n    tag_445:\n        /* \"#utility.yul\":4586:4588   */\n      0x20\n        /* \"#utility.yul\":4581:4584   */\n      dup3\n        /* \"#utility.yul\":4577:4589   */\n      add\n        /* \"#utility.yul\":4570:4589   */\n      swap1\n      pop\n        /* \"#utility.yul\":4229:4595   */\n      swap2\n      swap1\n      pop\n      jump\t// out\n        /* \"#utility.yul\":4601:4967   */\n    tag_447:\n        /* \"#utility.yul\":4743:4746   */\n      0x00\n        /* \"#utility.yul\":4764:4831   */\n      tag_449\n        /* \"#utility.yul\":4828:4830   */\n      0x2a\n        /* \"#utility.yul\":4823:4826   */\n      dup4\n        /* \"#utility.yul\":4764:4831   */\n      tag_428\n      jump\t// in\n    tag_449:\n        /* \"#utility.yul\":4757:4831   */\n      swap2\n      pop\n        /* \"#utility.yul\":4840:4933   */\n      tag_450\n        /* \"#utility.yul\":4929:4932   */\n      dup3\n        /* \"#utility.yul\":4840:4933   */\n      tag_451\n      jump\t// in\n    tag_450:\n        /* \"#utility.yul\":4958:4960   */\n      0x40\n        /* \"#utility.yul\":4953:4956   */\n      dup3\n        /* \"#utility.yul\":4949:4961   */\n      add\n        /* \"#utility.yul\":4942:4961   */\n      swap1\n      pop\n        /* \"#utility.yul\":4601:4967   */\n      swap2\n      swap1\n      pop\n      jump\t// out\n        /* \"#utility.yul\":4973:5339   */\n    tag_452:\n        /* \"#utility.yul\":5115:5118   */\n      0x00\n        /* \"#utility.yul\":5136:5203   */\n      tag_454\n        /* \"#utility.yul\":5200:5202   */\n      0x26\n        /* \"#utility.yul\":5195:5198   */\n      dup4\n        /* \"#utility.yul\":5136:5203   */\n      tag_428\n      jump\t// in\n    tag_454:\n        /* \"#utility.yul\":5129:5203   */\n      swap2\n      pop\n        /* \"#utility.yul\":5212:5305   */\n      tag_455\n        /* \"#utility.yul\":5301:5304   */\n      dup3\n        /* \"#utility.yul\":5212:5305   */\n      tag_456\n      jump\t// in\n    tag_455:\n        /* \"#utility.yul\":5330:5332   */\n      0x40\n        /* \"#utility.yul\":5325:5328   */\n      dup3\n        /* \"#utility.yul\":5321:5333   */\n      add\n        /* \"#utility.yul\":5314:5333   */\n      swap1\n      pop\n        /* \"#utility.yul\":4973:5339   */\n      swap2\n      swap1\n      pop\n      jump\t// out\n        /* \"#utility.yul\":5345:5711   */\n    tag_457:\n        /* \"#utility.yul\":5487:5490   */\n      0x00\n        /* \"#utility.yul\":5508:5575   */\n      tag_459\n        /* \"#utility.yul\":5572:5574   */\n      0x0e\n        /* \"#utility.yul\":5567:5570   */\n      dup4\n        /* \"#utility.yul\":5508:5575   */\n      tag_428\n      jump\t// in\n    tag_459:\n        /* \"#utility.yul\":5501:5575   */\n      swap2\n      pop\n        /* \"#utility.yul\":5584:5677   */\n      tag_460\n        /* \"#utility.yul\":5673:5676   */\n      dup3\n        /* \"#utility.yul\":5584:5677   */\n      tag_461\n      jump\t// in\n    tag_460:\n        /* \"#utility.yul\":5702:5704   */\n      0x20\n        /* \"#utility.yul\":5697:5700   */\n      dup3\n        /* \"#utility.yul\":5693:5705   */\n      add\n        /* \"#utility.yul\":5686:5705   */\n      swap1\n      pop\n        /* \"#utility.yul\":5345:5711   */\n      swap2\n      swap1\n      pop\n      jump\t// out\n        /* \"#utility.yul\":5717:6083   */\n    tag_462:\n        /* \"#utility.yul\":5859:5862   */\n      0x00\n        /* \"#utility.yul\":5880:5947   */\n      tag_464\n        /* \"#utility.yul\":5944:5946   */\n      0x0f\n        /* \"#utility.yul\":5939:5942   */\n      dup4\n        /* \"#utility.yul\":5880:5947   */\n      tag_428\n      jump\t// in\n    tag_464:\n        /* \"#utility.yul\":5873:5947   */\n      swap2\n      pop\n        /* \"#utility.yul\":5956:6049   */\n      tag_465\n        /* \"#utility.yul\":6045:6048   */\n      dup3\n        /* \"#utility.yul\":5956:6049   */\n      tag_466\n      jump\t// in\n    tag_465:\n        /* \"#utility.yul\":6074:6076   */\n      0x20\n        /* \"#utility.yul\":6069:6072   */\n      dup3\n        /* \"#utility.yul\":6065:6077   */\n      add\n        /* \"#utility.yul\":6058:6077   */\n      swap1\n      pop\n        /* \"#utility.yul\":5717:6083   */\n      swap2\n      swap1\n      pop\n      jump\t// out\n        /* \"#utility.yul\":6089:6455   */\n    tag_467:\n        /* \"#utility.yul\":6231:6234   */\n      0x00\n        /* \"#utility.yul\":6252:6319   */\n      tag_469\n        /* \"#utility.yul\":6316:6318   */\n      0x26\n        /* \"#utility.yul\":6311:6314   */\n      dup4\n        /* \"#utility.yul\":6252:6319   */\n      tag_428\n      jump\t// in\n    tag_469:\n        /* \"#utility.yul\":6245:6319   */\n      swap2\n      pop\n        /* \"#utility.yul\":6328:6421   */\n      tag_470\n        /* \"#utility.yul\":6417:6420   */\n      dup3\n        /* \"#utility.yul\":6328:6421   */\n      tag_471\n      jump\t// in\n    tag_470:\n        /* \"#utility.yul\":6446:6448   */\n      0x40\n        /* \"#utility.yul\":6441:6444   */\n      dup3\n        /* \"#utility.yul\":6437:6449   */\n      add\n        /* \"#utility.yul\":6430:6449   */\n      swap1\n      pop\n        /* \"#utility.yul\":6089:6455   */\n      swap2\n      swap1\n      pop\n      jump\t// out\n        /* \"#utility.yul\":6461:6827   */\n    tag_472:\n        /* \"#utility.yul\":6603:6606   */\n      0x00\n        /* \"#utility.yul\":6624:6691   */\n      tag_474\n        /* \"#utility.yul\":6688:6690   */\n      0x1f\n        /* \"#utility.yul\":6683:6686   */\n      dup4\n        /* \"#utility.yul\":6624:6691   */\n      tag_428\n      jump\t// in\n    tag_474:\n        /* \"#utility.yul\":6617:6691   */\n      swap2\n      pop\n        /* \"#utility.yul\":6700:6793   */\n      tag_475\n        /* \"#utility.yul\":6789:6792   */\n      dup3\n        /* \"#utility.yul\":6700:6793   */\n      tag_476\n      jump\t// in\n    tag_475:\n        /* \"#utility.yul\":6818:6820   */\n      0x20\n        /* \"#utility.yul\":6813:6816   */\n      dup3\n        /* \"#utility.yul\":6809:6821   */\n      add\n        /* \"#utility.yul\":6802:6821   */\n      swap1\n      pop\n        /* \"#utility.yul\":6461:6827   */\n      swap2\n      swap1\n      pop\n      jump\t// out\n        /* \"#utility.yul\":6833:7199   */\n    tag_477:\n        /* \"#utility.yul\":6975:6978   */\n      0x00\n        /* \"#utility.yul\":6996:7063   */\n      tag_479\n        /* \"#utility.yul\":7060:7062   */\n      0x20\n        /* \"#utility.yul\":7055:7058   */\n      dup4\n        /* \"#utility.yul\":6996:7063   */\n      tag_428\n      jump\t// in\n    tag_479:\n        /* \"#utility.yul\":6989:7063   */\n      swap2\n      pop\n        /* \"#utility.yul\":7072:7165   */\n      tag_480\n        /* \"#utility.yul\":7161:7164   */\n      dup3\n        /* \"#utility.yul\":7072:7165   */\n      tag_481\n      jump\t// in\n    tag_480:\n        /* \"#utility.yul\":7190:7192   */\n      0x20\n        /* \"#utility.yul\":7185:7188   */\n      dup3\n        /* \"#utility.yul\":7181:7193   */\n      add\n        /* \"#utility.yul\":7174:7193   */\n      swap1\n      pop\n        /* \"#utility.yul\":6833:7199   */\n      swap2\n      swap1\n      pop\n      jump\t// out\n        /* \"#utility.yul\":7205:7571   */\n    tag_482:\n        /* \"#utility.yul\":7347:7350   */\n      0x00\n        /* \"#utility.yul\":7368:7435   */\n      tag_484\n        /* \"#utility.yul\":7432:7434   */\n      0x0d\n        /* \"#utility.yul\":7427:7430   */\n      dup4\n        /* \"#utility.yul\":7368:7435   */\n      tag_428\n      jump\t// in\n    tag_484:\n        /* \"#utility.yul\":7361:7435   */\n      swap2\n      pop\n        /* \"#utility.yul\":7444:7537   */\n      tag_485\n        /* \"#utility.yul\":7533:7536   */\n      dup3\n        /* \"#utility.yul\":7444:7537   */\n      tag_486\n      jump\t// in\n    tag_485:\n        /* \"#utility.yul\":7562:7564   */\n      0x20\n        /* \"#utility.yul\":7557:7560   */\n      dup3\n        /* \"#utility.yul\":7553:7565   */\n      add\n        /* \"#utility.yul\":7546:7565   */\n      swap1\n      pop\n        /* \"#utility.yul\":7205:7571   */\n      swap2\n      swap1\n      pop\n      jump\t// out\n        /* \"#utility.yul\":7577:7943   */\n    tag_487:\n        /* \"#utility.yul\":7719:7722   */\n      0x00\n        /* \"#utility.yul\":7740:7807   */\n      tag_489\n        /* \"#utility.yul\":7804:7806   */\n      0x1d\n        /* \"#utility.yul\":7799:7802   */\n      dup4\n        /* \"#utility.yul\":7740:7807   */\n      tag_428\n      jump\t// in\n    tag_489:\n        /* \"#utility.yul\":7733:7807   */\n      swap2\n      pop\n        /* \"#utility.yul\":7816:7909   */\n      tag_490\n        /* \"#utility.yul\":7905:7908   */\n      dup3\n        /* \"#utility.yul\":7816:7909   */\n      tag_491\n      jump\t// in\n    tag_490:\n        /* \"#utility.yul\":7934:7936   */\n      0x20\n        /* \"#utility.yul\":7929:7932   */\n      dup3\n        /* \"#utility.yul\":7925:7937   */\n      add\n        /* \"#utility.yul\":7918:7937   */\n      swap1\n      pop\n        /* \"#utility.yul\":7577:7943   */\n      swap2\n      swap1\n      pop\n      jump\t// out\n        /* \"#utility.yul\":7949:8315   */\n    tag_492:\n        /* \"#utility.yul\":8091:8094   */\n      0x00\n        /* \"#utility.yul\":8112:8179   */\n      tag_494\n        /* \"#utility.yul\":8176:8178   */\n      0x1a\n        /* \"#utility.yul\":8171:8174   */\n      dup4\n        /* \"#utility.yul\":8112:8179   */\n      tag_428\n      jump\t// in\n    tag_494:\n        /* \"#utility.yul\":8105:8179   */\n      swap2\n      pop\n        /* \"#utility.yul\":8188:8281   */\n      tag_495\n        /* \"#utility.yul\":8277:8280   */\n      dup3\n        /* \"#utility.yul\":8188:8281   */\n      tag_496\n      jump\t// in\n    tag_495:\n        /* \"#utility.yul\":8306:8308   */\n      0x20\n        /* \"#utility.yul\":8301:8304   */\n      dup3\n        /* \"#utility.yul\":8297:8309   */\n      add\n        /* \"#utility.yul\":8290:8309   */\n      swap1\n      pop\n        /* \"#utility.yul\":7949:8315   */\n      swap2\n      swap1\n      pop\n      jump\t// out\n        /* \"#utility.yul\":8321:8687   */\n    tag_497:\n        /* \"#utility.yul\":8463:8466   */\n      0x00\n        /* \"#utility.yul\":8484:8551   */\n      tag_499\n        /* \"#utility.yul\":8548:8550   */\n      0x17\n        /* \"#utility.yul\":8543:8546   */\n      dup4\n        /* \"#utility.yul\":8484:8551   */\n      tag_428\n      jump\t// in\n    tag_499:\n        /* \"#utility.yul\":8477:8551   */\n      swap2\n      pop\n        /* \"#utility.yul\":8560:8653   */\n      tag_500\n        /* \"#utility.yul\":8649:8652   */\n      dup3\n        /* \"#utility.yul\":8560:8653   */\n      tag_501\n      jump\t// in\n    tag_500:\n        /* \"#utility.yul\":8678:8680   */\n      0x20\n        /* \"#utility.yul\":8673:8676   */\n      dup3\n        /* \"#utility.yul\":8669:8681   */\n      add\n        /* \"#utility.yul\":8662:8681   */\n      swap1\n      pop\n        /* \"#utility.yul\":8321:8687   */\n      swap2\n      swap1\n      pop\n      jump\t// out\n        /* \"#utility.yul\":8693:9059   */\n    tag_502:\n        /* \"#utility.yul\":8835:8838   */\n      0x00\n        /* \"#utility.yul\":8856:8923   */\n      tag_504\n        /* \"#utility.yul\":8920:8922   */\n      0x0d\n        /* \"#utility.yul\":8915:8918   */\n      dup4\n        /* \"#utility.yul\":8856:8923   */\n      tag_428\n      jump\t// in\n    tag_504:\n        /* \"#utility.yul\":8849:8923   */\n      swap2\n      pop\n        /* \"#utility.yul\":8932:9025   */\n      tag_505\n        /* \"#utility.yul\":9021:9024   */\n      dup3\n        /* \"#utility.yul\":8932:9025   */\n      tag_506\n      jump\t// in\n    tag_505:\n        /* \"#utility.yul\":9050:9052   */\n      0x20\n        /* \"#utility.yul\":9045:9048   */\n      dup3\n        /* \"#utility.yul\":9041:9053   */\n      add\n        /* \"#utility.yul\":9034:9053   */\n      swap1\n      pop\n        /* \"#utility.yul\":8693:9059   */\n      swap2\n      swap1\n      pop\n      jump\t// out\n        /* \"#utility.yul\":9065:9431   */\n    tag_507:\n        /* \"#utility.yul\":9207:9210   */\n      0x00\n        /* \"#utility.yul\":9228:9295   */\n      tag_509\n        /* \"#utility.yul\":9292:9294   */\n      0x0c\n        /* \"#utility.yul\":9287:9290   */\n      dup4\n        /* \"#utility.yul\":9228:9295   */\n      tag_428\n      jump\t// in\n    tag_509:\n        /* \"#utility.yul\":9221:9295   */\n      swap2\n      pop\n        /* \"#utility.yul\":9304:9397   */\n      tag_510\n        /* \"#utility.yul\":9393:9396   */\n      dup3\n        /* \"#utility.yul\":9304:9397   */\n      tag_511\n      jump\t// in\n    tag_510:\n        /* \"#utility.yul\":9422:9424   */\n      0x20\n        /* \"#utility.yul\":9417:9420   */\n      dup3\n        /* \"#utility.yul\":9413:9425   */\n      add\n        /* \"#utility.yul\":9406:9425   */\n      swap1\n      pop\n        /* \"#utility.yul\":9065:9431   */\n      swap2\n      swap1\n      pop\n      jump\t// out\n        /* \"#utility.yul\":9437:9803   */\n    tag_512:\n        /* \"#utility.yul\":9579:9582   */\n      0x00\n        /* \"#utility.yul\":9600:9667   */\n      tag_514\n        /* \"#utility.yul\":9664:9666   */\n      0x0d\n        /* \"#utility.yul\":9659:9662   */\n      dup4\n        /* \"#utility.yul\":9600:9667   */\n      tag_428\n      jump\t// in\n    tag_514:\n        /* \"#utility.yul\":9593:9667   */\n      swap2\n      pop\n        /* \"#utility.yul\":9676:9769   */\n      tag_515\n        /* \"#utility.yul\":9765:9768   */\n      dup3\n        /* \"#utility.yul\":9676:9769   */\n      tag_516\n      jump\t// in\n    tag_515:\n        /* \"#utility.yul\":9794:9796   */\n      0x20\n        /* \"#utility.yul\":9789:9792   */\n      dup3\n        /* \"#utility.yul\":9785:9797   */\n      add\n        /* \"#utility.yul\":9778:9797   */\n      swap1\n      pop\n        /* \"#utility.yul\":9437:9803   */\n      swap2\n      swap1\n      pop\n      jump\t// out\n        /* \"#utility.yul\":9809:9927   */\n    tag_517:\n        /* \"#utility.yul\":9896:9920   */\n      tag_519\n        /* \"#utility.yul\":9914:9919   */\n      dup2\n        /* \"#utility.yul\":9896:9920   */\n      tag_520\n      jump\t// in\n    tag_519:\n        /* \"#utility.yul\":9891:9894   */\n      dup3\n        /* \"#utility.yul\":9884:9921   */\n      mstore\n        /* \"#utility.yul\":9809:9927   */\n      pop\n      pop\n      jump\t// out\n        /* \"#utility.yul\":9933:10204   */\n    tag_355:\n        /* \"#utility.yul\":10063:10066   */\n      0x00\n        /* \"#utility.yul\":10085:10178   */\n      tag_522\n        /* \"#utility.yul\":10174:10177   */\n      dup3\n        /* \"#utility.yul\":10165:10171   */\n      dup5\n        /* \"#utility.yul\":10085:10178   */\n      tag_411\n      jump\t// in\n    tag_522:\n        /* \"#utility.yul\":10078:10178   */\n      swap2\n      pop\n        /* \"#utility.yul\":10195:10198   */\n      dup2\n        /* \"#utility.yul\":10188:10198   */\n      swap1\n      pop\n        /* \"#utility.yul\":9933:10204   */\n      swap3\n      swap2\n      pop\n      pop\n      jump\t// out\n        /* \"#utility.yul\":10210:10432   */\n    tag_74:\n        /* \"#utility.yul\":10303:10307   */\n      0x00\n        /* \"#utility.yul\":10341:10343   */\n      0x20\n        /* \"#utility.yul\":10330:10339   */\n      dup3\n        /* \"#utility.yul\":10326:10344   */\n      add\n        /* \"#utility.yul\":10318:10344   */\n      swap1\n      pop\n        /* \"#utility.yul\":10354:10425   */\n      tag_524\n        /* \"#utility.yul\":10422:10423   */\n      0x00\n        /* \"#utility.yul\":10411:10420   */\n      dup4\n        /* \"#utility.yul\":10407:10424   */\n      add\n        /* \"#utility.yul\":10398:10404   */\n      dup5\n        /* \"#utility.yul\":10354:10425   */\n      tag_407\n      jump\t// in\n    tag_524:\n        /* \"#utility.yul\":10210:10432   */\n      swap3\n      swap2\n      pop\n      pop\n      jump\t// out\n        /* \"#utility.yul\":10438:10880   */\n    tag_332:\n        /* \"#utility.yul\":10587:10591   */\n      0x00\n        /* \"#utility.yul\":10625:10627   */\n      0x60\n        /* \"#utility.yul\":10614:10623   */\n      dup3\n        /* \"#utility.yul\":10610:10628   */\n      add\n        /* \"#utility.yul\":10602:10628   */\n      swap1\n      pop\n        /* \"#utility.yul\":10638:10709   */\n      tag_526\n        /* \"#utility.yul\":10706:10707   */\n      0x00\n        /* \"#utility.yul\":10695:10704   */\n      dup4\n        /* \"#utility.yul\":10691:10708   */\n      add\n        /* \"#utility.yul\":10682:10688   */\n      dup7\n        /* \"#utility.yul\":10638:10709   */\n      tag_407\n      jump\t// in\n    tag_526:\n        /* \"#utility.yul\":10719:10791   */\n      tag_527\n        /* \"#utility.yul\":10787:10789   */\n      0x20\n        /* \"#utility.yul\":10776:10785   */\n      dup4\n        /* \"#utility.yul\":10772:10790   */\n      add\n        /* \"#utility.yul\":10763:10769   */\n      dup6\n        /* \"#utility.yul\":10719:10791   */\n      tag_407\n      jump\t// in\n    tag_527:\n        /* \"#utility.yul\":10801:10873   */\n      tag_528\n        /* \"#utility.yul\":10869:10871   */\n      0x40\n        /* \"#utility.yul\":10858:10867   */\n      dup4\n        /* \"#utility.yul\":10854:10872   */\n      add\n        /* \"#utility.yul\":10845:10851   */\n      dup5\n        /* \"#utility.yul\":10801:10873   */\n      tag_517\n      jump\t// in\n    tag_528:\n        /* \"#utility.yul\":10438:10880   */\n      swap5\n      swap4\n      pop\n      pop\n      pop\n      pop\n      jump\t// out\n        /* \"#utility.yul\":10886:11218   */\n    tag_147:\n        /* \"#utility.yul\":11007:11011   */\n      0x00\n        /* \"#utility.yul\":11045:11047   */\n      0x40\n        /* \"#utility.yul\":11034:11043   */\n      dup3\n        /* \"#utility.yul\":11030:11048   */\n      add\n        /* \"#utility.yul\":11022:11048   */\n      swap1\n      pop\n        /* \"#utility.yul\":11058:11129   */\n      tag_530\n        /* \"#utility.yul\":11126:11127   */\n      0x00\n        /* \"#utility.yul\":11115:11124   */\n      dup4\n        /* \"#utility.yul\":11111:11128   */\n      add\n        /* \"#utility.yul\":11102:11108   */\n      dup6\n        /* \"#utility.yul\":11058:11129   */\n      tag_407\n      jump\t// in\n    tag_530:\n        /* \"#utility.yul\":11139:11211   */\n      tag_531\n        /* \"#utility.yul\":11207:11209   */\n      0x20\n        /* \"#utility.yul\":11196:11205   */\n      dup4\n        /* \"#utility.yul\":11192:11210   */\n      add\n        /* \"#utility.yul\":11183:11189   */\n      dup5\n        /* \"#utility.yul\":11139:11211   */\n      tag_517\n      jump\t// in\n    tag_531:\n        /* \"#utility.yul\":10886:11218   */\n      swap4\n      swap3\n      pop\n      pop\n      pop\n      jump\t// out\n        /* \"#utility.yul\":11224:11474   */\n    tag_98:\n        /* \"#utility.yul\":11331:11335   */\n      0x00\n        /* \"#utility.yul\":11369:11371   */\n      0x20\n        /* \"#utility.yul\":11358:11367   */\n      dup3\n        /* \"#utility.yul\":11354:11372   */\n      add\n        /* \"#utility.yul\":11346:11372   */\n      swap1\n      pop\n        /* \"#utility.yul\":11382:11467   */\n      tag_533\n        /* \"#utility.yul\":11464:11465   */\n      0x00\n        /* \"#utility.yul\":11453:11462   */\n      dup4\n        /* \"#utility.yul\":11449:11466   */\n      add\n        /* \"#utility.yul\":11440:11446   */\n      dup5\n        /* \"#utility.yul\":11382:11467   */\n      tag_419\n      jump\t// in\n    tag_533:\n        /* \"#utility.yul\":11224:11474   */\n      swap3\n      swap2\n      pop\n      pop\n      jump\t// out\n        /* \"#utility.yul\":11480:11793   */\n    tag_368:\n        /* \"#utility.yul\":11593:11597   */\n      0x00\n        /* \"#utility.yul\":11631:11633   */\n      0x20\n        /* \"#utility.yul\":11620:11629   */\n      dup3\n        /* \"#utility.yul\":11616:11634   */\n      add\n        /* \"#utility.yul\":11608:11634   */\n      swap1\n      pop\n        /* \"#utility.yul\":11680:11689   */\n      dup2\n        /* \"#utility.yul\":11674:11678   */\n      dup2\n        /* \"#utility.yul\":11670:11690   */\n      sub\n        /* \"#utility.yul\":11666:11667   */\n      0x00\n        /* \"#utility.yul\":11655:11664   */\n      dup4\n        /* \"#utility.yul\":11651:11668   */\n      add\n        /* \"#utility.yul\":11644:11691   */\n      mstore\n        /* \"#utility.yul\":11708:11786   */\n      tag_535\n        /* \"#utility.yul\":11781:11785   */\n      dup2\n        /* \"#utility.yul\":11772:11778   */\n      dup5\n        /* \"#utility.yul\":11708:11786   */\n      tag_423\n      jump\t// in\n    tag_535:\n        /* \"#utility.yul\":11700:11786   */\n      swap1\n      pop\n        /* \"#utility.yul\":11480:11793   */\n      swap3\n      swap2\n      pop\n      pop\n      jump\t// out\n        /* \"#utility.yul\":11799:12218   */\n    tag_211:\n        /* \"#utility.yul\":11965:11969   */\n      0x00\n        /* \"#utility.yul\":12003:12005   */\n      0x20\n        /* \"#utility.yul\":11992:12001   */\n      dup3\n        /* \"#utility.yul\":11988:12006   */\n      add\n        /* \"#utility.yul\":11980:12006   */\n      swap1\n      pop\n        /* \"#utility.yul\":12052:12061   */\n      dup2\n        /* \"#utility.yul\":12046:12050   */\n      dup2\n        /* \"#utility.yul\":12042:12062   */\n      sub\n        /* \"#utility.yul\":12038:12039   */\n      0x00\n        /* \"#utility.yul\":12027:12036   */\n      dup4\n        /* \"#utility.yul\":12023:12040   */\n      add\n        /* \"#utility.yul\":12016:12063   */\n      mstore\n        /* \"#utility.yul\":12080:12211   */\n      tag_537\n        /* \"#utility.yul\":12206:12210   */\n      dup2\n        /* \"#utility.yul\":12080:12211   */\n      tag_432\n      jump\t// in\n    tag_537:\n        /* \"#utility.yul\":12072:12211   */\n      swap1\n      pop\n        /* \"#utility.yul\":11799:12218   */\n      swap2\n      swap1\n      pop\n      jump\t// out\n        /* \"#utility.yul\":12224:12643   */\n    tag_155:\n        /* \"#utility.yul\":12390:12394   */\n      0x00\n        /* \"#utility.yul\":12428:12430   */\n      0x20\n        /* \"#utility.yul\":12417:12426   */\n      dup3\n        /* \"#utility.yul\":12413:12431   */\n      add\n        /* \"#utility.yul\":12405:12431   */\n      swap1\n      pop\n        /* \"#utility.yul\":12477:12486   */\n      dup2\n        /* \"#utility.yul\":12471:12475   */\n      dup2\n        /* \"#utility.yul\":12467:12487   */\n      sub\n        /* \"#utility.yul\":12463:12464   */\n      0x00\n        /* \"#utility.yul\":12452:12461   */\n      dup4\n        /* \"#utility.yul\":12448:12465   */\n      add\n        /* \"#utility.yul\":12441:12488   */\n      mstore\n        /* \"#utility.yul\":12505:12636   */\n      tag_539\n        /* \"#utility.yul\":12631:12635   */\n      dup2\n        /* \"#utility.yul\":12505:12636   */\n      tag_437\n      jump\t// in\n    tag_539:\n        /* \"#utility.yul\":12497:12636   */\n      swap1\n      pop\n        /* \"#utility.yul\":12224:12643   */\n      swap2\n      swap1\n      pop\n      jump\t// out\n        /* \"#utility.yul\":12649:13068   */\n    tag_282:\n        /* \"#utility.yul\":12815:12819   */\n      0x00\n        /* \"#utility.yul\":12853:12855   */\n      0x20\n        /* \"#utility.yul\":12842:12851   */\n      dup3\n        /* \"#utility.yul\":12838:12856   */\n      add\n        /* \"#utility.yul\":12830:12856   */\n      swap1\n      pop\n        /* \"#utility.yul\":12902:12911   */\n      dup2\n        /* \"#utility.yul\":12896:12900   */\n      dup2\n        /* \"#utility.yul\":12892:12912   */\n      sub\n        /* \"#utility.yul\":12888:12889   */\n      0x00\n        /* \"#utility.yul\":12877:12886   */\n      dup4\n        /* \"#utility.yul\":12873:12890   */\n      add\n        /* \"#utility.yul\":12866:12913   */\n      mstore\n        /* \"#utility.yul\":12930:13061   */\n      tag_541\n        /* \"#utility.yul\":13056:13060   */\n      dup2\n        /* \"#utility.yul\":12930:13061   */\n      tag_442\n      jump\t// in\n    tag_541:\n        /* \"#utility.yul\":12922:13061   */\n      swap1\n      pop\n        /* \"#utility.yul\":12649:13068   */\n      swap2\n      swap1\n      pop\n      jump\t// out\n        /* \"#utility.yul\":13074:13493   */\n    tag_341:\n        /* \"#utility.yul\":13240:13244   */\n      0x00\n        /* \"#utility.yul\":13278:13280   */\n      0x20\n        /* \"#utility.yul\":13267:13276   */\n      dup3\n        /* \"#utility.yul\":13263:13281   */\n      add\n        /* \"#utility.yul\":13255:13281   */\n      swap1\n      pop\n        /* \"#utility.yul\":13327:13336   */\n      dup2\n        /* \"#utility.yul\":13321:13325   */\n      dup2\n        /* \"#utility.yul\":13317:13337   */\n      sub\n        /* \"#utility.yul\":13313:13314   */\n      0x00\n        /* \"#utility.yul\":13302:13311   */\n      dup4\n        /* \"#utility.yul\":13298:13315   */\n      add\n        /* \"#utility.yul\":13291:13338   */\n      mstore\n        /* \"#utility.yul\":13355:13486   */\n      tag_543\n        /* \"#utility.yul\":13481:13485   */\n      dup2\n        /* \"#utility.yul\":13355:13486   */\n      tag_447\n      jump\t// in\n    tag_543:\n        /* \"#utility.yul\":13347:13486   */\n      swap1\n      pop\n        /* \"#utility.yul\":13074:13493   */\n      swap2\n      swap1\n      pop\n      jump\t// out\n        /* \"#utility.yul\":13499:13918   */\n    tag_300:\n        /* \"#utility.yul\":13665:13669   */\n      0x00\n        /* \"#utility.yul\":13703:13705   */\n      0x20\n        /* \"#utility.yul\":13692:13701   */\n      dup3\n        /* \"#utility.yul\":13688:13706   */\n      add\n        /* \"#utility.yul\":13680:13706   */\n      swap1\n      pop\n        /* \"#utility.yul\":13752:13761   */\n      dup2\n        /* \"#utility.yul\":13746:13750   */\n      dup2\n        /* \"#utility.yul\":13742:13762   */\n      sub\n        /* \"#utility.yul\":13738:13739   */\n      0x00\n        /* \"#utility.yul\":13727:13736   */\n      dup4\n        /* \"#utility.yul\":13723:13740   */\n      add\n        /* \"#utility.yul\":13716:13763   */\n      mstore\n        /* \"#utility.yul\":13780:13911   */\n      tag_545\n        /* \"#utility.yul\":13906:13910   */\n      dup2\n        /* \"#utility.yul\":13780:13911   */\n      tag_452\n      jump\t// in\n    tag_545:\n        /* \"#utility.yul\":13772:13911   */\n      swap1\n      pop\n        /* \"#utility.yul\":13499:13918   */\n      swap2\n      swap1\n      pop\n      jump\t// out\n        /* \"#utility.yul\":13924:14343   */\n    tag_110:\n        /* \"#utility.yul\":14090:14094   */\n      0x00\n        /* \"#utility.yul\":14128:14130   */\n      0x20\n        /* \"#utility.yul\":14117:14126   */\n      dup3\n        /* \"#utility.yul\":14113:14131   */\n      add\n        /* \"#utility.yul\":14105:14131   */\n      swap1\n      pop\n        /* \"#utility.yul\":14177:14186   */\n      dup2\n        /* \"#utility.yul\":14171:14175   */\n      dup2\n        /* \"#utility.yul\":14167:14187   */\n      sub\n        /* \"#utility.yul\":14163:14164   */\n      0x00\n        /* \"#utility.yul\":14152:14161   */\n      dup4\n        /* \"#utility.yul\":14148:14165   */\n      add\n        /* \"#utility.yul\":14141:14188   */\n      mstore\n        /* \"#utility.yul\":14205:14336   */\n      tag_547\n        /* \"#utility.yul\":14331:14335   */\n      dup2\n        /* \"#utility.yul\":14205:14336   */\n      tag_457\n      jump\t// in\n    tag_547:\n        /* \"#utility.yul\":14197:14336   */\n      swap1\n      pop\n        /* \"#utility.yul\":13924:14343   */\n      swap2\n      swap1\n      pop\n      jump\t// out\n        /* \"#utility.yul\":14349:14768   */\n    tag_204:\n        /* \"#utility.yul\":14515:14519   */\n      0x00\n        /* \"#utility.yul\":14553:14555   */\n      0x20\n        /* \"#utility.yul\":14542:14551   */\n      dup3\n        /* \"#utility.yul\":14538:14556   */\n      add\n        /* \"#utility.yul\":14530:14556   */\n      swap1\n      pop\n        /* \"#utility.yul\":14602:14611   */\n      dup2\n        /* \"#utility.yul\":14596:14600   */\n      dup2\n        /* \"#utility.yul\":14592:14612   */\n      sub\n        /* \"#utility.yul\":14588:14589   */\n      0x00\n        /* \"#utility.yul\":14577:14586   */\n      dup4\n        /* \"#utility.yul\":14573:14590   */\n      add\n        /* \"#utility.yul\":14566:14613   */\n      mstore\n        /* \"#utility.yul\":14630:14761   */\n      tag_549\n        /* \"#utility.yul\":14756:14760   */\n      dup2\n        /* \"#utility.yul\":14630:14761   */\n      tag_462\n      jump\t// in\n    tag_549:\n        /* \"#utility.yul\":14622:14761   */\n      swap1\n      pop\n        /* \"#utility.yul\":14349:14768   */\n      swap2\n      swap1\n      pop\n      jump\t// out\n        /* \"#utility.yul\":14774:15193   */\n    tag_348:\n        /* \"#utility.yul\":14940:14944   */\n      0x00\n        /* \"#utility.yul\":14978:14980   */\n      0x20\n        /* \"#utility.yul\":14967:14976   */\n      dup3\n        /* \"#utility.yul\":14963:14981   */\n      add\n        /* \"#utility.yul\":14955:14981   */\n      swap1\n      pop\n        /* \"#utility.yul\":15027:15036   */\n      dup2\n        /* \"#utility.yul\":15021:15025   */\n      dup2\n        /* \"#utility.yul\":15017:15037   */\n      sub\n        /* \"#utility.yul\":15013:15014   */\n      0x00\n        /* \"#utility.yul\":15002:15011   */\n      dup4\n        /* \"#utility.yul\":14998:15015   */\n      add\n        /* \"#utility.yul\":14991:15038   */\n      mstore\n        /* \"#utility.yul\":15055:15186   */\n      tag_551\n        /* \"#utility.yul\":15181:15185   */\n      dup2\n        /* \"#utility.yul\":15055:15186   */\n      tag_467\n      jump\t// in\n    tag_551:\n        /* \"#utility.yul\":15047:15186   */\n      swap1\n      pop\n        /* \"#utility.yul\":14774:15193   */\n      swap2\n      swap1\n      pop\n      jump\t// out\n        /* \"#utility.yul\":15199:15618   */\n    tag_107:\n        /* \"#utility.yul\":15365:15369   */\n      0x00\n        /* \"#utility.yul\":15403:15405   */\n      0x20\n        /* \"#utility.yul\":15392:15401   */\n      dup3\n        /* \"#utility.yul\":15388:15406   */\n      add\n        /* \"#utility.yul\":15380:15406   */\n      swap1\n      pop\n        /* \"#utility.yul\":15452:15461   */\n      dup2\n        /* \"#utility.yul\":15446:15450   */\n      dup2\n        /* \"#utility.yul\":15442:15462   */\n      sub\n        /* \"#utility.yul\":15438:15439   */\n      0x00\n        /* \"#utility.yul\":15427:15436   */\n      dup4\n        /* \"#utility.yul\":15423:15440   */\n      add\n        /* \"#utility.yul\":15416:15463   */\n      mstore\n        /* \"#utility.yul\":15480:15611   */\n      tag_553\n        /* \"#utility.yul\":15606:15610   */\n      dup2\n        /* \"#utility.yul\":15480:15611   */\n      tag_472\n      jump\t// in\n    tag_553:\n        /* \"#utility.yul\":15472:15611   */\n      swap1\n      pop\n        /* \"#utility.yul\":15199:15618   */\n      swap2\n      swap1\n      pop\n      jump\t// out\n        /* \"#utility.yul\":15624:16043   */\n    tag_186:\n        /* \"#utility.yul\":15790:15794   */\n      0x00\n        /* \"#utility.yul\":15828:15830   */\n      0x20\n        /* \"#utility.yul\":15817:15826   */\n      dup3\n        /* \"#utility.yul\":15813:15831   */\n      add\n        /* \"#utility.yul\":15805:15831   */\n      swap1\n      pop\n        /* \"#utility.yul\":15877:15886   */\n      dup2\n        /* \"#utility.yul\":15871:15875   */\n      dup2\n        /* \"#utility.yul\":15867:15887   */\n      sub\n        /* \"#utility.yul\":15863:15864   */\n      0x00\n        /* \"#utility.yul\":15852:15861   */\n      dup4\n        /* \"#utility.yul\":15848:15865   */\n      add\n        /* \"#utility.yul\":15841:15888   */\n      mstore\n        /* \"#utility.yul\":15905:16036   */\n      tag_555\n        /* \"#utility.yul\":16031:16035   */\n      dup2\n        /* \"#utility.yul\":15905:16036   */\n      tag_477\n      jump\t// in\n    tag_555:\n        /* \"#utility.yul\":15897:16036   */\n      swap1\n      pop\n        /* \"#utility.yul\":15624:16043   */\n      swap2\n      swap1\n      pop\n      jump\t// out\n        /* \"#utility.yul\":16049:16468   */\n    tag_268:\n        /* \"#utility.yul\":16215:16219   */\n      0x00\n        /* \"#utility.yul\":16253:16255   */\n      0x20\n        /* \"#utility.yul\":16242:16251   */\n      dup3\n        /* \"#utility.yul\":16238:16256   */\n      add\n        /* \"#utility.yul\":16230:16256   */\n      swap1\n      pop\n        /* \"#utility.yul\":16302:16311   */\n      dup2\n        /* \"#utility.yul\":16296:16300   */\n      dup2\n        /* \"#utility.yul\":16292:16312   */\n      sub\n        /* \"#utility.yul\":16288:16289   */\n      0x00\n        /* \"#utility.yul\":16277:16286   */\n      dup4\n        /* \"#utility.yul\":16273:16290   */\n      add\n        /* \"#utility.yul\":16266:16313   */\n      mstore\n        /* \"#utility.yul\":16330:16461   */\n      tag_557\n        /* \"#utility.yul\":16456:16460   */\n      dup2\n        /* \"#utility.yul\":16330:16461   */\n      tag_482\n      jump\t// in\n    tag_557:\n        /* \"#utility.yul\":16322:16461   */\n      swap1\n      pop\n        /* \"#utility.yul\":16049:16468   */\n      swap2\n      swap1\n      pop\n      jump\t// out\n        /* \"#utility.yul\":16474:16893   */\n    tag_353:\n        /* \"#utility.yul\":16640:16644   */\n      0x00\n        /* \"#utility.yul\":16678:16680   */\n      0x20\n        /* \"#utility.yul\":16667:16676   */\n      dup3\n        /* \"#utility.yul\":16663:16681   */\n      add\n        /* \"#utility.yul\":16655:16681   */\n      swap1\n      pop\n        /* \"#utility.yul\":16727:16736   */\n      dup2\n        /* \"#utility.yul\":16721:16725   */\n      dup2\n        /* \"#utility.yul\":16717:16737   */\n      sub\n        /* \"#utility.yul\":16713:16714   */\n      0x00\n        /* \"#utility.yul\":16702:16711   */\n      dup4\n        /* \"#utility.yul\":16698:16715   */\n      add\n        /* \"#utility.yul\":16691:16738   */\n      mstore\n        /* \"#utility.yul\":16755:16886   */\n      tag_559\n        /* \"#utility.yul\":16881:16885   */\n      dup2\n        /* \"#utility.yul\":16755:16886   */\n      tag_487\n      jump\t// in\n    tag_559:\n        /* \"#utility.yul\":16747:16886   */\n      swap1\n      pop\n        /* \"#utility.yul\":16474:16893   */\n      swap2\n      swap1\n      pop\n      jump\t// out\n        /* \"#utility.yul\":16899:17318   */\n    tag_258:\n        /* \"#utility.yul\":17065:17069   */\n      0x00\n        /* \"#utility.yul\":17103:17105   */\n      0x20\n        /* \"#utility.yul\":17092:17101   */\n      dup3\n        /* \"#utility.yul\":17088:17106   */\n      add\n        /* \"#utility.yul\":17080:17106   */\n      swap1\n      pop\n        /* \"#utility.yul\":17152:17161   */\n      dup2\n        /* \"#utility.yul\":17146:17150   */\n      dup2\n        /* \"#utility.yul\":17142:17162   */\n      sub\n        /* \"#utility.yul\":17138:17139   */\n      0x00\n        /* \"#utility.yul\":17127:17136   */\n      dup4\n        /* \"#utility.yul\":17123:17140   */\n      add\n        /* \"#utility.yul\":17116:17163   */\n      mstore\n        /* \"#utility.yul\":17180:17311   */\n      tag_561\n        /* \"#utility.yul\":17306:17310   */\n      dup2\n        /* \"#utility.yul\":17180:17311   */\n      tag_492\n      jump\t// in\n    tag_561:\n        /* \"#utility.yul\":17172:17311   */\n      swap1\n      pop\n        /* \"#utility.yul\":16899:17318   */\n      swap2\n      swap1\n      pop\n      jump\t// out\n        /* \"#utility.yul\":17324:17743   */\n    tag_237:\n        /* \"#utility.yul\":17490:17494   */\n      0x00\n        /* \"#utility.yul\":17528:17530   */\n      0x20\n        /* \"#utility.yul\":17517:17526   */\n      dup3\n        /* \"#utility.yul\":17513:17531   */\n      add\n        /* \"#utility.yul\":17505:17531   */\n      swap1\n      pop\n        /* \"#utility.yul\":17577:17586   */\n      dup2\n        /* \"#utility.yul\":17571:17575   */\n      dup2\n        /* \"#utility.yul\":17567:17587   */\n      sub\n        /* \"#utility.yul\":17563:17564   */\n      0x00\n        /* \"#utility.yul\":17552:17561   */\n      dup4\n        /* \"#utility.yul\":17548:17565   */\n      add\n        /* \"#utility.yul\":17541:17588   */\n      mstore\n        /* \"#utility.yul\":17605:17736   */\n      tag_563\n        /* \"#utility.yul\":17731:17735   */\n      dup2\n        /* \"#utility.yul\":17605:17736   */\n      tag_497\n      jump\t// in\n    tag_563:\n        /* \"#utility.yul\":17597:17736   */\n      swap1\n      pop\n        /* \"#utility.yul\":17324:17743   */\n      swap2\n      swap1\n      pop\n      jump\t// out\n        /* \"#utility.yul\":17749:18168   */\n    tag_190:\n        /* \"#utility.yul\":17915:17919   */\n      0x00\n        /* \"#utility.yul\":17953:17955   */\n      0x20\n        /* \"#utility.yul\":17942:17951   */\n      dup3\n        /* \"#utility.yul\":17938:17956   */\n      add\n        /* \"#utility.yul\":17930:17956   */\n      swap1\n      pop\n        /* \"#utility.yul\":18002:18011   */\n      dup2\n        /* \"#utility.yul\":17996:18000   */\n      dup2\n        /* \"#utility.yul\":17992:18012   */\n      sub\n        /* \"#utility.yul\":17988:17989   */\n      0x00\n        /* \"#utility.yul\":17977:17986   */\n      dup4\n        /* \"#utility.yul\":17973:17990   */\n      add\n        /* \"#utility.yul\":17966:18013   */\n      mstore\n        /* \"#utility.yul\":18030:18161   */\n      tag_565\n        /* \"#utility.yul\":18156:18160   */\n      dup2\n        /* \"#utility.yul\":18030:18161   */\n      tag_502\n      jump\t// in\n    tag_565:\n        /* \"#utility.yul\":18022:18161   */\n      swap1\n      pop\n        /* \"#utility.yul\":17749:18168   */\n      swap2\n      swap1\n      pop\n      jump\t// out\n        /* \"#utility.yul\":18174:18593   */\n    tag_223:\n        /* \"#utility.yul\":18340:18344   */\n      0x00\n        /* \"#utility.yul\":18378:18380   */\n      0x20\n        /* \"#utility.yul\":18367:18376   */\n      dup3\n        /* \"#utility.yul\":18363:18381   */\n      add\n        /* \"#utility.yul\":18355:18381   */\n      swap1\n      pop\n        /* \"#utility.yul\":18427:18436   */\n      dup2\n        /* \"#utility.yul\":18421:18425   */\n      dup2\n        /* \"#utility.yul\":18417:18437   */\n      sub\n        /* \"#utility.yul\":18413:18414   */\n      0x00\n        /* \"#utility.yul\":18402:18411   */\n      dup4\n        /* \"#utility.yul\":18398:18415   */\n      add\n        /* \"#utility.yul\":18391:18438   */\n      mstore\n        /* \"#utility.yul\":18455:18586   */\n      tag_567\n        /* \"#utility.yul\":18581:18585   */\n      dup2\n        /* \"#utility.yul\":18455:18586   */\n      tag_507\n      jump\t// in\n    tag_567:\n        /* \"#utility.yul\":18447:18586   */\n      swap1\n      pop\n        /* \"#utility.yul\":18174:18593   */\n      swap2\n      swap1\n      pop\n      jump\t// out\n        /* \"#utility.yul\":18599:19018   */\n    tag_201:\n        /* \"#utility.yul\":18765:18769   */\n      0x00\n        /* \"#utility.yul\":18803:18805   */\n      0x20\n        /* \"#utility.yul\":18792:18801   */\n      dup3\n        /* \"#utility.yul\":18788:18806   */\n      add\n        /* \"#utility.yul\":18780:18806   */\n      swap1\n      pop\n        /* \"#utility.yul\":18852:18861   */\n      dup2\n        /* \"#utility.yul\":18846:18850   */\n      dup2\n        /* \"#utility.yul\":18842:18862   */\n      sub\n        /* \"#utility.yul\":18838:18839   */\n      0x00\n        /* \"#utility.yul\":18827:18836   */\n      dup4\n        /* \"#utility.yul\":18823:18840   */\n      add\n        /* \"#utility.yul\":18816:18863   */\n      mstore\n        /* \"#utility.yul\":18880:19011   */\n      tag_569\n        /* \"#utility.yul\":19006:19010   */\n      dup2\n        /* \"#utility.yul\":18880:19011   */\n      tag_512\n      jump\t// in\n    tag_569:\n        /* \"#utility.yul\":18872:19011   */\n      swap1\n      pop\n        /* \"#utility.yul\":18599:19018   */\n      swap2\n      swap1\n      pop\n      jump\t// out\n        /* \"#utility.yul\":19024:19246   */\n    tag_31:\n        /* \"#utility.yul\":19117:19121   */\n      0x00\n        /* \"#utility.yul\":19155:19157   */\n      0x20\n        /* \"#utility.yul\":19144:19153   */\n      dup3\n        /* \"#utility.yul\":19140:19158   */\n      add\n        /* \"#utility.yul\":19132:19158   */\n      swap1\n      pop\n        /* \"#utility.yul\":19168:19239   */\n      tag_571\n        /* \"#utility.yul\":19236:19237   */\n      0x00\n        /* \"#utility.yul\":19225:19234   */\n      dup4\n        /* \"#utility.yul\":19221:19238   */\n      add\n        /* \"#utility.yul\":19212:19218   */\n      dup5\n        /* \"#utility.yul\":19168:19239   */\n      tag_517\n      jump\t// in\n    tag_571:\n        /* \"#utility.yul\":19024:19246   */\n      swap3\n      swap2\n      pop\n      pop\n      jump\t// out\n        /* \"#utility.yul\":19333:19431   */\n    tag_414:\n        /* \"#utility.yul\":19384:19390   */\n      0x00\n        /* \"#utility.yul\":19418:19423   */\n      dup2\n        /* \"#utility.yul\":19412:19424   */\n      mload\n        /* \"#utility.yul\":19402:19424   */\n      swap1\n      pop\n        /* \"#utility.yul\":19333:19431   */\n      swap2\n      swap1\n      pop\n      jump\t// out\n        /* \"#utility.yul\":19437:19536   */\n    tag_426:\n        /* \"#utility.yul\":19489:19495   */\n      0x00\n        /* \"#utility.yul\":19523:19528   */\n      dup2\n        /* \"#utility.yul\":19517:19529   */\n      mload\n        /* \"#utility.yul\":19507:19529   */\n      swap1\n      pop\n        /* \"#utility.yul\":19437:19536   */\n      swap2\n      swap1\n      pop\n      jump\t// out\n        /* \"#utility.yul\":19542:19689   */\n    tag_416:\n        /* \"#utility.yul\":19643:19654   */\n      0x00\n        /* \"#utility.yul\":19680:19683   */\n      dup2\n        /* \"#utility.yul\":19665:19683   */\n      swap1\n      pop\n        /* \"#utility.yul\":19542:19689   */\n      swap3\n      swap2\n      pop\n      pop\n      jump\t// out\n        /* \"#utility.yul\":19695:19864   */\n    tag_428:\n        /* \"#utility.yul\":19779:19790   */\n      0x00\n        /* \"#utility.yul\":19813:19819   */\n      dup3\n        /* \"#utility.yul\":19808:19811   */\n      dup3\n        /* \"#utility.yul\":19801:19820   */\n      mstore\n        /* \"#utility.yul\":19853:19857   */\n      0x20\n        /* \"#utility.yul\":19848:19851   */\n      dup3\n        /* \"#utility.yul\":19844:19858   */\n      add\n        /* \"#utility.yul\":19829:19858   */\n      swap1\n      pop\n        /* \"#utility.yul\":19695:19864   */\n      swap3\n      swap2\n      pop\n      pop\n      jump\t// out\n        /* \"#utility.yul\":19870:20175   */\n    tag_319:\n        /* \"#utility.yul\":19910:19913   */\n      0x00\n        /* \"#utility.yul\":19929:19949   */\n      tag_579\n        /* \"#utility.yul\":19947:19948   */\n      dup3\n        /* \"#utility.yul\":19929:19949   */\n      tag_520\n      jump\t// in\n    tag_579:\n        /* \"#utility.yul\":19924:19949   */\n      swap2\n      pop\n        /* \"#utility.yul\":19963:19983   */\n      tag_580\n        /* \"#utility.yul\":19981:19982   */\n      dup4\n        /* \"#utility.yul\":19963:19983   */\n      tag_520\n      jump\t// in\n    tag_580:\n        /* \"#utility.yul\":19958:19983   */\n      swap3\n      pop\n        /* \"#utility.yul\":20117:20118   */\n      dup3\n        /* \"#utility.yul\":20049:20115   */\n      0xffffffffffffffffffffffffffffffffffffffffffffffffffffffffffffffff\n        /* \"#utility.yul\":20045:20119   */\n      sub\n        /* \"#utility.yul\":20042:20043   */\n      dup3\n        /* \"#utility.yul\":20039:20120   */\n      gt\n        /* \"#utility.yul\":20036:20143   */\n      iszero\n      tag_581\n      jumpi\n        /* \"#utility.yul\":20123:20141   */\n      tag_582\n      tag_583\n      jump\t// in\n    tag_582:\n        /* \"#utility.yul\":20036:20143   */\n    tag_581:\n        /* \"#utility.yul\":20167:20168   */\n      dup3\n        /* \"#utility.yul\":20164:20165   */\n      dup3\n        /* \"#utility.yul\":20160:20169   */\n      add\n        /* \"#utility.yul\":20153:20169   */\n      swap1\n      pop\n        /* \"#utility.yul\":19870:20175   */\n      swap3\n      swap2\n      pop\n      pop\n      jump\t// out\n        /* \"#utility.yul\":20181:20366   */\n    tag_316:\n        /* \"#utility.yul\":20221:20222   */\n      0x00\n        /* \"#utility.yul\":20238:20258   */\n      tag_585\n        /* \"#utility.yul\":20256:20257   */\n      dup3\n        /* \"#utility.yul\":20238:20258   */\n      tag_520\n      jump\t// in\n    tag_585:\n        /* \"#utility.yul\":20233:20258   */\n      swap2\n      pop\n        /* \"#utility.yul\":20272:20292   */\n      tag_586\n        /* \"#utility.yul\":20290:20291   */\n      dup4\n        /* \"#utility.yul\":20272:20292   */\n      tag_520\n      jump\t// in\n    tag_586:\n        /* \"#utility.yul\":20267:20292   */\n      swap3\n      pop\n        /* \"#utility.yul\":20311:20312   */\n      dup3\n        /* \"#utility.yul\":20301:20336   */\n      tag_587\n      jumpi\n        /* \"#utility.yul\":20316:20334   */\n      tag_588\n      tag_589\n      jump\t// in\n    tag_588:\n        /* \"#utility.yul\":20301:20336   */\n    tag_587:\n        /* \"#utility.yul\":20358:20359   */\n      dup3\n        /* \"#utility.yul\":20355:20356   */\n      dup3\n        /* \"#utility.yul\":20351:20360   */\n      div\n        /* \"#utility.yul\":20346:20360   */\n      swap1\n      pop\n        /* \"#utility.yul\":20181:20366   */\n      swap3\n      swap2\n      pop\n      pop\n      jump\t// out\n        /* \"#utility.yul\":20372:20720   */\n    tag_322:\n        /* \"#utility.yul\":20412:20419   */\n      0x00\n        /* \"#utility.yul\":20435:20455   */\n      tag_591\n        /* \"#utility.yul\":20453:20454   */\n      dup3\n        /* \"#utility.yul\":20435:20455   */\n      tag_520\n      jump\t// in\n    tag_591:\n        /* \"#utility.yul\":20430:20455   */\n      swap2\n      pop\n        /* \"#utility.yul\":20469:20489   */\n      tag_592\n        /* \"#utility.yul\":20487:20488   */\n      dup4\n        /* \"#utility.yul\":20469:20489   */\n      tag_520\n      jump\t// in\n    tag_592:\n        /* \"#utility.yul\":20464:20489   */\n      swap3\n      pop\n        /* \"#utility.yul\":20657:20658   */\n      dup2\n        /* \"#utility.yul\":20589:20655   */\n      0xffffffffffffffffffffffffffffffffffffffffffffffffffffffffffffffff\n        /* \"#utility.yul\":20585:20659   */\n      div\n        /* \"#utility.yul\":20582:20583   */\n      dup4\n        /* \"#utility.yul\":20579:20660   */\n      gt\n        /* \"#utility.yul\":20574:20575   */\n      dup3\n        /* \"#utility.yul\":20567:20576   */\n      iszero\n        /* \"#utility.yul\":20560:20577   */\n      iszero\n        /* \"#utility.yul\":20556:20661   */\n      and\n        /* \"#utility.yul\":20553:20684   */\n      iszero\n      tag_593\n      jumpi\n        /* \"#utility.yul\":20664:20682   */\n      tag_594\n      tag_583\n      jump\t// in\n    tag_594:\n        /* \"#utility.yul\":20553:20684   */\n    tag_593:\n        /* \"#utility.yul\":20712:20713   */\n      dup3\n        /* \"#utility.yul\":20709:20710   */\n      dup3\n        /* \"#utility.yul\":20705:20714   */\n      mul\n        /* \"#utility.yul\":20694:20714   */\n      swap1\n      pop\n        /* \"#utility.yul\":20372:20720   */\n      swap3\n      swap2\n      pop\n      pop\n      jump\t// out\n        /* \"#utility.yul\":20726:20917   */\n    tag_313:\n        /* \"#utility.yul\":20766:20770   */\n      0x00\n        /* \"#utility.yul\":20786:20806   */\n      tag_596\n        /* \"#utility.yul\":20804:20805   */\n      dup3\n        /* \"#utility.yul\":20786:20806   */\n      tag_520\n      jump\t// in\n    tag_596:\n        /* \"#utility.yul\":20781:20806   */\n      swap2\n      pop\n        /* \"#utility.yul\":20820:20840   */\n      tag_597\n        /* \"#utility.yul\":20838:20839   */\n      dup4\n        /* \"#utility.yul\":20820:20840   */\n      tag_520\n      jump\t// in\n    tag_597:\n        /* \"#utility.yul\":20815:20840   */\n      swap3\n      pop\n        /* \"#utility.yul\":20859:20860   */\n      dup3\n        /* \"#utility.yul\":20856:20857   */\n      dup3\n        /* \"#utility.yul\":20853:20861   */\n      lt\n        /* \"#utility.yul\":20850:20884   */\n      iszero\n      tag_598\n      jumpi\n        /* \"#utility.yul\":20864:20882   */\n      tag_599\n      tag_583\n      jump\t// in\n    tag_599:\n        /* \"#utility.yul\":20850:20884   */\n    tag_598:\n        /* \"#utility.yul\":20909:20910   */\n      dup3\n        /* \"#utility.yul\":20906:20907   */\n      dup3\n        /* \"#utility.yul\":20902:20911   */\n      sub\n        /* \"#utility.yul\":20894:20911   */\n      swap1\n      pop\n        /* \"#utility.yul\":20726:20917   */\n      swap3\n      swap2\n      pop\n      pop\n      jump\t// out\n        /* \"#utility.yul\":20923:21019   */\n    tag_410:\n        /* \"#utility.yul\":20960:20967   */\n      0x00\n        /* \"#utility.yul\":20989:21013   */\n      tag_601\n        /* \"#utility.yul\":21007:21012   */\n      dup3\n        /* \"#utility.yul\":20989:21013   */\n      tag_602\n      jump\t// in\n    tag_601:\n        /* \"#utility.yul\":20978:21013   */\n      swap1\n      pop\n        /* \"#utility.yul\":20923:21019   */\n      swap2\n      swap1\n      pop\n      jump\t// out\n        /* \"#utility.yul\":21025:21115   */\n    tag_603:\n        /* \"#utility.yul\":21059:21066   */\n      0x00\n        /* \"#utility.yul\":21102:21107   */\n      dup2\n        /* \"#utility.yul\":21095:21108   */\n      iszero\n        /* \"#utility.yul\":21088:21109   */\n      iszero\n        /* \"#utility.yul\":21077:21109   */\n      swap1\n      pop\n        /* \"#utility.yul\":21025:21115   */\n      swap2\n      swap1\n      pop\n      jump\t// out\n        /* \"#utility.yul\":21121:21247   */\n    tag_602:\n        /* \"#utility.yul\":21158:21165   */\n      0x00\n        /* \"#utility.yul\":21198:21240   */\n      0xffffffffffffffffffffffffffffffffffffffff\n        /* \"#utility.yul\":21191:21196   */\n      dup3\n        /* \"#utility.yul\":21187:21241   */\n      and\n        /* \"#utility.yul\":21176:21241   */\n      swap1\n      pop\n        /* \"#utility.yul\":21121:21247   */\n      swap2\n      swap1\n      pop\n      jump\t// out\n        /* \"#utility.yul\":21253:21330   */\n    tag_520:\n        /* \"#utility.yul\":21290:21297   */\n      0x00\n        /* \"#utility.yul\":21319:21324   */\n      dup2\n        /* \"#utility.yul\":21308:21324   */\n      swap1\n      pop\n        /* \"#utility.yul\":21253:21330   */\n      swap2\n      swap1\n      pop\n      jump\t// out\n        /* \"#utility.yul\":21336:21476   */\n    tag_422:\n        /* \"#utility.yul\":21400:21409   */\n      0x00\n        /* \"#utility.yul\":21433:21470   */\n      tag_608\n        /* \"#utility.yul\":21464:21469   */\n      dup3\n        /* \"#utility.yul\":21433:21470   */\n      tag_609\n      jump\t// in\n    tag_608:\n        /* \"#utility.yul\":21420:21470   */\n      swap1\n      pop\n        /* \"#utility.yul\":21336:21476   */\n      swap2\n      swap1\n      pop\n      jump\t// out\n        /* \"#utility.yul\":21482:21608   */\n    tag_609:\n        /* \"#utility.yul\":21532:21541   */\n      0x00\n        /* \"#utility.yul\":21565:21602   */\n      tag_611\n        /* \"#utility.yul\":21596:21601   */\n      dup3\n        /* \"#utility.yul\":21565:21602   */\n      tag_612\n      jump\t// in\n    tag_611:\n        /* \"#utility.yul\":21552:21602   */\n      swap1\n      pop\n        /* \"#utility.yul\":21482:21608   */\n      swap2\n      swap1\n      pop\n      jump\t// out\n        /* \"#utility.yul\":21614:21727   */\n    tag_612:\n        /* \"#utility.yul\":21664:21673   */\n      0x00\n        /* \"#utility.yul\":21697:21721   */\n      tag_614\n        /* \"#utility.yul\":21715:21720   */\n      dup3\n        /* \"#utility.yul\":21697:21721   */\n      tag_602\n      jump\t// in\n    tag_614:\n        /* \"#utility.yul\":21684:21721   */\n      swap1\n      pop\n        /* \"#utility.yul\":21614:21727   */\n      swap2\n      swap1\n      pop\n      jump\t// out\n        /* \"#utility.yul\":21733:22040   */\n    tag_418:\n        /* \"#utility.yul\":21801:21802   */\n      0x00\n        /* \"#utility.yul\":21811:21924   */\n    tag_616:\n        /* \"#utility.yul\":21825:21831   */\n      dup4\n        /* \"#utility.yul\":21822:21823   */\n      dup2\n        /* \"#utility.yul\":21819:21832   */\n      lt\n        /* \"#utility.yul\":21811:21924   */\n      iszero\n      tag_618\n      jumpi\n        /* \"#utility.yul\":21910:21911   */\n      dup1\n        /* \"#utility.yul\":21905:21908   */\n      dup3\n        /* \"#utility.yul\":21901:21912   */\n      add\n        /* \"#utility.yul\":21895:21913   */\n      mload\n        /* \"#utility.yul\":21891:21892   */\n      dup2\n        /* \"#utility.yul\":21886:21889   */\n      dup5\n        /* \"#utility.yul\":21882:21893   */\n      add\n        /* \"#utility.yul\":21875:21914   */\n      mstore\n        /* \"#utility.yul\":21847:21849   */\n      0x20\n        /* \"#utility.yul\":21844:21845   */\n      dup2\n        /* \"#utility.yul\":21840:21850   */\n      add\n        /* \"#utility.yul\":21835:21850   */\n      swap1\n      pop\n        /* \"#utility.yul\":21811:21924   */\n      jump(tag_616)\n    tag_618:\n        /* \"#utility.yul\":21942:21948   */\n      dup4\n        /* \"#utility.yul\":21939:21940   */\n      dup2\n        /* \"#utility.yul\":21936:21949   */\n      gt\n        /* \"#utility.yul\":21933:22034   */\n      iszero\n      tag_619\n      jumpi\n        /* \"#utility.yul\":22022:22023   */\n      0x00\n        /* \"#utility.yul\":22013:22019   */\n      dup5\n        /* \"#utility.yul\":22008:22011   */\n      dup5\n        /* \"#utility.yul\":22004:22020   */\n      add\n        /* \"#utility.yul\":21997:22024   */\n      mstore\n        /* \"#utility.yul\":21933:22034   */\n    tag_619:\n        /* \"#utility.yul\":21782:22040   */\n      pop\n        /* \"#utility.yul\":21733:22040   */\n      pop\n      pop\n      pop\n      jump\t// out\n        /* \"#utility.yul\":22046:22222   */\n    tag_135:\n        /* \"#utility.yul\":22078:22079   */\n      0x00\n        /* \"#utility.yul\":22095:22115   */\n      tag_621\n        /* \"#utility.yul\":22113:22114   */\n      dup3\n        /* \"#utility.yul\":22095:22115   */\n      tag_520\n      jump\t// in\n    tag_621:\n        /* \"#utility.yul\":22090:22115   */\n      swap2\n      pop\n        /* \"#utility.yul\":22129:22149   */\n      tag_622\n        /* \"#utility.yul\":22147:22148   */\n      dup4\n        /* \"#utility.yul\":22129:22149   */\n      tag_520\n      jump\t// in\n    tag_622:\n        /* \"#utility.yul\":22124:22149   */\n      swap3\n      pop\n        /* \"#utility.yul\":22168:22169   */\n      dup3\n        /* \"#utility.yul\":22158:22193   */\n      tag_623\n      jumpi\n        /* \"#utility.yul\":22173:22191   */\n      tag_624\n      tag_589\n      jump\t// in\n    tag_624:\n        /* \"#utility.yul\":22158:22193   */\n    tag_623:\n        /* \"#utility.yul\":22214:22215   */\n      dup3\n        /* \"#utility.yul\":22211:22212   */\n      dup3\n        /* \"#utility.yul\":22207:22216   */\n      mod\n        /* \"#utility.yul\":22202:22216   */\n      swap1\n      pop\n        /* \"#utility.yul\":22046:22222   */\n      swap3\n      swap2\n      pop\n      pop\n      jump\t// out\n        /* \"#utility.yul\":22228:22408   */\n    tag_583:\n        /* \"#utility.yul\":22276:22353   */\n      0x4e487b7100000000000000000000000000000000000000000000000000000000\n        /* \"#utility.yul\":22273:22274   */\n      0x00\n        /* \"#utility.yul\":22266:22354   */\n      mstore\n        /* \"#utility.yul\":22373:22377   */\n      0x11\n        /* \"#utility.yul\":22370:22371   */\n      0x04\n        /* \"#utility.yul\":22363:22378   */\n      mstore\n        /* \"#utility.yul\":22397:22401   */\n      0x24\n        /* \"#utility.yul\":22394:22395   */\n      0x00\n        /* \"#utility.yul\":22387:22402   */\n      revert\n        /* \"#utility.yul\":22414:22594   */\n    tag_589:\n        /* \"#utility.yul\":22462:22539   */\n      0x4e487b7100000000000000000000000000000000000000000000000000000000\n        /* \"#utility.yul\":22459:22460   */\n      0x00\n        /* \"#utility.yul\":22452:22540   */\n      mstore\n        /* \"#utility.yul\":22559:22563   */\n      0x12\n        /* \"#utility.yul\":22556:22557   */\n      0x04\n        /* \"#utility.yul\":22549:22564   */\n      mstore\n        /* \"#utility.yul\":22583:22587   */\n      0x24\n        /* \"#utility.yul\":22580:22581   */\n      0x00\n        /* \"#utility.yul\":22573:22588   */\n      revert\n        /* \"#utility.yul\":22723:22840   */\n    tag_388:\n        /* \"#utility.yul\":22832:22833   */\n      0x00\n        /* \"#utility.yul\":22829:22830   */\n      dup1\n        /* \"#utility.yul\":22822:22834   */\n      revert\n        /* \"#utility.yul\":22846:22948   */\n    tag_431:\n        /* \"#utility.yul\":22887:22893   */\n      0x00\n        /* \"#utility.yul\":22938:22940   */\n      0x1f\n        /* \"#utility.yul\":22934:22941   */\n      not\n        /* \"#utility.yul\":22929:22931   */\n      0x1f\n        /* \"#utility.yul\":22922:22927   */\n      dup4\n        /* \"#utility.yul\":22918:22932   */\n      add\n        /* \"#utility.yul\":22914:22942   */\n      and\n        /* \"#utility.yul\":22904:22942   */\n      swap1\n      pop\n        /* \"#utility.yul\":22846:22948   */\n      swap2\n      swap1\n      pop\n      jump\t// out\n        /* \"#utility.yul\":22954:23116   */\n    tag_436:\n        /* \"#utility.yul\":23094:23108   */\n      0x496e73756666696369656e740000000000000000000000000000000000000000\n        /* \"#utility.yul\":23090:23091   */\n      0x00\n        /* \"#utility.yul\":23082:23088   */\n      dup3\n        /* \"#utility.yul\":23078:23092   */\n      add\n        /* \"#utility.yul\":23071:23109   */\n      mstore\n        /* \"#utility.yul\":22954:23116   */\n      pop\n      jump\t// out\n        /* \"#utility.yul\":23122:23288   */\n    tag_441:\n        /* \"#utility.yul\":23262:23280   */\n      0x4e6f7468696e6720746f20636c61696d00000000000000000000000000000000\n        /* \"#utility.yul\":23258:23259   */\n      0x00\n        /* \"#utility.yul\":23250:23256   */\n      dup3\n        /* \"#utility.yul\":23246:23260   */\n      add\n        /* \"#utility.yul\":23239:23281   */\n      mstore\n        /* \"#utility.yul\":23122:23288   */\n      pop\n      jump\t// out\n        /* \"#utility.yul\":23294:23465   */\n    tag_446:\n        /* \"#utility.yul\":23434:23457   */\n      0x4572726f723a20696e76616c6964207374616b65720000000000000000000000\n        /* \"#utility.yul\":23430:23431   */\n      0x00\n        /* \"#utility.yul\":23422:23428   */\n      dup3\n        /* \"#utility.yul\":23418:23432   */\n      add\n        /* \"#utility.yul\":23411:23458   */\n      mstore\n        /* \"#utility.yul\":23294:23465   */\n      pop\n      jump\t// out\n        /* \"#utility.yul\":23471:23700   */\n    tag_451:\n        /* \"#utility.yul\":23611:23645   */\n      0x5361666542455032303a204245503230206f7065726174696f6e20646964206e\n        /* \"#utility.yul\":23607:23608   */\n      0x00\n        /* \"#utility.yul\":23599:23605   */\n      dup3\n        /* \"#utility.yul\":23595:23609   */\n      add\n        /* \"#utility.yul\":23588:23646   */\n      mstore\n        /* \"#utility.yul\":23680:23692   */\n      0x6f74207375636365656400000000000000000000000000000000000000000000\n        /* \"#utility.yul\":23675:23677   */\n      0x20\n        /* \"#utility.yul\":23667:23673   */\n      dup3\n        /* \"#utility.yul\":23663:23678   */\n      add\n        /* \"#utility.yul\":23656:23693   */\n      mstore\n        /* \"#utility.yul\":23471:23700   */\n      pop\n      jump\t// out\n        /* \"#utility.yul\":23706:23931   */\n    tag_456:\n        /* \"#utility.yul\":23846:23880   */\n      0x4f776e61626c653a206e6577206f776e657220697320746865207a65726f2061\n        /* \"#utility.yul\":23842:23843   */\n      0x00\n        /* \"#utility.yul\":23834:23840   */\n      dup3\n        /* \"#utility.yul\":23830:23844   */\n      add\n        /* \"#utility.yul\":23823:23881   */\n      mstore\n        /* \"#utility.yul\":23915:23923   */\n      0x6464726573730000000000000000000000000000000000000000000000000000\n        /* \"#utility.yul\":23910:23912   */\n      0x20\n        /* \"#utility.yul\":23902:23908   */\n      dup3\n        /* \"#utility.yul\":23898:23913   */\n      add\n        /* \"#utility.yul\":23891:23924   */\n      mstore\n        /* \"#utility.yul\":23706:23931   */\n      pop\n      jump\t// out\n        /* \"#utility.yul\":23937:24101   */\n    tag_461:\n        /* \"#utility.yul\":24077:24093   */\n      0x496e76616c696420616d6f756e74000000000000000000000000000000000000\n        /* \"#utility.yul\":24073:24074   */\n      0x00\n        /* \"#utility.yul\":24065:24071   */\n      dup3\n        /* \"#utility.yul\":24061:24075   */\n      add\n        /* \"#utility.yul\":24054:24094   */\n      mstore\n        /* \"#utility.yul\":23937:24101   */\n      pop\n      jump\t// out\n        /* \"#utility.yul\":24107:24272   */\n    tag_466:\n        /* \"#utility.yul\":24247:24264   */\n      0x416c726561647920737461727465640000000000000000000000000000000000\n        /* \"#utility.yul\":24243:24244   */\n      0x00\n        /* \"#utility.yul\":24235:24241   */\n      dup3\n        /* \"#utility.yul\":24231:24245   */\n      add\n        /* \"#utility.yul\":24224:24265   */\n      mstore\n        /* \"#utility.yul\":24107:24272   */\n      pop\n      jump\t// out\n        /* \"#utility.yul\":24278:24503   */\n    tag_471:\n        /* \"#utility.yul\":24418:24452   */\n      0x416464726573733a20696e73756666696369656e742062616c616e636520666f\n        /* \"#utility.yul\":24414:24415   */\n      0x00\n        /* \"#utility.yul\":24406:24412   */\n      dup3\n        /* \"#utility.yul\":24402:24416   */\n      add\n        /* \"#utility.yul\":24395:24453   */\n      mstore\n        /* \"#utility.yul\":24487:24495   */\n      0x722063616c6c0000000000000000000000000000000000000000000000000000\n        /* \"#utility.yul\":24482:24484   */\n      0x20\n        /* \"#utility.yul\":24474:24480   */\n      dup3\n        /* \"#utility.yul\":24470:24485   */\n      add\n        /* \"#utility.yul\":24463:24496   */\n      mstore\n        /* \"#utility.yul\":24278:24503   */\n      pop\n      jump\t// out\n        /* \"#utility.yul\":24509:24690   */\n    tag_476:\n        /* \"#utility.yul\":24649:24682   */\n      0x416d6f756e742073686f756c642062652067726561746572207468616e203000\n        /* \"#utility.yul\":24645:24646   */\n      0x00\n        /* \"#utility.yul\":24637:24643   */\n      dup3\n        /* \"#utility.yul\":24633:24647   */\n      add\n        /* \"#utility.yul\":24626:24683   */\n      mstore\n        /* \"#utility.yul\":24509:24690   */\n      pop\n      jump\t// out\n        /* \"#utility.yul\":24696:24878   */\n    tag_481:\n        /* \"#utility.yul\":24836:24870   */\n      0x4f776e61626c653a2063616c6c6572206973206e6f7420746865206f776e6572\n        /* \"#utility.yul\":24832:24833   */\n      0x00\n        /* \"#utility.yul\":24824:24830   */\n      dup3\n        /* \"#utility.yul\":24820:24834   */\n      add\n        /* \"#utility.yul\":24813:24871   */\n      mstore\n        /* \"#utility.yul\":24696:24878   */\n      pop\n      jump\t// out\n        /* \"#utility.yul\":24884:25047   */\n    tag_486:\n        /* \"#utility.yul\":25024:25039   */\n      0x496e76616c69642076616c756500000000000000000000000000000000000000\n        /* \"#utility.yul\":25020:25021   */\n      0x00\n        /* \"#utility.yul\":25012:25018   */\n      dup3\n        /* \"#utility.yul\":25008:25022   */\n      add\n        /* \"#utility.yul\":25001:25040   */\n      mstore\n        /* \"#utility.yul\":24884:25047   */\n      pop\n      jump\t// out\n        /* \"#utility.yul\":25053:25232   */\n    tag_491:\n        /* \"#utility.yul\":25193:25224   */\n      0x416464726573733a2063616c6c20746f206e6f6e2d636f6e7472616374000000\n        /* \"#utility.yul\":25189:25190   */\n      0x00\n        /* \"#utility.yul\":25181:25187   */\n      dup3\n        /* \"#utility.yul\":25177:25191   */\n      add\n        /* \"#utility.yul\":25170:25225   */\n      mstore\n        /* \"#utility.yul\":25053:25232   */\n      pop\n      jump\t// out\n        /* \"#utility.yul\":25238:25414   */\n    tag_496:\n        /* \"#utility.yul\":25378:25406   */\n      0x496e76616c696420556e7374616b696e67204665652052617465000000000000\n        /* \"#utility.yul\":25374:25375   */\n      0x00\n        /* \"#utility.yul\":25366:25372   */\n      dup3\n        /* \"#utility.yul\":25362:25376   */\n      add\n        /* \"#utility.yul\":25355:25407   */\n      mstore\n        /* \"#utility.yul\":25238:25414   */\n      pop\n      jump\t// out\n        /* \"#utility.yul\":25420:25593   */\n    tag_501:\n        /* \"#utility.yul\":25560:25585   */\n      0x496e76616c6964204c6f636b7570204475726174696f6e000000000000000000\n        /* \"#utility.yul\":25556:25557   */\n      0x00\n        /* \"#utility.yul\":25548:25554   */\n      dup3\n        /* \"#utility.yul\":25544:25558   */\n      add\n        /* \"#utility.yul\":25537:25586   */\n      mstore\n        /* \"#utility.yul\":25420:25593   */\n      pop\n      jump\t// out\n        /* \"#utility.yul\":25599:25762   */\n    tag_506:\n        /* \"#utility.yul\":25739:25754   */\n      0x43616e2774206265207a65726f00000000000000000000000000000000000000\n        /* \"#utility.yul\":25735:25736   */\n      0x00\n        /* \"#utility.yul\":25727:25733   */\n      dup3\n        /* \"#utility.yul\":25723:25737   */\n      add\n        /* \"#utility.yul\":25716:25755   */\n      mstore\n        /* \"#utility.yul\":25599:25762   */\n      pop\n      jump\t// out\n        /* \"#utility.yul\":25768:25930   */\n    tag_511:\n        /* \"#utility.yul\":25908:25922   */\n      0x496e76616c6964204d6f64650000000000000000000000000000000000000000\n        /* \"#utility.yul\":25904:25905   */\n      0x00\n        /* \"#utility.yul\":25896:25902   */\n      dup3\n        /* \"#utility.yul\":25892:25906   */\n      add\n        /* \"#utility.yul\":25885:25923   */\n      mstore\n        /* \"#utility.yul\":25768:25930   */\n      pop\n      jump\t// out\n        /* \"#utility.yul\":25936:26099   */\n    tag_516:\n        /* \"#utility.yul\":26076:26091   */\n      0x496e73756666696369656e742100000000000000000000000000000000000000\n        /* \"#utility.yul\":26072:26073   */\n      0x00\n        /* \"#utility.yul\":26064:26070   */\n      dup3\n        /* \"#utility.yul\":26060:26074   */\n      add\n        /* \"#utility.yul\":26053:26092   */\n      mstore\n        /* \"#utility.yul\":25936:26099   */\n      pop\n      jump\t// out\n        /* \"#utility.yul\":26105:26227   */\n    tag_373:\n        /* \"#utility.yul\":26178:26202   */\n      tag_649\n        /* \"#utility.yul\":26196:26201   */\n      dup2\n        /* \"#utility.yul\":26178:26202   */\n      tag_410\n      jump\t// in\n    tag_649:\n        /* \"#utility.yul\":26171:26176   */\n      dup2\n        /* \"#utility.yul\":26168:26203   */\n      eq\n        /* \"#utility.yul\":26158:26221   */\n      tag_650\n      jumpi\n        /* \"#utility.yul\":26217:26218   */\n      0x00\n        /* \"#utility.yul\":26214:26215   */\n      dup1\n        /* \"#utility.yul\":26207:26219   */\n      revert\n        /* \"#utility.yul\":26158:26221   */\n    tag_650:\n        /* \"#utility.yul\":26105:26227   */\n      pop\n      jump\t// out\n        /* \"#utility.yul\":26233:26349   */\n    tag_377:\n        /* \"#utility.yul\":26303:26324   */\n      tag_652\n        /* \"#utility.yul\":26318:26323   */\n      dup2\n        /* \"#utility.yul\":26303:26324   */\n      tag_603\n      jump\t// in\n    tag_652:\n        /* \"#utility.yul\":26296:26301   */\n      dup2\n        /* \"#utility.yul\":26293:26325   */\n      eq\n        /* \"#utility.yul\":26283:26343   */\n      tag_653\n      jumpi\n        /* \"#utility.yul\":26339:26340   */\n      0x00\n        /* \"#utility.yul\":26336:26337   */\n      dup1\n        /* \"#utility.yul\":26329:26341   */\n      revert\n        /* \"#utility.yul\":26283:26343   */\n    tag_653:\n        /* \"#utility.yul\":26233:26349   */\n      pop\n      jump\t// out\n        /* \"#utility.yul\":26355:26477   */\n    tag_381:\n        /* \"#utility.yul\":26428:26452   */\n      tag_655\n        /* \"#utility.yul\":26446:26451   */\n      dup2\n        /* \"#utility.yul\":26428:26452   */\n      tag_520\n      jump\t// in\n    tag_655:\n        /* \"#utility.yul\":26421:26426   */\n      dup2\n        /* \"#utility.yul\":26418:26453   */\n      eq\n        /* \"#utility.yul\":26408:26471   */\n      tag_656\n      jumpi\n        /* \"#utility.yul\":26467:26468   */\n      0x00\n        /* \"#utility.yul\":26464:26465   */\n      dup1\n        /* \"#utility.yul\":26457:26469   */\n      revert\n        /* \"#utility.yul\":26408:26471   */\n    tag_656:\n        /* \"#utility.yul\":26355:26477   */\n      pop\n      jump\t// out\n\n    auxdata: 0xa2646970667358221220cfe1e5f4e11b46453a16babb249a34295c1e092ff3669509da0360b08189778664736f6c63430008070033\n}\n",
				"bytecode": {
					"linkReferences": {},
					"object": "60806040523480156200001157600080fd5b5060405162003167380380620031678339818101604052810190620000379190620001f6565b620000576200004b620000af60201b60201c565b620000b760201b60201c565b620000676200017b60201b60201c565b80600c60006101000a81548173ffffffffffffffffffffffffffffffffffffffff021916908373ffffffffffffffffffffffffffffffffffffffff160217905550506200027b565b600033905090565b60008060009054906101000a900473ffffffffffffffffffffffffffffffffffffffff169050816000806101000a81548173ffffffffffffffffffffffffffffffffffffffff021916908373ffffffffffffffffffffffffffffffffffffffff1602179055508173ffffffffffffffffffffffffffffffffffffffff168173ffffffffffffffffffffffffffffffffffffffff167f8be0079c531659141344cd1fd0a4f28419497f9722a3daafe3b4186f6b6457e060405160405180910390a35050565b60c86003819055506105dc600181905550606460048190555062093a806002819055506276a70060058190555069d3c21bcecceda10000006008819055506a027b46536c66c8e30000006007819055506a05ca4ec2a79a7f67000000600681905550565b600081519050620001f08162000261565b92915050565b6000602082840312156200020f576200020e6200025c565b5b60006200021f84828501620001df565b91505092915050565b600062000235826200023c565b9050919050565b600073ffffffffffffffffffffffffffffffffffffffff82169050919050565b600080fd5b6200026c8162000228565b81146200027857600080fd5b50565b612edc806200028b6000396000f3fe608060405234801561001057600080fd5b50600436106101425760003560e01c80637e1a3786116100b8578063a694fc3a1161007c578063a694fc3a14610317578063aedf562b14610333578063f2fde38b14610363578063f99318551461037f578063fc0c546a146103af578063fe600f84146103cd57610142565b80637e1a378614610285578063817b1cd2146102a35780638da5cb5b146102c157806391e07e7a146102df5780639e447fc6146102fb57610142565b80634b77dd9e1161010a5780634b77dd9e146101d75780635715ec11146101f35780635d2ec65d14610211578063645a8a561461022f578063692642e71461025f578063715018a61461027b57610142565b80630917e776146101475780632e1a7d4d146101655780634641257d146101815780634a4fbeec1461018b5780634b62b70b146101bb575b600080fd5b61014f6103fd565b60405161015c919061287e565b60405180910390f35b61017f600480360381019061017a919061220b565b610407565b005b6101896107d6565b005b6101a560048036038101906101a091906121b1565b610a9f565b6040516101b2919061287e565b60405180910390f35b6101d560048036038101906101d0919061220b565b610c2f565b005b6101f160048036038101906101ec9190612265565b610cf8565b005b6101fb61114e565b604051610208919061287e565b60405180910390f35b61021961115b565b604051610226919061287e565b60405180910390f35b610249600480360381019061024491906121b1565b6111a5565b604051610256919061287e565b60405180910390f35b6102796004803603810190610274919061220b565b6111f1565b005b610283611306565b005b61028d61138e565b60405161029a919061287e565b60405180910390f35b6102ab611398565b6040516102b8919061287e565b60405180910390f35b6102c961139e565b6040516102d691906125a6565b60405180910390f35b6102f960048036038101906102f4919061220b565b6113c7565b005b6103156004803603810190610310919061220b565b6114c7565b005b610331600480360381019061032c919061220b565b6115c7565b005b61034d600480360381019061034891906121b1565b6118c4565b60405161035a919061287e565b60405180910390f35b61037d600480360381019061037891906121b1565b611923565b005b610399600480360381019061039491906121b1565b611a1b565b6040516103a6919061287e565b60405180910390f35b6103b7611a67565b6040516103c49190612621565b60405180910390f35b6103e760048036038101906103e291906121b1565b611a8d565b6040516103f4919061287e565b60405180910390f35b6000600b54905090565b6000600a60003373ffffffffffffffffffffffffffffffffffffffff1673ffffffffffffffffffffffffffffffffffffffff16815260200190815260200160002090506000821161048d576040517f08c379a00000000000000000000000000000000000000000000000000000000081526004016104849061275e565b60405180910390fd5b80600101548211156104d4576040517f08c379a00000000000000000000000000000000000000000000000000000000081526004016104cb906126fe565b60405180910390fd5b6104dc611ad9565b6000600c60009054906101000a900473ffffffffffffffffffffffffffffffffffffffff1673ffffffffffffffffffffffffffffffffffffffff166370a08231306040518263ffffffff1660e01b815260040161053991906125a6565b60206040518083038186803b15801561055157600080fd5b505afa158015610565573d6000803e3d6000fd5b505050506040513d601f19601f820116820180604052508101906105899190612238565b831061063f57600c60009054906101000a900473ffffffffffffffffffffffffffffffffffffffff1673ffffffffffffffffffffffffffffffffffffffff166370a08231306040518263ffffffff1660e01b81526004016105ea91906125a6565b60206040518083038186803b15801561060257600080fd5b505afa158015610616573d6000803e3d6000fd5b505050506040513d601f19601f8201168201806040525081019061063a9190612238565b610641565b825b9050600061067162015180610663856003015442611cad90919063ffffffff16565b611cc390919063ffffffff16565b9050600060649050600080856002015414156106a8576106a06005548660030154611cd990919063ffffffff16565b4210156106c6565b6000600254846106b89190612a91565b1480156106c55750600083115b5b9050806106d35760015491505b61070c6106fd6127106106ef8588611cef90919063ffffffff16565b611cc390919063ffffffff16565b85611cad90919063ffffffff16565b935061072384600b54611cad90919063ffffffff16565b600b81905550610740848660010154611cad90919063ffffffff16565b85600101819055506107953385600c60009054906101000a900473ffffffffffffffffffffffffffffffffffffffff1673ffffffffffffffffffffffffffffffffffffffff16611d059092919063ffffffff16565b7f884edad9ce6fa2440d8a54cc123490eb96d2768479d49ff9c7366125a942436433856040516107c69291906125f8565b60405180910390a1505050505050565b6107de611ad9565b6000600a60003373ffffffffffffffffffffffffffffffffffffffff1673ffffffffffffffffffffffffffffffffffffffff168152602001908152602001600020905060006108666108536127106108456004548660000154611cef90919063ffffffff16565b611cc390919063ffffffff16565b8360000154611cad90919063ffffffff16565b9050600081116108ab576040517f08c379a00000000000000000000000000000000000000000000000000000000081526004016108a29061267e565b60405180910390fd5b600c60009054906101000a900473ffffffffffffffffffffffffffffffffffffffff1673ffffffffffffffffffffffffffffffffffffffff166370a08231306040518263ffffffff1660e01b815260040161090691906125a6565b60206040518083038186803b15801561091e57600080fd5b505afa158015610932573d6000803e3d6000fd5b505050506040513d601f19601f820116820180604052508101906109569190612238565b811115610a0b57600c60009054906101000a900473ffffffffffffffffffffffffffffffffffffffff1673ffffffffffffffffffffffffffffffffffffffff166370a08231306040518263ffffffff1660e01b81526004016109b891906125a6565b60206040518083038186803b1580156109d057600080fd5b505afa1580156109e4573d6000803e3d6000fd5b505050506040513d601f19601f82011682018060405250810190610a089190612238565b90505b610a583382600c60009054906101000a900473ffffffffffffffffffffffffffffffffffffffff1673ffffffffffffffffffffffffffffffffffffffff16611d059092919063ffffffff16565b600082600001819055507fc9695243a805adb74c91f28311176c65b417e842d5699893cef56d18bfa48cba3382604051610a939291906125f8565b60405180910390a15050565b60006055600a60008473ffffffffffffffffffffffffffffffffffffffff1673ffffffffffffffffffffffffffffffffffffffff1681526020019081526020016000206005015414610af45760019050610c2a565b6000600a60008473ffffffffffffffffffffffffffffffffffffffff1673ffffffffffffffffffffffffffffffffffffffff1681526020019081526020016000206002015414610bbc57600062093a80610b99600a60008673ffffffffffffffffffffffffffffffffffffffff1673ffffffffffffffffffffffffffffffffffffffff1681526020019081526020016000206003015442611cad90919063ffffffff16565b610ba39190612a91565b14610baf576001610bb2565b60005b60ff169050610c2a565b600554610c14600a60008573ffffffffffffffffffffffffffffffffffffffff1673ffffffffffffffffffffffffffffffffffffffff1681526020019081526020016000206003015442611cad90919063ffffffff16565b1015610c21576001610c24565b60005b60ff1690505b919050565b610c37611d8b565b73ffffffffffffffffffffffffffffffffffffffff16610c5561139e565b73ffffffffffffffffffffffffffffffffffffffff1614610cab576040517f08c379a0000000000000000000000000000000000000000000000000000000008152600401610ca29061277e565b60405180910390fd5b60008111610cee576040517f08c379a0000000000000000000000000000000000000000000000000000000008152600401610ce59061281e565b60405180910390fd5b8060058190555050565b60008211610d3b576040517f08c379a0000000000000000000000000000000000000000000000000000000008152600401610d329061275e565b60405180910390fd5b81600c60009054906101000a900473ffffffffffffffffffffffffffffffffffffffff1673ffffffffffffffffffffffffffffffffffffffff166370a08231336040518263ffffffff1660e01b8152600401610d9791906125a6565b60206040518083038186803b158015610daf57600080fd5b505afa158015610dc3573d6000803e3d6000fd5b505050506040513d601f19601f82011682018060405250810190610de79190612238565b11610e27576040517f08c379a0000000000000000000000000000000000000000000000000000000008152600401610e1e9061285e565b60405180910390fd5b6055600a60003373ffffffffffffffffffffffffffffffffffffffff1673ffffffffffffffffffffffffffffffffffffffff168152602001908152602001600020600501541415610ead576040517f08c379a0000000000000000000000000000000000000000000000000000000008152600401610ea49061271e565b60405180910390fd5b6000811415610ec85760008211610ec357600080fd5b611008565b6001811415610f1b57600854821015610f16576040517f08c379a0000000000000000000000000000000000000000000000000000000008152600401610f0d9061265e565b60405180910390fd5b611007565b6002811415610f6e57600754821015610f69576040517f08c379a0000000000000000000000000000000000000000000000000000000008152600401610f609061265e565b60405180910390fd5b611006565b6003811415610fc157600654821015610fbc576040517f08c379a0000000000000000000000000000000000000000000000000000000008152600401610fb39061265e565b60405180910390fd5b611005565b60008210611004576040517f08c379a0000000000000000000000000000000000000000000000000000000008152600401610ffb9061283e565b60405180910390fd5b5b5b5b5b80600a60003373ffffffffffffffffffffffffffffffffffffffff1673ffffffffffffffffffffffffffffffffffffffff1681526020019081526020016000206002018190555042600a60003373ffffffffffffffffffffffffffffffffffffffff1673ffffffffffffffffffffffffffffffffffffffff168152602001908152602001600020600301819055506055600a60003373ffffffffffffffffffffffffffffffffffffffff1673ffffffffffffffffffffffffffffffffffffffff168152602001908152602001600020600501819055506009339080600181540180825580915050600190039060005260206000200160009091909190916101000a81548173ffffffffffffffffffffffffffffffffffffffff021916908373ffffffffffffffffffffffffffffffffffffffff16021790555061114a826115c7565b5050565b6000600980549050905090565b6000600a60003373ffffffffffffffffffffffffffffffffffffffff1673ffffffffffffffffffffffffffffffffffffffff16815260200190815260200160002060000154905090565b6000600a60008373ffffffffffffffffffffffffffffffffffffffff1673ffffffffffffffffffffffffffffffffffffffff168152602001908152602001600020600001549050919050565b6111f9611d8b565b73ffffffffffffffffffffffffffffffffffffffff1661121761139e565b73ffffffffffffffffffffffffffffffffffffffff161461126d576040517f08c379a00000000000000000000000000000000000000000000000000000000081526004016112649061277e565b60405180910390fd5b600081116112b0576040517f08c379a00000000000000000000000000000000000000000000000000000000081526004016112a7906127fe565b60405180910390fd5b6112c66201518082611cef90919063ffffffff16565b6002819055507f189bda9782663c67a3f95c0aa5455924c711210b00281c60ead2f0dd8dbc924c816040516112fb919061287e565b60405180910390a150565b61130e611d8b565b73ffffffffffffffffffffffffffffffffffffffff1661132c61139e565b73ffffffffffffffffffffffffffffffffffffffff1614611382576040517f08c379a00000000000000000000000000000000000000000000000000000000081526004016113799061277e565b60405180910390fd5b61138c6000611d93565b565b6000600354905090565b600b5481565b60008060009054906101000a900473ffffffffffffffffffffffffffffffffffffffff16905090565b6113cf611d8b565b73ffffffffffffffffffffffffffffffffffffffff166113ed61139e565b73ffffffffffffffffffffffffffffffffffffffff1614611443576040517f08c379a000000000000000000000000000000000000000000000000000000000815260040161143a9061277e565b60405180910390fd5b60008111611486576040517f08c379a000000000000000000000000000000000000000000000000000000000815260040161147d906127de565b60405180910390fd5b806001819055507f150c688dd7595bf7862b8ab1fe46756450eb7d731037942b3bbc46f3f0e21b81816040516114bc919061287e565b60405180910390a150565b6114cf611d8b565b73ffffffffffffffffffffffffffffffffffffffff166114ed61139e565b73ffffffffffffffffffffffffffffffffffffffff1614611543576040517f08c379a000000000000000000000000000000000000000000000000000000000815260040161153a9061277e565b60405180910390fd5b60008111611586576040517f08c379a000000000000000000000000000000000000000000000000000000000815260040161157d9061279e565b60405180910390fd5b806003819055507f1946fb78c7ca778b54d82cabaac5ba67cf446f58d0ff1f8ceaebb6150e54e44f816040516115bc919061287e565b60405180910390a150565b6000811161160a576040517f08c379a00000000000000000000000000000000000000000000000000000000081526004016116019061275e565b60405180910390fd5b80600c60009054906101000a900473ffffffffffffffffffffffffffffffffffffffff1673ffffffffffffffffffffffffffffffffffffffff166370a08231336040518263ffffffff1660e01b815260040161166691906125a6565b60206040518083038186803b15801561167e57600080fd5b505afa158015611692573d6000803e3d6000fd5b505050506040513d601f19601f820116820180604052508101906116b69190612238565b116116f6576040517f08c379a00000000000000000000000000000000000000000000000000000000081526004016116ed9061285e565b60405180910390fd5b6055600a60003373ffffffffffffffffffffffffffffffffffffffff1673ffffffffffffffffffffffffffffffffffffffff168152602001908152602001600020600501541461177b576040517f08c379a00000000000000000000000000000000000000000000000000000000081526004016117729061269e565b60405180910390fd5b611783611ad9565b6117d2333083600c60009054906101000a900473ffffffffffffffffffffffffffffffffffffffff1673ffffffffffffffffffffffffffffffffffffffff16611e57909392919063ffffffff16565b61182781600a60003373ffffffffffffffffffffffffffffffffffffffff1673ffffffffffffffffffffffffffffffffffffffff16815260200190815260200160002060010154611cd990919063ffffffff16565b600a60003373ffffffffffffffffffffffffffffffffffffffff1673ffffffffffffffffffffffffffffffffffffffff1681526020019081526020016000206001018190555061188281600b54611cd990919063ffffffff16565b600b819055507f9e71bc8eea02a63969f509818f2dafb9254532904319f9dbda79b67bd34a5f3d33826040516118b99291906125f8565b60405180910390a150565b600080600a60008473ffffffffffffffffffffffffffffffffffffffff1673ffffffffffffffffffffffffffffffffffffffff1681526020019081526020016000206002015414611916576001611919565b60005b60ff169050919050565b61192b611d8b565b73ffffffffffffffffffffffffffffffffffffffff1661194961139e565b73ffffffffffffffffffffffffffffffffffffffff161461199f576040517f08c379a00000000000000000000000000000000000000000000000000000000081526004016119969061277e565b60405180910390fd5b600073ffffffffffffffffffffffffffffffffffffffff168173ffffffffffffffffffffffffffffffffffffffff161415611a0f576040517f08c379a0000000000000000000000000000000000000000000000000000000008152600401611a06906126de565b60405180910390fd5b611a1881611d93565b50565b6000600a60008373ffffffffffffffffffffffffffffffffffffffff1673ffffffffffffffffffffffffffffffffffffffff168152602001908152602001600020600101549050919050565b600c60009054906101000a900473ffffffffffffffffffffffffffffffffffffffff1681565b6000600a60008373ffffffffffffffffffffffffffffffffffffffff1673ffffffffffffffffffffffffffffffffffffffff168152602001908152602001600020600501549050919050565b6000600a60003373ffffffffffffffffffffffffffffffffffffffff1673ffffffffffffffffffffffffffffffffffffffff1681526020019081526020016000206001015490506000611bc5612710611bb7600354611ba9611b9a6121c0611b8c600a60003373ffffffffffffffffffffffffffffffffffffffff1673ffffffffffffffffffffffffffffffffffffffff1681526020019081526020016000206004015443611cad90919063ffffffff16565b611cc390919063ffffffff16565b87611cef90919063ffffffff16565b611cef90919063ffffffff16565b611cc390919063ffffffff16565b9050611c1c81600a60003373ffffffffffffffffffffffffffffffffffffffff1673ffffffffffffffffffffffffffffffffffffffff16815260200190815260200160002060000154611cd990919063ffffffff16565b600a60003373ffffffffffffffffffffffffffffffffffffffff1673ffffffffffffffffffffffffffffffffffffffff1681526020019081526020016000206000018190555043600a60003373ffffffffffffffffffffffffffffffffffffffff1673ffffffffffffffffffffffffffffffffffffffff168152602001908152602001600020600401819055505050565b60008183611cbb91906129ac565b905092915050565b60008183611cd19190612921565b905092915050565b60008183611ce791906128cb565b905092915050565b60008183611cfd9190612952565b905092915050565b611d868363a9059cbb60e01b8484604051602401611d249291906125f8565b604051602081830303815290604052907bffffffffffffffffffffffffffffffffffffffffffffffffffffffff19166020820180517bffffffffffffffffffffffffffffffffffffffffffffffffffffffff8381831617835250505050611ee0565b505050565b600033905090565b60008060009054906101000a900473ffffffffffffffffffffffffffffffffffffffff169050816000806101000a81548173ffffffffffffffffffffffffffffffffffffffff021916908373ffffffffffffffffffffffffffffffffffffffff1602179055508173ffffffffffffffffffffffffffffffffffffffff168173ffffffffffffffffffffffffffffffffffffffff167f8be0079c531659141344cd1fd0a4f28419497f9722a3daafe3b4186f6b6457e060405160405180910390a35050565b611eda846323b872dd60e01b858585604051602401611e78939291906125c1565b604051602081830303815290604052907bffffffffffffffffffffffffffffffffffffffffffffffffffffffff19166020820180517bffffffffffffffffffffffffffffffffffffffffffffffffffffffff8381831617835250505050611ee0565b50505050565b6000611f42826040518060400160405280602081526020017f5361666542455032303a206c6f772d6c6576656c2063616c6c206661696c65648152508573ffffffffffffffffffffffffffffffffffffffff16611fa79092919063ffffffff16565b9050600081511115611fa25780806020019051810190611f6291906121de565b611fa1576040517f08c379a0000000000000000000000000000000000000000000000000000000008152600401611f98906126be565b60405180910390fd5b5b505050565b6060611fb68484600085611fbf565b90509392505050565b606082471015612004576040517f08c379a0000000000000000000000000000000000000000000000000000000008152600401611ffb9061273e565b60405180910390fd5b61200d856120d3565b61204c576040517f08c379a0000000000000000000000000000000000000000000000000000000008152600401612043906127be565b60405180910390fd5b6000808673ffffffffffffffffffffffffffffffffffffffff168587604051612075919061258f565b60006040518083038185875af1925050503d80600081146120b2576040519150601f19603f3d011682016040523d82523d6000602084013e6120b7565b606091505b50915091506120c78282866120f6565b92505050949350505050565b6000808273ffffffffffffffffffffffffffffffffffffffff163b119050919050565b6060831561210657829050612156565b6000835111156121195782518084602001fd5b816040517f08c379a000000000000000000000000000000000000000000000000000000000815260040161214d919061263c565b60405180910390fd5b9392505050565b60008135905061216c81612e61565b92915050565b60008151905061218181612e78565b92915050565b60008135905061219681612e8f565b92915050565b6000815190506121ab81612e8f565b92915050565b6000602082840312156121c7576121c6612b20565b5b60006121d58482850161215d565b91505092915050565b6000602082840312156121f4576121f3612b20565b5b600061220284828501612172565b91505092915050565b60006020828403121561222157612220612b20565b5b600061222f84828501612187565b91505092915050565b60006020828403121561224e5761224d612b20565b5b600061225c8482850161219c565b91505092915050565b6000806040838503121561227c5761227b612b20565b5b600061228a85828601612187565b925050602061229b85828601612187565b9150509250929050565b6122ae816129e0565b82525050565b60006122bf82612899565b6122c981856128af565b93506122d9818560208601612a5e565b80840191505092915050565b6122ee81612a28565b82525050565b60006122ff826128a4565b61230981856128ba565b9350612319818560208601612a5e565b61232281612b25565b840191505092915050565b600061233a600c836128ba565b915061234582612b36565b602082019050919050565b600061235d6010836128ba565b915061236882612b5f565b602082019050919050565b60006123806015836128ba565b915061238b82612b88565b602082019050919050565b60006123a3602a836128ba565b91506123ae82612bb1565b604082019050919050565b60006123c66026836128ba565b91506123d182612c00565b604082019050919050565b60006123e9600e836128ba565b91506123f482612c4f565b602082019050919050565b600061240c600f836128ba565b915061241782612c78565b602082019050919050565b600061242f6026836128ba565b915061243a82612ca1565b604082019050919050565b6000612452601f836128ba565b915061245d82612cf0565b602082019050919050565b60006124756020836128ba565b915061248082612d19565b602082019050919050565b6000612498600d836128ba565b91506124a382612d42565b602082019050919050565b60006124bb601d836128ba565b91506124c682612d6b565b602082019050919050565b60006124de601a836128ba565b91506124e982612d94565b602082019050919050565b60006125016017836128ba565b915061250c82612dbd565b602082019050919050565b6000612524600d836128ba565b915061252f82612de6565b602082019050919050565b6000612547600c836128ba565b915061255282612e0f565b602082019050919050565b600061256a600d836128ba565b915061257582612e38565b602082019050919050565b61258981612a1e565b82525050565b600061259b82846122b4565b915081905092915050565b60006020820190506125bb60008301846122a5565b92915050565b60006060820190506125d660008301866122a5565b6125e360208301856122a5565b6125f06040830184612580565b949350505050565b600060408201905061260d60008301856122a5565b61261a6020830184612580565b9392505050565b600060208201905061263660008301846122e5565b92915050565b6000602082019050818103600083015261265681846122f4565b905092915050565b600060208201905081810360008301526126778161232d565b9050919050565b6000602082019050818103600083015261269781612350565b9050919050565b600060208201905081810360008301526126b781612373565b9050919050565b600060208201905081810360008301526126d781612396565b9050919050565b600060208201905081810360008301526126f7816123b9565b9050919050565b60006020820190508181036000830152612717816123dc565b9050919050565b60006020820190508181036000830152612737816123ff565b9050919050565b6000602082019050818103600083015261275781612422565b9050919050565b6000602082019050818103600083015261277781612445565b9050919050565b6000602082019050818103600083015261279781612468565b9050919050565b600060208201905081810360008301526127b78161248b565b9050919050565b600060208201905081810360008301526127d7816124ae565b9050919050565b600060208201905081810360008301526127f7816124d1565b9050919050565b60006020820190508181036000830152612817816124f4565b9050919050565b6000602082019050818103600083015261283781612517565b9050919050565b600060208201905081810360008301526128578161253a565b9050919050565b600060208201905081810360008301526128778161255d565b9050919050565b60006020820190506128936000830184612580565b92915050565b600081519050919050565b600081519050919050565b600081905092915050565b600082825260208201905092915050565b60006128d682612a1e565b91506128e183612a1e565b9250827fffffffffffffffffffffffffffffffffffffffffffffffffffffffffffffffff0382111561291657612915612ac2565b5b828201905092915050565b600061292c82612a1e565b915061293783612a1e565b92508261294757612946612af1565b5b828204905092915050565b600061295d82612a1e565b915061296883612a1e565b9250817fffffffffffffffffffffffffffffffffffffffffffffffffffffffffffffffff04831182151516156129a1576129a0612ac2565b5b828202905092915050565b60006129b782612a1e565b91506129c283612a1e565b9250828210156129d5576129d4612ac2565b5b828203905092915050565b60006129eb826129fe565b9050919050565b60008115159050919050565b600073ffffffffffffffffffffffffffffffffffffffff82169050919050565b6000819050919050565b6000612a3382612a3a565b9050919050565b6000612a4582612a4c565b9050919050565b6000612a57826129fe565b9050919050565b60005b83811015612a7c578082015181840152602081019050612a61565b83811115612a8b576000848401525b50505050565b6000612a9c82612a1e565b9150612aa783612a1e565b925082612ab757612ab6612af1565b5b828206905092915050565b7f4e487b7100000000000000000000000000000000000000000000000000000000600052601160045260246000fd5b7f4e487b7100000000000000000000000000000000000000000000000000000000600052601260045260246000fd5b600080fd5b6000601f19601f8301169050919050565b7f496e73756666696369656e740000000000000000000000000000000000000000600082015250565b7f4e6f7468696e6720746f20636c61696d00000000000000000000000000000000600082015250565b7f4572726f723a20696e76616c6964207374616b65720000000000000000000000600082015250565b7f5361666542455032303a204245503230206f7065726174696f6e20646964206e60008201527f6f74207375636365656400000000000000000000000000000000000000000000602082015250565b7f4f776e61626c653a206e6577206f776e657220697320746865207a65726f206160008201527f6464726573730000000000000000000000000000000000000000000000000000602082015250565b7f496e76616c696420616d6f756e74000000000000000000000000000000000000600082015250565b7f416c726561647920737461727465640000000000000000000000000000000000600082015250565b7f416464726573733a20696e73756666696369656e742062616c616e636520666f60008201527f722063616c6c0000000000000000000000000000000000000000000000000000602082015250565b7f416d6f756e742073686f756c642062652067726561746572207468616e203000600082015250565b7f4f776e61626c653a2063616c6c6572206973206e6f7420746865206f776e6572600082015250565b7f496e76616c69642076616c756500000000000000000000000000000000000000600082015250565b7f416464726573733a2063616c6c20746f206e6f6e2d636f6e7472616374000000600082015250565b7f496e76616c696420556e7374616b696e67204665652052617465000000000000600082015250565b7f496e76616c6964204c6f636b7570204475726174696f6e000000000000000000600082015250565b7f43616e2774206265207a65726f00000000000000000000000000000000000000600082015250565b7f496e76616c6964204d6f64650000000000000000000000000000000000000000600082015250565b7f496e73756666696369656e742100000000000000000000000000000000000000600082015250565b612e6a816129e0565b8114612e7557600080fd5b50565b612e81816129f2565b8114612e8c57600080fd5b50565b612e9881612a1e565b8114612ea357600080fd5b5056fea2646970667358221220cfe1e5f4e11b46453a16babb249a34295c1e092ff3669509da0360b08189778664736f6c63430008070033",
					"opcodes": "PUSH1 0x80 PUSH1 0x40 MSTORE CALLVALUE DUP1 ISZERO PUSH3 0x11 JUMPI PUSH1 0x0 DUP1 REVERT JUMPDEST POP PUSH1 0x40 MLOAD PUSH3 0x3167 CODESIZE SUB DUP1 PUSH3 0x3167 DUP4 CODECOPY DUP2 DUP2 ADD PUSH1 0x40 MSTORE DUP2 ADD SWAP1 PUSH3 0x37 SWAP2 SWAP1 PUSH3 0x1F6 JUMP JUMPDEST PUSH3 0x57 PUSH3 0x4B PUSH3 0xAF PUSH1 0x20 SHL PUSH1 0x20 SHR JUMP JUMPDEST PUSH3 0xB7 PUSH1 0x20 SHL PUSH1 0x20 SHR JUMP JUMPDEST PUSH3 0x67 PUSH3 0x17B PUSH1 0x20 SHL PUSH1 0x20 SHR JUMP JUMPDEST DUP1 PUSH1 0xC PUSH1 0x0 PUSH2 0x100 EXP DUP2 SLOAD DUP2 PUSH20 0xFFFFFFFFFFFFFFFFFFFFFFFFFFFFFFFFFFFFFFFF MUL NOT AND SWAP1 DUP4 PUSH20 0xFFFFFFFFFFFFFFFFFFFFFFFFFFFFFFFFFFFFFFFF AND MUL OR SWAP1 SSTORE POP POP PUSH3 0x27B JUMP JUMPDEST PUSH1 0x0 CALLER SWAP1 POP SWAP1 JUMP JUMPDEST PUSH1 0x0 DUP1 PUSH1 0x0 SWAP1 SLOAD SWAP1 PUSH2 0x100 EXP SWAP1 DIV PUSH20 0xFFFFFFFFFFFFFFFFFFFFFFFFFFFFFFFFFFFFFFFF AND SWAP1 POP DUP2 PUSH1 0x0 DUP1 PUSH2 0x100 EXP DUP2 SLOAD DUP2 PUSH20 0xFFFFFFFFFFFFFFFFFFFFFFFFFFFFFFFFFFFFFFFF MUL NOT AND SWAP1 DUP4 PUSH20 0xFFFFFFFFFFFFFFFFFFFFFFFFFFFFFFFFFFFFFFFF AND MUL OR SWAP1 SSTORE POP DUP2 PUSH20 0xFFFFFFFFFFFFFFFFFFFFFFFFFFFFFFFFFFFFFFFF AND DUP2 PUSH20 0xFFFFFFFFFFFFFFFFFFFFFFFFFFFFFFFFFFFFFFFF AND PUSH32 0x8BE0079C531659141344CD1FD0A4F28419497F9722A3DAAFE3B4186F6B6457E0 PUSH1 0x40 MLOAD PUSH1 0x40 MLOAD DUP1 SWAP2 SUB SWAP1 LOG3 POP POP JUMP JUMPDEST PUSH1 0xC8 PUSH1 0x3 DUP2 SWAP1 SSTORE POP PUSH2 0x5DC PUSH1 0x1 DUP2 SWAP1 SSTORE POP PUSH1 0x64 PUSH1 0x4 DUP2 SWAP1 SSTORE POP PUSH3 0x93A80 PUSH1 0x2 DUP2 SWAP1 SSTORE POP PUSH3 0x76A700 PUSH1 0x5 DUP2 SWAP1 SSTORE POP PUSH10 0xD3C21BCECCEDA1000000 PUSH1 0x8 DUP2 SWAP1 SSTORE POP PUSH11 0x27B46536C66C8E3000000 PUSH1 0x7 DUP2 SWAP1 SSTORE POP PUSH11 0x5CA4EC2A79A7F67000000 PUSH1 0x6 DUP2 SWAP1 SSTORE POP JUMP JUMPDEST PUSH1 0x0 DUP2 MLOAD SWAP1 POP PUSH3 0x1F0 DUP2 PUSH3 0x261 JUMP JUMPDEST SWAP3 SWAP2 POP POP JUMP JUMPDEST PUSH1 0x0 PUSH1 0x20 DUP3 DUP5 SUB SLT ISZERO PUSH3 0x20F JUMPI PUSH3 0x20E PUSH3 0x25C JUMP JUMPDEST JUMPDEST PUSH1 0x0 PUSH3 0x21F DUP5 DUP3 DUP6 ADD PUSH3 0x1DF JUMP JUMPDEST SWAP2 POP POP SWAP3 SWAP2 POP POP JUMP JUMPDEST PUSH1 0x0 PUSH3 0x235 DUP3 PUSH3 0x23C JUMP JUMPDEST SWAP1 POP SWAP2 SWAP1 POP JUMP JUMPDEST PUSH1 0x0 PUSH20 0xFFFFFFFFFFFFFFFFFFFFFFFFFFFFFFFFFFFFFFFF DUP3 AND SWAP1 POP SWAP2 SWAP1 POP JUMP JUMPDEST PUSH1 0x0 DUP1 REVERT JUMPDEST PUSH3 0x26C DUP2 PUSH3 0x228 JUMP JUMPDEST DUP2 EQ PUSH3 0x278 JUMPI PUSH1 0x0 DUP1 REVERT JUMPDEST POP JUMP JUMPDEST PUSH2 0x2EDC DUP1 PUSH3 0x28B PUSH1 0x0 CODECOPY PUSH1 0x0 RETURN INVALID PUSH1 0x80 PUSH1 0x40 MSTORE CALLVALUE DUP1 ISZERO PUSH2 0x10 JUMPI PUSH1 0x0 DUP1 REVERT JUMPDEST POP PUSH1 0x4 CALLDATASIZE LT PUSH2 0x142 JUMPI PUSH1 0x0 CALLDATALOAD PUSH1 0xE0 SHR DUP1 PUSH4 0x7E1A3786 GT PUSH2 0xB8 JUMPI DUP1 PUSH4 0xA694FC3A GT PUSH2 0x7C JUMPI DUP1 PUSH4 0xA694FC3A EQ PUSH2 0x317 JUMPI DUP1 PUSH4 0xAEDF562B EQ PUSH2 0x333 JUMPI DUP1 PUSH4 0xF2FDE38B EQ PUSH2 0x363 JUMPI DUP1 PUSH4 0xF9931855 EQ PUSH2 0x37F JUMPI DUP1 PUSH4 0xFC0C546A EQ PUSH2 0x3AF JUMPI DUP1 PUSH4 0xFE600F84 EQ PUSH2 0x3CD JUMPI PUSH2 0x142 JUMP JUMPDEST DUP1 PUSH4 0x7E1A3786 EQ PUSH2 0x285 JUMPI DUP1 PUSH4 0x817B1CD2 EQ PUSH2 0x2A3 JUMPI DUP1 PUSH4 0x8DA5CB5B EQ PUSH2 0x2C1 JUMPI DUP1 PUSH4 0x91E07E7A EQ PUSH2 0x2DF JUMPI DUP1 PUSH4 0x9E447FC6 EQ PUSH2 0x2FB JUMPI PUSH2 0x142 JUMP JUMPDEST DUP1 PUSH4 0x4B77DD9E GT PUSH2 0x10A JUMPI DUP1 PUSH4 0x4B77DD9E EQ PUSH2 0x1D7 JUMPI DUP1 PUSH4 0x5715EC11 EQ PUSH2 0x1F3 JUMPI DUP1 PUSH4 0x5D2EC65D EQ PUSH2 0x211 JUMPI DUP1 PUSH4 0x645A8A56 EQ PUSH2 0x22F JUMPI DUP1 PUSH4 0x692642E7 EQ PUSH2 0x25F JUMPI DUP1 PUSH4 0x715018A6 EQ PUSH2 0x27B JUMPI PUSH2 0x142 JUMP JUMPDEST DUP1 PUSH4 0x917E776 EQ PUSH2 0x147 JUMPI DUP1 PUSH4 0x2E1A7D4D EQ PUSH2 0x165 JUMPI DUP1 PUSH4 0x4641257D EQ PUSH2 0x181 JUMPI DUP1 PUSH4 0x4A4FBEEC EQ PUSH2 0x18B JUMPI DUP1 PUSH4 0x4B62B70B EQ PUSH2 0x1BB JUMPI JUMPDEST PUSH1 0x0 DUP1 REVERT JUMPDEST PUSH2 0x14F PUSH2 0x3FD JUMP JUMPDEST PUSH1 0x40 MLOAD PUSH2 0x15C SWAP2 SWAP1 PUSH2 0x287E JUMP JUMPDEST PUSH1 0x40 MLOAD DUP1 SWAP2 SUB SWAP1 RETURN JUMPDEST PUSH2 0x17F PUSH1 0x4 DUP1 CALLDATASIZE SUB DUP2 ADD SWAP1 PUSH2 0x17A SWAP2 SWAP1 PUSH2 0x220B JUMP JUMPDEST PUSH2 0x407 JUMP JUMPDEST STOP JUMPDEST PUSH2 0x189 PUSH2 0x7D6 JUMP JUMPDEST STOP JUMPDEST PUSH2 0x1A5 PUSH1 0x4 DUP1 CALLDATASIZE SUB DUP2 ADD SWAP1 PUSH2 0x1A0 SWAP2 SWAP1 PUSH2 0x21B1 JUMP JUMPDEST PUSH2 0xA9F JUMP JUMPDEST PUSH1 0x40 MLOAD PUSH2 0x1B2 SWAP2 SWAP1 PUSH2 0x287E JUMP JUMPDEST PUSH1 0x40 MLOAD DUP1 SWAP2 SUB SWAP1 RETURN JUMPDEST PUSH2 0x1D5 PUSH1 0x4 DUP1 CALLDATASIZE SUB DUP2 ADD SWAP1 PUSH2 0x1D0 SWAP2 SWAP1 PUSH2 0x220B JUMP JUMPDEST PUSH2 0xC2F JUMP JUMPDEST STOP JUMPDEST PUSH2 0x1F1 PUSH1 0x4 DUP1 CALLDATASIZE SUB DUP2 ADD SWAP1 PUSH2 0x1EC SWAP2 SWAP1 PUSH2 0x2265 JUMP JUMPDEST PUSH2 0xCF8 JUMP JUMPDEST STOP JUMPDEST PUSH2 0x1FB PUSH2 0x114E JUMP JUMPDEST PUSH1 0x40 MLOAD PUSH2 0x208 SWAP2 SWAP1 PUSH2 0x287E JUMP JUMPDEST PUSH1 0x40 MLOAD DUP1 SWAP2 SUB SWAP1 RETURN JUMPDEST PUSH2 0x219 PUSH2 0x115B JUMP JUMPDEST PUSH1 0x40 MLOAD PUSH2 0x226 SWAP2 SWAP1 PUSH2 0x287E JUMP JUMPDEST PUSH1 0x40 MLOAD DUP1 SWAP2 SUB SWAP1 RETURN JUMPDEST PUSH2 0x249 PUSH1 0x4 DUP1 CALLDATASIZE SUB DUP2 ADD SWAP1 PUSH2 0x244 SWAP2 SWAP1 PUSH2 0x21B1 JUMP JUMPDEST PUSH2 0x11A5 JUMP JUMPDEST PUSH1 0x40 MLOAD PUSH2 0x256 SWAP2 SWAP1 PUSH2 0x287E JUMP JUMPDEST PUSH1 0x40 MLOAD DUP1 SWAP2 SUB SWAP1 RETURN JUMPDEST PUSH2 0x279 PUSH1 0x4 DUP1 CALLDATASIZE SUB DUP2 ADD SWAP1 PUSH2 0x274 SWAP2 SWAP1 PUSH2 0x220B JUMP JUMPDEST PUSH2 0x11F1 JUMP JUMPDEST STOP JUMPDEST PUSH2 0x283 PUSH2 0x1306 JUMP JUMPDEST STOP JUMPDEST PUSH2 0x28D PUSH2 0x138E JUMP JUMPDEST PUSH1 0x40 MLOAD PUSH2 0x29A SWAP2 SWAP1 PUSH2 0x287E JUMP JUMPDEST PUSH1 0x40 MLOAD DUP1 SWAP2 SUB SWAP1 RETURN JUMPDEST PUSH2 0x2AB PUSH2 0x1398 JUMP JUMPDEST PUSH1 0x40 MLOAD PUSH2 0x2B8 SWAP2 SWAP1 PUSH2 0x287E JUMP JUMPDEST PUSH1 0x40 MLOAD DUP1 SWAP2 SUB SWAP1 RETURN JUMPDEST PUSH2 0x2C9 PUSH2 0x139E JUMP JUMPDEST PUSH1 0x40 MLOAD PUSH2 0x2D6 SWAP2 SWAP1 PUSH2 0x25A6 JUMP JUMPDEST PUSH1 0x40 MLOAD DUP1 SWAP2 SUB SWAP1 RETURN JUMPDEST PUSH2 0x2F9 PUSH1 0x4 DUP1 CALLDATASIZE SUB DUP2 ADD SWAP1 PUSH2 0x2F4 SWAP2 SWAP1 PUSH2 0x220B JUMP JUMPDEST PUSH2 0x13C7 JUMP JUMPDEST STOP JUMPDEST PUSH2 0x315 PUSH1 0x4 DUP1 CALLDATASIZE SUB DUP2 ADD SWAP1 PUSH2 0x310 SWAP2 SWAP1 PUSH2 0x220B JUMP JUMPDEST PUSH2 0x14C7 JUMP JUMPDEST STOP JUMPDEST PUSH2 0x331 PUSH1 0x4 DUP1 CALLDATASIZE SUB DUP2 ADD SWAP1 PUSH2 0x32C SWAP2 SWAP1 PUSH2 0x220B JUMP JUMPDEST PUSH2 0x15C7 JUMP JUMPDEST STOP JUMPDEST PUSH2 0x34D PUSH1 0x4 DUP1 CALLDATASIZE SUB DUP2 ADD SWAP1 PUSH2 0x348 SWAP2 SWAP1 PUSH2 0x21B1 JUMP JUMPDEST PUSH2 0x18C4 JUMP JUMPDEST PUSH1 0x40 MLOAD PUSH2 0x35A SWAP2 SWAP1 PUSH2 0x287E JUMP JUMPDEST PUSH1 0x40 MLOAD DUP1 SWAP2 SUB SWAP1 RETURN JUMPDEST PUSH2 0x37D PUSH1 0x4 DUP1 CALLDATASIZE SUB DUP2 ADD SWAP1 PUSH2 0x378 SWAP2 SWAP1 PUSH2 0x21B1 JUMP JUMPDEST PUSH2 0x1923 JUMP JUMPDEST STOP JUMPDEST PUSH2 0x399 PUSH1 0x4 DUP1 CALLDATASIZE SUB DUP2 ADD SWAP1 PUSH2 0x394 SWAP2 SWAP1 PUSH2 0x21B1 JUMP JUMPDEST PUSH2 0x1A1B JUMP JUMPDEST PUSH1 0x40 MLOAD PUSH2 0x3A6 SWAP2 SWAP1 PUSH2 0x287E JUMP JUMPDEST PUSH1 0x40 MLOAD DUP1 SWAP2 SUB SWAP1 RETURN JUMPDEST PUSH2 0x3B7 PUSH2 0x1A67 JUMP JUMPDEST PUSH1 0x40 MLOAD PUSH2 0x3C4 SWAP2 SWAP1 PUSH2 0x2621 JUMP JUMPDEST PUSH1 0x40 MLOAD DUP1 SWAP2 SUB SWAP1 RETURN JUMPDEST PUSH2 0x3E7 PUSH1 0x4 DUP1 CALLDATASIZE SUB DUP2 ADD SWAP1 PUSH2 0x3E2 SWAP2 SWAP1 PUSH2 0x21B1 JUMP JUMPDEST PUSH2 0x1A8D JUMP JUMPDEST PUSH1 0x40 MLOAD PUSH2 0x3F4 SWAP2 SWAP1 PUSH2 0x287E JUMP JUMPDEST PUSH1 0x40 MLOAD DUP1 SWAP2 SUB SWAP1 RETURN JUMPDEST PUSH1 0x0 PUSH1 0xB SLOAD SWAP1 POP SWAP1 JUMP JUMPDEST PUSH1 0x0 PUSH1 0xA PUSH1 0x0 CALLER PUSH20 0xFFFFFFFFFFFFFFFFFFFFFFFFFFFFFFFFFFFFFFFF AND PUSH20 0xFFFFFFFFFFFFFFFFFFFFFFFFFFFFFFFFFFFFFFFF AND DUP2 MSTORE PUSH1 0x20 ADD SWAP1 DUP2 MSTORE PUSH1 0x20 ADD PUSH1 0x0 KECCAK256 SWAP1 POP PUSH1 0x0 DUP3 GT PUSH2 0x48D JUMPI PUSH1 0x40 MLOAD PUSH32 0x8C379A000000000000000000000000000000000000000000000000000000000 DUP2 MSTORE PUSH1 0x4 ADD PUSH2 0x484 SWAP1 PUSH2 0x275E JUMP JUMPDEST PUSH1 0x40 MLOAD DUP1 SWAP2 SUB SWAP1 REVERT JUMPDEST DUP1 PUSH1 0x1 ADD SLOAD DUP3 GT ISZERO PUSH2 0x4D4 JUMPI PUSH1 0x40 MLOAD PUSH32 0x8C379A000000000000000000000000000000000000000000000000000000000 DUP2 MSTORE PUSH1 0x4 ADD PUSH2 0x4CB SWAP1 PUSH2 0x26FE JUMP JUMPDEST PUSH1 0x40 MLOAD DUP1 SWAP2 SUB SWAP1 REVERT JUMPDEST PUSH2 0x4DC PUSH2 0x1AD9 JUMP JUMPDEST PUSH1 0x0 PUSH1 0xC PUSH1 0x0 SWAP1 SLOAD SWAP1 PUSH2 0x100 EXP SWAP1 DIV PUSH20 0xFFFFFFFFFFFFFFFFFFFFFFFFFFFFFFFFFFFFFFFF AND PUSH20 0xFFFFFFFFFFFFFFFFFFFFFFFFFFFFFFFFFFFFFFFF AND PUSH4 0x70A08231 ADDRESS PUSH1 0x40 MLOAD DUP3 PUSH4 0xFFFFFFFF AND PUSH1 0xE0 SHL DUP2 MSTORE PUSH1 0x4 ADD PUSH2 0x539 SWAP2 SWAP1 PUSH2 0x25A6 JUMP JUMPDEST PUSH1 0x20 PUSH1 0x40 MLOAD DUP1 DUP4 SUB DUP2 DUP7 DUP1 EXTCODESIZE ISZERO DUP1 ISZERO PUSH2 0x551 JUMPI PUSH1 0x0 DUP1 REVERT JUMPDEST POP GAS STATICCALL ISZERO DUP1 ISZERO PUSH2 0x565 JUMPI RETURNDATASIZE PUSH1 0x0 DUP1 RETURNDATACOPY RETURNDATASIZE PUSH1 0x0 REVERT JUMPDEST POP POP POP POP PUSH1 0x40 MLOAD RETURNDATASIZE PUSH1 0x1F NOT PUSH1 0x1F DUP3 ADD AND DUP3 ADD DUP1 PUSH1 0x40 MSTORE POP DUP2 ADD SWAP1 PUSH2 0x589 SWAP2 SWAP1 PUSH2 0x2238 JUMP JUMPDEST DUP4 LT PUSH2 0x63F JUMPI PUSH1 0xC PUSH1 0x0 SWAP1 SLOAD SWAP1 PUSH2 0x100 EXP SWAP1 DIV PUSH20 0xFFFFFFFFFFFFFFFFFFFFFFFFFFFFFFFFFFFFFFFF AND PUSH20 0xFFFFFFFFFFFFFFFFFFFFFFFFFFFFFFFFFFFFFFFF AND PUSH4 0x70A08231 ADDRESS PUSH1 0x40 MLOAD DUP3 PUSH4 0xFFFFFFFF AND PUSH1 0xE0 SHL DUP2 MSTORE PUSH1 0x4 ADD PUSH2 0x5EA SWAP2 SWAP1 PUSH2 0x25A6 JUMP JUMPDEST PUSH1 0x20 PUSH1 0x40 MLOAD DUP1 DUP4 SUB DUP2 DUP7 DUP1 EXTCODESIZE ISZERO DUP1 ISZERO PUSH2 0x602 JUMPI PUSH1 0x0 DUP1 REVERT JUMPDEST POP GAS STATICCALL ISZERO DUP1 ISZERO PUSH2 0x616 JUMPI RETURNDATASIZE PUSH1 0x0 DUP1 RETURNDATACOPY RETURNDATASIZE PUSH1 0x0 REVERT JUMPDEST POP POP POP POP PUSH1 0x40 MLOAD RETURNDATASIZE PUSH1 0x1F NOT PUSH1 0x1F DUP3 ADD AND DUP3 ADD DUP1 PUSH1 0x40 MSTORE POP DUP2 ADD SWAP1 PUSH2 0x63A SWAP2 SWAP1 PUSH2 0x2238 JUMP JUMPDEST PUSH2 0x641 JUMP JUMPDEST DUP3 JUMPDEST SWAP1 POP PUSH1 0x0 PUSH2 0x671 PUSH3 0x15180 PUSH2 0x663 DUP6 PUSH1 0x3 ADD SLOAD TIMESTAMP PUSH2 0x1CAD SWAP1 SWAP2 SWAP1 PUSH4 0xFFFFFFFF AND JUMP JUMPDEST PUSH2 0x1CC3 SWAP1 SWAP2 SWAP1 PUSH4 0xFFFFFFFF AND JUMP JUMPDEST SWAP1 POP PUSH1 0x0 PUSH1 0x64 SWAP1 POP PUSH1 0x0 DUP1 DUP6 PUSH1 0x2 ADD SLOAD EQ ISZERO PUSH2 0x6A8 JUMPI PUSH2 0x6A0 PUSH1 0x5 SLOAD DUP7 PUSH1 0x3 ADD SLOAD PUSH2 0x1CD9 SWAP1 SWAP2 SWAP1 PUSH4 0xFFFFFFFF AND JUMP JUMPDEST TIMESTAMP LT ISZERO PUSH2 0x6C6 JUMP JUMPDEST PUSH1 0x0 PUSH1 0x2 SLOAD DUP5 PUSH2 0x6B8 SWAP2 SWAP1 PUSH2 0x2A91 JUMP JUMPDEST EQ DUP1 ISZERO PUSH2 0x6C5 JUMPI POP PUSH1 0x0 DUP4 GT JUMPDEST JUMPDEST SWAP1 POP DUP1 PUSH2 0x6D3 JUMPI PUSH1 0x1 SLOAD SWAP2 POP JUMPDEST PUSH2 0x70C PUSH2 0x6FD PUSH2 0x2710 PUSH2 0x6EF DUP6 DUP9 PUSH2 0x1CEF SWAP1 SWAP2 SWAP1 PUSH4 0xFFFFFFFF AND JUMP JUMPDEST PUSH2 0x1CC3 SWAP1 SWAP2 SWAP1 PUSH4 0xFFFFFFFF AND JUMP JUMPDEST DUP6 PUSH2 0x1CAD SWAP1 SWAP2 SWAP1 PUSH4 0xFFFFFFFF AND JUMP JUMPDEST SWAP4 POP PUSH2 0x723 DUP5 PUSH1 0xB SLOAD PUSH2 0x1CAD SWAP1 SWAP2 SWAP1 PUSH4 0xFFFFFFFF AND JUMP JUMPDEST PUSH1 0xB DUP2 SWAP1 SSTORE POP PUSH2 0x740 DUP5 DUP7 PUSH1 0x1 ADD SLOAD PUSH2 0x1CAD SWAP1 SWAP2 SWAP1 PUSH4 0xFFFFFFFF AND JUMP JUMPDEST DUP6 PUSH1 0x1 ADD DUP2 SWAP1 SSTORE POP PUSH2 0x795 CALLER DUP6 PUSH1 0xC PUSH1 0x0 SWAP1 SLOAD SWAP1 PUSH2 0x100 EXP SWAP1 DIV PUSH20 0xFFFFFFFFFFFFFFFFFFFFFFFFFFFFFFFFFFFFFFFF AND PUSH20 0xFFFFFFFFFFFFFFFFFFFFFFFFFFFFFFFFFFFFFFFF AND PUSH2 0x1D05 SWAP1 SWAP3 SWAP2 SWAP1 PUSH4 0xFFFFFFFF AND JUMP JUMPDEST PUSH32 0x884EDAD9CE6FA2440D8A54CC123490EB96D2768479D49FF9C7366125A9424364 CALLER DUP6 PUSH1 0x40 MLOAD PUSH2 0x7C6 SWAP3 SWAP2 SWAP1 PUSH2 0x25F8 JUMP JUMPDEST PUSH1 0x40 MLOAD DUP1 SWAP2 SUB SWAP1 LOG1 POP POP POP POP POP POP JUMP JUMPDEST PUSH2 0x7DE PUSH2 0x1AD9 JUMP JUMPDEST PUSH1 0x0 PUSH1 0xA PUSH1 0x0 CALLER PUSH20 0xFFFFFFFFFFFFFFFFFFFFFFFFFFFFFFFFFFFFFFFF AND PUSH20 0xFFFFFFFFFFFFFFFFFFFFFFFFFFFFFFFFFFFFFFFF AND DUP2 MSTORE PUSH1 0x20 ADD SWAP1 DUP2 MSTORE PUSH1 0x20 ADD PUSH1 0x0 KECCAK256 SWAP1 POP PUSH1 0x0 PUSH2 0x866 PUSH2 0x853 PUSH2 0x2710 PUSH2 0x845 PUSH1 0x4 SLOAD DUP7 PUSH1 0x0 ADD SLOAD PUSH2 0x1CEF SWAP1 SWAP2 SWAP1 PUSH4 0xFFFFFFFF AND JUMP JUMPDEST PUSH2 0x1CC3 SWAP1 SWAP2 SWAP1 PUSH4 0xFFFFFFFF AND JUMP JUMPDEST DUP4 PUSH1 0x0 ADD SLOAD PUSH2 0x1CAD SWAP1 SWAP2 SWAP1 PUSH4 0xFFFFFFFF AND JUMP JUMPDEST SWAP1 POP PUSH1 0x0 DUP2 GT PUSH2 0x8AB JUMPI PUSH1 0x40 MLOAD PUSH32 0x8C379A000000000000000000000000000000000000000000000000000000000 DUP2 MSTORE PUSH1 0x4 ADD PUSH2 0x8A2 SWAP1 PUSH2 0x267E JUMP JUMPDEST PUSH1 0x40 MLOAD DUP1 SWAP2 SUB SWAP1 REVERT JUMPDEST PUSH1 0xC PUSH1 0x0 SWAP1 SLOAD SWAP1 PUSH2 0x100 EXP SWAP1 DIV PUSH20 0xFFFFFFFFFFFFFFFFFFFFFFFFFFFFFFFFFFFFFFFF AND PUSH20 0xFFFFFFFFFFFFFFFFFFFFFFFFFFFFFFFFFFFFFFFF AND PUSH4 0x70A08231 ADDRESS PUSH1 0x40 MLOAD DUP3 PUSH4 0xFFFFFFFF AND PUSH1 0xE0 SHL DUP2 MSTORE PUSH1 0x4 ADD PUSH2 0x906 SWAP2 SWAP1 PUSH2 0x25A6 JUMP JUMPDEST PUSH1 0x20 PUSH1 0x40 MLOAD DUP1 DUP4 SUB DUP2 DUP7 DUP1 EXTCODESIZE ISZERO DUP1 ISZERO PUSH2 0x91E JUMPI PUSH1 0x0 DUP1 REVERT JUMPDEST POP GAS STATICCALL ISZERO DUP1 ISZERO PUSH2 0x932 JUMPI RETURNDATASIZE PUSH1 0x0 DUP1 RETURNDATACOPY RETURNDATASIZE PUSH1 0x0 REVERT JUMPDEST POP POP POP POP PUSH1 0x40 MLOAD RETURNDATASIZE PUSH1 0x1F NOT PUSH1 0x1F DUP3 ADD AND DUP3 ADD DUP1 PUSH1 0x40 MSTORE POP DUP2 ADD SWAP1 PUSH2 0x956 SWAP2 SWAP1 PUSH2 0x2238 JUMP JUMPDEST DUP2 GT ISZERO PUSH2 0xA0B JUMPI PUSH1 0xC PUSH1 0x0 SWAP1 SLOAD SWAP1 PUSH2 0x100 EXP SWAP1 DIV PUSH20 0xFFFFFFFFFFFFFFFFFFFFFFFFFFFFFFFFFFFFFFFF AND PUSH20 0xFFFFFFFFFFFFFFFFFFFFFFFFFFFFFFFFFFFFFFFF AND PUSH4 0x70A08231 ADDRESS PUSH1 0x40 MLOAD DUP3 PUSH4 0xFFFFFFFF AND PUSH1 0xE0 SHL DUP2 MSTORE PUSH1 0x4 ADD PUSH2 0x9B8 SWAP2 SWAP1 PUSH2 0x25A6 JUMP JUMPDEST PUSH1 0x20 PUSH1 0x40 MLOAD DUP1 DUP4 SUB DUP2 DUP7 DUP1 EXTCODESIZE ISZERO DUP1 ISZERO PUSH2 0x9D0 JUMPI PUSH1 0x0 DUP1 REVERT JUMPDEST POP GAS STATICCALL ISZERO DUP1 ISZERO PUSH2 0x9E4 JUMPI RETURNDATASIZE PUSH1 0x0 DUP1 RETURNDATACOPY RETURNDATASIZE PUSH1 0x0 REVERT JUMPDEST POP POP POP POP PUSH1 0x40 MLOAD RETURNDATASIZE PUSH1 0x1F NOT PUSH1 0x1F DUP3 ADD AND DUP3 ADD DUP1 PUSH1 0x40 MSTORE POP DUP2 ADD SWAP1 PUSH2 0xA08 SWAP2 SWAP1 PUSH2 0x2238 JUMP JUMPDEST SWAP1 POP JUMPDEST PUSH2 0xA58 CALLER DUP3 PUSH1 0xC PUSH1 0x0 SWAP1 SLOAD SWAP1 PUSH2 0x100 EXP SWAP1 DIV PUSH20 0xFFFFFFFFFFFFFFFFFFFFFFFFFFFFFFFFFFFFFFFF AND PUSH20 0xFFFFFFFFFFFFFFFFFFFFFFFFFFFFFFFFFFFFFFFF AND PUSH2 0x1D05 SWAP1 SWAP3 SWAP2 SWAP1 PUSH4 0xFFFFFFFF AND JUMP JUMPDEST PUSH1 0x0 DUP3 PUSH1 0x0 ADD DUP2 SWAP1 SSTORE POP PUSH32 0xC9695243A805ADB74C91F28311176C65B417E842D5699893CEF56D18BFA48CBA CALLER DUP3 PUSH1 0x40 MLOAD PUSH2 0xA93 SWAP3 SWAP2 SWAP1 PUSH2 0x25F8 JUMP JUMPDEST PUSH1 0x40 MLOAD DUP1 SWAP2 SUB SWAP1 LOG1 POP POP JUMP JUMPDEST PUSH1 0x0 PUSH1 0x55 PUSH1 0xA PUSH1 0x0 DUP5 PUSH20 0xFFFFFFFFFFFFFFFFFFFFFFFFFFFFFFFFFFFFFFFF AND PUSH20 0xFFFFFFFFFFFFFFFFFFFFFFFFFFFFFFFFFFFFFFFF AND DUP2 MSTORE PUSH1 0x20 ADD SWAP1 DUP2 MSTORE PUSH1 0x20 ADD PUSH1 0x0 KECCAK256 PUSH1 0x5 ADD SLOAD EQ PUSH2 0xAF4 JUMPI PUSH1 0x1 SWAP1 POP PUSH2 0xC2A JUMP JUMPDEST PUSH1 0x0 PUSH1 0xA PUSH1 0x0 DUP5 PUSH20 0xFFFFFFFFFFFFFFFFFFFFFFFFFFFFFFFFFFFFFFFF AND PUSH20 0xFFFFFFFFFFFFFFFFFFFFFFFFFFFFFFFFFFFFFFFF AND DUP2 MSTORE PUSH1 0x20 ADD SWAP1 DUP2 MSTORE PUSH1 0x20 ADD PUSH1 0x0 KECCAK256 PUSH1 0x2 ADD SLOAD EQ PUSH2 0xBBC JUMPI PUSH1 0x0 PUSH3 0x93A80 PUSH2 0xB99 PUSH1 0xA PUSH1 0x0 DUP7 PUSH20 0xFFFFFFFFFFFFFFFFFFFFFFFFFFFFFFFFFFFFFFFF AND PUSH20 0xFFFFFFFFFFFFFFFFFFFFFFFFFFFFFFFFFFFFFFFF AND DUP2 MSTORE PUSH1 0x20 ADD SWAP1 DUP2 MSTORE PUSH1 0x20 ADD PUSH1 0x0 KECCAK256 PUSH1 0x3 ADD SLOAD TIMESTAMP PUSH2 0x1CAD SWAP1 SWAP2 SWAP1 PUSH4 0xFFFFFFFF AND JUMP JUMPDEST PUSH2 0xBA3 SWAP2 SWAP1 PUSH2 0x2A91 JUMP JUMPDEST EQ PUSH2 0xBAF JUMPI PUSH1 0x1 PUSH2 0xBB2 JUMP JUMPDEST PUSH1 0x0 JUMPDEST PUSH1 0xFF AND SWAP1 POP PUSH2 0xC2A JUMP JUMPDEST PUSH1 0x5 SLOAD PUSH2 0xC14 PUSH1 0xA PUSH1 0x0 DUP6 PUSH20 0xFFFFFFFFFFFFFFFFFFFFFFFFFFFFFFFFFFFFFFFF AND PUSH20 0xFFFFFFFFFFFFFFFFFFFFFFFFFFFFFFFFFFFFFFFF AND DUP2 MSTORE PUSH1 0x20 ADD SWAP1 DUP2 MSTORE PUSH1 0x20 ADD PUSH1 0x0 KECCAK256 PUSH1 0x3 ADD SLOAD TIMESTAMP PUSH2 0x1CAD SWAP1 SWAP2 SWAP1 PUSH4 0xFFFFFFFF AND JUMP JUMPDEST LT ISZERO PUSH2 0xC21 JUMPI PUSH1 0x1 PUSH2 0xC24 JUMP JUMPDEST PUSH1 0x0 JUMPDEST PUSH1 0xFF AND SWAP1 POP JUMPDEST SWAP2 SWAP1 POP JUMP JUMPDEST PUSH2 0xC37 PUSH2 0x1D8B JUMP JUMPDEST PUSH20 0xFFFFFFFFFFFFFFFFFFFFFFFFFFFFFFFFFFFFFFFF AND PUSH2 0xC55 PUSH2 0x139E JUMP JUMPDEST PUSH20 0xFFFFFFFFFFFFFFFFFFFFFFFFFFFFFFFFFFFFFFFF AND EQ PUSH2 0xCAB JUMPI PUSH1 0x40 MLOAD PUSH32 0x8C379A000000000000000000000000000000000000000000000000000000000 DUP2 MSTORE PUSH1 0x4 ADD PUSH2 0xCA2 SWAP1 PUSH2 0x277E JUMP JUMPDEST PUSH1 0x40 MLOAD DUP1 SWAP2 SUB SWAP1 REVERT JUMPDEST PUSH1 0x0 DUP2 GT PUSH2 0xCEE JUMPI PUSH1 0x40 MLOAD PUSH32 0x8C379A000000000000000000000000000000000000000000000000000000000 DUP2 MSTORE PUSH1 0x4 ADD PUSH2 0xCE5 SWAP1 PUSH2 0x281E JUMP JUMPDEST PUSH1 0x40 MLOAD DUP1 SWAP2 SUB SWAP1 REVERT JUMPDEST DUP1 PUSH1 0x5 DUP2 SWAP1 SSTORE POP POP JUMP JUMPDEST PUSH1 0x0 DUP3 GT PUSH2 0xD3B JUMPI PUSH1 0x40 MLOAD PUSH32 0x8C379A000000000000000000000000000000000000000000000000000000000 DUP2 MSTORE PUSH1 0x4 ADD PUSH2 0xD32 SWAP1 PUSH2 0x275E JUMP JUMPDEST PUSH1 0x40 MLOAD DUP1 SWAP2 SUB SWAP1 REVERT JUMPDEST DUP2 PUSH1 0xC PUSH1 0x0 SWAP1 SLOAD SWAP1 PUSH2 0x100 EXP SWAP1 DIV PUSH20 0xFFFFFFFFFFFFFFFFFFFFFFFFFFFFFFFFFFFFFFFF AND PUSH20 0xFFFFFFFFFFFFFFFFFFFFFFFFFFFFFFFFFFFFFFFF AND PUSH4 0x70A08231 CALLER PUSH1 0x40 MLOAD DUP3 PUSH4 0xFFFFFFFF AND PUSH1 0xE0 SHL DUP2 MSTORE PUSH1 0x4 ADD PUSH2 0xD97 SWAP2 SWAP1 PUSH2 0x25A6 JUMP JUMPDEST PUSH1 0x20 PUSH1 0x40 MLOAD DUP1 DUP4 SUB DUP2 DUP7 DUP1 EXTCODESIZE ISZERO DUP1 ISZERO PUSH2 0xDAF JUMPI PUSH1 0x0 DUP1 REVERT JUMPDEST POP GAS STATICCALL ISZERO DUP1 ISZERO PUSH2 0xDC3 JUMPI RETURNDATASIZE PUSH1 0x0 DUP1 RETURNDATACOPY RETURNDATASIZE PUSH1 0x0 REVERT JUMPDEST POP POP POP POP PUSH1 0x40 MLOAD RETURNDATASIZE PUSH1 0x1F NOT PUSH1 0x1F DUP3 ADD AND DUP3 ADD DUP1 PUSH1 0x40 MSTORE POP DUP2 ADD SWAP1 PUSH2 0xDE7 SWAP2 SWAP1 PUSH2 0x2238 JUMP JUMPDEST GT PUSH2 0xE27 JUMPI PUSH1 0x40 MLOAD PUSH32 0x8C379A000000000000000000000000000000000000000000000000000000000 DUP2 MSTORE PUSH1 0x4 ADD PUSH2 0xE1E SWAP1 PUSH2 0x285E JUMP JUMPDEST PUSH1 0x40 MLOAD DUP1 SWAP2 SUB SWAP1 REVERT JUMPDEST PUSH1 0x55 PUSH1 0xA PUSH1 0x0 CALLER PUSH20 0xFFFFFFFFFFFFFFFFFFFFFFFFFFFFFFFFFFFFFFFF AND PUSH20 0xFFFFFFFFFFFFFFFFFFFFFFFFFFFFFFFFFFFFFFFF AND DUP2 MSTORE PUSH1 0x20 ADD SWAP1 DUP2 MSTORE PUSH1 0x20 ADD PUSH1 0x0 KECCAK256 PUSH1 0x5 ADD SLOAD EQ ISZERO PUSH2 0xEAD JUMPI PUSH1 0x40 MLOAD PUSH32 0x8C379A000000000000000000000000000000000000000000000000000000000 DUP2 MSTORE PUSH1 0x4 ADD PUSH2 0xEA4 SWAP1 PUSH2 0x271E JUMP JUMPDEST PUSH1 0x40 MLOAD DUP1 SWAP2 SUB SWAP1 REVERT JUMPDEST PUSH1 0x0 DUP2 EQ ISZERO PUSH2 0xEC8 JUMPI PUSH1 0x0 DUP3 GT PUSH2 0xEC3 JUMPI PUSH1 0x0 DUP1 REVERT JUMPDEST PUSH2 0x1008 JUMP JUMPDEST PUSH1 0x1 DUP2 EQ ISZERO PUSH2 0xF1B JUMPI PUSH1 0x8 SLOAD DUP3 LT ISZERO PUSH2 0xF16 JUMPI PUSH1 0x40 MLOAD PUSH32 0x8C379A000000000000000000000000000000000000000000000000000000000 DUP2 MSTORE PUSH1 0x4 ADD PUSH2 0xF0D SWAP1 PUSH2 0x265E JUMP JUMPDEST PUSH1 0x40 MLOAD DUP1 SWAP2 SUB SWAP1 REVERT JUMPDEST PUSH2 0x1007 JUMP JUMPDEST PUSH1 0x2 DUP2 EQ ISZERO PUSH2 0xF6E JUMPI PUSH1 0x7 SLOAD DUP3 LT ISZERO PUSH2 0xF69 JUMPI PUSH1 0x40 MLOAD PUSH32 0x8C379A000000000000000000000000000000000000000000000000000000000 DUP2 MSTORE PUSH1 0x4 ADD PUSH2 0xF60 SWAP1 PUSH2 0x265E JUMP JUMPDEST PUSH1 0x40 MLOAD DUP1 SWAP2 SUB SWAP1 REVERT JUMPDEST PUSH2 0x1006 JUMP JUMPDEST PUSH1 0x3 DUP2 EQ ISZERO PUSH2 0xFC1 JUMPI PUSH1 0x6 SLOAD DUP3 LT ISZERO PUSH2 0xFBC JUMPI PUSH1 0x40 MLOAD PUSH32 0x8C379A000000000000000000000000000000000000000000000000000000000 DUP2 MSTORE PUSH1 0x4 ADD PUSH2 0xFB3 SWAP1 PUSH2 0x265E JUMP JUMPDEST PUSH1 0x40 MLOAD DUP1 SWAP2 SUB SWAP1 REVERT JUMPDEST PUSH2 0x1005 JUMP JUMPDEST PUSH1 0x0 DUP3 LT PUSH2 0x1004 JUMPI PUSH1 0x40 MLOAD PUSH32 0x8C379A000000000000000000000000000000000000000000000000000000000 DUP2 MSTORE PUSH1 0x4 ADD PUSH2 0xFFB SWAP1 PUSH2 0x283E JUMP JUMPDEST PUSH1 0x40 MLOAD DUP1 SWAP2 SUB SWAP1 REVERT JUMPDEST JUMPDEST JUMPDEST JUMPDEST JUMPDEST DUP1 PUSH1 0xA PUSH1 0x0 CALLER PUSH20 0xFFFFFFFFFFFFFFFFFFFFFFFFFFFFFFFFFFFFFFFF AND PUSH20 0xFFFFFFFFFFFFFFFFFFFFFFFFFFFFFFFFFFFFFFFF AND DUP2 MSTORE PUSH1 0x20 ADD SWAP1 DUP2 MSTORE PUSH1 0x20 ADD PUSH1 0x0 KECCAK256 PUSH1 0x2 ADD DUP2 SWAP1 SSTORE POP TIMESTAMP PUSH1 0xA PUSH1 0x0 CALLER PUSH20 0xFFFFFFFFFFFFFFFFFFFFFFFFFFFFFFFFFFFFFFFF AND PUSH20 0xFFFFFFFFFFFFFFFFFFFFFFFFFFFFFFFFFFFFFFFF AND DUP2 MSTORE PUSH1 0x20 ADD SWAP1 DUP2 MSTORE PUSH1 0x20 ADD PUSH1 0x0 KECCAK256 PUSH1 0x3 ADD DUP2 SWAP1 SSTORE POP PUSH1 0x55 PUSH1 0xA PUSH1 0x0 CALLER PUSH20 0xFFFFFFFFFFFFFFFFFFFFFFFFFFFFFFFFFFFFFFFF AND PUSH20 0xFFFFFFFFFFFFFFFFFFFFFFFFFFFFFFFFFFFFFFFF AND DUP2 MSTORE PUSH1 0x20 ADD SWAP1 DUP2 MSTORE PUSH1 0x20 ADD PUSH1 0x0 KECCAK256 PUSH1 0x5 ADD DUP2 SWAP1 SSTORE POP PUSH1 0x9 CALLER SWAP1 DUP1 PUSH1 0x1 DUP2 SLOAD ADD DUP1 DUP3 SSTORE DUP1 SWAP2 POP POP PUSH1 0x1 SWAP1 SUB SWAP1 PUSH1 0x0 MSTORE PUSH1 0x20 PUSH1 0x0 KECCAK256 ADD PUSH1 0x0 SWAP1 SWAP2 SWAP1 SWAP2 SWAP1 SWAP2 PUSH2 0x100 EXP DUP2 SLOAD DUP2 PUSH20 0xFFFFFFFFFFFFFFFFFFFFFFFFFFFFFFFFFFFFFFFF MUL NOT AND SWAP1 DUP4 PUSH20 0xFFFFFFFFFFFFFFFFFFFFFFFFFFFFFFFFFFFFFFFF AND MUL OR SWAP1 SSTORE POP PUSH2 0x114A DUP3 PUSH2 0x15C7 JUMP JUMPDEST POP POP JUMP JUMPDEST PUSH1 0x0 PUSH1 0x9 DUP1 SLOAD SWAP1 POP SWAP1 POP SWAP1 JUMP JUMPDEST PUSH1 0x0 PUSH1 0xA PUSH1 0x0 CALLER PUSH20 0xFFFFFFFFFFFFFFFFFFFFFFFFFFFFFFFFFFFFFFFF AND PUSH20 0xFFFFFFFFFFFFFFFFFFFFFFFFFFFFFFFFFFFFFFFF AND DUP2 MSTORE PUSH1 0x20 ADD SWAP1 DUP2 MSTORE PUSH1 0x20 ADD PUSH1 0x0 KECCAK256 PUSH1 0x0 ADD SLOAD SWAP1 POP SWAP1 JUMP JUMPDEST PUSH1 0x0 PUSH1 0xA PUSH1 0x0 DUP4 PUSH20 0xFFFFFFFFFFFFFFFFFFFFFFFFFFFFFFFFFFFFFFFF AND PUSH20 0xFFFFFFFFFFFFFFFFFFFFFFFFFFFFFFFFFFFFFFFF AND DUP2 MSTORE PUSH1 0x20 ADD SWAP1 DUP2 MSTORE PUSH1 0x20 ADD PUSH1 0x0 KECCAK256 PUSH1 0x0 ADD SLOAD SWAP1 POP SWAP2 SWAP1 POP JUMP JUMPDEST PUSH2 0x11F9 PUSH2 0x1D8B JUMP JUMPDEST PUSH20 0xFFFFFFFFFFFFFFFFFFFFFFFFFFFFFFFFFFFFFFFF AND PUSH2 0x1217 PUSH2 0x139E JUMP JUMPDEST PUSH20 0xFFFFFFFFFFFFFFFFFFFFFFFFFFFFFFFFFFFFFFFF AND EQ PUSH2 0x126D JUMPI PUSH1 0x40 MLOAD PUSH32 0x8C379A000000000000000000000000000000000000000000000000000000000 DUP2 MSTORE PUSH1 0x4 ADD PUSH2 0x1264 SWAP1 PUSH2 0x277E JUMP JUMPDEST PUSH1 0x40 MLOAD DUP1 SWAP2 SUB SWAP1 REVERT JUMPDEST PUSH1 0x0 DUP2 GT PUSH2 0x12B0 JUMPI PUSH1 0x40 MLOAD PUSH32 0x8C379A000000000000000000000000000000000000000000000000000000000 DUP2 MSTORE PUSH1 0x4 ADD PUSH2 0x12A7 SWAP1 PUSH2 0x27FE JUMP JUMPDEST PUSH1 0x40 MLOAD DUP1 SWAP2 SUB SWAP1 REVERT JUMPDEST PUSH2 0x12C6 PUSH3 0x15180 DUP3 PUSH2 0x1CEF SWAP1 SWAP2 SWAP1 PUSH4 0xFFFFFFFF AND JUMP JUMPDEST PUSH1 0x2 DUP2 SWAP1 SSTORE POP PUSH32 0x189BDA9782663C67A3F95C0AA5455924C711210B00281C60EAD2F0DD8DBC924C DUP2 PUSH1 0x40 MLOAD PUSH2 0x12FB SWAP2 SWAP1 PUSH2 0x287E JUMP JUMPDEST PUSH1 0x40 MLOAD DUP1 SWAP2 SUB SWAP1 LOG1 POP JUMP JUMPDEST PUSH2 0x130E PUSH2 0x1D8B JUMP JUMPDEST PUSH20 0xFFFFFFFFFFFFFFFFFFFFFFFFFFFFFFFFFFFFFFFF AND PUSH2 0x132C PUSH2 0x139E JUMP JUMPDEST PUSH20 0xFFFFFFFFFFFFFFFFFFFFFFFFFFFFFFFFFFFFFFFF AND EQ PUSH2 0x1382 JUMPI PUSH1 0x40 MLOAD PUSH32 0x8C379A000000000000000000000000000000000000000000000000000000000 DUP2 MSTORE PUSH1 0x4 ADD PUSH2 0x1379 SWAP1 PUSH2 0x277E JUMP JUMPDEST PUSH1 0x40 MLOAD DUP1 SWAP2 SUB SWAP1 REVERT JUMPDEST PUSH2 0x138C PUSH1 0x0 PUSH2 0x1D93 JUMP JUMPDEST JUMP JUMPDEST PUSH1 0x0 PUSH1 0x3 SLOAD SWAP1 POP SWAP1 JUMP JUMPDEST PUSH1 0xB SLOAD DUP2 JUMP JUMPDEST PUSH1 0x0 DUP1 PUSH1 0x0 SWAP1 SLOAD SWAP1 PUSH2 0x100 EXP SWAP1 DIV PUSH20 0xFFFFFFFFFFFFFFFFFFFFFFFFFFFFFFFFFFFFFFFF AND SWAP1 POP SWAP1 JUMP JUMPDEST PUSH2 0x13CF PUSH2 0x1D8B JUMP JUMPDEST PUSH20 0xFFFFFFFFFFFFFFFFFFFFFFFFFFFFFFFFFFFFFFFF AND PUSH2 0x13ED PUSH2 0x139E JUMP JUMPDEST PUSH20 0xFFFFFFFFFFFFFFFFFFFFFFFFFFFFFFFFFFFFFFFF AND EQ PUSH2 0x1443 JUMPI PUSH1 0x40 MLOAD PUSH32 0x8C379A000000000000000000000000000000000000000000000000000000000 DUP2 MSTORE PUSH1 0x4 ADD PUSH2 0x143A SWAP1 PUSH2 0x277E JUMP JUMPDEST PUSH1 0x40 MLOAD DUP1 SWAP2 SUB SWAP1 REVERT JUMPDEST PUSH1 0x0 DUP2 GT PUSH2 0x1486 JUMPI PUSH1 0x40 MLOAD PUSH32 0x8C379A000000000000000000000000000000000000000000000000000000000 DUP2 MSTORE PUSH1 0x4 ADD PUSH2 0x147D SWAP1 PUSH2 0x27DE JUMP JUMPDEST PUSH1 0x40 MLOAD DUP1 SWAP2 SUB SWAP1 REVERT JUMPDEST DUP1 PUSH1 0x1 DUP2 SWAP1 SSTORE POP PUSH32 0x150C688DD7595BF7862B8AB1FE46756450EB7D731037942B3BBC46F3F0E21B81 DUP2 PUSH1 0x40 MLOAD PUSH2 0x14BC SWAP2 SWAP1 PUSH2 0x287E JUMP JUMPDEST PUSH1 0x40 MLOAD DUP1 SWAP2 SUB SWAP1 LOG1 POP JUMP JUMPDEST PUSH2 0x14CF PUSH2 0x1D8B JUMP JUMPDEST PUSH20 0xFFFFFFFFFFFFFFFFFFFFFFFFFFFFFFFFFFFFFFFF AND PUSH2 0x14ED PUSH2 0x139E JUMP JUMPDEST PUSH20 0xFFFFFFFFFFFFFFFFFFFFFFFFFFFFFFFFFFFFFFFF AND EQ PUSH2 0x1543 JUMPI PUSH1 0x40 MLOAD PUSH32 0x8C379A000000000000000000000000000000000000000000000000000000000 DUP2 MSTORE PUSH1 0x4 ADD PUSH2 0x153A SWAP1 PUSH2 0x277E JUMP JUMPDEST PUSH1 0x40 MLOAD DUP1 SWAP2 SUB SWAP1 REVERT JUMPDEST PUSH1 0x0 DUP2 GT PUSH2 0x1586 JUMPI PUSH1 0x40 MLOAD PUSH32 0x8C379A000000000000000000000000000000000000000000000000000000000 DUP2 MSTORE PUSH1 0x4 ADD PUSH2 0x157D SWAP1 PUSH2 0x279E JUMP JUMPDEST PUSH1 0x40 MLOAD DUP1 SWAP2 SUB SWAP1 REVERT JUMPDEST DUP1 PUSH1 0x3 DUP2 SWAP1 SSTORE POP PUSH32 0x1946FB78C7CA778B54D82CABAAC5BA67CF446F58D0FF1F8CEAEBB6150E54E44F DUP2 PUSH1 0x40 MLOAD PUSH2 0x15BC SWAP2 SWAP1 PUSH2 0x287E JUMP JUMPDEST PUSH1 0x40 MLOAD DUP1 SWAP2 SUB SWAP1 LOG1 POP JUMP JUMPDEST PUSH1 0x0 DUP2 GT PUSH2 0x160A JUMPI PUSH1 0x40 MLOAD PUSH32 0x8C379A000000000000000000000000000000000000000000000000000000000 DUP2 MSTORE PUSH1 0x4 ADD PUSH2 0x1601 SWAP1 PUSH2 0x275E JUMP JUMPDEST PUSH1 0x40 MLOAD DUP1 SWAP2 SUB SWAP1 REVERT JUMPDEST DUP1 PUSH1 0xC PUSH1 0x0 SWAP1 SLOAD SWAP1 PUSH2 0x100 EXP SWAP1 DIV PUSH20 0xFFFFFFFFFFFFFFFFFFFFFFFFFFFFFFFFFFFFFFFF AND PUSH20 0xFFFFFFFFFFFFFFFFFFFFFFFFFFFFFFFFFFFFFFFF AND PUSH4 0x70A08231 CALLER PUSH1 0x40 MLOAD DUP3 PUSH4 0xFFFFFFFF AND PUSH1 0xE0 SHL DUP2 MSTORE PUSH1 0x4 ADD PUSH2 0x1666 SWAP2 SWAP1 PUSH2 0x25A6 JUMP JUMPDEST PUSH1 0x20 PUSH1 0x40 MLOAD DUP1 DUP4 SUB DUP2 DUP7 DUP1 EXTCODESIZE ISZERO DUP1 ISZERO PUSH2 0x167E JUMPI PUSH1 0x0 DUP1 REVERT JUMPDEST POP GAS STATICCALL ISZERO DUP1 ISZERO PUSH2 0x1692 JUMPI RETURNDATASIZE PUSH1 0x0 DUP1 RETURNDATACOPY RETURNDATASIZE PUSH1 0x0 REVERT JUMPDEST POP POP POP POP PUSH1 0x40 MLOAD RETURNDATASIZE PUSH1 0x1F NOT PUSH1 0x1F DUP3 ADD AND DUP3 ADD DUP1 PUSH1 0x40 MSTORE POP DUP2 ADD SWAP1 PUSH2 0x16B6 SWAP2 SWAP1 PUSH2 0x2238 JUMP JUMPDEST GT PUSH2 0x16F6 JUMPI PUSH1 0x40 MLOAD PUSH32 0x8C379A000000000000000000000000000000000000000000000000000000000 DUP2 MSTORE PUSH1 0x4 ADD PUSH2 0x16ED SWAP1 PUSH2 0x285E JUMP JUMPDEST PUSH1 0x40 MLOAD DUP1 SWAP2 SUB SWAP1 REVERT JUMPDEST PUSH1 0x55 PUSH1 0xA PUSH1 0x0 CALLER PUSH20 0xFFFFFFFFFFFFFFFFFFFFFFFFFFFFFFFFFFFFFFFF AND PUSH20 0xFFFFFFFFFFFFFFFFFFFFFFFFFFFFFFFFFFFFFFFF AND DUP2 MSTORE PUSH1 0x20 ADD SWAP1 DUP2 MSTORE PUSH1 0x20 ADD PUSH1 0x0 KECCAK256 PUSH1 0x5 ADD SLOAD EQ PUSH2 0x177B JUMPI PUSH1 0x40 MLOAD PUSH32 0x8C379A000000000000000000000000000000000000000000000000000000000 DUP2 MSTORE PUSH1 0x4 ADD PUSH2 0x1772 SWAP1 PUSH2 0x269E JUMP JUMPDEST PUSH1 0x40 MLOAD DUP1 SWAP2 SUB SWAP1 REVERT JUMPDEST PUSH2 0x1783 PUSH2 0x1AD9 JUMP JUMPDEST PUSH2 0x17D2 CALLER ADDRESS DUP4 PUSH1 0xC PUSH1 0x0 SWAP1 SLOAD SWAP1 PUSH2 0x100 EXP SWAP1 DIV PUSH20 0xFFFFFFFFFFFFFFFFFFFFFFFFFFFFFFFFFFFFFFFF AND PUSH20 0xFFFFFFFFFFFFFFFFFFFFFFFFFFFFFFFFFFFFFFFF AND PUSH2 0x1E57 SWAP1 SWAP4 SWAP3 SWAP2 SWAP1 PUSH4 0xFFFFFFFF AND JUMP JUMPDEST PUSH2 0x1827 DUP2 PUSH1 0xA PUSH1 0x0 CALLER PUSH20 0xFFFFFFFFFFFFFFFFFFFFFFFFFFFFFFFFFFFFFFFF AND PUSH20 0xFFFFFFFFFFFFFFFFFFFFFFFFFFFFFFFFFFFFFFFF AND DUP2 MSTORE PUSH1 0x20 ADD SWAP1 DUP2 MSTORE PUSH1 0x20 ADD PUSH1 0x0 KECCAK256 PUSH1 0x1 ADD SLOAD PUSH2 0x1CD9 SWAP1 SWAP2 SWAP1 PUSH4 0xFFFFFFFF AND JUMP JUMPDEST PUSH1 0xA PUSH1 0x0 CALLER PUSH20 0xFFFFFFFFFFFFFFFFFFFFFFFFFFFFFFFFFFFFFFFF AND PUSH20 0xFFFFFFFFFFFFFFFFFFFFFFFFFFFFFFFFFFFFFFFF AND DUP2 MSTORE PUSH1 0x20 ADD SWAP1 DUP2 MSTORE PUSH1 0x20 ADD PUSH1 0x0 KECCAK256 PUSH1 0x1 ADD DUP2 SWAP1 SSTORE POP PUSH2 0x1882 DUP2 PUSH1 0xB SLOAD PUSH2 0x1CD9 SWAP1 SWAP2 SWAP1 PUSH4 0xFFFFFFFF AND JUMP JUMPDEST PUSH1 0xB DUP2 SWAP1 SSTORE POP PUSH32 0x9E71BC8EEA02A63969F509818F2DAFB9254532904319F9DBDA79B67BD34A5F3D CALLER DUP3 PUSH1 0x40 MLOAD PUSH2 0x18B9 SWAP3 SWAP2 SWAP1 PUSH2 0x25F8 JUMP JUMPDEST PUSH1 0x40 MLOAD DUP1 SWAP2 SUB SWAP1 LOG1 POP JUMP JUMPDEST PUSH1 0x0 DUP1 PUSH1 0xA PUSH1 0x0 DUP5 PUSH20 0xFFFFFFFFFFFFFFFFFFFFFFFFFFFFFFFFFFFFFFFF AND PUSH20 0xFFFFFFFFFFFFFFFFFFFFFFFFFFFFFFFFFFFFFFFF AND DUP2 MSTORE PUSH1 0x20 ADD SWAP1 DUP2 MSTORE PUSH1 0x20 ADD PUSH1 0x0 KECCAK256 PUSH1 0x2 ADD SLOAD EQ PUSH2 0x1916 JUMPI PUSH1 0x1 PUSH2 0x1919 JUMP JUMPDEST PUSH1 0x0 JUMPDEST PUSH1 0xFF AND SWAP1 POP SWAP2 SWAP1 POP JUMP JUMPDEST PUSH2 0x192B PUSH2 0x1D8B JUMP JUMPDEST PUSH20 0xFFFFFFFFFFFFFFFFFFFFFFFFFFFFFFFFFFFFFFFF AND PUSH2 0x1949 PUSH2 0x139E JUMP JUMPDEST PUSH20 0xFFFFFFFFFFFFFFFFFFFFFFFFFFFFFFFFFFFFFFFF AND EQ PUSH2 0x199F JUMPI PUSH1 0x40 MLOAD PUSH32 0x8C379A000000000000000000000000000000000000000000000000000000000 DUP2 MSTORE PUSH1 0x4 ADD PUSH2 0x1996 SWAP1 PUSH2 0x277E JUMP JUMPDEST PUSH1 0x40 MLOAD DUP1 SWAP2 SUB SWAP1 REVERT JUMPDEST PUSH1 0x0 PUSH20 0xFFFFFFFFFFFFFFFFFFFFFFFFFFFFFFFFFFFFFFFF AND DUP2 PUSH20 0xFFFFFFFFFFFFFFFFFFFFFFFFFFFFFFFFFFFFFFFF AND EQ ISZERO PUSH2 0x1A0F JUMPI PUSH1 0x40 MLOAD PUSH32 0x8C379A000000000000000000000000000000000000000000000000000000000 DUP2 MSTORE PUSH1 0x4 ADD PUSH2 0x1A06 SWAP1 PUSH2 0x26DE JUMP JUMPDEST PUSH1 0x40 MLOAD DUP1 SWAP2 SUB SWAP1 REVERT JUMPDEST PUSH2 0x1A18 DUP2 PUSH2 0x1D93 JUMP JUMPDEST POP JUMP JUMPDEST PUSH1 0x0 PUSH1 0xA PUSH1 0x0 DUP4 PUSH20 0xFFFFFFFFFFFFFFFFFFFFFFFFFFFFFFFFFFFFFFFF AND PUSH20 0xFFFFFFFFFFFFFFFFFFFFFFFFFFFFFFFFFFFFFFFF AND DUP2 MSTORE PUSH1 0x20 ADD SWAP1 DUP2 MSTORE PUSH1 0x20 ADD PUSH1 0x0 KECCAK256 PUSH1 0x1 ADD SLOAD SWAP1 POP SWAP2 SWAP1 POP JUMP JUMPDEST PUSH1 0xC PUSH1 0x0 SWAP1 SLOAD SWAP1 PUSH2 0x100 EXP SWAP1 DIV PUSH20 0xFFFFFFFFFFFFFFFFFFFFFFFFFFFFFFFFFFFFFFFF AND DUP2 JUMP JUMPDEST PUSH1 0x0 PUSH1 0xA PUSH1 0x0 DUP4 PUSH20 0xFFFFFFFFFFFFFFFFFFFFFFFFFFFFFFFFFFFFFFFF AND PUSH20 0xFFFFFFFFFFFFFFFFFFFFFFFFFFFFFFFFFFFFFFFF AND DUP2 MSTORE PUSH1 0x20 ADD SWAP1 DUP2 MSTORE PUSH1 0x20 ADD PUSH1 0x0 KECCAK256 PUSH1 0x5 ADD SLOAD SWAP1 POP SWAP2 SWAP1 POP JUMP JUMPDEST PUSH1 0x0 PUSH1 0xA PUSH1 0x0 CALLER PUSH20 0xFFFFFFFFFFFFFFFFFFFFFFFFFFFFFFFFFFFFFFFF AND PUSH20 0xFFFFFFFFFFFFFFFFFFFFFFFFFFFFFFFFFFFFFFFF AND DUP2 MSTORE PUSH1 0x20 ADD SWAP1 DUP2 MSTORE PUSH1 0x20 ADD PUSH1 0x0 KECCAK256 PUSH1 0x1 ADD SLOAD SWAP1 POP PUSH1 0x0 PUSH2 0x1BC5 PUSH2 0x2710 PUSH2 0x1BB7 PUSH1 0x3 SLOAD PUSH2 0x1BA9 PUSH2 0x1B9A PUSH2 0x21C0 PUSH2 0x1B8C PUSH1 0xA PUSH1 0x0 CALLER PUSH20 0xFFFFFFFFFFFFFFFFFFFFFFFFFFFFFFFFFFFFFFFF AND PUSH20 0xFFFFFFFFFFFFFFFFFFFFFFFFFFFFFFFFFFFFFFFF AND DUP2 MSTORE PUSH1 0x20 ADD SWAP1 DUP2 MSTORE PUSH1 0x20 ADD PUSH1 0x0 KECCAK256 PUSH1 0x4 ADD SLOAD NUMBER PUSH2 0x1CAD SWAP1 SWAP2 SWAP1 PUSH4 0xFFFFFFFF AND JUMP JUMPDEST PUSH2 0x1CC3 SWAP1 SWAP2 SWAP1 PUSH4 0xFFFFFFFF AND JUMP JUMPDEST DUP8 PUSH2 0x1CEF SWAP1 SWAP2 SWAP1 PUSH4 0xFFFFFFFF AND JUMP JUMPDEST PUSH2 0x1CEF SWAP1 SWAP2 SWAP1 PUSH4 0xFFFFFFFF AND JUMP JUMPDEST PUSH2 0x1CC3 SWAP1 SWAP2 SWAP1 PUSH4 0xFFFFFFFF AND JUMP JUMPDEST SWAP1 POP PUSH2 0x1C1C DUP2 PUSH1 0xA PUSH1 0x0 CALLER PUSH20 0xFFFFFFFFFFFFFFFFFFFFFFFFFFFFFFFFFFFFFFFF AND PUSH20 0xFFFFFFFFFFFFFFFFFFFFFFFFFFFFFFFFFFFFFFFF AND DUP2 MSTORE PUSH1 0x20 ADD SWAP1 DUP2 MSTORE PUSH1 0x20 ADD PUSH1 0x0 KECCAK256 PUSH1 0x0 ADD SLOAD PUSH2 0x1CD9 SWAP1 SWAP2 SWAP1 PUSH4 0xFFFFFFFF AND JUMP JUMPDEST PUSH1 0xA PUSH1 0x0 CALLER PUSH20 0xFFFFFFFFFFFFFFFFFFFFFFFFFFFFFFFFFFFFFFFF AND PUSH20 0xFFFFFFFFFFFFFFFFFFFFFFFFFFFFFFFFFFFFFFFF AND DUP2 MSTORE PUSH1 0x20 ADD SWAP1 DUP2 MSTORE PUSH1 0x20 ADD PUSH1 0x0 KECCAK256 PUSH1 0x0 ADD DUP2 SWAP1 SSTORE POP NUMBER PUSH1 0xA PUSH1 0x0 CALLER PUSH20 0xFFFFFFFFFFFFFFFFFFFFFFFFFFFFFFFFFFFFFFFF AND PUSH20 0xFFFFFFFFFFFFFFFFFFFFFFFFFFFFFFFFFFFFFFFF AND DUP2 MSTORE PUSH1 0x20 ADD SWAP1 DUP2 MSTORE PUSH1 0x20 ADD PUSH1 0x0 KECCAK256 PUSH1 0x4 ADD DUP2 SWAP1 SSTORE POP POP POP JUMP JUMPDEST PUSH1 0x0 DUP2 DUP4 PUSH2 0x1CBB SWAP2 SWAP1 PUSH2 0x29AC JUMP JUMPDEST SWAP1 POP SWAP3 SWAP2 POP POP JUMP JUMPDEST PUSH1 0x0 DUP2 DUP4 PUSH2 0x1CD1 SWAP2 SWAP1 PUSH2 0x2921 JUMP JUMPDEST SWAP1 POP SWAP3 SWAP2 POP POP JUMP JUMPDEST PUSH1 0x0 DUP2 DUP4 PUSH2 0x1CE7 SWAP2 SWAP1 PUSH2 0x28CB JUMP JUMPDEST SWAP1 POP SWAP3 SWAP2 POP POP JUMP JUMPDEST PUSH1 0x0 DUP2 DUP4 PUSH2 0x1CFD SWAP2 SWAP1 PUSH2 0x2952 JUMP JUMPDEST SWAP1 POP SWAP3 SWAP2 POP POP JUMP JUMPDEST PUSH2 0x1D86 DUP4 PUSH4 0xA9059CBB PUSH1 0xE0 SHL DUP5 DUP5 PUSH1 0x40 MLOAD PUSH1 0x24 ADD PUSH2 0x1D24 SWAP3 SWAP2 SWAP1 PUSH2 0x25F8 JUMP JUMPDEST PUSH1 0x40 MLOAD PUSH1 0x20 DUP2 DUP4 SUB SUB DUP2 MSTORE SWAP1 PUSH1 0x40 MSTORE SWAP1 PUSH28 0xFFFFFFFFFFFFFFFFFFFFFFFFFFFFFFFFFFFFFFFFFFFFFFFFFFFFFFFF NOT AND PUSH1 0x20 DUP3 ADD DUP1 MLOAD PUSH28 0xFFFFFFFFFFFFFFFFFFFFFFFFFFFFFFFFFFFFFFFFFFFFFFFFFFFFFFFF DUP4 DUP2 DUP4 AND OR DUP4 MSTORE POP POP POP POP PUSH2 0x1EE0 JUMP JUMPDEST POP POP POP JUMP JUMPDEST PUSH1 0x0 CALLER SWAP1 POP SWAP1 JUMP JUMPDEST PUSH1 0x0 DUP1 PUSH1 0x0 SWAP1 SLOAD SWAP1 PUSH2 0x100 EXP SWAP1 DIV PUSH20 0xFFFFFFFFFFFFFFFFFFFFFFFFFFFFFFFFFFFFFFFF AND SWAP1 POP DUP2 PUSH1 0x0 DUP1 PUSH2 0x100 EXP DUP2 SLOAD DUP2 PUSH20 0xFFFFFFFFFFFFFFFFFFFFFFFFFFFFFFFFFFFFFFFF MUL NOT AND SWAP1 DUP4 PUSH20 0xFFFFFFFFFFFFFFFFFFFFFFFFFFFFFFFFFFFFFFFF AND MUL OR SWAP1 SSTORE POP DUP2 PUSH20 0xFFFFFFFFFFFFFFFFFFFFFFFFFFFFFFFFFFFFFFFF AND DUP2 PUSH20 0xFFFFFFFFFFFFFFFFFFFFFFFFFFFFFFFFFFFFFFFF AND PUSH32 0x8BE0079C531659141344CD1FD0A4F28419497F9722A3DAAFE3B4186F6B6457E0 PUSH1 0x40 MLOAD PUSH1 0x40 MLOAD DUP1 SWAP2 SUB SWAP1 LOG3 POP POP JUMP JUMPDEST PUSH2 0x1EDA DUP5 PUSH4 0x23B872DD PUSH1 0xE0 SHL DUP6 DUP6 DUP6 PUSH1 0x40 MLOAD PUSH1 0x24 ADD PUSH2 0x1E78 SWAP4 SWAP3 SWAP2 SWAP1 PUSH2 0x25C1 JUMP JUMPDEST PUSH1 0x40 MLOAD PUSH1 0x20 DUP2 DUP4 SUB SUB DUP2 MSTORE SWAP1 PUSH1 0x40 MSTORE SWAP1 PUSH28 0xFFFFFFFFFFFFFFFFFFFFFFFFFFFFFFFFFFFFFFFFFFFFFFFFFFFFFFFF NOT AND PUSH1 0x20 DUP3 ADD DUP1 MLOAD PUSH28 0xFFFFFFFFFFFFFFFFFFFFFFFFFFFFFFFFFFFFFFFFFFFFFFFFFFFFFFFF DUP4 DUP2 DUP4 AND OR DUP4 MSTORE POP POP POP POP PUSH2 0x1EE0 JUMP JUMPDEST POP POP POP POP JUMP JUMPDEST PUSH1 0x0 PUSH2 0x1F42 DUP3 PUSH1 0x40 MLOAD DUP1 PUSH1 0x40 ADD PUSH1 0x40 MSTORE DUP1 PUSH1 0x20 DUP2 MSTORE PUSH1 0x20 ADD PUSH32 0x5361666542455032303A206C6F772D6C6576656C2063616C6C206661696C6564 DUP2 MSTORE POP DUP6 PUSH20 0xFFFFFFFFFFFFFFFFFFFFFFFFFFFFFFFFFFFFFFFF AND PUSH2 0x1FA7 SWAP1 SWAP3 SWAP2 SWAP1 PUSH4 0xFFFFFFFF AND JUMP JUMPDEST SWAP1 POP PUSH1 0x0 DUP2 MLOAD GT ISZERO PUSH2 0x1FA2 JUMPI DUP1 DUP1 PUSH1 0x20 ADD SWAP1 MLOAD DUP2 ADD SWAP1 PUSH2 0x1F62 SWAP2 SWAP1 PUSH2 0x21DE JUMP JUMPDEST PUSH2 0x1FA1 JUMPI PUSH1 0x40 MLOAD PUSH32 0x8C379A000000000000000000000000000000000000000000000000000000000 DUP2 MSTORE PUSH1 0x4 ADD PUSH2 0x1F98 SWAP1 PUSH2 0x26BE JUMP JUMPDEST PUSH1 0x40 MLOAD DUP1 SWAP2 SUB SWAP1 REVERT JUMPDEST JUMPDEST POP POP POP JUMP JUMPDEST PUSH1 0x60 PUSH2 0x1FB6 DUP5 DUP5 PUSH1 0x0 DUP6 PUSH2 0x1FBF JUMP JUMPDEST SWAP1 POP SWAP4 SWAP3 POP POP POP JUMP JUMPDEST PUSH1 0x60 DUP3 SELFBALANCE LT ISZERO PUSH2 0x2004 JUMPI PUSH1 0x40 MLOAD PUSH32 0x8C379A000000000000000000000000000000000000000000000000000000000 DUP2 MSTORE PUSH1 0x4 ADD PUSH2 0x1FFB SWAP1 PUSH2 0x273E JUMP JUMPDEST PUSH1 0x40 MLOAD DUP1 SWAP2 SUB SWAP1 REVERT JUMPDEST PUSH2 0x200D DUP6 PUSH2 0x20D3 JUMP JUMPDEST PUSH2 0x204C JUMPI PUSH1 0x40 MLOAD PUSH32 0x8C379A000000000000000000000000000000000000000000000000000000000 DUP2 MSTORE PUSH1 0x4 ADD PUSH2 0x2043 SWAP1 PUSH2 0x27BE JUMP JUMPDEST PUSH1 0x40 MLOAD DUP1 SWAP2 SUB SWAP1 REVERT JUMPDEST PUSH1 0x0 DUP1 DUP7 PUSH20 0xFFFFFFFFFFFFFFFFFFFFFFFFFFFFFFFFFFFFFFFF AND DUP6 DUP8 PUSH1 0x40 MLOAD PUSH2 0x2075 SWAP2 SWAP1 PUSH2 0x258F JUMP JUMPDEST PUSH1 0x0 PUSH1 0x40 MLOAD DUP1 DUP4 SUB DUP2 DUP6 DUP8 GAS CALL SWAP3 POP POP POP RETURNDATASIZE DUP1 PUSH1 0x0 DUP2 EQ PUSH2 0x20B2 JUMPI PUSH1 0x40 MLOAD SWAP2 POP PUSH1 0x1F NOT PUSH1 0x3F RETURNDATASIZE ADD AND DUP3 ADD PUSH1 0x40 MSTORE RETURNDATASIZE DUP3 MSTORE RETURNDATASIZE PUSH1 0x0 PUSH1 0x20 DUP5 ADD RETURNDATACOPY PUSH2 0x20B7 JUMP JUMPDEST PUSH1 0x60 SWAP2 POP JUMPDEST POP SWAP2 POP SWAP2 POP PUSH2 0x20C7 DUP3 DUP3 DUP7 PUSH2 0x20F6 JUMP JUMPDEST SWAP3 POP POP POP SWAP5 SWAP4 POP POP POP POP JUMP JUMPDEST PUSH1 0x0 DUP1 DUP3 PUSH20 0xFFFFFFFFFFFFFFFFFFFFFFFFFFFFFFFFFFFFFFFF AND EXTCODESIZE GT SWAP1 POP SWAP2 SWAP1 POP JUMP JUMPDEST PUSH1 0x60 DUP4 ISZERO PUSH2 0x2106 JUMPI DUP3 SWAP1 POP PUSH2 0x2156 JUMP JUMPDEST PUSH1 0x0 DUP4 MLOAD GT ISZERO PUSH2 0x2119 JUMPI DUP3 MLOAD DUP1 DUP5 PUSH1 0x20 ADD REVERT JUMPDEST DUP2 PUSH1 0x40 MLOAD PUSH32 0x8C379A000000000000000000000000000000000000000000000000000000000 DUP2 MSTORE PUSH1 0x4 ADD PUSH2 0x214D SWAP2 SWAP1 PUSH2 0x263C JUMP JUMPDEST PUSH1 0x40 MLOAD DUP1 SWAP2 SUB SWAP1 REVERT JUMPDEST SWAP4 SWAP3 POP POP POP JUMP JUMPDEST PUSH1 0x0 DUP2 CALLDATALOAD SWAP1 POP PUSH2 0x216C DUP2 PUSH2 0x2E61 JUMP JUMPDEST SWAP3 SWAP2 POP POP JUMP JUMPDEST PUSH1 0x0 DUP2 MLOAD SWAP1 POP PUSH2 0x2181 DUP2 PUSH2 0x2E78 JUMP JUMPDEST SWAP3 SWAP2 POP POP JUMP JUMPDEST PUSH1 0x0 DUP2 CALLDATALOAD SWAP1 POP PUSH2 0x2196 DUP2 PUSH2 0x2E8F JUMP JUMPDEST SWAP3 SWAP2 POP POP JUMP JUMPDEST PUSH1 0x0 DUP2 MLOAD SWAP1 POP PUSH2 0x21AB DUP2 PUSH2 0x2E8F JUMP JUMPDEST SWAP3 SWAP2 POP POP JUMP JUMPDEST PUSH1 0x0 PUSH1 0x20 DUP3 DUP5 SUB SLT ISZERO PUSH2 0x21C7 JUMPI PUSH2 0x21C6 PUSH2 0x2B20 JUMP JUMPDEST JUMPDEST PUSH1 0x0 PUSH2 0x21D5 DUP5 DUP3 DUP6 ADD PUSH2 0x215D JUMP JUMPDEST SWAP2 POP POP SWAP3 SWAP2 POP POP JUMP JUMPDEST PUSH1 0x0 PUSH1 0x20 DUP3 DUP5 SUB SLT ISZERO PUSH2 0x21F4 JUMPI PUSH2 0x21F3 PUSH2 0x2B20 JUMP JUMPDEST JUMPDEST PUSH1 0x0 PUSH2 0x2202 DUP5 DUP3 DUP6 ADD PUSH2 0x2172 JUMP JUMPDEST SWAP2 POP POP SWAP3 SWAP2 POP POP JUMP JUMPDEST PUSH1 0x0 PUSH1 0x20 DUP3 DUP5 SUB SLT ISZERO PUSH2 0x2221 JUMPI PUSH2 0x2220 PUSH2 0x2B20 JUMP JUMPDEST JUMPDEST PUSH1 0x0 PUSH2 0x222F DUP5 DUP3 DUP6 ADD PUSH2 0x2187 JUMP JUMPDEST SWAP2 POP POP SWAP3 SWAP2 POP POP JUMP JUMPDEST PUSH1 0x0 PUSH1 0x20 DUP3 DUP5 SUB SLT ISZERO PUSH2 0x224E JUMPI PUSH2 0x224D PUSH2 0x2B20 JUMP JUMPDEST JUMPDEST PUSH1 0x0 PUSH2 0x225C DUP5 DUP3 DUP6 ADD PUSH2 0x219C JUMP JUMPDEST SWAP2 POP POP SWAP3 SWAP2 POP POP JUMP JUMPDEST PUSH1 0x0 DUP1 PUSH1 0x40 DUP4 DUP6 SUB SLT ISZERO PUSH2 0x227C JUMPI PUSH2 0x227B PUSH2 0x2B20 JUMP JUMPDEST JUMPDEST PUSH1 0x0 PUSH2 0x228A DUP6 DUP3 DUP7 ADD PUSH2 0x2187 JUMP JUMPDEST SWAP3 POP POP PUSH1 0x20 PUSH2 0x229B DUP6 DUP3 DUP7 ADD PUSH2 0x2187 JUMP JUMPDEST SWAP2 POP POP SWAP3 POP SWAP3 SWAP1 POP JUMP JUMPDEST PUSH2 0x22AE DUP2 PUSH2 0x29E0 JUMP JUMPDEST DUP3 MSTORE POP POP JUMP JUMPDEST PUSH1 0x0 PUSH2 0x22BF DUP3 PUSH2 0x2899 JUMP JUMPDEST PUSH2 0x22C9 DUP2 DUP6 PUSH2 0x28AF JUMP JUMPDEST SWAP4 POP PUSH2 0x22D9 DUP2 DUP6 PUSH1 0x20 DUP7 ADD PUSH2 0x2A5E JUMP JUMPDEST DUP1 DUP5 ADD SWAP2 POP POP SWAP3 SWAP2 POP POP JUMP JUMPDEST PUSH2 0x22EE DUP2 PUSH2 0x2A28 JUMP JUMPDEST DUP3 MSTORE POP POP JUMP JUMPDEST PUSH1 0x0 PUSH2 0x22FF DUP3 PUSH2 0x28A4 JUMP JUMPDEST PUSH2 0x2309 DUP2 DUP6 PUSH2 0x28BA JUMP JUMPDEST SWAP4 POP PUSH2 0x2319 DUP2 DUP6 PUSH1 0x20 DUP7 ADD PUSH2 0x2A5E JUMP JUMPDEST PUSH2 0x2322 DUP2 PUSH2 0x2B25 JUMP JUMPDEST DUP5 ADD SWAP2 POP POP SWAP3 SWAP2 POP POP JUMP JUMPDEST PUSH1 0x0 PUSH2 0x233A PUSH1 0xC DUP4 PUSH2 0x28BA JUMP JUMPDEST SWAP2 POP PUSH2 0x2345 DUP3 PUSH2 0x2B36 JUMP JUMPDEST PUSH1 0x20 DUP3 ADD SWAP1 POP SWAP2 SWAP1 POP JUMP JUMPDEST PUSH1 0x0 PUSH2 0x235D PUSH1 0x10 DUP4 PUSH2 0x28BA JUMP JUMPDEST SWAP2 POP PUSH2 0x2368 DUP3 PUSH2 0x2B5F JUMP JUMPDEST PUSH1 0x20 DUP3 ADD SWAP1 POP SWAP2 SWAP1 POP JUMP JUMPDEST PUSH1 0x0 PUSH2 0x2380 PUSH1 0x15 DUP4 PUSH2 0x28BA JUMP JUMPDEST SWAP2 POP PUSH2 0x238B DUP3 PUSH2 0x2B88 JUMP JUMPDEST PUSH1 0x20 DUP3 ADD SWAP1 POP SWAP2 SWAP1 POP JUMP JUMPDEST PUSH1 0x0 PUSH2 0x23A3 PUSH1 0x2A DUP4 PUSH2 0x28BA JUMP JUMPDEST SWAP2 POP PUSH2 0x23AE DUP3 PUSH2 0x2BB1 JUMP JUMPDEST PUSH1 0x40 DUP3 ADD SWAP1 POP SWAP2 SWAP1 POP JUMP JUMPDEST PUSH1 0x0 PUSH2 0x23C6 PUSH1 0x26 DUP4 PUSH2 0x28BA JUMP JUMPDEST SWAP2 POP PUSH2 0x23D1 DUP3 PUSH2 0x2C00 JUMP JUMPDEST PUSH1 0x40 DUP3 ADD SWAP1 POP SWAP2 SWAP1 POP JUMP JUMPDEST PUSH1 0x0 PUSH2 0x23E9 PUSH1 0xE DUP4 PUSH2 0x28BA JUMP JUMPDEST SWAP2 POP PUSH2 0x23F4 DUP3 PUSH2 0x2C4F JUMP JUMPDEST PUSH1 0x20 DUP3 ADD SWAP1 POP SWAP2 SWAP1 POP JUMP JUMPDEST PUSH1 0x0 PUSH2 0x240C PUSH1 0xF DUP4 PUSH2 0x28BA JUMP JUMPDEST SWAP2 POP PUSH2 0x2417 DUP3 PUSH2 0x2C78 JUMP JUMPDEST PUSH1 0x20 DUP3 ADD SWAP1 POP SWAP2 SWAP1 POP JUMP JUMPDEST PUSH1 0x0 PUSH2 0x242F PUSH1 0x26 DUP4 PUSH2 0x28BA JUMP JUMPDEST SWAP2 POP PUSH2 0x243A DUP3 PUSH2 0x2CA1 JUMP JUMPDEST PUSH1 0x40 DUP3 ADD SWAP1 POP SWAP2 SWAP1 POP JUMP JUMPDEST PUSH1 0x0 PUSH2 0x2452 PUSH1 0x1F DUP4 PUSH2 0x28BA JUMP JUMPDEST SWAP2 POP PUSH2 0x245D DUP3 PUSH2 0x2CF0 JUMP JUMPDEST PUSH1 0x20 DUP3 ADD SWAP1 POP SWAP2 SWAP1 POP JUMP JUMPDEST PUSH1 0x0 PUSH2 0x2475 PUSH1 0x20 DUP4 PUSH2 0x28BA JUMP JUMPDEST SWAP2 POP PUSH2 0x2480 DUP3 PUSH2 0x2D19 JUMP JUMPDEST PUSH1 0x20 DUP3 ADD SWAP1 POP SWAP2 SWAP1 POP JUMP JUMPDEST PUSH1 0x0 PUSH2 0x2498 PUSH1 0xD DUP4 PUSH2 0x28BA JUMP JUMPDEST SWAP2 POP PUSH2 0x24A3 DUP3 PUSH2 0x2D42 JUMP JUMPDEST PUSH1 0x20 DUP3 ADD SWAP1 POP SWAP2 SWAP1 POP JUMP JUMPDEST PUSH1 0x0 PUSH2 0x24BB PUSH1 0x1D DUP4 PUSH2 0x28BA JUMP JUMPDEST SWAP2 POP PUSH2 0x24C6 DUP3 PUSH2 0x2D6B JUMP JUMPDEST PUSH1 0x20 DUP3 ADD SWAP1 POP SWAP2 SWAP1 POP JUMP JUMPDEST PUSH1 0x0 PUSH2 0x24DE PUSH1 0x1A DUP4 PUSH2 0x28BA JUMP JUMPDEST SWAP2 POP PUSH2 0x24E9 DUP3 PUSH2 0x2D94 JUMP JUMPDEST PUSH1 0x20 DUP3 ADD SWAP1 POP SWAP2 SWAP1 POP JUMP JUMPDEST PUSH1 0x0 PUSH2 0x2501 PUSH1 0x17 DUP4 PUSH2 0x28BA JUMP JUMPDEST SWAP2 POP PUSH2 0x250C DUP3 PUSH2 0x2DBD JUMP JUMPDEST PUSH1 0x20 DUP3 ADD SWAP1 POP SWAP2 SWAP1 POP JUMP JUMPDEST PUSH1 0x0 PUSH2 0x2524 PUSH1 0xD DUP4 PUSH2 0x28BA JUMP JUMPDEST SWAP2 POP PUSH2 0x252F DUP3 PUSH2 0x2DE6 JUMP JUMPDEST PUSH1 0x20 DUP3 ADD SWAP1 POP SWAP2 SWAP1 POP JUMP JUMPDEST PUSH1 0x0 PUSH2 0x2547 PUSH1 0xC DUP4 PUSH2 0x28BA JUMP JUMPDEST SWAP2 POP PUSH2 0x2552 DUP3 PUSH2 0x2E0F JUMP JUMPDEST PUSH1 0x20 DUP3 ADD SWAP1 POP SWAP2 SWAP1 POP JUMP JUMPDEST PUSH1 0x0 PUSH2 0x256A PUSH1 0xD DUP4 PUSH2 0x28BA JUMP JUMPDEST SWAP2 POP PUSH2 0x2575 DUP3 PUSH2 0x2E38 JUMP JUMPDEST PUSH1 0x20 DUP3 ADD SWAP1 POP SWAP2 SWAP1 POP JUMP JUMPDEST PUSH2 0x2589 DUP2 PUSH2 0x2A1E JUMP JUMPDEST DUP3 MSTORE POP POP JUMP JUMPDEST PUSH1 0x0 PUSH2 0x259B DUP3 DUP5 PUSH2 0x22B4 JUMP JUMPDEST SWAP2 POP DUP2 SWAP1 POP SWAP3 SWAP2 POP POP JUMP JUMPDEST PUSH1 0x0 PUSH1 0x20 DUP3 ADD SWAP1 POP PUSH2 0x25BB PUSH1 0x0 DUP4 ADD DUP5 PUSH2 0x22A5 JUMP JUMPDEST SWAP3 SWAP2 POP POP JUMP JUMPDEST PUSH1 0x0 PUSH1 0x60 DUP3 ADD SWAP1 POP PUSH2 0x25D6 PUSH1 0x0 DUP4 ADD DUP7 PUSH2 0x22A5 JUMP JUMPDEST PUSH2 0x25E3 PUSH1 0x20 DUP4 ADD DUP6 PUSH2 0x22A5 JUMP JUMPDEST PUSH2 0x25F0 PUSH1 0x40 DUP4 ADD DUP5 PUSH2 0x2580 JUMP JUMPDEST SWAP5 SWAP4 POP POP POP POP JUMP JUMPDEST PUSH1 0x0 PUSH1 0x40 DUP3 ADD SWAP1 POP PUSH2 0x260D PUSH1 0x0 DUP4 ADD DUP6 PUSH2 0x22A5 JUMP JUMPDEST PUSH2 0x261A PUSH1 0x20 DUP4 ADD DUP5 PUSH2 0x2580 JUMP JUMPDEST SWAP4 SWAP3 POP POP POP JUMP JUMPDEST PUSH1 0x0 PUSH1 0x20 DUP3 ADD SWAP1 POP PUSH2 0x2636 PUSH1 0x0 DUP4 ADD DUP5 PUSH2 0x22E5 JUMP JUMPDEST SWAP3 SWAP2 POP POP JUMP JUMPDEST PUSH1 0x0 PUSH1 0x20 DUP3 ADD SWAP1 POP DUP2 DUP2 SUB PUSH1 0x0 DUP4 ADD MSTORE PUSH2 0x2656 DUP2 DUP5 PUSH2 0x22F4 JUMP JUMPDEST SWAP1 POP SWAP3 SWAP2 POP POP JUMP JUMPDEST PUSH1 0x0 PUSH1 0x20 DUP3 ADD SWAP1 POP DUP2 DUP2 SUB PUSH1 0x0 DUP4 ADD MSTORE PUSH2 0x2677 DUP2 PUSH2 0x232D JUMP JUMPDEST SWAP1 POP SWAP2 SWAP1 POP JUMP JUMPDEST PUSH1 0x0 PUSH1 0x20 DUP3 ADD SWAP1 POP DUP2 DUP2 SUB PUSH1 0x0 DUP4 ADD MSTORE PUSH2 0x2697 DUP2 PUSH2 0x2350 JUMP JUMPDEST SWAP1 POP SWAP2 SWAP1 POP JUMP JUMPDEST PUSH1 0x0 PUSH1 0x20 DUP3 ADD SWAP1 POP DUP2 DUP2 SUB PUSH1 0x0 DUP4 ADD MSTORE PUSH2 0x26B7 DUP2 PUSH2 0x2373 JUMP JUMPDEST SWAP1 POP SWAP2 SWAP1 POP JUMP JUMPDEST PUSH1 0x0 PUSH1 0x20 DUP3 ADD SWAP1 POP DUP2 DUP2 SUB PUSH1 0x0 DUP4 ADD MSTORE PUSH2 0x26D7 DUP2 PUSH2 0x2396 JUMP JUMPDEST SWAP1 POP SWAP2 SWAP1 POP JUMP JUMPDEST PUSH1 0x0 PUSH1 0x20 DUP3 ADD SWAP1 POP DUP2 DUP2 SUB PUSH1 0x0 DUP4 ADD MSTORE PUSH2 0x26F7 DUP2 PUSH2 0x23B9 JUMP JUMPDEST SWAP1 POP SWAP2 SWAP1 POP JUMP JUMPDEST PUSH1 0x0 PUSH1 0x20 DUP3 ADD SWAP1 POP DUP2 DUP2 SUB PUSH1 0x0 DUP4 ADD MSTORE PUSH2 0x2717 DUP2 PUSH2 0x23DC JUMP JUMPDEST SWAP1 POP SWAP2 SWAP1 POP JUMP JUMPDEST PUSH1 0x0 PUSH1 0x20 DUP3 ADD SWAP1 POP DUP2 DUP2 SUB PUSH1 0x0 DUP4 ADD MSTORE PUSH2 0x2737 DUP2 PUSH2 0x23FF JUMP JUMPDEST SWAP1 POP SWAP2 SWAP1 POP JUMP JUMPDEST PUSH1 0x0 PUSH1 0x20 DUP3 ADD SWAP1 POP DUP2 DUP2 SUB PUSH1 0x0 DUP4 ADD MSTORE PUSH2 0x2757 DUP2 PUSH2 0x2422 JUMP JUMPDEST SWAP1 POP SWAP2 SWAP1 POP JUMP JUMPDEST PUSH1 0x0 PUSH1 0x20 DUP3 ADD SWAP1 POP DUP2 DUP2 SUB PUSH1 0x0 DUP4 ADD MSTORE PUSH2 0x2777 DUP2 PUSH2 0x2445 JUMP JUMPDEST SWAP1 POP SWAP2 SWAP1 POP JUMP JUMPDEST PUSH1 0x0 PUSH1 0x20 DUP3 ADD SWAP1 POP DUP2 DUP2 SUB PUSH1 0x0 DUP4 ADD MSTORE PUSH2 0x2797 DUP2 PUSH2 0x2468 JUMP JUMPDEST SWAP1 POP SWAP2 SWAP1 POP JUMP JUMPDEST PUSH1 0x0 PUSH1 0x20 DUP3 ADD SWAP1 POP DUP2 DUP2 SUB PUSH1 0x0 DUP4 ADD MSTORE PUSH2 0x27B7 DUP2 PUSH2 0x248B JUMP JUMPDEST SWAP1 POP SWAP2 SWAP1 POP JUMP JUMPDEST PUSH1 0x0 PUSH1 0x20 DUP3 ADD SWAP1 POP DUP2 DUP2 SUB PUSH1 0x0 DUP4 ADD MSTORE PUSH2 0x27D7 DUP2 PUSH2 0x24AE JUMP JUMPDEST SWAP1 POP SWAP2 SWAP1 POP JUMP JUMPDEST PUSH1 0x0 PUSH1 0x20 DUP3 ADD SWAP1 POP DUP2 DUP2 SUB PUSH1 0x0 DUP4 ADD MSTORE PUSH2 0x27F7 DUP2 PUSH2 0x24D1 JUMP JUMPDEST SWAP1 POP SWAP2 SWAP1 POP JUMP JUMPDEST PUSH1 0x0 PUSH1 0x20 DUP3 ADD SWAP1 POP DUP2 DUP2 SUB PUSH1 0x0 DUP4 ADD MSTORE PUSH2 0x2817 DUP2 PUSH2 0x24F4 JUMP JUMPDEST SWAP1 POP SWAP2 SWAP1 POP JUMP JUMPDEST PUSH1 0x0 PUSH1 0x20 DUP3 ADD SWAP1 POP DUP2 DUP2 SUB PUSH1 0x0 DUP4 ADD MSTORE PUSH2 0x2837 DUP2 PUSH2 0x2517 JUMP JUMPDEST SWAP1 POP SWAP2 SWAP1 POP JUMP JUMPDEST PUSH1 0x0 PUSH1 0x20 DUP3 ADD SWAP1 POP DUP2 DUP2 SUB PUSH1 0x0 DUP4 ADD MSTORE PUSH2 0x2857 DUP2 PUSH2 0x253A JUMP JUMPDEST SWAP1 POP SWAP2 SWAP1 POP JUMP JUMPDEST PUSH1 0x0 PUSH1 0x20 DUP3 ADD SWAP1 POP DUP2 DUP2 SUB PUSH1 0x0 DUP4 ADD MSTORE PUSH2 0x2877 DUP2 PUSH2 0x255D JUMP JUMPDEST SWAP1 POP SWAP2 SWAP1 POP JUMP JUMPDEST PUSH1 0x0 PUSH1 0x20 DUP3 ADD SWAP1 POP PUSH2 0x2893 PUSH1 0x0 DUP4 ADD DUP5 PUSH2 0x2580 JUMP JUMPDEST SWAP3 SWAP2 POP POP JUMP JUMPDEST PUSH1 0x0 DUP2 MLOAD SWAP1 POP SWAP2 SWAP1 POP JUMP JUMPDEST PUSH1 0x0 DUP2 MLOAD SWAP1 POP SWAP2 SWAP1 POP JUMP JUMPDEST PUSH1 0x0 DUP2 SWAP1 POP SWAP3 SWAP2 POP POP JUMP JUMPDEST PUSH1 0x0 DUP3 DUP3 MSTORE PUSH1 0x20 DUP3 ADD SWAP1 POP SWAP3 SWAP2 POP POP JUMP JUMPDEST PUSH1 0x0 PUSH2 0x28D6 DUP3 PUSH2 0x2A1E JUMP JUMPDEST SWAP2 POP PUSH2 0x28E1 DUP4 PUSH2 0x2A1E JUMP JUMPDEST SWAP3 POP DUP3 PUSH32 0xFFFFFFFFFFFFFFFFFFFFFFFFFFFFFFFFFFFFFFFFFFFFFFFFFFFFFFFFFFFFFFFF SUB DUP3 GT ISZERO PUSH2 0x2916 JUMPI PUSH2 0x2915 PUSH2 0x2AC2 JUMP JUMPDEST JUMPDEST DUP3 DUP3 ADD SWAP1 POP SWAP3 SWAP2 POP POP JUMP JUMPDEST PUSH1 0x0 PUSH2 0x292C DUP3 PUSH2 0x2A1E JUMP JUMPDEST SWAP2 POP PUSH2 0x2937 DUP4 PUSH2 0x2A1E JUMP JUMPDEST SWAP3 POP DUP3 PUSH2 0x2947 JUMPI PUSH2 0x2946 PUSH2 0x2AF1 JUMP JUMPDEST JUMPDEST DUP3 DUP3 DIV SWAP1 POP SWAP3 SWAP2 POP POP JUMP JUMPDEST PUSH1 0x0 PUSH2 0x295D DUP3 PUSH2 0x2A1E JUMP JUMPDEST SWAP2 POP PUSH2 0x2968 DUP4 PUSH2 0x2A1E JUMP JUMPDEST SWAP3 POP DUP2 PUSH32 0xFFFFFFFFFFFFFFFFFFFFFFFFFFFFFFFFFFFFFFFFFFFFFFFFFFFFFFFFFFFFFFFF DIV DUP4 GT DUP3 ISZERO ISZERO AND ISZERO PUSH2 0x29A1 JUMPI PUSH2 0x29A0 PUSH2 0x2AC2 JUMP JUMPDEST JUMPDEST DUP3 DUP3 MUL SWAP1 POP SWAP3 SWAP2 POP POP JUMP JUMPDEST PUSH1 0x0 PUSH2 0x29B7 DUP3 PUSH2 0x2A1E JUMP JUMPDEST SWAP2 POP PUSH2 0x29C2 DUP4 PUSH2 0x2A1E JUMP JUMPDEST SWAP3 POP DUP3 DUP3 LT ISZERO PUSH2 0x29D5 JUMPI PUSH2 0x29D4 PUSH2 0x2AC2 JUMP JUMPDEST JUMPDEST DUP3 DUP3 SUB SWAP1 POP SWAP3 SWAP2 POP POP JUMP JUMPDEST PUSH1 0x0 PUSH2 0x29EB DUP3 PUSH2 0x29FE JUMP JUMPDEST SWAP1 POP SWAP2 SWAP1 POP JUMP JUMPDEST PUSH1 0x0 DUP2 ISZERO ISZERO SWAP1 POP SWAP2 SWAP1 POP JUMP JUMPDEST PUSH1 0x0 PUSH20 0xFFFFFFFFFFFFFFFFFFFFFFFFFFFFFFFFFFFFFFFF DUP3 AND SWAP1 POP SWAP2 SWAP1 POP JUMP JUMPDEST PUSH1 0x0 DUP2 SWAP1 POP SWAP2 SWAP1 POP JUMP JUMPDEST PUSH1 0x0 PUSH2 0x2A33 DUP3 PUSH2 0x2A3A JUMP JUMPDEST SWAP1 POP SWAP2 SWAP1 POP JUMP JUMPDEST PUSH1 0x0 PUSH2 0x2A45 DUP3 PUSH2 0x2A4C JUMP JUMPDEST SWAP1 POP SWAP2 SWAP1 POP JUMP JUMPDEST PUSH1 0x0 PUSH2 0x2A57 DUP3 PUSH2 0x29FE JUMP JUMPDEST SWAP1 POP SWAP2 SWAP1 POP JUMP JUMPDEST PUSH1 0x0 JUMPDEST DUP4 DUP2 LT ISZERO PUSH2 0x2A7C JUMPI DUP1 DUP3 ADD MLOAD DUP2 DUP5 ADD MSTORE PUSH1 0x20 DUP2 ADD SWAP1 POP PUSH2 0x2A61 JUMP JUMPDEST DUP4 DUP2 GT ISZERO PUSH2 0x2A8B JUMPI PUSH1 0x0 DUP5 DUP5 ADD MSTORE JUMPDEST POP POP POP POP JUMP JUMPDEST PUSH1 0x0 PUSH2 0x2A9C DUP3 PUSH2 0x2A1E JUMP JUMPDEST SWAP2 POP PUSH2 0x2AA7 DUP4 PUSH2 0x2A1E JUMP JUMPDEST SWAP3 POP DUP3 PUSH2 0x2AB7 JUMPI PUSH2 0x2AB6 PUSH2 0x2AF1 JUMP JUMPDEST JUMPDEST DUP3 DUP3 MOD SWAP1 POP SWAP3 SWAP2 POP POP JUMP JUMPDEST PUSH32 0x4E487B7100000000000000000000000000000000000000000000000000000000 PUSH1 0x0 MSTORE PUSH1 0x11 PUSH1 0x4 MSTORE PUSH1 0x24 PUSH1 0x0 REVERT JUMPDEST PUSH32 0x4E487B7100000000000000000000000000000000000000000000000000000000 PUSH1 0x0 MSTORE PUSH1 0x12 PUSH1 0x4 MSTORE PUSH1 0x24 PUSH1 0x0 REVERT JUMPDEST PUSH1 0x0 DUP1 REVERT JUMPDEST PUSH1 0x0 PUSH1 0x1F NOT PUSH1 0x1F DUP4 ADD AND SWAP1 POP SWAP2 SWAP1 POP JUMP JUMPDEST PUSH32 0x496E73756666696369656E740000000000000000000000000000000000000000 PUSH1 0x0 DUP3 ADD MSTORE POP JUMP JUMPDEST PUSH32 0x4E6F7468696E6720746F20636C61696D00000000000000000000000000000000 PUSH1 0x0 DUP3 ADD MSTORE POP JUMP JUMPDEST PUSH32 0x4572726F723A20696E76616C6964207374616B65720000000000000000000000 PUSH1 0x0 DUP3 ADD MSTORE POP JUMP JUMPDEST PUSH32 0x5361666542455032303A204245503230206F7065726174696F6E20646964206E PUSH1 0x0 DUP3 ADD MSTORE PUSH32 0x6F74207375636365656400000000000000000000000000000000000000000000 PUSH1 0x20 DUP3 ADD MSTORE POP JUMP JUMPDEST PUSH32 0x4F776E61626C653A206E6577206F776E657220697320746865207A65726F2061 PUSH1 0x0 DUP3 ADD MSTORE PUSH32 0x6464726573730000000000000000000000000000000000000000000000000000 PUSH1 0x20 DUP3 ADD MSTORE POP JUMP JUMPDEST PUSH32 0x496E76616C696420616D6F756E74000000000000000000000000000000000000 PUSH1 0x0 DUP3 ADD MSTORE POP JUMP JUMPDEST PUSH32 0x416C726561647920737461727465640000000000000000000000000000000000 PUSH1 0x0 DUP3 ADD MSTORE POP JUMP JUMPDEST PUSH32 0x416464726573733A20696E73756666696369656E742062616C616E636520666F PUSH1 0x0 DUP3 ADD MSTORE PUSH32 0x722063616C6C0000000000000000000000000000000000000000000000000000 PUSH1 0x20 DUP3 ADD MSTORE POP JUMP JUMPDEST PUSH32 0x416D6F756E742073686F756C642062652067726561746572207468616E203000 PUSH1 0x0 DUP3 ADD MSTORE POP JUMP JUMPDEST PUSH32 0x4F776E61626C653A2063616C6C6572206973206E6F7420746865206F776E6572 PUSH1 0x0 DUP3 ADD MSTORE POP JUMP JUMPDEST PUSH32 0x496E76616C69642076616C756500000000000000000000000000000000000000 PUSH1 0x0 DUP3 ADD MSTORE POP JUMP JUMPDEST PUSH32 0x416464726573733A2063616C6C20746F206E6F6E2D636F6E7472616374000000 PUSH1 0x0 DUP3 ADD MSTORE POP JUMP JUMPDEST PUSH32 0x496E76616C696420556E7374616B696E67204665652052617465000000000000 PUSH1 0x0 DUP3 ADD MSTORE POP JUMP JUMPDEST PUSH32 0x496E76616C6964204C6F636B7570204475726174696F6E000000000000000000 PUSH1 0x0 DUP3 ADD MSTORE POP JUMP JUMPDEST PUSH32 0x43616E2774206265207A65726F00000000000000000000000000000000000000 PUSH1 0x0 DUP3 ADD MSTORE POP JUMP JUMPDEST PUSH32 0x496E76616C6964204D6F64650000000000000000000000000000000000000000 PUSH1 0x0 DUP3 ADD MSTORE POP JUMP JUMPDEST PUSH32 0x496E73756666696369656E742100000000000000000000000000000000000000 PUSH1 0x0 DUP3 ADD MSTORE POP JUMP JUMPDEST PUSH2 0x2E6A DUP2 PUSH2 0x29E0 JUMP JUMPDEST DUP2 EQ PUSH2 0x2E75 JUMPI PUSH1 0x0 DUP1 REVERT JUMPDEST POP JUMP JUMPDEST PUSH2 0x2E81 DUP2 PUSH2 0x29F2 JUMP JUMPDEST DUP2 EQ PUSH2 0x2E8C JUMPI PUSH1 0x0 DUP1 REVERT JUMPDEST POP JUMP JUMPDEST PUSH2 0x2E98 DUP2 PUSH2 0x2A1E JUMP JUMPDEST DUP2 EQ PUSH2 0x2EA3 JUMPI PUSH1 0x0 DUP1 REVERT JUMPDEST POP JUMP INVALID LOG2 PUSH5 0x6970667358 0x22 SLT KECCAK256 0xCF 0xE1 0xE5 DELEGATECALL 0xE1 SHL CHAINID GASLIMIT GASPRICE AND 0xBA 0xBB 0x24 SWAP11 CALLVALUE 0x29 0x5C 0x1E MULMOD 0x2F RETURN PUSH7 0x9509DA0360B081 DUP10 PUSH24 0x8664736F6C63430008070033000000000000000000000000 "
				},
				"gasEstimates": {
					"creation": {
						"codeDepositCost": "2399200",
						"executionCost": "infinite",
						"totalCost": "infinite"
					},
					"external": {
						"getNumberofStakers()": "2490",
						"getRewardRate()": "2460",
						"getStakerMode(address)": "2931",
						"getTotalStaked()": "2461",
						"harvest()": "infinite",
						"isLocked(address)": "infinite",
						"isStartStaking(address)": "2979",
						"owner()": "2589",
						"renounceOwnership()": "30507",
						"rewardAmount(address)": "2936",
						"rewardToHarvest()": "2599",
						"setEventPeriod(uint256)": "infinite",
						"setLockupTime(uint256)": "24895",
						"setRewardRate(uint256)": "infinite",
						"setUnstakingFeeRate(uint256)": "infinite",
						"stake(uint256)": "infinite",
						"stakedAmount(address)": "2935",
						"startStaking(uint256,uint256)": "infinite",
						"token()": "2710",
						"totalStaked()": "2474",
						"transferOwnership(address)": "30789",
						"withdraw(uint256)": "infinite"
					},
					"internal": {
						"Init()": "infinite",
						"calDaysFromTimestamp(uint256)": "infinite",
						"updateReward()": "infinite"
					}
				},
				"methodIdentifiers": {
					"getNumberofStakers()": "5715ec11",
					"getRewardRate()": "7e1a3786",
					"getStakerMode(address)": "aedf562b",
					"getTotalStaked()": "0917e776",
					"harvest()": "4641257d",
					"isLocked(address)": "4a4fbeec",
					"isStartStaking(address)": "fe600f84",
					"owner()": "8da5cb5b",
					"renounceOwnership()": "715018a6",
					"rewardAmount(address)": "645a8a56",
					"rewardToHarvest()": "5d2ec65d",
					"setEventPeriod(uint256)": "692642e7",
					"setLockupTime(uint256)": "4b62b70b",
					"setRewardRate(uint256)": "9e447fc6",
					"setUnstakingFeeRate(uint256)": "91e07e7a",
					"stake(uint256)": "a694fc3a",
					"stakedAmount(address)": "f9931855",
					"startStaking(uint256,uint256)": "4b77dd9e",
					"token()": "fc0c546a",
					"totalStaked()": "817b1cd2",
					"transferOwnership(address)": "f2fde38b",
					"withdraw(uint256)": "2e1a7d4d"
				}
			},
			"storageLayout": {
				"storage": [
					{
						"astId": 7,
						"contract": "contracts/Staking.sol:StakingPlatform",
						"label": "_owner",
						"offset": 0,
						"slot": "0",
						"type": "t_address"
					},
					{
						"astId": 1160,
						"contract": "contracts/Staking.sol:StakingPlatform",
						"label": "_unstakingFeeRate",
						"offset": 0,
						"slot": "1",
						"type": "t_uint256"
					},
					{
						"astId": 1162,
						"contract": "contracts/Staking.sol:StakingPlatform",
						"label": "_eventPeriod",
						"offset": 0,
						"slot": "2",
						"type": "t_uint256"
					},
					{
						"astId": 1164,
						"contract": "contracts/Staking.sol:StakingPlatform",
						"label": "_rewardRate",
						"offset": 0,
						"slot": "3",
						"type": "t_uint256"
					},
					{
						"astId": 1166,
						"contract": "contracts/Staking.sol:StakingPlatform",
						"label": "_rewardFeeRate",
						"offset": 0,
						"slot": "4",
						"type": "t_uint256"
					},
					{
						"astId": 1168,
						"contract": "contracts/Staking.sol:StakingPlatform",
						"label": "_lockupPeriod",
						"offset": 0,
						"slot": "5",
						"type": "t_uint256"
					},
					{
						"astId": 1170,
						"contract": "contracts/Staking.sol:StakingPlatform",
						"label": "_minStakeAmount_g",
						"offset": 0,
						"slot": "6",
						"type": "t_uint256"
					},
					{
						"astId": 1172,
						"contract": "contracts/Staking.sol:StakingPlatform",
						"label": "_minStakeAmount_s",
						"offset": 0,
						"slot": "7",
						"type": "t_uint256"
					},
					{
						"astId": 1174,
						"contract": "contracts/Staking.sol:StakingPlatform",
						"label": "_minStakeAmount_c",
						"offset": 0,
						"slot": "8",
						"type": "t_uint256"
					},
					{
						"astId": 1177,
						"contract": "contracts/Staking.sol:StakingPlatform",
						"label": "_stakers",
						"offset": 0,
						"slot": "9",
						"type": "t_array(t_address)dyn_storage"
					},
					{
						"astId": 1182,
						"contract": "contracts/Staking.sol:StakingPlatform",
						"label": "_staker",
						"offset": 0,
						"slot": "10",
						"type": "t_mapping(t_address,t_struct(Staker)1158_storage)"
					},
					{
						"astId": 1184,
						"contract": "contracts/Staking.sol:StakingPlatform",
						"label": "totalStaked",
						"offset": 0,
						"slot": "11",
						"type": "t_uint256"
					},
					{
						"astId": 1187,
						"contract": "contracts/Staking.sol:StakingPlatform",
						"label": "token",
						"offset": 0,
						"slot": "12",
						"type": "t_contract(IBEP20)912"
					}
				],
				"types": {
					"t_address": {
						"encoding": "inplace",
						"label": "address",
						"numberOfBytes": "20"
					},
					"t_array(t_address)dyn_storage": {
						"base": "t_address",
						"encoding": "dynamic_array",
						"label": "address[]",
						"numberOfBytes": "32"
					},
					"t_contract(IBEP20)912": {
						"encoding": "inplace",
						"label": "contract IBEP20",
						"numberOfBytes": "20"
					},
					"t_mapping(t_address,t_struct(Staker)1158_storage)": {
						"encoding": "mapping",
						"key": "t_address",
						"label": "mapping(address => struct StakingPlatform.Staker)",
						"numberOfBytes": "32",
						"value": "t_struct(Staker)1158_storage"
					},
					"t_struct(Staker)1158_storage": {
						"encoding": "inplace",
						"label": "struct StakingPlatform.Staker",
						"members": [
							{
								"astId": 1147,
								"contract": "contracts/Staking.sol:StakingPlatform",
								"label": "stakerCurrentReward",
								"offset": 0,
								"slot": "0",
								"type": "t_uint256"
							},
							{
								"astId": 1149,
								"contract": "contracts/Staking.sol:StakingPlatform",
								"label": "stakedAmount",
								"offset": 0,
								"slot": "1",
								"type": "t_uint256"
							},
							{
								"astId": 1151,
								"contract": "contracts/Staking.sol:StakingPlatform",
								"label": "mode",
								"offset": 0,
								"slot": "2",
								"type": "t_uint256"
							},
							{
								"astId": 1153,
								"contract": "contracts/Staking.sol:StakingPlatform",
								"label": "stakeStartTime",
								"offset": 0,
								"slot": "3",
								"type": "t_uint256"
							},
							{
								"astId": 1155,
								"contract": "contracts/Staking.sol:StakingPlatform",
								"label": "lastUpdatedBlockNumber",
								"offset": 0,
								"slot": "4",
								"type": "t_uint256"
							},
							{
								"astId": 1157,
								"contract": "contracts/Staking.sol:StakingPlatform",
								"label": "staked",
								"offset": 0,
								"slot": "5",
								"type": "t_uint256"
							}
						],
						"numberOfBytes": "192"
					},
					"t_uint256": {
						"encoding": "inplace",
						"label": "uint256",
						"numberOfBytes": "32"
					}
				}
			},
			"userdoc": {
				"kind": "user",
				"methods": {},
				"version": 1
			}
		}
	}
}