{
	"contracts/Staking.sol": {
		"StakingPlatform": {
			"abi": [
				{
					"inputs": [
						{
							"internalType": "address",
							"name": "_token",
							"type": "address"
						}
					],
					"stateMutability": "nonpayable",
					"type": "constructor"
				},
				{
					"anonymous": false,
					"inputs": [
						{
							"indexed": false,
							"internalType": "address",
							"name": "staker",
							"type": "address"
						},
						{
							"indexed": false,
							"internalType": "uint256",
							"name": "rewardToClaim",
							"type": "uint256"
						}
					],
					"name": "Harvest",
					"type": "event"
				},
				{
					"anonymous": false,
					"inputs": [
						{
							"indexed": true,
							"internalType": "address",
							"name": "previousOwner",
							"type": "address"
						},
						{
							"indexed": true,
							"internalType": "address",
							"name": "newOwner",
							"type": "address"
						}
					],
					"name": "OwnershipTransferred",
					"type": "event"
				},
				{
					"anonymous": false,
					"inputs": [
						{
							"indexed": false,
							"internalType": "uint256",
							"name": "lockupDuration",
							"type": "uint256"
						}
					],
					"name": "SetEventPeriod",
					"type": "event"
				},
				{
					"anonymous": false,
					"inputs": [
						{
							"indexed": false,
							"internalType": "uint256",
							"name": "rewardRate",
							"type": "uint256"
						}
					],
					"name": "SetRewardRate",
					"type": "event"
				},
				{
					"anonymous": false,
					"inputs": [
						{
							"indexed": false,
							"internalType": "uint256",
							"name": "unstakingFeeRate",
							"type": "uint256"
						}
					],
					"name": "SetUnstakingFeeRate",
					"type": "event"
				},
				{
					"anonymous": false,
					"inputs": [
						{
							"indexed": false,
							"internalType": "address",
							"name": "staker",
							"type": "address"
						},
						{
							"indexed": false,
							"internalType": "uint256",
							"name": "amount",
							"type": "uint256"
						}
					],
					"name": "Staked",
					"type": "event"
				},
				{
					"anonymous": false,
					"inputs": [
						{
							"indexed": false,
							"internalType": "address",
							"name": "staker",
							"type": "address"
						},
						{
							"indexed": false,
							"internalType": "uint256",
							"name": "amount",
							"type": "uint256"
						}
					],
					"name": "Withdraw",
					"type": "event"
				},
				{
					"inputs": [
						{
							"internalType": "uint256",
							"name": "_mode",
							"type": "uint256"
						}
					],
					"name": "getMinimumStakingAmount",
					"outputs": [
						{
							"internalType": "uint256",
							"name": "",
							"type": "uint256"
						}
					],
					"stateMutability": "view",
					"type": "function"
				},
				{
					"inputs": [],
					"name": "getNumberofStakers",
					"outputs": [
						{
							"internalType": "uint256",
							"name": "",
							"type": "uint256"
						}
					],
					"stateMutability": "view",
					"type": "function"
				},
				{
					"inputs": [],
					"name": "getRewardRate",
					"outputs": [
						{
							"internalType": "uint256",
							"name": "",
							"type": "uint256"
						}
					],
					"stateMutability": "view",
					"type": "function"
				},
				{
					"inputs": [
						{
							"internalType": "address",
							"name": "_address",
							"type": "address"
						}
					],
					"name": "getStakerMode",
					"outputs": [
						{
							"internalType": "uint256",
							"name": "",
							"type": "uint256"
						}
					],
					"stateMutability": "view",
					"type": "function"
				},
				{
					"inputs": [],
					"name": "getTotalStaked",
					"outputs": [
						{
							"internalType": "uint256",
							"name": "",
							"type": "uint256"
						}
					],
					"stateMutability": "view",
					"type": "function"
				},
				{
					"inputs": [],
					"name": "harvest",
					"outputs": [],
					"stateMutability": "nonpayable",
					"type": "function"
				},
				{
					"inputs": [
						{
							"internalType": "address",
							"name": "_address",
							"type": "address"
						}
					],
					"name": "isLocked",
					"outputs": [
						{
							"internalType": "uint256",
							"name": "",
							"type": "uint256"
						}
					],
					"stateMutability": "view",
					"type": "function"
				},
				{
					"inputs": [
						{
							"internalType": "address",
							"name": "_address",
							"type": "address"
						}
					],
					"name": "isStartStaking",
					"outputs": [
						{
							"internalType": "uint256",
							"name": "",
							"type": "uint256"
						}
					],
					"stateMutability": "view",
					"type": "function"
				},
				{
					"inputs": [],
					"name": "owner",
					"outputs": [
						{
							"internalType": "address",
							"name": "",
							"type": "address"
						}
					],
					"stateMutability": "view",
					"type": "function"
				},
				{
					"inputs": [],
					"name": "renounceOwnership",
					"outputs": [],
					"stateMutability": "nonpayable",
					"type": "function"
				},
				{
					"inputs": [
						{
							"internalType": "address",
							"name": "_address",
							"type": "address"
						}
					],
					"name": "rewardAmount",
					"outputs": [
						{
							"internalType": "uint256",
							"name": "",
							"type": "uint256"
						}
					],
					"stateMutability": "view",
					"type": "function"
				},
				{
					"inputs": [],
					"name": "rewardToHarvest",
					"outputs": [
						{
							"internalType": "uint256",
							"name": "",
							"type": "uint256"
						}
					],
					"stateMutability": "nonpayable",
					"type": "function"
				},
				{
					"inputs": [
						{
							"internalType": "uint256",
							"name": "_minAmount",
							"type": "uint256"
						}
					],
					"name": "setCopperMinAmount",
					"outputs": [],
					"stateMutability": "nonpayable",
					"type": "function"
				},
				{
					"inputs": [
						{
							"internalType": "uint256",
							"name": "__eventPeriod",
							"type": "uint256"
						}
					],
					"name": "setEventPeriod",
					"outputs": [],
					"stateMutability": "nonpayable",
					"type": "function"
				},
				{
					"inputs": [
						{
							"internalType": "uint256",
							"name": "_minAmount",
							"type": "uint256"
						}
					],
					"name": "setGoldMinAmount",
					"outputs": [],
					"stateMutability": "nonpayable",
					"type": "function"
				},
				{
					"inputs": [
						{
							"internalType": "uint256",
							"name": "lockupTime",
							"type": "uint256"
						}
					],
					"name": "setLockupTime",
					"outputs": [],
					"stateMutability": "nonpayable",
					"type": "function"
				},
				{
					"inputs": [
						{
							"internalType": "uint256",
							"name": "__rewardRate",
							"type": "uint256"
						}
					],
					"name": "setRewardRate",
					"outputs": [],
					"stateMutability": "nonpayable",
					"type": "function"
				},
				{
					"inputs": [
						{
							"internalType": "uint256",
							"name": "_minAmount",
							"type": "uint256"
						}
					],
					"name": "setSilverMinAmount",
					"outputs": [],
					"stateMutability": "nonpayable",
					"type": "function"
				},
				{
					"inputs": [
						{
							"internalType": "uint256",
							"name": "_minAmount",
							"type": "uint256"
						}
					],
					"name": "setThreeMonthMinAmount",
					"outputs": [],
					"stateMutability": "nonpayable",
					"type": "function"
				},
				{
					"inputs": [
						{
							"internalType": "uint256",
							"name": "__unstakingFeeRate",
							"type": "uint256"
						}
					],
					"name": "setUnstakingFeeRate",
					"outputs": [],
					"stateMutability": "nonpayable",
					"type": "function"
				},
				{
					"inputs": [
						{
							"internalType": "uint256",
							"name": "_amount",
							"type": "uint256"
						}
					],
					"name": "stake",
					"outputs": [],
					"stateMutability": "nonpayable",
					"type": "function"
				},
				{
					"inputs": [
						{
							"internalType": "address",
							"name": "_address",
							"type": "address"
						}
					],
					"name": "stakedAmount",
					"outputs": [
						{
							"internalType": "uint256",
							"name": "",
							"type": "uint256"
						}
					],
					"stateMutability": "view",
					"type": "function"
				},
				{
					"inputs": [
						{
							"internalType": "uint256",
							"name": "_amount",
							"type": "uint256"
						},
						{
							"internalType": "uint256",
							"name": "_mode",
							"type": "uint256"
						}
					],
					"name": "startStaking",
					"outputs": [],
					"stateMutability": "nonpayable",
					"type": "function"
				},
				{
					"inputs": [],
					"name": "token",
					"outputs": [
						{
							"internalType": "contract IBEP20",
							"name": "",
							"type": "address"
						}
					],
					"stateMutability": "view",
					"type": "function"
				},
				{
					"inputs": [],
					"name": "totalStaked",
					"outputs": [
						{
							"internalType": "uint256",
							"name": "",
							"type": "uint256"
						}
					],
					"stateMutability": "view",
					"type": "function"
				},
				{
					"inputs": [
						{
							"internalType": "address",
							"name": "newOwner",
							"type": "address"
						}
					],
					"name": "transferOwnership",
					"outputs": [],
					"stateMutability": "nonpayable",
					"type": "function"
				},
				{
					"inputs": [
						{
							"internalType": "uint256",
							"name": "amount",
							"type": "uint256"
						}
					],
					"name": "withdraw",
					"outputs": [],
					"stateMutability": "nonpayable",
					"type": "function"
				}
			],
			"devdoc": {
				"kind": "dev",
				"methods": {
					"owner()": {
						"details": "Returns the address of the current owner."
					},
					"renounceOwnership()": {
						"details": "Leaves the contract without owner. It will not be possible to call `onlyOwner` functions anymore. Can only be called by the current owner. NOTE: Renouncing ownership will leave the contract without an owner, thereby removing any functionality that is only available to the owner."
					},
					"transferOwnership(address)": {
						"details": "Transfers ownership of the contract to a new account (`newOwner`). Can only be called by the current owner."
					}
				},
				"version": 1
			},
			"evm": {
				"assembly": "    /* \"contracts/Staking.sol\":260:9762  contract StakingPlatform is Ownable {... */\n  mstore(0x40, 0x80)\n    /* \"contracts/Staking.sol\":1673:1769  constructor(address _token) {... */\n  callvalue\n  dup1\n  iszero\n  tag_1\n  jumpi\n  0x00\n  dup1\n  revert\ntag_1:\n  pop\n  mload(0x40)\n  sub(codesize, bytecodeSize)\n  dup1\n  bytecodeSize\n  dup4\n  codecopy\n  dup2\n  dup2\n  add\n  0x40\n  mstore\n  dup2\n  add\n  swap1\n  tag_2\n  swap2\n  swap1\n  tag_3\n  jump\t// in\ntag_2:\n    /* \"@openzeppelin/contracts/access/Ownable.sol\":921:953  _transferOwnership(_msgSender()) */\n  tag_7\n    /* \"@openzeppelin/contracts/access/Ownable.sol\":940:952  _msgSender() */\n  tag_8\n    /* \"@openzeppelin/contracts/access/Ownable.sol\":940:950  _msgSender */\n  shl(0x20, tag_9)\n    /* \"@openzeppelin/contracts/access/Ownable.sol\":940:952  _msgSender() */\n  0x20\n  shr\n  jump\t// in\ntag_8:\n    /* \"@openzeppelin/contracts/access/Ownable.sol\":921:939  _transferOwnership */\n  shl(0x20, tag_10)\n    /* \"@openzeppelin/contracts/access/Ownable.sol\":921:953  _transferOwnership(_msgSender()) */\n  0x20\n  shr\n  jump\t// in\ntag_7:\n    /* \"contracts/Staking.sol\":1722:1728  Init() */\n  tag_12\n    /* \"contracts/Staking.sol\":1722:1726  Init */\n  shl(0x20, tag_13)\n    /* \"contracts/Staking.sol\":1722:1728  Init() */\n  0x20\n  shr\n  jump\t// in\ntag_12:\n    /* \"contracts/Staking.sol\":1754:1760  _token */\n  dup1\n    /* \"contracts/Staking.sol\":1739:1744  token */\n  0x0d\n  0x00\n    /* \"contracts/Staking.sol\":1739:1761  token = IBEP20(_token) */\n  0x0100\n  exp\n  dup2\n  sload\n  dup2\n  0xffffffffffffffffffffffffffffffffffffffff\n  mul\n  not\n  and\n  swap1\n  dup4\n  0xffffffffffffffffffffffffffffffffffffffff\n  and\n  mul\n  or\n  swap1\n  sstore\n  pop\n    /* \"contracts/Staking.sol\":1673:1769  constructor(address _token) {... */\n  pop\n    /* \"contracts/Staking.sol\":260:9762  contract StakingPlatform is Ownable {... */\n  jump(tag_14)\n    /* \"@openzeppelin/contracts/utils/Context.sol\":640:736  function _msgSender() internal view virtual returns (address) {... */\ntag_9:\n    /* \"@openzeppelin/contracts/utils/Context.sol\":693:700  address */\n  0x00\n    /* \"@openzeppelin/contracts/utils/Context.sol\":719:729  msg.sender */\n  caller\n    /* \"@openzeppelin/contracts/utils/Context.sol\":712:729  return msg.sender */\n  swap1\n  pop\n    /* \"@openzeppelin/contracts/utils/Context.sol\":640:736  function _msgSender() internal view virtual returns (address) {... */\n  swap1\n  jump\t// out\n    /* \"@openzeppelin/contracts/access/Ownable.sol\":2270:2457  function _transferOwnership(address newOwner) internal virtual {... */\ntag_10:\n    /* \"@openzeppelin/contracts/access/Ownable.sol\":2343:2359  address oldOwner */\n  0x00\n    /* \"@openzeppelin/contracts/access/Ownable.sol\":2362:2368  _owner */\n  dup1\n  0x00\n  swap1\n  sload\n  swap1\n  0x0100\n  exp\n  swap1\n  div\n  0xffffffffffffffffffffffffffffffffffffffff\n  and\n    /* \"@openzeppelin/contracts/access/Ownable.sol\":2343:2368  address oldOwner = _owner */\n  swap1\n  pop\n    /* \"@openzeppelin/contracts/access/Ownable.sol\":2387:2395  newOwner */\n  dup2\n    /* \"@openzeppelin/contracts/access/Ownable.sol\":2378:2384  _owner */\n  0x00\n  dup1\n    /* \"@openzeppelin/contracts/access/Ownable.sol\":2378:2395  _owner = newOwner */\n  0x0100\n  exp\n  dup2\n  sload\n  dup2\n  0xffffffffffffffffffffffffffffffffffffffff\n  mul\n  not\n  and\n  swap1\n  dup4\n  0xffffffffffffffffffffffffffffffffffffffff\n  and\n  mul\n  or\n  swap1\n  sstore\n  pop\n    /* \"@openzeppelin/contracts/access/Ownable.sol\":2441:2449  newOwner */\n  dup2\n    /* \"@openzeppelin/contracts/access/Ownable.sol\":2410:2450  OwnershipTransferred(oldOwner, newOwner) */\n  0xffffffffffffffffffffffffffffffffffffffff\n  and\n    /* \"@openzeppelin/contracts/access/Ownable.sol\":2431:2439  oldOwner */\n  dup2\n    /* \"@openzeppelin/contracts/access/Ownable.sol\":2410:2450  OwnershipTransferred(oldOwner, newOwner) */\n  0xffffffffffffffffffffffffffffffffffffffff\n  and\n  0x8be0079c531659141344cd1fd0a4f28419497f9722a3daafe3b4186f6b6457e0\n  mload(0x40)\n  mload(0x40)\n  dup1\n  swap2\n  sub\n  swap1\n  log3\n    /* \"@openzeppelin/contracts/access/Ownable.sol\":2333:2457  {... */\n  pop\n    /* \"@openzeppelin/contracts/access/Ownable.sol\":2270:2457  function _transferOwnership(address newOwner) internal virtual {... */\n  pop\n  jump\t// out\n    /* \"contracts/Staking.sol\":1777:2142  function Init() internal {... */\ntag_13:\n    /* \"contracts/Staking.sol\":1837:1840  200 */\n  0xc8\n    /* \"contracts/Staking.sol\":1823:1834  _rewardRate */\n  0x03\n    /* \"contracts/Staking.sol\":1823:1840  _rewardRate = 200 */\n  dup2\n  swap1\n  sstore\n  pop\n    /* \"contracts/Staking.sol\":1882:1886  1500 */\n  0x05dc\n    /* \"contracts/Staking.sol\":1862:1879  _unstakingFeeRate */\n  0x01\n    /* \"contracts/Staking.sol\":1862:1886  _unstakingFeeRate = 1500 */\n  dup2\n  swap1\n  sstore\n  pop\n    /* \"contracts/Staking.sol\":1914:1917  100 */\n  0x64\n    /* \"contracts/Staking.sol\":1897:1911  _rewardFeeRate */\n  0x04\n    /* \"contracts/Staking.sol\":1897:1917  _rewardFeeRate = 100 */\n  dup2\n  swap1\n  sstore\n  pop\n    /* \"contracts/Staking.sol\":1943:1949  7 days */\n  0x093a80\n    /* \"contracts/Staking.sol\":1928:1940  _eventPeriod */\n  0x02\n    /* \"contracts/Staking.sol\":1928:1949  _eventPeriod = 7 days */\n  dup2\n  swap1\n  sstore\n  pop\n    /* \"contracts/Staking.sol\":1976:1983  90 days */\n  0x76a700\n    /* \"contracts/Staking.sol\":1960:1973  _lockupPeriod */\n  0x05\n    /* \"contracts/Staking.sol\":1960:1983  _lockupPeriod = 90 days */\n  dup2\n  swap1\n  sstore\n  pop\n    /* \"contracts/Staking.sol\":2014:2021  3* 1e24 */\n  0x027b46536c66c8e3000000\n    /* \"contracts/Staking.sol\":1994:2011  _minStakeAmount_m */\n  0x06\n    /* \"contracts/Staking.sol\":1994:2021  _minStakeAmount_m = 3* 1e24 */\n  dup2\n  swap1\n  sstore\n  pop\n    /* \"contracts/Staking.sol\":2052:2056  1e24 */\n  0xd3c21bcecceda1000000\n    /* \"contracts/Staking.sol\":2032:2049  _minStakeAmount_c */\n  0x09\n    /* \"contracts/Staking.sol\":2032:2056  _minStakeAmount_c = 1e24 */\n  dup2\n  swap1\n  sstore\n  pop\n    /* \"contracts/Staking.sol\":2087:2095  3 * 1e24 */\n  0x027b46536c66c8e3000000\n    /* \"contracts/Staking.sol\":2067:2084  _minStakeAmount_s */\n  0x08\n    /* \"contracts/Staking.sol\":2067:2095  _minStakeAmount_s = 3 * 1e24 */\n  dup2\n  swap1\n  sstore\n  pop\n    /* \"contracts/Staking.sol\":2126:2134  7 * 1e24 */\n  0x05ca4ec2a79a7f67000000\n    /* \"contracts/Staking.sol\":2106:2123  _minStakeAmount_g */\n  0x07\n    /* \"contracts/Staking.sol\":2106:2134  _minStakeAmount_g = 7 * 1e24 */\n  dup2\n  swap1\n  sstore\n  pop\n    /* \"contracts/Staking.sol\":1777:2142  function Init() internal {... */\n  jump\t// out\n    /* \"#utility.yul\":88:205   */\ntag_19:\n    /* \"#utility.yul\":197:198   */\n  0x00\n    /* \"#utility.yul\":194:195   */\n  dup1\n    /* \"#utility.yul\":187:199   */\n  revert\n    /* \"#utility.yul\":334:460   */\ntag_21:\n    /* \"#utility.yul\":371:378   */\n  0x00\n    /* \"#utility.yul\":411:453   */\n  0xffffffffffffffffffffffffffffffffffffffff\n    /* \"#utility.yul\":404:409   */\n  dup3\n    /* \"#utility.yul\":400:454   */\n  and\n    /* \"#utility.yul\":389:454   */\n  swap1\n  pop\n    /* \"#utility.yul\":334:460   */\n  swap2\n  swap1\n  pop\n  jump\t// out\n    /* \"#utility.yul\":466:562   */\ntag_22:\n    /* \"#utility.yul\":503:510   */\n  0x00\n    /* \"#utility.yul\":532:556   */\n  tag_31\n    /* \"#utility.yul\":550:555   */\n  dup3\n    /* \"#utility.yul\":532:556   */\n  tag_21\n  jump\t// in\ntag_31:\n    /* \"#utility.yul\":521:556   */\n  swap1\n  pop\n    /* \"#utility.yul\":466:562   */\n  swap2\n  swap1\n  pop\n  jump\t// out\n    /* \"#utility.yul\":568:690   */\ntag_23:\n    /* \"#utility.yul\":641:665   */\n  tag_33\n    /* \"#utility.yul\":659:664   */\n  dup2\n    /* \"#utility.yul\":641:665   */\n  tag_22\n  jump\t// in\ntag_33:\n    /* \"#utility.yul\":634:639   */\n  dup2\n    /* \"#utility.yul\":631:666   */\n  eq\n    /* \"#utility.yul\":621:684   */\n  tag_34\n  jumpi\n    /* \"#utility.yul\":680:681   */\n  0x00\n    /* \"#utility.yul\":677:678   */\n  dup1\n    /* \"#utility.yul\":670:682   */\n  revert\n    /* \"#utility.yul\":621:684   */\ntag_34:\n    /* \"#utility.yul\":568:690   */\n  pop\n  jump\t// out\n    /* \"#utility.yul\":696:839   */\ntag_24:\n    /* \"#utility.yul\":753:758   */\n  0x00\n    /* \"#utility.yul\":784:790   */\n  dup2\n    /* \"#utility.yul\":778:791   */\n  mload\n    /* \"#utility.yul\":769:791   */\n  swap1\n  pop\n    /* \"#utility.yul\":800:833   */\n  tag_36\n    /* \"#utility.yul\":827:832   */\n  dup2\n    /* \"#utility.yul\":800:833   */\n  tag_23\n  jump\t// in\ntag_36:\n    /* \"#utility.yul\":696:839   */\n  swap3\n  swap2\n  pop\n  pop\n  jump\t// out\n    /* \"#utility.yul\":845:1196   */\ntag_3:\n    /* \"#utility.yul\":915:921   */\n  0x00\n    /* \"#utility.yul\":964:966   */\n  0x20\n    /* \"#utility.yul\":952:961   */\n  dup3\n    /* \"#utility.yul\":943:950   */\n  dup5\n    /* \"#utility.yul\":939:962   */\n  sub\n    /* \"#utility.yul\":935:967   */\n  slt\n    /* \"#utility.yul\":932:1051   */\n  iszero\n  tag_38\n  jumpi\n    /* \"#utility.yul\":970:1049   */\n  tag_39\n  tag_19\n  jump\t// in\ntag_39:\n    /* \"#utility.yul\":932:1051   */\ntag_38:\n    /* \"#utility.yul\":1090:1091   */\n  0x00\n    /* \"#utility.yul\":1115:1179   */\n  tag_40\n    /* \"#utility.yul\":1171:1178   */\n  dup5\n    /* \"#utility.yul\":1162:1168   */\n  dup3\n    /* \"#utility.yul\":1151:1160   */\n  dup6\n    /* \"#utility.yul\":1147:1169   */\n  add\n    /* \"#utility.yul\":1115:1179   */\n  tag_24\n  jump\t// in\ntag_40:\n    /* \"#utility.yul\":1105:1179   */\n  swap2\n  pop\n    /* \"#utility.yul\":1061:1189   */\n  pop\n    /* \"#utility.yul\":845:1196   */\n  swap3\n  swap2\n  pop\n  pop\n  jump\t// out\n    /* \"contracts/Staking.sol\":260:9762  contract StakingPlatform is Ownable {... */\ntag_14:\n  dataSize(sub_0)\n  dup1\n  dataOffset(sub_0)\n  0x00\n  codecopy\n  0x00\n  return\nstop\n\nsub_0: assembly {\n        /* \"contracts/Staking.sol\":260:9762  contract StakingPlatform is Ownable {... */\n      mstore(0x40, 0x80)\n      callvalue\n      dup1\n      iszero\n      tag_1\n      jumpi\n      0x00\n      dup1\n      revert\n    tag_1:\n      pop\n      jumpi(tag_2, lt(calldatasize, 0x04))\n      shr(0xe0, calldataload(0x00))\n      dup1\n      0x817b1cd2\n      gt\n      tag_30\n      jumpi\n      dup1\n      0xaedf562b\n      gt\n      tag_31\n      jumpi\n      dup1\n      0xf2fde38b\n      gt\n      tag_32\n      jumpi\n      dup1\n      0xf2fde38b\n      eq\n      tag_26\n      jumpi\n      dup1\n      0xf9931855\n      eq\n      tag_27\n      jumpi\n      dup1\n      0xfc0c546a\n      eq\n      tag_28\n      jumpi\n      dup1\n      0xfe600f84\n      eq\n      tag_29\n      jumpi\n      jump(tag_2)\n    tag_32:\n      dup1\n      0xaedf562b\n      eq\n      tag_23\n      jumpi\n      dup1\n      0xc1704a14\n      eq\n      tag_24\n      jumpi\n      dup1\n      0xc665d80e\n      eq\n      tag_25\n      jumpi\n      jump(tag_2)\n    tag_31:\n      dup1\n      0x91e07e7a\n      gt\n      tag_33\n      jumpi\n      dup1\n      0x91e07e7a\n      eq\n      tag_19\n      jumpi\n      dup1\n      0x9e447fc6\n      eq\n      tag_20\n      jumpi\n      dup1\n      0xa694fc3a\n      eq\n      tag_21\n      jumpi\n      dup1\n      0xae544943\n      eq\n      tag_22\n      jumpi\n      jump(tag_2)\n    tag_33:\n      dup1\n      0x817b1cd2\n      eq\n      tag_16\n      jumpi\n      dup1\n      0x8da5cb5b\n      eq\n      tag_17\n      jumpi\n      dup1\n      0x909f093e\n      eq\n      tag_18\n      jumpi\n      jump(tag_2)\n    tag_30:\n      dup1\n      0x4b77dd9e\n      gt\n      tag_34\n      jumpi\n      dup1\n      0x645a8a56\n      gt\n      tag_35\n      jumpi\n      dup1\n      0x645a8a56\n      eq\n      tag_12\n      jumpi\n      dup1\n      0x692642e7\n      eq\n      tag_13\n      jumpi\n      dup1\n      0x715018a6\n      eq\n      tag_14\n      jumpi\n      dup1\n      0x7e1a3786\n      eq\n      tag_15\n      jumpi\n      jump(tag_2)\n    tag_35:\n      dup1\n      0x4b77dd9e\n      eq\n      tag_9\n      jumpi\n      dup1\n      0x5715ec11\n      eq\n      tag_10\n      jumpi\n      dup1\n      0x5d2ec65d\n      eq\n      tag_11\n      jumpi\n      jump(tag_2)\n    tag_34:\n      dup1\n      0x0917e776\n      eq\n      tag_3\n      jumpi\n      dup1\n      0x23b61117\n      eq\n      tag_4\n      jumpi\n      dup1\n      0x2e1a7d4d\n      eq\n      tag_5\n      jumpi\n      dup1\n      0x4641257d\n      eq\n      tag_6\n      jumpi\n      dup1\n      0x4a4fbeec\n      eq\n      tag_7\n      jumpi\n      dup1\n      0x4b62b70b\n      eq\n      tag_8\n      jumpi\n    tag_2:\n      0x00\n      dup1\n      revert\n        /* \"contracts/Staking.sol\":4398:4493  function getTotalStaked() public view returns (uint256) {... */\n    tag_3:\n      tag_36\n      tag_37\n      jump\t// in\n    tag_36:\n      mload(0x40)\n      tag_38\n      swap2\n      swap1\n      tag_39\n      jump\t// in\n    tag_38:\n      mload(0x40)\n      dup1\n      swap2\n      sub\n      swap1\n      return\n        /* \"contracts/Staking.sol\":8127:8299  function setSilverMinAmount(uint256 _minAmount) external onlyOwner {... */\n    tag_4:\n      tag_40\n      0x04\n      dup1\n      calldatasize\n      sub\n      dup2\n      add\n      swap1\n      tag_41\n      swap2\n      swap1\n      tag_42\n      jump\t// in\n    tag_41:\n      tag_43\n      jump\t// in\n    tag_40:\n      stop\n        /* \"contracts/Staking.sol\":5732:6792  function withdraw(uint256 amount) external{... */\n    tag_5:\n      tag_44\n      0x04\n      dup1\n      calldatasize\n      sub\n      dup2\n      add\n      swap1\n      tag_45\n      swap2\n      swap1\n      tag_42\n      jump\t// in\n    tag_45:\n      tag_46\n      jump\t// in\n    tag_44:\n      stop\n        /* \"contracts/Staking.sol\":8738:9323  function harvest() public{... */\n    tag_6:\n      tag_47\n      tag_48\n      jump\t// in\n    tag_47:\n      stop\n        /* \"contracts/Staking.sol\":4886:5288  function isLocked(address _address) public view returns (uint256) {... */\n    tag_7:\n      tag_49\n      0x04\n      dup1\n      calldatasize\n      sub\n      dup2\n      add\n      swap1\n      tag_50\n      swap2\n      swap1\n      tag_51\n      jump\t// in\n    tag_50:\n      tag_52\n      jump\t// in\n    tag_49:\n      mload(0x40)\n      tag_53\n      swap2\n      swap1\n      tag_39\n      jump\t// in\n    tag_53:\n      mload(0x40)\n      dup1\n      swap2\n      sub\n      swap1\n      return\n        /* \"contracts/Staking.sol\":7577:7747  function setLockupTime(uint256 lockupTime) external onlyOwner {... */\n    tag_8:\n      tag_54\n      0x04\n      dup1\n      calldatasize\n      sub\n      dup2\n      add\n      swap1\n      tag_55\n      swap2\n      swap1\n      tag_42\n      jump\t// in\n    tag_55:\n      tag_56\n      jump\t// in\n    tag_54:\n      stop\n        /* \"contracts/Staking.sol\":2828:3740  function startStaking(uint256 _amount, uint256 _mode) external {... */\n    tag_9:\n      tag_57\n      0x04\n      dup1\n      calldatasize\n      sub\n      dup2\n      add\n      swap1\n      tag_58\n      swap2\n      swap1\n      tag_59\n      jump\t// in\n    tag_58:\n      tag_60\n      jump\t// in\n    tag_57:\n      stop\n        /* \"contracts/Staking.sol\":4501:4604  function getNumberofStakers() public view returns (uint256) {... */\n    tag_10:\n      tag_61\n      tag_62\n      jump\t// in\n    tag_61:\n      mload(0x40)\n      tag_63\n      swap2\n      swap1\n      tag_39\n      jump\t// in\n    tag_63:\n      mload(0x40)\n      dup1\n      swap2\n      sub\n      swap1\n      return\n        /* \"contracts/Staking.sol\":8540:8693  function rewardToHarvest() public returns (uint256){... */\n    tag_11:\n      tag_64\n      tag_65\n      jump\t// in\n    tag_64:\n      mload(0x40)\n      tag_66\n      swap2\n      swap1\n      tag_39\n      jump\t// in\n    tag_66:\n      mload(0x40)\n      dup1\n      swap2\n      sub\n      swap1\n      return\n        /* \"contracts/Staking.sol\":5448:5583  function rewardAmount(address _address) public view returns (uint256) {... */\n    tag_12:\n      tag_67\n      0x04\n      dup1\n      calldatasize\n      sub\n      dup2\n      add\n      swap1\n      tag_68\n      swap2\n      swap1\n      tag_51\n      jump\t// in\n    tag_68:\n      tag_69\n      jump\t// in\n    tag_67:\n      mload(0x40)\n      tag_70\n      swap2\n      swap1\n      tag_39\n      jump\t// in\n    tag_70:\n      mload(0x40)\n      dup1\n      swap2\n      sub\n      swap1\n      return\n        /* \"contracts/Staking.sol\":7039:7287  function setEventPeriod(uint256 __eventPeriod) external onlyOwner {... */\n    tag_13:\n      tag_71\n      0x04\n      dup1\n      calldatasize\n      sub\n      dup2\n      add\n      swap1\n      tag_72\n      swap2\n      swap1\n      tag_42\n      jump\t// in\n    tag_72:\n      tag_73\n      jump\t// in\n    tag_71:\n      stop\n        /* \"@openzeppelin/contracts/access/Ownable.sol\":1668:1769  function renounceOwnership() public virtual onlyOwner {... */\n    tag_14:\n      tag_74\n      tag_75\n      jump\t// in\n    tag_74:\n      stop\n        /* \"contracts/Staking.sol\":5591:5685  function getRewardRate() public view returns (uint256) {... */\n    tag_15:\n      tag_76\n      tag_77\n      jump\t// in\n    tag_76:\n      mload(0x40)\n      tag_78\n      swap2\n      swap1\n      tag_39\n      jump\t// in\n    tag_78:\n      mload(0x40)\n      dup1\n      swap2\n      sub\n      swap1\n      return\n        /* \"contracts/Staking.sol\":1213:1239  uint256 public totalStaked */\n    tag_16:\n      tag_79\n      tag_80\n      jump\t// in\n    tag_79:\n      mload(0x40)\n      tag_81\n      swap2\n      swap1\n      tag_39\n      jump\t// in\n    tag_81:\n      mload(0x40)\n      dup1\n      swap2\n      sub\n      swap1\n      return\n        /* \"@openzeppelin/contracts/access/Ownable.sol\":1036:1121  function owner() public view virtual returns (address) {... */\n    tag_17:\n      tag_82\n      tag_83\n      jump\t// in\n    tag_82:\n      mload(0x40)\n      tag_84\n      swap2\n      swap1\n      tag_85\n      jump\t// in\n    tag_84:\n      mload(0x40)\n      dup1\n      swap2\n      sub\n      swap1\n      return\n        /* \"contracts/Staking.sol\":9331:9759  function getMinimumStakingAmount(uint256 _mode) public view returns (uint256) {... */\n    tag_18:\n      tag_86\n      0x04\n      dup1\n      calldatasize\n      sub\n      dup2\n      add\n      swap1\n      tag_87\n      swap2\n      swap1\n      tag_42\n      jump\t// in\n    tag_87:\n      tag_88\n      jump\t// in\n    tag_86:\n      mload(0x40)\n      tag_89\n      swap2\n      swap1\n      tag_39\n      jump\t// in\n    tag_89:\n      mload(0x40)\n      dup1\n      swap2\n      sub\n      swap1\n      return\n        /* \"contracts/Staking.sol\":7295:7569  function setUnstakingFeeRate(uint256 __unstakingFeeRate) external onlyOwner {... */\n    tag_19:\n      tag_90\n      0x04\n      dup1\n      calldatasize\n      sub\n      dup2\n      add\n      swap1\n      tag_91\n      swap2\n      swap1\n      tag_42\n      jump\t// in\n    tag_91:\n      tag_92\n      jump\t// in\n    tag_90:\n      stop\n        /* \"contracts/Staking.sol\":6804:7031  function setRewardRate(uint256 __rewardRate) external onlyOwner {... */\n    tag_20:\n      tag_93\n      0x04\n      dup1\n      calldatasize\n      sub\n      dup2\n      add\n      swap1\n      tag_94\n      swap2\n      swap1\n      tag_42\n      jump\t// in\n    tag_94:\n      tag_95\n      jump\t// in\n    tag_93:\n      stop\n        /* \"contracts/Staking.sol\":3808:4390  function stake(uint256 _amount) public{... */\n    tag_21:\n      tag_96\n      0x04\n      dup1\n      calldatasize\n      sub\n      dup2\n      add\n      swap1\n      tag_97\n      swap2\n      swap1\n      tag_42\n      jump\t// in\n    tag_97:\n      tag_98\n      jump\t// in\n    tag_96:\n      stop\n        /* \"contracts/Staking.sol\":8307:8477  function setGoldMinAmount(uint256 _minAmount) external onlyOwner {... */\n    tag_22:\n      tag_99\n      0x04\n      dup1\n      calldatasize\n      sub\n      dup2\n      add\n      swap1\n      tag_100\n      swap2\n      swap1\n      tag_42\n      jump\t// in\n    tag_100:\n      tag_101\n      jump\t// in\n    tag_99:\n      stop\n        /* \"contracts/Staking.sol\":4612:4746  function getStakerMode(address _address) public view returns (uint256) {... */\n    tag_23:\n      tag_102\n      0x04\n      dup1\n      calldatasize\n      sub\n      dup2\n      add\n      swap1\n      tag_103\n      swap2\n      swap1\n      tag_51\n      jump\t// in\n    tag_103:\n      tag_104\n      jump\t// in\n    tag_102:\n      mload(0x40)\n      tag_105\n      swap2\n      swap1\n      tag_39\n      jump\t// in\n    tag_105:\n      mload(0x40)\n      dup1\n      swap2\n      sub\n      swap1\n      return\n        /* \"contracts/Staking.sol\":7947:8119  function setCopperMinAmount(uint256 _minAmount) external onlyOwner {... */\n    tag_24:\n      tag_106\n      0x04\n      dup1\n      calldatasize\n      sub\n      dup2\n      add\n      swap1\n      tag_107\n      swap2\n      swap1\n      tag_42\n      jump\t// in\n    tag_107:\n      tag_108\n      jump\t// in\n    tag_106:\n      stop\n        /* \"contracts/Staking.sol\":7755:7939  function setThreeMonthMinAmount(uint256 _minAmount) external onlyOwner {... */\n    tag_25:\n      tag_109\n      0x04\n      dup1\n      calldatasize\n      sub\n      dup2\n      add\n      swap1\n      tag_110\n      swap2\n      swap1\n      tag_42\n      jump\t// in\n    tag_110:\n      tag_111\n      jump\t// in\n    tag_109:\n      stop\n        /* \"@openzeppelin/contracts/access/Ownable.sol\":1918:2116  function transferOwnership(address newOwner) public virtual onlyOwner {... */\n    tag_26:\n      tag_112\n      0x04\n      dup1\n      calldatasize\n      sub\n      dup2\n      add\n      swap1\n      tag_113\n      swap2\n      swap1\n      tag_51\n      jump\t// in\n    tag_113:\n      tag_114\n      jump\t// in\n    tag_112:\n      stop\n        /* \"contracts/Staking.sol\":5300:5436  function stakedAmount(address _address) public view returns (uint256) {... */\n    tag_27:\n      tag_115\n      0x04\n      dup1\n      calldatasize\n      sub\n      dup2\n      add\n      swap1\n      tag_116\n      swap2\n      swap1\n      tag_51\n      jump\t// in\n    tag_116:\n      tag_117\n      jump\t// in\n    tag_115:\n      mload(0x40)\n      tag_118\n      swap2\n      swap1\n      tag_39\n      jump\t// in\n    tag_118:\n      mload(0x40)\n      dup1\n      swap2\n      sub\n      swap1\n      return\n        /* \"contracts/Staking.sol\":1246:1265  IBEP20 public token */\n    tag_28:\n      tag_119\n      tag_120\n      jump\t// in\n    tag_119:\n      mload(0x40)\n      tag_121\n      swap2\n      swap1\n      tag_122\n      jump\t// in\n    tag_121:\n      mload(0x40)\n      dup1\n      swap2\n      sub\n      swap1\n      return\n        /* \"contracts/Staking.sol\":4754:4878  function isStartStaking(address _address) public view returns (uint256) {... */\n    tag_29:\n      tag_123\n      0x04\n      dup1\n      calldatasize\n      sub\n      dup2\n      add\n      swap1\n      tag_124\n      swap2\n      swap1\n      tag_51\n      jump\t// in\n    tag_124:\n      tag_125\n      jump\t// in\n    tag_123:\n      mload(0x40)\n      tag_126\n      swap2\n      swap1\n      tag_39\n      jump\t// in\n    tag_126:\n      mload(0x40)\n      dup1\n      swap2\n      sub\n      swap1\n      return\n        /* \"contracts/Staking.sol\":4398:4493  function getTotalStaked() public view returns (uint256) {... */\n    tag_37:\n        /* \"contracts/Staking.sol\":4445:4452  uint256 */\n      0x00\n        /* \"contracts/Staking.sol\":4474:4485  totalStaked */\n      sload(0x0c)\n        /* \"contracts/Staking.sol\":4467:4485  return totalStaked */\n      swap1\n      pop\n        /* \"contracts/Staking.sol\":4398:4493  function getTotalStaked() public view returns (uint256) {... */\n      swap1\n      jump\t// out\n        /* \"contracts/Staking.sol\":8127:8299  function setSilverMinAmount(uint256 _minAmount) external onlyOwner {... */\n    tag_43:\n        /* \"@openzeppelin/contracts/access/Ownable.sol\":1259:1271  _msgSender() */\n      tag_129\n        /* \"@openzeppelin/contracts/access/Ownable.sol\":1259:1269  _msgSender */\n      tag_130\n        /* \"@openzeppelin/contracts/access/Ownable.sol\":1259:1271  _msgSender() */\n      jump\t// in\n    tag_129:\n        /* \"@openzeppelin/contracts/access/Ownable.sol\":1248:1271  owner() == _msgSender() */\n      0xffffffffffffffffffffffffffffffffffffffff\n      and\n        /* \"@openzeppelin/contracts/access/Ownable.sol\":1248:1255  owner() */\n      tag_131\n        /* \"@openzeppelin/contracts/access/Ownable.sol\":1248:1253  owner */\n      tag_83\n        /* \"@openzeppelin/contracts/access/Ownable.sol\":1248:1255  owner() */\n      jump\t// in\n    tag_131:\n        /* \"@openzeppelin/contracts/access/Ownable.sol\":1248:1271  owner() == _msgSender() */\n      0xffffffffffffffffffffffffffffffffffffffff\n      and\n      eq\n        /* \"@openzeppelin/contracts/access/Ownable.sol\":1240:1308  require(owner() == _msgSender(), \"Ownable: caller is not the owner\") */\n      tag_132\n      jumpi\n      mload(0x40)\n      0x08c379a000000000000000000000000000000000000000000000000000000000\n      dup2\n      mstore\n      0x04\n      add\n      tag_133\n      swap1\n      tag_134\n      jump\t// in\n    tag_133:\n      mload(0x40)\n      dup1\n      swap2\n      sub\n      swap1\n      revert\n    tag_132:\n        /* \"contracts/Staking.sol\":8229:8230  0 */\n      0x00\n        /* \"contracts/Staking.sol\":8216:8226  _minAmount */\n      dup2\n        /* \"contracts/Staking.sol\":8216:8230  _minAmount > 0 */\n      gt\n        /* \"contracts/Staking.sol\":8207:8248  require (_minAmount > 0, \"Can't be zero\") */\n      tag_136\n      jumpi\n      mload(0x40)\n      0x08c379a000000000000000000000000000000000000000000000000000000000\n      dup2\n      mstore\n      0x04\n      add\n      tag_137\n      swap1\n      tag_138\n      jump\t// in\n    tag_137:\n      mload(0x40)\n      dup1\n      swap2\n      sub\n      swap1\n      revert\n    tag_136:\n        /* \"contracts/Staking.sol\":8281:8291  _minAmount */\n      dup1\n        /* \"contracts/Staking.sol\":8261:8278  _minStakeAmount_s */\n      0x08\n        /* \"contracts/Staking.sol\":8261:8291  _minStakeAmount_s = _minAmount */\n      dup2\n      swap1\n      sstore\n      pop\n        /* \"contracts/Staking.sol\":8127:8299  function setSilverMinAmount(uint256 _minAmount) external onlyOwner {... */\n      pop\n      jump\t// out\n        /* \"contracts/Staking.sol\":5732:6792  function withdraw(uint256 amount) external{... */\n    tag_46:\n        /* \"contracts/Staking.sol\":5812:5813  0 */\n      0x00\n        /* \"contracts/Staking.sol\":5803:5809  amount */\n      dup2\n        /* \"contracts/Staking.sol\":5803:5813  amount > 0 */\n      gt\n        /* \"contracts/Staking.sol\":5795:5849  require(amount > 0, \"Amount should be greater than 0\") */\n      tag_140\n      jumpi\n      mload(0x40)\n      0x08c379a000000000000000000000000000000000000000000000000000000000\n      dup2\n      mstore\n      0x04\n      add\n      tag_141\n      swap1\n      tag_142\n      jump\t// in\n    tag_141:\n      mload(0x40)\n      dup1\n      swap2\n      sub\n      swap1\n      revert\n    tag_140:\n        /* \"contracts/Staking.sol\":5878:5885  _staker */\n      0x0b\n        /* \"contracts/Staking.sol\":5878:5897  _staker[msg.sender] */\n      0x00\n        /* \"contracts/Staking.sol\":5886:5896  msg.sender */\n      caller\n        /* \"contracts/Staking.sol\":5878:5897  _staker[msg.sender] */\n      0xffffffffffffffffffffffffffffffffffffffff\n      and\n      0xffffffffffffffffffffffffffffffffffffffff\n      and\n      dup2\n      mstore\n      0x20\n      add\n      swap1\n      dup2\n      mstore\n      0x20\n      add\n      0x00\n      keccak256\n        /* \"contracts/Staking.sol\":5878:5910  _staker[msg.sender].stakedAmount */\n      0x01\n      add\n      sload\n        /* \"contracts/Staking.sol\":5868:5874  amount */\n      dup2\n        /* \"contracts/Staking.sol\":5868:5910  amount <= _staker[msg.sender].stakedAmount */\n      gt\n      iszero\n        /* \"contracts/Staking.sol\":5860:5929  require(amount <= _staker[msg.sender].stakedAmount, \"Invalid amount\") */\n      tag_143\n      jumpi\n      mload(0x40)\n      0x08c379a000000000000000000000000000000000000000000000000000000000\n      dup2\n      mstore\n      0x04\n      add\n      tag_144\n      swap1\n      tag_145\n      jump\t// in\n    tag_144:\n      mload(0x40)\n      dup1\n      swap2\n      sub\n      swap1\n      revert\n    tag_143:\n        /* \"contracts/Staking.sol\":5942:5956  updateReward() */\n      tag_146\n        /* \"contracts/Staking.sol\":5942:5954  updateReward */\n      tag_147\n        /* \"contracts/Staking.sol\":5942:5956  updateReward() */\n      jump\t// in\n    tag_146:\n        /* \"contracts/Staking.sol\":5967:5994  uint256 amountTobeWithdrawn */\n      0x00\n        /* \"contracts/Staking.sol\":5997:6003  amount */\n      dup2\n        /* \"contracts/Staking.sol\":5967:6003  uint256 amountTobeWithdrawn = amount */\n      swap1\n      pop\n        /* \"contracts/Staking.sol\":6014:6028  uint256 during */\n      0x00\n        /* \"contracts/Staking.sol\":6031:6098  block.timestamp.sub(_staker[msg.sender].stakeStartTime).div(1 days) */\n      tag_148\n        /* \"contracts/Staking.sol\":6091:6097  1 days */\n      0x015180\n        /* \"contracts/Staking.sol\":6031:6086  block.timestamp.sub(_staker[msg.sender].stakeStartTime) */\n      tag_149\n        /* \"contracts/Staking.sol\":6051:6058  _staker */\n      0x0b\n        /* \"contracts/Staking.sol\":6051:6070  _staker[msg.sender] */\n      0x00\n        /* \"contracts/Staking.sol\":6059:6069  msg.sender */\n      caller\n        /* \"contracts/Staking.sol\":6051:6070  _staker[msg.sender] */\n      0xffffffffffffffffffffffffffffffffffffffff\n      and\n      0xffffffffffffffffffffffffffffffffffffffff\n      and\n      dup2\n      mstore\n      0x20\n      add\n      swap1\n      dup2\n      mstore\n      0x20\n      add\n      0x00\n      keccak256\n        /* \"contracts/Staking.sol\":6051:6085  _staker[msg.sender].stakeStartTime */\n      0x03\n      add\n      sload\n        /* \"contracts/Staking.sol\":6031:6046  block.timestamp */\n      timestamp\n        /* \"contracts/Staking.sol\":6031:6050  block.timestamp.sub */\n      tag_150\n      swap1\n        /* \"contracts/Staking.sol\":6031:6086  block.timestamp.sub(_staker[msg.sender].stakeStartTime) */\n      swap2\n      swap1\n      0xffffffff\n      and\n      jump\t// in\n    tag_149:\n        /* \"contracts/Staking.sol\":6031:6090  block.timestamp.sub(_staker[msg.sender].stakeStartTime).div */\n      tag_151\n      swap1\n        /* \"contracts/Staking.sol\":6031:6098  block.timestamp.sub(_staker[msg.sender].stakeStartTime).div(1 days) */\n      swap2\n      swap1\n      0xffffffff\n      and\n      jump\t// in\n    tag_148:\n        /* \"contracts/Staking.sol\":6014:6098  uint256 during = block.timestamp.sub(_staker[msg.sender].stakeStartTime).div(1 days) */\n      swap1\n      pop\n        /* \"contracts/Staking.sol\":6109:6120  uint256 fee */\n      0x00\n        /* \"contracts/Staking.sol\":6123:6126  100 */\n      0x64\n        /* \"contracts/Staking.sol\":6109:6126  uint256 fee = 100 */\n      swap1\n      pop\n        /* \"contracts/Staking.sol\":6137:6158  bool isLockupTimeOver */\n      0x00\n        /* \"contracts/Staking.sol\":6189:6190  0 */\n      dup1\n        /* \"contracts/Staking.sol\":6161:6168  _staker */\n      0x0b\n        /* \"contracts/Staking.sol\":6161:6180  _staker[msg.sender] */\n      0x00\n        /* \"contracts/Staking.sol\":6169:6179  msg.sender */\n      caller\n        /* \"contracts/Staking.sol\":6161:6180  _staker[msg.sender] */\n      0xffffffffffffffffffffffffffffffffffffffff\n      and\n      0xffffffffffffffffffffffffffffffffffffffff\n      and\n      dup2\n      mstore\n      0x20\n      add\n      swap1\n      dup2\n      mstore\n      0x20\n      add\n      0x00\n      keccak256\n        /* \"contracts/Staking.sol\":6161:6185  _staker[msg.sender].mode */\n      0x02\n      add\n      sload\n        /* \"contracts/Staking.sol\":6161:6190  _staker[msg.sender].mode != 0 */\n      eq\n      iszero\n        /* \"contracts/Staking.sol\":6161:6321  _staker[msg.sender].mode != 0 ? during % _eventPeriod == 0 && during > 0 :... */\n      tag_152\n      jumpi\n        /* \"contracts/Staking.sol\":6268:6321  _staker[msg.sender].stakeStartTime.add(_lockupPeriod) */\n      tag_153\n        /* \"contracts/Staking.sol\":6307:6320  _lockupPeriod */\n      sload(0x05)\n        /* \"contracts/Staking.sol\":6268:6275  _staker */\n      0x0b\n        /* \"contracts/Staking.sol\":6268:6287  _staker[msg.sender] */\n      0x00\n        /* \"contracts/Staking.sol\":6276:6286  msg.sender */\n      caller\n        /* \"contracts/Staking.sol\":6268:6287  _staker[msg.sender] */\n      0xffffffffffffffffffffffffffffffffffffffff\n      and\n      0xffffffffffffffffffffffffffffffffffffffff\n      and\n      dup2\n      mstore\n      0x20\n      add\n      swap1\n      dup2\n      mstore\n      0x20\n      add\n      0x00\n      keccak256\n        /* \"contracts/Staking.sol\":6268:6302  _staker[msg.sender].stakeStartTime */\n      0x03\n      add\n      sload\n        /* \"contracts/Staking.sol\":6268:6306  _staker[msg.sender].stakeStartTime.add */\n      tag_154\n      swap1\n        /* \"contracts/Staking.sol\":6268:6321  _staker[msg.sender].stakeStartTime.add(_lockupPeriod) */\n      swap2\n      swap1\n      0xffffffff\n      and\n      jump\t// in\n    tag_153:\n        /* \"contracts/Staking.sol\":6249:6264  block.timestamp */\n      timestamp\n        /* \"contracts/Staking.sol\":6249:6321  block.timestamp >= _staker[msg.sender].stakeStartTime.add(_lockupPeriod) */\n      lt\n      iszero\n        /* \"contracts/Staking.sol\":6161:6321  _staker[msg.sender].mode != 0 ? during % _eventPeriod == 0 && during > 0 :... */\n      jump(tag_155)\n    tag_152:\n        /* \"contracts/Staking.sol\":6218:6219  0 */\n      0x00\n        /* \"contracts/Staking.sol\":6202:6214  _eventPeriod */\n      sload(0x02)\n        /* \"contracts/Staking.sol\":6193:6199  during */\n      dup5\n        /* \"contracts/Staking.sol\":6193:6214  during % _eventPeriod */\n      tag_156\n      swap2\n      swap1\n      tag_157\n      jump\t// in\n    tag_156:\n        /* \"contracts/Staking.sol\":6193:6219  during % _eventPeriod == 0 */\n      eq\n        /* \"contracts/Staking.sol\":6193:6233  during % _eventPeriod == 0 && during > 0 */\n      dup1\n      iszero\n      tag_158\n      jumpi\n      pop\n        /* \"contracts/Staking.sol\":6232:6233  0 */\n      0x00\n        /* \"contracts/Staking.sol\":6223:6229  during */\n      dup4\n        /* \"contracts/Staking.sol\":6223:6233  during > 0 */\n      gt\n        /* \"contracts/Staking.sol\":6193:6233  during % _eventPeriod == 0 && during > 0 */\n    tag_158:\n        /* \"contracts/Staking.sol\":6161:6321  _staker[msg.sender].mode != 0 ? during % _eventPeriod == 0 && during > 0 :... */\n    tag_155:\n        /* \"contracts/Staking.sol\":6137:6321  bool isLockupTimeOver = _staker[msg.sender].mode != 0 ? during % _eventPeriod == 0 && during > 0 :... */\n      swap1\n      pop\n        /* \"contracts/Staking.sol\":6337:6353  isLockupTimeOver */\n      dup1\n        /* \"contracts/Staking.sol\":6332:6405  if (!isLockupTimeOver) {... */\n      tag_159\n      jumpi\n        /* \"contracts/Staking.sol\":6376:6393  _unstakingFeeRate */\n      sload(0x01)\n        /* \"contracts/Staking.sol\":6370:6393  fee = _unstakingFeeRate */\n      swap2\n      pop\n        /* \"contracts/Staking.sol\":6332:6405  if (!isLockupTimeOver) {... */\n    tag_159:\n        /* \"contracts/Staking.sol\":6450:6507  _staker[msg.sender].stakedAmount.sub(amountTobeWithdrawn) */\n      tag_160\n        /* \"contracts/Staking.sol\":6487:6506  amountTobeWithdrawn */\n      dup5\n        /* \"contracts/Staking.sol\":6450:6457  _staker */\n      0x0b\n        /* \"contracts/Staking.sol\":6450:6469  _staker[msg.sender] */\n      0x00\n        /* \"contracts/Staking.sol\":6458:6468  msg.sender */\n      caller\n        /* \"contracts/Staking.sol\":6450:6469  _staker[msg.sender] */\n      0xffffffffffffffffffffffffffffffffffffffff\n      and\n      0xffffffffffffffffffffffffffffffffffffffff\n      and\n      dup2\n      mstore\n      0x20\n      add\n      swap1\n      dup2\n      mstore\n      0x20\n      add\n      0x00\n      keccak256\n        /* \"contracts/Staking.sol\":6450:6482  _staker[msg.sender].stakedAmount */\n      0x01\n      add\n      sload\n        /* \"contracts/Staking.sol\":6450:6486  _staker[msg.sender].stakedAmount.sub */\n      tag_150\n      swap1\n        /* \"contracts/Staking.sol\":6450:6507  _staker[msg.sender].stakedAmount.sub(amountTobeWithdrawn) */\n      swap2\n      swap1\n      0xffffffff\n      and\n      jump\t// in\n    tag_160:\n        /* \"contracts/Staking.sol\":6415:6422  _staker */\n      0x0b\n        /* \"contracts/Staking.sol\":6415:6434  _staker[msg.sender] */\n      0x00\n        /* \"contracts/Staking.sol\":6423:6433  msg.sender */\n      caller\n        /* \"contracts/Staking.sol\":6415:6434  _staker[msg.sender] */\n      0xffffffffffffffffffffffffffffffffffffffff\n      and\n      0xffffffffffffffffffffffffffffffffffffffff\n      and\n      dup2\n      mstore\n      0x20\n      add\n      swap1\n      dup2\n      mstore\n      0x20\n      add\n      0x00\n      keccak256\n        /* \"contracts/Staking.sol\":6415:6447  _staker[msg.sender].stakedAmount */\n      0x01\n      add\n        /* \"contracts/Staking.sol\":6415:6507  _staker[msg.sender].stakedAmount = _staker[msg.sender].stakedAmount.sub(amountTobeWithdrawn) */\n      dup2\n      swap1\n      sstore\n      pop\n        /* \"contracts/Staking.sol\":6532:6568  totalStaked.sub(amountTobeWithdrawn) */\n      tag_161\n        /* \"contracts/Staking.sol\":6548:6567  amountTobeWithdrawn */\n      dup5\n        /* \"contracts/Staking.sol\":6532:6543  totalStaked */\n      sload(0x0c)\n        /* \"contracts/Staking.sol\":6532:6547  totalStaked.sub */\n      tag_150\n      swap1\n        /* \"contracts/Staking.sol\":6532:6568  totalStaked.sub(amountTobeWithdrawn) */\n      swap2\n      swap1\n      0xffffffff\n      and\n      jump\t// in\n    tag_161:\n        /* \"contracts/Staking.sol\":6518:6529  totalStaked */\n      0x0c\n        /* \"contracts/Staking.sol\":6518:6568  totalStaked = totalStaked.sub(amountTobeWithdrawn) */\n      dup2\n      swap1\n      sstore\n      pop\n        /* \"contracts/Staking.sol\":6601:6663  amountTobeWithdrawn.sub(amountTobeWithdrawn.mul(fee).div(1e4)) */\n      tag_162\n        /* \"contracts/Staking.sol\":6625:6662  amountTobeWithdrawn.mul(fee).div(1e4) */\n      tag_163\n        /* \"contracts/Staking.sol\":6658:6661  1e4 */\n      0x2710\n        /* \"contracts/Staking.sol\":6625:6653  amountTobeWithdrawn.mul(fee) */\n      tag_164\n        /* \"contracts/Staking.sol\":6649:6652  fee */\n      dup6\n        /* \"contracts/Staking.sol\":6625:6644  amountTobeWithdrawn */\n      dup9\n        /* \"contracts/Staking.sol\":6625:6648  amountTobeWithdrawn.mul */\n      tag_165\n      swap1\n        /* \"contracts/Staking.sol\":6625:6653  amountTobeWithdrawn.mul(fee) */\n      swap2\n      swap1\n      0xffffffff\n      and\n      jump\t// in\n    tag_164:\n        /* \"contracts/Staking.sol\":6625:6657  amountTobeWithdrawn.mul(fee).div */\n      tag_151\n      swap1\n        /* \"contracts/Staking.sol\":6625:6662  amountTobeWithdrawn.mul(fee).div(1e4) */\n      swap2\n      swap1\n      0xffffffff\n      and\n      jump\t// in\n    tag_163:\n        /* \"contracts/Staking.sol\":6601:6620  amountTobeWithdrawn */\n      dup6\n        /* \"contracts/Staking.sol\":6601:6624  amountTobeWithdrawn.sub */\n      tag_150\n      swap1\n        /* \"contracts/Staking.sol\":6601:6663  amountTobeWithdrawn.sub(amountTobeWithdrawn.mul(fee).div(1e4)) */\n      swap2\n      swap1\n      0xffffffff\n      and\n      jump\t// in\n    tag_162:\n        /* \"contracts/Staking.sol\":6579:6663  amountTobeWithdrawn = amountTobeWithdrawn.sub(amountTobeWithdrawn.mul(fee).div(1e4)) */\n      swap4\n      pop\n        /* \"contracts/Staking.sol\":6674:6725  token.safeTransfer(msg.sender, amountTobeWithdrawn) */\n      tag_166\n        /* \"contracts/Staking.sol\":6693:6703  msg.sender */\n      caller\n        /* \"contracts/Staking.sol\":6705:6724  amountTobeWithdrawn */\n      dup6\n        /* \"contracts/Staking.sol\":6674:6679  token */\n      0x0d\n      0x00\n      swap1\n      sload\n      swap1\n      0x0100\n      exp\n      swap1\n      div\n      0xffffffffffffffffffffffffffffffffffffffff\n      and\n        /* \"contracts/Staking.sol\":6674:6692  token.safeTransfer */\n      0xffffffffffffffffffffffffffffffffffffffff\n      and\n      tag_167\n      swap1\n        /* \"contracts/Staking.sol\":6674:6725  token.safeTransfer(msg.sender, amountTobeWithdrawn) */\n      swap3\n      swap2\n      swap1\n      0xffffffff\n      and\n      jump\t// in\n    tag_166:\n        /* \"contracts/Staking.sol\":6743:6784  Withdraw(msg.sender, amountTobeWithdrawn) */\n      0x884edad9ce6fa2440d8a54cc123490eb96d2768479d49ff9c7366125a9424364\n        /* \"contracts/Staking.sol\":6752:6762  msg.sender */\n      caller\n        /* \"contracts/Staking.sol\":6764:6783  amountTobeWithdrawn */\n      dup6\n        /* \"contracts/Staking.sol\":6743:6784  Withdraw(msg.sender, amountTobeWithdrawn) */\n      mload(0x40)\n      tag_168\n      swap3\n      swap2\n      swap1\n      tag_169\n      jump\t// in\n    tag_168:\n      mload(0x40)\n      dup1\n      swap2\n      sub\n      swap1\n      log1\n        /* \"contracts/Staking.sol\":5774:6792  {... */\n      pop\n      pop\n      pop\n      pop\n        /* \"contracts/Staking.sol\":5732:6792  function withdraw(uint256 amount) external{... */\n      pop\n      jump\t// out\n        /* \"contracts/Staking.sol\":8738:9323  function harvest() public{... */\n    tag_48:\n        /* \"contracts/Staking.sol\":8784:8798  updateReward() */\n      tag_171\n        /* \"contracts/Staking.sol\":8784:8796  updateReward */\n      tag_147\n        /* \"contracts/Staking.sol\":8784:8798  updateReward() */\n      jump\t// in\n    tag_171:\n        /* \"contracts/Staking.sol\":8819:8840  uint256 rewardToClaim */\n      0x00\n        /* \"contracts/Staking.sol\":8843:8956  _staker[msg.sender].stakerCurrentReward.sub(_staker[msg.sender].stakerCurrentReward.mul(_rewardFeeRate).div(1e4)) */\n      tag_172\n        /* \"contracts/Staking.sol\":8887:8955  _staker[msg.sender].stakerCurrentReward.mul(_rewardFeeRate).div(1e4) */\n      tag_173\n        /* \"contracts/Staking.sol\":8951:8954  1e4 */\n      0x2710\n        /* \"contracts/Staking.sol\":8887:8946  _staker[msg.sender].stakerCurrentReward.mul(_rewardFeeRate) */\n      tag_174\n        /* \"contracts/Staking.sol\":8931:8945  _rewardFeeRate */\n      sload(0x04)\n        /* \"contracts/Staking.sol\":8887:8894  _staker */\n      0x0b\n        /* \"contracts/Staking.sol\":8887:8906  _staker[msg.sender] */\n      0x00\n        /* \"contracts/Staking.sol\":8895:8905  msg.sender */\n      caller\n        /* \"contracts/Staking.sol\":8887:8906  _staker[msg.sender] */\n      0xffffffffffffffffffffffffffffffffffffffff\n      and\n      0xffffffffffffffffffffffffffffffffffffffff\n      and\n      dup2\n      mstore\n      0x20\n      add\n      swap1\n      dup2\n      mstore\n      0x20\n      add\n      0x00\n      keccak256\n        /* \"contracts/Staking.sol\":8887:8926  _staker[msg.sender].stakerCurrentReward */\n      0x00\n      add\n      sload\n        /* \"contracts/Staking.sol\":8887:8930  _staker[msg.sender].stakerCurrentReward.mul */\n      tag_165\n      swap1\n        /* \"contracts/Staking.sol\":8887:8946  _staker[msg.sender].stakerCurrentReward.mul(_rewardFeeRate) */\n      swap2\n      swap1\n      0xffffffff\n      and\n      jump\t// in\n    tag_174:\n        /* \"contracts/Staking.sol\":8887:8950  _staker[msg.sender].stakerCurrentReward.mul(_rewardFeeRate).div */\n      tag_151\n      swap1\n        /* \"contracts/Staking.sol\":8887:8955  _staker[msg.sender].stakerCurrentReward.mul(_rewardFeeRate).div(1e4) */\n      swap2\n      swap1\n      0xffffffff\n      and\n      jump\t// in\n    tag_173:\n        /* \"contracts/Staking.sol\":8843:8850  _staker */\n      0x0b\n        /* \"contracts/Staking.sol\":8843:8862  _staker[msg.sender] */\n      0x00\n        /* \"contracts/Staking.sol\":8851:8861  msg.sender */\n      caller\n        /* \"contracts/Staking.sol\":8843:8862  _staker[msg.sender] */\n      0xffffffffffffffffffffffffffffffffffffffff\n      and\n      0xffffffffffffffffffffffffffffffffffffffff\n      and\n      dup2\n      mstore\n      0x20\n      add\n      swap1\n      dup2\n      mstore\n      0x20\n      add\n      0x00\n      keccak256\n        /* \"contracts/Staking.sol\":8843:8882  _staker[msg.sender].stakerCurrentReward */\n      0x00\n      add\n      sload\n        /* \"contracts/Staking.sol\":8843:8886  _staker[msg.sender].stakerCurrentReward.sub */\n      tag_150\n      swap1\n        /* \"contracts/Staking.sol\":8843:8956  _staker[msg.sender].stakerCurrentReward.sub(_staker[msg.sender].stakerCurrentReward.mul(_rewardFeeRate).div(1e4)) */\n      swap2\n      swap1\n      0xffffffff\n      and\n      jump\t// in\n    tag_172:\n        /* \"contracts/Staking.sol\":8819:8956  uint256 rewardToClaim = _staker[msg.sender].stakerCurrentReward.sub(_staker[msg.sender].stakerCurrentReward.mul(_rewardFeeRate).div(1e4)) */\n      swap1\n      pop\n        /* \"contracts/Staking.sol\":9001:9002  0 */\n      0x00\n        /* \"contracts/Staking.sol\":8985:8998  rewardToClaim */\n      dup2\n        /* \"contracts/Staking.sol\":8985:9002  rewardToClaim > 0 */\n      gt\n        /* \"contracts/Staking.sol\":8977:9023  require(rewardToClaim > 0, \"Nothing to claim\") */\n      tag_175\n      jumpi\n      mload(0x40)\n      0x08c379a000000000000000000000000000000000000000000000000000000000\n      dup2\n      mstore\n      0x04\n      add\n      tag_176\n      swap1\n      tag_177\n      jump\t// in\n    tag_176:\n      mload(0x40)\n      dup1\n      swap2\n      sub\n      swap1\n      revert\n    tag_175:\n        /* \"contracts/Staking.sol\":9054:9059  token */\n      0x0d\n      0x00\n      swap1\n      sload\n      swap1\n      0x0100\n      exp\n      swap1\n      div\n      0xffffffffffffffffffffffffffffffffffffffff\n      and\n        /* \"contracts/Staking.sol\":9054:9069  token.balanceOf */\n      0xffffffffffffffffffffffffffffffffffffffff\n      and\n      0x70a08231\n        /* \"contracts/Staking.sol\":9078:9082  this */\n      address\n        /* \"contracts/Staking.sol\":9054:9084  token.balanceOf(address(this)) */\n      mload(0x40)\n      dup3\n      0xffffffff\n      and\n      0xe0\n      shl\n      dup2\n      mstore\n      0x04\n      add\n      tag_178\n      swap2\n      swap1\n      tag_85\n      jump\t// in\n    tag_178:\n      0x20\n      mload(0x40)\n      dup1\n      dup4\n      sub\n      dup2\n      dup7\n      dup1\n      extcodesize\n      iszero\n      dup1\n      iszero\n      tag_179\n      jumpi\n      0x00\n      dup1\n      revert\n    tag_179:\n      pop\n      gas\n      staticcall\n      iszero\n      dup1\n      iszero\n      tag_181\n      jumpi\n      returndatasize\n      0x00\n      dup1\n      returndatacopy\n      revert(0x00, returndatasize)\n    tag_181:\n      pop\n      pop\n      pop\n      pop\n      mload(0x40)\n      returndatasize\n      not(0x1f)\n      0x1f\n      dup3\n      add\n      and\n      dup3\n      add\n      dup1\n      0x40\n      mstore\n      pop\n      dup2\n      add\n      swap1\n      tag_182\n      swap2\n      swap1\n      tag_183\n      jump\t// in\n    tag_182:\n        /* \"contracts/Staking.sol\":9038:9051  rewardToClaim */\n      dup2\n        /* \"contracts/Staking.sol\":9038:9084  rewardToClaim > token.balanceOf(address(this)) */\n      gt\n        /* \"contracts/Staking.sol\":9034:9145  if (rewardToClaim > token.balanceOf(address(this)))... */\n      iszero\n      tag_184\n      jumpi\n        /* \"contracts/Staking.sol\":9115:9120  token */\n      0x0d\n      0x00\n      swap1\n      sload\n      swap1\n      0x0100\n      exp\n      swap1\n      div\n      0xffffffffffffffffffffffffffffffffffffffff\n      and\n        /* \"contracts/Staking.sol\":9115:9130  token.balanceOf */\n      0xffffffffffffffffffffffffffffffffffffffff\n      and\n      0x70a08231\n        /* \"contracts/Staking.sol\":9139:9143  this */\n      address\n        /* \"contracts/Staking.sol\":9115:9145  token.balanceOf(address(this)) */\n      mload(0x40)\n      dup3\n      0xffffffff\n      and\n      0xe0\n      shl\n      dup2\n      mstore\n      0x04\n      add\n      tag_185\n      swap2\n      swap1\n      tag_85\n      jump\t// in\n    tag_185:\n      0x20\n      mload(0x40)\n      dup1\n      dup4\n      sub\n      dup2\n      dup7\n      dup1\n      extcodesize\n      iszero\n      dup1\n      iszero\n      tag_186\n      jumpi\n      0x00\n      dup1\n      revert\n    tag_186:\n      pop\n      gas\n      staticcall\n      iszero\n      dup1\n      iszero\n      tag_188\n      jumpi\n      returndatasize\n      0x00\n      dup1\n      returndatacopy\n      revert(0x00, returndatasize)\n    tag_188:\n      pop\n      pop\n      pop\n      pop\n      mload(0x40)\n      returndatasize\n      not(0x1f)\n      0x1f\n      dup3\n      add\n      and\n      dup3\n      add\n      dup1\n      0x40\n      mstore\n      pop\n      dup2\n      add\n      swap1\n      tag_189\n      swap2\n      swap1\n      tag_183\n      jump\t// in\n    tag_189:\n        /* \"contracts/Staking.sol\":9099:9145  rewardToClaim = token.balanceOf(address(this)) */\n      swap1\n      pop\n        /* \"contracts/Staking.sol\":9034:9145  if (rewardToClaim > token.balanceOf(address(this)))... */\n    tag_184:\n        /* \"contracts/Staking.sol\":9156:9201  token.safeTransfer(msg.sender, rewardToClaim) */\n      tag_190\n        /* \"contracts/Staking.sol\":9175:9185  msg.sender */\n      caller\n        /* \"contracts/Staking.sol\":9187:9200  rewardToClaim */\n      dup3\n        /* \"contracts/Staking.sol\":9156:9161  token */\n      0x0d\n      0x00\n      swap1\n      sload\n      swap1\n      0x0100\n      exp\n      swap1\n      div\n      0xffffffffffffffffffffffffffffffffffffffff\n      and\n        /* \"contracts/Staking.sol\":9156:9174  token.safeTransfer */\n      0xffffffffffffffffffffffffffffffffffffffff\n      and\n      tag_167\n      swap1\n        /* \"contracts/Staking.sol\":9156:9201  token.safeTransfer(msg.sender, rewardToClaim) */\n      swap3\n      swap2\n      swap1\n      0xffffffff\n      and\n      jump\t// in\n    tag_190:\n        /* \"contracts/Staking.sol\":9254:9255  0 */\n      0x00\n        /* \"contracts/Staking.sol\":9212:9219  _staker */\n      0x0b\n        /* \"contracts/Staking.sol\":9212:9231  _staker[msg.sender] */\n      0x00\n        /* \"contracts/Staking.sol\":9220:9230  msg.sender */\n      caller\n        /* \"contracts/Staking.sol\":9212:9231  _staker[msg.sender] */\n      0xffffffffffffffffffffffffffffffffffffffff\n      and\n      0xffffffffffffffffffffffffffffffffffffffff\n      and\n      dup2\n      mstore\n      0x20\n      add\n      swap1\n      dup2\n      mstore\n      0x20\n      add\n      0x00\n      keccak256\n        /* \"contracts/Staking.sol\":9212:9251  _staker[msg.sender].stakerCurrentReward */\n      0x00\n      add\n        /* \"contracts/Staking.sol\":9212:9255  _staker[msg.sender].stakerCurrentReward = 0 */\n      dup2\n      swap1\n      sstore\n      pop\n        /* \"contracts/Staking.sol\":9281:9315  Harvest(msg.sender, rewardToClaim) */\n      0xc9695243a805adb74c91f28311176c65b417e842d5699893cef56d18bfa48cba\n        /* \"contracts/Staking.sol\":9289:9299  msg.sender */\n      caller\n        /* \"contracts/Staking.sol\":9301:9314  rewardToClaim */\n      dup3\n        /* \"contracts/Staking.sol\":9281:9315  Harvest(msg.sender, rewardToClaim) */\n      mload(0x40)\n      tag_191\n      swap3\n      swap2\n      swap1\n      tag_169\n      jump\t// in\n    tag_191:\n      mload(0x40)\n      dup1\n      swap2\n      sub\n      swap1\n      log1\n        /* \"contracts/Staking.sol\":8763:9323  {... */\n      pop\n        /* \"contracts/Staking.sol\":8738:9323  function harvest() public{... */\n      jump\t// out\n        /* \"contracts/Staking.sol\":4886:5288  function isLocked(address _address) public view returns (uint256) {... */\n    tag_52:\n        /* \"contracts/Staking.sol\":4943:4950  uint256 */\n      0x00\n        /* \"contracts/Staking.sol\":4997:5001  0x55 */\n      0x55\n        /* \"contracts/Staking.sol\":4969:4976  _staker */\n      0x0b\n        /* \"contracts/Staking.sol\":4969:4986  _staker[_address] */\n      0x00\n        /* \"contracts/Staking.sol\":4977:4985  _address */\n      dup5\n        /* \"contracts/Staking.sol\":4969:4986  _staker[_address] */\n      0xffffffffffffffffffffffffffffffffffffffff\n      and\n      0xffffffffffffffffffffffffffffffffffffffff\n      and\n      dup2\n      mstore\n      0x20\n      add\n      swap1\n      dup2\n      mstore\n      0x20\n      add\n      0x00\n      keccak256\n        /* \"contracts/Staking.sol\":4969:4993  _staker[_address].staked */\n      0x05\n      add\n      sload\n        /* \"contracts/Staking.sol\":4969:5001  _staker[_address].staked != 0x55 */\n      eq\n        /* \"contracts/Staking.sol\":4965:5024  if (_staker[_address].staked != 0x55)... */\n      tag_193\n      jumpi\n        /* \"contracts/Staking.sol\":5023:5024  1 */\n      0x01\n        /* \"contracts/Staking.sol\":5016:5024  return 1 */\n      swap1\n      pop\n      jump(tag_192)\n        /* \"contracts/Staking.sol\":4965:5024  if (_staker[_address].staked != 0x55)... */\n    tag_193:\n        /* \"contracts/Staking.sol\":5065:5066  0 */\n      0x00\n        /* \"contracts/Staking.sol\":5039:5046  _staker */\n      0x0b\n        /* \"contracts/Staking.sol\":5039:5056  _staker[_address] */\n      0x00\n        /* \"contracts/Staking.sol\":5047:5055  _address */\n      dup5\n        /* \"contracts/Staking.sol\":5039:5056  _staker[_address] */\n      0xffffffffffffffffffffffffffffffffffffffff\n      and\n      0xffffffffffffffffffffffffffffffffffffffff\n      and\n      dup2\n      mstore\n      0x20\n      add\n      swap1\n      dup2\n      mstore\n      0x20\n      add\n      0x00\n      keccak256\n        /* \"contracts/Staking.sol\":5039:5061  _staker[_address].mode */\n      0x02\n      add\n      sload\n        /* \"contracts/Staking.sol\":5039:5066  _staker[_address].mode != 0 */\n      eq\n        /* \"contracts/Staking.sol\":5035:5280  if (_staker[_address].mode != 0)... */\n      tag_194\n      jumpi\n        /* \"contracts/Staking.sol\":5156:5157  0 */\n      0x00\n        /* \"contracts/Staking.sol\":5145:5151  7 days */\n      0x093a80\n        /* \"contracts/Staking.sol\":5088:5141  block.timestamp.sub(_staker[_address].stakeStartTime) */\n      tag_195\n        /* \"contracts/Staking.sol\":5108:5115  _staker */\n      0x0b\n        /* \"contracts/Staking.sol\":5108:5125  _staker[_address] */\n      0x00\n        /* \"contracts/Staking.sol\":5116:5124  _address */\n      dup7\n        /* \"contracts/Staking.sol\":5108:5125  _staker[_address] */\n      0xffffffffffffffffffffffffffffffffffffffff\n      and\n      0xffffffffffffffffffffffffffffffffffffffff\n      and\n      dup2\n      mstore\n      0x20\n      add\n      swap1\n      dup2\n      mstore\n      0x20\n      add\n      0x00\n      keccak256\n        /* \"contracts/Staking.sol\":5108:5140  _staker[_address].stakeStartTime */\n      0x03\n      add\n      sload\n        /* \"contracts/Staking.sol\":5088:5103  block.timestamp */\n      timestamp\n        /* \"contracts/Staking.sol\":5088:5107  block.timestamp.sub */\n      tag_150\n      swap1\n        /* \"contracts/Staking.sol\":5088:5141  block.timestamp.sub(_staker[_address].stakeStartTime) */\n      swap2\n      swap1\n      0xffffffff\n      and\n      jump\t// in\n    tag_195:\n        /* \"contracts/Staking.sol\":5088:5152  block.timestamp.sub(_staker[_address].stakeStartTime) % (7 days) */\n      tag_196\n      swap2\n      swap1\n      tag_157\n      jump\t// in\n    tag_196:\n        /* \"contracts/Staking.sol\":5088:5157  block.timestamp.sub(_staker[_address].stakeStartTime) % (7 days) == 0 */\n      eq\n        /* \"contracts/Staking.sol\":5088:5165  block.timestamp.sub(_staker[_address].stakeStartTime) % (7 days) == 0 ? 0 : 1 */\n      tag_197\n      jumpi\n        /* \"contracts/Staking.sol\":5164:5165  1 */\n      0x01\n        /* \"contracts/Staking.sol\":5088:5165  block.timestamp.sub(_staker[_address].stakeStartTime) % (7 days) == 0 ? 0 : 1 */\n      jump(tag_198)\n    tag_197:\n        /* \"contracts/Staking.sol\":5160:5161  0 */\n      0x00\n        /* \"contracts/Staking.sol\":5088:5165  block.timestamp.sub(_staker[_address].stakeStartTime) % (7 days) == 0 ? 0 : 1 */\n    tag_198:\n        /* \"contracts/Staking.sol\":5081:5165  return block.timestamp.sub(_staker[_address].stakeStartTime) % (7 days) == 0 ? 0 : 1 */\n      0xff\n      and\n      swap1\n      pop\n      jump(tag_192)\n        /* \"contracts/Staking.sol\":5035:5280  if (_staker[_address].mode != 0)... */\n    tag_194:\n        /* \"contracts/Staking.sol\":5259:5272  _lockupPeriod */\n      sload(0x05)\n        /* \"contracts/Staking.sol\":5202:5255  block.timestamp.sub(_staker[_address].stakeStartTime) */\n      tag_200\n        /* \"contracts/Staking.sol\":5222:5229  _staker */\n      0x0b\n        /* \"contracts/Staking.sol\":5222:5239  _staker[_address] */\n      0x00\n        /* \"contracts/Staking.sol\":5230:5238  _address */\n      dup6\n        /* \"contracts/Staking.sol\":5222:5239  _staker[_address] */\n      0xffffffffffffffffffffffffffffffffffffffff\n      and\n      0xffffffffffffffffffffffffffffffffffffffff\n      and\n      dup2\n      mstore\n      0x20\n      add\n      swap1\n      dup2\n      mstore\n      0x20\n      add\n      0x00\n      keccak256\n        /* \"contracts/Staking.sol\":5222:5254  _staker[_address].stakeStartTime */\n      0x03\n      add\n      sload\n        /* \"contracts/Staking.sol\":5202:5217  block.timestamp */\n      timestamp\n        /* \"contracts/Staking.sol\":5202:5221  block.timestamp.sub */\n      tag_150\n      swap1\n        /* \"contracts/Staking.sol\":5202:5255  block.timestamp.sub(_staker[_address].stakeStartTime) */\n      swap2\n      swap1\n      0xffffffff\n      and\n      jump\t// in\n    tag_200:\n        /* \"contracts/Staking.sol\":5202:5272  block.timestamp.sub(_staker[_address].stakeStartTime) >= _lockupPeriod */\n      lt\n      iszero\n        /* \"contracts/Staking.sol\":5202:5280  block.timestamp.sub(_staker[_address].stakeStartTime) >= _lockupPeriod ? 0 : 1 */\n      tag_201\n      jumpi\n        /* \"contracts/Staking.sol\":5279:5280  1 */\n      0x01\n        /* \"contracts/Staking.sol\":5202:5280  block.timestamp.sub(_staker[_address].stakeStartTime) >= _lockupPeriod ? 0 : 1 */\n      jump(tag_202)\n    tag_201:\n        /* \"contracts/Staking.sol\":5275:5276  0 */\n      0x00\n        /* \"contracts/Staking.sol\":5202:5280  block.timestamp.sub(_staker[_address].stakeStartTime) >= _lockupPeriod ? 0 : 1 */\n    tag_202:\n        /* \"contracts/Staking.sol\":5195:5280  return block.timestamp.sub(_staker[_address].stakeStartTime) >= _lockupPeriod ? 0 : 1 */\n      0xff\n      and\n      swap1\n      pop\n        /* \"contracts/Staking.sol\":4886:5288  function isLocked(address _address) public view returns (uint256) {... */\n    tag_192:\n      swap2\n      swap1\n      pop\n      jump\t// out\n        /* \"contracts/Staking.sol\":7577:7747  function setLockupTime(uint256 lockupTime) external onlyOwner {... */\n    tag_56:\n        /* \"@openzeppelin/contracts/access/Ownable.sol\":1259:1271  _msgSender() */\n      tag_204\n        /* \"@openzeppelin/contracts/access/Ownable.sol\":1259:1269  _msgSender */\n      tag_130\n        /* \"@openzeppelin/contracts/access/Ownable.sol\":1259:1271  _msgSender() */\n      jump\t// in\n    tag_204:\n        /* \"@openzeppelin/contracts/access/Ownable.sol\":1248:1271  owner() == _msgSender() */\n      0xffffffffffffffffffffffffffffffffffffffff\n      and\n        /* \"@openzeppelin/contracts/access/Ownable.sol\":1248:1255  owner() */\n      tag_205\n        /* \"@openzeppelin/contracts/access/Ownable.sol\":1248:1253  owner */\n      tag_83\n        /* \"@openzeppelin/contracts/access/Ownable.sol\":1248:1255  owner() */\n      jump\t// in\n    tag_205:\n        /* \"@openzeppelin/contracts/access/Ownable.sol\":1248:1271  owner() == _msgSender() */\n      0xffffffffffffffffffffffffffffffffffffffff\n      and\n      eq\n        /* \"@openzeppelin/contracts/access/Ownable.sol\":1240:1308  require(owner() == _msgSender(), \"Ownable: caller is not the owner\") */\n      tag_206\n      jumpi\n      mload(0x40)\n      0x08c379a000000000000000000000000000000000000000000000000000000000\n      dup2\n      mstore\n      0x04\n      add\n      tag_207\n      swap1\n      tag_134\n      jump\t// in\n    tag_207:\n      mload(0x40)\n      dup1\n      swap2\n      sub\n      swap1\n      revert\n    tag_206:\n        /* \"contracts/Staking.sol\":7673:7674  0 */\n      0x00\n        /* \"contracts/Staking.sol\":7660:7670  lockupTime */\n      dup2\n        /* \"contracts/Staking.sol\":7660:7674  lockupTime > 0 */\n      gt\n        /* \"contracts/Staking.sol\":7652:7692  require(lockupTime > 0, \"Can't be zero\") */\n      tag_209\n      jumpi\n      mload(0x40)\n      0x08c379a000000000000000000000000000000000000000000000000000000000\n      dup2\n      mstore\n      0x04\n      add\n      tag_210\n      swap1\n      tag_138\n      jump\t// in\n    tag_210:\n      mload(0x40)\n      dup1\n      swap2\n      sub\n      swap1\n      revert\n    tag_209:\n        /* \"contracts/Staking.sol\":7729:7739  lockupTime */\n      dup1\n        /* \"contracts/Staking.sol\":7713:7726  _lockupPeriod */\n      0x05\n        /* \"contracts/Staking.sol\":7713:7739  _lockupPeriod = lockupTime */\n      dup2\n      swap1\n      sstore\n      pop\n        /* \"contracts/Staking.sol\":7577:7747  function setLockupTime(uint256 lockupTime) external onlyOwner {... */\n      pop\n      jump\t// out\n        /* \"contracts/Staking.sol\":2828:3740  function startStaking(uint256 _amount, uint256 _mode) external {... */\n    tag_60:\n        /* \"contracts/Staking.sol\":2930:2931  0 */\n      0x00\n        /* \"contracts/Staking.sol\":2920:2927  _amount */\n      dup3\n        /* \"contracts/Staking.sol\":2920:2931  _amount > 0 */\n      gt\n        /* \"contracts/Staking.sol\":2912:2967  require(_amount > 0, \"Amount should be greater than 0\") */\n      tag_212\n      jumpi\n      mload(0x40)\n      0x08c379a000000000000000000000000000000000000000000000000000000000\n      dup2\n      mstore\n      0x04\n      add\n      tag_213\n      swap1\n      tag_142\n      jump\t// in\n    tag_213:\n      mload(0x40)\n      dup1\n      swap2\n      sub\n      swap1\n      revert\n    tag_212:\n        /* \"contracts/Staking.sol\":3016:3023  _amount */\n      dup2\n        /* \"contracts/Staking.sol\":2986:2991  token */\n      0x0d\n      0x00\n      swap1\n      sload\n      swap1\n      0x0100\n      exp\n      swap1\n      div\n      0xffffffffffffffffffffffffffffffffffffffff\n      and\n        /* \"contracts/Staking.sol\":2986:3001  token.balanceOf */\n      0xffffffffffffffffffffffffffffffffffffffff\n      and\n      0x70a08231\n        /* \"contracts/Staking.sol\":3002:3012  msg.sender */\n      caller\n        /* \"contracts/Staking.sol\":2986:3013  token.balanceOf(msg.sender) */\n      mload(0x40)\n      dup3\n      0xffffffff\n      and\n      0xe0\n      shl\n      dup2\n      mstore\n      0x04\n      add\n      tag_214\n      swap2\n      swap1\n      tag_85\n      jump\t// in\n    tag_214:\n      0x20\n      mload(0x40)\n      dup1\n      dup4\n      sub\n      dup2\n      dup7\n      dup1\n      extcodesize\n      iszero\n      dup1\n      iszero\n      tag_215\n      jumpi\n      0x00\n      dup1\n      revert\n    tag_215:\n      pop\n      gas\n      staticcall\n      iszero\n      dup1\n      iszero\n      tag_217\n      jumpi\n      returndatasize\n      0x00\n      dup1\n      returndatacopy\n      revert(0x00, returndatasize)\n    tag_217:\n      pop\n      pop\n      pop\n      pop\n      mload(0x40)\n      returndatasize\n      not(0x1f)\n      0x1f\n      dup3\n      add\n      and\n      dup3\n      add\n      dup1\n      0x40\n      mstore\n      pop\n      dup2\n      add\n      swap1\n      tag_218\n      swap2\n      swap1\n      tag_183\n      jump\t// in\n    tag_218:\n        /* \"contracts/Staking.sol\":2986:3023  token.balanceOf(msg.sender) > _amount */\n      gt\n        /* \"contracts/Staking.sol\":2978:3041  require(token.balanceOf(msg.sender) > _amount, \"Insufficient!\") */\n      tag_219\n      jumpi\n      mload(0x40)\n      0x08c379a000000000000000000000000000000000000000000000000000000000\n      dup2\n      mstore\n      0x04\n      add\n      tag_220\n      swap1\n      tag_221\n      jump\t// in\n    tag_220:\n      mload(0x40)\n      dup1\n      swap2\n      sub\n      swap1\n      revert\n    tag_219:\n        /* \"contracts/Staking.sol\":3090:3094  0x55 */\n      0x55\n        /* \"contracts/Staking.sol\":3060:3067  _staker */\n      0x0b\n        /* \"contracts/Staking.sol\":3060:3079  _staker[msg.sender] */\n      0x00\n        /* \"contracts/Staking.sol\":3068:3078  msg.sender */\n      caller\n        /* \"contracts/Staking.sol\":3060:3079  _staker[msg.sender] */\n      0xffffffffffffffffffffffffffffffffffffffff\n      and\n      0xffffffffffffffffffffffffffffffffffffffff\n      and\n      dup2\n      mstore\n      0x20\n      add\n      swap1\n      dup2\n      mstore\n      0x20\n      add\n      0x00\n      keccak256\n        /* \"contracts/Staking.sol\":3060:3086  _staker[msg.sender].staked */\n      0x05\n      add\n      sload\n        /* \"contracts/Staking.sol\":3060:3094  _staker[msg.sender].staked != 0x55 */\n      eq\n      iszero\n        /* \"contracts/Staking.sol\":3052:3114  require(_staker[msg.sender].staked != 0x55, \"Already started\") */\n      tag_222\n      jumpi\n      mload(0x40)\n      0x08c379a000000000000000000000000000000000000000000000000000000000\n      dup2\n      mstore\n      0x04\n      add\n      tag_223\n      swap1\n      tag_224\n      jump\t// in\n    tag_223:\n      mload(0x40)\n      dup1\n      swap2\n      sub\n      swap1\n      revert\n    tag_222:\n        /* \"contracts/Staking.sol\":3148:3149  0 */\n      0x00\n        /* \"contracts/Staking.sol\":3139:3144  _mode */\n      dup2\n        /* \"contracts/Staking.sol\":3139:3149  _mode == 0 */\n      eq\n        /* \"contracts/Staking.sol\":3135:3511  if (_mode == 0) require(_amount >= _minStakeAmount_m, \"Insufficient\");... */\n      iszero\n      tag_225\n      jumpi\n        /* \"contracts/Staking.sol\":3170:3187  _minStakeAmount_m */\n      sload(0x06)\n        /* \"contracts/Staking.sol\":3159:3166  _amount */\n      dup3\n        /* \"contracts/Staking.sol\":3159:3187  _amount >= _minStakeAmount_m */\n      lt\n      iszero\n        /* \"contracts/Staking.sol\":3151:3204  require(_amount >= _minStakeAmount_m, \"Insufficient\") */\n      tag_226\n      jumpi\n      mload(0x40)\n      0x08c379a000000000000000000000000000000000000000000000000000000000\n      dup2\n      mstore\n      0x04\n      add\n      tag_227\n      swap1\n      tag_228\n      jump\t// in\n    tag_227:\n      mload(0x40)\n      dup1\n      swap2\n      sub\n      swap1\n      revert\n    tag_226:\n        /* \"contracts/Staking.sol\":3135:3511  if (_mode == 0) require(_amount >= _minStakeAmount_m, \"Insufficient\");... */\n      jump(tag_229)\n    tag_225:\n        /* \"contracts/Staking.sol\":3233:3234  1 */\n      0x01\n        /* \"contracts/Staking.sol\":3224:3229  _mode */\n      dup2\n        /* \"contracts/Staking.sol\":3224:3234  _mode == 1 */\n      eq\n        /* \"contracts/Staking.sol\":3220:3511  if (_mode == 1) require(_amount >= _minStakeAmount_c, \"Insufficient\");... */\n      iszero\n      tag_230\n      jumpi\n        /* \"contracts/Staking.sol\":3255:3272  _minStakeAmount_c */\n      sload(0x09)\n        /* \"contracts/Staking.sol\":3244:3251  _amount */\n      dup3\n        /* \"contracts/Staking.sol\":3244:3272  _amount >= _minStakeAmount_c */\n      lt\n      iszero\n        /* \"contracts/Staking.sol\":3236:3289  require(_amount >= _minStakeAmount_c, \"Insufficient\") */\n      tag_231\n      jumpi\n      mload(0x40)\n      0x08c379a000000000000000000000000000000000000000000000000000000000\n      dup2\n      mstore\n      0x04\n      add\n      tag_232\n      swap1\n      tag_228\n      jump\t// in\n    tag_232:\n      mload(0x40)\n      dup1\n      swap2\n      sub\n      swap1\n      revert\n    tag_231:\n        /* \"contracts/Staking.sol\":3220:3511  if (_mode == 1) require(_amount >= _minStakeAmount_c, \"Insufficient\");... */\n      jump(tag_233)\n    tag_230:\n        /* \"contracts/Staking.sol\":3318:3319  2 */\n      0x02\n        /* \"contracts/Staking.sol\":3309:3314  _mode */\n      dup2\n        /* \"contracts/Staking.sol\":3309:3319  _mode == 2 */\n      eq\n        /* \"contracts/Staking.sol\":3305:3511  if (_mode == 2) require(_amount >= _minStakeAmount_s, \"Insufficient\");... */\n      iszero\n      tag_234\n      jumpi\n        /* \"contracts/Staking.sol\":3340:3357  _minStakeAmount_s */\n      sload(0x08)\n        /* \"contracts/Staking.sol\":3329:3336  _amount */\n      dup3\n        /* \"contracts/Staking.sol\":3329:3357  _amount >= _minStakeAmount_s */\n      lt\n      iszero\n        /* \"contracts/Staking.sol\":3321:3374  require(_amount >= _minStakeAmount_s, \"Insufficient\") */\n      tag_235\n      jumpi\n      mload(0x40)\n      0x08c379a000000000000000000000000000000000000000000000000000000000\n      dup2\n      mstore\n      0x04\n      add\n      tag_236\n      swap1\n      tag_228\n      jump\t// in\n    tag_236:\n      mload(0x40)\n      dup1\n      swap2\n      sub\n      swap1\n      revert\n    tag_235:\n        /* \"contracts/Staking.sol\":3305:3511  if (_mode == 2) require(_amount >= _minStakeAmount_s, \"Insufficient\");... */\n      jump(tag_237)\n    tag_234:\n        /* \"contracts/Staking.sol\":3403:3404  3 */\n      0x03\n        /* \"contracts/Staking.sol\":3394:3399  _mode */\n      dup2\n        /* \"contracts/Staking.sol\":3394:3404  _mode == 3 */\n      eq\n        /* \"contracts/Staking.sol\":3390:3511  if (_mode == 3) require(_amount >= _minStakeAmount_g, \"Insufficient\");... */\n      iszero\n      tag_238\n      jumpi\n        /* \"contracts/Staking.sol\":3425:3442  _minStakeAmount_g */\n      sload(0x07)\n        /* \"contracts/Staking.sol\":3414:3421  _amount */\n      dup3\n        /* \"contracts/Staking.sol\":3414:3442  _amount >= _minStakeAmount_g */\n      lt\n      iszero\n        /* \"contracts/Staking.sol\":3406:3459  require(_amount >= _minStakeAmount_g, \"Insufficient\") */\n      tag_239\n      jumpi\n      mload(0x40)\n      0x08c379a000000000000000000000000000000000000000000000000000000000\n      dup2\n      mstore\n      0x04\n      add\n      tag_240\n      swap1\n      tag_228\n      jump\t// in\n    tag_240:\n      mload(0x40)\n      dup1\n      swap2\n      sub\n      swap1\n      revert\n    tag_239:\n        /* \"contracts/Staking.sol\":3390:3511  if (_mode == 3) require(_amount >= _minStakeAmount_g, \"Insufficient\");... */\n      jump(tag_241)\n    tag_238:\n        /* \"contracts/Staking.sol\":3493:3494  0 */\n      0x00\n        /* \"contracts/Staking.sol\":3483:3490  _amount */\n      dup3\n        /* \"contracts/Staking.sol\":3483:3494  _amount < 0 */\n      lt\n        /* \"contracts/Staking.sol\":3475:3511  require(_amount < 0, \"Invalid Mode\") */\n      tag_242\n      jumpi\n      mload(0x40)\n      0x08c379a000000000000000000000000000000000000000000000000000000000\n      dup2\n      mstore\n      0x04\n      add\n      tag_243\n      swap1\n      tag_244\n      jump\t// in\n    tag_243:\n      mload(0x40)\n      dup1\n      swap2\n      sub\n      swap1\n      revert\n    tag_242:\n        /* \"contracts/Staking.sol\":3390:3511  if (_mode == 3) require(_amount >= _minStakeAmount_g, \"Insufficient\");... */\n    tag_241:\n        /* \"contracts/Staking.sol\":3305:3511  if (_mode == 2) require(_amount >= _minStakeAmount_s, \"Insufficient\");... */\n    tag_237:\n        /* \"contracts/Staking.sol\":3220:3511  if (_mode == 1) require(_amount >= _minStakeAmount_c, \"Insufficient\");... */\n    tag_233:\n        /* \"contracts/Staking.sol\":3135:3511  if (_mode == 0) require(_amount >= _minStakeAmount_m, \"Insufficient\");... */\n    tag_229:\n        /* \"contracts/Staking.sol\":3559:3564  _mode */\n      dup1\n        /* \"contracts/Staking.sol\":3532:3539  _staker */\n      0x0b\n        /* \"contracts/Staking.sol\":3532:3551  _staker[msg.sender] */\n      0x00\n        /* \"contracts/Staking.sol\":3540:3550  msg.sender */\n      caller\n        /* \"contracts/Staking.sol\":3532:3551  _staker[msg.sender] */\n      0xffffffffffffffffffffffffffffffffffffffff\n      and\n      0xffffffffffffffffffffffffffffffffffffffff\n      and\n      dup2\n      mstore\n      0x20\n      add\n      swap1\n      dup2\n      mstore\n      0x20\n      add\n      0x00\n      keccak256\n        /* \"contracts/Staking.sol\":3532:3556  _staker[msg.sender].mode */\n      0x02\n      add\n        /* \"contracts/Staking.sol\":3532:3564  _staker[msg.sender].mode = _mode */\n      dup2\n      swap1\n      sstore\n      pop\n        /* \"contracts/Staking.sol\":3612:3627  block.timestamp */\n      timestamp\n        /* \"contracts/Staking.sol\":3575:3582  _staker */\n      0x0b\n        /* \"contracts/Staking.sol\":3575:3594  _staker[msg.sender] */\n      0x00\n        /* \"contracts/Staking.sol\":3583:3593  msg.sender */\n      caller\n        /* \"contracts/Staking.sol\":3575:3594  _staker[msg.sender] */\n      0xffffffffffffffffffffffffffffffffffffffff\n      and\n      0xffffffffffffffffffffffffffffffffffffffff\n      and\n      dup2\n      mstore\n      0x20\n      add\n      swap1\n      dup2\n      mstore\n      0x20\n      add\n      0x00\n      keccak256\n        /* \"contracts/Staking.sol\":3575:3609  _staker[msg.sender].stakeStartTime */\n      0x03\n      add\n        /* \"contracts/Staking.sol\":3575:3627  _staker[msg.sender].stakeStartTime = block.timestamp */\n      dup2\n      swap1\n      sstore\n      pop\n        /* \"contracts/Staking.sol\":3667:3671  0x55 */\n      0x55\n        /* \"contracts/Staking.sol\":3638:3645  _staker */\n      0x0b\n        /* \"contracts/Staking.sol\":3638:3657  _staker[msg.sender] */\n      0x00\n        /* \"contracts/Staking.sol\":3646:3656  msg.sender */\n      caller\n        /* \"contracts/Staking.sol\":3638:3657  _staker[msg.sender] */\n      0xffffffffffffffffffffffffffffffffffffffff\n      and\n      0xffffffffffffffffffffffffffffffffffffffff\n      and\n      dup2\n      mstore\n      0x20\n      add\n      swap1\n      dup2\n      mstore\n      0x20\n      add\n      0x00\n      keccak256\n        /* \"contracts/Staking.sol\":3638:3664  _staker[msg.sender].staked */\n      0x05\n      add\n        /* \"contracts/Staking.sol\":3638:3671  _staker[msg.sender].staked = 0x55 */\n      dup2\n      swap1\n      sstore\n      pop\n        /* \"contracts/Staking.sol\":3682:3690  _stakers */\n      0x0a\n        /* \"contracts/Staking.sol\":3696:3706  msg.sender */\n      caller\n        /* \"contracts/Staking.sol\":3682:3707  _stakers.push(msg.sender) */\n      swap1\n      dup1\n      0x01\n      dup2\n      sload\n      add\n      dup1\n      dup3\n      sstore\n      dup1\n      swap2\n      pop\n      pop\n      0x01\n      swap1\n      sub\n      swap1\n      0x00\n      mstore\n      keccak256(0x00, 0x20)\n      add\n      0x00\n      swap1\n      swap2\n      swap1\n      swap2\n      swap1\n      swap2\n      0x0100\n      exp\n      dup2\n      sload\n      dup2\n      0xffffffffffffffffffffffffffffffffffffffff\n      mul\n      not\n      and\n      swap1\n      dup4\n      0xffffffffffffffffffffffffffffffffffffffff\n      and\n      mul\n      or\n      swap1\n      sstore\n      pop\n        /* \"contracts/Staking.sol\":3718:3732  stake(_amount) */\n      tag_246\n        /* \"contracts/Staking.sol\":3724:3731  _amount */\n      dup3\n        /* \"contracts/Staking.sol\":3718:3723  stake */\n      tag_98\n        /* \"contracts/Staking.sol\":3718:3732  stake(_amount) */\n      jump\t// in\n    tag_246:\n        /* \"contracts/Staking.sol\":2828:3740  function startStaking(uint256 _amount, uint256 _mode) external {... */\n      pop\n      pop\n      jump\t// out\n        /* \"contracts/Staking.sol\":4501:4604  function getNumberofStakers() public view returns (uint256) {... */\n    tag_62:\n        /* \"contracts/Staking.sol\":4552:4559  uint256 */\n      0x00\n        /* \"contracts/Staking.sol\":4581:4589  _stakers */\n      0x0a\n        /* \"contracts/Staking.sol\":4581:4596  _stakers.length */\n      dup1\n      sload\n      swap1\n      pop\n        /* \"contracts/Staking.sol\":4574:4596  return _stakers.length */\n      swap1\n      pop\n        /* \"contracts/Staking.sol\":4501:4604  function getNumberofStakers() public view returns (uint256) {... */\n      swap1\n      jump\t// out\n        /* \"contracts/Staking.sol\":8540:8693  function rewardToHarvest() public returns (uint256){... */\n    tag_65:\n        /* \"contracts/Staking.sol\":8583:8590  uint256 */\n      0x00\n        /* \"contracts/Staking.sol\":8612:8626  updateReward() */\n      tag_249\n        /* \"contracts/Staking.sol\":8612:8624  updateReward */\n      tag_147\n        /* \"contracts/Staking.sol\":8612:8626  updateReward() */\n      jump\t// in\n    tag_249:\n        /* \"contracts/Staking.sol\":8646:8653  _staker */\n      0x0b\n        /* \"contracts/Staking.sol\":8646:8665  _staker[msg.sender] */\n      0x00\n        /* \"contracts/Staking.sol\":8654:8664  msg.sender */\n      caller\n        /* \"contracts/Staking.sol\":8646:8665  _staker[msg.sender] */\n      0xffffffffffffffffffffffffffffffffffffffff\n      and\n      0xffffffffffffffffffffffffffffffffffffffff\n      and\n      dup2\n      mstore\n      0x20\n      add\n      swap1\n      dup2\n      mstore\n      0x20\n      add\n      0x00\n      keccak256\n        /* \"contracts/Staking.sol\":8646:8685  _staker[msg.sender].stakerCurrentReward */\n      0x00\n      add\n      sload\n        /* \"contracts/Staking.sol\":8639:8685  return _staker[msg.sender].stakerCurrentReward */\n      swap1\n      pop\n        /* \"contracts/Staking.sol\":8540:8693  function rewardToHarvest() public returns (uint256){... */\n      swap1\n      jump\t// out\n        /* \"contracts/Staking.sol\":5448:5583  function rewardAmount(address _address) public view returns (uint256) {... */\n    tag_69:\n        /* \"contracts/Staking.sol\":5509:5516  uint256 */\n      0x00\n        /* \"contracts/Staking.sol\":5538:5545  _staker */\n      0x0b\n        /* \"contracts/Staking.sol\":5538:5555  _staker[_address] */\n      0x00\n        /* \"contracts/Staking.sol\":5546:5554  _address */\n      dup4\n        /* \"contracts/Staking.sol\":5538:5555  _staker[_address] */\n      0xffffffffffffffffffffffffffffffffffffffff\n      and\n      0xffffffffffffffffffffffffffffffffffffffff\n      and\n      dup2\n      mstore\n      0x20\n      add\n      swap1\n      dup2\n      mstore\n      0x20\n      add\n      0x00\n      keccak256\n        /* \"contracts/Staking.sol\":5538:5575  _staker[_address].stakerCurrentReward */\n      0x00\n      add\n      sload\n        /* \"contracts/Staking.sol\":5531:5575  return _staker[_address].stakerCurrentReward */\n      swap1\n      pop\n        /* \"contracts/Staking.sol\":5448:5583  function rewardAmount(address _address) public view returns (uint256) {... */\n      swap2\n      swap1\n      pop\n      jump\t// out\n        /* \"contracts/Staking.sol\":7039:7287  function setEventPeriod(uint256 __eventPeriod) external onlyOwner {... */\n    tag_73:\n        /* \"@openzeppelin/contracts/access/Ownable.sol\":1259:1271  _msgSender() */\n      tag_252\n        /* \"@openzeppelin/contracts/access/Ownable.sol\":1259:1269  _msgSender */\n      tag_130\n        /* \"@openzeppelin/contracts/access/Ownable.sol\":1259:1271  _msgSender() */\n      jump\t// in\n    tag_252:\n        /* \"@openzeppelin/contracts/access/Ownable.sol\":1248:1271  owner() == _msgSender() */\n      0xffffffffffffffffffffffffffffffffffffffff\n      and\n        /* \"@openzeppelin/contracts/access/Ownable.sol\":1248:1255  owner() */\n      tag_253\n        /* \"@openzeppelin/contracts/access/Ownable.sol\":1248:1253  owner */\n      tag_83\n        /* \"@openzeppelin/contracts/access/Ownable.sol\":1248:1255  owner() */\n      jump\t// in\n    tag_253:\n        /* \"@openzeppelin/contracts/access/Ownable.sol\":1248:1271  owner() == _msgSender() */\n      0xffffffffffffffffffffffffffffffffffffffff\n      and\n      eq\n        /* \"@openzeppelin/contracts/access/Ownable.sol\":1240:1308  require(owner() == _msgSender(), \"Ownable: caller is not the owner\") */\n      tag_254\n      jumpi\n      mload(0x40)\n      0x08c379a000000000000000000000000000000000000000000000000000000000\n      dup2\n      mstore\n      0x04\n      add\n      tag_255\n      swap1\n      tag_134\n      jump\t// in\n    tag_255:\n      mload(0x40)\n      dup1\n      swap2\n      sub\n      swap1\n      revert\n    tag_254:\n        /* \"contracts/Staking.sol\":7150:7151  0 */\n      0x00\n        /* \"contracts/Staking.sol\":7134:7147  __eventPeriod */\n      dup2\n        /* \"contracts/Staking.sol\":7134:7151  __eventPeriod > 0 */\n      gt\n        /* \"contracts/Staking.sol\":7126:7179  require(__eventPeriod > 0, \"Invalid Lockup Duration\") */\n      tag_257\n      jumpi\n      mload(0x40)\n      0x08c379a000000000000000000000000000000000000000000000000000000000\n      dup2\n      mstore\n      0x04\n      add\n      tag_258\n      swap1\n      tag_259\n      jump\t// in\n    tag_258:\n      mload(0x40)\n      dup1\n      swap2\n      sub\n      swap1\n      revert\n    tag_257:\n        /* \"contracts/Staking.sol\":7207:7232  __eventPeriod.mul(1 days) */\n      tag_260\n        /* \"contracts/Staking.sol\":7225:7231  1 days */\n      0x015180\n        /* \"contracts/Staking.sol\":7207:7220  __eventPeriod */\n      dup3\n        /* \"contracts/Staking.sol\":7207:7224  __eventPeriod.mul */\n      tag_165\n      swap1\n        /* \"contracts/Staking.sol\":7207:7232  __eventPeriod.mul(1 days) */\n      swap2\n      swap1\n      0xffffffff\n      and\n      jump\t// in\n    tag_260:\n        /* \"contracts/Staking.sol\":7192:7204  _eventPeriod */\n      0x02\n        /* \"contracts/Staking.sol\":7192:7232  _eventPeriod = __eventPeriod.mul(1 days) */\n      dup2\n      swap1\n      sstore\n      pop\n        /* \"contracts/Staking.sol\":7250:7279  SetEventPeriod(__eventPeriod) */\n      0x189bda9782663c67a3f95c0aa5455924c711210b00281c60ead2f0dd8dbc924c\n        /* \"contracts/Staking.sol\":7265:7278  __eventPeriod */\n      dup2\n        /* \"contracts/Staking.sol\":7250:7279  SetEventPeriod(__eventPeriod) */\n      mload(0x40)\n      tag_261\n      swap2\n      swap1\n      tag_39\n      jump\t// in\n    tag_261:\n      mload(0x40)\n      dup1\n      swap2\n      sub\n      swap1\n      log1\n        /* \"contracts/Staking.sol\":7039:7287  function setEventPeriod(uint256 __eventPeriod) external onlyOwner {... */\n      pop\n      jump\t// out\n        /* \"@openzeppelin/contracts/access/Ownable.sol\":1668:1769  function renounceOwnership() public virtual onlyOwner {... */\n    tag_75:\n        /* \"@openzeppelin/contracts/access/Ownable.sol\":1259:1271  _msgSender() */\n      tag_263\n        /* \"@openzeppelin/contracts/access/Ownable.sol\":1259:1269  _msgSender */\n      tag_130\n        /* \"@openzeppelin/contracts/access/Ownable.sol\":1259:1271  _msgSender() */\n      jump\t// in\n    tag_263:\n        /* \"@openzeppelin/contracts/access/Ownable.sol\":1248:1271  owner() == _msgSender() */\n      0xffffffffffffffffffffffffffffffffffffffff\n      and\n        /* \"@openzeppelin/contracts/access/Ownable.sol\":1248:1255  owner() */\n      tag_264\n        /* \"@openzeppelin/contracts/access/Ownable.sol\":1248:1253  owner */\n      tag_83\n        /* \"@openzeppelin/contracts/access/Ownable.sol\":1248:1255  owner() */\n      jump\t// in\n    tag_264:\n        /* \"@openzeppelin/contracts/access/Ownable.sol\":1248:1271  owner() == _msgSender() */\n      0xffffffffffffffffffffffffffffffffffffffff\n      and\n      eq\n        /* \"@openzeppelin/contracts/access/Ownable.sol\":1240:1308  require(owner() == _msgSender(), \"Ownable: caller is not the owner\") */\n      tag_265\n      jumpi\n      mload(0x40)\n      0x08c379a000000000000000000000000000000000000000000000000000000000\n      dup2\n      mstore\n      0x04\n      add\n      tag_266\n      swap1\n      tag_134\n      jump\t// in\n    tag_266:\n      mload(0x40)\n      dup1\n      swap2\n      sub\n      swap1\n      revert\n    tag_265:\n        /* \"@openzeppelin/contracts/access/Ownable.sol\":1732:1762  _transferOwnership(address(0)) */\n      tag_268\n        /* \"@openzeppelin/contracts/access/Ownable.sol\":1759:1760  0 */\n      0x00\n        /* \"@openzeppelin/contracts/access/Ownable.sol\":1732:1750  _transferOwnership */\n      tag_269\n        /* \"@openzeppelin/contracts/access/Ownable.sol\":1732:1762  _transferOwnership(address(0)) */\n      jump\t// in\n    tag_268:\n        /* \"@openzeppelin/contracts/access/Ownable.sol\":1668:1769  function renounceOwnership() public virtual onlyOwner {... */\n      jump\t// out\n        /* \"contracts/Staking.sol\":5591:5685  function getRewardRate() public view returns (uint256) {... */\n    tag_77:\n        /* \"contracts/Staking.sol\":5637:5644  uint256 */\n      0x00\n        /* \"contracts/Staking.sol\":5666:5677  _rewardRate */\n      sload(0x03)\n        /* \"contracts/Staking.sol\":5659:5677  return _rewardRate */\n      swap1\n      pop\n        /* \"contracts/Staking.sol\":5591:5685  function getRewardRate() public view returns (uint256) {... */\n      swap1\n      jump\t// out\n        /* \"contracts/Staking.sol\":1213:1239  uint256 public totalStaked */\n    tag_80:\n      sload(0x0c)\n      dup2\n      jump\t// out\n        /* \"@openzeppelin/contracts/access/Ownable.sol\":1036:1121  function owner() public view virtual returns (address) {... */\n    tag_83:\n        /* \"@openzeppelin/contracts/access/Ownable.sol\":1082:1089  address */\n      0x00\n        /* \"@openzeppelin/contracts/access/Ownable.sol\":1108:1114  _owner */\n      dup1\n      0x00\n      swap1\n      sload\n      swap1\n      0x0100\n      exp\n      swap1\n      div\n      0xffffffffffffffffffffffffffffffffffffffff\n      and\n        /* \"@openzeppelin/contracts/access/Ownable.sol\":1101:1114  return _owner */\n      swap1\n      pop\n        /* \"@openzeppelin/contracts/access/Ownable.sol\":1036:1121  function owner() public view virtual returns (address) {... */\n      swap1\n      jump\t// out\n        /* \"contracts/Staking.sol\":9331:9759  function getMinimumStakingAmount(uint256 _mode) public view returns (uint256) {... */\n    tag_88:\n        /* \"contracts/Staking.sol\":9400:9407  uint256 */\n      0x00\n        /* \"contracts/Staking.sol\":9430:9453  uint256 _minStakeAmount */\n      dup1\n        /* \"contracts/Staking.sol\":9456:9457  0 */\n      0x00\n        /* \"contracts/Staking.sol\":9430:9457  uint256 _minStakeAmount = 0 */\n      swap1\n      pop\n        /* \"contracts/Staking.sol\":9483:9484  0 */\n      0x00\n        /* \"contracts/Staking.sol\":9474:9479  _mode */\n      dup4\n        /* \"contracts/Staking.sol\":9474:9484  _mode == 0 */\n      eq\n        /* \"contracts/Staking.sol\":9474:9498  _mode == 0 || _mode == 2 */\n      dup1\n      tag_273\n      jumpi\n      pop\n        /* \"contracts/Staking.sol\":9497:9498  2 */\n      0x02\n        /* \"contracts/Staking.sol\":9488:9493  _mode */\n      dup4\n        /* \"contracts/Staking.sol\":9488:9498  _mode == 2 */\n      eq\n        /* \"contracts/Staking.sol\":9474:9498  _mode == 0 || _mode == 2 */\n    tag_273:\n        /* \"contracts/Staking.sol\":9470:9716  if (_mode == 0 || _mode == 2) _minStakeAmount = _minStakeAmount_m;... */\n      iszero\n      tag_274\n      jumpi\n        /* \"contracts/Staking.sol\":9518:9535  _minStakeAmount_m */\n      sload(0x06)\n        /* \"contracts/Staking.sol\":9500:9535  _minStakeAmount = _minStakeAmount_m */\n      swap1\n      pop\n        /* \"contracts/Staking.sol\":9470:9716  if (_mode == 0 || _mode == 2) _minStakeAmount = _minStakeAmount_m;... */\n      jump(tag_275)\n    tag_274:\n        /* \"contracts/Staking.sol\":9564:9565  1 */\n      0x01\n        /* \"contracts/Staking.sol\":9555:9560  _mode */\n      dup4\n        /* \"contracts/Staking.sol\":9555:9565  _mode == 1 */\n      eq\n        /* \"contracts/Staking.sol\":9551:9716  if (_mode == 1) _minStakeAmount = _minStakeAmount_c;... */\n      iszero\n      tag_276\n      jumpi\n        /* \"contracts/Staking.sol\":9585:9602  _minStakeAmount_c */\n      sload(0x09)\n        /* \"contracts/Staking.sol\":9567:9602  _minStakeAmount = _minStakeAmount_c */\n      swap1\n      pop\n        /* \"contracts/Staking.sol\":9551:9716  if (_mode == 1) _minStakeAmount = _minStakeAmount_c;... */\n      jump(tag_277)\n    tag_276:\n        /* \"contracts/Staking.sol\":9631:9632  3 */\n      0x03\n        /* \"contracts/Staking.sol\":9622:9627  _mode */\n      dup4\n        /* \"contracts/Staking.sol\":9622:9632  _mode == 3 */\n      eq\n        /* \"contracts/Staking.sol\":9618:9716  if (_mode == 3) _minStakeAmount = _minStakeAmount_g;... */\n      iszero\n      tag_278\n      jumpi\n        /* \"contracts/Staking.sol\":9652:9669  _minStakeAmount_g */\n      sload(0x07)\n        /* \"contracts/Staking.sol\":9634:9669  _minStakeAmount = _minStakeAmount_g */\n      swap1\n      pop\n        /* \"contracts/Staking.sol\":9618:9716  if (_mode == 3) _minStakeAmount = _minStakeAmount_g;... */\n      jump(tag_279)\n    tag_278:\n        /* \"contracts/Staking.sol\":9698:9699  1 */\n      0x01\n        /* \"contracts/Staking.sol\":9694:9695  0 */\n      0x00\n        /* \"contracts/Staking.sol\":9694:9699  0 > 1 */\n      gt\n        /* \"contracts/Staking.sol\":9685:9716  require (0 > 1, \"Invalid Mode\") */\n      tag_280\n      jumpi\n      mload(0x40)\n      0x08c379a000000000000000000000000000000000000000000000000000000000\n      dup2\n      mstore\n      0x04\n      add\n      tag_281\n      swap1\n      tag_244\n      jump\t// in\n    tag_281:\n      mload(0x40)\n      dup1\n      swap2\n      sub\n      swap1\n      revert\n    tag_280:\n        /* \"contracts/Staking.sol\":9618:9716  if (_mode == 3) _minStakeAmount = _minStakeAmount_g;... */\n    tag_279:\n        /* \"contracts/Staking.sol\":9551:9716  if (_mode == 1) _minStakeAmount = _minStakeAmount_c;... */\n    tag_277:\n        /* \"contracts/Staking.sol\":9470:9716  if (_mode == 0 || _mode == 2) _minStakeAmount = _minStakeAmount_m;... */\n    tag_275:\n        /* \"contracts/Staking.sol\":9736:9751  _minStakeAmount */\n      dup1\n        /* \"contracts/Staking.sol\":9729:9751  return _minStakeAmount */\n      swap2\n      pop\n      pop\n        /* \"contracts/Staking.sol\":9331:9759  function getMinimumStakingAmount(uint256 _mode) public view returns (uint256) {... */\n      swap2\n      swap1\n      pop\n      jump\t// out\n        /* \"contracts/Staking.sol\":7295:7569  function setUnstakingFeeRate(uint256 __unstakingFeeRate) external onlyOwner {... */\n    tag_92:\n        /* \"@openzeppelin/contracts/access/Ownable.sol\":1259:1271  _msgSender() */\n      tag_283\n        /* \"@openzeppelin/contracts/access/Ownable.sol\":1259:1269  _msgSender */\n      tag_130\n        /* \"@openzeppelin/contracts/access/Ownable.sol\":1259:1271  _msgSender() */\n      jump\t// in\n    tag_283:\n        /* \"@openzeppelin/contracts/access/Ownable.sol\":1248:1271  owner() == _msgSender() */\n      0xffffffffffffffffffffffffffffffffffffffff\n      and\n        /* \"@openzeppelin/contracts/access/Ownable.sol\":1248:1255  owner() */\n      tag_284\n        /* \"@openzeppelin/contracts/access/Ownable.sol\":1248:1253  owner */\n      tag_83\n        /* \"@openzeppelin/contracts/access/Ownable.sol\":1248:1255  owner() */\n      jump\t// in\n    tag_284:\n        /* \"@openzeppelin/contracts/access/Ownable.sol\":1248:1271  owner() == _msgSender() */\n      0xffffffffffffffffffffffffffffffffffffffff\n      and\n      eq\n        /* \"@openzeppelin/contracts/access/Ownable.sol\":1240:1308  require(owner() == _msgSender(), \"Ownable: caller is not the owner\") */\n      tag_285\n      jumpi\n      mload(0x40)\n      0x08c379a000000000000000000000000000000000000000000000000000000000\n      dup2\n      mstore\n      0x04\n      add\n      tag_286\n      swap1\n      tag_134\n      jump\t// in\n    tag_286:\n      mload(0x40)\n      dup1\n      swap2\n      sub\n      swap1\n      revert\n    tag_285:\n        /* \"contracts/Staking.sol\":7421:7422  0 */\n      0x00\n        /* \"contracts/Staking.sol\":7400:7418  __unstakingFeeRate */\n      dup2\n        /* \"contracts/Staking.sol\":7400:7422  __unstakingFeeRate > 0 */\n      gt\n        /* \"contracts/Staking.sol\":7392:7453  require(__unstakingFeeRate > 0, \"Invalid Unstaking Fee Rate\") */\n      tag_288\n      jumpi\n      mload(0x40)\n      0x08c379a000000000000000000000000000000000000000000000000000000000\n      dup2\n      mstore\n      0x04\n      add\n      tag_289\n      swap1\n      tag_290\n      jump\t// in\n    tag_289:\n      mload(0x40)\n      dup1\n      swap2\n      sub\n      swap1\n      revert\n    tag_288:\n        /* \"contracts/Staking.sol\":7486:7504  __unstakingFeeRate */\n      dup1\n        /* \"contracts/Staking.sol\":7466:7483  _unstakingFeeRate */\n      0x01\n        /* \"contracts/Staking.sol\":7466:7504  _unstakingFeeRate = __unstakingFeeRate */\n      dup2\n      swap1\n      sstore\n      pop\n        /* \"contracts/Staking.sol\":7522:7561  SetUnstakingFeeRate(__unstakingFeeRate) */\n      0x150c688dd7595bf7862b8ab1fe46756450eb7d731037942b3bbc46f3f0e21b81\n        /* \"contracts/Staking.sol\":7542:7560  __unstakingFeeRate */\n      dup2\n        /* \"contracts/Staking.sol\":7522:7561  SetUnstakingFeeRate(__unstakingFeeRate) */\n      mload(0x40)\n      tag_291\n      swap2\n      swap1\n      tag_39\n      jump\t// in\n    tag_291:\n      mload(0x40)\n      dup1\n      swap2\n      sub\n      swap1\n      log1\n        /* \"contracts/Staking.sol\":7295:7569  function setUnstakingFeeRate(uint256 __unstakingFeeRate) external onlyOwner {... */\n      pop\n      jump\t// out\n        /* \"contracts/Staking.sol\":6804:7031  function setRewardRate(uint256 __rewardRate) external onlyOwner {... */\n    tag_95:\n        /* \"@openzeppelin/contracts/access/Ownable.sol\":1259:1271  _msgSender() */\n      tag_293\n        /* \"@openzeppelin/contracts/access/Ownable.sol\":1259:1269  _msgSender */\n      tag_130\n        /* \"@openzeppelin/contracts/access/Ownable.sol\":1259:1271  _msgSender() */\n      jump\t// in\n    tag_293:\n        /* \"@openzeppelin/contracts/access/Ownable.sol\":1248:1271  owner() == _msgSender() */\n      0xffffffffffffffffffffffffffffffffffffffff\n      and\n        /* \"@openzeppelin/contracts/access/Ownable.sol\":1248:1255  owner() */\n      tag_294\n        /* \"@openzeppelin/contracts/access/Ownable.sol\":1248:1253  owner */\n      tag_83\n        /* \"@openzeppelin/contracts/access/Ownable.sol\":1248:1255  owner() */\n      jump\t// in\n    tag_294:\n        /* \"@openzeppelin/contracts/access/Ownable.sol\":1248:1271  owner() == _msgSender() */\n      0xffffffffffffffffffffffffffffffffffffffff\n      and\n      eq\n        /* \"@openzeppelin/contracts/access/Ownable.sol\":1240:1308  require(owner() == _msgSender(), \"Ownable: caller is not the owner\") */\n      tag_295\n      jumpi\n      mload(0x40)\n      0x08c379a000000000000000000000000000000000000000000000000000000000\n      dup2\n      mstore\n      0x04\n      add\n      tag_296\n      swap1\n      tag_134\n      jump\t// in\n    tag_296:\n      mload(0x40)\n      dup1\n      swap2\n      sub\n      swap1\n      revert\n    tag_295:\n        /* \"contracts/Staking.sol\":6912:6913  0 */\n      0x00\n        /* \"contracts/Staking.sol\":6897:6909  __rewardRate */\n      dup2\n        /* \"contracts/Staking.sol\":6897:6913  __rewardRate > 0 */\n      gt\n        /* \"contracts/Staking.sol\":6889:6931  require(__rewardRate > 0, \"Invalid value\") */\n      tag_298\n      jumpi\n      mload(0x40)\n      0x08c379a000000000000000000000000000000000000000000000000000000000\n      dup2\n      mstore\n      0x04\n      add\n      tag_299\n      swap1\n      tag_300\n      jump\t// in\n    tag_299:\n      mload(0x40)\n      dup1\n      swap2\n      sub\n      swap1\n      revert\n    tag_298:\n        /* \"contracts/Staking.sol\":6966:6978  __rewardRate */\n      dup1\n        /* \"contracts/Staking.sol\":6952:6963  _rewardRate */\n      0x03\n        /* \"contracts/Staking.sol\":6952:6978  _rewardRate = __rewardRate */\n      dup2\n      swap1\n      sstore\n      pop\n        /* \"contracts/Staking.sol\":6996:7023  SetRewardRate(__rewardRate) */\n      0x1946fb78c7ca778b54d82cabaac5ba67cf446f58d0ff1f8ceaebb6150e54e44f\n        /* \"contracts/Staking.sol\":7010:7022  __rewardRate */\n      dup2\n        /* \"contracts/Staking.sol\":6996:7023  SetRewardRate(__rewardRate) */\n      mload(0x40)\n      tag_301\n      swap2\n      swap1\n      tag_39\n      jump\t// in\n    tag_301:\n      mload(0x40)\n      dup1\n      swap2\n      sub\n      swap1\n      log1\n        /* \"contracts/Staking.sol\":6804:7031  function setRewardRate(uint256 __rewardRate) external onlyOwner {... */\n      pop\n      jump\t// out\n        /* \"contracts/Staking.sol\":3808:4390  function stake(uint256 _amount) public{... */\n    tag_98:\n        /* \"contracts/Staking.sol\":3885:3886  0 */\n      0x00\n        /* \"contracts/Staking.sol\":3875:3882  _amount */\n      dup2\n        /* \"contracts/Staking.sol\":3875:3886  _amount > 0 */\n      gt\n        /* \"contracts/Staking.sol\":3867:3922  require(_amount > 0, \"Amount should be greater than 0\") */\n      tag_303\n      jumpi\n      mload(0x40)\n      0x08c379a000000000000000000000000000000000000000000000000000000000\n      dup2\n      mstore\n      0x04\n      add\n      tag_304\n      swap1\n      tag_142\n      jump\t// in\n    tag_304:\n      mload(0x40)\n      dup1\n      swap2\n      sub\n      swap1\n      revert\n    tag_303:\n        /* \"contracts/Staking.sol\":3971:3978  _amount */\n      dup1\n        /* \"contracts/Staking.sol\":3941:3946  token */\n      0x0d\n      0x00\n      swap1\n      sload\n      swap1\n      0x0100\n      exp\n      swap1\n      div\n      0xffffffffffffffffffffffffffffffffffffffff\n      and\n        /* \"contracts/Staking.sol\":3941:3956  token.balanceOf */\n      0xffffffffffffffffffffffffffffffffffffffff\n      and\n      0x70a08231\n        /* \"contracts/Staking.sol\":3957:3967  msg.sender */\n      caller\n        /* \"contracts/Staking.sol\":3941:3968  token.balanceOf(msg.sender) */\n      mload(0x40)\n      dup3\n      0xffffffff\n      and\n      0xe0\n      shl\n      dup2\n      mstore\n      0x04\n      add\n      tag_305\n      swap2\n      swap1\n      tag_85\n      jump\t// in\n    tag_305:\n      0x20\n      mload(0x40)\n      dup1\n      dup4\n      sub\n      dup2\n      dup7\n      dup1\n      extcodesize\n      iszero\n      dup1\n      iszero\n      tag_306\n      jumpi\n      0x00\n      dup1\n      revert\n    tag_306:\n      pop\n      gas\n      staticcall\n      iszero\n      dup1\n      iszero\n      tag_308\n      jumpi\n      returndatasize\n      0x00\n      dup1\n      returndatacopy\n      revert(0x00, returndatasize)\n    tag_308:\n      pop\n      pop\n      pop\n      pop\n      mload(0x40)\n      returndatasize\n      not(0x1f)\n      0x1f\n      dup3\n      add\n      and\n      dup3\n      add\n      dup1\n      0x40\n      mstore\n      pop\n      dup2\n      add\n      swap1\n      tag_309\n      swap2\n      swap1\n      tag_183\n      jump\t// in\n    tag_309:\n        /* \"contracts/Staking.sol\":3941:3978  token.balanceOf(msg.sender) > _amount */\n      gt\n        /* \"contracts/Staking.sol\":3933:3996  require(token.balanceOf(msg.sender) > _amount, \"Insufficient!\") */\n      tag_310\n      jumpi\n      mload(0x40)\n      0x08c379a000000000000000000000000000000000000000000000000000000000\n      dup2\n      mstore\n      0x04\n      add\n      tag_311\n      swap1\n      tag_221\n      jump\t// in\n    tag_311:\n      mload(0x40)\n      dup1\n      swap2\n      sub\n      swap1\n      revert\n    tag_310:\n        /* \"contracts/Staking.sol\":4045:4049  0x55 */\n      0x55\n        /* \"contracts/Staking.sol\":4015:4022  _staker */\n      0x0b\n        /* \"contracts/Staking.sol\":4015:4034  _staker[msg.sender] */\n      0x00\n        /* \"contracts/Staking.sol\":4023:4033  msg.sender */\n      caller\n        /* \"contracts/Staking.sol\":4015:4034  _staker[msg.sender] */\n      0xffffffffffffffffffffffffffffffffffffffff\n      and\n      0xffffffffffffffffffffffffffffffffffffffff\n      and\n      dup2\n      mstore\n      0x20\n      add\n      swap1\n      dup2\n      mstore\n      0x20\n      add\n      0x00\n      keccak256\n        /* \"contracts/Staking.sol\":4015:4041  _staker[msg.sender].staked */\n      0x05\n      add\n      sload\n        /* \"contracts/Staking.sol\":4015:4049  _staker[msg.sender].staked == 0x55 */\n      eq\n        /* \"contracts/Staking.sol\":4007:4075  require(_staker[msg.sender].staked == 0x55, \"Error: invalid staker\") */\n      tag_312\n      jumpi\n      mload(0x40)\n      0x08c379a000000000000000000000000000000000000000000000000000000000\n      dup2\n      mstore\n      0x04\n      add\n      tag_313\n      swap1\n      tag_314\n      jump\t// in\n    tag_313:\n      mload(0x40)\n      dup1\n      swap2\n      sub\n      swap1\n      revert\n    tag_312:\n        /* \"contracts/Staking.sol\":4096:4110  updateReward() */\n      tag_315\n        /* \"contracts/Staking.sol\":4096:4108  updateReward */\n      tag_147\n        /* \"contracts/Staking.sol\":4096:4110  updateReward() */\n      jump\t// in\n    tag_315:\n        /* \"contracts/Staking.sol\":4131:4189  token.safeTransferFrom(msg.sender, address(this), _amount) */\n      tag_316\n        /* \"contracts/Staking.sol\":4154:4164  msg.sender */\n      caller\n        /* \"contracts/Staking.sol\":4174:4178  this */\n      address\n        /* \"contracts/Staking.sol\":4181:4188  _amount */\n      dup4\n        /* \"contracts/Staking.sol\":4131:4136  token */\n      0x0d\n      0x00\n      swap1\n      sload\n      swap1\n      0x0100\n      exp\n      swap1\n      div\n      0xffffffffffffffffffffffffffffffffffffffff\n      and\n        /* \"contracts/Staking.sol\":4131:4153  token.safeTransferFrom */\n      0xffffffffffffffffffffffffffffffffffffffff\n      and\n      tag_317\n      swap1\n        /* \"contracts/Staking.sol\":4131:4189  token.safeTransferFrom(msg.sender, address(this), _amount) */\n      swap4\n      swap3\n      swap2\n      swap1\n      0xffffffff\n      and\n      jump\t// in\n    tag_316:\n        /* \"contracts/Staking.sol\":4235:4280  _staker[msg.sender].stakedAmount.add(_amount) */\n      tag_318\n        /* \"contracts/Staking.sol\":4272:4279  _amount */\n      dup2\n        /* \"contracts/Staking.sol\":4235:4242  _staker */\n      0x0b\n        /* \"contracts/Staking.sol\":4235:4254  _staker[msg.sender] */\n      0x00\n        /* \"contracts/Staking.sol\":4243:4253  msg.sender */\n      caller\n        /* \"contracts/Staking.sol\":4235:4254  _staker[msg.sender] */\n      0xffffffffffffffffffffffffffffffffffffffff\n      and\n      0xffffffffffffffffffffffffffffffffffffffff\n      and\n      dup2\n      mstore\n      0x20\n      add\n      swap1\n      dup2\n      mstore\n      0x20\n      add\n      0x00\n      keccak256\n        /* \"contracts/Staking.sol\":4235:4267  _staker[msg.sender].stakedAmount */\n      0x01\n      add\n      sload\n        /* \"contracts/Staking.sol\":4235:4271  _staker[msg.sender].stakedAmount.add */\n      tag_154\n      swap1\n        /* \"contracts/Staking.sol\":4235:4280  _staker[msg.sender].stakedAmount.add(_amount) */\n      swap2\n      swap1\n      0xffffffff\n      and\n      jump\t// in\n    tag_318:\n        /* \"contracts/Staking.sol\":4200:4207  _staker */\n      0x0b\n        /* \"contracts/Staking.sol\":4200:4219  _staker[msg.sender] */\n      0x00\n        /* \"contracts/Staking.sol\":4208:4218  msg.sender */\n      caller\n        /* \"contracts/Staking.sol\":4200:4219  _staker[msg.sender] */\n      0xffffffffffffffffffffffffffffffffffffffff\n      and\n      0xffffffffffffffffffffffffffffffffffffffff\n      and\n      dup2\n      mstore\n      0x20\n      add\n      swap1\n      dup2\n      mstore\n      0x20\n      add\n      0x00\n      keccak256\n        /* \"contracts/Staking.sol\":4200:4232  _staker[msg.sender].stakedAmount */\n      0x01\n      add\n        /* \"contracts/Staking.sol\":4200:4280  _staker[msg.sender].stakedAmount = _staker[msg.sender].stakedAmount.add(_amount) */\n      dup2\n      swap1\n      sstore\n      pop\n        /* \"contracts/Staking.sol\":4305:4329  totalStaked.add(_amount) */\n      tag_319\n        /* \"contracts/Staking.sol\":4321:4328  _amount */\n      dup2\n        /* \"contracts/Staking.sol\":4305:4316  totalStaked */\n      sload(0x0c)\n        /* \"contracts/Staking.sol\":4305:4320  totalStaked.add */\n      tag_154\n      swap1\n        /* \"contracts/Staking.sol\":4305:4329  totalStaked.add(_amount) */\n      swap2\n      swap1\n      0xffffffff\n      and\n      jump\t// in\n    tag_319:\n        /* \"contracts/Staking.sol\":4291:4302  totalStaked */\n      0x0c\n        /* \"contracts/Staking.sol\":4291:4329  totalStaked = totalStaked.add(_amount) */\n      dup2\n      swap1\n      sstore\n      pop\n        /* \"contracts/Staking.sol\":4355:4382  Staked(msg.sender, _amount) */\n      0x9e71bc8eea02a63969f509818f2dafb9254532904319f9dbda79b67bd34a5f3d\n        /* \"contracts/Staking.sol\":4362:4372  msg.sender */\n      caller\n        /* \"contracts/Staking.sol\":4374:4381  _amount */\n      dup3\n        /* \"contracts/Staking.sol\":4355:4382  Staked(msg.sender, _amount) */\n      mload(0x40)\n      tag_320\n      swap3\n      swap2\n      swap1\n      tag_169\n      jump\t// in\n    tag_320:\n      mload(0x40)\n      dup1\n      swap2\n      sub\n      swap1\n      log1\n        /* \"contracts/Staking.sol\":3808:4390  function stake(uint256 _amount) public{... */\n      pop\n      jump\t// out\n        /* \"contracts/Staking.sol\":8307:8477  function setGoldMinAmount(uint256 _minAmount) external onlyOwner {... */\n    tag_101:\n        /* \"@openzeppelin/contracts/access/Ownable.sol\":1259:1271  _msgSender() */\n      tag_322\n        /* \"@openzeppelin/contracts/access/Ownable.sol\":1259:1269  _msgSender */\n      tag_130\n        /* \"@openzeppelin/contracts/access/Ownable.sol\":1259:1271  _msgSender() */\n      jump\t// in\n    tag_322:\n        /* \"@openzeppelin/contracts/access/Ownable.sol\":1248:1271  owner() == _msgSender() */\n      0xffffffffffffffffffffffffffffffffffffffff\n      and\n        /* \"@openzeppelin/contracts/access/Ownable.sol\":1248:1255  owner() */\n      tag_323\n        /* \"@openzeppelin/contracts/access/Ownable.sol\":1248:1253  owner */\n      tag_83\n        /* \"@openzeppelin/contracts/access/Ownable.sol\":1248:1255  owner() */\n      jump\t// in\n    tag_323:\n        /* \"@openzeppelin/contracts/access/Ownable.sol\":1248:1271  owner() == _msgSender() */\n      0xffffffffffffffffffffffffffffffffffffffff\n      and\n      eq\n        /* \"@openzeppelin/contracts/access/Ownable.sol\":1240:1308  require(owner() == _msgSender(), \"Ownable: caller is not the owner\") */\n      tag_324\n      jumpi\n      mload(0x40)\n      0x08c379a000000000000000000000000000000000000000000000000000000000\n      dup2\n      mstore\n      0x04\n      add\n      tag_325\n      swap1\n      tag_134\n      jump\t// in\n    tag_325:\n      mload(0x40)\n      dup1\n      swap2\n      sub\n      swap1\n      revert\n    tag_324:\n        /* \"contracts/Staking.sol\":8407:8408  0 */\n      0x00\n        /* \"contracts/Staking.sol\":8394:8404  _minAmount */\n      dup2\n        /* \"contracts/Staking.sol\":8394:8408  _minAmount > 0 */\n      gt\n        /* \"contracts/Staking.sol\":8385:8426  require (_minAmount > 0, \"Can't be zero\") */\n      tag_327\n      jumpi\n      mload(0x40)\n      0x08c379a000000000000000000000000000000000000000000000000000000000\n      dup2\n      mstore\n      0x04\n      add\n      tag_328\n      swap1\n      tag_138\n      jump\t// in\n    tag_328:\n      mload(0x40)\n      dup1\n      swap2\n      sub\n      swap1\n      revert\n    tag_327:\n        /* \"contracts/Staking.sol\":8459:8469  _minAmount */\n      dup1\n        /* \"contracts/Staking.sol\":8439:8456  _minStakeAmount_g */\n      0x07\n        /* \"contracts/Staking.sol\":8439:8469  _minStakeAmount_g = _minAmount */\n      dup2\n      swap1\n      sstore\n      pop\n        /* \"contracts/Staking.sol\":8307:8477  function setGoldMinAmount(uint256 _minAmount) external onlyOwner {... */\n      pop\n      jump\t// out\n        /* \"contracts/Staking.sol\":4612:4746  function getStakerMode(address _address) public view returns (uint256) {... */\n    tag_104:\n        /* \"contracts/Staking.sol\":4674:4681  uint256 */\n      0x00\n        /* \"contracts/Staking.sol\":4729:4730  0 */\n      dup1\n        /* \"contracts/Staking.sol\":4703:4710  _staker */\n      0x0b\n        /* \"contracts/Staking.sol\":4703:4720  _staker[_address] */\n      0x00\n        /* \"contracts/Staking.sol\":4711:4719  _address */\n      dup5\n        /* \"contracts/Staking.sol\":4703:4720  _staker[_address] */\n      0xffffffffffffffffffffffffffffffffffffffff\n      and\n      0xffffffffffffffffffffffffffffffffffffffff\n      and\n      dup2\n      mstore\n      0x20\n      add\n      swap1\n      dup2\n      mstore\n      0x20\n      add\n      0x00\n      keccak256\n        /* \"contracts/Staking.sol\":4703:4725  _staker[_address].mode */\n      0x02\n      add\n      sload\n        /* \"contracts/Staking.sol\":4703:4730  _staker[_address].mode == 0 */\n      eq\n        /* \"contracts/Staking.sol\":4703:4738  _staker[_address].mode == 0 ? 0 : 1 */\n      tag_330\n      jumpi\n        /* \"contracts/Staking.sol\":4737:4738  1 */\n      0x01\n        /* \"contracts/Staking.sol\":4703:4738  _staker[_address].mode == 0 ? 0 : 1 */\n      jump(tag_331)\n    tag_330:\n        /* \"contracts/Staking.sol\":4733:4734  0 */\n      0x00\n        /* \"contracts/Staking.sol\":4703:4738  _staker[_address].mode == 0 ? 0 : 1 */\n    tag_331:\n        /* \"contracts/Staking.sol\":4696:4738  return _staker[_address].mode == 0 ? 0 : 1 */\n      0xff\n      and\n      swap1\n      pop\n        /* \"contracts/Staking.sol\":4612:4746  function getStakerMode(address _address) public view returns (uint256) {... */\n      swap2\n      swap1\n      pop\n      jump\t// out\n        /* \"contracts/Staking.sol\":7947:8119  function setCopperMinAmount(uint256 _minAmount) external onlyOwner {... */\n    tag_108:\n        /* \"@openzeppelin/contracts/access/Ownable.sol\":1259:1271  _msgSender() */\n      tag_333\n        /* \"@openzeppelin/contracts/access/Ownable.sol\":1259:1269  _msgSender */\n      tag_130\n        /* \"@openzeppelin/contracts/access/Ownable.sol\":1259:1271  _msgSender() */\n      jump\t// in\n    tag_333:\n        /* \"@openzeppelin/contracts/access/Ownable.sol\":1248:1271  owner() == _msgSender() */\n      0xffffffffffffffffffffffffffffffffffffffff\n      and\n        /* \"@openzeppelin/contracts/access/Ownable.sol\":1248:1255  owner() */\n      tag_334\n        /* \"@openzeppelin/contracts/access/Ownable.sol\":1248:1253  owner */\n      tag_83\n        /* \"@openzeppelin/contracts/access/Ownable.sol\":1248:1255  owner() */\n      jump\t// in\n    tag_334:\n        /* \"@openzeppelin/contracts/access/Ownable.sol\":1248:1271  owner() == _msgSender() */\n      0xffffffffffffffffffffffffffffffffffffffff\n      and\n      eq\n        /* \"@openzeppelin/contracts/access/Ownable.sol\":1240:1308  require(owner() == _msgSender(), \"Ownable: caller is not the owner\") */\n      tag_335\n      jumpi\n      mload(0x40)\n      0x08c379a000000000000000000000000000000000000000000000000000000000\n      dup2\n      mstore\n      0x04\n      add\n      tag_336\n      swap1\n      tag_134\n      jump\t// in\n    tag_336:\n      mload(0x40)\n      dup1\n      swap2\n      sub\n      swap1\n      revert\n    tag_335:\n        /* \"contracts/Staking.sol\":8049:8050  0 */\n      0x00\n        /* \"contracts/Staking.sol\":8036:8046  _minAmount */\n      dup2\n        /* \"contracts/Staking.sol\":8036:8050  _minAmount > 0 */\n      gt\n        /* \"contracts/Staking.sol\":8027:8068  require (_minAmount > 0, \"Can't be zero\") */\n      tag_338\n      jumpi\n      mload(0x40)\n      0x08c379a000000000000000000000000000000000000000000000000000000000\n      dup2\n      mstore\n      0x04\n      add\n      tag_339\n      swap1\n      tag_138\n      jump\t// in\n    tag_339:\n      mload(0x40)\n      dup1\n      swap2\n      sub\n      swap1\n      revert\n    tag_338:\n        /* \"contracts/Staking.sol\":8101:8111  _minAmount */\n      dup1\n        /* \"contracts/Staking.sol\":8081:8098  _minStakeAmount_c */\n      0x09\n        /* \"contracts/Staking.sol\":8081:8111  _minStakeAmount_c = _minAmount */\n      dup2\n      swap1\n      sstore\n      pop\n        /* \"contracts/Staking.sol\":7947:8119  function setCopperMinAmount(uint256 _minAmount) external onlyOwner {... */\n      pop\n      jump\t// out\n        /* \"contracts/Staking.sol\":7755:7939  function setThreeMonthMinAmount(uint256 _minAmount) external onlyOwner {... */\n    tag_111:\n        /* \"@openzeppelin/contracts/access/Ownable.sol\":1259:1271  _msgSender() */\n      tag_341\n        /* \"@openzeppelin/contracts/access/Ownable.sol\":1259:1269  _msgSender */\n      tag_130\n        /* \"@openzeppelin/contracts/access/Ownable.sol\":1259:1271  _msgSender() */\n      jump\t// in\n    tag_341:\n        /* \"@openzeppelin/contracts/access/Ownable.sol\":1248:1271  owner() == _msgSender() */\n      0xffffffffffffffffffffffffffffffffffffffff\n      and\n        /* \"@openzeppelin/contracts/access/Ownable.sol\":1248:1255  owner() */\n      tag_342\n        /* \"@openzeppelin/contracts/access/Ownable.sol\":1248:1253  owner */\n      tag_83\n        /* \"@openzeppelin/contracts/access/Ownable.sol\":1248:1255  owner() */\n      jump\t// in\n    tag_342:\n        /* \"@openzeppelin/contracts/access/Ownable.sol\":1248:1271  owner() == _msgSender() */\n      0xffffffffffffffffffffffffffffffffffffffff\n      and\n      eq\n        /* \"@openzeppelin/contracts/access/Ownable.sol\":1240:1308  require(owner() == _msgSender(), \"Ownable: caller is not the owner\") */\n      tag_343\n      jumpi\n      mload(0x40)\n      0x08c379a000000000000000000000000000000000000000000000000000000000\n      dup2\n      mstore\n      0x04\n      add\n      tag_344\n      swap1\n      tag_134\n      jump\t// in\n    tag_344:\n      mload(0x40)\n      dup1\n      swap2\n      sub\n      swap1\n      revert\n    tag_343:\n        /* \"contracts/Staking.sol\":7869:7870  0 */\n      0x00\n        /* \"contracts/Staking.sol\":7856:7866  _minAmount */\n      dup2\n        /* \"contracts/Staking.sol\":7856:7870  _minAmount > 0 */\n      gt\n        /* \"contracts/Staking.sol\":7847:7888  require (_minAmount > 0, \"Can't be zero\") */\n      tag_346\n      jumpi\n      mload(0x40)\n      0x08c379a000000000000000000000000000000000000000000000000000000000\n      dup2\n      mstore\n      0x04\n      add\n      tag_347\n      swap1\n      tag_138\n      jump\t// in\n    tag_347:\n      mload(0x40)\n      dup1\n      swap2\n      sub\n      swap1\n      revert\n    tag_346:\n        /* \"contracts/Staking.sol\":7921:7931  _minAmount */\n      dup1\n        /* \"contracts/Staking.sol\":7901:7918  _minStakeAmount_m */\n      0x06\n        /* \"contracts/Staking.sol\":7901:7931  _minStakeAmount_m = _minAmount */\n      dup2\n      swap1\n      sstore\n      pop\n        /* \"contracts/Staking.sol\":7755:7939  function setThreeMonthMinAmount(uint256 _minAmount) external onlyOwner {... */\n      pop\n      jump\t// out\n        /* \"@openzeppelin/contracts/access/Ownable.sol\":1918:2116  function transferOwnership(address newOwner) public virtual onlyOwner {... */\n    tag_114:\n        /* \"@openzeppelin/contracts/access/Ownable.sol\":1259:1271  _msgSender() */\n      tag_349\n        /* \"@openzeppelin/contracts/access/Ownable.sol\":1259:1269  _msgSender */\n      tag_130\n        /* \"@openzeppelin/contracts/access/Ownable.sol\":1259:1271  _msgSender() */\n      jump\t// in\n    tag_349:\n        /* \"@openzeppelin/contracts/access/Ownable.sol\":1248:1271  owner() == _msgSender() */\n      0xffffffffffffffffffffffffffffffffffffffff\n      and\n        /* \"@openzeppelin/contracts/access/Ownable.sol\":1248:1255  owner() */\n      tag_350\n        /* \"@openzeppelin/contracts/access/Ownable.sol\":1248:1253  owner */\n      tag_83\n        /* \"@openzeppelin/contracts/access/Ownable.sol\":1248:1255  owner() */\n      jump\t// in\n    tag_350:\n        /* \"@openzeppelin/contracts/access/Ownable.sol\":1248:1271  owner() == _msgSender() */\n      0xffffffffffffffffffffffffffffffffffffffff\n      and\n      eq\n        /* \"@openzeppelin/contracts/access/Ownable.sol\":1240:1308  require(owner() == _msgSender(), \"Ownable: caller is not the owner\") */\n      tag_351\n      jumpi\n      mload(0x40)\n      0x08c379a000000000000000000000000000000000000000000000000000000000\n      dup2\n      mstore\n      0x04\n      add\n      tag_352\n      swap1\n      tag_134\n      jump\t// in\n    tag_352:\n      mload(0x40)\n      dup1\n      swap2\n      sub\n      swap1\n      revert\n    tag_351:\n        /* \"@openzeppelin/contracts/access/Ownable.sol\":2026:2027  0 */\n      0x00\n        /* \"@openzeppelin/contracts/access/Ownable.sol\":2006:2028  newOwner != address(0) */\n      0xffffffffffffffffffffffffffffffffffffffff\n      and\n        /* \"@openzeppelin/contracts/access/Ownable.sol\":2006:2014  newOwner */\n      dup2\n        /* \"@openzeppelin/contracts/access/Ownable.sol\":2006:2028  newOwner != address(0) */\n      0xffffffffffffffffffffffffffffffffffffffff\n      and\n      eq\n      iszero\n        /* \"@openzeppelin/contracts/access/Ownable.sol\":1998:2071  require(newOwner != address(0), \"Ownable: new owner is the zero address\") */\n      tag_354\n      jumpi\n      mload(0x40)\n      0x08c379a000000000000000000000000000000000000000000000000000000000\n      dup2\n      mstore\n      0x04\n      add\n      tag_355\n      swap1\n      tag_356\n      jump\t// in\n    tag_355:\n      mload(0x40)\n      dup1\n      swap2\n      sub\n      swap1\n      revert\n    tag_354:\n        /* \"@openzeppelin/contracts/access/Ownable.sol\":2081:2109  _transferOwnership(newOwner) */\n      tag_357\n        /* \"@openzeppelin/contracts/access/Ownable.sol\":2100:2108  newOwner */\n      dup2\n        /* \"@openzeppelin/contracts/access/Ownable.sol\":2081:2099  _transferOwnership */\n      tag_269\n        /* \"@openzeppelin/contracts/access/Ownable.sol\":2081:2109  _transferOwnership(newOwner) */\n      jump\t// in\n    tag_357:\n        /* \"@openzeppelin/contracts/access/Ownable.sol\":1918:2116  function transferOwnership(address newOwner) public virtual onlyOwner {... */\n      pop\n      jump\t// out\n        /* \"contracts/Staking.sol\":5300:5436  function stakedAmount(address _address) public view returns (uint256) {... */\n    tag_117:\n        /* \"contracts/Staking.sol\":5361:5368  uint256 */\n      0x00\n        /* \"contracts/Staking.sol\":5398:5405  _staker */\n      0x0b\n        /* \"contracts/Staking.sol\":5398:5415  _staker[_address] */\n      0x00\n        /* \"contracts/Staking.sol\":5406:5414  _address */\n      dup4\n        /* \"contracts/Staking.sol\":5398:5415  _staker[_address] */\n      0xffffffffffffffffffffffffffffffffffffffff\n      and\n      0xffffffffffffffffffffffffffffffffffffffff\n      and\n      dup2\n      mstore\n      0x20\n      add\n      swap1\n      dup2\n      mstore\n      0x20\n      add\n      0x00\n      keccak256\n        /* \"contracts/Staking.sol\":5398:5428  _staker[_address].stakedAmount */\n      0x01\n      add\n      sload\n        /* \"contracts/Staking.sol\":5391:5428  return _staker[_address].stakedAmount */\n      swap1\n      pop\n        /* \"contracts/Staking.sol\":5300:5436  function stakedAmount(address _address) public view returns (uint256) {... */\n      swap2\n      swap1\n      pop\n      jump\t// out\n        /* \"contracts/Staking.sol\":1246:1265  IBEP20 public token */\n    tag_120:\n      0x0d\n      0x00\n      swap1\n      sload\n      swap1\n      0x0100\n      exp\n      swap1\n      div\n      0xffffffffffffffffffffffffffffffffffffffff\n      and\n      dup2\n      jump\t// out\n        /* \"contracts/Staking.sol\":4754:4878  function isStartStaking(address _address) public view returns (uint256) {... */\n    tag_125:\n        /* \"contracts/Staking.sol\":4817:4824  uint256 */\n      0x00\n        /* \"contracts/Staking.sol\":4846:4853  _staker */\n      0x0b\n        /* \"contracts/Staking.sol\":4846:4863  _staker[_address] */\n      0x00\n        /* \"contracts/Staking.sol\":4854:4862  _address */\n      dup4\n        /* \"contracts/Staking.sol\":4846:4863  _staker[_address] */\n      0xffffffffffffffffffffffffffffffffffffffff\n      and\n      0xffffffffffffffffffffffffffffffffffffffff\n      and\n      dup2\n      mstore\n      0x20\n      add\n      swap1\n      dup2\n      mstore\n      0x20\n      add\n      0x00\n      keccak256\n        /* \"contracts/Staking.sol\":4846:4870  _staker[_address].staked */\n      0x05\n      add\n      sload\n        /* \"contracts/Staking.sol\":4839:4870  return _staker[_address].staked */\n      swap1\n      pop\n        /* \"contracts/Staking.sol\":4754:4878  function isStartStaking(address _address) public view returns (uint256) {... */\n      swap2\n      swap1\n      pop\n      jump\t// out\n        /* \"@openzeppelin/contracts/utils/Context.sol\":640:736  function _msgSender() internal view virtual returns (address) {... */\n    tag_130:\n        /* \"@openzeppelin/contracts/utils/Context.sol\":693:700  address */\n      0x00\n        /* \"@openzeppelin/contracts/utils/Context.sol\":719:729  msg.sender */\n      caller\n        /* \"@openzeppelin/contracts/utils/Context.sol\":712:729  return msg.sender */\n      swap1\n      pop\n        /* \"@openzeppelin/contracts/utils/Context.sol\":640:736  function _msgSender() internal view virtual returns (address) {... */\n      swap1\n      jump\t// out\n        /* \"contracts/Staking.sol\":2359:2816  function updateReward() private{... */\n    tag_147:\n        /* \"contracts/Staking.sol\":2411:2437  uint256 stakerStakedAmount */\n      0x00\n        /* \"contracts/Staking.sol\":2440:2447  _staker */\n      0x0b\n        /* \"contracts/Staking.sol\":2440:2459  _staker[msg.sender] */\n      0x00\n        /* \"contracts/Staking.sol\":2448:2458  msg.sender */\n      caller\n        /* \"contracts/Staking.sol\":2440:2459  _staker[msg.sender] */\n      0xffffffffffffffffffffffffffffffffffffffff\n      and\n      0xffffffffffffffffffffffffffffffffffffffff\n      and\n      dup2\n      mstore\n      0x20\n      add\n      swap1\n      dup2\n      mstore\n      0x20\n      add\n      0x00\n      keccak256\n        /* \"contracts/Staking.sol\":2440:2472  _staker[msg.sender].stakedAmount */\n      0x01\n      add\n      sload\n        /* \"contracts/Staking.sol\":2411:2472  uint256 stakerStakedAmount = _staker[msg.sender].stakedAmount */\n      swap1\n      pop\n        /* \"contracts/Staking.sol\":2493:2510  uint256 newReward */\n      0x00\n        /* \"contracts/Staking.sol\":2513:2633  stakerStakedAmount.mul(block.number.sub(_staker[msg.sender].lastUpdatedBlockNumber).div(8640)).mul(_rewardRate).div(1e4) */\n      tag_362\n        /* \"contracts/Staking.sol\":2629:2632  1e4 */\n      0x2710\n        /* \"contracts/Staking.sol\":2513:2624  stakerStakedAmount.mul(block.number.sub(_staker[msg.sender].lastUpdatedBlockNumber).div(8640)).mul(_rewardRate) */\n      tag_363\n        /* \"contracts/Staking.sol\":2612:2623  _rewardRate */\n      sload(0x03)\n        /* \"contracts/Staking.sol\":2513:2607  stakerStakedAmount.mul(block.number.sub(_staker[msg.sender].lastUpdatedBlockNumber).div(8640)) */\n      tag_364\n        /* \"contracts/Staking.sol\":2536:2606  block.number.sub(_staker[msg.sender].lastUpdatedBlockNumber).div(8640) */\n      tag_365\n        /* \"contracts/Staking.sol\":2601:2605  8640 */\n      0x21c0\n        /* \"contracts/Staking.sol\":2536:2596  block.number.sub(_staker[msg.sender].lastUpdatedBlockNumber) */\n      tag_366\n        /* \"contracts/Staking.sol\":2553:2560  _staker */\n      0x0b\n        /* \"contracts/Staking.sol\":2553:2572  _staker[msg.sender] */\n      0x00\n        /* \"contracts/Staking.sol\":2561:2571  msg.sender */\n      caller\n        /* \"contracts/Staking.sol\":2553:2572  _staker[msg.sender] */\n      0xffffffffffffffffffffffffffffffffffffffff\n      and\n      0xffffffffffffffffffffffffffffffffffffffff\n      and\n      dup2\n      mstore\n      0x20\n      add\n      swap1\n      dup2\n      mstore\n      0x20\n      add\n      0x00\n      keccak256\n        /* \"contracts/Staking.sol\":2553:2595  _staker[msg.sender].lastUpdatedBlockNumber */\n      0x04\n      add\n      sload\n        /* \"contracts/Staking.sol\":2536:2548  block.number */\n      number\n        /* \"contracts/Staking.sol\":2536:2552  block.number.sub */\n      tag_150\n      swap1\n        /* \"contracts/Staking.sol\":2536:2596  block.number.sub(_staker[msg.sender].lastUpdatedBlockNumber) */\n      swap2\n      swap1\n      0xffffffff\n      and\n      jump\t// in\n    tag_366:\n        /* \"contracts/Staking.sol\":2536:2600  block.number.sub(_staker[msg.sender].lastUpdatedBlockNumber).div */\n      tag_151\n      swap1\n        /* \"contracts/Staking.sol\":2536:2606  block.number.sub(_staker[msg.sender].lastUpdatedBlockNumber).div(8640) */\n      swap2\n      swap1\n      0xffffffff\n      and\n      jump\t// in\n    tag_365:\n        /* \"contracts/Staking.sol\":2513:2531  stakerStakedAmount */\n      dup8\n        /* \"contracts/Staking.sol\":2513:2535  stakerStakedAmount.mul */\n      tag_165\n      swap1\n        /* \"contracts/Staking.sol\":2513:2607  stakerStakedAmount.mul(block.number.sub(_staker[msg.sender].lastUpdatedBlockNumber).div(8640)) */\n      swap2\n      swap1\n      0xffffffff\n      and\n      jump\t// in\n    tag_364:\n        /* \"contracts/Staking.sol\":2513:2611  stakerStakedAmount.mul(block.number.sub(_staker[msg.sender].lastUpdatedBlockNumber).div(8640)).mul */\n      tag_165\n      swap1\n        /* \"contracts/Staking.sol\":2513:2624  stakerStakedAmount.mul(block.number.sub(_staker[msg.sender].lastUpdatedBlockNumber).div(8640)).mul(_rewardRate) */\n      swap2\n      swap1\n      0xffffffff\n      and\n      jump\t// in\n    tag_363:\n        /* \"contracts/Staking.sol\":2513:2628  stakerStakedAmount.mul(block.number.sub(_staker[msg.sender].lastUpdatedBlockNumber).div(8640)).mul(_rewardRate).div */\n      tag_151\n      swap1\n        /* \"contracts/Staking.sol\":2513:2633  stakerStakedAmount.mul(block.number.sub(_staker[msg.sender].lastUpdatedBlockNumber).div(8640)).mul(_rewardRate).div(1e4) */\n      swap2\n      swap1\n      0xffffffff\n      and\n      jump\t// in\n    tag_362:\n        /* \"contracts/Staking.sol\":2493:2633  uint256 newReward = stakerStakedAmount.mul(block.number.sub(_staker[msg.sender].lastUpdatedBlockNumber).div(8640)).mul(_rewardRate).div(1e4) */\n      swap1\n      pop\n        /* \"contracts/Staking.sol\":2686:2740  _staker[msg.sender].stakerCurrentReward.add(newReward) */\n      tag_367\n        /* \"contracts/Staking.sol\":2730:2739  newReward */\n      dup2\n        /* \"contracts/Staking.sol\":2686:2693  _staker */\n      0x0b\n        /* \"contracts/Staking.sol\":2686:2705  _staker[msg.sender] */\n      0x00\n        /* \"contracts/Staking.sol\":2694:2704  msg.sender */\n      caller\n        /* \"contracts/Staking.sol\":2686:2705  _staker[msg.sender] */\n      0xffffffffffffffffffffffffffffffffffffffff\n      and\n      0xffffffffffffffffffffffffffffffffffffffff\n      and\n      dup2\n      mstore\n      0x20\n      add\n      swap1\n      dup2\n      mstore\n      0x20\n      add\n      0x00\n      keccak256\n        /* \"contracts/Staking.sol\":2686:2725  _staker[msg.sender].stakerCurrentReward */\n      0x00\n      add\n      sload\n        /* \"contracts/Staking.sol\":2686:2729  _staker[msg.sender].stakerCurrentReward.add */\n      tag_154\n      swap1\n        /* \"contracts/Staking.sol\":2686:2740  _staker[msg.sender].stakerCurrentReward.add(newReward) */\n      swap2\n      swap1\n      0xffffffff\n      and\n      jump\t// in\n    tag_367:\n        /* \"contracts/Staking.sol\":2644:2651  _staker */\n      0x0b\n        /* \"contracts/Staking.sol\":2644:2663  _staker[msg.sender] */\n      0x00\n        /* \"contracts/Staking.sol\":2652:2662  msg.sender */\n      caller\n        /* \"contracts/Staking.sol\":2644:2663  _staker[msg.sender] */\n      0xffffffffffffffffffffffffffffffffffffffff\n      and\n      0xffffffffffffffffffffffffffffffffffffffff\n      and\n      dup2\n      mstore\n      0x20\n      add\n      swap1\n      dup2\n      mstore\n      0x20\n      add\n      0x00\n      keccak256\n        /* \"contracts/Staking.sol\":2644:2683  _staker[msg.sender].stakerCurrentReward */\n      0x00\n      add\n        /* \"contracts/Staking.sol\":2644:2740  _staker[msg.sender].stakerCurrentReward = _staker[msg.sender].stakerCurrentReward.add(newReward) */\n      dup2\n      swap1\n      sstore\n      pop\n        /* \"contracts/Staking.sol\":2796:2808  block.number */\n      number\n        /* \"contracts/Staking.sol\":2751:2758  _staker */\n      0x0b\n        /* \"contracts/Staking.sol\":2751:2770  _staker[msg.sender] */\n      0x00\n        /* \"contracts/Staking.sol\":2759:2769  msg.sender */\n      caller\n        /* \"contracts/Staking.sol\":2751:2770  _staker[msg.sender] */\n      0xffffffffffffffffffffffffffffffffffffffff\n      and\n      0xffffffffffffffffffffffffffffffffffffffff\n      and\n      dup2\n      mstore\n      0x20\n      add\n      swap1\n      dup2\n      mstore\n      0x20\n      add\n      0x00\n      keccak256\n        /* \"contracts/Staking.sol\":2751:2793  _staker[msg.sender].lastUpdatedBlockNumber */\n      0x04\n      add\n        /* \"contracts/Staking.sol\":2751:2808  _staker[msg.sender].lastUpdatedBlockNumber = block.number */\n      dup2\n      swap1\n      sstore\n      pop\n        /* \"contracts/Staking.sol\":2390:2816  {... */\n      pop\n      pop\n        /* \"contracts/Staking.sol\":2359:2816  function updateReward() private{... */\n      jump\t// out\n        /* \"@openzeppelin/contracts/utils/math/SafeMath.sol\":3108:3204  function sub(uint256 a, uint256 b) internal pure returns (uint256) {... */\n    tag_150:\n        /* \"@openzeppelin/contracts/utils/math/SafeMath.sol\":3166:3173  uint256 */\n      0x00\n        /* \"@openzeppelin/contracts/utils/math/SafeMath.sol\":3196:3197  b */\n      dup2\n        /* \"@openzeppelin/contracts/utils/math/SafeMath.sol\":3192:3193  a */\n      dup4\n        /* \"@openzeppelin/contracts/utils/math/SafeMath.sol\":3192:3197  a - b */\n      tag_369\n      swap2\n      swap1\n      tag_370\n      jump\t// in\n    tag_369:\n        /* \"@openzeppelin/contracts/utils/math/SafeMath.sol\":3185:3197  return a - b */\n      swap1\n      pop\n        /* \"@openzeppelin/contracts/utils/math/SafeMath.sol\":3108:3204  function sub(uint256 a, uint256 b) internal pure returns (uint256) {... */\n      swap3\n      swap2\n      pop\n      pop\n      jump\t// out\n        /* \"@openzeppelin/contracts/utils/math/SafeMath.sol\":3836:3932  function div(uint256 a, uint256 b) internal pure returns (uint256) {... */\n    tag_151:\n        /* \"@openzeppelin/contracts/utils/math/SafeMath.sol\":3894:3901  uint256 */\n      0x00\n        /* \"@openzeppelin/contracts/utils/math/SafeMath.sol\":3924:3925  b */\n      dup2\n        /* \"@openzeppelin/contracts/utils/math/SafeMath.sol\":3920:3921  a */\n      dup4\n        /* \"@openzeppelin/contracts/utils/math/SafeMath.sol\":3920:3925  a / b */\n      tag_372\n      swap2\n      swap1\n      tag_373\n      jump\t// in\n    tag_372:\n        /* \"@openzeppelin/contracts/utils/math/SafeMath.sol\":3913:3925  return a / b */\n      swap1\n      pop\n        /* \"@openzeppelin/contracts/utils/math/SafeMath.sol\":3836:3932  function div(uint256 a, uint256 b) internal pure returns (uint256) {... */\n      swap3\n      swap2\n      pop\n      pop\n      jump\t// out\n        /* \"@openzeppelin/contracts/utils/math/SafeMath.sol\":2741:2837  function add(uint256 a, uint256 b) internal pure returns (uint256) {... */\n    tag_154:\n        /* \"@openzeppelin/contracts/utils/math/SafeMath.sol\":2799:2806  uint256 */\n      0x00\n        /* \"@openzeppelin/contracts/utils/math/SafeMath.sol\":2829:2830  b */\n      dup2\n        /* \"@openzeppelin/contracts/utils/math/SafeMath.sol\":2825:2826  a */\n      dup4\n        /* \"@openzeppelin/contracts/utils/math/SafeMath.sol\":2825:2830  a + b */\n      tag_375\n      swap2\n      swap1\n      tag_376\n      jump\t// in\n    tag_375:\n        /* \"@openzeppelin/contracts/utils/math/SafeMath.sol\":2818:2830  return a + b */\n      swap1\n      pop\n        /* \"@openzeppelin/contracts/utils/math/SafeMath.sol\":2741:2837  function add(uint256 a, uint256 b) internal pure returns (uint256) {... */\n      swap3\n      swap2\n      pop\n      pop\n      jump\t// out\n        /* \"@openzeppelin/contracts/utils/math/SafeMath.sol\":3451:3547  function mul(uint256 a, uint256 b) internal pure returns (uint256) {... */\n    tag_165:\n        /* \"@openzeppelin/contracts/utils/math/SafeMath.sol\":3509:3516  uint256 */\n      0x00\n        /* \"@openzeppelin/contracts/utils/math/SafeMath.sol\":3539:3540  b */\n      dup2\n        /* \"@openzeppelin/contracts/utils/math/SafeMath.sol\":3535:3536  a */\n      dup4\n        /* \"@openzeppelin/contracts/utils/math/SafeMath.sol\":3535:3540  a * b */\n      tag_378\n      swap2\n      swap1\n      tag_379\n      jump\t// in\n    tag_378:\n        /* \"@openzeppelin/contracts/utils/math/SafeMath.sol\":3528:3540  return a * b */\n      swap1\n      pop\n        /* \"@openzeppelin/contracts/utils/math/SafeMath.sol\":3451:3547  function mul(uint256 a, uint256 b) internal pure returns (uint256) {... */\n      swap3\n      swap2\n      pop\n      pop\n      jump\t// out\n        /* \"contracts/SafeBEP20.sol\":290:467  function safeTransfer(IBEP20 token, address to, uint256 value) internal {... */\n    tag_167:\n        /* \"contracts/SafeBEP20.sol\":373:459  _callOptionalReturn(token, abi.encodeWithSelector(token.transfer.selector, to, value)) */\n      tag_381\n        /* \"contracts/SafeBEP20.sol\":393:398  token */\n      dup4\n        /* \"contracts/SafeBEP20.sol\":423:446  token.transfer.selector */\n      shl(0xe0, 0xa9059cbb)\n        /* \"contracts/SafeBEP20.sol\":448:450  to */\n      dup5\n        /* \"contracts/SafeBEP20.sol\":452:457  value */\n      dup5\n        /* \"contracts/SafeBEP20.sol\":400:458  abi.encodeWithSelector(token.transfer.selector, to, value) */\n      add(0x24, mload(0x40))\n      tag_382\n      swap3\n      swap2\n      swap1\n      tag_169\n      jump\t// in\n    tag_382:\n      mload(0x40)\n      0x20\n      dup2\n      dup4\n      sub\n      sub\n      dup2\n      mstore\n      swap1\n      0x40\n      mstore\n      swap1\n      not(0xffffffffffffffffffffffffffffffffffffffffffffffffffffffff)\n      and\n      0x20\n      dup3\n      add\n      dup1\n      mload\n      0xffffffffffffffffffffffffffffffffffffffffffffffffffffffff\n      dup4\n      dup2\n      dup4\n      and\n      or\n      dup4\n      mstore\n      pop\n      pop\n      pop\n      pop\n        /* \"contracts/SafeBEP20.sol\":373:392  _callOptionalReturn */\n      tag_383\n        /* \"contracts/SafeBEP20.sol\":373:459  _callOptionalReturn(token, abi.encodeWithSelector(token.transfer.selector, to, value)) */\n      jump\t// in\n    tag_381:\n        /* \"contracts/SafeBEP20.sol\":290:467  function safeTransfer(IBEP20 token, address to, uint256 value) internal {... */\n      pop\n      pop\n      pop\n      jump\t// out\n        /* \"@openzeppelin/contracts/access/Ownable.sol\":2270:2457  function _transferOwnership(address newOwner) internal virtual {... */\n    tag_269:\n        /* \"@openzeppelin/contracts/access/Ownable.sol\":2343:2359  address oldOwner */\n      0x00\n        /* \"@openzeppelin/contracts/access/Ownable.sol\":2362:2368  _owner */\n      dup1\n      0x00\n      swap1\n      sload\n      swap1\n      0x0100\n      exp\n      swap1\n      div\n      0xffffffffffffffffffffffffffffffffffffffff\n      and\n        /* \"@openzeppelin/contracts/access/Ownable.sol\":2343:2368  address oldOwner = _owner */\n      swap1\n      pop\n        /* \"@openzeppelin/contracts/access/Ownable.sol\":2387:2395  newOwner */\n      dup2\n        /* \"@openzeppelin/contracts/access/Ownable.sol\":2378:2384  _owner */\n      0x00\n      dup1\n        /* \"@openzeppelin/contracts/access/Ownable.sol\":2378:2395  _owner = newOwner */\n      0x0100\n      exp\n      dup2\n      sload\n      dup2\n      0xffffffffffffffffffffffffffffffffffffffff\n      mul\n      not\n      and\n      swap1\n      dup4\n      0xffffffffffffffffffffffffffffffffffffffff\n      and\n      mul\n      or\n      swap1\n      sstore\n      pop\n        /* \"@openzeppelin/contracts/access/Ownable.sol\":2441:2449  newOwner */\n      dup2\n        /* \"@openzeppelin/contracts/access/Ownable.sol\":2410:2450  OwnershipTransferred(oldOwner, newOwner) */\n      0xffffffffffffffffffffffffffffffffffffffff\n      and\n        /* \"@openzeppelin/contracts/access/Ownable.sol\":2431:2439  oldOwner */\n      dup2\n        /* \"@openzeppelin/contracts/access/Ownable.sol\":2410:2450  OwnershipTransferred(oldOwner, newOwner) */\n      0xffffffffffffffffffffffffffffffffffffffff\n      and\n      0x8be0079c531659141344cd1fd0a4f28419497f9722a3daafe3b4186f6b6457e0\n      mload(0x40)\n      mload(0x40)\n      dup1\n      swap2\n      sub\n      swap1\n      log3\n        /* \"@openzeppelin/contracts/access/Ownable.sol\":2333:2457  {... */\n      pop\n        /* \"@openzeppelin/contracts/access/Ownable.sol\":2270:2457  function _transferOwnership(address newOwner) internal virtual {... */\n      pop\n      jump\t// out\n        /* \"contracts/SafeBEP20.sol\":475:680  function safeTransferFrom(IBEP20 token, address from, address to, uint256 value) internal {... */\n    tag_317:\n        /* \"contracts/SafeBEP20.sol\":576:672  _callOptionalReturn(token, abi.encodeWithSelector(token.transferFrom.selector, from, to, value)) */\n      tag_386\n        /* \"contracts/SafeBEP20.sol\":596:601  token */\n      dup5\n        /* \"contracts/SafeBEP20.sol\":626:653  token.transferFrom.selector */\n      shl(0xe0, 0x23b872dd)\n        /* \"contracts/SafeBEP20.sol\":655:659  from */\n      dup6\n        /* \"contracts/SafeBEP20.sol\":661:663  to */\n      dup6\n        /* \"contracts/SafeBEP20.sol\":665:670  value */\n      dup6\n        /* \"contracts/SafeBEP20.sol\":603:671  abi.encodeWithSelector(token.transferFrom.selector, from, to, value) */\n      add(0x24, mload(0x40))\n      tag_387\n      swap4\n      swap3\n      swap2\n      swap1\n      tag_388\n      jump\t// in\n    tag_387:\n      mload(0x40)\n      0x20\n      dup2\n      dup4\n      sub\n      sub\n      dup2\n      mstore\n      swap1\n      0x40\n      mstore\n      swap1\n      not(0xffffffffffffffffffffffffffffffffffffffffffffffffffffffff)\n      and\n      0x20\n      dup3\n      add\n      dup1\n      mload\n      0xffffffffffffffffffffffffffffffffffffffffffffffffffffffff\n      dup4\n      dup2\n      dup4\n      and\n      or\n      dup4\n      mstore\n      pop\n      pop\n      pop\n      pop\n        /* \"contracts/SafeBEP20.sol\":576:595  _callOptionalReturn */\n      tag_383\n        /* \"contracts/SafeBEP20.sol\":576:672  _callOptionalReturn(token, abi.encodeWithSelector(token.transferFrom.selector, from, to, value)) */\n      jump\t// in\n    tag_386:\n        /* \"contracts/SafeBEP20.sol\":475:680  function safeTransferFrom(IBEP20 token, address from, address to, uint256 value) internal {... */\n      pop\n      pop\n      pop\n      pop\n      jump\t// out\n        /* \"contracts/SafeBEP20.sol\":2599:3368  function _callOptionalReturn(IBEP20 token, bytes memory data) private {... */\n    tag_383:\n        /* \"contracts/SafeBEP20.sol\":3031:3054  bytes memory returndata */\n      0x00\n        /* \"contracts/SafeBEP20.sol\":3057:3126  address(token).functionCall(data, \"SafeBEP20: low-level call failed\") */\n      tag_390\n        /* \"contracts/SafeBEP20.sol\":3085:3089  data */\n      dup3\n        /* \"contracts/SafeBEP20.sol\":3057:3126  address(token).functionCall(data, \"SafeBEP20: low-level call failed\") */\n      mload(0x40)\n      dup1\n      0x40\n      add\n      0x40\n      mstore\n      dup1\n      0x20\n      dup2\n      mstore\n      0x20\n      add\n      0x5361666542455032303a206c6f772d6c6576656c2063616c6c206661696c6564\n      dup2\n      mstore\n      pop\n        /* \"contracts/SafeBEP20.sol\":3065:3070  token */\n      dup6\n        /* \"contracts/SafeBEP20.sol\":3057:3084  address(token).functionCall */\n      0xffffffffffffffffffffffffffffffffffffffff\n      and\n      tag_391\n      swap1\n        /* \"contracts/SafeBEP20.sol\":3057:3126  address(token).functionCall(data, \"SafeBEP20: low-level call failed\") */\n      swap3\n      swap2\n      swap1\n      0xffffffff\n      and\n      jump\t// in\n    tag_390:\n        /* \"contracts/SafeBEP20.sol\":3031:3126  bytes memory returndata = address(token).functionCall(data, \"SafeBEP20: low-level call failed\") */\n      swap1\n      pop\n        /* \"contracts/SafeBEP20.sol\":3161:3162  0 */\n      0x00\n        /* \"contracts/SafeBEP20.sol\":3141:3151  returndata */\n      dup2\n        /* \"contracts/SafeBEP20.sol\":3141:3158  returndata.length */\n      mload\n        /* \"contracts/SafeBEP20.sol\":3141:3162  returndata.length > 0 */\n      gt\n        /* \"contracts/SafeBEP20.sol\":3137:3361  if (returndata.length > 0) { // Return data is optional... */\n      iszero\n      tag_392\n      jumpi\n        /* \"contracts/SafeBEP20.sol\":3283:3293  returndata */\n      dup1\n        /* \"contracts/SafeBEP20.sol\":3272:3302  abi.decode(returndata, (bool)) */\n      dup1\n      0x20\n      add\n      swap1\n      mload\n      dup2\n      add\n      swap1\n      tag_393\n      swap2\n      swap1\n      tag_394\n      jump\t// in\n    tag_393:\n        /* \"contracts/SafeBEP20.sol\":3264:3349  require(abi.decode(returndata, (bool)), \"SafeBEP20: BEP20 operation did not succeed\") */\n      tag_395\n      jumpi\n      mload(0x40)\n      0x08c379a000000000000000000000000000000000000000000000000000000000\n      dup2\n      mstore\n      0x04\n      add\n      tag_396\n      swap1\n      tag_397\n      jump\t// in\n    tag_396:\n      mload(0x40)\n      dup1\n      swap2\n      sub\n      swap1\n      revert\n    tag_395:\n        /* \"contracts/SafeBEP20.sol\":3137:3361  if (returndata.length > 0) { // Return data is optional... */\n    tag_392:\n        /* \"contracts/SafeBEP20.sol\":2669:3368  {... */\n      pop\n        /* \"contracts/SafeBEP20.sol\":2599:3368  function _callOptionalReturn(IBEP20 token, bytes memory data) private {... */\n      pop\n      pop\n      jump\t// out\n        /* \"@openzeppelin/contracts/utils/Address.sol\":3861:4084  function functionCall(... */\n    tag_391:\n        /* \"@openzeppelin/contracts/utils/Address.sol\":3994:4006  bytes memory */\n      0x60\n        /* \"@openzeppelin/contracts/utils/Address.sol\":4025:4077  functionCallWithValue(target, data, 0, errorMessage) */\n      tag_399\n        /* \"@openzeppelin/contracts/utils/Address.sol\":4047:4053  target */\n      dup5\n        /* \"@openzeppelin/contracts/utils/Address.sol\":4055:4059  data */\n      dup5\n        /* \"@openzeppelin/contracts/utils/Address.sol\":4061:4062  0 */\n      0x00\n        /* \"@openzeppelin/contracts/utils/Address.sol\":4064:4076  errorMessage */\n      dup6\n        /* \"@openzeppelin/contracts/utils/Address.sol\":4025:4046  functionCallWithValue */\n      tag_400\n        /* \"@openzeppelin/contracts/utils/Address.sol\":4025:4077  functionCallWithValue(target, data, 0, errorMessage) */\n      jump\t// in\n    tag_399:\n        /* \"@openzeppelin/contracts/utils/Address.sol\":4018:4077  return functionCallWithValue(target, data, 0, errorMessage) */\n      swap1\n      pop\n        /* \"@openzeppelin/contracts/utils/Address.sol\":3861:4084  function functionCall(... */\n      swap4\n      swap3\n      pop\n      pop\n      pop\n      jump\t// out\n        /* \"@openzeppelin/contracts/utils/Address.sol\":4948:5447  function functionCallWithValue(... */\n    tag_400:\n        /* \"@openzeppelin/contracts/utils/Address.sol\":5113:5125  bytes memory */\n      0x60\n        /* \"@openzeppelin/contracts/utils/Address.sol\":5170:5175  value */\n      dup3\n        /* \"@openzeppelin/contracts/utils/Address.sol\":5145:5166  address(this).balance */\n      selfbalance\n        /* \"@openzeppelin/contracts/utils/Address.sol\":5145:5175  address(this).balance >= value */\n      lt\n      iszero\n        /* \"@openzeppelin/contracts/utils/Address.sol\":5137:5218  require(address(this).balance >= value, \"Address: insufficient balance for call\") */\n      tag_402\n      jumpi\n      mload(0x40)\n      0x08c379a000000000000000000000000000000000000000000000000000000000\n      dup2\n      mstore\n      0x04\n      add\n      tag_403\n      swap1\n      tag_404\n      jump\t// in\n    tag_403:\n      mload(0x40)\n      dup1\n      swap2\n      sub\n      swap1\n      revert\n    tag_402:\n        /* \"@openzeppelin/contracts/utils/Address.sol\":5236:5254  isContract(target) */\n      tag_405\n        /* \"@openzeppelin/contracts/utils/Address.sol\":5247:5253  target */\n      dup6\n        /* \"@openzeppelin/contracts/utils/Address.sol\":5236:5246  isContract */\n      tag_406\n        /* \"@openzeppelin/contracts/utils/Address.sol\":5236:5254  isContract(target) */\n      jump\t// in\n    tag_405:\n        /* \"@openzeppelin/contracts/utils/Address.sol\":5228:5288  require(isContract(target), \"Address: call to non-contract\") */\n      tag_407\n      jumpi\n      mload(0x40)\n      0x08c379a000000000000000000000000000000000000000000000000000000000\n      dup2\n      mstore\n      0x04\n      add\n      tag_408\n      swap1\n      tag_409\n      jump\t// in\n    tag_408:\n      mload(0x40)\n      dup1\n      swap2\n      sub\n      swap1\n      revert\n    tag_407:\n        /* \"@openzeppelin/contracts/utils/Address.sol\":5300:5312  bool success */\n      0x00\n        /* \"@openzeppelin/contracts/utils/Address.sol\":5314:5337  bytes memory returndata */\n      dup1\n        /* \"@openzeppelin/contracts/utils/Address.sol\":5341:5347  target */\n      dup7\n        /* \"@openzeppelin/contracts/utils/Address.sol\":5341:5352  target.call */\n      0xffffffffffffffffffffffffffffffffffffffff\n      and\n        /* \"@openzeppelin/contracts/utils/Address.sol\":5360:5365  value */\n      dup6\n        /* \"@openzeppelin/contracts/utils/Address.sol\":5367:5371  data */\n      dup8\n        /* \"@openzeppelin/contracts/utils/Address.sol\":5341:5372  target.call{value: value}(data) */\n      mload(0x40)\n      tag_410\n      swap2\n      swap1\n      tag_411\n      jump\t// in\n    tag_410:\n      0x00\n      mload(0x40)\n      dup1\n      dup4\n      sub\n      dup2\n      dup6\n      dup8\n      gas\n      call\n      swap3\n      pop\n      pop\n      pop\n      returndatasize\n      dup1\n      0x00\n      dup2\n      eq\n      tag_414\n      jumpi\n      mload(0x40)\n      swap2\n      pop\n      and(add(returndatasize, 0x3f), not(0x1f))\n      dup3\n      add\n      0x40\n      mstore\n      returndatasize\n      dup3\n      mstore\n      returndatasize\n      0x00\n      0x20\n      dup5\n      add\n      returndatacopy\n      jump(tag_413)\n    tag_414:\n      0x60\n      swap2\n      pop\n    tag_413:\n      pop\n        /* \"@openzeppelin/contracts/utils/Address.sol\":5299:5372  (bool success, bytes memory returndata) = target.call{value: value}(data) */\n      swap2\n      pop\n      swap2\n      pop\n        /* \"@openzeppelin/contracts/utils/Address.sol\":5389:5440  verifyCallResult(success, returndata, errorMessage) */\n      tag_415\n        /* \"@openzeppelin/contracts/utils/Address.sol\":5406:5413  success */\n      dup3\n        /* \"@openzeppelin/contracts/utils/Address.sol\":5415:5425  returndata */\n      dup3\n        /* \"@openzeppelin/contracts/utils/Address.sol\":5427:5439  errorMessage */\n      dup7\n        /* \"@openzeppelin/contracts/utils/Address.sol\":5389:5405  verifyCallResult */\n      tag_416\n        /* \"@openzeppelin/contracts/utils/Address.sol\":5389:5440  verifyCallResult(success, returndata, errorMessage) */\n      jump\t// in\n    tag_415:\n        /* \"@openzeppelin/contracts/utils/Address.sol\":5382:5440  return verifyCallResult(success, returndata, errorMessage) */\n      swap3\n      pop\n      pop\n      pop\n        /* \"@openzeppelin/contracts/utils/Address.sol\":4948:5447  function functionCallWithValue(... */\n      swap5\n      swap4\n      pop\n      pop\n      pop\n      pop\n      jump\t// out\n        /* \"@openzeppelin/contracts/utils/Address.sol\":1175:1495  function isContract(address account) internal view returns (bool) {... */\n    tag_406:\n        /* \"@openzeppelin/contracts/utils/Address.sol\":1235:1239  bool */\n      0x00\n        /* \"@openzeppelin/contracts/utils/Address.sol\":1487:1488  0 */\n      dup1\n        /* \"@openzeppelin/contracts/utils/Address.sol\":1465:1472  account */\n      dup3\n        /* \"@openzeppelin/contracts/utils/Address.sol\":1465:1484  account.code.length */\n      0xffffffffffffffffffffffffffffffffffffffff\n      and\n      extcodesize\n        /* \"@openzeppelin/contracts/utils/Address.sol\":1465:1488  account.code.length > 0 */\n      gt\n        /* \"@openzeppelin/contracts/utils/Address.sol\":1458:1488  return account.code.length > 0 */\n      swap1\n      pop\n        /* \"@openzeppelin/contracts/utils/Address.sol\":1175:1495  function isContract(address account) internal view returns (bool) {... */\n      swap2\n      swap1\n      pop\n      jump\t// out\n        /* \"@openzeppelin/contracts/utils/Address.sol\":7561:8253  function verifyCallResult(... */\n    tag_416:\n        /* \"@openzeppelin/contracts/utils/Address.sol\":7707:7719  bytes memory */\n      0x60\n        /* \"@openzeppelin/contracts/utils/Address.sol\":7735:7742  success */\n      dup4\n        /* \"@openzeppelin/contracts/utils/Address.sol\":7731:8247  if (success) {... */\n      iszero\n      tag_419\n      jumpi\n        /* \"@openzeppelin/contracts/utils/Address.sol\":7765:7775  returndata */\n      dup3\n        /* \"@openzeppelin/contracts/utils/Address.sol\":7758:7775  return returndata */\n      swap1\n      pop\n      jump(tag_418)\n        /* \"@openzeppelin/contracts/utils/Address.sol\":7731:8247  if (success) {... */\n    tag_419:\n        /* \"@openzeppelin/contracts/utils/Address.sol\":7896:7897  0 */\n      0x00\n        /* \"@openzeppelin/contracts/utils/Address.sol\":7876:7886  returndata */\n      dup4\n        /* \"@openzeppelin/contracts/utils/Address.sol\":7876:7893  returndata.length */\n      mload\n        /* \"@openzeppelin/contracts/utils/Address.sol\":7876:7897  returndata.length > 0 */\n      gt\n        /* \"@openzeppelin/contracts/utils/Address.sol\":7872:8237  if (returndata.length > 0) {... */\n      iszero\n      tag_421\n      jumpi\n        /* \"@openzeppelin/contracts/utils/Address.sol\":8070:8080  returndata */\n      dup3\n        /* \"@openzeppelin/contracts/utils/Address.sol\":8064:8081  mload(returndata) */\n      mload\n        /* \"@openzeppelin/contracts/utils/Address.sol\":8130:8145  returndata_size */\n      dup1\n        /* \"@openzeppelin/contracts/utils/Address.sol\":8117:8127  returndata */\n      dup5\n        /* \"@openzeppelin/contracts/utils/Address.sol\":8113:8115  32 */\n      0x20\n        /* \"@openzeppelin/contracts/utils/Address.sol\":8109:8128  add(32, returndata) */\n      add\n        /* \"@openzeppelin/contracts/utils/Address.sol\":8102:8146  revert(add(32, returndata), returndata_size) */\n      revert\n        /* \"@openzeppelin/contracts/utils/Address.sol\":7872:8237  if (returndata.length > 0) {... */\n    tag_421:\n        /* \"@openzeppelin/contracts/utils/Address.sol\":8209:8221  errorMessage */\n      dup2\n        /* \"@openzeppelin/contracts/utils/Address.sol\":8202:8222  revert(errorMessage) */\n      mload(0x40)\n      0x08c379a000000000000000000000000000000000000000000000000000000000\n      dup2\n      mstore\n      0x04\n      add\n      tag_423\n      swap2\n      swap1\n      tag_424\n      jump\t// in\n    tag_423:\n      mload(0x40)\n      dup1\n      swap2\n      sub\n      swap1\n      revert\n        /* \"@openzeppelin/contracts/utils/Address.sol\":7561:8253  function verifyCallResult(... */\n    tag_418:\n      swap4\n      swap3\n      pop\n      pop\n      pop\n      jump\t// out\n        /* \"#utility.yul\":7:84   */\n    tag_425:\n        /* \"#utility.yul\":44:51   */\n      0x00\n        /* \"#utility.yul\":73:78   */\n      dup2\n        /* \"#utility.yul\":62:78   */\n      swap1\n      pop\n        /* \"#utility.yul\":7:84   */\n      swap2\n      swap1\n      pop\n      jump\t// out\n        /* \"#utility.yul\":90:208   */\n    tag_426:\n        /* \"#utility.yul\":177:201   */\n      tag_493\n        /* \"#utility.yul\":195:200   */\n      dup2\n        /* \"#utility.yul\":177:201   */\n      tag_425\n      jump\t// in\n    tag_493:\n        /* \"#utility.yul\":172:175   */\n      dup3\n        /* \"#utility.yul\":165:202   */\n      mstore\n        /* \"#utility.yul\":90:208   */\n      pop\n      pop\n      jump\t// out\n        /* \"#utility.yul\":214:436   */\n    tag_39:\n        /* \"#utility.yul\":307:311   */\n      0x00\n        /* \"#utility.yul\":345:347   */\n      0x20\n        /* \"#utility.yul\":334:343   */\n      dup3\n        /* \"#utility.yul\":330:348   */\n      add\n        /* \"#utility.yul\":322:348   */\n      swap1\n      pop\n        /* \"#utility.yul\":358:429   */\n      tag_495\n        /* \"#utility.yul\":426:427   */\n      0x00\n        /* \"#utility.yul\":415:424   */\n      dup4\n        /* \"#utility.yul\":411:428   */\n      add\n        /* \"#utility.yul\":402:408   */\n      dup5\n        /* \"#utility.yul\":358:429   */\n      tag_426\n      jump\t// in\n    tag_495:\n        /* \"#utility.yul\":214:436   */\n      swap3\n      swap2\n      pop\n      pop\n      jump\t// out\n        /* \"#utility.yul\":523:640   */\n    tag_428:\n        /* \"#utility.yul\":632:633   */\n      0x00\n        /* \"#utility.yul\":629:630   */\n      dup1\n        /* \"#utility.yul\":622:634   */\n      revert\n        /* \"#utility.yul\":769:891   */\n    tag_430:\n        /* \"#utility.yul\":842:866   */\n      tag_500\n        /* \"#utility.yul\":860:865   */\n      dup2\n        /* \"#utility.yul\":842:866   */\n      tag_425\n      jump\t// in\n    tag_500:\n        /* \"#utility.yul\":835:840   */\n      dup2\n        /* \"#utility.yul\":832:867   */\n      eq\n        /* \"#utility.yul\":822:885   */\n      tag_501\n      jumpi\n        /* \"#utility.yul\":881:882   */\n      0x00\n        /* \"#utility.yul\":878:879   */\n      dup1\n        /* \"#utility.yul\":871:883   */\n      revert\n        /* \"#utility.yul\":822:885   */\n    tag_501:\n        /* \"#utility.yul\":769:891   */\n      pop\n      jump\t// out\n        /* \"#utility.yul\":897:1036   */\n    tag_431:\n        /* \"#utility.yul\":943:948   */\n      0x00\n        /* \"#utility.yul\":981:987   */\n      dup2\n        /* \"#utility.yul\":968:988   */\n      calldataload\n        /* \"#utility.yul\":959:988   */\n      swap1\n      pop\n        /* \"#utility.yul\":997:1030   */\n      tag_503\n        /* \"#utility.yul\":1024:1029   */\n      dup2\n        /* \"#utility.yul\":997:1030   */\n      tag_430\n      jump\t// in\n    tag_503:\n        /* \"#utility.yul\":897:1036   */\n      swap3\n      swap2\n      pop\n      pop\n      jump\t// out\n        /* \"#utility.yul\":1042:1371   */\n    tag_42:\n        /* \"#utility.yul\":1101:1107   */\n      0x00\n        /* \"#utility.yul\":1150:1152   */\n      0x20\n        /* \"#utility.yul\":1138:1147   */\n      dup3\n        /* \"#utility.yul\":1129:1136   */\n      dup5\n        /* \"#utility.yul\":1125:1148   */\n      sub\n        /* \"#utility.yul\":1121:1153   */\n      slt\n        /* \"#utility.yul\":1118:1237   */\n      iszero\n      tag_505\n      jumpi\n        /* \"#utility.yul\":1156:1235   */\n      tag_506\n      tag_428\n      jump\t// in\n    tag_506:\n        /* \"#utility.yul\":1118:1237   */\n    tag_505:\n        /* \"#utility.yul\":1276:1277   */\n      0x00\n        /* \"#utility.yul\":1301:1354   */\n      tag_507\n        /* \"#utility.yul\":1346:1353   */\n      dup5\n        /* \"#utility.yul\":1337:1343   */\n      dup3\n        /* \"#utility.yul\":1326:1335   */\n      dup6\n        /* \"#utility.yul\":1322:1344   */\n      add\n        /* \"#utility.yul\":1301:1354   */\n      tag_431\n      jump\t// in\n    tag_507:\n        /* \"#utility.yul\":1291:1354   */\n      swap2\n      pop\n        /* \"#utility.yul\":1247:1364   */\n      pop\n        /* \"#utility.yul\":1042:1371   */\n      swap3\n      swap2\n      pop\n      pop\n      jump\t// out\n        /* \"#utility.yul\":1377:1503   */\n    tag_432:\n        /* \"#utility.yul\":1414:1421   */\n      0x00\n        /* \"#utility.yul\":1454:1496   */\n      0xffffffffffffffffffffffffffffffffffffffff\n        /* \"#utility.yul\":1447:1452   */\n      dup3\n        /* \"#utility.yul\":1443:1497   */\n      and\n        /* \"#utility.yul\":1432:1497   */\n      swap1\n      pop\n        /* \"#utility.yul\":1377:1503   */\n      swap2\n      swap1\n      pop\n      jump\t// out\n        /* \"#utility.yul\":1509:1605   */\n    tag_433:\n        /* \"#utility.yul\":1546:1553   */\n      0x00\n        /* \"#utility.yul\":1575:1599   */\n      tag_510\n        /* \"#utility.yul\":1593:1598   */\n      dup3\n        /* \"#utility.yul\":1575:1599   */\n      tag_432\n      jump\t// in\n    tag_510:\n        /* \"#utility.yul\":1564:1599   */\n      swap1\n      pop\n        /* \"#utility.yul\":1509:1605   */\n      swap2\n      swap1\n      pop\n      jump\t// out\n        /* \"#utility.yul\":1611:1733   */\n    tag_434:\n        /* \"#utility.yul\":1684:1708   */\n      tag_512\n        /* \"#utility.yul\":1702:1707   */\n      dup2\n        /* \"#utility.yul\":1684:1708   */\n      tag_433\n      jump\t// in\n    tag_512:\n        /* \"#utility.yul\":1677:1682   */\n      dup2\n        /* \"#utility.yul\":1674:1709   */\n      eq\n        /* \"#utility.yul\":1664:1727   */\n      tag_513\n      jumpi\n        /* \"#utility.yul\":1723:1724   */\n      0x00\n        /* \"#utility.yul\":1720:1721   */\n      dup1\n        /* \"#utility.yul\":1713:1725   */\n      revert\n        /* \"#utility.yul\":1664:1727   */\n    tag_513:\n        /* \"#utility.yul\":1611:1733   */\n      pop\n      jump\t// out\n        /* \"#utility.yul\":1739:1878   */\n    tag_435:\n        /* \"#utility.yul\":1785:1790   */\n      0x00\n        /* \"#utility.yul\":1823:1829   */\n      dup2\n        /* \"#utility.yul\":1810:1830   */\n      calldataload\n        /* \"#utility.yul\":1801:1830   */\n      swap1\n      pop\n        /* \"#utility.yul\":1839:1872   */\n      tag_515\n        /* \"#utility.yul\":1866:1871   */\n      dup2\n        /* \"#utility.yul\":1839:1872   */\n      tag_434\n      jump\t// in\n    tag_515:\n        /* \"#utility.yul\":1739:1878   */\n      swap3\n      swap2\n      pop\n      pop\n      jump\t// out\n        /* \"#utility.yul\":1884:2213   */\n    tag_51:\n        /* \"#utility.yul\":1943:1949   */\n      0x00\n        /* \"#utility.yul\":1992:1994   */\n      0x20\n        /* \"#utility.yul\":1980:1989   */\n      dup3\n        /* \"#utility.yul\":1971:1978   */\n      dup5\n        /* \"#utility.yul\":1967:1990   */\n      sub\n        /* \"#utility.yul\":1963:1995   */\n      slt\n        /* \"#utility.yul\":1960:2079   */\n      iszero\n      tag_517\n      jumpi\n        /* \"#utility.yul\":1998:2077   */\n      tag_518\n      tag_428\n      jump\t// in\n    tag_518:\n        /* \"#utility.yul\":1960:2079   */\n    tag_517:\n        /* \"#utility.yul\":2118:2119   */\n      0x00\n        /* \"#utility.yul\":2143:2196   */\n      tag_519\n        /* \"#utility.yul\":2188:2195   */\n      dup5\n        /* \"#utility.yul\":2179:2185   */\n      dup3\n        /* \"#utility.yul\":2168:2177   */\n      dup6\n        /* \"#utility.yul\":2164:2186   */\n      add\n        /* \"#utility.yul\":2143:2196   */\n      tag_435\n      jump\t// in\n    tag_519:\n        /* \"#utility.yul\":2133:2196   */\n      swap2\n      pop\n        /* \"#utility.yul\":2089:2206   */\n      pop\n        /* \"#utility.yul\":1884:2213   */\n      swap3\n      swap2\n      pop\n      pop\n      jump\t// out\n        /* \"#utility.yul\":2219:2693   */\n    tag_59:\n        /* \"#utility.yul\":2287:2293   */\n      0x00\n        /* \"#utility.yul\":2295:2301   */\n      dup1\n        /* \"#utility.yul\":2344:2346   */\n      0x40\n        /* \"#utility.yul\":2332:2341   */\n      dup4\n        /* \"#utility.yul\":2323:2330   */\n      dup6\n        /* \"#utility.yul\":2319:2342   */\n      sub\n        /* \"#utility.yul\":2315:2347   */\n      slt\n        /* \"#utility.yul\":2312:2431   */\n      iszero\n      tag_521\n      jumpi\n        /* \"#utility.yul\":2350:2429   */\n      tag_522\n      tag_428\n      jump\t// in\n    tag_522:\n        /* \"#utility.yul\":2312:2431   */\n    tag_521:\n        /* \"#utility.yul\":2470:2471   */\n      0x00\n        /* \"#utility.yul\":2495:2548   */\n      tag_523\n        /* \"#utility.yul\":2540:2547   */\n      dup6\n        /* \"#utility.yul\":2531:2537   */\n      dup3\n        /* \"#utility.yul\":2520:2529   */\n      dup7\n        /* \"#utility.yul\":2516:2538   */\n      add\n        /* \"#utility.yul\":2495:2548   */\n      tag_431\n      jump\t// in\n    tag_523:\n        /* \"#utility.yul\":2485:2548   */\n      swap3\n      pop\n        /* \"#utility.yul\":2441:2558   */\n      pop\n        /* \"#utility.yul\":2597:2599   */\n      0x20\n        /* \"#utility.yul\":2623:2676   */\n      tag_524\n        /* \"#utility.yul\":2668:2675   */\n      dup6\n        /* \"#utility.yul\":2659:2665   */\n      dup3\n        /* \"#utility.yul\":2648:2657   */\n      dup7\n        /* \"#utility.yul\":2644:2666   */\n      add\n        /* \"#utility.yul\":2623:2676   */\n      tag_431\n      jump\t// in\n    tag_524:\n        /* \"#utility.yul\":2613:2676   */\n      swap2\n      pop\n        /* \"#utility.yul\":2568:2686   */\n      pop\n        /* \"#utility.yul\":2219:2693   */\n      swap3\n      pop\n      swap3\n      swap1\n      pop\n      jump\t// out\n        /* \"#utility.yul\":2699:2817   */\n    tag_436:\n        /* \"#utility.yul\":2786:2810   */\n      tag_526\n        /* \"#utility.yul\":2804:2809   */\n      dup2\n        /* \"#utility.yul\":2786:2810   */\n      tag_433\n      jump\t// in\n    tag_526:\n        /* \"#utility.yul\":2781:2784   */\n      dup3\n        /* \"#utility.yul\":2774:2811   */\n      mstore\n        /* \"#utility.yul\":2699:2817   */\n      pop\n      pop\n      jump\t// out\n        /* \"#utility.yul\":2823:3045   */\n    tag_85:\n        /* \"#utility.yul\":2916:2920   */\n      0x00\n        /* \"#utility.yul\":2954:2956   */\n      0x20\n        /* \"#utility.yul\":2943:2952   */\n      dup3\n        /* \"#utility.yul\":2939:2957   */\n      add\n        /* \"#utility.yul\":2931:2957   */\n      swap1\n      pop\n        /* \"#utility.yul\":2967:3038   */\n      tag_528\n        /* \"#utility.yul\":3035:3036   */\n      0x00\n        /* \"#utility.yul\":3024:3033   */\n      dup4\n        /* \"#utility.yul\":3020:3037   */\n      add\n        /* \"#utility.yul\":3011:3017   */\n      dup5\n        /* \"#utility.yul\":2967:3038   */\n      tag_436\n      jump\t// in\n    tag_528:\n        /* \"#utility.yul\":2823:3045   */\n      swap3\n      swap2\n      pop\n      pop\n      jump\t// out\n        /* \"#utility.yul\":3051:3111   */\n    tag_437:\n        /* \"#utility.yul\":3079:3082   */\n      0x00\n        /* \"#utility.yul\":3100:3105   */\n      dup2\n        /* \"#utility.yul\":3093:3105   */\n      swap1\n      pop\n        /* \"#utility.yul\":3051:3111   */\n      swap2\n      swap1\n      pop\n      jump\t// out\n        /* \"#utility.yul\":3117:3259   */\n    tag_438:\n        /* \"#utility.yul\":3167:3176   */\n      0x00\n        /* \"#utility.yul\":3200:3253   */\n      tag_531\n        /* \"#utility.yul\":3218:3252   */\n      tag_532\n        /* \"#utility.yul\":3227:3251   */\n      tag_533\n        /* \"#utility.yul\":3245:3250   */\n      dup5\n        /* \"#utility.yul\":3227:3251   */\n      tag_432\n      jump\t// in\n    tag_533:\n        /* \"#utility.yul\":3218:3252   */\n      tag_437\n      jump\t// in\n    tag_532:\n        /* \"#utility.yul\":3200:3253   */\n      tag_432\n      jump\t// in\n    tag_531:\n        /* \"#utility.yul\":3187:3253   */\n      swap1\n      pop\n        /* \"#utility.yul\":3117:3259   */\n      swap2\n      swap1\n      pop\n      jump\t// out\n        /* \"#utility.yul\":3265:3391   */\n    tag_439:\n        /* \"#utility.yul\":3315:3324   */\n      0x00\n        /* \"#utility.yul\":3348:3385   */\n      tag_535\n        /* \"#utility.yul\":3379:3384   */\n      dup3\n        /* \"#utility.yul\":3348:3385   */\n      tag_438\n      jump\t// in\n    tag_535:\n        /* \"#utility.yul\":3335:3385   */\n      swap1\n      pop\n        /* \"#utility.yul\":3265:3391   */\n      swap2\n      swap1\n      pop\n      jump\t// out\n        /* \"#utility.yul\":3397:3537   */\n    tag_440:\n        /* \"#utility.yul\":3461:3470   */\n      0x00\n        /* \"#utility.yul\":3494:3531   */\n      tag_537\n        /* \"#utility.yul\":3525:3530   */\n      dup3\n        /* \"#utility.yul\":3494:3531   */\n      tag_439\n      jump\t// in\n    tag_537:\n        /* \"#utility.yul\":3481:3531   */\n      swap1\n      pop\n        /* \"#utility.yul\":3397:3537   */\n      swap2\n      swap1\n      pop\n      jump\t// out\n        /* \"#utility.yul\":3543:3702   */\n    tag_441:\n        /* \"#utility.yul\":3644:3695   */\n      tag_539\n        /* \"#utility.yul\":3689:3694   */\n      dup2\n        /* \"#utility.yul\":3644:3695   */\n      tag_440\n      jump\t// in\n    tag_539:\n        /* \"#utility.yul\":3639:3642   */\n      dup3\n        /* \"#utility.yul\":3632:3696   */\n      mstore\n        /* \"#utility.yul\":3543:3702   */\n      pop\n      pop\n      jump\t// out\n        /* \"#utility.yul\":3708:3958   */\n    tag_122:\n        /* \"#utility.yul\":3815:3819   */\n      0x00\n        /* \"#utility.yul\":3853:3855   */\n      0x20\n        /* \"#utility.yul\":3842:3851   */\n      dup3\n        /* \"#utility.yul\":3838:3856   */\n      add\n        /* \"#utility.yul\":3830:3856   */\n      swap1\n      pop\n        /* \"#utility.yul\":3866:3951   */\n      tag_541\n        /* \"#utility.yul\":3948:3949   */\n      0x00\n        /* \"#utility.yul\":3937:3946   */\n      dup4\n        /* \"#utility.yul\":3933:3950   */\n      add\n        /* \"#utility.yul\":3924:3930   */\n      dup5\n        /* \"#utility.yul\":3866:3951   */\n      tag_441\n      jump\t// in\n    tag_541:\n        /* \"#utility.yul\":3708:3958   */\n      swap3\n      swap2\n      pop\n      pop\n      jump\t// out\n        /* \"#utility.yul\":3964:4133   */\n    tag_442:\n        /* \"#utility.yul\":4048:4059   */\n      0x00\n        /* \"#utility.yul\":4082:4088   */\n      dup3\n        /* \"#utility.yul\":4077:4080   */\n      dup3\n        /* \"#utility.yul\":4070:4089   */\n      mstore\n        /* \"#utility.yul\":4122:4126   */\n      0x20\n        /* \"#utility.yul\":4117:4120   */\n      dup3\n        /* \"#utility.yul\":4113:4127   */\n      add\n        /* \"#utility.yul\":4098:4127   */\n      swap1\n      pop\n        /* \"#utility.yul\":3964:4133   */\n      swap3\n      swap2\n      pop\n      pop\n      jump\t// out\n        /* \"#utility.yul\":4139:4321   */\n    tag_443:\n        /* \"#utility.yul\":4279:4313   */\n      0x4f776e61626c653a2063616c6c6572206973206e6f7420746865206f776e6572\n        /* \"#utility.yul\":4275:4276   */\n      0x00\n        /* \"#utility.yul\":4267:4273   */\n      dup3\n        /* \"#utility.yul\":4263:4277   */\n      add\n        /* \"#utility.yul\":4256:4314   */\n      mstore\n        /* \"#utility.yul\":4139:4321   */\n      pop\n      jump\t// out\n        /* \"#utility.yul\":4327:4693   */\n    tag_444:\n        /* \"#utility.yul\":4469:4472   */\n      0x00\n        /* \"#utility.yul\":4490:4557   */\n      tag_545\n        /* \"#utility.yul\":4554:4556   */\n      0x20\n        /* \"#utility.yul\":4549:4552   */\n      dup4\n        /* \"#utility.yul\":4490:4557   */\n      tag_442\n      jump\t// in\n    tag_545:\n        /* \"#utility.yul\":4483:4557   */\n      swap2\n      pop\n        /* \"#utility.yul\":4566:4659   */\n      tag_546\n        /* \"#utility.yul\":4655:4658   */\n      dup3\n        /* \"#utility.yul\":4566:4659   */\n      tag_443\n      jump\t// in\n    tag_546:\n        /* \"#utility.yul\":4684:4686   */\n      0x20\n        /* \"#utility.yul\":4679:4682   */\n      dup3\n        /* \"#utility.yul\":4675:4687   */\n      add\n        /* \"#utility.yul\":4668:4687   */\n      swap1\n      pop\n        /* \"#utility.yul\":4327:4693   */\n      swap2\n      swap1\n      pop\n      jump\t// out\n        /* \"#utility.yul\":4699:5118   */\n    tag_134:\n        /* \"#utility.yul\":4865:4869   */\n      0x00\n        /* \"#utility.yul\":4903:4905   */\n      0x20\n        /* \"#utility.yul\":4892:4901   */\n      dup3\n        /* \"#utility.yul\":4888:4906   */\n      add\n        /* \"#utility.yul\":4880:4906   */\n      swap1\n      pop\n        /* \"#utility.yul\":4952:4961   */\n      dup2\n        /* \"#utility.yul\":4946:4950   */\n      dup2\n        /* \"#utility.yul\":4942:4962   */\n      sub\n        /* \"#utility.yul\":4938:4939   */\n      0x00\n        /* \"#utility.yul\":4927:4936   */\n      dup4\n        /* \"#utility.yul\":4923:4940   */\n      add\n        /* \"#utility.yul\":4916:4963   */\n      mstore\n        /* \"#utility.yul\":4980:5111   */\n      tag_548\n        /* \"#utility.yul\":5106:5110   */\n      dup2\n        /* \"#utility.yul\":4980:5111   */\n      tag_444\n      jump\t// in\n    tag_548:\n        /* \"#utility.yul\":4972:5111   */\n      swap1\n      pop\n        /* \"#utility.yul\":4699:5118   */\n      swap2\n      swap1\n      pop\n      jump\t// out\n        /* \"#utility.yul\":5124:5287   */\n    tag_445:\n        /* \"#utility.yul\":5264:5279   */\n      0x43616e2774206265207a65726f00000000000000000000000000000000000000\n        /* \"#utility.yul\":5260:5261   */\n      0x00\n        /* \"#utility.yul\":5252:5258   */\n      dup3\n        /* \"#utility.yul\":5248:5262   */\n      add\n        /* \"#utility.yul\":5241:5280   */\n      mstore\n        /* \"#utility.yul\":5124:5287   */\n      pop\n      jump\t// out\n        /* \"#utility.yul\":5293:5659   */\n    tag_446:\n        /* \"#utility.yul\":5435:5438   */\n      0x00\n        /* \"#utility.yul\":5456:5523   */\n      tag_551\n        /* \"#utility.yul\":5520:5522   */\n      0x0d\n        /* \"#utility.yul\":5515:5518   */\n      dup4\n        /* \"#utility.yul\":5456:5523   */\n      tag_442\n      jump\t// in\n    tag_551:\n        /* \"#utility.yul\":5449:5523   */\n      swap2\n      pop\n        /* \"#utility.yul\":5532:5625   */\n      tag_552\n        /* \"#utility.yul\":5621:5624   */\n      dup3\n        /* \"#utility.yul\":5532:5625   */\n      tag_445\n      jump\t// in\n    tag_552:\n        /* \"#utility.yul\":5650:5652   */\n      0x20\n        /* \"#utility.yul\":5645:5648   */\n      dup3\n        /* \"#utility.yul\":5641:5653   */\n      add\n        /* \"#utility.yul\":5634:5653   */\n      swap1\n      pop\n        /* \"#utility.yul\":5293:5659   */\n      swap2\n      swap1\n      pop\n      jump\t// out\n        /* \"#utility.yul\":5665:6084   */\n    tag_138:\n        /* \"#utility.yul\":5831:5835   */\n      0x00\n        /* \"#utility.yul\":5869:5871   */\n      0x20\n        /* \"#utility.yul\":5858:5867   */\n      dup3\n        /* \"#utility.yul\":5854:5872   */\n      add\n        /* \"#utility.yul\":5846:5872   */\n      swap1\n      pop\n        /* \"#utility.yul\":5918:5927   */\n      dup2\n        /* \"#utility.yul\":5912:5916   */\n      dup2\n        /* \"#utility.yul\":5908:5928   */\n      sub\n        /* \"#utility.yul\":5904:5905   */\n      0x00\n        /* \"#utility.yul\":5893:5902   */\n      dup4\n        /* \"#utility.yul\":5889:5906   */\n      add\n        /* \"#utility.yul\":5882:5929   */\n      mstore\n        /* \"#utility.yul\":5946:6077   */\n      tag_554\n        /* \"#utility.yul\":6072:6076   */\n      dup2\n        /* \"#utility.yul\":5946:6077   */\n      tag_446\n      jump\t// in\n    tag_554:\n        /* \"#utility.yul\":5938:6077   */\n      swap1\n      pop\n        /* \"#utility.yul\":5665:6084   */\n      swap2\n      swap1\n      pop\n      jump\t// out\n        /* \"#utility.yul\":6090:6271   */\n    tag_447:\n        /* \"#utility.yul\":6230:6263   */\n      0x416d6f756e742073686f756c642062652067726561746572207468616e203000\n        /* \"#utility.yul\":6226:6227   */\n      0x00\n        /* \"#utility.yul\":6218:6224   */\n      dup3\n        /* \"#utility.yul\":6214:6228   */\n      add\n        /* \"#utility.yul\":6207:6264   */\n      mstore\n        /* \"#utility.yul\":6090:6271   */\n      pop\n      jump\t// out\n        /* \"#utility.yul\":6277:6643   */\n    tag_448:\n        /* \"#utility.yul\":6419:6422   */\n      0x00\n        /* \"#utility.yul\":6440:6507   */\n      tag_557\n        /* \"#utility.yul\":6504:6506   */\n      0x1f\n        /* \"#utility.yul\":6499:6502   */\n      dup4\n        /* \"#utility.yul\":6440:6507   */\n      tag_442\n      jump\t// in\n    tag_557:\n        /* \"#utility.yul\":6433:6507   */\n      swap2\n      pop\n        /* \"#utility.yul\":6516:6609   */\n      tag_558\n        /* \"#utility.yul\":6605:6608   */\n      dup3\n        /* \"#utility.yul\":6516:6609   */\n      tag_447\n      jump\t// in\n    tag_558:\n        /* \"#utility.yul\":6634:6636   */\n      0x20\n        /* \"#utility.yul\":6629:6632   */\n      dup3\n        /* \"#utility.yul\":6625:6637   */\n      add\n        /* \"#utility.yul\":6618:6637   */\n      swap1\n      pop\n        /* \"#utility.yul\":6277:6643   */\n      swap2\n      swap1\n      pop\n      jump\t// out\n        /* \"#utility.yul\":6649:7068   */\n    tag_142:\n        /* \"#utility.yul\":6815:6819   */\n      0x00\n        /* \"#utility.yul\":6853:6855   */\n      0x20\n        /* \"#utility.yul\":6842:6851   */\n      dup3\n        /* \"#utility.yul\":6838:6856   */\n      add\n        /* \"#utility.yul\":6830:6856   */\n      swap1\n      pop\n        /* \"#utility.yul\":6902:6911   */\n      dup2\n        /* \"#utility.yul\":6896:6900   */\n      dup2\n        /* \"#utility.yul\":6892:6912   */\n      sub\n        /* \"#utility.yul\":6888:6889   */\n      0x00\n        /* \"#utility.yul\":6877:6886   */\n      dup4\n        /* \"#utility.yul\":6873:6890   */\n      add\n        /* \"#utility.yul\":6866:6913   */\n      mstore\n        /* \"#utility.yul\":6930:7061   */\n      tag_560\n        /* \"#utility.yul\":7056:7060   */\n      dup2\n        /* \"#utility.yul\":6930:7061   */\n      tag_448\n      jump\t// in\n    tag_560:\n        /* \"#utility.yul\":6922:7061   */\n      swap1\n      pop\n        /* \"#utility.yul\":6649:7068   */\n      swap2\n      swap1\n      pop\n      jump\t// out\n        /* \"#utility.yul\":7074:7238   */\n    tag_449:\n        /* \"#utility.yul\":7214:7230   */\n      0x496e76616c696420616d6f756e74000000000000000000000000000000000000\n        /* \"#utility.yul\":7210:7211   */\n      0x00\n        /* \"#utility.yul\":7202:7208   */\n      dup3\n        /* \"#utility.yul\":7198:7212   */\n      add\n        /* \"#utility.yul\":7191:7231   */\n      mstore\n        /* \"#utility.yul\":7074:7238   */\n      pop\n      jump\t// out\n        /* \"#utility.yul\":7244:7610   */\n    tag_450:\n        /* \"#utility.yul\":7386:7389   */\n      0x00\n        /* \"#utility.yul\":7407:7474   */\n      tag_563\n        /* \"#utility.yul\":7471:7473   */\n      0x0e\n        /* \"#utility.yul\":7466:7469   */\n      dup4\n        /* \"#utility.yul\":7407:7474   */\n      tag_442\n      jump\t// in\n    tag_563:\n        /* \"#utility.yul\":7400:7474   */\n      swap2\n      pop\n        /* \"#utility.yul\":7483:7576   */\n      tag_564\n        /* \"#utility.yul\":7572:7575   */\n      dup3\n        /* \"#utility.yul\":7483:7576   */\n      tag_449\n      jump\t// in\n    tag_564:\n        /* \"#utility.yul\":7601:7603   */\n      0x20\n        /* \"#utility.yul\":7596:7599   */\n      dup3\n        /* \"#utility.yul\":7592:7604   */\n      add\n        /* \"#utility.yul\":7585:7604   */\n      swap1\n      pop\n        /* \"#utility.yul\":7244:7610   */\n      swap2\n      swap1\n      pop\n      jump\t// out\n        /* \"#utility.yul\":7616:8035   */\n    tag_145:\n        /* \"#utility.yul\":7782:7786   */\n      0x00\n        /* \"#utility.yul\":7820:7822   */\n      0x20\n        /* \"#utility.yul\":7809:7818   */\n      dup3\n        /* \"#utility.yul\":7805:7823   */\n      add\n        /* \"#utility.yul\":7797:7823   */\n      swap1\n      pop\n        /* \"#utility.yul\":7869:7878   */\n      dup2\n        /* \"#utility.yul\":7863:7867   */\n      dup2\n        /* \"#utility.yul\":7859:7879   */\n      sub\n        /* \"#utility.yul\":7855:7856   */\n      0x00\n        /* \"#utility.yul\":7844:7853   */\n      dup4\n        /* \"#utility.yul\":7840:7857   */\n      add\n        /* \"#utility.yul\":7833:7880   */\n      mstore\n        /* \"#utility.yul\":7897:8028   */\n      tag_566\n        /* \"#utility.yul\":8023:8027   */\n      dup2\n        /* \"#utility.yul\":7897:8028   */\n      tag_450\n      jump\t// in\n    tag_566:\n        /* \"#utility.yul\":7889:8028   */\n      swap1\n      pop\n        /* \"#utility.yul\":7616:8035   */\n      swap2\n      swap1\n      pop\n      jump\t// out\n        /* \"#utility.yul\":8041:8221   */\n    tag_451:\n        /* \"#utility.yul\":8089:8166   */\n      0x4e487b7100000000000000000000000000000000000000000000000000000000\n        /* \"#utility.yul\":8086:8087   */\n      0x00\n        /* \"#utility.yul\":8079:8167   */\n      mstore\n        /* \"#utility.yul\":8186:8190   */\n      0x12\n        /* \"#utility.yul\":8183:8184   */\n      0x04\n        /* \"#utility.yul\":8176:8191   */\n      mstore\n        /* \"#utility.yul\":8210:8214   */\n      0x24\n        /* \"#utility.yul\":8207:8208   */\n      0x00\n        /* \"#utility.yul\":8200:8215   */\n      revert\n        /* \"#utility.yul\":8227:8403   */\n    tag_157:\n        /* \"#utility.yul\":8259:8260   */\n      0x00\n        /* \"#utility.yul\":8276:8296   */\n      tag_569\n        /* \"#utility.yul\":8294:8295   */\n      dup3\n        /* \"#utility.yul\":8276:8296   */\n      tag_425\n      jump\t// in\n    tag_569:\n        /* \"#utility.yul\":8271:8296   */\n      swap2\n      pop\n        /* \"#utility.yul\":8310:8330   */\n      tag_570\n        /* \"#utility.yul\":8328:8329   */\n      dup4\n        /* \"#utility.yul\":8310:8330   */\n      tag_425\n      jump\t// in\n    tag_570:\n        /* \"#utility.yul\":8305:8330   */\n      swap3\n      pop\n        /* \"#utility.yul\":8349:8350   */\n      dup3\n        /* \"#utility.yul\":8339:8374   */\n      tag_571\n      jumpi\n        /* \"#utility.yul\":8354:8372   */\n      tag_572\n      tag_451\n      jump\t// in\n    tag_572:\n        /* \"#utility.yul\":8339:8374   */\n    tag_571:\n        /* \"#utility.yul\":8395:8396   */\n      dup3\n        /* \"#utility.yul\":8392:8393   */\n      dup3\n        /* \"#utility.yul\":8388:8397   */\n      mod\n        /* \"#utility.yul\":8383:8397   */\n      swap1\n      pop\n        /* \"#utility.yul\":8227:8403   */\n      swap3\n      swap2\n      pop\n      pop\n      jump\t// out\n        /* \"#utility.yul\":8409:8741   */\n    tag_169:\n        /* \"#utility.yul\":8530:8534   */\n      0x00\n        /* \"#utility.yul\":8568:8570   */\n      0x40\n        /* \"#utility.yul\":8557:8566   */\n      dup3\n        /* \"#utility.yul\":8553:8571   */\n      add\n        /* \"#utility.yul\":8545:8571   */\n      swap1\n      pop\n        /* \"#utility.yul\":8581:8652   */\n      tag_574\n        /* \"#utility.yul\":8649:8650   */\n      0x00\n        /* \"#utility.yul\":8638:8647   */\n      dup4\n        /* \"#utility.yul\":8634:8651   */\n      add\n        /* \"#utility.yul\":8625:8631   */\n      dup6\n        /* \"#utility.yul\":8581:8652   */\n      tag_436\n      jump\t// in\n    tag_574:\n        /* \"#utility.yul\":8662:8734   */\n      tag_575\n        /* \"#utility.yul\":8730:8732   */\n      0x20\n        /* \"#utility.yul\":8719:8728   */\n      dup4\n        /* \"#utility.yul\":8715:8733   */\n      add\n        /* \"#utility.yul\":8706:8712   */\n      dup5\n        /* \"#utility.yul\":8662:8734   */\n      tag_426\n      jump\t// in\n    tag_575:\n        /* \"#utility.yul\":8409:8741   */\n      swap4\n      swap3\n      pop\n      pop\n      pop\n      jump\t// out\n        /* \"#utility.yul\":8747:8913   */\n    tag_452:\n        /* \"#utility.yul\":8887:8905   */\n      0x4e6f7468696e6720746f20636c61696d00000000000000000000000000000000\n        /* \"#utility.yul\":8883:8884   */\n      0x00\n        /* \"#utility.yul\":8875:8881   */\n      dup3\n        /* \"#utility.yul\":8871:8885   */\n      add\n        /* \"#utility.yul\":8864:8906   */\n      mstore\n        /* \"#utility.yul\":8747:8913   */\n      pop\n      jump\t// out\n        /* \"#utility.yul\":8919:9285   */\n    tag_453:\n        /* \"#utility.yul\":9061:9064   */\n      0x00\n        /* \"#utility.yul\":9082:9149   */\n      tag_578\n        /* \"#utility.yul\":9146:9148   */\n      0x10\n        /* \"#utility.yul\":9141:9144   */\n      dup4\n        /* \"#utility.yul\":9082:9149   */\n      tag_442\n      jump\t// in\n    tag_578:\n        /* \"#utility.yul\":9075:9149   */\n      swap2\n      pop\n        /* \"#utility.yul\":9158:9251   */\n      tag_579\n        /* \"#utility.yul\":9247:9250   */\n      dup3\n        /* \"#utility.yul\":9158:9251   */\n      tag_452\n      jump\t// in\n    tag_579:\n        /* \"#utility.yul\":9276:9278   */\n      0x20\n        /* \"#utility.yul\":9271:9274   */\n      dup3\n        /* \"#utility.yul\":9267:9279   */\n      add\n        /* \"#utility.yul\":9260:9279   */\n      swap1\n      pop\n        /* \"#utility.yul\":8919:9285   */\n      swap2\n      swap1\n      pop\n      jump\t// out\n        /* \"#utility.yul\":9291:9710   */\n    tag_177:\n        /* \"#utility.yul\":9457:9461   */\n      0x00\n        /* \"#utility.yul\":9495:9497   */\n      0x20\n        /* \"#utility.yul\":9484:9493   */\n      dup3\n        /* \"#utility.yul\":9480:9498   */\n      add\n        /* \"#utility.yul\":9472:9498   */\n      swap1\n      pop\n        /* \"#utility.yul\":9544:9553   */\n      dup2\n        /* \"#utility.yul\":9538:9542   */\n      dup2\n        /* \"#utility.yul\":9534:9554   */\n      sub\n        /* \"#utility.yul\":9530:9531   */\n      0x00\n        /* \"#utility.yul\":9519:9528   */\n      dup4\n        /* \"#utility.yul\":9515:9532   */\n      add\n        /* \"#utility.yul\":9508:9555   */\n      mstore\n        /* \"#utility.yul\":9572:9703   */\n      tag_581\n        /* \"#utility.yul\":9698:9702   */\n      dup2\n        /* \"#utility.yul\":9572:9703   */\n      tag_453\n      jump\t// in\n    tag_581:\n        /* \"#utility.yul\":9564:9703   */\n      swap1\n      pop\n        /* \"#utility.yul\":9291:9710   */\n      swap2\n      swap1\n      pop\n      jump\t// out\n        /* \"#utility.yul\":9716:9859   */\n    tag_454:\n        /* \"#utility.yul\":9773:9778   */\n      0x00\n        /* \"#utility.yul\":9804:9810   */\n      dup2\n        /* \"#utility.yul\":9798:9811   */\n      mload\n        /* \"#utility.yul\":9789:9811   */\n      swap1\n      pop\n        /* \"#utility.yul\":9820:9853   */\n      tag_583\n        /* \"#utility.yul\":9847:9852   */\n      dup2\n        /* \"#utility.yul\":9820:9853   */\n      tag_430\n      jump\t// in\n    tag_583:\n        /* \"#utility.yul\":9716:9859   */\n      swap3\n      swap2\n      pop\n      pop\n      jump\t// out\n        /* \"#utility.yul\":9865:10216   */\n    tag_183:\n        /* \"#utility.yul\":9935:9941   */\n      0x00\n        /* \"#utility.yul\":9984:9986   */\n      0x20\n        /* \"#utility.yul\":9972:9981   */\n      dup3\n        /* \"#utility.yul\":9963:9970   */\n      dup5\n        /* \"#utility.yul\":9959:9982   */\n      sub\n        /* \"#utility.yul\":9955:9987   */\n      slt\n        /* \"#utility.yul\":9952:10071   */\n      iszero\n      tag_585\n      jumpi\n        /* \"#utility.yul\":9990:10069   */\n      tag_586\n      tag_428\n      jump\t// in\n    tag_586:\n        /* \"#utility.yul\":9952:10071   */\n    tag_585:\n        /* \"#utility.yul\":10110:10111   */\n      0x00\n        /* \"#utility.yul\":10135:10199   */\n      tag_587\n        /* \"#utility.yul\":10191:10198   */\n      dup5\n        /* \"#utility.yul\":10182:10188   */\n      dup3\n        /* \"#utility.yul\":10171:10180   */\n      dup6\n        /* \"#utility.yul\":10167:10189   */\n      add\n        /* \"#utility.yul\":10135:10199   */\n      tag_454\n      jump\t// in\n    tag_587:\n        /* \"#utility.yul\":10125:10199   */\n      swap2\n      pop\n        /* \"#utility.yul\":10081:10209   */\n      pop\n        /* \"#utility.yul\":9865:10216   */\n      swap3\n      swap2\n      pop\n      pop\n      jump\t// out\n        /* \"#utility.yul\":10222:10385   */\n    tag_455:\n        /* \"#utility.yul\":10362:10377   */\n      0x496e73756666696369656e742100000000000000000000000000000000000000\n        /* \"#utility.yul\":10358:10359   */\n      0x00\n        /* \"#utility.yul\":10350:10356   */\n      dup3\n        /* \"#utility.yul\":10346:10360   */\n      add\n        /* \"#utility.yul\":10339:10378   */\n      mstore\n        /* \"#utility.yul\":10222:10385   */\n      pop\n      jump\t// out\n        /* \"#utility.yul\":10391:10757   */\n    tag_456:\n        /* \"#utility.yul\":10533:10536   */\n      0x00\n        /* \"#utility.yul\":10554:10621   */\n      tag_590\n        /* \"#utility.yul\":10618:10620   */\n      0x0d\n        /* \"#utility.yul\":10613:10616   */\n      dup4\n        /* \"#utility.yul\":10554:10621   */\n      tag_442\n      jump\t// in\n    tag_590:\n        /* \"#utility.yul\":10547:10621   */\n      swap2\n      pop\n        /* \"#utility.yul\":10630:10723   */\n      tag_591\n        /* \"#utility.yul\":10719:10722   */\n      dup3\n        /* \"#utility.yul\":10630:10723   */\n      tag_455\n      jump\t// in\n    tag_591:\n        /* \"#utility.yul\":10748:10750   */\n      0x20\n        /* \"#utility.yul\":10743:10746   */\n      dup3\n        /* \"#utility.yul\":10739:10751   */\n      add\n        /* \"#utility.yul\":10732:10751   */\n      swap1\n      pop\n        /* \"#utility.yul\":10391:10757   */\n      swap2\n      swap1\n      pop\n      jump\t// out\n        /* \"#utility.yul\":10763:11182   */\n    tag_221:\n        /* \"#utility.yul\":10929:10933   */\n      0x00\n        /* \"#utility.yul\":10967:10969   */\n      0x20\n        /* \"#utility.yul\":10956:10965   */\n      dup3\n        /* \"#utility.yul\":10952:10970   */\n      add\n        /* \"#utility.yul\":10944:10970   */\n      swap1\n      pop\n        /* \"#utility.yul\":11016:11025   */\n      dup2\n        /* \"#utility.yul\":11010:11014   */\n      dup2\n        /* \"#utility.yul\":11006:11026   */\n      sub\n        /* \"#utility.yul\":11002:11003   */\n      0x00\n        /* \"#utility.yul\":10991:11000   */\n      dup4\n        /* \"#utility.yul\":10987:11004   */\n      add\n        /* \"#utility.yul\":10980:11027   */\n      mstore\n        /* \"#utility.yul\":11044:11175   */\n      tag_593\n        /* \"#utility.yul\":11170:11174   */\n      dup2\n        /* \"#utility.yul\":11044:11175   */\n      tag_456\n      jump\t// in\n    tag_593:\n        /* \"#utility.yul\":11036:11175   */\n      swap1\n      pop\n        /* \"#utility.yul\":10763:11182   */\n      swap2\n      swap1\n      pop\n      jump\t// out\n        /* \"#utility.yul\":11188:11353   */\n    tag_457:\n        /* \"#utility.yul\":11328:11345   */\n      0x416c726561647920737461727465640000000000000000000000000000000000\n        /* \"#utility.yul\":11324:11325   */\n      0x00\n        /* \"#utility.yul\":11316:11322   */\n      dup3\n        /* \"#utility.yul\":11312:11326   */\n      add\n        /* \"#utility.yul\":11305:11346   */\n      mstore\n        /* \"#utility.yul\":11188:11353   */\n      pop\n      jump\t// out\n        /* \"#utility.yul\":11359:11725   */\n    tag_458:\n        /* \"#utility.yul\":11501:11504   */\n      0x00\n        /* \"#utility.yul\":11522:11589   */\n      tag_596\n        /* \"#utility.yul\":11586:11588   */\n      0x0f\n        /* \"#utility.yul\":11581:11584   */\n      dup4\n        /* \"#utility.yul\":11522:11589   */\n      tag_442\n      jump\t// in\n    tag_596:\n        /* \"#utility.yul\":11515:11589   */\n      swap2\n      pop\n        /* \"#utility.yul\":11598:11691   */\n      tag_597\n        /* \"#utility.yul\":11687:11690   */\n      dup3\n        /* \"#utility.yul\":11598:11691   */\n      tag_457\n      jump\t// in\n    tag_597:\n        /* \"#utility.yul\":11716:11718   */\n      0x20\n        /* \"#utility.yul\":11711:11714   */\n      dup3\n        /* \"#utility.yul\":11707:11719   */\n      add\n        /* \"#utility.yul\":11700:11719   */\n      swap1\n      pop\n        /* \"#utility.yul\":11359:11725   */\n      swap2\n      swap1\n      pop\n      jump\t// out\n        /* \"#utility.yul\":11731:12150   */\n    tag_224:\n        /* \"#utility.yul\":11897:11901   */\n      0x00\n        /* \"#utility.yul\":11935:11937   */\n      0x20\n        /* \"#utility.yul\":11924:11933   */\n      dup3\n        /* \"#utility.yul\":11920:11938   */\n      add\n        /* \"#utility.yul\":11912:11938   */\n      swap1\n      pop\n        /* \"#utility.yul\":11984:11993   */\n      dup2\n        /* \"#utility.yul\":11978:11982   */\n      dup2\n        /* \"#utility.yul\":11974:11994   */\n      sub\n        /* \"#utility.yul\":11970:11971   */\n      0x00\n        /* \"#utility.yul\":11959:11968   */\n      dup4\n        /* \"#utility.yul\":11955:11972   */\n      add\n        /* \"#utility.yul\":11948:11995   */\n      mstore\n        /* \"#utility.yul\":12012:12143   */\n      tag_599\n        /* \"#utility.yul\":12138:12142   */\n      dup2\n        /* \"#utility.yul\":12012:12143   */\n      tag_458\n      jump\t// in\n    tag_599:\n        /* \"#utility.yul\":12004:12143   */\n      swap1\n      pop\n        /* \"#utility.yul\":11731:12150   */\n      swap2\n      swap1\n      pop\n      jump\t// out\n        /* \"#utility.yul\":12156:12318   */\n    tag_459:\n        /* \"#utility.yul\":12296:12310   */\n      0x496e73756666696369656e740000000000000000000000000000000000000000\n        /* \"#utility.yul\":12292:12293   */\n      0x00\n        /* \"#utility.yul\":12284:12290   */\n      dup3\n        /* \"#utility.yul\":12280:12294   */\n      add\n        /* \"#utility.yul\":12273:12311   */\n      mstore\n        /* \"#utility.yul\":12156:12318   */\n      pop\n      jump\t// out\n        /* \"#utility.yul\":12324:12690   */\n    tag_460:\n        /* \"#utility.yul\":12466:12469   */\n      0x00\n        /* \"#utility.yul\":12487:12554   */\n      tag_602\n        /* \"#utility.yul\":12551:12553   */\n      0x0c\n        /* \"#utility.yul\":12546:12549   */\n      dup4\n        /* \"#utility.yul\":12487:12554   */\n      tag_442\n      jump\t// in\n    tag_602:\n        /* \"#utility.yul\":12480:12554   */\n      swap2\n      pop\n        /* \"#utility.yul\":12563:12656   */\n      tag_603\n        /* \"#utility.yul\":12652:12655   */\n      dup3\n        /* \"#utility.yul\":12563:12656   */\n      tag_459\n      jump\t// in\n    tag_603:\n        /* \"#utility.yul\":12681:12683   */\n      0x20\n        /* \"#utility.yul\":12676:12679   */\n      dup3\n        /* \"#utility.yul\":12672:12684   */\n      add\n        /* \"#utility.yul\":12665:12684   */\n      swap1\n      pop\n        /* \"#utility.yul\":12324:12690   */\n      swap2\n      swap1\n      pop\n      jump\t// out\n        /* \"#utility.yul\":12696:13115   */\n    tag_228:\n        /* \"#utility.yul\":12862:12866   */\n      0x00\n        /* \"#utility.yul\":12900:12902   */\n      0x20\n        /* \"#utility.yul\":12889:12898   */\n      dup3\n        /* \"#utility.yul\":12885:12903   */\n      add\n        /* \"#utility.yul\":12877:12903   */\n      swap1\n      pop\n        /* \"#utility.yul\":12949:12958   */\n      dup2\n        /* \"#utility.yul\":12943:12947   */\n      dup2\n        /* \"#utility.yul\":12939:12959   */\n      sub\n        /* \"#utility.yul\":12935:12936   */\n      0x00\n        /* \"#utility.yul\":12924:12933   */\n      dup4\n        /* \"#utility.yul\":12920:12937   */\n      add\n        /* \"#utility.yul\":12913:12960   */\n      mstore\n        /* \"#utility.yul\":12977:13108   */\n      tag_605\n        /* \"#utility.yul\":13103:13107   */\n      dup2\n        /* \"#utility.yul\":12977:13108   */\n      tag_460\n      jump\t// in\n    tag_605:\n        /* \"#utility.yul\":12969:13108   */\n      swap1\n      pop\n        /* \"#utility.yul\":12696:13115   */\n      swap2\n      swap1\n      pop\n      jump\t// out\n        /* \"#utility.yul\":13121:13283   */\n    tag_461:\n        /* \"#utility.yul\":13261:13275   */\n      0x496e76616c6964204d6f64650000000000000000000000000000000000000000\n        /* \"#utility.yul\":13257:13258   */\n      0x00\n        /* \"#utility.yul\":13249:13255   */\n      dup3\n        /* \"#utility.yul\":13245:13259   */\n      add\n        /* \"#utility.yul\":13238:13276   */\n      mstore\n        /* \"#utility.yul\":13121:13283   */\n      pop\n      jump\t// out\n        /* \"#utility.yul\":13289:13655   */\n    tag_462:\n        /* \"#utility.yul\":13431:13434   */\n      0x00\n        /* \"#utility.yul\":13452:13519   */\n      tag_608\n        /* \"#utility.yul\":13516:13518   */\n      0x0c\n        /* \"#utility.yul\":13511:13514   */\n      dup4\n        /* \"#utility.yul\":13452:13519   */\n      tag_442\n      jump\t// in\n    tag_608:\n        /* \"#utility.yul\":13445:13519   */\n      swap2\n      pop\n        /* \"#utility.yul\":13528:13621   */\n      tag_609\n        /* \"#utility.yul\":13617:13620   */\n      dup3\n        /* \"#utility.yul\":13528:13621   */\n      tag_461\n      jump\t// in\n    tag_609:\n        /* \"#utility.yul\":13646:13648   */\n      0x20\n        /* \"#utility.yul\":13641:13644   */\n      dup3\n        /* \"#utility.yul\":13637:13649   */\n      add\n        /* \"#utility.yul\":13630:13649   */\n      swap1\n      pop\n        /* \"#utility.yul\":13289:13655   */\n      swap2\n      swap1\n      pop\n      jump\t// out\n        /* \"#utility.yul\":13661:14080   */\n    tag_244:\n        /* \"#utility.yul\":13827:13831   */\n      0x00\n        /* \"#utility.yul\":13865:13867   */\n      0x20\n        /* \"#utility.yul\":13854:13863   */\n      dup3\n        /* \"#utility.yul\":13850:13868   */\n      add\n        /* \"#utility.yul\":13842:13868   */\n      swap1\n      pop\n        /* \"#utility.yul\":13914:13923   */\n      dup2\n        /* \"#utility.yul\":13908:13912   */\n      dup2\n        /* \"#utility.yul\":13904:13924   */\n      sub\n        /* \"#utility.yul\":13900:13901   */\n      0x00\n        /* \"#utility.yul\":13889:13898   */\n      dup4\n        /* \"#utility.yul\":13885:13902   */\n      add\n        /* \"#utility.yul\":13878:13925   */\n      mstore\n        /* \"#utility.yul\":13942:14073   */\n      tag_611\n        /* \"#utility.yul\":14068:14072   */\n      dup2\n        /* \"#utility.yul\":13942:14073   */\n      tag_462\n      jump\t// in\n    tag_611:\n        /* \"#utility.yul\":13934:14073   */\n      swap1\n      pop\n        /* \"#utility.yul\":13661:14080   */\n      swap2\n      swap1\n      pop\n      jump\t// out\n        /* \"#utility.yul\":14086:14259   */\n    tag_463:\n        /* \"#utility.yul\":14226:14251   */\n      0x496e76616c6964204c6f636b7570204475726174696f6e000000000000000000\n        /* \"#utility.yul\":14222:14223   */\n      0x00\n        /* \"#utility.yul\":14214:14220   */\n      dup3\n        /* \"#utility.yul\":14210:14224   */\n      add\n        /* \"#utility.yul\":14203:14252   */\n      mstore\n        /* \"#utility.yul\":14086:14259   */\n      pop\n      jump\t// out\n        /* \"#utility.yul\":14265:14631   */\n    tag_464:\n        /* \"#utility.yul\":14407:14410   */\n      0x00\n        /* \"#utility.yul\":14428:14495   */\n      tag_614\n        /* \"#utility.yul\":14492:14494   */\n      0x17\n        /* \"#utility.yul\":14487:14490   */\n      dup4\n        /* \"#utility.yul\":14428:14495   */\n      tag_442\n      jump\t// in\n    tag_614:\n        /* \"#utility.yul\":14421:14495   */\n      swap2\n      pop\n        /* \"#utility.yul\":14504:14597   */\n      tag_615\n        /* \"#utility.yul\":14593:14596   */\n      dup3\n        /* \"#utility.yul\":14504:14597   */\n      tag_463\n      jump\t// in\n    tag_615:\n        /* \"#utility.yul\":14622:14624   */\n      0x20\n        /* \"#utility.yul\":14617:14620   */\n      dup3\n        /* \"#utility.yul\":14613:14625   */\n      add\n        /* \"#utility.yul\":14606:14625   */\n      swap1\n      pop\n        /* \"#utility.yul\":14265:14631   */\n      swap2\n      swap1\n      pop\n      jump\t// out\n        /* \"#utility.yul\":14637:15056   */\n    tag_259:\n        /* \"#utility.yul\":14803:14807   */\n      0x00\n        /* \"#utility.yul\":14841:14843   */\n      0x20\n        /* \"#utility.yul\":14830:14839   */\n      dup3\n        /* \"#utility.yul\":14826:14844   */\n      add\n        /* \"#utility.yul\":14818:14844   */\n      swap1\n      pop\n        /* \"#utility.yul\":14890:14899   */\n      dup2\n        /* \"#utility.yul\":14884:14888   */\n      dup2\n        /* \"#utility.yul\":14880:14900   */\n      sub\n        /* \"#utility.yul\":14876:14877   */\n      0x00\n        /* \"#utility.yul\":14865:14874   */\n      dup4\n        /* \"#utility.yul\":14861:14878   */\n      add\n        /* \"#utility.yul\":14854:14901   */\n      mstore\n        /* \"#utility.yul\":14918:15049   */\n      tag_617\n        /* \"#utility.yul\":15044:15048   */\n      dup2\n        /* \"#utility.yul\":14918:15049   */\n      tag_464\n      jump\t// in\n    tag_617:\n        /* \"#utility.yul\":14910:15049   */\n      swap1\n      pop\n        /* \"#utility.yul\":14637:15056   */\n      swap2\n      swap1\n      pop\n      jump\t// out\n        /* \"#utility.yul\":15062:15238   */\n    tag_465:\n        /* \"#utility.yul\":15202:15230   */\n      0x496e76616c696420556e7374616b696e67204665652052617465000000000000\n        /* \"#utility.yul\":15198:15199   */\n      0x00\n        /* \"#utility.yul\":15190:15196   */\n      dup3\n        /* \"#utility.yul\":15186:15200   */\n      add\n        /* \"#utility.yul\":15179:15231   */\n      mstore\n        /* \"#utility.yul\":15062:15238   */\n      pop\n      jump\t// out\n        /* \"#utility.yul\":15244:15610   */\n    tag_466:\n        /* \"#utility.yul\":15386:15389   */\n      0x00\n        /* \"#utility.yul\":15407:15474   */\n      tag_620\n        /* \"#utility.yul\":15471:15473   */\n      0x1a\n        /* \"#utility.yul\":15466:15469   */\n      dup4\n        /* \"#utility.yul\":15407:15474   */\n      tag_442\n      jump\t// in\n    tag_620:\n        /* \"#utility.yul\":15400:15474   */\n      swap2\n      pop\n        /* \"#utility.yul\":15483:15576   */\n      tag_621\n        /* \"#utility.yul\":15572:15575   */\n      dup3\n        /* \"#utility.yul\":15483:15576   */\n      tag_465\n      jump\t// in\n    tag_621:\n        /* \"#utility.yul\":15601:15603   */\n      0x20\n        /* \"#utility.yul\":15596:15599   */\n      dup3\n        /* \"#utility.yul\":15592:15604   */\n      add\n        /* \"#utility.yul\":15585:15604   */\n      swap1\n      pop\n        /* \"#utility.yul\":15244:15610   */\n      swap2\n      swap1\n      pop\n      jump\t// out\n        /* \"#utility.yul\":15616:16035   */\n    tag_290:\n        /* \"#utility.yul\":15782:15786   */\n      0x00\n        /* \"#utility.yul\":15820:15822   */\n      0x20\n        /* \"#utility.yul\":15809:15818   */\n      dup3\n        /* \"#utility.yul\":15805:15823   */\n      add\n        /* \"#utility.yul\":15797:15823   */\n      swap1\n      pop\n        /* \"#utility.yul\":15869:15878   */\n      dup2\n        /* \"#utility.yul\":15863:15867   */\n      dup2\n        /* \"#utility.yul\":15859:15879   */\n      sub\n        /* \"#utility.yul\":15855:15856   */\n      0x00\n        /* \"#utility.yul\":15844:15853   */\n      dup4\n        /* \"#utility.yul\":15840:15857   */\n      add\n        /* \"#utility.yul\":15833:15880   */\n      mstore\n        /* \"#utility.yul\":15897:16028   */\n      tag_623\n        /* \"#utility.yul\":16023:16027   */\n      dup2\n        /* \"#utility.yul\":15897:16028   */\n      tag_466\n      jump\t// in\n    tag_623:\n        /* \"#utility.yul\":15889:16028   */\n      swap1\n      pop\n        /* \"#utility.yul\":15616:16035   */\n      swap2\n      swap1\n      pop\n      jump\t// out\n        /* \"#utility.yul\":16041:16204   */\n    tag_467:\n        /* \"#utility.yul\":16181:16196   */\n      0x496e76616c69642076616c756500000000000000000000000000000000000000\n        /* \"#utility.yul\":16177:16178   */\n      0x00\n        /* \"#utility.yul\":16169:16175   */\n      dup3\n        /* \"#utility.yul\":16165:16179   */\n      add\n        /* \"#utility.yul\":16158:16197   */\n      mstore\n        /* \"#utility.yul\":16041:16204   */\n      pop\n      jump\t// out\n        /* \"#utility.yul\":16210:16576   */\n    tag_468:\n        /* \"#utility.yul\":16352:16355   */\n      0x00\n        /* \"#utility.yul\":16373:16440   */\n      tag_626\n        /* \"#utility.yul\":16437:16439   */\n      0x0d\n        /* \"#utility.yul\":16432:16435   */\n      dup4\n        /* \"#utility.yul\":16373:16440   */\n      tag_442\n      jump\t// in\n    tag_626:\n        /* \"#utility.yul\":16366:16440   */\n      swap2\n      pop\n        /* \"#utility.yul\":16449:16542   */\n      tag_627\n        /* \"#utility.yul\":16538:16541   */\n      dup3\n        /* \"#utility.yul\":16449:16542   */\n      tag_467\n      jump\t// in\n    tag_627:\n        /* \"#utility.yul\":16567:16569   */\n      0x20\n        /* \"#utility.yul\":16562:16565   */\n      dup3\n        /* \"#utility.yul\":16558:16570   */\n      add\n        /* \"#utility.yul\":16551:16570   */\n      swap1\n      pop\n        /* \"#utility.yul\":16210:16576   */\n      swap2\n      swap1\n      pop\n      jump\t// out\n        /* \"#utility.yul\":16582:17001   */\n    tag_300:\n        /* \"#utility.yul\":16748:16752   */\n      0x00\n        /* \"#utility.yul\":16786:16788   */\n      0x20\n        /* \"#utility.yul\":16775:16784   */\n      dup3\n        /* \"#utility.yul\":16771:16789   */\n      add\n        /* \"#utility.yul\":16763:16789   */\n      swap1\n      pop\n        /* \"#utility.yul\":16835:16844   */\n      dup2\n        /* \"#utility.yul\":16829:16833   */\n      dup2\n        /* \"#utility.yul\":16825:16845   */\n      sub\n        /* \"#utility.yul\":16821:16822   */\n      0x00\n        /* \"#utility.yul\":16810:16819   */\n      dup4\n        /* \"#utility.yul\":16806:16823   */\n      add\n        /* \"#utility.yul\":16799:16846   */\n      mstore\n        /* \"#utility.yul\":16863:16994   */\n      tag_629\n        /* \"#utility.yul\":16989:16993   */\n      dup2\n        /* \"#utility.yul\":16863:16994   */\n      tag_468\n      jump\t// in\n    tag_629:\n        /* \"#utility.yul\":16855:16994   */\n      swap1\n      pop\n        /* \"#utility.yul\":16582:17001   */\n      swap2\n      swap1\n      pop\n      jump\t// out\n        /* \"#utility.yul\":17007:17178   */\n    tag_469:\n        /* \"#utility.yul\":17147:17170   */\n      0x4572726f723a20696e76616c6964207374616b65720000000000000000000000\n        /* \"#utility.yul\":17143:17144   */\n      0x00\n        /* \"#utility.yul\":17135:17141   */\n      dup3\n        /* \"#utility.yul\":17131:17145   */\n      add\n        /* \"#utility.yul\":17124:17171   */\n      mstore\n        /* \"#utility.yul\":17007:17178   */\n      pop\n      jump\t// out\n        /* \"#utility.yul\":17184:17550   */\n    tag_470:\n        /* \"#utility.yul\":17326:17329   */\n      0x00\n        /* \"#utility.yul\":17347:17414   */\n      tag_632\n        /* \"#utility.yul\":17411:17413   */\n      0x15\n        /* \"#utility.yul\":17406:17409   */\n      dup4\n        /* \"#utility.yul\":17347:17414   */\n      tag_442\n      jump\t// in\n    tag_632:\n        /* \"#utility.yul\":17340:17414   */\n      swap2\n      pop\n        /* \"#utility.yul\":17423:17516   */\n      tag_633\n        /* \"#utility.yul\":17512:17515   */\n      dup3\n        /* \"#utility.yul\":17423:17516   */\n      tag_469\n      jump\t// in\n    tag_633:\n        /* \"#utility.yul\":17541:17543   */\n      0x20\n        /* \"#utility.yul\":17536:17539   */\n      dup3\n        /* \"#utility.yul\":17532:17544   */\n      add\n        /* \"#utility.yul\":17525:17544   */\n      swap1\n      pop\n        /* \"#utility.yul\":17184:17550   */\n      swap2\n      swap1\n      pop\n      jump\t// out\n        /* \"#utility.yul\":17556:17975   */\n    tag_314:\n        /* \"#utility.yul\":17722:17726   */\n      0x00\n        /* \"#utility.yul\":17760:17762   */\n      0x20\n        /* \"#utility.yul\":17749:17758   */\n      dup3\n        /* \"#utility.yul\":17745:17763   */\n      add\n        /* \"#utility.yul\":17737:17763   */\n      swap1\n      pop\n        /* \"#utility.yul\":17809:17818   */\n      dup2\n        /* \"#utility.yul\":17803:17807   */\n      dup2\n        /* \"#utility.yul\":17799:17819   */\n      sub\n        /* \"#utility.yul\":17795:17796   */\n      0x00\n        /* \"#utility.yul\":17784:17793   */\n      dup4\n        /* \"#utility.yul\":17780:17797   */\n      add\n        /* \"#utility.yul\":17773:17820   */\n      mstore\n        /* \"#utility.yul\":17837:17968   */\n      tag_635\n        /* \"#utility.yul\":17963:17967   */\n      dup2\n        /* \"#utility.yul\":17837:17968   */\n      tag_470\n      jump\t// in\n    tag_635:\n        /* \"#utility.yul\":17829:17968   */\n      swap1\n      pop\n        /* \"#utility.yul\":17556:17975   */\n      swap2\n      swap1\n      pop\n      jump\t// out\n        /* \"#utility.yul\":17981:18206   */\n    tag_471:\n        /* \"#utility.yul\":18121:18155   */\n      0x4f776e61626c653a206e6577206f776e657220697320746865207a65726f2061\n        /* \"#utility.yul\":18117:18118   */\n      0x00\n        /* \"#utility.yul\":18109:18115   */\n      dup3\n        /* \"#utility.yul\":18105:18119   */\n      add\n        /* \"#utility.yul\":18098:18156   */\n      mstore\n        /* \"#utility.yul\":18190:18198   */\n      0x6464726573730000000000000000000000000000000000000000000000000000\n        /* \"#utility.yul\":18185:18187   */\n      0x20\n        /* \"#utility.yul\":18177:18183   */\n      dup3\n        /* \"#utility.yul\":18173:18188   */\n      add\n        /* \"#utility.yul\":18166:18199   */\n      mstore\n        /* \"#utility.yul\":17981:18206   */\n      pop\n      jump\t// out\n        /* \"#utility.yul\":18212:18578   */\n    tag_472:\n        /* \"#utility.yul\":18354:18357   */\n      0x00\n        /* \"#utility.yul\":18375:18442   */\n      tag_638\n        /* \"#utility.yul\":18439:18441   */\n      0x26\n        /* \"#utility.yul\":18434:18437   */\n      dup4\n        /* \"#utility.yul\":18375:18442   */\n      tag_442\n      jump\t// in\n    tag_638:\n        /* \"#utility.yul\":18368:18442   */\n      swap2\n      pop\n        /* \"#utility.yul\":18451:18544   */\n      tag_639\n        /* \"#utility.yul\":18540:18543   */\n      dup3\n        /* \"#utility.yul\":18451:18544   */\n      tag_471\n      jump\t// in\n    tag_639:\n        /* \"#utility.yul\":18569:18571   */\n      0x40\n        /* \"#utility.yul\":18564:18567   */\n      dup3\n        /* \"#utility.yul\":18560:18572   */\n      add\n        /* \"#utility.yul\":18553:18572   */\n      swap1\n      pop\n        /* \"#utility.yul\":18212:18578   */\n      swap2\n      swap1\n      pop\n      jump\t// out\n        /* \"#utility.yul\":18584:19003   */\n    tag_356:\n        /* \"#utility.yul\":18750:18754   */\n      0x00\n        /* \"#utility.yul\":18788:18790   */\n      0x20\n        /* \"#utility.yul\":18777:18786   */\n      dup3\n        /* \"#utility.yul\":18773:18791   */\n      add\n        /* \"#utility.yul\":18765:18791   */\n      swap1\n      pop\n        /* \"#utility.yul\":18837:18846   */\n      dup2\n        /* \"#utility.yul\":18831:18835   */\n      dup2\n        /* \"#utility.yul\":18827:18847   */\n      sub\n        /* \"#utility.yul\":18823:18824   */\n      0x00\n        /* \"#utility.yul\":18812:18821   */\n      dup4\n        /* \"#utility.yul\":18808:18825   */\n      add\n        /* \"#utility.yul\":18801:18848   */\n      mstore\n        /* \"#utility.yul\":18865:18996   */\n      tag_641\n        /* \"#utility.yul\":18991:18995   */\n      dup2\n        /* \"#utility.yul\":18865:18996   */\n      tag_472\n      jump\t// in\n    tag_641:\n        /* \"#utility.yul\":18857:18996   */\n      swap1\n      pop\n        /* \"#utility.yul\":18584:19003   */\n      swap2\n      swap1\n      pop\n      jump\t// out\n        /* \"#utility.yul\":19009:19189   */\n    tag_473:\n        /* \"#utility.yul\":19057:19134   */\n      0x4e487b7100000000000000000000000000000000000000000000000000000000\n        /* \"#utility.yul\":19054:19055   */\n      0x00\n        /* \"#utility.yul\":19047:19135   */\n      mstore\n        /* \"#utility.yul\":19154:19158   */\n      0x11\n        /* \"#utility.yul\":19151:19152   */\n      0x04\n        /* \"#utility.yul\":19144:19159   */\n      mstore\n        /* \"#utility.yul\":19178:19182   */\n      0x24\n        /* \"#utility.yul\":19175:19176   */\n      0x00\n        /* \"#utility.yul\":19168:19183   */\n      revert\n        /* \"#utility.yul\":19195:19386   */\n    tag_370:\n        /* \"#utility.yul\":19235:19239   */\n      0x00\n        /* \"#utility.yul\":19255:19275   */\n      tag_644\n        /* \"#utility.yul\":19273:19274   */\n      dup3\n        /* \"#utility.yul\":19255:19275   */\n      tag_425\n      jump\t// in\n    tag_644:\n        /* \"#utility.yul\":19250:19275   */\n      swap2\n      pop\n        /* \"#utility.yul\":19289:19309   */\n      tag_645\n        /* \"#utility.yul\":19307:19308   */\n      dup4\n        /* \"#utility.yul\":19289:19309   */\n      tag_425\n      jump\t// in\n    tag_645:\n        /* \"#utility.yul\":19284:19309   */\n      swap3\n      pop\n        /* \"#utility.yul\":19328:19329   */\n      dup3\n        /* \"#utility.yul\":19325:19326   */\n      dup3\n        /* \"#utility.yul\":19322:19330   */\n      lt\n        /* \"#utility.yul\":19319:19353   */\n      iszero\n      tag_646\n      jumpi\n        /* \"#utility.yul\":19333:19351   */\n      tag_647\n      tag_473\n      jump\t// in\n    tag_647:\n        /* \"#utility.yul\":19319:19353   */\n    tag_646:\n        /* \"#utility.yul\":19378:19379   */\n      dup3\n        /* \"#utility.yul\":19375:19376   */\n      dup3\n        /* \"#utility.yul\":19371:19380   */\n      sub\n        /* \"#utility.yul\":19363:19380   */\n      swap1\n      pop\n        /* \"#utility.yul\":19195:19386   */\n      swap3\n      swap2\n      pop\n      pop\n      jump\t// out\n        /* \"#utility.yul\":19392:19577   */\n    tag_373:\n        /* \"#utility.yul\":19432:19433   */\n      0x00\n        /* \"#utility.yul\":19449:19469   */\n      tag_649\n        /* \"#utility.yul\":19467:19468   */\n      dup3\n        /* \"#utility.yul\":19449:19469   */\n      tag_425\n      jump\t// in\n    tag_649:\n        /* \"#utility.yul\":19444:19469   */\n      swap2\n      pop\n        /* \"#utility.yul\":19483:19503   */\n      tag_650\n        /* \"#utility.yul\":19501:19502   */\n      dup4\n        /* \"#utility.yul\":19483:19503   */\n      tag_425\n      jump\t// in\n    tag_650:\n        /* \"#utility.yul\":19478:19503   */\n      swap3\n      pop\n        /* \"#utility.yul\":19522:19523   */\n      dup3\n        /* \"#utility.yul\":19512:19547   */\n      tag_651\n      jumpi\n        /* \"#utility.yul\":19527:19545   */\n      tag_652\n      tag_451\n      jump\t// in\n    tag_652:\n        /* \"#utility.yul\":19512:19547   */\n    tag_651:\n        /* \"#utility.yul\":19569:19570   */\n      dup3\n        /* \"#utility.yul\":19566:19567   */\n      dup3\n        /* \"#utility.yul\":19562:19571   */\n      div\n        /* \"#utility.yul\":19557:19571   */\n      swap1\n      pop\n        /* \"#utility.yul\":19392:19577   */\n      swap3\n      swap2\n      pop\n      pop\n      jump\t// out\n        /* \"#utility.yul\":19583:19888   */\n    tag_376:\n        /* \"#utility.yul\":19623:19626   */\n      0x00\n        /* \"#utility.yul\":19642:19662   */\n      tag_654\n        /* \"#utility.yul\":19660:19661   */\n      dup3\n        /* \"#utility.yul\":19642:19662   */\n      tag_425\n      jump\t// in\n    tag_654:\n        /* \"#utility.yul\":19637:19662   */\n      swap2\n      pop\n        /* \"#utility.yul\":19676:19696   */\n      tag_655\n        /* \"#utility.yul\":19694:19695   */\n      dup4\n        /* \"#utility.yul\":19676:19696   */\n      tag_425\n      jump\t// in\n    tag_655:\n        /* \"#utility.yul\":19671:19696   */\n      swap3\n      pop\n        /* \"#utility.yul\":19830:19831   */\n      dup3\n        /* \"#utility.yul\":19762:19828   */\n      0xffffffffffffffffffffffffffffffffffffffffffffffffffffffffffffffff\n        /* \"#utility.yul\":19758:19832   */\n      sub\n        /* \"#utility.yul\":19755:19756   */\n      dup3\n        /* \"#utility.yul\":19752:19833   */\n      gt\n        /* \"#utility.yul\":19749:19856   */\n      iszero\n      tag_656\n      jumpi\n        /* \"#utility.yul\":19836:19854   */\n      tag_657\n      tag_473\n      jump\t// in\n    tag_657:\n        /* \"#utility.yul\":19749:19856   */\n    tag_656:\n        /* \"#utility.yul\":19880:19881   */\n      dup3\n        /* \"#utility.yul\":19877:19878   */\n      dup3\n        /* \"#utility.yul\":19873:19882   */\n      add\n        /* \"#utility.yul\":19866:19882   */\n      swap1\n      pop\n        /* \"#utility.yul\":19583:19888   */\n      swap3\n      swap2\n      pop\n      pop\n      jump\t// out\n        /* \"#utility.yul\":19894:20242   */\n    tag_379:\n        /* \"#utility.yul\":19934:19941   */\n      0x00\n        /* \"#utility.yul\":19957:19977   */\n      tag_659\n        /* \"#utility.yul\":19975:19976   */\n      dup3\n        /* \"#utility.yul\":19957:19977   */\n      tag_425\n      jump\t// in\n    tag_659:\n        /* \"#utility.yul\":19952:19977   */\n      swap2\n      pop\n        /* \"#utility.yul\":19991:20011   */\n      tag_660\n        /* \"#utility.yul\":20009:20010   */\n      dup4\n        /* \"#utility.yul\":19991:20011   */\n      tag_425\n      jump\t// in\n    tag_660:\n        /* \"#utility.yul\":19986:20011   */\n      swap3\n      pop\n        /* \"#utility.yul\":20179:20180   */\n      dup2\n        /* \"#utility.yul\":20111:20177   */\n      0xffffffffffffffffffffffffffffffffffffffffffffffffffffffffffffffff\n        /* \"#utility.yul\":20107:20181   */\n      div\n        /* \"#utility.yul\":20104:20105   */\n      dup4\n        /* \"#utility.yul\":20101:20182   */\n      gt\n        /* \"#utility.yul\":20096:20097   */\n      dup3\n        /* \"#utility.yul\":20089:20098   */\n      iszero\n        /* \"#utility.yul\":20082:20099   */\n      iszero\n        /* \"#utility.yul\":20078:20183   */\n      and\n        /* \"#utility.yul\":20075:20206   */\n      iszero\n      tag_661\n      jumpi\n        /* \"#utility.yul\":20186:20204   */\n      tag_662\n      tag_473\n      jump\t// in\n    tag_662:\n        /* \"#utility.yul\":20075:20206   */\n    tag_661:\n        /* \"#utility.yul\":20234:20235   */\n      dup3\n        /* \"#utility.yul\":20231:20232   */\n      dup3\n        /* \"#utility.yul\":20227:20236   */\n      mul\n        /* \"#utility.yul\":20216:20236   */\n      swap1\n      pop\n        /* \"#utility.yul\":19894:20242   */\n      swap3\n      swap2\n      pop\n      pop\n      jump\t// out\n        /* \"#utility.yul\":20248:20690   */\n    tag_388:\n        /* \"#utility.yul\":20397:20401   */\n      0x00\n        /* \"#utility.yul\":20435:20437   */\n      0x60\n        /* \"#utility.yul\":20424:20433   */\n      dup3\n        /* \"#utility.yul\":20420:20438   */\n      add\n        /* \"#utility.yul\":20412:20438   */\n      swap1\n      pop\n        /* \"#utility.yul\":20448:20519   */\n      tag_664\n        /* \"#utility.yul\":20516:20517   */\n      0x00\n        /* \"#utility.yul\":20505:20514   */\n      dup4\n        /* \"#utility.yul\":20501:20518   */\n      add\n        /* \"#utility.yul\":20492:20498   */\n      dup7\n        /* \"#utility.yul\":20448:20519   */\n      tag_436\n      jump\t// in\n    tag_664:\n        /* \"#utility.yul\":20529:20601   */\n      tag_665\n        /* \"#utility.yul\":20597:20599   */\n      0x20\n        /* \"#utility.yul\":20586:20595   */\n      dup4\n        /* \"#utility.yul\":20582:20600   */\n      add\n        /* \"#utility.yul\":20573:20579   */\n      dup6\n        /* \"#utility.yul\":20529:20601   */\n      tag_436\n      jump\t// in\n    tag_665:\n        /* \"#utility.yul\":20611:20683   */\n      tag_666\n        /* \"#utility.yul\":20679:20681   */\n      0x40\n        /* \"#utility.yul\":20668:20677   */\n      dup4\n        /* \"#utility.yul\":20664:20682   */\n      add\n        /* \"#utility.yul\":20655:20661   */\n      dup5\n        /* \"#utility.yul\":20611:20683   */\n      tag_426\n      jump\t// in\n    tag_666:\n        /* \"#utility.yul\":20248:20690   */\n      swap5\n      swap4\n      pop\n      pop\n      pop\n      pop\n      jump\t// out\n        /* \"#utility.yul\":20696:20786   */\n    tag_474:\n        /* \"#utility.yul\":20730:20737   */\n      0x00\n        /* \"#utility.yul\":20773:20778   */\n      dup2\n        /* \"#utility.yul\":20766:20779   */\n      iszero\n        /* \"#utility.yul\":20759:20780   */\n      iszero\n        /* \"#utility.yul\":20748:20780   */\n      swap1\n      pop\n        /* \"#utility.yul\":20696:20786   */\n      swap2\n      swap1\n      pop\n      jump\t// out\n        /* \"#utility.yul\":20792:20908   */\n    tag_475:\n        /* \"#utility.yul\":20862:20883   */\n      tag_669\n        /* \"#utility.yul\":20877:20882   */\n      dup2\n        /* \"#utility.yul\":20862:20883   */\n      tag_474\n      jump\t// in\n    tag_669:\n        /* \"#utility.yul\":20855:20860   */\n      dup2\n        /* \"#utility.yul\":20852:20884   */\n      eq\n        /* \"#utility.yul\":20842:20902   */\n      tag_670\n      jumpi\n        /* \"#utility.yul\":20898:20899   */\n      0x00\n        /* \"#utility.yul\":20895:20896   */\n      dup1\n        /* \"#utility.yul\":20888:20900   */\n      revert\n        /* \"#utility.yul\":20842:20902   */\n    tag_670:\n        /* \"#utility.yul\":20792:20908   */\n      pop\n      jump\t// out\n        /* \"#utility.yul\":20914:21051   */\n    tag_476:\n        /* \"#utility.yul\":20968:20973   */\n      0x00\n        /* \"#utility.yul\":20999:21005   */\n      dup2\n        /* \"#utility.yul\":20993:21006   */\n      mload\n        /* \"#utility.yul\":20984:21006   */\n      swap1\n      pop\n        /* \"#utility.yul\":21015:21045   */\n      tag_672\n        /* \"#utility.yul\":21039:21044   */\n      dup2\n        /* \"#utility.yul\":21015:21045   */\n      tag_475\n      jump\t// in\n    tag_672:\n        /* \"#utility.yul\":20914:21051   */\n      swap3\n      swap2\n      pop\n      pop\n      jump\t// out\n        /* \"#utility.yul\":21057:21402   */\n    tag_394:\n        /* \"#utility.yul\":21124:21130   */\n      0x00\n        /* \"#utility.yul\":21173:21175   */\n      0x20\n        /* \"#utility.yul\":21161:21170   */\n      dup3\n        /* \"#utility.yul\":21152:21159   */\n      dup5\n        /* \"#utility.yul\":21148:21171   */\n      sub\n        /* \"#utility.yul\":21144:21176   */\n      slt\n        /* \"#utility.yul\":21141:21260   */\n      iszero\n      tag_674\n      jumpi\n        /* \"#utility.yul\":21179:21258   */\n      tag_675\n      tag_428\n      jump\t// in\n    tag_675:\n        /* \"#utility.yul\":21141:21260   */\n    tag_674:\n        /* \"#utility.yul\":21299:21300   */\n      0x00\n        /* \"#utility.yul\":21324:21385   */\n      tag_676\n        /* \"#utility.yul\":21377:21384   */\n      dup5\n        /* \"#utility.yul\":21368:21374   */\n      dup3\n        /* \"#utility.yul\":21357:21366   */\n      dup6\n        /* \"#utility.yul\":21353:21375   */\n      add\n        /* \"#utility.yul\":21324:21385   */\n      tag_476\n      jump\t// in\n    tag_676:\n        /* \"#utility.yul\":21314:21385   */\n      swap2\n      pop\n        /* \"#utility.yul\":21270:21395   */\n      pop\n        /* \"#utility.yul\":21057:21402   */\n      swap3\n      swap2\n      pop\n      pop\n      jump\t// out\n        /* \"#utility.yul\":21408:21637   */\n    tag_477:\n        /* \"#utility.yul\":21548:21582   */\n      0x5361666542455032303a204245503230206f7065726174696f6e20646964206e\n        /* \"#utility.yul\":21544:21545   */\n      0x00\n        /* \"#utility.yul\":21536:21542   */\n      dup3\n        /* \"#utility.yul\":21532:21546   */\n      add\n        /* \"#utility.yul\":21525:21583   */\n      mstore\n        /* \"#utility.yul\":21617:21629   */\n      0x6f74207375636365656400000000000000000000000000000000000000000000\n        /* \"#utility.yul\":21612:21614   */\n      0x20\n        /* \"#utility.yul\":21604:21610   */\n      dup3\n        /* \"#utility.yul\":21600:21615   */\n      add\n        /* \"#utility.yul\":21593:21630   */\n      mstore\n        /* \"#utility.yul\":21408:21637   */\n      pop\n      jump\t// out\n        /* \"#utility.yul\":21643:22009   */\n    tag_478:\n        /* \"#utility.yul\":21785:21788   */\n      0x00\n        /* \"#utility.yul\":21806:21873   */\n      tag_679\n        /* \"#utility.yul\":21870:21872   */\n      0x2a\n        /* \"#utility.yul\":21865:21868   */\n      dup4\n        /* \"#utility.yul\":21806:21873   */\n      tag_442\n      jump\t// in\n    tag_679:\n        /* \"#utility.yul\":21799:21873   */\n      swap2\n      pop\n        /* \"#utility.yul\":21882:21975   */\n      tag_680\n        /* \"#utility.yul\":21971:21974   */\n      dup3\n        /* \"#utility.yul\":21882:21975   */\n      tag_477\n      jump\t// in\n    tag_680:\n        /* \"#utility.yul\":22000:22002   */\n      0x40\n        /* \"#utility.yul\":21995:21998   */\n      dup3\n        /* \"#utility.yul\":21991:22003   */\n      add\n        /* \"#utility.yul\":21984:22003   */\n      swap1\n      pop\n        /* \"#utility.yul\":21643:22009   */\n      swap2\n      swap1\n      pop\n      jump\t// out\n        /* \"#utility.yul\":22015:22434   */\n    tag_397:\n        /* \"#utility.yul\":22181:22185   */\n      0x00\n        /* \"#utility.yul\":22219:22221   */\n      0x20\n        /* \"#utility.yul\":22208:22217   */\n      dup3\n        /* \"#utility.yul\":22204:22222   */\n      add\n        /* \"#utility.yul\":22196:22222   */\n      swap1\n      pop\n        /* \"#utility.yul\":22268:22277   */\n      dup2\n        /* \"#utility.yul\":22262:22266   */\n      dup2\n        /* \"#utility.yul\":22258:22278   */\n      sub\n        /* \"#utility.yul\":22254:22255   */\n      0x00\n        /* \"#utility.yul\":22243:22252   */\n      dup4\n        /* \"#utility.yul\":22239:22256   */\n      add\n        /* \"#utility.yul\":22232:22279   */\n      mstore\n        /* \"#utility.yul\":22296:22427   */\n      tag_682\n        /* \"#utility.yul\":22422:22426   */\n      dup2\n        /* \"#utility.yul\":22296:22427   */\n      tag_478\n      jump\t// in\n    tag_682:\n        /* \"#utility.yul\":22288:22427   */\n      swap1\n      pop\n        /* \"#utility.yul\":22015:22434   */\n      swap2\n      swap1\n      pop\n      jump\t// out\n        /* \"#utility.yul\":22440:22665   */\n    tag_479:\n        /* \"#utility.yul\":22580:22614   */\n      0x416464726573733a20696e73756666696369656e742062616c616e636520666f\n        /* \"#utility.yul\":22576:22577   */\n      0x00\n        /* \"#utility.yul\":22568:22574   */\n      dup3\n        /* \"#utility.yul\":22564:22578   */\n      add\n        /* \"#utility.yul\":22557:22615   */\n      mstore\n        /* \"#utility.yul\":22649:22657   */\n      0x722063616c6c0000000000000000000000000000000000000000000000000000\n        /* \"#utility.yul\":22644:22646   */\n      0x20\n        /* \"#utility.yul\":22636:22642   */\n      dup3\n        /* \"#utility.yul\":22632:22647   */\n      add\n        /* \"#utility.yul\":22625:22658   */\n      mstore\n        /* \"#utility.yul\":22440:22665   */\n      pop\n      jump\t// out\n        /* \"#utility.yul\":22671:23037   */\n    tag_480:\n        /* \"#utility.yul\":22813:22816   */\n      0x00\n        /* \"#utility.yul\":22834:22901   */\n      tag_685\n        /* \"#utility.yul\":22898:22900   */\n      0x26\n        /* \"#utility.yul\":22893:22896   */\n      dup4\n        /* \"#utility.yul\":22834:22901   */\n      tag_442\n      jump\t// in\n    tag_685:\n        /* \"#utility.yul\":22827:22901   */\n      swap2\n      pop\n        /* \"#utility.yul\":22910:23003   */\n      tag_686\n        /* \"#utility.yul\":22999:23002   */\n      dup3\n        /* \"#utility.yul\":22910:23003   */\n      tag_479\n      jump\t// in\n    tag_686:\n        /* \"#utility.yul\":23028:23030   */\n      0x40\n        /* \"#utility.yul\":23023:23026   */\n      dup3\n        /* \"#utility.yul\":23019:23031   */\n      add\n        /* \"#utility.yul\":23012:23031   */\n      swap1\n      pop\n        /* \"#utility.yul\":22671:23037   */\n      swap2\n      swap1\n      pop\n      jump\t// out\n        /* \"#utility.yul\":23043:23462   */\n    tag_404:\n        /* \"#utility.yul\":23209:23213   */\n      0x00\n        /* \"#utility.yul\":23247:23249   */\n      0x20\n        /* \"#utility.yul\":23236:23245   */\n      dup3\n        /* \"#utility.yul\":23232:23250   */\n      add\n        /* \"#utility.yul\":23224:23250   */\n      swap1\n      pop\n        /* \"#utility.yul\":23296:23305   */\n      dup2\n        /* \"#utility.yul\":23290:23294   */\n      dup2\n        /* \"#utility.yul\":23286:23306   */\n      sub\n        /* \"#utility.yul\":23282:23283   */\n      0x00\n        /* \"#utility.yul\":23271:23280   */\n      dup4\n        /* \"#utility.yul\":23267:23284   */\n      add\n        /* \"#utility.yul\":23260:23307   */\n      mstore\n        /* \"#utility.yul\":23324:23455   */\n      tag_688\n        /* \"#utility.yul\":23450:23454   */\n      dup2\n        /* \"#utility.yul\":23324:23455   */\n      tag_480\n      jump\t// in\n    tag_688:\n        /* \"#utility.yul\":23316:23455   */\n      swap1\n      pop\n        /* \"#utility.yul\":23043:23462   */\n      swap2\n      swap1\n      pop\n      jump\t// out\n        /* \"#utility.yul\":23468:23647   */\n    tag_481:\n        /* \"#utility.yul\":23608:23639   */\n      0x416464726573733a2063616c6c20746f206e6f6e2d636f6e7472616374000000\n        /* \"#utility.yul\":23604:23605   */\n      0x00\n        /* \"#utility.yul\":23596:23602   */\n      dup3\n        /* \"#utility.yul\":23592:23606   */\n      add\n        /* \"#utility.yul\":23585:23640   */\n      mstore\n        /* \"#utility.yul\":23468:23647   */\n      pop\n      jump\t// out\n        /* \"#utility.yul\":23653:24019   */\n    tag_482:\n        /* \"#utility.yul\":23795:23798   */\n      0x00\n        /* \"#utility.yul\":23816:23883   */\n      tag_691\n        /* \"#utility.yul\":23880:23882   */\n      0x1d\n        /* \"#utility.yul\":23875:23878   */\n      dup4\n        /* \"#utility.yul\":23816:23883   */\n      tag_442\n      jump\t// in\n    tag_691:\n        /* \"#utility.yul\":23809:23883   */\n      swap2\n      pop\n        /* \"#utility.yul\":23892:23985   */\n      tag_692\n        /* \"#utility.yul\":23981:23984   */\n      dup3\n        /* \"#utility.yul\":23892:23985   */\n      tag_481\n      jump\t// in\n    tag_692:\n        /* \"#utility.yul\":24010:24012   */\n      0x20\n        /* \"#utility.yul\":24005:24008   */\n      dup3\n        /* \"#utility.yul\":24001:24013   */\n      add\n        /* \"#utility.yul\":23994:24013   */\n      swap1\n      pop\n        /* \"#utility.yul\":23653:24019   */\n      swap2\n      swap1\n      pop\n      jump\t// out\n        /* \"#utility.yul\":24025:24444   */\n    tag_409:\n        /* \"#utility.yul\":24191:24195   */\n      0x00\n        /* \"#utility.yul\":24229:24231   */\n      0x20\n        /* \"#utility.yul\":24218:24227   */\n      dup3\n        /* \"#utility.yul\":24214:24232   */\n      add\n        /* \"#utility.yul\":24206:24232   */\n      swap1\n      pop\n        /* \"#utility.yul\":24278:24287   */\n      dup2\n        /* \"#utility.yul\":24272:24276   */\n      dup2\n        /* \"#utility.yul\":24268:24288   */\n      sub\n        /* \"#utility.yul\":24264:24265   */\n      0x00\n        /* \"#utility.yul\":24253:24262   */\n      dup4\n        /* \"#utility.yul\":24249:24266   */\n      add\n        /* \"#utility.yul\":24242:24289   */\n      mstore\n        /* \"#utility.yul\":24306:24437   */\n      tag_694\n        /* \"#utility.yul\":24432:24436   */\n      dup2\n        /* \"#utility.yul\":24306:24437   */\n      tag_482\n      jump\t// in\n    tag_694:\n        /* \"#utility.yul\":24298:24437   */\n      swap1\n      pop\n        /* \"#utility.yul\":24025:24444   */\n      swap2\n      swap1\n      pop\n      jump\t// out\n        /* \"#utility.yul\":24450:24548   */\n    tag_483:\n        /* \"#utility.yul\":24501:24507   */\n      0x00\n        /* \"#utility.yul\":24535:24540   */\n      dup2\n        /* \"#utility.yul\":24529:24541   */\n      mload\n        /* \"#utility.yul\":24519:24541   */\n      swap1\n      pop\n        /* \"#utility.yul\":24450:24548   */\n      swap2\n      swap1\n      pop\n      jump\t// out\n        /* \"#utility.yul\":24554:24701   */\n    tag_484:\n        /* \"#utility.yul\":24655:24666   */\n      0x00\n        /* \"#utility.yul\":24692:24695   */\n      dup2\n        /* \"#utility.yul\":24677:24695   */\n      swap1\n      pop\n        /* \"#utility.yul\":24554:24701   */\n      swap3\n      swap2\n      pop\n      pop\n      jump\t// out\n        /* \"#utility.yul\":24707:25014   */\n    tag_485:\n        /* \"#utility.yul\":24775:24776   */\n      0x00\n        /* \"#utility.yul\":24785:24898   */\n    tag_698:\n        /* \"#utility.yul\":24799:24805   */\n      dup4\n        /* \"#utility.yul\":24796:24797   */\n      dup2\n        /* \"#utility.yul\":24793:24806   */\n      lt\n        /* \"#utility.yul\":24785:24898   */\n      iszero\n      tag_700\n      jumpi\n        /* \"#utility.yul\":24884:24885   */\n      dup1\n        /* \"#utility.yul\":24879:24882   */\n      dup3\n        /* \"#utility.yul\":24875:24886   */\n      add\n        /* \"#utility.yul\":24869:24887   */\n      mload\n        /* \"#utility.yul\":24865:24866   */\n      dup2\n        /* \"#utility.yul\":24860:24863   */\n      dup5\n        /* \"#utility.yul\":24856:24867   */\n      add\n        /* \"#utility.yul\":24849:24888   */\n      mstore\n        /* \"#utility.yul\":24821:24823   */\n      0x20\n        /* \"#utility.yul\":24818:24819   */\n      dup2\n        /* \"#utility.yul\":24814:24824   */\n      add\n        /* \"#utility.yul\":24809:24824   */\n      swap1\n      pop\n        /* \"#utility.yul\":24785:24898   */\n      jump(tag_698)\n    tag_700:\n        /* \"#utility.yul\":24916:24922   */\n      dup4\n        /* \"#utility.yul\":24913:24914   */\n      dup2\n        /* \"#utility.yul\":24910:24923   */\n      gt\n        /* \"#utility.yul\":24907:25008   */\n      iszero\n      tag_701\n      jumpi\n        /* \"#utility.yul\":24996:24997   */\n      0x00\n        /* \"#utility.yul\":24987:24993   */\n      dup5\n        /* \"#utility.yul\":24982:24985   */\n      dup5\n        /* \"#utility.yul\":24978:24994   */\n      add\n        /* \"#utility.yul\":24971:24998   */\n      mstore\n        /* \"#utility.yul\":24907:25008   */\n    tag_701:\n        /* \"#utility.yul\":24756:25014   */\n      pop\n        /* \"#utility.yul\":24707:25014   */\n      pop\n      pop\n      pop\n      jump\t// out\n        /* \"#utility.yul\":25020:25393   */\n    tag_486:\n        /* \"#utility.yul\":25124:25127   */\n      0x00\n        /* \"#utility.yul\":25152:25190   */\n      tag_703\n        /* \"#utility.yul\":25184:25189   */\n      dup3\n        /* \"#utility.yul\":25152:25190   */\n      tag_483\n      jump\t// in\n    tag_703:\n        /* \"#utility.yul\":25206:25294   */\n      tag_704\n        /* \"#utility.yul\":25287:25293   */\n      dup2\n        /* \"#utility.yul\":25282:25285   */\n      dup6\n        /* \"#utility.yul\":25206:25294   */\n      tag_484\n      jump\t// in\n    tag_704:\n        /* \"#utility.yul\":25199:25294   */\n      swap4\n      pop\n        /* \"#utility.yul\":25303:25355   */\n      tag_705\n        /* \"#utility.yul\":25348:25354   */\n      dup2\n        /* \"#utility.yul\":25343:25346   */\n      dup6\n        /* \"#utility.yul\":25336:25340   */\n      0x20\n        /* \"#utility.yul\":25329:25334   */\n      dup7\n        /* \"#utility.yul\":25325:25341   */\n      add\n        /* \"#utility.yul\":25303:25355   */\n      tag_485\n      jump\t// in\n    tag_705:\n        /* \"#utility.yul\":25380:25386   */\n      dup1\n        /* \"#utility.yul\":25375:25378   */\n      dup5\n        /* \"#utility.yul\":25371:25387   */\n      add\n        /* \"#utility.yul\":25364:25387   */\n      swap2\n      pop\n        /* \"#utility.yul\":25128:25393   */\n      pop\n        /* \"#utility.yul\":25020:25393   */\n      swap3\n      swap2\n      pop\n      pop\n      jump\t// out\n        /* \"#utility.yul\":25399:25670   */\n    tag_411:\n        /* \"#utility.yul\":25529:25532   */\n      0x00\n        /* \"#utility.yul\":25551:25644   */\n      tag_707\n        /* \"#utility.yul\":25640:25643   */\n      dup3\n        /* \"#utility.yul\":25631:25637   */\n      dup5\n        /* \"#utility.yul\":25551:25644   */\n      tag_486\n      jump\t// in\n    tag_707:\n        /* \"#utility.yul\":25544:25644   */\n      swap2\n      pop\n        /* \"#utility.yul\":25661:25664   */\n      dup2\n        /* \"#utility.yul\":25654:25664   */\n      swap1\n      pop\n        /* \"#utility.yul\":25399:25670   */\n      swap3\n      swap2\n      pop\n      pop\n      jump\t// out\n        /* \"#utility.yul\":25676:25775   */\n    tag_487:\n        /* \"#utility.yul\":25728:25734   */\n      0x00\n        /* \"#utility.yul\":25762:25767   */\n      dup2\n        /* \"#utility.yul\":25756:25768   */\n      mload\n        /* \"#utility.yul\":25746:25768   */\n      swap1\n      pop\n        /* \"#utility.yul\":25676:25775   */\n      swap2\n      swap1\n      pop\n      jump\t// out\n        /* \"#utility.yul\":25781:25883   */\n    tag_488:\n        /* \"#utility.yul\":25822:25828   */\n      0x00\n        /* \"#utility.yul\":25873:25875   */\n      0x1f\n        /* \"#utility.yul\":25869:25876   */\n      not\n        /* \"#utility.yul\":25864:25866   */\n      0x1f\n        /* \"#utility.yul\":25857:25862   */\n      dup4\n        /* \"#utility.yul\":25853:25867   */\n      add\n        /* \"#utility.yul\":25849:25877   */\n      and\n        /* \"#utility.yul\":25839:25877   */\n      swap1\n      pop\n        /* \"#utility.yul\":25781:25883   */\n      swap2\n      swap1\n      pop\n      jump\t// out\n        /* \"#utility.yul\":25889:26253   */\n    tag_489:\n        /* \"#utility.yul\":25977:25980   */\n      0x00\n        /* \"#utility.yul\":26005:26044   */\n      tag_711\n        /* \"#utility.yul\":26038:26043   */\n      dup3\n        /* \"#utility.yul\":26005:26044   */\n      tag_487\n      jump\t// in\n    tag_711:\n        /* \"#utility.yul\":26060:26131   */\n      tag_712\n        /* \"#utility.yul\":26124:26130   */\n      dup2\n        /* \"#utility.yul\":26119:26122   */\n      dup6\n        /* \"#utility.yul\":26060:26131   */\n      tag_442\n      jump\t// in\n    tag_712:\n        /* \"#utility.yul\":26053:26131   */\n      swap4\n      pop\n        /* \"#utility.yul\":26140:26192   */\n      tag_713\n        /* \"#utility.yul\":26185:26191   */\n      dup2\n        /* \"#utility.yul\":26180:26183   */\n      dup6\n        /* \"#utility.yul\":26173:26177   */\n      0x20\n        /* \"#utility.yul\":26166:26171   */\n      dup7\n        /* \"#utility.yul\":26162:26178   */\n      add\n        /* \"#utility.yul\":26140:26192   */\n      tag_485\n      jump\t// in\n    tag_713:\n        /* \"#utility.yul\":26217:26246   */\n      tag_714\n        /* \"#utility.yul\":26239:26245   */\n      dup2\n        /* \"#utility.yul\":26217:26246   */\n      tag_488\n      jump\t// in\n    tag_714:\n        /* \"#utility.yul\":26212:26215   */\n      dup5\n        /* \"#utility.yul\":26208:26247   */\n      add\n        /* \"#utility.yul\":26201:26247   */\n      swap2\n      pop\n        /* \"#utility.yul\":25981:26253   */\n      pop\n        /* \"#utility.yul\":25889:26253   */\n      swap3\n      swap2\n      pop\n      pop\n      jump\t// out\n        /* \"#utility.yul\":26259:26572   */\n    tag_424:\n        /* \"#utility.yul\":26372:26376   */\n      0x00\n        /* \"#utility.yul\":26410:26412   */\n      0x20\n        /* \"#utility.yul\":26399:26408   */\n      dup3\n        /* \"#utility.yul\":26395:26413   */\n      add\n        /* \"#utility.yul\":26387:26413   */\n      swap1\n      pop\n        /* \"#utility.yul\":26459:26468   */\n      dup2\n        /* \"#utility.yul\":26453:26457   */\n      dup2\n        /* \"#utility.yul\":26449:26469   */\n      sub\n        /* \"#utility.yul\":26445:26446   */\n      0x00\n        /* \"#utility.yul\":26434:26443   */\n      dup4\n        /* \"#utility.yul\":26430:26447   */\n      add\n        /* \"#utility.yul\":26423:26470   */\n      mstore\n        /* \"#utility.yul\":26487:26565   */\n      tag_716\n        /* \"#utility.yul\":26560:26564   */\n      dup2\n        /* \"#utility.yul\":26551:26557   */\n      dup5\n        /* \"#utility.yul\":26487:26565   */\n      tag_489\n      jump\t// in\n    tag_716:\n        /* \"#utility.yul\":26479:26565   */\n      swap1\n      pop\n        /* \"#utility.yul\":26259:26572   */\n      swap3\n      swap2\n      pop\n      pop\n      jump\t// out\n\n    auxdata: 0xa2646970667358221220cdea9b3ef1c60a0b095439f624d2aa1d64d8fa8e48a702d9133a1bddc93a5bdd64736f6c63430008090033\n}\n",
				"bytecode": {
					"linkReferences": {},
					"object": "60806040523480156200001157600080fd5b50604051620036dd380380620036dd83398181016040528101906200003791906200025b565b620000576200004b620000af60201b60201c565b620000b760201b60201c565b620000676200017b60201b60201c565b80600d60006101000a81548173ffffffffffffffffffffffffffffffffffffffff021916908373ffffffffffffffffffffffffffffffffffffffff160217905550506200028d565b600033905090565b60008060009054906101000a900473ffffffffffffffffffffffffffffffffffffffff169050816000806101000a81548173ffffffffffffffffffffffffffffffffffffffff021916908373ffffffffffffffffffffffffffffffffffffffff1602179055508173ffffffffffffffffffffffffffffffffffffffff168173ffffffffffffffffffffffffffffffffffffffff167f8be0079c531659141344cd1fd0a4f28419497f9722a3daafe3b4186f6b6457e060405160405180910390a35050565b60c86003819055506105dc600181905550606460048190555062093a806002819055506276a7006005819055506a027b46536c66c8e300000060068190555069d3c21bcecceda10000006009819055506a027b46536c66c8e30000006008819055506a05ca4ec2a79a7f67000000600781905550565b600080fd5b600073ffffffffffffffffffffffffffffffffffffffff82169050919050565b60006200022382620001f6565b9050919050565b620002358162000216565b81146200024157600080fd5b50565b60008151905062000255816200022a565b92915050565b600060208284031215620002745762000273620001f1565b5b6000620002848482850162000244565b91505092915050565b613440806200029d6000396000f3fe608060405234801561001057600080fd5b50600436106101a95760003560e01c8063817b1cd2116100f9578063aedf562b11610097578063f2fde38b11610071578063f2fde38b1461046a578063f993185514610486578063fc0c546a146104b6578063fe600f84146104d4576101a9565b8063aedf562b14610402578063c1704a1414610432578063c665d80e1461044e576101a9565b806391e07e7a116100d357806391e07e7a146103925780639e447fc6146103ae578063a694fc3a146103ca578063ae544943146103e6576101a9565b8063817b1cd2146103265780638da5cb5b14610344578063909f093e14610362576101a9565b80634b77dd9e11610166578063645a8a5611610140578063645a8a56146102b2578063692642e7146102e2578063715018a6146102fe5780637e1a378614610308576101a9565b80634b77dd9e1461025a5780635715ec11146102765780635d2ec65d14610294576101a9565b80630917e776146101ae57806323b61117146101cc5780632e1a7d4d146101e85780634641257d146102045780634a4fbeec1461020e5780634b62b70b1461023e575b600080fd5b6101b6610504565b6040516101c391906126c0565b60405180910390f35b6101e660048036038101906101e1919061270c565b61050e565b005b61020260048036038101906101fd919061270c565b6105d7565b005b61020c610974565b005b61022860048036038101906102239190612797565b610cb3565b60405161023591906126c0565b60405180910390f35b6102586004803603810190610253919061270c565b610e43565b005b610274600480360381019061026f91906127c4565b610f0c565b005b61027e61139a565b60405161028b91906126c0565b60405180910390f35b61029c6113a7565b6040516102a991906126c0565b60405180910390f35b6102cc60048036038101906102c79190612797565b6113f9565b6040516102d991906126c0565b60405180910390f35b6102fc60048036038101906102f7919061270c565b611445565b005b61030661155a565b005b6103106115e2565b60405161031d91906126c0565b60405180910390f35b61032e6115ec565b60405161033b91906126c0565b60405180910390f35b61034c6115f2565b6040516103599190612813565b60405180910390f35b61037c6004803603810190610377919061270c565b61161b565b60405161038991906126c0565b60405180910390f35b6103ac60048036038101906103a7919061270c565b6116b6565b005b6103c860048036038101906103c3919061270c565b6117b6565b005b6103e460048036038101906103df919061270c565b6118b6565b005b61040060048036038101906103fb919061270c565b611bb3565b005b61041c60048036038101906104179190612797565b611c7c565b60405161042991906126c0565b60405180910390f35b61044c6004803603810190610447919061270c565b611cdb565b005b6104686004803603810190610463919061270c565b611da4565b005b610484600480360381019061047f9190612797565b611e6d565b005b6104a0600480360381019061049b9190612797565b611f65565b6040516104ad91906126c0565b60405180910390f35b6104be611fb1565b6040516104cb919061288d565b60405180910390f35b6104ee60048036038101906104e99190612797565b611fd7565b6040516104fb91906126c0565b60405180910390f35b6000600c54905090565b610516612023565b73ffffffffffffffffffffffffffffffffffffffff166105346115f2565b73ffffffffffffffffffffffffffffffffffffffff161461058a576040517f08c379a000000000000000000000000000000000000000000000000000000000815260040161058190612905565b60405180910390fd5b600081116105cd576040517f08c379a00000000000000000000000000000000000000000000000000000000081526004016105c490612971565b60405180910390fd5b8060088190555050565b6000811161061a576040517f08c379a0000000000000000000000000000000000000000000000000000000008152600401610611906129dd565b60405180910390fd5b600b60003373ffffffffffffffffffffffffffffffffffffffff1673ffffffffffffffffffffffffffffffffffffffff1681526020019081526020016000206001015481111561069f576040517f08c379a000000000000000000000000000000000000000000000000000000000815260040161069690612a49565b60405180910390fd5b6106a761202b565b600081905060006107186201518061070a600b60003373ffffffffffffffffffffffffffffffffffffffff1673ffffffffffffffffffffffffffffffffffffffff16815260200190815260200160002060030154426121ff90919063ffffffff16565b61221590919063ffffffff16565b9050600060649050600080600b60003373ffffffffffffffffffffffffffffffffffffffff1673ffffffffffffffffffffffffffffffffffffffff1681526020019081526020016000206002015414156107cb576107c3600554600b60003373ffffffffffffffffffffffffffffffffffffffff1673ffffffffffffffffffffffffffffffffffffffff1681526020019081526020016000206003015461222b90919063ffffffff16565b4210156107e9565b6000600254846107db9190612a98565b1480156107e85750600083115b5b9050806107f65760015491505b61084b84600b60003373ffffffffffffffffffffffffffffffffffffffff1673ffffffffffffffffffffffffffffffffffffffff168152602001908152602001600020600101546121ff90919063ffffffff16565b600b60003373ffffffffffffffffffffffffffffffffffffffff1673ffffffffffffffffffffffffffffffffffffffff168152602001908152602001600020600101819055506108a684600c546121ff90919063ffffffff16565b600c819055506108e56108d66127106108c8858861224190919063ffffffff16565b61221590919063ffffffff16565b856121ff90919063ffffffff16565b93506109343385600d60009054906101000a900473ffffffffffffffffffffffffffffffffffffffff1673ffffffffffffffffffffffffffffffffffffffff166122579092919063ffffffff16565b7f884edad9ce6fa2440d8a54cc123490eb96d2768479d49ff9c7366125a94243643385604051610965929190612ac9565b60405180910390a15050505050565b61097c61202b565b6000610a3d6109ec6127106109de600454600b60003373ffffffffffffffffffffffffffffffffffffffff1673ffffffffffffffffffffffffffffffffffffffff1681526020019081526020016000206000015461224190919063ffffffff16565b61221590919063ffffffff16565b600b60003373ffffffffffffffffffffffffffffffffffffffff1673ffffffffffffffffffffffffffffffffffffffff168152602001908152602001600020600001546121ff90919063ffffffff16565b905060008111610a82576040517f08c379a0000000000000000000000000000000000000000000000000000000008152600401610a7990612b3e565b60405180910390fd5b600d60009054906101000a900473ffffffffffffffffffffffffffffffffffffffff1673ffffffffffffffffffffffffffffffffffffffff166370a08231306040518263ffffffff1660e01b8152600401610add9190612813565b60206040518083038186803b158015610af557600080fd5b505afa158015610b09573d6000803e3d6000fd5b505050506040513d601f19601f82011682018060405250810190610b2d9190612b73565b811115610be257600d60009054906101000a900473ffffffffffffffffffffffffffffffffffffffff1673ffffffffffffffffffffffffffffffffffffffff166370a08231306040518263ffffffff1660e01b8152600401610b8f9190612813565b60206040518083038186803b158015610ba757600080fd5b505afa158015610bbb573d6000803e3d6000fd5b505050506040513d601f19601f82011682018060405250810190610bdf9190612b73565b90505b610c2f3382600d60009054906101000a900473ffffffffffffffffffffffffffffffffffffffff1673ffffffffffffffffffffffffffffffffffffffff166122579092919063ffffffff16565b6000600b60003373ffffffffffffffffffffffffffffffffffffffff1673ffffffffffffffffffffffffffffffffffffffff168152602001908152602001600020600001819055507fc9695243a805adb74c91f28311176c65b417e842d5699893cef56d18bfa48cba3382604051610ca8929190612ac9565b60405180910390a150565b60006055600b60008473ffffffffffffffffffffffffffffffffffffffff1673ffffffffffffffffffffffffffffffffffffffff1681526020019081526020016000206005015414610d085760019050610e3e565b6000600b60008473ffffffffffffffffffffffffffffffffffffffff1673ffffffffffffffffffffffffffffffffffffffff1681526020019081526020016000206002015414610dd057600062093a80610dad600b60008673ffffffffffffffffffffffffffffffffffffffff1673ffffffffffffffffffffffffffffffffffffffff16815260200190815260200160002060030154426121ff90919063ffffffff16565b610db79190612a98565b14610dc3576001610dc6565b60005b60ff169050610e3e565b600554610e28600b60008573ffffffffffffffffffffffffffffffffffffffff1673ffffffffffffffffffffffffffffffffffffffff16815260200190815260200160002060030154426121ff90919063ffffffff16565b1015610e35576001610e38565b60005b60ff1690505b919050565b610e4b612023565b73ffffffffffffffffffffffffffffffffffffffff16610e696115f2565b73ffffffffffffffffffffffffffffffffffffffff1614610ebf576040517f08c379a0000000000000000000000000000000000000000000000000000000008152600401610eb690612905565b60405180910390fd5b60008111610f02576040517f08c379a0000000000000000000000000000000000000000000000000000000008152600401610ef990612971565b60405180910390fd5b8060058190555050565b60008211610f4f576040517f08c379a0000000000000000000000000000000000000000000000000000000008152600401610f46906129dd565b60405180910390fd5b81600d60009054906101000a900473ffffffffffffffffffffffffffffffffffffffff1673ffffffffffffffffffffffffffffffffffffffff166370a08231336040518263ffffffff1660e01b8152600401610fab9190612813565b60206040518083038186803b158015610fc357600080fd5b505afa158015610fd7573d6000803e3d6000fd5b505050506040513d601f19601f82011682018060405250810190610ffb9190612b73565b1161103b576040517f08c379a000000000000000000000000000000000000000000000000000000000815260040161103290612bec565b60405180910390fd5b6055600b60003373ffffffffffffffffffffffffffffffffffffffff1673ffffffffffffffffffffffffffffffffffffffff1681526020019081526020016000206005015414156110c1576040517f08c379a00000000000000000000000000000000000000000000000000000000081526004016110b890612c58565b60405180910390fd5b60008114156111145760065482101561110f576040517f08c379a000000000000000000000000000000000000000000000000000000000815260040161110690612cc4565b60405180910390fd5b611254565b600181141561116757600954821015611162576040517f08c379a000000000000000000000000000000000000000000000000000000000815260040161115990612cc4565b60405180910390fd5b611253565b60028114156111ba576008548210156111b5576040517f08c379a00000000000000000000000000000000000000000000000000000000081526004016111ac90612cc4565b60405180910390fd5b611252565b600381141561120d57600754821015611208576040517f08c379a00000000000000000000000000000000000000000000000000000000081526004016111ff90612cc4565b60405180910390fd5b611251565b60008210611250576040517f08c379a000000000000000000000000000000000000000000000000000000000815260040161124790612d30565b60405180910390fd5b5b5b5b5b80600b60003373ffffffffffffffffffffffffffffffffffffffff1673ffffffffffffffffffffffffffffffffffffffff1681526020019081526020016000206002018190555042600b60003373ffffffffffffffffffffffffffffffffffffffff1673ffffffffffffffffffffffffffffffffffffffff168152602001908152602001600020600301819055506055600b60003373ffffffffffffffffffffffffffffffffffffffff1673ffffffffffffffffffffffffffffffffffffffff16815260200190815260200160002060050181905550600a339080600181540180825580915050600190039060005260206000200160009091909190916101000a81548173ffffffffffffffffffffffffffffffffffffffff021916908373ffffffffffffffffffffffffffffffffffffffff160217905550611396826118b6565b5050565b6000600a80549050905090565b60006113b161202b565b600b60003373ffffffffffffffffffffffffffffffffffffffff1673ffffffffffffffffffffffffffffffffffffffff16815260200190815260200160002060000154905090565b6000600b60008373ffffffffffffffffffffffffffffffffffffffff1673ffffffffffffffffffffffffffffffffffffffff168152602001908152602001600020600001549050919050565b61144d612023565b73ffffffffffffffffffffffffffffffffffffffff1661146b6115f2565b73ffffffffffffffffffffffffffffffffffffffff16146114c1576040517f08c379a00000000000000000000000000000000000000000000000000000000081526004016114b890612905565b60405180910390fd5b60008111611504576040517f08c379a00000000000000000000000000000000000000000000000000000000081526004016114fb90612d9c565b60405180910390fd5b61151a620151808261224190919063ffffffff16565b6002819055507f189bda9782663c67a3f95c0aa5455924c711210b00281c60ead2f0dd8dbc924c8160405161154f91906126c0565b60405180910390a150565b611562612023565b73ffffffffffffffffffffffffffffffffffffffff166115806115f2565b73ffffffffffffffffffffffffffffffffffffffff16146115d6576040517f08c379a00000000000000000000000000000000000000000000000000000000081526004016115cd90612905565b60405180910390fd5b6115e060006122dd565b565b6000600354905090565b600c5481565b60008060009054906101000a900473ffffffffffffffffffffffffffffffffffffffff16905090565b6000806000905060008314806116315750600283145b156116405760065490506116ad565b60018314156116535760095490506116ac565b60038314156116665760075490506116ab565b60016000116116aa576040517f08c379a00000000000000000000000000000000000000000000000000000000081526004016116a190612d30565b60405180910390fd5b5b5b5b80915050919050565b6116be612023565b73ffffffffffffffffffffffffffffffffffffffff166116dc6115f2565b73ffffffffffffffffffffffffffffffffffffffff1614611732576040517f08c379a000000000000000000000000000000000000000000000000000000000815260040161172990612905565b60405180910390fd5b60008111611775576040517f08c379a000000000000000000000000000000000000000000000000000000000815260040161176c90612e08565b60405180910390fd5b806001819055507f150c688dd7595bf7862b8ab1fe46756450eb7d731037942b3bbc46f3f0e21b81816040516117ab91906126c0565b60405180910390a150565b6117be612023565b73ffffffffffffffffffffffffffffffffffffffff166117dc6115f2565b73ffffffffffffffffffffffffffffffffffffffff1614611832576040517f08c379a000000000000000000000000000000000000000000000000000000000815260040161182990612905565b60405180910390fd5b60008111611875576040517f08c379a000000000000000000000000000000000000000000000000000000000815260040161186c90612e74565b60405180910390fd5b806003819055507f1946fb78c7ca778b54d82cabaac5ba67cf446f58d0ff1f8ceaebb6150e54e44f816040516118ab91906126c0565b60405180910390a150565b600081116118f9576040517f08c379a00000000000000000000000000000000000000000000000000000000081526004016118f0906129dd565b60405180910390fd5b80600d60009054906101000a900473ffffffffffffffffffffffffffffffffffffffff1673ffffffffffffffffffffffffffffffffffffffff166370a08231336040518263ffffffff1660e01b81526004016119559190612813565b60206040518083038186803b15801561196d57600080fd5b505afa158015611981573d6000803e3d6000fd5b505050506040513d601f19601f820116820180604052508101906119a59190612b73565b116119e5576040517f08c379a00000000000000000000000000000000000000000000000000000000081526004016119dc90612bec565b60405180910390fd5b6055600b60003373ffffffffffffffffffffffffffffffffffffffff1673ffffffffffffffffffffffffffffffffffffffff1681526020019081526020016000206005015414611a6a576040517f08c379a0000000000000000000000000000000000000000000000000000000008152600401611a6190612ee0565b60405180910390fd5b611a7261202b565b611ac1333083600d60009054906101000a900473ffffffffffffffffffffffffffffffffffffffff1673ffffffffffffffffffffffffffffffffffffffff166123a1909392919063ffffffff16565b611b1681600b60003373ffffffffffffffffffffffffffffffffffffffff1673ffffffffffffffffffffffffffffffffffffffff1681526020019081526020016000206001015461222b90919063ffffffff16565b600b60003373ffffffffffffffffffffffffffffffffffffffff1673ffffffffffffffffffffffffffffffffffffffff16815260200190815260200160002060010181905550611b7181600c5461222b90919063ffffffff16565b600c819055507f9e71bc8eea02a63969f509818f2dafb9254532904319f9dbda79b67bd34a5f3d3382604051611ba8929190612ac9565b60405180910390a150565b611bbb612023565b73ffffffffffffffffffffffffffffffffffffffff16611bd96115f2565b73ffffffffffffffffffffffffffffffffffffffff1614611c2f576040517f08c379a0000000000000000000000000000000000000000000000000000000008152600401611c2690612905565b60405180910390fd5b60008111611c72576040517f08c379a0000000000000000000000000000000000000000000000000000000008152600401611c6990612971565b60405180910390fd5b8060078190555050565b600080600b60008473ffffffffffffffffffffffffffffffffffffffff1673ffffffffffffffffffffffffffffffffffffffff1681526020019081526020016000206002015414611cce576001611cd1565b60005b60ff169050919050565b611ce3612023565b73ffffffffffffffffffffffffffffffffffffffff16611d016115f2565b73ffffffffffffffffffffffffffffffffffffffff1614611d57576040517f08c379a0000000000000000000000000000000000000000000000000000000008152600401611d4e90612905565b60405180910390fd5b60008111611d9a576040517f08c379a0000000000000000000000000000000000000000000000000000000008152600401611d9190612971565b60405180910390fd5b8060098190555050565b611dac612023565b73ffffffffffffffffffffffffffffffffffffffff16611dca6115f2565b73ffffffffffffffffffffffffffffffffffffffff1614611e20576040517f08c379a0000000000000000000000000000000000000000000000000000000008152600401611e1790612905565b60405180910390fd5b60008111611e63576040517f08c379a0000000000000000000000000000000000000000000000000000000008152600401611e5a90612971565b60405180910390fd5b8060068190555050565b611e75612023565b73ffffffffffffffffffffffffffffffffffffffff16611e936115f2565b73ffffffffffffffffffffffffffffffffffffffff1614611ee9576040517f08c379a0000000000000000000000000000000000000000000000000000000008152600401611ee090612905565b60405180910390fd5b600073ffffffffffffffffffffffffffffffffffffffff168173ffffffffffffffffffffffffffffffffffffffff161415611f59576040517f08c379a0000000000000000000000000000000000000000000000000000000008152600401611f5090612f72565b60405180910390fd5b611f62816122dd565b50565b6000600b60008373ffffffffffffffffffffffffffffffffffffffff1673ffffffffffffffffffffffffffffffffffffffff168152602001908152602001600020600101549050919050565b600d60009054906101000a900473ffffffffffffffffffffffffffffffffffffffff1681565b6000600b60008373ffffffffffffffffffffffffffffffffffffffff1673ffffffffffffffffffffffffffffffffffffffff168152602001908152602001600020600501549050919050565b600033905090565b6000600b60003373ffffffffffffffffffffffffffffffffffffffff1673ffffffffffffffffffffffffffffffffffffffff16815260200190815260200160002060010154905060006121176127106121096003546120fb6120ec6121c06120de600b60003373ffffffffffffffffffffffffffffffffffffffff1673ffffffffffffffffffffffffffffffffffffffff16815260200190815260200160002060040154436121ff90919063ffffffff16565b61221590919063ffffffff16565b8761224190919063ffffffff16565b61224190919063ffffffff16565b61221590919063ffffffff16565b905061216e81600b60003373ffffffffffffffffffffffffffffffffffffffff1673ffffffffffffffffffffffffffffffffffffffff1681526020019081526020016000206000015461222b90919063ffffffff16565b600b60003373ffffffffffffffffffffffffffffffffffffffff1673ffffffffffffffffffffffffffffffffffffffff1681526020019081526020016000206000018190555043600b60003373ffffffffffffffffffffffffffffffffffffffff1673ffffffffffffffffffffffffffffffffffffffff168152602001908152602001600020600401819055505050565b6000818361220d9190612fc1565b905092915050565b600081836122239190612ff5565b905092915050565b600081836122399190613026565b905092915050565b6000818361224f919061307c565b905092915050565b6122d88363a9059cbb60e01b8484604051602401612276929190612ac9565b604051602081830303815290604052907bffffffffffffffffffffffffffffffffffffffffffffffffffffffff19166020820180517bffffffffffffffffffffffffffffffffffffffffffffffffffffffff838183161783525050505061242a565b505050565b60008060009054906101000a900473ffffffffffffffffffffffffffffffffffffffff169050816000806101000a81548173ffffffffffffffffffffffffffffffffffffffff021916908373ffffffffffffffffffffffffffffffffffffffff1602179055508173ffffffffffffffffffffffffffffffffffffffff168173ffffffffffffffffffffffffffffffffffffffff167f8be0079c531659141344cd1fd0a4f28419497f9722a3daafe3b4186f6b6457e060405160405180910390a35050565b612424846323b872dd60e01b8585856040516024016123c2939291906130d6565b604051602081830303815290604052907bffffffffffffffffffffffffffffffffffffffffffffffffffffffff19166020820180517bffffffffffffffffffffffffffffffffffffffffffffffffffffffff838183161783525050505061242a565b50505050565b600061248c826040518060400160405280602081526020017f5361666542455032303a206c6f772d6c6576656c2063616c6c206661696c65648152508573ffffffffffffffffffffffffffffffffffffffff166124f19092919063ffffffff16565b90506000815111156124ec57808060200190518101906124ac9190613145565b6124eb576040517f08c379a00000000000000000000000000000000000000000000000000000000081526004016124e2906131e4565b60405180910390fd5b5b505050565b60606125008484600085612509565b90509392505050565b60608247101561254e576040517f08c379a000000000000000000000000000000000000000000000000000000000815260040161254590613276565b60405180910390fd5b6125578561261d565b612596576040517f08c379a000000000000000000000000000000000000000000000000000000000815260040161258d906132e2565b60405180910390fd5b6000808673ffffffffffffffffffffffffffffffffffffffff1685876040516125bf919061337c565b60006040518083038185875af1925050503d80600081146125fc576040519150601f19603f3d011682016040523d82523d6000602084013e612601565b606091505b5091509150612611828286612640565b92505050949350505050565b6000808273ffffffffffffffffffffffffffffffffffffffff163b119050919050565b60608315612650578290506126a0565b6000835111156126635782518084602001fd5b816040517f08c379a000000000000000000000000000000000000000000000000000000000815260040161269791906133e8565b60405180910390fd5b9392505050565b6000819050919050565b6126ba816126a7565b82525050565b60006020820190506126d560008301846126b1565b92915050565b600080fd5b6126e9816126a7565b81146126f457600080fd5b50565b600081359050612706816126e0565b92915050565b600060208284031215612722576127216126db565b5b6000612730848285016126f7565b91505092915050565b600073ffffffffffffffffffffffffffffffffffffffff82169050919050565b600061276482612739565b9050919050565b61277481612759565b811461277f57600080fd5b50565b6000813590506127918161276b565b92915050565b6000602082840312156127ad576127ac6126db565b5b60006127bb84828501612782565b91505092915050565b600080604083850312156127db576127da6126db565b5b60006127e9858286016126f7565b92505060206127fa858286016126f7565b9150509250929050565b61280d81612759565b82525050565b60006020820190506128286000830184612804565b92915050565b6000819050919050565b600061285361284e61284984612739565b61282e565b612739565b9050919050565b600061286582612838565b9050919050565b60006128778261285a565b9050919050565b6128878161286c565b82525050565b60006020820190506128a2600083018461287e565b92915050565b600082825260208201905092915050565b7f4f776e61626c653a2063616c6c6572206973206e6f7420746865206f776e6572600082015250565b60006128ef6020836128a8565b91506128fa826128b9565b602082019050919050565b6000602082019050818103600083015261291e816128e2565b9050919050565b7f43616e2774206265207a65726f00000000000000000000000000000000000000600082015250565b600061295b600d836128a8565b915061296682612925565b602082019050919050565b6000602082019050818103600083015261298a8161294e565b9050919050565b7f416d6f756e742073686f756c642062652067726561746572207468616e203000600082015250565b60006129c7601f836128a8565b91506129d282612991565b602082019050919050565b600060208201905081810360008301526129f6816129ba565b9050919050565b7f496e76616c696420616d6f756e74000000000000000000000000000000000000600082015250565b6000612a33600e836128a8565b9150612a3e826129fd565b602082019050919050565b60006020820190508181036000830152612a6281612a26565b9050919050565b7f4e487b7100000000000000000000000000000000000000000000000000000000600052601260045260246000fd5b6000612aa3826126a7565b9150612aae836126a7565b925082612abe57612abd612a69565b5b828206905092915050565b6000604082019050612ade6000830185612804565b612aeb60208301846126b1565b9392505050565b7f4e6f7468696e6720746f20636c61696d00000000000000000000000000000000600082015250565b6000612b286010836128a8565b9150612b3382612af2565b602082019050919050565b60006020820190508181036000830152612b5781612b1b565b9050919050565b600081519050612b6d816126e0565b92915050565b600060208284031215612b8957612b886126db565b5b6000612b9784828501612b5e565b91505092915050565b7f496e73756666696369656e742100000000000000000000000000000000000000600082015250565b6000612bd6600d836128a8565b9150612be182612ba0565b602082019050919050565b60006020820190508181036000830152612c0581612bc9565b9050919050565b7f416c726561647920737461727465640000000000000000000000000000000000600082015250565b6000612c42600f836128a8565b9150612c4d82612c0c565b602082019050919050565b60006020820190508181036000830152612c7181612c35565b9050919050565b7f496e73756666696369656e740000000000000000000000000000000000000000600082015250565b6000612cae600c836128a8565b9150612cb982612c78565b602082019050919050565b60006020820190508181036000830152612cdd81612ca1565b9050919050565b7f496e76616c6964204d6f64650000000000000000000000000000000000000000600082015250565b6000612d1a600c836128a8565b9150612d2582612ce4565b602082019050919050565b60006020820190508181036000830152612d4981612d0d565b9050919050565b7f496e76616c6964204c6f636b7570204475726174696f6e000000000000000000600082015250565b6000612d866017836128a8565b9150612d9182612d50565b602082019050919050565b60006020820190508181036000830152612db581612d79565b9050919050565b7f496e76616c696420556e7374616b696e67204665652052617465000000000000600082015250565b6000612df2601a836128a8565b9150612dfd82612dbc565b602082019050919050565b60006020820190508181036000830152612e2181612de5565b9050919050565b7f496e76616c69642076616c756500000000000000000000000000000000000000600082015250565b6000612e5e600d836128a8565b9150612e6982612e28565b602082019050919050565b60006020820190508181036000830152612e8d81612e51565b9050919050565b7f4572726f723a20696e76616c6964207374616b65720000000000000000000000600082015250565b6000612eca6015836128a8565b9150612ed582612e94565b602082019050919050565b60006020820190508181036000830152612ef981612ebd565b9050919050565b7f4f776e61626c653a206e6577206f776e657220697320746865207a65726f206160008201527f6464726573730000000000000000000000000000000000000000000000000000602082015250565b6000612f5c6026836128a8565b9150612f6782612f00565b604082019050919050565b60006020820190508181036000830152612f8b81612f4f565b9050919050565b7f4e487b7100000000000000000000000000000000000000000000000000000000600052601160045260246000fd5b6000612fcc826126a7565b9150612fd7836126a7565b925082821015612fea57612fe9612f92565b5b828203905092915050565b6000613000826126a7565b915061300b836126a7565b92508261301b5761301a612a69565b5b828204905092915050565b6000613031826126a7565b915061303c836126a7565b9250827fffffffffffffffffffffffffffffffffffffffffffffffffffffffffffffffff0382111561307157613070612f92565b5b828201905092915050565b6000613087826126a7565b9150613092836126a7565b9250817fffffffffffffffffffffffffffffffffffffffffffffffffffffffffffffffff04831182151516156130cb576130ca612f92565b5b828202905092915050565b60006060820190506130eb6000830186612804565b6130f86020830185612804565b61310560408301846126b1565b949350505050565b60008115159050919050565b6131228161310d565b811461312d57600080fd5b50565b60008151905061313f81613119565b92915050565b60006020828403121561315b5761315a6126db565b5b600061316984828501613130565b91505092915050565b7f5361666542455032303a204245503230206f7065726174696f6e20646964206e60008201527f6f74207375636365656400000000000000000000000000000000000000000000602082015250565b60006131ce602a836128a8565b91506131d982613172565b604082019050919050565b600060208201905081810360008301526131fd816131c1565b9050919050565b7f416464726573733a20696e73756666696369656e742062616c616e636520666f60008201527f722063616c6c0000000000000000000000000000000000000000000000000000602082015250565b60006132606026836128a8565b915061326b82613204565b604082019050919050565b6000602082019050818103600083015261328f81613253565b9050919050565b7f416464726573733a2063616c6c20746f206e6f6e2d636f6e7472616374000000600082015250565b60006132cc601d836128a8565b91506132d782613296565b602082019050919050565b600060208201905081810360008301526132fb816132bf565b9050919050565b600081519050919050565b600081905092915050565b60005b8381101561333657808201518184015260208101905061331b565b83811115613345576000848401525b50505050565b600061335682613302565b613360818561330d565b9350613370818560208601613318565b80840191505092915050565b6000613388828461334b565b915081905092915050565b600081519050919050565b6000601f19601f8301169050919050565b60006133ba82613393565b6133c481856128a8565b93506133d4818560208601613318565b6133dd8161339e565b840191505092915050565b6000602082019050818103600083015261340281846133af565b90509291505056fea2646970667358221220cdea9b3ef1c60a0b095439f624d2aa1d64d8fa8e48a702d9133a1bddc93a5bdd64736f6c63430008090033",
					"opcodes": "PUSH1 0x80 PUSH1 0x40 MSTORE CALLVALUE DUP1 ISZERO PUSH3 0x11 JUMPI PUSH1 0x0 DUP1 REVERT JUMPDEST POP PUSH1 0x40 MLOAD PUSH3 0x36DD CODESIZE SUB DUP1 PUSH3 0x36DD DUP4 CODECOPY DUP2 DUP2 ADD PUSH1 0x40 MSTORE DUP2 ADD SWAP1 PUSH3 0x37 SWAP2 SWAP1 PUSH3 0x25B JUMP JUMPDEST PUSH3 0x57 PUSH3 0x4B PUSH3 0xAF PUSH1 0x20 SHL PUSH1 0x20 SHR JUMP JUMPDEST PUSH3 0xB7 PUSH1 0x20 SHL PUSH1 0x20 SHR JUMP JUMPDEST PUSH3 0x67 PUSH3 0x17B PUSH1 0x20 SHL PUSH1 0x20 SHR JUMP JUMPDEST DUP1 PUSH1 0xD PUSH1 0x0 PUSH2 0x100 EXP DUP2 SLOAD DUP2 PUSH20 0xFFFFFFFFFFFFFFFFFFFFFFFFFFFFFFFFFFFFFFFF MUL NOT AND SWAP1 DUP4 PUSH20 0xFFFFFFFFFFFFFFFFFFFFFFFFFFFFFFFFFFFFFFFF AND MUL OR SWAP1 SSTORE POP POP PUSH3 0x28D JUMP JUMPDEST PUSH1 0x0 CALLER SWAP1 POP SWAP1 JUMP JUMPDEST PUSH1 0x0 DUP1 PUSH1 0x0 SWAP1 SLOAD SWAP1 PUSH2 0x100 EXP SWAP1 DIV PUSH20 0xFFFFFFFFFFFFFFFFFFFFFFFFFFFFFFFFFFFFFFFF AND SWAP1 POP DUP2 PUSH1 0x0 DUP1 PUSH2 0x100 EXP DUP2 SLOAD DUP2 PUSH20 0xFFFFFFFFFFFFFFFFFFFFFFFFFFFFFFFFFFFFFFFF MUL NOT AND SWAP1 DUP4 PUSH20 0xFFFFFFFFFFFFFFFFFFFFFFFFFFFFFFFFFFFFFFFF AND MUL OR SWAP1 SSTORE POP DUP2 PUSH20 0xFFFFFFFFFFFFFFFFFFFFFFFFFFFFFFFFFFFFFFFF AND DUP2 PUSH20 0xFFFFFFFFFFFFFFFFFFFFFFFFFFFFFFFFFFFFFFFF AND PUSH32 0x8BE0079C531659141344CD1FD0A4F28419497F9722A3DAAFE3B4186F6B6457E0 PUSH1 0x40 MLOAD PUSH1 0x40 MLOAD DUP1 SWAP2 SUB SWAP1 LOG3 POP POP JUMP JUMPDEST PUSH1 0xC8 PUSH1 0x3 DUP2 SWAP1 SSTORE POP PUSH2 0x5DC PUSH1 0x1 DUP2 SWAP1 SSTORE POP PUSH1 0x64 PUSH1 0x4 DUP2 SWAP1 SSTORE POP PUSH3 0x93A80 PUSH1 0x2 DUP2 SWAP1 SSTORE POP PUSH3 0x76A700 PUSH1 0x5 DUP2 SWAP1 SSTORE POP PUSH11 0x27B46536C66C8E3000000 PUSH1 0x6 DUP2 SWAP1 SSTORE POP PUSH10 0xD3C21BCECCEDA1000000 PUSH1 0x9 DUP2 SWAP1 SSTORE POP PUSH11 0x27B46536C66C8E3000000 PUSH1 0x8 DUP2 SWAP1 SSTORE POP PUSH11 0x5CA4EC2A79A7F67000000 PUSH1 0x7 DUP2 SWAP1 SSTORE POP JUMP JUMPDEST PUSH1 0x0 DUP1 REVERT JUMPDEST PUSH1 0x0 PUSH20 0xFFFFFFFFFFFFFFFFFFFFFFFFFFFFFFFFFFFFFFFF DUP3 AND SWAP1 POP SWAP2 SWAP1 POP JUMP JUMPDEST PUSH1 0x0 PUSH3 0x223 DUP3 PUSH3 0x1F6 JUMP JUMPDEST SWAP1 POP SWAP2 SWAP1 POP JUMP JUMPDEST PUSH3 0x235 DUP2 PUSH3 0x216 JUMP JUMPDEST DUP2 EQ PUSH3 0x241 JUMPI PUSH1 0x0 DUP1 REVERT JUMPDEST POP JUMP JUMPDEST PUSH1 0x0 DUP2 MLOAD SWAP1 POP PUSH3 0x255 DUP2 PUSH3 0x22A JUMP JUMPDEST SWAP3 SWAP2 POP POP JUMP JUMPDEST PUSH1 0x0 PUSH1 0x20 DUP3 DUP5 SUB SLT ISZERO PUSH3 0x274 JUMPI PUSH3 0x273 PUSH3 0x1F1 JUMP JUMPDEST JUMPDEST PUSH1 0x0 PUSH3 0x284 DUP5 DUP3 DUP6 ADD PUSH3 0x244 JUMP JUMPDEST SWAP2 POP POP SWAP3 SWAP2 POP POP JUMP JUMPDEST PUSH2 0x3440 DUP1 PUSH3 0x29D PUSH1 0x0 CODECOPY PUSH1 0x0 RETURN INVALID PUSH1 0x80 PUSH1 0x40 MSTORE CALLVALUE DUP1 ISZERO PUSH2 0x10 JUMPI PUSH1 0x0 DUP1 REVERT JUMPDEST POP PUSH1 0x4 CALLDATASIZE LT PUSH2 0x1A9 JUMPI PUSH1 0x0 CALLDATALOAD PUSH1 0xE0 SHR DUP1 PUSH4 0x817B1CD2 GT PUSH2 0xF9 JUMPI DUP1 PUSH4 0xAEDF562B GT PUSH2 0x97 JUMPI DUP1 PUSH4 0xF2FDE38B GT PUSH2 0x71 JUMPI DUP1 PUSH4 0xF2FDE38B EQ PUSH2 0x46A JUMPI DUP1 PUSH4 0xF9931855 EQ PUSH2 0x486 JUMPI DUP1 PUSH4 0xFC0C546A EQ PUSH2 0x4B6 JUMPI DUP1 PUSH4 0xFE600F84 EQ PUSH2 0x4D4 JUMPI PUSH2 0x1A9 JUMP JUMPDEST DUP1 PUSH4 0xAEDF562B EQ PUSH2 0x402 JUMPI DUP1 PUSH4 0xC1704A14 EQ PUSH2 0x432 JUMPI DUP1 PUSH4 0xC665D80E EQ PUSH2 0x44E JUMPI PUSH2 0x1A9 JUMP JUMPDEST DUP1 PUSH4 0x91E07E7A GT PUSH2 0xD3 JUMPI DUP1 PUSH4 0x91E07E7A EQ PUSH2 0x392 JUMPI DUP1 PUSH4 0x9E447FC6 EQ PUSH2 0x3AE JUMPI DUP1 PUSH4 0xA694FC3A EQ PUSH2 0x3CA JUMPI DUP1 PUSH4 0xAE544943 EQ PUSH2 0x3E6 JUMPI PUSH2 0x1A9 JUMP JUMPDEST DUP1 PUSH4 0x817B1CD2 EQ PUSH2 0x326 JUMPI DUP1 PUSH4 0x8DA5CB5B EQ PUSH2 0x344 JUMPI DUP1 PUSH4 0x909F093E EQ PUSH2 0x362 JUMPI PUSH2 0x1A9 JUMP JUMPDEST DUP1 PUSH4 0x4B77DD9E GT PUSH2 0x166 JUMPI DUP1 PUSH4 0x645A8A56 GT PUSH2 0x140 JUMPI DUP1 PUSH4 0x645A8A56 EQ PUSH2 0x2B2 JUMPI DUP1 PUSH4 0x692642E7 EQ PUSH2 0x2E2 JUMPI DUP1 PUSH4 0x715018A6 EQ PUSH2 0x2FE JUMPI DUP1 PUSH4 0x7E1A3786 EQ PUSH2 0x308 JUMPI PUSH2 0x1A9 JUMP JUMPDEST DUP1 PUSH4 0x4B77DD9E EQ PUSH2 0x25A JUMPI DUP1 PUSH4 0x5715EC11 EQ PUSH2 0x276 JUMPI DUP1 PUSH4 0x5D2EC65D EQ PUSH2 0x294 JUMPI PUSH2 0x1A9 JUMP JUMPDEST DUP1 PUSH4 0x917E776 EQ PUSH2 0x1AE JUMPI DUP1 PUSH4 0x23B61117 EQ PUSH2 0x1CC JUMPI DUP1 PUSH4 0x2E1A7D4D EQ PUSH2 0x1E8 JUMPI DUP1 PUSH4 0x4641257D EQ PUSH2 0x204 JUMPI DUP1 PUSH4 0x4A4FBEEC EQ PUSH2 0x20E JUMPI DUP1 PUSH4 0x4B62B70B EQ PUSH2 0x23E JUMPI JUMPDEST PUSH1 0x0 DUP1 REVERT JUMPDEST PUSH2 0x1B6 PUSH2 0x504 JUMP JUMPDEST PUSH1 0x40 MLOAD PUSH2 0x1C3 SWAP2 SWAP1 PUSH2 0x26C0 JUMP JUMPDEST PUSH1 0x40 MLOAD DUP1 SWAP2 SUB SWAP1 RETURN JUMPDEST PUSH2 0x1E6 PUSH1 0x4 DUP1 CALLDATASIZE SUB DUP2 ADD SWAP1 PUSH2 0x1E1 SWAP2 SWAP1 PUSH2 0x270C JUMP JUMPDEST PUSH2 0x50E JUMP JUMPDEST STOP JUMPDEST PUSH2 0x202 PUSH1 0x4 DUP1 CALLDATASIZE SUB DUP2 ADD SWAP1 PUSH2 0x1FD SWAP2 SWAP1 PUSH2 0x270C JUMP JUMPDEST PUSH2 0x5D7 JUMP JUMPDEST STOP JUMPDEST PUSH2 0x20C PUSH2 0x974 JUMP JUMPDEST STOP JUMPDEST PUSH2 0x228 PUSH1 0x4 DUP1 CALLDATASIZE SUB DUP2 ADD SWAP1 PUSH2 0x223 SWAP2 SWAP1 PUSH2 0x2797 JUMP JUMPDEST PUSH2 0xCB3 JUMP JUMPDEST PUSH1 0x40 MLOAD PUSH2 0x235 SWAP2 SWAP1 PUSH2 0x26C0 JUMP JUMPDEST PUSH1 0x40 MLOAD DUP1 SWAP2 SUB SWAP1 RETURN JUMPDEST PUSH2 0x258 PUSH1 0x4 DUP1 CALLDATASIZE SUB DUP2 ADD SWAP1 PUSH2 0x253 SWAP2 SWAP1 PUSH2 0x270C JUMP JUMPDEST PUSH2 0xE43 JUMP JUMPDEST STOP JUMPDEST PUSH2 0x274 PUSH1 0x4 DUP1 CALLDATASIZE SUB DUP2 ADD SWAP1 PUSH2 0x26F SWAP2 SWAP1 PUSH2 0x27C4 JUMP JUMPDEST PUSH2 0xF0C JUMP JUMPDEST STOP JUMPDEST PUSH2 0x27E PUSH2 0x139A JUMP JUMPDEST PUSH1 0x40 MLOAD PUSH2 0x28B SWAP2 SWAP1 PUSH2 0x26C0 JUMP JUMPDEST PUSH1 0x40 MLOAD DUP1 SWAP2 SUB SWAP1 RETURN JUMPDEST PUSH2 0x29C PUSH2 0x13A7 JUMP JUMPDEST PUSH1 0x40 MLOAD PUSH2 0x2A9 SWAP2 SWAP1 PUSH2 0x26C0 JUMP JUMPDEST PUSH1 0x40 MLOAD DUP1 SWAP2 SUB SWAP1 RETURN JUMPDEST PUSH2 0x2CC PUSH1 0x4 DUP1 CALLDATASIZE SUB DUP2 ADD SWAP1 PUSH2 0x2C7 SWAP2 SWAP1 PUSH2 0x2797 JUMP JUMPDEST PUSH2 0x13F9 JUMP JUMPDEST PUSH1 0x40 MLOAD PUSH2 0x2D9 SWAP2 SWAP1 PUSH2 0x26C0 JUMP JUMPDEST PUSH1 0x40 MLOAD DUP1 SWAP2 SUB SWAP1 RETURN JUMPDEST PUSH2 0x2FC PUSH1 0x4 DUP1 CALLDATASIZE SUB DUP2 ADD SWAP1 PUSH2 0x2F7 SWAP2 SWAP1 PUSH2 0x270C JUMP JUMPDEST PUSH2 0x1445 JUMP JUMPDEST STOP JUMPDEST PUSH2 0x306 PUSH2 0x155A JUMP JUMPDEST STOP JUMPDEST PUSH2 0x310 PUSH2 0x15E2 JUMP JUMPDEST PUSH1 0x40 MLOAD PUSH2 0x31D SWAP2 SWAP1 PUSH2 0x26C0 JUMP JUMPDEST PUSH1 0x40 MLOAD DUP1 SWAP2 SUB SWAP1 RETURN JUMPDEST PUSH2 0x32E PUSH2 0x15EC JUMP JUMPDEST PUSH1 0x40 MLOAD PUSH2 0x33B SWAP2 SWAP1 PUSH2 0x26C0 JUMP JUMPDEST PUSH1 0x40 MLOAD DUP1 SWAP2 SUB SWAP1 RETURN JUMPDEST PUSH2 0x34C PUSH2 0x15F2 JUMP JUMPDEST PUSH1 0x40 MLOAD PUSH2 0x359 SWAP2 SWAP1 PUSH2 0x2813 JUMP JUMPDEST PUSH1 0x40 MLOAD DUP1 SWAP2 SUB SWAP1 RETURN JUMPDEST PUSH2 0x37C PUSH1 0x4 DUP1 CALLDATASIZE SUB DUP2 ADD SWAP1 PUSH2 0x377 SWAP2 SWAP1 PUSH2 0x270C JUMP JUMPDEST PUSH2 0x161B JUMP JUMPDEST PUSH1 0x40 MLOAD PUSH2 0x389 SWAP2 SWAP1 PUSH2 0x26C0 JUMP JUMPDEST PUSH1 0x40 MLOAD DUP1 SWAP2 SUB SWAP1 RETURN JUMPDEST PUSH2 0x3AC PUSH1 0x4 DUP1 CALLDATASIZE SUB DUP2 ADD SWAP1 PUSH2 0x3A7 SWAP2 SWAP1 PUSH2 0x270C JUMP JUMPDEST PUSH2 0x16B6 JUMP JUMPDEST STOP JUMPDEST PUSH2 0x3C8 PUSH1 0x4 DUP1 CALLDATASIZE SUB DUP2 ADD SWAP1 PUSH2 0x3C3 SWAP2 SWAP1 PUSH2 0x270C JUMP JUMPDEST PUSH2 0x17B6 JUMP JUMPDEST STOP JUMPDEST PUSH2 0x3E4 PUSH1 0x4 DUP1 CALLDATASIZE SUB DUP2 ADD SWAP1 PUSH2 0x3DF SWAP2 SWAP1 PUSH2 0x270C JUMP JUMPDEST PUSH2 0x18B6 JUMP JUMPDEST STOP JUMPDEST PUSH2 0x400 PUSH1 0x4 DUP1 CALLDATASIZE SUB DUP2 ADD SWAP1 PUSH2 0x3FB SWAP2 SWAP1 PUSH2 0x270C JUMP JUMPDEST PUSH2 0x1BB3 JUMP JUMPDEST STOP JUMPDEST PUSH2 0x41C PUSH1 0x4 DUP1 CALLDATASIZE SUB DUP2 ADD SWAP1 PUSH2 0x417 SWAP2 SWAP1 PUSH2 0x2797 JUMP JUMPDEST PUSH2 0x1C7C JUMP JUMPDEST PUSH1 0x40 MLOAD PUSH2 0x429 SWAP2 SWAP1 PUSH2 0x26C0 JUMP JUMPDEST PUSH1 0x40 MLOAD DUP1 SWAP2 SUB SWAP1 RETURN JUMPDEST PUSH2 0x44C PUSH1 0x4 DUP1 CALLDATASIZE SUB DUP2 ADD SWAP1 PUSH2 0x447 SWAP2 SWAP1 PUSH2 0x270C JUMP JUMPDEST PUSH2 0x1CDB JUMP JUMPDEST STOP JUMPDEST PUSH2 0x468 PUSH1 0x4 DUP1 CALLDATASIZE SUB DUP2 ADD SWAP1 PUSH2 0x463 SWAP2 SWAP1 PUSH2 0x270C JUMP JUMPDEST PUSH2 0x1DA4 JUMP JUMPDEST STOP JUMPDEST PUSH2 0x484 PUSH1 0x4 DUP1 CALLDATASIZE SUB DUP2 ADD SWAP1 PUSH2 0x47F SWAP2 SWAP1 PUSH2 0x2797 JUMP JUMPDEST PUSH2 0x1E6D JUMP JUMPDEST STOP JUMPDEST PUSH2 0x4A0 PUSH1 0x4 DUP1 CALLDATASIZE SUB DUP2 ADD SWAP1 PUSH2 0x49B SWAP2 SWAP1 PUSH2 0x2797 JUMP JUMPDEST PUSH2 0x1F65 JUMP JUMPDEST PUSH1 0x40 MLOAD PUSH2 0x4AD SWAP2 SWAP1 PUSH2 0x26C0 JUMP JUMPDEST PUSH1 0x40 MLOAD DUP1 SWAP2 SUB SWAP1 RETURN JUMPDEST PUSH2 0x4BE PUSH2 0x1FB1 JUMP JUMPDEST PUSH1 0x40 MLOAD PUSH2 0x4CB SWAP2 SWAP1 PUSH2 0x288D JUMP JUMPDEST PUSH1 0x40 MLOAD DUP1 SWAP2 SUB SWAP1 RETURN JUMPDEST PUSH2 0x4EE PUSH1 0x4 DUP1 CALLDATASIZE SUB DUP2 ADD SWAP1 PUSH2 0x4E9 SWAP2 SWAP1 PUSH2 0x2797 JUMP JUMPDEST PUSH2 0x1FD7 JUMP JUMPDEST PUSH1 0x40 MLOAD PUSH2 0x4FB SWAP2 SWAP1 PUSH2 0x26C0 JUMP JUMPDEST PUSH1 0x40 MLOAD DUP1 SWAP2 SUB SWAP1 RETURN JUMPDEST PUSH1 0x0 PUSH1 0xC SLOAD SWAP1 POP SWAP1 JUMP JUMPDEST PUSH2 0x516 PUSH2 0x2023 JUMP JUMPDEST PUSH20 0xFFFFFFFFFFFFFFFFFFFFFFFFFFFFFFFFFFFFFFFF AND PUSH2 0x534 PUSH2 0x15F2 JUMP JUMPDEST PUSH20 0xFFFFFFFFFFFFFFFFFFFFFFFFFFFFFFFFFFFFFFFF AND EQ PUSH2 0x58A JUMPI PUSH1 0x40 MLOAD PUSH32 0x8C379A000000000000000000000000000000000000000000000000000000000 DUP2 MSTORE PUSH1 0x4 ADD PUSH2 0x581 SWAP1 PUSH2 0x2905 JUMP JUMPDEST PUSH1 0x40 MLOAD DUP1 SWAP2 SUB SWAP1 REVERT JUMPDEST PUSH1 0x0 DUP2 GT PUSH2 0x5CD JUMPI PUSH1 0x40 MLOAD PUSH32 0x8C379A000000000000000000000000000000000000000000000000000000000 DUP2 MSTORE PUSH1 0x4 ADD PUSH2 0x5C4 SWAP1 PUSH2 0x2971 JUMP JUMPDEST PUSH1 0x40 MLOAD DUP1 SWAP2 SUB SWAP1 REVERT JUMPDEST DUP1 PUSH1 0x8 DUP2 SWAP1 SSTORE POP POP JUMP JUMPDEST PUSH1 0x0 DUP2 GT PUSH2 0x61A JUMPI PUSH1 0x40 MLOAD PUSH32 0x8C379A000000000000000000000000000000000000000000000000000000000 DUP2 MSTORE PUSH1 0x4 ADD PUSH2 0x611 SWAP1 PUSH2 0x29DD JUMP JUMPDEST PUSH1 0x40 MLOAD DUP1 SWAP2 SUB SWAP1 REVERT JUMPDEST PUSH1 0xB PUSH1 0x0 CALLER PUSH20 0xFFFFFFFFFFFFFFFFFFFFFFFFFFFFFFFFFFFFFFFF AND PUSH20 0xFFFFFFFFFFFFFFFFFFFFFFFFFFFFFFFFFFFFFFFF AND DUP2 MSTORE PUSH1 0x20 ADD SWAP1 DUP2 MSTORE PUSH1 0x20 ADD PUSH1 0x0 KECCAK256 PUSH1 0x1 ADD SLOAD DUP2 GT ISZERO PUSH2 0x69F JUMPI PUSH1 0x40 MLOAD PUSH32 0x8C379A000000000000000000000000000000000000000000000000000000000 DUP2 MSTORE PUSH1 0x4 ADD PUSH2 0x696 SWAP1 PUSH2 0x2A49 JUMP JUMPDEST PUSH1 0x40 MLOAD DUP1 SWAP2 SUB SWAP1 REVERT JUMPDEST PUSH2 0x6A7 PUSH2 0x202B JUMP JUMPDEST PUSH1 0x0 DUP2 SWAP1 POP PUSH1 0x0 PUSH2 0x718 PUSH3 0x15180 PUSH2 0x70A PUSH1 0xB PUSH1 0x0 CALLER PUSH20 0xFFFFFFFFFFFFFFFFFFFFFFFFFFFFFFFFFFFFFFFF AND PUSH20 0xFFFFFFFFFFFFFFFFFFFFFFFFFFFFFFFFFFFFFFFF AND DUP2 MSTORE PUSH1 0x20 ADD SWAP1 DUP2 MSTORE PUSH1 0x20 ADD PUSH1 0x0 KECCAK256 PUSH1 0x3 ADD SLOAD TIMESTAMP PUSH2 0x21FF SWAP1 SWAP2 SWAP1 PUSH4 0xFFFFFFFF AND JUMP JUMPDEST PUSH2 0x2215 SWAP1 SWAP2 SWAP1 PUSH4 0xFFFFFFFF AND JUMP JUMPDEST SWAP1 POP PUSH1 0x0 PUSH1 0x64 SWAP1 POP PUSH1 0x0 DUP1 PUSH1 0xB PUSH1 0x0 CALLER PUSH20 0xFFFFFFFFFFFFFFFFFFFFFFFFFFFFFFFFFFFFFFFF AND PUSH20 0xFFFFFFFFFFFFFFFFFFFFFFFFFFFFFFFFFFFFFFFF AND DUP2 MSTORE PUSH1 0x20 ADD SWAP1 DUP2 MSTORE PUSH1 0x20 ADD PUSH1 0x0 KECCAK256 PUSH1 0x2 ADD SLOAD EQ ISZERO PUSH2 0x7CB JUMPI PUSH2 0x7C3 PUSH1 0x5 SLOAD PUSH1 0xB PUSH1 0x0 CALLER PUSH20 0xFFFFFFFFFFFFFFFFFFFFFFFFFFFFFFFFFFFFFFFF AND PUSH20 0xFFFFFFFFFFFFFFFFFFFFFFFFFFFFFFFFFFFFFFFF AND DUP2 MSTORE PUSH1 0x20 ADD SWAP1 DUP2 MSTORE PUSH1 0x20 ADD PUSH1 0x0 KECCAK256 PUSH1 0x3 ADD SLOAD PUSH2 0x222B SWAP1 SWAP2 SWAP1 PUSH4 0xFFFFFFFF AND JUMP JUMPDEST TIMESTAMP LT ISZERO PUSH2 0x7E9 JUMP JUMPDEST PUSH1 0x0 PUSH1 0x2 SLOAD DUP5 PUSH2 0x7DB SWAP2 SWAP1 PUSH2 0x2A98 JUMP JUMPDEST EQ DUP1 ISZERO PUSH2 0x7E8 JUMPI POP PUSH1 0x0 DUP4 GT JUMPDEST JUMPDEST SWAP1 POP DUP1 PUSH2 0x7F6 JUMPI PUSH1 0x1 SLOAD SWAP2 POP JUMPDEST PUSH2 0x84B DUP5 PUSH1 0xB PUSH1 0x0 CALLER PUSH20 0xFFFFFFFFFFFFFFFFFFFFFFFFFFFFFFFFFFFFFFFF AND PUSH20 0xFFFFFFFFFFFFFFFFFFFFFFFFFFFFFFFFFFFFFFFF AND DUP2 MSTORE PUSH1 0x20 ADD SWAP1 DUP2 MSTORE PUSH1 0x20 ADD PUSH1 0x0 KECCAK256 PUSH1 0x1 ADD SLOAD PUSH2 0x21FF SWAP1 SWAP2 SWAP1 PUSH4 0xFFFFFFFF AND JUMP JUMPDEST PUSH1 0xB PUSH1 0x0 CALLER PUSH20 0xFFFFFFFFFFFFFFFFFFFFFFFFFFFFFFFFFFFFFFFF AND PUSH20 0xFFFFFFFFFFFFFFFFFFFFFFFFFFFFFFFFFFFFFFFF AND DUP2 MSTORE PUSH1 0x20 ADD SWAP1 DUP2 MSTORE PUSH1 0x20 ADD PUSH1 0x0 KECCAK256 PUSH1 0x1 ADD DUP2 SWAP1 SSTORE POP PUSH2 0x8A6 DUP5 PUSH1 0xC SLOAD PUSH2 0x21FF SWAP1 SWAP2 SWAP1 PUSH4 0xFFFFFFFF AND JUMP JUMPDEST PUSH1 0xC DUP2 SWAP1 SSTORE POP PUSH2 0x8E5 PUSH2 0x8D6 PUSH2 0x2710 PUSH2 0x8C8 DUP6 DUP9 PUSH2 0x2241 SWAP1 SWAP2 SWAP1 PUSH4 0xFFFFFFFF AND JUMP JUMPDEST PUSH2 0x2215 SWAP1 SWAP2 SWAP1 PUSH4 0xFFFFFFFF AND JUMP JUMPDEST DUP6 PUSH2 0x21FF SWAP1 SWAP2 SWAP1 PUSH4 0xFFFFFFFF AND JUMP JUMPDEST SWAP4 POP PUSH2 0x934 CALLER DUP6 PUSH1 0xD PUSH1 0x0 SWAP1 SLOAD SWAP1 PUSH2 0x100 EXP SWAP1 DIV PUSH20 0xFFFFFFFFFFFFFFFFFFFFFFFFFFFFFFFFFFFFFFFF AND PUSH20 0xFFFFFFFFFFFFFFFFFFFFFFFFFFFFFFFFFFFFFFFF AND PUSH2 0x2257 SWAP1 SWAP3 SWAP2 SWAP1 PUSH4 0xFFFFFFFF AND JUMP JUMPDEST PUSH32 0x884EDAD9CE6FA2440D8A54CC123490EB96D2768479D49FF9C7366125A9424364 CALLER DUP6 PUSH1 0x40 MLOAD PUSH2 0x965 SWAP3 SWAP2 SWAP1 PUSH2 0x2AC9 JUMP JUMPDEST PUSH1 0x40 MLOAD DUP1 SWAP2 SUB SWAP1 LOG1 POP POP POP POP POP JUMP JUMPDEST PUSH2 0x97C PUSH2 0x202B JUMP JUMPDEST PUSH1 0x0 PUSH2 0xA3D PUSH2 0x9EC PUSH2 0x2710 PUSH2 0x9DE PUSH1 0x4 SLOAD PUSH1 0xB PUSH1 0x0 CALLER PUSH20 0xFFFFFFFFFFFFFFFFFFFFFFFFFFFFFFFFFFFFFFFF AND PUSH20 0xFFFFFFFFFFFFFFFFFFFFFFFFFFFFFFFFFFFFFFFF AND DUP2 MSTORE PUSH1 0x20 ADD SWAP1 DUP2 MSTORE PUSH1 0x20 ADD PUSH1 0x0 KECCAK256 PUSH1 0x0 ADD SLOAD PUSH2 0x2241 SWAP1 SWAP2 SWAP1 PUSH4 0xFFFFFFFF AND JUMP JUMPDEST PUSH2 0x2215 SWAP1 SWAP2 SWAP1 PUSH4 0xFFFFFFFF AND JUMP JUMPDEST PUSH1 0xB PUSH1 0x0 CALLER PUSH20 0xFFFFFFFFFFFFFFFFFFFFFFFFFFFFFFFFFFFFFFFF AND PUSH20 0xFFFFFFFFFFFFFFFFFFFFFFFFFFFFFFFFFFFFFFFF AND DUP2 MSTORE PUSH1 0x20 ADD SWAP1 DUP2 MSTORE PUSH1 0x20 ADD PUSH1 0x0 KECCAK256 PUSH1 0x0 ADD SLOAD PUSH2 0x21FF SWAP1 SWAP2 SWAP1 PUSH4 0xFFFFFFFF AND JUMP JUMPDEST SWAP1 POP PUSH1 0x0 DUP2 GT PUSH2 0xA82 JUMPI PUSH1 0x40 MLOAD PUSH32 0x8C379A000000000000000000000000000000000000000000000000000000000 DUP2 MSTORE PUSH1 0x4 ADD PUSH2 0xA79 SWAP1 PUSH2 0x2B3E JUMP JUMPDEST PUSH1 0x40 MLOAD DUP1 SWAP2 SUB SWAP1 REVERT JUMPDEST PUSH1 0xD PUSH1 0x0 SWAP1 SLOAD SWAP1 PUSH2 0x100 EXP SWAP1 DIV PUSH20 0xFFFFFFFFFFFFFFFFFFFFFFFFFFFFFFFFFFFFFFFF AND PUSH20 0xFFFFFFFFFFFFFFFFFFFFFFFFFFFFFFFFFFFFFFFF AND PUSH4 0x70A08231 ADDRESS PUSH1 0x40 MLOAD DUP3 PUSH4 0xFFFFFFFF AND PUSH1 0xE0 SHL DUP2 MSTORE PUSH1 0x4 ADD PUSH2 0xADD SWAP2 SWAP1 PUSH2 0x2813 JUMP JUMPDEST PUSH1 0x20 PUSH1 0x40 MLOAD DUP1 DUP4 SUB DUP2 DUP7 DUP1 EXTCODESIZE ISZERO DUP1 ISZERO PUSH2 0xAF5 JUMPI PUSH1 0x0 DUP1 REVERT JUMPDEST POP GAS STATICCALL ISZERO DUP1 ISZERO PUSH2 0xB09 JUMPI RETURNDATASIZE PUSH1 0x0 DUP1 RETURNDATACOPY RETURNDATASIZE PUSH1 0x0 REVERT JUMPDEST POP POP POP POP PUSH1 0x40 MLOAD RETURNDATASIZE PUSH1 0x1F NOT PUSH1 0x1F DUP3 ADD AND DUP3 ADD DUP1 PUSH1 0x40 MSTORE POP DUP2 ADD SWAP1 PUSH2 0xB2D SWAP2 SWAP1 PUSH2 0x2B73 JUMP JUMPDEST DUP2 GT ISZERO PUSH2 0xBE2 JUMPI PUSH1 0xD PUSH1 0x0 SWAP1 SLOAD SWAP1 PUSH2 0x100 EXP SWAP1 DIV PUSH20 0xFFFFFFFFFFFFFFFFFFFFFFFFFFFFFFFFFFFFFFFF AND PUSH20 0xFFFFFFFFFFFFFFFFFFFFFFFFFFFFFFFFFFFFFFFF AND PUSH4 0x70A08231 ADDRESS PUSH1 0x40 MLOAD DUP3 PUSH4 0xFFFFFFFF AND PUSH1 0xE0 SHL DUP2 MSTORE PUSH1 0x4 ADD PUSH2 0xB8F SWAP2 SWAP1 PUSH2 0x2813 JUMP JUMPDEST PUSH1 0x20 PUSH1 0x40 MLOAD DUP1 DUP4 SUB DUP2 DUP7 DUP1 EXTCODESIZE ISZERO DUP1 ISZERO PUSH2 0xBA7 JUMPI PUSH1 0x0 DUP1 REVERT JUMPDEST POP GAS STATICCALL ISZERO DUP1 ISZERO PUSH2 0xBBB JUMPI RETURNDATASIZE PUSH1 0x0 DUP1 RETURNDATACOPY RETURNDATASIZE PUSH1 0x0 REVERT JUMPDEST POP POP POP POP PUSH1 0x40 MLOAD RETURNDATASIZE PUSH1 0x1F NOT PUSH1 0x1F DUP3 ADD AND DUP3 ADD DUP1 PUSH1 0x40 MSTORE POP DUP2 ADD SWAP1 PUSH2 0xBDF SWAP2 SWAP1 PUSH2 0x2B73 JUMP JUMPDEST SWAP1 POP JUMPDEST PUSH2 0xC2F CALLER DUP3 PUSH1 0xD PUSH1 0x0 SWAP1 SLOAD SWAP1 PUSH2 0x100 EXP SWAP1 DIV PUSH20 0xFFFFFFFFFFFFFFFFFFFFFFFFFFFFFFFFFFFFFFFF AND PUSH20 0xFFFFFFFFFFFFFFFFFFFFFFFFFFFFFFFFFFFFFFFF AND PUSH2 0x2257 SWAP1 SWAP3 SWAP2 SWAP1 PUSH4 0xFFFFFFFF AND JUMP JUMPDEST PUSH1 0x0 PUSH1 0xB PUSH1 0x0 CALLER PUSH20 0xFFFFFFFFFFFFFFFFFFFFFFFFFFFFFFFFFFFFFFFF AND PUSH20 0xFFFFFFFFFFFFFFFFFFFFFFFFFFFFFFFFFFFFFFFF AND DUP2 MSTORE PUSH1 0x20 ADD SWAP1 DUP2 MSTORE PUSH1 0x20 ADD PUSH1 0x0 KECCAK256 PUSH1 0x0 ADD DUP2 SWAP1 SSTORE POP PUSH32 0xC9695243A805ADB74C91F28311176C65B417E842D5699893CEF56D18BFA48CBA CALLER DUP3 PUSH1 0x40 MLOAD PUSH2 0xCA8 SWAP3 SWAP2 SWAP1 PUSH2 0x2AC9 JUMP JUMPDEST PUSH1 0x40 MLOAD DUP1 SWAP2 SUB SWAP1 LOG1 POP JUMP JUMPDEST PUSH1 0x0 PUSH1 0x55 PUSH1 0xB PUSH1 0x0 DUP5 PUSH20 0xFFFFFFFFFFFFFFFFFFFFFFFFFFFFFFFFFFFFFFFF AND PUSH20 0xFFFFFFFFFFFFFFFFFFFFFFFFFFFFFFFFFFFFFFFF AND DUP2 MSTORE PUSH1 0x20 ADD SWAP1 DUP2 MSTORE PUSH1 0x20 ADD PUSH1 0x0 KECCAK256 PUSH1 0x5 ADD SLOAD EQ PUSH2 0xD08 JUMPI PUSH1 0x1 SWAP1 POP PUSH2 0xE3E JUMP JUMPDEST PUSH1 0x0 PUSH1 0xB PUSH1 0x0 DUP5 PUSH20 0xFFFFFFFFFFFFFFFFFFFFFFFFFFFFFFFFFFFFFFFF AND PUSH20 0xFFFFFFFFFFFFFFFFFFFFFFFFFFFFFFFFFFFFFFFF AND DUP2 MSTORE PUSH1 0x20 ADD SWAP1 DUP2 MSTORE PUSH1 0x20 ADD PUSH1 0x0 KECCAK256 PUSH1 0x2 ADD SLOAD EQ PUSH2 0xDD0 JUMPI PUSH1 0x0 PUSH3 0x93A80 PUSH2 0xDAD PUSH1 0xB PUSH1 0x0 DUP7 PUSH20 0xFFFFFFFFFFFFFFFFFFFFFFFFFFFFFFFFFFFFFFFF AND PUSH20 0xFFFFFFFFFFFFFFFFFFFFFFFFFFFFFFFFFFFFFFFF AND DUP2 MSTORE PUSH1 0x20 ADD SWAP1 DUP2 MSTORE PUSH1 0x20 ADD PUSH1 0x0 KECCAK256 PUSH1 0x3 ADD SLOAD TIMESTAMP PUSH2 0x21FF SWAP1 SWAP2 SWAP1 PUSH4 0xFFFFFFFF AND JUMP JUMPDEST PUSH2 0xDB7 SWAP2 SWAP1 PUSH2 0x2A98 JUMP JUMPDEST EQ PUSH2 0xDC3 JUMPI PUSH1 0x1 PUSH2 0xDC6 JUMP JUMPDEST PUSH1 0x0 JUMPDEST PUSH1 0xFF AND SWAP1 POP PUSH2 0xE3E JUMP JUMPDEST PUSH1 0x5 SLOAD PUSH2 0xE28 PUSH1 0xB PUSH1 0x0 DUP6 PUSH20 0xFFFFFFFFFFFFFFFFFFFFFFFFFFFFFFFFFFFFFFFF AND PUSH20 0xFFFFFFFFFFFFFFFFFFFFFFFFFFFFFFFFFFFFFFFF AND DUP2 MSTORE PUSH1 0x20 ADD SWAP1 DUP2 MSTORE PUSH1 0x20 ADD PUSH1 0x0 KECCAK256 PUSH1 0x3 ADD SLOAD TIMESTAMP PUSH2 0x21FF SWAP1 SWAP2 SWAP1 PUSH4 0xFFFFFFFF AND JUMP JUMPDEST LT ISZERO PUSH2 0xE35 JUMPI PUSH1 0x1 PUSH2 0xE38 JUMP JUMPDEST PUSH1 0x0 JUMPDEST PUSH1 0xFF AND SWAP1 POP JUMPDEST SWAP2 SWAP1 POP JUMP JUMPDEST PUSH2 0xE4B PUSH2 0x2023 JUMP JUMPDEST PUSH20 0xFFFFFFFFFFFFFFFFFFFFFFFFFFFFFFFFFFFFFFFF AND PUSH2 0xE69 PUSH2 0x15F2 JUMP JUMPDEST PUSH20 0xFFFFFFFFFFFFFFFFFFFFFFFFFFFFFFFFFFFFFFFF AND EQ PUSH2 0xEBF JUMPI PUSH1 0x40 MLOAD PUSH32 0x8C379A000000000000000000000000000000000000000000000000000000000 DUP2 MSTORE PUSH1 0x4 ADD PUSH2 0xEB6 SWAP1 PUSH2 0x2905 JUMP JUMPDEST PUSH1 0x40 MLOAD DUP1 SWAP2 SUB SWAP1 REVERT JUMPDEST PUSH1 0x0 DUP2 GT PUSH2 0xF02 JUMPI PUSH1 0x40 MLOAD PUSH32 0x8C379A000000000000000000000000000000000000000000000000000000000 DUP2 MSTORE PUSH1 0x4 ADD PUSH2 0xEF9 SWAP1 PUSH2 0x2971 JUMP JUMPDEST PUSH1 0x40 MLOAD DUP1 SWAP2 SUB SWAP1 REVERT JUMPDEST DUP1 PUSH1 0x5 DUP2 SWAP1 SSTORE POP POP JUMP JUMPDEST PUSH1 0x0 DUP3 GT PUSH2 0xF4F JUMPI PUSH1 0x40 MLOAD PUSH32 0x8C379A000000000000000000000000000000000000000000000000000000000 DUP2 MSTORE PUSH1 0x4 ADD PUSH2 0xF46 SWAP1 PUSH2 0x29DD JUMP JUMPDEST PUSH1 0x40 MLOAD DUP1 SWAP2 SUB SWAP1 REVERT JUMPDEST DUP2 PUSH1 0xD PUSH1 0x0 SWAP1 SLOAD SWAP1 PUSH2 0x100 EXP SWAP1 DIV PUSH20 0xFFFFFFFFFFFFFFFFFFFFFFFFFFFFFFFFFFFFFFFF AND PUSH20 0xFFFFFFFFFFFFFFFFFFFFFFFFFFFFFFFFFFFFFFFF AND PUSH4 0x70A08231 CALLER PUSH1 0x40 MLOAD DUP3 PUSH4 0xFFFFFFFF AND PUSH1 0xE0 SHL DUP2 MSTORE PUSH1 0x4 ADD PUSH2 0xFAB SWAP2 SWAP1 PUSH2 0x2813 JUMP JUMPDEST PUSH1 0x20 PUSH1 0x40 MLOAD DUP1 DUP4 SUB DUP2 DUP7 DUP1 EXTCODESIZE ISZERO DUP1 ISZERO PUSH2 0xFC3 JUMPI PUSH1 0x0 DUP1 REVERT JUMPDEST POP GAS STATICCALL ISZERO DUP1 ISZERO PUSH2 0xFD7 JUMPI RETURNDATASIZE PUSH1 0x0 DUP1 RETURNDATACOPY RETURNDATASIZE PUSH1 0x0 REVERT JUMPDEST POP POP POP POP PUSH1 0x40 MLOAD RETURNDATASIZE PUSH1 0x1F NOT PUSH1 0x1F DUP3 ADD AND DUP3 ADD DUP1 PUSH1 0x40 MSTORE POP DUP2 ADD SWAP1 PUSH2 0xFFB SWAP2 SWAP1 PUSH2 0x2B73 JUMP JUMPDEST GT PUSH2 0x103B JUMPI PUSH1 0x40 MLOAD PUSH32 0x8C379A000000000000000000000000000000000000000000000000000000000 DUP2 MSTORE PUSH1 0x4 ADD PUSH2 0x1032 SWAP1 PUSH2 0x2BEC JUMP JUMPDEST PUSH1 0x40 MLOAD DUP1 SWAP2 SUB SWAP1 REVERT JUMPDEST PUSH1 0x55 PUSH1 0xB PUSH1 0x0 CALLER PUSH20 0xFFFFFFFFFFFFFFFFFFFFFFFFFFFFFFFFFFFFFFFF AND PUSH20 0xFFFFFFFFFFFFFFFFFFFFFFFFFFFFFFFFFFFFFFFF AND DUP2 MSTORE PUSH1 0x20 ADD SWAP1 DUP2 MSTORE PUSH1 0x20 ADD PUSH1 0x0 KECCAK256 PUSH1 0x5 ADD SLOAD EQ ISZERO PUSH2 0x10C1 JUMPI PUSH1 0x40 MLOAD PUSH32 0x8C379A000000000000000000000000000000000000000000000000000000000 DUP2 MSTORE PUSH1 0x4 ADD PUSH2 0x10B8 SWAP1 PUSH2 0x2C58 JUMP JUMPDEST PUSH1 0x40 MLOAD DUP1 SWAP2 SUB SWAP1 REVERT JUMPDEST PUSH1 0x0 DUP2 EQ ISZERO PUSH2 0x1114 JUMPI PUSH1 0x6 SLOAD DUP3 LT ISZERO PUSH2 0x110F JUMPI PUSH1 0x40 MLOAD PUSH32 0x8C379A000000000000000000000000000000000000000000000000000000000 DUP2 MSTORE PUSH1 0x4 ADD PUSH2 0x1106 SWAP1 PUSH2 0x2CC4 JUMP JUMPDEST PUSH1 0x40 MLOAD DUP1 SWAP2 SUB SWAP1 REVERT JUMPDEST PUSH2 0x1254 JUMP JUMPDEST PUSH1 0x1 DUP2 EQ ISZERO PUSH2 0x1167 JUMPI PUSH1 0x9 SLOAD DUP3 LT ISZERO PUSH2 0x1162 JUMPI PUSH1 0x40 MLOAD PUSH32 0x8C379A000000000000000000000000000000000000000000000000000000000 DUP2 MSTORE PUSH1 0x4 ADD PUSH2 0x1159 SWAP1 PUSH2 0x2CC4 JUMP JUMPDEST PUSH1 0x40 MLOAD DUP1 SWAP2 SUB SWAP1 REVERT JUMPDEST PUSH2 0x1253 JUMP JUMPDEST PUSH1 0x2 DUP2 EQ ISZERO PUSH2 0x11BA JUMPI PUSH1 0x8 SLOAD DUP3 LT ISZERO PUSH2 0x11B5 JUMPI PUSH1 0x40 MLOAD PUSH32 0x8C379A000000000000000000000000000000000000000000000000000000000 DUP2 MSTORE PUSH1 0x4 ADD PUSH2 0x11AC SWAP1 PUSH2 0x2CC4 JUMP JUMPDEST PUSH1 0x40 MLOAD DUP1 SWAP2 SUB SWAP1 REVERT JUMPDEST PUSH2 0x1252 JUMP JUMPDEST PUSH1 0x3 DUP2 EQ ISZERO PUSH2 0x120D JUMPI PUSH1 0x7 SLOAD DUP3 LT ISZERO PUSH2 0x1208 JUMPI PUSH1 0x40 MLOAD PUSH32 0x8C379A000000000000000000000000000000000000000000000000000000000 DUP2 MSTORE PUSH1 0x4 ADD PUSH2 0x11FF SWAP1 PUSH2 0x2CC4 JUMP JUMPDEST PUSH1 0x40 MLOAD DUP1 SWAP2 SUB SWAP1 REVERT JUMPDEST PUSH2 0x1251 JUMP JUMPDEST PUSH1 0x0 DUP3 LT PUSH2 0x1250 JUMPI PUSH1 0x40 MLOAD PUSH32 0x8C379A000000000000000000000000000000000000000000000000000000000 DUP2 MSTORE PUSH1 0x4 ADD PUSH2 0x1247 SWAP1 PUSH2 0x2D30 JUMP JUMPDEST PUSH1 0x40 MLOAD DUP1 SWAP2 SUB SWAP1 REVERT JUMPDEST JUMPDEST JUMPDEST JUMPDEST JUMPDEST DUP1 PUSH1 0xB PUSH1 0x0 CALLER PUSH20 0xFFFFFFFFFFFFFFFFFFFFFFFFFFFFFFFFFFFFFFFF AND PUSH20 0xFFFFFFFFFFFFFFFFFFFFFFFFFFFFFFFFFFFFFFFF AND DUP2 MSTORE PUSH1 0x20 ADD SWAP1 DUP2 MSTORE PUSH1 0x20 ADD PUSH1 0x0 KECCAK256 PUSH1 0x2 ADD DUP2 SWAP1 SSTORE POP TIMESTAMP PUSH1 0xB PUSH1 0x0 CALLER PUSH20 0xFFFFFFFFFFFFFFFFFFFFFFFFFFFFFFFFFFFFFFFF AND PUSH20 0xFFFFFFFFFFFFFFFFFFFFFFFFFFFFFFFFFFFFFFFF AND DUP2 MSTORE PUSH1 0x20 ADD SWAP1 DUP2 MSTORE PUSH1 0x20 ADD PUSH1 0x0 KECCAK256 PUSH1 0x3 ADD DUP2 SWAP1 SSTORE POP PUSH1 0x55 PUSH1 0xB PUSH1 0x0 CALLER PUSH20 0xFFFFFFFFFFFFFFFFFFFFFFFFFFFFFFFFFFFFFFFF AND PUSH20 0xFFFFFFFFFFFFFFFFFFFFFFFFFFFFFFFFFFFFFFFF AND DUP2 MSTORE PUSH1 0x20 ADD SWAP1 DUP2 MSTORE PUSH1 0x20 ADD PUSH1 0x0 KECCAK256 PUSH1 0x5 ADD DUP2 SWAP1 SSTORE POP PUSH1 0xA CALLER SWAP1 DUP1 PUSH1 0x1 DUP2 SLOAD ADD DUP1 DUP3 SSTORE DUP1 SWAP2 POP POP PUSH1 0x1 SWAP1 SUB SWAP1 PUSH1 0x0 MSTORE PUSH1 0x20 PUSH1 0x0 KECCAK256 ADD PUSH1 0x0 SWAP1 SWAP2 SWAP1 SWAP2 SWAP1 SWAP2 PUSH2 0x100 EXP DUP2 SLOAD DUP2 PUSH20 0xFFFFFFFFFFFFFFFFFFFFFFFFFFFFFFFFFFFFFFFF MUL NOT AND SWAP1 DUP4 PUSH20 0xFFFFFFFFFFFFFFFFFFFFFFFFFFFFFFFFFFFFFFFF AND MUL OR SWAP1 SSTORE POP PUSH2 0x1396 DUP3 PUSH2 0x18B6 JUMP JUMPDEST POP POP JUMP JUMPDEST PUSH1 0x0 PUSH1 0xA DUP1 SLOAD SWAP1 POP SWAP1 POP SWAP1 JUMP JUMPDEST PUSH1 0x0 PUSH2 0x13B1 PUSH2 0x202B JUMP JUMPDEST PUSH1 0xB PUSH1 0x0 CALLER PUSH20 0xFFFFFFFFFFFFFFFFFFFFFFFFFFFFFFFFFFFFFFFF AND PUSH20 0xFFFFFFFFFFFFFFFFFFFFFFFFFFFFFFFFFFFFFFFF AND DUP2 MSTORE PUSH1 0x20 ADD SWAP1 DUP2 MSTORE PUSH1 0x20 ADD PUSH1 0x0 KECCAK256 PUSH1 0x0 ADD SLOAD SWAP1 POP SWAP1 JUMP JUMPDEST PUSH1 0x0 PUSH1 0xB PUSH1 0x0 DUP4 PUSH20 0xFFFFFFFFFFFFFFFFFFFFFFFFFFFFFFFFFFFFFFFF AND PUSH20 0xFFFFFFFFFFFFFFFFFFFFFFFFFFFFFFFFFFFFFFFF AND DUP2 MSTORE PUSH1 0x20 ADD SWAP1 DUP2 MSTORE PUSH1 0x20 ADD PUSH1 0x0 KECCAK256 PUSH1 0x0 ADD SLOAD SWAP1 POP SWAP2 SWAP1 POP JUMP JUMPDEST PUSH2 0x144D PUSH2 0x2023 JUMP JUMPDEST PUSH20 0xFFFFFFFFFFFFFFFFFFFFFFFFFFFFFFFFFFFFFFFF AND PUSH2 0x146B PUSH2 0x15F2 JUMP JUMPDEST PUSH20 0xFFFFFFFFFFFFFFFFFFFFFFFFFFFFFFFFFFFFFFFF AND EQ PUSH2 0x14C1 JUMPI PUSH1 0x40 MLOAD PUSH32 0x8C379A000000000000000000000000000000000000000000000000000000000 DUP2 MSTORE PUSH1 0x4 ADD PUSH2 0x14B8 SWAP1 PUSH2 0x2905 JUMP JUMPDEST PUSH1 0x40 MLOAD DUP1 SWAP2 SUB SWAP1 REVERT JUMPDEST PUSH1 0x0 DUP2 GT PUSH2 0x1504 JUMPI PUSH1 0x40 MLOAD PUSH32 0x8C379A000000000000000000000000000000000000000000000000000000000 DUP2 MSTORE PUSH1 0x4 ADD PUSH2 0x14FB SWAP1 PUSH2 0x2D9C JUMP JUMPDEST PUSH1 0x40 MLOAD DUP1 SWAP2 SUB SWAP1 REVERT JUMPDEST PUSH2 0x151A PUSH3 0x15180 DUP3 PUSH2 0x2241 SWAP1 SWAP2 SWAP1 PUSH4 0xFFFFFFFF AND JUMP JUMPDEST PUSH1 0x2 DUP2 SWAP1 SSTORE POP PUSH32 0x189BDA9782663C67A3F95C0AA5455924C711210B00281C60EAD2F0DD8DBC924C DUP2 PUSH1 0x40 MLOAD PUSH2 0x154F SWAP2 SWAP1 PUSH2 0x26C0 JUMP JUMPDEST PUSH1 0x40 MLOAD DUP1 SWAP2 SUB SWAP1 LOG1 POP JUMP JUMPDEST PUSH2 0x1562 PUSH2 0x2023 JUMP JUMPDEST PUSH20 0xFFFFFFFFFFFFFFFFFFFFFFFFFFFFFFFFFFFFFFFF AND PUSH2 0x1580 PUSH2 0x15F2 JUMP JUMPDEST PUSH20 0xFFFFFFFFFFFFFFFFFFFFFFFFFFFFFFFFFFFFFFFF AND EQ PUSH2 0x15D6 JUMPI PUSH1 0x40 MLOAD PUSH32 0x8C379A000000000000000000000000000000000000000000000000000000000 DUP2 MSTORE PUSH1 0x4 ADD PUSH2 0x15CD SWAP1 PUSH2 0x2905 JUMP JUMPDEST PUSH1 0x40 MLOAD DUP1 SWAP2 SUB SWAP1 REVERT JUMPDEST PUSH2 0x15E0 PUSH1 0x0 PUSH2 0x22DD JUMP JUMPDEST JUMP JUMPDEST PUSH1 0x0 PUSH1 0x3 SLOAD SWAP1 POP SWAP1 JUMP JUMPDEST PUSH1 0xC SLOAD DUP2 JUMP JUMPDEST PUSH1 0x0 DUP1 PUSH1 0x0 SWAP1 SLOAD SWAP1 PUSH2 0x100 EXP SWAP1 DIV PUSH20 0xFFFFFFFFFFFFFFFFFFFFFFFFFFFFFFFFFFFFFFFF AND SWAP1 POP SWAP1 JUMP JUMPDEST PUSH1 0x0 DUP1 PUSH1 0x0 SWAP1 POP PUSH1 0x0 DUP4 EQ DUP1 PUSH2 0x1631 JUMPI POP PUSH1 0x2 DUP4 EQ JUMPDEST ISZERO PUSH2 0x1640 JUMPI PUSH1 0x6 SLOAD SWAP1 POP PUSH2 0x16AD JUMP JUMPDEST PUSH1 0x1 DUP4 EQ ISZERO PUSH2 0x1653 JUMPI PUSH1 0x9 SLOAD SWAP1 POP PUSH2 0x16AC JUMP JUMPDEST PUSH1 0x3 DUP4 EQ ISZERO PUSH2 0x1666 JUMPI PUSH1 0x7 SLOAD SWAP1 POP PUSH2 0x16AB JUMP JUMPDEST PUSH1 0x1 PUSH1 0x0 GT PUSH2 0x16AA JUMPI PUSH1 0x40 MLOAD PUSH32 0x8C379A000000000000000000000000000000000000000000000000000000000 DUP2 MSTORE PUSH1 0x4 ADD PUSH2 0x16A1 SWAP1 PUSH2 0x2D30 JUMP JUMPDEST PUSH1 0x40 MLOAD DUP1 SWAP2 SUB SWAP1 REVERT JUMPDEST JUMPDEST JUMPDEST JUMPDEST DUP1 SWAP2 POP POP SWAP2 SWAP1 POP JUMP JUMPDEST PUSH2 0x16BE PUSH2 0x2023 JUMP JUMPDEST PUSH20 0xFFFFFFFFFFFFFFFFFFFFFFFFFFFFFFFFFFFFFFFF AND PUSH2 0x16DC PUSH2 0x15F2 JUMP JUMPDEST PUSH20 0xFFFFFFFFFFFFFFFFFFFFFFFFFFFFFFFFFFFFFFFF AND EQ PUSH2 0x1732 JUMPI PUSH1 0x40 MLOAD PUSH32 0x8C379A000000000000000000000000000000000000000000000000000000000 DUP2 MSTORE PUSH1 0x4 ADD PUSH2 0x1729 SWAP1 PUSH2 0x2905 JUMP JUMPDEST PUSH1 0x40 MLOAD DUP1 SWAP2 SUB SWAP1 REVERT JUMPDEST PUSH1 0x0 DUP2 GT PUSH2 0x1775 JUMPI PUSH1 0x40 MLOAD PUSH32 0x8C379A000000000000000000000000000000000000000000000000000000000 DUP2 MSTORE PUSH1 0x4 ADD PUSH2 0x176C SWAP1 PUSH2 0x2E08 JUMP JUMPDEST PUSH1 0x40 MLOAD DUP1 SWAP2 SUB SWAP1 REVERT JUMPDEST DUP1 PUSH1 0x1 DUP2 SWAP1 SSTORE POP PUSH32 0x150C688DD7595BF7862B8AB1FE46756450EB7D731037942B3BBC46F3F0E21B81 DUP2 PUSH1 0x40 MLOAD PUSH2 0x17AB SWAP2 SWAP1 PUSH2 0x26C0 JUMP JUMPDEST PUSH1 0x40 MLOAD DUP1 SWAP2 SUB SWAP1 LOG1 POP JUMP JUMPDEST PUSH2 0x17BE PUSH2 0x2023 JUMP JUMPDEST PUSH20 0xFFFFFFFFFFFFFFFFFFFFFFFFFFFFFFFFFFFFFFFF AND PUSH2 0x17DC PUSH2 0x15F2 JUMP JUMPDEST PUSH20 0xFFFFFFFFFFFFFFFFFFFFFFFFFFFFFFFFFFFFFFFF AND EQ PUSH2 0x1832 JUMPI PUSH1 0x40 MLOAD PUSH32 0x8C379A000000000000000000000000000000000000000000000000000000000 DUP2 MSTORE PUSH1 0x4 ADD PUSH2 0x1829 SWAP1 PUSH2 0x2905 JUMP JUMPDEST PUSH1 0x40 MLOAD DUP1 SWAP2 SUB SWAP1 REVERT JUMPDEST PUSH1 0x0 DUP2 GT PUSH2 0x1875 JUMPI PUSH1 0x40 MLOAD PUSH32 0x8C379A000000000000000000000000000000000000000000000000000000000 DUP2 MSTORE PUSH1 0x4 ADD PUSH2 0x186C SWAP1 PUSH2 0x2E74 JUMP JUMPDEST PUSH1 0x40 MLOAD DUP1 SWAP2 SUB SWAP1 REVERT JUMPDEST DUP1 PUSH1 0x3 DUP2 SWAP1 SSTORE POP PUSH32 0x1946FB78C7CA778B54D82CABAAC5BA67CF446F58D0FF1F8CEAEBB6150E54E44F DUP2 PUSH1 0x40 MLOAD PUSH2 0x18AB SWAP2 SWAP1 PUSH2 0x26C0 JUMP JUMPDEST PUSH1 0x40 MLOAD DUP1 SWAP2 SUB SWAP1 LOG1 POP JUMP JUMPDEST PUSH1 0x0 DUP2 GT PUSH2 0x18F9 JUMPI PUSH1 0x40 MLOAD PUSH32 0x8C379A000000000000000000000000000000000000000000000000000000000 DUP2 MSTORE PUSH1 0x4 ADD PUSH2 0x18F0 SWAP1 PUSH2 0x29DD JUMP JUMPDEST PUSH1 0x40 MLOAD DUP1 SWAP2 SUB SWAP1 REVERT JUMPDEST DUP1 PUSH1 0xD PUSH1 0x0 SWAP1 SLOAD SWAP1 PUSH2 0x100 EXP SWAP1 DIV PUSH20 0xFFFFFFFFFFFFFFFFFFFFFFFFFFFFFFFFFFFFFFFF AND PUSH20 0xFFFFFFFFFFFFFFFFFFFFFFFFFFFFFFFFFFFFFFFF AND PUSH4 0x70A08231 CALLER PUSH1 0x40 MLOAD DUP3 PUSH4 0xFFFFFFFF AND PUSH1 0xE0 SHL DUP2 MSTORE PUSH1 0x4 ADD PUSH2 0x1955 SWAP2 SWAP1 PUSH2 0x2813 JUMP JUMPDEST PUSH1 0x20 PUSH1 0x40 MLOAD DUP1 DUP4 SUB DUP2 DUP7 DUP1 EXTCODESIZE ISZERO DUP1 ISZERO PUSH2 0x196D JUMPI PUSH1 0x0 DUP1 REVERT JUMPDEST POP GAS STATICCALL ISZERO DUP1 ISZERO PUSH2 0x1981 JUMPI RETURNDATASIZE PUSH1 0x0 DUP1 RETURNDATACOPY RETURNDATASIZE PUSH1 0x0 REVERT JUMPDEST POP POP POP POP PUSH1 0x40 MLOAD RETURNDATASIZE PUSH1 0x1F NOT PUSH1 0x1F DUP3 ADD AND DUP3 ADD DUP1 PUSH1 0x40 MSTORE POP DUP2 ADD SWAP1 PUSH2 0x19A5 SWAP2 SWAP1 PUSH2 0x2B73 JUMP JUMPDEST GT PUSH2 0x19E5 JUMPI PUSH1 0x40 MLOAD PUSH32 0x8C379A000000000000000000000000000000000000000000000000000000000 DUP2 MSTORE PUSH1 0x4 ADD PUSH2 0x19DC SWAP1 PUSH2 0x2BEC JUMP JUMPDEST PUSH1 0x40 MLOAD DUP1 SWAP2 SUB SWAP1 REVERT JUMPDEST PUSH1 0x55 PUSH1 0xB PUSH1 0x0 CALLER PUSH20 0xFFFFFFFFFFFFFFFFFFFFFFFFFFFFFFFFFFFFFFFF AND PUSH20 0xFFFFFFFFFFFFFFFFFFFFFFFFFFFFFFFFFFFFFFFF AND DUP2 MSTORE PUSH1 0x20 ADD SWAP1 DUP2 MSTORE PUSH1 0x20 ADD PUSH1 0x0 KECCAK256 PUSH1 0x5 ADD SLOAD EQ PUSH2 0x1A6A JUMPI PUSH1 0x40 MLOAD PUSH32 0x8C379A000000000000000000000000000000000000000000000000000000000 DUP2 MSTORE PUSH1 0x4 ADD PUSH2 0x1A61 SWAP1 PUSH2 0x2EE0 JUMP JUMPDEST PUSH1 0x40 MLOAD DUP1 SWAP2 SUB SWAP1 REVERT JUMPDEST PUSH2 0x1A72 PUSH2 0x202B JUMP JUMPDEST PUSH2 0x1AC1 CALLER ADDRESS DUP4 PUSH1 0xD PUSH1 0x0 SWAP1 SLOAD SWAP1 PUSH2 0x100 EXP SWAP1 DIV PUSH20 0xFFFFFFFFFFFFFFFFFFFFFFFFFFFFFFFFFFFFFFFF AND PUSH20 0xFFFFFFFFFFFFFFFFFFFFFFFFFFFFFFFFFFFFFFFF AND PUSH2 0x23A1 SWAP1 SWAP4 SWAP3 SWAP2 SWAP1 PUSH4 0xFFFFFFFF AND JUMP JUMPDEST PUSH2 0x1B16 DUP2 PUSH1 0xB PUSH1 0x0 CALLER PUSH20 0xFFFFFFFFFFFFFFFFFFFFFFFFFFFFFFFFFFFFFFFF AND PUSH20 0xFFFFFFFFFFFFFFFFFFFFFFFFFFFFFFFFFFFFFFFF AND DUP2 MSTORE PUSH1 0x20 ADD SWAP1 DUP2 MSTORE PUSH1 0x20 ADD PUSH1 0x0 KECCAK256 PUSH1 0x1 ADD SLOAD PUSH2 0x222B SWAP1 SWAP2 SWAP1 PUSH4 0xFFFFFFFF AND JUMP JUMPDEST PUSH1 0xB PUSH1 0x0 CALLER PUSH20 0xFFFFFFFFFFFFFFFFFFFFFFFFFFFFFFFFFFFFFFFF AND PUSH20 0xFFFFFFFFFFFFFFFFFFFFFFFFFFFFFFFFFFFFFFFF AND DUP2 MSTORE PUSH1 0x20 ADD SWAP1 DUP2 MSTORE PUSH1 0x20 ADD PUSH1 0x0 KECCAK256 PUSH1 0x1 ADD DUP2 SWAP1 SSTORE POP PUSH2 0x1B71 DUP2 PUSH1 0xC SLOAD PUSH2 0x222B SWAP1 SWAP2 SWAP1 PUSH4 0xFFFFFFFF AND JUMP JUMPDEST PUSH1 0xC DUP2 SWAP1 SSTORE POP PUSH32 0x9E71BC8EEA02A63969F509818F2DAFB9254532904319F9DBDA79B67BD34A5F3D CALLER DUP3 PUSH1 0x40 MLOAD PUSH2 0x1BA8 SWAP3 SWAP2 SWAP1 PUSH2 0x2AC9 JUMP JUMPDEST PUSH1 0x40 MLOAD DUP1 SWAP2 SUB SWAP1 LOG1 POP JUMP JUMPDEST PUSH2 0x1BBB PUSH2 0x2023 JUMP JUMPDEST PUSH20 0xFFFFFFFFFFFFFFFFFFFFFFFFFFFFFFFFFFFFFFFF AND PUSH2 0x1BD9 PUSH2 0x15F2 JUMP JUMPDEST PUSH20 0xFFFFFFFFFFFFFFFFFFFFFFFFFFFFFFFFFFFFFFFF AND EQ PUSH2 0x1C2F JUMPI PUSH1 0x40 MLOAD PUSH32 0x8C379A000000000000000000000000000000000000000000000000000000000 DUP2 MSTORE PUSH1 0x4 ADD PUSH2 0x1C26 SWAP1 PUSH2 0x2905 JUMP JUMPDEST PUSH1 0x40 MLOAD DUP1 SWAP2 SUB SWAP1 REVERT JUMPDEST PUSH1 0x0 DUP2 GT PUSH2 0x1C72 JUMPI PUSH1 0x40 MLOAD PUSH32 0x8C379A000000000000000000000000000000000000000000000000000000000 DUP2 MSTORE PUSH1 0x4 ADD PUSH2 0x1C69 SWAP1 PUSH2 0x2971 JUMP JUMPDEST PUSH1 0x40 MLOAD DUP1 SWAP2 SUB SWAP1 REVERT JUMPDEST DUP1 PUSH1 0x7 DUP2 SWAP1 SSTORE POP POP JUMP JUMPDEST PUSH1 0x0 DUP1 PUSH1 0xB PUSH1 0x0 DUP5 PUSH20 0xFFFFFFFFFFFFFFFFFFFFFFFFFFFFFFFFFFFFFFFF AND PUSH20 0xFFFFFFFFFFFFFFFFFFFFFFFFFFFFFFFFFFFFFFFF AND DUP2 MSTORE PUSH1 0x20 ADD SWAP1 DUP2 MSTORE PUSH1 0x20 ADD PUSH1 0x0 KECCAK256 PUSH1 0x2 ADD SLOAD EQ PUSH2 0x1CCE JUMPI PUSH1 0x1 PUSH2 0x1CD1 JUMP JUMPDEST PUSH1 0x0 JUMPDEST PUSH1 0xFF AND SWAP1 POP SWAP2 SWAP1 POP JUMP JUMPDEST PUSH2 0x1CE3 PUSH2 0x2023 JUMP JUMPDEST PUSH20 0xFFFFFFFFFFFFFFFFFFFFFFFFFFFFFFFFFFFFFFFF AND PUSH2 0x1D01 PUSH2 0x15F2 JUMP JUMPDEST PUSH20 0xFFFFFFFFFFFFFFFFFFFFFFFFFFFFFFFFFFFFFFFF AND EQ PUSH2 0x1D57 JUMPI PUSH1 0x40 MLOAD PUSH32 0x8C379A000000000000000000000000000000000000000000000000000000000 DUP2 MSTORE PUSH1 0x4 ADD PUSH2 0x1D4E SWAP1 PUSH2 0x2905 JUMP JUMPDEST PUSH1 0x40 MLOAD DUP1 SWAP2 SUB SWAP1 REVERT JUMPDEST PUSH1 0x0 DUP2 GT PUSH2 0x1D9A JUMPI PUSH1 0x40 MLOAD PUSH32 0x8C379A000000000000000000000000000000000000000000000000000000000 DUP2 MSTORE PUSH1 0x4 ADD PUSH2 0x1D91 SWAP1 PUSH2 0x2971 JUMP JUMPDEST PUSH1 0x40 MLOAD DUP1 SWAP2 SUB SWAP1 REVERT JUMPDEST DUP1 PUSH1 0x9 DUP2 SWAP1 SSTORE POP POP JUMP JUMPDEST PUSH2 0x1DAC PUSH2 0x2023 JUMP JUMPDEST PUSH20 0xFFFFFFFFFFFFFFFFFFFFFFFFFFFFFFFFFFFFFFFF AND PUSH2 0x1DCA PUSH2 0x15F2 JUMP JUMPDEST PUSH20 0xFFFFFFFFFFFFFFFFFFFFFFFFFFFFFFFFFFFFFFFF AND EQ PUSH2 0x1E20 JUMPI PUSH1 0x40 MLOAD PUSH32 0x8C379A000000000000000000000000000000000000000000000000000000000 DUP2 MSTORE PUSH1 0x4 ADD PUSH2 0x1E17 SWAP1 PUSH2 0x2905 JUMP JUMPDEST PUSH1 0x40 MLOAD DUP1 SWAP2 SUB SWAP1 REVERT JUMPDEST PUSH1 0x0 DUP2 GT PUSH2 0x1E63 JUMPI PUSH1 0x40 MLOAD PUSH32 0x8C379A000000000000000000000000000000000000000000000000000000000 DUP2 MSTORE PUSH1 0x4 ADD PUSH2 0x1E5A SWAP1 PUSH2 0x2971 JUMP JUMPDEST PUSH1 0x40 MLOAD DUP1 SWAP2 SUB SWAP1 REVERT JUMPDEST DUP1 PUSH1 0x6 DUP2 SWAP1 SSTORE POP POP JUMP JUMPDEST PUSH2 0x1E75 PUSH2 0x2023 JUMP JUMPDEST PUSH20 0xFFFFFFFFFFFFFFFFFFFFFFFFFFFFFFFFFFFFFFFF AND PUSH2 0x1E93 PUSH2 0x15F2 JUMP JUMPDEST PUSH20 0xFFFFFFFFFFFFFFFFFFFFFFFFFFFFFFFFFFFFFFFF AND EQ PUSH2 0x1EE9 JUMPI PUSH1 0x40 MLOAD PUSH32 0x8C379A000000000000000000000000000000000000000000000000000000000 DUP2 MSTORE PUSH1 0x4 ADD PUSH2 0x1EE0 SWAP1 PUSH2 0x2905 JUMP JUMPDEST PUSH1 0x40 MLOAD DUP1 SWAP2 SUB SWAP1 REVERT JUMPDEST PUSH1 0x0 PUSH20 0xFFFFFFFFFFFFFFFFFFFFFFFFFFFFFFFFFFFFFFFF AND DUP2 PUSH20 0xFFFFFFFFFFFFFFFFFFFFFFFFFFFFFFFFFFFFFFFF AND EQ ISZERO PUSH2 0x1F59 JUMPI PUSH1 0x40 MLOAD PUSH32 0x8C379A000000000000000000000000000000000000000000000000000000000 DUP2 MSTORE PUSH1 0x4 ADD PUSH2 0x1F50 SWAP1 PUSH2 0x2F72 JUMP JUMPDEST PUSH1 0x40 MLOAD DUP1 SWAP2 SUB SWAP1 REVERT JUMPDEST PUSH2 0x1F62 DUP2 PUSH2 0x22DD JUMP JUMPDEST POP JUMP JUMPDEST PUSH1 0x0 PUSH1 0xB PUSH1 0x0 DUP4 PUSH20 0xFFFFFFFFFFFFFFFFFFFFFFFFFFFFFFFFFFFFFFFF AND PUSH20 0xFFFFFFFFFFFFFFFFFFFFFFFFFFFFFFFFFFFFFFFF AND DUP2 MSTORE PUSH1 0x20 ADD SWAP1 DUP2 MSTORE PUSH1 0x20 ADD PUSH1 0x0 KECCAK256 PUSH1 0x1 ADD SLOAD SWAP1 POP SWAP2 SWAP1 POP JUMP JUMPDEST PUSH1 0xD PUSH1 0x0 SWAP1 SLOAD SWAP1 PUSH2 0x100 EXP SWAP1 DIV PUSH20 0xFFFFFFFFFFFFFFFFFFFFFFFFFFFFFFFFFFFFFFFF AND DUP2 JUMP JUMPDEST PUSH1 0x0 PUSH1 0xB PUSH1 0x0 DUP4 PUSH20 0xFFFFFFFFFFFFFFFFFFFFFFFFFFFFFFFFFFFFFFFF AND PUSH20 0xFFFFFFFFFFFFFFFFFFFFFFFFFFFFFFFFFFFFFFFF AND DUP2 MSTORE PUSH1 0x20 ADD SWAP1 DUP2 MSTORE PUSH1 0x20 ADD PUSH1 0x0 KECCAK256 PUSH1 0x5 ADD SLOAD SWAP1 POP SWAP2 SWAP1 POP JUMP JUMPDEST PUSH1 0x0 CALLER SWAP1 POP SWAP1 JUMP JUMPDEST PUSH1 0x0 PUSH1 0xB PUSH1 0x0 CALLER PUSH20 0xFFFFFFFFFFFFFFFFFFFFFFFFFFFFFFFFFFFFFFFF AND PUSH20 0xFFFFFFFFFFFFFFFFFFFFFFFFFFFFFFFFFFFFFFFF AND DUP2 MSTORE PUSH1 0x20 ADD SWAP1 DUP2 MSTORE PUSH1 0x20 ADD PUSH1 0x0 KECCAK256 PUSH1 0x1 ADD SLOAD SWAP1 POP PUSH1 0x0 PUSH2 0x2117 PUSH2 0x2710 PUSH2 0x2109 PUSH1 0x3 SLOAD PUSH2 0x20FB PUSH2 0x20EC PUSH2 0x21C0 PUSH2 0x20DE PUSH1 0xB PUSH1 0x0 CALLER PUSH20 0xFFFFFFFFFFFFFFFFFFFFFFFFFFFFFFFFFFFFFFFF AND PUSH20 0xFFFFFFFFFFFFFFFFFFFFFFFFFFFFFFFFFFFFFFFF AND DUP2 MSTORE PUSH1 0x20 ADD SWAP1 DUP2 MSTORE PUSH1 0x20 ADD PUSH1 0x0 KECCAK256 PUSH1 0x4 ADD SLOAD NUMBER PUSH2 0x21FF SWAP1 SWAP2 SWAP1 PUSH4 0xFFFFFFFF AND JUMP JUMPDEST PUSH2 0x2215 SWAP1 SWAP2 SWAP1 PUSH4 0xFFFFFFFF AND JUMP JUMPDEST DUP8 PUSH2 0x2241 SWAP1 SWAP2 SWAP1 PUSH4 0xFFFFFFFF AND JUMP JUMPDEST PUSH2 0x2241 SWAP1 SWAP2 SWAP1 PUSH4 0xFFFFFFFF AND JUMP JUMPDEST PUSH2 0x2215 SWAP1 SWAP2 SWAP1 PUSH4 0xFFFFFFFF AND JUMP JUMPDEST SWAP1 POP PUSH2 0x216E DUP2 PUSH1 0xB PUSH1 0x0 CALLER PUSH20 0xFFFFFFFFFFFFFFFFFFFFFFFFFFFFFFFFFFFFFFFF AND PUSH20 0xFFFFFFFFFFFFFFFFFFFFFFFFFFFFFFFFFFFFFFFF AND DUP2 MSTORE PUSH1 0x20 ADD SWAP1 DUP2 MSTORE PUSH1 0x20 ADD PUSH1 0x0 KECCAK256 PUSH1 0x0 ADD SLOAD PUSH2 0x222B SWAP1 SWAP2 SWAP1 PUSH4 0xFFFFFFFF AND JUMP JUMPDEST PUSH1 0xB PUSH1 0x0 CALLER PUSH20 0xFFFFFFFFFFFFFFFFFFFFFFFFFFFFFFFFFFFFFFFF AND PUSH20 0xFFFFFFFFFFFFFFFFFFFFFFFFFFFFFFFFFFFFFFFF AND DUP2 MSTORE PUSH1 0x20 ADD SWAP1 DUP2 MSTORE PUSH1 0x20 ADD PUSH1 0x0 KECCAK256 PUSH1 0x0 ADD DUP2 SWAP1 SSTORE POP NUMBER PUSH1 0xB PUSH1 0x0 CALLER PUSH20 0xFFFFFFFFFFFFFFFFFFFFFFFFFFFFFFFFFFFFFFFF AND PUSH20 0xFFFFFFFFFFFFFFFFFFFFFFFFFFFFFFFFFFFFFFFF AND DUP2 MSTORE PUSH1 0x20 ADD SWAP1 DUP2 MSTORE PUSH1 0x20 ADD PUSH1 0x0 KECCAK256 PUSH1 0x4 ADD DUP2 SWAP1 SSTORE POP POP POP JUMP JUMPDEST PUSH1 0x0 DUP2 DUP4 PUSH2 0x220D SWAP2 SWAP1 PUSH2 0x2FC1 JUMP JUMPDEST SWAP1 POP SWAP3 SWAP2 POP POP JUMP JUMPDEST PUSH1 0x0 DUP2 DUP4 PUSH2 0x2223 SWAP2 SWAP1 PUSH2 0x2FF5 JUMP JUMPDEST SWAP1 POP SWAP3 SWAP2 POP POP JUMP JUMPDEST PUSH1 0x0 DUP2 DUP4 PUSH2 0x2239 SWAP2 SWAP1 PUSH2 0x3026 JUMP JUMPDEST SWAP1 POP SWAP3 SWAP2 POP POP JUMP JUMPDEST PUSH1 0x0 DUP2 DUP4 PUSH2 0x224F SWAP2 SWAP1 PUSH2 0x307C JUMP JUMPDEST SWAP1 POP SWAP3 SWAP2 POP POP JUMP JUMPDEST PUSH2 0x22D8 DUP4 PUSH4 0xA9059CBB PUSH1 0xE0 SHL DUP5 DUP5 PUSH1 0x40 MLOAD PUSH1 0x24 ADD PUSH2 0x2276 SWAP3 SWAP2 SWAP1 PUSH2 0x2AC9 JUMP JUMPDEST PUSH1 0x40 MLOAD PUSH1 0x20 DUP2 DUP4 SUB SUB DUP2 MSTORE SWAP1 PUSH1 0x40 MSTORE SWAP1 PUSH28 0xFFFFFFFFFFFFFFFFFFFFFFFFFFFFFFFFFFFFFFFFFFFFFFFFFFFFFFFF NOT AND PUSH1 0x20 DUP3 ADD DUP1 MLOAD PUSH28 0xFFFFFFFFFFFFFFFFFFFFFFFFFFFFFFFFFFFFFFFFFFFFFFFFFFFFFFFF DUP4 DUP2 DUP4 AND OR DUP4 MSTORE POP POP POP POP PUSH2 0x242A JUMP JUMPDEST POP POP POP JUMP JUMPDEST PUSH1 0x0 DUP1 PUSH1 0x0 SWAP1 SLOAD SWAP1 PUSH2 0x100 EXP SWAP1 DIV PUSH20 0xFFFFFFFFFFFFFFFFFFFFFFFFFFFFFFFFFFFFFFFF AND SWAP1 POP DUP2 PUSH1 0x0 DUP1 PUSH2 0x100 EXP DUP2 SLOAD DUP2 PUSH20 0xFFFFFFFFFFFFFFFFFFFFFFFFFFFFFFFFFFFFFFFF MUL NOT AND SWAP1 DUP4 PUSH20 0xFFFFFFFFFFFFFFFFFFFFFFFFFFFFFFFFFFFFFFFF AND MUL OR SWAP1 SSTORE POP DUP2 PUSH20 0xFFFFFFFFFFFFFFFFFFFFFFFFFFFFFFFFFFFFFFFF AND DUP2 PUSH20 0xFFFFFFFFFFFFFFFFFFFFFFFFFFFFFFFFFFFFFFFF AND PUSH32 0x8BE0079C531659141344CD1FD0A4F28419497F9722A3DAAFE3B4186F6B6457E0 PUSH1 0x40 MLOAD PUSH1 0x40 MLOAD DUP1 SWAP2 SUB SWAP1 LOG3 POP POP JUMP JUMPDEST PUSH2 0x2424 DUP5 PUSH4 0x23B872DD PUSH1 0xE0 SHL DUP6 DUP6 DUP6 PUSH1 0x40 MLOAD PUSH1 0x24 ADD PUSH2 0x23C2 SWAP4 SWAP3 SWAP2 SWAP1 PUSH2 0x30D6 JUMP JUMPDEST PUSH1 0x40 MLOAD PUSH1 0x20 DUP2 DUP4 SUB SUB DUP2 MSTORE SWAP1 PUSH1 0x40 MSTORE SWAP1 PUSH28 0xFFFFFFFFFFFFFFFFFFFFFFFFFFFFFFFFFFFFFFFFFFFFFFFFFFFFFFFF NOT AND PUSH1 0x20 DUP3 ADD DUP1 MLOAD PUSH28 0xFFFFFFFFFFFFFFFFFFFFFFFFFFFFFFFFFFFFFFFFFFFFFFFFFFFFFFFF DUP4 DUP2 DUP4 AND OR DUP4 MSTORE POP POP POP POP PUSH2 0x242A JUMP JUMPDEST POP POP POP POP JUMP JUMPDEST PUSH1 0x0 PUSH2 0x248C DUP3 PUSH1 0x40 MLOAD DUP1 PUSH1 0x40 ADD PUSH1 0x40 MSTORE DUP1 PUSH1 0x20 DUP2 MSTORE PUSH1 0x20 ADD PUSH32 0x5361666542455032303A206C6F772D6C6576656C2063616C6C206661696C6564 DUP2 MSTORE POP DUP6 PUSH20 0xFFFFFFFFFFFFFFFFFFFFFFFFFFFFFFFFFFFFFFFF AND PUSH2 0x24F1 SWAP1 SWAP3 SWAP2 SWAP1 PUSH4 0xFFFFFFFF AND JUMP JUMPDEST SWAP1 POP PUSH1 0x0 DUP2 MLOAD GT ISZERO PUSH2 0x24EC JUMPI DUP1 DUP1 PUSH1 0x20 ADD SWAP1 MLOAD DUP2 ADD SWAP1 PUSH2 0x24AC SWAP2 SWAP1 PUSH2 0x3145 JUMP JUMPDEST PUSH2 0x24EB JUMPI PUSH1 0x40 MLOAD PUSH32 0x8C379A000000000000000000000000000000000000000000000000000000000 DUP2 MSTORE PUSH1 0x4 ADD PUSH2 0x24E2 SWAP1 PUSH2 0x31E4 JUMP JUMPDEST PUSH1 0x40 MLOAD DUP1 SWAP2 SUB SWAP1 REVERT JUMPDEST JUMPDEST POP POP POP JUMP JUMPDEST PUSH1 0x60 PUSH2 0x2500 DUP5 DUP5 PUSH1 0x0 DUP6 PUSH2 0x2509 JUMP JUMPDEST SWAP1 POP SWAP4 SWAP3 POP POP POP JUMP JUMPDEST PUSH1 0x60 DUP3 SELFBALANCE LT ISZERO PUSH2 0x254E JUMPI PUSH1 0x40 MLOAD PUSH32 0x8C379A000000000000000000000000000000000000000000000000000000000 DUP2 MSTORE PUSH1 0x4 ADD PUSH2 0x2545 SWAP1 PUSH2 0x3276 JUMP JUMPDEST PUSH1 0x40 MLOAD DUP1 SWAP2 SUB SWAP1 REVERT JUMPDEST PUSH2 0x2557 DUP6 PUSH2 0x261D JUMP JUMPDEST PUSH2 0x2596 JUMPI PUSH1 0x40 MLOAD PUSH32 0x8C379A000000000000000000000000000000000000000000000000000000000 DUP2 MSTORE PUSH1 0x4 ADD PUSH2 0x258D SWAP1 PUSH2 0x32E2 JUMP JUMPDEST PUSH1 0x40 MLOAD DUP1 SWAP2 SUB SWAP1 REVERT JUMPDEST PUSH1 0x0 DUP1 DUP7 PUSH20 0xFFFFFFFFFFFFFFFFFFFFFFFFFFFFFFFFFFFFFFFF AND DUP6 DUP8 PUSH1 0x40 MLOAD PUSH2 0x25BF SWAP2 SWAP1 PUSH2 0x337C JUMP JUMPDEST PUSH1 0x0 PUSH1 0x40 MLOAD DUP1 DUP4 SUB DUP2 DUP6 DUP8 GAS CALL SWAP3 POP POP POP RETURNDATASIZE DUP1 PUSH1 0x0 DUP2 EQ PUSH2 0x25FC JUMPI PUSH1 0x40 MLOAD SWAP2 POP PUSH1 0x1F NOT PUSH1 0x3F RETURNDATASIZE ADD AND DUP3 ADD PUSH1 0x40 MSTORE RETURNDATASIZE DUP3 MSTORE RETURNDATASIZE PUSH1 0x0 PUSH1 0x20 DUP5 ADD RETURNDATACOPY PUSH2 0x2601 JUMP JUMPDEST PUSH1 0x60 SWAP2 POP JUMPDEST POP SWAP2 POP SWAP2 POP PUSH2 0x2611 DUP3 DUP3 DUP7 PUSH2 0x2640 JUMP JUMPDEST SWAP3 POP POP POP SWAP5 SWAP4 POP POP POP POP JUMP JUMPDEST PUSH1 0x0 DUP1 DUP3 PUSH20 0xFFFFFFFFFFFFFFFFFFFFFFFFFFFFFFFFFFFFFFFF AND EXTCODESIZE GT SWAP1 POP SWAP2 SWAP1 POP JUMP JUMPDEST PUSH1 0x60 DUP4 ISZERO PUSH2 0x2650 JUMPI DUP3 SWAP1 POP PUSH2 0x26A0 JUMP JUMPDEST PUSH1 0x0 DUP4 MLOAD GT ISZERO PUSH2 0x2663 JUMPI DUP3 MLOAD DUP1 DUP5 PUSH1 0x20 ADD REVERT JUMPDEST DUP2 PUSH1 0x40 MLOAD PUSH32 0x8C379A000000000000000000000000000000000000000000000000000000000 DUP2 MSTORE PUSH1 0x4 ADD PUSH2 0x2697 SWAP2 SWAP1 PUSH2 0x33E8 JUMP JUMPDEST PUSH1 0x40 MLOAD DUP1 SWAP2 SUB SWAP1 REVERT JUMPDEST SWAP4 SWAP3 POP POP POP JUMP JUMPDEST PUSH1 0x0 DUP2 SWAP1 POP SWAP2 SWAP1 POP JUMP JUMPDEST PUSH2 0x26BA DUP2 PUSH2 0x26A7 JUMP JUMPDEST DUP3 MSTORE POP POP JUMP JUMPDEST PUSH1 0x0 PUSH1 0x20 DUP3 ADD SWAP1 POP PUSH2 0x26D5 PUSH1 0x0 DUP4 ADD DUP5 PUSH2 0x26B1 JUMP JUMPDEST SWAP3 SWAP2 POP POP JUMP JUMPDEST PUSH1 0x0 DUP1 REVERT JUMPDEST PUSH2 0x26E9 DUP2 PUSH2 0x26A7 JUMP JUMPDEST DUP2 EQ PUSH2 0x26F4 JUMPI PUSH1 0x0 DUP1 REVERT JUMPDEST POP JUMP JUMPDEST PUSH1 0x0 DUP2 CALLDATALOAD SWAP1 POP PUSH2 0x2706 DUP2 PUSH2 0x26E0 JUMP JUMPDEST SWAP3 SWAP2 POP POP JUMP JUMPDEST PUSH1 0x0 PUSH1 0x20 DUP3 DUP5 SUB SLT ISZERO PUSH2 0x2722 JUMPI PUSH2 0x2721 PUSH2 0x26DB JUMP JUMPDEST JUMPDEST PUSH1 0x0 PUSH2 0x2730 DUP5 DUP3 DUP6 ADD PUSH2 0x26F7 JUMP JUMPDEST SWAP2 POP POP SWAP3 SWAP2 POP POP JUMP JUMPDEST PUSH1 0x0 PUSH20 0xFFFFFFFFFFFFFFFFFFFFFFFFFFFFFFFFFFFFFFFF DUP3 AND SWAP1 POP SWAP2 SWAP1 POP JUMP JUMPDEST PUSH1 0x0 PUSH2 0x2764 DUP3 PUSH2 0x2739 JUMP JUMPDEST SWAP1 POP SWAP2 SWAP1 POP JUMP JUMPDEST PUSH2 0x2774 DUP2 PUSH2 0x2759 JUMP JUMPDEST DUP2 EQ PUSH2 0x277F JUMPI PUSH1 0x0 DUP1 REVERT JUMPDEST POP JUMP JUMPDEST PUSH1 0x0 DUP2 CALLDATALOAD SWAP1 POP PUSH2 0x2791 DUP2 PUSH2 0x276B JUMP JUMPDEST SWAP3 SWAP2 POP POP JUMP JUMPDEST PUSH1 0x0 PUSH1 0x20 DUP3 DUP5 SUB SLT ISZERO PUSH2 0x27AD JUMPI PUSH2 0x27AC PUSH2 0x26DB JUMP JUMPDEST JUMPDEST PUSH1 0x0 PUSH2 0x27BB DUP5 DUP3 DUP6 ADD PUSH2 0x2782 JUMP JUMPDEST SWAP2 POP POP SWAP3 SWAP2 POP POP JUMP JUMPDEST PUSH1 0x0 DUP1 PUSH1 0x40 DUP4 DUP6 SUB SLT ISZERO PUSH2 0x27DB JUMPI PUSH2 0x27DA PUSH2 0x26DB JUMP JUMPDEST JUMPDEST PUSH1 0x0 PUSH2 0x27E9 DUP6 DUP3 DUP7 ADD PUSH2 0x26F7 JUMP JUMPDEST SWAP3 POP POP PUSH1 0x20 PUSH2 0x27FA DUP6 DUP3 DUP7 ADD PUSH2 0x26F7 JUMP JUMPDEST SWAP2 POP POP SWAP3 POP SWAP3 SWAP1 POP JUMP JUMPDEST PUSH2 0x280D DUP2 PUSH2 0x2759 JUMP JUMPDEST DUP3 MSTORE POP POP JUMP JUMPDEST PUSH1 0x0 PUSH1 0x20 DUP3 ADD SWAP1 POP PUSH2 0x2828 PUSH1 0x0 DUP4 ADD DUP5 PUSH2 0x2804 JUMP JUMPDEST SWAP3 SWAP2 POP POP JUMP JUMPDEST PUSH1 0x0 DUP2 SWAP1 POP SWAP2 SWAP1 POP JUMP JUMPDEST PUSH1 0x0 PUSH2 0x2853 PUSH2 0x284E PUSH2 0x2849 DUP5 PUSH2 0x2739 JUMP JUMPDEST PUSH2 0x282E JUMP JUMPDEST PUSH2 0x2739 JUMP JUMPDEST SWAP1 POP SWAP2 SWAP1 POP JUMP JUMPDEST PUSH1 0x0 PUSH2 0x2865 DUP3 PUSH2 0x2838 JUMP JUMPDEST SWAP1 POP SWAP2 SWAP1 POP JUMP JUMPDEST PUSH1 0x0 PUSH2 0x2877 DUP3 PUSH2 0x285A JUMP JUMPDEST SWAP1 POP SWAP2 SWAP1 POP JUMP JUMPDEST PUSH2 0x2887 DUP2 PUSH2 0x286C JUMP JUMPDEST DUP3 MSTORE POP POP JUMP JUMPDEST PUSH1 0x0 PUSH1 0x20 DUP3 ADD SWAP1 POP PUSH2 0x28A2 PUSH1 0x0 DUP4 ADD DUP5 PUSH2 0x287E JUMP JUMPDEST SWAP3 SWAP2 POP POP JUMP JUMPDEST PUSH1 0x0 DUP3 DUP3 MSTORE PUSH1 0x20 DUP3 ADD SWAP1 POP SWAP3 SWAP2 POP POP JUMP JUMPDEST PUSH32 0x4F776E61626C653A2063616C6C6572206973206E6F7420746865206F776E6572 PUSH1 0x0 DUP3 ADD MSTORE POP JUMP JUMPDEST PUSH1 0x0 PUSH2 0x28EF PUSH1 0x20 DUP4 PUSH2 0x28A8 JUMP JUMPDEST SWAP2 POP PUSH2 0x28FA DUP3 PUSH2 0x28B9 JUMP JUMPDEST PUSH1 0x20 DUP3 ADD SWAP1 POP SWAP2 SWAP1 POP JUMP JUMPDEST PUSH1 0x0 PUSH1 0x20 DUP3 ADD SWAP1 POP DUP2 DUP2 SUB PUSH1 0x0 DUP4 ADD MSTORE PUSH2 0x291E DUP2 PUSH2 0x28E2 JUMP JUMPDEST SWAP1 POP SWAP2 SWAP1 POP JUMP JUMPDEST PUSH32 0x43616E2774206265207A65726F00000000000000000000000000000000000000 PUSH1 0x0 DUP3 ADD MSTORE POP JUMP JUMPDEST PUSH1 0x0 PUSH2 0x295B PUSH1 0xD DUP4 PUSH2 0x28A8 JUMP JUMPDEST SWAP2 POP PUSH2 0x2966 DUP3 PUSH2 0x2925 JUMP JUMPDEST PUSH1 0x20 DUP3 ADD SWAP1 POP SWAP2 SWAP1 POP JUMP JUMPDEST PUSH1 0x0 PUSH1 0x20 DUP3 ADD SWAP1 POP DUP2 DUP2 SUB PUSH1 0x0 DUP4 ADD MSTORE PUSH2 0x298A DUP2 PUSH2 0x294E JUMP JUMPDEST SWAP1 POP SWAP2 SWAP1 POP JUMP JUMPDEST PUSH32 0x416D6F756E742073686F756C642062652067726561746572207468616E203000 PUSH1 0x0 DUP3 ADD MSTORE POP JUMP JUMPDEST PUSH1 0x0 PUSH2 0x29C7 PUSH1 0x1F DUP4 PUSH2 0x28A8 JUMP JUMPDEST SWAP2 POP PUSH2 0x29D2 DUP3 PUSH2 0x2991 JUMP JUMPDEST PUSH1 0x20 DUP3 ADD SWAP1 POP SWAP2 SWAP1 POP JUMP JUMPDEST PUSH1 0x0 PUSH1 0x20 DUP3 ADD SWAP1 POP DUP2 DUP2 SUB PUSH1 0x0 DUP4 ADD MSTORE PUSH2 0x29F6 DUP2 PUSH2 0x29BA JUMP JUMPDEST SWAP1 POP SWAP2 SWAP1 POP JUMP JUMPDEST PUSH32 0x496E76616C696420616D6F756E74000000000000000000000000000000000000 PUSH1 0x0 DUP3 ADD MSTORE POP JUMP JUMPDEST PUSH1 0x0 PUSH2 0x2A33 PUSH1 0xE DUP4 PUSH2 0x28A8 JUMP JUMPDEST SWAP2 POP PUSH2 0x2A3E DUP3 PUSH2 0x29FD JUMP JUMPDEST PUSH1 0x20 DUP3 ADD SWAP1 POP SWAP2 SWAP1 POP JUMP JUMPDEST PUSH1 0x0 PUSH1 0x20 DUP3 ADD SWAP1 POP DUP2 DUP2 SUB PUSH1 0x0 DUP4 ADD MSTORE PUSH2 0x2A62 DUP2 PUSH2 0x2A26 JUMP JUMPDEST SWAP1 POP SWAP2 SWAP1 POP JUMP JUMPDEST PUSH32 0x4E487B7100000000000000000000000000000000000000000000000000000000 PUSH1 0x0 MSTORE PUSH1 0x12 PUSH1 0x4 MSTORE PUSH1 0x24 PUSH1 0x0 REVERT JUMPDEST PUSH1 0x0 PUSH2 0x2AA3 DUP3 PUSH2 0x26A7 JUMP JUMPDEST SWAP2 POP PUSH2 0x2AAE DUP4 PUSH2 0x26A7 JUMP JUMPDEST SWAP3 POP DUP3 PUSH2 0x2ABE JUMPI PUSH2 0x2ABD PUSH2 0x2A69 JUMP JUMPDEST JUMPDEST DUP3 DUP3 MOD SWAP1 POP SWAP3 SWAP2 POP POP JUMP JUMPDEST PUSH1 0x0 PUSH1 0x40 DUP3 ADD SWAP1 POP PUSH2 0x2ADE PUSH1 0x0 DUP4 ADD DUP6 PUSH2 0x2804 JUMP JUMPDEST PUSH2 0x2AEB PUSH1 0x20 DUP4 ADD DUP5 PUSH2 0x26B1 JUMP JUMPDEST SWAP4 SWAP3 POP POP POP JUMP JUMPDEST PUSH32 0x4E6F7468696E6720746F20636C61696D00000000000000000000000000000000 PUSH1 0x0 DUP3 ADD MSTORE POP JUMP JUMPDEST PUSH1 0x0 PUSH2 0x2B28 PUSH1 0x10 DUP4 PUSH2 0x28A8 JUMP JUMPDEST SWAP2 POP PUSH2 0x2B33 DUP3 PUSH2 0x2AF2 JUMP JUMPDEST PUSH1 0x20 DUP3 ADD SWAP1 POP SWAP2 SWAP1 POP JUMP JUMPDEST PUSH1 0x0 PUSH1 0x20 DUP3 ADD SWAP1 POP DUP2 DUP2 SUB PUSH1 0x0 DUP4 ADD MSTORE PUSH2 0x2B57 DUP2 PUSH2 0x2B1B JUMP JUMPDEST SWAP1 POP SWAP2 SWAP1 POP JUMP JUMPDEST PUSH1 0x0 DUP2 MLOAD SWAP1 POP PUSH2 0x2B6D DUP2 PUSH2 0x26E0 JUMP JUMPDEST SWAP3 SWAP2 POP POP JUMP JUMPDEST PUSH1 0x0 PUSH1 0x20 DUP3 DUP5 SUB SLT ISZERO PUSH2 0x2B89 JUMPI PUSH2 0x2B88 PUSH2 0x26DB JUMP JUMPDEST JUMPDEST PUSH1 0x0 PUSH2 0x2B97 DUP5 DUP3 DUP6 ADD PUSH2 0x2B5E JUMP JUMPDEST SWAP2 POP POP SWAP3 SWAP2 POP POP JUMP JUMPDEST PUSH32 0x496E73756666696369656E742100000000000000000000000000000000000000 PUSH1 0x0 DUP3 ADD MSTORE POP JUMP JUMPDEST PUSH1 0x0 PUSH2 0x2BD6 PUSH1 0xD DUP4 PUSH2 0x28A8 JUMP JUMPDEST SWAP2 POP PUSH2 0x2BE1 DUP3 PUSH2 0x2BA0 JUMP JUMPDEST PUSH1 0x20 DUP3 ADD SWAP1 POP SWAP2 SWAP1 POP JUMP JUMPDEST PUSH1 0x0 PUSH1 0x20 DUP3 ADD SWAP1 POP DUP2 DUP2 SUB PUSH1 0x0 DUP4 ADD MSTORE PUSH2 0x2C05 DUP2 PUSH2 0x2BC9 JUMP JUMPDEST SWAP1 POP SWAP2 SWAP1 POP JUMP JUMPDEST PUSH32 0x416C726561647920737461727465640000000000000000000000000000000000 PUSH1 0x0 DUP3 ADD MSTORE POP JUMP JUMPDEST PUSH1 0x0 PUSH2 0x2C42 PUSH1 0xF DUP4 PUSH2 0x28A8 JUMP JUMPDEST SWAP2 POP PUSH2 0x2C4D DUP3 PUSH2 0x2C0C JUMP JUMPDEST PUSH1 0x20 DUP3 ADD SWAP1 POP SWAP2 SWAP1 POP JUMP JUMPDEST PUSH1 0x0 PUSH1 0x20 DUP3 ADD SWAP1 POP DUP2 DUP2 SUB PUSH1 0x0 DUP4 ADD MSTORE PUSH2 0x2C71 DUP2 PUSH2 0x2C35 JUMP JUMPDEST SWAP1 POP SWAP2 SWAP1 POP JUMP JUMPDEST PUSH32 0x496E73756666696369656E740000000000000000000000000000000000000000 PUSH1 0x0 DUP3 ADD MSTORE POP JUMP JUMPDEST PUSH1 0x0 PUSH2 0x2CAE PUSH1 0xC DUP4 PUSH2 0x28A8 JUMP JUMPDEST SWAP2 POP PUSH2 0x2CB9 DUP3 PUSH2 0x2C78 JUMP JUMPDEST PUSH1 0x20 DUP3 ADD SWAP1 POP SWAP2 SWAP1 POP JUMP JUMPDEST PUSH1 0x0 PUSH1 0x20 DUP3 ADD SWAP1 POP DUP2 DUP2 SUB PUSH1 0x0 DUP4 ADD MSTORE PUSH2 0x2CDD DUP2 PUSH2 0x2CA1 JUMP JUMPDEST SWAP1 POP SWAP2 SWAP1 POP JUMP JUMPDEST PUSH32 0x496E76616C6964204D6F64650000000000000000000000000000000000000000 PUSH1 0x0 DUP3 ADD MSTORE POP JUMP JUMPDEST PUSH1 0x0 PUSH2 0x2D1A PUSH1 0xC DUP4 PUSH2 0x28A8 JUMP JUMPDEST SWAP2 POP PUSH2 0x2D25 DUP3 PUSH2 0x2CE4 JUMP JUMPDEST PUSH1 0x20 DUP3 ADD SWAP1 POP SWAP2 SWAP1 POP JUMP JUMPDEST PUSH1 0x0 PUSH1 0x20 DUP3 ADD SWAP1 POP DUP2 DUP2 SUB PUSH1 0x0 DUP4 ADD MSTORE PUSH2 0x2D49 DUP2 PUSH2 0x2D0D JUMP JUMPDEST SWAP1 POP SWAP2 SWAP1 POP JUMP JUMPDEST PUSH32 0x496E76616C6964204C6F636B7570204475726174696F6E000000000000000000 PUSH1 0x0 DUP3 ADD MSTORE POP JUMP JUMPDEST PUSH1 0x0 PUSH2 0x2D86 PUSH1 0x17 DUP4 PUSH2 0x28A8 JUMP JUMPDEST SWAP2 POP PUSH2 0x2D91 DUP3 PUSH2 0x2D50 JUMP JUMPDEST PUSH1 0x20 DUP3 ADD SWAP1 POP SWAP2 SWAP1 POP JUMP JUMPDEST PUSH1 0x0 PUSH1 0x20 DUP3 ADD SWAP1 POP DUP2 DUP2 SUB PUSH1 0x0 DUP4 ADD MSTORE PUSH2 0x2DB5 DUP2 PUSH2 0x2D79 JUMP JUMPDEST SWAP1 POP SWAP2 SWAP1 POP JUMP JUMPDEST PUSH32 0x496E76616C696420556E7374616B696E67204665652052617465000000000000 PUSH1 0x0 DUP3 ADD MSTORE POP JUMP JUMPDEST PUSH1 0x0 PUSH2 0x2DF2 PUSH1 0x1A DUP4 PUSH2 0x28A8 JUMP JUMPDEST SWAP2 POP PUSH2 0x2DFD DUP3 PUSH2 0x2DBC JUMP JUMPDEST PUSH1 0x20 DUP3 ADD SWAP1 POP SWAP2 SWAP1 POP JUMP JUMPDEST PUSH1 0x0 PUSH1 0x20 DUP3 ADD SWAP1 POP DUP2 DUP2 SUB PUSH1 0x0 DUP4 ADD MSTORE PUSH2 0x2E21 DUP2 PUSH2 0x2DE5 JUMP JUMPDEST SWAP1 POP SWAP2 SWAP1 POP JUMP JUMPDEST PUSH32 0x496E76616C69642076616C756500000000000000000000000000000000000000 PUSH1 0x0 DUP3 ADD MSTORE POP JUMP JUMPDEST PUSH1 0x0 PUSH2 0x2E5E PUSH1 0xD DUP4 PUSH2 0x28A8 JUMP JUMPDEST SWAP2 POP PUSH2 0x2E69 DUP3 PUSH2 0x2E28 JUMP JUMPDEST PUSH1 0x20 DUP3 ADD SWAP1 POP SWAP2 SWAP1 POP JUMP JUMPDEST PUSH1 0x0 PUSH1 0x20 DUP3 ADD SWAP1 POP DUP2 DUP2 SUB PUSH1 0x0 DUP4 ADD MSTORE PUSH2 0x2E8D DUP2 PUSH2 0x2E51 JUMP JUMPDEST SWAP1 POP SWAP2 SWAP1 POP JUMP JUMPDEST PUSH32 0x4572726F723A20696E76616C6964207374616B65720000000000000000000000 PUSH1 0x0 DUP3 ADD MSTORE POP JUMP JUMPDEST PUSH1 0x0 PUSH2 0x2ECA PUSH1 0x15 DUP4 PUSH2 0x28A8 JUMP JUMPDEST SWAP2 POP PUSH2 0x2ED5 DUP3 PUSH2 0x2E94 JUMP JUMPDEST PUSH1 0x20 DUP3 ADD SWAP1 POP SWAP2 SWAP1 POP JUMP JUMPDEST PUSH1 0x0 PUSH1 0x20 DUP3 ADD SWAP1 POP DUP2 DUP2 SUB PUSH1 0x0 DUP4 ADD MSTORE PUSH2 0x2EF9 DUP2 PUSH2 0x2EBD JUMP JUMPDEST SWAP1 POP SWAP2 SWAP1 POP JUMP JUMPDEST PUSH32 0x4F776E61626C653A206E6577206F776E657220697320746865207A65726F2061 PUSH1 0x0 DUP3 ADD MSTORE PUSH32 0x6464726573730000000000000000000000000000000000000000000000000000 PUSH1 0x20 DUP3 ADD MSTORE POP JUMP JUMPDEST PUSH1 0x0 PUSH2 0x2F5C PUSH1 0x26 DUP4 PUSH2 0x28A8 JUMP JUMPDEST SWAP2 POP PUSH2 0x2F67 DUP3 PUSH2 0x2F00 JUMP JUMPDEST PUSH1 0x40 DUP3 ADD SWAP1 POP SWAP2 SWAP1 POP JUMP JUMPDEST PUSH1 0x0 PUSH1 0x20 DUP3 ADD SWAP1 POP DUP2 DUP2 SUB PUSH1 0x0 DUP4 ADD MSTORE PUSH2 0x2F8B DUP2 PUSH2 0x2F4F JUMP JUMPDEST SWAP1 POP SWAP2 SWAP1 POP JUMP JUMPDEST PUSH32 0x4E487B7100000000000000000000000000000000000000000000000000000000 PUSH1 0x0 MSTORE PUSH1 0x11 PUSH1 0x4 MSTORE PUSH1 0x24 PUSH1 0x0 REVERT JUMPDEST PUSH1 0x0 PUSH2 0x2FCC DUP3 PUSH2 0x26A7 JUMP JUMPDEST SWAP2 POP PUSH2 0x2FD7 DUP4 PUSH2 0x26A7 JUMP JUMPDEST SWAP3 POP DUP3 DUP3 LT ISZERO PUSH2 0x2FEA JUMPI PUSH2 0x2FE9 PUSH2 0x2F92 JUMP JUMPDEST JUMPDEST DUP3 DUP3 SUB SWAP1 POP SWAP3 SWAP2 POP POP JUMP JUMPDEST PUSH1 0x0 PUSH2 0x3000 DUP3 PUSH2 0x26A7 JUMP JUMPDEST SWAP2 POP PUSH2 0x300B DUP4 PUSH2 0x26A7 JUMP JUMPDEST SWAP3 POP DUP3 PUSH2 0x301B JUMPI PUSH2 0x301A PUSH2 0x2A69 JUMP JUMPDEST JUMPDEST DUP3 DUP3 DIV SWAP1 POP SWAP3 SWAP2 POP POP JUMP JUMPDEST PUSH1 0x0 PUSH2 0x3031 DUP3 PUSH2 0x26A7 JUMP JUMPDEST SWAP2 POP PUSH2 0x303C DUP4 PUSH2 0x26A7 JUMP JUMPDEST SWAP3 POP DUP3 PUSH32 0xFFFFFFFFFFFFFFFFFFFFFFFFFFFFFFFFFFFFFFFFFFFFFFFFFFFFFFFFFFFFFFFF SUB DUP3 GT ISZERO PUSH2 0x3071 JUMPI PUSH2 0x3070 PUSH2 0x2F92 JUMP JUMPDEST JUMPDEST DUP3 DUP3 ADD SWAP1 POP SWAP3 SWAP2 POP POP JUMP JUMPDEST PUSH1 0x0 PUSH2 0x3087 DUP3 PUSH2 0x26A7 JUMP JUMPDEST SWAP2 POP PUSH2 0x3092 DUP4 PUSH2 0x26A7 JUMP JUMPDEST SWAP3 POP DUP2 PUSH32 0xFFFFFFFFFFFFFFFFFFFFFFFFFFFFFFFFFFFFFFFFFFFFFFFFFFFFFFFFFFFFFFFF DIV DUP4 GT DUP3 ISZERO ISZERO AND ISZERO PUSH2 0x30CB JUMPI PUSH2 0x30CA PUSH2 0x2F92 JUMP JUMPDEST JUMPDEST DUP3 DUP3 MUL SWAP1 POP SWAP3 SWAP2 POP POP JUMP JUMPDEST PUSH1 0x0 PUSH1 0x60 DUP3 ADD SWAP1 POP PUSH2 0x30EB PUSH1 0x0 DUP4 ADD DUP7 PUSH2 0x2804 JUMP JUMPDEST PUSH2 0x30F8 PUSH1 0x20 DUP4 ADD DUP6 PUSH2 0x2804 JUMP JUMPDEST PUSH2 0x3105 PUSH1 0x40 DUP4 ADD DUP5 PUSH2 0x26B1 JUMP JUMPDEST SWAP5 SWAP4 POP POP POP POP JUMP JUMPDEST PUSH1 0x0 DUP2 ISZERO ISZERO SWAP1 POP SWAP2 SWAP1 POP JUMP JUMPDEST PUSH2 0x3122 DUP2 PUSH2 0x310D JUMP JUMPDEST DUP2 EQ PUSH2 0x312D JUMPI PUSH1 0x0 DUP1 REVERT JUMPDEST POP JUMP JUMPDEST PUSH1 0x0 DUP2 MLOAD SWAP1 POP PUSH2 0x313F DUP2 PUSH2 0x3119 JUMP JUMPDEST SWAP3 SWAP2 POP POP JUMP JUMPDEST PUSH1 0x0 PUSH1 0x20 DUP3 DUP5 SUB SLT ISZERO PUSH2 0x315B JUMPI PUSH2 0x315A PUSH2 0x26DB JUMP JUMPDEST JUMPDEST PUSH1 0x0 PUSH2 0x3169 DUP5 DUP3 DUP6 ADD PUSH2 0x3130 JUMP JUMPDEST SWAP2 POP POP SWAP3 SWAP2 POP POP JUMP JUMPDEST PUSH32 0x5361666542455032303A204245503230206F7065726174696F6E20646964206E PUSH1 0x0 DUP3 ADD MSTORE PUSH32 0x6F74207375636365656400000000000000000000000000000000000000000000 PUSH1 0x20 DUP3 ADD MSTORE POP JUMP JUMPDEST PUSH1 0x0 PUSH2 0x31CE PUSH1 0x2A DUP4 PUSH2 0x28A8 JUMP JUMPDEST SWAP2 POP PUSH2 0x31D9 DUP3 PUSH2 0x3172 JUMP JUMPDEST PUSH1 0x40 DUP3 ADD SWAP1 POP SWAP2 SWAP1 POP JUMP JUMPDEST PUSH1 0x0 PUSH1 0x20 DUP3 ADD SWAP1 POP DUP2 DUP2 SUB PUSH1 0x0 DUP4 ADD MSTORE PUSH2 0x31FD DUP2 PUSH2 0x31C1 JUMP JUMPDEST SWAP1 POP SWAP2 SWAP1 POP JUMP JUMPDEST PUSH32 0x416464726573733A20696E73756666696369656E742062616C616E636520666F PUSH1 0x0 DUP3 ADD MSTORE PUSH32 0x722063616C6C0000000000000000000000000000000000000000000000000000 PUSH1 0x20 DUP3 ADD MSTORE POP JUMP JUMPDEST PUSH1 0x0 PUSH2 0x3260 PUSH1 0x26 DUP4 PUSH2 0x28A8 JUMP JUMPDEST SWAP2 POP PUSH2 0x326B DUP3 PUSH2 0x3204 JUMP JUMPDEST PUSH1 0x40 DUP3 ADD SWAP1 POP SWAP2 SWAP1 POP JUMP JUMPDEST PUSH1 0x0 PUSH1 0x20 DUP3 ADD SWAP1 POP DUP2 DUP2 SUB PUSH1 0x0 DUP4 ADD MSTORE PUSH2 0x328F DUP2 PUSH2 0x3253 JUMP JUMPDEST SWAP1 POP SWAP2 SWAP1 POP JUMP JUMPDEST PUSH32 0x416464726573733A2063616C6C20746F206E6F6E2D636F6E7472616374000000 PUSH1 0x0 DUP3 ADD MSTORE POP JUMP JUMPDEST PUSH1 0x0 PUSH2 0x32CC PUSH1 0x1D DUP4 PUSH2 0x28A8 JUMP JUMPDEST SWAP2 POP PUSH2 0x32D7 DUP3 PUSH2 0x3296 JUMP JUMPDEST PUSH1 0x20 DUP3 ADD SWAP1 POP SWAP2 SWAP1 POP JUMP JUMPDEST PUSH1 0x0 PUSH1 0x20 DUP3 ADD SWAP1 POP DUP2 DUP2 SUB PUSH1 0x0 DUP4 ADD MSTORE PUSH2 0x32FB DUP2 PUSH2 0x32BF JUMP JUMPDEST SWAP1 POP SWAP2 SWAP1 POP JUMP JUMPDEST PUSH1 0x0 DUP2 MLOAD SWAP1 POP SWAP2 SWAP1 POP JUMP JUMPDEST PUSH1 0x0 DUP2 SWAP1 POP SWAP3 SWAP2 POP POP JUMP JUMPDEST PUSH1 0x0 JUMPDEST DUP4 DUP2 LT ISZERO PUSH2 0x3336 JUMPI DUP1 DUP3 ADD MLOAD DUP2 DUP5 ADD MSTORE PUSH1 0x20 DUP2 ADD SWAP1 POP PUSH2 0x331B JUMP JUMPDEST DUP4 DUP2 GT ISZERO PUSH2 0x3345 JUMPI PUSH1 0x0 DUP5 DUP5 ADD MSTORE JUMPDEST POP POP POP POP JUMP JUMPDEST PUSH1 0x0 PUSH2 0x3356 DUP3 PUSH2 0x3302 JUMP JUMPDEST PUSH2 0x3360 DUP2 DUP6 PUSH2 0x330D JUMP JUMPDEST SWAP4 POP PUSH2 0x3370 DUP2 DUP6 PUSH1 0x20 DUP7 ADD PUSH2 0x3318 JUMP JUMPDEST DUP1 DUP5 ADD SWAP2 POP POP SWAP3 SWAP2 POP POP JUMP JUMPDEST PUSH1 0x0 PUSH2 0x3388 DUP3 DUP5 PUSH2 0x334B JUMP JUMPDEST SWAP2 POP DUP2 SWAP1 POP SWAP3 SWAP2 POP POP JUMP JUMPDEST PUSH1 0x0 DUP2 MLOAD SWAP1 POP SWAP2 SWAP1 POP JUMP JUMPDEST PUSH1 0x0 PUSH1 0x1F NOT PUSH1 0x1F DUP4 ADD AND SWAP1 POP SWAP2 SWAP1 POP JUMP JUMPDEST PUSH1 0x0 PUSH2 0x33BA DUP3 PUSH2 0x3393 JUMP JUMPDEST PUSH2 0x33C4 DUP2 DUP6 PUSH2 0x28A8 JUMP JUMPDEST SWAP4 POP PUSH2 0x33D4 DUP2 DUP6 PUSH1 0x20 DUP7 ADD PUSH2 0x3318 JUMP JUMPDEST PUSH2 0x33DD DUP2 PUSH2 0x339E JUMP JUMPDEST DUP5 ADD SWAP2 POP POP SWAP3 SWAP2 POP POP JUMP JUMPDEST PUSH1 0x0 PUSH1 0x20 DUP3 ADD SWAP1 POP DUP2 DUP2 SUB PUSH1 0x0 DUP4 ADD MSTORE PUSH2 0x3402 DUP2 DUP5 PUSH2 0x33AF JUMP JUMPDEST SWAP1 POP SWAP3 SWAP2 POP POP JUMP INVALID LOG2 PUSH5 0x6970667358 0x22 SLT KECCAK256 0xCD 0xEA SWAP12 RETURNDATACOPY CALL 0xC6 EXP SIGNEXTEND MULMOD SLOAD CODECOPY 0xF6 0x24 0xD2 0xAA SAR PUSH5 0xD8FA8E48A7 MUL 0xD9 SGT GASPRICE SHL 0xDD 0xC9 GASPRICE JUMPDEST 0xDD PUSH5 0x736F6C6343 STOP ADDMOD MULMOD STOP CALLER "
				},
				"gasEstimates": {
					"creation": {
						"codeDepositCost": "2675200",
						"executionCost": "infinite",
						"totalCost": "infinite"
					},
					"external": {
						"getMinimumStakingAmount(uint256)": "infinite",
						"getNumberofStakers()": "2513",
						"getRewardRate()": "2548",
						"getStakerMode(address)": "2932",
						"getTotalStaked()": "2461",
						"harvest()": "infinite",
						"isLocked(address)": "infinite",
						"isStartStaking(address)": "2957",
						"owner()": "2590",
						"renounceOwnership()": "30463",
						"rewardAmount(address)": "2892",
						"rewardToHarvest()": "infinite",
						"setCopperMinAmount(uint256)": "24850",
						"setEventPeriod(uint256)": "infinite",
						"setGoldMinAmount(uint256)": "24894",
						"setLockupTime(uint256)": "24917",
						"setRewardRate(uint256)": "infinite",
						"setSilverMinAmount(uint256)": "24829",
						"setThreeMonthMinAmount(uint256)": "24872",
						"setUnstakingFeeRate(uint256)": "infinite",
						"stake(uint256)": "infinite",
						"stakedAmount(address)": "2913",
						"startStaking(uint256,uint256)": "infinite",
						"token()": "infinite",
						"totalStaked()": "2475",
						"transferOwnership(address)": "30767",
						"withdraw(uint256)": "infinite"
					},
					"internal": {
						"Init()": "infinite",
						"calDaysFromTimestamp(uint256)": "infinite",
						"updateReward()": "infinite"
					}
				},
				"methodIdentifiers": {
					"getMinimumStakingAmount(uint256)": "909f093e",
					"getNumberofStakers()": "5715ec11",
					"getRewardRate()": "7e1a3786",
					"getStakerMode(address)": "aedf562b",
					"getTotalStaked()": "0917e776",
					"harvest()": "4641257d",
					"isLocked(address)": "4a4fbeec",
					"isStartStaking(address)": "fe600f84",
					"owner()": "8da5cb5b",
					"renounceOwnership()": "715018a6",
					"rewardAmount(address)": "645a8a56",
					"rewardToHarvest()": "5d2ec65d",
					"setCopperMinAmount(uint256)": "c1704a14",
					"setEventPeriod(uint256)": "692642e7",
					"setGoldMinAmount(uint256)": "ae544943",
					"setLockupTime(uint256)": "4b62b70b",
					"setRewardRate(uint256)": "9e447fc6",
					"setSilverMinAmount(uint256)": "23b61117",
					"setThreeMonthMinAmount(uint256)": "c665d80e",
					"setUnstakingFeeRate(uint256)": "91e07e7a",
					"stake(uint256)": "a694fc3a",
					"stakedAmount(address)": "f9931855",
					"startStaking(uint256,uint256)": "4b77dd9e",
					"token()": "fc0c546a",
					"totalStaked()": "817b1cd2",
					"transferOwnership(address)": "f2fde38b",
					"withdraw(uint256)": "2e1a7d4d"
				}
			},
			"storageLayout": {
				"storage": [
					{
						"astId": 7,
						"contract": "contracts/Staking.sol:StakingPlatform",
						"label": "_owner",
						"offset": 0,
						"slot": "0",
						"type": "t_address"
					},
					{
						"astId": 1160,
						"contract": "contracts/Staking.sol:StakingPlatform",
						"label": "_unstakingFeeRate",
						"offset": 0,
						"slot": "1",
						"type": "t_uint256"
					},
					{
						"astId": 1162,
						"contract": "contracts/Staking.sol:StakingPlatform",
						"label": "_eventPeriod",
						"offset": 0,
						"slot": "2",
						"type": "t_uint256"
					},
					{
						"astId": 1164,
						"contract": "contracts/Staking.sol:StakingPlatform",
						"label": "_rewardRate",
						"offset": 0,
						"slot": "3",
						"type": "t_uint256"
					},
					{
						"astId": 1166,
						"contract": "contracts/Staking.sol:StakingPlatform",
						"label": "_rewardFeeRate",
						"offset": 0,
						"slot": "4",
						"type": "t_uint256"
					},
					{
						"astId": 1168,
						"contract": "contracts/Staking.sol:StakingPlatform",
						"label": "_lockupPeriod",
						"offset": 0,
						"slot": "5",
						"type": "t_uint256"
					},
					{
						"astId": 1170,
						"contract": "contracts/Staking.sol:StakingPlatform",
						"label": "_minStakeAmount_m",
						"offset": 0,
						"slot": "6",
						"type": "t_uint256"
					},
					{
						"astId": 1172,
						"contract": "contracts/Staking.sol:StakingPlatform",
						"label": "_minStakeAmount_g",
						"offset": 0,
						"slot": "7",
						"type": "t_uint256"
					},
					{
						"astId": 1174,
						"contract": "contracts/Staking.sol:StakingPlatform",
						"label": "_minStakeAmount_s",
						"offset": 0,
						"slot": "8",
						"type": "t_uint256"
					},
					{
						"astId": 1176,
						"contract": "contracts/Staking.sol:StakingPlatform",
						"label": "_minStakeAmount_c",
						"offset": 0,
						"slot": "9",
						"type": "t_uint256"
					},
					{
						"astId": 1179,
						"contract": "contracts/Staking.sol:StakingPlatform",
						"label": "_stakers",
						"offset": 0,
						"slot": "10",
						"type": "t_array(t_address)dyn_storage"
					},
					{
						"astId": 1184,
						"contract": "contracts/Staking.sol:StakingPlatform",
						"label": "_staker",
						"offset": 0,
						"slot": "11",
						"type": "t_mapping(t_address,t_struct(Staker)1158_storage)"
					},
					{
						"astId": 1186,
						"contract": "contracts/Staking.sol:StakingPlatform",
						"label": "totalStaked",
						"offset": 0,
						"slot": "12",
						"type": "t_uint256"
					},
					{
						"astId": 1189,
						"contract": "contracts/Staking.sol:StakingPlatform",
						"label": "token",
						"offset": 0,
						"slot": "13",
						"type": "t_contract(IBEP20)912"
					}
				],
				"types": {
					"t_address": {
						"encoding": "inplace",
						"label": "address",
						"numberOfBytes": "20"
					},
					"t_array(t_address)dyn_storage": {
						"base": "t_address",
						"encoding": "dynamic_array",
						"label": "address[]",
						"numberOfBytes": "32"
					},
					"t_contract(IBEP20)912": {
						"encoding": "inplace",
						"label": "contract IBEP20",
						"numberOfBytes": "20"
					},
					"t_mapping(t_address,t_struct(Staker)1158_storage)": {
						"encoding": "mapping",
						"key": "t_address",
						"label": "mapping(address => struct StakingPlatform.Staker)",
						"numberOfBytes": "32",
						"value": "t_struct(Staker)1158_storage"
					},
					"t_struct(Staker)1158_storage": {
						"encoding": "inplace",
						"label": "struct StakingPlatform.Staker",
						"members": [
							{
								"astId": 1147,
								"contract": "contracts/Staking.sol:StakingPlatform",
								"label": "stakerCurrentReward",
								"offset": 0,
								"slot": "0",
								"type": "t_uint256"
							},
							{
								"astId": 1149,
								"contract": "contracts/Staking.sol:StakingPlatform",
								"label": "stakedAmount",
								"offset": 0,
								"slot": "1",
								"type": "t_uint256"
							},
							{
								"astId": 1151,
								"contract": "contracts/Staking.sol:StakingPlatform",
								"label": "mode",
								"offset": 0,
								"slot": "2",
								"type": "t_uint256"
							},
							{
								"astId": 1153,
								"contract": "contracts/Staking.sol:StakingPlatform",
								"label": "stakeStartTime",
								"offset": 0,
								"slot": "3",
								"type": "t_uint256"
							},
							{
								"astId": 1155,
								"contract": "contracts/Staking.sol:StakingPlatform",
								"label": "lastUpdatedBlockNumber",
								"offset": 0,
								"slot": "4",
								"type": "t_uint256"
							},
							{
								"astId": 1157,
								"contract": "contracts/Staking.sol:StakingPlatform",
								"label": "staked",
								"offset": 0,
								"slot": "5",
								"type": "t_uint256"
							}
						],
						"numberOfBytes": "192"
					},
					"t_uint256": {
						"encoding": "inplace",
						"label": "uint256",
						"numberOfBytes": "32"
					}
				}
			},
			"userdoc": {
				"kind": "user",
				"methods": {},
				"version": 1
			}
		}
	}
}