{
  "_format": "hh-sol-artifact-1",
  "contractName": "Topbot",
  "sourceName": "contracts/Topbot.sol",
  "abi": [
    {
      "inputs": [
        {
          "internalType": "string",
          "name": "_name",
          "type": "string"
        },
        {
          "internalType": "string",
          "name": "_symbol",
          "type": "string"
        },
        {
          "internalType": "uint256",
          "name": "_initialSupply",
          "type": "uint256"
        }
      ],
      "stateMutability": "nonpayable",
      "type": "constructor"
    },
    {
      "anonymous": false,
      "inputs": [
        {
          "indexed": true,
          "internalType": "address",
          "name": "owner",
          "type": "address"
        },
        {
          "indexed": true,
          "internalType": "address",
          "name": "spender",
          "type": "address"
        },
        {
          "indexed": false,
          "internalType": "uint256",
          "name": "value",
          "type": "uint256"
        }
      ],
      "name": "Approval",
      "type": "event"
    },
    {
      "anonymous": false,
      "inputs": [
        {
          "indexed": true,
          "internalType": "address",
          "name": "from",
          "type": "address"
        },
        {
          "indexed": true,
          "internalType": "address",
          "name": "to",
          "type": "address"
        },
        {
          "indexed": false,
          "internalType": "uint256",
          "name": "value",
          "type": "uint256"
        }
      ],
      "name": "Transfer",
      "type": "event"
    },
    {
      "inputs": [
        {
          "internalType": "address",
          "name": "_owner",
          "type": "address"
        },
        {
          "internalType": "address",
          "name": "spender",
          "type": "address"
        }
      ],
      "name": "allowance",
      "outputs": [
        {
          "internalType": "uint256",
          "name": "",
          "type": "uint256"
        }
      ],
      "stateMutability": "view",
      "type": "function"
    },
    {
      "inputs": [
        {
          "internalType": "address",
          "name": "_spender",
          "type": "address"
        },
        {
          "internalType": "uint256",
          "name": "_amount",
          "type": "uint256"
        }
      ],
      "name": "approve",
      "outputs": [
        {
          "internalType": "bool",
          "name": "",
          "type": "bool"
        }
      ],
      "stateMutability": "nonpayable",
      "type": "function"
    },
    {
      "inputs": [
        {
          "internalType": "address",
          "name": "_owner",
          "type": "address"
        }
      ],
      "name": "balanceOf",
      "outputs": [
        {
          "internalType": "uint256",
          "name": "",
          "type": "uint256"
        }
      ],
      "stateMutability": "view",
      "type": "function"
    },
    {
      "inputs": [],
      "name": "decimals",
      "outputs": [
        {
          "internalType": "uint8",
          "name": "",
          "type": "uint8"
        }
      ],
      "stateMutability": "view",
      "type": "function"
    },
    {
      "inputs": [],
      "name": "getOwner",
      "outputs": [
        {
          "internalType": "address",
          "name": "",
          "type": "address"
        }
      ],
      "stateMutability": "view",
      "type": "function"
    },
    {
      "inputs": [],
      "name": "name",
      "outputs": [
        {
          "internalType": "string",
          "name": "",
          "type": "string"
        }
      ],
      "stateMutability": "view",
      "type": "function"
    },
    {
      "inputs": [],
      "name": "owner",
      "outputs": [
        {
          "internalType": "address",
          "name": "",
          "type": "address"
        }
      ],
      "stateMutability": "view",
      "type": "function"
    },
    {
      "inputs": [],
      "name": "symbol",
      "outputs": [
        {
          "internalType": "string",
          "name": "",
          "type": "string"
        }
      ],
      "stateMutability": "view",
      "type": "function"
    },
    {
      "inputs": [],
      "name": "totalSupply",
      "outputs": [
        {
          "internalType": "uint256",
          "name": "",
          "type": "uint256"
        }
      ],
      "stateMutability": "view",
      "type": "function"
    },
    {
      "inputs": [
        {
          "internalType": "address",
          "name": "_to",
          "type": "address"
        },
        {
          "internalType": "uint256",
          "name": "_amount",
          "type": "uint256"
        }
      ],
      "name": "transfer",
      "outputs": [
        {
          "internalType": "bool",
          "name": "",
          "type": "bool"
        }
      ],
      "stateMutability": "nonpayable",
      "type": "function"
    },
    {
      "inputs": [
        {
          "internalType": "address",
          "name": "_owner",
          "type": "address"
        },
        {
          "internalType": "address",
          "name": "_spender",
          "type": "address"
        },
        {
          "internalType": "uint256",
          "name": "_amount",
          "type": "uint256"
        }
      ],
      "name": "transferFrom",
      "outputs": [
        {
          "internalType": "bool",
          "name": "",
          "type": "bool"
        }
      ],
      "stateMutability": "nonpayable",
      "type": "function"
    },
    {
      "inputs": [
        {
          "internalType": "address",
          "name": "_to",
          "type": "address"
        }
      ],
      "name": "transferOwnership",
      "outputs": [],
      "stateMutability": "nonpayable",
      "type": "function"
    }
  ],
  "bytecode": "0x60806040523480156200001157600080fd5b5060405162001a0338038062001a03833981810160405281019062000037919062000254565b336000806101000a81548173ffffffffffffffffffffffffffffffffffffffff021916908373ffffffffffffffffffffffffffffffffffffffff16021790555082600190805190602001906200008f9291906200011b565b508160029080519060200190620000a89291906200011b565b506012600a620000b9919062000396565b81620000c69190620004d3565b600381905550600354600460003373ffffffffffffffffffffffffffffffffffffffff1673ffffffffffffffffffffffffffffffffffffffff16815260200190815260200160002081905550505050620006b2565b828054620001299062000581565b90600052602060002090601f0160209004810192826200014d576000855562000199565b82601f106200016857805160ff191683800117855562000199565b8280016001018555821562000199579182015b82811115620001985782518255916020019190600101906200017b565b5b509050620001a89190620001ac565b5090565b5b80821115620001c7576000816000905550600101620001ad565b5090565b6000620001e2620001dc8462000305565b620002dc565b905082815260208101848484011115620001fb57600080fd5b620002088482856200054b565b509392505050565b600082601f8301126200022257600080fd5b815162000234848260208601620001cb565b91505092915050565b6000815190506200024e8162000698565b92915050565b6000806000606084860312156200026a57600080fd5b600084015167ffffffffffffffff8111156200028557600080fd5b620002938682870162000210565b935050602084015167ffffffffffffffff811115620002b157600080fd5b620002bf8682870162000210565b9250506040620002d2868287016200023d565b9150509250925092565b6000620002e8620002fb565b9050620002f68282620005b7565b919050565b6000604051905090565b600067ffffffffffffffff8211156200032357620003226200064b565b5b6200032e826200067a565b9050602081019050919050565b6000808291508390505b60018511156200038d57808604811115620003655762000364620005ed565b5b6001851615620003755780820291505b808102905062000385856200068b565b945062000345565b94509492505050565b6000620003a38262000534565b9150620003b0836200053e565b9250620003df7fffffffffffffffffffffffffffffffffffffffffffffffffffffffffffffffff8484620003e7565b905092915050565b600082620003f95760019050620004cc565b81620004095760009050620004cc565b81600181146200042257600281146200042d5762000463565b6001915050620004cc565b60ff841115620004425762000441620005ed565b5b8360020a9150848211156200045c576200045b620005ed565b5b50620004cc565b5060208310610133831016604e8410600b84101617156200049d5782820a905083811115620004975762000496620005ed565b5b620004cc565b620004ac84848460016200033b565b92509050818404811115620004c657620004c5620005ed565b5b81810290505b9392505050565b6000620004e08262000534565b9150620004ed8362000534565b9250817fffffffffffffffffffffffffffffffffffffffffffffffffffffffffffffffff0483118215151615620005295762000528620005ed565b5b828202905092915050565b6000819050919050565b600060ff82169050919050565b60005b838110156200056b5780820151818401526020810190506200054e565b838111156200057b576000848401525b50505050565b600060028204905060018216806200059a57607f821691505b60208210811415620005b157620005b06200061c565b5b50919050565b620005c2826200067a565b810181811067ffffffffffffffff82111715620005e457620005e36200064b565b5b80604052505050565b7f4e487b7100000000000000000000000000000000000000000000000000000000600052601160045260246000fd5b7f4e487b7100000000000000000000000000000000000000000000000000000000600052602260045260246000fd5b7f4e487b7100000000000000000000000000000000000000000000000000000000600052604160045260246000fd5b6000601f19601f8301169050919050565b60008160011c9050919050565b620006a38162000534565b8114620006af57600080fd5b50565b61134180620006c26000396000f3fe608060405234801561001057600080fd5b50600436106100b45760003560e01c8063893d20e811610071578063893d20e8146101a35780638da5cb5b146101c157806395d89b41146101df578063a9059cbb146101fd578063dd62ed3e1461022d578063f2fde38b1461025d576100b4565b806306fdde03146100b9578063095ea7b3146100d757806318160ddd1461010757806323b872dd14610125578063313ce5671461015557806370a0823114610173575b600080fd5b6100c1610279565b6040516100ce9190610f6c565b60405180910390f35b6100f160048036038101906100ec9190610df9565b610307565b6040516100fe9190610f51565b60405180910390f35b61010f6104ea565b60405161011c919061100e565b60405180910390f35b61013f600480360381019061013a9190610daa565b6104f0565b60405161014c9190610f51565b60405180910390f35b61015d610852565b60405161016a9190611029565b60405180910390f35b61018d60048036038101906101889190610d45565b610857565b60405161019a919061100e565b60405180910390f35b6101ab6108a0565b6040516101b89190610f36565b60405180910390f35b6101c96108c9565b6040516101d69190610f36565b60405180910390f35b6101e76108ed565b6040516101f49190610f6c565b60405180910390f35b61021760048036038101906102129190610df9565b61097b565b6040516102249190610f51565b60405180910390f35b61024760048036038101906102429190610d6e565b610b89565b604051610254919061100e565b60405180910390f35b61027760048036038101906102729190610d45565b610c10565b005b6001805461028690611172565b80601f01602080910402602001604051908101604052809291908181526020018280546102b290611172565b80156102ff5780601f106102d4576101008083540402835291602001916102ff565b820191906000526020600020905b8154815290600101906020018083116102e257829003601f168201915b505050505081565b60008073ffffffffffffffffffffffffffffffffffffffff168373ffffffffffffffffffffffffffffffffffffffff161415610378576040517f08c379a000000000000000000000000000000000000000000000000000000000815260040161036f90610fce565b60405180910390fd5b81600460003373ffffffffffffffffffffffffffffffffffffffff1673ffffffffffffffffffffffffffffffffffffffff1681526020019081526020016000205410156103fa576040517f08c379a00000000000000000000000000000000000000000000000000000000081526004016103f190610fae565b60405180910390fd5b81600560003373ffffffffffffffffffffffffffffffffffffffff1673ffffffffffffffffffffffffffffffffffffffff16815260200190815260200160002060008573ffffffffffffffffffffffffffffffffffffffff1673ffffffffffffffffffffffffffffffffffffffff168152602001908152602001600020819055508273ffffffffffffffffffffffffffffffffffffffff163373ffffffffffffffffffffffffffffffffffffffff167f8c5be1e5ebec7d5bd14f71427d1e84f3dd0314c0f7b2291e5b200ac8c7c3b925846040516104d8919061100e565b60405180910390a36001905092915050565b60035481565b60008073ffffffffffffffffffffffffffffffffffffffff168373ffffffffffffffffffffffffffffffffffffffff161415610561576040517f08c379a000000000000000000000000000000000000000000000000000000000815260040161055890610fce565b60405180910390fd5b6000600560008673ffffffffffffffffffffffffffffffffffffffff1673ffffffffffffffffffffffffffffffffffffffff16815260200190815260200160002060008573ffffffffffffffffffffffffffffffffffffffff1673ffffffffffffffffffffffffffffffffffffffff168152602001908152602001600020541015610621576040517f08c379a000000000000000000000000000000000000000000000000000000000815260040161061890610fce565b60405180910390fd5b81600460008673ffffffffffffffffffffffffffffffffffffffff1673ffffffffffffffffffffffffffffffffffffffff1681526020019081526020016000205410156106a3576040517f08c379a000000000000000000000000000000000000000000000000000000000815260040161069a90610f8e565b60405180910390fd5b81600460008673ffffffffffffffffffffffffffffffffffffffff1673ffffffffffffffffffffffffffffffffffffffff16815260200190815260200160002060008282546106f291906110b6565b9250508190555081600460008573ffffffffffffffffffffffffffffffffffffffff1673ffffffffffffffffffffffffffffffffffffffff16815260200190815260200160002060008282546107489190611060565b9250508190555081600560008673ffffffffffffffffffffffffffffffffffffffff1673ffffffffffffffffffffffffffffffffffffffff16815260200190815260200160002060008573ffffffffffffffffffffffffffffffffffffffff1673ffffffffffffffffffffffffffffffffffffffff16815260200190815260200160002060008282546107db91906110b6565b925050819055508273ffffffffffffffffffffffffffffffffffffffff168473ffffffffffffffffffffffffffffffffffffffff167fddf252ad1be2c89b69c2b068fc378daa952ba7f163c4a11628f55a4df523b3ef8460405161083f919061100e565b60405180910390a3600190509392505050565b601281565b6000600460008373ffffffffffffffffffffffffffffffffffffffff1673ffffffffffffffffffffffffffffffffffffffff168152602001908152602001600020549050919050565b60008060009054906101000a900473ffffffffffffffffffffffffffffffffffffffff16905090565b60008054906101000a900473ffffffffffffffffffffffffffffffffffffffff1681565b600280546108fa90611172565b80601f016020809104026020016040519081016040528092919081815260200182805461092690611172565b80156109735780601f1061094857610100808354040283529160200191610973565b820191906000526020600020905b81548152906001019060200180831161095657829003601f168201915b505050505081565b60008073ffffffffffffffffffffffffffffffffffffffff168373ffffffffffffffffffffffffffffffffffffffff1614156109ec576040517f08c379a00000000000000000000000000000000000000000000000000000000081526004016109e390610fce565b60405180910390fd5b81600460003373ffffffffffffffffffffffffffffffffffffffff1673ffffffffffffffffffffffffffffffffffffffff168152602001908152602001600020541015610a6e576040517f08c379a0000000000000000000000000000000000000000000000000000000008152600401610a6590610fee565b60405180910390fd5b81600460003373ffffffffffffffffffffffffffffffffffffffff1673ffffffffffffffffffffffffffffffffffffffff1681526020019081526020016000206000828254610abd91906110b6565b9250508190555081600460008573ffffffffffffffffffffffffffffffffffffffff1673ffffffffffffffffffffffffffffffffffffffff1681526020019081526020016000206000828254610b139190611060565b925050819055508273ffffffffffffffffffffffffffffffffffffffff163373ffffffffffffffffffffffffffffffffffffffff167fddf252ad1be2c89b69c2b068fc378daa952ba7f163c4a11628f55a4df523b3ef84604051610b77919061100e565b60405180910390a36001905092915050565b6000600560008473ffffffffffffffffffffffffffffffffffffffff1673ffffffffffffffffffffffffffffffffffffffff16815260200190815260200160002060008373ffffffffffffffffffffffffffffffffffffffff1673ffffffffffffffffffffffffffffffffffffffff16815260200190815260200160002054905092915050565b60008054906101000a900473ffffffffffffffffffffffffffffffffffffffff1673ffffffffffffffffffffffffffffffffffffffff163373ffffffffffffffffffffffffffffffffffffffff1614610c6857600080fd5b600073ffffffffffffffffffffffffffffffffffffffff168173ffffffffffffffffffffffffffffffffffffffff161415610cd8576040517f08c379a0000000000000000000000000000000000000000000000000000000008152600401610ccf90610fce565b60405180910390fd5b806000806101000a81548173ffffffffffffffffffffffffffffffffffffffff021916908373ffffffffffffffffffffffffffffffffffffffff16021790555050565b600081359050610d2a816112dd565b92915050565b600081359050610d3f816112f4565b92915050565b600060208284031215610d5757600080fd5b6000610d6584828501610d1b565b91505092915050565b60008060408385031215610d8157600080fd5b6000610d8f85828601610d1b565b9250506020610da085828601610d1b565b9150509250929050565b600080600060608486031215610dbf57600080fd5b6000610dcd86828701610d1b565b9350506020610dde86828701610d1b565b9250506040610def86828701610d30565b9150509250925092565b60008060408385031215610e0c57600080fd5b6000610e1a85828601610d1b565b9250506020610e2b85828601610d30565b9150509250929050565b610e3e816110ea565b82525050565b610e4d816110fc565b82525050565b6000610e5e82611044565b610e68818561104f565b9350610e7881856020860161113f565b610e8181611202565b840191505092915050565b6000610e9960208361104f565b9150610ea482611213565b602082019050919050565b6000610ebc600b8361104f565b9150610ec78261123c565b602082019050919050565b6000610edf600c8361104f565b9150610eea82611265565b602082019050919050565b6000610f02602f8361104f565b9150610f0d8261128e565b604082019050919050565b610f2181611128565b82525050565b610f3081611132565b82525050565b6000602082019050610f4b6000830184610e35565b92915050565b6000602082019050610f666000830184610e44565b92915050565b60006020820190508181036000830152610f868184610e53565b905092915050565b60006020820190508181036000830152610fa781610e8c565b9050919050565b60006020820190508181036000830152610fc781610eaf565b9050919050565b60006020820190508181036000830152610fe781610ed2565b9050919050565b6000602082019050818103600083015261100781610ef5565b9050919050565b60006020820190506110236000830184610f18565b92915050565b600060208201905061103e6000830184610f27565b92915050565b600081519050919050565b600082825260208201905092915050565b600061106b82611128565b915061107683611128565b9250827fffffffffffffffffffffffffffffffffffffffffffffffffffffffffffffffff038211156110ab576110aa6111a4565b5b828201905092915050565b60006110c182611128565b91506110cc83611128565b9250828210156110df576110de6111a4565b5b828203905092915050565b60006110f582611108565b9050919050565b60008115159050919050565b600073ffffffffffffffffffffffffffffffffffffffff82169050919050565b6000819050919050565b600060ff82169050919050565b60005b8381101561115d578082015181840152602081019050611142565b8381111561116c576000848401525b50505050565b6000600282049050600182168061118a57607f821691505b6020821081141561119e5761119d6111d3565b5b50919050565b7f4e487b7100000000000000000000000000000000000000000000000000000000600052601160045260246000fd5b7f4e487b7100000000000000000000000000000000000000000000000000000000600052602260045260246000fd5b6000601f19601f8301169050919050565b7f62616c616e6365206973206c6f776572207468616e2074686520616d6f756e74600082015250565b7f6c6f772062616c616e6365000000000000000000000000000000000000000000600082015250565b7f7a65726f20616464726573730000000000000000000000000000000000000000600082015250565b7f72657175697265642062616c616e63652069732067726561746572207468616e60008201527f2073656e64696e6720616d6f756e740000000000000000000000000000000000602082015250565b6112e6816110ea565b81146112f157600080fd5b50565b6112fd81611128565b811461130857600080fd5b5056fea26469706673582212205b88225a9b64e039a5c27595e1e6e59ff185af5574ac63dc23df65c51e2ca2fe64736f6c63430008040033",
  "linkReferences": {},
  "deployedLinkReferences": {}
}