{
  "_format": "hh-sol-artifact-1",
  "contractName": "StakingPlatform",
  "sourceName": "contracts/Staking.sol",
  "abi": [
    {
      "inputs": [
        {
          "internalType": "address",
          "name": "_token",
          "type": "address"
        }
      ],
      "stateMutability": "nonpayable",
      "type": "constructor"
    },
    {
      "anonymous": false,
      "inputs": [
        {
          "indexed": false,
          "internalType": "address",
          "name": "staker",
          "type": "address"
        },
        {
          "indexed": false,
          "internalType": "uint256",
          "name": "rewardToClaim",
          "type": "uint256"
        }
      ],
      "name": "Harvest",
      "type": "event"
    },
    {
      "anonymous": false,
      "inputs": [
        {
          "indexed": true,
          "internalType": "address",
          "name": "previousOwner",
          "type": "address"
        },
        {
          "indexed": true,
          "internalType": "address",
          "name": "newOwner",
          "type": "address"
        }
      ],
      "name": "OwnershipTransferred",
      "type": "event"
    },
    {
      "anonymous": false,
      "inputs": [
        {
          "indexed": false,
          "internalType": "uint256",
          "name": "lockupDuration",
          "type": "uint256"
        }
      ],
      "name": "SetEventPeriod",
      "type": "event"
    },
    {
      "anonymous": false,
      "inputs": [
        {
          "indexed": false,
          "internalType": "uint256",
          "name": "rewardRate",
          "type": "uint256"
        }
      ],
      "name": "SetRewardRate",
      "type": "event"
    },
    {
      "anonymous": false,
      "inputs": [
        {
          "indexed": false,
          "internalType": "uint256",
          "name": "unstakingFeeRate",
          "type": "uint256"
        }
      ],
      "name": "SetUnstakingFeeRate",
      "type": "event"
    },
    {
      "anonymous": false,
      "inputs": [
        {
          "indexed": false,
          "internalType": "address",
          "name": "staker",
          "type": "address"
        },
        {
          "indexed": false,
          "internalType": "uint256",
          "name": "amount",
          "type": "uint256"
        }
      ],
      "name": "Staked",
      "type": "event"
    },
    {
      "anonymous": false,
      "inputs": [
        {
          "indexed": false,
          "internalType": "address",
          "name": "staker",
          "type": "address"
        },
        {
          "indexed": false,
          "internalType": "uint256",
          "name": "amount",
          "type": "uint256"
        }
      ],
      "name": "Withdraw",
      "type": "event"
    },
    {
      "inputs": [],
      "name": "eventPeriod",
      "outputs": [
        {
          "internalType": "uint256",
          "name": "",
          "type": "uint256"
        }
      ],
      "stateMutability": "view",
      "type": "function"
    },
    {
      "inputs": [
        {
          "internalType": "uint256",
          "name": "_mode",
          "type": "uint256"
        }
      ],
      "name": "getMinimumStakingAmount",
      "outputs": [
        {
          "internalType": "uint256",
          "name": "",
          "type": "uint256"
        }
      ],
      "stateMutability": "view",
      "type": "function"
    },
    {
      "inputs": [],
      "name": "getNumberofStakers",
      "outputs": [
        {
          "internalType": "uint256",
          "name": "",
          "type": "uint256"
        }
      ],
      "stateMutability": "view",
      "type": "function"
    },
    {
      "inputs": [],
      "name": "getRewardRate",
      "outputs": [
        {
          "internalType": "uint256",
          "name": "",
          "type": "uint256"
        }
      ],
      "stateMutability": "view",
      "type": "function"
    },
    {
      "inputs": [
        {
          "internalType": "address",
          "name": "_address",
          "type": "address"
        }
      ],
      "name": "getStakerMode",
      "outputs": [
        {
          "internalType": "uint256",
          "name": "",
          "type": "uint256"
        }
      ],
      "stateMutability": "view",
      "type": "function"
    },
    {
      "inputs": [],
      "name": "getTotalStaked",
      "outputs": [
        {
          "internalType": "uint256",
          "name": "",
          "type": "uint256"
        }
      ],
      "stateMutability": "view",
      "type": "function"
    },
    {
      "inputs": [],
      "name": "harvest",
      "outputs": [],
      "stateMutability": "nonpayable",
      "type": "function"
    },
    {
      "inputs": [
        {
          "internalType": "address",
          "name": "_address",
          "type": "address"
        }
      ],
      "name": "isLocked",
      "outputs": [
        {
          "internalType": "uint256",
          "name": "",
          "type": "uint256"
        }
      ],
      "stateMutability": "view",
      "type": "function"
    },
    {
      "inputs": [
        {
          "internalType": "address",
          "name": "_address",
          "type": "address"
        }
      ],
      "name": "isStartStaking",
      "outputs": [
        {
          "internalType": "uint256",
          "name": "",
          "type": "uint256"
        }
      ],
      "stateMutability": "view",
      "type": "function"
    },
    {
      "inputs": [
        {
          "internalType": "uint256",
          "name": "mode",
          "type": "uint256"
        }
      ],
      "name": "lockupPeriod",
      "outputs": [
        {
          "internalType": "uint256",
          "name": "",
          "type": "uint256"
        }
      ],
      "stateMutability": "view",
      "type": "function"
    },
    {
      "inputs": [],
      "name": "owner",
      "outputs": [
        {
          "internalType": "address",
          "name": "",
          "type": "address"
        }
      ],
      "stateMutability": "view",
      "type": "function"
    },
    {
      "inputs": [],
      "name": "renounceOwnership",
      "outputs": [],
      "stateMutability": "nonpayable",
      "type": "function"
    },
    {
      "inputs": [
        {
          "internalType": "address",
          "name": "_address",
          "type": "address"
        }
      ],
      "name": "rewardToHarvest",
      "outputs": [
        {
          "internalType": "uint256",
          "name": "",
          "type": "uint256"
        }
      ],
      "stateMutability": "view",
      "type": "function"
    },
    {
      "inputs": [
        {
          "internalType": "uint256",
          "name": "_minAmount",
          "type": "uint256"
        }
      ],
      "name": "setCopperMinAmount",
      "outputs": [],
      "stateMutability": "nonpayable",
      "type": "function"
    },
    {
      "inputs": [
        {
          "internalType": "uint256",
          "name": "__eventPeriod",
          "type": "uint256"
        }
      ],
      "name": "setEventPeriod",
      "outputs": [],
      "stateMutability": "nonpayable",
      "type": "function"
    },
    {
      "inputs": [
        {
          "internalType": "uint256",
          "name": "_minAmount",
          "type": "uint256"
        }
      ],
      "name": "setGoldMinAmount",
      "outputs": [],
      "stateMutability": "nonpayable",
      "type": "function"
    },
    {
      "inputs": [
        {
          "internalType": "uint256",
          "name": "lockupTime",
          "type": "uint256"
        }
      ],
      "name": "setLockupTime",
      "outputs": [],
      "stateMutability": "nonpayable",
      "type": "function"
    },
    {
      "inputs": [
        {
          "internalType": "uint256",
          "name": "__rewardRate",
          "type": "uint256"
        }
      ],
      "name": "setRewardRate",
      "outputs": [],
      "stateMutability": "nonpayable",
      "type": "function"
    },
    {
      "inputs": [
        {
          "internalType": "uint256",
          "name": "_minAmount",
          "type": "uint256"
        }
      ],
      "name": "setSilverMinAmount",
      "outputs": [],
      "stateMutability": "nonpayable",
      "type": "function"
    },
    {
      "inputs": [
        {
          "internalType": "uint256",
          "name": "_minAmount",
          "type": "uint256"
        }
      ],
      "name": "setThreeMonthMinAmount",
      "outputs": [],
      "stateMutability": "nonpayable",
      "type": "function"
    },
    {
      "inputs": [
        {
          "internalType": "uint256",
          "name": "__unstakingFeeRate",
          "type": "uint256"
        }
      ],
      "name": "setUnstakingFeeRate",
      "outputs": [],
      "stateMutability": "nonpayable",
      "type": "function"
    },
    {
      "inputs": [
        {
          "internalType": "uint256",
          "name": "_amount",
          "type": "uint256"
        }
      ],
      "name": "stake",
      "outputs": [],
      "stateMutability": "nonpayable",
      "type": "function"
    },
    {
      "inputs": [
        {
          "internalType": "address",
          "name": "_address",
          "type": "address"
        }
      ],
      "name": "stakedAmount",
      "outputs": [
        {
          "internalType": "uint256",
          "name": "",
          "type": "uint256"
        }
      ],
      "stateMutability": "view",
      "type": "function"
    },
    {
      "inputs": [
        {
          "internalType": "uint256",
          "name": "_amount",
          "type": "uint256"
        },
        {
          "internalType": "uint256",
          "name": "_mode",
          "type": "uint256"
        }
      ],
      "name": "startStaking",
      "outputs": [],
      "stateMutability": "nonpayable",
      "type": "function"
    },
    {
      "inputs": [],
      "name": "token",
      "outputs": [
        {
          "internalType": "contract IBEP20",
          "name": "",
          "type": "address"
        }
      ],
      "stateMutability": "view",
      "type": "function"
    },
    {
      "inputs": [],
      "name": "totalStaked",
      "outputs": [
        {
          "internalType": "uint256",
          "name": "",
          "type": "uint256"
        }
      ],
      "stateMutability": "view",
      "type": "function"
    },
    {
      "inputs": [
        {
          "internalType": "address",
          "name": "newOwner",
          "type": "address"
        }
      ],
      "name": "transferOwnership",
      "outputs": [],
      "stateMutability": "nonpayable",
      "type": "function"
    },
    {
      "inputs": [],
      "name": "unstakingFeeLate",
      "outputs": [
        {
          "internalType": "uint256",
          "name": "",
          "type": "uint256"
        }
      ],
      "stateMutability": "view",
      "type": "function"
    },
    {
      "inputs": [
        {
          "internalType": "uint256",
          "name": "amount",
          "type": "uint256"
        }
      ],
      "name": "withdraw",
      "outputs": [],
      "stateMutability": "nonpayable",
      "type": "function"
    }
  ],
  "bytecode": "0x60806040523480156200001157600080fd5b5060405162003af138038062003af1833981810160405281019062000037919062000204565b620000576200004b620000af60201b60201c565b620000b760201b60201c565b620000676200017b60201b60201c565b80600d60006101000a81548173ffffffffffffffffffffffffffffffffffffffff021916908373ffffffffffffffffffffffffffffffffffffffff160217905550506200027e565b600033905090565b60008060009054906101000a900473ffffffffffffffffffffffffffffffffffffffff169050816000806101000a81548173ffffffffffffffffffffffffffffffffffffffff021916908373ffffffffffffffffffffffffffffffffffffffff1602179055508173ffffffffffffffffffffffffffffffffffffffff168173ffffffffffffffffffffffffffffffffffffffff167f8be0079c531659141344cd1fd0a4f28419497f9722a3daafe3b4186f6b6457e060405160405180910390a35050565b60c86003819055506105dc60018190555060646004819055506007600281905550605a6005819055506a027b46536c66c8e300000060068190555069d3c21bcecceda10000006009819055506a027b46536c66c8e30000006008819055506a05ca4ec2a79a7f67000000600781905550565b600081519050620001fe8162000264565b92915050565b6000602082840312156200021757600080fd5b60006200022784828501620001ed565b91505092915050565b60006200023d8262000244565b9050919050565b600073ffffffffffffffffffffffffffffffffffffffff82169050919050565b6200026f8162000230565b81146200027b57600080fd5b50565b613863806200028e6000396000f3fe608060405234801561001057600080fd5b50600436106101cf5760003560e01c8063817b1cd211610104578063aedf562b116100a2578063f2fde38b11610071578063f2fde38b146104de578063f9931855146104fa578063fc0c546a1461052a578063fe600f8414610548576101cf565b8063aedf562b14610446578063c1704a1414610476578063c665d80e14610492578063ce34751f146104ae576101cf565b806391e07e7a116100de57806391e07e7a146103d65780639e447fc6146103f2578063a694fc3a1461040e578063ae5449431461042a576101cf565b8063817b1cd21461036a5780638da5cb5b14610388578063909f093e146103a6576101cf565b80634b62b70b11610171578063692642e71161014b578063692642e7146102f65780636ef3243514610312578063715018a6146103425780637e1a37861461034c576101cf565b80634b62b70b146102a05780634b77dd9e146102bc5780635715ec11146102d8576101cf565b806323b61117116101ad57806323b611171461022e5780632e1a7d4d1461024a5780634641257d146102665780634a4fbeec14610270576101cf565b80630917e776146101d457806318b2367e146101f2578063221dfe0314610210575b600080fd5b6101dc610578565b6040516101e991906131f3565b60405180910390f35b6101fa610582565b60405161020791906131f3565b60405180910390f35b61021861058c565b60405161022591906131f3565b60405180910390f35b61024860048036038101906102439190612b49565b610596565b005b610264600480360381019061025f9190612b49565b61065f565b005b61026e610b74565b005b61028a60048036038101906102859190612af7565b610fd6565b60405161029791906131f3565b60405180910390f35b6102ba60048036038101906102b59190612b49565b61118e565b005b6102d660048036038101906102d19190612b9b565b611257565b005b6102e06116aa565b6040516102ed91906131f3565b60405180910390f35b610310600480360381019061030b9190612b49565b6116b7565b005b61032c60048036038101906103279190612af7565b6117b7565b60405161033991906131f3565b60405180910390f35b61034a6118fe565b005b610354611986565b60405161036191906131f3565b60405180910390f35b610372611990565b60405161037f91906131f3565b60405180910390f35b610390611996565b60405161039d9190612efb565b60405180910390f35b6103c060048036038101906103bb9190612b49565b6119bf565b6040516103cd91906131f3565b60405180910390f35b6103f060048036038101906103eb9190612b49565b611a5a565b005b61040c60048036038101906104079190612b49565b611b5a565b005b61042860048036038101906104239190612b49565b611c5a565b005b610444600480360381019061043f9190612b49565b611f57565b005b610460600480360381019061045b9190612af7565b612020565b60405161046d91906131f3565b60405180910390f35b610490600480360381019061048b9190612b49565b6120b7565b005b6104ac60048036038101906104a79190612b49565b612180565b005b6104c860048036038101906104c39190612b49565b612249565b6040516104d591906131f3565b60405180910390f35b6104f860048036038101906104f39190612af7565b612268565b005b610514600480360381019061050f9190612af7565b612360565b60405161052191906131f3565b60405180910390f35b6105326123ac565b60405161053f9190612f76565b60405180910390f35b610562600480360381019061055d9190612af7565b6123d2565b60405161056f91906131f3565b60405180910390f35b6000600c54905090565b6000600254905090565b6000600154905090565b61059e61241e565b73ffffffffffffffffffffffffffffffffffffffff166105bc611996565b73ffffffffffffffffffffffffffffffffffffffff1614610612576040517f08c379a0000000000000000000000000000000000000000000000000000000008152600401610609906130d3565b60405180910390fd5b60008111610655576040517f08c379a000000000000000000000000000000000000000000000000000000000815260040161064c90613173565b60405180910390fd5b8060088190555050565b600081116106a2576040517f08c379a0000000000000000000000000000000000000000000000000000000008152600401610699906130b3565b60405180910390fd5b600b60003373ffffffffffffffffffffffffffffffffffffffff1673ffffffffffffffffffffffffffffffffffffffff16815260200190815260200160002060010154811115610727576040517f08c379a000000000000000000000000000000000000000000000000000000000815260040161071e90613073565b60405180910390fd5b61072f612426565b6000600d60009054906101000a900473ffffffffffffffffffffffffffffffffffffffff1673ffffffffffffffffffffffffffffffffffffffff166370a08231306040518263ffffffff1660e01b815260040161078c9190612efb565b60206040518083038186803b1580156107a457600080fd5b505afa1580156107b8573d6000803e3d6000fd5b505050506040513d601f19601f820116820180604052508101906107dc9190612b72565b8210156107e95781610895565b600d60009054906101000a900473ffffffffffffffffffffffffffffffffffffffff1673ffffffffffffffffffffffffffffffffffffffff166370a08231306040518263ffffffff1660e01b81526004016108449190612efb565b60206040518083038186803b15801561085c57600080fd5b505afa158015610870573d6000803e3d6000fd5b505050506040513d601f19601f820116820180604052508101906108949190612b72565b5b90506000610903620151806108f5600b60003373ffffffffffffffffffffffffffffffffffffffff1673ffffffffffffffffffffffffffffffffffffffff16815260200190815260200160002060030154426125fb90919063ffffffff16565b61261190919063ffffffff16565b9050600060649050600080600b60003373ffffffffffffffffffffffffffffffffffffffff1673ffffffffffffffffffffffffffffffffffffffff1681526020019081526020016000206002015414156109cb576109c36109726201518060055461262790919063ffffffff16565b600b60003373ffffffffffffffffffffffffffffffffffffffff1673ffffffffffffffffffffffffffffffffffffffff1681526020019081526020016000206003015461263d90919063ffffffff16565b4210156109e9565b6000600254846109db91906133f4565b1480156109e85750600083115b5b9050806109f65760015491505b610a4b84600b60003373ffffffffffffffffffffffffffffffffffffffff1673ffffffffffffffffffffffffffffffffffffffff168152602001908152602001600020600101546125fb90919063ffffffff16565b600b60003373ffffffffffffffffffffffffffffffffffffffff1673ffffffffffffffffffffffffffffffffffffffff16815260200190815260200160002060010181905550610aa684600c546125fb90919063ffffffff16565b600c81905550610ae5610ad6612710610ac8858861262790919063ffffffff16565b61261190919063ffffffff16565b856125fb90919063ffffffff16565b9350610b343385600d60009054906101000a900473ffffffffffffffffffffffffffffffffffffffff1673ffffffffffffffffffffffffffffffffffffffff166126539092919063ffffffff16565b7f884edad9ce6fa2440d8a54cc123490eb96d2768479d49ff9c7366125a94243643385604051610b65929190612f4d565b60405180910390a15050505050565b610b7c612426565b6000600b60003373ffffffffffffffffffffffffffffffffffffffff1673ffffffffffffffffffffffffffffffffffffffff168152602001908152602001600020600001549050600d60009054906101000a900473ffffffffffffffffffffffffffffffffffffffff1673ffffffffffffffffffffffffffffffffffffffff166370a08231306040518263ffffffff1660e01b8152600401610c1e9190612efb565b60206040518083038186803b158015610c3657600080fd5b505afa158015610c4a573d6000803e3d6000fd5b505050506040513d601f19601f82011682018060405250810190610c6e9190612b72565b8110610d2257600d60009054906101000a900473ffffffffffffffffffffffffffffffffffffffff1673ffffffffffffffffffffffffffffffffffffffff166370a08231306040518263ffffffff1660e01b8152600401610ccf9190612efb565b60206040518083038186803b158015610ce757600080fd5b505afa158015610cfb573d6000803e3d6000fd5b505050506040513d601f19601f82011682018060405250810190610d1f9190612b72565b90505b6000610d5f610d50612710610d426004548661262790919063ffffffff16565b61261190919063ffffffff16565b836125fb90919063ffffffff16565b905060008111610da4576040517f08c379a0000000000000000000000000000000000000000000000000000000008152600401610d9b90612fd3565b60405180910390fd5b600d60009054906101000a900473ffffffffffffffffffffffffffffffffffffffff1673ffffffffffffffffffffffffffffffffffffffff166370a08231306040518263ffffffff1660e01b8152600401610dff9190612efb565b60206040518083038186803b158015610e1757600080fd5b505afa158015610e2b573d6000803e3d6000fd5b505050506040513d601f19601f82011682018060405250810190610e4f9190612b72565b811115610f0457600d60009054906101000a900473ffffffffffffffffffffffffffffffffffffffff1673ffffffffffffffffffffffffffffffffffffffff166370a08231306040518263ffffffff1660e01b8152600401610eb19190612efb565b60206040518083038186803b158015610ec957600080fd5b505afa158015610edd573d6000803e3d6000fd5b505050506040513d601f19601f82011682018060405250810190610f019190612b72565b90505b610f513382600d60009054906101000a900473ffffffffffffffffffffffffffffffffffffffff1673ffffffffffffffffffffffffffffffffffffffff166126539092919063ffffffff16565b6000600b60003373ffffffffffffffffffffffffffffffffffffffff1673ffffffffffffffffffffffffffffffffffffffff168152602001908152602001600020600001819055507fc9695243a805adb74c91f28311176c65b417e842d5699893cef56d18bfa48cba3382604051610fca929190612f4d565b60405180910390a15050565b60006037600b60008473ffffffffffffffffffffffffffffffffffffffff1673ffffffffffffffffffffffffffffffffffffffff168152602001908152602001600020600501541461102b5760009050611189565b6000600b60008473ffffffffffffffffffffffffffffffffffffffff1673ffffffffffffffffffffffffffffffffffffffff168152602001908152602001600020600201541461110657600060076110e3620151806110d5600b60008873ffffffffffffffffffffffffffffffffffffffff1673ffffffffffffffffffffffffffffffffffffffff16815260200190815260200160002060030154426125fb90919063ffffffff16565b61261190919063ffffffff16565b6110ed91906133f4565b146110f95760016110fc565b60005b60ff169050611189565b61111e6201518060055461262790919063ffffffff16565b611173600b60008573ffffffffffffffffffffffffffffffffffffffff1673ffffffffffffffffffffffffffffffffffffffff16815260200190815260200160002060030154426125fb90919063ffffffff16565b1015611180576001611183565b60005b60ff1690505b919050565b61119661241e565b73ffffffffffffffffffffffffffffffffffffffff166111b4611996565b73ffffffffffffffffffffffffffffffffffffffff161461120a576040517f08c379a0000000000000000000000000000000000000000000000000000000008152600401611201906130d3565b60405180910390fd5b6000811161124d576040517f08c379a000000000000000000000000000000000000000000000000000000000815260040161124490613173565b60405180910390fd5b8060058190555050565b6000821161129a576040517f08c379a0000000000000000000000000000000000000000000000000000000008152600401611291906130b3565b60405180910390fd5b81600d60009054906101000a900473ffffffffffffffffffffffffffffffffffffffff1673ffffffffffffffffffffffffffffffffffffffff166370a08231336040518263ffffffff1660e01b81526004016112f69190612efb565b60206040518083038186803b15801561130e57600080fd5b505afa158015611322573d6000803e3d6000fd5b505050506040513d601f19601f820116820180604052508101906113469190612b72565b11611386576040517f08c379a000000000000000000000000000000000000000000000000000000000815260040161137d906131d3565b60405180910390fd5b600061139133610fd6565b146113d1576040517f08c379a00000000000000000000000000000000000000000000000000000000081526004016113c8906131b3565b60405180910390fd5b60008114156114245760065482101561141f576040517f08c379a000000000000000000000000000000000000000000000000000000000815260040161141690612fb3565b60405180910390fd5b611564565b600181141561147757600954821015611472576040517f08c379a000000000000000000000000000000000000000000000000000000000815260040161146990612fb3565b60405180910390fd5b611563565b60028114156114ca576008548210156114c5576040517f08c379a00000000000000000000000000000000000000000000000000000000081526004016114bc90612fb3565b60405180910390fd5b611562565b600381141561151d57600754821015611518576040517f08c379a000000000000000000000000000000000000000000000000000000000815260040161150f90612fb3565b60405180910390fd5b611561565b60008210611560576040517f08c379a000000000000000000000000000000000000000000000000000000000815260040161155790613193565b60405180910390fd5b5b5b5b5b80600b60003373ffffffffffffffffffffffffffffffffffffffff1673ffffffffffffffffffffffffffffffffffffffff1681526020019081526020016000206002018190555042600b60003373ffffffffffffffffffffffffffffffffffffffff1673ffffffffffffffffffffffffffffffffffffffff168152602001908152602001600020600301819055506037600b60003373ffffffffffffffffffffffffffffffffffffffff1673ffffffffffffffffffffffffffffffffffffffff16815260200190815260200160002060050181905550600a339080600181540180825580915050600190039060005260206000200160009091909190916101000a81548173ffffffffffffffffffffffffffffffffffffffff021916908373ffffffffffffffffffffffffffffffffffffffff1602179055506116a682611c5a565b5050565b6000600a80549050905090565b6116bf61241e565b73ffffffffffffffffffffffffffffffffffffffff166116dd611996565b73ffffffffffffffffffffffffffffffffffffffff1614611733576040517f08c379a000000000000000000000000000000000000000000000000000000000815260040161172a906130d3565b60405180910390fd5b60008111611776576040517f08c379a000000000000000000000000000000000000000000000000000000000815260040161176d90613153565b60405180910390fd5b806002819055507f189bda9782663c67a3f95c0aa5455924c711210b00281c60ead2f0dd8dbc924c816040516117ac91906131f3565b60405180910390a150565b600080600b60008473ffffffffffffffffffffffffffffffffffffffff1673ffffffffffffffffffffffffffffffffffffffff16815260200190815260200160002060010154905060006118a56127106118976201518061188960035461187b61186c600b60008d73ffffffffffffffffffffffffffffffffffffffff1673ffffffffffffffffffffffffffffffffffffffff16815260200190815260200160002060040154426125fb90919063ffffffff16565b8961262790919063ffffffff16565b61262790919063ffffffff16565b61261190919063ffffffff16565b61261190919063ffffffff16565b905080600b60003373ffffffffffffffffffffffffffffffffffffffff1673ffffffffffffffffffffffffffffffffffffffff168152602001908152602001600020600001546118f59190613240565b92505050919050565b61190661241e565b73ffffffffffffffffffffffffffffffffffffffff16611924611996565b73ffffffffffffffffffffffffffffffffffffffff161461197a576040517f08c379a0000000000000000000000000000000000000000000000000000000008152600401611971906130d3565b60405180910390fd5b61198460006126d9565b565b6000600354905090565b600c5481565b60008060009054906101000a900473ffffffffffffffffffffffffffffffffffffffff16905090565b6000806000905060008314806119d55750600283145b156119e4576006549050611a51565b60018314156119f7576009549050611a50565b6003831415611a0a576007549050611a4f565b6001600011611a4e576040517f08c379a0000000000000000000000000000000000000000000000000000000008152600401611a4590613193565b60405180910390fd5b5b5b5b80915050919050565b611a6261241e565b73ffffffffffffffffffffffffffffffffffffffff16611a80611996565b73ffffffffffffffffffffffffffffffffffffffff1614611ad6576040517f08c379a0000000000000000000000000000000000000000000000000000000008152600401611acd906130d3565b60405180910390fd5b60008111611b19576040517f08c379a0000000000000000000000000000000000000000000000000000000008152600401611b1090613133565b60405180910390fd5b806001819055507f150c688dd7595bf7862b8ab1fe46756450eb7d731037942b3bbc46f3f0e21b8181604051611b4f91906131f3565b60405180910390a150565b611b6261241e565b73ffffffffffffffffffffffffffffffffffffffff16611b80611996565b73ffffffffffffffffffffffffffffffffffffffff1614611bd6576040517f08c379a0000000000000000000000000000000000000000000000000000000008152600401611bcd906130d3565b60405180910390fd5b60008111611c19576040517f08c379a0000000000000000000000000000000000000000000000000000000008152600401611c10906130f3565b60405180910390fd5b806003819055507f1946fb78c7ca778b54d82cabaac5ba67cf446f58d0ff1f8ceaebb6150e54e44f81604051611c4f91906131f3565b60405180910390a150565b60008111611c9d576040517f08c379a0000000000000000000000000000000000000000000000000000000008152600401611c94906130b3565b60405180910390fd5b80600d60009054906101000a900473ffffffffffffffffffffffffffffffffffffffff1673ffffffffffffffffffffffffffffffffffffffff166370a08231336040518263ffffffff1660e01b8152600401611cf99190612efb565b60206040518083038186803b158015611d1157600080fd5b505afa158015611d25573d6000803e3d6000fd5b505050506040513d601f19601f82011682018060405250810190611d499190612b72565b11611d89576040517f08c379a0000000000000000000000000000000000000000000000000000000008152600401611d80906131d3565b60405180910390fd5b6037600b60003373ffffffffffffffffffffffffffffffffffffffff1673ffffffffffffffffffffffffffffffffffffffff1681526020019081526020016000206005015414611e0e576040517f08c379a0000000000000000000000000000000000000000000000000000000008152600401611e0590612ff3565b60405180910390fd5b611e16612426565b611e65333083600d60009054906101000a900473ffffffffffffffffffffffffffffffffffffffff1673ffffffffffffffffffffffffffffffffffffffff1661279d909392919063ffffffff16565b611eba81600b60003373ffffffffffffffffffffffffffffffffffffffff1673ffffffffffffffffffffffffffffffffffffffff1681526020019081526020016000206001015461263d90919063ffffffff16565b600b60003373ffffffffffffffffffffffffffffffffffffffff1673ffffffffffffffffffffffffffffffffffffffff16815260200190815260200160002060010181905550611f1581600c5461263d90919063ffffffff16565b600c819055507f9e71bc8eea02a63969f509818f2dafb9254532904319f9dbda79b67bd34a5f3d3382604051611f4c929190612f4d565b60405180910390a150565b611f5f61241e565b73ffffffffffffffffffffffffffffffffffffffff16611f7d611996565b73ffffffffffffffffffffffffffffffffffffffff1614611fd3576040517f08c379a0000000000000000000000000000000000000000000000000000000008152600401611fca906130d3565b60405180910390fd5b60008111612016576040517f08c379a000000000000000000000000000000000000000000000000000000000815260040161200d90613173565b60405180910390fd5b8060078190555050565b6000603761202d836123d2565b1461206d576040517f08c379a000000000000000000000000000000000000000000000000000000000815260040161206490613053565b60405180910390fd5b600b60008373ffffffffffffffffffffffffffffffffffffffff1673ffffffffffffffffffffffffffffffffffffffff168152602001908152602001600020600201549050919050565b6120bf61241e565b73ffffffffffffffffffffffffffffffffffffffff166120dd611996565b73ffffffffffffffffffffffffffffffffffffffff1614612133576040517f08c379a000000000000000000000000000000000000000000000000000000000815260040161212a906130d3565b60405180910390fd5b60008111612176576040517f08c379a000000000000000000000000000000000000000000000000000000000815260040161216d90613173565b60405180910390fd5b8060098190555050565b61218861241e565b73ffffffffffffffffffffffffffffffffffffffff166121a6611996565b73ffffffffffffffffffffffffffffffffffffffff16146121fc576040517f08c379a00000000000000000000000000000000000000000000000000000000081526004016121f3906130d3565b60405180910390fd5b6000811161223f576040517f08c379a000000000000000000000000000000000000000000000000000000000815260040161223690613173565b60405180910390fd5b8060068190555050565b60008082141561225d576005549050612263565b60025490505b919050565b61227061241e565b73ffffffffffffffffffffffffffffffffffffffff1661228e611996565b73ffffffffffffffffffffffffffffffffffffffff16146122e4576040517f08c379a00000000000000000000000000000000000000000000000000000000081526004016122db906130d3565b60405180910390fd5b600073ffffffffffffffffffffffffffffffffffffffff168173ffffffffffffffffffffffffffffffffffffffff161415612354576040517f08c379a000000000000000000000000000000000000000000000000000000000815260040161234b90613033565b60405180910390fd5b61235d816126d9565b50565b6000600b60008373ffffffffffffffffffffffffffffffffffffffff1673ffffffffffffffffffffffffffffffffffffffff168152602001908152602001600020600101549050919050565b600d60009054906101000a900473ffffffffffffffffffffffffffffffffffffffff1681565b6000600b60008373ffffffffffffffffffffffffffffffffffffffff1673ffffffffffffffffffffffffffffffffffffffff168152602001908152602001600020600501549050919050565b600033905090565b6000600b60003373ffffffffffffffffffffffffffffffffffffffff1673ffffffffffffffffffffffffffffffffffffffff1681526020019081526020016000206001015490506000612513612710612505620151806124f76003546124e96124da600b60003373ffffffffffffffffffffffffffffffffffffffff1673ffffffffffffffffffffffffffffffffffffffff16815260200190815260200160002060040154426125fb90919063ffffffff16565b8961262790919063ffffffff16565b61262790919063ffffffff16565b61261190919063ffffffff16565b61261190919063ffffffff16565b905061256a81600b60003373ffffffffffffffffffffffffffffffffffffffff1673ffffffffffffffffffffffffffffffffffffffff1681526020019081526020016000206000015461263d90919063ffffffff16565b600b60003373ffffffffffffffffffffffffffffffffffffffff1673ffffffffffffffffffffffffffffffffffffffff1681526020019081526020016000206000018190555042600b60003373ffffffffffffffffffffffffffffffffffffffff1673ffffffffffffffffffffffffffffffffffffffff168152602001908152602001600020600401819055505050565b600081836126099190613321565b905092915050565b6000818361261f9190613296565b905092915050565b6000818361263591906132c7565b905092915050565b6000818361264b9190613240565b905092915050565b6126d48363a9059cbb60e01b8484604051602401612672929190612f4d565b604051602081830303815290604052907bffffffffffffffffffffffffffffffffffffffffffffffffffffffff19166020820180517bffffffffffffffffffffffffffffffffffffffffffffffffffffffff8381831617835250505050612826565b505050565b60008060009054906101000a900473ffffffffffffffffffffffffffffffffffffffff169050816000806101000a81548173ffffffffffffffffffffffffffffffffffffffff021916908373ffffffffffffffffffffffffffffffffffffffff1602179055508173ffffffffffffffffffffffffffffffffffffffff168173ffffffffffffffffffffffffffffffffffffffff167f8be0079c531659141344cd1fd0a4f28419497f9722a3daafe3b4186f6b6457e060405160405180910390a35050565b612820846323b872dd60e01b8585856040516024016127be93929190612f16565b604051602081830303815290604052907bffffffffffffffffffffffffffffffffffffffffffffffffffffffff19166020820180517bffffffffffffffffffffffffffffffffffffffffffffffffffffffff8381831617835250505050612826565b50505050565b6000612888826040518060400160405280602081526020017f5361666542455032303a206c6f772d6c6576656c2063616c6c206661696c65648152508573ffffffffffffffffffffffffffffffffffffffff166128ed9092919063ffffffff16565b90506000815111156128e857808060200190518101906128a89190612b20565b6128e7576040517f08c379a00000000000000000000000000000000000000000000000000000000081526004016128de90613013565b60405180910390fd5b5b505050565b60606128fc8484600085612905565b90509392505050565b60608247101561294a576040517f08c379a000000000000000000000000000000000000000000000000000000000815260040161294190613093565b60405180910390fd5b61295385612a19565b612992576040517f08c379a000000000000000000000000000000000000000000000000000000000815260040161298990613113565b60405180910390fd5b6000808673ffffffffffffffffffffffffffffffffffffffff1685876040516129bb9190612ee4565b60006040518083038185875af1925050503d80600081146129f8576040519150601f19603f3d011682016040523d82523d6000602084013e6129fd565b606091505b5091509150612a0d828286612a3c565b92505050949350505050565b6000808273ffffffffffffffffffffffffffffffffffffffff163b119050919050565b60608315612a4c57829050612a9c565b600083511115612a5f5782518084602001fd5b816040517f08c379a0000000000000000000000000000000000000000000000000000000008152600401612a939190612f91565b60405180910390fd5b9392505050565b600081359050612ab2816137e8565b92915050565b600081519050612ac7816137ff565b92915050565b600081359050612adc81613816565b92915050565b600081519050612af181613816565b92915050565b600060208284031215612b0957600080fd5b6000612b1784828501612aa3565b91505092915050565b600060208284031215612b3257600080fd5b6000612b4084828501612ab8565b91505092915050565b600060208284031215612b5b57600080fd5b6000612b6984828501612acd565b91505092915050565b600060208284031215612b8457600080fd5b6000612b9284828501612ae2565b91505092915050565b60008060408385031215612bae57600080fd5b6000612bbc85828601612acd565b9250506020612bcd85828601612acd565b9150509250929050565b612be081613355565b82525050565b6000612bf18261320e565b612bfb8185613224565b9350612c0b8185602086016133c1565b80840191505092915050565b612c208161339d565b82525050565b6000612c3182613219565b612c3b818561322f565b9350612c4b8185602086016133c1565b612c5481613483565b840191505092915050565b6000612c6c600c8361322f565b9150612c7782613494565b602082019050919050565b6000612c8f60108361322f565b9150612c9a826134bd565b602082019050919050565b6000612cb260158361322f565b9150612cbd826134e6565b602082019050919050565b6000612cd5602a8361322f565b9150612ce08261350f565b604082019050919050565b6000612cf860268361322f565b9150612d038261355e565b604082019050919050565b6000612d1b600e8361322f565b9150612d26826135ad565b602082019050919050565b6000612d3e600e8361322f565b9150612d49826135d6565b602082019050919050565b6000612d6160268361322f565b9150612d6c826135ff565b604082019050919050565b6000612d84601f8361322f565b9150612d8f8261364e565b602082019050919050565b6000612da760208361322f565b9150612db282613677565b602082019050919050565b6000612dca600d8361322f565b9150612dd5826136a0565b602082019050919050565b6000612ded601d8361322f565b9150612df8826136c9565b602082019050919050565b6000612e10601a8361322f565b9150612e1b826136f2565b602082019050919050565b6000612e3360178361322f565b9150612e3e8261371b565b602082019050919050565b6000612e56600d8361322f565b9150612e6182613744565b602082019050919050565b6000612e79600c8361322f565b9150612e848261376d565b602082019050919050565b6000612e9c600b8361322f565b9150612ea782613796565b602082019050919050565b6000612ebf600d8361322f565b9150612eca826137bf565b602082019050919050565b612ede81613393565b82525050565b6000612ef08284612be6565b915081905092915050565b6000602082019050612f106000830184612bd7565b92915050565b6000606082019050612f2b6000830186612bd7565b612f386020830185612bd7565b612f456040830184612ed5565b949350505050565b6000604082019050612f626000830185612bd7565b612f6f6020830184612ed5565b9392505050565b6000602082019050612f8b6000830184612c17565b92915050565b60006020820190508181036000830152612fab8184612c26565b905092915050565b60006020820190508181036000830152612fcc81612c5f565b9050919050565b60006020820190508181036000830152612fec81612c82565b9050919050565b6000602082019050818103600083015261300c81612ca5565b9050919050565b6000602082019050818103600083015261302c81612cc8565b9050919050565b6000602082019050818103600083015261304c81612ceb565b9050919050565b6000602082019050818103600083015261306c81612d0e565b9050919050565b6000602082019050818103600083015261308c81612d31565b9050919050565b600060208201905081810360008301526130ac81612d54565b9050919050565b600060208201905081810360008301526130cc81612d77565b9050919050565b600060208201905081810360008301526130ec81612d9a565b9050919050565b6000602082019050818103600083015261310c81612dbd565b9050919050565b6000602082019050818103600083015261312c81612de0565b9050919050565b6000602082019050818103600083015261314c81612e03565b9050919050565b6000602082019050818103600083015261316c81612e26565b9050919050565b6000602082019050818103600083015261318c81612e49565b9050919050565b600060208201905081810360008301526131ac81612e6c565b9050919050565b600060208201905081810360008301526131cc81612e8f565b9050919050565b600060208201905081810360008301526131ec81612eb2565b9050919050565b60006020820190506132086000830184612ed5565b92915050565b600081519050919050565b600081519050919050565b600081905092915050565b600082825260208201905092915050565b600061324b82613393565b915061325683613393565b9250827fffffffffffffffffffffffffffffffffffffffffffffffffffffffffffffffff0382111561328b5761328a613425565b5b828201905092915050565b60006132a182613393565b91506132ac83613393565b9250826132bc576132bb613454565b5b828204905092915050565b60006132d282613393565b91506132dd83613393565b9250817fffffffffffffffffffffffffffffffffffffffffffffffffffffffffffffffff048311821515161561331657613315613425565b5b828202905092915050565b600061332c82613393565b915061333783613393565b92508282101561334a57613349613425565b5b828203905092915050565b600061336082613373565b9050919050565b60008115159050919050565b600073ffffffffffffffffffffffffffffffffffffffff82169050919050565b6000819050919050565b60006133a8826133af565b9050919050565b60006133ba82613373565b9050919050565b60005b838110156133df5780820151818401526020810190506133c4565b838111156133ee576000848401525b50505050565b60006133ff82613393565b915061340a83613393565b92508261341a57613419613454565b5b828206905092915050565b7f4e487b7100000000000000000000000000000000000000000000000000000000600052601160045260246000fd5b7f4e487b7100000000000000000000000000000000000000000000000000000000600052601260045260246000fd5b6000601f19601f8301169050919050565b7f496e73756666696369656e740000000000000000000000000000000000000000600082015250565b7f4e6f7468696e6720746f20636c61696d00000000000000000000000000000000600082015250565b7f4572726f723a20696e76616c6964207374616b65720000000000000000000000600082015250565b7f5361666542455032303a204245503230206f7065726174696f6e20646964206e60008201527f6f74207375636365656400000000000000000000000000000000000000000000602082015250565b7f4f776e61626c653a206e6577206f776e657220697320746865207a65726f206160008201527f6464726573730000000000000000000000000000000000000000000000000000602082015250565b7f4e6f74207374616b657220796574000000000000000000000000000000000000600082015250565b7f496e76616c696420616d6f756e74000000000000000000000000000000000000600082015250565b7f416464726573733a20696e73756666696369656e742062616c616e636520666f60008201527f722063616c6c0000000000000000000000000000000000000000000000000000602082015250565b7f416d6f756e742073686f756c642062652067726561746572207468616e203000600082015250565b7f4f776e61626c653a2063616c6c6572206973206e6f7420746865206f776e6572600082015250565b7f496e76616c69642076616c756500000000000000000000000000000000000000600082015250565b7f416464726573733a2063616c6c20746f206e6f6e2d636f6e7472616374000000600082015250565b7f496e76616c696420556e7374616b696e67204665652052617465000000000000600082015250565b7f496e76616c6964204c6f636b7570204475726174696f6e000000000000000000600082015250565b7f43616e2774206265207a65726f00000000000000000000000000000000000000600082015250565b7f496e76616c6964204d6f64650000000000000000000000000000000000000000600082015250565b7f43616e2774207374617274000000000000000000000000000000000000000000600082015250565b7f496e73756666696369656e742100000000000000000000000000000000000000600082015250565b6137f181613355565b81146137fc57600080fd5b50565b61380881613367565b811461381357600080fd5b50565b61381f81613393565b811461382a57600080fd5b5056fea2646970667358221220f7e3cb71ce6ecb515c47435c87db64bb392b9f99833d285f5de65ff12885044264736f6c63430008040033",
  "linkReferences": {},
  "deployedLinkReferences": {}
}