{
  "_format": "hh-sol-artifact-1",
  "contractName": "Task3",
  "sourceName": "contracts/test.sol",
  "abi": [
    {
      "inputs": [
        {
          "internalType": "string[]",
          "name": "data",
          "type": "string[]"
        }
      ],
      "name": "trimMirroringChars",
      "outputs": [
        {
          "internalType": "string",
          "name": "",
          "type": "string"
        }
      ],
      "stateMutability": "pure",
      "type": "function"
    }
  ],
  "bytecode": "0x608060405234801561001057600080fd5b506109b1806100206000396000f3fe608060405234801561001057600080fd5b506004361061002b5760003560e01c8063daab840514610030575b600080fd5b61004a600480360381019061004591906105ec565b610060565b604051610057919061070e565b60405180910390f35b60606000604051602001610073906106f9565b604051602081830303815290604052905060005b83518110156100ef576100da828583815181106100cd577f4e487b7100000000000000000000000000000000000000000000000000000000600052603260045260246000fd5b60200260200101516100f9565b915080806100e7906108b6565b915050610087565b5080915050919050565b6060806101058461036d565b90506000835185511161011957845161011c565b83515b90506000805b8281101561022157858181518110610163577f4e487b7100000000000000000000000000000000000000000000000000000000600052603260045260246000fd5b602001015160f81c60f81b7effffffffffffffffffffffffffffffffffffffffffffffffffffffffffffff19168482815181106101c9577f4e487b7100000000000000000000000000000000000000000000000000000000600052603260045260246000fd5b602001015160f81c60f81b7effffffffffffffffffffffffffffffffffffffffffffffffffffffffffffff19161461020057610221565b818061020b906108b6565b9250508080610219906108b6565b915050610122565b506000604051602001610233906106f9565b604051602081830303815290604052905060005b82885161025491906107d9565b8110156102d55781888281518110610295577f4e487b7100000000000000000000000000000000000000000000000000000000600052603260045260246000fd5b602001015160f81c60f81b6040516020016102b19291906106d1565b604051602081830303815290604052915080806102cd906108b6565b915050610247565b5060008290505b865181101561035f578187828151811061031f577f4e487b7100000000000000000000000000000000000000000000000000000000600052603260045260246000fd5b602001015160f81c60f81b60405160200161033b9291906106d1565b60405160208183030381529060405291508080610357906108b6565b9150506102dc565b508094505050505092915050565b60606000825167ffffffffffffffff8111156103b2577f4e487b7100000000000000000000000000000000000000000000000000000000600052604160045260246000fd5b6040519080825280601f01601f1916602001820160405280156103e45781602001600182028036833780820191505090505b50905060005b83518110156104ca5783816001865161040391906107d9565b61040d91906107d9565b81518110610444577f4e487b7100000000000000000000000000000000000000000000000000000000600052603260045260246000fd5b602001015160f81c60f81b828281518110610488577f4e487b7100000000000000000000000000000000000000000000000000000000600052603260045260246000fd5b60200101907effffffffffffffffffffffffffffffffffffffffffffffffffffffffffffff1916908160001a90535080806104c2906108b6565b9150506103ea565b5080915050919050565b60006104e76104e284610755565b610730565b9050808382526020820190508285602086028201111561050657600080fd5b60005b8581101561055057813567ffffffffffffffff81111561052857600080fd5b80860161053589826105c2565b85526020850194506020840193505050600181019050610509565b5050509392505050565b600061056d61056884610781565b610730565b90508281526020810184848401111561058557600080fd5b610590848285610843565b509392505050565b600082601f8301126105a957600080fd5b81356105b98482602086016104d4565b91505092915050565b600082601f8301126105d357600080fd5b81356105e384826020860161055a565b91505092915050565b6000602082840312156105fe57600080fd5b600082013567ffffffffffffffff81111561061857600080fd5b61062484828501610598565b91505092915050565b61063e6106398261080d565b6108ff565b82525050565b600061064f826107b2565b61065981856107bd565b9350610669818560208601610852565b61067281610967565b840191505092915050565b6000610688826107b2565b61069281856107ce565b93506106a2818560208601610852565b80840191505092915050565b60006106bb6000836107ce565b91506106c682610978565b600082019050919050565b60006106dd828561067d565b91506106e9828461062d565b6001820191508190509392505050565b6000610704826106ae565b9150819050919050565b600060208201905081810360008301526107288184610644565b905092915050565b600061073a61074b565b90506107468282610885565b919050565b6000604051905090565b600067ffffffffffffffff8211156107705761076f610938565b5b602082029050602081019050919050565b600067ffffffffffffffff82111561079c5761079b610938565b5b6107a582610967565b9050602081019050919050565b600081519050919050565b600082825260208201905092915050565b600081905092915050565b60006107e482610839565b91506107ef83610839565b92508282101561080257610801610909565b5b828203905092915050565b60007fff0000000000000000000000000000000000000000000000000000000000000082169050919050565b6000819050919050565b82818337600083830152505050565b60005b83811015610870578082015181840152602081019050610855565b8381111561087f576000848401525b50505050565b61088e82610967565b810181811067ffffffffffffffff821117156108ad576108ac610938565b5b80604052505050565b60006108c182610839565b91507fffffffffffffffffffffffffffffffffffffffffffffffffffffffffffffffff8214156108f4576108f3610909565b5b600182019050919050565b6000819050919050565b7f4e487b7100000000000000000000000000000000000000000000000000000000600052601160045260246000fd5b7f4e487b7100000000000000000000000000000000000000000000000000000000600052604160045260246000fd5b6000601f19601f8301169050919050565b5056fea264697066735822122093c14c9b896191cd923c411ad69ce20eecaf677680f4430d00f9f0a834bcaf1364736f6c63430008040033",
  "linkReferences": {},
  "deployedLinkReferences": {}
}